{
  "contractName": "AdminsManager",
  "abi": [
    {
      "inputs": [],
      "stateMutability": "nonpayable",
      "type": "constructor"
    },
    {
      "anonymous": false,
      "inputs": [
        {
          "indexed": false,
          "internalType": "uint256",
          "name": "groupId",
          "type": "uint256"
        },
        {
          "indexed": false,
          "internalType": "address",
          "name": "account",
          "type": "address"
        },
        {
          "indexed": false,
          "internalType": "uint256",
          "name": "index",
          "type": "uint256"
        }
      ],
      "name": "AdminAdded",
      "type": "event"
    },
    {
      "anonymous": false,
      "inputs": [
        {
          "indexed": false,
          "internalType": "uint256",
          "name": "groupId",
          "type": "uint256"
        },
        {
          "indexed": false,
          "internalType": "string",
          "name": "name",
          "type": "string"
        }
      ],
      "name": "AdminReEnabled",
      "type": "event"
    },
    {
      "anonymous": false,
      "inputs": [
        {
          "indexed": false,
          "internalType": "uint256",
          "name": "groupId",
          "type": "uint256"
        },
        {
          "indexed": false,
          "internalType": "string",
          "name": "name",
          "type": "string"
        }
      ],
      "name": "AdminRemoved",
      "type": "event"
    },
    {
      "anonymous": false,
      "inputs": [
        {
          "indexed": false,
          "internalType": "bool",
          "name": "isPaused",
          "type": "bool"
        }
      ],
      "name": "AppPaused",
      "type": "event"
    },
    {
      "anonymous": false,
      "inputs": [
        {
          "indexed": false,
          "internalType": "uint256",
          "name": "registeredRecipientCount",
          "type": "uint256"
        },
        {
          "indexed": false,
          "internalType": "uint256",
          "name": "winningsPerRecipient",
          "type": "uint256"
        }
      ],
      "name": "CalculatedPot",
      "type": "event"
    },
    {
      "anonymous": false,
      "inputs": [],
      "name": "CfoUpdated",
      "type": "event"
    },
    {
      "anonymous": false,
      "inputs": [
        {
          "indexed": false,
          "internalType": "address",
          "name": "newContract",
          "type": "address"
        }
      ],
      "name": "ContractUpgrade",
      "type": "event"
    },
    {
      "anonymous": false,
      "inputs": [
        {
          "indexed": true,
          "internalType": "address",
          "name": "account",
          "type": "address"
        },
        {
          "indexed": false,
          "internalType": "uint256",
          "name": "groupId",
          "type": "uint256"
        },
        {
          "indexed": false,
          "internalType": "uint256",
          "name": "amount",
          "type": "uint256"
        }
      ],
      "name": "ContributionMade",
      "type": "event"
    },
    {
      "anonymous": false,
      "inputs": [
        {
          "indexed": true,
          "internalType": "address",
          "name": "account",
          "type": "address"
        },
        {
          "indexed": false,
          "internalType": "uint256",
          "name": "groupId",
          "type": "uint256"
        }
      ],
      "name": "ContributorAdded",
      "type": "event"
    },
    {
      "anonymous": false,
      "inputs": [
        {
          "indexed": false,
          "internalType": "uint256",
          "name": "groupId",
          "type": "uint256"
        },
        {
          "indexed": false,
          "internalType": "address",
          "name": "newContributor",
          "type": "address"
        }
      ],
      "name": "ContributorAddressUpdated",
      "type": "event"
    },
    {
      "anonymous": false,
      "inputs": [
        {
          "indexed": false,
          "internalType": "uint256",
          "name": "groupId",
          "type": "uint256"
        },
        {
          "indexed": false,
          "internalType": "string",
          "name": "sponsorName",
          "type": "string"
        },
        {
          "indexed": false,
          "internalType": "string",
          "name": "imgUrl",
          "type": "string"
        },
        {
          "indexed": false,
          "internalType": "string",
          "name": "imgLinkToUrl",
          "type": "string"
        }
      ],
      "name": "ContributorInfoUpdated",
      "type": "event"
    },
    {
      "anonymous": false,
      "inputs": [
        {
          "indexed": true,
          "internalType": "address",
          "name": "account",
          "type": "address"
        },
        {
          "indexed": false,
          "internalType": "uint256",
          "name": "groupId",
          "type": "uint256"
        }
      ],
      "name": "ContributorRemoved",
      "type": "event"
    },
    {
      "anonymous": false,
      "inputs": [],
      "name": "CooUpdated",
      "type": "event"
    },
    {
      "anonymous": false,
      "inputs": [
        {
          "indexed": true,
          "internalType": "address",
          "name": "account",
          "type": "address"
        },
        {
          "indexed": false,
          "internalType": "uint256",
          "name": "groupId",
          "type": "uint256"
        }
      ],
      "name": "EligibleRecipientAdded",
      "type": "event"
    },
    {
      "anonymous": false,
      "inputs": [
        {
          "indexed": true,
          "internalType": "address",
          "name": "account",
          "type": "address"
        },
        {
          "indexed": false,
          "internalType": "uint256",
          "name": "groupId",
          "type": "uint256"
        }
      ],
      "name": "EligibleRecipientRemoved",
      "type": "event"
    },
    {
      "anonymous": false,
      "inputs": [],
      "name": "EventClose",
      "type": "event"
    },
    {
      "anonymous": false,
      "inputs": [
        {
          "indexed": false,
          "internalType": "uint256",
          "name": "groupId",
          "type": "uint256"
        },
        {
          "indexed": true,
          "internalType": "address",
          "name": "endedBy",
          "type": "address"
        }
      ],
      "name": "EventEnded",
      "type": "event"
    },
    {
      "anonymous": false,
      "inputs": [
        {
          "indexed": false,
          "internalType": "uint256",
          "name": "groupId",
          "type": "uint256"
        },
        {
          "indexed": true,
          "internalType": "address",
          "name": "startedBy",
          "type": "address"
        }
      ],
      "name": "EventStarted",
      "type": "event"
    },
    {
      "anonymous": false,
      "inputs": [
        {
          "indexed": false,
          "internalType": "uint256",
          "name": "groupId",
          "type": "uint256"
        },
        {
          "indexed": false,
          "internalType": "address",
          "name": "account",
          "type": "address"
        },
        {
          "indexed": false,
          "internalType": "uint256",
          "name": "index",
          "type": "uint256"
        }
      ],
      "name": "GettingMyAdminIndex",
      "type": "event"
    },
    {
      "anonymous": false,
      "inputs": [
        {
          "indexed": false,
          "internalType": "uint256",
          "name": "groupId",
          "type": "uint256"
        },
        {
          "indexed": false,
          "internalType": "string",
          "name": "groupName",
          "type": "string"
        }
      ],
      "name": "GroupCreated",
      "type": "event"
    },
    {
      "anonymous": false,
      "inputs": [
        {
          "indexed": false,
          "internalType": "uint256",
          "name": "groupId",
          "type": "uint256"
        },
        {
          "indexed": false,
          "internalType": "address",
          "name": "addressOfUserGettingApproved",
          "type": "address"
        },
        {
          "indexed": false,
          "internalType": "string",
          "name": "nameOfUserGettingApproved",
          "type": "string"
        }
      ],
      "name": "NewJoinerRequestApproved",
      "type": "event"
    },
    {
      "anonymous": false,
      "inputs": [
        {
          "indexed": false,
          "internalType": "uint256",
          "name": "groupId",
          "type": "uint256"
        },
        {
          "indexed": false,
          "internalType": "address",
          "name": "account",
          "type": "address"
        },
        {
          "indexed": false,
          "internalType": "uint256",
          "name": "index",
          "type": "uint256"
        }
      ],
      "name": "NewUserRequestedToJoinGroup",
      "type": "event"
    },
    {
      "anonymous": false,
      "inputs": [
        {
          "indexed": true,
          "internalType": "address",
          "name": "account",
          "type": "address"
        },
        {
          "indexed": false,
          "internalType": "uint256",
          "name": "groupId",
          "type": "uint256"
        }
      ],
      "name": "RecipientRegistered",
      "type": "event"
    },
    {
      "anonymous": false,
      "inputs": [
        {
          "indexed": false,
          "internalType": "uint256",
          "name": "groupId",
          "type": "uint256"
        },
        {
          "indexed": true,
          "internalType": "address",
          "name": "endedBy",
          "type": "address"
        }
      ],
      "name": "RegistrationEnded",
      "type": "event"
    },
    {
      "anonymous": false,
      "inputs": [],
      "name": "RegistrationOpen",
      "type": "event"
    },
    {
      "anonymous": false,
      "inputs": [
        {
          "indexed": false,
          "internalType": "address",
          "name": "from",
          "type": "address"
        },
        {
          "indexed": false,
          "internalType": "address",
          "name": "to",
          "type": "address"
        }
      ],
      "name": "Transfer",
      "type": "event"
    },
    {
      "anonymous": false,
      "inputs": [
        {
          "indexed": true,
          "internalType": "address",
          "name": "account",
          "type": "address"
        },
        {
          "indexed": false,
          "internalType": "uint256",
          "name": "groupId",
          "type": "uint256"
        }
      ],
      "name": "WinningsClaimed",
      "type": "event"
    },
    {
      "anonymous": false,
      "inputs": [],
      "name": "WinningsClaimingOpen",
      "type": "event"
    },
    {
      "inputs": [
        {
          "internalType": "uint256",
          "name": "groupId",
          "type": "uint256"
        }
      ],
      "name": "amIContributor",
      "outputs": [
        {
          "internalType": "bool",
          "name": "",
          "type": "bool"
        }
      ],
      "stateMutability": "view",
      "type": "function",
      "constant": true
    },
    {
      "inputs": [
        {
          "internalType": "uint256",
          "name": "groupId",
          "type": "uint256"
        }
      ],
      "name": "amIEligibleRecipient",
      "outputs": [
        {
          "internalType": "bool",
          "name": "",
          "type": "bool"
        }
      ],
      "stateMutability": "view",
      "type": "function",
      "constant": true
    },
    {
      "inputs": [
        {
          "internalType": "uint256",
          "name": "groupId",
          "type": "uint256"
        }
      ],
      "name": "amIPendingNewJoiner",
      "outputs": [
        {
          "internalType": "bool",
          "name": "",
          "type": "bool"
        }
      ],
      "stateMutability": "view",
      "type": "function",
      "constant": true
    },
    {
      "inputs": [
        {
          "internalType": "uint256",
          "name": "groupId",
          "type": "uint256"
        }
      ],
      "name": "amIRegisteredRecipient",
      "outputs": [
        {
          "internalType": "bool",
          "name": "",
          "type": "bool"
        }
      ],
      "stateMutability": "view",
      "type": "function",
      "constant": true
    },
    {
      "inputs": [],
      "name": "ceoAddress",
      "outputs": [
        {
          "internalType": "address",
          "name": "",
          "type": "address"
        }
      ],
      "stateMutability": "view",
      "type": "function",
      "constant": true
    },
    {
      "inputs": [],
      "name": "cfoAddress",
      "outputs": [
        {
          "internalType": "address",
          "name": "",
          "type": "address"
        }
      ],
      "stateMutability": "view",
      "type": "function",
      "constant": true
    },
    {
      "inputs": [
        {
          "internalType": "uint256",
          "name": "groupId",
          "type": "uint256"
        }
      ],
      "name": "claimWinnings",
      "outputs": [],
      "stateMutability": "nonpayable",
      "type": "function"
    },
    {
      "inputs": [
        {
          "internalType": "uint256",
          "name": "groupId",
          "type": "uint256"
        }
      ],
      "name": "contributeToPot",
      "outputs": [],
      "stateMutability": "payable",
      "type": "function",
      "payable": true
    },
    {
      "inputs": [],
      "name": "cooAddress",
      "outputs": [
        {
          "internalType": "address",
          "name": "",
          "type": "address"
        }
      ],
      "stateMutability": "view",
      "type": "function",
      "constant": true
    },
    {
      "inputs": [
        {
          "internalType": "uint256",
          "name": "groupId",
          "type": "uint256"
        }
      ],
      "name": "doIHaveClaimableWinnings",
      "outputs": [
        {
          "internalType": "bool",
          "name": "",
          "type": "bool"
        }
      ],
      "stateMutability": "view",
      "type": "function",
      "constant": true
    },
    {
      "inputs": [],
      "name": "getCFO",
      "outputs": [
        {
          "internalType": "address",
          "name": "",
          "type": "address"
        }
      ],
      "stateMutability": "view",
      "type": "function",
      "constant": true
    },
    {
      "inputs": [],
      "name": "getCOO",
      "outputs": [
        {
          "internalType": "address",
          "name": "",
          "type": "address"
        }
      ],
      "stateMutability": "view",
      "type": "function",
      "constant": true
    },
    {
      "inputs": [
        {
          "internalType": "uint256",
          "name": "groupId",
          "type": "uint256"
        }
      ],
      "name": "getContributorInfo",
      "outputs": [
        {
          "internalType": "string",
          "name": "newContributorName",
          "type": "string"
        },
        {
          "internalType": "string",
          "name": "newContributorImgUrl",
          "type": "string"
        },
        {
          "internalType": "string",
          "name": "newContributorLinkToUrl",
          "type": "string"
        }
      ],
      "stateMutability": "view",
      "type": "function",
      "constant": true
    },
    {
      "inputs": [
        {
          "internalType": "uint256",
          "name": "groupId",
          "type": "uint256"
        }
      ],
      "name": "getCurrentSponsorAddress",
      "outputs": [
        {
          "internalType": "address",
          "name": "",
          "type": "address"
        }
      ],
      "stateMutability": "view",
      "type": "function",
      "constant": true
    },
    {
      "inputs": [
        {
          "internalType": "uint256",
          "name": "groupId",
          "type": "uint256"
        }
      ],
      "name": "getEligibleRecipientAddresses",
      "outputs": [
        {
          "internalType": "address[]",
          "name": "",
          "type": "address[]"
        }
      ],
      "stateMutability": "view",
      "type": "function",
      "constant": true
    },
    {
      "inputs": [
        {
          "internalType": "uint256",
          "name": "groupId",
          "type": "uint256"
        }
      ],
      "name": "getEligibleRecipientIsEligibilityEnabled",
      "outputs": [
        {
          "internalType": "bool[]",
          "name": "",
          "type": "bool[]"
        }
      ],
      "stateMutability": "view",
      "type": "function",
      "constant": true
    },
    {
      "inputs": [
        {
          "internalType": "uint256",
          "name": "groupId",
          "type": "uint256"
        }
      ],
      "name": "getEligibleRecipientNames",
      "outputs": [
        {
          "internalType": "string[]",
          "name": "",
          "type": "string[]"
        }
      ],
      "stateMutability": "view",
      "type": "function",
      "constant": true
    },
    {
      "inputs": [
        {
          "internalType": "uint256",
          "name": "groupId",
          "type": "uint256"
        }
      ],
      "name": "getGroupEventData",
      "outputs": [
        {
          "internalType": "enum EthDropBase.EventState",
          "name": "",
          "type": "uint8"
        },
        {
          "internalType": "uint256",
          "name": "",
          "type": "uint256"
        },
        {
          "internalType": "uint256",
          "name": "",
          "type": "uint256"
        },
        {
          "internalType": "uint256",
          "name": "",
          "type": "uint256"
        },
        {
          "internalType": "uint256",
          "name": "",
          "type": "uint256"
        }
      ],
      "stateMutability": "view",
      "type": "function",
      "constant": true
    },
    {
      "inputs": [],
      "name": "getGroupIds",
      "outputs": [
        {
          "internalType": "uint256[]",
          "name": "",
          "type": "uint256[]"
        }
      ],
      "stateMutability": "view",
      "type": "function",
      "constant": true
    },
    {
      "inputs": [],
      "name": "getGroupNames",
      "outputs": [
        {
          "internalType": "string[]",
          "name": "",
          "type": "string[]"
        }
      ],
      "stateMutability": "view",
      "type": "function",
      "constant": true
    },
    {
      "inputs": [
        {
          "internalType": "uint256",
          "name": "groupId",
          "type": "uint256"
        }
      ],
      "name": "getGroupPublicData",
      "outputs": [
        {
          "internalType": "uint256",
          "name": "",
          "type": "uint256"
        },
        {
          "internalType": "string",
          "name": "",
          "type": "string"
        },
        {
          "internalType": "enum EthDropBase.EventState",
          "name": "",
          "type": "uint8"
        },
        {
          "internalType": "uint256",
          "name": "",
          "type": "uint256"
        },
        {
          "internalType": "uint256",
          "name": "",
          "type": "uint256"
        },
        {
          "internalType": "uint256",
          "name": "",
          "type": "uint256"
        },
        {
          "internalType": "uint256",
          "name": "",
          "type": "uint256"
        }
      ],
      "stateMutability": "view",
      "type": "function",
      "constant": true
    },
    {
      "inputs": [
        {
          "internalType": "uint256",
          "name": "groupId",
          "type": "uint256"
        }
      ],
      "name": "getRegisteredRecipientNames",
      "outputs": [
        {
          "internalType": "string[]",
          "name": "",
          "type": "string[]"
        }
      ],
      "stateMutability": "view",
      "type": "function",
      "constant": true
    },
    {
      "inputs": [
        {
          "internalType": "uint256",
          "name": "groupId",
          "type": "uint256"
        }
      ],
      "name": "getRegisteredRecipients",
      "outputs": [
        {
          "internalType": "address[]",
          "name": "",
          "type": "address[]"
        },
        {
          "internalType": "string[]",
          "name": "",
          "type": "string[]"
        },
        {
          "internalType": "bool[]",
          "name": "",
          "type": "bool[]"
        }
      ],
      "stateMutability": "view",
      "type": "function",
      "constant": true
    },
    {
      "inputs": [],
      "name": "getString",
      "outputs": [
        {
          "internalType": "string",
          "name": "",
          "type": "string"
        }
      ],
      "stateMutability": "view",
      "type": "function",
      "constant": true
    },
    {
      "inputs": [],
      "name": "isCEO",
      "outputs": [
        {
          "internalType": "bool",
          "name": "",
          "type": "bool"
        }
      ],
      "stateMutability": "view",
      "type": "function",
      "constant": true
    },
    {
      "inputs": [],
      "name": "isCFO",
      "outputs": [
        {
          "internalType": "bool",
          "name": "",
          "type": "bool"
        }
      ],
      "stateMutability": "view",
      "type": "function",
      "constant": true
    },
    {
      "inputs": [],
      "name": "isCOO",
      "outputs": [
        {
          "internalType": "bool",
          "name": "",
          "type": "bool"
        }
      ],
      "stateMutability": "view",
      "type": "function",
      "constant": true
    },
    {
      "inputs": [
        {
          "internalType": "address",
          "name": "account",
          "type": "address"
        },
        {
          "internalType": "uint256",
          "name": "groupId",
          "type": "uint256"
        }
      ],
      "name": "isContributor",
      "outputs": [
        {
          "internalType": "bool",
          "name": "",
          "type": "bool"
        }
      ],
      "stateMutability": "view",
      "type": "function",
      "constant": true
    },
    {
      "inputs": [
        {
          "internalType": "address",
          "name": "account",
          "type": "address"
        },
        {
          "internalType": "uint256",
          "name": "groupId",
          "type": "uint256"
        }
      ],
      "name": "isEligibleRecipient",
      "outputs": [
        {
          "internalType": "bool",
          "name": "",
          "type": "bool"
        }
      ],
      "stateMutability": "view",
      "type": "function",
      "constant": true
    },
    {
      "inputs": [],
      "name": "isPaused",
      "outputs": [
        {
          "internalType": "bool",
          "name": "",
          "type": "bool"
        }
      ],
      "stateMutability": "view",
      "type": "function",
      "constant": true
    },
    {
      "inputs": [
        {
          "internalType": "address",
          "name": "account",
          "type": "address"
        },
        {
          "internalType": "uint256",
          "name": "groupId",
          "type": "uint256"
        }
      ],
      "name": "isRegisteredRecipient",
      "outputs": [
        {
          "internalType": "bool",
          "name": "",
          "type": "bool"
        }
      ],
      "stateMutability": "view",
      "type": "function",
      "constant": true
    },
    {
      "inputs": [],
      "name": "pause",
      "outputs": [],
      "stateMutability": "nonpayable",
      "type": "function"
    },
    {
      "inputs": [],
      "name": "paused",
      "outputs": [
        {
          "internalType": "bool",
          "name": "",
          "type": "bool"
        }
      ],
      "stateMutability": "view",
      "type": "function",
      "constant": true
    },
    {
      "inputs": [
        {
          "internalType": "uint256",
          "name": "groupId",
          "type": "uint256"
        }
      ],
      "name": "registerForEvent",
      "outputs": [],
      "stateMutability": "nonpayable",
      "type": "function"
    },
    {
      "inputs": [
        {
          "internalType": "uint256",
          "name": "groupId",
          "type": "uint256"
        },
        {
          "internalType": "string",
          "name": "username",
          "type": "string"
        }
      ],
      "name": "requestToJoinGroup",
      "outputs": [],
      "stateMutability": "nonpayable",
      "type": "function"
    },
    {
      "inputs": [
        {
          "internalType": "address",
          "name": "_newCEO",
          "type": "address"
        }
      ],
      "name": "setCEO",
      "outputs": [],
      "stateMutability": "nonpayable",
      "type": "function"
    },
    {
      "inputs": [
        {
          "internalType": "address",
          "name": "_newCFO",
          "type": "address"
        }
      ],
      "name": "setCFO",
      "outputs": [],
      "stateMutability": "nonpayable",
      "type": "function"
    },
    {
      "inputs": [
        {
          "internalType": "address",
          "name": "_newCOO",
          "type": "address"
        }
      ],
      "name": "setCOO",
      "outputs": [],
      "stateMutability": "nonpayable",
      "type": "function"
    },
    {
      "inputs": [
        {
          "internalType": "string",
          "name": "_s",
          "type": "string"
        }
      ],
      "name": "setString",
      "outputs": [],
      "stateMutability": "nonpayable",
      "type": "function"
    },
    {
      "inputs": [],
      "name": "stringgg",
      "outputs": [
        {
          "internalType": "string",
          "name": "",
          "type": "string"
        }
      ],
      "stateMutability": "view",
      "type": "function",
      "constant": true
    },
    {
      "inputs": [],
      "name": "unpause",
      "outputs": [
        {
          "internalType": "bool",
          "name": "",
          "type": "bool"
        }
      ],
      "stateMutability": "nonpayable",
      "type": "function"
    },
    {
      "inputs": [
        {
          "internalType": "uint256",
          "name": "groupId",
          "type": "uint256"
        },
        {
          "internalType": "string",
          "name": "newContributorName",
          "type": "string"
        },
        {
          "internalType": "string",
          "name": "newContributorImgUrl",
          "type": "string"
        },
        {
          "internalType": "string",
          "name": "newContributorLinkToUrl",
          "type": "string"
        }
      ],
      "name": "updateContributorInfo",
      "outputs": [],
      "stateMutability": "nonpayable",
      "type": "function"
    },
    {
      "inputs": [],
      "name": "whoami",
      "outputs": [
        {
          "internalType": "address",
          "name": "",
          "type": "address"
        }
      ],
      "stateMutability": "view",
      "type": "function",
      "constant": true
    },
    {
      "inputs": [
        {
          "internalType": "address",
          "name": "account",
          "type": "address"
        },
        {
          "internalType": "uint256",
          "name": "groupId",
          "type": "uint256"
        }
      ],
      "name": "isAdmin",
      "outputs": [
        {
          "internalType": "bool",
          "name": "",
          "type": "bool"
        }
      ],
      "stateMutability": "view",
      "type": "function",
      "constant": true
    },
    {
      "inputs": [
        {
          "internalType": "uint256",
          "name": "groupId",
          "type": "uint256"
        }
      ],
      "name": "getMyAdminIndex",
      "outputs": [
        {
          "internalType": "uint256",
          "name": "",
          "type": "uint256"
        }
      ],
      "stateMutability": "view",
      "type": "function",
      "constant": true
    },
    {
      "inputs": [
        {
          "internalType": "uint256",
          "name": "groupId",
          "type": "uint256"
        },
        {
          "internalType": "address",
          "name": "account",
          "type": "address"
        },
        {
          "internalType": "string",
          "name": "name",
          "type": "string"
        }
      ],
      "name": "addAdmin",
      "outputs": [],
      "stateMutability": "nonpayable",
      "type": "function"
    },
    {
      "inputs": [
        {
          "internalType": "uint256",
          "name": "groupId",
          "type": "uint256"
        }
      ],
      "name": "getAddressNextAdminIndex",
      "outputs": [
        {
          "internalType": "uint256",
          "name": "",
          "type": "uint256"
        }
      ],
      "stateMutability": "view",
      "type": "function",
      "constant": true
    },
    {
      "inputs": [
        {
          "internalType": "uint256",
          "name": "groupId",
          "type": "uint256"
        }
      ],
      "name": "amIAdmin",
      "outputs": [
        {
          "internalType": "bool",
          "name": "",
          "type": "bool"
        }
      ],
      "stateMutability": "view",
      "type": "function",
      "constant": true
    },
    {
      "inputs": [
        {
          "internalType": "uint256",
          "name": "groupId",
          "type": "uint256"
        }
      ],
      "name": "getAdminsForGroup",
      "outputs": [
        {
          "internalType": "address[]",
          "name": "",
          "type": "address[]"
        },
        {
          "internalType": "bool[]",
          "name": "",
          "type": "bool[]"
        },
        {
          "internalType": "string[]",
          "name": "",
          "type": "string[]"
        }
      ],
      "stateMutability": "view",
      "type": "function",
      "constant": true
    },
    {
      "inputs": [
        {
          "internalType": "uint256",
          "name": "groupId",
          "type": "uint256"
        },
        {
          "internalType": "address",
          "name": "account",
          "type": "address"
        }
      ],
      "name": "reEnableAdmin",
      "outputs": [],
      "stateMutability": "nonpayable",
      "type": "function"
    },
    {
      "inputs": [
        {
          "internalType": "uint256",
          "name": "groupId",
          "type": "uint256"
        },
        {
          "internalType": "address",
          "name": "account",
          "type": "address"
        }
      ],
      "name": "removeAdmin",
      "outputs": [],
      "stateMutability": "nonpayable",
      "type": "function"
    },
    {
      "inputs": [
        {
          "internalType": "uint256",
          "name": "groupId",
          "type": "uint256"
        }
      ],
      "name": "renounceAdmin",
      "outputs": [],
      "stateMutability": "nonpayable",
      "type": "function"
    },
    {
      "inputs": [
        {
          "internalType": "uint256",
          "name": "groupId",
          "type": "uint256"
        }
      ],
      "name": "readEventInfo",
      "outputs": [
        {
          "components": [
            {
              "internalType": "uint256",
              "name": "groupId",
              "type": "uint256"
            },
            {
              "internalType": "string",
              "name": "groupName",
              "type": "string"
            },
            {
              "internalType": "enum EthDropBase.EventState",
              "name": "currentState",
              "type": "uint8"
            },
            {
              "internalType": "uint256",
              "name": "registeredRecipientsCount",
              "type": "uint256"
            },
            {
              "internalType": "string",
              "name": "sponsorName",
              "type": "string"
            },
            {
              "internalType": "string",
              "name": "sponsorImageUrl",
              "type": "string"
            },
            {
              "internalType": "string",
              "name": "sponsorLinkToUrl",
              "type": "string"
            },
            {
              "internalType": "address",
              "name": "currentContributor",
              "type": "address"
            },
            {
              "internalType": "uint256",
              "name": "totalAmountContributed",
              "type": "uint256"
            },
            {
              "internalType": "uint256",
              "name": "weiWinnings",
              "type": "uint256"
            },
            {
              "internalType": "uint256",
              "name": "numberOfUsersWhoClaimedWinnings",
              "type": "uint256"
            }
          ],
          "internalType": "struct EthDropBase.EthDropEvent",
          "name": "",
          "type": "tuple"
        }
      ],
      "stateMutability": "view",
      "type": "function",
      "constant": true
    },
    {
      "inputs": [
        {
          "internalType": "string",
          "name": "groupName",
          "type": "string"
        }
      ],
      "name": "createNewGroup",
      "outputs": [],
      "stateMutability": "nonpayable",
      "type": "function"
    },
    {
      "inputs": [
        {
          "internalType": "uint256",
          "name": "groupId",
          "type": "uint256"
        }
      ],
      "name": "startEvent",
      "outputs": [],
      "stateMutability": "nonpayable",
      "type": "function"
    },
    {
      "inputs": [
        {
          "internalType": "uint256",
          "name": "groupId",
          "type": "uint256"
        }
      ],
      "name": "closeEventRegistration",
      "outputs": [],
      "stateMutability": "nonpayable",
      "type": "function"
    },
    {
      "inputs": [
        {
          "internalType": "uint256",
          "name": "groupId",
          "type": "uint256"
        }
      ],
      "name": "endEvent",
      "outputs": [],
      "stateMutability": "nonpayable",
      "type": "function"
    },
    {
      "inputs": [
        {
          "internalType": "address",
          "name": "addressOfUserGettingApproved",
          "type": "address"
        },
        {
          "internalType": "string",
          "name": "nameOfUserGettingApproved",
          "type": "string"
        },
        {
          "internalType": "uint256",
          "name": "groupId",
          "type": "uint256"
        }
      ],
      "name": "addEligibleRecipient",
      "outputs": [],
      "stateMutability": "nonpayable",
      "type": "function"
    },
    {
      "inputs": [
        {
          "internalType": "address",
          "name": "account",
          "type": "address"
        },
        {
          "internalType": "uint256",
          "name": "groupId",
          "type": "uint256"
        }
      ],
      "name": "removeEligibleRecipient",
      "outputs": [],
      "stateMutability": "nonpayable",
      "type": "function"
    },
    {
      "inputs": [
        {
          "internalType": "address",
          "name": "account",
          "type": "address"
        },
        {
          "internalType": "uint256",
          "name": "groupId",
          "type": "uint256"
        }
      ],
      "name": "changeContributor",
      "outputs": [],
      "stateMutability": "nonpayable",
      "type": "function"
    },
    {
      "inputs": [
        {
          "internalType": "uint256",
          "name": "groupId",
          "type": "uint256"
        },
        {
          "internalType": "address",
          "name": "accountToApprove",
          "type": "address"
        }
      ],
      "name": "approveRequestToJoinGroup",
      "outputs": [],
      "stateMutability": "nonpayable",
      "type": "function"
    },
    {
      "inputs": [
        {
          "internalType": "uint256",
          "name": "groupId",
          "type": "uint256"
        }
      ],
      "name": "getNewJoinerRequests",
      "outputs": [
        {
          "internalType": "address[]",
          "name": "",
          "type": "address[]"
        },
        {
          "internalType": "string[]",
          "name": "",
          "type": "string[]"
        },
        {
          "internalType": "bool[]",
          "name": "",
          "type": "bool[]"
        }
      ],
      "stateMutability": "view",
      "type": "function",
      "constant": true
    },
    {
      "inputs": [
        {
          "internalType": "uint256",
          "name": "groupId",
          "type": "uint256"
        }
      ],
      "name": "getEligibleRecipients",
      "outputs": [
        {
          "internalType": "address[]",
          "name": "",
          "type": "address[]"
        },
        {
          "internalType": "string[]",
          "name": "",
          "type": "string[]"
        },
        {
          "internalType": "bool[]",
          "name": "",
          "type": "bool[]"
        }
      ],
      "stateMutability": "view",
      "type": "function",
      "constant": true
    }
  ],
  "bytecode": "0x6080604052600180546001600160a01b031916331781556003805460ff60a01b191690556005805560085534801561003657600080fd5b506155f780620000476000396000f3fe6080604052600436106103385760003560e01c80638182aaf2116101b2578063cd04e475116100ed578063ea303f0811610090578063ea303f0814610ad9578063edf6261d14610af9578063ee41b59214610b19578063ef2e61cc14610b39578063f40fb25414610b59578063f4a02e7014610b79578063f89e9cb914610b99578063fc5fd6e414610bb957600080fd5b8063cd04e475146109b9578063d5f016c3146109ec578063e33db42614610a01578063e513b7a914610a2e578063e62092be14610a4e578063e82f24e014610a6e578063e9992d9914610a81578063e9af9bca14610aa157600080fd5b8063aea88a0511610155578063aea88a05146108d0578063b047fb50146108f0578063b187bd2614610910578063b3b36bb31461092f578063bc5b2e1a14610942578063c02b8b2c14610962578063c271e80c14610984578063c6db5094146109a457600080fd5b80638182aaf2146107cc5780638456cb59146107ec57806389ea642f146108015780639393ae3714610823578063962ecff514610843578063967cafbc146108635780639bda879614610883578063a59a6953146108b057600080fd5b8063454432e211610282578063677bd9ff11610225578063677bd9ff146106bf5780636ebdec49146106df578063744c5e1e1461070e578063785142be1461072e5780637b936ac21461074e5780637d837ce51461076c5780637eb0bdc91461078c5780637fcaf666146107ac57600080fd5b8063454432e2146105765780634635509b146105965780634e0a3379146105c757806355b57ec1146105e757806356c9a339146106145780635c975abb1461064f5780635e82c1fc14610670578063674811ca1461069057600080fd5b806327d7874c116102ea57806327d7874c146104725780632ba73c151461049257806330bb0115146104b2578063330a347b146104d257806338f0b656146104f25780633f4ba83a14610512578063406db8431461052757806344b2983b1461054757600080fd5b80630519ce791461033d57806306cc49221461037a57806307bfa330146103aa5780630a0f8168146103d75780630d82ffa0146103f757806315891ff414610430578063222fd08714610452575b600080fd5b34801561034957600080fd5b5060025461035d906001600160a01b031681565b6040516001600160a01b0390911681526020015b60405180910390f35b34801561038657600080fd5b5061039a610395366004614c1b565b610bd7565b6040519015158152602001610371565b3480156103b657600080fd5b506103ca6103c5366004614c1b565b610c30565b6040516103719190615041565b3480156103e357600080fd5b5060015461035d906001600160a01b031681565b34801561040357600080fd5b5061035d610412366004614c1b565b6000908152600960205260409020600701546001600160a01b031690565b34801561043c57600080fd5b5061045061044b366004614bb4565b610d1c565b005b34801561045e57600080fd5b5061045061046d366004614cb7565b610e21565b34801561047e57600080fd5b5061045061048d366004614b3b565b611129565b34801561049e57600080fd5b506104506104ad366004614b3b565b61119b565b3480156104be57600080fd5b506104506104cd366004614c1b565b61121f565b3480156104de57600080fd5b506104506104ed366004614c1b565b611254565b3480156104fe57600080fd5b5061039a61050d366004614c1b565b611520565b34801561051e57600080fd5b5061039a61155d565b34801561053357600080fd5b50610450610542366004614c1b565b611618565b34801561055357600080fd5b50610567610562366004614c1b565b611adc565b60405161037193929190614ff5565b34801561058257600080fd5b506103ca610591366004614c1b565b611ca9565b3480156105a257600080fd5b506105b66105b1366004614c1b565b611d8a565b604051610371959493929190615098565b3480156105d357600080fd5b506104506105e2366004614b3b565b6120aa565b3480156105f357600080fd5b50610607610602366004614c1b565b612141565b604051610371919061502e565b34801561062057600080fd5b5061064161062f366004614c1b565b6000908152600c602052604090205490565b604051908152602001610371565b34801561065b57600080fd5b5060035461039a90600160a01b900460ff1681565b34801561067c57600080fd5b5061039a61068b366004614bb4565b6121c3565b34801561069c57600080fd5b506106b06106ab366004614c1b565b61221a565b604051610371939291906150db565b3480156106cb57600080fd5b506104506106da366004614c1b565b6123e8565b3480156106eb57600080fd5b506106ff6106fa366004614c1b565b6125bf565b60405161037193929190614fb2565b34801561071a57600080fd5b5061039a610729366004614c1b565b61278e565b34801561073a57600080fd5b50610450610749366004614c1b565b6127db565b34801561075a57600080fd5b506002546001600160a01b031661035d565b34801561077857600080fd5b5061039a610787366004614bb4565b61299d565b34801561079857600080fd5b506104506107a7366004614c34565b6129f4565b3480156107b857600080fd5b506104506107c7366004614bde565b612a28565b3480156107d857600080fd5b5061039a6107e7366004614bb4565b612a3b565b3480156107f857600080fd5b50610450612a8c565b34801561080d57600080fd5b50610816612b69565b60405161037191906150c8565b34801561082f57600080fd5b506002546001600160a01b0316331461039a565b34801561084f57600080fd5b5061039a61085e366004614c1b565b612bfb565b34801561086f57600080fd5b5061045061087e366004614b5d565b612c07565b34801561088f57600080fd5b506108a361089e366004614c1b565b612e6d565b6040516103719190614f9f565b3480156108bc57600080fd5b506104506108cb366004614c1b565b612ed8565b3480156108dc57600080fd5b506104506108eb366004614d33565b612f78565b3480156108fc57600080fd5b5060035461035d906001600160a01b031681565b34801561091c57600080fd5b50600354600160a01b900460ff1661039a565b34801561093b57600080fd5b503361035d565b34801561094e57600080fd5b5061045061095d366004614c34565b613072565b34801561096e57600080fd5b50610977613366565b6040516103719190615054565b34801561099057600080fd5b5061045061099f366004614bb4565b6133bd565b3480156109b057600080fd5b5061081661341f565b3480156109c557600080fd5b506109d96109d4366004614c1b565b6134ad565b60405161037197969594939291906153fa565b3480156109f857600080fd5b506103ca6137f7565b348015610a0d57600080fd5b50610a21610a1c366004614c1b565b6138d0565b60405161037191906152a7565b348015610a3a57600080fd5b506001546001600160a01b0316331461039a565b348015610a5a57600080fd5b5061039a610a69366004614bb4565b613c46565b610450610a7c366004614c1b565b613cc8565b348015610a8d57600080fd5b50610450610a9c366004614c34565b613d75565b348015610aad57600080fd5b50610641610abc366004614c1b565b6000908152600b6020908152604080832033845290915290205490565b348015610ae557600080fd5b50610450610af4366004614bde565b613e77565b348015610b0557600080fd5b50610450610b14366004614c60565b61412a565b348015610b2557600080fd5b5061039a610b34366004614c1b565b614197565b348015610b4557600080fd5b50610567610b54366004614c1b565b6141ce565b348015610b6557600080fd5b50610567610b74366004614c1b565b6143c6565b348015610b8557600080fd5b506003546001600160a01b0316331461039a565b348015610ba557600080fd5b5061039a610bb4366004614c1b565b614510565b348015610bc557600080fd5b506003546001600160a01b031661035d565b600354600090600160a01b900460ff1615610c0d5760405162461bcd60e51b8152600401610c0490615158565b60405180910390fd5b50600081815260106020908152604080832033845290915290205415155b919050565b6060601f6000838152602001908152602001600020805480602002602001604051908101604052809291908181526020016000905b82821015610d11578382906000526020600020018054610c8490615519565b80601f0160208091040260200160405190810160405280929190818152602001828054610cb090615519565b8015610cfd5780601f10610cd257610100808354040283529160200191610cfd565b820191906000526020600020905b815481529060010190602001808311610ce057829003601f168201915b505050505081526020019060010190610c65565b505050509050919050565b80610d273382613c46565b610d435760405162461bcd60e51b8152600401610c04906151e3565b600354600160a01b900460ff1615610d6d5760405162461bcd60e51b8152600401610c0490615158565b60008281526010602090815260408083206001600160a01b038716845282528083205485845260149092528220805491929183908110610daf57610daf615595565b90600052602060002090602091828204019190066101000a81548160ff021916908315150217905550836001600160a01b03167f1af6d16168d33745872119540d28858eed156c5f265206bbf1344fda39a93a3384604051610e1391815260200190565b60405180910390a250505050565b6000838152601760209081526040808320338085529252909120548491908015610eb35760405162461bcd60e51b815260206004820152603d60248201527f4572726f723a207468697320616464726573732068617320616c72656164792060448201527f72657175657374656420746f206a6f696e20746869732067726f75702e0000006064820152608401610c04565b6000868152601060209081526040808320338085529252909120548791908015610eef5760405162461bcd60e51b8152600401610c0490615186565b600089815260186020526040902054610fd757600089815260186020908152604080832060019081905560198352818420805480830182559085528385200180546001600160a01b03191690558c8452601a835281842080549182018155845282842082519384019283905292849052610f6b93920191614854565b506000898152601b60209081526040808320805460018082018355918552838520848204018054601f92831661010090810a60ff908102199092169092558f8752601c86529386208054938401815586529484902093820490930180549190931690930a021990911690555b6000898152601860209081526040808320546017835281842033808652908452828520919091558c8452601983528184208054600181810183559186528486200180546001600160a01b0319169092179091558c8452601a8352908320805491820181558352912061104b910189896148d8565b506000898152601b60209081526040808320805460018082018355918552838520848204018054601f92831661010090810a60ff81810219909316179092558f8752601c8652848720805480860182559088528688208782040180549190941690920a02191690558c84526018909252909120546110c8916154a9565b60008a815260186020908152604080832093909355600c90528190205490517fc73d895047e43bcf8caa9f1cce950d0f1a21fc9a00a8d693db86cd0c93dc91aa91611116918c9133916153c2565b60405180910390a1505050505050505050565b6001546001600160a01b031633146111535760405162461bcd60e51b8152600401610c0490615114565b6001600160a01b0381166111795760405162461bcd60e51b8152600401610c0490615270565b600180546001600160a01b0319166001600160a01b0392909216919091179055565b6001546001600160a01b031633146111c55760405162461bcd60e51b8152600401610c0490615114565b6001600160a01b0381166111d857600080fd5b600380546001600160a01b0319166001600160a01b0383161790556040517fa308298a77084def994b565be25bff2e8fbfe7006c2c6b2bacfb84d1ba1f635090600090a150565b8061122a3382613c46565b6112465760405162461bcd60e51b8152600401610c04906151e3565b611250823361454f565b5050565b8061125f3382613c46565b8061127457506003546001600160a01b031633145b61127d57600080fd5b600354600160a01b900460ff16156112a75760405162461bcd60e51b8152600401610c0490615158565b6000828152600960205260408120600201805460ff191660031790555b60008381526009602052604090206003015481101561133b57600083815260208052604081208054839081106112fc576112fc615595565b6000918252602080832090910154868352601d825260408084206001600160a01b039092168452915281205550806113338161554e565b9150506112c4565b5060008281526021602052604081206113539161494c565b6000828152601f6020526040812061136a91614974565b6000828152602080526040812061138091614992565b6000828152601e60209081526040808320839055600a825280832060098352908320815460018181018455928552929093208354600b909302019182558083018054918301916113cf90615519565b6113da9291906149b0565b50600282810154908201805460ff9092169160ff191660018360038111156114045761140461557f565b021790555060038201548160030155600482018160040190805461142790615519565b6114329291906149b0565b50600582018160050190805461144790615519565b6114529291906149b0565b50600682018160060190805461146790615519565b6114729291906149b0565b5060078281015490820180546001600160a01b0319166001600160a01b039092169190911790556008808301548183015560098084015481840155600a9384015492840192909255600085815260208390526040808220600381018390559283018290559282018190559201919091555133907ff184af570dff3a3eecc3464b3ee06c5b91b8cbd63a658135ded4f57fc3643579906115149085815260200190565b60405180910390a25050565b600354600090600160a01b900460ff161561154d5760405162461bcd60e51b8152600401610c0490615158565b611557338361299d565b92915050565b6001546000906001600160a01b0316331461158a5760405162461bcd60e51b8152600401610c0490615114565b600354600160a01b900460ff166115fb5760405162461bcd60e51b815260206004820152602f60248201527f66756e6374696f6e2063616e206f6e6c792062652063616c6c6564207768656e60448201526e1030b8381034b9903830bab9b2b21760891b6064820152608401610c04565b506003805460ff60a01b191690819055600160a01b900460ff1690565b8061162333826121c3565b6116815760405162461bcd60e51b815260206004820152602960248201527f736f7272792c20796f7520617265206e6f7420616e20656c696769626c65207260448201526832b1b4b834b2b73a1760b91b6064820152608401610c04565b600082815260106020908152604080832033808552908352818420548685526014909352922080548593929190829081106116be576116be615595565b60009182526020918290209181049091015460ff601f9092166101000a90041661175c5760405162461bcd60e51b815260206004820152604360248201527f4572726f723a20726563697069656e74277320656c696769626c696c6974792060448201527f686173206265656e2064697361626c656420666f7220746869732067726f757060648201526217171760e91b608482015260a401610c04565b6000858152601d60209081526040808320338085529252909120548690156117ec5760405162461bcd60e51b815260206004820152603c60248201527f77686f6f70732c206c6f6f6b73206c696b6520796f7527766520616c7265616460448201527f79207265676973746572656420666f722074686973206576656e7421000000006064820152608401610c04565b600354600160a01b900460ff16156118165760405162461bcd60e51b8152600401610c0490615158565b6000878152601e60205260409020546118ca576000878152601e60209081526040808320600190819055828052818420805480830182559085528385200180546001600160a01b03191690558a8452601f83528184208054918201815584528284208251938401928390529284905261189193920191614854565b5060008781526021602090815260408220805460018101825590835291819020908204018054601f9092166101000a60ff021990911690555b6000878152601e6020908152604080832054601d835281842033808652908452828520919091558a8452601083528184209084528252808320548a84526013909252822080549192918390811061192357611923615595565b90600052602060002001805461193890615519565b80601f016020809104026020016040519081016040528092919081815260200182805461196490615519565b80156119b15780601f10611986576101008083540402835291602001916119b1565b820191906000526020600020905b81548152906001019060200180831161199457829003601f168201915b50505060008c8152602080805260408083208054600181810183559185528385200180546001600160a01b031916331790558f8452601f8352908320805491820181558352918190208551959650611a10959201935085019150614854565b506000898152602160209081526040808320805460018082018355918552838520848204018054601f9092166101000a60ff021990911690558c8452600990925290912060030154611a61916154a9565b60008a815260096020908152604080832060030193909355601e90522054611a8a9060016154a9565b60008a8152601e602090815260409182902092909255518a815233917f0695e999be8100bdb5bee8612337296508d527eae78c65b8f170eacb5a3b439d910160405180910390a2505050505050505050565b600081815260208080526040808320601f835281842060218452938290208154835181860281018601909452808452606095869586959193928591830182828015611b5057602002820191906000526020600020905b81546001600160a01b03168152600190910190602001808311611b32575b5050505050925081805480602002602001604051908101604052809291908181526020016000905b82821015611c24578382906000526020600020018054611b9790615519565b80601f0160208091040260200160405190810160405280929190818152602001828054611bc390615519565b8015611c105780601f10611be557610100808354040283529160200191611c10565b820191906000526020600020905b815481529060010190602001808311611bf357829003601f168201915b505050505081526020019060010190611b78565b50505050915080805480602002602001604051908101604052809291908181526020018280548015611c9557602002820191906000526020600020906000905b825461010083900a900460ff161515815260206001928301818104948501949093039092029101808411611c645790505b505050505090509250925092509193909250565b606060136000838152602001908152602001600020805480602002602001604051908101604052809291908181526020016000905b82821015610d11578382906000526020600020018054611cfd90615519565b80601f0160208091040260200160405190810160405280929190818152602001828054611d2990615519565b8015611d765780601f10611d4b57610100808354040283529160200191611d76565b820191906000526020600020905b815481529060010190602001808311611d5957829003601f168201915b505050505081526020019060010190611cde565b600080600080600080600960008881526020019081526020016000206040518061016001604052908160008201548152602001600182018054611dcc90615519565b80601f0160208091040260200160405190810160405280929190818152602001828054611df890615519565b8015611e455780601f10611e1a57610100808354040283529160200191611e45565b820191906000526020600020905b815481529060010190602001808311611e2857829003601f168201915b5050509183525050600282015460209091019060ff166003811115611e6c57611e6c61557f565b6003811115611e7d57611e7d61557f565b815260200160038201548152602001600482018054611e9b90615519565b80601f0160208091040260200160405190810160405280929190818152602001828054611ec790615519565b8015611f145780601f10611ee957610100808354040283529160200191611f14565b820191906000526020600020905b815481529060010190602001808311611ef757829003601f168201915b50505050508152602001600582018054611f2d90615519565b80601f0160208091040260200160405190810160405280929190818152602001828054611f5990615519565b8015611fa65780601f10611f7b57610100808354040283529160200191611fa6565b820191906000526020600020905b815481529060010190602001808311611f8957829003601f168201915b50505050508152602001600682018054611fbf90615519565b80601f0160208091040260200160405190810160405280929190818152602001828054611feb90615519565b80156120385780601f1061200d57610100808354040283529160200191612038565b820191906000526020600020905b81548152906001019060200180831161201b57829003601f168201915b505050918352505060078201546001600160a01b0316602082015260088201546040808301919091526009830154606080840191909152600a909301546080909201919091528201519082015161010083015161012084015161014090940151929b919a509850919650945092505050565b6001546001600160a01b031633146120d45760405162461bcd60e51b8152600401610c0490615114565b6001600160a01b0381166120fa5760405162461bcd60e51b8152600401610c0490615270565b600280546001600160a01b0319166001600160a01b0383161790556040517f162e32528b5907ecf876b3b7a4e5e0edf878642e3ec25852e3c35af1a4e1c04090600090a150565b6000818152601460209081526040918290208054835181840281018401909452808452606093928301828280156121b757602002820191906000526020600020906000905b825461010083900a900460ff1615158152602060019283018181049485019490930390920291018084116121865790505b50505050509050919050565b600354600090600160a01b900460ff16156121f05760405162461bcd60e51b8152600401610c0490615158565b5060009081526010602090815260408083206001600160a01b039490941683529290522054151590565b60008181526009602052604090206004810180546060928392839290916005810191600690910190839061224d90615519565b80601f016020809104026020016040519081016040528092919081815260200182805461227990615519565b80156122c65780601f1061229b576101008083540402835291602001916122c6565b820191906000526020600020905b8154815290600101906020018083116122a957829003601f168201915b505050505092508180546122d990615519565b80601f016020809104026020016040519081016040528092919081815260200182805461230590615519565b80156123525780601f1061232757610100808354040283529160200191612352565b820191906000526020600020905b81548152906001019060200180831161233557829003601f168201915b5050505050915080805461236590615519565b80601f016020809104026020016040519081016040528092919081815260200182805461239190615519565b8015611c955780601f106123b357610100808354040283529160200191611c95565b820191906000526020600020905b8154815290600101906020018083116123c15750969b959a50929850939650505050505050565b806123f3338261299d565b6124525760405162461bcd60e51b815260206004820152602a60248201527f736f7272792c20796f7520617265206e6f7420612072656769737465726564206044820152693932b1b4b834b2b73a1760b11b6064820152608401610c04565b60008281526015602090815260408083203380855292529091205483919060ff161515600114156124e15760405162461bcd60e51b815260206004820152603360248201527f77686f6f70732c206c6f6f6b73206c696b6520796f7527766520616c726561646044820152727920636c61696d65642077696e6e696e67732160681b6064820152608401610c04565b600354600160a01b900460ff161561250b5760405162461bcd60e51b8152600401610c0490615158565b60008481526015602090815260408083203384528252808320805460ff1916600117905586835260099091528120600a018054916125488361554e565b90915550506000848152600960208190526040808320909101549051339282156108fc02929190818181858888f1935050505015801561258c573d6000803e3d6000fd5b5060405184815233907f1a31e733a172afcf46074b3106c17f0c298e226442682a03c1e99ce256139ec290602001610e13565b6000818152600d60209081526040808320600f8352818420600e845293829020815483518186028101860190945280845260609586958695919392859183018282801561263557602002820191906000526020600020905b81546001600160a01b03168152600190910190602001808311612617575b50505050509250818054806020026020016040519081016040528092919081815260200182805480156126a757602002820191906000526020600020906000905b825461010083900a900460ff1615158152602060019283018181049485019490930390920291018084116126765790505b5050505050915080805480602002602001604051908101604052809291908181526020016000905b8282101561277b5783829060005260206000200180546126ee90615519565b80601f016020809104026020016040519081016040528092919081815260200182805461271a90615519565b80156127675780601f1061273c57610100808354040283529160200191612767565b820191906000526020600020905b81548152906001019060200180831161274a57829003601f168201915b5050505050815260200190600101906126cf565b5050505090509250925092509193909250565b600354600090600160a01b900460ff16156127bb5760405162461bcd60e51b8152600401610c0490615158565b506000908152601760209081526040808320338452909152902054151590565b806127e63382613c46565b6128025760405162461bcd60e51b8152600401610c04906151e3565b600354600160a01b900460ff161561282c5760405162461bcd60e51b8152600401610c0490615158565b6000828152600960205260409020600301546128a05760405162461bcd60e51b815260206004820152602d60248201527f43616e277420656e6420726567697374726174696f6e2077697468207a65726f60448201526c2072656769737472616e74732160981b6064820152608401610c04565b60055460008381526009602052604081206008015490916064916128c491906154e3565b6128ce91906154c1565b6002546040519192506001600160a01b03169082156108fc029083906000818181858888f19350505050158015612909573d6000803e3d6000fd5b50600083815260096020526040812060080154612927908390615502565b60008581526009602052604090206003015490915061294690826154c1565b600085815260096020818152604092839020918201939093556002908101805460ff191690911790555185815233917f0eac29f28d53644f45e1f9f2feef665e4c5d7816090d91e169176fb4e23086299101610e13565b600354600090600160a01b900460ff16156129ca5760405162461bcd60e51b8152600401610c0490615158565b506000908152601d602090815260408083206001600160a01b039490941683529290522054151590565b6003546001600160a01b03163314612a1e5760405162461bcd60e51b8152600401610c049061522c565b611250828261454f565b8051611250906000906020840190614854565b600354600090600160a01b900460ff1615612a685760405162461bcd60e51b8152600401610c0490615158565b506000908152600960205260409020600701546001600160a01b0390811691161490565b6003546001600160a01b0316331480612aaf57506001546001600160a01b031633145b80612ac457506002546001600160a01b031633145b612b2a5760405162461bcd60e51b815260206004820152603160248201527f6f6e6c7920736f6d656f6e652066726f6d20632d73756974652063616e2063616044820152703636103a3434b990333ab731ba34b7b71760791b6064820152608401610c04565b600354600160a01b900460ff1615612b545760405162461bcd60e51b8152600401610c0490615158565b6003805460ff60a01b1916600160a01b179055565b606060008054612b7890615519565b80601f0160208091040260200160405190810160405280929190818152602001828054612ba490615519565b8015612bf15780601f10612bc657610100808354040283529160200191612bf1565b820191906000526020600020905b815481529060010190602001808311612bd457829003601f168201915b5050505050905090565b60006115573383613c46565b600354600160a01b900460ff1615612c315760405162461bcd60e51b8152600401610c0490615158565b80612c3c3382613c46565b612c585760405162461bcd60e51b8152600401610c04906151e3565b60008281526010602090815260408083206001600160a01b03881684529091529020548290859015612c8957600080fd5b600084815260116020526040902054612d3e57600084815260116020908152604080832060019081905560128352818420805480830182559085528385200180546001600160a01b03191690558784526013835281842080549182018155845282842082519384019283905292849052612d0593920191614854565b5060008481526014602090815260408220805460018101825590835291819020908204018054601f9092166101000a60ff021990911690555b600084815260116020908152604080832054601083528184206001600160a01b038b1680865290845282852091909155878452601283528184208054600181810183559186528486200180546001600160a01b03191690921790915587845260138352908320805491820181558352918190208751612dc4939190910191880190614854565b50600084815260146020908152604080832080546001818101835591855283852084820401805460ff601f9093166101000a92830219169091179055878452601190925290912054612e15916154a9565b60008581526011602090815260409182902092909255518581526001600160a01b038816917f46b8357d30dedd734a71d059a385f46b6e667bff20233f907477760207f88965910160405180910390a2505050505050565b6000818152601260209081526040918290208054835181840281018401909452808452606093928301828280156121b757602002820191906000526020600020905b81546001600160a01b03168152600190910190602001808311612eaf5750505050509050919050565b80612ee33382613c46565b612eff5760405162461bcd60e51b8152600401610c04906151e3565b600354600160a01b900460ff1615612f295760405162461bcd60e51b8152600401610c0490615158565b600082815260096020908152604091829020600201805460ff19166001179055905183815233917f9118a3ee6cd03b7e9740d3092ac8fab787a7f93f52732d7bcd32f35dbea62a9c9101611514565b83612f833382612a3b565b612f8c57600080fd5b835115612fba5760008581526009602090815260409091208551612fb892600490920191870190614854565b505b825115612fe85760008581526009602090815260409091208451612fe692600590920191860190614854565b505b815115613016576000858152600960209081526040909120835161301492600690920191850190614854565b505b6000858152600960205260409081902090517fcd9ad49d834aeea746bafd2d26eebd3d01ebac2d8f5d3f53d7f3884292e5835f91613063918891600481019160058201916006019061545f565b60405180910390a15050505050565b8161307d3382613c46565b6130995760405162461bcd60e51b8152600401610c04906151e3565b600354600160a01b900460ff16156130c35760405162461bcd60e51b8152600401610c0490615158565b60008381526010602090815260408083206001600160a01b03861684529091529020548390839080156131085760405162461bcd60e51b8152600401610c0490615186565b60008681526017602090815260408083206001600160a01b038916845290915290205486908690806131b25760405162461bcd60e51b815260206004820152604760248201527f4572726f723a2074686973206164647265737320646f6573206e6f742068617660448201527f6520612070656e64696e67207265717565737420746f206a6f696e20746869736064820152661033b937bab81760c91b608482015260a401610c04565b60008981526017602090815260408083206001600160a01b038c1684528252808320548c8452601990925282208054919291839081106131f4576131f4615595565b60009182526020808320909101548d8352601a9091526040822080546001600160a01b039092169350908490811061322e5761322e615595565b90600052602060002001805461324390615519565b80601f016020809104026020016040519081016040528092919081815260200182805461326f90615519565b80156132bc5780601f10613291576101008083540402835291602001916132bc565b820191906000526020600020905b81548152906001019060200180831161329f57829003601f168201915b505050505090506001601c60008e815260200190815260200160002084815481106132e9576132e9615595565b90600052602060002090602091828204019190066101000a81548160ff02191690831515021790555061331d82828e612c07565b7fa99702a14ae3f010941d30549064432035071f0e359c50ec6b37d47f430d557a8c83836040516133509392919061538f565b60405180910390a1505050505050505050505050565b60606006805480602002602001604051908101604052809291908181526020018280548015612bf157602002820191906000526020600020905b8154815260200190600101908083116133a0575050505050905090565b806133c83382613c46565b806133dd57506003546001600160a01b031633145b6133e657600080fd5b600354600160a01b900460ff16156134105760405162461bcd60e51b8152600401610c0490615158565b61341a8383614600565b505050565b6000805461342c90615519565b80601f016020809104026020016040519081016040528092919081815260200182805461345890615519565b80156134a55780601f1061347a576101008083540402835291602001916134a5565b820191906000526020600020905b81548152906001019060200180831161348857829003601f168201915b505050505081565b60006060600080600080600080600960008a815260200190815260200160002060405180610160016040529081600082015481526020016001820180546134f390615519565b80601f016020809104026020016040519081016040528092919081815260200182805461351f90615519565b801561356c5780601f106135415761010080835404028352916020019161356c565b820191906000526020600020905b81548152906001019060200180831161354f57829003601f168201915b5050509183525050600282015460209091019060ff1660038111156135935761359361557f565b60038111156135a4576135a461557f565b8152602001600382015481526020016004820180546135c290615519565b80601f01602080910402602001604051908101604052809291908181526020018280546135ee90615519565b801561363b5780601f106136105761010080835404028352916020019161363b565b820191906000526020600020905b81548152906001019060200180831161361e57829003601f168201915b5050505050815260200160058201805461365490615519565b80601f016020809104026020016040519081016040528092919081815260200182805461368090615519565b80156136cd5780601f106136a2576101008083540402835291602001916136cd565b820191906000526020600020905b8154815290600101906020018083116136b057829003601f168201915b505050505081526020016006820180546136e690615519565b80601f016020809104026020016040519081016040528092919081815260200182805461371290615519565b801561375f5780601f106137345761010080835404028352916020019161375f565b820191906000526020600020905b81548152906001019060200180831161374257829003601f168201915b505050505081526020016007820160009054906101000a90046001600160a01b03166001600160a01b03166001600160a01b031681526020016008820154815260200160098201548152602001600a8201548152505090508060000151816020015182604001518360600151846101000151856101200151866101400151975097509750975097509750975050919395979092949650565b60606007805480602002602001604051908101604052809291908181526020016000905b828210156138c757838290600052602060002001805461383a90615519565b80601f016020809104026020016040519081016040528092919081815260200182805461386690615519565b80156138b35780601f10613888576101008083540402835291602001916138b3565b820191906000526020600020905b81548152906001019060200180831161389657829003601f168201915b50505050508152602001906001019061381b565b50505050905090565b6139366040805161016081018252600080825260606020830152909182019081526020016000815260200160608152602001606081526020016060815260200160006001600160a01b031681526020016000815260200160008152602001600081525090565b816139413382613c46565b61395d5760405162461bcd60e51b8152600401610c04906151e3565b60096000848152602001908152602001600020604051806101600160405290816000820154815260200160018201805461399690615519565b80601f01602080910402602001604051908101604052809291908181526020018280546139c290615519565b8015613a0f5780601f106139e457610100808354040283529160200191613a0f565b820191906000526020600020905b8154815290600101906020018083116139f257829003601f168201915b5050509183525050600282015460209091019060ff166003811115613a3657613a3661557f565b6003811115613a4757613a4761557f565b815260200160038201548152602001600482018054613a6590615519565b80601f0160208091040260200160405190810160405280929190818152602001828054613a9190615519565b8015613ade5780601f10613ab357610100808354040283529160200191613ade565b820191906000526020600020905b815481529060010190602001808311613ac157829003601f168201915b50505050508152602001600582018054613af790615519565b80601f0160208091040260200160405190810160405280929190818152602001828054613b2390615519565b8015613b705780601f10613b4557610100808354040283529160200191613b70565b820191906000526020600020905b815481529060010190602001808311613b5357829003601f168201915b50505050508152602001600682018054613b8990615519565b80601f0160208091040260200160405190810160405280929190818152602001828054613bb590615519565b8015613c025780601f10613bd757610100808354040283529160200191613c02565b820191906000526020600020905b815481529060010190602001808311613be557829003601f168201915b505050918352505060078201546001600160a01b031660208201526008820154604082015260098201546060820152600a9091015460809091015291505b50919050565b6000818152600b602090815260408083206001600160a01b038616845290915281205480613c78576000915050611557565b6000838152600f60205260409020805482908110613c9857613c98615595565b90600052602060002090602091828204019190069054906101000a900460ff161515600115151491505092915050565b80613cd33382612a3b565b613cdc57600080fd5b600354600160a01b900460ff1615613d065760405162461bcd60e51b8152600401610c0490615158565b60008281526009602052604081206008018054349290613d279084906154a9565b90915550506000828152600960209081526040918290206008015482518581529182015233917f5dc1fe5ab986a852c4eda8e8bb94247d13307065c593fb83f1a09be2736793829101611514565b6003546001600160a01b03163314613d9f5760405162461bcd60e51b8152600401610c049061522c565b6000828152600b602090815260408083206001600160a01b0385168452825280832054858452600f90925290912080546001919083908110613de357613de3615595565b90600052602060002090602091828204019190066101000a81548160ff0219169083151502179055507f2d19f1f4aa7d21a07d18586e49b3e0529d148488052497ea97f06d7266c3cbbe83600e60008681526020019081526020016000208381548110613e5257613e52615595565b90600052602060002001604051613e6a929190615446565b60405180910390a1505050565b6003546001600160a01b03163314613ea15760405162461bcd60e51b8152600401610c049061522c565b600354600160a01b900460ff1615613ecb5760405162461bcd60e51b8152600401610c0490615158565b600854604080516101608101825282815260208082018581526000838501819052606084018190528451808401865281815260808501528451808401865281815260a08501528451808401865281815260c085015260e0840181905261010084018190526101208401819052610140840181905285815260098352939093208251815592518051929384939092613f69926001850192910190614854565b50604082015160028201805460ff19166001836003811115613f8d57613f8d61557f565b02179055506060820151600382015560808201518051613fb7916004840191602090910190614854565b5060a08201518051613fd3916005840191602090910190614854565b5060c08201518051613fef916006840191602090910190614854565b5060e0820151600782810180546001600160a01b0319166001600160a01b03909316929092179091556101008301516008830155610120830151600983015561014090920151600a909101556006805460018181019092557ff652222313e28459528d920b65115c16c04f3efc82aaedc97be59f3f377c0d3f018490558154908101825560009190915283516140ac917fa66cc928b5edb82af9bd49922954155ab7b0942694bea4ce44661d9a8736c68801906020860190614854565b5060008281526010602090815260408083208380528252808320839055848352601890915280822091909155517fa27df82d27a5b2a66bcd0c6210f8024283ed1197a6d8e30372f8df2e487c376e9061410890849086906153e1565b60405180910390a1600880549060006141208361554e565b9190505550505050565b6000838152600b602090815260408083206001600160a01b0386168452909152902054839083901561415b57600080fd5b6003546001600160a01b031633146141855760405162461bcd60e51b8152600401610c049061522c565b614190858585614679565b5050505050565b600354600090600160a01b900460ff16156141c45760405162461bcd60e51b8152600401610c0490615158565b6115573383612a3b565b6060806060836141de3382613c46565b6141fa5760405162461bcd60e51b8152600401610c04906151e3565b6000858152601960209081526040808320601a8352818420601c8452938290208154835181860281018601909452808452919493909291859183018282801561426c57602002820191906000526020600020905b81546001600160a01b0316815260019091019060200180831161424e575b5050505050925081805480602002602001604051908101604052809291908181526020016000905b828210156143405783829060005260206000200180546142b390615519565b80601f01602080910402602001604051908101604052809291908181526020018280546142df90615519565b801561432c5780601f106143015761010080835404028352916020019161432c565b820191906000526020600020905b81548152906001019060200180831161430f57829003601f168201915b505050505081526020019060010190614294565b505050509150808054806020026020016040519081016040528092919081815260200182805480156143b157602002820191906000526020600020906000905b825461010083900a900460ff1615158152602060019283018181049485019490930390920291018084116143805790505b50505050509050935093509350509193909250565b6000818152601260209081526040808320601383528184206014845293829020815483518186028101860190945280845260609586958695919392859183018282801561443c57602002820191906000526020600020905b81546001600160a01b0316815260019091019060200180831161441e575b5050505050925081805480602002602001604051908101604052809291908181526020016000905b82821015611c2457838290600052602060002001805461448390615519565b80601f01602080910402602001604051908101604052809291908181526020018280546144af90615519565b80156144fc5780601f106144d1576101008083540402835291602001916144fc565b820191906000526020600020905b8154815290600101906020018083116144df57829003601f168201915b505050505081526020019060010190614464565b600061451c338361299d565b61452857506000919050565b50600090815260156020908152604080832033845290915290205460ff1615156001141590565b6000828152600b602090815260408083206001600160a01b0385168452825280832054858452600f909252822080549192918390811061459157614591615595565b90600052602060002090602091828204019190066101000a81548160ff0219169083151502179055507f021d633158208ba55afbe8aae9878e510cccaf8f1fe2d8c42455d95f58f3b1f083600e60008681526020019081526020016000208381548110613e5257613e52615595565b60008181526016602090815260408083206001600160a01b038616808552908352818420805460ff19166001179055848452600983529281902060070180546001600160a01b03191684179055518381527f5fd6d0b7e707fe344bd2a1887f9d0eeea8bfcac6f339ba4200e74f0647f101c09101611514565b6000838152600c602052604090205461473e576000838152600c60208181526040808420600190819055600d8352818520805480830182559086528386200180546001600160a01b0319169055878552600f835281852080548083018255908652838620848204018054601f9092166101000a60ff02199091169055878552600e83528185208054918201815585529382902081518083019092528382526b7a65726f206164647265737360a01b9190920190815261473c939190910191614854565b505b6000838152600c6020908152604080832054600b83528184206001600160a01b03871680865290845282852091909155868452600d83528184208054600181810183559186528486200180546001600160a01b031916909217909155868452600f83528184208054808301825590855283852084820401805460ff601f9093166101000a92830219169091179055868452600e83529083208054918201815583529181902083516147f6939190910191840190614854565b506000838152600c60205260409020546148119060016154a9565b6000848152600c602052604090819020829055517f88356b104f5ba3e9281d371b21296e4e0390dda6f4bcc4bfc219f6d67cc8ae5091613e6a91869186916153c2565b82805461486090615519565b90600052602060002090601f01602090048101928261488257600085556148c8565b82601f1061489b57805160ff19168380011785556148c8565b828001600101855582156148c8579182015b828111156148c85782518255916020019190600101906148ad565b506148d4929150614a2b565b5090565b8280546148e490615519565b90600052602060002090601f01602090048101928261490657600085556148c8565b82601f1061491f5782800160ff198235161785556148c8565b828001600101855582156148c8579182015b828111156148c8578235825591602001919060010190614931565b50805460008255601f0160209004906000526020600020908101906149719190614a2b565b50565b50805460008255906000526020600020908101906149719190614a40565b50805460008255906000526020600020908101906149719190614a2b565b8280546149bc90615519565b90600052602060002090601f0160209004810192826149de57600085556148c8565b82601f106149ef57805485556148c8565b828001600101855582156148c857600052602060002091601f016020900482015b828111156148c8578254825591600101919060010190614a10565b5b808211156148d45760008155600101614a2c565b808211156148d4576000614a548282614a5d565b50600101614a40565b508054614a6990615519565b6000825580601f10614a79575050565b601f0160209004906000526020600020908101906149719190614a2b565b80356001600160a01b0381168114610c2b57600080fd5b600082601f830112614abf57600080fd5b813567ffffffffffffffff80821115614ada57614ada6155ab565b604051601f8301601f19908116603f01168101908282118183101715614b0257614b026155ab565b81604052838152866020858801011115614b1b57600080fd5b836020870160208301376000602085830101528094505050505092915050565b600060208284031215614b4d57600080fd5b614b5682614a97565b9392505050565b600080600060608486031215614b7257600080fd5b614b7b84614a97565b9250602084013567ffffffffffffffff811115614b9757600080fd5b614ba386828701614aae565b925050604084013590509250925092565b60008060408385031215614bc757600080fd5b614bd083614a97565b946020939093013593505050565b600060208284031215614bf057600080fd5b813567ffffffffffffffff811115614c0757600080fd5b614c1384828501614aae565b949350505050565b600060208284031215614c2d57600080fd5b5035919050565b60008060408385031215614c4757600080fd5b82359150614c5760208401614a97565b90509250929050565b600080600060608486031215614c7557600080fd5b83359250614c8560208501614a97565b9150604084013567ffffffffffffffff811115614ca157600080fd5b614cad86828701614aae565b9150509250925092565b600080600060408486031215614ccc57600080fd5b83359250602084013567ffffffffffffffff80821115614ceb57600080fd5b818601915086601f830112614cff57600080fd5b813581811115614d0e57600080fd5b876020828501011115614d2057600080fd5b6020830194508093505050509250925092565b60008060008060808587031215614d4957600080fd5b84359350602085013567ffffffffffffffff80821115614d6857600080fd5b614d7488838901614aae565b94506040870135915080821115614d8a57600080fd5b614d9688838901614aae565b93506060870135915080821115614dac57600080fd5b50614db987828801614aae565b91505092959194509250565b600081518084526020808501945080840160005b83811015614dfe5781516001600160a01b031687529582019590820190600101614dd9565b509495945050505050565b600081518084526020808501945080840160005b83811015614dfe578151151587529582019590820190600101614e1d565b600081518084526020808501808196508360051b8101915082860160005b85811015614e83578284038952614e71848351614eb2565b98850198935090840190600101614e59565b5091979650505050505050565b60048110614eae57634e487b7160e01b600052602160045260246000fd5b9052565b6000815180845260005b81811015614ed857602081850181015186830182015201614ebc565b81811115614eea576000602083870101525b50601f01601f19169290920160200192915050565b8054600090600181811c9080831680614f1957607f831692505b6020808410821415614f3b57634e487b7160e01b600052602260045260246000fd5b83885260208801828015614f565760018114614f6757614f92565b60ff19871682528282019750614f92565b60008981526020902060005b87811015614f8c57815484820152908601908401614f73565b83019850505b5050505050505092915050565b602081526000614b566020830184614dc5565b606081526000614fc56060830186614dc5565b8281036020840152614fd78186614e09565b90508281036040840152614feb8185614e3b565b9695505050505050565b6060815260006150086060830186614dc5565b828103602084015261501a8186614e3b565b90508281036040840152614feb8185614e09565b602081526000614b566020830184614e09565b602081526000614b566020830184614e3b565b6020808252825182820181905260009190848201906040850190845b8181101561508c57835183529284019291840191600101615070565b50909695505050505050565b60a081016150a68288614e90565b8560208301528460408301528360608301528260808301529695505050505050565b602081526000614b566020830184614eb2565b6060815260006150ee6060830186614eb2565b82810360208401526151008186614eb2565b90508281036040840152614feb8185614eb2565b60208082526024908201527f6f6e6c79207468652063656f2063616e2063616c6c20746869732066756e637460408201526334b7b71760e11b606082015260800190565b6020808252601490820152733a34329030b8381034b9903830bab9b2b217171760611b604082015260600190565b6020808252603f908201527f4572726f723a20726563697069656e7420697320616c726561647920616e206560408201527f6c696769626c6520726563697069656e7420696e207468652067726f75702e00606082015260800190565b60208082526029908201527f6f6e6c792067726f75702061646d696e732063616e2063616c6c20746869732060408201526866756e6374696f6e2160b81b606082015260800190565b60208082526024908201527f6f6e6c792074686520636f6f2063616e2063616c6c20746869732066756e637460408201526334b7b71760e11b606082015260800190565b6020808252601f908201527f63616e6e6f74207365742043454f20746f207a65726f20616464726573732100604082015260600190565b6020815281516020820152600060208301516101608060408501526152d0610180850183614eb2565b915060408501516152e46060860182614e90565b50606085015160808501526080850151601f19808685030160a087015261530b8483614eb2565b935060a08701519150808685030160c08701526153288483614eb2565b935060c08701519150808685030160e0870152506153468382614eb2565b92505060e0850151610100615365818701836001600160a01b03169052565b86015161012086810191909152860151610140808701919091529095015193019290925250919050565b8381526001600160a01b03831660208201526060604082018190526000906153b990830184614eb2565b95945050505050565b9283526001600160a01b03919091166020830152604082015260600190565b828152604060208201526000614c136040830184614eb2565b87815260e06020820152600061541360e0830189614eb2565b90506154226040830188614e90565b8560608301528460808301528360a08301528260c083015298975050505050505050565b828152604060208201526000614c136040830184614eff565b8481526080602082015260006154786080830186614eff565b828103604084015261548a8186614eff565b9050828103606084015261549e8185614eff565b979650505050505050565b600082198211156154bc576154bc615569565b500190565b6000826154de57634e487b7160e01b600052601260045260246000fd5b500490565b60008160001904831182151516156154fd576154fd615569565b500290565b60008282101561551457615514615569565b500390565b600181811c9082168061552d57607f821691505b60208210811415613c4057634e487b7160e01b600052602260045260246000fd5b600060001982141561556257615562615569565b5060010190565b634e487b7160e01b600052601160045260246000fd5b634e487b7160e01b600052602160045260246000fd5b634e487b7160e01b600052603260045260246000fd5b634e487b7160e01b600052604160045260246000fdfea2646970667358221220ae0dffeecb93fc8f9749de218c2210cca02b512aa6089c5cb27df63081d0726164736f6c63430008070033",
  "immutableReferences": {},
  "source": "// SPDX-License-Identifier: MIT\npragma solidity ^0.8.0;\n\nimport './ContributorManager.sol';\n\ncontract AdminsManager is ContributorManager {\n    event GroupCreated(uint256 groupId, string groupName);\n    event EventStarted(uint256 groupId, address indexed startedBy);\n    event RegistrationEnded(uint256 groupId, address indexed endedBy);\n    event EventEnded(uint256 groupId, address indexed endedBy);\n    event AdminAdded(uint256 groupId, address account, uint256 index);\n    event AdminRemoved(uint256 groupId, string name);\n    event AdminReEnabled(uint256 groupId, string name);\n    event GettingMyAdminIndex(uint256 groupId, address account, uint256 index);\n\n    event NewJoinerRequestApproved(\n        uint256 groupId,\n        address addressOfUserGettingApproved,\n        string nameOfUserGettingApproved\n    );\n\n    event CalculatedPot(\n        uint256 registeredRecipientCount,\n        uint256 winningsPerRecipient\n    );\n\n    constructor() {}\n\n    modifier onlyAdmins(uint256 groupId) {\n        require(\n            isAdmin(msg.sender, groupId),\n            'only group admins can call this function!'\n        );\n        _;\n    }\n\n    modifier wasntAlreadyAnAdmin(uint256 groupId, address account) {\n        require(adminAddressToIndex[groupId][account] == 0);\n        _;\n    }\n\n    function isAdmin(address account, uint256 groupId)\n        public\n        view\n        returns (bool)\n    {\n        uint256 adminIndex = adminAddressToIndex[groupId][account];\n\n        // if user was never an admin, return false\n        if (adminIndex == 0) {\n            return false;\n        }\n\n        return adminEnabled[groupId][adminIndex] == true;\n    }\n\n    function getMyAdminIndex(uint256 groupId) external view returns (uint256) {\n        return adminAddressToIndex[groupId][msg.sender];\n    }\n\n    // TODO - allow COO to give \"admin-granting power\" to other admins\n    function addAdmin(\n        uint256 groupId,\n        address account,\n        string memory name\n    ) external wasntAlreadyAnAdmin(groupId, account) onlyCOO {\n        _addAdmin(groupId, account, name);\n    }\n\n    // debug\n    function getAddressNextAdminIndex(uint256 groupId)\n        external\n        view\n        returns (uint256)\n    {\n        return nextAdminIndexForGroup[groupId];\n    }\n\n    function amIAdmin(uint256 groupId) external view returns (bool) {\n        return isAdmin(msg.sender, groupId);\n    }\n\n    function getAdminsForGroup(uint256 groupId)\n        external\n        view\n        returns (\n            address[] memory,\n            bool[] memory,\n            string[] memory\n        )\n    {\n        return (\n            adminAddresses[groupId],\n            adminEnabled[groupId],\n            adminNames[groupId]\n        );\n    }\n\n    modifier onlyAdminsOrCOO(uint256 groupId) {\n        require(isAdmin(msg.sender, groupId) || msg.sender == cooAddress);\n        _;\n    }\n\n    function reEnableAdmin(uint256 groupId, address account) external onlyCOO {\n        uint256 index = adminAddressToIndex[groupId][account];\n        adminEnabled[groupId][index] = true;\n        emit AdminReEnabled(groupId, adminNames[groupId][index]);\n    }\n\n    function removeAdmin(uint256 groupId, address account) external onlyCOO {\n        _removeAdmin(groupId, account);\n    }\n\n    function renounceAdmin(uint256 groupId) public onlyAdmins(groupId) {\n        _removeAdmin(groupId, msg.sender);\n    }\n\n    function _addAdmin(\n        uint256 groupId,\n        address account,\n        string memory name\n    ) internal {\n        // if first user, use index 1 and push some garbage things at the 0 index\n        if (nextAdminIndexForGroup[groupId] == 0) {\n            nextAdminIndexForGroup[groupId] = 1;\n\n            adminAddresses[groupId].push(address(0));\n            adminEnabled[groupId].push(false);\n            adminNames[groupId].push('zero address');\n        }\n\n        adminAddressToIndex[groupId][account] = nextAdminIndexForGroup[groupId];\n\n        adminAddresses[groupId].push(account);\n        adminEnabled[groupId].push(true);\n        adminNames[groupId].push(name);\n\n        nextAdminIndexForGroup[groupId] = nextAdminIndexForGroup[groupId] + 1;\n\n        emit AdminAdded(groupId, account, nextAdminIndexForGroup[groupId]);\n    }\n\n    function _removeAdmin(uint256 groupId, address account) internal {\n        uint256 index = adminAddressToIndex[groupId][account];\n\n        adminEnabled[groupId][index] = false;\n\n        emit AdminRemoved(groupId, adminNames[groupId][index]);\n    }\n\n    function readEventInfo(uint256 groupId)\n        external\n        view\n        onlyAdmins(groupId)\n        returns (EthDropEvent memory)\n    {\n        return currentEvents[groupId];\n    }\n\n    function createNewGroup(string memory groupName)\n        external\n        onlyCOO\n        whenNotPaused\n    {\n        // TODO - is this the best way to set the groupId? \n        uint256 newGroupId = nextGroupId;\n\n        EthDropEvent memory newGroup = EthDropEvent(\n            newGroupId,\n            groupName,\n            EventState.CREATED,\n            // block.timestamp,\n            // block.timestamp,\n            // block.timestamp,\n            0,\n            '',\n            '',\n            '',\n            address(0),\n            0,\n            0,\n            0\n        );\n\n        currentEvents[newGroupId] = newGroup;\n\n        listOfGroupIds.push(newGroupId);\n        listOfGroupNames.push(groupName);\n\n        eligibleRecipientsAddresstoIndex[newGroupId][address(0)] = 0;\n        eligibleRecipientsAddresstoIndex[newGroupId][address(0)] = 0;\n\n        requestsToJoinGroupNextIndex[newGroupId] = 0;\n\n        emit GroupCreated(newGroupId, groupName);\n\n        nextGroupId++;\n    }\n\n    function startEvent(uint256 groupId)\n        external\n        onlyAdmins(groupId)\n        whenNotPaused\n    {\n        currentEvents[groupId].currentState = EventState.REGISTRATION;\n\n        emit EventStarted(groupId, msg.sender);\n    }\n\n    function closeEventRegistration(uint256 groupId)\n        external\n        onlyAdmins(groupId)\n        whenNotPaused\n    {\n        require(\n            currentEvents[groupId].registeredRecipientsCount > 0,\n            \"Can't end registration with zero registrants!\"\n        );\n\n        uint256 devCutWei = (currentEvents[groupId].totalAmountContributed *\n            devCutPercentage) / 100;\n\n        // Transfer dev cut to cfo\n        payable(cfoAddress).transfer(devCutWei);\n\n        // pot is the amount for recipients to share\n        uint256 pot = currentEvents[groupId].totalAmountContributed - devCutWei;\n\n        // each recipient's winnings is the \"weiWinnings\"\n        currentEvents[groupId].weiWinnings =\n            pot /\n            currentEvents[groupId].registeredRecipientsCount;\n\n        currentEvents[groupId].currentState = EventState.CLAIM_WINNINGS;\n\n        emit RegistrationEnded(groupId, msg.sender);\n    }\n\n    function endEvent(uint256 groupId)\n        external\n        onlyAdminsOrCOO(groupId)\n        whenNotPaused\n    {\n        currentEvents[groupId].currentState = EventState.ENDED;\n\n        // First delete mappings, then arrays\n        for (\n            uint256 i = 0;\n            i < currentEvents[groupId].registeredRecipientsCount;\n            i++\n        ) {\n            address currentAddress = registeredRecipientAddressesArray[groupId][\n                i\n            ];\n\n            delete registeredRecipientsAddressToIndex[groupId][currentAddress];\n        }\n\n        delete registeredRecipientsWinningsCollected[groupId];\n        delete registeredRecipientNamesArray[groupId];\n        delete registeredRecipientAddressesArray[groupId];\n\n        registeredRecipientsNextIndex[groupId] = 0;\n\n        pastEvents[groupId].push(currentEvents[groupId]);\n\n        currentEvents[groupId].registeredRecipientsCount = 0;\n        currentEvents[groupId].totalAmountContributed = 0;\n        currentEvents[groupId].weiWinnings = 0;\n        currentEvents[groupId].numberOfUsersWhoClaimedWinnings = 0;\n\n        emit EventEnded(groupId, msg.sender);\n    }\n\n    modifier notAlreadyEligibleRecipient(uint256 groupId, address account) {\n        require(eligibleRecipientsAddresstoIndex[groupId][account] == 0);\n        _;\n    }\n\n    function addEligibleRecipient(\n        address addressOfUserGettingApproved,\n        string memory nameOfUserGettingApproved,\n        uint256 groupId\n    )\n        public\n        whenNotPaused\n        onlyAdmins(groupId)\n        notAlreadyEligibleRecipient(groupId, addressOfUserGettingApproved)\n    {\n        // if first user, use index 1 and push some garbage things at the 0 index\n        if (nextEligibleRecipientIndexForGroup[groupId] == 0) {\n            nextEligibleRecipientIndexForGroup[groupId] = 1;\n\n            eligibleRecipientAddressesArray[groupId].push(address(0));\n            eligibleRecipientNamesArray[groupId].push('');\n            eligibleRecipientsEligibilityIsEnabled[groupId].push(false);\n        }\n\n        eligibleRecipientsAddresstoIndex[groupId][\n            addressOfUserGettingApproved\n        ] = nextEligibleRecipientIndexForGroup[groupId];\n\n        eligibleRecipientAddressesArray[groupId].push(\n            addressOfUserGettingApproved\n        );\n        eligibleRecipientNamesArray[groupId].push(nameOfUserGettingApproved);\n        eligibleRecipientsEligibilityIsEnabled[groupId].push(true);\n\n        nextEligibleRecipientIndexForGroup[groupId] =\n            nextEligibleRecipientIndexForGroup[groupId] +\n            1;\n\n        emit EligibleRecipientAdded(addressOfUserGettingApproved, groupId);\n    }\n\n    function removeEligibleRecipient(address account, uint256 groupId)\n        external\n        onlyAdmins(groupId)\n        whenNotPaused\n    {\n        uint256 index = eligibleRecipientsAddresstoIndex[groupId][account];\n        eligibleRecipientsEligibilityIsEnabled[groupId][index] = false;\n        emit EligibleRecipientRemoved(account, groupId);\n    }\n\n    function changeContributor(address account, uint256 groupId)\n        external\n        onlyAdminsOrCOO(groupId)\n        whenNotPaused\n    {\n        _changeContributor(account, groupId);\n    }\n\n    function approveRequestToJoinGroup(\n        uint256 groupId,\n        address accountToApprove\n    )\n        external\n        onlyAdmins(groupId)\n        whenNotPaused\n        notAlreadyInGroup(groupId, accountToApprove)\n        requestToJoinGroupIsPending(groupId, accountToApprove)\n    {\n        uint256 requestsIndexOfUserGettingApproved = requestsToJoinGroupAddressToIndex[\n                groupId\n            ][accountToApprove];\n\n        address addressOfUserGettingApproved = requestsToJoinGroupAddresses[\n            groupId\n        ][requestsIndexOfUserGettingApproved];\n\n        string memory nameOfUserGettingApproved = requestsToJoinGroupNames[\n            groupId\n        ][requestsIndexOfUserGettingApproved];\n\n        // updates requests approvals array\n        requestsToJoinGroupApprovals[groupId][\n            requestsIndexOfUserGettingApproved\n        ] = true;\n\n        addEligibleRecipient(\n            addressOfUserGettingApproved,\n            nameOfUserGettingApproved,\n            groupId\n        );\n\n        emit NewJoinerRequestApproved(\n            groupId,\n            addressOfUserGettingApproved,\n            nameOfUserGettingApproved\n        );\n    }\n\n    function getNewJoinerRequests(uint256 groupId)\n        external\n        view\n        onlyAdmins(groupId)\n        returns (\n            address[] memory,\n            string[] memory,\n            bool[] memory\n        )\n    {\n        return (\n            requestsToJoinGroupAddresses[groupId],\n            requestsToJoinGroupNames[groupId],\n            requestsToJoinGroupApprovals[groupId]\n        );\n    }\n\n    function getEligibleRecipients(uint256 groupId)\n        external\n        view\n        returns (\n            address[] memory,\n            string[] memory,\n            bool[] memory\n        )\n    {\n        return (\n            eligibleRecipientAddressesArray[groupId],\n            eligibleRecipientNamesArray[groupId],\n            eligibleRecipientsEligibilityIsEnabled[groupId]\n        );\n    }\n}\n",
  "sourcePath": "/Users/jim/trash/EthDrop/contracts/roles/AdminsManager.sol",
  "compiler": {
    "name": "solc",
    "version": "0.8.7+commit.e28d00a7.Emscripten.clang"
  },
  "schemaVersion": "3.4.3",
  "updatedAt": "2021-09-17T20:51:42.874Z",
  "networkType": "ethereum",
  "devdoc": {
    "kind": "dev",
    "methods": {
      "pause()": {
        "details": "Called by any \"C-level\" role to pause the contract. Used only when  a bug or exploit is detected and we need to limit damage."
      },
      "setCEO(address)": {
        "details": "Assigns a new address to act as the CEO. Only available to the current CEO.",
        "params": {
          "_newCEO": "The address of the new CEO"
        }
      },
      "setCFO(address)": {
        "details": "Assigns a new address to act as the CFO. Only available to the current CEO.",
        "params": {
          "_newCFO": "The address of the new CFO"
        }
      },
      "setCOO(address)": {
        "details": "Assigns a new address to act as the COO. Only available to the current CEO.",
        "params": {
          "_newCOO": "The address of the new COO"
        }
      },
      "unpause()": {
        "details": "Unpauses the smart contract. Can only be called by the CEO, since  one reason we may pause the contract is when CFO or COO accounts are  compromised."
      }
    },
    "version": 1
  },
  "userdoc": {
    "kind": "user",
    "methods": {
      "unpause()": {
        "notice": "This is public rather than external so it can be called by  derived contracts."
      }
    },
    "version": 1
  }
}