{
  "contractName": "AdminsManager",
  "abi": [
    {
      "inputs": [],
      "stateMutability": "nonpayable",
      "type": "constructor"
    },
    {
      "anonymous": false,
      "inputs": [
        {
          "indexed": false,
          "internalType": "uint256",
          "name": "groupId",
          "type": "uint256"
        },
        {
          "indexed": false,
          "internalType": "address",
          "name": "account",
          "type": "address"
        },
        {
          "indexed": false,
          "internalType": "uint256",
          "name": "index",
          "type": "uint256"
        }
      ],
      "name": "AdminAdded",
      "type": "event"
    },
    {
      "anonymous": false,
      "inputs": [
        {
          "indexed": false,
          "internalType": "uint256",
          "name": "groupId",
          "type": "uint256"
        },
        {
          "indexed": false,
          "internalType": "string",
          "name": "name",
          "type": "string"
        }
      ],
      "name": "AdminReEnabled",
      "type": "event"
    },
    {
      "anonymous": false,
      "inputs": [
        {
          "indexed": false,
          "internalType": "uint256",
          "name": "groupId",
          "type": "uint256"
        },
        {
          "indexed": false,
          "internalType": "string",
          "name": "name",
          "type": "string"
        }
      ],
      "name": "AdminRemoved",
      "type": "event"
    },
    {
      "anonymous": false,
      "inputs": [
        {
          "indexed": false,
          "internalType": "bool",
          "name": "isPaused",
          "type": "bool"
        }
      ],
      "name": "AppPaused",
      "type": "event"
    },
    {
      "anonymous": false,
      "inputs": [
        {
          "indexed": false,
          "internalType": "uint256",
          "name": "registeredRecipientCount",
          "type": "uint256"
        },
        {
          "indexed": false,
          "internalType": "uint256",
          "name": "winningsPerRecipient",
          "type": "uint256"
        }
      ],
      "name": "CalculatedPot",
      "type": "event"
    },
    {
      "anonymous": false,
      "inputs": [],
      "name": "CfoUpdated",
      "type": "event"
    },
    {
      "anonymous": false,
      "inputs": [
        {
          "indexed": false,
          "internalType": "address",
          "name": "newContract",
          "type": "address"
        }
      ],
      "name": "ContractUpgrade",
      "type": "event"
    },
    {
      "anonymous": false,
      "inputs": [
        {
          "indexed": true,
          "internalType": "address",
          "name": "account",
          "type": "address"
        },
        {
          "indexed": false,
          "internalType": "uint256",
          "name": "groupId",
          "type": "uint256"
        },
        {
          "indexed": false,
          "internalType": "uint256",
          "name": "amount",
          "type": "uint256"
        }
      ],
      "name": "ContributionMade",
      "type": "event"
    },
    {
      "anonymous": false,
      "inputs": [
        {
          "indexed": true,
          "internalType": "address",
          "name": "account",
          "type": "address"
        },
        {
          "indexed": false,
          "internalType": "uint256",
          "name": "groupId",
          "type": "uint256"
        }
      ],
      "name": "ContributorAdded",
      "type": "event"
    },
    {
      "anonymous": false,
      "inputs": [
        {
          "indexed": false,
          "internalType": "uint256",
          "name": "groupId",
          "type": "uint256"
        },
        {
          "indexed": false,
          "internalType": "address",
          "name": "newContributor",
          "type": "address"
        }
      ],
      "name": "ContributorAddressUpdated",
      "type": "event"
    },
    {
      "anonymous": false,
      "inputs": [
        {
          "indexed": false,
          "internalType": "uint256",
          "name": "groupId",
          "type": "uint256"
        },
        {
          "indexed": false,
          "internalType": "string",
          "name": "sponsorName",
          "type": "string"
        },
        {
          "indexed": false,
          "internalType": "string",
          "name": "imgUrl",
          "type": "string"
        },
        {
          "indexed": false,
          "internalType": "string",
          "name": "imgLinkToUrl",
          "type": "string"
        }
      ],
      "name": "ContributorInfoUpdated",
      "type": "event"
    },
    {
      "anonymous": false,
      "inputs": [
        {
          "indexed": true,
          "internalType": "address",
          "name": "account",
          "type": "address"
        },
        {
          "indexed": false,
          "internalType": "uint256",
          "name": "groupId",
          "type": "uint256"
        }
      ],
      "name": "ContributorRemoved",
      "type": "event"
    },
    {
      "anonymous": false,
      "inputs": [],
      "name": "CooUpdated",
      "type": "event"
    },
    {
      "anonymous": false,
      "inputs": [
        {
          "indexed": true,
          "internalType": "address",
          "name": "account",
          "type": "address"
        },
        {
          "indexed": false,
          "internalType": "uint256",
          "name": "groupId",
          "type": "uint256"
        }
      ],
      "name": "EligibleRecipientAdded",
      "type": "event"
    },
    {
      "anonymous": false,
      "inputs": [
        {
          "indexed": true,
          "internalType": "address",
          "name": "account",
          "type": "address"
        },
        {
          "indexed": false,
          "internalType": "uint256",
          "name": "groupId",
          "type": "uint256"
        }
      ],
      "name": "EligibleRecipientRemoved",
      "type": "event"
    },
    {
      "anonymous": false,
      "inputs": [],
      "name": "EventClose",
      "type": "event"
    },
    {
      "anonymous": false,
      "inputs": [
        {
          "indexed": false,
          "internalType": "uint256",
          "name": "groupId",
          "type": "uint256"
        },
        {
          "indexed": true,
          "internalType": "address",
          "name": "endedBy",
          "type": "address"
        }
      ],
      "name": "EventEnded",
      "type": "event"
    },
    {
      "anonymous": false,
      "inputs": [
        {
          "indexed": false,
          "internalType": "uint256",
          "name": "groupId",
          "type": "uint256"
        },
        {
          "indexed": true,
          "internalType": "address",
          "name": "startedBy",
          "type": "address"
        }
      ],
      "name": "EventStarted",
      "type": "event"
    },
    {
      "anonymous": false,
      "inputs": [
        {
          "indexed": false,
          "internalType": "uint256",
          "name": "groupId",
          "type": "uint256"
        },
        {
          "indexed": false,
          "internalType": "address",
          "name": "account",
          "type": "address"
        },
        {
          "indexed": false,
          "internalType": "uint256",
          "name": "index",
          "type": "uint256"
        }
      ],
      "name": "GettingMyAdminIndex",
      "type": "event"
    },
    {
      "anonymous": false,
      "inputs": [
        {
          "indexed": false,
          "internalType": "uint256",
          "name": "groupId",
          "type": "uint256"
        },
        {
          "indexed": false,
          "internalType": "string",
          "name": "groupName",
          "type": "string"
        }
      ],
      "name": "GroupCreated",
      "type": "event"
    },
    {
      "anonymous": false,
      "inputs": [
        {
          "indexed": false,
          "internalType": "uint256",
          "name": "groupId",
          "type": "uint256"
        },
        {
          "indexed": false,
          "internalType": "address",
          "name": "addressOfUserGettingApproved",
          "type": "address"
        },
        {
          "indexed": false,
          "internalType": "string",
          "name": "nameOfUserGettingApproved",
          "type": "string"
        }
      ],
      "name": "NewJoinerRequestApproved",
      "type": "event"
    },
    {
      "anonymous": false,
      "inputs": [
        {
          "indexed": false,
          "internalType": "uint256",
          "name": "groupId",
          "type": "uint256"
        },
        {
          "indexed": false,
          "internalType": "address",
          "name": "account",
          "type": "address"
        },
        {
          "indexed": false,
          "internalType": "uint256",
          "name": "index",
          "type": "uint256"
        }
      ],
      "name": "NewUserRequestedToJoinGroup",
      "type": "event"
    },
    {
      "anonymous": false,
      "inputs": [
        {
          "indexed": true,
          "internalType": "address",
          "name": "account",
          "type": "address"
        },
        {
          "indexed": false,
          "internalType": "uint256",
          "name": "groupId",
          "type": "uint256"
        }
      ],
      "name": "RecipientRegistered",
      "type": "event"
    },
    {
      "anonymous": false,
      "inputs": [
        {
          "indexed": false,
          "internalType": "uint256",
          "name": "groupId",
          "type": "uint256"
        },
        {
          "indexed": true,
          "internalType": "address",
          "name": "endedBy",
          "type": "address"
        }
      ],
      "name": "RegistrationEnded",
      "type": "event"
    },
    {
      "anonymous": false,
      "inputs": [],
      "name": "RegistrationOpen",
      "type": "event"
    },
    {
      "anonymous": false,
      "inputs": [
        {
          "indexed": false,
          "internalType": "address",
          "name": "from",
          "type": "address"
        },
        {
          "indexed": false,
          "internalType": "address",
          "name": "to",
          "type": "address"
        }
      ],
      "name": "Transfer",
      "type": "event"
    },
    {
      "anonymous": false,
      "inputs": [
        {
          "indexed": true,
          "internalType": "address",
          "name": "account",
          "type": "address"
        },
        {
          "indexed": false,
          "internalType": "uint256",
          "name": "groupId",
          "type": "uint256"
        }
      ],
      "name": "WinningsClaimed",
      "type": "event"
    },
    {
      "anonymous": false,
      "inputs": [],
      "name": "WinningsClaimingOpen",
      "type": "event"
    },
    {
      "inputs": [
        {
          "internalType": "uint256",
          "name": "groupId",
          "type": "uint256"
        }
      ],
      "name": "amIContributor",
      "outputs": [
        {
          "internalType": "bool",
          "name": "",
          "type": "bool"
        }
      ],
      "stateMutability": "view",
      "type": "function",
      "constant": true
    },
    {
      "inputs": [
        {
          "internalType": "uint256",
          "name": "groupId",
          "type": "uint256"
        }
      ],
      "name": "amIEligibleRecipient",
      "outputs": [
        {
          "internalType": "bool",
          "name": "",
          "type": "bool"
        }
      ],
      "stateMutability": "view",
      "type": "function",
      "constant": true
    },
    {
      "inputs": [
        {
          "internalType": "uint256",
          "name": "groupId",
          "type": "uint256"
        }
      ],
      "name": "amIPendingNewJoiner",
      "outputs": [
        {
          "internalType": "bool",
          "name": "",
          "type": "bool"
        }
      ],
      "stateMutability": "view",
      "type": "function",
      "constant": true
    },
    {
      "inputs": [
        {
          "internalType": "uint256",
          "name": "groupId",
          "type": "uint256"
        }
      ],
      "name": "amIRegisteredRecipient",
      "outputs": [
        {
          "internalType": "bool",
          "name": "",
          "type": "bool"
        }
      ],
      "stateMutability": "view",
      "type": "function",
      "constant": true
    },
    {
      "inputs": [],
      "name": "ceoAddress",
      "outputs": [
        {
          "internalType": "address",
          "name": "",
          "type": "address"
        }
      ],
      "stateMutability": "view",
      "type": "function",
      "constant": true
    },
    {
      "inputs": [],
      "name": "cfoAddress",
      "outputs": [
        {
          "internalType": "address",
          "name": "",
          "type": "address"
        }
      ],
      "stateMutability": "view",
      "type": "function",
      "constant": true
    },
    {
      "inputs": [
        {
          "internalType": "uint256",
          "name": "groupId",
          "type": "uint256"
        }
      ],
      "name": "claimWinnings",
      "outputs": [],
      "stateMutability": "nonpayable",
      "type": "function"
    },
    {
      "inputs": [
        {
          "internalType": "uint256",
          "name": "groupId",
          "type": "uint256"
        }
      ],
      "name": "contributeToPot",
      "outputs": [],
      "stateMutability": "payable",
      "type": "function",
      "payable": true
    },
    {
      "inputs": [],
      "name": "cooAddress",
      "outputs": [
        {
          "internalType": "address",
          "name": "",
          "type": "address"
        }
      ],
      "stateMutability": "view",
      "type": "function",
      "constant": true
    },
    {
      "inputs": [
        {
          "internalType": "uint256",
          "name": "groupId",
          "type": "uint256"
        }
      ],
      "name": "doIHaveClaimableWinnings",
      "outputs": [
        {
          "internalType": "bool",
          "name": "",
          "type": "bool"
        }
      ],
      "stateMutability": "view",
      "type": "function",
      "constant": true
    },
    {
      "inputs": [],
      "name": "getCFO",
      "outputs": [
        {
          "internalType": "address",
          "name": "",
          "type": "address"
        }
      ],
      "stateMutability": "view",
      "type": "function",
      "constant": true
    },
    {
      "inputs": [],
      "name": "getCOO",
      "outputs": [
        {
          "internalType": "address",
          "name": "",
          "type": "address"
        }
      ],
      "stateMutability": "view",
      "type": "function",
      "constant": true
    },
    {
      "inputs": [
        {
          "internalType": "uint256",
          "name": "groupId",
          "type": "uint256"
        }
      ],
      "name": "getContributorInfo",
      "outputs": [
        {
          "internalType": "string",
          "name": "newContributorName",
          "type": "string"
        },
        {
          "internalType": "string",
          "name": "newContributorImgUrl",
          "type": "string"
        },
        {
          "internalType": "string",
          "name": "newContributorLinkToUrl",
          "type": "string"
        }
      ],
      "stateMutability": "view",
      "type": "function",
      "constant": true
    },
    {
      "inputs": [
        {
          "internalType": "uint256",
          "name": "groupId",
          "type": "uint256"
        }
      ],
      "name": "getCurrentSponsorAddress",
      "outputs": [
        {
          "internalType": "address",
          "name": "",
          "type": "address"
        }
      ],
      "stateMutability": "view",
      "type": "function",
      "constant": true
    },
    {
      "inputs": [
        {
          "internalType": "uint256",
          "name": "groupId",
          "type": "uint256"
        }
      ],
      "name": "getEligibleRecipientAddresses",
      "outputs": [
        {
          "internalType": "address[]",
          "name": "",
          "type": "address[]"
        }
      ],
      "stateMutability": "view",
      "type": "function",
      "constant": true
    },
    {
      "inputs": [
        {
          "internalType": "uint256",
          "name": "groupId",
          "type": "uint256"
        }
      ],
      "name": "getEligibleRecipientIsEligibilityEnabled",
      "outputs": [
        {
          "internalType": "bool[]",
          "name": "",
          "type": "bool[]"
        }
      ],
      "stateMutability": "view",
      "type": "function",
      "constant": true
    },
    {
      "inputs": [
        {
          "internalType": "uint256",
          "name": "groupId",
          "type": "uint256"
        }
      ],
      "name": "getEligibleRecipientNames",
      "outputs": [
        {
          "internalType": "string[]",
          "name": "",
          "type": "string[]"
        }
      ],
      "stateMutability": "view",
      "type": "function",
      "constant": true
    },
    {
      "inputs": [
        {
          "internalType": "uint256",
          "name": "groupId",
          "type": "uint256"
        }
      ],
      "name": "getGroupEventData",
      "outputs": [
        {
          "internalType": "enum EthDropBase.EventState",
          "name": "",
          "type": "uint8"
        },
        {
          "internalType": "uint256",
          "name": "",
          "type": "uint256"
        },
        {
          "internalType": "uint256",
          "name": "",
          "type": "uint256"
        },
        {
          "internalType": "uint256",
          "name": "",
          "type": "uint256"
        },
        {
          "internalType": "uint256",
          "name": "",
          "type": "uint256"
        }
      ],
      "stateMutability": "view",
      "type": "function",
      "constant": true
    },
    {
      "inputs": [],
      "name": "getGroupIds",
      "outputs": [
        {
          "internalType": "uint256[]",
          "name": "",
          "type": "uint256[]"
        }
      ],
      "stateMutability": "view",
      "type": "function",
      "constant": true
    },
    {
      "inputs": [],
      "name": "getGroupNames",
      "outputs": [
        {
          "internalType": "string[]",
          "name": "",
          "type": "string[]"
        }
      ],
      "stateMutability": "view",
      "type": "function",
      "constant": true
    },
    {
      "inputs": [
        {
          "internalType": "uint256",
          "name": "groupId",
          "type": "uint256"
        }
      ],
      "name": "getGroupPublicData",
      "outputs": [
        {
          "internalType": "uint256",
          "name": "",
          "type": "uint256"
        },
        {
          "internalType": "string",
          "name": "",
          "type": "string"
        },
        {
          "internalType": "enum EthDropBase.EventState",
          "name": "",
          "type": "uint8"
        },
        {
          "internalType": "uint256",
          "name": "",
          "type": "uint256"
        },
        {
          "internalType": "uint256",
          "name": "",
          "type": "uint256"
        },
        {
          "internalType": "uint256",
          "name": "",
          "type": "uint256"
        },
        {
          "internalType": "uint256",
          "name": "",
          "type": "uint256"
        }
      ],
      "stateMutability": "view",
      "type": "function",
      "constant": true
    },
    {
      "inputs": [
        {
          "internalType": "uint256",
          "name": "groupId",
          "type": "uint256"
        }
      ],
      "name": "getRegisteredRecipientNames",
      "outputs": [
        {
          "internalType": "string[]",
          "name": "",
          "type": "string[]"
        }
      ],
      "stateMutability": "view",
      "type": "function",
      "constant": true
    },
    {
      "inputs": [
        {
          "internalType": "uint256",
          "name": "groupId",
          "type": "uint256"
        }
      ],
      "name": "getRegisteredRecipients",
      "outputs": [
        {
          "internalType": "address[]",
          "name": "",
          "type": "address[]"
        },
        {
          "internalType": "string[]",
          "name": "",
          "type": "string[]"
        },
        {
          "internalType": "bool[]",
          "name": "",
          "type": "bool[]"
        }
      ],
      "stateMutability": "view",
      "type": "function",
      "constant": true
    },
    {
      "inputs": [],
      "name": "getString",
      "outputs": [
        {
          "internalType": "string",
          "name": "",
          "type": "string"
        }
      ],
      "stateMutability": "view",
      "type": "function",
      "constant": true
    },
    {
      "inputs": [],
      "name": "isCEO",
      "outputs": [
        {
          "internalType": "bool",
          "name": "",
          "type": "bool"
        }
      ],
      "stateMutability": "view",
      "type": "function",
      "constant": true
    },
    {
      "inputs": [],
      "name": "isCFO",
      "outputs": [
        {
          "internalType": "bool",
          "name": "",
          "type": "bool"
        }
      ],
      "stateMutability": "view",
      "type": "function",
      "constant": true
    },
    {
      "inputs": [],
      "name": "isCOO",
      "outputs": [
        {
          "internalType": "bool",
          "name": "",
          "type": "bool"
        }
      ],
      "stateMutability": "view",
      "type": "function",
      "constant": true
    },
    {
      "inputs": [
        {
          "internalType": "address",
          "name": "account",
          "type": "address"
        },
        {
          "internalType": "uint256",
          "name": "groupId",
          "type": "uint256"
        }
      ],
      "name": "isContributor",
      "outputs": [
        {
          "internalType": "bool",
          "name": "",
          "type": "bool"
        }
      ],
      "stateMutability": "view",
      "type": "function",
      "constant": true
    },
    {
      "inputs": [
        {
          "internalType": "address",
          "name": "account",
          "type": "address"
        },
        {
          "internalType": "uint256",
          "name": "groupId",
          "type": "uint256"
        }
      ],
      "name": "isEligibleRecipient",
      "outputs": [
        {
          "internalType": "bool",
          "name": "",
          "type": "bool"
        }
      ],
      "stateMutability": "view",
      "type": "function",
      "constant": true
    },
    {
      "inputs": [],
      "name": "isPaused",
      "outputs": [
        {
          "internalType": "bool",
          "name": "",
          "type": "bool"
        }
      ],
      "stateMutability": "view",
      "type": "function",
      "constant": true
    },
    {
      "inputs": [
        {
          "internalType": "address",
          "name": "account",
          "type": "address"
        },
        {
          "internalType": "uint256",
          "name": "groupId",
          "type": "uint256"
        }
      ],
      "name": "isRegisteredRecipient",
      "outputs": [
        {
          "internalType": "bool",
          "name": "",
          "type": "bool"
        }
      ],
      "stateMutability": "view",
      "type": "function",
      "constant": true
    },
    {
      "inputs": [],
      "name": "pause",
      "outputs": [],
      "stateMutability": "nonpayable",
      "type": "function"
    },
    {
      "inputs": [],
      "name": "paused",
      "outputs": [
        {
          "internalType": "bool",
          "name": "",
          "type": "bool"
        }
      ],
      "stateMutability": "view",
      "type": "function",
      "constant": true
    },
    {
      "inputs": [
        {
          "internalType": "uint256",
          "name": "groupId",
          "type": "uint256"
        }
      ],
      "name": "registerForEvent",
      "outputs": [],
      "stateMutability": "nonpayable",
      "type": "function"
    },
    {
      "inputs": [
        {
          "internalType": "uint256",
          "name": "groupId",
          "type": "uint256"
        },
        {
          "internalType": "string",
          "name": "username",
          "type": "string"
        }
      ],
      "name": "requestToJoinGroup",
      "outputs": [],
      "stateMutability": "nonpayable",
      "type": "function"
    },
    {
      "inputs": [
        {
          "internalType": "address",
          "name": "_newCEO",
          "type": "address"
        }
      ],
      "name": "setCEO",
      "outputs": [],
      "stateMutability": "nonpayable",
      "type": "function"
    },
    {
      "inputs": [
        {
          "internalType": "address",
          "name": "_newCFO",
          "type": "address"
        }
      ],
      "name": "setCFO",
      "outputs": [],
      "stateMutability": "nonpayable",
      "type": "function"
    },
    {
      "inputs": [
        {
          "internalType": "address",
          "name": "_newCOO",
          "type": "address"
        }
      ],
      "name": "setCOO",
      "outputs": [],
      "stateMutability": "nonpayable",
      "type": "function"
    },
    {
      "inputs": [
        {
          "internalType": "string",
          "name": "_s",
          "type": "string"
        }
      ],
      "name": "setString",
      "outputs": [],
      "stateMutability": "nonpayable",
      "type": "function"
    },
    {
      "inputs": [],
      "name": "stringgg",
      "outputs": [
        {
          "internalType": "string",
          "name": "",
          "type": "string"
        }
      ],
      "stateMutability": "view",
      "type": "function",
      "constant": true
    },
    {
      "inputs": [],
      "name": "unpause",
      "outputs": [
        {
          "internalType": "bool",
          "name": "",
          "type": "bool"
        }
      ],
      "stateMutability": "nonpayable",
      "type": "function"
    },
    {
      "inputs": [
        {
          "internalType": "uint256",
          "name": "groupId",
          "type": "uint256"
        },
        {
          "internalType": "string",
          "name": "newContributorName",
          "type": "string"
        },
        {
          "internalType": "string",
          "name": "newContributorImgUrl",
          "type": "string"
        },
        {
          "internalType": "string",
          "name": "newContributorLinkToUrl",
          "type": "string"
        }
      ],
      "name": "updateContributorInfo",
      "outputs": [],
      "stateMutability": "nonpayable",
      "type": "function"
    },
    {
      "inputs": [],
      "name": "whoami",
      "outputs": [
        {
          "internalType": "address",
          "name": "",
          "type": "address"
        }
      ],
      "stateMutability": "view",
      "type": "function",
      "constant": true
    },
    {
      "inputs": [
        {
          "internalType": "address",
          "name": "account",
          "type": "address"
        },
        {
          "internalType": "uint256",
          "name": "groupId",
          "type": "uint256"
        }
      ],
      "name": "isAdmin",
      "outputs": [
        {
          "internalType": "bool",
          "name": "",
          "type": "bool"
        }
      ],
      "stateMutability": "view",
      "type": "function",
      "constant": true
    },
    {
      "inputs": [
        {
          "internalType": "uint256",
          "name": "groupId",
          "type": "uint256"
        }
      ],
      "name": "getMyAdminIndex",
      "outputs": [
        {
          "internalType": "uint256",
          "name": "",
          "type": "uint256"
        }
      ],
      "stateMutability": "view",
      "type": "function",
      "constant": true
    },
    {
      "inputs": [
        {
          "internalType": "uint256",
          "name": "groupId",
          "type": "uint256"
        },
        {
          "internalType": "address",
          "name": "account",
          "type": "address"
        },
        {
          "internalType": "string",
          "name": "name",
          "type": "string"
        }
      ],
      "name": "addAdmin",
      "outputs": [],
      "stateMutability": "nonpayable",
      "type": "function"
    },
    {
      "inputs": [
        {
          "internalType": "uint256",
          "name": "groupId",
          "type": "uint256"
        }
      ],
      "name": "getAddressNextAdminIndex",
      "outputs": [
        {
          "internalType": "uint256",
          "name": "",
          "type": "uint256"
        }
      ],
      "stateMutability": "view",
      "type": "function",
      "constant": true
    },
    {
      "inputs": [
        {
          "internalType": "uint256",
          "name": "groupId",
          "type": "uint256"
        }
      ],
      "name": "amIAdmin",
      "outputs": [
        {
          "internalType": "bool",
          "name": "",
          "type": "bool"
        }
      ],
      "stateMutability": "view",
      "type": "function",
      "constant": true
    },
    {
      "inputs": [
        {
          "internalType": "uint256",
          "name": "groupId",
          "type": "uint256"
        }
      ],
      "name": "getAdminsForGroup",
      "outputs": [
        {
          "internalType": "address[]",
          "name": "",
          "type": "address[]"
        },
        {
          "internalType": "bool[]",
          "name": "",
          "type": "bool[]"
        },
        {
          "internalType": "string[]",
          "name": "",
          "type": "string[]"
        }
      ],
      "stateMutability": "view",
      "type": "function",
      "constant": true
    },
    {
      "inputs": [
        {
          "internalType": "uint256",
          "name": "groupId",
          "type": "uint256"
        },
        {
          "internalType": "address",
          "name": "account",
          "type": "address"
        }
      ],
      "name": "reEnableAdmin",
      "outputs": [],
      "stateMutability": "nonpayable",
      "type": "function"
    },
    {
      "inputs": [
        {
          "internalType": "uint256",
          "name": "groupId",
          "type": "uint256"
        },
        {
          "internalType": "address",
          "name": "account",
          "type": "address"
        }
      ],
      "name": "removeAdmin",
      "outputs": [],
      "stateMutability": "nonpayable",
      "type": "function"
    },
    {
      "inputs": [
        {
          "internalType": "uint256",
          "name": "groupId",
          "type": "uint256"
        }
      ],
      "name": "renounceAdmin",
      "outputs": [],
      "stateMutability": "nonpayable",
      "type": "function"
    },
    {
      "inputs": [
        {
          "internalType": "uint256",
          "name": "groupId",
          "type": "uint256"
        }
      ],
      "name": "readEventInfo",
      "outputs": [
        {
          "components": [
            {
              "internalType": "uint256",
              "name": "groupId",
              "type": "uint256"
            },
            {
              "internalType": "string",
              "name": "groupName",
              "type": "string"
            },
            {
              "internalType": "enum EthDropBase.EventState",
              "name": "currentState",
              "type": "uint8"
            },
            {
              "internalType": "uint256",
              "name": "registeredRecipientsCount",
              "type": "uint256"
            },
            {
              "internalType": "string",
              "name": "sponsorName",
              "type": "string"
            },
            {
              "internalType": "string",
              "name": "sponsorImageUrl",
              "type": "string"
            },
            {
              "internalType": "string",
              "name": "sponsorLinkToUrl",
              "type": "string"
            },
            {
              "internalType": "address",
              "name": "currentContributor",
              "type": "address"
            },
            {
              "internalType": "uint256",
              "name": "totalAmountContributed",
              "type": "uint256"
            },
            {
              "internalType": "uint256",
              "name": "weiWinnings",
              "type": "uint256"
            },
            {
              "internalType": "uint256",
              "name": "numberOfUsersWhoClaimedWinnings",
              "type": "uint256"
            }
          ],
          "internalType": "struct EthDropBase.EthDropEvent",
          "name": "",
          "type": "tuple"
        }
      ],
      "stateMutability": "view",
      "type": "function",
      "constant": true
    },
    {
      "inputs": [
        {
          "internalType": "string",
          "name": "groupName",
          "type": "string"
        }
      ],
      "name": "createNewGroup",
      "outputs": [],
      "stateMutability": "nonpayable",
      "type": "function"
    },
    {
      "inputs": [
        {
          "internalType": "uint256",
          "name": "groupId",
          "type": "uint256"
        }
      ],
      "name": "startEvent",
      "outputs": [],
      "stateMutability": "nonpayable",
      "type": "function"
    },
    {
      "inputs": [
        {
          "internalType": "uint256",
          "name": "groupId",
          "type": "uint256"
        }
      ],
      "name": "closeEventRegistration",
      "outputs": [],
      "stateMutability": "nonpayable",
      "type": "function"
    },
    {
      "inputs": [
        {
          "internalType": "uint256",
          "name": "groupId",
          "type": "uint256"
        }
      ],
      "name": "endEvent",
      "outputs": [],
      "stateMutability": "nonpayable",
      "type": "function"
    },
    {
      "inputs": [
        {
          "internalType": "address",
          "name": "account",
          "type": "address"
        },
        {
          "internalType": "uint256",
          "name": "groupId",
          "type": "uint256"
        }
      ],
      "name": "removeEligibleRecipient",
      "outputs": [],
      "stateMutability": "nonpayable",
      "type": "function"
    },
    {
      "inputs": [
        {
          "internalType": "address",
          "name": "account",
          "type": "address"
        },
        {
          "internalType": "uint256",
          "name": "groupId",
          "type": "uint256"
        }
      ],
      "name": "changeContributor",
      "outputs": [],
      "stateMutability": "nonpayable",
      "type": "function"
    },
    {
      "inputs": [
        {
          "internalType": "uint256",
          "name": "groupId",
          "type": "uint256"
        },
        {
          "internalType": "address",
          "name": "accountToApprove",
          "type": "address"
        }
      ],
      "name": "approveRequestToJoinGroup",
      "outputs": [],
      "stateMutability": "nonpayable",
      "type": "function"
    },
    {
      "inputs": [
        {
          "internalType": "uint256",
          "name": "groupId",
          "type": "uint256"
        }
      ],
      "name": "getNewJoinerRequests",
      "outputs": [
        {
          "internalType": "address[]",
          "name": "",
          "type": "address[]"
        },
        {
          "internalType": "string[]",
          "name": "",
          "type": "string[]"
        },
        {
          "internalType": "bool[]",
          "name": "",
          "type": "bool[]"
        }
      ],
      "stateMutability": "view",
      "type": "function",
      "constant": true
    },
    {
      "inputs": [
        {
          "internalType": "uint256",
          "name": "groupId",
          "type": "uint256"
        }
      ],
      "name": "getEligibleRecipients",
      "outputs": [
        {
          "internalType": "address[]",
          "name": "",
          "type": "address[]"
        },
        {
          "internalType": "string[]",
          "name": "",
          "type": "string[]"
        },
        {
          "internalType": "bool[]",
          "name": "",
          "type": "bool[]"
        }
      ],
      "stateMutability": "view",
      "type": "function",
      "constant": true
    }
  ],
  "bytecode": "0x6080604052600180546001600160a01b031916331781556003805460ff60a01b191690556005805560085534801561003657600080fd5b5061549f806100466000396000f3fe60806040526004361061032d5760003560e01c80638182aaf2116101a7578063cd04e475116100ed578063ea303f0811610090578063ea303f0814610aae578063edf6261d14610ace578063ee41b59214610aee578063ef2e61cc14610b0e578063f40fb25414610b2e578063f4a02e7014610b4e578063f89e9cb914610b6e578063fc5fd6e414610b8e57600080fd5b8063cd04e4751461098e578063d5f016c3146109c1578063e33db426146109d6578063e513b7a914610a03578063e62092be14610a23578063e82f24e014610a43578063e9992d9914610a56578063e9af9bca14610a7657600080fd5b8063aea88a0511610155578063aea88a05146108a5578063b047fb50146108c5578063b187bd26146108e5578063b3b36bb314610904578063bc5b2e1a14610917578063c02b8b2c14610937578063c271e80c14610959578063c6db50941461097957600080fd5b80638182aaf2146107c15780638456cb59146107e157806389ea642f146107f65780639393ae3714610818578063962ecff5146108385780639bda879614610858578063a59a69531461088557600080fd5b8063454432e211610277578063677bd9ff1161021a578063677bd9ff146106b45780636ebdec49146106d4578063744c5e1e14610703578063785142be146107235780637b936ac2146107435780637d837ce5146107615780637eb0bdc9146107815780637fcaf666146107a157600080fd5b8063454432e21461056b5780634635509b1461058b5780634e0a3379146105bc57806355b57ec1146105dc57806356c9a339146106095780635c975abb146106445780635e82c1fc14610665578063674811ca1461068557600080fd5b806327d7874c116102df57806327d7874c146104675780632ba73c151461048757806330bb0115146104a7578063330a347b146104c757806338f0b656146104e75780633f4ba83a14610507578063406db8431461051c57806344b2983b1461053c57600080fd5b80630519ce791461033257806306cc49221461036f57806307bfa3301461039f5780630a0f8168146103cc5780630d82ffa0146103ec57806315891ff414610425578063222fd08714610447575b600080fd5b34801561033e57600080fd5b50600254610352906001600160a01b031681565b6040516001600160a01b0390911681526020015b60405180910390f35b34801561037b57600080fd5b5061038f61038a366004614ac0565b610bac565b6040519015158152602001610366565b3480156103ab57600080fd5b506103bf6103ba366004614ac0565b610c05565b6040516103669190614ee9565b3480156103d857600080fd5b50600154610352906001600160a01b031681565b3480156103f857600080fd5b50610352610407366004614ac0565b6000908152600960205260409020600701546001600160a01b031690565b34801561043157600080fd5b50610445610440366004614a59565b610cf1565b005b34801561045357600080fd5b50610445610462366004614b5c565b610df6565b34801561047357600080fd5b50610445610482366004614a37565b6110fe565b34801561049357600080fd5b506104456104a2366004614a37565b611170565b3480156104b357600080fd5b506104456104c2366004614ac0565b6111f4565b3480156104d357600080fd5b506104456104e2366004614ac0565b611229565b3480156104f357600080fd5b5061038f610502366004614ac0565b6114f5565b34801561051357600080fd5b5061038f611532565b34801561052857600080fd5b50610445610537366004614ac0565b6115ed565b34801561054857600080fd5b5061055c610557366004614ac0565b6119ff565b60405161036693929190614e9d565b34801561057757600080fd5b506103bf610586366004614ac0565b611bcc565b34801561059757600080fd5b506105ab6105a6366004614ac0565b611cad565b604051610366959493929190614f40565b3480156105c857600080fd5b506104456105d7366004614a37565b611fcd565b3480156105e857600080fd5b506105fc6105f7366004614ac0565b612064565b6040516103669190614ed6565b34801561061557600080fd5b50610636610624366004614ac0565b6000908152600c602052604090205490565b604051908152602001610366565b34801561065057600080fd5b5060035461038f90600160a01b900460ff1681565b34801561067157600080fd5b5061038f610680366004614a59565b6120e6565b34801561069157600080fd5b506106a56106a0366004614ac0565b61213d565b60405161036693929190614f83565b3480156106c057600080fd5b506104456106cf366004614ac0565b61230b565b3480156106e057600080fd5b506106f46106ef366004614ac0565b6124e2565b60405161036693929190614e5a565b34801561070f57600080fd5b5061038f61071e366004614ac0565b6126b1565b34801561072f57600080fd5b5061044561073e366004614ac0565b6126fe565b34801561074f57600080fd5b506002546001600160a01b0316610352565b34801561076d57600080fd5b5061038f61077c366004614a59565b6128c0565b34801561078d57600080fd5b5061044561079c366004614ad9565b612917565b3480156107ad57600080fd5b506104456107bc366004614a83565b61294b565b3480156107cd57600080fd5b5061038f6107dc366004614a59565b61295e565b3480156107ed57600080fd5b506104456129af565b34801561080257600080fd5b5061080b612a8c565b6040516103669190614f70565b34801561082457600080fd5b506002546001600160a01b0316331461038f565b34801561084457600080fd5b5061038f610853366004614ac0565b612b1e565b34801561086457600080fd5b50610878610873366004614ac0565b612b2a565b6040516103669190614e47565b34801561089157600080fd5b506104456108a0366004614ac0565b612b95565b3480156108b157600080fd5b506104456108c0366004614bd8565b612c35565b3480156108d157600080fd5b50600354610352906001600160a01b031681565b3480156108f157600080fd5b50600354600160a01b900460ff1661038f565b34801561091057600080fd5b5033610352565b34801561092357600080fd5b50610445610932366004614ad9565b612d2f565b34801561094357600080fd5b5061094c61306d565b6040516103669190614efc565b34801561096557600080fd5b50610445610974366004614a59565b6130c4565b34801561098557600080fd5b5061080b613126565b34801561099a57600080fd5b506109ae6109a9366004614ac0565b6131b4565b60405161036697969594939291906152a2565b3480156109cd57600080fd5b506103bf6134fe565b3480156109e257600080fd5b506109f66109f1366004614ac0565b6135d7565b604051610366919061514f565b348015610a0f57600080fd5b506001546001600160a01b0316331461038f565b348015610a2f57600080fd5b5061038f610a3e366004614a59565b61394d565b610445610a51366004614ac0565b6139cf565b348015610a6257600080fd5b50610445610a71366004614ad9565b613a7c565b348015610a8257600080fd5b50610636610a91366004614ac0565b6000908152600b6020908152604080832033845290915290205490565b348015610aba57600080fd5b50610445610ac9366004614a83565b613b7e565b348015610ada57600080fd5b50610445610ae9366004614b05565b613e31565b348015610afa57600080fd5b5061038f610b09366004614ac0565b613e9e565b348015610b1a57600080fd5b5061055c610b29366004614ac0565b613ed5565b348015610b3a57600080fd5b5061055c610b49366004614ac0565b6140cd565b348015610b5a57600080fd5b506003546001600160a01b0316331461038f565b348015610b7a57600080fd5b5061038f610b89366004614ac0565b614217565b348015610b9a57600080fd5b506003546001600160a01b0316610352565b600354600090600160a01b900460ff1615610be25760405162461bcd60e51b8152600401610bd990615000565b60405180910390fd5b50600081815260106020908152604080832033845290915290205415155b919050565b6060601f6000838152602001908152602001600020805480602002602001604051908101604052809291908181526020016000905b82821015610ce6578382906000526020600020018054610c59906153c1565b80601f0160208091040260200160405190810160405280929190818152602001828054610c85906153c1565b8015610cd25780601f10610ca757610100808354040283529160200191610cd2565b820191906000526020600020905b815481529060010190602001808311610cb557829003601f168201915b505050505081526020019060010190610c3a565b505050509050919050565b80610cfc338261394d565b610d185760405162461bcd60e51b8152600401610bd99061508b565b600354600160a01b900460ff1615610d425760405162461bcd60e51b8152600401610bd990615000565b60008281526010602090815260408083206001600160a01b038716845282528083205485845260149092528220805491929183908110610d8457610d8461543d565b90600052602060002090602091828204019190066101000a81548160ff021916908315150217905550836001600160a01b03167f1af6d16168d33745872119540d28858eed156c5f265206bbf1344fda39a93a3384604051610de891815260200190565b60405180910390a250505050565b6000838152601760209081526040808320338085529252909120548491908015610e885760405162461bcd60e51b815260206004820152603d60248201527f4572726f723a207468697320616464726573732068617320616c72656164792060448201527f72657175657374656420746f206a6f696e20746869732067726f75702e0000006064820152608401610bd9565b6000868152601060209081526040808320338085529252909120548791908015610ec45760405162461bcd60e51b8152600401610bd99061502e565b600089815260186020526040902054610fac57600089815260186020908152604080832060019081905560198352818420805480830182559085528385200180546001600160a01b03191690558c8452601a835281842080549182018155845282842082519384019283905292849052610f4093920191614750565b506000898152601b60209081526040808320805460018082018355918552838520848204018054601f92831661010090810a60ff908102199092169092558f8752601c86529386208054938401815586529484902093820490930180549190931690930a021990911690555b6000898152601860209081526040808320546017835281842033808652908452828520919091558c8452601983528184208054600181810183559186528486200180546001600160a01b0319169092179091558c8452601a83529083208054918201815583529120611020910189896147d4565b506000898152601b60209081526040808320805460018082018355918552838520848204018054601f92831661010090810a60ff81810219909316179092558f8752601c8652848720805480860182559088528688208782040180549190941690920a02191690558c845260189092529091205461109d91615351565b60008a815260186020908152604080832093909355600c90528190205490517fc73d895047e43bcf8caa9f1cce950d0f1a21fc9a00a8d693db86cd0c93dc91aa916110eb918c91339161526a565b60405180910390a1505050505050505050565b6001546001600160a01b031633146111285760405162461bcd60e51b8152600401610bd990614fbc565b6001600160a01b03811661114e5760405162461bcd60e51b8152600401610bd990615118565b600180546001600160a01b0319166001600160a01b0392909216919091179055565b6001546001600160a01b0316331461119a5760405162461bcd60e51b8152600401610bd990614fbc565b6001600160a01b0381166111ad57600080fd5b600380546001600160a01b0319166001600160a01b0383161790556040517fa308298a77084def994b565be25bff2e8fbfe7006c2c6b2bacfb84d1ba1f635090600090a150565b806111ff338261394d565b61121b5760405162461bcd60e51b8152600401610bd99061508b565b6112258233614256565b5050565b80611234338261394d565b8061124957506003546001600160a01b031633145b61125257600080fd5b600354600160a01b900460ff161561127c5760405162461bcd60e51b8152600401610bd990615000565b6000828152600960205260408120600201805460ff191660031790555b60008381526009602052604090206003015481101561131057600083815260208052604081208054839081106112d1576112d161543d565b6000918252602080832090910154868352601d825260408084206001600160a01b03909216845291528120555080611308816153f6565b915050611299565b50600082815260216020526040812061132891614848565b6000828152601f6020526040812061133f91614870565b600082815260208052604081206113559161488e565b6000828152601e60209081526040808320839055600a825280832060098352908320815460018181018455928552929093208354600b909302019182558083018054918301916113a4906153c1565b6113af9291906148ac565b50600282810154908201805460ff9092169160ff191660018360038111156113d9576113d9615427565b02179055506003820154816003015560048201816004019080546113fc906153c1565b6114079291906148ac565b50600582018160050190805461141c906153c1565b6114279291906148ac565b50600682018160060190805461143c906153c1565b6114479291906148ac565b5060078281015490820180546001600160a01b0319166001600160a01b039092169190911790556008808301548183015560098084015481840155600a9384015492840192909255600085815260208390526040808220600381018390559283018290559282018190559201919091555133907ff184af570dff3a3eecc3464b3ee06c5b91b8cbd63a658135ded4f57fc3643579906114e99085815260200190565b60405180910390a25050565b600354600090600160a01b900460ff16156115225760405162461bcd60e51b8152600401610bd990615000565b61152c33836128c0565b92915050565b6001546000906001600160a01b0316331461155f5760405162461bcd60e51b8152600401610bd990614fbc565b600354600160a01b900460ff166115d05760405162461bcd60e51b815260206004820152602f60248201527f66756e6374696f6e2063616e206f6e6c792062652063616c6c6564207768656e60448201526e1030b8381034b9903830bab9b2b21760891b6064820152608401610bd9565b506003805460ff60a01b191690819055600160a01b900460ff1690565b806115f833826120e6565b6116565760405162461bcd60e51b815260206004820152602960248201527f736f7272792c20796f7520617265206e6f7420616e20656c696769626c65207260448201526832b1b4b834b2b73a1760b91b6064820152608401610bd9565b600082815260106020908152604080832033808552908352818420548685526014909352922080548593929190829081106116935761169361543d565b60009182526020918290209181049091015460ff601f9092166101000a9004166117315760405162461bcd60e51b815260206004820152604360248201527f4572726f723a20726563697069656e74277320656c696769626c696c6974792060448201527f686173206265656e2064697361626c656420666f7220746869732067726f757060648201526217171760e91b608482015260a401610bd9565b600354600160a01b900460ff161561175b5760405162461bcd60e51b8152600401610bd990615000565b6000858152601e602052604090205461180f576000858152601e60209081526040808320600190819055828052818420805480830182559085528385200180546001600160a01b0319169055888452601f8352818420805491820181558452828420825193840192839052928490526117d693920191614750565b5060008581526021602090815260408220805460018101825590835291819020908204018054601f9092166101000a60ff021990911690555b6000858152601060209081526040808320338452825280832054888452601390925282208054919291839081106118485761184861543d565b90600052602060002001805461185d906153c1565b80601f0160208091040260200160405190810160405280929190818152602001828054611889906153c1565b80156118d65780601f106118ab576101008083540402835291602001916118d6565b820191906000526020600020905b8154815290600101906020018083116118b957829003601f168201915b50505060008a8152602080805260408083208054600181810183559185528385200180546001600160a01b031916331790558d8452601f8352908320805491820181558352918190208551959650611935959201935085019150614750565b506000878152602160209081526040808320805460018082018355918552838520848204018054601f9092166101000a60ff021990911690558a845260099092529091206003015461198691615351565b600088815260096020908152604080832060030193909355601e905220546119af906001615351565b6000888152601e6020908152604091829020929092555188815233917f0695e999be8100bdb5bee8612337296508d527eae78c65b8f170eacb5a3b439d910160405180910390a250505050505050565b600081815260208080526040808320601f835281842060218452938290208154835181860281018601909452808452606095869586959193928591830182828015611a7357602002820191906000526020600020905b81546001600160a01b03168152600190910190602001808311611a55575b5050505050925081805480602002602001604051908101604052809291908181526020016000905b82821015611b47578382906000526020600020018054611aba906153c1565b80601f0160208091040260200160405190810160405280929190818152602001828054611ae6906153c1565b8015611b335780601f10611b0857610100808354040283529160200191611b33565b820191906000526020600020905b815481529060010190602001808311611b1657829003601f168201915b505050505081526020019060010190611a9b565b50505050915080805480602002602001604051908101604052809291908181526020018280548015611bb857602002820191906000526020600020906000905b825461010083900a900460ff161515815260206001928301818104948501949093039092029101808411611b875790505b505050505090509250925092509193909250565b606060136000838152602001908152602001600020805480602002602001604051908101604052809291908181526020016000905b82821015610ce6578382906000526020600020018054611c20906153c1565b80601f0160208091040260200160405190810160405280929190818152602001828054611c4c906153c1565b8015611c995780601f10611c6e57610100808354040283529160200191611c99565b820191906000526020600020905b815481529060010190602001808311611c7c57829003601f168201915b505050505081526020019060010190611c01565b600080600080600080600960008881526020019081526020016000206040518061016001604052908160008201548152602001600182018054611cef906153c1565b80601f0160208091040260200160405190810160405280929190818152602001828054611d1b906153c1565b8015611d685780601f10611d3d57610100808354040283529160200191611d68565b820191906000526020600020905b815481529060010190602001808311611d4b57829003601f168201915b5050509183525050600282015460209091019060ff166003811115611d8f57611d8f615427565b6003811115611da057611da0615427565b815260200160038201548152602001600482018054611dbe906153c1565b80601f0160208091040260200160405190810160405280929190818152602001828054611dea906153c1565b8015611e375780601f10611e0c57610100808354040283529160200191611e37565b820191906000526020600020905b815481529060010190602001808311611e1a57829003601f168201915b50505050508152602001600582018054611e50906153c1565b80601f0160208091040260200160405190810160405280929190818152602001828054611e7c906153c1565b8015611ec95780601f10611e9e57610100808354040283529160200191611ec9565b820191906000526020600020905b815481529060010190602001808311611eac57829003601f168201915b50505050508152602001600682018054611ee2906153c1565b80601f0160208091040260200160405190810160405280929190818152602001828054611f0e906153c1565b8015611f5b5780601f10611f3057610100808354040283529160200191611f5b565b820191906000526020600020905b815481529060010190602001808311611f3e57829003601f168201915b505050918352505060078201546001600160a01b0316602082015260088201546040808301919091526009830154606080840191909152600a909301546080909201919091528201519082015161010083015161012084015161014090940151929b919a509850919650945092505050565b6001546001600160a01b03163314611ff75760405162461bcd60e51b8152600401610bd990614fbc565b6001600160a01b03811661201d5760405162461bcd60e51b8152600401610bd990615118565b600280546001600160a01b0319166001600160a01b0383161790556040517f162e32528b5907ecf876b3b7a4e5e0edf878642e3ec25852e3c35af1a4e1c04090600090a150565b6000818152601460209081526040918290208054835181840281018401909452808452606093928301828280156120da57602002820191906000526020600020906000905b825461010083900a900460ff1615158152602060019283018181049485019490930390920291018084116120a95790505b50505050509050919050565b600354600090600160a01b900460ff16156121135760405162461bcd60e51b8152600401610bd990615000565b5060009081526010602090815260408083206001600160a01b039490941683529290522054151590565b600081815260096020526040902060048101805460609283928392909160058101916006909101908390612170906153c1565b80601f016020809104026020016040519081016040528092919081815260200182805461219c906153c1565b80156121e95780601f106121be576101008083540402835291602001916121e9565b820191906000526020600020905b8154815290600101906020018083116121cc57829003601f168201915b505050505092508180546121fc906153c1565b80601f0160208091040260200160405190810160405280929190818152602001828054612228906153c1565b80156122755780601f1061224a57610100808354040283529160200191612275565b820191906000526020600020905b81548152906001019060200180831161225857829003601f168201915b50505050509150808054612288906153c1565b80601f01602080910402602001604051908101604052809291908181526020018280546122b4906153c1565b8015611bb85780601f106122d657610100808354040283529160200191611bb8565b820191906000526020600020905b8154815290600101906020018083116122e45750969b959a50929850939650505050505050565b8061231633826128c0565b6123755760405162461bcd60e51b815260206004820152602a60248201527f736f7272792c20796f7520617265206e6f7420612072656769737465726564206044820152693932b1b4b834b2b73a1760b11b6064820152608401610bd9565b60008281526015602090815260408083203380855292529091205483919060ff161515600114156124045760405162461bcd60e51b815260206004820152603360248201527f77686f6f70732c206c6f6f6b73206c696b6520796f7527766520616c726561646044820152727920636c61696d65642077696e6e696e67732160681b6064820152608401610bd9565b600354600160a01b900460ff161561242e5760405162461bcd60e51b8152600401610bd990615000565b60008481526015602090815260408083203384528252808320805460ff1916600117905586835260099091528120600a0180549161246b836153f6565b90915550506000848152600960208190526040808320909101549051339282156108fc02929190818181858888f193505050501580156124af573d6000803e3d6000fd5b5060405184815233907f1a31e733a172afcf46074b3106c17f0c298e226442682a03c1e99ce256139ec290602001610de8565b6000818152600d60209081526040808320600f8352818420600e845293829020815483518186028101860190945280845260609586958695919392859183018282801561255857602002820191906000526020600020905b81546001600160a01b0316815260019091019060200180831161253a575b50505050509250818054806020026020016040519081016040528092919081815260200182805480156125ca57602002820191906000526020600020906000905b825461010083900a900460ff1615158152602060019283018181049485019490930390920291018084116125995790505b5050505050915080805480602002602001604051908101604052809291908181526020016000905b8282101561269e578382906000526020600020018054612611906153c1565b80601f016020809104026020016040519081016040528092919081815260200182805461263d906153c1565b801561268a5780601f1061265f5761010080835404028352916020019161268a565b820191906000526020600020905b81548152906001019060200180831161266d57829003601f168201915b5050505050815260200190600101906125f2565b5050505090509250925092509193909250565b600354600090600160a01b900460ff16156126de5760405162461bcd60e51b8152600401610bd990615000565b506000908152601760209081526040808320338452909152902054151590565b80612709338261394d565b6127255760405162461bcd60e51b8152600401610bd99061508b565b600354600160a01b900460ff161561274f5760405162461bcd60e51b8152600401610bd990615000565b6000828152600960205260409020600301546127c35760405162461bcd60e51b815260206004820152602d60248201527f43616e277420656e6420726567697374726174696f6e2077697468207a65726f60448201526c2072656769737472616e74732160981b6064820152608401610bd9565b60055460008381526009602052604081206008015490916064916127e7919061538b565b6127f19190615369565b6002546040519192506001600160a01b03169082156108fc029083906000818181858888f1935050505015801561282c573d6000803e3d6000fd5b5060008381526009602052604081206008015461284a9083906153aa565b6000858152600960205260409020600301549091506128699082615369565b600085815260096020818152604092839020918201939093556002908101805460ff191690911790555185815233917f0eac29f28d53644f45e1f9f2feef665e4c5d7816090d91e169176fb4e23086299101610de8565b600354600090600160a01b900460ff16156128ed5760405162461bcd60e51b8152600401610bd990615000565b506000908152601d602090815260408083206001600160a01b039490941683529290522054151590565b6003546001600160a01b031633146129415760405162461bcd60e51b8152600401610bd9906150d4565b6112258282614256565b8051611225906000906020840190614750565b600354600090600160a01b900460ff161561298b5760405162461bcd60e51b8152600401610bd990615000565b506000908152600960205260409020600701546001600160a01b0390811691161490565b6003546001600160a01b03163314806129d257506001546001600160a01b031633145b806129e757506002546001600160a01b031633145b612a4d5760405162461bcd60e51b815260206004820152603160248201527f6f6e6c7920736f6d656f6e652066726f6d20632d73756974652063616e2063616044820152703636103a3434b990333ab731ba34b7b71760791b6064820152608401610bd9565b600354600160a01b900460ff1615612a775760405162461bcd60e51b8152600401610bd990615000565b6003805460ff60a01b1916600160a01b179055565b606060008054612a9b906153c1565b80601f0160208091040260200160405190810160405280929190818152602001828054612ac7906153c1565b8015612b145780601f10612ae957610100808354040283529160200191612b14565b820191906000526020600020905b815481529060010190602001808311612af757829003601f168201915b5050505050905090565b600061152c338361394d565b6000818152601260209081526040918290208054835181840281018401909452808452606093928301828280156120da57602002820191906000526020600020905b81546001600160a01b03168152600190910190602001808311612b6c5750505050509050919050565b80612ba0338261394d565b612bbc5760405162461bcd60e51b8152600401610bd99061508b565b600354600160a01b900460ff1615612be65760405162461bcd60e51b8152600401610bd990615000565b600082815260096020908152604091829020600201805460ff19166001179055905183815233917f9118a3ee6cd03b7e9740d3092ac8fab787a7f93f52732d7bcd32f35dbea62a9c91016114e9565b83612c40338261295e565b612c4957600080fd5b835115612c775760008581526009602090815260409091208551612c7592600490920191870190614750565b505b825115612ca55760008581526009602090815260409091208451612ca392600590920191860190614750565b505b815115612cd35760008581526009602090815260409091208351612cd192600690920191850190614750565b505b6000858152600960205260409081902090517fcd9ad49d834aeea746bafd2d26eebd3d01ebac2d8f5d3f53d7f3884292e5835f91612d209188916004810191600582019160060190615307565b60405180910390a15050505050565b81612d3a338261394d565b612d565760405162461bcd60e51b8152600401610bd99061508b565b600354600160a01b900460ff1615612d805760405162461bcd60e51b8152600401610bd990615000565b60008381526010602090815260408083206001600160a01b0386168452909152902054839083908015612dc55760405162461bcd60e51b8152600401610bd99061502e565b60008681526017602090815260408083206001600160a01b0389168452909152902054869086908015801590612e3757506000838152601b60205260409020805482908110612e1657612e1661543d565b90600052602060002090602091828204019190069054906101000a900460ff165b612eb95760405162461bcd60e51b815260206004820152604760248201527f4572726f723a2074686973206164647265737320646f6573206e6f742068617660448201527f6520612070656e64696e67207265717565737420746f206a6f696e20746869736064820152661033b937bab81760c91b608482015260a401610bd9565b60008981526017602090815260408083206001600160a01b038c1684528252808320548c845260199092528220805491929183908110612efb57612efb61543d565b60009182526020808320909101548d8352601a9091526040822080546001600160a01b0390921693509084908110612f3557612f3561543d565b906000526020600020018054612f4a906153c1565b80601f0160208091040260200160405190810160405280929190818152602001828054612f76906153c1565b8015612fc35780601f10612f9857610100808354040283529160200191612fc3565b820191906000526020600020905b815481529060010190602001808311612fa657829003601f168201915b505050505090506001601c60008e81526020019081526020016000208481548110612ff057612ff061543d565b90600052602060002090602091828204019190066101000a81548160ff02191690831515021790555061302482828e614307565b7fa99702a14ae3f010941d30549064432035071f0e359c50ec6b37d47f430d557a8c838360405161305793929190615237565b60405180910390a1505050505050505050505050565b60606006805480602002602001604051908101604052809291908181526020018280548015612b1457602002820191906000526020600020905b8154815260200190600101908083116130a7575050505050905090565b806130cf338261394d565b806130e457506003546001600160a01b031633145b6130ed57600080fd5b600354600160a01b900460ff16156131175760405162461bcd60e51b8152600401610bd990615000565b61312183836144fc565b505050565b60008054613133906153c1565b80601f016020809104026020016040519081016040528092919081815260200182805461315f906153c1565b80156131ac5780601f10613181576101008083540402835291602001916131ac565b820191906000526020600020905b81548152906001019060200180831161318f57829003601f168201915b505050505081565b60006060600080600080600080600960008a815260200190815260200160002060405180610160016040529081600082015481526020016001820180546131fa906153c1565b80601f0160208091040260200160405190810160405280929190818152602001828054613226906153c1565b80156132735780601f1061324857610100808354040283529160200191613273565b820191906000526020600020905b81548152906001019060200180831161325657829003601f168201915b5050509183525050600282015460209091019060ff16600381111561329a5761329a615427565b60038111156132ab576132ab615427565b8152602001600382015481526020016004820180546132c9906153c1565b80601f01602080910402602001604051908101604052809291908181526020018280546132f5906153c1565b80156133425780601f1061331757610100808354040283529160200191613342565b820191906000526020600020905b81548152906001019060200180831161332557829003601f168201915b5050505050815260200160058201805461335b906153c1565b80601f0160208091040260200160405190810160405280929190818152602001828054613387906153c1565b80156133d45780601f106133a9576101008083540402835291602001916133d4565b820191906000526020600020905b8154815290600101906020018083116133b757829003601f168201915b505050505081526020016006820180546133ed906153c1565b80601f0160208091040260200160405190810160405280929190818152602001828054613419906153c1565b80156134665780601f1061343b57610100808354040283529160200191613466565b820191906000526020600020905b81548152906001019060200180831161344957829003601f168201915b505050505081526020016007820160009054906101000a90046001600160a01b03166001600160a01b03166001600160a01b031681526020016008820154815260200160098201548152602001600a8201548152505090508060000151816020015182604001518360600151846101000151856101200151866101400151975097509750975097509750975050919395979092949650565b60606007805480602002602001604051908101604052809291908181526020016000905b828210156135ce578382906000526020600020018054613541906153c1565b80601f016020809104026020016040519081016040528092919081815260200182805461356d906153c1565b80156135ba5780601f1061358f576101008083540402835291602001916135ba565b820191906000526020600020905b81548152906001019060200180831161359d57829003601f168201915b505050505081526020019060010190613522565b50505050905090565b61363d6040805161016081018252600080825260606020830152909182019081526020016000815260200160608152602001606081526020016060815260200160006001600160a01b031681526020016000815260200160008152602001600081525090565b81613648338261394d565b6136645760405162461bcd60e51b8152600401610bd99061508b565b60096000848152602001908152602001600020604051806101600160405290816000820154815260200160018201805461369d906153c1565b80601f01602080910402602001604051908101604052809291908181526020018280546136c9906153c1565b80156137165780601f106136eb57610100808354040283529160200191613716565b820191906000526020600020905b8154815290600101906020018083116136f957829003601f168201915b5050509183525050600282015460209091019060ff16600381111561373d5761373d615427565b600381111561374e5761374e615427565b81526020016003820154815260200160048201805461376c906153c1565b80601f0160208091040260200160405190810160405280929190818152602001828054613798906153c1565b80156137e55780601f106137ba576101008083540402835291602001916137e5565b820191906000526020600020905b8154815290600101906020018083116137c857829003601f168201915b505050505081526020016005820180546137fe906153c1565b80601f016020809104026020016040519081016040528092919081815260200182805461382a906153c1565b80156138775780601f1061384c57610100808354040283529160200191613877565b820191906000526020600020905b81548152906001019060200180831161385a57829003601f168201915b50505050508152602001600682018054613890906153c1565b80601f01602080910402602001604051908101604052809291908181526020018280546138bc906153c1565b80156139095780601f106138de57610100808354040283529160200191613909565b820191906000526020600020905b8154815290600101906020018083116138ec57829003601f168201915b505050918352505060078201546001600160a01b031660208201526008820154604082015260098201546060820152600a9091015460809091015291505b50919050565b6000818152600b602090815260408083206001600160a01b03861684529091528120548061397f57600091505061152c565b6000838152600f6020526040902080548290811061399f5761399f61543d565b90600052602060002090602091828204019190069054906101000a900460ff161515600115151491505092915050565b806139da338261295e565b6139e357600080fd5b600354600160a01b900460ff1615613a0d5760405162461bcd60e51b8152600401610bd990615000565b60008281526009602052604081206008018054349290613a2e908490615351565b90915550506000828152600960209081526040918290206008015482518581529182015233917f5dc1fe5ab986a852c4eda8e8bb94247d13307065c593fb83f1a09be27367938291016114e9565b6003546001600160a01b03163314613aa65760405162461bcd60e51b8152600401610bd9906150d4565b6000828152600b602090815260408083206001600160a01b0385168452825280832054858452600f90925290912080546001919083908110613aea57613aea61543d565b90600052602060002090602091828204019190066101000a81548160ff0219169083151502179055507f2d19f1f4aa7d21a07d18586e49b3e0529d148488052497ea97f06d7266c3cbbe83600e60008681526020019081526020016000208381548110613b5957613b5961543d565b90600052602060002001604051613b719291906152ee565b60405180910390a1505050565b6003546001600160a01b03163314613ba85760405162461bcd60e51b8152600401610bd9906150d4565b600354600160a01b900460ff1615613bd25760405162461bcd60e51b8152600401610bd990615000565b600854604080516101608101825282815260208082018581526000838501819052606084018190528451808401865281815260808501528451808401865281815260a08501528451808401865281815260c085015260e0840181905261010084018190526101208401819052610140840181905285815260098352939093208251815592518051929384939092613c70926001850192910190614750565b50604082015160028201805460ff19166001836003811115613c9457613c94615427565b02179055506060820151600382015560808201518051613cbe916004840191602090910190614750565b5060a08201518051613cda916005840191602090910190614750565b5060c08201518051613cf6916006840191602090910190614750565b5060e0820151600782810180546001600160a01b0319166001600160a01b03909316929092179091556101008301516008830155610120830151600983015561014090920151600a909101556006805460018181019092557ff652222313e28459528d920b65115c16c04f3efc82aaedc97be59f3f377c0d3f01849055815490810182556000919091528351613db3917fa66cc928b5edb82af9bd49922954155ab7b0942694bea4ce44661d9a8736c68801906020860190614750565b5060008281526010602090815260408083208380528252808320839055848352601890915280822091909155517fa27df82d27a5b2a66bcd0c6210f8024283ed1197a6d8e30372f8df2e487c376e90613e0f9084908690615289565b60405180910390a160088054906000613e27836153f6565b9190505550505050565b6000838152600b602090815260408083206001600160a01b03861684529091529020548390839015613e6257600080fd5b6003546001600160a01b03163314613e8c5760405162461bcd60e51b8152600401610bd9906150d4565b613e97858585614575565b5050505050565b600354600090600160a01b900460ff1615613ecb5760405162461bcd60e51b8152600401610bd990615000565b61152c338361295e565b606080606083613ee5338261394d565b613f015760405162461bcd60e51b8152600401610bd99061508b565b6000858152601960209081526040808320601a8352818420601c84529382902081548351818602810186019094528084529194939092918591830182828015613f7357602002820191906000526020600020905b81546001600160a01b03168152600190910190602001808311613f55575b5050505050925081805480602002602001604051908101604052809291908181526020016000905b82821015614047578382906000526020600020018054613fba906153c1565b80601f0160208091040260200160405190810160405280929190818152602001828054613fe6906153c1565b80156140335780601f1061400857610100808354040283529160200191614033565b820191906000526020600020905b81548152906001019060200180831161401657829003601f168201915b505050505081526020019060010190613f9b565b505050509150808054806020026020016040519081016040528092919081815260200182805480156140b857602002820191906000526020600020906000905b825461010083900a900460ff1615158152602060019283018181049485019490930390920291018084116140875790505b50505050509050935093509350509193909250565b6000818152601260209081526040808320601383528184206014845293829020815483518186028101860190945280845260609586958695919392859183018282801561414357602002820191906000526020600020905b81546001600160a01b03168152600190910190602001808311614125575b5050505050925081805480602002602001604051908101604052809291908181526020016000905b82821015611b4757838290600052602060002001805461418a906153c1565b80601f01602080910402602001604051908101604052809291908181526020018280546141b6906153c1565b80156142035780601f106141d857610100808354040283529160200191614203565b820191906000526020600020905b8154815290600101906020018083116141e657829003601f168201915b50505050508152602001906001019061416b565b600061422333836128c0565b61422f57506000919050565b50600090815260156020908152604080832033845290915290205460ff1615156001141590565b6000828152600b602090815260408083206001600160a01b0385168452825280832054858452600f90925282208054919291839081106142985761429861543d565b90600052602060002090602091828204019190066101000a81548160ff0219169083151502179055507f021d633158208ba55afbe8aae9878e510cccaf8f1fe2d8c42455d95f58f3b1f083600e60008681526020019081526020016000208381548110613b5957613b5961543d565b600354600160a01b900460ff16156143315760405162461bcd60e51b8152600401610bd990615000565b8061433c338261394d565b6143585760405162461bcd60e51b8152600401610bd99061508b565b60008281526011602052604090205461440d57600082815260116020908152604080832060019081905560128352818420805480830182559085528385200180546001600160a01b031916905585845260138352818420805491820181558452828420825193840192839052928490526143d493920191614750565b5060008281526014602090815260408220805460018101825590835291819020908204018054601f9092166101000a60ff021990911690555b600082815260116020908152604080832054601083528184206001600160a01b03891680865290845282852091909155858452601283528184208054600181810183559186528486200180546001600160a01b03191690921790915585845260138352908320805491820181558352918190208551614493939190910191860190614750565b50600082815260146020908152604080832080546001818101835591855283852084820401805460ff601f9093166101000a928302191690911790558584526011909252909120546144e491615351565b60009283526011602052604090922091909155505050565b60008181526016602090815260408083206001600160a01b038616808552908352818420805460ff19166001179055848452600983529281902060070180546001600160a01b03191684179055518381527f5fd6d0b7e707fe344bd2a1887f9d0eeea8bfcac6f339ba4200e74f0647f101c091016114e9565b6000838152600c602052604090205461463a576000838152600c60208181526040808420600190819055600d8352818520805480830182559086528386200180546001600160a01b0319169055878552600f835281852080548083018255908652838620848204018054601f9092166101000a60ff02199091169055878552600e83528185208054918201815585529382902081518083019092528382526b7a65726f206164647265737360a01b91909201908152614638939190910191614750565b505b6000838152600c6020908152604080832054600b83528184206001600160a01b03871680865290845282852091909155868452600d83528184208054600181810183559186528486200180546001600160a01b031916909217909155868452600f83528184208054808301825590855283852084820401805460ff601f9093166101000a92830219169091179055868452600e83529083208054918201815583529181902083516146f2939190910191840190614750565b506000838152600c602052604090205461470d906001615351565b6000848152600c602052604090819020829055517f88356b104f5ba3e9281d371b21296e4e0390dda6f4bcc4bfc219f6d67cc8ae5091613b71918691869161526a565b82805461475c906153c1565b90600052602060002090601f01602090048101928261477e57600085556147c4565b82601f1061479757805160ff19168380011785556147c4565b828001600101855582156147c4579182015b828111156147c45782518255916020019190600101906147a9565b506147d0929150614927565b5090565b8280546147e0906153c1565b90600052602060002090601f01602090048101928261480257600085556147c4565b82601f1061481b5782800160ff198235161785556147c4565b828001600101855582156147c4579182015b828111156147c457823582559160200191906001019061482d565b50805460008255601f01602090049060005260206000209081019061486d9190614927565b50565b508054600082559060005260206000209081019061486d919061493c565b508054600082559060005260206000209081019061486d9190614927565b8280546148b8906153c1565b90600052602060002090601f0160209004810192826148da57600085556147c4565b82601f106148eb57805485556147c4565b828001600101855582156147c457600052602060002091601f016020900482015b828111156147c457825482559160010191906001019061490c565b5b808211156147d05760008155600101614928565b808211156147d05760006149508282614959565b5060010161493c565b508054614965906153c1565b6000825580601f10614975575050565b601f01602090049060005260206000209081019061486d9190614927565b80356001600160a01b0381168114610c0057600080fd5b600082601f8301126149bb57600080fd5b813567ffffffffffffffff808211156149d6576149d6615453565b604051601f8301601f19908116603f011681019082821181831017156149fe576149fe615453565b81604052838152866020858801011115614a1757600080fd5b836020870160208301376000602085830101528094505050505092915050565b600060208284031215614a4957600080fd5b614a5282614993565b9392505050565b60008060408385031215614a6c57600080fd5b614a7583614993565b946020939093013593505050565b600060208284031215614a9557600080fd5b813567ffffffffffffffff811115614aac57600080fd5b614ab8848285016149aa565b949350505050565b600060208284031215614ad257600080fd5b5035919050565b60008060408385031215614aec57600080fd5b82359150614afc60208401614993565b90509250929050565b600080600060608486031215614b1a57600080fd5b83359250614b2a60208501614993565b9150604084013567ffffffffffffffff811115614b4657600080fd5b614b52868287016149aa565b9150509250925092565b600080600060408486031215614b7157600080fd5b83359250602084013567ffffffffffffffff80821115614b9057600080fd5b818601915086601f830112614ba457600080fd5b813581811115614bb357600080fd5b876020828501011115614bc557600080fd5b6020830194508093505050509250925092565b60008060008060808587031215614bee57600080fd5b84359350602085013567ffffffffffffffff80821115614c0d57600080fd5b614c19888389016149aa565b94506040870135915080821115614c2f57600080fd5b614c3b888389016149aa565b93506060870135915080821115614c5157600080fd5b50614c5e878288016149aa565b91505092959194509250565b600081518084526020808501945080840160005b83811015614ca35781516001600160a01b031687529582019590820190600101614c7e565b509495945050505050565b600081518084526020808501945080840160005b83811015614ca3578151151587529582019590820190600101614cc2565b600082825180855260208086019550808260051b84010181860160005b84811015614d2b57601f19868403018952614d19838351614d5a565b98840198925090830190600101614cfd565b5090979650505050505050565b60048110614d5657634e487b7160e01b600052602160045260246000fd5b9052565b6000815180845260005b81811015614d8057602081850181015186830182015201614d64565b81811115614d92576000602083870101525b50601f01601f19169290920160200192915050565b8054600090600181811c9080831680614dc157607f831692505b6020808410821415614de357634e487b7160e01b600052602260045260246000fd5b83885260208801828015614dfe5760018114614e0f57614e3a565b60ff19871682528282019750614e3a565b60008981526020902060005b87811015614e3457815484820152908601908401614e1b565b83019850505b5050505050505092915050565b602081526000614a526020830184614c6a565b606081526000614e6d6060830186614c6a565b8281036020840152614e7f8186614cae565b90508281036040840152614e938185614ce0565b9695505050505050565b606081526000614eb06060830186614c6a565b8281036020840152614ec28186614ce0565b90508281036040840152614e938185614cae565b602081526000614a526020830184614cae565b602081526000614a526020830184614ce0565b6020808252825182820181905260009190848201906040850190845b81811015614f3457835183529284019291840191600101614f18565b50909695505050505050565b60a08101614f4e8288614d38565b8560208301528460408301528360608301528260808301529695505050505050565b602081526000614a526020830184614d5a565b606081526000614f966060830186614d5a565b8281036020840152614fa88186614d5a565b90508281036040840152614e938185614d5a565b60208082526024908201527f6f6e6c79207468652063656f2063616e2063616c6c20746869732066756e637460408201526334b7b71760e11b606082015260800190565b6020808252601490820152733a34329030b8381034b9903830bab9b2b217171760611b604082015260600190565b6020808252603f908201527f4572726f723a20726563697069656e7420697320616c726561647920616e206560408201527f6c696769626c6520726563697069656e7420696e207468652067726f75702e00606082015260800190565b60208082526029908201527f6f6e6c792067726f75702061646d696e732063616e2063616c6c20746869732060408201526866756e6374696f6e2160b81b606082015260800190565b60208082526024908201527f6f6e6c792074686520636f6f2063616e2063616c6c20746869732066756e637460408201526334b7b71760e11b606082015260800190565b6020808252601f908201527f63616e6e6f74207365742043454f20746f207a65726f20616464726573732100604082015260600190565b602081528151602082015260006020830151610160806040850152615178610180850183614d5a565b9150604085015161518c6060860182614d38565b50606085015160808501526080850151601f19808685030160a08701526151b38483614d5a565b935060a08701519150808685030160c08701526151d08483614d5a565b935060c08701519150808685030160e0870152506151ee8382614d5a565b92505060e085015161010061520d818701836001600160a01b03169052565b86015161012086810191909152860151610140808701919091529095015193019290925250919050565b8381526001600160a01b038316602082015260606040820181905260009061526190830184614d5a565b95945050505050565b9283526001600160a01b03919091166020830152604082015260600190565b828152604060208201526000614ab86040830184614d5a565b87815260e0602082015260006152bb60e0830189614d5a565b90506152ca6040830188614d38565b8560608301528460808301528360a08301528260c083015298975050505050505050565b828152604060208201526000614ab86040830184614da7565b8481526080602082015260006153206080830186614da7565b82810360408401526153328186614da7565b905082810360608401526153468185614da7565b979650505050505050565b6000821982111561536457615364615411565b500190565b60008261538657634e487b7160e01b600052601260045260246000fd5b500490565b60008160001904831182151516156153a5576153a5615411565b500290565b6000828210156153bc576153bc615411565b500390565b600181811c908216806153d557607f821691505b6020821081141561394757634e487b7160e01b600052602260045260246000fd5b600060001982141561540a5761540a615411565b5060010190565b634e487b7160e01b600052601160045260246000fd5b634e487b7160e01b600052602160045260246000fd5b634e487b7160e01b600052603260045260246000fd5b634e487b7160e01b600052604160045260246000fdfea26469706673582212201505f9924ec704ce1b08b987eaf52860a87b61c8501afdb7a1e185532aac7b4464736f6c63430008070033",
  "immutableReferences": {},
  "source": "// SPDX-License-Identifier: MIT\npragma solidity ^0.8.0;\n\nimport './ContributorManager.sol';\n\ncontract AdminsManager is ContributorManager {\n    event GroupCreated(uint256 groupId, string groupName);\n    event EventStarted(uint256 groupId, address indexed startedBy);\n    event RegistrationEnded(uint256 groupId, address indexed endedBy);\n    event EventEnded(uint256 groupId, address indexed endedBy);\n    event AdminAdded(uint256 groupId, address account, uint256 index);\n    event AdminRemoved(uint256 groupId, string name);\n    event AdminReEnabled(uint256 groupId, string name);\n    event GettingMyAdminIndex(uint256 groupId, address account, uint256 index);\n\n    event NewJoinerRequestApproved(\n        uint256 groupId,\n        address addressOfUserGettingApproved,\n        string nameOfUserGettingApproved\n    );\n\n    event CalculatedPot(\n        uint256 registeredRecipientCount,\n        uint256 winningsPerRecipient\n    );\n\n    constructor() {}\n\n    modifier onlyAdmins(uint256 groupId) {\n        require(isAdmin(msg.sender, groupId),\n            \"only group admins can call this function!\");\n        _;\n    }\n\n    modifier wasntAlreadyAnAdmin(uint256 groupId, address account) {\n        require(adminAddressToIndex[groupId][account] == 0);\n        _;\n    }\n\n    function isAdmin(address account, uint256 groupId)\n        public\n        view\n        returns (bool)\n    {\n        uint256 adminIndex = adminAddressToIndex[groupId][account];\n\n        // if user was never an admin, return false\n        if (adminIndex == 0) {\n            return false;\n        }\n\n        return adminEnabled[groupId][adminIndex] == true;\n    }\n\n    function getMyAdminIndex(uint256 groupId) external view returns (uint256) {\n        return adminAddressToIndex[groupId][msg.sender];\n    }\n\n    // TODO - allow COO to give \"admin-granting power\" to other admins\n    function addAdmin(\n        uint256 groupId,\n        address account,\n        string memory name\n    ) external wasntAlreadyAnAdmin(groupId, account) onlyCOO {\n        _addAdmin(groupId, account, name);\n    }\n\n    // debug\n    function getAddressNextAdminIndex(uint256 groupId)\n        external\n        view\n        returns (uint256)\n    {\n        return nextAdminIndexForGroup[groupId];\n    }\n\n    function amIAdmin(uint256 groupId) external view returns (bool) {\n        return isAdmin(msg.sender, groupId);\n    }\n\n    function getAdminsForGroup(uint256 groupId)\n        external\n        view\n        returns (\n            address[] memory,\n            bool[] memory,\n            string[] memory\n        )\n    {\n        return (\n            adminAddresses[groupId],\n            adminEnabled[groupId],\n            adminNames[groupId]\n        );\n    }\n\n    modifier onlyAdminsOrCOO(uint256 groupId) {\n        require(isAdmin(msg.sender, groupId) || msg.sender == cooAddress);\n        _;\n    }\n\n    function reEnableAdmin(uint256 groupId, address account) external onlyCOO {\n        uint256 index = adminAddressToIndex[groupId][account];\n        adminEnabled[groupId][index] = true;\n        emit AdminReEnabled(groupId, adminNames[groupId][index]);\n    }\n\n    function removeAdmin(uint256 groupId, address account) external onlyCOO {\n        _removeAdmin(groupId, account);\n    }\n\n    function renounceAdmin(uint256 groupId) public onlyAdmins(groupId) {\n        _removeAdmin(groupId, msg.sender);\n    }\n\n    function _addAdmin(\n        uint256 groupId,\n        address account,\n        string memory name\n    ) internal {\n        // if first user, use index 1 and push some garbage things at the 0 index\n        if (nextAdminIndexForGroup[groupId] == 0) {\n            nextAdminIndexForGroup[groupId] = 1;\n\n            adminAddresses[groupId].push(address(0));\n            adminEnabled[groupId].push(false);\n            adminNames[groupId].push('zero address');\n        }\n\n        adminAddressToIndex[groupId][account] = nextAdminIndexForGroup[groupId];\n\n        adminAddresses[groupId].push(account);\n        adminEnabled[groupId].push(true);\n        adminNames[groupId].push(name);\n\n        nextAdminIndexForGroup[groupId] = nextAdminIndexForGroup[groupId] + 1;\n\n        emit AdminAdded(groupId, account, nextAdminIndexForGroup[groupId]);\n    }\n\n    function _removeAdmin(uint256 groupId, address account) internal {\n        uint256 index = adminAddressToIndex[groupId][account];\n\n        adminEnabled[groupId][index] = false;\n\n        emit AdminRemoved(groupId, adminNames[groupId][index]);\n    }\n\n    function readEventInfo(uint256 groupId)\n        external\n        view\n        onlyAdmins(groupId)\n        returns (EthDropEvent memory)\n    {\n        return currentEvents[groupId];\n    }\n\n    function createNewGroup(string memory groupName)\n        external\n        onlyCOO\n        whenNotPaused\n    {\n        // TODO - is this the best way to set the groupId? \n        uint256 newGroupId = nextGroupId;\n\n        EthDropEvent memory newGroup = EthDropEvent(\n            newGroupId,\n            groupName,\n            EventState.CREATED,\n            // block.timestamp,\n            // block.timestamp,\n            // block.timestamp,\n            0,\n            '',\n            '',\n            '',\n            address(0),\n            0,\n            0,\n            0\n        );\n\n        currentEvents[newGroupId] = newGroup;\n\n        listOfGroupIds.push(newGroupId);\n        listOfGroupNames.push(groupName);\n\n        eligibleRecipientsAddresstoIndex[newGroupId][address(0)] = 0;\n        eligibleRecipientsAddresstoIndex[newGroupId][address(0)] = 0;\n\n        requestsToJoinGroupNextIndex[newGroupId] = 0;\n\n        emit GroupCreated(newGroupId, groupName);\n\n        nextGroupId++;\n    }\n\n    function startEvent(uint256 groupId)\n        external\n        onlyAdmins(groupId)\n        whenNotPaused\n    {\n        currentEvents[groupId].currentState = EventState.REGISTRATION;\n\n        emit EventStarted(groupId, msg.sender);\n    }\n\n    function closeEventRegistration(uint256 groupId)\n        external\n        onlyAdmins(groupId)\n        whenNotPaused\n    {\n        require(\n            currentEvents[groupId].registeredRecipientsCount > 0,\n            \"Can't end registration with zero registrants!\"\n        );\n\n        uint256 devCutWei = (currentEvents[groupId].totalAmountContributed *\n            devCutPercentage) / 100;\n\n        // Transfer dev cut to cfo\n        payable(cfoAddress).transfer(devCutWei);\n\n        // pot is the amount for recipients to share\n        uint256 pot = currentEvents[groupId].totalAmountContributed - devCutWei;\n\n        // each recipient's winnings is the \"weiWinnings\"\n        currentEvents[groupId].weiWinnings =\n            pot /\n            currentEvents[groupId].registeredRecipientsCount;\n\n        currentEvents[groupId].currentState = EventState.CLAIM_WINNINGS;\n\n        emit RegistrationEnded(groupId, msg.sender);\n    }\n\n    function endEvent(uint256 groupId)\n        external\n        onlyAdminsOrCOO(groupId)\n        whenNotPaused\n    {\n        currentEvents[groupId].currentState = EventState.ENDED;\n\n        // First delete mappings, then arrays\n        for (\n            uint256 i = 0;\n            i < currentEvents[groupId].registeredRecipientsCount;\n            i++\n        ) {\n            address currentAddress = registeredRecipientAddressesArray[groupId][\n                i\n            ];\n\n            delete registeredRecipientsAddressToIndex[groupId][currentAddress];\n        }\n\n        delete registeredRecipientsWinningsCollected[groupId];\n        delete registeredRecipientNamesArray[groupId];\n        delete registeredRecipientAddressesArray[groupId];\n\n        registeredRecipientsNextIndex[groupId] = 0;\n\n        pastEvents[groupId].push(currentEvents[groupId]);\n\n        currentEvents[groupId].registeredRecipientsCount = 0;\n        currentEvents[groupId].totalAmountContributed = 0;\n        currentEvents[groupId].weiWinnings = 0;\n        currentEvents[groupId].numberOfUsersWhoClaimedWinnings = 0;\n\n        emit EventEnded(groupId, msg.sender);\n    }\n\n    function addEligibleRecipient(\n        address addressOfUserGettingApproved,\n        string memory nameOfUserGettingApproved,\n        uint256 groupId\n    ) internal whenNotPaused onlyAdmins(groupId) {\n        \n        // if first user, use index 1 and push some garbage things at the 0 index\n        if (nextEligibleRecipientIndexForGroup[groupId] == 0) {\n            nextEligibleRecipientIndexForGroup[groupId] = 1;\n\n            eligibleRecipientAddressesArray[groupId].push(address(0));\n            eligibleRecipientNamesArray[groupId].push('');\n            eligibleRecipientsEligibilityIsEnabled[groupId].push(false);\n        }\n\n        eligibleRecipientsAddresstoIndex[groupId][\n            addressOfUserGettingApproved\n        ] = nextEligibleRecipientIndexForGroup[groupId];\n\n        eligibleRecipientAddressesArray[groupId].push(\n            addressOfUserGettingApproved\n        );\n        eligibleRecipientNamesArray[groupId].push(nameOfUserGettingApproved);\n        eligibleRecipientsEligibilityIsEnabled[groupId].push(true);\n\n        nextEligibleRecipientIndexForGroup[groupId] =\n            nextEligibleRecipientIndexForGroup[groupId] +\n            1;\n    }\n\n    function removeEligibleRecipient(address account, uint256 groupId)\n        external\n        onlyAdmins(groupId)\n        whenNotPaused\n    {\n        uint256 index = eligibleRecipientsAddresstoIndex[groupId][account];\n        eligibleRecipientsEligibilityIsEnabled[groupId][index] = false;\n        emit EligibleRecipientRemoved(account, groupId);\n    }\n\n    function changeContributor(address account, uint256 groupId)\n        external\n        onlyAdminsOrCOO(groupId)\n        whenNotPaused\n    {\n        _changeContributor(account, groupId);\n    }\n\n    function approveRequestToJoinGroup(\n        uint256 groupId,\n        address accountToApprove\n    )\n        external\n        onlyAdmins(groupId)\n        whenNotPaused\n        notAlreadyInGroup(groupId, accountToApprove)\n        requestsToJoinGroupIsPending(groupId, accountToApprove)\n    {\n        uint256 requestsIndexOfUserGettingApproved = requestsToJoinGroupAddressToIndex[\n                groupId\n            ][accountToApprove];\n\n        address addressOfUserGettingApproved = requestsToJoinGroupAddresses[\n            groupId\n        ][requestsIndexOfUserGettingApproved];\n\n        string memory nameOfUserGettingApproved = requestsToJoinGroupNames[\n            groupId\n        ][requestsIndexOfUserGettingApproved];\n\n        // updates requests approvals array\n        requestsToJoinGroupApprovals[groupId][\n            requestsIndexOfUserGettingApproved\n        ] = true;\n\n        addEligibleRecipient(\n            addressOfUserGettingApproved,\n            nameOfUserGettingApproved,\n            groupId\n        );\n\n        emit NewJoinerRequestApproved(\n            groupId,\n            addressOfUserGettingApproved,\n            nameOfUserGettingApproved\n        );\n    }\n\n    function getNewJoinerRequests(uint256 groupId)\n        external\n        view\n        onlyAdmins(groupId)\n        returns (\n            address[] memory,\n            string[] memory,\n            bool[] memory\n        )\n    {\n        return (\n            requestsToJoinGroupAddresses[groupId],\n            requestsToJoinGroupNames[groupId],\n            requestsToJoinGroupApprovals[groupId]\n        );\n    }\n\n    function getEligibleRecipients(uint256 groupId)\n        external\n        view\n        returns (\n            address[] memory,\n            string[] memory,\n            bool[] memory\n        )\n    {\n        return (\n            eligibleRecipientAddressesArray[groupId],\n            eligibleRecipientNamesArray[groupId],\n            eligibleRecipientsEligibilityIsEnabled[groupId]\n        );\n    }\n}\n",
  "sourcePath": "/Users/jim/trash/EthDrop/contracts/roles/AdminsManager.sol",
  "compiler": {
    "name": "solc",
    "version": "0.8.7+commit.e28d00a7.Emscripten.clang"
  },
  "schemaVersion": "3.4.3",
  "updatedAt": "2021-09-15T04:13:47.648Z",
  "networkType": "ethereum",
  "devdoc": {
    "kind": "dev",
    "methods": {
      "pause()": {
        "details": "Called by any \"C-level\" role to pause the contract. Used only when  a bug or exploit is detected and we need to limit damage."
      },
      "setCEO(address)": {
        "details": "Assigns a new address to act as the CEO. Only available to the current CEO.",
        "params": {
          "_newCEO": "The address of the new CEO"
        }
      },
      "setCFO(address)": {
        "details": "Assigns a new address to act as the CFO. Only available to the current CEO.",
        "params": {
          "_newCFO": "The address of the new CFO"
        }
      },
      "setCOO(address)": {
        "details": "Assigns a new address to act as the COO. Only available to the current CEO.",
        "params": {
          "_newCOO": "The address of the new COO"
        }
      },
      "unpause()": {
        "details": "Unpauses the smart contract. Can only be called by the CEO, since  one reason we may pause the contract is when CFO or COO accounts are  compromised."
      }
    },
    "version": 1
  },
  "userdoc": {
    "kind": "user",
    "methods": {
      "unpause()": {
        "notice": "This is public rather than external so it can be called by  derived contracts."
      }
    },
    "version": 1
  }
}