{
  "contractName": "AdminsManager",
  "abi": [
    {
      "inputs": [],
      "stateMutability": "nonpayable",
      "type": "constructor"
    },
    {
      "anonymous": false,
      "inputs": [
        {
          "indexed": false,
          "internalType": "uint256",
          "name": "groupId",
          "type": "uint256"
        },
        {
          "indexed": false,
          "internalType": "address",
          "name": "account",
          "type": "address"
        },
        {
          "indexed": false,
          "internalType": "uint256",
          "name": "index",
          "type": "uint256"
        }
      ],
      "name": "AdminAdded",
      "type": "event"
    },
    {
      "anonymous": false,
      "inputs": [
        {
          "indexed": false,
          "internalType": "uint256",
          "name": "groupId",
          "type": "uint256"
        },
        {
          "indexed": false,
          "internalType": "string",
          "name": "name",
          "type": "string"
        }
      ],
      "name": "AdminReEnabled",
      "type": "event"
    },
    {
      "anonymous": false,
      "inputs": [
        {
          "indexed": false,
          "internalType": "uint256",
          "name": "groupId",
          "type": "uint256"
        },
        {
          "indexed": false,
          "internalType": "string",
          "name": "name",
          "type": "string"
        }
      ],
      "name": "AdminRemoved",
      "type": "event"
    },
    {
      "anonymous": false,
      "inputs": [
        {
          "indexed": false,
          "internalType": "bool",
          "name": "isPaused",
          "type": "bool"
        }
      ],
      "name": "AppPaused",
      "type": "event"
    },
    {
      "anonymous": false,
      "inputs": [
        {
          "indexed": false,
          "internalType": "uint256",
          "name": "registeredRecipientCount",
          "type": "uint256"
        },
        {
          "indexed": false,
          "internalType": "uint256",
          "name": "winningsPerRecipient",
          "type": "uint256"
        }
      ],
      "name": "CalculatedPot",
      "type": "event"
    },
    {
      "anonymous": false,
      "inputs": [],
      "name": "CfoUpdated",
      "type": "event"
    },
    {
      "anonymous": false,
      "inputs": [
        {
          "indexed": false,
          "internalType": "address",
          "name": "newContract",
          "type": "address"
        }
      ],
      "name": "ContractUpgrade",
      "type": "event"
    },
    {
      "anonymous": false,
      "inputs": [
        {
          "indexed": true,
          "internalType": "address",
          "name": "account",
          "type": "address"
        },
        {
          "indexed": false,
          "internalType": "uint256",
          "name": "groupId",
          "type": "uint256"
        },
        {
          "indexed": false,
          "internalType": "uint256",
          "name": "amount",
          "type": "uint256"
        }
      ],
      "name": "ContributionMade",
      "type": "event"
    },
    {
      "anonymous": false,
      "inputs": [
        {
          "indexed": true,
          "internalType": "address",
          "name": "account",
          "type": "address"
        },
        {
          "indexed": false,
          "internalType": "uint256",
          "name": "groupId",
          "type": "uint256"
        }
      ],
      "name": "ContributorAdded",
      "type": "event"
    },
    {
      "anonymous": false,
      "inputs": [
        {
          "indexed": false,
          "internalType": "uint256",
          "name": "groupId",
          "type": "uint256"
        },
        {
          "indexed": false,
          "internalType": "address",
          "name": "newContributor",
          "type": "address"
        }
      ],
      "name": "ContributorAddressUpdated",
      "type": "event"
    },
    {
      "anonymous": false,
      "inputs": [
        {
          "indexed": false,
          "internalType": "uint256",
          "name": "groupId",
          "type": "uint256"
        },
        {
          "indexed": false,
          "internalType": "string",
          "name": "sponsorName",
          "type": "string"
        },
        {
          "indexed": false,
          "internalType": "string",
          "name": "imgUrl",
          "type": "string"
        },
        {
          "indexed": false,
          "internalType": "string",
          "name": "imgLinkToUrl",
          "type": "string"
        }
      ],
      "name": "ContributorInfoUpdated",
      "type": "event"
    },
    {
      "anonymous": false,
      "inputs": [
        {
          "indexed": true,
          "internalType": "address",
          "name": "account",
          "type": "address"
        },
        {
          "indexed": false,
          "internalType": "uint256",
          "name": "groupId",
          "type": "uint256"
        }
      ],
      "name": "ContributorRemoved",
      "type": "event"
    },
    {
      "anonymous": false,
      "inputs": [],
      "name": "CooUpdated",
      "type": "event"
    },
    {
      "anonymous": false,
      "inputs": [
        {
          "indexed": true,
          "internalType": "address",
          "name": "account",
          "type": "address"
        },
        {
          "indexed": false,
          "internalType": "uint256",
          "name": "groupId",
          "type": "uint256"
        }
      ],
      "name": "EligibleRecipientAdded",
      "type": "event"
    },
    {
      "anonymous": false,
      "inputs": [
        {
          "indexed": true,
          "internalType": "address",
          "name": "account",
          "type": "address"
        },
        {
          "indexed": false,
          "internalType": "uint256",
          "name": "groupId",
          "type": "uint256"
        }
      ],
      "name": "EligibleRecipientRemoved",
      "type": "event"
    },
    {
      "anonymous": false,
      "inputs": [],
      "name": "EventClose",
      "type": "event"
    },
    {
      "anonymous": false,
      "inputs": [
        {
          "indexed": true,
          "internalType": "address",
          "name": "endedBy",
          "type": "address"
        },
        {
          "indexed": false,
          "internalType": "uint256",
          "name": "groupId",
          "type": "uint256"
        }
      ],
      "name": "EventEnded",
      "type": "event"
    },
    {
      "anonymous": false,
      "inputs": [
        {
          "indexed": true,
          "internalType": "address",
          "name": "startedBy",
          "type": "address"
        },
        {
          "indexed": false,
          "internalType": "uint256",
          "name": "groupId",
          "type": "uint256"
        }
      ],
      "name": "EventStarted",
      "type": "event"
    },
    {
      "anonymous": false,
      "inputs": [
        {
          "indexed": false,
          "internalType": "string",
          "name": "groupName",
          "type": "string"
        },
        {
          "indexed": false,
          "internalType": "uint256",
          "name": "groupId",
          "type": "uint256"
        }
      ],
      "name": "GroupCreated",
      "type": "event"
    },
    {
      "anonymous": false,
      "inputs": [
        {
          "indexed": true,
          "internalType": "address",
          "name": "account",
          "type": "address"
        },
        {
          "indexed": false,
          "internalType": "uint256",
          "name": "groupId",
          "type": "uint256"
        }
      ],
      "name": "RecipientRegistered",
      "type": "event"
    },
    {
      "anonymous": false,
      "inputs": [
        {
          "indexed": true,
          "internalType": "address",
          "name": "endedBy",
          "type": "address"
        },
        {
          "indexed": false,
          "internalType": "uint256",
          "name": "groupId",
          "type": "uint256"
        }
      ],
      "name": "RegistrationEnded",
      "type": "event"
    },
    {
      "anonymous": false,
      "inputs": [],
      "name": "RegistrationOpen",
      "type": "event"
    },
    {
      "anonymous": false,
      "inputs": [
        {
          "indexed": false,
          "internalType": "address",
          "name": "from",
          "type": "address"
        },
        {
          "indexed": false,
          "internalType": "address",
          "name": "to",
          "type": "address"
        }
      ],
      "name": "Transfer",
      "type": "event"
    },
    {
      "anonymous": false,
      "inputs": [
        {
          "indexed": true,
          "internalType": "address",
          "name": "account",
          "type": "address"
        },
        {
          "indexed": false,
          "internalType": "uint256",
          "name": "groupId",
          "type": "uint256"
        }
      ],
      "name": "WinningsClaimed",
      "type": "event"
    },
    {
      "anonymous": false,
      "inputs": [],
      "name": "WinningsClaimingOpen",
      "type": "event"
    },
    {
      "inputs": [
        {
          "internalType": "uint256",
          "name": "groupId",
          "type": "uint256"
        }
      ],
      "name": "amIContributor",
      "outputs": [
        {
          "internalType": "bool",
          "name": "",
          "type": "bool"
        }
      ],
      "stateMutability": "view",
      "type": "function",
      "constant": true
    },
    {
      "inputs": [
        {
          "internalType": "uint256",
          "name": "groupId",
          "type": "uint256"
        }
      ],
      "name": "amIEligibleRecipient",
      "outputs": [
        {
          "internalType": "bool",
          "name": "",
          "type": "bool"
        }
      ],
      "stateMutability": "view",
      "type": "function",
      "constant": true
    },
    {
      "inputs": [
        {
          "internalType": "uint256",
          "name": "groupId",
          "type": "uint256"
        }
      ],
      "name": "amIRegisteredRecipient",
      "outputs": [
        {
          "internalType": "bool",
          "name": "",
          "type": "bool"
        }
      ],
      "stateMutability": "view",
      "type": "function",
      "constant": true
    },
    {
      "inputs": [],
      "name": "ceoAddress",
      "outputs": [
        {
          "internalType": "address",
          "name": "",
          "type": "address"
        }
      ],
      "stateMutability": "view",
      "type": "function",
      "constant": true
    },
    {
      "inputs": [],
      "name": "cfoAddress",
      "outputs": [
        {
          "internalType": "address",
          "name": "",
          "type": "address"
        }
      ],
      "stateMutability": "view",
      "type": "function",
      "constant": true
    },
    {
      "inputs": [
        {
          "internalType": "uint256",
          "name": "groupId",
          "type": "uint256"
        }
      ],
      "name": "claimWinnings",
      "outputs": [],
      "stateMutability": "nonpayable",
      "type": "function"
    },
    {
      "inputs": [
        {
          "internalType": "uint256",
          "name": "groupId",
          "type": "uint256"
        }
      ],
      "name": "contributeToPot",
      "outputs": [],
      "stateMutability": "payable",
      "type": "function",
      "payable": true
    },
    {
      "inputs": [],
      "name": "cooAddress",
      "outputs": [
        {
          "internalType": "address",
          "name": "",
          "type": "address"
        }
      ],
      "stateMutability": "view",
      "type": "function",
      "constant": true
    },
    {
      "inputs": [
        {
          "internalType": "uint256",
          "name": "groupId",
          "type": "uint256"
        }
      ],
      "name": "doIHaveClaimableWinnings",
      "outputs": [
        {
          "internalType": "bool",
          "name": "",
          "type": "bool"
        }
      ],
      "stateMutability": "view",
      "type": "function",
      "constant": true
    },
    {
      "inputs": [],
      "name": "getCFO",
      "outputs": [
        {
          "internalType": "address",
          "name": "",
          "type": "address"
        }
      ],
      "stateMutability": "view",
      "type": "function",
      "constant": true
    },
    {
      "inputs": [],
      "name": "getCOO",
      "outputs": [
        {
          "internalType": "address",
          "name": "",
          "type": "address"
        }
      ],
      "stateMutability": "view",
      "type": "function",
      "constant": true
    },
    {
      "inputs": [
        {
          "internalType": "uint256",
          "name": "groupId",
          "type": "uint256"
        }
      ],
      "name": "getContributorInfo",
      "outputs": [
        {
          "internalType": "string",
          "name": "newContributorName",
          "type": "string"
        },
        {
          "internalType": "string",
          "name": "newContributorImgUrl",
          "type": "string"
        },
        {
          "internalType": "string",
          "name": "newContributorLinkToUrl",
          "type": "string"
        }
      ],
      "stateMutability": "view",
      "type": "function",
      "constant": true
    },
    {
      "inputs": [
        {
          "internalType": "uint256",
          "name": "groupId",
          "type": "uint256"
        }
      ],
      "name": "getCurrentSponsorAddress",
      "outputs": [
        {
          "internalType": "address",
          "name": "",
          "type": "address"
        }
      ],
      "stateMutability": "view",
      "type": "function",
      "constant": true
    },
    {
      "inputs": [
        {
          "internalType": "uint256",
          "name": "groupId",
          "type": "uint256"
        }
      ],
      "name": "getEligibleRecipientAddresses",
      "outputs": [
        {
          "internalType": "address[]",
          "name": "",
          "type": "address[]"
        }
      ],
      "stateMutability": "view",
      "type": "function",
      "constant": true
    },
    {
      "inputs": [
        {
          "internalType": "uint256",
          "name": "groupId",
          "type": "uint256"
        }
      ],
      "name": "getEligibleRecipientIsEligibilityEnabled",
      "outputs": [
        {
          "internalType": "bool[]",
          "name": "",
          "type": "bool[]"
        }
      ],
      "stateMutability": "view",
      "type": "function",
      "constant": true
    },
    {
      "inputs": [
        {
          "internalType": "uint256",
          "name": "groupId",
          "type": "uint256"
        }
      ],
      "name": "getEligibleRecipientNames",
      "outputs": [
        {
          "internalType": "string[]",
          "name": "",
          "type": "string[]"
        }
      ],
      "stateMutability": "view",
      "type": "function",
      "constant": true
    },
    {
      "inputs": [
        {
          "internalType": "uint256",
          "name": "groupId",
          "type": "uint256"
        }
      ],
      "name": "getGroupEventData",
      "outputs": [
        {
          "internalType": "enum EthDropBase.EventState",
          "name": "",
          "type": "uint8"
        },
        {
          "internalType": "uint256",
          "name": "",
          "type": "uint256"
        },
        {
          "internalType": "uint256",
          "name": "",
          "type": "uint256"
        },
        {
          "internalType": "uint256",
          "name": "",
          "type": "uint256"
        },
        {
          "internalType": "uint256",
          "name": "",
          "type": "uint256"
        }
      ],
      "stateMutability": "view",
      "type": "function",
      "constant": true
    },
    {
      "inputs": [],
      "name": "getGroupIds",
      "outputs": [
        {
          "internalType": "uint256[]",
          "name": "",
          "type": "uint256[]"
        }
      ],
      "stateMutability": "view",
      "type": "function",
      "constant": true
    },
    {
      "inputs": [],
      "name": "getGroupNames",
      "outputs": [
        {
          "internalType": "string[]",
          "name": "",
          "type": "string[]"
        }
      ],
      "stateMutability": "view",
      "type": "function",
      "constant": true
    },
    {
      "inputs": [
        {
          "internalType": "uint256",
          "name": "groupId",
          "type": "uint256"
        }
      ],
      "name": "getRegisteredRecipientNames",
      "outputs": [
        {
          "internalType": "string[]",
          "name": "",
          "type": "string[]"
        }
      ],
      "stateMutability": "view",
      "type": "function",
      "constant": true
    },
    {
      "inputs": [
        {
          "internalType": "uint256",
          "name": "groupId",
          "type": "uint256"
        }
      ],
      "name": "getRegisteredRecipients",
      "outputs": [
        {
          "internalType": "address[]",
          "name": "",
          "type": "address[]"
        }
      ],
      "stateMutability": "view",
      "type": "function",
      "constant": true
    },
    {
      "inputs": [],
      "name": "getString",
      "outputs": [
        {
          "internalType": "string",
          "name": "",
          "type": "string"
        }
      ],
      "stateMutability": "view",
      "type": "function",
      "constant": true
    },
    {
      "inputs": [],
      "name": "isCEO",
      "outputs": [
        {
          "internalType": "bool",
          "name": "",
          "type": "bool"
        }
      ],
      "stateMutability": "view",
      "type": "function",
      "constant": true
    },
    {
      "inputs": [],
      "name": "isCFO",
      "outputs": [
        {
          "internalType": "bool",
          "name": "",
          "type": "bool"
        }
      ],
      "stateMutability": "view",
      "type": "function",
      "constant": true
    },
    {
      "inputs": [],
      "name": "isCOO",
      "outputs": [
        {
          "internalType": "bool",
          "name": "",
          "type": "bool"
        }
      ],
      "stateMutability": "view",
      "type": "function",
      "constant": true
    },
    {
      "inputs": [
        {
          "internalType": "address",
          "name": "account",
          "type": "address"
        },
        {
          "internalType": "uint256",
          "name": "groupId",
          "type": "uint256"
        }
      ],
      "name": "isContributor",
      "outputs": [
        {
          "internalType": "bool",
          "name": "",
          "type": "bool"
        }
      ],
      "stateMutability": "view",
      "type": "function",
      "constant": true
    },
    {
      "inputs": [
        {
          "internalType": "address",
          "name": "account",
          "type": "address"
        },
        {
          "internalType": "uint256",
          "name": "groupId",
          "type": "uint256"
        }
      ],
      "name": "isEligibleRecipient",
      "outputs": [
        {
          "internalType": "bool",
          "name": "",
          "type": "bool"
        }
      ],
      "stateMutability": "view",
      "type": "function",
      "constant": true
    },
    {
      "inputs": [],
      "name": "isPaused",
      "outputs": [
        {
          "internalType": "bool",
          "name": "",
          "type": "bool"
        }
      ],
      "stateMutability": "view",
      "type": "function",
      "constant": true
    },
    {
      "inputs": [
        {
          "internalType": "address",
          "name": "account",
          "type": "address"
        },
        {
          "internalType": "uint256",
          "name": "groupId",
          "type": "uint256"
        }
      ],
      "name": "isRegisteredRecipient",
      "outputs": [
        {
          "internalType": "bool",
          "name": "",
          "type": "bool"
        }
      ],
      "stateMutability": "view",
      "type": "function",
      "constant": true
    },
    {
      "inputs": [],
      "name": "pause",
      "outputs": [],
      "stateMutability": "nonpayable",
      "type": "function"
    },
    {
      "inputs": [],
      "name": "paused",
      "outputs": [
        {
          "internalType": "bool",
          "name": "",
          "type": "bool"
        }
      ],
      "stateMutability": "view",
      "type": "function",
      "constant": true
    },
    {
      "inputs": [
        {
          "internalType": "uint256",
          "name": "groupId",
          "type": "uint256"
        }
      ],
      "name": "registerForEvent",
      "outputs": [],
      "stateMutability": "nonpayable",
      "type": "function"
    },
    {
      "inputs": [
        {
          "internalType": "address",
          "name": "_newCEO",
          "type": "address"
        }
      ],
      "name": "setCEO",
      "outputs": [],
      "stateMutability": "nonpayable",
      "type": "function"
    },
    {
      "inputs": [
        {
          "internalType": "address",
          "name": "_newCFO",
          "type": "address"
        }
      ],
      "name": "setCFO",
      "outputs": [],
      "stateMutability": "nonpayable",
      "type": "function"
    },
    {
      "inputs": [
        {
          "internalType": "address",
          "name": "_newCOO",
          "type": "address"
        }
      ],
      "name": "setCOO",
      "outputs": [],
      "stateMutability": "nonpayable",
      "type": "function"
    },
    {
      "inputs": [
        {
          "internalType": "string",
          "name": "_s",
          "type": "string"
        }
      ],
      "name": "setString",
      "outputs": [],
      "stateMutability": "nonpayable",
      "type": "function"
    },
    {
      "inputs": [],
      "name": "stringgg",
      "outputs": [
        {
          "internalType": "string",
          "name": "",
          "type": "string"
        }
      ],
      "stateMutability": "view",
      "type": "function",
      "constant": true
    },
    {
      "inputs": [],
      "name": "unpause",
      "outputs": [
        {
          "internalType": "bool",
          "name": "",
          "type": "bool"
        }
      ],
      "stateMutability": "nonpayable",
      "type": "function"
    },
    {
      "inputs": [
        {
          "internalType": "uint256",
          "name": "groupId",
          "type": "uint256"
        },
        {
          "internalType": "string",
          "name": "newContributorName",
          "type": "string"
        },
        {
          "internalType": "string",
          "name": "newContributorImgUrl",
          "type": "string"
        },
        {
          "internalType": "string",
          "name": "newContributorLinkToUrl",
          "type": "string"
        }
      ],
      "name": "updateContributorInfo",
      "outputs": [],
      "stateMutability": "nonpayable",
      "type": "function"
    },
    {
      "inputs": [],
      "name": "whoami",
      "outputs": [
        {
          "internalType": "address",
          "name": "",
          "type": "address"
        }
      ],
      "stateMutability": "view",
      "type": "function",
      "constant": true
    },
    {
      "inputs": [
        {
          "internalType": "address",
          "name": "account",
          "type": "address"
        },
        {
          "internalType": "uint256",
          "name": "groupId",
          "type": "uint256"
        }
      ],
      "name": "isAdmin",
      "outputs": [
        {
          "internalType": "bool",
          "name": "",
          "type": "bool"
        }
      ],
      "stateMutability": "view",
      "type": "function",
      "constant": true
    },
    {
      "inputs": [
        {
          "internalType": "uint256",
          "name": "groupId",
          "type": "uint256"
        }
      ],
      "name": "getMyAdminIndex",
      "outputs": [
        {
          "internalType": "uint256",
          "name": "",
          "type": "uint256"
        }
      ],
      "stateMutability": "view",
      "type": "function",
      "constant": true
    },
    {
      "inputs": [
        {
          "internalType": "uint256",
          "name": "groupId",
          "type": "uint256"
        },
        {
          "internalType": "address",
          "name": "account",
          "type": "address"
        },
        {
          "internalType": "string",
          "name": "name",
          "type": "string"
        }
      ],
      "name": "addAdmin",
      "outputs": [],
      "stateMutability": "nonpayable",
      "type": "function"
    },
    {
      "inputs": [
        {
          "internalType": "uint256",
          "name": "groupId",
          "type": "uint256"
        }
      ],
      "name": "getAddressNextAdminIndex",
      "outputs": [
        {
          "internalType": "uint256",
          "name": "",
          "type": "uint256"
        }
      ],
      "stateMutability": "view",
      "type": "function",
      "constant": true
    },
    {
      "inputs": [
        {
          "internalType": "uint256",
          "name": "groupId",
          "type": "uint256"
        }
      ],
      "name": "amIAdmin",
      "outputs": [
        {
          "internalType": "bool",
          "name": "",
          "type": "bool"
        }
      ],
      "stateMutability": "view",
      "type": "function",
      "constant": true
    },
    {
      "inputs": [
        {
          "internalType": "uint256",
          "name": "groupId",
          "type": "uint256"
        }
      ],
      "name": "getAdminsForGroup",
      "outputs": [
        {
          "internalType": "address[]",
          "name": "",
          "type": "address[]"
        },
        {
          "internalType": "bool[]",
          "name": "",
          "type": "bool[]"
        },
        {
          "internalType": "string[]",
          "name": "",
          "type": "string[]"
        }
      ],
      "stateMutability": "view",
      "type": "function",
      "constant": true
    },
    {
      "inputs": [
        {
          "internalType": "uint256",
          "name": "groupId",
          "type": "uint256"
        },
        {
          "internalType": "address",
          "name": "account",
          "type": "address"
        }
      ],
      "name": "reEnableAdmin",
      "outputs": [],
      "stateMutability": "nonpayable",
      "type": "function"
    },
    {
      "inputs": [
        {
          "internalType": "uint256",
          "name": "groupId",
          "type": "uint256"
        },
        {
          "internalType": "address",
          "name": "account",
          "type": "address"
        }
      ],
      "name": "removeAdmin",
      "outputs": [],
      "stateMutability": "nonpayable",
      "type": "function"
    },
    {
      "inputs": [
        {
          "internalType": "uint256",
          "name": "groupId",
          "type": "uint256"
        }
      ],
      "name": "renounceAdmin",
      "outputs": [],
      "stateMutability": "nonpayable",
      "type": "function"
    },
    {
      "inputs": [
        {
          "internalType": "uint256",
          "name": "groupId",
          "type": "uint256"
        }
      ],
      "name": "readEventInfo",
      "outputs": [
        {
          "components": [
            {
              "internalType": "uint256",
              "name": "groupId",
              "type": "uint256"
            },
            {
              "internalType": "string",
              "name": "groupName",
              "type": "string"
            },
            {
              "internalType": "enum EthDropBase.EventState",
              "name": "currentState",
              "type": "uint8"
            },
            {
              "internalType": "uint256",
              "name": "startTime",
              "type": "uint256"
            },
            {
              "internalType": "uint256",
              "name": "registrationEndTime",
              "type": "uint256"
            },
            {
              "internalType": "uint256",
              "name": "endTime",
              "type": "uint256"
            },
            {
              "internalType": "uint256",
              "name": "registeredRecipientsCount",
              "type": "uint256"
            },
            {
              "internalType": "string",
              "name": "sponsorName",
              "type": "string"
            },
            {
              "internalType": "string",
              "name": "sponsorImageUrl",
              "type": "string"
            },
            {
              "internalType": "string",
              "name": "sponsorLinkToUrl",
              "type": "string"
            },
            {
              "internalType": "address",
              "name": "currentContributor",
              "type": "address"
            },
            {
              "internalType": "uint256",
              "name": "totalAmountContributed",
              "type": "uint256"
            },
            {
              "internalType": "uint256",
              "name": "weiWinnings",
              "type": "uint256"
            },
            {
              "internalType": "uint256",
              "name": "numberOfUsersWhoClaimedWinnings",
              "type": "uint256"
            }
          ],
          "internalType": "struct EthDropBase.EthDropEvent",
          "name": "",
          "type": "tuple"
        }
      ],
      "stateMutability": "view",
      "type": "function",
      "constant": true
    },
    {
      "inputs": [
        {
          "internalType": "string",
          "name": "groupName",
          "type": "string"
        }
      ],
      "name": "createNewGroup",
      "outputs": [],
      "stateMutability": "nonpayable",
      "type": "function"
    },
    {
      "inputs": [
        {
          "internalType": "uint256",
          "name": "groupId",
          "type": "uint256"
        }
      ],
      "name": "startEvent",
      "outputs": [],
      "stateMutability": "nonpayable",
      "type": "function"
    },
    {
      "inputs": [
        {
          "internalType": "uint256",
          "name": "groupId",
          "type": "uint256"
        }
      ],
      "name": "closeEventRegistration",
      "outputs": [],
      "stateMutability": "nonpayable",
      "type": "function"
    },
    {
      "inputs": [
        {
          "internalType": "uint256",
          "name": "groupId",
          "type": "uint256"
        }
      ],
      "name": "endEvent",
      "outputs": [],
      "stateMutability": "nonpayable",
      "type": "function"
    },
    {
      "inputs": [
        {
          "internalType": "address",
          "name": "account",
          "type": "address"
        },
        {
          "internalType": "string",
          "name": "name",
          "type": "string"
        },
        {
          "internalType": "uint256",
          "name": "groupId",
          "type": "uint256"
        }
      ],
      "name": "addEligibleRecipient",
      "outputs": [],
      "stateMutability": "nonpayable",
      "type": "function"
    },
    {
      "inputs": [
        {
          "internalType": "address",
          "name": "account",
          "type": "address"
        },
        {
          "internalType": "uint256",
          "name": "groupId",
          "type": "uint256"
        }
      ],
      "name": "removeEligibleRecipient",
      "outputs": [],
      "stateMutability": "nonpayable",
      "type": "function"
    },
    {
      "inputs": [
        {
          "internalType": "address",
          "name": "account",
          "type": "address"
        },
        {
          "internalType": "uint256",
          "name": "groupId",
          "type": "uint256"
        }
      ],
      "name": "changeContributor",
      "outputs": [],
      "stateMutability": "nonpayable",
      "type": "function"
    }
  ],
  "bytecode": "0x608060405233600160006101000a81548173ffffffffffffffffffffffffffffffffffffffff021916908373ffffffffffffffffffffffffffffffffffffffff1602179055506000600360146101000a81548160ff0219169083151502179055506005805534801561007057600080fd5b50615d5c80620000816000396000f3fe6080604052600436106103765760003560e01c80637fcaf666116101d1578063c271e80c11610102578063e9992d99116100a0578063ee41b5921161006f578063ee41b59214610d79578063f4a02e7014610db6578063f89e9cb914610de1578063fc5fd6e414610e1e57610376565b8063e9992d9914610cc1578063e9af9bca14610cea578063ea303f0814610d27578063edf6261d14610d5057610376565b8063e33db426116100dc578063e33db42614610c00578063e513b7a914610c3d578063e62092be14610c68578063e82f24e014610ca557610376565b8063c271e80c14610b81578063c6db509414610baa578063d5f016c314610bd557610376565b80639bda87961161016f578063b047fb5011610149578063b047fb5014610ad5578063b187bd2614610b00578063b3b36bb314610b2b578063c02b8b2c14610b5657610376565b80639bda879614610a46578063a59a695314610a83578063aea88a0514610aac57610376565b806389ea642f116101ab57806389ea642f1461098a5780639393ae37146109b5578063962ecff5146109e0578063967cafbc14610a1d57610376565b80637fcaf6661461090d5780638182aaf2146109365780638456cb591461097357610376565b8063454432e2116102ab578063674811ca11610249578063785142be11610223578063785142be146108535780637b936ac21461087c5780637d837ce5146108a75780637eb0bdc9146108e457610376565b8063674811ca146107ac578063677bd9ff146107eb5780636ebdec491461081457610376565b806355b57ec11161028557806355b57ec1146106ca57806356c9a339146107075780635c975abb146107445780635e82c1fc1461076f57610376565b8063454432e2146106235780634635509b146106605780634e0a3379146106a157610376565b80632ba73c151161031857806338f0b656116102f257806338f0b656146105555780633f4ba83a14610592578063406db843146105bd57806344b2983b146105e657610376565b80632ba73c15146104da57806330bb011514610503578063330a347b1461052c57610376565b80630a0f8168116103545780630a0f8168146104205780630d82ffa01461044b57806315891ff41461048857806327d7874c146104b157610376565b80630519ce791461037b57806306cc4922146103a657806307bfa330146103e3575b600080fd5b34801561038757600080fd5b50610390610e49565b60405161039d91906153ed565b60405180910390f35b3480156103b257600080fd5b506103cd60048036038101906103c89190614d8c565b610e6f565b6040516103da91906154dc565b60405180910390f35b3480156103ef57600080fd5b5061040a60048036038101906104059190614d8c565b610e9c565b6040516104179190615498565b60405180910390f35b34801561042c57600080fd5b50610435610f88565b60405161044291906153ed565b60405180910390f35b34801561045757600080fd5b50610472600480360381019061046d9190614d8c565b610fae565b60405161047f91906153ed565b60405180910390f35b34801561049457600080fd5b506104af60048036038101906104aa9190614d03565b610fee565b005b3480156104bd57600080fd5b506104d860048036038101906104d39190614c67565b6110d8565b005b3480156104e657600080fd5b5061050160048036038101906104fc9190614c67565b6111b0565b005b34801561050f57600080fd5b5061052a60048036038101906105259190614d8c565b6112b4565b005b34801561053857600080fd5b50610553600480360381019061054e9190614d8c565b6112d6565b005b34801561056157600080fd5b5061057c60048036038101906105779190614d8c565b6118c0565b60405161058991906154dc565b60405180910390f35b34801561059e57600080fd5b506105a76118ed565b6040516105b491906154dc565b60405180910390f35b3480156105c957600080fd5b506105e460048036038101906105df9190614d8c565b611992565b005b3480156105f257600080fd5b5061060d60048036038101906106089190614d8c565b611c46565b60405161061a9190615408565b60405180910390f35b34801561062f57600080fd5b5061064a60048036038101906106459190614d8c565b611ce7565b6040516106579190615498565b60405180910390f35b34801561066c57600080fd5b5061068760048036038101906106829190614d8c565b611dd3565b6040516106989594939291906154f7565b60405180910390f35b3480156106ad57600080fd5b506106c860048036038101906106c39190614c67565b612156565b005b3480156106d657600080fd5b506106f160048036038101906106ec9190614d8c565b61225a565b6040516106fe9190615476565b60405180910390f35b34801561071357600080fd5b5061072e60048036038101906107299190614d8c565b6122ea565b60405161073b919061562a565b60405180910390f35b34801561075057600080fd5b50610759612307565b60405161076691906154dc565b60405180910390f35b34801561077b57600080fd5b5061079660048036038101906107919190614d03565b61231a565b6040516107a391906154dc565b60405180910390f35b3480156107b857600080fd5b506107d360048036038101906107ce9190614d8c565b6123a3565b6040516107e29392919061556c565b60405180910390f35b3480156107f757600080fd5b50610812600480360381019061080d9190614d8c565b61259b565b005b34801561082057600080fd5b5061083b60048036038101906108369190614d8c565b612780565b60405161084a9392919061542a565b60405180910390f35b34801561085f57600080fd5b5061087a60048036038101906108759190614d8c565b61299d565b005b34801561088857600080fd5b50610891612bd2565b60405161089e91906153ed565b60405180910390f35b3480156108b357600080fd5b506108ce60048036038101906108c99190614d03565b612bfc565b6040516108db91906154dc565b60405180910390f35b3480156108f057600080fd5b5061090b60048036038101906109069190614db9565b612c85565b005b34801561091957600080fd5b50610934600480360381019061092f9190614d43565b612ced565b005b34801561094257600080fd5b5061095d60048036038101906109589190614d03565b612d07565b60405161096a91906154dc565b60405180910390f35b34801561097f57600080fd5b50610988612d90565b005b34801561099657600080fd5b5061099f612ed1565b6040516109ac919061554a565b60405180910390f35b3480156109c157600080fd5b506109ca612f63565b6040516109d791906154dc565b60405180910390f35b3480156109ec57600080fd5b50610a076004803603810190610a029190614d8c565b612fbb565b604051610a1491906154dc565b60405180910390f35b348015610a2957600080fd5b50610a446004803603810190610a3f9190614c94565b612fce565b005b348015610a5257600080fd5b50610a6d6004803603810190610a689190614d8c565b613235565b604051610a7a9190615408565b60405180910390f35b348015610a8f57600080fd5b50610aaa6004803603810190610aa59190614d8c565b6132d6565b005b348015610ab857600080fd5b50610ad36004803603810190610ace9190614e68565b6133b0565b005b348015610ae157600080fd5b50610aea6134e9565b604051610af791906153ed565b60405180910390f35b348015610b0c57600080fd5b50610b1561350f565b604051610b2291906154dc565b60405180910390f35b348015610b3757600080fd5b50610b40613526565b604051610b4d91906153ed565b60405180910390f35b348015610b6257600080fd5b50610b6b61352e565b604051610b7891906154ba565b60405180910390f35b348015610b8d57600080fd5b50610ba86004803603810190610ba39190614d03565b613586565b005b348015610bb657600080fd5b50610bbf61361b565b604051610bcc919061554a565b60405180910390f35b348015610be157600080fd5b50610bea6136a9565b604051610bf79190615498565b60405180910390f35b348015610c0c57600080fd5b50610c276004803603810190610c229190614d8c565b613782565b604051610c349190615608565b60405180910390f35b348015610c4957600080fd5b50610c52613aee565b604051610c5f91906154dc565b60405180910390f35b348015610c7457600080fd5b50610c8f6004803603810190610c8a9190614d03565b613b46565b604051610c9c91906154dc565b60405180910390f35b610cbf6004803603810190610cba9190614d8c565b613c05565b005b348015610ccd57600080fd5b50610ce86004803603810190610ce39190614db9565b613cca565b005b348015610cf657600080fd5b50610d116004803603810190610d0c9190614d8c565b613e35565b604051610d1e919061562a565b60405180910390f35b348015610d3357600080fd5b50610d4e6004803603810190610d499190614d43565b613e8f565b005b348015610d5c57600080fd5b50610d776004803603810190610d729190614df9565b6141c0565b005b348015610d8557600080fd5b50610da06004803603810190610d9b9190614d8c565b61428b565b604051610dad91906154dc565b60405180910390f35b348015610dc257600080fd5b50610dcb6142b8565b604051610dd891906154dc565b60405180910390f35b348015610ded57600080fd5b50610e086004803603810190610e039190614d8c565b614310565b604051610e1591906154dc565b60405180910390f35b348015610e2a57600080fd5b50610e33614397565b604051610e4091906153ed565b60405180910390f35b600260009054906101000a900473ffffffffffffffffffffffffffffffffffffffff1681565b6000600360149054906101000a900460ff1615610e8b57600080fd5b610e95338361231a565b9050919050565b606060166000838152602001908152602001600020805480602002602001604051908101604052809291908181526020016000905b82821015610f7d578382906000526020600020018054610ef090615aaa565b80601f0160208091040260200160405190810160405280929190818152602001828054610f1c90615aaa565b8015610f695780601f10610f3e57610100808354040283529160200191610f69565b820191906000526020600020905b815481529060010190602001808311610f4c57829003601f168201915b505050505081526020019060010190610ed1565b505050509050919050565b600160009054906101000a900473ffffffffffffffffffffffffffffffffffffffff1681565b600060086000838152602001908152602001600020600a0160009054906101000a900473ffffffffffffffffffffffffffffffffffffffff169050919050565b80610ff93382613b46565b61100257600080fd5b600360149054906101000a900460ff161561101c57600080fd5b60006011600084815260200190815260200160002060008573ffffffffffffffffffffffffffffffffffffffff1673ffffffffffffffffffffffffffffffffffffffff16815260200190815260200160002060006101000a81548160ff0219169083151502179055508273ffffffffffffffffffffffffffffffffffffffff167f1af6d16168d33745872119540d28858eed156c5f265206bbf1344fda39a93a33836040516110cb919061562a565b60405180910390a2505050565b600160009054906101000a900473ffffffffffffffffffffffffffffffffffffffff1673ffffffffffffffffffffffffffffffffffffffff163373ffffffffffffffffffffffffffffffffffffffff161461113257600080fd5b600073ffffffffffffffffffffffffffffffffffffffff168173ffffffffffffffffffffffffffffffffffffffff16141561116c57600080fd5b80600160006101000a81548173ffffffffffffffffffffffffffffffffffffffff021916908373ffffffffffffffffffffffffffffffffffffffff16021790555050565b600160009054906101000a900473ffffffffffffffffffffffffffffffffffffffff1673ffffffffffffffffffffffffffffffffffffffff163373ffffffffffffffffffffffffffffffffffffffff161461120a57600080fd5b600073ffffffffffffffffffffffffffffffffffffffff168173ffffffffffffffffffffffffffffffffffffffff16141561124457600080fd5b80600360006101000a81548173ffffffffffffffffffffffffffffffffffffffff021916908373ffffffffffffffffffffffffffffffffffffffff1602179055507fa308298a77084def994b565be25bff2e8fbfe7006c2c6b2bacfb84d1ba1f635060405160405180910390a150565b806112bf3382613b46565b6112c857600080fd5b6112d282336143c1565b5050565b806112e13382613b46565b806113395750600360009054906101000a900473ffffffffffffffffffffffffffffffffffffffff1673ffffffffffffffffffffffffffffffffffffffff163373ffffffffffffffffffffffffffffffffffffffff16145b61134257600080fd5b600360149054906101000a900460ff161561135c57600080fd5b42600860008481526020019081526020016000206005018190555060036008600084815260200190815260200160002060020160006101000a81548160ff021916908360038111156113b1576113b0615bb4565b5b021790555060005b600860008481526020019081526020016000206006015481101561155b5760006018600085815260200190815260200160002082815481106113fe576113fd615c12565b5b9060005260206000200160009054906101000a900473ffffffffffffffffffffffffffffffffffffffff1690506017600085815260200190815260200160002060008273ffffffffffffffffffffffffffffffffffffffff1673ffffffffffffffffffffffffffffffffffffffff16815260200190815260200160002060006101000a81549060ff02191690556015600085815260200190815260200160002060008273ffffffffffffffffffffffffffffffffffffffff1673ffffffffffffffffffffffffffffffffffffffff16815260200190815260200160002060006114e79190614960565b600c600085815260200190815260200160002060008273ffffffffffffffffffffffffffffffffffffffff1673ffffffffffffffffffffffffffffffffffffffff16815260200190815260200160002060006101000a81549060ff021916905550808061155390615b0d565b9150506113b9565b5060166000838152602001908152602001600020600061157b91906149a0565b60186000838152602001908152602001600020600061159a91906149c1565b600960008381526020019081526020016000206008600084815260200190815260200160002090806001815401808255809150506001900390600052602060002090600e020160009091909190915060008201548160000155600182018160010190805461160790615aaa565b6116129291906149e2565b506002820160009054906101000a900460ff168160020160006101000a81548160ff0219169083600381111561164b5761164a615bb4565b5b021790555060038201548160030155600482015481600401556005820154816005015560068201548160060155600782018160070190805461168c90615aaa565b6116979291906149e2565b5060088201816008019080546116ac90615aaa565b6116b79291906149e2565b5060098201816009019080546116cc90615aaa565b6116d79291906149e2565b50600a820160009054906101000a900473ffffffffffffffffffffffffffffffffffffffff1681600a0160006101000a81548173ffffffffffffffffffffffffffffffffffffffff021916908373ffffffffffffffffffffffffffffffffffffffff160217905550600b82015481600b0155600c82015481600c0155600d82015481600d0155505060006008600084815260200190815260200160002060060181905550600060086000848152602001908152602001600020600b0181905550600060086000848152602001908152602001600020600c0181905550600060086000848152602001908152602001600020600d01819055503373ffffffffffffffffffffffffffffffffffffffff167f5dc1fe5ab986a852c4eda8e8bb94247d13307065c593fb83f1a09be27367938283600060405161181892919061567c565b60405180910390a23373ffffffffffffffffffffffffffffffffffffffff167f0695e999be8100bdb5bee8612337296508d527eae78c65b8f170eacb5a3b439d83604051611866919061562a565b60405180910390a23373ffffffffffffffffffffffffffffffffffffffff167f6f45a19e8850c727d0de9f32e0d8691324a9a74ffb4347652e6404138b1d8165836040516118b4919061562a565b60405180910390a25050565b6000600360149054906101000a900460ff16156118dc57600080fd5b6118e63383612bfc565b9050919050565b6000600160009054906101000a900473ffffffffffffffffffffffffffffffffffffffff1673ffffffffffffffffffffffffffffffffffffffff163373ffffffffffffffffffffffffffffffffffffffff161461194957600080fd5b600360149054906101000a900460ff1661196257600080fd5b6000600360146101000a81548160ff021916908315150217905550600360149054906101000a900460ff16905090565b8061199d338261231a565b6119a657600080fd5b600360149054906101000a900460ff16156119c057600080fd5b60016017600084815260200190815260200160002060003373ffffffffffffffffffffffffffffffffffffffff1673ffffffffffffffffffffffffffffffffffffffff16815260200190815260200160002060006101000a81548160ff02191690831515021790555060186000838152602001908152602001600020339080600181540180825580915050600190039060005260206000200160009091909190916101000a81548173ffffffffffffffffffffffffffffffffffffffff021916908373ffffffffffffffffffffffffffffffffffffffff16021790555060006015600084815260200190815260200160002060003373ffffffffffffffffffffffffffffffffffffffff1673ffffffffffffffffffffffffffffffffffffffff1681526020019081526020016000208054611afa90615aaa565b80601f0160208091040260200160405190810160405280929190818152602001828054611b2690615aaa565b8015611b735780601f10611b4857610100808354040283529160200191611b73565b820191906000526020600020905b815481529060010190602001808311611b5657829003601f168201915b505050505090506016600084815260200190815260200160002081908060018154018082558091505060019003906000526020600020016000909190919091509080519060200190611bc6929190614a6f565b50600860008481526020019081526020016000206006016000815480929190611bee90615b0d565b91905055503373ffffffffffffffffffffffffffffffffffffffff167f0695e999be8100bdb5bee8612337296508d527eae78c65b8f170eacb5a3b439d84604051611c39919061562a565b60405180910390a2505050565b606060186000838152602001908152602001600020805480602002602001604051908101604052809291908181526020018280548015611cdb57602002820191906000526020600020905b8160009054906101000a900473ffffffffffffffffffffffffffffffffffffffff1673ffffffffffffffffffffffffffffffffffffffff1681526020019060010190808311611c91575b50505050509050919050565b606060136000838152602001908152602001600020805480602002602001604051908101604052809291908181526020016000905b82821015611dc8578382906000526020600020018054611d3b90615aaa565b80601f0160208091040260200160405190810160405280929190818152602001828054611d6790615aaa565b8015611db45780601f10611d8957610100808354040283529160200191611db4565b820191906000526020600020905b815481529060010190602001808311611d9757829003601f168201915b505050505081526020019060010190611d1c565b505050509050919050565b60008060008060008060086000888152602001908152602001600020604051806101c001604052908160008201548152602001600182018054611e1590615aaa565b80601f0160208091040260200160405190810160405280929190818152602001828054611e4190615aaa565b8015611e8e5780601f10611e6357610100808354040283529160200191611e8e565b820191906000526020600020905b815481529060010190602001808311611e7157829003601f168201915b505050505081526020016002820160009054906101000a900460ff166003811115611ebc57611ebb615bb4565b5b6003811115611ece57611ecd615bb4565b5b815260200160038201548152602001600482015481526020016005820154815260200160068201548152602001600782018054611f0a90615aaa565b80601f0160208091040260200160405190810160405280929190818152602001828054611f3690615aaa565b8015611f835780601f10611f5857610100808354040283529160200191611f83565b820191906000526020600020905b815481529060010190602001808311611f6657829003601f168201915b50505050508152602001600882018054611f9c90615aaa565b80601f0160208091040260200160405190810160405280929190818152602001828054611fc890615aaa565b80156120155780601f10611fea57610100808354040283529160200191612015565b820191906000526020600020905b815481529060010190602001808311611ff857829003601f168201915b5050505050815260200160098201805461202e90615aaa565b80601f016020809104026020016040519081016040528092919081815260200182805461205a90615aaa565b80156120a75780601f1061207c576101008083540402835291602001916120a7565b820191906000526020600020905b81548152906001019060200180831161208a57829003601f168201915b50505050508152602001600a820160009054906101000a900473ffffffffffffffffffffffffffffffffffffffff1673ffffffffffffffffffffffffffffffffffffffff1673ffffffffffffffffffffffffffffffffffffffff168152602001600b8201548152602001600c8201548152602001600d82015481525050905080604001518160c00151826101600151836101800151846101a00151955095509550955095505091939590929450565b600160009054906101000a900473ffffffffffffffffffffffffffffffffffffffff1673ffffffffffffffffffffffffffffffffffffffff163373ffffffffffffffffffffffffffffffffffffffff16146121b057600080fd5b600073ffffffffffffffffffffffffffffffffffffffff168173ffffffffffffffffffffffffffffffffffffffff1614156121ea57600080fd5b80600260006101000a81548173ffffffffffffffffffffffffffffffffffffffff021916908373ffffffffffffffffffffffffffffffffffffffff1602179055507f162e32528b5907ecf876b3b7a4e5e0edf878642e3ec25852e3c35af1a4e1c04060405160405180910390a150565b6060601460008381526020019081526020016000208054806020026020016040519081016040528092919081815260200182805480156122de57602002820191906000526020600020906000905b82829054906101000a900460ff161515815260200190600101906020826000010492830192600103820291508084116122a85790505b50505050509050919050565b6000600b6000838152602001908152602001600020549050919050565b600360149054906101000a900460ff1681565b6000600360149054906101000a900460ff161561233657600080fd5b600115156011600084815260200190815260200160002060008573ffffffffffffffffffffffffffffffffffffffff1673ffffffffffffffffffffffffffffffffffffffff16815260200190815260200160002060009054906101000a900460ff16151514905092915050565b60608060606008600085815260200190815260200160002060070160086000868152602001908152602001600020600801600860008781526020019081526020016000206009018280546123f690615aaa565b80601f016020809104026020016040519081016040528092919081815260200182805461242290615aaa565b801561246f5780601f106124445761010080835404028352916020019161246f565b820191906000526020600020905b81548152906001019060200180831161245257829003601f168201915b5050505050925081805461248290615aaa565b80601f01602080910402602001604051908101604052809291908181526020018280546124ae90615aaa565b80156124fb5780601f106124d0576101008083540402835291602001916124fb565b820191906000526020600020905b8154815290600101906020018083116124de57829003601f168201915b5050505050915080805461250e90615aaa565b80601f016020809104026020016040519081016040528092919081815260200182805461253a90615aaa565b80156125875780601f1061255c57610100808354040283529160200191612587565b820191906000526020600020905b81548152906001019060200180831161256a57829003601f168201915b505050505090509250925092509193909250565b806125a63382612bfc565b6125af57600080fd5b813360011515600c600084815260200190815260200160002060003373ffffffffffffffffffffffffffffffffffffffff1673ffffffffffffffffffffffffffffffffffffffff16815260200190815260200160002060009054906101000a900460ff161515141561262057600080fd5b600360149054906101000a900460ff161561263a57600080fd5b6001600c600086815260200190815260200160002060003373ffffffffffffffffffffffffffffffffffffffff1673ffffffffffffffffffffffffffffffffffffffff16815260200190815260200160002060006101000a81548160ff02191690831515021790555060086000858152602001908152602001600020600d0160008154809291906126ca90615b0d565b91905055503373ffffffffffffffffffffffffffffffffffffffff166108fc60086000878152602001908152602001600020600c01549081150290604051600060405180830381858888f1935050505015801561272b573d6000803e3d6000fd5b503373ffffffffffffffffffffffffffffffffffffffff167f1a31e733a172afcf46074b3106c17f0c298e226442682a03c1e99ce256139ec285604051612772919061562a565b60405180910390a250505050565b6060806060600d6000858152602001908152602001600020600f6000868152602001908152602001600020600e60008781526020019081526020016000208280548060200260200160405190810160405280929190818152602001828054801561283f57602002820191906000526020600020905b8160009054906101000a900473ffffffffffffffffffffffffffffffffffffffff1673ffffffffffffffffffffffffffffffffffffffff16815260200190600101908083116127f5575b50505050509250818054806020026020016040519081016040528092919081815260200182805480156128b657602002820191906000526020600020906000905b82829054906101000a900460ff161515815260200190600101906020826000010492830192600103820291508084116128805790505b5050505050915080805480602002602001604051908101604052809291908181526020016000905b8282101561298a5783829060005260206000200180546128fd90615aaa565b80601f016020809104026020016040519081016040528092919081815260200182805461292990615aaa565b80156129765780601f1061294b57610100808354040283529160200191612976565b820191906000526020600020905b81548152906001019060200180831161295957829003601f168201915b5050505050815260200190600101906128de565b5050505090509250925092509193909250565b806129a83382613b46565b6129b157600080fd5b600360149054906101000a900460ff16156129cb57600080fd5b600160086000848152602001908152602001600020600601541015612a25576040517f08c379a0000000000000000000000000000000000000000000000000000000008152600401612a1c906155e8565b60405180910390fd5b4260086000848152602001908152602001600020600401819055506000606460055460086000868152602001908152602001600020600b0154612a68919061595b565b612a72919061592a565b9050600260009054906101000a900473ffffffffffffffffffffffffffffffffffffffff1673ffffffffffffffffffffffffffffffffffffffff166108fc829081150290604051600060405180830381858888f19350505050158015612adc573d6000803e3d6000fd5b5060008160086000868152602001908152602001600020600b0154612b0191906159b5565b9050600860008581526020019081526020016000206006015481612b25919061592a565b60086000868152602001908152602001600020600c018190555060026008600086815260200190815260200160002060020160006101000a81548160ff02191690836003811115612b7957612b78615bb4565b5b02179055503373ffffffffffffffffffffffffffffffffffffffff167fef898a6941c945450e9bbdad4a76fcd0f51f42f7e251fddcb1e5479ba786d5e485604051612bc4919061562a565b60405180910390a250505050565b6000600260009054906101000a900473ffffffffffffffffffffffffffffffffffffffff16905090565b6000600360149054906101000a900460ff1615612c1857600080fd5b600115156017600084815260200190815260200160002060008573ffffffffffffffffffffffffffffffffffffffff1673ffffffffffffffffffffffffffffffffffffffff16815260200190815260200160002060009054906101000a900460ff16151514905092915050565b600360009054906101000a900473ffffffffffffffffffffffffffffffffffffffff1673ffffffffffffffffffffffffffffffffffffffff163373ffffffffffffffffffffffffffffffffffffffff1614612cdf57600080fd5b612ce982826143c1565b5050565b8060009080519060200190612d03929190614a6f565b5050565b6000600360149054906101000a900460ff1615612d2357600080fd5b60086000838152602001908152602001600020600a0160009054906101000a900473ffffffffffffffffffffffffffffffffffffffff1673ffffffffffffffffffffffffffffffffffffffff168373ffffffffffffffffffffffffffffffffffffffff1614905092915050565b600360009054906101000a900473ffffffffffffffffffffffffffffffffffffffff1673ffffffffffffffffffffffffffffffffffffffff163373ffffffffffffffffffffffffffffffffffffffff161480612e395750600160009054906101000a900473ffffffffffffffffffffffffffffffffffffffff1673ffffffffffffffffffffffffffffffffffffffff163373ffffffffffffffffffffffffffffffffffffffff16145b80612e915750600260009054906101000a900473ffffffffffffffffffffffffffffffffffffffff1673ffffffffffffffffffffffffffffffffffffffff163373ffffffffffffffffffffffffffffffffffffffff16145b612e9a57600080fd5b600360149054906101000a900460ff1615612eb457600080fd5b6001600360146101000a81548160ff021916908315150217905550565b606060008054612ee090615aaa565b80601f0160208091040260200160405190810160405280929190818152602001828054612f0c90615aaa565b8015612f595780601f10612f2e57610100808354040283529160200191612f59565b820191906000526020600020905b815481529060010190602001808311612f3c57829003601f168201915b5050505050905090565b6000600260009054906101000a900473ffffffffffffffffffffffffffffffffffffffff1673ffffffffffffffffffffffffffffffffffffffff163373ffffffffffffffffffffffffffffffffffffffff1614905090565b6000612fc73383613b46565b9050919050565b600360149054906101000a900460ff1615612fe857600080fd5b80612ff33382613b46565b612ffc57600080fd5b60016011600084815260200190815260200160002060008673ffffffffffffffffffffffffffffffffffffffff1673ffffffffffffffffffffffffffffffffffffffff16815260200190815260200160002060006101000a81548160ff02191690831515021790555060126000838152602001908152602001600020849080600181540180825580915050600190039060005260206000200160009091909190916101000a81548173ffffffffffffffffffffffffffffffffffffffff021916908373ffffffffffffffffffffffffffffffffffffffff1602179055506013600083815260200190815260200160002083908060018154018082558091505060019003906000526020600020016000909190919091509080519060200190613125929190614a6f565b50826015600084815260200190815260200160002060008673ffffffffffffffffffffffffffffffffffffffff1673ffffffffffffffffffffffffffffffffffffffff168152602001908152602001600020908051906020019061318a929190614a6f565b5060146000838152602001908152602001600020600190806001815401808255809150506001900390600052602060002090602091828204019190069091909190916101000a81548160ff0219169083151502179055508373ffffffffffffffffffffffffffffffffffffffff167f46b8357d30dedd734a71d059a385f46b6e667bff20233f907477760207f8896583604051613227919061562a565b60405180910390a250505050565b6060601260008381526020019081526020016000208054806020026020016040519081016040528092919081815260200182805480156132ca57602002820191906000526020600020905b8160009054906101000a900473ffffffffffffffffffffffffffffffffffffffff1673ffffffffffffffffffffffffffffffffffffffff1681526020019060010190808311613280575b50505050509050919050565b806132e13382613b46565b6132ea57600080fd5b600360149054906101000a900460ff161561330457600080fd5b60016008600084815260200190815260200160002060020160006101000a81548160ff0219169083600381111561333e5761333d615bb4565b5b02179055504260086000848152602001908152602001600020600301819055503373ffffffffffffffffffffffffffffffffffffffff167ff77c6f27499b698205f54058c2914a340e1300c2bc0d9a819e7aebfbaabbbb93836040516133a4919061562a565b60405180910390a25050565b836133bb3382612d07565b6133c457600080fd5b6000845111156133fa57836008600087815260200190815260200160002060070190805190602001906133f8929190614a6f565b505b600083511115613430578260086000878152602001908152602001600020600801908051906020019061342e929190614a6f565b505b6000825111156134665781600860008781526020019081526020016000206009019080519060200190613464929190614a6f565b505b7fcd9ad49d834aeea746bafd2d26eebd3d01ebac2d8f5d3f53d7f3884292e5835f856008600088815260200190815260200160002060070160086000898152602001908152602001600020600801600860008a81526020019081526020016000206009016040516134da94939291906156d5565b60405180910390a15050505050565b600360009054906101000a900473ffffffffffffffffffffffffffffffffffffffff1681565b6000600360149054906101000a900460ff16905090565b600033905090565b6060600680548060200260200160405190810160405280929190818152602001828054801561357c57602002820191906000526020600020905b815481526020019060010190808311613568575b5050505050905090565b806135913382613b46565b806135e95750600360009054906101000a900473ffffffffffffffffffffffffffffffffffffffff1673ffffffffffffffffffffffffffffffffffffffff163373ffffffffffffffffffffffffffffffffffffffff16145b6135f257600080fd5b600360149054906101000a900460ff161561360c57600080fd5b61361683836144d2565b505050565b6000805461362890615aaa565b80601f016020809104026020016040519081016040528092919081815260200182805461365490615aaa565b80156136a15780601f10613676576101008083540402835291602001916136a1565b820191906000526020600020905b81548152906001019060200180831161368457829003601f168201915b505050505081565b60606007805480602002602001604051908101604052809291908181526020016000905b828210156137795783829060005260206000200180546136ec90615aaa565b80601f016020809104026020016040519081016040528092919081815260200182805461371890615aaa565b80156137655780601f1061373a57610100808354040283529160200191613765565b820191906000526020600020905b81548152906001019060200180831161374857829003601f168201915b5050505050815260200190600101906136cd565b50505050905090565b61378a614af5565b816137953382613b46565b61379e57600080fd5b60086000848152602001908152602001600020604051806101c0016040529081600082015481526020016001820180546137d790615aaa565b80601f016020809104026020016040519081016040528092919081815260200182805461380390615aaa565b80156138505780601f1061382557610100808354040283529160200191613850565b820191906000526020600020905b81548152906001019060200180831161383357829003601f168201915b505050505081526020016002820160009054906101000a900460ff16600381111561387e5761387d615bb4565b5b60038111156138905761388f615bb4565b5b8152602001600382015481526020016004820154815260200160058201548152602001600682015481526020016007820180546138cc90615aaa565b80601f01602080910402602001604051908101604052809291908181526020018280546138f890615aaa565b80156139455780601f1061391a57610100808354040283529160200191613945565b820191906000526020600020905b81548152906001019060200180831161392857829003601f168201915b5050505050815260200160088201805461395e90615aaa565b80601f016020809104026020016040519081016040528092919081815260200182805461398a90615aaa565b80156139d75780601f106139ac576101008083540402835291602001916139d7565b820191906000526020600020905b8154815290600101906020018083116139ba57829003601f168201915b505050505081526020016009820180546139f090615aaa565b80601f0160208091040260200160405190810160405280929190818152602001828054613a1c90615aaa565b8015613a695780601f10613a3e57610100808354040283529160200191613a69565b820191906000526020600020905b815481529060010190602001808311613a4c57829003601f168201915b50505050508152602001600a820160009054906101000a900473ffffffffffffffffffffffffffffffffffffffff1673ffffffffffffffffffffffffffffffffffffffff1673ffffffffffffffffffffffffffffffffffffffff168152602001600b8201548152602001600c8201548152602001600d82015481525050915050919050565b6000600160009054906101000a900473ffffffffffffffffffffffffffffffffffffffff1673ffffffffffffffffffffffffffffffffffffffff163373ffffffffffffffffffffffffffffffffffffffff1614905090565b600080600a600084815260200190815260200160002060008573ffffffffffffffffffffffffffffffffffffffff1673ffffffffffffffffffffffffffffffffffffffff1681526020019081526020016000205490506000811415613baf576000915050613bff565b60011515600f60008581526020019081526020016000208281548110613bd857613bd7615c12565b5b90600052602060002090602091828204019190069054906101000a900460ff161515149150505b92915050565b80613c103382612d07565b613c1957600080fd5b600360149054906101000a900460ff1615613c3357600080fd5b3460086000848152602001908152602001600020600b016000828254613c5991906158d4565b925050819055503373ffffffffffffffffffffffffffffffffffffffff167f5dc1fe5ab986a852c4eda8e8bb94247d13307065c593fb83f1a09be2736793828360086000868152602001908152602001600020600b0154604051613cbe92919061572f565b60405180910390a25050565b600360009054906101000a900473ffffffffffffffffffffffffffffffffffffffff1673ffffffffffffffffffffffffffffffffffffffff163373ffffffffffffffffffffffffffffffffffffffff1614613d2457600080fd5b6000600a600084815260200190815260200160002060008373ffffffffffffffffffffffffffffffffffffffff1673ffffffffffffffffffffffffffffffffffffffff1681526020019081526020016000205490506001600f60008581526020019081526020016000208281548110613da057613d9f615c12565b5b90600052602060002090602091828204019190066101000a81548160ff0219169083151502179055507f2d19f1f4aa7d21a07d18586e49b3e0529d148488052497ea97f06d7266c3cbbe83600e60008681526020019081526020016000208381548110613e1057613e0f615c12565b5b90600052602060002001604051613e289291906156a5565b60405180910390a1505050565b6000600a600083815260200190815260200160002060003373ffffffffffffffffffffffffffffffffffffffff1673ffffffffffffffffffffffffffffffffffffffff168152602001908152602001600020549050919050565b600360009054906101000a900473ffffffffffffffffffffffffffffffffffffffff1673ffffffffffffffffffffffffffffffffffffffff163373ffffffffffffffffffffffffffffffffffffffff1614613ee957600080fd5b600360149054906101000a900460ff1615613f0357600080fd5b60004290506000604051806101c0016040528083815260200184815260200160006003811115613f3657613f35615bb4565b5b815260200142815260200142815260200142815260200160008152602001604051806020016040528060008152508152602001604051806020016040528060008152508152602001604051806020016040528060008152508152602001600073ffffffffffffffffffffffffffffffffffffffff1681526020016000815260200160008152602001600081525090508060086000848152602001908152602001600020600082015181600001556020820151816001019080519060200190613fff929190614a6f565b5060408201518160020160006101000a81548160ff0219169083600381111561402b5761402a615bb4565b5b0217905550606082015181600301556080820151816004015560a0820151816005015560c0820151816006015560e0820151816007019080519060200190614074929190614a6f565b50610100820151816008019080519060200190614092929190614a6f565b506101208201518160090190805190602001906140b0929190614a6f565b5061014082015181600a0160006101000a81548173ffffffffffffffffffffffffffffffffffffffff021916908373ffffffffffffffffffffffffffffffffffffffff16021790555061016082015181600b015561018082015181600c01556101a082015181600d01559050506006829080600181540180825580915050600190039060005260206000200160009091909190915055600783908060018154018082558091505060019003906000526020600020016000909190919091509080519060200190614181929190614a6f565b507f5937a473913f56daf7dea7a6e821970acaa73f35555cf88f70c54f243cd98a9e83836040516141b39291906155b8565b60405180910390a1505050565b82826000600a600084815260200190815260200160002060008373ffffffffffffffffffffffffffffffffffffffff1673ffffffffffffffffffffffffffffffffffffffff168152602001908152602001600020541461421f57600080fd5b600360009054906101000a900473ffffffffffffffffffffffffffffffffffffffff1673ffffffffffffffffffffffffffffffffffffffff163373ffffffffffffffffffffffffffffffffffffffff161461427957600080fd5b6142848585856145e2565b5050505050565b6000600360149054906101000a900460ff16156142a757600080fd5b6142b13383612d07565b9050919050565b6000600360009054906101000a900473ffffffffffffffffffffffffffffffffffffffff1673ffffffffffffffffffffffffffffffffffffffff163373ffffffffffffffffffffffffffffffffffffffff1614905090565b600061431c3383612bfc565b6143295760009050614392565b60011515600c600084815260200190815260200160002060003373ffffffffffffffffffffffffffffffffffffffff1673ffffffffffffffffffffffffffffffffffffffff16815260200190815260200160002060009054906101000a900460ff161515141590505b919050565b6000600360009054906101000a900473ffffffffffffffffffffffffffffffffffffffff16905090565b6000600a600084815260200190815260200160002060008373ffffffffffffffffffffffffffffffffffffffff1673ffffffffffffffffffffffffffffffffffffffff1681526020019081526020016000205490506000600f6000858152602001908152602001600020828154811061443d5761443c615c12565b5b90600052602060002090602091828204019190066101000a81548160ff0219169083151502179055507f021d633158208ba55afbe8aae9878e510cccaf8f1fe2d8c42455d95f58f3b1f083600e600086815260200190815260200160002083815481106144ad576144ac615c12565b5b906000526020600020016040516144c59291906156a5565b60405180910390a1505050565b60016010600083815260200190815260200160002060008473ffffffffffffffffffffffffffffffffffffffff1673ffffffffffffffffffffffffffffffffffffffff16815260200190815260200160002060006101000a81548160ff0219169083151502179055508160086000838152602001908152602001600020600a0160006101000a81548173ffffffffffffffffffffffffffffffffffffffff021916908373ffffffffffffffffffffffffffffffffffffffff1602179055508173ffffffffffffffffffffffffffffffffffffffff167f5fd6d0b7e707fe344bd2a1887f9d0eeea8bfcac6f339ba4200e74f0647f101c0826040516145d6919061562a565b60405180910390a25050565b6000600b600085815260200190815260200160002054141561477257600b6000848152602001908152602001600020600081548092919061462290615b0d565b9190505550600d600084815260200190815260200160002060009080600181540180825580915050600190039060005260206000200160009091909190916101000a81548173ffffffffffffffffffffffffffffffffffffffff021916908373ffffffffffffffffffffffffffffffffffffffff160217905550600f6000848152602001908152602001600020600090806001815401808255809150506001900390600052602060002090602091828204019190069091909190916101000a81548160ff021916908315150217905550600e600084815260200190815260200160002080600181540180825580915050600190039060005260206000200160006040518060400160405280600c81526020017f7a65726f2061646472657373000000000000000000000000000000000000000081525090919091509080519060200190614770929190614a6f565b505b6000600b600085815260200190815260200160002054905080600a600086815260200190815260200160002060008573ffffffffffffffffffffffffffffffffffffffff1673ffffffffffffffffffffffffffffffffffffffff16815260200190815260200160002081905550600d6000858152602001908152602001600020839080600181540180825580915050600190039060005260206000200160009091909190916101000a81548173ffffffffffffffffffffffffffffffffffffffff021916908373ffffffffffffffffffffffffffffffffffffffff160217905550600f6000858152602001908152602001600020600190806001815401808255809150506001900390600052602060002090602091828204019190069091909190916101000a81548160ff021916908315150217905550600e6000858152602001908152602001600020829080600181540180825580915050600190039060005260206000200160009091909190915090805190602001906148f5929190614a6f565b507f88356b104f5ba3e9281d371b21296e4e0390dda6f4bcc4bfc219f6d67cc8ae5084848360405161492993929190615645565b60405180910390a1600b6000858152602001908152602001600020600081548092919061495590615b0d565b919050555050505050565b50805461496c90615aaa565b6000825580601f1061497e575061499d565b601f01602090049060005260206000209081019061499c9190614b8c565b5b50565b50805460008255906000526020600020908101906149be9190614ba9565b50565b50805460008255906000526020600020908101906149df9190614b8c565b50565b8280546149ee90615aaa565b90600052602060002090601f016020900481019282614a105760008555614a5e565b82601f10614a215780548555614a5e565b82800160010185558215614a5e57600052602060002091601f016020900482015b82811115614a5d578254825591600101919060010190614a42565b5b509050614a6b9190614b8c565b5090565b828054614a7b90615aaa565b90600052602060002090601f016020900481019282614a9d5760008555614ae4565b82601f10614ab657805160ff1916838001178555614ae4565b82800160010185558215614ae4579182015b82811115614ae3578251825591602001919060010190614ac8565b5b509050614af19190614b8c565b5090565b604051806101c00160405280600081526020016060815260200160006003811115614b2357614b22615bb4565b5b815260200160008152602001600081526020016000815260200160008152602001606081526020016060815260200160608152602001600073ffffffffffffffffffffffffffffffffffffffff1681526020016000815260200160008152602001600081525090565b5b80821115614ba5576000816000905550600101614b8d565b5090565b5b80821115614bc95760008181614bc09190614960565b50600101614baa565b5090565b6000614be0614bdb8461577d565b615758565b905082815260208101848484011115614bfc57614bfb615c75565b5b614c07848285615a68565b509392505050565b600081359050614c1e81615cf8565b92915050565b600082601f830112614c3957614c38615c70565b5b8135614c49848260208601614bcd565b91505092915050565b600081359050614c6181615d0f565b92915050565b600060208284031215614c7d57614c7c615c7f565b5b6000614c8b84828501614c0f565b91505092915050565b600080600060608486031215614cad57614cac615c7f565b5b6000614cbb86828701614c0f565b935050602084013567ffffffffffffffff811115614cdc57614cdb615c7a565b5b614ce886828701614c24565b9250506040614cf986828701614c52565b9150509250925092565b60008060408385031215614d1a57614d19615c7f565b5b6000614d2885828601614c0f565b9250506020614d3985828601614c52565b9150509250929050565b600060208284031215614d5957614d58615c7f565b5b600082013567ffffffffffffffff811115614d7757614d76615c7a565b5b614d8384828501614c24565b91505092915050565b600060208284031215614da257614da1615c7f565b5b6000614db084828501614c52565b91505092915050565b60008060408385031215614dd057614dcf615c7f565b5b6000614dde85828601614c52565b9250506020614def85828601614c0f565b9150509250929050565b600080600060608486031215614e1257614e11615c7f565b5b6000614e2086828701614c52565b9350506020614e3186828701614c0f565b925050604084013567ffffffffffffffff811115614e5257614e51615c7a565b5b614e5e86828701614c24565b9150509250925092565b60008060008060808587031215614e8257614e81615c7f565b5b6000614e9087828801614c52565b945050602085013567ffffffffffffffff811115614eb157614eb0615c7a565b5b614ebd87828801614c24565b935050604085013567ffffffffffffffff811115614ede57614edd615c7a565b5b614eea87828801614c24565b925050606085013567ffffffffffffffff811115614f0b57614f0a615c7a565b5b614f1787828801614c24565b91505092959194509250565b6000614f2f8383614f7f565b60208301905092915050565b6000614f47838361512c565b60208301905092915050565b6000614f5f8383615177565b905092915050565b6000614f7383836153cf565b60208301905092915050565b614f88816159e9565b82525050565b614f97816159e9565b82525050565b6000614fa882615803565b614fb2818561586e565b9350614fbd836157ae565b8060005b83811015614fee578151614fd58882614f23565b9750614fe08361583a565b925050600181019050614fc1565b5085935050505092915050565b60006150068261580e565b615010818561587f565b935061501b836157be565b8060005b8381101561504c5781516150338882614f3b565b975061503e83615847565b92505060018101905061501f565b5085935050505092915050565b600061506482615819565b61506e8185615890565b935083602082028501615080856157ce565b8060005b858110156150bc578484038952815161509d8582614f53565b94506150a883615854565b925060208a01995050600181019050615084565b50829750879550505050505092915050565b60006150d982615824565b6150e381856158a1565b93506150ee836157de565b8060005b8381101561511f5781516151068882614f67565b975061511183615861565b9250506001810190506150f2565b5085935050505092915050565b615135816159fb565b82525050565b615144816159fb565b82525050565b61515381615a44565b82525050565b61516281615a44565b82525050565b61517181615a56565b82525050565b60006151828261582f565b61518c81856158b2565b935061519c818560208601615a77565b6151a581615c84565b840191505092915050565b60006151bb8261582f565b6151c581856158c3565b93506151d5818560208601615a77565b6151de81615c84565b840191505092915050565b600081546151f681615aaa565b61520081866158c3565b9450600182166000811461521b576001811461522d57615260565b60ff1983168652602086019350615260565b615236856157ee565b60005b8381101561525857815481890152600182019150602081019050615239565b808801955050505b50505092915050565b6000615276602d836158c3565b915061528182615c95565b604082019050919050565b60006101c0830160008301516152a560008601826153cf565b50602083015184820360208601526152bd8282615177565b91505060408301516152d2604086018261514a565b5060608301516152e560608601826153cf565b5060808301516152f860808601826153cf565b5060a083015161530b60a08601826153cf565b5060c083015161531e60c08601826153cf565b5060e083015184820360e08601526153368282615177565b9150506101008301518482036101008601526153528282615177565b91505061012083015184820361012086015261536e8282615177565b915050610140830151615385610140860182614f7f565b5061016083015161539a6101608601826153cf565b506101808301516153af6101808601826153cf565b506101a08301516153c46101a08601826153cf565b508091505092915050565b6153d881615a3a565b82525050565b6153e781615a3a565b82525050565b60006020820190506154026000830184614f8e565b92915050565b600060208201905081810360008301526154228184614f9d565b905092915050565b600060608201905081810360008301526154448186614f9d565b905081810360208301526154588185614ffb565b9050818103604083015261546c8184615059565b9050949350505050565b600060208201905081810360008301526154908184614ffb565b905092915050565b600060208201905081810360008301526154b28184615059565b905092915050565b600060208201905081810360008301526154d481846150ce565b905092915050565b60006020820190506154f1600083018461513b565b92915050565b600060a08201905061550c6000830188615159565b61551960208301876153de565b61552660408301866153de565b61553360608301856153de565b61554060808301846153de565b9695505050505050565b6000602082019050818103600083015261556481846151b0565b905092915050565b6000606082019050818103600083015261558681866151b0565b9050818103602083015261559a81856151b0565b905081810360408301526155ae81846151b0565b9050949350505050565b600060408201905081810360008301526155d281856151b0565b90506155e160208301846153de565b9392505050565b6000602082019050818103600083015261560181615269565b9050919050565b60006020820190508181036000830152615622818461528c565b905092915050565b600060208201905061563f60008301846153de565b92915050565b600060608201905061565a60008301866153de565b6156676020830185614f8e565b61567460408301846153de565b949350505050565b600060408201905061569160008301856153de565b61569e6020830184615168565b9392505050565b60006040820190506156ba60008301856153de565b81810360208301526156cc81846151e9565b90509392505050565b60006080820190506156ea60008301876153de565b81810360208301526156fc81866151e9565b9050818103604083015261571081856151e9565b9050818103606083015261572481846151e9565b905095945050505050565b600060408201905061574460008301856153de565b61575160208301846153de565b9392505050565b6000615762615773565b905061576e8282615adc565b919050565b6000604051905090565b600067ffffffffffffffff82111561579857615797615c41565b5b6157a182615c84565b9050602081019050919050565b6000819050602082019050919050565b6000819050602082019050919050565b6000819050602082019050919050565b6000819050602082019050919050565b60008190508160005260206000209050919050565b600081519050919050565b600081519050919050565b600081519050919050565b600081519050919050565b600081519050919050565b6000602082019050919050565b6000602082019050919050565b6000602082019050919050565b6000602082019050919050565b600082825260208201905092915050565b600082825260208201905092915050565b600082825260208201905092915050565b600082825260208201905092915050565b600082825260208201905092915050565b600082825260208201905092915050565b60006158df82615a3a565b91506158ea83615a3a565b9250827fffffffffffffffffffffffffffffffffffffffffffffffffffffffffffffffff0382111561591f5761591e615b56565b5b828201905092915050565b600061593582615a3a565b915061594083615a3a565b9250826159505761594f615b85565b5b828204905092915050565b600061596682615a3a565b915061597183615a3a565b9250817fffffffffffffffffffffffffffffffffffffffffffffffffffffffffffffffff04831182151516156159aa576159a9615b56565b5b828202905092915050565b60006159c082615a3a565b91506159cb83615a3a565b9250828210156159de576159dd615b56565b5b828203905092915050565b60006159f482615a1a565b9050919050565b60008115159050919050565b6000819050615a1582615ce4565b919050565b600073ffffffffffffffffffffffffffffffffffffffff82169050919050565b6000819050919050565b6000615a4f82615a07565b9050919050565b6000615a6182615a3a565b9050919050565b82818337600083830152505050565b60005b83811015615a95578082015181840152602081019050615a7a565b83811115615aa4576000848401525b50505050565b60006002820490506001821680615ac257607f821691505b60208210811415615ad657615ad5615be3565b5b50919050565b615ae582615c84565b810181811067ffffffffffffffff82111715615b0457615b03615c41565b5b80604052505050565b6000615b1882615a3a565b91507fffffffffffffffffffffffffffffffffffffffffffffffffffffffffffffffff821415615b4b57615b4a615b56565b5b600182019050919050565b7f4e487b7100000000000000000000000000000000000000000000000000000000600052601160045260246000fd5b7f4e487b7100000000000000000000000000000000000000000000000000000000600052601260045260246000fd5b7f4e487b7100000000000000000000000000000000000000000000000000000000600052602160045260246000fd5b7f4e487b7100000000000000000000000000000000000000000000000000000000600052602260045260246000fd5b7f4e487b7100000000000000000000000000000000000000000000000000000000600052603260045260246000fd5b7f4e487b7100000000000000000000000000000000000000000000000000000000600052604160045260246000fd5b600080fd5b600080fd5b600080fd5b600080fd5b6000601f19601f8301169050919050565b7f43616e277420656e6420726567697374726174696f6e2077697468207a65726f60008201527f2072656769737472616e74732100000000000000000000000000000000000000602082015250565b60048110615cf557615cf4615bb4565b5b50565b615d01816159e9565b8114615d0c57600080fd5b50565b615d1881615a3a565b8114615d2357600080fd5b5056fea2646970667358221220726eb3e3798b39526b1124d2cc373fae5747d9c46fccc6467acafdf1e15aa48f64736f6c63430008070033",
  "immutableReferences": {},
  "source": "// SPDX-License-Identifier: MIT\npragma solidity ^0.8.0;\n\nimport \"./ContributorManager.sol\";\n\ncontract AdminsManager is ContributorManager {\n    event GroupCreated(string groupName, uint256 groupId);\n    event EventStarted(address indexed startedBy, uint256 groupId);\n    event RegistrationEnded(address indexed endedBy, uint256 groupId);\n    event EventEnded(address indexed endedBy, uint256 groupId);\n    event AdminAdded(uint256 groupId, address account, uint index);\n    event AdminRemoved(uint256 groupId, string name);\n    event AdminReEnabled(uint256 groupId, string name);\n\n    event CalculatedPot(\n        uint256 registeredRecipientCount,\n        uint256 winningsPerRecipient\n    );\n\n    constructor() {}\n\n    modifier onlyAdmins(uint256 groupId) {\n        require(isAdmin(msg.sender, groupId));\n        _;\n    }\n\n    modifier wasntAlreadyAnAdmin(uint256 groupId, address account) {\n        require(adminAddressToIndex[groupId][account] == 0);\n        _;\n    }\n\n    function isAdmin(address account, uint256 groupId)\n        public\n        view\n        returns (bool)\n    {\n        uint256 adminIndex = adminAddressToIndex[groupId][account];\n\n        // if user was never an admin, return false\n        if (adminIndex == 0) {\n            return false;\n        }\n\n        return adminEnabled[groupId][adminIndex] == true;\n    }\n\n    function getMyAdminIndex(uint256 groupId) external view returns (uint256) {\n        return adminAddressToIndex[groupId][msg.sender];\n    }\n\n    // TODO - allow COO to give \"admin-granting power\" to other admins\n    function addAdmin(uint256 groupId, address account, string memory name) external \n        wasntAlreadyAnAdmin(groupId, account) onlyCOO {\n        _addAdmin(groupId, account, name);\n    }\n\n    // debug\n    function getAddressNextAdminIndex(uint256 groupId)\n        external\n        view\n        returns (uint256)\n    {\n        return nextAdminIndexForGroup[groupId];\n    }\n\n    function amIAdmin(uint256 groupId) external view returns (bool) {\n        return isAdmin(msg.sender, groupId);\n    }\n\n    function getAdminsForGroup(uint256 groupId)\n        external\n        view\n        returns (address[] memory, bool[] memory, string[] memory)\n    {\n        return (adminAddresses[groupId], adminEnabled[groupId], adminNames[groupId]);\n    }\n\n    modifier onlyAdminsOrCOO(uint256 groupId) {\n        require(isAdmin(msg.sender, groupId) || msg.sender == cooAddress);\n        _;\n    }\n\n    function reEnableAdmin(uint256 groupId, address account) external onlyCOO {\n        uint256 index = adminAddressToIndex[groupId][account];\n        adminEnabled[groupId][index] = true;\n        emit AdminReEnabled(groupId, adminNames[groupId][index]);\n    }\n\n    function removeAdmin(uint256 groupId, address account) external onlyCOO {\n        _removeAdmin(groupId, account);\n    }\n\n    function renounceAdmin(uint256 groupId) public onlyAdmins(groupId) {\n        _removeAdmin(groupId, msg.sender);\n    }\n\n    function _addAdmin(uint256 groupId, address account, string memory name) internal {\n        \n        // if first user, use index 1 and push some garbage things at the 0 index\n        if (nextAdminIndexForGroup[groupId] == 0) {\n            nextAdminIndexForGroup[groupId]++;\n\n            adminAddresses[groupId].push(address(0));\n            adminEnabled[groupId].push(false);\n            adminNames[groupId].push(\"zero address\");\n        }\n\n        uint index = nextAdminIndexForGroup[groupId];\n        adminAddressToIndex[groupId][account] = index;\n        \n        adminAddresses[groupId].push(account);\n        adminEnabled[groupId].push(true);\n        adminNames[groupId].push(name);\n        \n        emit AdminAdded(groupId, account, index);\n\n        nextAdminIndexForGroup[groupId]++;\n\n    }\n\n    \n\n    function _removeAdmin(uint256 groupId, address account) internal {\n        \n        uint256 index = adminAddressToIndex[groupId][account];\n        \n        adminEnabled[groupId][index] = false;\n\n        emit AdminRemoved(groupId, adminNames[groupId][index]);\n    }\n\n    function readEventInfo(uint256 groupId)\n        external\n        view\n        onlyAdmins(groupId)\n        returns (EthDropEvent memory)\n    {\n        return currentEvents[groupId];\n    }\n\n    function createNewGroup(string memory groupName)\n        external\n        onlyCOO\n        whenNotPaused\n    {\n        // TODO - is this the best way to set the groupId? \n        uint256 newGroupId = block.timestamp;\n\n        EthDropEvent memory newGroup = EthDropEvent(\n            newGroupId,\n            groupName,\n            EventState.CREATED,\n            block.timestamp,\n            block.timestamp,\n            block.timestamp,\n            0,\n            \"\",\n            \"\",\n            \"\",\n            address(0),\n            0,\n            0,\n            0\n        );\n\n        currentEvents[newGroupId] = newGroup;\n\n        listOfGroupIds.push(newGroupId);\n        listOfGroupNames.push(groupName);\n\n        emit GroupCreated(groupName, newGroupId);\n    }\n\n    function startEvent(uint256 groupId)\n        external\n        onlyAdmins(groupId)\n        whenNotPaused\n    {\n        currentEvents[groupId].currentState = EventState.REGISTRATION;\n        currentEvents[groupId].startTime = block.timestamp;\n\n        emit EventStarted(msg.sender, groupId);\n    }\n\n    function closeEventRegistration(uint256 groupId)\n        external\n        onlyAdmins(groupId)\n        whenNotPaused\n    {\n        require(\n            currentEvents[groupId].registeredRecipientsCount >= 1,\n            \"Can't end registration with zero registrants!\"\n        );\n\n        currentEvents[groupId].registrationEndTime = block.timestamp;\n\n        uint256 devCutWei = (currentEvents[groupId].totalAmountContributed *\n            devCutPercentage) / 100;\n\n        // Transfer dev cut to cfo\n        payable(cfoAddress).transfer(devCutWei);\n\n        // pot is the amount for recipients to share\n        uint256 pot = currentEvents[groupId].totalAmountContributed - devCutWei;\n\n        // each recipient's winnings is the \"weiWinnings\"\n        currentEvents[groupId].weiWinnings =\n            pot /\n            currentEvents[groupId].registeredRecipientsCount;\n\n        currentEvents[groupId].currentState = EventState.CLAIM_WINNINGS;\n\n        emit RegistrationEnded(msg.sender, groupId);\n    }\n\n    function endEvent(uint256 groupId)\n        external\n        onlyAdminsOrCOO(groupId)\n        whenNotPaused\n    {\n        currentEvents[groupId].endTime = block.timestamp;\n\n        currentEvents[groupId].currentState = EventState.ENDED;\n\n        // First delete mappings, then arrays\n        for (\n            uint256 i = 0;\n            i < currentEvents[groupId].registeredRecipientsCount;\n            i++\n        ) {\n            address currentAddress = registeredRecipientAddressesArray[groupId][\n                i\n            ];\n\n            delete registeredRecipients[groupId][currentAddress];\n            delete recipientAddressToName[groupId][currentAddress];\n            delete winningsCollected[groupId][currentAddress];\n        }\n\n        delete registeredRecipientNamesArray[groupId];\n        delete registeredRecipientAddressesArray[groupId];\n\n        pastEvents[groupId].push(currentEvents[groupId]);\n\n        currentEvents[groupId].registeredRecipientsCount = 0;\n        currentEvents[groupId].totalAmountContributed = 0;\n        currentEvents[groupId].weiWinnings = 0;\n        currentEvents[groupId].numberOfUsersWhoClaimedWinnings = 0;\n\n        emit ContributionMade(msg.sender, groupId, 0);\n        emit RecipientRegistered(msg.sender, groupId);\n        emit EventEnded(msg.sender, groupId);\n    }\n\n    function addEligibleRecipient(\n        address account,\n        string memory name,\n        uint256 groupId\n    ) external whenNotPaused onlyAdmins(groupId) {\n        eligibleRecipients[groupId][account] = true;\n\n        eligibleRecipientAddressesArray[groupId].push(account);\n        eligibleRecipientNamesArray[groupId].push(name);\n\n        recipientAddressToName[groupId][account] = name;\n        eligibleRecipientsEligibilityIsEnabled[groupId].push(true);\n\n        emit EligibleRecipientAdded(account, groupId);\n    }\n\n    function removeEligibleRecipient(address account, uint256 groupId)\n        external\n        onlyAdmins(groupId)\n        whenNotPaused\n    {\n        eligibleRecipients[groupId][account] = false;\n        emit EligibleRecipientRemoved(account, groupId);\n    }\n\n    function changeContributor(address account, uint256 groupId)\n        external\n        onlyAdminsOrCOO(groupId)\n        whenNotPaused\n    {\n        _changeContributor(account, groupId);\n    }\n}\n",
  "sourcePath": "/Users/jim/temp-projects/EthDrop/contracts/roles/AdminsManager.sol",
  "compiler": {
    "name": "solc",
    "version": "0.8.7+commit.e28d00a7.Emscripten.clang"
  },
  "schemaVersion": "3.4.2",
  "updatedAt": "2021-08-22T21:09:33.888Z",
  "networkType": "ethereum",
  "devdoc": {
    "kind": "dev",
    "methods": {
      "pause()": {
        "details": "Called by any \"C-level\" role to pause the contract. Used only when  a bug or exploit is detected and we need to limit damage."
      },
      "setCEO(address)": {
        "details": "Assigns a new address to act as the CEO. Only available to the current CEO.",
        "params": {
          "_newCEO": "The address of the new CEO"
        }
      },
      "setCFO(address)": {
        "details": "Assigns a new address to act as the CFO. Only available to the current CEO.",
        "params": {
          "_newCFO": "The address of the new CFO"
        }
      },
      "setCOO(address)": {
        "details": "Assigns a new address to act as the COO. Only available to the current CEO.",
        "params": {
          "_newCOO": "The address of the new COO"
        }
      },
      "unpause()": {
        "details": "Unpauses the smart contract. Can only be called by the CEO, since  one reason we may pause the contract is when CFO or COO accounts are  compromised."
      }
    },
    "version": 1
  },
  "userdoc": {
    "kind": "user",
    "methods": {
      "unpause()": {
        "notice": "This is public rather than external so it can be called by  derived contracts."
      }
    },
    "version": 1
  }
}