{
  "contractName": "AdminsManager",
  "abi": [
    {
      "inputs": [],
      "stateMutability": "nonpayable",
      "type": "constructor"
    },
    {
      "anonymous": false,
      "inputs": [
        {
          "indexed": false,
          "internalType": "uint256",
          "name": "groupId",
          "type": "uint256"
        },
        {
          "indexed": false,
          "internalType": "address",
          "name": "account",
          "type": "address"
        },
        {
          "indexed": false,
          "internalType": "uint256",
          "name": "index",
          "type": "uint256"
        }
      ],
      "name": "AdminAdded",
      "type": "event"
    },
    {
      "anonymous": false,
      "inputs": [
        {
          "indexed": false,
          "internalType": "uint256",
          "name": "groupId",
          "type": "uint256"
        },
        {
          "indexed": false,
          "internalType": "string",
          "name": "name",
          "type": "string"
        }
      ],
      "name": "AdminReEnabled",
      "type": "event"
    },
    {
      "anonymous": false,
      "inputs": [
        {
          "indexed": false,
          "internalType": "uint256",
          "name": "groupId",
          "type": "uint256"
        },
        {
          "indexed": false,
          "internalType": "string",
          "name": "name",
          "type": "string"
        }
      ],
      "name": "AdminRemoved",
      "type": "event"
    },
    {
      "anonymous": false,
      "inputs": [
        {
          "indexed": false,
          "internalType": "bool",
          "name": "isPaused",
          "type": "bool"
        }
      ],
      "name": "AppPaused",
      "type": "event"
    },
    {
      "anonymous": false,
      "inputs": [
        {
          "indexed": false,
          "internalType": "uint256",
          "name": "registeredRecipientCount",
          "type": "uint256"
        },
        {
          "indexed": false,
          "internalType": "uint256",
          "name": "winningsPerRecipient",
          "type": "uint256"
        }
      ],
      "name": "CalculatedPot",
      "type": "event"
    },
    {
      "anonymous": false,
      "inputs": [],
      "name": "CfoUpdated",
      "type": "event"
    },
    {
      "anonymous": false,
      "inputs": [
        {
          "indexed": false,
          "internalType": "address",
          "name": "newContract",
          "type": "address"
        }
      ],
      "name": "ContractUpgrade",
      "type": "event"
    },
    {
      "anonymous": false,
      "inputs": [
        {
          "indexed": true,
          "internalType": "address",
          "name": "account",
          "type": "address"
        },
        {
          "indexed": false,
          "internalType": "uint256",
          "name": "groupId",
          "type": "uint256"
        },
        {
          "indexed": false,
          "internalType": "uint256",
          "name": "amount",
          "type": "uint256"
        }
      ],
      "name": "ContributionMade",
      "type": "event"
    },
    {
      "anonymous": false,
      "inputs": [
        {
          "indexed": true,
          "internalType": "address",
          "name": "account",
          "type": "address"
        },
        {
          "indexed": false,
          "internalType": "uint256",
          "name": "groupId",
          "type": "uint256"
        }
      ],
      "name": "ContributorAdded",
      "type": "event"
    },
    {
      "anonymous": false,
      "inputs": [
        {
          "indexed": false,
          "internalType": "uint256",
          "name": "groupId",
          "type": "uint256"
        },
        {
          "indexed": false,
          "internalType": "address",
          "name": "newContributor",
          "type": "address"
        }
      ],
      "name": "ContributorAddressUpdated",
      "type": "event"
    },
    {
      "anonymous": false,
      "inputs": [
        {
          "indexed": false,
          "internalType": "uint256",
          "name": "groupId",
          "type": "uint256"
        },
        {
          "indexed": false,
          "internalType": "string",
          "name": "sponsorName",
          "type": "string"
        },
        {
          "indexed": false,
          "internalType": "string",
          "name": "imgUrl",
          "type": "string"
        },
        {
          "indexed": false,
          "internalType": "string",
          "name": "imgLinkToUrl",
          "type": "string"
        }
      ],
      "name": "ContributorInfoUpdated",
      "type": "event"
    },
    {
      "anonymous": false,
      "inputs": [
        {
          "indexed": true,
          "internalType": "address",
          "name": "account",
          "type": "address"
        },
        {
          "indexed": false,
          "internalType": "uint256",
          "name": "groupId",
          "type": "uint256"
        }
      ],
      "name": "ContributorRemoved",
      "type": "event"
    },
    {
      "anonymous": false,
      "inputs": [],
      "name": "CooUpdated",
      "type": "event"
    },
    {
      "anonymous": false,
      "inputs": [
        {
          "indexed": true,
          "internalType": "address",
          "name": "account",
          "type": "address"
        },
        {
          "indexed": false,
          "internalType": "uint256",
          "name": "groupId",
          "type": "uint256"
        }
      ],
      "name": "EligibleRecipientAdded",
      "type": "event"
    },
    {
      "anonymous": false,
      "inputs": [
        {
          "indexed": true,
          "internalType": "address",
          "name": "account",
          "type": "address"
        },
        {
          "indexed": false,
          "internalType": "uint256",
          "name": "groupId",
          "type": "uint256"
        }
      ],
      "name": "EligibleRecipientRemoved",
      "type": "event"
    },
    {
      "anonymous": false,
      "inputs": [],
      "name": "EventClose",
      "type": "event"
    },
    {
      "anonymous": false,
      "inputs": [
        {
          "indexed": false,
          "internalType": "uint256",
          "name": "groupId",
          "type": "uint256"
        },
        {
          "indexed": true,
          "internalType": "address",
          "name": "endedBy",
          "type": "address"
        }
      ],
      "name": "EventEnded",
      "type": "event"
    },
    {
      "anonymous": false,
      "inputs": [
        {
          "indexed": false,
          "internalType": "uint256",
          "name": "groupId",
          "type": "uint256"
        },
        {
          "indexed": true,
          "internalType": "address",
          "name": "startedBy",
          "type": "address"
        }
      ],
      "name": "EventStarted",
      "type": "event"
    },
    {
      "anonymous": false,
      "inputs": [
        {
          "indexed": false,
          "internalType": "uint256",
          "name": "groupId",
          "type": "uint256"
        },
        {
          "indexed": false,
          "internalType": "address",
          "name": "account",
          "type": "address"
        },
        {
          "indexed": false,
          "internalType": "uint256",
          "name": "index",
          "type": "uint256"
        }
      ],
      "name": "GettingMyAdminIndex",
      "type": "event"
    },
    {
      "anonymous": false,
      "inputs": [
        {
          "indexed": false,
          "internalType": "uint256",
          "name": "groupId",
          "type": "uint256"
        },
        {
          "indexed": false,
          "internalType": "string",
          "name": "groupName",
          "type": "string"
        }
      ],
      "name": "GroupCreated",
      "type": "event"
    },
    {
      "anonymous": false,
      "inputs": [
        {
          "indexed": false,
          "internalType": "uint256",
          "name": "groupId",
          "type": "uint256"
        },
        {
          "indexed": false,
          "internalType": "address",
          "name": "addressOfUserGettingApproved",
          "type": "address"
        },
        {
          "indexed": false,
          "internalType": "string",
          "name": "nameOfUserGettingApproved",
          "type": "string"
        }
      ],
      "name": "NewJoinerRequestApproved",
      "type": "event"
    },
    {
      "anonymous": false,
      "inputs": [
        {
          "indexed": false,
          "internalType": "uint256",
          "name": "groupId",
          "type": "uint256"
        },
        {
          "indexed": false,
          "internalType": "address",
          "name": "account",
          "type": "address"
        },
        {
          "indexed": false,
          "internalType": "uint256",
          "name": "index",
          "type": "uint256"
        }
      ],
      "name": "NewUserRequestedToJoinGroup",
      "type": "event"
    },
    {
      "anonymous": false,
      "inputs": [
        {
          "indexed": true,
          "internalType": "address",
          "name": "account",
          "type": "address"
        },
        {
          "indexed": false,
          "internalType": "uint256",
          "name": "groupId",
          "type": "uint256"
        }
      ],
      "name": "RecipientRegistered",
      "type": "event"
    },
    {
      "anonymous": false,
      "inputs": [
        {
          "indexed": false,
          "internalType": "uint256",
          "name": "groupId",
          "type": "uint256"
        },
        {
          "indexed": true,
          "internalType": "address",
          "name": "endedBy",
          "type": "address"
        }
      ],
      "name": "RegistrationEnded",
      "type": "event"
    },
    {
      "anonymous": false,
      "inputs": [],
      "name": "RegistrationOpen",
      "type": "event"
    },
    {
      "anonymous": false,
      "inputs": [
        {
          "indexed": false,
          "internalType": "address",
          "name": "from",
          "type": "address"
        },
        {
          "indexed": false,
          "internalType": "address",
          "name": "to",
          "type": "address"
        }
      ],
      "name": "Transfer",
      "type": "event"
    },
    {
      "anonymous": false,
      "inputs": [
        {
          "indexed": true,
          "internalType": "address",
          "name": "account",
          "type": "address"
        },
        {
          "indexed": false,
          "internalType": "uint256",
          "name": "groupId",
          "type": "uint256"
        }
      ],
      "name": "WinningsClaimed",
      "type": "event"
    },
    {
      "anonymous": false,
      "inputs": [],
      "name": "WinningsClaimingOpen",
      "type": "event"
    },
    {
      "inputs": [
        {
          "internalType": "uint256",
          "name": "groupId",
          "type": "uint256"
        }
      ],
      "name": "amIContributor",
      "outputs": [
        {
          "internalType": "bool",
          "name": "",
          "type": "bool"
        }
      ],
      "stateMutability": "view",
      "type": "function",
      "constant": true
    },
    {
      "inputs": [
        {
          "internalType": "uint256",
          "name": "groupId",
          "type": "uint256"
        }
      ],
      "name": "amIEligibleRecipient",
      "outputs": [
        {
          "internalType": "bool",
          "name": "",
          "type": "bool"
        }
      ],
      "stateMutability": "view",
      "type": "function",
      "constant": true
    },
    {
      "inputs": [
        {
          "internalType": "uint256",
          "name": "groupId",
          "type": "uint256"
        }
      ],
      "name": "amIPendingNewJoiner",
      "outputs": [
        {
          "internalType": "bool",
          "name": "",
          "type": "bool"
        }
      ],
      "stateMutability": "view",
      "type": "function",
      "constant": true
    },
    {
      "inputs": [
        {
          "internalType": "uint256",
          "name": "groupId",
          "type": "uint256"
        }
      ],
      "name": "amIRegisteredRecipient",
      "outputs": [
        {
          "internalType": "bool",
          "name": "",
          "type": "bool"
        }
      ],
      "stateMutability": "view",
      "type": "function",
      "constant": true
    },
    {
      "inputs": [],
      "name": "ceoAddress",
      "outputs": [
        {
          "internalType": "address",
          "name": "",
          "type": "address"
        }
      ],
      "stateMutability": "view",
      "type": "function",
      "constant": true
    },
    {
      "inputs": [],
      "name": "cfoAddress",
      "outputs": [
        {
          "internalType": "address",
          "name": "",
          "type": "address"
        }
      ],
      "stateMutability": "view",
      "type": "function",
      "constant": true
    },
    {
      "inputs": [
        {
          "internalType": "uint256",
          "name": "groupId",
          "type": "uint256"
        }
      ],
      "name": "claimWinnings",
      "outputs": [],
      "stateMutability": "nonpayable",
      "type": "function"
    },
    {
      "inputs": [
        {
          "internalType": "uint256",
          "name": "groupId",
          "type": "uint256"
        }
      ],
      "name": "contributeToPot",
      "outputs": [],
      "stateMutability": "payable",
      "type": "function",
      "payable": true
    },
    {
      "inputs": [],
      "name": "cooAddress",
      "outputs": [
        {
          "internalType": "address",
          "name": "",
          "type": "address"
        }
      ],
      "stateMutability": "view",
      "type": "function",
      "constant": true
    },
    {
      "inputs": [
        {
          "internalType": "uint256",
          "name": "groupId",
          "type": "uint256"
        }
      ],
      "name": "doIHaveClaimableWinnings",
      "outputs": [
        {
          "internalType": "bool",
          "name": "hasclaimableWinnings",
          "type": "bool"
        }
      ],
      "stateMutability": "view",
      "type": "function",
      "constant": true
    },
    {
      "inputs": [],
      "name": "getCFO",
      "outputs": [
        {
          "internalType": "address",
          "name": "",
          "type": "address"
        }
      ],
      "stateMutability": "view",
      "type": "function",
      "constant": true
    },
    {
      "inputs": [],
      "name": "getCOO",
      "outputs": [
        {
          "internalType": "address",
          "name": "",
          "type": "address"
        }
      ],
      "stateMutability": "view",
      "type": "function",
      "constant": true
    },
    {
      "inputs": [
        {
          "internalType": "uint256",
          "name": "groupId",
          "type": "uint256"
        }
      ],
      "name": "getContributorInfo",
      "outputs": [
        {
          "internalType": "string",
          "name": "newContributorName",
          "type": "string"
        },
        {
          "internalType": "string",
          "name": "newContributorImgUrl",
          "type": "string"
        },
        {
          "internalType": "string",
          "name": "newContributorLinkToUrl",
          "type": "string"
        }
      ],
      "stateMutability": "view",
      "type": "function",
      "constant": true
    },
    {
      "inputs": [
        {
          "internalType": "uint256",
          "name": "groupId",
          "type": "uint256"
        }
      ],
      "name": "getCurrentSponsorAddress",
      "outputs": [
        {
          "internalType": "address",
          "name": "",
          "type": "address"
        }
      ],
      "stateMutability": "view",
      "type": "function",
      "constant": true
    },
    {
      "inputs": [
        {
          "internalType": "uint256",
          "name": "groupId",
          "type": "uint256"
        }
      ],
      "name": "getEligibleRecipientAddresses",
      "outputs": [
        {
          "internalType": "address[]",
          "name": "",
          "type": "address[]"
        }
      ],
      "stateMutability": "view",
      "type": "function",
      "constant": true
    },
    {
      "inputs": [
        {
          "internalType": "uint256",
          "name": "groupId",
          "type": "uint256"
        }
      ],
      "name": "getEligibleRecipientIsEligibilityEnabled",
      "outputs": [
        {
          "internalType": "bool[]",
          "name": "",
          "type": "bool[]"
        }
      ],
      "stateMutability": "view",
      "type": "function",
      "constant": true
    },
    {
      "inputs": [
        {
          "internalType": "uint256",
          "name": "groupId",
          "type": "uint256"
        }
      ],
      "name": "getEligibleRecipientNames",
      "outputs": [
        {
          "internalType": "string[]",
          "name": "",
          "type": "string[]"
        }
      ],
      "stateMutability": "view",
      "type": "function",
      "constant": true
    },
    {
      "inputs": [
        {
          "internalType": "uint256",
          "name": "groupId",
          "type": "uint256"
        }
      ],
      "name": "getEligibleRecipientsHasCollectedWinnings",
      "outputs": [
        {
          "internalType": "bool[]",
          "name": "",
          "type": "bool[]"
        }
      ],
      "stateMutability": "view",
      "type": "function",
      "constant": true
    },
    {
      "inputs": [
        {
          "internalType": "uint256",
          "name": "groupId",
          "type": "uint256"
        }
      ],
      "name": "getGroupEventData",
      "outputs": [
        {
          "internalType": "enum EthDropBase.EventState",
          "name": "",
          "type": "uint8"
        },
        {
          "internalType": "uint256",
          "name": "",
          "type": "uint256"
        },
        {
          "internalType": "uint256",
          "name": "",
          "type": "uint256"
        },
        {
          "internalType": "uint256",
          "name": "",
          "type": "uint256"
        },
        {
          "internalType": "uint256",
          "name": "",
          "type": "uint256"
        }
      ],
      "stateMutability": "view",
      "type": "function",
      "constant": true
    },
    {
      "inputs": [],
      "name": "getGroupIds",
      "outputs": [
        {
          "internalType": "uint256[]",
          "name": "",
          "type": "uint256[]"
        }
      ],
      "stateMutability": "view",
      "type": "function",
      "constant": true
    },
    {
      "inputs": [],
      "name": "getGroupNames",
      "outputs": [
        {
          "internalType": "string[]",
          "name": "",
          "type": "string[]"
        }
      ],
      "stateMutability": "view",
      "type": "function",
      "constant": true
    },
    {
      "inputs": [
        {
          "internalType": "uint256",
          "name": "groupId",
          "type": "uint256"
        }
      ],
      "name": "getGroupPublicData",
      "outputs": [
        {
          "internalType": "uint256",
          "name": "",
          "type": "uint256"
        },
        {
          "internalType": "string",
          "name": "",
          "type": "string"
        },
        {
          "internalType": "enum EthDropBase.EventState",
          "name": "",
          "type": "uint8"
        },
        {
          "internalType": "uint256",
          "name": "",
          "type": "uint256"
        },
        {
          "internalType": "uint256",
          "name": "",
          "type": "uint256"
        },
        {
          "internalType": "uint256",
          "name": "",
          "type": "uint256"
        },
        {
          "internalType": "uint256",
          "name": "",
          "type": "uint256"
        }
      ],
      "stateMutability": "view",
      "type": "function",
      "constant": true
    },
    {
      "inputs": [
        {
          "internalType": "uint256",
          "name": "groupId",
          "type": "uint256"
        }
      ],
      "name": "getRegisteredRecipientNames",
      "outputs": [
        {
          "internalType": "string[]",
          "name": "",
          "type": "string[]"
        }
      ],
      "stateMutability": "view",
      "type": "function",
      "constant": true
    },
    {
      "inputs": [
        {
          "internalType": "uint256",
          "name": "groupId",
          "type": "uint256"
        }
      ],
      "name": "getRegisteredRecipients",
      "outputs": [
        {
          "internalType": "address[]",
          "name": "",
          "type": "address[]"
        },
        {
          "internalType": "string[]",
          "name": "",
          "type": "string[]"
        },
        {
          "internalType": "bool[]",
          "name": "",
          "type": "bool[]"
        }
      ],
      "stateMutability": "view",
      "type": "function",
      "constant": true
    },
    {
      "inputs": [],
      "name": "getString",
      "outputs": [
        {
          "internalType": "string",
          "name": "",
          "type": "string"
        }
      ],
      "stateMutability": "view",
      "type": "function",
      "constant": true
    },
    {
      "inputs": [],
      "name": "isCEO",
      "outputs": [
        {
          "internalType": "bool",
          "name": "",
          "type": "bool"
        }
      ],
      "stateMutability": "view",
      "type": "function",
      "constant": true
    },
    {
      "inputs": [],
      "name": "isCFO",
      "outputs": [
        {
          "internalType": "bool",
          "name": "",
          "type": "bool"
        }
      ],
      "stateMutability": "view",
      "type": "function",
      "constant": true
    },
    {
      "inputs": [],
      "name": "isCOO",
      "outputs": [
        {
          "internalType": "bool",
          "name": "",
          "type": "bool"
        }
      ],
      "stateMutability": "view",
      "type": "function",
      "constant": true
    },
    {
      "inputs": [
        {
          "internalType": "address",
          "name": "account",
          "type": "address"
        },
        {
          "internalType": "uint256",
          "name": "groupId",
          "type": "uint256"
        }
      ],
      "name": "isContributor",
      "outputs": [
        {
          "internalType": "bool",
          "name": "",
          "type": "bool"
        }
      ],
      "stateMutability": "view",
      "type": "function",
      "constant": true
    },
    {
      "inputs": [
        {
          "internalType": "address",
          "name": "account",
          "type": "address"
        },
        {
          "internalType": "uint256",
          "name": "groupId",
          "type": "uint256"
        }
      ],
      "name": "isEligibleRecipient",
      "outputs": [
        {
          "internalType": "bool",
          "name": "",
          "type": "bool"
        }
      ],
      "stateMutability": "view",
      "type": "function",
      "constant": true
    },
    {
      "inputs": [],
      "name": "isPaused",
      "outputs": [
        {
          "internalType": "bool",
          "name": "",
          "type": "bool"
        }
      ],
      "stateMutability": "view",
      "type": "function",
      "constant": true
    },
    {
      "inputs": [
        {
          "internalType": "address",
          "name": "account",
          "type": "address"
        },
        {
          "internalType": "uint256",
          "name": "groupId",
          "type": "uint256"
        }
      ],
      "name": "isRegisteredRecipient",
      "outputs": [
        {
          "internalType": "bool",
          "name": "",
          "type": "bool"
        }
      ],
      "stateMutability": "view",
      "type": "function",
      "constant": true
    },
    {
      "inputs": [],
      "name": "pause",
      "outputs": [],
      "stateMutability": "nonpayable",
      "type": "function"
    },
    {
      "inputs": [],
      "name": "paused",
      "outputs": [
        {
          "internalType": "bool",
          "name": "",
          "type": "bool"
        }
      ],
      "stateMutability": "view",
      "type": "function",
      "constant": true
    },
    {
      "inputs": [
        {
          "internalType": "uint256",
          "name": "groupId",
          "type": "uint256"
        }
      ],
      "name": "registerForEvent",
      "outputs": [],
      "stateMutability": "nonpayable",
      "type": "function"
    },
    {
      "inputs": [
        {
          "internalType": "uint256",
          "name": "groupId",
          "type": "uint256"
        },
        {
          "internalType": "string",
          "name": "username",
          "type": "string"
        }
      ],
      "name": "requestToJoinGroup",
      "outputs": [],
      "stateMutability": "nonpayable",
      "type": "function"
    },
    {
      "inputs": [
        {
          "internalType": "address",
          "name": "_newCEO",
          "type": "address"
        }
      ],
      "name": "setCEO",
      "outputs": [],
      "stateMutability": "nonpayable",
      "type": "function"
    },
    {
      "inputs": [
        {
          "internalType": "address",
          "name": "_newCFO",
          "type": "address"
        }
      ],
      "name": "setCFO",
      "outputs": [],
      "stateMutability": "nonpayable",
      "type": "function"
    },
    {
      "inputs": [
        {
          "internalType": "address",
          "name": "_newCOO",
          "type": "address"
        }
      ],
      "name": "setCOO",
      "outputs": [],
      "stateMutability": "nonpayable",
      "type": "function"
    },
    {
      "inputs": [
        {
          "internalType": "string",
          "name": "_s",
          "type": "string"
        }
      ],
      "name": "setString",
      "outputs": [],
      "stateMutability": "nonpayable",
      "type": "function"
    },
    {
      "inputs": [],
      "name": "stringgg",
      "outputs": [
        {
          "internalType": "string",
          "name": "",
          "type": "string"
        }
      ],
      "stateMutability": "view",
      "type": "function",
      "constant": true
    },
    {
      "inputs": [],
      "name": "unpause",
      "outputs": [
        {
          "internalType": "bool",
          "name": "",
          "type": "bool"
        }
      ],
      "stateMutability": "nonpayable",
      "type": "function"
    },
    {
      "inputs": [
        {
          "internalType": "uint256",
          "name": "groupId",
          "type": "uint256"
        },
        {
          "internalType": "string",
          "name": "newContributorName",
          "type": "string"
        },
        {
          "internalType": "string",
          "name": "newContributorImgUrl",
          "type": "string"
        },
        {
          "internalType": "string",
          "name": "newContributorLinkToUrl",
          "type": "string"
        }
      ],
      "name": "updateContributorInfo",
      "outputs": [],
      "stateMutability": "nonpayable",
      "type": "function"
    },
    {
      "inputs": [],
      "name": "whoami",
      "outputs": [
        {
          "internalType": "address",
          "name": "",
          "type": "address"
        }
      ],
      "stateMutability": "view",
      "type": "function",
      "constant": true
    },
    {
      "inputs": [
        {
          "internalType": "address",
          "name": "account",
          "type": "address"
        },
        {
          "internalType": "uint256",
          "name": "groupId",
          "type": "uint256"
        }
      ],
      "name": "isAdmin",
      "outputs": [
        {
          "internalType": "bool",
          "name": "",
          "type": "bool"
        }
      ],
      "stateMutability": "view",
      "type": "function",
      "constant": true
    },
    {
      "inputs": [
        {
          "internalType": "uint256",
          "name": "groupId",
          "type": "uint256"
        }
      ],
      "name": "getMyAdminIndex",
      "outputs": [
        {
          "internalType": "uint256",
          "name": "",
          "type": "uint256"
        }
      ],
      "stateMutability": "view",
      "type": "function",
      "constant": true
    },
    {
      "inputs": [
        {
          "internalType": "uint256",
          "name": "groupId",
          "type": "uint256"
        },
        {
          "internalType": "address",
          "name": "account",
          "type": "address"
        },
        {
          "internalType": "string",
          "name": "name",
          "type": "string"
        }
      ],
      "name": "addAdmin",
      "outputs": [],
      "stateMutability": "nonpayable",
      "type": "function"
    },
    {
      "inputs": [
        {
          "internalType": "uint256",
          "name": "groupId",
          "type": "uint256"
        }
      ],
      "name": "getAddressNextAdminIndex",
      "outputs": [
        {
          "internalType": "uint256",
          "name": "",
          "type": "uint256"
        }
      ],
      "stateMutability": "view",
      "type": "function",
      "constant": true
    },
    {
      "inputs": [
        {
          "internalType": "uint256",
          "name": "groupId",
          "type": "uint256"
        }
      ],
      "name": "amIAdmin",
      "outputs": [
        {
          "internalType": "bool",
          "name": "",
          "type": "bool"
        }
      ],
      "stateMutability": "view",
      "type": "function",
      "constant": true
    },
    {
      "inputs": [
        {
          "internalType": "uint256",
          "name": "groupId",
          "type": "uint256"
        }
      ],
      "name": "getAdminsForGroup",
      "outputs": [
        {
          "internalType": "address[]",
          "name": "",
          "type": "address[]"
        },
        {
          "internalType": "bool[]",
          "name": "",
          "type": "bool[]"
        },
        {
          "internalType": "string[]",
          "name": "",
          "type": "string[]"
        }
      ],
      "stateMutability": "view",
      "type": "function",
      "constant": true
    },
    {
      "inputs": [
        {
          "internalType": "uint256",
          "name": "groupId",
          "type": "uint256"
        },
        {
          "internalType": "address",
          "name": "account",
          "type": "address"
        }
      ],
      "name": "reEnableAdmin",
      "outputs": [],
      "stateMutability": "nonpayable",
      "type": "function"
    },
    {
      "inputs": [
        {
          "internalType": "uint256",
          "name": "groupId",
          "type": "uint256"
        },
        {
          "internalType": "address",
          "name": "account",
          "type": "address"
        }
      ],
      "name": "removeAdmin",
      "outputs": [],
      "stateMutability": "nonpayable",
      "type": "function"
    },
    {
      "inputs": [
        {
          "internalType": "uint256",
          "name": "groupId",
          "type": "uint256"
        }
      ],
      "name": "renounceAdmin",
      "outputs": [],
      "stateMutability": "nonpayable",
      "type": "function"
    },
    {
      "inputs": [
        {
          "internalType": "uint256",
          "name": "groupId",
          "type": "uint256"
        }
      ],
      "name": "readEventInfo",
      "outputs": [
        {
          "components": [
            {
              "internalType": "uint256",
              "name": "groupId",
              "type": "uint256"
            },
            {
              "internalType": "string",
              "name": "groupName",
              "type": "string"
            },
            {
              "internalType": "enum EthDropBase.EventState",
              "name": "currentState",
              "type": "uint8"
            },
            {
              "internalType": "uint256",
              "name": "registeredRecipientsCount",
              "type": "uint256"
            },
            {
              "internalType": "string",
              "name": "sponsorName",
              "type": "string"
            },
            {
              "internalType": "string",
              "name": "sponsorImageUrl",
              "type": "string"
            },
            {
              "internalType": "string",
              "name": "sponsorLinkToUrl",
              "type": "string"
            },
            {
              "internalType": "address",
              "name": "currentContributor",
              "type": "address"
            },
            {
              "internalType": "uint256",
              "name": "totalAmountContributed",
              "type": "uint256"
            },
            {
              "internalType": "uint256",
              "name": "weiWinnings",
              "type": "uint256"
            },
            {
              "internalType": "uint256",
              "name": "numberOfUsersWhoClaimedWinnings",
              "type": "uint256"
            }
          ],
          "internalType": "struct EthDropBase.EthDropEvent",
          "name": "",
          "type": "tuple"
        }
      ],
      "stateMutability": "view",
      "type": "function",
      "constant": true
    },
    {
      "inputs": [
        {
          "internalType": "string",
          "name": "groupName",
          "type": "string"
        }
      ],
      "name": "createNewGroup",
      "outputs": [],
      "stateMutability": "nonpayable",
      "type": "function"
    },
    {
      "inputs": [
        {
          "internalType": "uint256",
          "name": "groupId",
          "type": "uint256"
        }
      ],
      "name": "startEvent",
      "outputs": [],
      "stateMutability": "nonpayable",
      "type": "function"
    },
    {
      "inputs": [
        {
          "internalType": "uint256",
          "name": "groupId",
          "type": "uint256"
        }
      ],
      "name": "closeEventRegistration",
      "outputs": [],
      "stateMutability": "nonpayable",
      "type": "function"
    },
    {
      "inputs": [
        {
          "internalType": "uint256",
          "name": "groupId",
          "type": "uint256"
        }
      ],
      "name": "endEvent",
      "outputs": [],
      "stateMutability": "nonpayable",
      "type": "function"
    },
    {
      "inputs": [
        {
          "internalType": "address",
          "name": "addressOfUserGettingApproved",
          "type": "address"
        },
        {
          "internalType": "string",
          "name": "nameOfUserGettingApproved",
          "type": "string"
        },
        {
          "internalType": "uint256",
          "name": "groupId",
          "type": "uint256"
        }
      ],
      "name": "addEligibleRecipient",
      "outputs": [],
      "stateMutability": "nonpayable",
      "type": "function"
    },
    {
      "inputs": [
        {
          "internalType": "address",
          "name": "account",
          "type": "address"
        },
        {
          "internalType": "uint256",
          "name": "groupId",
          "type": "uint256"
        }
      ],
      "name": "removeEligibleRecipient",
      "outputs": [],
      "stateMutability": "nonpayable",
      "type": "function"
    },
    {
      "inputs": [
        {
          "internalType": "address",
          "name": "account",
          "type": "address"
        },
        {
          "internalType": "uint256",
          "name": "groupId",
          "type": "uint256"
        }
      ],
      "name": "changeContributor",
      "outputs": [],
      "stateMutability": "nonpayable",
      "type": "function"
    },
    {
      "inputs": [
        {
          "internalType": "uint256",
          "name": "groupId",
          "type": "uint256"
        },
        {
          "internalType": "address",
          "name": "accountToApprove",
          "type": "address"
        }
      ],
      "name": "approveRequestToJoinGroup",
      "outputs": [],
      "stateMutability": "nonpayable",
      "type": "function"
    },
    {
      "inputs": [
        {
          "internalType": "uint256",
          "name": "groupId",
          "type": "uint256"
        }
      ],
      "name": "getNewJoinerRequests",
      "outputs": [
        {
          "internalType": "address[]",
          "name": "",
          "type": "address[]"
        },
        {
          "internalType": "string[]",
          "name": "",
          "type": "string[]"
        },
        {
          "internalType": "bool[]",
          "name": "",
          "type": "bool[]"
        }
      ],
      "stateMutability": "view",
      "type": "function",
      "constant": true
    },
    {
      "inputs": [
        {
          "internalType": "uint256",
          "name": "groupId",
          "type": "uint256"
        }
      ],
      "name": "getEligibleRecipients",
      "outputs": [
        {
          "internalType": "address[]",
          "name": "",
          "type": "address[]"
        },
        {
          "internalType": "string[]",
          "name": "",
          "type": "string[]"
        },
        {
          "internalType": "bool[]",
          "name": "",
          "type": "bool[]"
        }
      ],
      "stateMutability": "view",
      "type": "function",
      "constant": true
    }
  ],
  "bytecode": "0x6080604052600180546001600160a01b031916331781556003805460ff60a01b191690556005805560085534801561003657600080fd5b5061580780620000476000396000f3fe6080604052600436106103435760003560e01c80638182aaf2116101b2578063cd04e475116100ed578063ea303f0811610090578063ea303f0814610b04578063edf6261d14610b24578063ee41b59214610b44578063ef2e61cc14610b64578063f40fb25414610b84578063f4a02e7014610ba4578063f89e9cb914610bc4578063fc5fd6e414610be457600080fd5b8063cd04e475146109e4578063d5f016c314610a17578063e33db42614610a2c578063e513b7a914610a59578063e62092be14610a79578063e82f24e014610a99578063e9992d9914610aac578063e9af9bca14610acc57600080fd5b8063aea88a0511610155578063aea88a05146108fb578063b047fb501461091b578063b187bd261461093b578063b3b36bb31461095a578063bc5b2e1a1461096d578063c02b8b2c1461098d578063c271e80c146109af578063c6db5094146109cf57600080fd5b80638182aaf2146107f75780638456cb591461081757806389ea642f1461082c5780639393ae371461084e578063962ecff51461086e578063967cafbc1461088e5780639bda8796146108ae578063a59a6953146108db57600080fd5b8063454432e211610282578063677bd9ff11610225578063677bd9ff146106ea5780636ebdec491461070a578063744c5e1e14610739578063785142be146107595780637b936ac2146107795780637d837ce5146107975780637eb0bdc9146107b75780637fcaf666146107d757600080fd5b8063454432e2146105ae5780634635509b146105ce5780634e0a3379146105ff57806355b57ec11461061f57806356c9a3391461063f5780635c975abb1461067a5780635e82c1fc1461069b578063674811ca146106bb57600080fd5b806327d7874c116102ea57806327d7874c146104aa5780632ba73c15146104ca57806330bb0115146104ea578063330a347b1461050a57806338f0b6561461052a5780633f4ba83a1461054a578063406db8431461055f57806344b2983b1461057f57600080fd5b80630519ce791461034857806306cb9d6f1461038557806306cc4922146103b257806307bfa330146103e25780630a0f81681461040f5780630d82ffa01461042f57806315891ff414610468578063222fd0871461048a575b600080fd5b34801561035457600080fd5b50600254610368906001600160a01b031681565b6040516001600160a01b0390911681526020015b60405180910390f35b34801561039157600080fd5b506103a56103a0366004614e2b565b610c02565b60405161037c919061523e565b3480156103be57600080fd5b506103d26103cd366004614e2b565b610c84565b604051901515815260200161037c565b3480156103ee57600080fd5b506104026103fd366004614e2b565b610cdd565b60405161037c9190615251565b34801561041b57600080fd5b50600154610368906001600160a01b031681565b34801561043b57600080fd5b5061036861044a366004614e2b565b6000908152600960205260409020600701546001600160a01b031690565b34801561047457600080fd5b50610488610483366004614dc4565b610dc9565b005b34801561049657600080fd5b506104886104a5366004614ec7565b610ece565b3480156104b657600080fd5b506104886104c5366004614d4b565b6111d6565b3480156104d657600080fd5b506104886104e5366004614d4b565b611248565b3480156104f657600080fd5b50610488610505366004614e2b565b6112cc565b34801561051657600080fd5b50610488610525366004614e2b565b611301565b34801561053657600080fd5b506103d2610545366004614e2b565b6115cd565b34801561055657600080fd5b506103d261160a565b34801561056b57600080fd5b5061048861057a366004614e2b565b6116c5565b34801561058b57600080fd5b5061059f61059a366004614e2b565b611b89565b60405161037c93929190615205565b3480156105ba57600080fd5b506104026105c9366004614e2b565b611d56565b3480156105da57600080fd5b506105ee6105e9366004614e2b565b611e37565b60405161037c9594939291906152a8565b34801561060b57600080fd5b5061048861061a366004614d4b565b612157565b34801561062b57600080fd5b506103a561063a366004614e2b565b6121ee565b34801561064b57600080fd5b5061066c61065a366004614e2b565b6000908152600c602052604090205490565b60405190815260200161037c565b34801561068657600080fd5b506003546103d290600160a01b900460ff1681565b3480156106a757600080fd5b506103d26106b6366004614dc4565b612253565b3480156106c757600080fd5b506106db6106d6366004614e2b565b6122aa565b60405161037c939291906152eb565b3480156106f657600080fd5b50610488610705366004614e2b565b612478565b34801561071657600080fd5b5061072a610725366004614e2b565b6126df565b60405161037c939291906151c2565b34801561074557600080fd5b506103d2610754366004614e2b565b6128ae565b34801561076557600080fd5b50610488610774366004614e2b565b6128fb565b34801561078557600080fd5b506002546001600160a01b0316610368565b3480156107a357600080fd5b506103d26107b2366004614dc4565b612abd565b3480156107c357600080fd5b506104886107d2366004614e44565b612b14565b3480156107e357600080fd5b506104886107f2366004614dee565b612b48565b34801561080357600080fd5b506103d2610812366004614dc4565b612b5b565b34801561082357600080fd5b50610488612bac565b34801561083857600080fd5b50610841612c89565b60405161037c91906152d8565b34801561085a57600080fd5b506002546001600160a01b031633146103d2565b34801561087a57600080fd5b506103d2610889366004614e2b565b612d1b565b34801561089a57600080fd5b506104886108a9366004614d6d565b612d27565b3480156108ba57600080fd5b506108ce6108c9366004614e2b565b613045565b60405161037c91906151af565b3480156108e757600080fd5b506104886108f6366004614e2b565b6130b0565b34801561090757600080fd5b50610488610916366004614f43565b613150565b34801561092757600080fd5b50600354610368906001600160a01b031681565b34801561094757600080fd5b50600354600160a01b900460ff166103d2565b34801561096657600080fd5b5033610368565b34801561097957600080fd5b50610488610988366004614e44565b61324a565b34801561099957600080fd5b506109a261353e565b60405161037c9190615264565b3480156109bb57600080fd5b506104886109ca366004614dc4565b613595565b3480156109db57600080fd5b506108416135f7565b3480156109f057600080fd5b50610a046109ff366004614e2b565b613685565b60405161037c979695949392919061560a565b348015610a2357600080fd5b506104026139cf565b348015610a3857600080fd5b50610a4c610a47366004614e2b565b613aa8565b60405161037c91906154b7565b348015610a6557600080fd5b506001546001600160a01b031633146103d2565b348015610a8557600080fd5b506103d2610a94366004614dc4565b613e1e565b610488610aa7366004614e2b565b613ea0565b348015610ab857600080fd5b50610488610ac7366004614e44565b613f4d565b348015610ad857600080fd5b5061066c610ae7366004614e2b565b6000908152600b6020908152604080832033845290915290205490565b348015610b1057600080fd5b50610488610b1f366004614dee565b61404f565b348015610b3057600080fd5b50610488610b3f366004614e70565b614302565b348015610b5057600080fd5b506103d2610b5f366004614e2b565b61436f565b348015610b7057600080fd5b5061059f610b7f366004614e2b565b6143a6565b348015610b9057600080fd5b5061059f610b9f366004614e2b565b61459e565b348015610bb057600080fd5b506003546001600160a01b031633146103d2565b348015610bd057600080fd5b506103d2610bdf366004614e2b565b6146e8565b348015610bf057600080fd5b506003546001600160a01b0316610368565b600081815260156020908152604091829020805483518184028101840190945280845260609392830182828015610c7857602002820191906000526020600020906000905b825461010083900a900460ff161515815260206001928301818104948501949093039092029101808411610c475790505b50505050509050919050565b600354600090600160a01b900460ff1615610cba5760405162461bcd60e51b8152600401610cb190615368565b60405180910390fd5b50600081815260106020908152604080832033845290915290205415155b919050565b6060601f6000838152602001908152602001600020805480602002602001604051908101604052809291908181526020016000905b82821015610dbe578382906000526020600020018054610d3190615729565b80601f0160208091040260200160405190810160405280929190818152602001828054610d5d90615729565b8015610daa5780601f10610d7f57610100808354040283529160200191610daa565b820191906000526020600020905b815481529060010190602001808311610d8d57829003601f168201915b505050505081526020019060010190610d12565b505050509050919050565b80610dd43382613e1e565b610df05760405162461bcd60e51b8152600401610cb1906153f3565b600354600160a01b900460ff1615610e1a5760405162461bcd60e51b8152600401610cb190615368565b60008281526010602090815260408083206001600160a01b038716845282528083205485845260149092528220805491929183908110610e5c57610e5c6157a5565b90600052602060002090602091828204019190066101000a81548160ff021916908315150217905550836001600160a01b03167f1af6d16168d33745872119540d28858eed156c5f265206bbf1344fda39a93a3384604051610ec091815260200190565b60405180910390a250505050565b6000838152601760209081526040808320338085529252909120548491908015610f605760405162461bcd60e51b815260206004820152603d60248201527f4572726f723a207468697320616464726573732068617320616c72656164792060448201527f72657175657374656420746f206a6f696e20746869732067726f75702e0000006064820152608401610cb1565b6000868152601060209081526040808320338085529252909120548791908015610f9c5760405162461bcd60e51b8152600401610cb190615396565b60008981526018602052604090205461108457600089815260186020908152604080832060019081905560198352818420805480830182559085528385200180546001600160a01b03191690558c8452601a83528184208054918201815584528284208251938401928390529284905261101893920191614a64565b506000898152601b60209081526040808320805460018082018355918552838520848204018054601f92831661010090810a60ff908102199092169092558f8752601c86529386208054938401815586529484902093820490930180549190931690930a021990911690555b6000898152601860209081526040808320546017835281842033808652908452828520919091558c8452601983528184208054600181810183559186528486200180546001600160a01b0319169092179091558c8452601a835290832080549182018155835291206110f891018989614ae8565b506000898152601b60209081526040808320805460018082018355918552838520848204018054601f92831661010090810a60ff81810219909316179092558f8752601c8652848720805480860182559088528688208782040180549190941690920a02191690558c8452601890925290912054611175916156b9565b60008a815260186020908152604080832093909355600c90528190205490517fc73d895047e43bcf8caa9f1cce950d0f1a21fc9a00a8d693db86cd0c93dc91aa916111c3918c9133916155d2565b60405180910390a1505050505050505050565b6001546001600160a01b031633146112005760405162461bcd60e51b8152600401610cb190615324565b6001600160a01b0381166112265760405162461bcd60e51b8152600401610cb190615480565b600180546001600160a01b0319166001600160a01b0392909216919091179055565b6001546001600160a01b031633146112725760405162461bcd60e51b8152600401610cb190615324565b6001600160a01b03811661128557600080fd5b600380546001600160a01b0319166001600160a01b0383161790556040517fa308298a77084def994b565be25bff2e8fbfe7006c2c6b2bacfb84d1ba1f635090600090a150565b806112d73382613e1e565b6112f35760405162461bcd60e51b8152600401610cb1906153f3565b6112fd823361475f565b5050565b8061130c3382613e1e565b8061132157506003546001600160a01b031633145b61132a57600080fd5b600354600160a01b900460ff16156113545760405162461bcd60e51b8152600401610cb190615368565b6000828152600960205260408120600201805460ff191660031790555b6000838152600960205260409020600301548110156113e857600083815260208052604081208054839081106113a9576113a96157a5565b6000918252602080832090910154868352601d825260408084206001600160a01b039092168452915281205550806113e08161575e565b915050611371565b50600082815260216020526040812061140091614b5c565b6000828152601f6020526040812061141791614b84565b6000828152602080526040812061142d91614ba2565b6000828152601e60209081526040808320839055600a825280832060098352908320815460018181018455928552929093208354600b9093020191825580830180549183019161147c90615729565b611487929190614bc0565b50600282810154908201805460ff9092169160ff191660018360038111156114b1576114b161578f565b02179055506003820154816003015560048201816004019080546114d490615729565b6114df929190614bc0565b5060058201816005019080546114f490615729565b6114ff929190614bc0565b50600682018160060190805461151490615729565b61151f929190614bc0565b5060078281015490820180546001600160a01b0319166001600160a01b039092169190911790556008808301548183015560098084015481840155600a9384015492840192909255600085815260208390526040808220600381018390559283018290559282018190559201919091555133907ff184af570dff3a3eecc3464b3ee06c5b91b8cbd63a658135ded4f57fc3643579906115c19085815260200190565b60405180910390a25050565b600354600090600160a01b900460ff16156115fa5760405162461bcd60e51b8152600401610cb190615368565b6116043383612abd565b92915050565b6001546000906001600160a01b031633146116375760405162461bcd60e51b8152600401610cb190615324565b600354600160a01b900460ff166116a85760405162461bcd60e51b815260206004820152602f60248201527f66756e6374696f6e2063616e206f6e6c792062652063616c6c6564207768656e60448201526e1030b8381034b9903830bab9b2b21760891b6064820152608401610cb1565b506003805460ff60a01b191690819055600160a01b900460ff1690565b806116d03382612253565b61172e5760405162461bcd60e51b815260206004820152602960248201527f736f7272792c20796f7520617265206e6f7420616e20656c696769626c65207260448201526832b1b4b834b2b73a1760b91b6064820152608401610cb1565b6000828152601060209081526040808320338085529083528184205486855260149093529220805485939291908290811061176b5761176b6157a5565b60009182526020918290209181049091015460ff601f9092166101000a9004166118095760405162461bcd60e51b815260206004820152604360248201527f4572726f723a20726563697069656e74277320656c696769626c696c6974792060448201527f686173206265656e2064697361626c656420666f7220746869732067726f757060648201526217171760e91b608482015260a401610cb1565b6000858152601d60209081526040808320338085529252909120548690156118995760405162461bcd60e51b815260206004820152603c60248201527f77686f6f70732c206c6f6f6b73206c696b6520796f7527766520616c7265616460448201527f79207265676973746572656420666f722074686973206576656e7421000000006064820152608401610cb1565b600354600160a01b900460ff16156118c35760405162461bcd60e51b8152600401610cb190615368565b6000878152601e6020526040902054611977576000878152601e60209081526040808320600190819055828052818420805480830182559085528385200180546001600160a01b03191690558a8452601f83528184208054918201815584528284208251938401928390529284905261193e93920191614a64565b5060008781526021602090815260408220805460018101825590835291819020908204018054601f9092166101000a60ff021990911690555b6000878152601e6020908152604080832054601d835281842033808652908452828520919091558a8452601083528184209084528252808320548a8452601390925282208054919291839081106119d0576119d06157a5565b9060005260206000200180546119e590615729565b80601f0160208091040260200160405190810160405280929190818152602001828054611a1190615729565b8015611a5e5780601f10611a3357610100808354040283529160200191611a5e565b820191906000526020600020905b815481529060010190602001808311611a4157829003601f168201915b50505060008c8152602080805260408083208054600181810183559185528385200180546001600160a01b031916331790558f8452601f8352908320805491820181558352918190208551959650611abd959201935085019150614a64565b506000898152602160209081526040808320805460018082018355918552838520848204018054601f9092166101000a60ff021990911690558c8452600990925290912060030154611b0e916156b9565b60008a815260096020908152604080832060030193909355601e90522054611b379060016156b9565b60008a8152601e602090815260409182902092909255518a815233917f0695e999be8100bdb5bee8612337296508d527eae78c65b8f170eacb5a3b439d910160405180910390a2505050505050505050565b600081815260208080526040808320601f835281842060218452938290208154835181860281018601909452808452606095869586959193928591830182828015611bfd57602002820191906000526020600020905b81546001600160a01b03168152600190910190602001808311611bdf575b5050505050925081805480602002602001604051908101604052809291908181526020016000905b82821015611cd1578382906000526020600020018054611c4490615729565b80601f0160208091040260200160405190810160405280929190818152602001828054611c7090615729565b8015611cbd5780601f10611c9257610100808354040283529160200191611cbd565b820191906000526020600020905b815481529060010190602001808311611ca057829003601f168201915b505050505081526020019060010190611c25565b50505050915080805480602002602001604051908101604052809291908181526020018280548015611d4257602002820191906000526020600020906000905b825461010083900a900460ff161515815260206001928301818104948501949093039092029101808411611d115790505b505050505090509250925092509193909250565b606060136000838152602001908152602001600020805480602002602001604051908101604052809291908181526020016000905b82821015610dbe578382906000526020600020018054611daa90615729565b80601f0160208091040260200160405190810160405280929190818152602001828054611dd690615729565b8015611e235780601f10611df857610100808354040283529160200191611e23565b820191906000526020600020905b815481529060010190602001808311611e0657829003601f168201915b505050505081526020019060010190611d8b565b600080600080600080600960008881526020019081526020016000206040518061016001604052908160008201548152602001600182018054611e7990615729565b80601f0160208091040260200160405190810160405280929190818152602001828054611ea590615729565b8015611ef25780601f10611ec757610100808354040283529160200191611ef2565b820191906000526020600020905b815481529060010190602001808311611ed557829003601f168201915b5050509183525050600282015460209091019060ff166003811115611f1957611f1961578f565b6003811115611f2a57611f2a61578f565b815260200160038201548152602001600482018054611f4890615729565b80601f0160208091040260200160405190810160405280929190818152602001828054611f7490615729565b8015611fc15780601f10611f9657610100808354040283529160200191611fc1565b820191906000526020600020905b815481529060010190602001808311611fa457829003601f168201915b50505050508152602001600582018054611fda90615729565b80601f016020809104026020016040519081016040528092919081815260200182805461200690615729565b80156120535780601f1061202857610100808354040283529160200191612053565b820191906000526020600020905b81548152906001019060200180831161203657829003601f168201915b5050505050815260200160068201805461206c90615729565b80601f016020809104026020016040519081016040528092919081815260200182805461209890615729565b80156120e55780601f106120ba576101008083540402835291602001916120e5565b820191906000526020600020905b8154815290600101906020018083116120c857829003601f168201915b505050918352505060078201546001600160a01b0316602082015260088201546040808301919091526009830154606080840191909152600a909301546080909201919091528201519082015161010083015161012084015161014090940151929b919a509850919650945092505050565b6001546001600160a01b031633146121815760405162461bcd60e51b8152600401610cb190615324565b6001600160a01b0381166121a75760405162461bcd60e51b8152600401610cb190615480565b600280546001600160a01b0319166001600160a01b0383161790556040517f162e32528b5907ecf876b3b7a4e5e0edf878642e3ec25852e3c35af1a4e1c04090600090a150565b600081815260146020908152604091829020805483518184028101840190945280845260609392830182828015610c78576000918252602091829020805460ff1615158452908202830192909160019101808411610c47575094979650505050505050565b600354600090600160a01b900460ff16156122805760405162461bcd60e51b8152600401610cb190615368565b5060009081526010602090815260408083206001600160a01b039490941683529290522054151590565b6000818152600960205260409020600481018054606092839283929091600581019160069091019083906122dd90615729565b80601f016020809104026020016040519081016040528092919081815260200182805461230990615729565b80156123565780601f1061232b57610100808354040283529160200191612356565b820191906000526020600020905b81548152906001019060200180831161233957829003601f168201915b5050505050925081805461236990615729565b80601f016020809104026020016040519081016040528092919081815260200182805461239590615729565b80156123e25780601f106123b7576101008083540402835291602001916123e2565b820191906000526020600020905b8154815290600101906020018083116123c557829003601f168201915b505050505091508080546123f590615729565b80601f016020809104026020016040519081016040528092919081815260200182805461242190615729565b8015611d425780601f1061244357610100808354040283529160200191611d42565b820191906000526020600020905b8154815290600101906020018083116124515750969b959a50929850939650505050505050565b806124833382612abd565b6124e25760405162461bcd60e51b815260206004820152602a60248201527f736f7272792c20796f7520617265206e6f7420612072656769737465726564206044820152693932b1b4b834b2b73a1760b11b6064820152608401610cb1565b6000828152601060209081526040808320338085529083528184205486855260159093529220805485939291908290811061251f5761251f6157a5565b90600052602060002090602091828204019190069054906101000a900460ff1615156001151514156125af5760405162461bcd60e51b815260206004820152603360248201527f77686f6f70732c206c6f6f6b73206c696b6520796f7527766520616c726561646044820152727920636c61696d65642077696e6e696e67732160681b6064820152608401610cb1565b600354600160a01b900460ff16156125d95760405162461bcd60e51b8152600401610cb190615368565b6000858152601060209081526040808320338452825280832054888452601590925290912080546001919083908110612614576126146157a5565b6000918252602080832081830401805460ff601f9094166101000a938402191694151592909202939093179055878152600990915260408120600a0180549161265c8361575e565b90915550506000868152600960208190526040808320909101549051339282156108fc02929190818181858888f193505050501580156126a0573d6000803e3d6000fd5b5060405186815233907f1a31e733a172afcf46074b3106c17f0c298e226442682a03c1e99ce256139ec2906020015b60405180910390a2505050505050565b6000818152600d60209081526040808320600f8352818420600e845293829020815483518186028101860190945280845260609586958695919392859183018282801561275557602002820191906000526020600020905b81546001600160a01b03168152600190910190602001808311612737575b50505050509250818054806020026020016040519081016040528092919081815260200182805480156127c757602002820191906000526020600020906000905b825461010083900a900460ff1615158152602060019283018181049485019490930390920291018084116127965790505b5050505050915080805480602002602001604051908101604052809291908181526020016000905b8282101561289b57838290600052602060002001805461280e90615729565b80601f016020809104026020016040519081016040528092919081815260200182805461283a90615729565b80156128875780601f1061285c57610100808354040283529160200191612887565b820191906000526020600020905b81548152906001019060200180831161286a57829003601f168201915b5050505050815260200190600101906127ef565b5050505090509250925092509193909250565b600354600090600160a01b900460ff16156128db5760405162461bcd60e51b8152600401610cb190615368565b506000908152601760209081526040808320338452909152902054151590565b806129063382613e1e565b6129225760405162461bcd60e51b8152600401610cb1906153f3565b600354600160a01b900460ff161561294c5760405162461bcd60e51b8152600401610cb190615368565b6000828152600960205260409020600301546129c05760405162461bcd60e51b815260206004820152602d60248201527f43616e277420656e6420726567697374726174696f6e2077697468207a65726f60448201526c2072656769737472616e74732160981b6064820152608401610cb1565b60055460008381526009602052604081206008015490916064916129e491906156f3565b6129ee91906156d1565b6002546040519192506001600160a01b03169082156108fc029083906000818181858888f19350505050158015612a29573d6000803e3d6000fd5b50600083815260096020526040812060080154612a47908390615712565b600085815260096020526040902060030154909150612a6690826156d1565b600085815260096020818152604092839020918201939093556002908101805460ff191690911790555185815233917f0eac29f28d53644f45e1f9f2feef665e4c5d7816090d91e169176fb4e23086299101610ec0565b600354600090600160a01b900460ff1615612aea5760405162461bcd60e51b8152600401610cb190615368565b506000908152601d602090815260408083206001600160a01b039490941683529290522054151590565b6003546001600160a01b03163314612b3e5760405162461bcd60e51b8152600401610cb19061543c565b6112fd828261475f565b80516112fd906000906020840190614a64565b600354600090600160a01b900460ff1615612b885760405162461bcd60e51b8152600401610cb190615368565b506000908152600960205260409020600701546001600160a01b0390811691161490565b6003546001600160a01b0316331480612bcf57506001546001600160a01b031633145b80612be457506002546001600160a01b031633145b612c4a5760405162461bcd60e51b815260206004820152603160248201527f6f6e6c7920736f6d656f6e652066726f6d20632d73756974652063616e2063616044820152703636103a3434b990333ab731ba34b7b71760791b6064820152608401610cb1565b600354600160a01b900460ff1615612c745760405162461bcd60e51b8152600401610cb190615368565b6003805460ff60a01b1916600160a01b179055565b606060008054612c9890615729565b80601f0160208091040260200160405190810160405280929190818152602001828054612cc490615729565b8015612d115780601f10612ce657610100808354040283529160200191612d11565b820191906000526020600020905b815481529060010190602001808311612cf457829003601f168201915b5050505050905090565b60006116043383613e1e565b600354600160a01b900460ff1615612d515760405162461bcd60e51b8152600401610cb190615368565b80612d5c3382613e1e565b612d785760405162461bcd60e51b8152600401610cb1906153f3565b60008281526010602090815260408083206001600160a01b03881684529091529020548290859015612e0b5760405162461bcd60e51b815260206004820152603660248201527f57686f6f70732c2074686973206164647265737320697320616c726561647920604482015275616e20656c696769626c6520726563697069656e742160501b6064820152608401610cb1565b600084815260116020526040902054612ef557600084815260116020908152604080832060019081905560128352818420805480830182559085528385200180546001600160a01b03191690558784526013835281842080549182018155845282842082519384019283905292849052612e8793920191614a64565b50600084815260146020908152604080832080546001818101835591855283852084820401805460ff601f93841661010090810a8202199092169092558a8752601586529386208054938401815586529484902093820490930180549190931690910a928302191690911790555b600084815260116020908152604080832054601083528184206001600160a01b038b1680865290845282852091909155878452601283528184208054600181810183559186528486200180546001600160a01b03191690921790915587845260138352908320805491820181558352918190208751612f7b939190910191880190614a64565b506000848152601460209081526040808320805460018082018355918552838520848204018054601f92831661010090810a60ff81810219909316179092558a875260158652848720805480860182559088528688208782040180549190941690920a0219169055878452601190925290912054612ff8916156b9565b60008581526011602090815260409182902092909255518581526001600160a01b038816917f46b8357d30dedd734a71d059a385f46b6e667bff20233f907477760207f8896591016126cf565b600081815260126020908152604091829020805483518184028101840190945280845260609392830182828015610c7857602002820191906000526020600020905b81546001600160a01b031681526001909101906020018083116130875750505050509050919050565b806130bb3382613e1e565b6130d75760405162461bcd60e51b8152600401610cb1906153f3565b600354600160a01b900460ff16156131015760405162461bcd60e51b8152600401610cb190615368565b600082815260096020908152604091829020600201805460ff19166001179055905183815233917f9118a3ee6cd03b7e9740d3092ac8fab787a7f93f52732d7bcd32f35dbea62a9c91016115c1565b8361315b3382612b5b565b61316457600080fd5b835115613192576000858152600960209081526040909120855161319092600490920191870190614a64565b505b8251156131c057600085815260096020908152604090912084516131be92600590920191860190614a64565b505b8151156131ee57600085815260096020908152604090912083516131ec92600690920191850190614a64565b505b6000858152600960205260409081902090517fcd9ad49d834aeea746bafd2d26eebd3d01ebac2d8f5d3f53d7f3884292e5835f9161323b918891600481019160058201916006019061566f565b60405180910390a15050505050565b816132553382613e1e565b6132715760405162461bcd60e51b8152600401610cb1906153f3565b600354600160a01b900460ff161561329b5760405162461bcd60e51b8152600401610cb190615368565b60008381526010602090815260408083206001600160a01b03861684529091529020548390839080156132e05760405162461bcd60e51b8152600401610cb190615396565b60008681526017602090815260408083206001600160a01b0389168452909152902054869086908061338a5760405162461bcd60e51b815260206004820152604760248201527f4572726f723a2074686973206164647265737320646f6573206e6f742068617660448201527f6520612070656e64696e67207265717565737420746f206a6f696e20746869736064820152661033b937bab81760c91b608482015260a401610cb1565b60008981526017602090815260408083206001600160a01b038c1684528252808320548c8452601990925282208054919291839081106133cc576133cc6157a5565b60009182526020808320909101548d8352601a9091526040822080546001600160a01b0390921693509084908110613406576134066157a5565b90600052602060002001805461341b90615729565b80601f016020809104026020016040519081016040528092919081815260200182805461344790615729565b80156134945780601f1061346957610100808354040283529160200191613494565b820191906000526020600020905b81548152906001019060200180831161347757829003601f168201915b505050505090506001601c60008e815260200190815260200160002084815481106134c1576134c16157a5565b90600052602060002090602091828204019190066101000a81548160ff0219169083151502179055506134f582828e612d27565b7fa99702a14ae3f010941d30549064432035071f0e359c50ec6b37d47f430d557a8c83836040516135289392919061559f565b60405180910390a1505050505050505050505050565b60606006805480602002602001604051908101604052809291908181526020018280548015612d1157602002820191906000526020600020905b815481526020019060010190808311613578575050505050905090565b806135a03382613e1e565b806135b557506003546001600160a01b031633145b6135be57600080fd5b600354600160a01b900460ff16156135e85760405162461bcd60e51b8152600401610cb190615368565b6135f28383614810565b505050565b6000805461360490615729565b80601f016020809104026020016040519081016040528092919081815260200182805461363090615729565b801561367d5780601f106136525761010080835404028352916020019161367d565b820191906000526020600020905b81548152906001019060200180831161366057829003601f168201915b505050505081565b60006060600080600080600080600960008a815260200190815260200160002060405180610160016040529081600082015481526020016001820180546136cb90615729565b80601f01602080910402602001604051908101604052809291908181526020018280546136f790615729565b80156137445780601f1061371957610100808354040283529160200191613744565b820191906000526020600020905b81548152906001019060200180831161372757829003601f168201915b5050509183525050600282015460209091019060ff16600381111561376b5761376b61578f565b600381111561377c5761377c61578f565b81526020016003820154815260200160048201805461379a90615729565b80601f01602080910402602001604051908101604052809291908181526020018280546137c690615729565b80156138135780601f106137e857610100808354040283529160200191613813565b820191906000526020600020905b8154815290600101906020018083116137f657829003601f168201915b5050505050815260200160058201805461382c90615729565b80601f016020809104026020016040519081016040528092919081815260200182805461385890615729565b80156138a55780601f1061387a576101008083540402835291602001916138a5565b820191906000526020600020905b81548152906001019060200180831161388857829003601f168201915b505050505081526020016006820180546138be90615729565b80601f01602080910402602001604051908101604052809291908181526020018280546138ea90615729565b80156139375780601f1061390c57610100808354040283529160200191613937565b820191906000526020600020905b81548152906001019060200180831161391a57829003601f168201915b505050505081526020016007820160009054906101000a90046001600160a01b03166001600160a01b03166001600160a01b031681526020016008820154815260200160098201548152602001600a8201548152505090508060000151816020015182604001518360600151846101000151856101200151866101400151975097509750975097509750975050919395979092949650565b60606007805480602002602001604051908101604052809291908181526020016000905b82821015613a9f578382906000526020600020018054613a1290615729565b80601f0160208091040260200160405190810160405280929190818152602001828054613a3e90615729565b8015613a8b5780601f10613a6057610100808354040283529160200191613a8b565b820191906000526020600020905b815481529060010190602001808311613a6e57829003601f168201915b5050505050815260200190600101906139f3565b50505050905090565b613b0e6040805161016081018252600080825260606020830152909182019081526020016000815260200160608152602001606081526020016060815260200160006001600160a01b031681526020016000815260200160008152602001600081525090565b81613b193382613e1e565b613b355760405162461bcd60e51b8152600401610cb1906153f3565b600960008481526020019081526020016000206040518061016001604052908160008201548152602001600182018054613b6e90615729565b80601f0160208091040260200160405190810160405280929190818152602001828054613b9a90615729565b8015613be75780601f10613bbc57610100808354040283529160200191613be7565b820191906000526020600020905b815481529060010190602001808311613bca57829003601f168201915b5050509183525050600282015460209091019060ff166003811115613c0e57613c0e61578f565b6003811115613c1f57613c1f61578f565b815260200160038201548152602001600482018054613c3d90615729565b80601f0160208091040260200160405190810160405280929190818152602001828054613c6990615729565b8015613cb65780601f10613c8b57610100808354040283529160200191613cb6565b820191906000526020600020905b815481529060010190602001808311613c9957829003601f168201915b50505050508152602001600582018054613ccf90615729565b80601f0160208091040260200160405190810160405280929190818152602001828054613cfb90615729565b8015613d485780601f10613d1d57610100808354040283529160200191613d48565b820191906000526020600020905b815481529060010190602001808311613d2b57829003601f168201915b50505050508152602001600682018054613d6190615729565b80601f0160208091040260200160405190810160405280929190818152602001828054613d8d90615729565b8015613dda5780601f10613daf57610100808354040283529160200191613dda565b820191906000526020600020905b815481529060010190602001808311613dbd57829003601f168201915b505050918352505060078201546001600160a01b031660208201526008820154604082015260098201546060820152600a9091015460809091015291505b50919050565b6000818152600b602090815260408083206001600160a01b038616845290915281205480613e50576000915050611604565b6000838152600f60205260409020805482908110613e7057613e706157a5565b90600052602060002090602091828204019190069054906101000a900460ff161515600115151491505092915050565b80613eab3382612b5b565b613eb457600080fd5b600354600160a01b900460ff1615613ede5760405162461bcd60e51b8152600401610cb190615368565b60008281526009602052604081206008018054349290613eff9084906156b9565b90915550506000828152600960209081526040918290206008015482518581529182015233917f5dc1fe5ab986a852c4eda8e8bb94247d13307065c593fb83f1a09be27367938291016115c1565b6003546001600160a01b03163314613f775760405162461bcd60e51b8152600401610cb19061543c565b6000828152600b602090815260408083206001600160a01b0385168452825280832054858452600f90925290912080546001919083908110613fbb57613fbb6157a5565b90600052602060002090602091828204019190066101000a81548160ff0219169083151502179055507f2d19f1f4aa7d21a07d18586e49b3e0529d148488052497ea97f06d7266c3cbbe83600e6000868152602001908152602001600020838154811061402a5761402a6157a5565b90600052602060002001604051614042929190615656565b60405180910390a1505050565b6003546001600160a01b031633146140795760405162461bcd60e51b8152600401610cb19061543c565b600354600160a01b900460ff16156140a35760405162461bcd60e51b8152600401610cb190615368565b600854604080516101608101825282815260208082018581526000838501819052606084018190528451808401865281815260808501528451808401865281815260a08501528451808401865281815260c085015260e0840181905261010084018190526101208401819052610140840181905285815260098352939093208251815592518051929384939092614141926001850192910190614a64565b50604082015160028201805460ff191660018360038111156141655761416561578f565b0217905550606082015160038201556080820151805161418f916004840191602090910190614a64565b5060a082015180516141ab916005840191602090910190614a64565b5060c082015180516141c7916006840191602090910190614a64565b5060e0820151600782810180546001600160a01b0319166001600160a01b03909316929092179091556101008301516008830155610120830151600983015561014090920151600a909101556006805460018181019092557ff652222313e28459528d920b65115c16c04f3efc82aaedc97be59f3f377c0d3f01849055815490810182556000919091528351614284917fa66cc928b5edb82af9bd49922954155ab7b0942694bea4ce44661d9a8736c68801906020860190614a64565b5060008281526010602090815260408083208380528252808320839055848352601890915280822091909155517fa27df82d27a5b2a66bcd0c6210f8024283ed1197a6d8e30372f8df2e487c376e906142e090849086906155f1565b60405180910390a1600880549060006142f88361575e565b9190505550505050565b6000838152600b602090815260408083206001600160a01b0386168452909152902054839083901561433357600080fd5b6003546001600160a01b0316331461435d5760405162461bcd60e51b8152600401610cb19061543c565b614368858585614889565b5050505050565b600354600090600160a01b900460ff161561439c5760405162461bcd60e51b8152600401610cb190615368565b6116043383612b5b565b6060806060836143b63382613e1e565b6143d25760405162461bcd60e51b8152600401610cb1906153f3565b6000858152601960209081526040808320601a8352818420601c8452938290208154835181860281018601909452808452919493909291859183018282801561444457602002820191906000526020600020905b81546001600160a01b03168152600190910190602001808311614426575b5050505050925081805480602002602001604051908101604052809291908181526020016000905b8282101561451857838290600052602060002001805461448b90615729565b80601f01602080910402602001604051908101604052809291908181526020018280546144b790615729565b80156145045780601f106144d957610100808354040283529160200191614504565b820191906000526020600020905b8154815290600101906020018083116144e757829003601f168201915b50505050508152602001906001019061446c565b5050505091508080548060200260200160405190810160405280929190818152602001828054801561458957602002820191906000526020600020906000905b825461010083900a900460ff1615158152602060019283018181049485019490930390920291018084116145585790505b50505050509050935093509350509193909250565b6000818152601260209081526040808320601383528184206014845293829020815483518186028101860190945280845260609586958695919392859183018282801561461457602002820191906000526020600020905b81546001600160a01b031681526001909101906020018083116145f6575b5050505050925081805480602002602001604051908101604052809291908181526020016000905b82821015611cd157838290600052602060002001805461465b90615729565b80601f016020809104026020016040519081016040528092919081815260200182805461468790615729565b80156146d45780601f106146a9576101008083540402835291602001916146d4565b820191906000526020600020905b8154815290600101906020018083116146b757829003601f168201915b50505050508152602001906001019061463c565b60006146f43383612abd565b61470057506000919050565b60008281526010602090815260408083203384528252808320548584526015909252909120805482908110614737576147376157a5565b60009182526020918290209181049091015460ff601f9092166101000a900416159392505050565b6000828152600b602090815260408083206001600160a01b0385168452825280832054858452600f90925282208054919291839081106147a1576147a16157a5565b90600052602060002090602091828204019190066101000a81548160ff0219169083151502179055507f021d633158208ba55afbe8aae9878e510cccaf8f1fe2d8c42455d95f58f3b1f083600e6000868152602001908152602001600020838154811061402a5761402a6157a5565b60008181526016602090815260408083206001600160a01b038616808552908352818420805460ff19166001179055848452600983529281902060070180546001600160a01b03191684179055518381527f5fd6d0b7e707fe344bd2a1887f9d0eeea8bfcac6f339ba4200e74f0647f101c091016115c1565b6000838152600c602052604090205461494e576000838152600c60208181526040808420600190819055600d8352818520805480830182559086528386200180546001600160a01b0319169055878552600f835281852080548083018255908652838620848204018054601f9092166101000a60ff02199091169055878552600e83528185208054918201815585529382902081518083019092528382526b7a65726f206164647265737360a01b9190920190815261494c939190910191614a64565b505b6000838152600c6020908152604080832054600b83528184206001600160a01b03871680865290845282852091909155868452600d83528184208054600181810183559186528486200180546001600160a01b031916909217909155868452600f83528184208054808301825590855283852084820401805460ff601f9093166101000a92830219169091179055868452600e8352908320805491820181558352918190208351614a06939190910191840190614a64565b506000838152600c6020526040902054614a219060016156b9565b6000848152600c602052604090819020829055517f88356b104f5ba3e9281d371b21296e4e0390dda6f4bcc4bfc219f6d67cc8ae509161404291869186916155d2565b828054614a7090615729565b90600052602060002090601f016020900481019282614a925760008555614ad8565b82601f10614aab57805160ff1916838001178555614ad8565b82800160010185558215614ad8579182015b82811115614ad8578251825591602001919060010190614abd565b50614ae4929150614c3b565b5090565b828054614af490615729565b90600052602060002090601f016020900481019282614b165760008555614ad8565b82601f10614b2f5782800160ff19823516178555614ad8565b82800160010185558215614ad8579182015b82811115614ad8578235825591602001919060010190614b41565b50805460008255601f016020900490600052602060002090810190614b819190614c3b565b50565b5080546000825590600052602060002090810190614b819190614c50565b5080546000825590600052602060002090810190614b819190614c3b565b828054614bcc90615729565b90600052602060002090601f016020900481019282614bee5760008555614ad8565b82601f10614bff5780548555614ad8565b82800160010185558215614ad857600052602060002091601f016020900482015b82811115614ad8578254825591600101919060010190614c20565b5b80821115614ae45760008155600101614c3c565b80821115614ae4576000614c648282614c6d565b50600101614c50565b508054614c7990615729565b6000825580601f10614c89575050565b601f016020900490600052602060002090810190614b819190614c3b565b80356001600160a01b0381168114610cd857600080fd5b600082601f830112614ccf57600080fd5b813567ffffffffffffffff80821115614cea57614cea6157bb565b604051601f8301601f19908116603f01168101908282118183101715614d1257614d126157bb565b81604052838152866020858801011115614d2b57600080fd5b836020870160208301376000602085830101528094505050505092915050565b600060208284031215614d5d57600080fd5b614d6682614ca7565b9392505050565b600080600060608486031215614d8257600080fd5b614d8b84614ca7565b9250602084013567ffffffffffffffff811115614da757600080fd5b614db386828701614cbe565b925050604084013590509250925092565b60008060408385031215614dd757600080fd5b614de083614ca7565b946020939093013593505050565b600060208284031215614e0057600080fd5b813567ffffffffffffffff811115614e1757600080fd5b614e2384828501614cbe565b949350505050565b600060208284031215614e3d57600080fd5b5035919050565b60008060408385031215614e5757600080fd5b82359150614e6760208401614ca7565b90509250929050565b600080600060608486031215614e8557600080fd5b83359250614e9560208501614ca7565b9150604084013567ffffffffffffffff811115614eb157600080fd5b614ebd86828701614cbe565b9150509250925092565b600080600060408486031215614edc57600080fd5b83359250602084013567ffffffffffffffff80821115614efb57600080fd5b818601915086601f830112614f0f57600080fd5b813581811115614f1e57600080fd5b876020828501011115614f3057600080fd5b6020830194508093505050509250925092565b60008060008060808587031215614f5957600080fd5b84359350602085013567ffffffffffffffff80821115614f7857600080fd5b614f8488838901614cbe565b94506040870135915080821115614f9a57600080fd5b614fa688838901614cbe565b93506060870135915080821115614fbc57600080fd5b50614fc987828801614cbe565b91505092959194509250565b600081518084526020808501945080840160005b8381101561500e5781516001600160a01b031687529582019590820190600101614fe9565b509495945050505050565b600081518084526020808501945080840160005b8381101561500e57815115158752958201959082019060010161502d565b600081518084526020808501808196508360051b8101915082860160005b858110156150935782840389526150818483516150c2565b98850198935090840190600101615069565b5091979650505050505050565b600481106150be57634e487b7160e01b600052602160045260246000fd5b9052565b6000815180845260005b818110156150e8576020818501810151868301820152016150cc565b818111156150fa576000602083870101525b50601f01601f19169290920160200192915050565b8054600090600181811c908083168061512957607f831692505b602080841082141561514b57634e487b7160e01b600052602260045260246000fd5b838852602088018280156151665760018114615177576151a2565b60ff198716825282820197506151a2565b60008981526020902060005b8781101561519c57815484820152908601908401615183565b83019850505b5050505050505092915050565b602081526000614d666020830184614fd5565b6060815260006151d56060830186614fd5565b82810360208401526151e78186615019565b905082810360408401526151fb818561504b565b9695505050505050565b6060815260006152186060830186614fd5565b828103602084015261522a818661504b565b905082810360408401526151fb8185615019565b602081526000614d666020830184615019565b602081526000614d66602083018461504b565b6020808252825182820181905260009190848201906040850190845b8181101561529c57835183529284019291840191600101615280565b50909695505050505050565b60a081016152b682886150a0565b8560208301528460408301528360608301528260808301529695505050505050565b602081526000614d6660208301846150c2565b6060815260006152fe60608301866150c2565b828103602084015261531081866150c2565b905082810360408401526151fb81856150c2565b60208082526024908201527f6f6e6c79207468652063656f2063616e2063616c6c20746869732066756e637460408201526334b7b71760e11b606082015260800190565b6020808252601490820152733a34329030b8381034b9903830bab9b2b217171760611b604082015260600190565b6020808252603f908201527f4572726f723a20726563697069656e7420697320616c726561647920616e206560408201527f6c696769626c6520726563697069656e7420696e207468652067726f75702e00606082015260800190565b60208082526029908201527f6f6e6c792067726f75702061646d696e732063616e2063616c6c20746869732060408201526866756e6374696f6e2160b81b606082015260800190565b60208082526024908201527f6f6e6c792074686520636f6f2063616e2063616c6c20746869732066756e637460408201526334b7b71760e11b606082015260800190565b6020808252601f908201527f63616e6e6f74207365742043454f20746f207a65726f20616464726573732100604082015260600190565b6020815281516020820152600060208301516101608060408501526154e06101808501836150c2565b915060408501516154f460608601826150a0565b50606085015160808501526080850151601f19808685030160a087015261551b84836150c2565b935060a08701519150808685030160c087015261553884836150c2565b935060c08701519150808685030160e08701525061555683826150c2565b92505060e0850151610100615575818701836001600160a01b03169052565b86015161012086810191909152860151610140808701919091529095015193019290925250919050565b8381526001600160a01b03831660208201526060604082018190526000906155c9908301846150c2565b95945050505050565b9283526001600160a01b03919091166020830152604082015260600190565b828152604060208201526000614e2360408301846150c2565b87815260e06020820152600061562360e08301896150c2565b905061563260408301886150a0565b8560608301528460808301528360a08301528260c083015298975050505050505050565b828152604060208201526000614e23604083018461510f565b848152608060208201526000615688608083018661510f565b828103604084015261569a818661510f565b905082810360608401526156ae818561510f565b979650505050505050565b600082198211156156cc576156cc615779565b500190565b6000826156ee57634e487b7160e01b600052601260045260246000fd5b500490565b600081600019048311821515161561570d5761570d615779565b500290565b60008282101561572457615724615779565b500390565b600181811c9082168061573d57607f821691505b60208210811415613e1857634e487b7160e01b600052602260045260246000fd5b600060001982141561577257615772615779565b5060010190565b634e487b7160e01b600052601160045260246000fd5b634e487b7160e01b600052602160045260246000fd5b634e487b7160e01b600052603260045260246000fd5b634e487b7160e01b600052604160045260246000fdfea264697066735822122072bf63ccf44763d0af54fd02bdad10601433f5d65d5dd5c5efbbda55dbeab92d64736f6c63430008070033",
  "immutableReferences": {},
  "source": "// SPDX-License-Identifier: MIT\npragma solidity ^0.8.0;\n\nimport './ContributorManager.sol';\n\ncontract AdminsManager is ContributorManager {\n    event GroupCreated(uint256 groupId, string groupName);\n    event EventStarted(uint256 groupId, address indexed startedBy);\n    event RegistrationEnded(uint256 groupId, address indexed endedBy);\n    event EventEnded(uint256 groupId, address indexed endedBy);\n    event AdminAdded(uint256 groupId, address account, uint256 index);\n    event AdminRemoved(uint256 groupId, string name);\n    event AdminReEnabled(uint256 groupId, string name);\n    event GettingMyAdminIndex(uint256 groupId, address account, uint256 index);\n\n    event NewJoinerRequestApproved(\n        uint256 groupId,\n        address addressOfUserGettingApproved,\n        string nameOfUserGettingApproved\n    );\n\n    event CalculatedPot(\n        uint256 registeredRecipientCount,\n        uint256 winningsPerRecipient\n    );\n\n    constructor() {}\n\n    modifier onlyAdmins(uint256 groupId) {\n        require(\n            isAdmin(msg.sender, groupId),\n            'only group admins can call this function!'\n        );\n        _;\n    }\n\n    modifier wasntAlreadyAnAdmin(uint256 groupId, address account) {\n        require(adminAddressToIndex[groupId][account] == 0);\n        _;\n    }\n\n    function isAdmin(address account, uint256 groupId)\n        public\n        view\n        returns (bool)\n    {\n        uint256 adminIndex = adminAddressToIndex[groupId][account];\n\n        // if user was never an admin, return false\n        if (adminIndex == 0) {\n            return false;\n        }\n\n        return adminEnabled[groupId][adminIndex] == true;\n    }\n\n    function getMyAdminIndex(uint256 groupId) external view returns (uint256) {\n        return adminAddressToIndex[groupId][msg.sender];\n    }\n\n    // TODO - allow COO to give \"admin-granting power\" to other admins\n    function addAdmin(\n        uint256 groupId,\n        address account,\n        string memory name\n    ) external wasntAlreadyAnAdmin(groupId, account) onlyCOO {\n        _addAdmin(groupId, account, name);\n    }\n\n    // debug\n    function getAddressNextAdminIndex(uint256 groupId)\n        external\n        view\n        returns (uint256)\n    {\n        return nextAdminIndexForGroup[groupId];\n    }\n\n    function amIAdmin(uint256 groupId) external view returns (bool) {\n        return isAdmin(msg.sender, groupId);\n    }\n\n    function getAdminsForGroup(uint256 groupId)\n        external\n        view\n        returns (\n            address[] memory,\n            bool[] memory,\n            string[] memory\n        )\n    {\n        return (\n            adminAddresses[groupId],\n            adminEnabled[groupId],\n            adminNames[groupId]\n        );\n    }\n\n    modifier onlyAdminsOrCOO(uint256 groupId) {\n        require(isAdmin(msg.sender, groupId) || msg.sender == cooAddress);\n        _;\n    }\n\n    function reEnableAdmin(uint256 groupId, address account) external onlyCOO {\n        uint256 index = adminAddressToIndex[groupId][account];\n        adminEnabled[groupId][index] = true;\n        emit AdminReEnabled(groupId, adminNames[groupId][index]);\n    }\n\n    function removeAdmin(uint256 groupId, address account) external onlyCOO {\n        _removeAdmin(groupId, account);\n    }\n\n    function renounceAdmin(uint256 groupId) public onlyAdmins(groupId) {\n        _removeAdmin(groupId, msg.sender);\n    }\n\n    function _addAdmin(\n        uint256 groupId,\n        address account,\n        string memory name\n    ) internal {\n        // if first user, use index 1 and push some garbage things at the 0 index\n        if (nextAdminIndexForGroup[groupId] == 0) {\n            nextAdminIndexForGroup[groupId] = 1;\n\n            adminAddresses[groupId].push(address(0));\n            adminEnabled[groupId].push(false);\n            adminNames[groupId].push('zero address');\n        }\n\n        adminAddressToIndex[groupId][account] = nextAdminIndexForGroup[groupId];\n\n        adminAddresses[groupId].push(account);\n        adminEnabled[groupId].push(true);\n        adminNames[groupId].push(name);\n\n        nextAdminIndexForGroup[groupId] = nextAdminIndexForGroup[groupId] + 1;\n\n        emit AdminAdded(groupId, account, nextAdminIndexForGroup[groupId]);\n    }\n\n    function _removeAdmin(uint256 groupId, address account) internal {\n        uint256 index = adminAddressToIndex[groupId][account];\n\n        adminEnabled[groupId][index] = false;\n\n        emit AdminRemoved(groupId, adminNames[groupId][index]);\n    }\n\n    function readEventInfo(uint256 groupId)\n        external\n        view\n        onlyAdmins(groupId)\n        returns (EthDropEvent memory)\n    {\n        return currentEvents[groupId];\n    }\n\n    function createNewGroup(string memory groupName)\n        external\n        onlyCOO\n        whenNotPaused\n    {\n        // TODO - is this the best way to set the groupId? \n        uint256 newGroupId = nextGroupId;\n\n        EthDropEvent memory newGroup = EthDropEvent(\n            newGroupId,\n            groupName,\n            EventState.CREATED,\n            // block.timestamp,\n            // block.timestamp,\n            // block.timestamp,\n            0,\n            '',\n            '',\n            '',\n            address(0),\n            0,\n            0,\n            0\n        );\n\n        currentEvents[newGroupId] = newGroup;\n\n        listOfGroupIds.push(newGroupId);\n        listOfGroupNames.push(groupName);\n\n        eligibleRecipientsAddresstoIndex[newGroupId][address(0)] = 0;\n        eligibleRecipientsAddresstoIndex[newGroupId][address(0)] = 0;\n\n        requestsToJoinGroupNextIndex[newGroupId] = 0;\n\n        emit GroupCreated(newGroupId, groupName);\n\n        nextGroupId++;\n    }\n\n    function startEvent(uint256 groupId)\n        external\n        onlyAdmins(groupId)\n        whenNotPaused\n    {\n        currentEvents[groupId].currentState = EventState.REGISTRATION;\n\n        emit EventStarted(groupId, msg.sender);\n    }\n\n    function closeEventRegistration(uint256 groupId)\n        external\n        onlyAdmins(groupId)\n        whenNotPaused\n    {\n        require(\n            currentEvents[groupId].registeredRecipientsCount > 0,\n            \"Can't end registration with zero registrants!\"\n        );\n\n        uint256 devCutWei = (currentEvents[groupId].totalAmountContributed *\n            devCutPercentage) / 100;\n\n        // Transfer dev cut to cfo\n        payable(cfoAddress).transfer(devCutWei);\n\n        // pot is the amount for recipients to share\n        uint256 pot = currentEvents[groupId].totalAmountContributed - devCutWei;\n\n        // each recipient's winnings is the \"weiWinnings\"\n        currentEvents[groupId].weiWinnings =\n            pot /\n            currentEvents[groupId].registeredRecipientsCount;\n\n        currentEvents[groupId].currentState = EventState.CLAIM_WINNINGS;\n\n        emit RegistrationEnded(groupId, msg.sender);\n    }\n\n    function endEvent(uint256 groupId)\n        external\n        onlyAdminsOrCOO(groupId)\n        whenNotPaused\n    {\n        currentEvents[groupId].currentState = EventState.ENDED;\n\n        // First delete mappings, then arrays\n        for (\n            uint256 i = 0;\n            i < currentEvents[groupId].registeredRecipientsCount;\n            i++\n        ) {\n            address currentAddress = registeredRecipientAddressesArray[groupId][\n                i\n            ];\n\n            delete registeredRecipientsAddressToIndex[groupId][currentAddress];\n        }\n\n        delete registeredRecipientsWinningsCollected[groupId];\n        delete registeredRecipientNamesArray[groupId];\n        delete registeredRecipientAddressesArray[groupId];\n\n        registeredRecipientsNextIndex[groupId] = 0;\n\n        pastEvents[groupId].push(currentEvents[groupId]);\n\n        currentEvents[groupId].registeredRecipientsCount = 0;\n        currentEvents[groupId].totalAmountContributed = 0;\n        currentEvents[groupId].weiWinnings = 0;\n        currentEvents[groupId].numberOfUsersWhoClaimedWinnings = 0;\n\n        emit EventEnded(groupId, msg.sender);\n    }\n\n    modifier notAlreadyEligibleRecipient(uint256 groupId, address account) {\n        require(eligibleRecipientsAddresstoIndex[groupId][account] == 0,\n            \"Whoops, this address is already an eligible recipient!\");\n        _;\n    }\n\n    function addEligibleRecipient(\n        address addressOfUserGettingApproved,\n        string memory nameOfUserGettingApproved,\n        uint256 groupId\n    )\n        public\n        whenNotPaused\n        onlyAdmins(groupId)\n        notAlreadyEligibleRecipient(groupId, addressOfUserGettingApproved)\n    {\n        // if first user, use index 1 and push some garbage things at the 0 index\n        if (nextEligibleRecipientIndexForGroup[groupId] == 0) {\n            nextEligibleRecipientIndexForGroup[groupId] = 1;\n\n            eligibleRecipientAddressesArray[groupId].push(address(0));\n            eligibleRecipientNamesArray[groupId].push('');\n            eligibleRecipientsEligibilityIsEnabled[groupId].push(false);\n            eligibleRecipientsHasCollectedWinnings[groupId].push(true);\n        }\n\n        eligibleRecipientsAddresstoIndex[groupId][\n            addressOfUserGettingApproved\n        ] = nextEligibleRecipientIndexForGroup[groupId];\n\n        eligibleRecipientAddressesArray[groupId].push(\n            addressOfUserGettingApproved\n        );\n        eligibleRecipientNamesArray[groupId].push(nameOfUserGettingApproved);\n        eligibleRecipientsEligibilityIsEnabled[groupId].push(true);\n        eligibleRecipientsHasCollectedWinnings[groupId].push(false);\n\n        nextEligibleRecipientIndexForGroup[groupId] =\n            nextEligibleRecipientIndexForGroup[groupId] +\n            1;\n\n        emit EligibleRecipientAdded(addressOfUserGettingApproved, groupId);\n    }\n\n    function removeEligibleRecipient(address account, uint256 groupId)\n        external\n        onlyAdmins(groupId)\n        whenNotPaused\n    {\n        uint256 index = eligibleRecipientsAddresstoIndex[groupId][account];\n        eligibleRecipientsEligibilityIsEnabled[groupId][index] = false;\n        emit EligibleRecipientRemoved(account, groupId);\n    }\n\n    function changeContributor(address account, uint256 groupId)\n        external\n        onlyAdminsOrCOO(groupId)\n        whenNotPaused\n    {\n        _changeContributor(account, groupId);\n    }\n\n    function approveRequestToJoinGroup(\n        uint256 groupId,\n        address accountToApprove\n    )\n        external\n        onlyAdmins(groupId)\n        whenNotPaused\n        notAlreadyInGroup(groupId, accountToApprove)\n        requestToJoinGroupIsPending(groupId, accountToApprove)\n    {\n        uint256 requestsIndexOfUserGettingApproved = requestsToJoinGroupAddressToIndex[\n                groupId\n            ][accountToApprove];\n\n        address addressOfUserGettingApproved = requestsToJoinGroupAddresses[\n            groupId\n        ][requestsIndexOfUserGettingApproved];\n\n        string memory nameOfUserGettingApproved = requestsToJoinGroupNames[\n            groupId\n        ][requestsIndexOfUserGettingApproved];\n\n        // updates requests approvals array\n        requestsToJoinGroupApprovals[groupId][\n            requestsIndexOfUserGettingApproved\n        ] = true;\n\n        addEligibleRecipient(\n            addressOfUserGettingApproved,\n            nameOfUserGettingApproved,\n            groupId\n        );\n\n        emit NewJoinerRequestApproved(\n            groupId,\n            addressOfUserGettingApproved,\n            nameOfUserGettingApproved\n        );\n    }\n\n    function getNewJoinerRequests(uint256 groupId)\n        external\n        view\n        onlyAdmins(groupId)\n        returns (\n            address[] memory,\n            string[] memory,\n            bool[] memory\n        )\n    {\n        return (\n            requestsToJoinGroupAddresses[groupId],\n            requestsToJoinGroupNames[groupId],\n            requestsToJoinGroupApprovals[groupId]\n        );\n    }\n\n    function getEligibleRecipients(uint256 groupId)\n        external\n        view\n        returns (\n            address[] memory,\n            string[] memory,\n            bool[] memory\n        )\n    {\n        return (\n            eligibleRecipientAddressesArray[groupId],\n            eligibleRecipientNamesArray[groupId],\n            eligibleRecipientsEligibilityIsEnabled[groupId]\n        );\n    }\n}\n",
  "sourcePath": "/Users/jim/trash/EthDrop/contracts/roles/AdminsManager.sol",
  "compiler": {
    "name": "solc",
    "version": "0.8.7+commit.e28d00a7.Emscripten.clang"
  },
  "schemaVersion": "3.4.3",
  "updatedAt": "2021-09-18T21:03:42.235Z",
  "networkType": "ethereum",
  "devdoc": {
    "kind": "dev",
    "methods": {
      "pause()": {
        "details": "Called by any \"C-level\" role to pause the contract. Used only when  a bug or exploit is detected and we need to limit damage."
      },
      "setCEO(address)": {
        "details": "Assigns a new address to act as the CEO. Only available to the current CEO.",
        "params": {
          "_newCEO": "The address of the new CEO"
        }
      },
      "setCFO(address)": {
        "details": "Assigns a new address to act as the CFO. Only available to the current CEO.",
        "params": {
          "_newCFO": "The address of the new CFO"
        }
      },
      "setCOO(address)": {
        "details": "Assigns a new address to act as the COO. Only available to the current CEO.",
        "params": {
          "_newCOO": "The address of the new COO"
        }
      },
      "unpause()": {
        "details": "Unpauses the smart contract. Can only be called by the CEO, since  one reason we may pause the contract is when CFO or COO accounts are  compromised."
      }
    },
    "version": 1
  },
  "userdoc": {
    "kind": "user",
    "methods": {
      "unpause()": {
        "notice": "This is public rather than external so it can be called by  derived contracts."
      }
    },
    "version": 1
  }
}