{
  "contractName": "ContributorManager",
  "abi": [
    {
      "inputs": [],
      "stateMutability": "nonpayable",
      "type": "constructor"
    },
    {
      "anonymous": false,
      "inputs": [
        {
          "indexed": false,
          "internalType": "bool",
          "name": "isPaused",
          "type": "bool"
        }
      ],
      "name": "AppPaused",
      "type": "event"
    },
    {
      "anonymous": false,
      "inputs": [],
      "name": "CfoUpdated",
      "type": "event"
    },
    {
      "anonymous": false,
      "inputs": [
        {
          "indexed": false,
          "internalType": "address",
          "name": "newContract",
          "type": "address"
        }
      ],
      "name": "ContractUpgrade",
      "type": "event"
    },
    {
      "anonymous": false,
      "inputs": [
        {
          "indexed": true,
          "internalType": "address",
          "name": "account",
          "type": "address"
        },
        {
          "indexed": false,
          "internalType": "uint256",
          "name": "groupId",
          "type": "uint256"
        },
        {
          "indexed": false,
          "internalType": "uint256",
          "name": "amount",
          "type": "uint256"
        }
      ],
      "name": "ContributionMade",
      "type": "event"
    },
    {
      "anonymous": false,
      "inputs": [
        {
          "indexed": true,
          "internalType": "address",
          "name": "account",
          "type": "address"
        },
        {
          "indexed": false,
          "internalType": "uint256",
          "name": "groupId",
          "type": "uint256"
        }
      ],
      "name": "ContributorAdded",
      "type": "event"
    },
    {
      "anonymous": false,
      "inputs": [
        {
          "indexed": false,
          "internalType": "uint256",
          "name": "groupId",
          "type": "uint256"
        },
        {
          "indexed": false,
          "internalType": "address",
          "name": "newContributor",
          "type": "address"
        }
      ],
      "name": "ContributorAddressUpdated",
      "type": "event"
    },
    {
      "anonymous": false,
      "inputs": [
        {
          "indexed": false,
          "internalType": "uint256",
          "name": "groupId",
          "type": "uint256"
        },
        {
          "indexed": false,
          "internalType": "string",
          "name": "sponsorName",
          "type": "string"
        },
        {
          "indexed": false,
          "internalType": "string",
          "name": "imgUrl",
          "type": "string"
        },
        {
          "indexed": false,
          "internalType": "string",
          "name": "imgLinkToUrl",
          "type": "string"
        }
      ],
      "name": "ContributorInfoUpdated",
      "type": "event"
    },
    {
      "anonymous": false,
      "inputs": [
        {
          "indexed": true,
          "internalType": "address",
          "name": "account",
          "type": "address"
        },
        {
          "indexed": false,
          "internalType": "uint256",
          "name": "groupId",
          "type": "uint256"
        }
      ],
      "name": "ContributorRemoved",
      "type": "event"
    },
    {
      "anonymous": false,
      "inputs": [],
      "name": "CooUpdated",
      "type": "event"
    },
    {
      "anonymous": false,
      "inputs": [
        {
          "indexed": true,
          "internalType": "address",
          "name": "account",
          "type": "address"
        },
        {
          "indexed": false,
          "internalType": "uint256",
          "name": "groupId",
          "type": "uint256"
        }
      ],
      "name": "EligibleRecipientAdded",
      "type": "event"
    },
    {
      "anonymous": false,
      "inputs": [
        {
          "indexed": true,
          "internalType": "address",
          "name": "account",
          "type": "address"
        },
        {
          "indexed": false,
          "internalType": "uint256",
          "name": "groupId",
          "type": "uint256"
        }
      ],
      "name": "EligibleRecipientRemoved",
      "type": "event"
    },
    {
      "anonymous": false,
      "inputs": [],
      "name": "EventClose",
      "type": "event"
    },
    {
      "anonymous": false,
      "inputs": [
        {
          "indexed": false,
          "internalType": "uint256",
          "name": "groupId",
          "type": "uint256"
        },
        {
          "indexed": false,
          "internalType": "address",
          "name": "account",
          "type": "address"
        },
        {
          "indexed": false,
          "internalType": "uint256",
          "name": "index",
          "type": "uint256"
        }
      ],
      "name": "NewUserRequestedToJoinGroup",
      "type": "event"
    },
    {
      "anonymous": false,
      "inputs": [
        {
          "indexed": true,
          "internalType": "address",
          "name": "account",
          "type": "address"
        },
        {
          "indexed": false,
          "internalType": "uint256",
          "name": "groupId",
          "type": "uint256"
        }
      ],
      "name": "RecipientRegistered",
      "type": "event"
    },
    {
      "anonymous": false,
      "inputs": [],
      "name": "RegistrationOpen",
      "type": "event"
    },
    {
      "anonymous": false,
      "inputs": [
        {
          "indexed": false,
          "internalType": "address",
          "name": "from",
          "type": "address"
        },
        {
          "indexed": false,
          "internalType": "address",
          "name": "to",
          "type": "address"
        }
      ],
      "name": "Transfer",
      "type": "event"
    },
    {
      "anonymous": false,
      "inputs": [
        {
          "indexed": true,
          "internalType": "address",
          "name": "account",
          "type": "address"
        },
        {
          "indexed": false,
          "internalType": "uint256",
          "name": "groupId",
          "type": "uint256"
        }
      ],
      "name": "WinningsClaimed",
      "type": "event"
    },
    {
      "anonymous": false,
      "inputs": [],
      "name": "WinningsClaimingOpen",
      "type": "event"
    },
    {
      "inputs": [
        {
          "internalType": "uint256",
          "name": "groupId",
          "type": "uint256"
        }
      ],
      "name": "amIEligibleRecipient",
      "outputs": [
        {
          "internalType": "bool",
          "name": "",
          "type": "bool"
        }
      ],
      "stateMutability": "view",
      "type": "function",
      "constant": true
    },
    {
      "inputs": [
        {
          "internalType": "uint256",
          "name": "groupId",
          "type": "uint256"
        }
      ],
      "name": "amIPendingNewJoiner",
      "outputs": [
        {
          "internalType": "bool",
          "name": "",
          "type": "bool"
        }
      ],
      "stateMutability": "view",
      "type": "function",
      "constant": true
    },
    {
      "inputs": [
        {
          "internalType": "uint256",
          "name": "groupId",
          "type": "uint256"
        }
      ],
      "name": "amIRegisteredRecipient",
      "outputs": [
        {
          "internalType": "bool",
          "name": "",
          "type": "bool"
        }
      ],
      "stateMutability": "view",
      "type": "function",
      "constant": true
    },
    {
      "inputs": [],
      "name": "ceoAddress",
      "outputs": [
        {
          "internalType": "address",
          "name": "",
          "type": "address"
        }
      ],
      "stateMutability": "view",
      "type": "function",
      "constant": true
    },
    {
      "inputs": [],
      "name": "cfoAddress",
      "outputs": [
        {
          "internalType": "address",
          "name": "",
          "type": "address"
        }
      ],
      "stateMutability": "view",
      "type": "function",
      "constant": true
    },
    {
      "inputs": [
        {
          "internalType": "uint256",
          "name": "groupId",
          "type": "uint256"
        }
      ],
      "name": "claimWinnings",
      "outputs": [],
      "stateMutability": "nonpayable",
      "type": "function"
    },
    {
      "inputs": [],
      "name": "cooAddress",
      "outputs": [
        {
          "internalType": "address",
          "name": "",
          "type": "address"
        }
      ],
      "stateMutability": "view",
      "type": "function",
      "constant": true
    },
    {
      "inputs": [
        {
          "internalType": "uint256",
          "name": "groupId",
          "type": "uint256"
        }
      ],
      "name": "doIHaveClaimableWinnings",
      "outputs": [
        {
          "internalType": "bool",
          "name": "",
          "type": "bool"
        }
      ],
      "stateMutability": "view",
      "type": "function",
      "constant": true
    },
    {
      "inputs": [],
      "name": "getCFO",
      "outputs": [
        {
          "internalType": "address",
          "name": "",
          "type": "address"
        }
      ],
      "stateMutability": "view",
      "type": "function",
      "constant": true
    },
    {
      "inputs": [],
      "name": "getCOO",
      "outputs": [
        {
          "internalType": "address",
          "name": "",
          "type": "address"
        }
      ],
      "stateMutability": "view",
      "type": "function",
      "constant": true
    },
    {
      "inputs": [
        {
          "internalType": "uint256",
          "name": "groupId",
          "type": "uint256"
        }
      ],
      "name": "getEligibleRecipientAddresses",
      "outputs": [
        {
          "internalType": "address[]",
          "name": "",
          "type": "address[]"
        }
      ],
      "stateMutability": "view",
      "type": "function",
      "constant": true
    },
    {
      "inputs": [
        {
          "internalType": "uint256",
          "name": "groupId",
          "type": "uint256"
        }
      ],
      "name": "getEligibleRecipientIsEligibilityEnabled",
      "outputs": [
        {
          "internalType": "bool[]",
          "name": "",
          "type": "bool[]"
        }
      ],
      "stateMutability": "view",
      "type": "function",
      "constant": true
    },
    {
      "inputs": [
        {
          "internalType": "uint256",
          "name": "groupId",
          "type": "uint256"
        }
      ],
      "name": "getEligibleRecipientNames",
      "outputs": [
        {
          "internalType": "string[]",
          "name": "",
          "type": "string[]"
        }
      ],
      "stateMutability": "view",
      "type": "function",
      "constant": true
    },
    {
      "inputs": [
        {
          "internalType": "uint256",
          "name": "groupId",
          "type": "uint256"
        }
      ],
      "name": "getGroupEventData",
      "outputs": [
        {
          "internalType": "enum EthDropBase.EventState",
          "name": "",
          "type": "uint8"
        },
        {
          "internalType": "uint256",
          "name": "",
          "type": "uint256"
        },
        {
          "internalType": "uint256",
          "name": "",
          "type": "uint256"
        },
        {
          "internalType": "uint256",
          "name": "",
          "type": "uint256"
        },
        {
          "internalType": "uint256",
          "name": "",
          "type": "uint256"
        }
      ],
      "stateMutability": "view",
      "type": "function",
      "constant": true
    },
    {
      "inputs": [],
      "name": "getGroupIds",
      "outputs": [
        {
          "internalType": "uint256[]",
          "name": "",
          "type": "uint256[]"
        }
      ],
      "stateMutability": "view",
      "type": "function",
      "constant": true
    },
    {
      "inputs": [],
      "name": "getGroupNames",
      "outputs": [
        {
          "internalType": "string[]",
          "name": "",
          "type": "string[]"
        }
      ],
      "stateMutability": "view",
      "type": "function",
      "constant": true
    },
    {
      "inputs": [
        {
          "internalType": "uint256",
          "name": "groupId",
          "type": "uint256"
        }
      ],
      "name": "getGroupPublicData",
      "outputs": [
        {
          "internalType": "uint256",
          "name": "",
          "type": "uint256"
        },
        {
          "internalType": "string",
          "name": "",
          "type": "string"
        },
        {
          "internalType": "enum EthDropBase.EventState",
          "name": "",
          "type": "uint8"
        },
        {
          "internalType": "uint256",
          "name": "",
          "type": "uint256"
        },
        {
          "internalType": "uint256",
          "name": "",
          "type": "uint256"
        },
        {
          "internalType": "uint256",
          "name": "",
          "type": "uint256"
        },
        {
          "internalType": "uint256",
          "name": "",
          "type": "uint256"
        }
      ],
      "stateMutability": "view",
      "type": "function",
      "constant": true
    },
    {
      "inputs": [
        {
          "internalType": "uint256",
          "name": "groupId",
          "type": "uint256"
        }
      ],
      "name": "getRegisteredRecipientNames",
      "outputs": [
        {
          "internalType": "string[]",
          "name": "",
          "type": "string[]"
        }
      ],
      "stateMutability": "view",
      "type": "function",
      "constant": true
    },
    {
      "inputs": [
        {
          "internalType": "uint256",
          "name": "groupId",
          "type": "uint256"
        }
      ],
      "name": "getRegisteredRecipients",
      "outputs": [
        {
          "internalType": "address[]",
          "name": "",
          "type": "address[]"
        },
        {
          "internalType": "string[]",
          "name": "",
          "type": "string[]"
        },
        {
          "internalType": "bool[]",
          "name": "",
          "type": "bool[]"
        }
      ],
      "stateMutability": "view",
      "type": "function",
      "constant": true
    },
    {
      "inputs": [],
      "name": "getString",
      "outputs": [
        {
          "internalType": "string",
          "name": "",
          "type": "string"
        }
      ],
      "stateMutability": "view",
      "type": "function",
      "constant": true
    },
    {
      "inputs": [],
      "name": "isCEO",
      "outputs": [
        {
          "internalType": "bool",
          "name": "",
          "type": "bool"
        }
      ],
      "stateMutability": "view",
      "type": "function",
      "constant": true
    },
    {
      "inputs": [],
      "name": "isCFO",
      "outputs": [
        {
          "internalType": "bool",
          "name": "",
          "type": "bool"
        }
      ],
      "stateMutability": "view",
      "type": "function",
      "constant": true
    },
    {
      "inputs": [],
      "name": "isCOO",
      "outputs": [
        {
          "internalType": "bool",
          "name": "",
          "type": "bool"
        }
      ],
      "stateMutability": "view",
      "type": "function",
      "constant": true
    },
    {
      "inputs": [
        {
          "internalType": "address",
          "name": "account",
          "type": "address"
        },
        {
          "internalType": "uint256",
          "name": "groupId",
          "type": "uint256"
        }
      ],
      "name": "isEligibleRecipient",
      "outputs": [
        {
          "internalType": "bool",
          "name": "",
          "type": "bool"
        }
      ],
      "stateMutability": "view",
      "type": "function",
      "constant": true
    },
    {
      "inputs": [],
      "name": "isPaused",
      "outputs": [
        {
          "internalType": "bool",
          "name": "",
          "type": "bool"
        }
      ],
      "stateMutability": "view",
      "type": "function",
      "constant": true
    },
    {
      "inputs": [
        {
          "internalType": "address",
          "name": "account",
          "type": "address"
        },
        {
          "internalType": "uint256",
          "name": "groupId",
          "type": "uint256"
        }
      ],
      "name": "isRegisteredRecipient",
      "outputs": [
        {
          "internalType": "bool",
          "name": "",
          "type": "bool"
        }
      ],
      "stateMutability": "view",
      "type": "function",
      "constant": true
    },
    {
      "inputs": [],
      "name": "pause",
      "outputs": [],
      "stateMutability": "nonpayable",
      "type": "function"
    },
    {
      "inputs": [],
      "name": "paused",
      "outputs": [
        {
          "internalType": "bool",
          "name": "",
          "type": "bool"
        }
      ],
      "stateMutability": "view",
      "type": "function",
      "constant": true
    },
    {
      "inputs": [
        {
          "internalType": "uint256",
          "name": "groupId",
          "type": "uint256"
        }
      ],
      "name": "registerForEvent",
      "outputs": [],
      "stateMutability": "nonpayable",
      "type": "function"
    },
    {
      "inputs": [
        {
          "internalType": "uint256",
          "name": "groupId",
          "type": "uint256"
        },
        {
          "internalType": "string",
          "name": "username",
          "type": "string"
        }
      ],
      "name": "requestToJoinGroup",
      "outputs": [],
      "stateMutability": "nonpayable",
      "type": "function"
    },
    {
      "inputs": [
        {
          "internalType": "address",
          "name": "_newCEO",
          "type": "address"
        }
      ],
      "name": "setCEO",
      "outputs": [],
      "stateMutability": "nonpayable",
      "type": "function"
    },
    {
      "inputs": [
        {
          "internalType": "address",
          "name": "_newCFO",
          "type": "address"
        }
      ],
      "name": "setCFO",
      "outputs": [],
      "stateMutability": "nonpayable",
      "type": "function"
    },
    {
      "inputs": [
        {
          "internalType": "address",
          "name": "_newCOO",
          "type": "address"
        }
      ],
      "name": "setCOO",
      "outputs": [],
      "stateMutability": "nonpayable",
      "type": "function"
    },
    {
      "inputs": [
        {
          "internalType": "string",
          "name": "_s",
          "type": "string"
        }
      ],
      "name": "setString",
      "outputs": [],
      "stateMutability": "nonpayable",
      "type": "function"
    },
    {
      "inputs": [],
      "name": "stringgg",
      "outputs": [
        {
          "internalType": "string",
          "name": "",
          "type": "string"
        }
      ],
      "stateMutability": "view",
      "type": "function",
      "constant": true
    },
    {
      "inputs": [],
      "name": "unpause",
      "outputs": [
        {
          "internalType": "bool",
          "name": "",
          "type": "bool"
        }
      ],
      "stateMutability": "nonpayable",
      "type": "function"
    },
    {
      "inputs": [],
      "name": "whoami",
      "outputs": [
        {
          "internalType": "address",
          "name": "",
          "type": "address"
        }
      ],
      "stateMutability": "view",
      "type": "function",
      "constant": true
    },
    {
      "inputs": [
        {
          "internalType": "address",
          "name": "account",
          "type": "address"
        },
        {
          "internalType": "uint256",
          "name": "groupId",
          "type": "uint256"
        }
      ],
      "name": "isContributor",
      "outputs": [
        {
          "internalType": "bool",
          "name": "",
          "type": "bool"
        }
      ],
      "stateMutability": "view",
      "type": "function",
      "constant": true
    },
    {
      "inputs": [
        {
          "internalType": "uint256",
          "name": "groupId",
          "type": "uint256"
        }
      ],
      "name": "amIContributor",
      "outputs": [
        {
          "internalType": "bool",
          "name": "",
          "type": "bool"
        }
      ],
      "stateMutability": "view",
      "type": "function",
      "constant": true
    },
    {
      "inputs": [
        {
          "internalType": "uint256",
          "name": "groupId",
          "type": "uint256"
        }
      ],
      "name": "getCurrentSponsorAddress",
      "outputs": [
        {
          "internalType": "address",
          "name": "",
          "type": "address"
        }
      ],
      "stateMutability": "view",
      "type": "function",
      "constant": true
    },
    {
      "inputs": [
        {
          "internalType": "uint256",
          "name": "groupId",
          "type": "uint256"
        },
        {
          "internalType": "string",
          "name": "newContributorName",
          "type": "string"
        },
        {
          "internalType": "string",
          "name": "newContributorImgUrl",
          "type": "string"
        },
        {
          "internalType": "string",
          "name": "newContributorLinkToUrl",
          "type": "string"
        }
      ],
      "name": "updateContributorInfo",
      "outputs": [],
      "stateMutability": "nonpayable",
      "type": "function"
    },
    {
      "inputs": [
        {
          "internalType": "uint256",
          "name": "groupId",
          "type": "uint256"
        }
      ],
      "name": "getContributorInfo",
      "outputs": [
        {
          "internalType": "string",
          "name": "newContributorName",
          "type": "string"
        },
        {
          "internalType": "string",
          "name": "newContributorImgUrl",
          "type": "string"
        },
        {
          "internalType": "string",
          "name": "newContributorLinkToUrl",
          "type": "string"
        }
      ],
      "stateMutability": "view",
      "type": "function",
      "constant": true
    },
    {
      "inputs": [
        {
          "internalType": "uint256",
          "name": "groupId",
          "type": "uint256"
        }
      ],
      "name": "contributeToPot",
      "outputs": [],
      "stateMutability": "payable",
      "type": "function",
      "payable": true
    }
  ],
  "bytecode": "0x6080604052600180546001600160a01b031916331781556003805460ff60a01b191690556005805560085534801561003657600080fd5b50613084806100466000396000f3fe60806040526004361061025c5760003560e01c80637b936ac211610144578063b3b36bb3116100b6578063e513b7a91161007a578063e513b7a91461077b578063e82f24e01461079b578063ee41b592146107ae578063f4a02e70146107ce578063f89e9cb9146107ee578063fc5fd6e41461080e57600080fd5b8063b3b36bb3146106e9578063c02b8b2c146106fc578063c6db50941461071e578063cd04e47514610733578063d5f016c31461076657600080fd5b806389ea642f1161010857806389ea642f1461061b5780639393ae371461063d5780639bda87961461065d578063aea88a051461068a578063b047fb50146106aa578063b187bd26146106ca57600080fd5b80637b936ac2146105885780637d837ce5146105a65780637fcaf666146105c65780638182aaf2146105e65780638456cb591461060657600080fd5b8063406db843116101dd57806355b57ec1116101a157806355b57ec1146104ab5780635c975abb146104d85780635e82c1fc146104f9578063674811ca14610519578063677bd9ff14610548578063744c5e1e1461056857600080fd5b8063406db843146103eb57806344b2983b1461040b578063454432e21461043a5780634635509b1461045a5780634e0a33791461048b57600080fd5b8063222fd08711610224578063222fd0871461035457806327d7874c146103765780632ba73c151461039657806338f0b656146103b65780633f4ba83a146103d657600080fd5b80630519ce791461026157806306cc49221461029e57806307bfa330146102ce5780630a0f8168146102fb5780630d82ffa01461031b575b600080fd5b34801561026d57600080fd5b50600254610281906001600160a01b031681565b6040516001600160a01b0390911681526020015b60405180910390f35b3480156102aa57600080fd5b506102be6102b9366004612a0c565b61082c565b6040519015158152602001610295565b3480156102da57600080fd5b506102ee6102e9366004612a0c565b610885565b6040516102959190612d76565b34801561030757600080fd5b50600154610281906001600160a01b031681565b34801561032757600080fd5b50610281610336366004612a0c565b6000908152600960205260409020600701546001600160a01b031690565b34801561036057600080fd5b5061037461036f366004612a25565b610971565b005b34801561038257600080fd5b50610374610391366004612983565b610cd4565b3480156103a257600080fd5b506103746103b1366004612983565b610d46565b3480156103c257600080fd5b506102be6103d1366004612a0c565b610dca565b3480156103e257600080fd5b506102be610e07565b3480156103f757600080fd5b50610374610406366004612a0c565b610ec2565b34801561041757600080fd5b5061042b610426366004612a0c565b6112d4565b60405161029593929190612d20565b34801561044657600080fd5b506102ee610455366004612a0c565b6114a1565b34801561046657600080fd5b5061047a610475366004612a0c565b611582565b604051610295959493929190612dcd565b34801561049757600080fd5b506103746104a6366004612983565b6118a2565b3480156104b757600080fd5b506104cb6104c6366004612a0c565b611939565b6040516102959190612d63565b3480156104e457600080fd5b506003546102be90600160a01b900460ff1681565b34801561050557600080fd5b506102be6105143660046129a5565b6119bb565b34801561052557600080fd5b50610539610534366004612a0c565b611a12565b60405161029593929190612e10565b34801561055457600080fd5b50610374610563366004612a0c565b611be0565b34801561057457600080fd5b506102be610583366004612a0c565b611dc0565b34801561059457600080fd5b506002546001600160a01b0316610281565b3480156105b257600080fd5b506102be6105c13660046129a5565b611e0d565b3480156105d257600080fd5b506103746105e13660046129cf565b611e64565b3480156105f257600080fd5b506102be6106013660046129a5565b611e7b565b34801561061257600080fd5b50610374611ecc565b34801561062757600080fd5b50610630611fa9565b6040516102959190612dfd565b34801561064957600080fd5b506002546001600160a01b031633146102be565b34801561066957600080fd5b5061067d610678366004612a0c565b61203b565b6040516102959190612d0d565b34801561069657600080fd5b506103746106a5366004612aa1565b6120a6565b3480156106b657600080fd5b50600354610281906001600160a01b031681565b3480156106d657600080fd5b50600354600160a01b900460ff166102be565b3480156106f557600080fd5b5033610281565b34801561070857600080fd5b506107116121a0565b6040516102959190612d89565b34801561072a57600080fd5b506106306121f7565b34801561073f57600080fd5b5061075361074e366004612a0c565b612285565b6040516102959796959493929190612ef2565b34801561077257600080fd5b506102ee6125cf565b34801561078757600080fd5b506001546001600160a01b031633146102be565b6103746107a9366004612a0c565b6126a8565b3480156107ba57600080fd5b506102be6107c9366004612a0c565b61275c565b3480156107da57600080fd5b506003546001600160a01b031633146102be565b3480156107fa57600080fd5b506102be610809366004612a0c565b612793565b34801561081a57600080fd5b506003546001600160a01b0316610281565b600354600090600160a01b900460ff16156108625760405162461bcd60e51b815260040161085990612e8d565b60405180910390fd5b50600081815260106020908152604080832033845290915290205415155b919050565b6060601f6000838152602001908152602001600020805480602002602001604051908101604052809291908181526020016000905b828210156109665783829060005260206000200180546108d990612fa0565b80601f016020809104026020016040519081016040528092919081815260200182805461090590612fa0565b80156109525780601f1061092757610100808354040283529160200191610952565b820191906000526020600020905b81548152906001019060200180831161093557829003601f168201915b5050505050815260200190600101906108ba565b505050509050919050565b6000838152601760209081526040808320338085529252909120548491908015610a035760405162461bcd60e51b815260206004820152603d60248201527f4572726f723a207468697320616464726573732068617320616c72656164792060448201527f72657175657374656420746f206a6f696e20746869732067726f75702e0000006064820152608401610859565b6000868152601060209081526040808320338085529252909120548791908015610a955760405162461bcd60e51b815260206004820152603f60248201527f4572726f723a20726563697069656e7420697320616c726561647920616e206560448201527f6c696769626c6520726563697069656e7420696e207468652067726f75702e006064820152608401610859565b600089815260186020526040902054610b7d57600089815260186020908152604080832060019081905560198352818420805480830182559085528385200180546001600160a01b03191690558c8452601a835281842080549182018155845282842082519384019283905292849052610b11939201916127d2565b506000898152601b60209081526040808320805460018082018355918552838520848204018054601f92831661010090810a60ff908102199092169092558f8752601c86529386208054938401815586529484902093820490930180549190931690930a021990911690555b6000898152601860209081526040808320546017835281842033808652908452828520919091558c8452601983528184208054600181810183559186528486200180546001600160a01b0319169092179091558c8452601a83529083208054918201815583529120610bf191018989612856565b506000898152601b60209081526040808320805460018082018355918552838520848204018054601f92831661010090810a60ff81810219909316179092558f8752601c8652848720805480860182559088528688208782040180549190941690920a02191690558c8452601890925290912054610c6e91612f88565b60008a815260186020908152604080832093909355600c8152908290205482518c815233928101929092528183015290517fc73d895047e43bcf8caa9f1cce950d0f1a21fc9a00a8d693db86cd0c93dc91aa9181900360600190a1505050505050505050565b6001546001600160a01b03163314610cfe5760405162461bcd60e51b815260040161085990612e49565b6001600160a01b038116610d245760405162461bcd60e51b815260040161085990612ebb565b600180546001600160a01b0319166001600160a01b0392909216919091179055565b6001546001600160a01b03163314610d705760405162461bcd60e51b815260040161085990612e49565b6001600160a01b038116610d8357600080fd5b600380546001600160a01b0319166001600160a01b0383161790556040517fa308298a77084def994b565be25bff2e8fbfe7006c2c6b2bacfb84d1ba1f635090600090a150565b600354600090600160a01b900460ff1615610df75760405162461bcd60e51b815260040161085990612e8d565b610e013383611e0d565b92915050565b6001546000906001600160a01b03163314610e345760405162461bcd60e51b815260040161085990612e49565b600354600160a01b900460ff16610ea55760405162461bcd60e51b815260206004820152602f60248201527f66756e6374696f6e2063616e206f6e6c792062652063616c6c6564207768656e60448201526e1030b8381034b9903830bab9b2b21760891b6064820152608401610859565b506003805460ff60a01b191690819055600160a01b900460ff1690565b80610ecd33826119bb565b610f2b5760405162461bcd60e51b815260206004820152602960248201527f736f7272792c20796f7520617265206e6f7420616e20656c696769626c65207260448201526832b1b4b834b2b73a1760b91b6064820152608401610859565b60008281526010602090815260408083203380855290835281842054868552601490935292208054859392919082908110610f6857610f68613022565b60009182526020918290209181049091015460ff601f9092166101000a9004166110065760405162461bcd60e51b815260206004820152604360248201527f4572726f723a20726563697069656e74277320656c696769626c696c6974792060448201527f686173206265656e2064697361626c656420666f7220746869732067726f757060648201526217171760e91b608482015260a401610859565b600354600160a01b900460ff16156110305760405162461bcd60e51b815260040161085990612e8d565b6000858152601e60205260409020546110e4576000858152601e60209081526040808320600190819055828052818420805480830182559085528385200180546001600160a01b0319169055888452601f8352818420805491820181558452828420825193840192839052928490526110ab939201916127d2565b5060008581526021602090815260408220805460018101825590835291819020908204018054601f9092166101000a60ff021990911690555b60008581526010602090815260408083203384528252808320548884526013909252822080549192918390811061111d5761111d613022565b90600052602060002001805461113290612fa0565b80601f016020809104026020016040519081016040528092919081815260200182805461115e90612fa0565b80156111ab5780601f10611180576101008083540402835291602001916111ab565b820191906000526020600020905b81548152906001019060200180831161118e57829003601f168201915b50505060008a8152602080805260408083208054600181810183559185528385200180546001600160a01b031916331790558d8452601f835290832080549182018155835291819020855195965061120a9592019350850191506127d2565b506000878152602160209081526040808320805460018082018355918552838520848204018054601f9092166101000a60ff021990911690558a845260099092529091206003015461125b91612f88565b600088815260096020908152604080832060030193909355601e90522054611284906001612f88565b6000888152601e6020908152604091829020929092555188815233917f0695e999be8100bdb5bee8612337296508d527eae78c65b8f170eacb5a3b439d910160405180910390a250505050505050565b600081815260208080526040808320601f83528184206021845293829020815483518186028101860190945280845260609586958695919392859183018282801561134857602002820191906000526020600020905b81546001600160a01b0316815260019091019060200180831161132a575b5050505050925081805480602002602001604051908101604052809291908181526020016000905b8282101561141c57838290600052602060002001805461138f90612fa0565b80601f01602080910402602001604051908101604052809291908181526020018280546113bb90612fa0565b80156114085780601f106113dd57610100808354040283529160200191611408565b820191906000526020600020905b8154815290600101906020018083116113eb57829003601f168201915b505050505081526020019060010190611370565b5050505091508080548060200260200160405190810160405280929190818152602001828054801561148d57602002820191906000526020600020906000905b825461010083900a900460ff16151581526020600192830181810494850194909303909202910180841161145c5790505b505050505090509250925092509193909250565b606060136000838152602001908152602001600020805480602002602001604051908101604052809291908181526020016000905b828210156109665783829060005260206000200180546114f590612fa0565b80601f016020809104026020016040519081016040528092919081815260200182805461152190612fa0565b801561156e5780601f106115435761010080835404028352916020019161156e565b820191906000526020600020905b81548152906001019060200180831161155157829003601f168201915b5050505050815260200190600101906114d6565b6000806000806000806009600088815260200190815260200160002060405180610160016040529081600082015481526020016001820180546115c490612fa0565b80601f01602080910402602001604051908101604052809291908181526020018280546115f090612fa0565b801561163d5780601f106116125761010080835404028352916020019161163d565b820191906000526020600020905b81548152906001019060200180831161162057829003601f168201915b5050509183525050600282015460209091019060ff1660038111156116645761166461300c565b60038111156116755761167561300c565b81526020016003820154815260200160048201805461169390612fa0565b80601f01602080910402602001604051908101604052809291908181526020018280546116bf90612fa0565b801561170c5780601f106116e15761010080835404028352916020019161170c565b820191906000526020600020905b8154815290600101906020018083116116ef57829003601f168201915b5050505050815260200160058201805461172590612fa0565b80601f016020809104026020016040519081016040528092919081815260200182805461175190612fa0565b801561179e5780601f106117735761010080835404028352916020019161179e565b820191906000526020600020905b81548152906001019060200180831161178157829003601f168201915b505050505081526020016006820180546117b790612fa0565b80601f01602080910402602001604051908101604052809291908181526020018280546117e390612fa0565b80156118305780601f1061180557610100808354040283529160200191611830565b820191906000526020600020905b81548152906001019060200180831161181357829003601f168201915b505050918352505060078201546001600160a01b0316602082015260088201546040808301919091526009830154606080840191909152600a909301546080909201919091528201519082015161010083015161012084015161014090940151929b919a509850919650945092505050565b6001546001600160a01b031633146118cc5760405162461bcd60e51b815260040161085990612e49565b6001600160a01b0381166118f25760405162461bcd60e51b815260040161085990612ebb565b600280546001600160a01b0319166001600160a01b0383161790556040517f162e32528b5907ecf876b3b7a4e5e0edf878642e3ec25852e3c35af1a4e1c04090600090a150565b6000818152601460209081526040918290208054835181840281018401909452808452606093928301828280156119af57602002820191906000526020600020906000905b825461010083900a900460ff16151581526020600192830181810494850194909303909202910180841161197e5790505b50505050509050919050565b600354600090600160a01b900460ff16156119e85760405162461bcd60e51b815260040161085990612e8d565b5060009081526010602090815260408083206001600160a01b039490941683529290522054151590565b600081815260096020526040902060048101805460609283928392909160058101916006909101908390611a4590612fa0565b80601f0160208091040260200160405190810160405280929190818152602001828054611a7190612fa0565b8015611abe5780601f10611a9357610100808354040283529160200191611abe565b820191906000526020600020905b815481529060010190602001808311611aa157829003601f168201915b50505050509250818054611ad190612fa0565b80601f0160208091040260200160405190810160405280929190818152602001828054611afd90612fa0565b8015611b4a5780601f10611b1f57610100808354040283529160200191611b4a565b820191906000526020600020905b815481529060010190602001808311611b2d57829003601f168201915b50505050509150808054611b5d90612fa0565b80601f0160208091040260200160405190810160405280929190818152602001828054611b8990612fa0565b801561148d5780601f10611bab5761010080835404028352916020019161148d565b820191906000526020600020905b815481529060010190602001808311611bb95750969b959a50929850939650505050505050565b80611beb3382611e0d565b611c4a5760405162461bcd60e51b815260206004820152602a60248201527f736f7272792c20796f7520617265206e6f7420612072656769737465726564206044820152693932b1b4b834b2b73a1760b11b6064820152608401610859565b60008281526015602090815260408083203380855292529091205483919060ff16151560011415611cd95760405162461bcd60e51b815260206004820152603360248201527f77686f6f70732c206c6f6f6b73206c696b6520796f7527766520616c726561646044820152727920636c61696d65642077696e6e696e67732160681b6064820152608401610859565b600354600160a01b900460ff1615611d035760405162461bcd60e51b815260040161085990612e8d565b60008481526015602090815260408083203384528252808320805460ff1916600117905586835260099091528120600a01805491611d4083612fdb565b90915550506000848152600960208190526040808320909101549051339282156108fc02929190818181858888f19350505050158015611d84573d6000803e3d6000fd5b5060405184815233907f1a31e733a172afcf46074b3106c17f0c298e226442682a03c1e99ce256139ec29060200160405180910390a250505050565b600354600090600160a01b900460ff1615611ded5760405162461bcd60e51b815260040161085990612e8d565b506000908152601760209081526040808320338452909152902054151590565b600354600090600160a01b900460ff1615611e3a5760405162461bcd60e51b815260040161085990612e8d565b506000908152601d602090815260408083206001600160a01b039490941683529290522054151590565b8051611e779060009060208401906127d2565b5050565b600354600090600160a01b900460ff1615611ea85760405162461bcd60e51b815260040161085990612e8d565b506000908152600960205260409020600701546001600160a01b0390811691161490565b6003546001600160a01b0316331480611eef57506001546001600160a01b031633145b80611f0457506002546001600160a01b031633145b611f6a5760405162461bcd60e51b815260206004820152603160248201527f6f6e6c7920736f6d656f6e652066726f6d20632d73756974652063616e2063616044820152703636103a3434b990333ab731ba34b7b71760791b6064820152608401610859565b600354600160a01b900460ff1615611f945760405162461bcd60e51b815260040161085990612e8d565b6003805460ff60a01b1916600160a01b179055565b606060008054611fb890612fa0565b80601f0160208091040260200160405190810160405280929190818152602001828054611fe490612fa0565b80156120315780601f1061200657610100808354040283529160200191612031565b820191906000526020600020905b81548152906001019060200180831161201457829003601f168201915b5050505050905090565b6000818152601260209081526040918290208054835181840281018401909452808452606093928301828280156119af57602002820191906000526020600020905b81546001600160a01b0316815260019091019060200180831161207d5750505050509050919050565b836120b13382611e7b565b6120ba57600080fd5b8351156120e857600085815260096020908152604090912085516120e6926004909201918701906127d2565b505b8251156121165760008581526009602090815260409091208451612114926005909201918601906127d2565b505b8151156121445760008581526009602090815260409091208351612142926006909201918501906127d2565b505b6000858152600960205260409081902090517fcd9ad49d834aeea746bafd2d26eebd3d01ebac2d8f5d3f53d7f3884292e5835f916121919188916004810191600582019160060190612f3e565b60405180910390a15050505050565b6060600680548060200260200160405190810160405280929190818152602001828054801561203157602002820191906000526020600020905b8154815260200190600101908083116121da575050505050905090565b6000805461220490612fa0565b80601f016020809104026020016040519081016040528092919081815260200182805461223090612fa0565b801561227d5780601f106122525761010080835404028352916020019161227d565b820191906000526020600020905b81548152906001019060200180831161226057829003601f168201915b505050505081565b60006060600080600080600080600960008a815260200190815260200160002060405180610160016040529081600082015481526020016001820180546122cb90612fa0565b80601f01602080910402602001604051908101604052809291908181526020018280546122f790612fa0565b80156123445780601f1061231957610100808354040283529160200191612344565b820191906000526020600020905b81548152906001019060200180831161232757829003601f168201915b5050509183525050600282015460209091019060ff16600381111561236b5761236b61300c565b600381111561237c5761237c61300c565b81526020016003820154815260200160048201805461239a90612fa0565b80601f01602080910402602001604051908101604052809291908181526020018280546123c690612fa0565b80156124135780601f106123e857610100808354040283529160200191612413565b820191906000526020600020905b8154815290600101906020018083116123f657829003601f168201915b5050505050815260200160058201805461242c90612fa0565b80601f016020809104026020016040519081016040528092919081815260200182805461245890612fa0565b80156124a55780601f1061247a576101008083540402835291602001916124a5565b820191906000526020600020905b81548152906001019060200180831161248857829003601f168201915b505050505081526020016006820180546124be90612fa0565b80601f01602080910402602001604051908101604052809291908181526020018280546124ea90612fa0565b80156125375780601f1061250c57610100808354040283529160200191612537565b820191906000526020600020905b81548152906001019060200180831161251a57829003601f168201915b505050505081526020016007820160009054906101000a90046001600160a01b03166001600160a01b03166001600160a01b031681526020016008820154815260200160098201548152602001600a8201548152505090508060000151816020015182604001518360600151846101000151856101200151866101400151975097509750975097509750975050919395979092949650565b60606007805480602002602001604051908101604052809291908181526020016000905b8282101561269f57838290600052602060002001805461261290612fa0565b80601f016020809104026020016040519081016040528092919081815260200182805461263e90612fa0565b801561268b5780601f106126605761010080835404028352916020019161268b565b820191906000526020600020905b81548152906001019060200180831161266e57829003601f168201915b5050505050815260200190600101906125f3565b50505050905090565b806126b33382611e7b565b6126bc57600080fd5b600354600160a01b900460ff16156126e65760405162461bcd60e51b815260040161085990612e8d565b60008281526009602052604081206008018054349290612707908490612f88565b90915550506000828152600960209081526040918290206008015482518581529182015233917f5dc1fe5ab986a852c4eda8e8bb94247d13307065c593fb83f1a09be273679382910160405180910390a25050565b600354600090600160a01b900460ff16156127895760405162461bcd60e51b815260040161085990612e8d565b610e013383611e7b565b600061279f3383611e0d565b6127ab57506000919050565b50600090815260156020908152604080832033845290915290205460ff1615156001141590565b8280546127de90612fa0565b90600052602060002090601f0160209004810192826128005760008555612846565b82601f1061281957805160ff1916838001178555612846565b82800160010185558215612846579182015b8281111561284657825182559160200191906001019061282b565b506128529291506128ca565b5090565b82805461286290612fa0565b90600052602060002090601f0160209004810192826128845760008555612846565b82601f1061289d5782800160ff19823516178555612846565b82800160010185558215612846579182015b828111156128465782358255916020019190600101906128af565b5b8082111561285257600081556001016128cb565b80356001600160a01b038116811461088057600080fd5b600082601f83011261290757600080fd5b813567ffffffffffffffff8082111561292257612922613038565b604051601f8301601f19908116603f0116810190828211818310171561294a5761294a613038565b8160405283815286602085880101111561296357600080fd5b836020870160208301376000602085830101528094505050505092915050565b60006020828403121561299557600080fd5b61299e826128df565b9392505050565b600080604083850312156129b857600080fd5b6129c1836128df565b946020939093013593505050565b6000602082840312156129e157600080fd5b813567ffffffffffffffff8111156129f857600080fd5b612a04848285016128f6565b949350505050565b600060208284031215612a1e57600080fd5b5035919050565b600080600060408486031215612a3a57600080fd5b83359250602084013567ffffffffffffffff80821115612a5957600080fd5b818601915086601f830112612a6d57600080fd5b813581811115612a7c57600080fd5b876020828501011115612a8e57600080fd5b6020830194508093505050509250925092565b60008060008060808587031215612ab757600080fd5b84359350602085013567ffffffffffffffff80821115612ad657600080fd5b612ae2888389016128f6565b94506040870135915080821115612af857600080fd5b612b04888389016128f6565b93506060870135915080821115612b1a57600080fd5b50612b27878288016128f6565b91505092959194509250565b600081518084526020808501945080840160005b83811015612b6c5781516001600160a01b031687529582019590820190600101612b47565b509495945050505050565b600081518084526020808501945080840160005b83811015612b6c578151151587529582019590820190600101612b8b565b600081518084526020808501808196508360051b8101915082860160005b85811015612bf1578284038952612bdf848351612c20565b98850198935090840190600101612bc7565b5091979650505050505050565b60048110612c1c57634e487b7160e01b600052602160045260246000fd5b9052565b6000815180845260005b81811015612c4657602081850181015186830182015201612c2a565b81811115612c58576000602083870101525b50601f01601f19169290920160200192915050565b8054600090600181811c9080831680612c8757607f831692505b6020808410821415612ca957634e487b7160e01b600052602260045260246000fd5b83885260208801828015612cc45760018114612cd557612d00565b60ff19871682528282019750612d00565b60008981526020902060005b87811015612cfa57815484820152908601908401612ce1565b83019850505b5050505050505092915050565b60208152600061299e6020830184612b33565b606081526000612d336060830186612b33565b8281036020840152612d458186612ba9565b90508281036040840152612d598185612b77565b9695505050505050565b60208152600061299e6020830184612b77565b60208152600061299e6020830184612ba9565b6020808252825182820181905260009190848201906040850190845b81811015612dc157835183529284019291840191600101612da5565b50909695505050505050565b60a08101612ddb8288612bfe565b8560208301528460408301528360608301528260808301529695505050505050565b60208152600061299e6020830184612c20565b606081526000612e236060830186612c20565b8281036020840152612e358186612c20565b90508281036040840152612d598185612c20565b60208082526024908201527f6f6e6c79207468652063656f2063616e2063616c6c20746869732066756e637460408201526334b7b71760e11b606082015260800190565b6020808252601490820152733a34329030b8381034b9903830bab9b2b217171760611b604082015260600190565b6020808252601f908201527f63616e6e6f74207365742043454f20746f207a65726f20616464726573732100604082015260600190565b87815260e060208201526000612f0b60e0830189612c20565b9050612f1a6040830188612bfe565b8560608301528460808301528360a08301528260c083015298975050505050505050565b848152608060208201526000612f576080830186612c6d565b8281036040840152612f698186612c6d565b90508281036060840152612f7d8185612c6d565b979650505050505050565b60008219821115612f9b57612f9b612ff6565b500190565b600181811c90821680612fb457607f821691505b60208210811415612fd557634e487b7160e01b600052602260045260246000fd5b50919050565b6000600019821415612fef57612fef612ff6565b5060010190565b634e487b7160e01b600052601160045260246000fd5b634e487b7160e01b600052602160045260246000fd5b634e487b7160e01b600052603260045260246000fd5b634e487b7160e01b600052604160045260246000fdfea2646970667358221220b82c4e8e514fc2b35ce7bcda3759ed95c21eae56bc63a08e3d056b5eb4382c6464736f6c63430008070033",
  "immutableReferences": {},
  "source": "// SPDX-License-Identifier: MIT\npragma solidity ^0.8.0;\n\nimport \"./RecipientsManager.sol\";\n\ncontract ContributorManager is RecipientsManager {\n    event ContributorAdded(address indexed account, uint256 groupId);\n    event ContributorRemoved(address indexed account, uint256 groupId);\n\n    event ContributorAddressUpdated(uint256 groupId, address newContributor);\n    event ContributorInfoUpdated(\n        uint256 groupId,\n        string sponsorName,\n        string imgUrl,\n        string imgLinkToUrl\n    );\n\n    event ContributionMade(\n        address indexed account,\n        uint256 groupId,\n        uint256 amount\n    );\n\n    constructor() {}\n\n    modifier onlyContributor(uint256 groupId) {\n        require(isContributor(msg.sender, groupId));\n        _;\n    }\n\n    function isContributor(address account, uint256 groupId)\n        public\n        view\n        whenNotPaused\n        returns (bool)\n    {\n        return account == currentEvents[groupId].currentContributor;\n    }\n\n    function amIContributor(uint256 groupId)\n        external\n        view\n        whenNotPaused\n        returns (bool)\n    {\n        return isContributor(msg.sender, groupId);\n    }\n\n    function getCurrentSponsorAddress(uint256 groupId)\n        external\n        view\n        returns (address)\n    {\n        return currentEvents[groupId].currentContributor;\n    }\n\n    function _changeContributor(address account, uint256 groupId) internal {\n        contributors[groupId][account] = true;\n\n        currentEvents[groupId].currentContributor = account;\n        emit ContributorAdded(account, groupId);\n    }\n\n    function updateContributorInfo(\n        uint256 groupId,\n        string memory newContributorName,\n        string memory newContributorImgUrl,\n        string memory newContributorLinkToUrl\n    ) external onlyContributor(groupId) {\n        if (bytes(newContributorName).length > 0) {\n            currentEvents[groupId].sponsorName = newContributorName;\n        }\n        if (bytes(newContributorImgUrl).length > 0) {\n            currentEvents[groupId].sponsorImageUrl = newContributorImgUrl;\n        }\n        if (bytes(newContributorLinkToUrl).length > 0) {\n            currentEvents[groupId].sponsorLinkToUrl = newContributorLinkToUrl;\n        }\n\n        emit ContributorInfoUpdated(\n            groupId,\n            currentEvents[groupId].sponsorName,\n            currentEvents[groupId].sponsorImageUrl,\n            currentEvents[groupId].sponsorLinkToUrl\n        );\n    }\n\n    function getContributorInfo(uint256 groupId)\n        external\n        view\n        returns (\n            string memory newContributorName,\n            string memory newContributorImgUrl,\n            string memory newContributorLinkToUrl\n        )\n    {\n        return (\n            currentEvents[groupId].sponsorName,\n            currentEvents[groupId].sponsorImageUrl,\n            currentEvents[groupId].sponsorLinkToUrl\n        );\n    }\n\n    function contributeToPot(uint256 groupId)\n        external\n        payable\n        onlyContributor(groupId)\n        whenNotPaused\n    {\n        currentEvents[groupId].totalAmountContributed += msg.value;\n        emit ContributionMade(\n            msg.sender,\n            groupId,\n            currentEvents[groupId].totalAmountContributed\n        );\n    }\n}\n",
  "sourcePath": "/Users/jim/trash/EthDrop/contracts/roles/ContributorManager.sol",
  "compiler": {
    "name": "solc",
    "version": "0.8.7+commit.e28d00a7.Emscripten.clang"
  },
  "schemaVersion": "3.4.3",
  "updatedAt": "2021-09-15T04:33:33.863Z",
  "networkType": "ethereum",
  "devdoc": {
    "kind": "dev",
    "methods": {
      "pause()": {
        "details": "Called by any \"C-level\" role to pause the contract. Used only when  a bug or exploit is detected and we need to limit damage."
      },
      "setCEO(address)": {
        "details": "Assigns a new address to act as the CEO. Only available to the current CEO.",
        "params": {
          "_newCEO": "The address of the new CEO"
        }
      },
      "setCFO(address)": {
        "details": "Assigns a new address to act as the CFO. Only available to the current CEO.",
        "params": {
          "_newCFO": "The address of the new CFO"
        }
      },
      "setCOO(address)": {
        "details": "Assigns a new address to act as the COO. Only available to the current CEO.",
        "params": {
          "_newCOO": "The address of the new COO"
        }
      },
      "unpause()": {
        "details": "Unpauses the smart contract. Can only be called by the CEO, since  one reason we may pause the contract is when CFO or COO accounts are  compromised."
      }
    },
    "version": 1
  },
  "userdoc": {
    "kind": "user",
    "methods": {
      "unpause()": {
        "notice": "This is public rather than external so it can be called by  derived contracts."
      }
    },
    "version": 1
  }
}