{
  "contractName": "ContributorManager",
  "abi": [
    {
      "inputs": [],
      "stateMutability": "nonpayable",
      "type": "constructor"
    },
    {
      "anonymous": false,
      "inputs": [
        {
          "indexed": false,
          "internalType": "bool",
          "name": "isPaused",
          "type": "bool"
        }
      ],
      "name": "AppPaused",
      "type": "event"
    },
    {
      "anonymous": false,
      "inputs": [],
      "name": "CfoUpdated",
      "type": "event"
    },
    {
      "anonymous": false,
      "inputs": [
        {
          "indexed": false,
          "internalType": "address",
          "name": "newContract",
          "type": "address"
        }
      ],
      "name": "ContractUpgrade",
      "type": "event"
    },
    {
      "anonymous": false,
      "inputs": [
        {
          "indexed": true,
          "internalType": "address",
          "name": "account",
          "type": "address"
        },
        {
          "indexed": false,
          "internalType": "uint256",
          "name": "groupId",
          "type": "uint256"
        },
        {
          "indexed": false,
          "internalType": "uint256",
          "name": "amount",
          "type": "uint256"
        }
      ],
      "name": "ContributionMade",
      "type": "event"
    },
    {
      "anonymous": false,
      "inputs": [
        {
          "indexed": true,
          "internalType": "address",
          "name": "account",
          "type": "address"
        },
        {
          "indexed": false,
          "internalType": "uint256",
          "name": "groupId",
          "type": "uint256"
        }
      ],
      "name": "ContributorAdded",
      "type": "event"
    },
    {
      "anonymous": false,
      "inputs": [
        {
          "indexed": false,
          "internalType": "uint256",
          "name": "groupId",
          "type": "uint256"
        },
        {
          "indexed": false,
          "internalType": "address",
          "name": "newContributor",
          "type": "address"
        }
      ],
      "name": "ContributorAddressUpdated",
      "type": "event"
    },
    {
      "anonymous": false,
      "inputs": [
        {
          "indexed": false,
          "internalType": "uint256",
          "name": "groupId",
          "type": "uint256"
        },
        {
          "indexed": false,
          "internalType": "string",
          "name": "sponsorName",
          "type": "string"
        },
        {
          "indexed": false,
          "internalType": "string",
          "name": "imgUrl",
          "type": "string"
        },
        {
          "indexed": false,
          "internalType": "string",
          "name": "imgLinkToUrl",
          "type": "string"
        }
      ],
      "name": "ContributorInfoUpdated",
      "type": "event"
    },
    {
      "anonymous": false,
      "inputs": [
        {
          "indexed": true,
          "internalType": "address",
          "name": "account",
          "type": "address"
        },
        {
          "indexed": false,
          "internalType": "uint256",
          "name": "groupId",
          "type": "uint256"
        }
      ],
      "name": "ContributorRemoved",
      "type": "event"
    },
    {
      "anonymous": false,
      "inputs": [],
      "name": "CooUpdated",
      "type": "event"
    },
    {
      "anonymous": false,
      "inputs": [
        {
          "indexed": true,
          "internalType": "address",
          "name": "account",
          "type": "address"
        },
        {
          "indexed": false,
          "internalType": "uint256",
          "name": "groupId",
          "type": "uint256"
        }
      ],
      "name": "EligibleRecipientAdded",
      "type": "event"
    },
    {
      "anonymous": false,
      "inputs": [
        {
          "indexed": true,
          "internalType": "address",
          "name": "account",
          "type": "address"
        },
        {
          "indexed": false,
          "internalType": "uint256",
          "name": "groupId",
          "type": "uint256"
        }
      ],
      "name": "EligibleRecipientRemoved",
      "type": "event"
    },
    {
      "anonymous": false,
      "inputs": [],
      "name": "EventClose",
      "type": "event"
    },
    {
      "anonymous": false,
      "inputs": [
        {
          "indexed": false,
          "internalType": "uint256",
          "name": "groupId",
          "type": "uint256"
        },
        {
          "indexed": false,
          "internalType": "address",
          "name": "account",
          "type": "address"
        },
        {
          "indexed": false,
          "internalType": "uint256",
          "name": "index",
          "type": "uint256"
        }
      ],
      "name": "NewUserRequestedToJoinGroup",
      "type": "event"
    },
    {
      "anonymous": false,
      "inputs": [
        {
          "indexed": true,
          "internalType": "address",
          "name": "account",
          "type": "address"
        },
        {
          "indexed": false,
          "internalType": "uint256",
          "name": "groupId",
          "type": "uint256"
        }
      ],
      "name": "RecipientRegistered",
      "type": "event"
    },
    {
      "anonymous": false,
      "inputs": [],
      "name": "RegistrationOpen",
      "type": "event"
    },
    {
      "anonymous": false,
      "inputs": [
        {
          "indexed": false,
          "internalType": "address",
          "name": "from",
          "type": "address"
        },
        {
          "indexed": false,
          "internalType": "address",
          "name": "to",
          "type": "address"
        }
      ],
      "name": "Transfer",
      "type": "event"
    },
    {
      "anonymous": false,
      "inputs": [
        {
          "indexed": true,
          "internalType": "address",
          "name": "account",
          "type": "address"
        },
        {
          "indexed": false,
          "internalType": "uint256",
          "name": "groupId",
          "type": "uint256"
        }
      ],
      "name": "WinningsClaimed",
      "type": "event"
    },
    {
      "anonymous": false,
      "inputs": [],
      "name": "WinningsClaimingOpen",
      "type": "event"
    },
    {
      "inputs": [
        {
          "internalType": "uint256",
          "name": "groupId",
          "type": "uint256"
        }
      ],
      "name": "amIEligibleRecipient",
      "outputs": [
        {
          "internalType": "bool",
          "name": "",
          "type": "bool"
        }
      ],
      "stateMutability": "view",
      "type": "function",
      "constant": true
    },
    {
      "inputs": [
        {
          "internalType": "uint256",
          "name": "groupId",
          "type": "uint256"
        }
      ],
      "name": "amIPendingNewJoiner",
      "outputs": [
        {
          "internalType": "bool",
          "name": "",
          "type": "bool"
        }
      ],
      "stateMutability": "view",
      "type": "function",
      "constant": true
    },
    {
      "inputs": [
        {
          "internalType": "uint256",
          "name": "groupId",
          "type": "uint256"
        }
      ],
      "name": "amIRegisteredRecipient",
      "outputs": [
        {
          "internalType": "bool",
          "name": "",
          "type": "bool"
        }
      ],
      "stateMutability": "view",
      "type": "function",
      "constant": true
    },
    {
      "inputs": [],
      "name": "ceoAddress",
      "outputs": [
        {
          "internalType": "address",
          "name": "",
          "type": "address"
        }
      ],
      "stateMutability": "view",
      "type": "function",
      "constant": true
    },
    {
      "inputs": [],
      "name": "cfoAddress",
      "outputs": [
        {
          "internalType": "address",
          "name": "",
          "type": "address"
        }
      ],
      "stateMutability": "view",
      "type": "function",
      "constant": true
    },
    {
      "inputs": [
        {
          "internalType": "uint256",
          "name": "groupId",
          "type": "uint256"
        }
      ],
      "name": "claimWinnings",
      "outputs": [],
      "stateMutability": "nonpayable",
      "type": "function"
    },
    {
      "inputs": [],
      "name": "cooAddress",
      "outputs": [
        {
          "internalType": "address",
          "name": "",
          "type": "address"
        }
      ],
      "stateMutability": "view",
      "type": "function",
      "constant": true
    },
    {
      "inputs": [
        {
          "internalType": "uint256",
          "name": "groupId",
          "type": "uint256"
        }
      ],
      "name": "doIHaveClaimableWinnings",
      "outputs": [
        {
          "internalType": "bool",
          "name": "",
          "type": "bool"
        }
      ],
      "stateMutability": "view",
      "type": "function",
      "constant": true
    },
    {
      "inputs": [],
      "name": "getCFO",
      "outputs": [
        {
          "internalType": "address",
          "name": "",
          "type": "address"
        }
      ],
      "stateMutability": "view",
      "type": "function",
      "constant": true
    },
    {
      "inputs": [],
      "name": "getCOO",
      "outputs": [
        {
          "internalType": "address",
          "name": "",
          "type": "address"
        }
      ],
      "stateMutability": "view",
      "type": "function",
      "constant": true
    },
    {
      "inputs": [
        {
          "internalType": "uint256",
          "name": "groupId",
          "type": "uint256"
        }
      ],
      "name": "getEligibleRecipientAddresses",
      "outputs": [
        {
          "internalType": "address[]",
          "name": "",
          "type": "address[]"
        }
      ],
      "stateMutability": "view",
      "type": "function",
      "constant": true
    },
    {
      "inputs": [
        {
          "internalType": "uint256",
          "name": "groupId",
          "type": "uint256"
        }
      ],
      "name": "getEligibleRecipientIsEligibilityEnabled",
      "outputs": [
        {
          "internalType": "bool[]",
          "name": "",
          "type": "bool[]"
        }
      ],
      "stateMutability": "view",
      "type": "function",
      "constant": true
    },
    {
      "inputs": [
        {
          "internalType": "uint256",
          "name": "groupId",
          "type": "uint256"
        }
      ],
      "name": "getEligibleRecipientNames",
      "outputs": [
        {
          "internalType": "string[]",
          "name": "",
          "type": "string[]"
        }
      ],
      "stateMutability": "view",
      "type": "function",
      "constant": true
    },
    {
      "inputs": [
        {
          "internalType": "uint256",
          "name": "groupId",
          "type": "uint256"
        }
      ],
      "name": "getGroupEventData",
      "outputs": [
        {
          "internalType": "enum EthDropBase.EventState",
          "name": "",
          "type": "uint8"
        },
        {
          "internalType": "uint256",
          "name": "",
          "type": "uint256"
        },
        {
          "internalType": "uint256",
          "name": "",
          "type": "uint256"
        },
        {
          "internalType": "uint256",
          "name": "",
          "type": "uint256"
        },
        {
          "internalType": "uint256",
          "name": "",
          "type": "uint256"
        }
      ],
      "stateMutability": "view",
      "type": "function",
      "constant": true
    },
    {
      "inputs": [],
      "name": "getGroupIds",
      "outputs": [
        {
          "internalType": "uint256[]",
          "name": "",
          "type": "uint256[]"
        }
      ],
      "stateMutability": "view",
      "type": "function",
      "constant": true
    },
    {
      "inputs": [],
      "name": "getGroupNames",
      "outputs": [
        {
          "internalType": "string[]",
          "name": "",
          "type": "string[]"
        }
      ],
      "stateMutability": "view",
      "type": "function",
      "constant": true
    },
    {
      "inputs": [
        {
          "internalType": "uint256",
          "name": "groupId",
          "type": "uint256"
        }
      ],
      "name": "getGroupPublicData",
      "outputs": [
        {
          "internalType": "uint256",
          "name": "",
          "type": "uint256"
        },
        {
          "internalType": "string",
          "name": "",
          "type": "string"
        },
        {
          "internalType": "enum EthDropBase.EventState",
          "name": "",
          "type": "uint8"
        },
        {
          "internalType": "uint256",
          "name": "",
          "type": "uint256"
        },
        {
          "internalType": "uint256",
          "name": "",
          "type": "uint256"
        },
        {
          "internalType": "uint256",
          "name": "",
          "type": "uint256"
        },
        {
          "internalType": "uint256",
          "name": "",
          "type": "uint256"
        }
      ],
      "stateMutability": "view",
      "type": "function",
      "constant": true
    },
    {
      "inputs": [
        {
          "internalType": "uint256",
          "name": "groupId",
          "type": "uint256"
        }
      ],
      "name": "getRegisteredRecipientNames",
      "outputs": [
        {
          "internalType": "string[]",
          "name": "",
          "type": "string[]"
        }
      ],
      "stateMutability": "view",
      "type": "function",
      "constant": true
    },
    {
      "inputs": [
        {
          "internalType": "uint256",
          "name": "groupId",
          "type": "uint256"
        }
      ],
      "name": "getRegisteredRecipients",
      "outputs": [
        {
          "internalType": "address[]",
          "name": "",
          "type": "address[]"
        },
        {
          "internalType": "string[]",
          "name": "",
          "type": "string[]"
        },
        {
          "internalType": "bool[]",
          "name": "",
          "type": "bool[]"
        }
      ],
      "stateMutability": "view",
      "type": "function",
      "constant": true
    },
    {
      "inputs": [],
      "name": "getString",
      "outputs": [
        {
          "internalType": "string",
          "name": "",
          "type": "string"
        }
      ],
      "stateMutability": "view",
      "type": "function",
      "constant": true
    },
    {
      "inputs": [],
      "name": "isCEO",
      "outputs": [
        {
          "internalType": "bool",
          "name": "",
          "type": "bool"
        }
      ],
      "stateMutability": "view",
      "type": "function",
      "constant": true
    },
    {
      "inputs": [],
      "name": "isCFO",
      "outputs": [
        {
          "internalType": "bool",
          "name": "",
          "type": "bool"
        }
      ],
      "stateMutability": "view",
      "type": "function",
      "constant": true
    },
    {
      "inputs": [],
      "name": "isCOO",
      "outputs": [
        {
          "internalType": "bool",
          "name": "",
          "type": "bool"
        }
      ],
      "stateMutability": "view",
      "type": "function",
      "constant": true
    },
    {
      "inputs": [
        {
          "internalType": "address",
          "name": "account",
          "type": "address"
        },
        {
          "internalType": "uint256",
          "name": "groupId",
          "type": "uint256"
        }
      ],
      "name": "isEligibleRecipient",
      "outputs": [
        {
          "internalType": "bool",
          "name": "",
          "type": "bool"
        }
      ],
      "stateMutability": "view",
      "type": "function",
      "constant": true
    },
    {
      "inputs": [],
      "name": "isPaused",
      "outputs": [
        {
          "internalType": "bool",
          "name": "",
          "type": "bool"
        }
      ],
      "stateMutability": "view",
      "type": "function",
      "constant": true
    },
    {
      "inputs": [
        {
          "internalType": "address",
          "name": "account",
          "type": "address"
        },
        {
          "internalType": "uint256",
          "name": "groupId",
          "type": "uint256"
        }
      ],
      "name": "isRegisteredRecipient",
      "outputs": [
        {
          "internalType": "bool",
          "name": "",
          "type": "bool"
        }
      ],
      "stateMutability": "view",
      "type": "function",
      "constant": true
    },
    {
      "inputs": [],
      "name": "pause",
      "outputs": [],
      "stateMutability": "nonpayable",
      "type": "function"
    },
    {
      "inputs": [],
      "name": "paused",
      "outputs": [
        {
          "internalType": "bool",
          "name": "",
          "type": "bool"
        }
      ],
      "stateMutability": "view",
      "type": "function",
      "constant": true
    },
    {
      "inputs": [
        {
          "internalType": "uint256",
          "name": "groupId",
          "type": "uint256"
        }
      ],
      "name": "registerForEvent",
      "outputs": [],
      "stateMutability": "nonpayable",
      "type": "function"
    },
    {
      "inputs": [
        {
          "internalType": "uint256",
          "name": "groupId",
          "type": "uint256"
        },
        {
          "internalType": "string",
          "name": "username",
          "type": "string"
        }
      ],
      "name": "requestToJoinGroup",
      "outputs": [],
      "stateMutability": "nonpayable",
      "type": "function"
    },
    {
      "inputs": [
        {
          "internalType": "address",
          "name": "_newCEO",
          "type": "address"
        }
      ],
      "name": "setCEO",
      "outputs": [],
      "stateMutability": "nonpayable",
      "type": "function"
    },
    {
      "inputs": [
        {
          "internalType": "address",
          "name": "_newCFO",
          "type": "address"
        }
      ],
      "name": "setCFO",
      "outputs": [],
      "stateMutability": "nonpayable",
      "type": "function"
    },
    {
      "inputs": [
        {
          "internalType": "address",
          "name": "_newCOO",
          "type": "address"
        }
      ],
      "name": "setCOO",
      "outputs": [],
      "stateMutability": "nonpayable",
      "type": "function"
    },
    {
      "inputs": [
        {
          "internalType": "string",
          "name": "_s",
          "type": "string"
        }
      ],
      "name": "setString",
      "outputs": [],
      "stateMutability": "nonpayable",
      "type": "function"
    },
    {
      "inputs": [],
      "name": "stringgg",
      "outputs": [
        {
          "internalType": "string",
          "name": "",
          "type": "string"
        }
      ],
      "stateMutability": "view",
      "type": "function",
      "constant": true
    },
    {
      "inputs": [],
      "name": "unpause",
      "outputs": [
        {
          "internalType": "bool",
          "name": "",
          "type": "bool"
        }
      ],
      "stateMutability": "nonpayable",
      "type": "function"
    },
    {
      "inputs": [],
      "name": "whoami",
      "outputs": [
        {
          "internalType": "address",
          "name": "",
          "type": "address"
        }
      ],
      "stateMutability": "view",
      "type": "function",
      "constant": true
    },
    {
      "inputs": [
        {
          "internalType": "address",
          "name": "account",
          "type": "address"
        },
        {
          "internalType": "uint256",
          "name": "groupId",
          "type": "uint256"
        }
      ],
      "name": "isContributor",
      "outputs": [
        {
          "internalType": "bool",
          "name": "",
          "type": "bool"
        }
      ],
      "stateMutability": "view",
      "type": "function",
      "constant": true
    },
    {
      "inputs": [
        {
          "internalType": "uint256",
          "name": "groupId",
          "type": "uint256"
        }
      ],
      "name": "amIContributor",
      "outputs": [
        {
          "internalType": "bool",
          "name": "",
          "type": "bool"
        }
      ],
      "stateMutability": "view",
      "type": "function",
      "constant": true
    },
    {
      "inputs": [
        {
          "internalType": "uint256",
          "name": "groupId",
          "type": "uint256"
        }
      ],
      "name": "getCurrentSponsorAddress",
      "outputs": [
        {
          "internalType": "address",
          "name": "",
          "type": "address"
        }
      ],
      "stateMutability": "view",
      "type": "function",
      "constant": true
    },
    {
      "inputs": [
        {
          "internalType": "uint256",
          "name": "groupId",
          "type": "uint256"
        },
        {
          "internalType": "string",
          "name": "newContributorName",
          "type": "string"
        },
        {
          "internalType": "string",
          "name": "newContributorImgUrl",
          "type": "string"
        },
        {
          "internalType": "string",
          "name": "newContributorLinkToUrl",
          "type": "string"
        }
      ],
      "name": "updateContributorInfo",
      "outputs": [],
      "stateMutability": "nonpayable",
      "type": "function"
    },
    {
      "inputs": [
        {
          "internalType": "uint256",
          "name": "groupId",
          "type": "uint256"
        }
      ],
      "name": "getContributorInfo",
      "outputs": [
        {
          "internalType": "string",
          "name": "newContributorName",
          "type": "string"
        },
        {
          "internalType": "string",
          "name": "newContributorImgUrl",
          "type": "string"
        },
        {
          "internalType": "string",
          "name": "newContributorLinkToUrl",
          "type": "string"
        }
      ],
      "stateMutability": "view",
      "type": "function",
      "constant": true
    },
    {
      "inputs": [
        {
          "internalType": "uint256",
          "name": "groupId",
          "type": "uint256"
        }
      ],
      "name": "contributeToPot",
      "outputs": [],
      "stateMutability": "payable",
      "type": "function",
      "payable": true
    }
  ],
  "bytecode": "0x6080604052600180546001600160a01b031916331781556003805460ff60a01b191690556005805560085534801561003657600080fd5b50613139806100466000396000f3fe60806040526004361061025c5760003560e01c80637b936ac211610144578063b3b36bb3116100b6578063e513b7a91161007a578063e513b7a91461077b578063e82f24e01461079b578063ee41b592146107ae578063f4a02e70146107ce578063f89e9cb9146107ee578063fc5fd6e41461080e57600080fd5b8063b3b36bb3146106e9578063c02b8b2c146106fc578063c6db50941461071e578063cd04e47514610733578063d5f016c31461076657600080fd5b806389ea642f1161010857806389ea642f1461061b5780639393ae371461063d5780639bda87961461065d578063aea88a051461068a578063b047fb50146106aa578063b187bd26146106ca57600080fd5b80637b936ac2146105885780637d837ce5146105a65780637fcaf666146105c65780638182aaf2146105e65780638456cb591461060657600080fd5b8063406db843116101dd57806355b57ec1116101a157806355b57ec1146104ab5780635c975abb146104d85780635e82c1fc146104f9578063674811ca14610519578063677bd9ff14610548578063744c5e1e1461056857600080fd5b8063406db843146103eb57806344b2983b1461040b578063454432e21461043a5780634635509b1461045a5780634e0a33791461048b57600080fd5b8063222fd08711610224578063222fd0871461035457806327d7874c146103765780632ba73c151461039657806338f0b656146103b65780633f4ba83a146103d657600080fd5b80630519ce791461026157806306cc49221461029e57806307bfa330146102ce5780630a0f8168146102fb5780630d82ffa01461031b575b600080fd5b34801561026d57600080fd5b50600254610281906001600160a01b031681565b6040516001600160a01b0390911681526020015b60405180910390f35b3480156102aa57600080fd5b506102be6102b9366004612abe565b61082c565b6040519015158152602001610295565b3480156102da57600080fd5b506102ee6102e9366004612abe565b610885565b6040516102959190612e2b565b34801561030757600080fd5b50600154610281906001600160a01b031681565b34801561032757600080fd5b50610281610336366004612abe565b6000908152600960205260409020600701546001600160a01b031690565b34801561036057600080fd5b5061037461036f366004612ad7565b610971565b005b34801561038257600080fd5b50610374610391366004612a35565b610cd4565b3480156103a257600080fd5b506103746103b1366004612a35565b610d46565b3480156103c257600080fd5b506102be6103d1366004612abe565b610dca565b3480156103e257600080fd5b506102be610e07565b3480156103f757600080fd5b50610374610406366004612abe565b610ec2565b34801561041757600080fd5b5061042b610426366004612abe565b611386565b60405161029593929190612dd5565b34801561044657600080fd5b506102ee610455366004612abe565b611553565b34801561046657600080fd5b5061047a610475366004612abe565b611634565b604051610295959493929190612e82565b34801561049757600080fd5b506103746104a6366004612a35565b611954565b3480156104b757600080fd5b506104cb6104c6366004612abe565b6119eb565b6040516102959190612e18565b3480156104e457600080fd5b506003546102be90600160a01b900460ff1681565b34801561050557600080fd5b506102be610514366004612a57565b611a6d565b34801561052557600080fd5b50610539610534366004612abe565b611ac4565b60405161029593929190612ec5565b34801561055457600080fd5b50610374610563366004612abe565b611c92565b34801561057457600080fd5b506102be610583366004612abe565b611e72565b34801561059457600080fd5b506002546001600160a01b0316610281565b3480156105b257600080fd5b506102be6105c1366004612a57565b611ebf565b3480156105d257600080fd5b506103746105e1366004612a81565b611f16565b3480156105f257600080fd5b506102be610601366004612a57565b611f2d565b34801561061257600080fd5b50610374611f7e565b34801561062757600080fd5b5061063061205b565b6040516102959190612eb2565b34801561064957600080fd5b506002546001600160a01b031633146102be565b34801561066957600080fd5b5061067d610678366004612abe565b6120ed565b6040516102959190612dc2565b34801561069657600080fd5b506103746106a5366004612b53565b612158565b3480156106b657600080fd5b50600354610281906001600160a01b031681565b3480156106d657600080fd5b50600354600160a01b900460ff166102be565b3480156106f557600080fd5b5033610281565b34801561070857600080fd5b50610711612252565b6040516102959190612e3e565b34801561072a57600080fd5b506106306122a9565b34801561073f57600080fd5b5061075361074e366004612abe565b612337565b6040516102959796959493929190612fa7565b34801561077257600080fd5b506102ee612681565b34801561078757600080fd5b506001546001600160a01b031633146102be565b6103746107a9366004612abe565b61275a565b3480156107ba57600080fd5b506102be6107c9366004612abe565b61280e565b3480156107da57600080fd5b506003546001600160a01b031633146102be565b3480156107fa57600080fd5b506102be610809366004612abe565b612845565b34801561081a57600080fd5b506003546001600160a01b0316610281565b600354600090600160a01b900460ff16156108625760405162461bcd60e51b815260040161085990612f42565b60405180910390fd5b50600081815260106020908152604080832033845290915290205415155b919050565b6060601f6000838152602001908152602001600020805480602002602001604051908101604052809291908181526020016000905b828210156109665783829060005260206000200180546108d990613055565b80601f016020809104026020016040519081016040528092919081815260200182805461090590613055565b80156109525780601f1061092757610100808354040283529160200191610952565b820191906000526020600020905b81548152906001019060200180831161093557829003601f168201915b5050505050815260200190600101906108ba565b505050509050919050565b6000838152601760209081526040808320338085529252909120548491908015610a035760405162461bcd60e51b815260206004820152603d60248201527f4572726f723a207468697320616464726573732068617320616c72656164792060448201527f72657175657374656420746f206a6f696e20746869732067726f75702e0000006064820152608401610859565b6000868152601060209081526040808320338085529252909120548791908015610a955760405162461bcd60e51b815260206004820152603f60248201527f4572726f723a20726563697069656e7420697320616c726561647920616e206560448201527f6c696769626c6520726563697069656e7420696e207468652067726f75702e006064820152608401610859565b600089815260186020526040902054610b7d57600089815260186020908152604080832060019081905560198352818420805480830182559085528385200180546001600160a01b03191690558c8452601a835281842080549182018155845282842082519384019283905292849052610b1193920191612884565b506000898152601b60209081526040808320805460018082018355918552838520848204018054601f92831661010090810a60ff908102199092169092558f8752601c86529386208054938401815586529484902093820490930180549190931690930a021990911690555b6000898152601860209081526040808320546017835281842033808652908452828520919091558c8452601983528184208054600181810183559186528486200180546001600160a01b0319169092179091558c8452601a83529083208054918201815583529120610bf191018989612908565b506000898152601b60209081526040808320805460018082018355918552838520848204018054601f92831661010090810a60ff81810219909316179092558f8752601c8652848720805480860182559088528688208782040180549190941690920a02191690558c8452601890925290912054610c6e9161303d565b60008a815260186020908152604080832093909355600c8152908290205482518c815233928101929092528183015290517fc73d895047e43bcf8caa9f1cce950d0f1a21fc9a00a8d693db86cd0c93dc91aa9181900360600190a1505050505050505050565b6001546001600160a01b03163314610cfe5760405162461bcd60e51b815260040161085990612efe565b6001600160a01b038116610d245760405162461bcd60e51b815260040161085990612f70565b600180546001600160a01b0319166001600160a01b0392909216919091179055565b6001546001600160a01b03163314610d705760405162461bcd60e51b815260040161085990612efe565b6001600160a01b038116610d8357600080fd5b600380546001600160a01b0319166001600160a01b0383161790556040517fa308298a77084def994b565be25bff2e8fbfe7006c2c6b2bacfb84d1ba1f635090600090a150565b600354600090600160a01b900460ff1615610df75760405162461bcd60e51b815260040161085990612f42565b610e013383611ebf565b92915050565b6001546000906001600160a01b03163314610e345760405162461bcd60e51b815260040161085990612efe565b600354600160a01b900460ff16610ea55760405162461bcd60e51b815260206004820152602f60248201527f66756e6374696f6e2063616e206f6e6c792062652063616c6c6564207768656e60448201526e1030b8381034b9903830bab9b2b21760891b6064820152608401610859565b506003805460ff60a01b191690819055600160a01b900460ff1690565b80610ecd3382611a6d565b610f2b5760405162461bcd60e51b815260206004820152602960248201527f736f7272792c20796f7520617265206e6f7420616e20656c696769626c65207260448201526832b1b4b834b2b73a1760b91b6064820152608401610859565b60008281526010602090815260408083203380855290835281842054868552601490935292208054859392919082908110610f6857610f686130d7565b60009182526020918290209181049091015460ff601f9092166101000a9004166110065760405162461bcd60e51b815260206004820152604360248201527f4572726f723a20726563697069656e74277320656c696769626c696c6974792060448201527f686173206265656e2064697361626c656420666f7220746869732067726f757060648201526217171760e91b608482015260a401610859565b6000858152601d60209081526040808320338085529252909120548690156110965760405162461bcd60e51b815260206004820152603c60248201527f77686f6f70732c206c6f6f6b73206c696b6520796f7527766520616c7265616460448201527f79207265676973746572656420666f722074686973206576656e7421000000006064820152608401610859565b600354600160a01b900460ff16156110c05760405162461bcd60e51b815260040161085990612f42565b6000878152601e6020526040902054611174576000878152601e60209081526040808320600190819055828052818420805480830182559085528385200180546001600160a01b03191690558a8452601f83528184208054918201815584528284208251938401928390529284905261113b93920191612884565b5060008781526021602090815260408220805460018101825590835291819020908204018054601f9092166101000a60ff021990911690555b6000878152601e6020908152604080832054601d835281842033808652908452828520919091558a8452601083528184209084528252808320548a8452601390925282208054919291839081106111cd576111cd6130d7565b9060005260206000200180546111e290613055565b80601f016020809104026020016040519081016040528092919081815260200182805461120e90613055565b801561125b5780601f106112305761010080835404028352916020019161125b565b820191906000526020600020905b81548152906001019060200180831161123e57829003601f168201915b50505060008c8152602080805260408083208054600181810183559185528385200180546001600160a01b031916331790558f8452601f83529083208054918201815583529181902085519596506112ba959201935085019150612884565b506000898152602160209081526040808320805460018082018355918552838520848204018054601f9092166101000a60ff021990911690558c845260099092529091206003015461130b9161303d565b60008a815260096020908152604080832060030193909355601e9052205461133490600161303d565b60008a8152601e602090815260409182902092909255518a815233917f0695e999be8100bdb5bee8612337296508d527eae78c65b8f170eacb5a3b439d910160405180910390a2505050505050505050565b600081815260208080526040808320601f8352818420602184529382902081548351818602810186019094528084526060958695869591939285918301828280156113fa57602002820191906000526020600020905b81546001600160a01b031681526001909101906020018083116113dc575b5050505050925081805480602002602001604051908101604052809291908181526020016000905b828210156114ce57838290600052602060002001805461144190613055565b80601f016020809104026020016040519081016040528092919081815260200182805461146d90613055565b80156114ba5780601f1061148f576101008083540402835291602001916114ba565b820191906000526020600020905b81548152906001019060200180831161149d57829003601f168201915b505050505081526020019060010190611422565b5050505091508080548060200260200160405190810160405280929190818152602001828054801561153f57602002820191906000526020600020906000905b825461010083900a900460ff16151581526020600192830181810494850194909303909202910180841161150e5790505b505050505090509250925092509193909250565b606060136000838152602001908152602001600020805480602002602001604051908101604052809291908181526020016000905b828210156109665783829060005260206000200180546115a790613055565b80601f01602080910402602001604051908101604052809291908181526020018280546115d390613055565b80156116205780601f106115f557610100808354040283529160200191611620565b820191906000526020600020905b81548152906001019060200180831161160357829003601f168201915b505050505081526020019060010190611588565b60008060008060008060096000888152602001908152602001600020604051806101600160405290816000820154815260200160018201805461167690613055565b80601f01602080910402602001604051908101604052809291908181526020018280546116a290613055565b80156116ef5780601f106116c4576101008083540402835291602001916116ef565b820191906000526020600020905b8154815290600101906020018083116116d257829003601f168201915b5050509183525050600282015460209091019060ff166003811115611716576117166130c1565b6003811115611727576117276130c1565b81526020016003820154815260200160048201805461174590613055565b80601f016020809104026020016040519081016040528092919081815260200182805461177190613055565b80156117be5780601f10611793576101008083540402835291602001916117be565b820191906000526020600020905b8154815290600101906020018083116117a157829003601f168201915b505050505081526020016005820180546117d790613055565b80601f016020809104026020016040519081016040528092919081815260200182805461180390613055565b80156118505780601f1061182557610100808354040283529160200191611850565b820191906000526020600020905b81548152906001019060200180831161183357829003601f168201915b5050505050815260200160068201805461186990613055565b80601f016020809104026020016040519081016040528092919081815260200182805461189590613055565b80156118e25780601f106118b7576101008083540402835291602001916118e2565b820191906000526020600020905b8154815290600101906020018083116118c557829003601f168201915b505050918352505060078201546001600160a01b0316602082015260088201546040808301919091526009830154606080840191909152600a909301546080909201919091528201519082015161010083015161012084015161014090940151929b919a509850919650945092505050565b6001546001600160a01b0316331461197e5760405162461bcd60e51b815260040161085990612efe565b6001600160a01b0381166119a45760405162461bcd60e51b815260040161085990612f70565b600280546001600160a01b0319166001600160a01b0383161790556040517f162e32528b5907ecf876b3b7a4e5e0edf878642e3ec25852e3c35af1a4e1c04090600090a150565b600081815260146020908152604091829020805483518184028101840190945280845260609392830182828015611a6157602002820191906000526020600020906000905b825461010083900a900460ff161515815260206001928301818104948501949093039092029101808411611a305790505b50505050509050919050565b600354600090600160a01b900460ff1615611a9a5760405162461bcd60e51b815260040161085990612f42565b5060009081526010602090815260408083206001600160a01b039490941683529290522054151590565b600081815260096020526040902060048101805460609283928392909160058101916006909101908390611af790613055565b80601f0160208091040260200160405190810160405280929190818152602001828054611b2390613055565b8015611b705780601f10611b4557610100808354040283529160200191611b70565b820191906000526020600020905b815481529060010190602001808311611b5357829003601f168201915b50505050509250818054611b8390613055565b80601f0160208091040260200160405190810160405280929190818152602001828054611baf90613055565b8015611bfc5780601f10611bd157610100808354040283529160200191611bfc565b820191906000526020600020905b815481529060010190602001808311611bdf57829003601f168201915b50505050509150808054611c0f90613055565b80601f0160208091040260200160405190810160405280929190818152602001828054611c3b90613055565b801561153f5780601f10611c5d5761010080835404028352916020019161153f565b820191906000526020600020905b815481529060010190602001808311611c6b5750969b959a50929850939650505050505050565b80611c9d3382611ebf565b611cfc5760405162461bcd60e51b815260206004820152602a60248201527f736f7272792c20796f7520617265206e6f7420612072656769737465726564206044820152693932b1b4b834b2b73a1760b11b6064820152608401610859565b60008281526015602090815260408083203380855292529091205483919060ff16151560011415611d8b5760405162461bcd60e51b815260206004820152603360248201527f77686f6f70732c206c6f6f6b73206c696b6520796f7527766520616c726561646044820152727920636c61696d65642077696e6e696e67732160681b6064820152608401610859565b600354600160a01b900460ff1615611db55760405162461bcd60e51b815260040161085990612f42565b60008481526015602090815260408083203384528252808320805460ff1916600117905586835260099091528120600a01805491611df283613090565b90915550506000848152600960208190526040808320909101549051339282156108fc02929190818181858888f19350505050158015611e36573d6000803e3d6000fd5b5060405184815233907f1a31e733a172afcf46074b3106c17f0c298e226442682a03c1e99ce256139ec29060200160405180910390a250505050565b600354600090600160a01b900460ff1615611e9f5760405162461bcd60e51b815260040161085990612f42565b506000908152601760209081526040808320338452909152902054151590565b600354600090600160a01b900460ff1615611eec5760405162461bcd60e51b815260040161085990612f42565b506000908152601d602090815260408083206001600160a01b039490941683529290522054151590565b8051611f29906000906020840190612884565b5050565b600354600090600160a01b900460ff1615611f5a5760405162461bcd60e51b815260040161085990612f42565b506000908152600960205260409020600701546001600160a01b0390811691161490565b6003546001600160a01b0316331480611fa157506001546001600160a01b031633145b80611fb657506002546001600160a01b031633145b61201c5760405162461bcd60e51b815260206004820152603160248201527f6f6e6c7920736f6d656f6e652066726f6d20632d73756974652063616e2063616044820152703636103a3434b990333ab731ba34b7b71760791b6064820152608401610859565b600354600160a01b900460ff16156120465760405162461bcd60e51b815260040161085990612f42565b6003805460ff60a01b1916600160a01b179055565b60606000805461206a90613055565b80601f016020809104026020016040519081016040528092919081815260200182805461209690613055565b80156120e35780601f106120b8576101008083540402835291602001916120e3565b820191906000526020600020905b8154815290600101906020018083116120c657829003601f168201915b5050505050905090565b600081815260126020908152604091829020805483518184028101840190945280845260609392830182828015611a6157602002820191906000526020600020905b81546001600160a01b0316815260019091019060200180831161212f5750505050509050919050565b836121633382611f2d565b61216c57600080fd5b83511561219a576000858152600960209081526040909120855161219892600490920191870190612884565b505b8251156121c857600085815260096020908152604090912084516121c692600590920191860190612884565b505b8151156121f657600085815260096020908152604090912083516121f492600690920191850190612884565b505b6000858152600960205260409081902090517fcd9ad49d834aeea746bafd2d26eebd3d01ebac2d8f5d3f53d7f3884292e5835f916122439188916004810191600582019160060190612ff3565b60405180910390a15050505050565b606060068054806020026020016040519081016040528092919081815260200182805480156120e357602002820191906000526020600020905b81548152602001906001019080831161228c575050505050905090565b600080546122b690613055565b80601f01602080910402602001604051908101604052809291908181526020018280546122e290613055565b801561232f5780601f106123045761010080835404028352916020019161232f565b820191906000526020600020905b81548152906001019060200180831161231257829003601f168201915b505050505081565b60006060600080600080600080600960008a8152602001908152602001600020604051806101600160405290816000820154815260200160018201805461237d90613055565b80601f01602080910402602001604051908101604052809291908181526020018280546123a990613055565b80156123f65780601f106123cb576101008083540402835291602001916123f6565b820191906000526020600020905b8154815290600101906020018083116123d957829003601f168201915b5050509183525050600282015460209091019060ff16600381111561241d5761241d6130c1565b600381111561242e5761242e6130c1565b81526020016003820154815260200160048201805461244c90613055565b80601f016020809104026020016040519081016040528092919081815260200182805461247890613055565b80156124c55780601f1061249a576101008083540402835291602001916124c5565b820191906000526020600020905b8154815290600101906020018083116124a857829003601f168201915b505050505081526020016005820180546124de90613055565b80601f016020809104026020016040519081016040528092919081815260200182805461250a90613055565b80156125575780601f1061252c57610100808354040283529160200191612557565b820191906000526020600020905b81548152906001019060200180831161253a57829003601f168201915b5050505050815260200160068201805461257090613055565b80601f016020809104026020016040519081016040528092919081815260200182805461259c90613055565b80156125e95780601f106125be576101008083540402835291602001916125e9565b820191906000526020600020905b8154815290600101906020018083116125cc57829003601f168201915b505050505081526020016007820160009054906101000a90046001600160a01b03166001600160a01b03166001600160a01b031681526020016008820154815260200160098201548152602001600a8201548152505090508060000151816020015182604001518360600151846101000151856101200151866101400151975097509750975097509750975050919395979092949650565b60606007805480602002602001604051908101604052809291908181526020016000905b828210156127515783829060005260206000200180546126c490613055565b80601f01602080910402602001604051908101604052809291908181526020018280546126f090613055565b801561273d5780601f106127125761010080835404028352916020019161273d565b820191906000526020600020905b81548152906001019060200180831161272057829003601f168201915b5050505050815260200190600101906126a5565b50505050905090565b806127653382611f2d565b61276e57600080fd5b600354600160a01b900460ff16156127985760405162461bcd60e51b815260040161085990612f42565b600082815260096020526040812060080180543492906127b990849061303d565b90915550506000828152600960209081526040918290206008015482518581529182015233917f5dc1fe5ab986a852c4eda8e8bb94247d13307065c593fb83f1a09be273679382910160405180910390a25050565b600354600090600160a01b900460ff161561283b5760405162461bcd60e51b815260040161085990612f42565b610e013383611f2d565b60006128513383611ebf565b61285d57506000919050565b50600090815260156020908152604080832033845290915290205460ff1615156001141590565b82805461289090613055565b90600052602060002090601f0160209004810192826128b257600085556128f8565b82601f106128cb57805160ff19168380011785556128f8565b828001600101855582156128f8579182015b828111156128f85782518255916020019190600101906128dd565b5061290492915061297c565b5090565b82805461291490613055565b90600052602060002090601f01602090048101928261293657600085556128f8565b82601f1061294f5782800160ff198235161785556128f8565b828001600101855582156128f8579182015b828111156128f8578235825591602001919060010190612961565b5b80821115612904576000815560010161297d565b80356001600160a01b038116811461088057600080fd5b600082601f8301126129b957600080fd5b813567ffffffffffffffff808211156129d4576129d46130ed565b604051601f8301601f19908116603f011681019082821181831017156129fc576129fc6130ed565b81604052838152866020858801011115612a1557600080fd5b836020870160208301376000602085830101528094505050505092915050565b600060208284031215612a4757600080fd5b612a5082612991565b9392505050565b60008060408385031215612a6a57600080fd5b612a7383612991565b946020939093013593505050565b600060208284031215612a9357600080fd5b813567ffffffffffffffff811115612aaa57600080fd5b612ab6848285016129a8565b949350505050565b600060208284031215612ad057600080fd5b5035919050565b600080600060408486031215612aec57600080fd5b83359250602084013567ffffffffffffffff80821115612b0b57600080fd5b818601915086601f830112612b1f57600080fd5b813581811115612b2e57600080fd5b876020828501011115612b4057600080fd5b6020830194508093505050509250925092565b60008060008060808587031215612b6957600080fd5b84359350602085013567ffffffffffffffff80821115612b8857600080fd5b612b94888389016129a8565b94506040870135915080821115612baa57600080fd5b612bb6888389016129a8565b93506060870135915080821115612bcc57600080fd5b50612bd9878288016129a8565b91505092959194509250565b600081518084526020808501945080840160005b83811015612c1e5781516001600160a01b031687529582019590820190600101612bf9565b509495945050505050565b600081518084526020808501945080840160005b83811015612c1e578151151587529582019590820190600101612c3d565b600082825180855260208086019550808260051b84010181860160005b84811015612ca657601f19868403018952612c94838351612cd5565b98840198925090830190600101612c78565b5090979650505050505050565b60048110612cd157634e487b7160e01b600052602160045260246000fd5b9052565b6000815180845260005b81811015612cfb57602081850181015186830182015201612cdf565b81811115612d0d576000602083870101525b50601f01601f19169290920160200192915050565b8054600090600181811c9080831680612d3c57607f831692505b6020808410821415612d5e57634e487b7160e01b600052602260045260246000fd5b83885260208801828015612d795760018114612d8a57612db5565b60ff19871682528282019750612db5565b60008981526020902060005b87811015612daf57815484820152908601908401612d96565b83019850505b5050505050505092915050565b602081526000612a506020830184612be5565b606081526000612de86060830186612be5565b8281036020840152612dfa8186612c5b565b90508281036040840152612e0e8185612c29565b9695505050505050565b602081526000612a506020830184612c29565b602081526000612a506020830184612c5b565b6020808252825182820181905260009190848201906040850190845b81811015612e7657835183529284019291840191600101612e5a565b50909695505050505050565b60a08101612e908288612cb3565b8560208301528460408301528360608301528260808301529695505050505050565b602081526000612a506020830184612cd5565b606081526000612ed86060830186612cd5565b8281036020840152612eea8186612cd5565b90508281036040840152612e0e8185612cd5565b60208082526024908201527f6f6e6c79207468652063656f2063616e2063616c6c20746869732066756e637460408201526334b7b71760e11b606082015260800190565b6020808252601490820152733a34329030b8381034b9903830bab9b2b217171760611b604082015260600190565b6020808252601f908201527f63616e6e6f74207365742043454f20746f207a65726f20616464726573732100604082015260600190565b87815260e060208201526000612fc060e0830189612cd5565b9050612fcf6040830188612cb3565b8560608301528460808301528360a08301528260c083015298975050505050505050565b84815260806020820152600061300c6080830186612d22565b828103604084015261301e8186612d22565b905082810360608401526130328185612d22565b979650505050505050565b60008219821115613050576130506130ab565b500190565b600181811c9082168061306957607f821691505b6020821081141561308a57634e487b7160e01b600052602260045260246000fd5b50919050565b60006000198214156130a4576130a46130ab565b5060010190565b634e487b7160e01b600052601160045260246000fd5b634e487b7160e01b600052602160045260246000fd5b634e487b7160e01b600052603260045260246000fd5b634e487b7160e01b600052604160045260246000fdfea2646970667358221220d10bc5074ff4d98ff7724b842f2d1e057081c5a2bfe48ed503dd655eb7f966ee64736f6c63430008070033",
  "immutableReferences": {},
  "source": "// SPDX-License-Identifier: MIT\npragma solidity ^0.8.0;\n\nimport \"./RecipientsManager.sol\";\n\ncontract ContributorManager is RecipientsManager {\n    event ContributorAdded(address indexed account, uint256 groupId);\n    event ContributorRemoved(address indexed account, uint256 groupId);\n\n    event ContributorAddressUpdated(uint256 groupId, address newContributor);\n    event ContributorInfoUpdated(\n        uint256 groupId,\n        string sponsorName,\n        string imgUrl,\n        string imgLinkToUrl\n    );\n\n    event ContributionMade(\n        address indexed account,\n        uint256 groupId,\n        uint256 amount\n    );\n\n    constructor() {}\n\n    modifier onlyContributor(uint256 groupId) {\n        require(isContributor(msg.sender, groupId));\n        _;\n    }\n\n    function isContributor(address account, uint256 groupId)\n        public\n        view\n        whenNotPaused\n        returns (bool)\n    {\n        return account == currentEvents[groupId].currentContributor;\n    }\n\n    function amIContributor(uint256 groupId)\n        external\n        view\n        whenNotPaused\n        returns (bool)\n    {\n        return isContributor(msg.sender, groupId);\n    }\n\n    function getCurrentSponsorAddress(uint256 groupId)\n        external\n        view\n        returns (address)\n    {\n        return currentEvents[groupId].currentContributor;\n    }\n\n    function _changeContributor(address account, uint256 groupId) internal {\n        contributors[groupId][account] = true;\n\n        currentEvents[groupId].currentContributor = account;\n        emit ContributorAdded(account, groupId);\n    }\n\n    function updateContributorInfo(\n        uint256 groupId,\n        string memory newContributorName,\n        string memory newContributorImgUrl,\n        string memory newContributorLinkToUrl\n    ) external onlyContributor(groupId) {\n        if (bytes(newContributorName).length > 0) {\n            currentEvents[groupId].sponsorName = newContributorName;\n        }\n        if (bytes(newContributorImgUrl).length > 0) {\n            currentEvents[groupId].sponsorImageUrl = newContributorImgUrl;\n        }\n        if (bytes(newContributorLinkToUrl).length > 0) {\n            currentEvents[groupId].sponsorLinkToUrl = newContributorLinkToUrl;\n        }\n\n        emit ContributorInfoUpdated(\n            groupId,\n            currentEvents[groupId].sponsorName,\n            currentEvents[groupId].sponsorImageUrl,\n            currentEvents[groupId].sponsorLinkToUrl\n        );\n    }\n\n    function getContributorInfo(uint256 groupId)\n        external\n        view\n        returns (\n            string memory newContributorName,\n            string memory newContributorImgUrl,\n            string memory newContributorLinkToUrl\n        )\n    {\n        return (\n            currentEvents[groupId].sponsorName,\n            currentEvents[groupId].sponsorImageUrl,\n            currentEvents[groupId].sponsorLinkToUrl\n        );\n    }\n\n    function contributeToPot(uint256 groupId)\n        external\n        payable\n        onlyContributor(groupId)\n        whenNotPaused\n    {\n        currentEvents[groupId].totalAmountContributed += msg.value;\n        emit ContributionMade(\n            msg.sender,\n            groupId,\n            currentEvents[groupId].totalAmountContributed\n        );\n    }\n}\n",
  "sourcePath": "/Users/jim/trash/EthDrop/contracts/roles/ContributorManager.sol",
  "compiler": {
    "name": "solc",
    "version": "0.8.7+commit.e28d00a7.Emscripten.clang"
  },
  "schemaVersion": "3.4.3",
  "updatedAt": "2021-09-17T20:51:43.557Z",
  "networkType": "ethereum",
  "devdoc": {
    "kind": "dev",
    "methods": {
      "pause()": {
        "details": "Called by any \"C-level\" role to pause the contract. Used only when  a bug or exploit is detected and we need to limit damage."
      },
      "setCEO(address)": {
        "details": "Assigns a new address to act as the CEO. Only available to the current CEO.",
        "params": {
          "_newCEO": "The address of the new CEO"
        }
      },
      "setCFO(address)": {
        "details": "Assigns a new address to act as the CFO. Only available to the current CEO.",
        "params": {
          "_newCFO": "The address of the new CFO"
        }
      },
      "setCOO(address)": {
        "details": "Assigns a new address to act as the COO. Only available to the current CEO.",
        "params": {
          "_newCOO": "The address of the new COO"
        }
      },
      "unpause()": {
        "details": "Unpauses the smart contract. Can only be called by the CEO, since  one reason we may pause the contract is when CFO or COO accounts are  compromised."
      }
    },
    "version": 1
  },
  "userdoc": {
    "kind": "user",
    "methods": {
      "unpause()": {
        "notice": "This is public rather than external so it can be called by  derived contracts."
      }
    },
    "version": 1
  }
}