{
  "contractName": "EthDropCore",
  "abi": [
    {
      "inputs": [],
      "stateMutability": "nonpayable",
      "type": "constructor"
    },
    {
      "anonymous": false,
      "inputs": [
        {
          "indexed": false,
          "internalType": "uint256",
          "name": "groupId",
          "type": "uint256"
        },
        {
          "indexed": false,
          "internalType": "address",
          "name": "account",
          "type": "address"
        },
        {
          "indexed": false,
          "internalType": "uint256",
          "name": "index",
          "type": "uint256"
        }
      ],
      "name": "AdminAdded",
      "type": "event"
    },
    {
      "anonymous": false,
      "inputs": [
        {
          "indexed": false,
          "internalType": "uint256",
          "name": "groupId",
          "type": "uint256"
        },
        {
          "indexed": false,
          "internalType": "string",
          "name": "name",
          "type": "string"
        }
      ],
      "name": "AdminReEnabled",
      "type": "event"
    },
    {
      "anonymous": false,
      "inputs": [
        {
          "indexed": false,
          "internalType": "uint256",
          "name": "groupId",
          "type": "uint256"
        },
        {
          "indexed": false,
          "internalType": "string",
          "name": "name",
          "type": "string"
        }
      ],
      "name": "AdminRemoved",
      "type": "event"
    },
    {
      "anonymous": false,
      "inputs": [
        {
          "indexed": false,
          "internalType": "bool",
          "name": "isPaused",
          "type": "bool"
        }
      ],
      "name": "AppPaused",
      "type": "event"
    },
    {
      "anonymous": false,
      "inputs": [
        {
          "indexed": false,
          "internalType": "uint256",
          "name": "registeredRecipientCount",
          "type": "uint256"
        },
        {
          "indexed": false,
          "internalType": "uint256",
          "name": "winningsPerRecipient",
          "type": "uint256"
        }
      ],
      "name": "CalculatedPot",
      "type": "event"
    },
    {
      "anonymous": false,
      "inputs": [],
      "name": "CfoUpdated",
      "type": "event"
    },
    {
      "anonymous": false,
      "inputs": [
        {
          "indexed": false,
          "internalType": "address",
          "name": "newContract",
          "type": "address"
        }
      ],
      "name": "ContractUpgrade",
      "type": "event"
    },
    {
      "anonymous": false,
      "inputs": [
        {
          "indexed": true,
          "internalType": "address",
          "name": "account",
          "type": "address"
        },
        {
          "indexed": false,
          "internalType": "uint256",
          "name": "groupId",
          "type": "uint256"
        },
        {
          "indexed": false,
          "internalType": "uint256",
          "name": "amount",
          "type": "uint256"
        }
      ],
      "name": "ContributionMade",
      "type": "event"
    },
    {
      "anonymous": false,
      "inputs": [
        {
          "indexed": true,
          "internalType": "address",
          "name": "account",
          "type": "address"
        },
        {
          "indexed": false,
          "internalType": "uint256",
          "name": "groupId",
          "type": "uint256"
        }
      ],
      "name": "ContributorAdded",
      "type": "event"
    },
    {
      "anonymous": false,
      "inputs": [
        {
          "indexed": false,
          "internalType": "uint256",
          "name": "groupId",
          "type": "uint256"
        },
        {
          "indexed": false,
          "internalType": "address",
          "name": "newContributor",
          "type": "address"
        }
      ],
      "name": "ContributorAddressUpdated",
      "type": "event"
    },
    {
      "anonymous": false,
      "inputs": [
        {
          "indexed": false,
          "internalType": "uint256",
          "name": "groupId",
          "type": "uint256"
        },
        {
          "indexed": false,
          "internalType": "string",
          "name": "sponsorName",
          "type": "string"
        },
        {
          "indexed": false,
          "internalType": "string",
          "name": "imgUrl",
          "type": "string"
        },
        {
          "indexed": false,
          "internalType": "string",
          "name": "imgLinkToUrl",
          "type": "string"
        }
      ],
      "name": "ContributorInfoUpdated",
      "type": "event"
    },
    {
      "anonymous": false,
      "inputs": [
        {
          "indexed": true,
          "internalType": "address",
          "name": "account",
          "type": "address"
        },
        {
          "indexed": false,
          "internalType": "uint256",
          "name": "groupId",
          "type": "uint256"
        }
      ],
      "name": "ContributorRemoved",
      "type": "event"
    },
    {
      "anonymous": false,
      "inputs": [],
      "name": "CooUpdated",
      "type": "event"
    },
    {
      "anonymous": false,
      "inputs": [
        {
          "indexed": true,
          "internalType": "address",
          "name": "account",
          "type": "address"
        },
        {
          "indexed": false,
          "internalType": "uint256",
          "name": "groupId",
          "type": "uint256"
        }
      ],
      "name": "EligibleRecipientAdded",
      "type": "event"
    },
    {
      "anonymous": false,
      "inputs": [
        {
          "indexed": true,
          "internalType": "address",
          "name": "account",
          "type": "address"
        },
        {
          "indexed": false,
          "internalType": "uint256",
          "name": "groupId",
          "type": "uint256"
        }
      ],
      "name": "EligibleRecipientRemoved",
      "type": "event"
    },
    {
      "anonymous": false,
      "inputs": [],
      "name": "EventClose",
      "type": "event"
    },
    {
      "anonymous": false,
      "inputs": [
        {
          "indexed": false,
          "internalType": "uint256",
          "name": "groupId",
          "type": "uint256"
        },
        {
          "indexed": true,
          "internalType": "address",
          "name": "endedBy",
          "type": "address"
        }
      ],
      "name": "EventEnded",
      "type": "event"
    },
    {
      "anonymous": false,
      "inputs": [
        {
          "indexed": false,
          "internalType": "uint256",
          "name": "groupId",
          "type": "uint256"
        },
        {
          "indexed": true,
          "internalType": "address",
          "name": "startedBy",
          "type": "address"
        }
      ],
      "name": "EventStarted",
      "type": "event"
    },
    {
      "anonymous": false,
      "inputs": [
        {
          "indexed": false,
          "internalType": "uint256",
          "name": "groupId",
          "type": "uint256"
        },
        {
          "indexed": false,
          "internalType": "address",
          "name": "account",
          "type": "address"
        },
        {
          "indexed": false,
          "internalType": "uint256",
          "name": "index",
          "type": "uint256"
        }
      ],
      "name": "GettingMyAdminIndex",
      "type": "event"
    },
    {
      "anonymous": false,
      "inputs": [
        {
          "indexed": false,
          "internalType": "uint256",
          "name": "groupId",
          "type": "uint256"
        },
        {
          "indexed": false,
          "internalType": "string",
          "name": "groupName",
          "type": "string"
        }
      ],
      "name": "GroupCreated",
      "type": "event"
    },
    {
      "anonymous": false,
      "inputs": [
        {
          "indexed": false,
          "internalType": "uint256",
          "name": "groupId",
          "type": "uint256"
        },
        {
          "indexed": false,
          "internalType": "address",
          "name": "addressOfUserGettingApproved",
          "type": "address"
        },
        {
          "indexed": false,
          "internalType": "string",
          "name": "nameOfUserGettingApproved",
          "type": "string"
        }
      ],
      "name": "NewJoinerRequestApproved",
      "type": "event"
    },
    {
      "anonymous": false,
      "inputs": [
        {
          "indexed": false,
          "internalType": "uint256",
          "name": "groupId",
          "type": "uint256"
        },
        {
          "indexed": false,
          "internalType": "address",
          "name": "account",
          "type": "address"
        },
        {
          "indexed": false,
          "internalType": "uint256",
          "name": "index",
          "type": "uint256"
        }
      ],
      "name": "NewUserRequestedToJoinGroup",
      "type": "event"
    },
    {
      "anonymous": false,
      "inputs": [
        {
          "indexed": true,
          "internalType": "address",
          "name": "account",
          "type": "address"
        },
        {
          "indexed": false,
          "internalType": "uint256",
          "name": "groupId",
          "type": "uint256"
        }
      ],
      "name": "RecipientRegistered",
      "type": "event"
    },
    {
      "anonymous": false,
      "inputs": [
        {
          "indexed": false,
          "internalType": "uint256",
          "name": "groupId",
          "type": "uint256"
        },
        {
          "indexed": true,
          "internalType": "address",
          "name": "endedBy",
          "type": "address"
        }
      ],
      "name": "RegistrationEnded",
      "type": "event"
    },
    {
      "anonymous": false,
      "inputs": [],
      "name": "RegistrationOpen",
      "type": "event"
    },
    {
      "anonymous": false,
      "inputs": [
        {
          "indexed": false,
          "internalType": "address",
          "name": "from",
          "type": "address"
        },
        {
          "indexed": false,
          "internalType": "address",
          "name": "to",
          "type": "address"
        }
      ],
      "name": "Transfer",
      "type": "event"
    },
    {
      "anonymous": false,
      "inputs": [
        {
          "indexed": true,
          "internalType": "address",
          "name": "account",
          "type": "address"
        },
        {
          "indexed": false,
          "internalType": "uint256",
          "name": "groupId",
          "type": "uint256"
        }
      ],
      "name": "WinningsClaimed",
      "type": "event"
    },
    {
      "anonymous": false,
      "inputs": [],
      "name": "WinningsClaimingOpen",
      "type": "event"
    },
    {
      "inputs": [
        {
          "internalType": "uint256",
          "name": "groupId",
          "type": "uint256"
        },
        {
          "internalType": "address",
          "name": "account",
          "type": "address"
        },
        {
          "internalType": "string",
          "name": "name",
          "type": "string"
        }
      ],
      "name": "addAdmin",
      "outputs": [],
      "stateMutability": "nonpayable",
      "type": "function"
    },
    {
      "inputs": [
        {
          "internalType": "address",
          "name": "addressOfUserGettingApproved",
          "type": "address"
        },
        {
          "internalType": "string",
          "name": "nameOfUserGettingApproved",
          "type": "string"
        },
        {
          "internalType": "uint256",
          "name": "groupId",
          "type": "uint256"
        }
      ],
      "name": "addEligibleRecipient",
      "outputs": [],
      "stateMutability": "nonpayable",
      "type": "function"
    },
    {
      "inputs": [
        {
          "internalType": "uint256",
          "name": "groupId",
          "type": "uint256"
        }
      ],
      "name": "amIAdmin",
      "outputs": [
        {
          "internalType": "bool",
          "name": "",
          "type": "bool"
        }
      ],
      "stateMutability": "view",
      "type": "function",
      "constant": true
    },
    {
      "inputs": [
        {
          "internalType": "uint256",
          "name": "groupId",
          "type": "uint256"
        }
      ],
      "name": "amIContributor",
      "outputs": [
        {
          "internalType": "bool",
          "name": "",
          "type": "bool"
        }
      ],
      "stateMutability": "view",
      "type": "function",
      "constant": true
    },
    {
      "inputs": [
        {
          "internalType": "uint256",
          "name": "groupId",
          "type": "uint256"
        }
      ],
      "name": "amIEligibleRecipient",
      "outputs": [
        {
          "internalType": "bool",
          "name": "",
          "type": "bool"
        }
      ],
      "stateMutability": "view",
      "type": "function",
      "constant": true
    },
    {
      "inputs": [
        {
          "internalType": "uint256",
          "name": "groupId",
          "type": "uint256"
        }
      ],
      "name": "amIPendingNewJoiner",
      "outputs": [
        {
          "internalType": "bool",
          "name": "",
          "type": "bool"
        }
      ],
      "stateMutability": "view",
      "type": "function",
      "constant": true
    },
    {
      "inputs": [
        {
          "internalType": "uint256",
          "name": "groupId",
          "type": "uint256"
        }
      ],
      "name": "amIRegisteredRecipient",
      "outputs": [
        {
          "internalType": "bool",
          "name": "",
          "type": "bool"
        }
      ],
      "stateMutability": "view",
      "type": "function",
      "constant": true
    },
    {
      "inputs": [
        {
          "internalType": "uint256",
          "name": "groupId",
          "type": "uint256"
        },
        {
          "internalType": "address",
          "name": "accountToApprove",
          "type": "address"
        }
      ],
      "name": "approveRequestToJoinGroup",
      "outputs": [],
      "stateMutability": "nonpayable",
      "type": "function"
    },
    {
      "inputs": [],
      "name": "ceoAddress",
      "outputs": [
        {
          "internalType": "address",
          "name": "",
          "type": "address"
        }
      ],
      "stateMutability": "view",
      "type": "function",
      "constant": true
    },
    {
      "inputs": [],
      "name": "cfoAddress",
      "outputs": [
        {
          "internalType": "address",
          "name": "",
          "type": "address"
        }
      ],
      "stateMutability": "view",
      "type": "function",
      "constant": true
    },
    {
      "inputs": [
        {
          "internalType": "address",
          "name": "account",
          "type": "address"
        },
        {
          "internalType": "uint256",
          "name": "groupId",
          "type": "uint256"
        }
      ],
      "name": "changeContributor",
      "outputs": [],
      "stateMutability": "nonpayable",
      "type": "function"
    },
    {
      "inputs": [
        {
          "internalType": "uint256",
          "name": "groupId",
          "type": "uint256"
        }
      ],
      "name": "claimWinnings",
      "outputs": [],
      "stateMutability": "nonpayable",
      "type": "function"
    },
    {
      "inputs": [
        {
          "internalType": "uint256",
          "name": "groupId",
          "type": "uint256"
        }
      ],
      "name": "closeEventRegistration",
      "outputs": [],
      "stateMutability": "nonpayable",
      "type": "function"
    },
    {
      "inputs": [
        {
          "internalType": "uint256",
          "name": "groupId",
          "type": "uint256"
        }
      ],
      "name": "contributeToPot",
      "outputs": [],
      "stateMutability": "payable",
      "type": "function",
      "payable": true
    },
    {
      "inputs": [],
      "name": "cooAddress",
      "outputs": [
        {
          "internalType": "address",
          "name": "",
          "type": "address"
        }
      ],
      "stateMutability": "view",
      "type": "function",
      "constant": true
    },
    {
      "inputs": [
        {
          "internalType": "string",
          "name": "groupName",
          "type": "string"
        }
      ],
      "name": "createNewGroup",
      "outputs": [],
      "stateMutability": "nonpayable",
      "type": "function"
    },
    {
      "inputs": [
        {
          "internalType": "uint256",
          "name": "groupId",
          "type": "uint256"
        }
      ],
      "name": "doIHaveClaimableWinnings",
      "outputs": [
        {
          "internalType": "bool",
          "name": "",
          "type": "bool"
        }
      ],
      "stateMutability": "view",
      "type": "function",
      "constant": true
    },
    {
      "inputs": [
        {
          "internalType": "uint256",
          "name": "groupId",
          "type": "uint256"
        }
      ],
      "name": "endEvent",
      "outputs": [],
      "stateMutability": "nonpayable",
      "type": "function"
    },
    {
      "inputs": [
        {
          "internalType": "uint256",
          "name": "groupId",
          "type": "uint256"
        }
      ],
      "name": "getAddressNextAdminIndex",
      "outputs": [
        {
          "internalType": "uint256",
          "name": "",
          "type": "uint256"
        }
      ],
      "stateMutability": "view",
      "type": "function",
      "constant": true
    },
    {
      "inputs": [
        {
          "internalType": "uint256",
          "name": "groupId",
          "type": "uint256"
        }
      ],
      "name": "getAdminsForGroup",
      "outputs": [
        {
          "internalType": "address[]",
          "name": "",
          "type": "address[]"
        },
        {
          "internalType": "bool[]",
          "name": "",
          "type": "bool[]"
        },
        {
          "internalType": "string[]",
          "name": "",
          "type": "string[]"
        }
      ],
      "stateMutability": "view",
      "type": "function",
      "constant": true
    },
    {
      "inputs": [],
      "name": "getCFO",
      "outputs": [
        {
          "internalType": "address",
          "name": "",
          "type": "address"
        }
      ],
      "stateMutability": "view",
      "type": "function",
      "constant": true
    },
    {
      "inputs": [],
      "name": "getCOO",
      "outputs": [
        {
          "internalType": "address",
          "name": "",
          "type": "address"
        }
      ],
      "stateMutability": "view",
      "type": "function",
      "constant": true
    },
    {
      "inputs": [
        {
          "internalType": "uint256",
          "name": "groupId",
          "type": "uint256"
        }
      ],
      "name": "getContributorInfo",
      "outputs": [
        {
          "internalType": "string",
          "name": "newContributorName",
          "type": "string"
        },
        {
          "internalType": "string",
          "name": "newContributorImgUrl",
          "type": "string"
        },
        {
          "internalType": "string",
          "name": "newContributorLinkToUrl",
          "type": "string"
        }
      ],
      "stateMutability": "view",
      "type": "function",
      "constant": true
    },
    {
      "inputs": [
        {
          "internalType": "uint256",
          "name": "groupId",
          "type": "uint256"
        }
      ],
      "name": "getCurrentSponsorAddress",
      "outputs": [
        {
          "internalType": "address",
          "name": "",
          "type": "address"
        }
      ],
      "stateMutability": "view",
      "type": "function",
      "constant": true
    },
    {
      "inputs": [
        {
          "internalType": "uint256",
          "name": "groupId",
          "type": "uint256"
        }
      ],
      "name": "getEligibleRecipientAddresses",
      "outputs": [
        {
          "internalType": "address[]",
          "name": "",
          "type": "address[]"
        }
      ],
      "stateMutability": "view",
      "type": "function",
      "constant": true
    },
    {
      "inputs": [
        {
          "internalType": "uint256",
          "name": "groupId",
          "type": "uint256"
        }
      ],
      "name": "getEligibleRecipientIsEligibilityEnabled",
      "outputs": [
        {
          "internalType": "bool[]",
          "name": "",
          "type": "bool[]"
        }
      ],
      "stateMutability": "view",
      "type": "function",
      "constant": true
    },
    {
      "inputs": [
        {
          "internalType": "uint256",
          "name": "groupId",
          "type": "uint256"
        }
      ],
      "name": "getEligibleRecipientNames",
      "outputs": [
        {
          "internalType": "string[]",
          "name": "",
          "type": "string[]"
        }
      ],
      "stateMutability": "view",
      "type": "function",
      "constant": true
    },
    {
      "inputs": [
        {
          "internalType": "uint256",
          "name": "groupId",
          "type": "uint256"
        }
      ],
      "name": "getEligibleRecipients",
      "outputs": [
        {
          "internalType": "address[]",
          "name": "",
          "type": "address[]"
        },
        {
          "internalType": "string[]",
          "name": "",
          "type": "string[]"
        },
        {
          "internalType": "bool[]",
          "name": "",
          "type": "bool[]"
        }
      ],
      "stateMutability": "view",
      "type": "function",
      "constant": true
    },
    {
      "inputs": [
        {
          "internalType": "uint256",
          "name": "groupId",
          "type": "uint256"
        }
      ],
      "name": "getGroupEventData",
      "outputs": [
        {
          "internalType": "enum EthDropBase.EventState",
          "name": "",
          "type": "uint8"
        },
        {
          "internalType": "uint256",
          "name": "",
          "type": "uint256"
        },
        {
          "internalType": "uint256",
          "name": "",
          "type": "uint256"
        },
        {
          "internalType": "uint256",
          "name": "",
          "type": "uint256"
        },
        {
          "internalType": "uint256",
          "name": "",
          "type": "uint256"
        }
      ],
      "stateMutability": "view",
      "type": "function",
      "constant": true
    },
    {
      "inputs": [],
      "name": "getGroupIds",
      "outputs": [
        {
          "internalType": "uint256[]",
          "name": "",
          "type": "uint256[]"
        }
      ],
      "stateMutability": "view",
      "type": "function",
      "constant": true
    },
    {
      "inputs": [],
      "name": "getGroupNames",
      "outputs": [
        {
          "internalType": "string[]",
          "name": "",
          "type": "string[]"
        }
      ],
      "stateMutability": "view",
      "type": "function",
      "constant": true
    },
    {
      "inputs": [
        {
          "internalType": "uint256",
          "name": "groupId",
          "type": "uint256"
        }
      ],
      "name": "getGroupPublicData",
      "outputs": [
        {
          "internalType": "uint256",
          "name": "",
          "type": "uint256"
        },
        {
          "internalType": "string",
          "name": "",
          "type": "string"
        },
        {
          "internalType": "enum EthDropBase.EventState",
          "name": "",
          "type": "uint8"
        },
        {
          "internalType": "uint256",
          "name": "",
          "type": "uint256"
        },
        {
          "internalType": "uint256",
          "name": "",
          "type": "uint256"
        },
        {
          "internalType": "uint256",
          "name": "",
          "type": "uint256"
        },
        {
          "internalType": "uint256",
          "name": "",
          "type": "uint256"
        }
      ],
      "stateMutability": "view",
      "type": "function",
      "constant": true
    },
    {
      "inputs": [
        {
          "internalType": "uint256",
          "name": "groupId",
          "type": "uint256"
        }
      ],
      "name": "getMyAdminIndex",
      "outputs": [
        {
          "internalType": "uint256",
          "name": "",
          "type": "uint256"
        }
      ],
      "stateMutability": "view",
      "type": "function",
      "constant": true
    },
    {
      "inputs": [
        {
          "internalType": "uint256",
          "name": "groupId",
          "type": "uint256"
        }
      ],
      "name": "getNewJoinerRequests",
      "outputs": [
        {
          "internalType": "address[]",
          "name": "",
          "type": "address[]"
        },
        {
          "internalType": "string[]",
          "name": "",
          "type": "string[]"
        },
        {
          "internalType": "bool[]",
          "name": "",
          "type": "bool[]"
        }
      ],
      "stateMutability": "view",
      "type": "function",
      "constant": true
    },
    {
      "inputs": [
        {
          "internalType": "uint256",
          "name": "groupId",
          "type": "uint256"
        }
      ],
      "name": "getRegisteredRecipientNames",
      "outputs": [
        {
          "internalType": "string[]",
          "name": "",
          "type": "string[]"
        }
      ],
      "stateMutability": "view",
      "type": "function",
      "constant": true
    },
    {
      "inputs": [
        {
          "internalType": "uint256",
          "name": "groupId",
          "type": "uint256"
        }
      ],
      "name": "getRegisteredRecipients",
      "outputs": [
        {
          "internalType": "address[]",
          "name": "",
          "type": "address[]"
        },
        {
          "internalType": "string[]",
          "name": "",
          "type": "string[]"
        },
        {
          "internalType": "bool[]",
          "name": "",
          "type": "bool[]"
        }
      ],
      "stateMutability": "view",
      "type": "function",
      "constant": true
    },
    {
      "inputs": [],
      "name": "getString",
      "outputs": [
        {
          "internalType": "string",
          "name": "",
          "type": "string"
        }
      ],
      "stateMutability": "view",
      "type": "function",
      "constant": true
    },
    {
      "inputs": [
        {
          "internalType": "address",
          "name": "account",
          "type": "address"
        },
        {
          "internalType": "uint256",
          "name": "groupId",
          "type": "uint256"
        }
      ],
      "name": "isAdmin",
      "outputs": [
        {
          "internalType": "bool",
          "name": "",
          "type": "bool"
        }
      ],
      "stateMutability": "view",
      "type": "function",
      "constant": true
    },
    {
      "inputs": [],
      "name": "isCEO",
      "outputs": [
        {
          "internalType": "bool",
          "name": "",
          "type": "bool"
        }
      ],
      "stateMutability": "view",
      "type": "function",
      "constant": true
    },
    {
      "inputs": [],
      "name": "isCFO",
      "outputs": [
        {
          "internalType": "bool",
          "name": "",
          "type": "bool"
        }
      ],
      "stateMutability": "view",
      "type": "function",
      "constant": true
    },
    {
      "inputs": [],
      "name": "isCOO",
      "outputs": [
        {
          "internalType": "bool",
          "name": "",
          "type": "bool"
        }
      ],
      "stateMutability": "view",
      "type": "function",
      "constant": true
    },
    {
      "inputs": [
        {
          "internalType": "address",
          "name": "account",
          "type": "address"
        },
        {
          "internalType": "uint256",
          "name": "groupId",
          "type": "uint256"
        }
      ],
      "name": "isContributor",
      "outputs": [
        {
          "internalType": "bool",
          "name": "",
          "type": "bool"
        }
      ],
      "stateMutability": "view",
      "type": "function",
      "constant": true
    },
    {
      "inputs": [
        {
          "internalType": "address",
          "name": "account",
          "type": "address"
        },
        {
          "internalType": "uint256",
          "name": "groupId",
          "type": "uint256"
        }
      ],
      "name": "isEligibleRecipient",
      "outputs": [
        {
          "internalType": "bool",
          "name": "",
          "type": "bool"
        }
      ],
      "stateMutability": "view",
      "type": "function",
      "constant": true
    },
    {
      "inputs": [],
      "name": "isPaused",
      "outputs": [
        {
          "internalType": "bool",
          "name": "",
          "type": "bool"
        }
      ],
      "stateMutability": "view",
      "type": "function",
      "constant": true
    },
    {
      "inputs": [
        {
          "internalType": "address",
          "name": "account",
          "type": "address"
        },
        {
          "internalType": "uint256",
          "name": "groupId",
          "type": "uint256"
        }
      ],
      "name": "isRegisteredRecipient",
      "outputs": [
        {
          "internalType": "bool",
          "name": "",
          "type": "bool"
        }
      ],
      "stateMutability": "view",
      "type": "function",
      "constant": true
    },
    {
      "inputs": [],
      "name": "newContractAddress",
      "outputs": [
        {
          "internalType": "address",
          "name": "",
          "type": "address"
        }
      ],
      "stateMutability": "view",
      "type": "function",
      "constant": true
    },
    {
      "inputs": [],
      "name": "pause",
      "outputs": [],
      "stateMutability": "nonpayable",
      "type": "function"
    },
    {
      "inputs": [],
      "name": "paused",
      "outputs": [
        {
          "internalType": "bool",
          "name": "",
          "type": "bool"
        }
      ],
      "stateMutability": "view",
      "type": "function",
      "constant": true
    },
    {
      "inputs": [
        {
          "internalType": "uint256",
          "name": "groupId",
          "type": "uint256"
        },
        {
          "internalType": "address",
          "name": "account",
          "type": "address"
        }
      ],
      "name": "reEnableAdmin",
      "outputs": [],
      "stateMutability": "nonpayable",
      "type": "function"
    },
    {
      "inputs": [
        {
          "internalType": "uint256",
          "name": "groupId",
          "type": "uint256"
        }
      ],
      "name": "readEventInfo",
      "outputs": [
        {
          "components": [
            {
              "internalType": "uint256",
              "name": "groupId",
              "type": "uint256"
            },
            {
              "internalType": "string",
              "name": "groupName",
              "type": "string"
            },
            {
              "internalType": "enum EthDropBase.EventState",
              "name": "currentState",
              "type": "uint8"
            },
            {
              "internalType": "uint256",
              "name": "registeredRecipientsCount",
              "type": "uint256"
            },
            {
              "internalType": "string",
              "name": "sponsorName",
              "type": "string"
            },
            {
              "internalType": "string",
              "name": "sponsorImageUrl",
              "type": "string"
            },
            {
              "internalType": "string",
              "name": "sponsorLinkToUrl",
              "type": "string"
            },
            {
              "internalType": "address",
              "name": "currentContributor",
              "type": "address"
            },
            {
              "internalType": "uint256",
              "name": "totalAmountContributed",
              "type": "uint256"
            },
            {
              "internalType": "uint256",
              "name": "weiWinnings",
              "type": "uint256"
            },
            {
              "internalType": "uint256",
              "name": "numberOfUsersWhoClaimedWinnings",
              "type": "uint256"
            }
          ],
          "internalType": "struct EthDropBase.EthDropEvent",
          "name": "",
          "type": "tuple"
        }
      ],
      "stateMutability": "view",
      "type": "function",
      "constant": true
    },
    {
      "inputs": [
        {
          "internalType": "uint256",
          "name": "groupId",
          "type": "uint256"
        }
      ],
      "name": "registerForEvent",
      "outputs": [],
      "stateMutability": "nonpayable",
      "type": "function"
    },
    {
      "inputs": [
        {
          "internalType": "uint256",
          "name": "groupId",
          "type": "uint256"
        },
        {
          "internalType": "address",
          "name": "account",
          "type": "address"
        }
      ],
      "name": "removeAdmin",
      "outputs": [],
      "stateMutability": "nonpayable",
      "type": "function"
    },
    {
      "inputs": [
        {
          "internalType": "address",
          "name": "account",
          "type": "address"
        },
        {
          "internalType": "uint256",
          "name": "groupId",
          "type": "uint256"
        }
      ],
      "name": "removeEligibleRecipient",
      "outputs": [],
      "stateMutability": "nonpayable",
      "type": "function"
    },
    {
      "inputs": [
        {
          "internalType": "uint256",
          "name": "groupId",
          "type": "uint256"
        }
      ],
      "name": "renounceAdmin",
      "outputs": [],
      "stateMutability": "nonpayable",
      "type": "function"
    },
    {
      "inputs": [
        {
          "internalType": "uint256",
          "name": "groupId",
          "type": "uint256"
        },
        {
          "internalType": "string",
          "name": "username",
          "type": "string"
        }
      ],
      "name": "requestToJoinGroup",
      "outputs": [],
      "stateMutability": "nonpayable",
      "type": "function"
    },
    {
      "inputs": [
        {
          "internalType": "address",
          "name": "_newCEO",
          "type": "address"
        }
      ],
      "name": "setCEO",
      "outputs": [],
      "stateMutability": "nonpayable",
      "type": "function"
    },
    {
      "inputs": [
        {
          "internalType": "address",
          "name": "_newCFO",
          "type": "address"
        }
      ],
      "name": "setCFO",
      "outputs": [],
      "stateMutability": "nonpayable",
      "type": "function"
    },
    {
      "inputs": [
        {
          "internalType": "address",
          "name": "_newCOO",
          "type": "address"
        }
      ],
      "name": "setCOO",
      "outputs": [],
      "stateMutability": "nonpayable",
      "type": "function"
    },
    {
      "inputs": [
        {
          "internalType": "string",
          "name": "_s",
          "type": "string"
        }
      ],
      "name": "setString",
      "outputs": [],
      "stateMutability": "nonpayable",
      "type": "function"
    },
    {
      "inputs": [
        {
          "internalType": "uint256",
          "name": "groupId",
          "type": "uint256"
        }
      ],
      "name": "startEvent",
      "outputs": [],
      "stateMutability": "nonpayable",
      "type": "function"
    },
    {
      "inputs": [],
      "name": "stringgg",
      "outputs": [
        {
          "internalType": "string",
          "name": "",
          "type": "string"
        }
      ],
      "stateMutability": "view",
      "type": "function",
      "constant": true
    },
    {
      "inputs": [],
      "name": "unpause",
      "outputs": [
        {
          "internalType": "bool",
          "name": "",
          "type": "bool"
        }
      ],
      "stateMutability": "nonpayable",
      "type": "function"
    },
    {
      "inputs": [
        {
          "internalType": "uint256",
          "name": "groupId",
          "type": "uint256"
        },
        {
          "internalType": "string",
          "name": "newContributorName",
          "type": "string"
        },
        {
          "internalType": "string",
          "name": "newContributorImgUrl",
          "type": "string"
        },
        {
          "internalType": "string",
          "name": "newContributorLinkToUrl",
          "type": "string"
        }
      ],
      "name": "updateContributorInfo",
      "outputs": [],
      "stateMutability": "nonpayable",
      "type": "function"
    },
    {
      "inputs": [],
      "name": "whoami",
      "outputs": [
        {
          "internalType": "address",
          "name": "",
          "type": "address"
        }
      ],
      "stateMutability": "view",
      "type": "function",
      "constant": true
    },
    {
      "inputs": [
        {
          "internalType": "address",
          "name": "_v2Address",
          "type": "address"
        }
      ],
      "name": "setNewAddress",
      "outputs": [],
      "stateMutability": "nonpayable",
      "type": "function"
    },
    {
      "inputs": [],
      "name": "foobar",
      "outputs": [
        {
          "internalType": "string",
          "name": "",
          "type": "string"
        }
      ],
      "stateMutability": "pure",
      "type": "function",
      "constant": true
    }
  ],
  "bytecode": "0x6080604052600180546001600160a01b031916331781556003805460ff60a01b191690556005805560085534801561003657600080fd5b506003805460ff60a01b19169055600180546001600160a01b0319163317905561573880620000666000396000f3fe6080604052600436106103595760003560e01c80637fcaf666116101bd578063c6db5094116100f8578063e9af9bca1161009b578063e9af9bca14610b34578063ea303f0814610b6c578063edf6261d14610b8c578063ee41b59214610bac578063ef2e61cc14610bcc578063f40fb25414610bec578063f4a02e7014610c0c578063f89e9cb914610c2c578063fc5fd6e414610c4c57600080fd5b8063c6db509414610a37578063cd04e47514610a4c578063d5f016c314610a7f578063e33db42614610a94578063e513b7a914610ac1578063e62092be14610ae1578063e82f24e014610b01578063e9992d9914610b1457600080fd5b8063a59a695311610160578063a59a695314610943578063aea88a0514610963578063b047fb5014610983578063b187bd26146109a3578063b3b36bb3146109c2578063bc5b2e1a146109d5578063c02b8b2c146109f5578063c271e80c14610a1757600080fd5b80637fcaf6661461084c5780638182aaf21461086c5780638456cb591461088c57806389ea642f146108a15780639393ae37146108b6578063962ecff5146108d6578063967cafbc146108f65780639bda87961461091657600080fd5b8063454432e211610298578063677bd9ff1161023b578063677bd9ff1461071f5780636af04a571461073f5780636ebdec491461075f578063715879881461078e578063744c5e1e146107ae578063785142be146107ce5780637b936ac2146107ee5780637d837ce51461080c5780637eb0bdc91461082c57600080fd5b8063454432e2146105d65780634635509b146105f65780634e0a33791461062757806355b57ec11461064757806356c9a339146106745780635c975abb146106af5780635e82c1fc146106d0578063674811ca146106f057600080fd5b806327d7874c1161030057806327d7874c146104d25780632ba73c15146104f257806330bb011514610512578063330a347b1461053257806338f0b656146105525780633f4ba83a14610572578063406db8431461058757806344b2983b146105a757600080fd5b80630519ce791461035e57806305df75db1461039b57806306cc4922146103da57806307bfa3301461040a5780630a0f8168146104375780630d82ffa01461045757806315891ff414610490578063222fd087146104b2575b600080fd5b34801561036a57600080fd5b5060025461037e906001600160a01b031681565b6040516001600160a01b0390911681526020015b60405180910390f35b3480156103a757600080fd5b5060408051808201909152600d81526c666f6f6261727272727272722160981b60208201525b60405161039291906151ba565b3480156103e657600080fd5b506103fa6103f5366004614d0d565b610c6a565b6040519015158152602001610392565b34801561041657600080fd5b5061042a610425366004614d0d565b610cc3565b6040516103929190615133565b34801561044357600080fd5b5060015461037e906001600160a01b031681565b34801561046357600080fd5b5061037e610472366004614d0d565b6000908152600960205260409020600701546001600160a01b031690565b34801561049c57600080fd5b506104b06104ab366004614ca6565b610daf565b005b3480156104be57600080fd5b506104b06104cd366004614da9565b610eb4565b3480156104de57600080fd5b506104b06104ed366004614c2d565b6111bc565b3480156104fe57600080fd5b506104b061050d366004614c2d565b61122e565b34801561051e57600080fd5b506104b061052d366004614d0d565b6112b2565b34801561053e57600080fd5b506104b061054d366004614d0d565b6112e7565b34801561055e57600080fd5b506103fa61056d366004614d0d565b6115b3565b34801561057e57600080fd5b506103fa6115f0565b34801561059357600080fd5b506104b06105a2366004614d0d565b611663565b3480156105b357600080fd5b506105c76105c2366004614d0d565b611b27565b604051610392939291906150e7565b3480156105e257600080fd5b5061042a6105f1366004614d0d565b611cf4565b34801561060257600080fd5b50610616610611366004614d0d565b611dd5565b60405161039295949392919061518a565b34801561063357600080fd5b506104b0610642366004614c2d565b6120f5565b34801561065357600080fd5b50610667610662366004614d0d565b61218c565b6040516103929190615120565b34801561068057600080fd5b506106a161068f366004614d0d565b6000908152600c602052604090205490565b604051908152602001610392565b3480156106bb57600080fd5b506003546103fa90600160a01b900460ff1681565b3480156106dc57600080fd5b506103fa6106eb366004614ca6565b61220e565b3480156106fc57600080fd5b5061071061070b366004614d0d565b612265565b604051610392939291906151cd565b34801561072b57600080fd5b506104b061073a366004614d0d565b612433565b34801561074b57600080fd5b5060225461037e906001600160a01b031681565b34801561076b57600080fd5b5061077f61077a366004614d0d565b61260a565b604051610392939291906150a4565b34801561079a57600080fd5b506104b06107a9366004614c2d565b6127d9565b3480156107ba57600080fd5b506103fa6107c9366004614d0d565b612880565b3480156107da57600080fd5b506104b06107e9366004614d0d565b6128cd565b3480156107fa57600080fd5b506002546001600160a01b031661037e565b34801561081857600080fd5b506103fa610827366004614ca6565b612a8f565b34801561083857600080fd5b506104b0610847366004614d26565b612ae6565b34801561085857600080fd5b506104b0610867366004614cd0565b612b1a565b34801561087857600080fd5b506103fa610887366004614ca6565b612b2d565b34801561089857600080fd5b506104b0612b7e565b3480156108ad57600080fd5b506103cd612c5b565b3480156108c257600080fd5b506002546001600160a01b031633146103fa565b3480156108e257600080fd5b506103fa6108f1366004614d0d565b612ced565b34801561090257600080fd5b506104b0610911366004614c4f565b612cf9565b34801561092257600080fd5b50610936610931366004614d0d565b612f5f565b6040516103929190615091565b34801561094f57600080fd5b506104b061095e366004614d0d565b612fca565b34801561096f57600080fd5b506104b061097e366004614e25565b61306a565b34801561098f57600080fd5b5060035461037e906001600160a01b031681565b3480156109af57600080fd5b50600354600160a01b900460ff166103fa565b3480156109ce57600080fd5b503361037e565b3480156109e157600080fd5b506104b06109f0366004614d26565b613164565b348015610a0157600080fd5b50610a0a613458565b6040516103929190615146565b348015610a2357600080fd5b506104b0610a32366004614ca6565b6134af565b348015610a4357600080fd5b506103cd613511565b348015610a5857600080fd5b50610a6c610a67366004614d0d565b61359f565b604051610392979695949392919061553b565b348015610a8b57600080fd5b5061042a6138e9565b348015610aa057600080fd5b50610ab4610aaf366004614d0d565b6139c2565b60405161039291906153e8565b348015610acd57600080fd5b506001546001600160a01b031633146103fa565b348015610aed57600080fd5b506103fa610afc366004614ca6565b613d38565b6104b0610b0f366004614d0d565b613dba565b348015610b2057600080fd5b506104b0610b2f366004614d26565b613e67565b348015610b4057600080fd5b506106a1610b4f366004614d0d565b6000908152600b6020908152604080832033845290915290205490565b348015610b7857600080fd5b506104b0610b87366004614cd0565b613f69565b348015610b9857600080fd5b506104b0610ba7366004614d52565b61421c565b348015610bb857600080fd5b506103fa610bc7366004614d0d565b614289565b348015610bd857600080fd5b506105c7610be7366004614d0d565b6142c0565b348015610bf857600080fd5b506105c7610c07366004614d0d565b6144b8565b348015610c1857600080fd5b506003546001600160a01b031633146103fa565b348015610c3857600080fd5b506103fa610c47366004614d0d565b614602565b348015610c5857600080fd5b506003546001600160a01b031661037e565b600354600090600160a01b900460ff1615610ca05760405162461bcd60e51b8152600401610c979061524a565b60405180910390fd5b50600081815260106020908152604080832033845290915290205415155b919050565b6060601f6000838152602001908152602001600020805480602002602001604051908101604052809291908181526020016000905b82821015610da4578382906000526020600020018054610d179061565a565b80601f0160208091040260200160405190810160405280929190818152602001828054610d439061565a565b8015610d905780601f10610d6557610100808354040283529160200191610d90565b820191906000526020600020905b815481529060010190602001808311610d7357829003601f168201915b505050505081526020019060010190610cf8565b505050509050919050565b80610dba3382613d38565b610dd65760405162461bcd60e51b8152600401610c97906152d5565b600354600160a01b900460ff1615610e005760405162461bcd60e51b8152600401610c979061524a565b60008281526010602090815260408083206001600160a01b038716845282528083205485845260149092528220805491929183908110610e4257610e426156d6565b90600052602060002090602091828204019190066101000a81548160ff021916908315150217905550836001600160a01b03167f1af6d16168d33745872119540d28858eed156c5f265206bbf1344fda39a93a3384604051610ea691815260200190565b60405180910390a250505050565b6000838152601760209081526040808320338085529252909120548491908015610f465760405162461bcd60e51b815260206004820152603d60248201527f4572726f723a207468697320616464726573732068617320616c72656164792060448201527f72657175657374656420746f206a6f696e20746869732067726f75702e0000006064820152608401610c97565b6000868152601060209081526040808320338085529252909120548791908015610f825760405162461bcd60e51b8152600401610c9790615278565b60008981526018602052604090205461106a57600089815260186020908152604080832060019081905560198352818420805480830182559085528385200180546001600160a01b03191690558c8452601a835281842080549182018155845282842082519384019283905292849052610ffe93920191614946565b506000898152601b60209081526040808320805460018082018355918552838520848204018054601f92831661010090810a60ff908102199092169092558f8752601c86529386208054938401815586529484902093820490930180549190931690930a021990911690555b6000898152601860209081526040808320546017835281842033808652908452828520919091558c8452601983528184208054600181810183559186528486200180546001600160a01b0319169092179091558c8452601a835290832080549182018155835291206110de910189896149ca565b506000898152601b60209081526040808320805460018082018355918552838520848204018054601f92831661010090810a60ff81810219909316179092558f8752601c8652848720805480860182559088528688208782040180549190941690920a02191690558c845260189092529091205461115b916155ea565b60008a815260186020908152604080832093909355600c90528190205490517fc73d895047e43bcf8caa9f1cce950d0f1a21fc9a00a8d693db86cd0c93dc91aa916111a9918c913391615503565b60405180910390a1505050505050505050565b6001546001600160a01b031633146111e65760405162461bcd60e51b8152600401610c9790615206565b6001600160a01b03811661120c5760405162461bcd60e51b8152600401610c97906153b1565b600180546001600160a01b0319166001600160a01b0392909216919091179055565b6001546001600160a01b031633146112585760405162461bcd60e51b8152600401610c9790615206565b6001600160a01b03811661126b57600080fd5b600380546001600160a01b0319166001600160a01b0383161790556040517fa308298a77084def994b565be25bff2e8fbfe7006c2c6b2bacfb84d1ba1f635090600090a150565b806112bd3382613d38565b6112d95760405162461bcd60e51b8152600401610c97906152d5565b6112e38233614641565b5050565b806112f23382613d38565b8061130757506003546001600160a01b031633145b61131057600080fd5b600354600160a01b900460ff161561133a5760405162461bcd60e51b8152600401610c979061524a565b6000828152600960205260408120600201805460ff191660031790555b6000838152600960205260409020600301548110156113ce576000838152602080526040812080548390811061138f5761138f6156d6565b6000918252602080832090910154868352601d825260408084206001600160a01b039092168452915281205550806113c68161568f565b915050611357565b5060008281526021602052604081206113e691614a3e565b6000828152601f602052604081206113fd91614a66565b6000828152602080526040812061141391614a84565b6000828152601e60209081526040808320839055600a825280832060098352908320815460018181018455928552929093208354600b909302019182558083018054918301916114629061565a565b61146d929190614aa2565b50600282810154908201805460ff9092169160ff19166001836003811115611497576114976156c0565b02179055506003820154816003015560048201816004019080546114ba9061565a565b6114c5929190614aa2565b5060058201816005019080546114da9061565a565b6114e5929190614aa2565b5060068201816006019080546114fa9061565a565b611505929190614aa2565b5060078281015490820180546001600160a01b0319166001600160a01b039092169190911790556008808301548183015560098084015481840155600a9384015492840192909255600085815260208390526040808220600381018390559283018290559282018190559201919091555133907ff184af570dff3a3eecc3464b3ee06c5b91b8cbd63a658135ded4f57fc3643579906115a79085815260200190565b60405180910390a25050565b600354600090600160a01b900460ff16156115e05760405162461bcd60e51b8152600401610c979061524a565b6115ea3383612a8f565b92915050565b6001546000906001600160a01b0316331461161d5760405162461bcd60e51b8152600401610c9790615206565b600354600160a01b900460ff166116465760405162461bcd60e51b8152600401610c9790615362565b506003805460ff60a01b191690819055600160a01b900460ff1690565b8061166e338261220e565b6116cc5760405162461bcd60e51b815260206004820152602960248201527f736f7272792c20796f7520617265206e6f7420616e20656c696769626c65207260448201526832b1b4b834b2b73a1760b91b6064820152608401610c97565b60008281526010602090815260408083203380855290835281842054868552601490935292208054859392919082908110611709576117096156d6565b60009182526020918290209181049091015460ff601f9092166101000a9004166117a75760405162461bcd60e51b815260206004820152604360248201527f4572726f723a20726563697069656e74277320656c696769626c696c6974792060448201527f686173206265656e2064697361626c656420666f7220746869732067726f757060648201526217171760e91b608482015260a401610c97565b6000858152601d60209081526040808320338085529252909120548690156118375760405162461bcd60e51b815260206004820152603c60248201527f77686f6f70732c206c6f6f6b73206c696b6520796f7527766520616c7265616460448201527f79207265676973746572656420666f722074686973206576656e7421000000006064820152608401610c97565b600354600160a01b900460ff16156118615760405162461bcd60e51b8152600401610c979061524a565b6000878152601e6020526040902054611915576000878152601e60209081526040808320600190819055828052818420805480830182559085528385200180546001600160a01b03191690558a8452601f8352818420805491820181558452828420825193840192839052928490526118dc93920191614946565b5060008781526021602090815260408220805460018101825590835291819020908204018054601f9092166101000a60ff021990911690555b6000878152601e6020908152604080832054601d835281842033808652908452828520919091558a8452601083528184209084528252808320548a84526013909252822080549192918390811061196e5761196e6156d6565b9060005260206000200180546119839061565a565b80601f01602080910402602001604051908101604052809291908181526020018280546119af9061565a565b80156119fc5780601f106119d1576101008083540402835291602001916119fc565b820191906000526020600020905b8154815290600101906020018083116119df57829003601f168201915b50505060008c8152602080805260408083208054600181810183559185528385200180546001600160a01b031916331790558f8452601f8352908320805491820181558352918190208551959650611a5b959201935085019150614946565b506000898152602160209081526040808320805460018082018355918552838520848204018054601f9092166101000a60ff021990911690558c8452600990925290912060030154611aac916155ea565b60008a815260096020908152604080832060030193909355601e90522054611ad59060016155ea565b60008a8152601e602090815260409182902092909255518a815233917f0695e999be8100bdb5bee8612337296508d527eae78c65b8f170eacb5a3b439d910160405180910390a2505050505050505050565b600081815260208080526040808320601f835281842060218452938290208154835181860281018601909452808452606095869586959193928591830182828015611b9b57602002820191906000526020600020905b81546001600160a01b03168152600190910190602001808311611b7d575b5050505050925081805480602002602001604051908101604052809291908181526020016000905b82821015611c6f578382906000526020600020018054611be29061565a565b80601f0160208091040260200160405190810160405280929190818152602001828054611c0e9061565a565b8015611c5b5780601f10611c3057610100808354040283529160200191611c5b565b820191906000526020600020905b815481529060010190602001808311611c3e57829003601f168201915b505050505081526020019060010190611bc3565b50505050915080805480602002602001604051908101604052809291908181526020018280548015611ce057602002820191906000526020600020906000905b825461010083900a900460ff161515815260206001928301818104948501949093039092029101808411611caf5790505b505050505090509250925092509193909250565b606060136000838152602001908152602001600020805480602002602001604051908101604052809291908181526020016000905b82821015610da4578382906000526020600020018054611d489061565a565b80601f0160208091040260200160405190810160405280929190818152602001828054611d749061565a565b8015611dc15780601f10611d9657610100808354040283529160200191611dc1565b820191906000526020600020905b815481529060010190602001808311611da457829003601f168201915b505050505081526020019060010190611d29565b600080600080600080600960008881526020019081526020016000206040518061016001604052908160008201548152602001600182018054611e179061565a565b80601f0160208091040260200160405190810160405280929190818152602001828054611e439061565a565b8015611e905780601f10611e6557610100808354040283529160200191611e90565b820191906000526020600020905b815481529060010190602001808311611e7357829003601f168201915b5050509183525050600282015460209091019060ff166003811115611eb757611eb76156c0565b6003811115611ec857611ec86156c0565b815260200160038201548152602001600482018054611ee69061565a565b80601f0160208091040260200160405190810160405280929190818152602001828054611f129061565a565b8015611f5f5780601f10611f3457610100808354040283529160200191611f5f565b820191906000526020600020905b815481529060010190602001808311611f4257829003601f168201915b50505050508152602001600582018054611f789061565a565b80601f0160208091040260200160405190810160405280929190818152602001828054611fa49061565a565b8015611ff15780601f10611fc657610100808354040283529160200191611ff1565b820191906000526020600020905b815481529060010190602001808311611fd457829003601f168201915b5050505050815260200160068201805461200a9061565a565b80601f01602080910402602001604051908101604052809291908181526020018280546120369061565a565b80156120835780601f1061205857610100808354040283529160200191612083565b820191906000526020600020905b81548152906001019060200180831161206657829003601f168201915b505050918352505060078201546001600160a01b0316602082015260088201546040808301919091526009830154606080840191909152600a909301546080909201919091528201519082015161010083015161012084015161014090940151929b919a509850919650945092505050565b6001546001600160a01b0316331461211f5760405162461bcd60e51b8152600401610c9790615206565b6001600160a01b0381166121455760405162461bcd60e51b8152600401610c97906153b1565b600280546001600160a01b0319166001600160a01b0383161790556040517f162e32528b5907ecf876b3b7a4e5e0edf878642e3ec25852e3c35af1a4e1c04090600090a150565b60008181526014602090815260409182902080548351818402810184019094528084526060939283018282801561220257602002820191906000526020600020906000905b825461010083900a900460ff1615158152602060019283018181049485019490930390920291018084116121d15790505b50505050509050919050565b600354600090600160a01b900460ff161561223b5760405162461bcd60e51b8152600401610c979061524a565b5060009081526010602090815260408083206001600160a01b039490941683529290522054151590565b6000818152600960205260409020600481018054606092839283929091600581019160069091019083906122989061565a565b80601f01602080910402602001604051908101604052809291908181526020018280546122c49061565a565b80156123115780601f106122e657610100808354040283529160200191612311565b820191906000526020600020905b8154815290600101906020018083116122f457829003601f168201915b505050505092508180546123249061565a565b80601f01602080910402602001604051908101604052809291908181526020018280546123509061565a565b801561239d5780601f106123725761010080835404028352916020019161239d565b820191906000526020600020905b81548152906001019060200180831161238057829003601f168201915b505050505091508080546123b09061565a565b80601f01602080910402602001604051908101604052809291908181526020018280546123dc9061565a565b8015611ce05780601f106123fe57610100808354040283529160200191611ce0565b820191906000526020600020905b81548152906001019060200180831161240c5750969b959a50929850939650505050505050565b8061243e3382612a8f565b61249d5760405162461bcd60e51b815260206004820152602a60248201527f736f7272792c20796f7520617265206e6f7420612072656769737465726564206044820152693932b1b4b834b2b73a1760b11b6064820152608401610c97565b60008281526015602090815260408083203380855292529091205483919060ff1615156001141561252c5760405162461bcd60e51b815260206004820152603360248201527f77686f6f70732c206c6f6f6b73206c696b6520796f7527766520616c726561646044820152727920636c61696d65642077696e6e696e67732160681b6064820152608401610c97565b600354600160a01b900460ff16156125565760405162461bcd60e51b8152600401610c979061524a565b60008481526015602090815260408083203384528252808320805460ff1916600117905586835260099091528120600a018054916125938361568f565b90915550506000848152600960208190526040808320909101549051339282156108fc02929190818181858888f193505050501580156125d7573d6000803e3d6000fd5b5060405184815233907f1a31e733a172afcf46074b3106c17f0c298e226442682a03c1e99ce256139ec290602001610ea6565b6000818152600d60209081526040808320600f8352818420600e845293829020815483518186028101860190945280845260609586958695919392859183018282801561268057602002820191906000526020600020905b81546001600160a01b03168152600190910190602001808311612662575b50505050509250818054806020026020016040519081016040528092919081815260200182805480156126f257602002820191906000526020600020906000905b825461010083900a900460ff1615158152602060019283018181049485019490930390920291018084116126c15790505b5050505050915080805480602002602001604051908101604052809291908181526020016000905b828210156127c65783829060005260206000200180546127399061565a565b80601f01602080910402602001604051908101604052809291908181526020018280546127659061565a565b80156127b25780601f10612787576101008083540402835291602001916127b2565b820191906000526020600020905b81548152906001019060200180831161279557829003601f168201915b50505050508152602001906001019061271a565b5050505090509250925092509193909250565b6001546001600160a01b031633146128035760405162461bcd60e51b8152600401610c9790615206565b600354600160a01b900460ff1661282c5760405162461bcd60e51b8152600401610c9790615362565b602280546001600160a01b0319166001600160a01b0383169081179091556040519081527f450db8da6efbe9c22f2347f7c2021231df1fc58d3ae9a2fa75d39fa4461993059060200160405180910390a150565b600354600090600160a01b900460ff16156128ad5760405162461bcd60e51b8152600401610c979061524a565b506000908152601760209081526040808320338452909152902054151590565b806128d83382613d38565b6128f45760405162461bcd60e51b8152600401610c97906152d5565b600354600160a01b900460ff161561291e5760405162461bcd60e51b8152600401610c979061524a565b6000828152600960205260409020600301546129925760405162461bcd60e51b815260206004820152602d60248201527f43616e277420656e6420726567697374726174696f6e2077697468207a65726f60448201526c2072656769737472616e74732160981b6064820152608401610c97565b60055460008381526009602052604081206008015490916064916129b69190615624565b6129c09190615602565b6002546040519192506001600160a01b03169082156108fc029083906000818181858888f193505050501580156129fb573d6000803e3d6000fd5b50600083815260096020526040812060080154612a19908390615643565b600085815260096020526040902060030154909150612a389082615602565b600085815260096020818152604092839020918201939093556002908101805460ff191690911790555185815233917f0eac29f28d53644f45e1f9f2feef665e4c5d7816090d91e169176fb4e23086299101610ea6565b600354600090600160a01b900460ff1615612abc5760405162461bcd60e51b8152600401610c979061524a565b506000908152601d602090815260408083206001600160a01b039490941683529290522054151590565b6003546001600160a01b03163314612b105760405162461bcd60e51b8152600401610c979061531e565b6112e38282614641565b80516112e3906000906020840190614946565b600354600090600160a01b900460ff1615612b5a5760405162461bcd60e51b8152600401610c979061524a565b506000908152600960205260409020600701546001600160a01b0390811691161490565b6003546001600160a01b0316331480612ba157506001546001600160a01b031633145b80612bb657506002546001600160a01b031633145b612c1c5760405162461bcd60e51b815260206004820152603160248201527f6f6e6c7920736f6d656f6e652066726f6d20632d73756974652063616e2063616044820152703636103a3434b990333ab731ba34b7b71760791b6064820152608401610c97565b600354600160a01b900460ff1615612c465760405162461bcd60e51b8152600401610c979061524a565b6003805460ff60a01b1916600160a01b179055565b606060008054612c6a9061565a565b80601f0160208091040260200160405190810160405280929190818152602001828054612c969061565a565b8015612ce35780601f10612cb857610100808354040283529160200191612ce3565b820191906000526020600020905b815481529060010190602001808311612cc657829003601f168201915b5050505050905090565b60006115ea3383613d38565b600354600160a01b900460ff1615612d235760405162461bcd60e51b8152600401610c979061524a565b80612d2e3382613d38565b612d4a5760405162461bcd60e51b8152600401610c97906152d5565b60008281526010602090815260408083206001600160a01b03881684529091529020548290859015612d7b57600080fd5b600084815260116020526040902054612e3057600084815260116020908152604080832060019081905560128352818420805480830182559085528385200180546001600160a01b03191690558784526013835281842080549182018155845282842082519384019283905292849052612df793920191614946565b5060008481526014602090815260408220805460018101825590835291819020908204018054601f9092166101000a60ff021990911690555b600084815260116020908152604080832054601083528184206001600160a01b038b1680865290845282852091909155878452601283528184208054600181810183559186528486200180546001600160a01b03191690921790915587845260138352908320805491820181558352918190208751612eb6939190910191880190614946565b50600084815260146020908152604080832080546001818101835591855283852084820401805460ff601f9093166101000a92830219169091179055878452601190925290912054612f07916155ea565b60008581526011602090815260409182902092909255518581526001600160a01b038816917f46b8357d30dedd734a71d059a385f46b6e667bff20233f907477760207f88965910160405180910390a2505050505050565b60008181526012602090815260409182902080548351818402810184019094528084526060939283018282801561220257602002820191906000526020600020905b81546001600160a01b03168152600190910190602001808311612fa15750505050509050919050565b80612fd53382613d38565b612ff15760405162461bcd60e51b8152600401610c97906152d5565b600354600160a01b900460ff161561301b5760405162461bcd60e51b8152600401610c979061524a565b600082815260096020908152604091829020600201805460ff19166001179055905183815233917f9118a3ee6cd03b7e9740d3092ac8fab787a7f93f52732d7bcd32f35dbea62a9c91016115a7565b836130753382612b2d565b61307e57600080fd5b8351156130ac57600085815260096020908152604090912085516130aa92600490920191870190614946565b505b8251156130da57600085815260096020908152604090912084516130d892600590920191860190614946565b505b815115613108576000858152600960209081526040909120835161310692600690920191850190614946565b505b6000858152600960205260409081902090517fcd9ad49d834aeea746bafd2d26eebd3d01ebac2d8f5d3f53d7f3884292e5835f9161315591889160048101916005820191600601906155a0565b60405180910390a15050505050565b8161316f3382613d38565b61318b5760405162461bcd60e51b8152600401610c97906152d5565b600354600160a01b900460ff16156131b55760405162461bcd60e51b8152600401610c979061524a565b60008381526010602090815260408083206001600160a01b03861684529091529020548390839080156131fa5760405162461bcd60e51b8152600401610c9790615278565b60008681526017602090815260408083206001600160a01b038916845290915290205486908690806132a45760405162461bcd60e51b815260206004820152604760248201527f4572726f723a2074686973206164647265737320646f6573206e6f742068617660448201527f6520612070656e64696e67207265717565737420746f206a6f696e20746869736064820152661033b937bab81760c91b608482015260a401610c97565b60008981526017602090815260408083206001600160a01b038c1684528252808320548c8452601990925282208054919291839081106132e6576132e66156d6565b60009182526020808320909101548d8352601a9091526040822080546001600160a01b0390921693509084908110613320576133206156d6565b9060005260206000200180546133359061565a565b80601f01602080910402602001604051908101604052809291908181526020018280546133619061565a565b80156133ae5780601f10613383576101008083540402835291602001916133ae565b820191906000526020600020905b81548152906001019060200180831161339157829003601f168201915b505050505090506001601c60008e815260200190815260200160002084815481106133db576133db6156d6565b90600052602060002090602091828204019190066101000a81548160ff02191690831515021790555061340f82828e612cf9565b7fa99702a14ae3f010941d30549064432035071f0e359c50ec6b37d47f430d557a8c8383604051613442939291906154d0565b60405180910390a1505050505050505050505050565b60606006805480602002602001604051908101604052809291908181526020018280548015612ce357602002820191906000526020600020905b815481526020019060010190808311613492575050505050905090565b806134ba3382613d38565b806134cf57506003546001600160a01b031633145b6134d857600080fd5b600354600160a01b900460ff16156135025760405162461bcd60e51b8152600401610c979061524a565b61350c83836146f2565b505050565b6000805461351e9061565a565b80601f016020809104026020016040519081016040528092919081815260200182805461354a9061565a565b80156135975780601f1061356c57610100808354040283529160200191613597565b820191906000526020600020905b81548152906001019060200180831161357a57829003601f168201915b505050505081565b60006060600080600080600080600960008a815260200190815260200160002060405180610160016040529081600082015481526020016001820180546135e59061565a565b80601f01602080910402602001604051908101604052809291908181526020018280546136119061565a565b801561365e5780601f106136335761010080835404028352916020019161365e565b820191906000526020600020905b81548152906001019060200180831161364157829003601f168201915b5050509183525050600282015460209091019060ff166003811115613685576136856156c0565b6003811115613696576136966156c0565b8152602001600382015481526020016004820180546136b49061565a565b80601f01602080910402602001604051908101604052809291908181526020018280546136e09061565a565b801561372d5780601f106137025761010080835404028352916020019161372d565b820191906000526020600020905b81548152906001019060200180831161371057829003601f168201915b505050505081526020016005820180546137469061565a565b80601f01602080910402602001604051908101604052809291908181526020018280546137729061565a565b80156137bf5780601f10613794576101008083540402835291602001916137bf565b820191906000526020600020905b8154815290600101906020018083116137a257829003601f168201915b505050505081526020016006820180546137d89061565a565b80601f01602080910402602001604051908101604052809291908181526020018280546138049061565a565b80156138515780601f1061382657610100808354040283529160200191613851565b820191906000526020600020905b81548152906001019060200180831161383457829003601f168201915b505050505081526020016007820160009054906101000a90046001600160a01b03166001600160a01b03166001600160a01b031681526020016008820154815260200160098201548152602001600a8201548152505090508060000151816020015182604001518360600151846101000151856101200151866101400151975097509750975097509750975050919395979092949650565b60606007805480602002602001604051908101604052809291908181526020016000905b828210156139b957838290600052602060002001805461392c9061565a565b80601f01602080910402602001604051908101604052809291908181526020018280546139589061565a565b80156139a55780601f1061397a576101008083540402835291602001916139a5565b820191906000526020600020905b81548152906001019060200180831161398857829003601f168201915b50505050508152602001906001019061390d565b50505050905090565b613a286040805161016081018252600080825260606020830152909182019081526020016000815260200160608152602001606081526020016060815260200160006001600160a01b031681526020016000815260200160008152602001600081525090565b81613a333382613d38565b613a4f5760405162461bcd60e51b8152600401610c97906152d5565b600960008481526020019081526020016000206040518061016001604052908160008201548152602001600182018054613a889061565a565b80601f0160208091040260200160405190810160405280929190818152602001828054613ab49061565a565b8015613b015780601f10613ad657610100808354040283529160200191613b01565b820191906000526020600020905b815481529060010190602001808311613ae457829003601f168201915b5050509183525050600282015460209091019060ff166003811115613b2857613b286156c0565b6003811115613b3957613b396156c0565b815260200160038201548152602001600482018054613b579061565a565b80601f0160208091040260200160405190810160405280929190818152602001828054613b839061565a565b8015613bd05780601f10613ba557610100808354040283529160200191613bd0565b820191906000526020600020905b815481529060010190602001808311613bb357829003601f168201915b50505050508152602001600582018054613be99061565a565b80601f0160208091040260200160405190810160405280929190818152602001828054613c159061565a565b8015613c625780601f10613c3757610100808354040283529160200191613c62565b820191906000526020600020905b815481529060010190602001808311613c4557829003601f168201915b50505050508152602001600682018054613c7b9061565a565b80601f0160208091040260200160405190810160405280929190818152602001828054613ca79061565a565b8015613cf45780601f10613cc957610100808354040283529160200191613cf4565b820191906000526020600020905b815481529060010190602001808311613cd757829003601f168201915b505050918352505060078201546001600160a01b031660208201526008820154604082015260098201546060820152600a9091015460809091015291505b50919050565b6000818152600b602090815260408083206001600160a01b038616845290915281205480613d6a5760009150506115ea565b6000838152600f60205260409020805482908110613d8a57613d8a6156d6565b90600052602060002090602091828204019190069054906101000a900460ff161515600115151491505092915050565b80613dc53382612b2d565b613dce57600080fd5b600354600160a01b900460ff1615613df85760405162461bcd60e51b8152600401610c979061524a565b60008281526009602052604081206008018054349290613e199084906155ea565b90915550506000828152600960209081526040918290206008015482518581529182015233917f5dc1fe5ab986a852c4eda8e8bb94247d13307065c593fb83f1a09be27367938291016115a7565b6003546001600160a01b03163314613e915760405162461bcd60e51b8152600401610c979061531e565b6000828152600b602090815260408083206001600160a01b0385168452825280832054858452600f90925290912080546001919083908110613ed557613ed56156d6565b90600052602060002090602091828204019190066101000a81548160ff0219169083151502179055507f2d19f1f4aa7d21a07d18586e49b3e0529d148488052497ea97f06d7266c3cbbe83600e60008681526020019081526020016000208381548110613f4457613f446156d6565b90600052602060002001604051613f5c929190615587565b60405180910390a1505050565b6003546001600160a01b03163314613f935760405162461bcd60e51b8152600401610c979061531e565b600354600160a01b900460ff1615613fbd5760405162461bcd60e51b8152600401610c979061524a565b600854604080516101608101825282815260208082018581526000838501819052606084018190528451808401865281815260808501528451808401865281815260a08501528451808401865281815260c085015260e084018190526101008401819052610120840181905261014084018190528581526009835293909320825181559251805192938493909261405b926001850192910190614946565b50604082015160028201805460ff1916600183600381111561407f5761407f6156c0565b021790555060608201516003820155608082015180516140a9916004840191602090910190614946565b5060a082015180516140c5916005840191602090910190614946565b5060c082015180516140e1916006840191602090910190614946565b5060e0820151600782810180546001600160a01b0319166001600160a01b03909316929092179091556101008301516008830155610120830151600983015561014090920151600a909101556006805460018181019092557ff652222313e28459528d920b65115c16c04f3efc82aaedc97be59f3f377c0d3f0184905581549081018255600091909152835161419e917fa66cc928b5edb82af9bd49922954155ab7b0942694bea4ce44661d9a8736c68801906020860190614946565b5060008281526010602090815260408083208380528252808320839055848352601890915280822091909155517fa27df82d27a5b2a66bcd0c6210f8024283ed1197a6d8e30372f8df2e487c376e906141fa9084908690615522565b60405180910390a1600880549060006142128361568f565b9190505550505050565b6000838152600b602090815260408083206001600160a01b0386168452909152902054839083901561424d57600080fd5b6003546001600160a01b031633146142775760405162461bcd60e51b8152600401610c979061531e565b61428285858561476b565b5050505050565b600354600090600160a01b900460ff16156142b65760405162461bcd60e51b8152600401610c979061524a565b6115ea3383612b2d565b6060806060836142d03382613d38565b6142ec5760405162461bcd60e51b8152600401610c97906152d5565b6000858152601960209081526040808320601a8352818420601c8452938290208154835181860281018601909452808452919493909291859183018282801561435e57602002820191906000526020600020905b81546001600160a01b03168152600190910190602001808311614340575b5050505050925081805480602002602001604051908101604052809291908181526020016000905b828210156144325783829060005260206000200180546143a59061565a565b80601f01602080910402602001604051908101604052809291908181526020018280546143d19061565a565b801561441e5780601f106143f35761010080835404028352916020019161441e565b820191906000526020600020905b81548152906001019060200180831161440157829003601f168201915b505050505081526020019060010190614386565b505050509150808054806020026020016040519081016040528092919081815260200182805480156144a357602002820191906000526020600020906000905b825461010083900a900460ff1615158152602060019283018181049485019490930390920291018084116144725790505b50505050509050935093509350509193909250565b6000818152601260209081526040808320601383528184206014845293829020815483518186028101860190945280845260609586958695919392859183018282801561452e57602002820191906000526020600020905b81546001600160a01b03168152600190910190602001808311614510575b5050505050925081805480602002602001604051908101604052809291908181526020016000905b82821015611c6f5783829060005260206000200180546145759061565a565b80601f01602080910402602001604051908101604052809291908181526020018280546145a19061565a565b80156145ee5780601f106145c3576101008083540402835291602001916145ee565b820191906000526020600020905b8154815290600101906020018083116145d157829003601f168201915b505050505081526020019060010190614556565b600061460e3383612a8f565b61461a57506000919050565b50600090815260156020908152604080832033845290915290205460ff1615156001141590565b6000828152600b602090815260408083206001600160a01b0385168452825280832054858452600f9092528220805491929183908110614683576146836156d6565b90600052602060002090602091828204019190066101000a81548160ff0219169083151502179055507f021d633158208ba55afbe8aae9878e510cccaf8f1fe2d8c42455d95f58f3b1f083600e60008681526020019081526020016000208381548110613f4457613f446156d6565b60008181526016602090815260408083206001600160a01b038616808552908352818420805460ff19166001179055848452600983529281902060070180546001600160a01b03191684179055518381527f5fd6d0b7e707fe344bd2a1887f9d0eeea8bfcac6f339ba4200e74f0647f101c091016115a7565b6000838152600c6020526040902054614830576000838152600c60208181526040808420600190819055600d8352818520805480830182559086528386200180546001600160a01b0319169055878552600f835281852080548083018255908652838620848204018054601f9092166101000a60ff02199091169055878552600e83528185208054918201815585529382902081518083019092528382526b7a65726f206164647265737360a01b9190920190815261482e939190910191614946565b505b6000838152600c6020908152604080832054600b83528184206001600160a01b03871680865290845282852091909155868452600d83528184208054600181810183559186528486200180546001600160a01b031916909217909155868452600f83528184208054808301825590855283852084820401805460ff601f9093166101000a92830219169091179055868452600e83529083208054918201815583529181902083516148e8939190910191840190614946565b506000838152600c60205260409020546149039060016155ea565b6000848152600c602052604090819020829055517f88356b104f5ba3e9281d371b21296e4e0390dda6f4bcc4bfc219f6d67cc8ae5091613f5c9186918691615503565b8280546149529061565a565b90600052602060002090601f01602090048101928261497457600085556149ba565b82601f1061498d57805160ff19168380011785556149ba565b828001600101855582156149ba579182015b828111156149ba57825182559160200191906001019061499f565b506149c6929150614b1d565b5090565b8280546149d69061565a565b90600052602060002090601f0160209004810192826149f857600085556149ba565b82601f10614a115782800160ff198235161785556149ba565b828001600101855582156149ba579182015b828111156149ba578235825591602001919060010190614a23565b50805460008255601f016020900490600052602060002090810190614a639190614b1d565b50565b5080546000825590600052602060002090810190614a639190614b32565b5080546000825590600052602060002090810190614a639190614b1d565b828054614aae9061565a565b90600052602060002090601f016020900481019282614ad057600085556149ba565b82601f10614ae157805485556149ba565b828001600101855582156149ba57600052602060002091601f016020900482015b828111156149ba578254825591600101919060010190614b02565b5b808211156149c65760008155600101614b1e565b808211156149c6576000614b468282614b4f565b50600101614b32565b508054614b5b9061565a565b6000825580601f10614b6b575050565b601f016020900490600052602060002090810190614a639190614b1d565b80356001600160a01b0381168114610cbe57600080fd5b600082601f830112614bb157600080fd5b813567ffffffffffffffff80821115614bcc57614bcc6156ec565b604051601f8301601f19908116603f01168101908282118183101715614bf457614bf46156ec565b81604052838152866020858801011115614c0d57600080fd5b836020870160208301376000602085830101528094505050505092915050565b600060208284031215614c3f57600080fd5b614c4882614b89565b9392505050565b600080600060608486031215614c6457600080fd5b614c6d84614b89565b9250602084013567ffffffffffffffff811115614c8957600080fd5b614c9586828701614ba0565b925050604084013590509250925092565b60008060408385031215614cb957600080fd5b614cc283614b89565b946020939093013593505050565b600060208284031215614ce257600080fd5b813567ffffffffffffffff811115614cf957600080fd5b614d0584828501614ba0565b949350505050565b600060208284031215614d1f57600080fd5b5035919050565b60008060408385031215614d3957600080fd5b82359150614d4960208401614b89565b90509250929050565b600080600060608486031215614d6757600080fd5b83359250614d7760208501614b89565b9150604084013567ffffffffffffffff811115614d9357600080fd5b614d9f86828701614ba0565b9150509250925092565b600080600060408486031215614dbe57600080fd5b83359250602084013567ffffffffffffffff80821115614ddd57600080fd5b818601915086601f830112614df157600080fd5b813581811115614e0057600080fd5b876020828501011115614e1257600080fd5b6020830194508093505050509250925092565b60008060008060808587031215614e3b57600080fd5b84359350602085013567ffffffffffffffff80821115614e5a57600080fd5b614e6688838901614ba0565b94506040870135915080821115614e7c57600080fd5b614e8888838901614ba0565b93506060870135915080821115614e9e57600080fd5b50614eab87828801614ba0565b91505092959194509250565b600081518084526020808501945080840160005b83811015614ef05781516001600160a01b031687529582019590820190600101614ecb565b509495945050505050565b600081518084526020808501945080840160005b83811015614ef0578151151587529582019590820190600101614f0f565b600081518084526020808501808196508360051b8101915082860160005b85811015614f75578284038952614f63848351614fa4565b98850198935090840190600101614f4b565b5091979650505050505050565b60048110614fa057634e487b7160e01b600052602160045260246000fd5b9052565b6000815180845260005b81811015614fca57602081850181015186830182015201614fae565b81811115614fdc576000602083870101525b50601f01601f19169290920160200192915050565b8054600090600181811c908083168061500b57607f831692505b602080841082141561502d57634e487b7160e01b600052602260045260246000fd5b83885260208801828015615048576001811461505957615084565b60ff19871682528282019750615084565b60008981526020902060005b8781101561507e57815484820152908601908401615065565b83019850505b5050505050505092915050565b602081526000614c486020830184614eb7565b6060815260006150b76060830186614eb7565b82810360208401526150c98186614efb565b905082810360408401526150dd8185614f2d565b9695505050505050565b6060815260006150fa6060830186614eb7565b828103602084015261510c8186614f2d565b905082810360408401526150dd8185614efb565b602081526000614c486020830184614efb565b602081526000614c486020830184614f2d565b6020808252825182820181905260009190848201906040850190845b8181101561517e57835183529284019291840191600101615162565b50909695505050505050565b60a081016151988288614f82565b8560208301528460408301528360608301528260808301529695505050505050565b602081526000614c486020830184614fa4565b6060815260006151e06060830186614fa4565b82810360208401526151f28186614fa4565b905082810360408401526150dd8185614fa4565b60208082526024908201527f6f6e6c79207468652063656f2063616e2063616c6c20746869732066756e637460408201526334b7b71760e11b606082015260800190565b6020808252601490820152733a34329030b8381034b9903830bab9b2b217171760611b604082015260600190565b6020808252603f908201527f4572726f723a20726563697069656e7420697320616c726561647920616e206560408201527f6c696769626c6520726563697069656e7420696e207468652067726f75702e00606082015260800190565b60208082526029908201527f6f6e6c792067726f75702061646d696e732063616e2063616c6c20746869732060408201526866756e6374696f6e2160b81b606082015260800190565b60208082526024908201527f6f6e6c792074686520636f6f2063616e2063616c6c20746869732066756e637460408201526334b7b71760e11b606082015260800190565b6020808252602f908201527f66756e6374696f6e2063616e206f6e6c792062652063616c6c6564207768656e60408201526e1030b8381034b9903830bab9b2b21760891b606082015260800190565b6020808252601f908201527f63616e6e6f74207365742043454f20746f207a65726f20616464726573732100604082015260600190565b602081528151602082015260006020830151610160806040850152615411610180850183614fa4565b915060408501516154256060860182614f82565b50606085015160808501526080850151601f19808685030160a087015261544c8483614fa4565b935060a08701519150808685030160c08701526154698483614fa4565b935060c08701519150808685030160e0870152506154878382614fa4565b92505060e08501516101006154a6818701836001600160a01b03169052565b86015161012086810191909152860151610140808701919091529095015193019290925250919050565b8381526001600160a01b03831660208201526060604082018190526000906154fa90830184614fa4565b95945050505050565b9283526001600160a01b03919091166020830152604082015260600190565b828152604060208201526000614d056040830184614fa4565b87815260e06020820152600061555460e0830189614fa4565b90506155636040830188614f82565b8560608301528460808301528360a08301528260c083015298975050505050505050565b828152604060208201526000614d056040830184614ff1565b8481526080602082015260006155b96080830186614ff1565b82810360408401526155cb8186614ff1565b905082810360608401526155df8185614ff1565b979650505050505050565b600082198211156155fd576155fd6156aa565b500190565b60008261561f57634e487b7160e01b600052601260045260246000fd5b500490565b600081600019048311821515161561563e5761563e6156aa565b500290565b600082821015615655576156556156aa565b500390565b600181811c9082168061566e57607f821691505b60208210811415613d3257634e487b7160e01b600052602260045260246000fd5b60006000198214156156a3576156a36156aa565b5060010190565b634e487b7160e01b600052601160045260246000fd5b634e487b7160e01b600052602160045260246000fd5b634e487b7160e01b600052603260045260246000fd5b634e487b7160e01b600052604160045260246000fdfea264697066735822122080897cfa97324b889fa364664d1b85b465df61b3fc0cc117d8c574e5620f92aa64736f6c63430008070033",
  "immutableReferences": {},
  "source": "// SPDX-License-Identifier: MIT\npragma solidity ^0.8.0;\n\nimport \"../roles/AdminsManager.sol\";\n\ncontract EthDropCore is AdminsManager {\n    // Set in case the core contract is broken and an upgrade is required\n    address public newContractAddress;\n\n    /// @notice Creates the main EthDrop smart contract instance.\n    constructor () {\n        // Starts paused.\n\n        // TODO \n        paused = false;\n\n        // the creator of the contract is the initial CEO\n        ceoAddress = msg.sender;\n\n    }\n\n    /// @dev Used to mark the smart contract as upgraded, in case there is a serious\n    ///  breaking bug. This method does nothing but keep track of the new contract and\n    ///  emit a message indicating that the new address is set. It's up to clients of this\n    ///  contract to update to the new contract address in that case. (This contract will\n    ///  be paused indefinitely if such an upgrade takes place.)\n    /// @param _v2Address new address\n    function setNewAddress(address _v2Address) external onlyCEO whenPaused {\n        // See README.md for updgrade plan\n        newContractAddress = _v2Address;\n        emit ContractUpgrade(_v2Address);\n    }\n\n    function foobar() external pure returns (string memory) {\n        return \"foobarrrrrrr!\";\n    }\n}",
  "sourcePath": "/Users/jim/trash/EthDrop/contracts/core/EthDropCore.sol",
  "compiler": {
    "name": "solc",
    "version": "0.8.7+commit.e28d00a7.Emscripten.clang"
  },
  "schemaVersion": "3.4.3",
  "updatedAt": "2021-09-17T20:51:43.901Z",
  "networkType": "ethereum",
  "devdoc": {
    "kind": "dev",
    "methods": {
      "pause()": {
        "details": "Called by any \"C-level\" role to pause the contract. Used only when  a bug or exploit is detected and we need to limit damage."
      },
      "setCEO(address)": {
        "details": "Assigns a new address to act as the CEO. Only available to the current CEO.",
        "params": {
          "_newCEO": "The address of the new CEO"
        }
      },
      "setCFO(address)": {
        "details": "Assigns a new address to act as the CFO. Only available to the current CEO.",
        "params": {
          "_newCFO": "The address of the new CFO"
        }
      },
      "setCOO(address)": {
        "details": "Assigns a new address to act as the COO. Only available to the current CEO.",
        "params": {
          "_newCOO": "The address of the new COO"
        }
      },
      "setNewAddress(address)": {
        "details": "Used to mark the smart contract as upgraded, in case there is a serious  breaking bug. This method does nothing but keep track of the new contract and  emit a message indicating that the new address is set. It's up to clients of this  contract to update to the new contract address in that case. (This contract will  be paused indefinitely if such an upgrade takes place.)",
        "params": {
          "_v2Address": "new address"
        }
      },
      "unpause()": {
        "details": "Unpauses the smart contract. Can only be called by the CEO, since  one reason we may pause the contract is when CFO or COO accounts are  compromised."
      }
    },
    "version": 1
  },
  "userdoc": {
    "kind": "user",
    "methods": {
      "constructor": {
        "notice": "Creates the main EthDrop smart contract instance."
      },
      "unpause()": {
        "notice": "This is public rather than external so it can be called by  derived contracts."
      }
    },
    "version": 1
  }
}