{
  "contractName": "EthDropCore",
  "abi": [
    {
      "inputs": [],
      "stateMutability": "nonpayable",
      "type": "constructor"
    },
    {
      "anonymous": false,
      "inputs": [
        {
          "indexed": false,
          "internalType": "uint256",
          "name": "groupId",
          "type": "uint256"
        },
        {
          "indexed": false,
          "internalType": "address",
          "name": "account",
          "type": "address"
        },
        {
          "indexed": false,
          "internalType": "uint256",
          "name": "index",
          "type": "uint256"
        }
      ],
      "name": "AdminAdded",
      "type": "event"
    },
    {
      "anonymous": false,
      "inputs": [
        {
          "indexed": false,
          "internalType": "uint256",
          "name": "groupId",
          "type": "uint256"
        },
        {
          "indexed": false,
          "internalType": "string",
          "name": "name",
          "type": "string"
        }
      ],
      "name": "AdminReEnabled",
      "type": "event"
    },
    {
      "anonymous": false,
      "inputs": [
        {
          "indexed": false,
          "internalType": "uint256",
          "name": "groupId",
          "type": "uint256"
        },
        {
          "indexed": false,
          "internalType": "string",
          "name": "name",
          "type": "string"
        }
      ],
      "name": "AdminRemoved",
      "type": "event"
    },
    {
      "anonymous": false,
      "inputs": [
        {
          "indexed": false,
          "internalType": "bool",
          "name": "isPaused",
          "type": "bool"
        }
      ],
      "name": "AppPaused",
      "type": "event"
    },
    {
      "anonymous": false,
      "inputs": [
        {
          "indexed": false,
          "internalType": "uint256",
          "name": "registeredRecipientCount",
          "type": "uint256"
        },
        {
          "indexed": false,
          "internalType": "uint256",
          "name": "winningsPerRecipient",
          "type": "uint256"
        }
      ],
      "name": "CalculatedPot",
      "type": "event"
    },
    {
      "anonymous": false,
      "inputs": [],
      "name": "CfoUpdated",
      "type": "event"
    },
    {
      "anonymous": false,
      "inputs": [
        {
          "indexed": false,
          "internalType": "address",
          "name": "newContract",
          "type": "address"
        }
      ],
      "name": "ContractUpgrade",
      "type": "event"
    },
    {
      "anonymous": false,
      "inputs": [
        {
          "indexed": true,
          "internalType": "address",
          "name": "account",
          "type": "address"
        },
        {
          "indexed": false,
          "internalType": "uint256",
          "name": "groupId",
          "type": "uint256"
        },
        {
          "indexed": false,
          "internalType": "uint256",
          "name": "amount",
          "type": "uint256"
        }
      ],
      "name": "ContributionMade",
      "type": "event"
    },
    {
      "anonymous": false,
      "inputs": [
        {
          "indexed": true,
          "internalType": "address",
          "name": "account",
          "type": "address"
        },
        {
          "indexed": false,
          "internalType": "uint256",
          "name": "groupId",
          "type": "uint256"
        }
      ],
      "name": "ContributorAdded",
      "type": "event"
    },
    {
      "anonymous": false,
      "inputs": [
        {
          "indexed": false,
          "internalType": "uint256",
          "name": "groupId",
          "type": "uint256"
        },
        {
          "indexed": false,
          "internalType": "address",
          "name": "newContributor",
          "type": "address"
        }
      ],
      "name": "ContributorAddressUpdated",
      "type": "event"
    },
    {
      "anonymous": false,
      "inputs": [
        {
          "indexed": false,
          "internalType": "uint256",
          "name": "groupId",
          "type": "uint256"
        },
        {
          "indexed": false,
          "internalType": "string",
          "name": "sponsorName",
          "type": "string"
        },
        {
          "indexed": false,
          "internalType": "string",
          "name": "imgUrl",
          "type": "string"
        },
        {
          "indexed": false,
          "internalType": "string",
          "name": "imgLinkToUrl",
          "type": "string"
        }
      ],
      "name": "ContributorInfoUpdated",
      "type": "event"
    },
    {
      "anonymous": false,
      "inputs": [
        {
          "indexed": true,
          "internalType": "address",
          "name": "account",
          "type": "address"
        },
        {
          "indexed": false,
          "internalType": "uint256",
          "name": "groupId",
          "type": "uint256"
        }
      ],
      "name": "ContributorRemoved",
      "type": "event"
    },
    {
      "anonymous": false,
      "inputs": [],
      "name": "CooUpdated",
      "type": "event"
    },
    {
      "anonymous": false,
      "inputs": [
        {
          "indexed": true,
          "internalType": "address",
          "name": "account",
          "type": "address"
        },
        {
          "indexed": false,
          "internalType": "uint256",
          "name": "groupId",
          "type": "uint256"
        }
      ],
      "name": "EligibleRecipientAdded",
      "type": "event"
    },
    {
      "anonymous": false,
      "inputs": [
        {
          "indexed": true,
          "internalType": "address",
          "name": "account",
          "type": "address"
        },
        {
          "indexed": false,
          "internalType": "uint256",
          "name": "groupId",
          "type": "uint256"
        }
      ],
      "name": "EligibleRecipientRemoved",
      "type": "event"
    },
    {
      "anonymous": false,
      "inputs": [],
      "name": "EventClose",
      "type": "event"
    },
    {
      "anonymous": false,
      "inputs": [
        {
          "indexed": false,
          "internalType": "uint256",
          "name": "groupId",
          "type": "uint256"
        },
        {
          "indexed": true,
          "internalType": "address",
          "name": "endedBy",
          "type": "address"
        }
      ],
      "name": "EventEnded",
      "type": "event"
    },
    {
      "anonymous": false,
      "inputs": [
        {
          "indexed": false,
          "internalType": "uint256",
          "name": "groupId",
          "type": "uint256"
        },
        {
          "indexed": true,
          "internalType": "address",
          "name": "startedBy",
          "type": "address"
        }
      ],
      "name": "EventStarted",
      "type": "event"
    },
    {
      "anonymous": false,
      "inputs": [
        {
          "indexed": false,
          "internalType": "uint256",
          "name": "groupId",
          "type": "uint256"
        },
        {
          "indexed": false,
          "internalType": "address",
          "name": "account",
          "type": "address"
        },
        {
          "indexed": false,
          "internalType": "uint256",
          "name": "index",
          "type": "uint256"
        }
      ],
      "name": "GettingMyAdminIndex",
      "type": "event"
    },
    {
      "anonymous": false,
      "inputs": [
        {
          "indexed": false,
          "internalType": "uint256",
          "name": "groupId",
          "type": "uint256"
        },
        {
          "indexed": false,
          "internalType": "string",
          "name": "groupName",
          "type": "string"
        }
      ],
      "name": "GroupCreated",
      "type": "event"
    },
    {
      "anonymous": false,
      "inputs": [
        {
          "indexed": false,
          "internalType": "uint256",
          "name": "groupId",
          "type": "uint256"
        },
        {
          "indexed": false,
          "internalType": "address",
          "name": "addressOfUserGettingApproved",
          "type": "address"
        },
        {
          "indexed": false,
          "internalType": "string",
          "name": "nameOfUserGettingApproved",
          "type": "string"
        }
      ],
      "name": "NewJoinerRequestApproved",
      "type": "event"
    },
    {
      "anonymous": false,
      "inputs": [
        {
          "indexed": false,
          "internalType": "uint256",
          "name": "groupId",
          "type": "uint256"
        },
        {
          "indexed": false,
          "internalType": "address",
          "name": "account",
          "type": "address"
        },
        {
          "indexed": false,
          "internalType": "uint256",
          "name": "index",
          "type": "uint256"
        }
      ],
      "name": "NewUserRequestedToJoinGroup",
      "type": "event"
    },
    {
      "anonymous": false,
      "inputs": [
        {
          "indexed": true,
          "internalType": "address",
          "name": "account",
          "type": "address"
        },
        {
          "indexed": false,
          "internalType": "uint256",
          "name": "groupId",
          "type": "uint256"
        }
      ],
      "name": "RecipientRegistered",
      "type": "event"
    },
    {
      "anonymous": false,
      "inputs": [
        {
          "indexed": false,
          "internalType": "uint256",
          "name": "groupId",
          "type": "uint256"
        },
        {
          "indexed": true,
          "internalType": "address",
          "name": "endedBy",
          "type": "address"
        }
      ],
      "name": "RegistrationEnded",
      "type": "event"
    },
    {
      "anonymous": false,
      "inputs": [],
      "name": "RegistrationOpen",
      "type": "event"
    },
    {
      "anonymous": false,
      "inputs": [
        {
          "indexed": false,
          "internalType": "address",
          "name": "from",
          "type": "address"
        },
        {
          "indexed": false,
          "internalType": "address",
          "name": "to",
          "type": "address"
        }
      ],
      "name": "Transfer",
      "type": "event"
    },
    {
      "anonymous": false,
      "inputs": [
        {
          "indexed": true,
          "internalType": "address",
          "name": "account",
          "type": "address"
        },
        {
          "indexed": false,
          "internalType": "uint256",
          "name": "groupId",
          "type": "uint256"
        }
      ],
      "name": "WinningsClaimed",
      "type": "event"
    },
    {
      "anonymous": false,
      "inputs": [],
      "name": "WinningsClaimingOpen",
      "type": "event"
    },
    {
      "inputs": [
        {
          "internalType": "uint256",
          "name": "groupId",
          "type": "uint256"
        },
        {
          "internalType": "address",
          "name": "account",
          "type": "address"
        },
        {
          "internalType": "string",
          "name": "name",
          "type": "string"
        }
      ],
      "name": "addAdmin",
      "outputs": [],
      "stateMutability": "nonpayable",
      "type": "function"
    },
    {
      "inputs": [
        {
          "internalType": "uint256",
          "name": "groupId",
          "type": "uint256"
        }
      ],
      "name": "amIAdmin",
      "outputs": [
        {
          "internalType": "bool",
          "name": "",
          "type": "bool"
        }
      ],
      "stateMutability": "view",
      "type": "function",
      "constant": true
    },
    {
      "inputs": [
        {
          "internalType": "uint256",
          "name": "groupId",
          "type": "uint256"
        }
      ],
      "name": "amIContributor",
      "outputs": [
        {
          "internalType": "bool",
          "name": "",
          "type": "bool"
        }
      ],
      "stateMutability": "view",
      "type": "function",
      "constant": true
    },
    {
      "inputs": [
        {
          "internalType": "uint256",
          "name": "groupId",
          "type": "uint256"
        }
      ],
      "name": "amIEligibleRecipient",
      "outputs": [
        {
          "internalType": "bool",
          "name": "",
          "type": "bool"
        }
      ],
      "stateMutability": "view",
      "type": "function",
      "constant": true
    },
    {
      "inputs": [
        {
          "internalType": "uint256",
          "name": "groupId",
          "type": "uint256"
        }
      ],
      "name": "amIPendingNewJoiner",
      "outputs": [
        {
          "internalType": "bool",
          "name": "",
          "type": "bool"
        }
      ],
      "stateMutability": "view",
      "type": "function",
      "constant": true
    },
    {
      "inputs": [
        {
          "internalType": "uint256",
          "name": "groupId",
          "type": "uint256"
        }
      ],
      "name": "amIRegisteredRecipient",
      "outputs": [
        {
          "internalType": "bool",
          "name": "",
          "type": "bool"
        }
      ],
      "stateMutability": "view",
      "type": "function",
      "constant": true
    },
    {
      "inputs": [
        {
          "internalType": "uint256",
          "name": "groupId",
          "type": "uint256"
        },
        {
          "internalType": "address",
          "name": "accountToApprove",
          "type": "address"
        }
      ],
      "name": "approveRequestToJoinGroup",
      "outputs": [],
      "stateMutability": "nonpayable",
      "type": "function"
    },
    {
      "inputs": [],
      "name": "ceoAddress",
      "outputs": [
        {
          "internalType": "address",
          "name": "",
          "type": "address"
        }
      ],
      "stateMutability": "view",
      "type": "function",
      "constant": true
    },
    {
      "inputs": [],
      "name": "cfoAddress",
      "outputs": [
        {
          "internalType": "address",
          "name": "",
          "type": "address"
        }
      ],
      "stateMutability": "view",
      "type": "function",
      "constant": true
    },
    {
      "inputs": [
        {
          "internalType": "address",
          "name": "account",
          "type": "address"
        },
        {
          "internalType": "uint256",
          "name": "groupId",
          "type": "uint256"
        }
      ],
      "name": "changeContributor",
      "outputs": [],
      "stateMutability": "nonpayable",
      "type": "function"
    },
    {
      "inputs": [
        {
          "internalType": "uint256",
          "name": "groupId",
          "type": "uint256"
        }
      ],
      "name": "claimWinnings",
      "outputs": [],
      "stateMutability": "nonpayable",
      "type": "function"
    },
    {
      "inputs": [
        {
          "internalType": "uint256",
          "name": "groupId",
          "type": "uint256"
        }
      ],
      "name": "closeEventRegistration",
      "outputs": [],
      "stateMutability": "nonpayable",
      "type": "function"
    },
    {
      "inputs": [
        {
          "internalType": "uint256",
          "name": "groupId",
          "type": "uint256"
        }
      ],
      "name": "contributeToPot",
      "outputs": [],
      "stateMutability": "payable",
      "type": "function",
      "payable": true
    },
    {
      "inputs": [],
      "name": "cooAddress",
      "outputs": [
        {
          "internalType": "address",
          "name": "",
          "type": "address"
        }
      ],
      "stateMutability": "view",
      "type": "function",
      "constant": true
    },
    {
      "inputs": [
        {
          "internalType": "string",
          "name": "groupName",
          "type": "string"
        }
      ],
      "name": "createNewGroup",
      "outputs": [],
      "stateMutability": "nonpayable",
      "type": "function"
    },
    {
      "inputs": [
        {
          "internalType": "uint256",
          "name": "groupId",
          "type": "uint256"
        }
      ],
      "name": "doIHaveClaimableWinnings",
      "outputs": [
        {
          "internalType": "bool",
          "name": "",
          "type": "bool"
        }
      ],
      "stateMutability": "view",
      "type": "function",
      "constant": true
    },
    {
      "inputs": [
        {
          "internalType": "uint256",
          "name": "groupId",
          "type": "uint256"
        }
      ],
      "name": "endEvent",
      "outputs": [],
      "stateMutability": "nonpayable",
      "type": "function"
    },
    {
      "inputs": [
        {
          "internalType": "uint256",
          "name": "groupId",
          "type": "uint256"
        }
      ],
      "name": "getAddressNextAdminIndex",
      "outputs": [
        {
          "internalType": "uint256",
          "name": "",
          "type": "uint256"
        }
      ],
      "stateMutability": "view",
      "type": "function",
      "constant": true
    },
    {
      "inputs": [
        {
          "internalType": "uint256",
          "name": "groupId",
          "type": "uint256"
        }
      ],
      "name": "getAdminsForGroup",
      "outputs": [
        {
          "internalType": "address[]",
          "name": "",
          "type": "address[]"
        },
        {
          "internalType": "bool[]",
          "name": "",
          "type": "bool[]"
        },
        {
          "internalType": "string[]",
          "name": "",
          "type": "string[]"
        }
      ],
      "stateMutability": "view",
      "type": "function",
      "constant": true
    },
    {
      "inputs": [],
      "name": "getCFO",
      "outputs": [
        {
          "internalType": "address",
          "name": "",
          "type": "address"
        }
      ],
      "stateMutability": "view",
      "type": "function",
      "constant": true
    },
    {
      "inputs": [],
      "name": "getCOO",
      "outputs": [
        {
          "internalType": "address",
          "name": "",
          "type": "address"
        }
      ],
      "stateMutability": "view",
      "type": "function",
      "constant": true
    },
    {
      "inputs": [
        {
          "internalType": "uint256",
          "name": "groupId",
          "type": "uint256"
        }
      ],
      "name": "getContributorInfo",
      "outputs": [
        {
          "internalType": "string",
          "name": "newContributorName",
          "type": "string"
        },
        {
          "internalType": "string",
          "name": "newContributorImgUrl",
          "type": "string"
        },
        {
          "internalType": "string",
          "name": "newContributorLinkToUrl",
          "type": "string"
        }
      ],
      "stateMutability": "view",
      "type": "function",
      "constant": true
    },
    {
      "inputs": [
        {
          "internalType": "uint256",
          "name": "groupId",
          "type": "uint256"
        }
      ],
      "name": "getCurrentSponsorAddress",
      "outputs": [
        {
          "internalType": "address",
          "name": "",
          "type": "address"
        }
      ],
      "stateMutability": "view",
      "type": "function",
      "constant": true
    },
    {
      "inputs": [
        {
          "internalType": "uint256",
          "name": "groupId",
          "type": "uint256"
        }
      ],
      "name": "getEligibleRecipientAddresses",
      "outputs": [
        {
          "internalType": "address[]",
          "name": "",
          "type": "address[]"
        }
      ],
      "stateMutability": "view",
      "type": "function",
      "constant": true
    },
    {
      "inputs": [
        {
          "internalType": "uint256",
          "name": "groupId",
          "type": "uint256"
        }
      ],
      "name": "getEligibleRecipientIsEligibilityEnabled",
      "outputs": [
        {
          "internalType": "bool[]",
          "name": "",
          "type": "bool[]"
        }
      ],
      "stateMutability": "view",
      "type": "function",
      "constant": true
    },
    {
      "inputs": [
        {
          "internalType": "uint256",
          "name": "groupId",
          "type": "uint256"
        }
      ],
      "name": "getEligibleRecipientNames",
      "outputs": [
        {
          "internalType": "string[]",
          "name": "",
          "type": "string[]"
        }
      ],
      "stateMutability": "view",
      "type": "function",
      "constant": true
    },
    {
      "inputs": [
        {
          "internalType": "uint256",
          "name": "groupId",
          "type": "uint256"
        }
      ],
      "name": "getEligibleRecipients",
      "outputs": [
        {
          "internalType": "address[]",
          "name": "",
          "type": "address[]"
        },
        {
          "internalType": "string[]",
          "name": "",
          "type": "string[]"
        },
        {
          "internalType": "bool[]",
          "name": "",
          "type": "bool[]"
        }
      ],
      "stateMutability": "view",
      "type": "function",
      "constant": true
    },
    {
      "inputs": [
        {
          "internalType": "uint256",
          "name": "groupId",
          "type": "uint256"
        }
      ],
      "name": "getGroupEventData",
      "outputs": [
        {
          "internalType": "enum EthDropBase.EventState",
          "name": "",
          "type": "uint8"
        },
        {
          "internalType": "uint256",
          "name": "",
          "type": "uint256"
        },
        {
          "internalType": "uint256",
          "name": "",
          "type": "uint256"
        },
        {
          "internalType": "uint256",
          "name": "",
          "type": "uint256"
        },
        {
          "internalType": "uint256",
          "name": "",
          "type": "uint256"
        }
      ],
      "stateMutability": "view",
      "type": "function",
      "constant": true
    },
    {
      "inputs": [],
      "name": "getGroupIds",
      "outputs": [
        {
          "internalType": "uint256[]",
          "name": "",
          "type": "uint256[]"
        }
      ],
      "stateMutability": "view",
      "type": "function",
      "constant": true
    },
    {
      "inputs": [],
      "name": "getGroupNames",
      "outputs": [
        {
          "internalType": "string[]",
          "name": "",
          "type": "string[]"
        }
      ],
      "stateMutability": "view",
      "type": "function",
      "constant": true
    },
    {
      "inputs": [
        {
          "internalType": "uint256",
          "name": "groupId",
          "type": "uint256"
        }
      ],
      "name": "getGroupPublicData",
      "outputs": [
        {
          "internalType": "uint256",
          "name": "",
          "type": "uint256"
        },
        {
          "internalType": "string",
          "name": "",
          "type": "string"
        },
        {
          "internalType": "enum EthDropBase.EventState",
          "name": "",
          "type": "uint8"
        },
        {
          "internalType": "uint256",
          "name": "",
          "type": "uint256"
        },
        {
          "internalType": "uint256",
          "name": "",
          "type": "uint256"
        },
        {
          "internalType": "uint256",
          "name": "",
          "type": "uint256"
        },
        {
          "internalType": "uint256",
          "name": "",
          "type": "uint256"
        }
      ],
      "stateMutability": "view",
      "type": "function",
      "constant": true
    },
    {
      "inputs": [
        {
          "internalType": "uint256",
          "name": "groupId",
          "type": "uint256"
        }
      ],
      "name": "getMyAdminIndex",
      "outputs": [
        {
          "internalType": "uint256",
          "name": "",
          "type": "uint256"
        }
      ],
      "stateMutability": "view",
      "type": "function",
      "constant": true
    },
    {
      "inputs": [
        {
          "internalType": "uint256",
          "name": "groupId",
          "type": "uint256"
        }
      ],
      "name": "getNewJoinerRequests",
      "outputs": [
        {
          "internalType": "address[]",
          "name": "",
          "type": "address[]"
        },
        {
          "internalType": "string[]",
          "name": "",
          "type": "string[]"
        },
        {
          "internalType": "bool[]",
          "name": "",
          "type": "bool[]"
        }
      ],
      "stateMutability": "view",
      "type": "function",
      "constant": true
    },
    {
      "inputs": [
        {
          "internalType": "uint256",
          "name": "groupId",
          "type": "uint256"
        }
      ],
      "name": "getRegisteredRecipientNames",
      "outputs": [
        {
          "internalType": "string[]",
          "name": "",
          "type": "string[]"
        }
      ],
      "stateMutability": "view",
      "type": "function",
      "constant": true
    },
    {
      "inputs": [
        {
          "internalType": "uint256",
          "name": "groupId",
          "type": "uint256"
        }
      ],
      "name": "getRegisteredRecipients",
      "outputs": [
        {
          "internalType": "address[]",
          "name": "",
          "type": "address[]"
        },
        {
          "internalType": "string[]",
          "name": "",
          "type": "string[]"
        },
        {
          "internalType": "bool[]",
          "name": "",
          "type": "bool[]"
        }
      ],
      "stateMutability": "view",
      "type": "function",
      "constant": true
    },
    {
      "inputs": [],
      "name": "getString",
      "outputs": [
        {
          "internalType": "string",
          "name": "",
          "type": "string"
        }
      ],
      "stateMutability": "view",
      "type": "function",
      "constant": true
    },
    {
      "inputs": [
        {
          "internalType": "address",
          "name": "account",
          "type": "address"
        },
        {
          "internalType": "uint256",
          "name": "groupId",
          "type": "uint256"
        }
      ],
      "name": "isAdmin",
      "outputs": [
        {
          "internalType": "bool",
          "name": "",
          "type": "bool"
        }
      ],
      "stateMutability": "view",
      "type": "function",
      "constant": true
    },
    {
      "inputs": [],
      "name": "isCEO",
      "outputs": [
        {
          "internalType": "bool",
          "name": "",
          "type": "bool"
        }
      ],
      "stateMutability": "view",
      "type": "function",
      "constant": true
    },
    {
      "inputs": [],
      "name": "isCFO",
      "outputs": [
        {
          "internalType": "bool",
          "name": "",
          "type": "bool"
        }
      ],
      "stateMutability": "view",
      "type": "function",
      "constant": true
    },
    {
      "inputs": [],
      "name": "isCOO",
      "outputs": [
        {
          "internalType": "bool",
          "name": "",
          "type": "bool"
        }
      ],
      "stateMutability": "view",
      "type": "function",
      "constant": true
    },
    {
      "inputs": [
        {
          "internalType": "address",
          "name": "account",
          "type": "address"
        },
        {
          "internalType": "uint256",
          "name": "groupId",
          "type": "uint256"
        }
      ],
      "name": "isContributor",
      "outputs": [
        {
          "internalType": "bool",
          "name": "",
          "type": "bool"
        }
      ],
      "stateMutability": "view",
      "type": "function",
      "constant": true
    },
    {
      "inputs": [
        {
          "internalType": "address",
          "name": "account",
          "type": "address"
        },
        {
          "internalType": "uint256",
          "name": "groupId",
          "type": "uint256"
        }
      ],
      "name": "isEligibleRecipient",
      "outputs": [
        {
          "internalType": "bool",
          "name": "",
          "type": "bool"
        }
      ],
      "stateMutability": "view",
      "type": "function",
      "constant": true
    },
    {
      "inputs": [],
      "name": "isPaused",
      "outputs": [
        {
          "internalType": "bool",
          "name": "",
          "type": "bool"
        }
      ],
      "stateMutability": "view",
      "type": "function",
      "constant": true
    },
    {
      "inputs": [
        {
          "internalType": "address",
          "name": "account",
          "type": "address"
        },
        {
          "internalType": "uint256",
          "name": "groupId",
          "type": "uint256"
        }
      ],
      "name": "isRegisteredRecipient",
      "outputs": [
        {
          "internalType": "bool",
          "name": "",
          "type": "bool"
        }
      ],
      "stateMutability": "view",
      "type": "function",
      "constant": true
    },
    {
      "inputs": [],
      "name": "newContractAddress",
      "outputs": [
        {
          "internalType": "address",
          "name": "",
          "type": "address"
        }
      ],
      "stateMutability": "view",
      "type": "function",
      "constant": true
    },
    {
      "inputs": [],
      "name": "pause",
      "outputs": [],
      "stateMutability": "nonpayable",
      "type": "function"
    },
    {
      "inputs": [],
      "name": "paused",
      "outputs": [
        {
          "internalType": "bool",
          "name": "",
          "type": "bool"
        }
      ],
      "stateMutability": "view",
      "type": "function",
      "constant": true
    },
    {
      "inputs": [
        {
          "internalType": "uint256",
          "name": "groupId",
          "type": "uint256"
        },
        {
          "internalType": "address",
          "name": "account",
          "type": "address"
        }
      ],
      "name": "reEnableAdmin",
      "outputs": [],
      "stateMutability": "nonpayable",
      "type": "function"
    },
    {
      "inputs": [
        {
          "internalType": "uint256",
          "name": "groupId",
          "type": "uint256"
        }
      ],
      "name": "readEventInfo",
      "outputs": [
        {
          "components": [
            {
              "internalType": "uint256",
              "name": "groupId",
              "type": "uint256"
            },
            {
              "internalType": "string",
              "name": "groupName",
              "type": "string"
            },
            {
              "internalType": "enum EthDropBase.EventState",
              "name": "currentState",
              "type": "uint8"
            },
            {
              "internalType": "uint256",
              "name": "registeredRecipientsCount",
              "type": "uint256"
            },
            {
              "internalType": "string",
              "name": "sponsorName",
              "type": "string"
            },
            {
              "internalType": "string",
              "name": "sponsorImageUrl",
              "type": "string"
            },
            {
              "internalType": "string",
              "name": "sponsorLinkToUrl",
              "type": "string"
            },
            {
              "internalType": "address",
              "name": "currentContributor",
              "type": "address"
            },
            {
              "internalType": "uint256",
              "name": "totalAmountContributed",
              "type": "uint256"
            },
            {
              "internalType": "uint256",
              "name": "weiWinnings",
              "type": "uint256"
            },
            {
              "internalType": "uint256",
              "name": "numberOfUsersWhoClaimedWinnings",
              "type": "uint256"
            }
          ],
          "internalType": "struct EthDropBase.EthDropEvent",
          "name": "",
          "type": "tuple"
        }
      ],
      "stateMutability": "view",
      "type": "function",
      "constant": true
    },
    {
      "inputs": [
        {
          "internalType": "uint256",
          "name": "groupId",
          "type": "uint256"
        }
      ],
      "name": "registerForEvent",
      "outputs": [],
      "stateMutability": "nonpayable",
      "type": "function"
    },
    {
      "inputs": [
        {
          "internalType": "uint256",
          "name": "groupId",
          "type": "uint256"
        },
        {
          "internalType": "address",
          "name": "account",
          "type": "address"
        }
      ],
      "name": "removeAdmin",
      "outputs": [],
      "stateMutability": "nonpayable",
      "type": "function"
    },
    {
      "inputs": [
        {
          "internalType": "address",
          "name": "account",
          "type": "address"
        },
        {
          "internalType": "uint256",
          "name": "groupId",
          "type": "uint256"
        }
      ],
      "name": "removeEligibleRecipient",
      "outputs": [],
      "stateMutability": "nonpayable",
      "type": "function"
    },
    {
      "inputs": [
        {
          "internalType": "uint256",
          "name": "groupId",
          "type": "uint256"
        }
      ],
      "name": "renounceAdmin",
      "outputs": [],
      "stateMutability": "nonpayable",
      "type": "function"
    },
    {
      "inputs": [
        {
          "internalType": "uint256",
          "name": "groupId",
          "type": "uint256"
        },
        {
          "internalType": "string",
          "name": "username",
          "type": "string"
        }
      ],
      "name": "requestToJoinGroup",
      "outputs": [],
      "stateMutability": "nonpayable",
      "type": "function"
    },
    {
      "inputs": [
        {
          "internalType": "address",
          "name": "_newCEO",
          "type": "address"
        }
      ],
      "name": "setCEO",
      "outputs": [],
      "stateMutability": "nonpayable",
      "type": "function"
    },
    {
      "inputs": [
        {
          "internalType": "address",
          "name": "_newCFO",
          "type": "address"
        }
      ],
      "name": "setCFO",
      "outputs": [],
      "stateMutability": "nonpayable",
      "type": "function"
    },
    {
      "inputs": [
        {
          "internalType": "address",
          "name": "_newCOO",
          "type": "address"
        }
      ],
      "name": "setCOO",
      "outputs": [],
      "stateMutability": "nonpayable",
      "type": "function"
    },
    {
      "inputs": [
        {
          "internalType": "string",
          "name": "_s",
          "type": "string"
        }
      ],
      "name": "setString",
      "outputs": [],
      "stateMutability": "nonpayable",
      "type": "function"
    },
    {
      "inputs": [
        {
          "internalType": "uint256",
          "name": "groupId",
          "type": "uint256"
        }
      ],
      "name": "startEvent",
      "outputs": [],
      "stateMutability": "nonpayable",
      "type": "function"
    },
    {
      "inputs": [],
      "name": "stringgg",
      "outputs": [
        {
          "internalType": "string",
          "name": "",
          "type": "string"
        }
      ],
      "stateMutability": "view",
      "type": "function",
      "constant": true
    },
    {
      "inputs": [],
      "name": "unpause",
      "outputs": [
        {
          "internalType": "bool",
          "name": "",
          "type": "bool"
        }
      ],
      "stateMutability": "nonpayable",
      "type": "function"
    },
    {
      "inputs": [
        {
          "internalType": "uint256",
          "name": "groupId",
          "type": "uint256"
        },
        {
          "internalType": "string",
          "name": "newContributorName",
          "type": "string"
        },
        {
          "internalType": "string",
          "name": "newContributorImgUrl",
          "type": "string"
        },
        {
          "internalType": "string",
          "name": "newContributorLinkToUrl",
          "type": "string"
        }
      ],
      "name": "updateContributorInfo",
      "outputs": [],
      "stateMutability": "nonpayable",
      "type": "function"
    },
    {
      "inputs": [],
      "name": "whoami",
      "outputs": [
        {
          "internalType": "address",
          "name": "",
          "type": "address"
        }
      ],
      "stateMutability": "view",
      "type": "function",
      "constant": true
    },
    {
      "inputs": [
        {
          "internalType": "address",
          "name": "_v2Address",
          "type": "address"
        }
      ],
      "name": "setNewAddress",
      "outputs": [],
      "stateMutability": "nonpayable",
      "type": "function"
    },
    {
      "inputs": [],
      "name": "foobar",
      "outputs": [
        {
          "internalType": "string",
          "name": "",
          "type": "string"
        }
      ],
      "stateMutability": "pure",
      "type": "function",
      "constant": true
    }
  ],
  "bytecode": "0x6080604052600180546001600160a01b031916331781556003805460ff60a01b191690556005805560085534801561003657600080fd5b506003805460ff60a01b19169055600180546001600160a01b031916331790556155e080620000666000396000f3fe60806040526004361061034e5760003560e01c80637eb0bdc9116101bd578063c6db5094116100f8578063e9af9bca1161009b578063e9af9bca14610b09578063ea303f0814610b41578063edf6261d14610b61578063ee41b59214610b81578063ef2e61cc14610ba1578063f40fb25414610bc1578063f4a02e7014610be1578063f89e9cb914610c01578063fc5fd6e414610c2157600080fd5b8063c6db509414610a0c578063cd04e47514610a21578063d5f016c314610a54578063e33db42614610a69578063e513b7a914610a96578063e62092be14610ab6578063e82f24e014610ad6578063e9992d9914610ae957600080fd5b8063a59a695311610160578063a59a695314610918578063aea88a0514610938578063b047fb5014610958578063b187bd2614610978578063b3b36bb314610997578063bc5b2e1a146109aa578063c02b8b2c146109ca578063c271e80c146109ec57600080fd5b80637eb0bdc9146108215780637fcaf666146108415780638182aaf2146108615780638456cb591461088157806389ea642f146108965780639393ae37146108ab578063962ecff5146108cb5780639bda8796146108eb57600080fd5b8063454432e21161028d578063677bd9ff11610230578063677bd9ff146107145780636af04a57146107345780636ebdec49146107545780637158798814610783578063744c5e1e146107a3578063785142be146107c35780637b936ac2146107e35780637d837ce51461080157600080fd5b8063454432e2146105cb5780634635509b146105eb5780634e0a33791461061c57806355b57ec11461063c57806356c9a339146106695780635c975abb146106a45780635e82c1fc146106c5578063674811ca146106e557600080fd5b806327d7874c116102f557806327d7874c146104c75780632ba73c15146104e757806330bb011514610507578063330a347b1461052757806338f0b656146105475780633f4ba83a14610567578063406db8431461057c57806344b2983b1461059c57600080fd5b80630519ce791461035357806305df75db1461039057806306cc4922146103cf57806307bfa330146103ff5780630a0f81681461042c5780630d82ffa01461044c57806315891ff414610485578063222fd087146104a7575b600080fd5b34801561035f57600080fd5b50600254610373906001600160a01b031681565b6040516001600160a01b0390911681526020015b60405180910390f35b34801561039c57600080fd5b5060408051808201909152600d81526c666f6f6261727272727272722160981b60208201525b6040516103879190615062565b3480156103db57600080fd5b506103ef6103ea366004614bb2565b610c3f565b6040519015158152602001610387565b34801561040b57600080fd5b5061041f61041a366004614bb2565b610c98565b6040516103879190614fdb565b34801561043857600080fd5b50600154610373906001600160a01b031681565b34801561045857600080fd5b50610373610467366004614bb2565b6000908152600960205260409020600701546001600160a01b031690565b34801561049157600080fd5b506104a56104a0366004614b4b565b610d84565b005b3480156104b357600080fd5b506104a56104c2366004614c4e565b610e89565b3480156104d357600080fd5b506104a56104e2366004614b29565b611191565b3480156104f357600080fd5b506104a5610502366004614b29565b611203565b34801561051357600080fd5b506104a5610522366004614bb2565b611287565b34801561053357600080fd5b506104a5610542366004614bb2565b6112bc565b34801561055357600080fd5b506103ef610562366004614bb2565b611588565b34801561057357600080fd5b506103ef6115c5565b34801561058857600080fd5b506104a5610597366004614bb2565b611638565b3480156105a857600080fd5b506105bc6105b7366004614bb2565b611a4a565b60405161038793929190614f8f565b3480156105d757600080fd5b5061041f6105e6366004614bb2565b611c17565b3480156105f757600080fd5b5061060b610606366004614bb2565b611cf8565b604051610387959493929190615032565b34801561062857600080fd5b506104a5610637366004614b29565b612018565b34801561064857600080fd5b5061065c610657366004614bb2565b6120af565b6040516103879190614fc8565b34801561067557600080fd5b50610696610684366004614bb2565b6000908152600c602052604090205490565b604051908152602001610387565b3480156106b057600080fd5b506003546103ef90600160a01b900460ff1681565b3480156106d157600080fd5b506103ef6106e0366004614b4b565b612131565b3480156106f157600080fd5b50610705610700366004614bb2565b612188565b60405161038793929190615075565b34801561072057600080fd5b506104a561072f366004614bb2565b612356565b34801561074057600080fd5b50602254610373906001600160a01b031681565b34801561076057600080fd5b5061077461076f366004614bb2565b61252d565b60405161038793929190614f4c565b34801561078f57600080fd5b506104a561079e366004614b29565b6126fc565b3480156107af57600080fd5b506103ef6107be366004614bb2565b6127a3565b3480156107cf57600080fd5b506104a56107de366004614bb2565b6127f0565b3480156107ef57600080fd5b506002546001600160a01b0316610373565b34801561080d57600080fd5b506103ef61081c366004614b4b565b6129b2565b34801561082d57600080fd5b506104a561083c366004614bcb565b612a09565b34801561084d57600080fd5b506104a561085c366004614b75565b612a3d565b34801561086d57600080fd5b506103ef61087c366004614b4b565b612a50565b34801561088d57600080fd5b506104a5612aa1565b3480156108a257600080fd5b506103c2612b7e565b3480156108b757600080fd5b506002546001600160a01b031633146103ef565b3480156108d757600080fd5b506103ef6108e6366004614bb2565b612c10565b3480156108f757600080fd5b5061090b610906366004614bb2565b612c1c565b6040516103879190614f39565b34801561092457600080fd5b506104a5610933366004614bb2565b612c87565b34801561094457600080fd5b506104a5610953366004614cca565b612d27565b34801561096457600080fd5b50600354610373906001600160a01b031681565b34801561098457600080fd5b50600354600160a01b900460ff166103ef565b3480156109a357600080fd5b5033610373565b3480156109b657600080fd5b506104a56109c5366004614bcb565b612e21565b3480156109d657600080fd5b506109df61315f565b6040516103879190614fee565b3480156109f857600080fd5b506104a5610a07366004614b4b565b6131b6565b348015610a1857600080fd5b506103c2613218565b348015610a2d57600080fd5b50610a41610a3c366004614bb2565b6132a6565b60405161038797969594939291906153e3565b348015610a6057600080fd5b5061041f6135f0565b348015610a7557600080fd5b50610a89610a84366004614bb2565b6136c9565b6040516103879190615290565b348015610aa257600080fd5b506001546001600160a01b031633146103ef565b348015610ac257600080fd5b506103ef610ad1366004614b4b565b613a3f565b6104a5610ae4366004614bb2565b613ac1565b348015610af557600080fd5b506104a5610b04366004614bcb565b613b6e565b348015610b1557600080fd5b50610696610b24366004614bb2565b6000908152600b6020908152604080832033845290915290205490565b348015610b4d57600080fd5b506104a5610b5c366004614b75565b613c70565b348015610b6d57600080fd5b506104a5610b7c366004614bf7565b613f23565b348015610b8d57600080fd5b506103ef610b9c366004614bb2565b613f90565b348015610bad57600080fd5b506105bc610bbc366004614bb2565b613fc7565b348015610bcd57600080fd5b506105bc610bdc366004614bb2565b6141bf565b348015610bed57600080fd5b506003546001600160a01b031633146103ef565b348015610c0d57600080fd5b506103ef610c1c366004614bb2565b614309565b348015610c2d57600080fd5b506003546001600160a01b0316610373565b600354600090600160a01b900460ff1615610c755760405162461bcd60e51b8152600401610c6c906150f2565b60405180910390fd5b50600081815260106020908152604080832033845290915290205415155b919050565b6060601f6000838152602001908152602001600020805480602002602001604051908101604052809291908181526020016000905b82821015610d79578382906000526020600020018054610cec90615502565b80601f0160208091040260200160405190810160405280929190818152602001828054610d1890615502565b8015610d655780601f10610d3a57610100808354040283529160200191610d65565b820191906000526020600020905b815481529060010190602001808311610d4857829003601f168201915b505050505081526020019060010190610ccd565b505050509050919050565b80610d8f3382613a3f565b610dab5760405162461bcd60e51b8152600401610c6c9061517d565b600354600160a01b900460ff1615610dd55760405162461bcd60e51b8152600401610c6c906150f2565b60008281526010602090815260408083206001600160a01b038716845282528083205485845260149092528220805491929183908110610e1757610e1761557e565b90600052602060002090602091828204019190066101000a81548160ff021916908315150217905550836001600160a01b03167f1af6d16168d33745872119540d28858eed156c5f265206bbf1344fda39a93a3384604051610e7b91815260200190565b60405180910390a250505050565b6000838152601760209081526040808320338085529252909120548491908015610f1b5760405162461bcd60e51b815260206004820152603d60248201527f4572726f723a207468697320616464726573732068617320616c72656164792060448201527f72657175657374656420746f206a6f696e20746869732067726f75702e0000006064820152608401610c6c565b6000868152601060209081526040808320338085529252909120548791908015610f575760405162461bcd60e51b8152600401610c6c90615120565b60008981526018602052604090205461103f57600089815260186020908152604080832060019081905560198352818420805480830182559085528385200180546001600160a01b03191690558c8452601a835281842080549182018155845282842082519384019283905292849052610fd393920191614842565b506000898152601b60209081526040808320805460018082018355918552838520848204018054601f92831661010090810a60ff908102199092169092558f8752601c86529386208054938401815586529484902093820490930180549190931690930a021990911690555b6000898152601860209081526040808320546017835281842033808652908452828520919091558c8452601983528184208054600181810183559186528486200180546001600160a01b0319169092179091558c8452601a835290832080549182018155835291206110b3910189896148c6565b506000898152601b60209081526040808320805460018082018355918552838520848204018054601f92831661010090810a60ff81810219909316179092558f8752601c8652848720805480860182559088528688208782040180549190941690920a02191690558c845260189092529091205461113091615492565b60008a815260186020908152604080832093909355600c90528190205490517fc73d895047e43bcf8caa9f1cce950d0f1a21fc9a00a8d693db86cd0c93dc91aa9161117e918c9133916153ab565b60405180910390a1505050505050505050565b6001546001600160a01b031633146111bb5760405162461bcd60e51b8152600401610c6c906150ae565b6001600160a01b0381166111e15760405162461bcd60e51b8152600401610c6c90615259565b600180546001600160a01b0319166001600160a01b0392909216919091179055565b6001546001600160a01b0316331461122d5760405162461bcd60e51b8152600401610c6c906150ae565b6001600160a01b03811661124057600080fd5b600380546001600160a01b0319166001600160a01b0383161790556040517fa308298a77084def994b565be25bff2e8fbfe7006c2c6b2bacfb84d1ba1f635090600090a150565b806112923382613a3f565b6112ae5760405162461bcd60e51b8152600401610c6c9061517d565b6112b88233614348565b5050565b806112c73382613a3f565b806112dc57506003546001600160a01b031633145b6112e557600080fd5b600354600160a01b900460ff161561130f5760405162461bcd60e51b8152600401610c6c906150f2565b6000828152600960205260408120600201805460ff191660031790555b6000838152600960205260409020600301548110156113a357600083815260208052604081208054839081106113645761136461557e565b6000918252602080832090910154868352601d825260408084206001600160a01b0390921684529152812055508061139b81615537565b91505061132c565b5060008281526021602052604081206113bb9161493a565b6000828152601f602052604081206113d291614962565b600082815260208052604081206113e891614980565b6000828152601e60209081526040808320839055600a825280832060098352908320815460018181018455928552929093208354600b9093020191825580830180549183019161143790615502565b61144292919061499e565b50600282810154908201805460ff9092169160ff1916600183600381111561146c5761146c615568565b021790555060038201548160030155600482018160040190805461148f90615502565b61149a92919061499e565b5060058201816005019080546114af90615502565b6114ba92919061499e565b5060068201816006019080546114cf90615502565b6114da92919061499e565b5060078281015490820180546001600160a01b0319166001600160a01b039092169190911790556008808301548183015560098084015481840155600a9384015492840192909255600085815260208390526040808220600381018390559283018290559282018190559201919091555133907ff184af570dff3a3eecc3464b3ee06c5b91b8cbd63a658135ded4f57fc36435799061157c9085815260200190565b60405180910390a25050565b600354600090600160a01b900460ff16156115b55760405162461bcd60e51b8152600401610c6c906150f2565b6115bf33836129b2565b92915050565b6001546000906001600160a01b031633146115f25760405162461bcd60e51b8152600401610c6c906150ae565b600354600160a01b900460ff1661161b5760405162461bcd60e51b8152600401610c6c9061520a565b506003805460ff60a01b191690819055600160a01b900460ff1690565b806116433382612131565b6116a15760405162461bcd60e51b815260206004820152602960248201527f736f7272792c20796f7520617265206e6f7420616e20656c696769626c65207260448201526832b1b4b834b2b73a1760b91b6064820152608401610c6c565b600082815260106020908152604080832033808552908352818420548685526014909352922080548593929190829081106116de576116de61557e565b60009182526020918290209181049091015460ff601f9092166101000a90041661177c5760405162461bcd60e51b815260206004820152604360248201527f4572726f723a20726563697069656e74277320656c696769626c696c6974792060448201527f686173206265656e2064697361626c656420666f7220746869732067726f757060648201526217171760e91b608482015260a401610c6c565b600354600160a01b900460ff16156117a65760405162461bcd60e51b8152600401610c6c906150f2565b6000858152601e602052604090205461185a576000858152601e60209081526040808320600190819055828052818420805480830182559085528385200180546001600160a01b0319169055888452601f83528184208054918201815584528284208251938401928390529284905261182193920191614842565b5060008581526021602090815260408220805460018101825590835291819020908204018054601f9092166101000a60ff021990911690555b6000858152601060209081526040808320338452825280832054888452601390925282208054919291839081106118935761189361557e565b9060005260206000200180546118a890615502565b80601f01602080910402602001604051908101604052809291908181526020018280546118d490615502565b80156119215780601f106118f657610100808354040283529160200191611921565b820191906000526020600020905b81548152906001019060200180831161190457829003601f168201915b50505060008a8152602080805260408083208054600181810183559185528385200180546001600160a01b031916331790558d8452601f8352908320805491820181558352918190208551959650611980959201935085019150614842565b506000878152602160209081526040808320805460018082018355918552838520848204018054601f9092166101000a60ff021990911690558a84526009909252909120600301546119d191615492565b600088815260096020908152604080832060030193909355601e905220546119fa906001615492565b6000888152601e6020908152604091829020929092555188815233917f0695e999be8100bdb5bee8612337296508d527eae78c65b8f170eacb5a3b439d910160405180910390a250505050505050565b600081815260208080526040808320601f835281842060218452938290208154835181860281018601909452808452606095869586959193928591830182828015611abe57602002820191906000526020600020905b81546001600160a01b03168152600190910190602001808311611aa0575b5050505050925081805480602002602001604051908101604052809291908181526020016000905b82821015611b92578382906000526020600020018054611b0590615502565b80601f0160208091040260200160405190810160405280929190818152602001828054611b3190615502565b8015611b7e5780601f10611b5357610100808354040283529160200191611b7e565b820191906000526020600020905b815481529060010190602001808311611b6157829003601f168201915b505050505081526020019060010190611ae6565b50505050915080805480602002602001604051908101604052809291908181526020018280548015611c0357602002820191906000526020600020906000905b825461010083900a900460ff161515815260206001928301818104948501949093039092029101808411611bd25790505b505050505090509250925092509193909250565b606060136000838152602001908152602001600020805480602002602001604051908101604052809291908181526020016000905b82821015610d79578382906000526020600020018054611c6b90615502565b80601f0160208091040260200160405190810160405280929190818152602001828054611c9790615502565b8015611ce45780601f10611cb957610100808354040283529160200191611ce4565b820191906000526020600020905b815481529060010190602001808311611cc757829003601f168201915b505050505081526020019060010190611c4c565b600080600080600080600960008881526020019081526020016000206040518061016001604052908160008201548152602001600182018054611d3a90615502565b80601f0160208091040260200160405190810160405280929190818152602001828054611d6690615502565b8015611db35780601f10611d8857610100808354040283529160200191611db3565b820191906000526020600020905b815481529060010190602001808311611d9657829003601f168201915b5050509183525050600282015460209091019060ff166003811115611dda57611dda615568565b6003811115611deb57611deb615568565b815260200160038201548152602001600482018054611e0990615502565b80601f0160208091040260200160405190810160405280929190818152602001828054611e3590615502565b8015611e825780601f10611e5757610100808354040283529160200191611e82565b820191906000526020600020905b815481529060010190602001808311611e6557829003601f168201915b50505050508152602001600582018054611e9b90615502565b80601f0160208091040260200160405190810160405280929190818152602001828054611ec790615502565b8015611f145780601f10611ee957610100808354040283529160200191611f14565b820191906000526020600020905b815481529060010190602001808311611ef757829003601f168201915b50505050508152602001600682018054611f2d90615502565b80601f0160208091040260200160405190810160405280929190818152602001828054611f5990615502565b8015611fa65780601f10611f7b57610100808354040283529160200191611fa6565b820191906000526020600020905b815481529060010190602001808311611f8957829003601f168201915b505050918352505060078201546001600160a01b0316602082015260088201546040808301919091526009830154606080840191909152600a909301546080909201919091528201519082015161010083015161012084015161014090940151929b919a509850919650945092505050565b6001546001600160a01b031633146120425760405162461bcd60e51b8152600401610c6c906150ae565b6001600160a01b0381166120685760405162461bcd60e51b8152600401610c6c90615259565b600280546001600160a01b0319166001600160a01b0383161790556040517f162e32528b5907ecf876b3b7a4e5e0edf878642e3ec25852e3c35af1a4e1c04090600090a150565b60008181526014602090815260409182902080548351818402810184019094528084526060939283018282801561212557602002820191906000526020600020906000905b825461010083900a900460ff1615158152602060019283018181049485019490930390920291018084116120f45790505b50505050509050919050565b600354600090600160a01b900460ff161561215e5760405162461bcd60e51b8152600401610c6c906150f2565b5060009081526010602090815260408083206001600160a01b039490941683529290522054151590565b6000818152600960205260409020600481018054606092839283929091600581019160069091019083906121bb90615502565b80601f01602080910402602001604051908101604052809291908181526020018280546121e790615502565b80156122345780601f1061220957610100808354040283529160200191612234565b820191906000526020600020905b81548152906001019060200180831161221757829003601f168201915b5050505050925081805461224790615502565b80601f016020809104026020016040519081016040528092919081815260200182805461227390615502565b80156122c05780601f10612295576101008083540402835291602001916122c0565b820191906000526020600020905b8154815290600101906020018083116122a357829003601f168201915b505050505091508080546122d390615502565b80601f01602080910402602001604051908101604052809291908181526020018280546122ff90615502565b8015611c035780601f1061232157610100808354040283529160200191611c03565b820191906000526020600020905b81548152906001019060200180831161232f5750969b959a50929850939650505050505050565b8061236133826129b2565b6123c05760405162461bcd60e51b815260206004820152602a60248201527f736f7272792c20796f7520617265206e6f7420612072656769737465726564206044820152693932b1b4b834b2b73a1760b11b6064820152608401610c6c565b60008281526015602090815260408083203380855292529091205483919060ff1615156001141561244f5760405162461bcd60e51b815260206004820152603360248201527f77686f6f70732c206c6f6f6b73206c696b6520796f7527766520616c726561646044820152727920636c61696d65642077696e6e696e67732160681b6064820152608401610c6c565b600354600160a01b900460ff16156124795760405162461bcd60e51b8152600401610c6c906150f2565b60008481526015602090815260408083203384528252808320805460ff1916600117905586835260099091528120600a018054916124b683615537565b90915550506000848152600960208190526040808320909101549051339282156108fc02929190818181858888f193505050501580156124fa573d6000803e3d6000fd5b5060405184815233907f1a31e733a172afcf46074b3106c17f0c298e226442682a03c1e99ce256139ec290602001610e7b565b6000818152600d60209081526040808320600f8352818420600e84529382902081548351818602810186019094528084526060958695869591939285918301828280156125a357602002820191906000526020600020905b81546001600160a01b03168152600190910190602001808311612585575b505050505092508180548060200260200160405190810160405280929190818152602001828054801561261557602002820191906000526020600020906000905b825461010083900a900460ff1615158152602060019283018181049485019490930390920291018084116125e45790505b5050505050915080805480602002602001604051908101604052809291908181526020016000905b828210156126e957838290600052602060002001805461265c90615502565b80601f016020809104026020016040519081016040528092919081815260200182805461268890615502565b80156126d55780601f106126aa576101008083540402835291602001916126d5565b820191906000526020600020905b8154815290600101906020018083116126b857829003601f168201915b50505050508152602001906001019061263d565b5050505090509250925092509193909250565b6001546001600160a01b031633146127265760405162461bcd60e51b8152600401610c6c906150ae565b600354600160a01b900460ff1661274f5760405162461bcd60e51b8152600401610c6c9061520a565b602280546001600160a01b0319166001600160a01b0383169081179091556040519081527f450db8da6efbe9c22f2347f7c2021231df1fc58d3ae9a2fa75d39fa4461993059060200160405180910390a150565b600354600090600160a01b900460ff16156127d05760405162461bcd60e51b8152600401610c6c906150f2565b506000908152601760209081526040808320338452909152902054151590565b806127fb3382613a3f565b6128175760405162461bcd60e51b8152600401610c6c9061517d565b600354600160a01b900460ff16156128415760405162461bcd60e51b8152600401610c6c906150f2565b6000828152600960205260409020600301546128b55760405162461bcd60e51b815260206004820152602d60248201527f43616e277420656e6420726567697374726174696f6e2077697468207a65726f60448201526c2072656769737472616e74732160981b6064820152608401610c6c565b60055460008381526009602052604081206008015490916064916128d991906154cc565b6128e391906154aa565b6002546040519192506001600160a01b03169082156108fc029083906000818181858888f1935050505015801561291e573d6000803e3d6000fd5b5060008381526009602052604081206008015461293c9083906154eb565b60008581526009602052604090206003015490915061295b90826154aa565b600085815260096020818152604092839020918201939093556002908101805460ff191690911790555185815233917f0eac29f28d53644f45e1f9f2feef665e4c5d7816090d91e169176fb4e23086299101610e7b565b600354600090600160a01b900460ff16156129df5760405162461bcd60e51b8152600401610c6c906150f2565b506000908152601d602090815260408083206001600160a01b039490941683529290522054151590565b6003546001600160a01b03163314612a335760405162461bcd60e51b8152600401610c6c906151c6565b6112b88282614348565b80516112b8906000906020840190614842565b600354600090600160a01b900460ff1615612a7d5760405162461bcd60e51b8152600401610c6c906150f2565b506000908152600960205260409020600701546001600160a01b0390811691161490565b6003546001600160a01b0316331480612ac457506001546001600160a01b031633145b80612ad957506002546001600160a01b031633145b612b3f5760405162461bcd60e51b815260206004820152603160248201527f6f6e6c7920736f6d656f6e652066726f6d20632d73756974652063616e2063616044820152703636103a3434b990333ab731ba34b7b71760791b6064820152608401610c6c565b600354600160a01b900460ff1615612b695760405162461bcd60e51b8152600401610c6c906150f2565b6003805460ff60a01b1916600160a01b179055565b606060008054612b8d90615502565b80601f0160208091040260200160405190810160405280929190818152602001828054612bb990615502565b8015612c065780601f10612bdb57610100808354040283529160200191612c06565b820191906000526020600020905b815481529060010190602001808311612be957829003601f168201915b5050505050905090565b60006115bf3383613a3f565b60008181526012602090815260409182902080548351818402810184019094528084526060939283018282801561212557602002820191906000526020600020905b81546001600160a01b03168152600190910190602001808311612c5e5750505050509050919050565b80612c923382613a3f565b612cae5760405162461bcd60e51b8152600401610c6c9061517d565b600354600160a01b900460ff1615612cd85760405162461bcd60e51b8152600401610c6c906150f2565b600082815260096020908152604091829020600201805460ff19166001179055905183815233917f9118a3ee6cd03b7e9740d3092ac8fab787a7f93f52732d7bcd32f35dbea62a9c910161157c565b83612d323382612a50565b612d3b57600080fd5b835115612d695760008581526009602090815260409091208551612d6792600490920191870190614842565b505b825115612d975760008581526009602090815260409091208451612d9592600590920191860190614842565b505b815115612dc55760008581526009602090815260409091208351612dc392600690920191850190614842565b505b6000858152600960205260409081902090517fcd9ad49d834aeea746bafd2d26eebd3d01ebac2d8f5d3f53d7f3884292e5835f91612e129188916004810191600582019160060190615448565b60405180910390a15050505050565b81612e2c3382613a3f565b612e485760405162461bcd60e51b8152600401610c6c9061517d565b600354600160a01b900460ff1615612e725760405162461bcd60e51b8152600401610c6c906150f2565b60008381526010602090815260408083206001600160a01b0386168452909152902054839083908015612eb75760405162461bcd60e51b8152600401610c6c90615120565b60008681526017602090815260408083206001600160a01b0389168452909152902054869086908015801590612f2957506000838152601b60205260409020805482908110612f0857612f0861557e565b90600052602060002090602091828204019190069054906101000a900460ff165b612fab5760405162461bcd60e51b815260206004820152604760248201527f4572726f723a2074686973206164647265737320646f6573206e6f742068617660448201527f6520612070656e64696e67207265717565737420746f206a6f696e20746869736064820152661033b937bab81760c91b608482015260a401610c6c565b60008981526017602090815260408083206001600160a01b038c1684528252808320548c845260199092528220805491929183908110612fed57612fed61557e565b60009182526020808320909101548d8352601a9091526040822080546001600160a01b03909216935090849081106130275761302761557e565b90600052602060002001805461303c90615502565b80601f016020809104026020016040519081016040528092919081815260200182805461306890615502565b80156130b55780601f1061308a576101008083540402835291602001916130b5565b820191906000526020600020905b81548152906001019060200180831161309857829003601f168201915b505050505090506001601c60008e815260200190815260200160002084815481106130e2576130e261557e565b90600052602060002090602091828204019190066101000a81548160ff02191690831515021790555061311682828e6143f9565b7fa99702a14ae3f010941d30549064432035071f0e359c50ec6b37d47f430d557a8c838360405161314993929190615378565b60405180910390a1505050505050505050505050565b60606006805480602002602001604051908101604052809291908181526020018280548015612c0657602002820191906000526020600020905b815481526020019060010190808311613199575050505050905090565b806131c13382613a3f565b806131d657506003546001600160a01b031633145b6131df57600080fd5b600354600160a01b900460ff16156132095760405162461bcd60e51b8152600401610c6c906150f2565b61321383836145ee565b505050565b6000805461322590615502565b80601f016020809104026020016040519081016040528092919081815260200182805461325190615502565b801561329e5780601f106132735761010080835404028352916020019161329e565b820191906000526020600020905b81548152906001019060200180831161328157829003601f168201915b505050505081565b60006060600080600080600080600960008a815260200190815260200160002060405180610160016040529081600082015481526020016001820180546132ec90615502565b80601f016020809104026020016040519081016040528092919081815260200182805461331890615502565b80156133655780601f1061333a57610100808354040283529160200191613365565b820191906000526020600020905b81548152906001019060200180831161334857829003601f168201915b5050509183525050600282015460209091019060ff16600381111561338c5761338c615568565b600381111561339d5761339d615568565b8152602001600382015481526020016004820180546133bb90615502565b80601f01602080910402602001604051908101604052809291908181526020018280546133e790615502565b80156134345780601f1061340957610100808354040283529160200191613434565b820191906000526020600020905b81548152906001019060200180831161341757829003601f168201915b5050505050815260200160058201805461344d90615502565b80601f016020809104026020016040519081016040528092919081815260200182805461347990615502565b80156134c65780601f1061349b576101008083540402835291602001916134c6565b820191906000526020600020905b8154815290600101906020018083116134a957829003601f168201915b505050505081526020016006820180546134df90615502565b80601f016020809104026020016040519081016040528092919081815260200182805461350b90615502565b80156135585780601f1061352d57610100808354040283529160200191613558565b820191906000526020600020905b81548152906001019060200180831161353b57829003601f168201915b505050505081526020016007820160009054906101000a90046001600160a01b03166001600160a01b03166001600160a01b031681526020016008820154815260200160098201548152602001600a8201548152505090508060000151816020015182604001518360600151846101000151856101200151866101400151975097509750975097509750975050919395979092949650565b60606007805480602002602001604051908101604052809291908181526020016000905b828210156136c057838290600052602060002001805461363390615502565b80601f016020809104026020016040519081016040528092919081815260200182805461365f90615502565b80156136ac5780601f10613681576101008083540402835291602001916136ac565b820191906000526020600020905b81548152906001019060200180831161368f57829003601f168201915b505050505081526020019060010190613614565b50505050905090565b61372f6040805161016081018252600080825260606020830152909182019081526020016000815260200160608152602001606081526020016060815260200160006001600160a01b031681526020016000815260200160008152602001600081525090565b8161373a3382613a3f565b6137565760405162461bcd60e51b8152600401610c6c9061517d565b60096000848152602001908152602001600020604051806101600160405290816000820154815260200160018201805461378f90615502565b80601f01602080910402602001604051908101604052809291908181526020018280546137bb90615502565b80156138085780601f106137dd57610100808354040283529160200191613808565b820191906000526020600020905b8154815290600101906020018083116137eb57829003601f168201915b5050509183525050600282015460209091019060ff16600381111561382f5761382f615568565b600381111561384057613840615568565b81526020016003820154815260200160048201805461385e90615502565b80601f016020809104026020016040519081016040528092919081815260200182805461388a90615502565b80156138d75780601f106138ac576101008083540402835291602001916138d7565b820191906000526020600020905b8154815290600101906020018083116138ba57829003601f168201915b505050505081526020016005820180546138f090615502565b80601f016020809104026020016040519081016040528092919081815260200182805461391c90615502565b80156139695780601f1061393e57610100808354040283529160200191613969565b820191906000526020600020905b81548152906001019060200180831161394c57829003601f168201915b5050505050815260200160068201805461398290615502565b80601f01602080910402602001604051908101604052809291908181526020018280546139ae90615502565b80156139fb5780601f106139d0576101008083540402835291602001916139fb565b820191906000526020600020905b8154815290600101906020018083116139de57829003601f168201915b505050918352505060078201546001600160a01b031660208201526008820154604082015260098201546060820152600a9091015460809091015291505b50919050565b6000818152600b602090815260408083206001600160a01b038616845290915281205480613a715760009150506115bf565b6000838152600f60205260409020805482908110613a9157613a9161557e565b90600052602060002090602091828204019190069054906101000a900460ff161515600115151491505092915050565b80613acc3382612a50565b613ad557600080fd5b600354600160a01b900460ff1615613aff5760405162461bcd60e51b8152600401610c6c906150f2565b60008281526009602052604081206008018054349290613b20908490615492565b90915550506000828152600960209081526040918290206008015482518581529182015233917f5dc1fe5ab986a852c4eda8e8bb94247d13307065c593fb83f1a09be273679382910161157c565b6003546001600160a01b03163314613b985760405162461bcd60e51b8152600401610c6c906151c6565b6000828152600b602090815260408083206001600160a01b0385168452825280832054858452600f90925290912080546001919083908110613bdc57613bdc61557e565b90600052602060002090602091828204019190066101000a81548160ff0219169083151502179055507f2d19f1f4aa7d21a07d18586e49b3e0529d148488052497ea97f06d7266c3cbbe83600e60008681526020019081526020016000208381548110613c4b57613c4b61557e565b90600052602060002001604051613c6392919061542f565b60405180910390a1505050565b6003546001600160a01b03163314613c9a5760405162461bcd60e51b8152600401610c6c906151c6565b600354600160a01b900460ff1615613cc45760405162461bcd60e51b8152600401610c6c906150f2565b600854604080516101608101825282815260208082018581526000838501819052606084018190528451808401865281815260808501528451808401865281815260a08501528451808401865281815260c085015260e0840181905261010084018190526101208401819052610140840181905285815260098352939093208251815592518051929384939092613d62926001850192910190614842565b50604082015160028201805460ff19166001836003811115613d8657613d86615568565b02179055506060820151600382015560808201518051613db0916004840191602090910190614842565b5060a08201518051613dcc916005840191602090910190614842565b5060c08201518051613de8916006840191602090910190614842565b5060e0820151600782810180546001600160a01b0319166001600160a01b03909316929092179091556101008301516008830155610120830151600983015561014090920151600a909101556006805460018181019092557ff652222313e28459528d920b65115c16c04f3efc82aaedc97be59f3f377c0d3f01849055815490810182556000919091528351613ea5917fa66cc928b5edb82af9bd49922954155ab7b0942694bea4ce44661d9a8736c68801906020860190614842565b5060008281526010602090815260408083208380528252808320839055848352601890915280822091909155517fa27df82d27a5b2a66bcd0c6210f8024283ed1197a6d8e30372f8df2e487c376e90613f0190849086906153ca565b60405180910390a160088054906000613f1983615537565b9190505550505050565b6000838152600b602090815260408083206001600160a01b03861684529091529020548390839015613f5457600080fd5b6003546001600160a01b03163314613f7e5760405162461bcd60e51b8152600401610c6c906151c6565b613f89858585614667565b5050505050565b600354600090600160a01b900460ff1615613fbd5760405162461bcd60e51b8152600401610c6c906150f2565b6115bf3383612a50565b606080606083613fd73382613a3f565b613ff35760405162461bcd60e51b8152600401610c6c9061517d565b6000858152601960209081526040808320601a8352818420601c8452938290208154835181860281018601909452808452919493909291859183018282801561406557602002820191906000526020600020905b81546001600160a01b03168152600190910190602001808311614047575b5050505050925081805480602002602001604051908101604052809291908181526020016000905b828210156141395783829060005260206000200180546140ac90615502565b80601f01602080910402602001604051908101604052809291908181526020018280546140d890615502565b80156141255780601f106140fa57610100808354040283529160200191614125565b820191906000526020600020905b81548152906001019060200180831161410857829003601f168201915b50505050508152602001906001019061408d565b505050509150808054806020026020016040519081016040528092919081815260200182805480156141aa57602002820191906000526020600020906000905b825461010083900a900460ff1615158152602060019283018181049485019490930390920291018084116141795790505b50505050509050935093509350509193909250565b6000818152601260209081526040808320601383528184206014845293829020815483518186028101860190945280845260609586958695919392859183018282801561423557602002820191906000526020600020905b81546001600160a01b03168152600190910190602001808311614217575b5050505050925081805480602002602001604051908101604052809291908181526020016000905b82821015611b9257838290600052602060002001805461427c90615502565b80601f01602080910402602001604051908101604052809291908181526020018280546142a890615502565b80156142f55780601f106142ca576101008083540402835291602001916142f5565b820191906000526020600020905b8154815290600101906020018083116142d857829003601f168201915b50505050508152602001906001019061425d565b600061431533836129b2565b61432157506000919050565b50600090815260156020908152604080832033845290915290205460ff1615156001141590565b6000828152600b602090815260408083206001600160a01b0385168452825280832054858452600f909252822080549192918390811061438a5761438a61557e565b90600052602060002090602091828204019190066101000a81548160ff0219169083151502179055507f021d633158208ba55afbe8aae9878e510cccaf8f1fe2d8c42455d95f58f3b1f083600e60008681526020019081526020016000208381548110613c4b57613c4b61557e565b600354600160a01b900460ff16156144235760405162461bcd60e51b8152600401610c6c906150f2565b8061442e3382613a3f565b61444a5760405162461bcd60e51b8152600401610c6c9061517d565b6000828152601160205260409020546144ff57600082815260116020908152604080832060019081905560128352818420805480830182559085528385200180546001600160a01b031916905585845260138352818420805491820181558452828420825193840192839052928490526144c693920191614842565b5060008281526014602090815260408220805460018101825590835291819020908204018054601f9092166101000a60ff021990911690555b600082815260116020908152604080832054601083528184206001600160a01b03891680865290845282852091909155858452601283528184208054600181810183559186528486200180546001600160a01b03191690921790915585845260138352908320805491820181558352918190208551614585939190910191860190614842565b50600082815260146020908152604080832080546001818101835591855283852084820401805460ff601f9093166101000a928302191690911790558584526011909252909120546145d691615492565b60009283526011602052604090922091909155505050565b60008181526016602090815260408083206001600160a01b038616808552908352818420805460ff19166001179055848452600983529281902060070180546001600160a01b03191684179055518381527f5fd6d0b7e707fe344bd2a1887f9d0eeea8bfcac6f339ba4200e74f0647f101c0910161157c565b6000838152600c602052604090205461472c576000838152600c60208181526040808420600190819055600d8352818520805480830182559086528386200180546001600160a01b0319169055878552600f835281852080548083018255908652838620848204018054601f9092166101000a60ff02199091169055878552600e83528185208054918201815585529382902081518083019092528382526b7a65726f206164647265737360a01b9190920190815261472a939190910191614842565b505b6000838152600c6020908152604080832054600b83528184206001600160a01b03871680865290845282852091909155868452600d83528184208054600181810183559186528486200180546001600160a01b031916909217909155868452600f83528184208054808301825590855283852084820401805460ff601f9093166101000a92830219169091179055868452600e83529083208054918201815583529181902083516147e4939190910191840190614842565b506000838152600c60205260409020546147ff906001615492565b6000848152600c602052604090819020829055517f88356b104f5ba3e9281d371b21296e4e0390dda6f4bcc4bfc219f6d67cc8ae5091613c6391869186916153ab565b82805461484e90615502565b90600052602060002090601f01602090048101928261487057600085556148b6565b82601f1061488957805160ff19168380011785556148b6565b828001600101855582156148b6579182015b828111156148b657825182559160200191906001019061489b565b506148c2929150614a19565b5090565b8280546148d290615502565b90600052602060002090601f0160209004810192826148f457600085556148b6565b82601f1061490d5782800160ff198235161785556148b6565b828001600101855582156148b6579182015b828111156148b657823582559160200191906001019061491f565b50805460008255601f01602090049060005260206000209081019061495f9190614a19565b50565b508054600082559060005260206000209081019061495f9190614a2e565b508054600082559060005260206000209081019061495f9190614a19565b8280546149aa90615502565b90600052602060002090601f0160209004810192826149cc57600085556148b6565b82601f106149dd57805485556148b6565b828001600101855582156148b657600052602060002091601f016020900482015b828111156148b65782548255916001019190600101906149fe565b5b808211156148c25760008155600101614a1a565b808211156148c2576000614a428282614a4b565b50600101614a2e565b508054614a5790615502565b6000825580601f10614a67575050565b601f01602090049060005260206000209081019061495f9190614a19565b80356001600160a01b0381168114610c9357600080fd5b600082601f830112614aad57600080fd5b813567ffffffffffffffff80821115614ac857614ac8615594565b604051601f8301601f19908116603f01168101908282118183101715614af057614af0615594565b81604052838152866020858801011115614b0957600080fd5b836020870160208301376000602085830101528094505050505092915050565b600060208284031215614b3b57600080fd5b614b4482614a85565b9392505050565b60008060408385031215614b5e57600080fd5b614b6783614a85565b946020939093013593505050565b600060208284031215614b8757600080fd5b813567ffffffffffffffff811115614b9e57600080fd5b614baa84828501614a9c565b949350505050565b600060208284031215614bc457600080fd5b5035919050565b60008060408385031215614bde57600080fd5b82359150614bee60208401614a85565b90509250929050565b600080600060608486031215614c0c57600080fd5b83359250614c1c60208501614a85565b9150604084013567ffffffffffffffff811115614c3857600080fd5b614c4486828701614a9c565b9150509250925092565b600080600060408486031215614c6357600080fd5b83359250602084013567ffffffffffffffff80821115614c8257600080fd5b818601915086601f830112614c9657600080fd5b813581811115614ca557600080fd5b876020828501011115614cb757600080fd5b6020830194508093505050509250925092565b60008060008060808587031215614ce057600080fd5b84359350602085013567ffffffffffffffff80821115614cff57600080fd5b614d0b88838901614a9c565b94506040870135915080821115614d2157600080fd5b614d2d88838901614a9c565b93506060870135915080821115614d4357600080fd5b50614d5087828801614a9c565b91505092959194509250565b600081518084526020808501945080840160005b83811015614d955781516001600160a01b031687529582019590820190600101614d70565b509495945050505050565b600081518084526020808501945080840160005b83811015614d95578151151587529582019590820190600101614db4565b600082825180855260208086019550808260051b84010181860160005b84811015614e1d57601f19868403018952614e0b838351614e4c565b98840198925090830190600101614def565b5090979650505050505050565b60048110614e4857634e487b7160e01b600052602160045260246000fd5b9052565b6000815180845260005b81811015614e7257602081850181015186830182015201614e56565b81811115614e84576000602083870101525b50601f01601f19169290920160200192915050565b8054600090600181811c9080831680614eb357607f831692505b6020808410821415614ed557634e487b7160e01b600052602260045260246000fd5b83885260208801828015614ef05760018114614f0157614f2c565b60ff19871682528282019750614f2c565b60008981526020902060005b87811015614f2657815484820152908601908401614f0d565b83019850505b5050505050505092915050565b602081526000614b446020830184614d5c565b606081526000614f5f6060830186614d5c565b8281036020840152614f718186614da0565b90508281036040840152614f858185614dd2565b9695505050505050565b606081526000614fa26060830186614d5c565b8281036020840152614fb48186614dd2565b90508281036040840152614f858185614da0565b602081526000614b446020830184614da0565b602081526000614b446020830184614dd2565b6020808252825182820181905260009190848201906040850190845b818110156150265783518352928401929184019160010161500a565b50909695505050505050565b60a081016150408288614e2a565b8560208301528460408301528360608301528260808301529695505050505050565b602081526000614b446020830184614e4c565b6060815260006150886060830186614e4c565b828103602084015261509a8186614e4c565b90508281036040840152614f858185614e4c565b60208082526024908201527f6f6e6c79207468652063656f2063616e2063616c6c20746869732066756e637460408201526334b7b71760e11b606082015260800190565b6020808252601490820152733a34329030b8381034b9903830bab9b2b217171760611b604082015260600190565b6020808252603f908201527f4572726f723a20726563697069656e7420697320616c726561647920616e206560408201527f6c696769626c6520726563697069656e7420696e207468652067726f75702e00606082015260800190565b60208082526029908201527f6f6e6c792067726f75702061646d696e732063616e2063616c6c20746869732060408201526866756e6374696f6e2160b81b606082015260800190565b60208082526024908201527f6f6e6c792074686520636f6f2063616e2063616c6c20746869732066756e637460408201526334b7b71760e11b606082015260800190565b6020808252602f908201527f66756e6374696f6e2063616e206f6e6c792062652063616c6c6564207768656e60408201526e1030b8381034b9903830bab9b2b21760891b606082015260800190565b6020808252601f908201527f63616e6e6f74207365742043454f20746f207a65726f20616464726573732100604082015260600190565b6020815281516020820152600060208301516101608060408501526152b9610180850183614e4c565b915060408501516152cd6060860182614e2a565b50606085015160808501526080850151601f19808685030160a08701526152f48483614e4c565b935060a08701519150808685030160c08701526153118483614e4c565b935060c08701519150808685030160e08701525061532f8382614e4c565b92505060e085015161010061534e818701836001600160a01b03169052565b86015161012086810191909152860151610140808701919091529095015193019290925250919050565b8381526001600160a01b03831660208201526060604082018190526000906153a290830184614e4c565b95945050505050565b9283526001600160a01b03919091166020830152604082015260600190565b828152604060208201526000614baa6040830184614e4c565b87815260e0602082015260006153fc60e0830189614e4c565b905061540b6040830188614e2a565b8560608301528460808301528360a08301528260c083015298975050505050505050565b828152604060208201526000614baa6040830184614e99565b8481526080602082015260006154616080830186614e99565b82810360408401526154738186614e99565b905082810360608401526154878185614e99565b979650505050505050565b600082198211156154a5576154a5615552565b500190565b6000826154c757634e487b7160e01b600052601260045260246000fd5b500490565b60008160001904831182151516156154e6576154e6615552565b500290565b6000828210156154fd576154fd615552565b500390565b600181811c9082168061551657607f821691505b60208210811415613a3957634e487b7160e01b600052602260045260246000fd5b600060001982141561554b5761554b615552565b5060010190565b634e487b7160e01b600052601160045260246000fd5b634e487b7160e01b600052602160045260246000fd5b634e487b7160e01b600052603260045260246000fd5b634e487b7160e01b600052604160045260246000fdfea2646970667358221220f47b714769dae0a1b2cb0106dac88cee3ba279b16d777a21509f89700ded659964736f6c63430008070033",
  "immutableReferences": {},
  "source": "// SPDX-License-Identifier: MIT\npragma solidity ^0.8.0;\n\nimport \"../roles/AdminsManager.sol\";\n\ncontract EthDropCore is AdminsManager {\n    // Set in case the core contract is broken and an upgrade is required\n    address public newContractAddress;\n\n    /// @notice Creates the main EthDrop smart contract instance.\n    constructor () {\n        // Starts paused.\n\n        // TODO \n        paused = false;\n\n        // the creator of the contract is the initial CEO\n        ceoAddress = msg.sender;\n\n    }\n\n    /// @dev Used to mark the smart contract as upgraded, in case there is a serious\n    ///  breaking bug. This method does nothing but keep track of the new contract and\n    ///  emit a message indicating that the new address is set. It's up to clients of this\n    ///  contract to update to the new contract address in that case. (This contract will\n    ///  be paused indefinitely if such an upgrade takes place.)\n    /// @param _v2Address new address\n    function setNewAddress(address _v2Address) external onlyCEO whenPaused {\n        // See README.md for updgrade plan\n        newContractAddress = _v2Address;\n        emit ContractUpgrade(_v2Address);\n    }\n\n    function foobar() external pure returns (string memory) {\n        return \"foobarrrrrrr!\";\n    }\n}",
  "sourcePath": "/Users/jim/trash/EthDrop/contracts/core/EthDropCore.sol",
  "compiler": {
    "name": "solc",
    "version": "0.8.7+commit.e28d00a7.Emscripten.clang"
  },
  "schemaVersion": "3.4.3",
  "updatedAt": "2021-09-15T04:33:34.153Z",
  "networkType": "ethereum",
  "devdoc": {
    "kind": "dev",
    "methods": {
      "pause()": {
        "details": "Called by any \"C-level\" role to pause the contract. Used only when  a bug or exploit is detected and we need to limit damage."
      },
      "setCEO(address)": {
        "details": "Assigns a new address to act as the CEO. Only available to the current CEO.",
        "params": {
          "_newCEO": "The address of the new CEO"
        }
      },
      "setCFO(address)": {
        "details": "Assigns a new address to act as the CFO. Only available to the current CEO.",
        "params": {
          "_newCFO": "The address of the new CFO"
        }
      },
      "setCOO(address)": {
        "details": "Assigns a new address to act as the COO. Only available to the current CEO.",
        "params": {
          "_newCOO": "The address of the new COO"
        }
      },
      "setNewAddress(address)": {
        "details": "Used to mark the smart contract as upgraded, in case there is a serious  breaking bug. This method does nothing but keep track of the new contract and  emit a message indicating that the new address is set. It's up to clients of this  contract to update to the new contract address in that case. (This contract will  be paused indefinitely if such an upgrade takes place.)",
        "params": {
          "_v2Address": "new address"
        }
      },
      "unpause()": {
        "details": "Unpauses the smart contract. Can only be called by the CEO, since  one reason we may pause the contract is when CFO or COO accounts are  compromised."
      }
    },
    "version": 1
  },
  "userdoc": {
    "kind": "user",
    "methods": {
      "constructor": {
        "notice": "Creates the main EthDrop smart contract instance."
      },
      "unpause()": {
        "notice": "This is public rather than external so it can be called by  derived contracts."
      }
    },
    "version": 1
  }
}