{
  "contractName": "EthDropBase",
  "abi": [
    {
      "anonymous": false,
      "inputs": [
        {
          "indexed": false,
          "internalType": "bool",
          "name": "isPaused",
          "type": "bool"
        }
      ],
      "name": "AppPaused",
      "type": "event"
    },
    {
      "anonymous": false,
      "inputs": [],
      "name": "CfoUpdated",
      "type": "event"
    },
    {
      "anonymous": false,
      "inputs": [
        {
          "indexed": false,
          "internalType": "address",
          "name": "newContract",
          "type": "address"
        }
      ],
      "name": "ContractUpgrade",
      "type": "event"
    },
    {
      "anonymous": false,
      "inputs": [],
      "name": "CooUpdated",
      "type": "event"
    },
    {
      "anonymous": false,
      "inputs": [],
      "name": "EventClose",
      "type": "event"
    },
    {
      "anonymous": false,
      "inputs": [],
      "name": "RegistrationOpen",
      "type": "event"
    },
    {
      "anonymous": false,
      "inputs": [
        {
          "indexed": false,
          "internalType": "address",
          "name": "from",
          "type": "address"
        },
        {
          "indexed": false,
          "internalType": "address",
          "name": "to",
          "type": "address"
        }
      ],
      "name": "Transfer",
      "type": "event"
    },
    {
      "anonymous": false,
      "inputs": [],
      "name": "WinningsClaimingOpen",
      "type": "event"
    },
    {
      "inputs": [],
      "name": "ceoAddress",
      "outputs": [
        {
          "internalType": "address",
          "name": "",
          "type": "address"
        }
      ],
      "stateMutability": "view",
      "type": "function",
      "constant": true
    },
    {
      "inputs": [],
      "name": "cfoAddress",
      "outputs": [
        {
          "internalType": "address",
          "name": "",
          "type": "address"
        }
      ],
      "stateMutability": "view",
      "type": "function",
      "constant": true
    },
    {
      "inputs": [],
      "name": "cooAddress",
      "outputs": [
        {
          "internalType": "address",
          "name": "",
          "type": "address"
        }
      ],
      "stateMutability": "view",
      "type": "function",
      "constant": true
    },
    {
      "inputs": [],
      "name": "getCFO",
      "outputs": [
        {
          "internalType": "address",
          "name": "",
          "type": "address"
        }
      ],
      "stateMutability": "view",
      "type": "function",
      "constant": true
    },
    {
      "inputs": [],
      "name": "getCOO",
      "outputs": [
        {
          "internalType": "address",
          "name": "",
          "type": "address"
        }
      ],
      "stateMutability": "view",
      "type": "function",
      "constant": true
    },
    {
      "inputs": [],
      "name": "getString",
      "outputs": [
        {
          "internalType": "string",
          "name": "",
          "type": "string"
        }
      ],
      "stateMutability": "view",
      "type": "function",
      "constant": true
    },
    {
      "inputs": [],
      "name": "isCEO",
      "outputs": [
        {
          "internalType": "bool",
          "name": "",
          "type": "bool"
        }
      ],
      "stateMutability": "view",
      "type": "function",
      "constant": true
    },
    {
      "inputs": [],
      "name": "isCFO",
      "outputs": [
        {
          "internalType": "bool",
          "name": "",
          "type": "bool"
        }
      ],
      "stateMutability": "view",
      "type": "function",
      "constant": true
    },
    {
      "inputs": [],
      "name": "isCOO",
      "outputs": [
        {
          "internalType": "bool",
          "name": "",
          "type": "bool"
        }
      ],
      "stateMutability": "view",
      "type": "function",
      "constant": true
    },
    {
      "inputs": [],
      "name": "isPaused",
      "outputs": [
        {
          "internalType": "bool",
          "name": "",
          "type": "bool"
        }
      ],
      "stateMutability": "view",
      "type": "function",
      "constant": true
    },
    {
      "inputs": [],
      "name": "pause",
      "outputs": [],
      "stateMutability": "nonpayable",
      "type": "function"
    },
    {
      "inputs": [],
      "name": "paused",
      "outputs": [
        {
          "internalType": "bool",
          "name": "",
          "type": "bool"
        }
      ],
      "stateMutability": "view",
      "type": "function",
      "constant": true
    },
    {
      "inputs": [
        {
          "internalType": "address",
          "name": "_newCEO",
          "type": "address"
        }
      ],
      "name": "setCEO",
      "outputs": [],
      "stateMutability": "nonpayable",
      "type": "function"
    },
    {
      "inputs": [
        {
          "internalType": "address",
          "name": "_newCFO",
          "type": "address"
        }
      ],
      "name": "setCFO",
      "outputs": [],
      "stateMutability": "nonpayable",
      "type": "function"
    },
    {
      "inputs": [
        {
          "internalType": "address",
          "name": "_newCOO",
          "type": "address"
        }
      ],
      "name": "setCOO",
      "outputs": [],
      "stateMutability": "nonpayable",
      "type": "function"
    },
    {
      "inputs": [
        {
          "internalType": "string",
          "name": "_s",
          "type": "string"
        }
      ],
      "name": "setString",
      "outputs": [],
      "stateMutability": "nonpayable",
      "type": "function"
    },
    {
      "inputs": [],
      "name": "stringgg",
      "outputs": [
        {
          "internalType": "string",
          "name": "",
          "type": "string"
        }
      ],
      "stateMutability": "view",
      "type": "function",
      "constant": true
    },
    {
      "inputs": [],
      "name": "unpause",
      "outputs": [
        {
          "internalType": "bool",
          "name": "",
          "type": "bool"
        }
      ],
      "stateMutability": "nonpayable",
      "type": "function"
    },
    {
      "inputs": [],
      "name": "whoami",
      "outputs": [
        {
          "internalType": "address",
          "name": "",
          "type": "address"
        }
      ],
      "stateMutability": "view",
      "type": "function",
      "constant": true
    },
    {
      "inputs": [],
      "name": "getGroupIds",
      "outputs": [
        {
          "internalType": "uint256[]",
          "name": "",
          "type": "uint256[]"
        }
      ],
      "stateMutability": "view",
      "type": "function",
      "constant": true
    },
    {
      "inputs": [],
      "name": "getGroupNames",
      "outputs": [
        {
          "internalType": "string[]",
          "name": "",
          "type": "string[]"
        }
      ],
      "stateMutability": "view",
      "type": "function",
      "constant": true
    },
    {
      "inputs": [
        {
          "internalType": "uint256",
          "name": "groupId",
          "type": "uint256"
        }
      ],
      "name": "getGroupEventData",
      "outputs": [
        {
          "internalType": "enum EthDropBase.EventState",
          "name": "",
          "type": "uint8"
        },
        {
          "internalType": "uint256",
          "name": "",
          "type": "uint256"
        },
        {
          "internalType": "uint256",
          "name": "",
          "type": "uint256"
        },
        {
          "internalType": "uint256",
          "name": "",
          "type": "uint256"
        },
        {
          "internalType": "uint256",
          "name": "",
          "type": "uint256"
        }
      ],
      "stateMutability": "view",
      "type": "function",
      "constant": true
    },
    {
      "inputs": [
        {
          "internalType": "uint256",
          "name": "groupId",
          "type": "uint256"
        }
      ],
      "name": "getGroupPublicData",
      "outputs": [
        {
          "internalType": "uint256",
          "name": "",
          "type": "uint256"
        },
        {
          "internalType": "string",
          "name": "",
          "type": "string"
        },
        {
          "internalType": "enum EthDropBase.EventState",
          "name": "",
          "type": "uint8"
        },
        {
          "internalType": "uint256",
          "name": "",
          "type": "uint256"
        },
        {
          "internalType": "uint256",
          "name": "",
          "type": "uint256"
        },
        {
          "internalType": "uint256",
          "name": "",
          "type": "uint256"
        },
        {
          "internalType": "uint256",
          "name": "",
          "type": "uint256"
        }
      ],
      "stateMutability": "view",
      "type": "function",
      "constant": true
    }
  ],
  "bytecode": "0x6080604052600180546001600160a01b031916331781556003805460ff60a01b191690556005805560085534801561003657600080fd5b506113a3806100466000396000f3fe608060405234801561001057600080fd5b506004361061014d5760003560e01c806389ea642f116100c3578063c6db50941161007c578063c6db5094146102b4578063cd04e475146102bc578063d5f016c3146102e2578063e513b7a9146102f7578063f4a02e701461030a578063fc5fd6e41461031d57600080fd5b806389ea642f1461024c5780639393ae3714610261578063b047fb5014610274578063b187bd2614610287578063b3b36bb314610299578063c02b8b2c1461029f57600080fd5b80634635509b116101155780634635509b146101d55780634e0a3379146101f95780635c975abb1461020c5780637b936ac2146102205780637fcaf666146102315780638456cb591461024457600080fd5b80630519ce79146101525780630a0f81681461018257806327d7874c146101955780632ba73c15146101aa5780633f4ba83a146101bd575b600080fd5b600254610165906001600160a01b031681565b6040516001600160a01b0390911681526020015b60405180910390f35b600154610165906001600160a01b031681565b6101a86101a3366004610fed565b61032e565b005b6101a86101b8366004610fed565b6103a9565b6101c561042d565b6040519015158152602001610179565b6101e86101e33660046110ce565b6104e8565b6040516101799594939291906111fc565b6101a8610207366004610fed565b610808565b6003546101c590600160a01b900460ff1681565b6002546001600160a01b0316610165565b6101a861023f36600461101d565b61089f565b6101a86108b6565b6102546109ba565b604051610179919061122c565b6002546001600160a01b031633146101c5565b600354610165906001600160a01b031681565b600354600160a01b900460ff166101c5565b33610165565b6102a7610a4c565b60405161017991906111b8565b610254610aa3565b6102cf6102ca3660046110ce565b610b31565b60405161017997969594939291906112ba565b6102ea610e7b565b6040516101799190611156565b6001546001600160a01b031633146101c5565b6003546001600160a01b031633146101c5565b6003546001600160a01b0316610165565b6001546001600160a01b031633146103615760405162461bcd60e51b81526004016103589061123f565b60405180910390fd5b6001600160a01b0381166103875760405162461bcd60e51b815260040161035890611283565b600180546001600160a01b0319166001600160a01b0392909216919091179055565b6001546001600160a01b031633146103d35760405162461bcd60e51b81526004016103589061123f565b6001600160a01b0381166103e657600080fd5b600380546001600160a01b0319166001600160a01b0383161790556040517fa308298a77084def994b565be25bff2e8fbfe7006c2c6b2bacfb84d1ba1f635090600090a150565b6001546000906001600160a01b0316331461045a5760405162461bcd60e51b81526004016103589061123f565b600354600160a01b900460ff166104cb5760405162461bcd60e51b815260206004820152602f60248201527f66756e6374696f6e2063616e206f6e6c792062652063616c6c6564207768656e60448201526e1030b8381034b9903830bab9b2b21760891b6064820152608401610358565b506003805460ff60a01b191690819055600160a01b900460ff1690565b60008060008060008060096000888152602001908152602001600020604051806101600160405290816000820154815260200160018201805461052a90611306565b80601f016020809104026020016040519081016040528092919081815260200182805461055690611306565b80156105a35780601f10610578576101008083540402835291602001916105a3565b820191906000526020600020905b81548152906001019060200180831161058657829003601f168201915b5050509183525050600282015460209091019060ff1660038111156105ca576105ca611341565b60038111156105db576105db611341565b8152602001600382015481526020016004820180546105f990611306565b80601f016020809104026020016040519081016040528092919081815260200182805461062590611306565b80156106725780601f1061064757610100808354040283529160200191610672565b820191906000526020600020905b81548152906001019060200180831161065557829003601f168201915b5050505050815260200160058201805461068b90611306565b80601f01602080910402602001604051908101604052809291908181526020018280546106b790611306565b80156107045780601f106106d957610100808354040283529160200191610704565b820191906000526020600020905b8154815290600101906020018083116106e757829003601f168201915b5050505050815260200160068201805461071d90611306565b80601f016020809104026020016040519081016040528092919081815260200182805461074990611306565b80156107965780601f1061076b57610100808354040283529160200191610796565b820191906000526020600020905b81548152906001019060200180831161077957829003601f168201915b505050918352505060078201546001600160a01b0316602082015260088201546040808301919091526009830154606080840191909152600a909301546080909201919091528201519082015161010083015161012084015161014090940151929b919a509850919650945092505050565b6001546001600160a01b031633146108325760405162461bcd60e51b81526004016103589061123f565b6001600160a01b0381166108585760405162461bcd60e51b815260040161035890611283565b600280546001600160a01b0319166001600160a01b0383161790556040517f162e32528b5907ecf876b3b7a4e5e0edf878642e3ec25852e3c35af1a4e1c04090600090a150565b80516108b2906000906020840190610f54565b5050565b6003546001600160a01b03163314806108d957506001546001600160a01b031633145b806108ee57506002546001600160a01b031633145b6109545760405162461bcd60e51b815260206004820152603160248201527f6f6e6c7920736f6d656f6e652066726f6d20632d73756974652063616e2063616044820152703636103a3434b990333ab731ba34b7b71760791b6064820152608401610358565b600354600160a01b900460ff16156109a55760405162461bcd60e51b81526020600482015260146024820152733a34329030b8381034b9903830bab9b2b217171760611b6044820152606401610358565b6003805460ff60a01b1916600160a01b179055565b6060600080546109c990611306565b80601f01602080910402602001604051908101604052809291908181526020018280546109f590611306565b8015610a425780601f10610a1757610100808354040283529160200191610a42565b820191906000526020600020905b815481529060010190602001808311610a2557829003601f168201915b5050505050905090565b60606006805480602002602001604051908101604052809291908181526020018280548015610a4257602002820191906000526020600020905b815481526020019060010190808311610a86575050505050905090565b60008054610ab090611306565b80601f0160208091040260200160405190810160405280929190818152602001828054610adc90611306565b8015610b295780601f10610afe57610100808354040283529160200191610b29565b820191906000526020600020905b815481529060010190602001808311610b0c57829003601f168201915b505050505081565b60006060600080600080600080600960008a81526020019081526020016000206040518061016001604052908160008201548152602001600182018054610b7790611306565b80601f0160208091040260200160405190810160405280929190818152602001828054610ba390611306565b8015610bf05780601f10610bc557610100808354040283529160200191610bf0565b820191906000526020600020905b815481529060010190602001808311610bd357829003601f168201915b5050509183525050600282015460209091019060ff166003811115610c1757610c17611341565b6003811115610c2857610c28611341565b815260200160038201548152602001600482018054610c4690611306565b80601f0160208091040260200160405190810160405280929190818152602001828054610c7290611306565b8015610cbf5780601f10610c9457610100808354040283529160200191610cbf565b820191906000526020600020905b815481529060010190602001808311610ca257829003601f168201915b50505050508152602001600582018054610cd890611306565b80601f0160208091040260200160405190810160405280929190818152602001828054610d0490611306565b8015610d515780601f10610d2657610100808354040283529160200191610d51565b820191906000526020600020905b815481529060010190602001808311610d3457829003601f168201915b50505050508152602001600682018054610d6a90611306565b80601f0160208091040260200160405190810160405280929190818152602001828054610d9690611306565b8015610de35780601f10610db857610100808354040283529160200191610de3565b820191906000526020600020905b815481529060010190602001808311610dc657829003601f168201915b505050505081526020016007820160009054906101000a90046001600160a01b03166001600160a01b03166001600160a01b031681526020016008820154815260200160098201548152602001600a8201548152505090508060000151816020015182604001518360600151846101000151856101200151866101400151975097509750975097509750975050919395979092949650565b60606007805480602002602001604051908101604052809291908181526020016000905b82821015610f4b578382906000526020600020018054610ebe90611306565b80601f0160208091040260200160405190810160405280929190818152602001828054610eea90611306565b8015610f375780601f10610f0c57610100808354040283529160200191610f37565b820191906000526020600020905b815481529060010190602001808311610f1a57829003601f168201915b505050505081526020019060010190610e9f565b50505050905090565b828054610f6090611306565b90600052602060002090601f016020900481019282610f825760008555610fc8565b82601f10610f9b57805160ff1916838001178555610fc8565b82800160010185558215610fc8579182015b82811115610fc8578251825591602001919060010190610fad565b50610fd4929150610fd8565b5090565b5b80821115610fd45760008155600101610fd9565b600060208284031215610fff57600080fd5b81356001600160a01b038116811461101657600080fd5b9392505050565b60006020828403121561102f57600080fd5b813567ffffffffffffffff8082111561104757600080fd5b818401915084601f83011261105b57600080fd5b81358181111561106d5761106d611357565b604051601f8201601f19908116603f0116810190838211818310171561109557611095611357565b816040528281528760208487010111156110ae57600080fd5b826020860160208301376000928101602001929092525095945050505050565b6000602082840312156110e057600080fd5b5035919050565b6004811061110557634e487b7160e01b600052602160045260246000fd5b9052565b6000815180845260005b8181101561112f57602081850181015186830182015201611113565b81811115611141576000602083870101525b50601f01601f19169290920160200192915050565b6000602080830181845280855180835260408601915060408160051b870101925083870160005b828110156111ab57603f19888603018452611199858351611109565b9450928501929085019060010161117d565b5092979650505050505050565b6020808252825182820181905260009190848201906040850190845b818110156111f0578351835292840192918401916001016111d4565b50909695505050505050565b60a0810161120a82886110e7565b8560208301528460408301528360608301528260808301529695505050505050565b6020815260006110166020830184611109565b60208082526024908201527f6f6e6c79207468652063656f2063616e2063616c6c20746869732066756e637460408201526334b7b71760e11b606082015260800190565b6020808252601f908201527f63616e6e6f74207365742043454f20746f207a65726f20616464726573732100604082015260600190565b87815260e0602082015260006112d360e0830189611109565b90506112e260408301886110e7565b8560608301528460808301528360a08301528260c083015298975050505050505050565b600181811c9082168061131a57607f821691505b6020821081141561133b57634e487b7160e01b600052602260045260246000fd5b50919050565b634e487b7160e01b600052602160045260246000fd5b634e487b7160e01b600052604160045260246000fdfea26469706673582212205589a474c6e2516b76c950fc94b2988a54cd7c373b127d6504044dd0ce3e123464736f6c63430008070033",
  "immutableReferences": {},
  "source": "// SPDX-License-Identifier: MIT\npragma solidity ^0.8.0;\n\nimport '../roles/ExecutivesAccessControl.sol';\n\ncontract EthDropBase is ExecutivesAccessControl {\n    /*** EVENTS ***/\n\n    uint256 foo;\n\n    /// @dev The RegistrationOpen event is fired whenever a new event starts and users can begin restering.\n    event RegistrationOpen();\n\n    /// @dev The RegistrationOpen event is fired whenever a new event starts and users can begin restering.\n    //    After this event fires users can no longer register, and users who have registered can claim winnings.\n    event WinningsClaimingOpen();\n\n    /// @dev The EventClose event is fired whenever an event closes. After this event is fired users can no\n    //    longer claim winnings\n    event EventClose();\n\n    /// @dev Transfer event as defined in current draft of ERC721. Emitted every some Eth is transferred\n\n    event Transfer(address from, address to); // Assumed Eth\n\n    // TODO - (in later, more than just eth contracts as pass tokenId)\n    // event Transfer(address from, address to, uint tokenId);\n\n    /*** DATA TYPES ***/\n\n    /// @dev The main Kitty struct. Every cat in CryptoKitties is represented by a copy\n    ///  of this structure, so great care was taken to ensure that it fits neatly into\n    ///  exactly two 256-bit words. Note that the order of the members in this structure\n    ///  is important because of the byte-packing rules used by Ethereum.\n    ///  Ref: http://solidity.readthedocs.io/en/develop/miscellaneous.html\n\n    // TODO - ^ think harder about all that byte-packing junk... \n\n    enum EventState {\n        CREATED,\n        REGISTRATION,\n        CLAIM_WINNINGS,\n        ENDED\n    }\n\n    uint256 devCutPercentage = 5;\n\n    struct EthDropEvent {\n        // The IRL organization that controls their own airdrops.\n        // Each group can only be running 1 event at a time.\n        uint256 groupId;\n        // Event goes through a linear flow of states, finite state machine.\n        string groupName;\n        // Event goes through a linear flow of states, finite state machine.\n        EventState currentState;\n        // The timestamp from the block when this event started.\n        // uint256 startTime;\n        // // The timestamp from the block when registration for this event ended.\n        // uint256 registrationEndTime;\n        // // The timestamp from the block when this event ended.\n        // uint256 endTime;\n        // The number of eligibleRecipients who have registered.\n        uint256 registeredRecipientsCount;\n        // Data about the sponsor info (address is stored in Roles)\n        string sponsorName;\n        string sponsorImageUrl;\n        string sponsorLinkToUrl;\n        address currentContributor;\n        uint256 totalAmountContributed;\n        uint256 weiWinnings;\n        uint256 numberOfUsersWhoClaimedWinnings;\n    }\n\n    // ALL events happening now or in the future.\n    // Key is the groupId\n    uint256[] listOfGroupIds;\n    string[] listOfGroupNames;\n\n    uint256 nextGroupId = 1;\n    // ALL events happening now or in the future.\n    // Key is the groupId\n    mapping(uint256 => EthDropEvent) currentEvents;\n\n    // ALL events that have already happened.\n    // Key is the groupId\n    mapping(uint256 => EthDropEvent[]) pastEvents;\n\n    // groupId => index in arrays for this specific address\n    mapping(uint256 => mapping(address => uint256)) adminAddressToIndex;\n\n    // groupId => nextAvailableIndex\n    mapping(uint256 => uint256) nextAdminIndexForGroup;\n\n    // groupId => list of admin addresses\n    mapping(uint256 => address[]) adminAddresses;\n\n    // groupId => list of admin names\n    mapping(uint256 => string[]) adminNames;\n\n    // groupId => whether of not user is an admin\n    mapping(uint256 => bool[]) adminEnabled;\n\n    // mapping(uint256 => mapping(address => bool)) eligibleRecipients;\n\n    mapping(uint256 => mapping(address => uint256)) eligibleRecipientsAddresstoIndex;\n    mapping(uint256 => uint256) nextEligibleRecipientIndexForGroup;\n\n    mapping(uint256 => address[]) eligibleRecipientAddressesArray;\n    mapping(uint256 => string[]) eligibleRecipientNamesArray;\n    mapping(uint256 => bool[]) eligibleRecipientsEligibilityIsEnabled;\n\n    mapping(uint256 => mapping(address => bool)) winningsCollected;\n\n    // Holds ALL contributors for all groups\n    // groupId => Role\n    mapping(uint256 => mapping(address => bool)) contributors;\n\n    mapping(uint256 => mapping(address => uint256)) requestsToJoinGroupAddressToIndex;\n\n    mapping(uint256 => uint256) requestsToJoinGroupNextIndex;\n\n    mapping(uint256 => address[]) requestsToJoinGroupAddresses;\n    mapping(uint256 => string[]) requestsToJoinGroupNames;\n    mapping(uint256 => bool[]) requestedToJoinGroup;\n    mapping(uint256 => bool[]) requestsToJoinGroupApprovals;\n\n    mapping(uint256 => mapping(address => uint256)) registeredRecipientsAddressToIndex;\n\n    mapping(uint256 => uint256) registeredRecipientsNextIndex;\n    mapping(uint256 => string[]) registeredRecipientNamesArray;\n    mapping(uint256 => address[]) registeredRecipientAddressesArray;\n    mapping(uint256 => bool[]) registeredRecipientsWinningsCollected;\n\n    function getGroupIds() external view returns (uint256[] memory) {\n        return listOfGroupIds;\n    }\n\n    function getGroupNames() external view returns (string[] memory) {\n        return listOfGroupNames;\n    }\n\n    // stack too deep\n    // function getGroupEventData(uint256 groupId)\n    //     external\n    //     view\n    //     returns (\n    //         uint256, // groupId\n    //         // Event goes through a linear flow of states, finite state machine.\n    //         string memory, // groupName\n    //         // Event goes through a linear flow of states, finite state machine.\n    //         EventState, // currentState,\n    //         // The timestamp from the block when this event started.\n    //         // uint256, // startTime,\n    //         // // The timestamp from the block when registration for this event ended.\n    //         // uint256, // registrationEndTime,\n    //         // // The timestamp from the bock when this event ended.\n    //         // uint256, // endTime,\n    //         // The number of eligibleRecipients who have registered.\n    //         uint256, // registeredRecipientsCount,\n    //         // Data about the sponsor info (address is stored in Roles)\n    //         string memory, // sponsorName,\n    //         string memory, // sponsorImageUrl,\n    //         string memory, // sponsorLinkToUrl,\n    //         address // currentContributor,\n    //     )\n    // {\n    //     // EthDropEvent memory groupData = currentEvents[groupId];\n\n    //     return (\n    //         currentEvents[groupId].groupId,\n    //         currentEvents[groupId].groupName,\n    //         currentEvents[groupId].currentState,\n    //         // groupData.startTime,\n    //         // groupData.registrationEndTime,\n    //         // groupData.endTime,\n    //         currentEvents[groupId].registeredRecipientsCount,\n    //         currentEvents[groupId].sponsorName,\n    //         currentEvents[groupId].sponsorImageUrl,\n    //         currentEvents[groupId].sponsorLinkToUrl,\n    //         currentEvents[groupId].currentContributor\n    //     );\n    // }\n\n    // DEPRECATED\n    function getGroupEventData(uint256 groupId)\n        external\n        view\n        returns (\n            // uint256, // groupId\n            // Event goes through a linear flow of states, finite state machine.\n            // string memory, // groupName\n            // Event goes through a linear flow of states, finite state machine.\n            EventState, // currentState,\n            // The timestamp from the block when this event started.\n            // uint256, // startTime,\n            // // The timestamp from the block when registration for this event ended.\n            // uint256, // registrationEndTime,\n            // // The timestamp from the bock when this event ended.\n            // uint256, // endTime,\n            // The number of eligibleRecipients who have registered.\n            uint256, // registeredRecipientsCount,\n            uint256, // total amount contributed,\n            // uint256, // registeredRecipientsCount,\n            // Data about the sponsor info (address is stored in Roles)\n\n            uint256,\n            uint256\n        )\n    // address // currentContributor,\n    {\n        EthDropEvent memory groupData = currentEvents[groupId];\n\n        return (\n            // groupData.groupId,\n            // groupData.groupName,\n            groupData.currentState,\n            // groupData.startTime,\n            // groupData.registrationEndTime,\n            // groupData.endTime,\n            groupData.registeredRecipientsCount,\n            groupData.totalAmountContributed,\n            groupData.weiWinnings,\n            groupData.numberOfUsersWhoClaimedWinnings\n            // groupData.currentContributor\n        );\n    }\n\n    function getGroupPublicData(uint256 groupId)\n        external\n        view\n        returns (\n            uint256, // groupId\n            string memory, // groupName\n            EventState, // currentState,\n            uint256, // registeredRecipientsCount,\n            uint256, // total amount contributed,\n            uint256, // wei winnings (for each recipient)\n            uint256 // number of users whoh have claimed winnings\n        )\n    {\n        EthDropEvent memory groupData = currentEvents[groupId];\n\n        return (\n            groupData.groupId,\n            groupData.groupName,\n            groupData.currentState,\n            groupData.registeredRecipientsCount,\n            groupData.totalAmountContributed,\n            groupData.weiWinnings,\n            groupData.numberOfUsersWhoClaimedWinnings\n        );\n    }\n}\n",
  "sourcePath": "/Users/jim/trash/EthDrop/contracts/core/EthDropBase.sol",
  "compiler": {
    "name": "solc",
    "version": "0.8.7+commit.e28d00a7.Emscripten.clang"
  },
  "schemaVersion": "3.4.3",
  "updatedAt": "2021-09-15T04:13:47.346Z",
  "networkType": "ethereum",
  "devdoc": {
    "events": {
      "EventClose()": {
        "details": "The EventClose event is fired whenever an event closes. After this event is fired users can no"
      },
      "RegistrationOpen()": {
        "details": "The RegistrationOpen event is fired whenever a new event starts and users can begin restering."
      },
      "Transfer(address,address)": {
        "details": "Transfer event as defined in current draft of ERC721. Emitted every some Eth is transferred"
      },
      "WinningsClaimingOpen()": {
        "details": "The RegistrationOpen event is fired whenever a new event starts and users can begin restering."
      }
    },
    "kind": "dev",
    "methods": {
      "pause()": {
        "details": "Called by any \"C-level\" role to pause the contract. Used only when  a bug or exploit is detected and we need to limit damage."
      },
      "setCEO(address)": {
        "details": "Assigns a new address to act as the CEO. Only available to the current CEO.",
        "params": {
          "_newCEO": "The address of the new CEO"
        }
      },
      "setCFO(address)": {
        "details": "Assigns a new address to act as the CFO. Only available to the current CEO.",
        "params": {
          "_newCFO": "The address of the new CFO"
        }
      },
      "setCOO(address)": {
        "details": "Assigns a new address to act as the COO. Only available to the current CEO.",
        "params": {
          "_newCOO": "The address of the new COO"
        }
      },
      "unpause()": {
        "details": "Unpauses the smart contract. Can only be called by the CEO, since  one reason we may pause the contract is when CFO or COO accounts are  compromised."
      }
    },
    "version": 1
  },
  "userdoc": {
    "kind": "user",
    "methods": {
      "unpause()": {
        "notice": "This is public rather than external so it can be called by  derived contracts."
      }
    },
    "version": 1
  }
}