{
  "contractName": "EthDropCore_002",
  "abi": [
    {
      "inputs": [],
      "stateMutability": "nonpayable",
      "type": "constructor"
    },
    {
      "anonymous": false,
      "inputs": [
        {
          "indexed": false,
          "internalType": "uint256",
          "name": "groupId",
          "type": "uint256"
        },
        {
          "indexed": false,
          "internalType": "address",
          "name": "account",
          "type": "address"
        },
        {
          "indexed": false,
          "internalType": "uint256",
          "name": "index",
          "type": "uint256"
        }
      ],
      "name": "AdminAdded",
      "type": "event"
    },
    {
      "anonymous": false,
      "inputs": [
        {
          "indexed": false,
          "internalType": "uint256",
          "name": "groupId",
          "type": "uint256"
        },
        {
          "indexed": false,
          "internalType": "string",
          "name": "name",
          "type": "string"
        }
      ],
      "name": "AdminReEnabled",
      "type": "event"
    },
    {
      "anonymous": false,
      "inputs": [
        {
          "indexed": false,
          "internalType": "uint256",
          "name": "groupId",
          "type": "uint256"
        },
        {
          "indexed": false,
          "internalType": "string",
          "name": "name",
          "type": "string"
        }
      ],
      "name": "AdminRemoved",
      "type": "event"
    },
    {
      "anonymous": false,
      "inputs": [
        {
          "indexed": false,
          "internalType": "bool",
          "name": "isPaused",
          "type": "bool"
        }
      ],
      "name": "AppPaused",
      "type": "event"
    },
    {
      "anonymous": false,
      "inputs": [
        {
          "indexed": false,
          "internalType": "uint256",
          "name": "registeredRecipientCount",
          "type": "uint256"
        },
        {
          "indexed": false,
          "internalType": "uint256",
          "name": "winningsPerRecipient",
          "type": "uint256"
        }
      ],
      "name": "CalculatedPot",
      "type": "event"
    },
    {
      "anonymous": false,
      "inputs": [],
      "name": "CfoUpdated",
      "type": "event"
    },
    {
      "anonymous": false,
      "inputs": [
        {
          "indexed": false,
          "internalType": "address",
          "name": "newContract",
          "type": "address"
        }
      ],
      "name": "ContractUpgrade",
      "type": "event"
    },
    {
      "anonymous": false,
      "inputs": [
        {
          "indexed": true,
          "internalType": "address",
          "name": "account",
          "type": "address"
        },
        {
          "indexed": false,
          "internalType": "uint256",
          "name": "groupId",
          "type": "uint256"
        },
        {
          "indexed": false,
          "internalType": "uint256",
          "name": "amount",
          "type": "uint256"
        }
      ],
      "name": "ContributionMade",
      "type": "event"
    },
    {
      "anonymous": false,
      "inputs": [
        {
          "indexed": true,
          "internalType": "address",
          "name": "account",
          "type": "address"
        },
        {
          "indexed": false,
          "internalType": "uint256",
          "name": "groupId",
          "type": "uint256"
        }
      ],
      "name": "ContributorAdded",
      "type": "event"
    },
    {
      "anonymous": false,
      "inputs": [
        {
          "indexed": false,
          "internalType": "uint256",
          "name": "groupId",
          "type": "uint256"
        },
        {
          "indexed": false,
          "internalType": "address",
          "name": "newContributor",
          "type": "address"
        }
      ],
      "name": "ContributorAddressUpdated",
      "type": "event"
    },
    {
      "anonymous": false,
      "inputs": [
        {
          "indexed": false,
          "internalType": "uint256",
          "name": "groupId",
          "type": "uint256"
        },
        {
          "indexed": false,
          "internalType": "string",
          "name": "sponsorName",
          "type": "string"
        },
        {
          "indexed": false,
          "internalType": "string",
          "name": "imgUrl",
          "type": "string"
        },
        {
          "indexed": false,
          "internalType": "string",
          "name": "imgLinkToUrl",
          "type": "string"
        }
      ],
      "name": "ContributorInfoUpdated",
      "type": "event"
    },
    {
      "anonymous": false,
      "inputs": [
        {
          "indexed": true,
          "internalType": "address",
          "name": "account",
          "type": "address"
        },
        {
          "indexed": false,
          "internalType": "uint256",
          "name": "groupId",
          "type": "uint256"
        }
      ],
      "name": "ContributorRemoved",
      "type": "event"
    },
    {
      "anonymous": false,
      "inputs": [],
      "name": "CooUpdated",
      "type": "event"
    },
    {
      "anonymous": false,
      "inputs": [
        {
          "indexed": true,
          "internalType": "address",
          "name": "account",
          "type": "address"
        },
        {
          "indexed": false,
          "internalType": "uint256",
          "name": "groupId",
          "type": "uint256"
        }
      ],
      "name": "EligibleRecipientAdded",
      "type": "event"
    },
    {
      "anonymous": false,
      "inputs": [
        {
          "indexed": true,
          "internalType": "address",
          "name": "account",
          "type": "address"
        },
        {
          "indexed": false,
          "internalType": "uint256",
          "name": "groupId",
          "type": "uint256"
        }
      ],
      "name": "EligibleRecipientRemoved",
      "type": "event"
    },
    {
      "anonymous": false,
      "inputs": [],
      "name": "EventClose",
      "type": "event"
    },
    {
      "anonymous": false,
      "inputs": [
        {
          "indexed": true,
          "internalType": "address",
          "name": "endedBy",
          "type": "address"
        },
        {
          "indexed": false,
          "internalType": "uint256",
          "name": "groupId",
          "type": "uint256"
        }
      ],
      "name": "EventEnded",
      "type": "event"
    },
    {
      "anonymous": false,
      "inputs": [
        {
          "indexed": true,
          "internalType": "address",
          "name": "startedBy",
          "type": "address"
        },
        {
          "indexed": false,
          "internalType": "uint256",
          "name": "groupId",
          "type": "uint256"
        }
      ],
      "name": "EventStarted",
      "type": "event"
    },
    {
      "anonymous": false,
      "inputs": [
        {
          "indexed": false,
          "internalType": "string",
          "name": "groupName",
          "type": "string"
        },
        {
          "indexed": false,
          "internalType": "uint256",
          "name": "groupId",
          "type": "uint256"
        }
      ],
      "name": "GroupCreated",
      "type": "event"
    },
    {
      "anonymous": false,
      "inputs": [
        {
          "indexed": true,
          "internalType": "address",
          "name": "account",
          "type": "address"
        },
        {
          "indexed": false,
          "internalType": "uint256",
          "name": "groupId",
          "type": "uint256"
        }
      ],
      "name": "RecipientRegistered",
      "type": "event"
    },
    {
      "anonymous": false,
      "inputs": [
        {
          "indexed": true,
          "internalType": "address",
          "name": "endedBy",
          "type": "address"
        },
        {
          "indexed": false,
          "internalType": "uint256",
          "name": "groupId",
          "type": "uint256"
        }
      ],
      "name": "RegistrationEnded",
      "type": "event"
    },
    {
      "anonymous": false,
      "inputs": [],
      "name": "RegistrationOpen",
      "type": "event"
    },
    {
      "anonymous": false,
      "inputs": [
        {
          "indexed": false,
          "internalType": "address",
          "name": "from",
          "type": "address"
        },
        {
          "indexed": false,
          "internalType": "address",
          "name": "to",
          "type": "address"
        }
      ],
      "name": "Transfer",
      "type": "event"
    },
    {
      "anonymous": false,
      "inputs": [
        {
          "indexed": true,
          "internalType": "address",
          "name": "account",
          "type": "address"
        },
        {
          "indexed": false,
          "internalType": "uint256",
          "name": "groupId",
          "type": "uint256"
        }
      ],
      "name": "WinningsClaimed",
      "type": "event"
    },
    {
      "anonymous": false,
      "inputs": [],
      "name": "WinningsClaimingOpen",
      "type": "event"
    },
    {
      "inputs": [
        {
          "internalType": "uint256",
          "name": "groupId",
          "type": "uint256"
        },
        {
          "internalType": "address",
          "name": "account",
          "type": "address"
        },
        {
          "internalType": "string",
          "name": "name",
          "type": "string"
        }
      ],
      "name": "addAdmin",
      "outputs": [],
      "stateMutability": "nonpayable",
      "type": "function"
    },
    {
      "inputs": [
        {
          "internalType": "address",
          "name": "account",
          "type": "address"
        },
        {
          "internalType": "string",
          "name": "name",
          "type": "string"
        },
        {
          "internalType": "uint256",
          "name": "groupId",
          "type": "uint256"
        }
      ],
      "name": "addEligibleRecipient",
      "outputs": [],
      "stateMutability": "nonpayable",
      "type": "function"
    },
    {
      "inputs": [
        {
          "internalType": "uint256",
          "name": "groupId",
          "type": "uint256"
        }
      ],
      "name": "amIAdmin",
      "outputs": [
        {
          "internalType": "bool",
          "name": "",
          "type": "bool"
        }
      ],
      "stateMutability": "view",
      "type": "function",
      "constant": true
    },
    {
      "inputs": [
        {
          "internalType": "uint256",
          "name": "groupId",
          "type": "uint256"
        }
      ],
      "name": "amIContributor",
      "outputs": [
        {
          "internalType": "bool",
          "name": "",
          "type": "bool"
        }
      ],
      "stateMutability": "view",
      "type": "function",
      "constant": true
    },
    {
      "inputs": [
        {
          "internalType": "uint256",
          "name": "groupId",
          "type": "uint256"
        }
      ],
      "name": "amIEligibleRecipient",
      "outputs": [
        {
          "internalType": "bool",
          "name": "",
          "type": "bool"
        }
      ],
      "stateMutability": "view",
      "type": "function",
      "constant": true
    },
    {
      "inputs": [
        {
          "internalType": "uint256",
          "name": "groupId",
          "type": "uint256"
        }
      ],
      "name": "amIRegisteredRecipient",
      "outputs": [
        {
          "internalType": "bool",
          "name": "",
          "type": "bool"
        }
      ],
      "stateMutability": "view",
      "type": "function",
      "constant": true
    },
    {
      "inputs": [],
      "name": "ceoAddress",
      "outputs": [
        {
          "internalType": "address",
          "name": "",
          "type": "address"
        }
      ],
      "stateMutability": "view",
      "type": "function",
      "constant": true
    },
    {
      "inputs": [],
      "name": "cfoAddress",
      "outputs": [
        {
          "internalType": "address",
          "name": "",
          "type": "address"
        }
      ],
      "stateMutability": "view",
      "type": "function",
      "constant": true
    },
    {
      "inputs": [
        {
          "internalType": "address",
          "name": "account",
          "type": "address"
        },
        {
          "internalType": "uint256",
          "name": "groupId",
          "type": "uint256"
        }
      ],
      "name": "changeContributor",
      "outputs": [],
      "stateMutability": "nonpayable",
      "type": "function"
    },
    {
      "inputs": [
        {
          "internalType": "uint256",
          "name": "groupId",
          "type": "uint256"
        }
      ],
      "name": "claimWinnings",
      "outputs": [],
      "stateMutability": "nonpayable",
      "type": "function"
    },
    {
      "inputs": [
        {
          "internalType": "uint256",
          "name": "groupId",
          "type": "uint256"
        }
      ],
      "name": "closeEventRegistration",
      "outputs": [],
      "stateMutability": "nonpayable",
      "type": "function"
    },
    {
      "inputs": [
        {
          "internalType": "uint256",
          "name": "groupId",
          "type": "uint256"
        }
      ],
      "name": "contributeToPot",
      "outputs": [],
      "stateMutability": "payable",
      "type": "function",
      "payable": true
    },
    {
      "inputs": [],
      "name": "cooAddress",
      "outputs": [
        {
          "internalType": "address",
          "name": "",
          "type": "address"
        }
      ],
      "stateMutability": "view",
      "type": "function",
      "constant": true
    },
    {
      "inputs": [
        {
          "internalType": "string",
          "name": "groupName",
          "type": "string"
        }
      ],
      "name": "createNewGroup",
      "outputs": [],
      "stateMutability": "nonpayable",
      "type": "function"
    },
    {
      "inputs": [
        {
          "internalType": "uint256",
          "name": "groupId",
          "type": "uint256"
        }
      ],
      "name": "doIHaveClaimableWinnings",
      "outputs": [
        {
          "internalType": "bool",
          "name": "",
          "type": "bool"
        }
      ],
      "stateMutability": "view",
      "type": "function",
      "constant": true
    },
    {
      "inputs": [
        {
          "internalType": "uint256",
          "name": "groupId",
          "type": "uint256"
        }
      ],
      "name": "endEvent",
      "outputs": [],
      "stateMutability": "nonpayable",
      "type": "function"
    },
    {
      "inputs": [
        {
          "internalType": "uint256",
          "name": "groupId",
          "type": "uint256"
        }
      ],
      "name": "getAddressNextAdminIndex",
      "outputs": [
        {
          "internalType": "uint256",
          "name": "",
          "type": "uint256"
        }
      ],
      "stateMutability": "view",
      "type": "function",
      "constant": true
    },
    {
      "inputs": [
        {
          "internalType": "uint256",
          "name": "groupId",
          "type": "uint256"
        }
      ],
      "name": "getAdminsForGroup",
      "outputs": [
        {
          "internalType": "address[]",
          "name": "",
          "type": "address[]"
        },
        {
          "internalType": "bool[]",
          "name": "",
          "type": "bool[]"
        },
        {
          "internalType": "string[]",
          "name": "",
          "type": "string[]"
        }
      ],
      "stateMutability": "view",
      "type": "function",
      "constant": true
    },
    {
      "inputs": [],
      "name": "getCFO",
      "outputs": [
        {
          "internalType": "address",
          "name": "",
          "type": "address"
        }
      ],
      "stateMutability": "view",
      "type": "function",
      "constant": true
    },
    {
      "inputs": [],
      "name": "getCOO",
      "outputs": [
        {
          "internalType": "address",
          "name": "",
          "type": "address"
        }
      ],
      "stateMutability": "view",
      "type": "function",
      "constant": true
    },
    {
      "inputs": [
        {
          "internalType": "uint256",
          "name": "groupId",
          "type": "uint256"
        }
      ],
      "name": "getContributorInfo",
      "outputs": [
        {
          "internalType": "string",
          "name": "newContributorName",
          "type": "string"
        },
        {
          "internalType": "string",
          "name": "newContributorImgUrl",
          "type": "string"
        },
        {
          "internalType": "string",
          "name": "newContributorLinkToUrl",
          "type": "string"
        }
      ],
      "stateMutability": "view",
      "type": "function",
      "constant": true
    },
    {
      "inputs": [
        {
          "internalType": "uint256",
          "name": "groupId",
          "type": "uint256"
        }
      ],
      "name": "getCurrentSponsorAddress",
      "outputs": [
        {
          "internalType": "address",
          "name": "",
          "type": "address"
        }
      ],
      "stateMutability": "view",
      "type": "function",
      "constant": true
    },
    {
      "inputs": [
        {
          "internalType": "uint256",
          "name": "groupId",
          "type": "uint256"
        }
      ],
      "name": "getEligibleRecipientAddresses",
      "outputs": [
        {
          "internalType": "address[]",
          "name": "",
          "type": "address[]"
        }
      ],
      "stateMutability": "view",
      "type": "function",
      "constant": true
    },
    {
      "inputs": [
        {
          "internalType": "uint256",
          "name": "groupId",
          "type": "uint256"
        }
      ],
      "name": "getEligibleRecipientIsEligibilityEnabled",
      "outputs": [
        {
          "internalType": "bool[]",
          "name": "",
          "type": "bool[]"
        }
      ],
      "stateMutability": "view",
      "type": "function",
      "constant": true
    },
    {
      "inputs": [
        {
          "internalType": "uint256",
          "name": "groupId",
          "type": "uint256"
        }
      ],
      "name": "getEligibleRecipientNames",
      "outputs": [
        {
          "internalType": "string[]",
          "name": "",
          "type": "string[]"
        }
      ],
      "stateMutability": "view",
      "type": "function",
      "constant": true
    },
    {
      "inputs": [
        {
          "internalType": "uint256",
          "name": "groupId",
          "type": "uint256"
        }
      ],
      "name": "getGroupEventData",
      "outputs": [
        {
          "internalType": "enum EthDropBase_002.EventState",
          "name": "",
          "type": "uint8"
        },
        {
          "internalType": "uint256",
          "name": "",
          "type": "uint256"
        },
        {
          "internalType": "uint256",
          "name": "",
          "type": "uint256"
        },
        {
          "internalType": "uint256",
          "name": "",
          "type": "uint256"
        },
        {
          "internalType": "uint256",
          "name": "",
          "type": "uint256"
        }
      ],
      "stateMutability": "view",
      "type": "function",
      "constant": true
    },
    {
      "inputs": [],
      "name": "getGroupIds",
      "outputs": [
        {
          "internalType": "uint256[]",
          "name": "",
          "type": "uint256[]"
        }
      ],
      "stateMutability": "view",
      "type": "function",
      "constant": true
    },
    {
      "inputs": [],
      "name": "getGroupNames",
      "outputs": [
        {
          "internalType": "string[]",
          "name": "",
          "type": "string[]"
        }
      ],
      "stateMutability": "view",
      "type": "function",
      "constant": true
    },
    {
      "inputs": [
        {
          "internalType": "uint256",
          "name": "groupId",
          "type": "uint256"
        }
      ],
      "name": "getMyAdminIndex",
      "outputs": [
        {
          "internalType": "uint256",
          "name": "",
          "type": "uint256"
        }
      ],
      "stateMutability": "view",
      "type": "function",
      "constant": true
    },
    {
      "inputs": [
        {
          "internalType": "uint256",
          "name": "groupId",
          "type": "uint256"
        }
      ],
      "name": "getRegisteredRecipientNames",
      "outputs": [
        {
          "internalType": "string[]",
          "name": "",
          "type": "string[]"
        }
      ],
      "stateMutability": "view",
      "type": "function",
      "constant": true
    },
    {
      "inputs": [
        {
          "internalType": "uint256",
          "name": "groupId",
          "type": "uint256"
        }
      ],
      "name": "getRegisteredRecipients",
      "outputs": [
        {
          "internalType": "address[]",
          "name": "",
          "type": "address[]"
        }
      ],
      "stateMutability": "view",
      "type": "function",
      "constant": true
    },
    {
      "inputs": [],
      "name": "getString",
      "outputs": [
        {
          "internalType": "string",
          "name": "",
          "type": "string"
        }
      ],
      "stateMutability": "view",
      "type": "function",
      "constant": true
    },
    {
      "inputs": [
        {
          "internalType": "address",
          "name": "account",
          "type": "address"
        },
        {
          "internalType": "uint256",
          "name": "groupId",
          "type": "uint256"
        }
      ],
      "name": "isAdmin",
      "outputs": [
        {
          "internalType": "bool",
          "name": "",
          "type": "bool"
        }
      ],
      "stateMutability": "view",
      "type": "function",
      "constant": true
    },
    {
      "inputs": [],
      "name": "isCEO",
      "outputs": [
        {
          "internalType": "bool",
          "name": "",
          "type": "bool"
        }
      ],
      "stateMutability": "view",
      "type": "function",
      "constant": true
    },
    {
      "inputs": [],
      "name": "isCFO",
      "outputs": [
        {
          "internalType": "bool",
          "name": "",
          "type": "bool"
        }
      ],
      "stateMutability": "view",
      "type": "function",
      "constant": true
    },
    {
      "inputs": [],
      "name": "isCOO",
      "outputs": [
        {
          "internalType": "bool",
          "name": "",
          "type": "bool"
        }
      ],
      "stateMutability": "view",
      "type": "function",
      "constant": true
    },
    {
      "inputs": [
        {
          "internalType": "address",
          "name": "account",
          "type": "address"
        },
        {
          "internalType": "uint256",
          "name": "groupId",
          "type": "uint256"
        }
      ],
      "name": "isContributor",
      "outputs": [
        {
          "internalType": "bool",
          "name": "",
          "type": "bool"
        }
      ],
      "stateMutability": "view",
      "type": "function",
      "constant": true
    },
    {
      "inputs": [
        {
          "internalType": "address",
          "name": "account",
          "type": "address"
        },
        {
          "internalType": "uint256",
          "name": "groupId",
          "type": "uint256"
        }
      ],
      "name": "isEligibleRecipient",
      "outputs": [
        {
          "internalType": "bool",
          "name": "",
          "type": "bool"
        }
      ],
      "stateMutability": "view",
      "type": "function",
      "constant": true
    },
    {
      "inputs": [],
      "name": "isPaused",
      "outputs": [
        {
          "internalType": "bool",
          "name": "",
          "type": "bool"
        }
      ],
      "stateMutability": "view",
      "type": "function",
      "constant": true
    },
    {
      "inputs": [
        {
          "internalType": "address",
          "name": "account",
          "type": "address"
        },
        {
          "internalType": "uint256",
          "name": "groupId",
          "type": "uint256"
        }
      ],
      "name": "isRegisteredRecipient",
      "outputs": [
        {
          "internalType": "bool",
          "name": "",
          "type": "bool"
        }
      ],
      "stateMutability": "view",
      "type": "function",
      "constant": true
    },
    {
      "inputs": [],
      "name": "newContractAddress",
      "outputs": [
        {
          "internalType": "address",
          "name": "",
          "type": "address"
        }
      ],
      "stateMutability": "view",
      "type": "function",
      "constant": true
    },
    {
      "inputs": [],
      "name": "pause",
      "outputs": [],
      "stateMutability": "nonpayable",
      "type": "function"
    },
    {
      "inputs": [],
      "name": "paused",
      "outputs": [
        {
          "internalType": "bool",
          "name": "",
          "type": "bool"
        }
      ],
      "stateMutability": "view",
      "type": "function",
      "constant": true
    },
    {
      "inputs": [
        {
          "internalType": "uint256",
          "name": "groupId",
          "type": "uint256"
        },
        {
          "internalType": "address",
          "name": "account",
          "type": "address"
        }
      ],
      "name": "reEnableAdmin",
      "outputs": [],
      "stateMutability": "nonpayable",
      "type": "function"
    },
    {
      "inputs": [
        {
          "internalType": "uint256",
          "name": "groupId",
          "type": "uint256"
        }
      ],
      "name": "readEventInfo",
      "outputs": [
        {
          "components": [
            {
              "internalType": "uint256",
              "name": "groupId",
              "type": "uint256"
            },
            {
              "internalType": "string",
              "name": "groupName",
              "type": "string"
            },
            {
              "internalType": "enum EthDropBase_002.EventState",
              "name": "currentState",
              "type": "uint8"
            },
            {
              "internalType": "uint256",
              "name": "startTime",
              "type": "uint256"
            },
            {
              "internalType": "uint256",
              "name": "registrationEndTime",
              "type": "uint256"
            },
            {
              "internalType": "uint256",
              "name": "endTime",
              "type": "uint256"
            },
            {
              "internalType": "uint256",
              "name": "registeredRecipientsCount",
              "type": "uint256"
            },
            {
              "internalType": "string",
              "name": "sponsorName",
              "type": "string"
            },
            {
              "internalType": "string",
              "name": "sponsorImageUrl",
              "type": "string"
            },
            {
              "internalType": "string",
              "name": "sponsorLinkToUrl",
              "type": "string"
            },
            {
              "internalType": "address",
              "name": "currentContributor",
              "type": "address"
            },
            {
              "internalType": "uint256",
              "name": "totalAmountContributed",
              "type": "uint256"
            },
            {
              "internalType": "uint256",
              "name": "weiWinnings",
              "type": "uint256"
            },
            {
              "internalType": "uint256",
              "name": "numberOfUsersWhoClaimedWinnings",
              "type": "uint256"
            }
          ],
          "internalType": "struct EthDropBase_002.EthDropEvent",
          "name": "",
          "type": "tuple"
        }
      ],
      "stateMutability": "view",
      "type": "function",
      "constant": true
    },
    {
      "inputs": [
        {
          "internalType": "uint256",
          "name": "groupId",
          "type": "uint256"
        }
      ],
      "name": "registerForEvent",
      "outputs": [],
      "stateMutability": "nonpayable",
      "type": "function"
    },
    {
      "inputs": [
        {
          "internalType": "uint256",
          "name": "groupId",
          "type": "uint256"
        },
        {
          "internalType": "address",
          "name": "account",
          "type": "address"
        }
      ],
      "name": "removeAdmin",
      "outputs": [],
      "stateMutability": "nonpayable",
      "type": "function"
    },
    {
      "inputs": [
        {
          "internalType": "address",
          "name": "account",
          "type": "address"
        },
        {
          "internalType": "uint256",
          "name": "groupId",
          "type": "uint256"
        }
      ],
      "name": "removeEligibleRecipient",
      "outputs": [],
      "stateMutability": "nonpayable",
      "type": "function"
    },
    {
      "inputs": [
        {
          "internalType": "uint256",
          "name": "groupId",
          "type": "uint256"
        }
      ],
      "name": "renounceAdmin",
      "outputs": [],
      "stateMutability": "nonpayable",
      "type": "function"
    },
    {
      "inputs": [
        {
          "internalType": "address",
          "name": "_newCEO",
          "type": "address"
        }
      ],
      "name": "setCEO",
      "outputs": [],
      "stateMutability": "nonpayable",
      "type": "function"
    },
    {
      "inputs": [
        {
          "internalType": "address",
          "name": "_newCFO",
          "type": "address"
        }
      ],
      "name": "setCFO",
      "outputs": [],
      "stateMutability": "nonpayable",
      "type": "function"
    },
    {
      "inputs": [
        {
          "internalType": "address",
          "name": "_newCOO",
          "type": "address"
        }
      ],
      "name": "setCOO",
      "outputs": [],
      "stateMutability": "nonpayable",
      "type": "function"
    },
    {
      "inputs": [
        {
          "internalType": "string",
          "name": "_s",
          "type": "string"
        }
      ],
      "name": "setString",
      "outputs": [],
      "stateMutability": "nonpayable",
      "type": "function"
    },
    {
      "inputs": [
        {
          "internalType": "uint256",
          "name": "groupId",
          "type": "uint256"
        }
      ],
      "name": "startEvent",
      "outputs": [],
      "stateMutability": "nonpayable",
      "type": "function"
    },
    {
      "inputs": [],
      "name": "stringgg",
      "outputs": [
        {
          "internalType": "string",
          "name": "",
          "type": "string"
        }
      ],
      "stateMutability": "view",
      "type": "function",
      "constant": true
    },
    {
      "inputs": [],
      "name": "unpause",
      "outputs": [
        {
          "internalType": "bool",
          "name": "",
          "type": "bool"
        }
      ],
      "stateMutability": "nonpayable",
      "type": "function"
    },
    {
      "inputs": [
        {
          "internalType": "uint256",
          "name": "groupId",
          "type": "uint256"
        },
        {
          "internalType": "string",
          "name": "newContributorName",
          "type": "string"
        },
        {
          "internalType": "string",
          "name": "newContributorImgUrl",
          "type": "string"
        },
        {
          "internalType": "string",
          "name": "newContributorLinkToUrl",
          "type": "string"
        }
      ],
      "name": "updateContributorInfo",
      "outputs": [],
      "stateMutability": "nonpayable",
      "type": "function"
    },
    {
      "inputs": [],
      "name": "whoami",
      "outputs": [
        {
          "internalType": "address",
          "name": "",
          "type": "address"
        }
      ],
      "stateMutability": "view",
      "type": "function",
      "constant": true
    },
    {
      "inputs": [
        {
          "internalType": "address",
          "name": "_v2Address",
          "type": "address"
        }
      ],
      "name": "setNewAddress",
      "outputs": [],
      "stateMutability": "nonpayable",
      "type": "function"
    },
    {
      "inputs": [],
      "name": "foobar",
      "outputs": [
        {
          "internalType": "string",
          "name": "",
          "type": "string"
        }
      ],
      "stateMutability": "pure",
      "type": "function",
      "constant": true
    }
  ],
  "bytecode": "0x608060405233600160006101000a81548173ffffffffffffffffffffffffffffffffffffffff021916908373ffffffffffffffffffffffffffffffffffffffff1602179055506000600360146101000a81548160ff0219169083151502179055506005805534801561007057600080fd5b506000600360146101000a81548160ff02191690831515021790555033600160006101000a81548173ffffffffffffffffffffffffffffffffffffffff021916908373ffffffffffffffffffffffffffffffffffffffff160217905550615f4d80620000dd6000396000f3fe6080604052600436106103975760003560e01c80637eb0bdc9116101dc578063c271e80c11610102578063e9992d99116100a0578063ee41b5921161006f578063ee41b59214610e19578063f4a02e7014610e56578063f89e9cb914610e81578063fc5fd6e414610ebe57610397565b8063e9992d9914610d61578063e9af9bca14610d8a578063ea303f0814610dc7578063edf6261d14610df057610397565b8063e33db426116100dc578063e33db42614610ca0578063e513b7a914610cdd578063e62092be14610d08578063e82f24e014610d4557610397565b8063c271e80c14610c21578063c6db509414610c4a578063d5f016c314610c7557610397565b8063967cafbc1161017a578063b047fb5011610149578063b047fb5014610b75578063b187bd2614610ba0578063b3b36bb314610bcb578063c02b8b2c14610bf657610397565b8063967cafbc14610abd5780639bda879614610ae6578063a59a695314610b23578063aea88a0514610b4c57610397565b80638456cb59116101b65780638456cb5914610a1357806389ea642f14610a2a5780639393ae3714610a55578063962ecff514610a8057610397565b80637eb0bdc9146109845780637fcaf666146109ad5780638182aaf2146109d657610397565b8063454432e2116102c1578063674811ca1161025f578063715879881161022e57806371587988146108ca578063785142be146108f35780637b936ac21461091c5780637d837ce51461094757610397565b8063674811ca146107f8578063677bd9ff146108375780636af04a57146108605780636ebdec491461088b57610397565b806355b57ec11161029b57806355b57ec11461071657806356c9a339146107535780635c975abb146107905780635e82c1fc146107bb57610397565b8063454432e21461066f5780634635509b146106ac5780634e0a3379146106ed57610397565b806327d7874c1161033957806338f0b6561161030857806338f0b656146105a15780633f4ba83a146105de578063406db8431461060957806344b2983b1461063257610397565b806327d7874c146104fd5780632ba73c151461052657806330bb01151461054f578063330a347b1461057857610397565b806307bfa3301161037557806307bfa3301461042f5780630a0f81681461046c5780630d82ffa01461049757806315891ff4146104d457610397565b80630519ce791461039c57806305df75db146103c757806306cc4922146103f2575b600080fd5b3480156103a857600080fd5b506103b1610ee9565b6040516103be91906155de565b60405180910390f35b3480156103d357600080fd5b506103dc610f0f565b6040516103e9919061573b565b60405180910390f35b3480156103fe57600080fd5b5061041960048036038101906104149190614f7d565b610f4c565b60405161042691906156cd565b60405180910390f35b34801561043b57600080fd5b5061045660048036038101906104519190614f7d565b610f79565b6040516104639190615689565b60405180910390f35b34801561047857600080fd5b50610481611065565b60405161048e91906155de565b60405180910390f35b3480156104a357600080fd5b506104be60048036038101906104b99190614f7d565b61108b565b6040516104cb91906155de565b60405180910390f35b3480156104e057600080fd5b506104fb60048036038101906104f69190614ef4565b6110cb565b005b34801561050957600080fd5b50610524600480360381019061051f9190614e58565b6111b5565b005b34801561053257600080fd5b5061054d60048036038101906105489190614e58565b61128d565b005b34801561055b57600080fd5b5061057660048036038101906105719190614f7d565b611391565b005b34801561058457600080fd5b5061059f600480360381019061059a9190614f7d565b6113b3565b005b3480156105ad57600080fd5b506105c860048036038101906105c39190614f7d565b61199d565b6040516105d591906156cd565b60405180910390f35b3480156105ea57600080fd5b506105f36119ca565b60405161060091906156cd565b60405180910390f35b34801561061557600080fd5b50610630600480360381019061062b9190614f7d565b611a6f565b005b34801561063e57600080fd5b5061065960048036038101906106549190614f7d565b611d23565b60405161066691906155f9565b60405180910390f35b34801561067b57600080fd5b5061069660048036038101906106919190614f7d565b611dc4565b6040516106a39190615689565b60405180910390f35b3480156106b857600080fd5b506106d360048036038101906106ce9190614f7d565b611eb0565b6040516106e49594939291906156e8565b60405180910390f35b3480156106f957600080fd5b50610714600480360381019061070f9190614e58565b612233565b005b34801561072257600080fd5b5061073d60048036038101906107389190614f7d565b612337565b60405161074a9190615667565b60405180910390f35b34801561075f57600080fd5b5061077a60048036038101906107759190614f7d565b6123c7565b604051610787919061581b565b60405180910390f35b34801561079c57600080fd5b506107a56123e4565b6040516107b291906156cd565b60405180910390f35b3480156107c757600080fd5b506107e260048036038101906107dd9190614ef4565b6123f7565b6040516107ef91906156cd565b60405180910390f35b34801561080457600080fd5b5061081f600480360381019061081a9190614f7d565b612480565b60405161082e9392919061575d565b60405180910390f35b34801561084357600080fd5b5061085e60048036038101906108599190614f7d565b612678565b005b34801561086c57600080fd5b5061087561285d565b60405161088291906155de565b60405180910390f35b34801561089757600080fd5b506108b260048036038101906108ad9190614f7d565b612883565b6040516108c19392919061561b565b60405180910390f35b3480156108d657600080fd5b506108f160048036038101906108ec9190614e58565b612aa0565b005b3480156108ff57600080fd5b5061091a60048036038101906109159190614f7d565b612b8e565b005b34801561092857600080fd5b50610931612dc3565b60405161093e91906155de565b60405180910390f35b34801561095357600080fd5b5061096e60048036038101906109699190614ef4565b612ded565b60405161097b91906156cd565b60405180910390f35b34801561099057600080fd5b506109ab60048036038101906109a69190614faa565b612e76565b005b3480156109b957600080fd5b506109d460048036038101906109cf9190614f34565b612ede565b005b3480156109e257600080fd5b506109fd60048036038101906109f89190614ef4565b612ef8565b604051610a0a91906156cd565b60405180910390f35b348015610a1f57600080fd5b50610a28612f81565b005b348015610a3657600080fd5b50610a3f6130c2565b604051610a4c919061573b565b60405180910390f35b348015610a6157600080fd5b50610a6a613154565b604051610a7791906156cd565b60405180910390f35b348015610a8c57600080fd5b50610aa76004803603810190610aa29190614f7d565b6131ac565b604051610ab491906156cd565b60405180910390f35b348015610ac957600080fd5b50610ae46004803603810190610adf9190614e85565b6131bf565b005b348015610af257600080fd5b50610b0d6004803603810190610b089190614f7d565b613426565b604051610b1a91906155f9565b60405180910390f35b348015610b2f57600080fd5b50610b4a6004803603810190610b459190614f7d565b6134c7565b005b348015610b5857600080fd5b50610b736004803603810190610b6e9190615059565b6135a1565b005b348015610b8157600080fd5b50610b8a6136da565b604051610b9791906155de565b60405180910390f35b348015610bac57600080fd5b50610bb5613700565b604051610bc291906156cd565b60405180910390f35b348015610bd757600080fd5b50610be0613717565b604051610bed91906155de565b60405180910390f35b348015610c0257600080fd5b50610c0b61371f565b604051610c1891906156ab565b60405180910390f35b348015610c2d57600080fd5b50610c486004803603810190610c439190614ef4565b613777565b005b348015610c5657600080fd5b50610c5f61380c565b604051610c6c919061573b565b60405180910390f35b348015610c8157600080fd5b50610c8a61389a565b604051610c979190615689565b60405180910390f35b348015610cac57600080fd5b50610cc76004803603810190610cc29190614f7d565b613973565b604051610cd491906157f9565b60405180910390f35b348015610ce957600080fd5b50610cf2613cdf565b604051610cff91906156cd565b60405180910390f35b348015610d1457600080fd5b50610d2f6004803603810190610d2a9190614ef4565b613d37565b604051610d3c91906156cd565b60405180910390f35b610d5f6004803603810190610d5a9190614f7d565b613df6565b005b348015610d6d57600080fd5b50610d886004803603810190610d839190614faa565b613ebb565b005b348015610d9657600080fd5b50610db16004803603810190610dac9190614f7d565b614026565b604051610dbe919061581b565b60405180910390f35b348015610dd357600080fd5b50610dee6004803603810190610de99190614f34565b614080565b005b348015610dfc57600080fd5b50610e176004803603810190610e129190614fea565b6143b1565b005b348015610e2557600080fd5b50610e406004803603810190610e3b9190614f7d565b61447c565b604051610e4d91906156cd565b60405180910390f35b348015610e6257600080fd5b50610e6b6144a9565b604051610e7891906156cd565b60405180910390f35b348015610e8d57600080fd5b50610ea86004803603810190610ea39190614f7d565b614501565b604051610eb591906156cd565b60405180910390f35b348015610eca57600080fd5b50610ed3614588565b604051610ee091906155de565b60405180910390f35b600260009054906101000a900473ffffffffffffffffffffffffffffffffffffffff1681565b60606040518060400160405280600d81526020017f666f6f6261727272727272722100000000000000000000000000000000000000815250905090565b6000600360149054906101000a900460ff1615610f6857600080fd5b610f7233836123f7565b9050919050565b606060166000838152602001908152602001600020805480602002602001604051908101604052809291908181526020016000905b8282101561105a578382906000526020600020018054610fcd90615c9b565b80601f0160208091040260200160405190810160405280929190818152602001828054610ff990615c9b565b80156110465780601f1061101b57610100808354040283529160200191611046565b820191906000526020600020905b81548152906001019060200180831161102957829003601f168201915b505050505081526020019060010190610fae565b505050509050919050565b600160009054906101000a900473ffffffffffffffffffffffffffffffffffffffff1681565b600060086000838152602001908152602001600020600a0160009054906101000a900473ffffffffffffffffffffffffffffffffffffffff169050919050565b806110d63382613d37565b6110df57600080fd5b600360149054906101000a900460ff16156110f957600080fd5b60006011600084815260200190815260200160002060008573ffffffffffffffffffffffffffffffffffffffff1673ffffffffffffffffffffffffffffffffffffffff16815260200190815260200160002060006101000a81548160ff0219169083151502179055508273ffffffffffffffffffffffffffffffffffffffff167f1af6d16168d33745872119540d28858eed156c5f265206bbf1344fda39a93a33836040516111a8919061581b565b60405180910390a2505050565b600160009054906101000a900473ffffffffffffffffffffffffffffffffffffffff1673ffffffffffffffffffffffffffffffffffffffff163373ffffffffffffffffffffffffffffffffffffffff161461120f57600080fd5b600073ffffffffffffffffffffffffffffffffffffffff168173ffffffffffffffffffffffffffffffffffffffff16141561124957600080fd5b80600160006101000a81548173ffffffffffffffffffffffffffffffffffffffff021916908373ffffffffffffffffffffffffffffffffffffffff16021790555050565b600160009054906101000a900473ffffffffffffffffffffffffffffffffffffffff1673ffffffffffffffffffffffffffffffffffffffff163373ffffffffffffffffffffffffffffffffffffffff16146112e757600080fd5b600073ffffffffffffffffffffffffffffffffffffffff168173ffffffffffffffffffffffffffffffffffffffff16141561132157600080fd5b80600360006101000a81548173ffffffffffffffffffffffffffffffffffffffff021916908373ffffffffffffffffffffffffffffffffffffffff1602179055507fa308298a77084def994b565be25bff2e8fbfe7006c2c6b2bacfb84d1ba1f635060405160405180910390a150565b8061139c3382613d37565b6113a557600080fd5b6113af82336145b2565b5050565b806113be3382613d37565b806114165750600360009054906101000a900473ffffffffffffffffffffffffffffffffffffffff1673ffffffffffffffffffffffffffffffffffffffff163373ffffffffffffffffffffffffffffffffffffffff16145b61141f57600080fd5b600360149054906101000a900460ff161561143957600080fd5b42600860008481526020019081526020016000206005018190555060036008600084815260200190815260200160002060020160006101000a81548160ff0219169083600381111561148e5761148d615da5565b5b021790555060005b60086000848152602001908152602001600020600601548110156116385760006018600085815260200190815260200160002082815481106114db576114da615e03565b5b9060005260206000200160009054906101000a900473ffffffffffffffffffffffffffffffffffffffff1690506017600085815260200190815260200160002060008273ffffffffffffffffffffffffffffffffffffffff1673ffffffffffffffffffffffffffffffffffffffff16815260200190815260200160002060006101000a81549060ff02191690556015600085815260200190815260200160002060008273ffffffffffffffffffffffffffffffffffffffff1673ffffffffffffffffffffffffffffffffffffffff16815260200190815260200160002060006115c49190614b51565b600c600085815260200190815260200160002060008273ffffffffffffffffffffffffffffffffffffffff1673ffffffffffffffffffffffffffffffffffffffff16815260200190815260200160002060006101000a81549060ff021916905550808061163090615cfe565b915050611496565b506016600083815260200190815260200160002060006116589190614b91565b6018600083815260200190815260200160002060006116779190614bb2565b600960008381526020019081526020016000206008600084815260200190815260200160002090806001815401808255809150506001900390600052602060002090600e02016000909190919091506000820154816000015560018201816001019080546116e490615c9b565b6116ef929190614bd3565b506002820160009054906101000a900460ff168160020160006101000a81548160ff0219169083600381111561172857611727615da5565b5b021790555060038201548160030155600482015481600401556005820154816005015560068201548160060155600782018160070190805461176990615c9b565b611774929190614bd3565b50600882018160080190805461178990615c9b565b611794929190614bd3565b5060098201816009019080546117a990615c9b565b6117b4929190614bd3565b50600a820160009054906101000a900473ffffffffffffffffffffffffffffffffffffffff1681600a0160006101000a81548173ffffffffffffffffffffffffffffffffffffffff021916908373ffffffffffffffffffffffffffffffffffffffff160217905550600b82015481600b0155600c82015481600c0155600d82015481600d0155505060006008600084815260200190815260200160002060060181905550600060086000848152602001908152602001600020600b0181905550600060086000848152602001908152602001600020600c0181905550600060086000848152602001908152602001600020600d01819055503373ffffffffffffffffffffffffffffffffffffffff167f5dc1fe5ab986a852c4eda8e8bb94247d13307065c593fb83f1a09be2736793828360006040516118f592919061586d565b60405180910390a23373ffffffffffffffffffffffffffffffffffffffff167f0695e999be8100bdb5bee8612337296508d527eae78c65b8f170eacb5a3b439d83604051611943919061581b565b60405180910390a23373ffffffffffffffffffffffffffffffffffffffff167f6f45a19e8850c727d0de9f32e0d8691324a9a74ffb4347652e6404138b1d816583604051611991919061581b565b60405180910390a25050565b6000600360149054906101000a900460ff16156119b957600080fd5b6119c33383612ded565b9050919050565b6000600160009054906101000a900473ffffffffffffffffffffffffffffffffffffffff1673ffffffffffffffffffffffffffffffffffffffff163373ffffffffffffffffffffffffffffffffffffffff1614611a2657600080fd5b600360149054906101000a900460ff16611a3f57600080fd5b6000600360146101000a81548160ff021916908315150217905550600360149054906101000a900460ff16905090565b80611a7a33826123f7565b611a8357600080fd5b600360149054906101000a900460ff1615611a9d57600080fd5b60016017600084815260200190815260200160002060003373ffffffffffffffffffffffffffffffffffffffff1673ffffffffffffffffffffffffffffffffffffffff16815260200190815260200160002060006101000a81548160ff02191690831515021790555060186000838152602001908152602001600020339080600181540180825580915050600190039060005260206000200160009091909190916101000a81548173ffffffffffffffffffffffffffffffffffffffff021916908373ffffffffffffffffffffffffffffffffffffffff16021790555060006015600084815260200190815260200160002060003373ffffffffffffffffffffffffffffffffffffffff1673ffffffffffffffffffffffffffffffffffffffff1681526020019081526020016000208054611bd790615c9b565b80601f0160208091040260200160405190810160405280929190818152602001828054611c0390615c9b565b8015611c505780601f10611c2557610100808354040283529160200191611c50565b820191906000526020600020905b815481529060010190602001808311611c3357829003601f168201915b505050505090506016600084815260200190815260200160002081908060018154018082558091505060019003906000526020600020016000909190919091509080519060200190611ca3929190614c60565b50600860008481526020019081526020016000206006016000815480929190611ccb90615cfe565b91905055503373ffffffffffffffffffffffffffffffffffffffff167f0695e999be8100bdb5bee8612337296508d527eae78c65b8f170eacb5a3b439d84604051611d16919061581b565b60405180910390a2505050565b606060186000838152602001908152602001600020805480602002602001604051908101604052809291908181526020018280548015611db857602002820191906000526020600020905b8160009054906101000a900473ffffffffffffffffffffffffffffffffffffffff1673ffffffffffffffffffffffffffffffffffffffff1681526020019060010190808311611d6e575b50505050509050919050565b606060136000838152602001908152602001600020805480602002602001604051908101604052809291908181526020016000905b82821015611ea5578382906000526020600020018054611e1890615c9b565b80601f0160208091040260200160405190810160405280929190818152602001828054611e4490615c9b565b8015611e915780601f10611e6657610100808354040283529160200191611e91565b820191906000526020600020905b815481529060010190602001808311611e7457829003601f168201915b505050505081526020019060010190611df9565b505050509050919050565b60008060008060008060086000888152602001908152602001600020604051806101c001604052908160008201548152602001600182018054611ef290615c9b565b80601f0160208091040260200160405190810160405280929190818152602001828054611f1e90615c9b565b8015611f6b5780601f10611f4057610100808354040283529160200191611f6b565b820191906000526020600020905b815481529060010190602001808311611f4e57829003601f168201915b505050505081526020016002820160009054906101000a900460ff166003811115611f9957611f98615da5565b5b6003811115611fab57611faa615da5565b5b815260200160038201548152602001600482015481526020016005820154815260200160068201548152602001600782018054611fe790615c9b565b80601f016020809104026020016040519081016040528092919081815260200182805461201390615c9b565b80156120605780601f1061203557610100808354040283529160200191612060565b820191906000526020600020905b81548152906001019060200180831161204357829003601f168201915b5050505050815260200160088201805461207990615c9b565b80601f01602080910402602001604051908101604052809291908181526020018280546120a590615c9b565b80156120f25780601f106120c7576101008083540402835291602001916120f2565b820191906000526020600020905b8154815290600101906020018083116120d557829003601f168201915b5050505050815260200160098201805461210b90615c9b565b80601f016020809104026020016040519081016040528092919081815260200182805461213790615c9b565b80156121845780601f1061215957610100808354040283529160200191612184565b820191906000526020600020905b81548152906001019060200180831161216757829003601f168201915b50505050508152602001600a820160009054906101000a900473ffffffffffffffffffffffffffffffffffffffff1673ffffffffffffffffffffffffffffffffffffffff1673ffffffffffffffffffffffffffffffffffffffff168152602001600b8201548152602001600c8201548152602001600d82015481525050905080604001518160c00151826101600151836101800151846101a00151955095509550955095505091939590929450565b600160009054906101000a900473ffffffffffffffffffffffffffffffffffffffff1673ffffffffffffffffffffffffffffffffffffffff163373ffffffffffffffffffffffffffffffffffffffff161461228d57600080fd5b600073ffffffffffffffffffffffffffffffffffffffff168173ffffffffffffffffffffffffffffffffffffffff1614156122c757600080fd5b80600260006101000a81548173ffffffffffffffffffffffffffffffffffffffff021916908373ffffffffffffffffffffffffffffffffffffffff1602179055507f162e32528b5907ecf876b3b7a4e5e0edf878642e3ec25852e3c35af1a4e1c04060405160405180910390a150565b6060601460008381526020019081526020016000208054806020026020016040519081016040528092919081815260200182805480156123bb57602002820191906000526020600020906000905b82829054906101000a900460ff161515815260200190600101906020826000010492830192600103820291508084116123855790505b50505050509050919050565b6000600b6000838152602001908152602001600020549050919050565b600360149054906101000a900460ff1681565b6000600360149054906101000a900460ff161561241357600080fd5b600115156011600084815260200190815260200160002060008573ffffffffffffffffffffffffffffffffffffffff1673ffffffffffffffffffffffffffffffffffffffff16815260200190815260200160002060009054906101000a900460ff16151514905092915050565b60608060606008600085815260200190815260200160002060070160086000868152602001908152602001600020600801600860008781526020019081526020016000206009018280546124d390615c9b565b80601f01602080910402602001604051908101604052809291908181526020018280546124ff90615c9b565b801561254c5780601f106125215761010080835404028352916020019161254c565b820191906000526020600020905b81548152906001019060200180831161252f57829003601f168201915b5050505050925081805461255f90615c9b565b80601f016020809104026020016040519081016040528092919081815260200182805461258b90615c9b565b80156125d85780601f106125ad576101008083540402835291602001916125d8565b820191906000526020600020905b8154815290600101906020018083116125bb57829003601f168201915b505050505091508080546125eb90615c9b565b80601f016020809104026020016040519081016040528092919081815260200182805461261790615c9b565b80156126645780601f1061263957610100808354040283529160200191612664565b820191906000526020600020905b81548152906001019060200180831161264757829003601f168201915b505050505090509250925092509193909250565b806126833382612ded565b61268c57600080fd5b813360011515600c600084815260200190815260200160002060003373ffffffffffffffffffffffffffffffffffffffff1673ffffffffffffffffffffffffffffffffffffffff16815260200190815260200160002060009054906101000a900460ff16151514156126fd57600080fd5b600360149054906101000a900460ff161561271757600080fd5b6001600c600086815260200190815260200160002060003373ffffffffffffffffffffffffffffffffffffffff1673ffffffffffffffffffffffffffffffffffffffff16815260200190815260200160002060006101000a81548160ff02191690831515021790555060086000858152602001908152602001600020600d0160008154809291906127a790615cfe565b91905055503373ffffffffffffffffffffffffffffffffffffffff166108fc60086000878152602001908152602001600020600c01549081150290604051600060405180830381858888f19350505050158015612808573d6000803e3d6000fd5b503373ffffffffffffffffffffffffffffffffffffffff167f1a31e733a172afcf46074b3106c17f0c298e226442682a03c1e99ce256139ec28560405161284f919061581b565b60405180910390a250505050565b601960009054906101000a900473ffffffffffffffffffffffffffffffffffffffff1681565b6060806060600d6000858152602001908152602001600020600f6000868152602001908152602001600020600e60008781526020019081526020016000208280548060200260200160405190810160405280929190818152602001828054801561294257602002820191906000526020600020905b8160009054906101000a900473ffffffffffffffffffffffffffffffffffffffff1673ffffffffffffffffffffffffffffffffffffffff16815260200190600101908083116128f8575b50505050509250818054806020026020016040519081016040528092919081815260200182805480156129b957602002820191906000526020600020906000905b82829054906101000a900460ff161515815260200190600101906020826000010492830192600103820291508084116129835790505b5050505050915080805480602002602001604051908101604052809291908181526020016000905b82821015612a8d578382906000526020600020018054612a0090615c9b565b80601f0160208091040260200160405190810160405280929190818152602001828054612a2c90615c9b565b8015612a795780601f10612a4e57610100808354040283529160200191612a79565b820191906000526020600020905b815481529060010190602001808311612a5c57829003601f168201915b5050505050815260200190600101906129e1565b5050505090509250925092509193909250565b600160009054906101000a900473ffffffffffffffffffffffffffffffffffffffff1673ffffffffffffffffffffffffffffffffffffffff163373ffffffffffffffffffffffffffffffffffffffff1614612afa57600080fd5b600360149054906101000a900460ff16612b1357600080fd5b80601960006101000a81548173ffffffffffffffffffffffffffffffffffffffff021916908373ffffffffffffffffffffffffffffffffffffffff1602179055507f450db8da6efbe9c22f2347f7c2021231df1fc58d3ae9a2fa75d39fa44619930581604051612b8391906155de565b60405180910390a150565b80612b993382613d37565b612ba257600080fd5b600360149054906101000a900460ff1615612bbc57600080fd5b600160086000848152602001908152602001600020600601541015612c16576040517f08c379a0000000000000000000000000000000000000000000000000000000008152600401612c0d906157d9565b60405180910390fd5b4260086000848152602001908152602001600020600401819055506000606460055460086000868152602001908152602001600020600b0154612c599190615b4c565b612c639190615b1b565b9050600260009054906101000a900473ffffffffffffffffffffffffffffffffffffffff1673ffffffffffffffffffffffffffffffffffffffff166108fc829081150290604051600060405180830381858888f19350505050158015612ccd573d6000803e3d6000fd5b5060008160086000868152602001908152602001600020600b0154612cf29190615ba6565b9050600860008581526020019081526020016000206006015481612d169190615b1b565b60086000868152602001908152602001600020600c018190555060026008600086815260200190815260200160002060020160006101000a81548160ff02191690836003811115612d6a57612d69615da5565b5b02179055503373ffffffffffffffffffffffffffffffffffffffff167fef898a6941c945450e9bbdad4a76fcd0f51f42f7e251fddcb1e5479ba786d5e485604051612db5919061581b565b60405180910390a250505050565b6000600260009054906101000a900473ffffffffffffffffffffffffffffffffffffffff16905090565b6000600360149054906101000a900460ff1615612e0957600080fd5b600115156017600084815260200190815260200160002060008573ffffffffffffffffffffffffffffffffffffffff1673ffffffffffffffffffffffffffffffffffffffff16815260200190815260200160002060009054906101000a900460ff16151514905092915050565b600360009054906101000a900473ffffffffffffffffffffffffffffffffffffffff1673ffffffffffffffffffffffffffffffffffffffff163373ffffffffffffffffffffffffffffffffffffffff1614612ed057600080fd5b612eda82826145b2565b5050565b8060009080519060200190612ef4929190614c60565b5050565b6000600360149054906101000a900460ff1615612f1457600080fd5b60086000838152602001908152602001600020600a0160009054906101000a900473ffffffffffffffffffffffffffffffffffffffff1673ffffffffffffffffffffffffffffffffffffffff168373ffffffffffffffffffffffffffffffffffffffff1614905092915050565b600360009054906101000a900473ffffffffffffffffffffffffffffffffffffffff1673ffffffffffffffffffffffffffffffffffffffff163373ffffffffffffffffffffffffffffffffffffffff16148061302a5750600160009054906101000a900473ffffffffffffffffffffffffffffffffffffffff1673ffffffffffffffffffffffffffffffffffffffff163373ffffffffffffffffffffffffffffffffffffffff16145b806130825750600260009054906101000a900473ffffffffffffffffffffffffffffffffffffffff1673ffffffffffffffffffffffffffffffffffffffff163373ffffffffffffffffffffffffffffffffffffffff16145b61308b57600080fd5b600360149054906101000a900460ff16156130a557600080fd5b6001600360146101000a81548160ff021916908315150217905550565b6060600080546130d190615c9b565b80601f01602080910402602001604051908101604052809291908181526020018280546130fd90615c9b565b801561314a5780601f1061311f5761010080835404028352916020019161314a565b820191906000526020600020905b81548152906001019060200180831161312d57829003601f168201915b5050505050905090565b6000600260009054906101000a900473ffffffffffffffffffffffffffffffffffffffff1673ffffffffffffffffffffffffffffffffffffffff163373ffffffffffffffffffffffffffffffffffffffff1614905090565b60006131b83383613d37565b9050919050565b600360149054906101000a900460ff16156131d957600080fd5b806131e43382613d37565b6131ed57600080fd5b60016011600084815260200190815260200160002060008673ffffffffffffffffffffffffffffffffffffffff1673ffffffffffffffffffffffffffffffffffffffff16815260200190815260200160002060006101000a81548160ff02191690831515021790555060126000838152602001908152602001600020849080600181540180825580915050600190039060005260206000200160009091909190916101000a81548173ffffffffffffffffffffffffffffffffffffffff021916908373ffffffffffffffffffffffffffffffffffffffff1602179055506013600083815260200190815260200160002083908060018154018082558091505060019003906000526020600020016000909190919091509080519060200190613316929190614c60565b50826015600084815260200190815260200160002060008673ffffffffffffffffffffffffffffffffffffffff1673ffffffffffffffffffffffffffffffffffffffff168152602001908152602001600020908051906020019061337b929190614c60565b5060146000838152602001908152602001600020600190806001815401808255809150506001900390600052602060002090602091828204019190069091909190916101000a81548160ff0219169083151502179055508373ffffffffffffffffffffffffffffffffffffffff167f46b8357d30dedd734a71d059a385f46b6e667bff20233f907477760207f8896583604051613418919061581b565b60405180910390a250505050565b6060601260008381526020019081526020016000208054806020026020016040519081016040528092919081815260200182805480156134bb57602002820191906000526020600020905b8160009054906101000a900473ffffffffffffffffffffffffffffffffffffffff1673ffffffffffffffffffffffffffffffffffffffff1681526020019060010190808311613471575b50505050509050919050565b806134d23382613d37565b6134db57600080fd5b600360149054906101000a900460ff16156134f557600080fd5b60016008600084815260200190815260200160002060020160006101000a81548160ff0219169083600381111561352f5761352e615da5565b5b02179055504260086000848152602001908152602001600020600301819055503373ffffffffffffffffffffffffffffffffffffffff167ff77c6f27499b698205f54058c2914a340e1300c2bc0d9a819e7aebfbaabbbb9383604051613595919061581b565b60405180910390a25050565b836135ac3382612ef8565b6135b557600080fd5b6000845111156135eb57836008600087815260200190815260200160002060070190805190602001906135e9929190614c60565b505b600083511115613621578260086000878152602001908152602001600020600801908051906020019061361f929190614c60565b505b6000825111156136575781600860008781526020019081526020016000206009019080519060200190613655929190614c60565b505b7fcd9ad49d834aeea746bafd2d26eebd3d01ebac2d8f5d3f53d7f3884292e5835f856008600088815260200190815260200160002060070160086000898152602001908152602001600020600801600860008a81526020019081526020016000206009016040516136cb94939291906158c6565b60405180910390a15050505050565b600360009054906101000a900473ffffffffffffffffffffffffffffffffffffffff1681565b6000600360149054906101000a900460ff16905090565b600033905090565b6060600680548060200260200160405190810160405280929190818152602001828054801561376d57602002820191906000526020600020905b815481526020019060010190808311613759575b5050505050905090565b806137823382613d37565b806137da5750600360009054906101000a900473ffffffffffffffffffffffffffffffffffffffff1673ffffffffffffffffffffffffffffffffffffffff163373ffffffffffffffffffffffffffffffffffffffff16145b6137e357600080fd5b600360149054906101000a900460ff16156137fd57600080fd5b61380783836146c3565b505050565b6000805461381990615c9b565b80601f016020809104026020016040519081016040528092919081815260200182805461384590615c9b565b80156138925780601f1061386757610100808354040283529160200191613892565b820191906000526020600020905b81548152906001019060200180831161387557829003601f168201915b505050505081565b60606007805480602002602001604051908101604052809291908181526020016000905b8282101561396a5783829060005260206000200180546138dd90615c9b565b80601f016020809104026020016040519081016040528092919081815260200182805461390990615c9b565b80156139565780601f1061392b57610100808354040283529160200191613956565b820191906000526020600020905b81548152906001019060200180831161393957829003601f168201915b5050505050815260200190600101906138be565b50505050905090565b61397b614ce6565b816139863382613d37565b61398f57600080fd5b60086000848152602001908152602001600020604051806101c0016040529081600082015481526020016001820180546139c890615c9b565b80601f01602080910402602001604051908101604052809291908181526020018280546139f490615c9b565b8015613a415780601f10613a1657610100808354040283529160200191613a41565b820191906000526020600020905b815481529060010190602001808311613a2457829003601f168201915b505050505081526020016002820160009054906101000a900460ff166003811115613a6f57613a6e615da5565b5b6003811115613a8157613a80615da5565b5b815260200160038201548152602001600482015481526020016005820154815260200160068201548152602001600782018054613abd90615c9b565b80601f0160208091040260200160405190810160405280929190818152602001828054613ae990615c9b565b8015613b365780601f10613b0b57610100808354040283529160200191613b36565b820191906000526020600020905b815481529060010190602001808311613b1957829003601f168201915b50505050508152602001600882018054613b4f90615c9b565b80601f0160208091040260200160405190810160405280929190818152602001828054613b7b90615c9b565b8015613bc85780601f10613b9d57610100808354040283529160200191613bc8565b820191906000526020600020905b815481529060010190602001808311613bab57829003601f168201915b50505050508152602001600982018054613be190615c9b565b80601f0160208091040260200160405190810160405280929190818152602001828054613c0d90615c9b565b8015613c5a5780601f10613c2f57610100808354040283529160200191613c5a565b820191906000526020600020905b815481529060010190602001808311613c3d57829003601f168201915b50505050508152602001600a820160009054906101000a900473ffffffffffffffffffffffffffffffffffffffff1673ffffffffffffffffffffffffffffffffffffffff1673ffffffffffffffffffffffffffffffffffffffff168152602001600b8201548152602001600c8201548152602001600d82015481525050915050919050565b6000600160009054906101000a900473ffffffffffffffffffffffffffffffffffffffff1673ffffffffffffffffffffffffffffffffffffffff163373ffffffffffffffffffffffffffffffffffffffff1614905090565b600080600a600084815260200190815260200160002060008573ffffffffffffffffffffffffffffffffffffffff1673ffffffffffffffffffffffffffffffffffffffff1681526020019081526020016000205490506000811415613da0576000915050613df0565b60011515600f60008581526020019081526020016000208281548110613dc957613dc8615e03565b5b90600052602060002090602091828204019190069054906101000a900460ff161515149150505b92915050565b80613e013382612ef8565b613e0a57600080fd5b600360149054906101000a900460ff1615613e2457600080fd5b3460086000848152602001908152602001600020600b016000828254613e4a9190615ac5565b925050819055503373ffffffffffffffffffffffffffffffffffffffff167f5dc1fe5ab986a852c4eda8e8bb94247d13307065c593fb83f1a09be2736793828360086000868152602001908152602001600020600b0154604051613eaf929190615920565b60405180910390a25050565b600360009054906101000a900473ffffffffffffffffffffffffffffffffffffffff1673ffffffffffffffffffffffffffffffffffffffff163373ffffffffffffffffffffffffffffffffffffffff1614613f1557600080fd5b6000600a600084815260200190815260200160002060008373ffffffffffffffffffffffffffffffffffffffff1673ffffffffffffffffffffffffffffffffffffffff1681526020019081526020016000205490506001600f60008581526020019081526020016000208281548110613f9157613f90615e03565b5b90600052602060002090602091828204019190066101000a81548160ff0219169083151502179055507f2d19f1f4aa7d21a07d18586e49b3e0529d148488052497ea97f06d7266c3cbbe83600e6000868152602001908152602001600020838154811061400157614000615e03565b5b90600052602060002001604051614019929190615896565b60405180910390a1505050565b6000600a600083815260200190815260200160002060003373ffffffffffffffffffffffffffffffffffffffff1673ffffffffffffffffffffffffffffffffffffffff168152602001908152602001600020549050919050565b600360009054906101000a900473ffffffffffffffffffffffffffffffffffffffff1673ffffffffffffffffffffffffffffffffffffffff163373ffffffffffffffffffffffffffffffffffffffff16146140da57600080fd5b600360149054906101000a900460ff16156140f457600080fd5b60004290506000604051806101c001604052808381526020018481526020016000600381111561412757614126615da5565b5b815260200142815260200142815260200142815260200160008152602001604051806020016040528060008152508152602001604051806020016040528060008152508152602001604051806020016040528060008152508152602001600073ffffffffffffffffffffffffffffffffffffffff16815260200160008152602001600081526020016000815250905080600860008481526020019081526020016000206000820151816000015560208201518160010190805190602001906141f0929190614c60565b5060408201518160020160006101000a81548160ff0219169083600381111561421c5761421b615da5565b5b0217905550606082015181600301556080820151816004015560a0820151816005015560c0820151816006015560e0820151816007019080519060200190614265929190614c60565b50610100820151816008019080519060200190614283929190614c60565b506101208201518160090190805190602001906142a1929190614c60565b5061014082015181600a0160006101000a81548173ffffffffffffffffffffffffffffffffffffffff021916908373ffffffffffffffffffffffffffffffffffffffff16021790555061016082015181600b015561018082015181600c01556101a082015181600d01559050506006829080600181540180825580915050600190039060005260206000200160009091909190915055600783908060018154018082558091505060019003906000526020600020016000909190919091509080519060200190614372929190614c60565b507f5937a473913f56daf7dea7a6e821970acaa73f35555cf88f70c54f243cd98a9e83836040516143a49291906157a9565b60405180910390a1505050565b82826000600a600084815260200190815260200160002060008373ffffffffffffffffffffffffffffffffffffffff1673ffffffffffffffffffffffffffffffffffffffff168152602001908152602001600020541461441057600080fd5b600360009054906101000a900473ffffffffffffffffffffffffffffffffffffffff1673ffffffffffffffffffffffffffffffffffffffff163373ffffffffffffffffffffffffffffffffffffffff161461446a57600080fd5b6144758585856147d3565b5050505050565b6000600360149054906101000a900460ff161561449857600080fd5b6144a23383612ef8565b9050919050565b6000600360009054906101000a900473ffffffffffffffffffffffffffffffffffffffff1673ffffffffffffffffffffffffffffffffffffffff163373ffffffffffffffffffffffffffffffffffffffff1614905090565b600061450d3383612ded565b61451a5760009050614583565b60011515600c600084815260200190815260200160002060003373ffffffffffffffffffffffffffffffffffffffff1673ffffffffffffffffffffffffffffffffffffffff16815260200190815260200160002060009054906101000a900460ff161515141590505b919050565b6000600360009054906101000a900473ffffffffffffffffffffffffffffffffffffffff16905090565b6000600a600084815260200190815260200160002060008373ffffffffffffffffffffffffffffffffffffffff1673ffffffffffffffffffffffffffffffffffffffff1681526020019081526020016000205490506000600f6000858152602001908152602001600020828154811061462e5761462d615e03565b5b90600052602060002090602091828204019190066101000a81548160ff0219169083151502179055507f021d633158208ba55afbe8aae9878e510cccaf8f1fe2d8c42455d95f58f3b1f083600e6000868152602001908152602001600020838154811061469e5761469d615e03565b5b906000526020600020016040516146b6929190615896565b60405180910390a1505050565b60016010600083815260200190815260200160002060008473ffffffffffffffffffffffffffffffffffffffff1673ffffffffffffffffffffffffffffffffffffffff16815260200190815260200160002060006101000a81548160ff0219169083151502179055508160086000838152602001908152602001600020600a0160006101000a81548173ffffffffffffffffffffffffffffffffffffffff021916908373ffffffffffffffffffffffffffffffffffffffff1602179055508173ffffffffffffffffffffffffffffffffffffffff167f5fd6d0b7e707fe344bd2a1887f9d0eeea8bfcac6f339ba4200e74f0647f101c0826040516147c7919061581b565b60405180910390a25050565b6000600b600085815260200190815260200160002054141561496357600b6000848152602001908152602001600020600081548092919061481390615cfe565b9190505550600d600084815260200190815260200160002060009080600181540180825580915050600190039060005260206000200160009091909190916101000a81548173ffffffffffffffffffffffffffffffffffffffff021916908373ffffffffffffffffffffffffffffffffffffffff160217905550600f6000848152602001908152602001600020600090806001815401808255809150506001900390600052602060002090602091828204019190069091909190916101000a81548160ff021916908315150217905550600e600084815260200190815260200160002080600181540180825580915050600190039060005260206000200160006040518060400160405280600c81526020017f7a65726f2061646472657373000000000000000000000000000000000000000081525090919091509080519060200190614961929190614c60565b505b6000600b600085815260200190815260200160002054905080600a600086815260200190815260200160002060008573ffffffffffffffffffffffffffffffffffffffff1673ffffffffffffffffffffffffffffffffffffffff16815260200190815260200160002081905550600d6000858152602001908152602001600020839080600181540180825580915050600190039060005260206000200160009091909190916101000a81548173ffffffffffffffffffffffffffffffffffffffff021916908373ffffffffffffffffffffffffffffffffffffffff160217905550600f6000858152602001908152602001600020600190806001815401808255809150506001900390600052602060002090602091828204019190069091909190916101000a81548160ff021916908315150217905550600e600085815260200190815260200160002082908060018154018082558091505060019003906000526020600020016000909190919091509080519060200190614ae6929190614c60565b507f88356b104f5ba3e9281d371b21296e4e0390dda6f4bcc4bfc219f6d67cc8ae50848483604051614b1a93929190615836565b60405180910390a1600b60008581526020019081526020016000206000815480929190614b4690615cfe565b919050555050505050565b508054614b5d90615c9b565b6000825580601f10614b6f5750614b8e565b601f016020900490600052602060002090810190614b8d9190614d7d565b5b50565b5080546000825590600052602060002090810190614baf9190614d9a565b50565b5080546000825590600052602060002090810190614bd09190614d7d565b50565b828054614bdf90615c9b565b90600052602060002090601f016020900481019282614c015760008555614c4f565b82601f10614c125780548555614c4f565b82800160010185558215614c4f57600052602060002091601f016020900482015b82811115614c4e578254825591600101919060010190614c33565b5b509050614c5c9190614d7d565b5090565b828054614c6c90615c9b565b90600052602060002090601f016020900481019282614c8e5760008555614cd5565b82601f10614ca757805160ff1916838001178555614cd5565b82800160010185558215614cd5579182015b82811115614cd4578251825591602001919060010190614cb9565b5b509050614ce29190614d7d565b5090565b604051806101c00160405280600081526020016060815260200160006003811115614d1457614d13615da5565b5b815260200160008152602001600081526020016000815260200160008152602001606081526020016060815260200160608152602001600073ffffffffffffffffffffffffffffffffffffffff1681526020016000815260200160008152602001600081525090565b5b80821115614d96576000816000905550600101614d7e565b5090565b5b80821115614dba5760008181614db19190614b51565b50600101614d9b565b5090565b6000614dd1614dcc8461596e565b615949565b905082815260208101848484011115614ded57614dec615e66565b5b614df8848285615c59565b509392505050565b600081359050614e0f81615ee9565b92915050565b600082601f830112614e2a57614e29615e61565b5b8135614e3a848260208601614dbe565b91505092915050565b600081359050614e5281615f00565b92915050565b600060208284031215614e6e57614e6d615e70565b5b6000614e7c84828501614e00565b91505092915050565b600080600060608486031215614e9e57614e9d615e70565b5b6000614eac86828701614e00565b935050602084013567ffffffffffffffff811115614ecd57614ecc615e6b565b5b614ed986828701614e15565b9250506040614eea86828701614e43565b9150509250925092565b60008060408385031215614f0b57614f0a615e70565b5b6000614f1985828601614e00565b9250506020614f2a85828601614e43565b9150509250929050565b600060208284031215614f4a57614f49615e70565b5b600082013567ffffffffffffffff811115614f6857614f67615e6b565b5b614f7484828501614e15565b91505092915050565b600060208284031215614f9357614f92615e70565b5b6000614fa184828501614e43565b91505092915050565b60008060408385031215614fc157614fc0615e70565b5b6000614fcf85828601614e43565b9250506020614fe085828601614e00565b9150509250929050565b60008060006060848603121561500357615002615e70565b5b600061501186828701614e43565b935050602061502286828701614e00565b925050604084013567ffffffffffffffff81111561504357615042615e6b565b5b61504f86828701614e15565b9150509250925092565b6000806000806080858703121561507357615072615e70565b5b600061508187828801614e43565b945050602085013567ffffffffffffffff8111156150a2576150a1615e6b565b5b6150ae87828801614e15565b935050604085013567ffffffffffffffff8111156150cf576150ce615e6b565b5b6150db87828801614e15565b925050606085013567ffffffffffffffff8111156150fc576150fb615e6b565b5b61510887828801614e15565b91505092959194509250565b60006151208383615170565b60208301905092915050565b6000615138838361531d565b60208301905092915050565b60006151508383615368565b905092915050565b600061516483836155c0565b60208301905092915050565b61517981615bda565b82525050565b61518881615bda565b82525050565b6000615199826159f4565b6151a38185615a5f565b93506151ae8361599f565b8060005b838110156151df5781516151c68882615114565b97506151d183615a2b565b9250506001810190506151b2565b5085935050505092915050565b60006151f7826159ff565b6152018185615a70565b935061520c836159af565b8060005b8381101561523d578151615224888261512c565b975061522f83615a38565b925050600181019050615210565b5085935050505092915050565b600061525582615a0a565b61525f8185615a81565b935083602082028501615271856159bf565b8060005b858110156152ad578484038952815161528e8582615144565b945061529983615a45565b925060208a01995050600181019050615275565b50829750879550505050505092915050565b60006152ca82615a15565b6152d48185615a92565b93506152df836159cf565b8060005b838110156153105781516152f78882615158565b975061530283615a52565b9250506001810190506152e3565b5085935050505092915050565b61532681615bec565b82525050565b61533581615bec565b82525050565b61534481615c35565b82525050565b61535381615c35565b82525050565b61536281615c47565b82525050565b600061537382615a20565b61537d8185615aa3565b935061538d818560208601615c68565b61539681615e75565b840191505092915050565b60006153ac82615a20565b6153b68185615ab4565b93506153c6818560208601615c68565b6153cf81615e75565b840191505092915050565b600081546153e781615c9b565b6153f18186615ab4565b9450600182166000811461540c576001811461541e57615451565b60ff1983168652602086019350615451565b615427856159df565b60005b838110156154495781548189015260018201915060208101905061542a565b808801955050505b50505092915050565b6000615467602d83615ab4565b915061547282615e86565b604082019050919050565b60006101c08301600083015161549660008601826155c0565b50602083015184820360208601526154ae8282615368565b91505060408301516154c3604086018261533b565b5060608301516154d660608601826155c0565b5060808301516154e960808601826155c0565b5060a08301516154fc60a08601826155c0565b5060c083015161550f60c08601826155c0565b5060e083015184820360e08601526155278282615368565b9150506101008301518482036101008601526155438282615368565b91505061012083015184820361012086015261555f8282615368565b915050610140830151615576610140860182615170565b5061016083015161558b6101608601826155c0565b506101808301516155a06101808601826155c0565b506101a08301516155b56101a08601826155c0565b508091505092915050565b6155c981615c2b565b82525050565b6155d881615c2b565b82525050565b60006020820190506155f3600083018461517f565b92915050565b60006020820190508181036000830152615613818461518e565b905092915050565b60006060820190508181036000830152615635818661518e565b9050818103602083015261564981856151ec565b9050818103604083015261565d818461524a565b9050949350505050565b6000602082019050818103600083015261568181846151ec565b905092915050565b600060208201905081810360008301526156a3818461524a565b905092915050565b600060208201905081810360008301526156c581846152bf565b905092915050565b60006020820190506156e2600083018461532c565b92915050565b600060a0820190506156fd600083018861534a565b61570a60208301876155cf565b61571760408301866155cf565b61572460608301856155cf565b61573160808301846155cf565b9695505050505050565b6000602082019050818103600083015261575581846153a1565b905092915050565b6000606082019050818103600083015261577781866153a1565b9050818103602083015261578b81856153a1565b9050818103604083015261579f81846153a1565b9050949350505050565b600060408201905081810360008301526157c381856153a1565b90506157d260208301846155cf565b9392505050565b600060208201905081810360008301526157f28161545a565b9050919050565b60006020820190508181036000830152615813818461547d565b905092915050565b600060208201905061583060008301846155cf565b92915050565b600060608201905061584b60008301866155cf565b615858602083018561517f565b61586560408301846155cf565b949350505050565b600060408201905061588260008301856155cf565b61588f6020830184615359565b9392505050565b60006040820190506158ab60008301856155cf565b81810360208301526158bd81846153da565b90509392505050565b60006080820190506158db60008301876155cf565b81810360208301526158ed81866153da565b9050818103604083015261590181856153da565b9050818103606083015261591581846153da565b905095945050505050565b600060408201905061593560008301856155cf565b61594260208301846155cf565b9392505050565b6000615953615964565b905061595f8282615ccd565b919050565b6000604051905090565b600067ffffffffffffffff82111561598957615988615e32565b5b61599282615e75565b9050602081019050919050565b6000819050602082019050919050565b6000819050602082019050919050565b6000819050602082019050919050565b6000819050602082019050919050565b60008190508160005260206000209050919050565b600081519050919050565b600081519050919050565b600081519050919050565b600081519050919050565b600081519050919050565b6000602082019050919050565b6000602082019050919050565b6000602082019050919050565b6000602082019050919050565b600082825260208201905092915050565b600082825260208201905092915050565b600082825260208201905092915050565b600082825260208201905092915050565b600082825260208201905092915050565b600082825260208201905092915050565b6000615ad082615c2b565b9150615adb83615c2b565b9250827fffffffffffffffffffffffffffffffffffffffffffffffffffffffffffffffff03821115615b1057615b0f615d47565b5b828201905092915050565b6000615b2682615c2b565b9150615b3183615c2b565b925082615b4157615b40615d76565b5b828204905092915050565b6000615b5782615c2b565b9150615b6283615c2b565b9250817fffffffffffffffffffffffffffffffffffffffffffffffffffffffffffffffff0483118215151615615b9b57615b9a615d47565b5b828202905092915050565b6000615bb182615c2b565b9150615bbc83615c2b565b925082821015615bcf57615bce615d47565b5b828203905092915050565b6000615be582615c0b565b9050919050565b60008115159050919050565b6000819050615c0682615ed5565b919050565b600073ffffffffffffffffffffffffffffffffffffffff82169050919050565b6000819050919050565b6000615c4082615bf8565b9050919050565b6000615c5282615c2b565b9050919050565b82818337600083830152505050565b60005b83811015615c86578082015181840152602081019050615c6b565b83811115615c95576000848401525b50505050565b60006002820490506001821680615cb357607f821691505b60208210811415615cc757615cc6615dd4565b5b50919050565b615cd682615e75565b810181811067ffffffffffffffff82111715615cf557615cf4615e32565b5b80604052505050565b6000615d0982615c2b565b91507fffffffffffffffffffffffffffffffffffffffffffffffffffffffffffffffff821415615d3c57615d3b615d47565b5b600182019050919050565b7f4e487b7100000000000000000000000000000000000000000000000000000000600052601160045260246000fd5b7f4e487b7100000000000000000000000000000000000000000000000000000000600052601260045260246000fd5b7f4e487b7100000000000000000000000000000000000000000000000000000000600052602160045260246000fd5b7f4e487b7100000000000000000000000000000000000000000000000000000000600052602260045260246000fd5b7f4e487b7100000000000000000000000000000000000000000000000000000000600052603260045260246000fd5b7f4e487b7100000000000000000000000000000000000000000000000000000000600052604160045260246000fd5b600080fd5b600080fd5b600080fd5b600080fd5b6000601f19601f8301169050919050565b7f43616e277420656e6420726567697374726174696f6e2077697468207a65726f60008201527f2072656769737472616e74732100000000000000000000000000000000000000602082015250565b60048110615ee657615ee5615da5565b5b50565b615ef281615bda565b8114615efd57600080fd5b50565b615f0981615c2b565b8114615f1457600080fd5b5056fea26469706673582212208f3717e3a214a5b166ac84e844df4cb14fa87c9cfb7f23a01447bcc2cc142d0764736f6c63430008070033",
  "immutableReferences": {},
  "source": "// SPDX-License-Identifier: MIT\npragma solidity ^0.8.0;\n\nimport \"../roles/AdminsManager_002.sol\";\n\ncontract EthDropCore_002 is AdminsManager_002 {\n    // Set in case the core contract is broken and an upgrade is required\n    address public newContractAddress;\n\n    /// @notice Creates the main EthDrop smart contract instance.\n    constructor () {\n        // Starts paused.\n\n        // TODO \n        paused = false;\n\n        // the creator of the contract is the initial CEO\n        ceoAddress = msg.sender;\n\n    }\n\n    /// @dev Used to mark the smart contract as upgraded, in case there is a serious\n    ///  breaking bug. This method does nothing but keep track of the new contract and\n    ///  emit a message indicating that the new address is set. It's up to clients of this\n    ///  contract to update to the new contract address in that case. (This contract will\n    ///  be paused indefinitely if such an upgrade takes place.)\n    /// @param _v2Address new address\n    function setNewAddress(address _v2Address) external onlyCEO whenPaused {\n        // See README.md for updgrade plan\n        newContractAddress = _v2Address;\n        emit ContractUpgrade(_v2Address);\n    }\n\n    function foobar() external pure returns (string memory) {\n        return \"foobarrrrrrr!\";\n    }\n}",
  "sourcePath": "/Users/jim/temp-projects/EthDrop/contracts/core/EthDropCore_002.sol",
  "compiler": {
    "name": "solc",
    "version": "0.8.7+commit.e28d00a7.Emscripten.clang"
  },
  "schemaVersion": "3.4.2",
  "updatedAt": "2021-08-22T20:18:16.983Z",
  "networkType": "ethereum",
  "devdoc": {
    "kind": "dev",
    "methods": {
      "pause()": {
        "details": "Called by any \"C-level\" role to pause the contract. Used only when  a bug or exploit is detected and we need to limit damage."
      },
      "setCEO(address)": {
        "details": "Assigns a new address to act as the CEO. Only available to the current CEO.",
        "params": {
          "_newCEO": "The address of the new CEO"
        }
      },
      "setCFO(address)": {
        "details": "Assigns a new address to act as the CFO. Only available to the current CEO.",
        "params": {
          "_newCFO": "The address of the new CFO"
        }
      },
      "setCOO(address)": {
        "details": "Assigns a new address to act as the COO. Only available to the current CEO.",
        "params": {
          "_newCOO": "The address of the new COO"
        }
      },
      "setNewAddress(address)": {
        "details": "Used to mark the smart contract as upgraded, in case there is a serious  breaking bug. This method does nothing but keep track of the new contract and  emit a message indicating that the new address is set. It's up to clients of this  contract to update to the new contract address in that case. (This contract will  be paused indefinitely if such an upgrade takes place.)",
        "params": {
          "_v2Address": "new address"
        }
      },
      "unpause()": {
        "details": "Unpauses the smart contract. Can only be called by the CEO, since  one reason we may pause the contract is when CFO or COO accounts are  compromised."
      }
    },
    "version": 1
  },
  "userdoc": {
    "kind": "user",
    "methods": {
      "constructor": {
        "notice": "Creates the main EthDrop smart contract instance."
      },
      "unpause()": {
        "notice": "This is public rather than external so it can be called by  derived contracts."
      }
    },
    "version": 1
  }
}