{
  "contractName": "EthDropCore",
  "abi": [
    {
      "inputs": [],
      "stateMutability": "nonpayable",
      "type": "constructor"
    },
    {
      "anonymous": false,
      "inputs": [
        {
          "indexed": false,
          "internalType": "uint256",
          "name": "groupId",
          "type": "uint256"
        },
        {
          "indexed": false,
          "internalType": "address",
          "name": "account",
          "type": "address"
        },
        {
          "indexed": false,
          "internalType": "uint256",
          "name": "index",
          "type": "uint256"
        }
      ],
      "name": "AdminAdded",
      "type": "event"
    },
    {
      "anonymous": false,
      "inputs": [
        {
          "indexed": false,
          "internalType": "uint256",
          "name": "groupId",
          "type": "uint256"
        },
        {
          "indexed": false,
          "internalType": "string",
          "name": "name",
          "type": "string"
        }
      ],
      "name": "AdminReEnabled",
      "type": "event"
    },
    {
      "anonymous": false,
      "inputs": [
        {
          "indexed": false,
          "internalType": "uint256",
          "name": "groupId",
          "type": "uint256"
        },
        {
          "indexed": false,
          "internalType": "string",
          "name": "name",
          "type": "string"
        }
      ],
      "name": "AdminRemoved",
      "type": "event"
    },
    {
      "anonymous": false,
      "inputs": [
        {
          "indexed": false,
          "internalType": "bool",
          "name": "isPaused",
          "type": "bool"
        }
      ],
      "name": "AppPaused",
      "type": "event"
    },
    {
      "anonymous": false,
      "inputs": [
        {
          "indexed": false,
          "internalType": "uint256",
          "name": "registeredRecipientCount",
          "type": "uint256"
        },
        {
          "indexed": false,
          "internalType": "uint256",
          "name": "winningsPerRecipient",
          "type": "uint256"
        }
      ],
      "name": "CalculatedPot",
      "type": "event"
    },
    {
      "anonymous": false,
      "inputs": [],
      "name": "CfoUpdated",
      "type": "event"
    },
    {
      "anonymous": false,
      "inputs": [
        {
          "indexed": false,
          "internalType": "address",
          "name": "newContract",
          "type": "address"
        }
      ],
      "name": "ContractUpgrade",
      "type": "event"
    },
    {
      "anonymous": false,
      "inputs": [
        {
          "indexed": true,
          "internalType": "address",
          "name": "account",
          "type": "address"
        },
        {
          "indexed": false,
          "internalType": "uint256",
          "name": "groupId",
          "type": "uint256"
        },
        {
          "indexed": false,
          "internalType": "uint256",
          "name": "amount",
          "type": "uint256"
        }
      ],
      "name": "ContributionMade",
      "type": "event"
    },
    {
      "anonymous": false,
      "inputs": [
        {
          "indexed": true,
          "internalType": "address",
          "name": "account",
          "type": "address"
        },
        {
          "indexed": false,
          "internalType": "uint256",
          "name": "groupId",
          "type": "uint256"
        }
      ],
      "name": "ContributorAdded",
      "type": "event"
    },
    {
      "anonymous": false,
      "inputs": [
        {
          "indexed": false,
          "internalType": "uint256",
          "name": "groupId",
          "type": "uint256"
        },
        {
          "indexed": false,
          "internalType": "address",
          "name": "newContributor",
          "type": "address"
        }
      ],
      "name": "ContributorAddressUpdated",
      "type": "event"
    },
    {
      "anonymous": false,
      "inputs": [
        {
          "indexed": false,
          "internalType": "uint256",
          "name": "groupId",
          "type": "uint256"
        },
        {
          "indexed": false,
          "internalType": "string",
          "name": "sponsorName",
          "type": "string"
        },
        {
          "indexed": false,
          "internalType": "string",
          "name": "imgUrl",
          "type": "string"
        },
        {
          "indexed": false,
          "internalType": "string",
          "name": "imgLinkToUrl",
          "type": "string"
        }
      ],
      "name": "ContributorInfoUpdated",
      "type": "event"
    },
    {
      "anonymous": false,
      "inputs": [
        {
          "indexed": true,
          "internalType": "address",
          "name": "account",
          "type": "address"
        },
        {
          "indexed": false,
          "internalType": "uint256",
          "name": "groupId",
          "type": "uint256"
        }
      ],
      "name": "ContributorRemoved",
      "type": "event"
    },
    {
      "anonymous": false,
      "inputs": [],
      "name": "CooUpdated",
      "type": "event"
    },
    {
      "anonymous": false,
      "inputs": [
        {
          "indexed": true,
          "internalType": "address",
          "name": "account",
          "type": "address"
        },
        {
          "indexed": false,
          "internalType": "uint256",
          "name": "groupId",
          "type": "uint256"
        }
      ],
      "name": "EligibleRecipientAdded",
      "type": "event"
    },
    {
      "anonymous": false,
      "inputs": [
        {
          "indexed": true,
          "internalType": "address",
          "name": "account",
          "type": "address"
        },
        {
          "indexed": false,
          "internalType": "uint256",
          "name": "groupId",
          "type": "uint256"
        }
      ],
      "name": "EligibleRecipientRemoved",
      "type": "event"
    },
    {
      "anonymous": false,
      "inputs": [],
      "name": "EventClose",
      "type": "event"
    },
    {
      "anonymous": false,
      "inputs": [
        {
          "indexed": false,
          "internalType": "uint256",
          "name": "groupId",
          "type": "uint256"
        },
        {
          "indexed": true,
          "internalType": "address",
          "name": "endedBy",
          "type": "address"
        }
      ],
      "name": "EventEnded",
      "type": "event"
    },
    {
      "anonymous": false,
      "inputs": [
        {
          "indexed": false,
          "internalType": "uint256",
          "name": "groupId",
          "type": "uint256"
        },
        {
          "indexed": true,
          "internalType": "address",
          "name": "startedBy",
          "type": "address"
        }
      ],
      "name": "EventStarted",
      "type": "event"
    },
    {
      "anonymous": false,
      "inputs": [
        {
          "indexed": false,
          "internalType": "uint256",
          "name": "groupId",
          "type": "uint256"
        },
        {
          "indexed": false,
          "internalType": "address",
          "name": "account",
          "type": "address"
        },
        {
          "indexed": false,
          "internalType": "uint256",
          "name": "index",
          "type": "uint256"
        }
      ],
      "name": "GettingMyAdminIndex",
      "type": "event"
    },
    {
      "anonymous": false,
      "inputs": [
        {
          "indexed": false,
          "internalType": "uint256",
          "name": "groupId",
          "type": "uint256"
        },
        {
          "indexed": false,
          "internalType": "string",
          "name": "groupName",
          "type": "string"
        }
      ],
      "name": "GroupCreated",
      "type": "event"
    },
    {
      "anonymous": false,
      "inputs": [
        {
          "indexed": false,
          "internalType": "uint256",
          "name": "groupId",
          "type": "uint256"
        },
        {
          "indexed": false,
          "internalType": "address",
          "name": "addressOfUserGettingApproved",
          "type": "address"
        },
        {
          "indexed": false,
          "internalType": "string",
          "name": "nameOfUserGettingApproved",
          "type": "string"
        }
      ],
      "name": "NewJoinerRequestApproved",
      "type": "event"
    },
    {
      "anonymous": false,
      "inputs": [
        {
          "indexed": false,
          "internalType": "uint256",
          "name": "groupId",
          "type": "uint256"
        },
        {
          "indexed": false,
          "internalType": "address",
          "name": "account",
          "type": "address"
        },
        {
          "indexed": false,
          "internalType": "uint256",
          "name": "index",
          "type": "uint256"
        }
      ],
      "name": "NewUserRequestedToJoinGroup",
      "type": "event"
    },
    {
      "anonymous": false,
      "inputs": [
        {
          "indexed": true,
          "internalType": "address",
          "name": "account",
          "type": "address"
        },
        {
          "indexed": false,
          "internalType": "uint256",
          "name": "groupId",
          "type": "uint256"
        }
      ],
      "name": "RecipientRegistered",
      "type": "event"
    },
    {
      "anonymous": false,
      "inputs": [
        {
          "indexed": false,
          "internalType": "uint256",
          "name": "groupId",
          "type": "uint256"
        },
        {
          "indexed": true,
          "internalType": "address",
          "name": "endedBy",
          "type": "address"
        }
      ],
      "name": "RegistrationEnded",
      "type": "event"
    },
    {
      "anonymous": false,
      "inputs": [],
      "name": "RegistrationOpen",
      "type": "event"
    },
    {
      "anonymous": false,
      "inputs": [
        {
          "indexed": false,
          "internalType": "address",
          "name": "from",
          "type": "address"
        },
        {
          "indexed": false,
          "internalType": "address",
          "name": "to",
          "type": "address"
        }
      ],
      "name": "Transfer",
      "type": "event"
    },
    {
      "anonymous": false,
      "inputs": [
        {
          "indexed": true,
          "internalType": "address",
          "name": "account",
          "type": "address"
        },
        {
          "indexed": false,
          "internalType": "uint256",
          "name": "groupId",
          "type": "uint256"
        }
      ],
      "name": "WinningsClaimed",
      "type": "event"
    },
    {
      "anonymous": false,
      "inputs": [],
      "name": "WinningsClaimingOpen",
      "type": "event"
    },
    {
      "inputs": [
        {
          "internalType": "uint256",
          "name": "groupId",
          "type": "uint256"
        },
        {
          "internalType": "address",
          "name": "account",
          "type": "address"
        },
        {
          "internalType": "string",
          "name": "name",
          "type": "string"
        }
      ],
      "name": "addAdmin",
      "outputs": [],
      "stateMutability": "nonpayable",
      "type": "function"
    },
    {
      "inputs": [
        {
          "internalType": "address",
          "name": "addressOfUserGettingApproved",
          "type": "address"
        },
        {
          "internalType": "string",
          "name": "nameOfUserGettingApproved",
          "type": "string"
        },
        {
          "internalType": "uint256",
          "name": "groupId",
          "type": "uint256"
        }
      ],
      "name": "addEligibleRecipient",
      "outputs": [],
      "stateMutability": "nonpayable",
      "type": "function"
    },
    {
      "inputs": [
        {
          "internalType": "uint256",
          "name": "groupId",
          "type": "uint256"
        }
      ],
      "name": "amIAdmin",
      "outputs": [
        {
          "internalType": "bool",
          "name": "",
          "type": "bool"
        }
      ],
      "stateMutability": "view",
      "type": "function",
      "constant": true
    },
    {
      "inputs": [
        {
          "internalType": "uint256",
          "name": "groupId",
          "type": "uint256"
        }
      ],
      "name": "amIContributor",
      "outputs": [
        {
          "internalType": "bool",
          "name": "",
          "type": "bool"
        }
      ],
      "stateMutability": "view",
      "type": "function",
      "constant": true
    },
    {
      "inputs": [
        {
          "internalType": "uint256",
          "name": "groupId",
          "type": "uint256"
        }
      ],
      "name": "amIEligibleRecipient",
      "outputs": [
        {
          "internalType": "bool",
          "name": "",
          "type": "bool"
        }
      ],
      "stateMutability": "view",
      "type": "function",
      "constant": true
    },
    {
      "inputs": [
        {
          "internalType": "uint256",
          "name": "groupId",
          "type": "uint256"
        }
      ],
      "name": "amIPendingNewJoiner",
      "outputs": [
        {
          "internalType": "bool",
          "name": "",
          "type": "bool"
        }
      ],
      "stateMutability": "view",
      "type": "function",
      "constant": true
    },
    {
      "inputs": [
        {
          "internalType": "uint256",
          "name": "groupId",
          "type": "uint256"
        }
      ],
      "name": "amIRegisteredRecipient",
      "outputs": [
        {
          "internalType": "bool",
          "name": "",
          "type": "bool"
        }
      ],
      "stateMutability": "view",
      "type": "function",
      "constant": true
    },
    {
      "inputs": [
        {
          "internalType": "uint256",
          "name": "groupId",
          "type": "uint256"
        },
        {
          "internalType": "address",
          "name": "accountToApprove",
          "type": "address"
        }
      ],
      "name": "approveRequestToJoinGroup",
      "outputs": [],
      "stateMutability": "nonpayable",
      "type": "function"
    },
    {
      "inputs": [],
      "name": "ceoAddress",
      "outputs": [
        {
          "internalType": "address",
          "name": "",
          "type": "address"
        }
      ],
      "stateMutability": "view",
      "type": "function",
      "constant": true
    },
    {
      "inputs": [],
      "name": "cfoAddress",
      "outputs": [
        {
          "internalType": "address",
          "name": "",
          "type": "address"
        }
      ],
      "stateMutability": "view",
      "type": "function",
      "constant": true
    },
    {
      "inputs": [
        {
          "internalType": "address",
          "name": "account",
          "type": "address"
        },
        {
          "internalType": "uint256",
          "name": "groupId",
          "type": "uint256"
        }
      ],
      "name": "changeContributor",
      "outputs": [],
      "stateMutability": "nonpayable",
      "type": "function"
    },
    {
      "inputs": [
        {
          "internalType": "uint256",
          "name": "groupId",
          "type": "uint256"
        }
      ],
      "name": "claimWinnings",
      "outputs": [],
      "stateMutability": "nonpayable",
      "type": "function"
    },
    {
      "inputs": [
        {
          "internalType": "uint256",
          "name": "groupId",
          "type": "uint256"
        }
      ],
      "name": "closeEventRegistration",
      "outputs": [],
      "stateMutability": "nonpayable",
      "type": "function"
    },
    {
      "inputs": [
        {
          "internalType": "uint256",
          "name": "groupId",
          "type": "uint256"
        }
      ],
      "name": "contributeToPot",
      "outputs": [],
      "stateMutability": "payable",
      "type": "function",
      "payable": true
    },
    {
      "inputs": [],
      "name": "cooAddress",
      "outputs": [
        {
          "internalType": "address",
          "name": "",
          "type": "address"
        }
      ],
      "stateMutability": "view",
      "type": "function",
      "constant": true
    },
    {
      "inputs": [
        {
          "internalType": "string",
          "name": "groupName",
          "type": "string"
        }
      ],
      "name": "createNewGroup",
      "outputs": [],
      "stateMutability": "nonpayable",
      "type": "function"
    },
    {
      "inputs": [
        {
          "internalType": "uint256",
          "name": "groupId",
          "type": "uint256"
        }
      ],
      "name": "doIHaveClaimableWinnings",
      "outputs": [
        {
          "internalType": "bool",
          "name": "hasclaimableWinnings",
          "type": "bool"
        }
      ],
      "stateMutability": "view",
      "type": "function",
      "constant": true
    },
    {
      "inputs": [
        {
          "internalType": "uint256",
          "name": "groupId",
          "type": "uint256"
        }
      ],
      "name": "endEvent",
      "outputs": [],
      "stateMutability": "nonpayable",
      "type": "function"
    },
    {
      "inputs": [
        {
          "internalType": "uint256",
          "name": "groupId",
          "type": "uint256"
        }
      ],
      "name": "getAddressNextAdminIndex",
      "outputs": [
        {
          "internalType": "uint256",
          "name": "",
          "type": "uint256"
        }
      ],
      "stateMutability": "view",
      "type": "function",
      "constant": true
    },
    {
      "inputs": [
        {
          "internalType": "uint256",
          "name": "groupId",
          "type": "uint256"
        }
      ],
      "name": "getAdminsForGroup",
      "outputs": [
        {
          "internalType": "address[]",
          "name": "",
          "type": "address[]"
        },
        {
          "internalType": "bool[]",
          "name": "",
          "type": "bool[]"
        },
        {
          "internalType": "string[]",
          "name": "",
          "type": "string[]"
        }
      ],
      "stateMutability": "view",
      "type": "function",
      "constant": true
    },
    {
      "inputs": [],
      "name": "getCFO",
      "outputs": [
        {
          "internalType": "address",
          "name": "",
          "type": "address"
        }
      ],
      "stateMutability": "view",
      "type": "function",
      "constant": true
    },
    {
      "inputs": [],
      "name": "getCOO",
      "outputs": [
        {
          "internalType": "address",
          "name": "",
          "type": "address"
        }
      ],
      "stateMutability": "view",
      "type": "function",
      "constant": true
    },
    {
      "inputs": [
        {
          "internalType": "uint256",
          "name": "groupId",
          "type": "uint256"
        }
      ],
      "name": "getContributorInfo",
      "outputs": [
        {
          "internalType": "string",
          "name": "newContributorName",
          "type": "string"
        },
        {
          "internalType": "string",
          "name": "newContributorImgUrl",
          "type": "string"
        },
        {
          "internalType": "string",
          "name": "newContributorLinkToUrl",
          "type": "string"
        }
      ],
      "stateMutability": "view",
      "type": "function",
      "constant": true
    },
    {
      "inputs": [
        {
          "internalType": "uint256",
          "name": "groupId",
          "type": "uint256"
        }
      ],
      "name": "getCurrentSponsorAddress",
      "outputs": [
        {
          "internalType": "address",
          "name": "",
          "type": "address"
        }
      ],
      "stateMutability": "view",
      "type": "function",
      "constant": true
    },
    {
      "inputs": [
        {
          "internalType": "uint256",
          "name": "groupId",
          "type": "uint256"
        }
      ],
      "name": "getEligibleRecipientAddresses",
      "outputs": [
        {
          "internalType": "address[]",
          "name": "",
          "type": "address[]"
        }
      ],
      "stateMutability": "view",
      "type": "function",
      "constant": true
    },
    {
      "inputs": [
        {
          "internalType": "uint256",
          "name": "groupId",
          "type": "uint256"
        }
      ],
      "name": "getEligibleRecipientIsEligibilityEnabled",
      "outputs": [
        {
          "internalType": "bool[]",
          "name": "",
          "type": "bool[]"
        }
      ],
      "stateMutability": "view",
      "type": "function",
      "constant": true
    },
    {
      "inputs": [
        {
          "internalType": "uint256",
          "name": "groupId",
          "type": "uint256"
        }
      ],
      "name": "getEligibleRecipientNames",
      "outputs": [
        {
          "internalType": "string[]",
          "name": "",
          "type": "string[]"
        }
      ],
      "stateMutability": "view",
      "type": "function",
      "constant": true
    },
    {
      "inputs": [
        {
          "internalType": "uint256",
          "name": "groupId",
          "type": "uint256"
        }
      ],
      "name": "getEligibleRecipients",
      "outputs": [
        {
          "internalType": "address[]",
          "name": "",
          "type": "address[]"
        },
        {
          "internalType": "string[]",
          "name": "",
          "type": "string[]"
        },
        {
          "internalType": "bool[]",
          "name": "",
          "type": "bool[]"
        }
      ],
      "stateMutability": "view",
      "type": "function",
      "constant": true
    },
    {
      "inputs": [
        {
          "internalType": "uint256",
          "name": "groupId",
          "type": "uint256"
        }
      ],
      "name": "getEligibleRecipientsHasCollectedWinnings",
      "outputs": [
        {
          "internalType": "bool[]",
          "name": "",
          "type": "bool[]"
        }
      ],
      "stateMutability": "view",
      "type": "function",
      "constant": true
    },
    {
      "inputs": [
        {
          "internalType": "uint256",
          "name": "groupId",
          "type": "uint256"
        }
      ],
      "name": "getGroupEventData",
      "outputs": [
        {
          "internalType": "enum EthDropBase.EventState",
          "name": "",
          "type": "uint8"
        },
        {
          "internalType": "uint256",
          "name": "",
          "type": "uint256"
        },
        {
          "internalType": "uint256",
          "name": "",
          "type": "uint256"
        },
        {
          "internalType": "uint256",
          "name": "",
          "type": "uint256"
        },
        {
          "internalType": "uint256",
          "name": "",
          "type": "uint256"
        }
      ],
      "stateMutability": "view",
      "type": "function",
      "constant": true
    },
    {
      "inputs": [],
      "name": "getGroupIds",
      "outputs": [
        {
          "internalType": "uint256[]",
          "name": "",
          "type": "uint256[]"
        }
      ],
      "stateMutability": "view",
      "type": "function",
      "constant": true
    },
    {
      "inputs": [],
      "name": "getGroupNames",
      "outputs": [
        {
          "internalType": "string[]",
          "name": "",
          "type": "string[]"
        }
      ],
      "stateMutability": "view",
      "type": "function",
      "constant": true
    },
    {
      "inputs": [
        {
          "internalType": "uint256",
          "name": "groupId",
          "type": "uint256"
        }
      ],
      "name": "getGroupPublicData",
      "outputs": [
        {
          "internalType": "uint256",
          "name": "",
          "type": "uint256"
        },
        {
          "internalType": "string",
          "name": "",
          "type": "string"
        },
        {
          "internalType": "enum EthDropBase.EventState",
          "name": "",
          "type": "uint8"
        },
        {
          "internalType": "uint256",
          "name": "",
          "type": "uint256"
        },
        {
          "internalType": "uint256",
          "name": "",
          "type": "uint256"
        },
        {
          "internalType": "uint256",
          "name": "",
          "type": "uint256"
        },
        {
          "internalType": "uint256",
          "name": "",
          "type": "uint256"
        }
      ],
      "stateMutability": "view",
      "type": "function",
      "constant": true
    },
    {
      "inputs": [
        {
          "internalType": "uint256",
          "name": "groupId",
          "type": "uint256"
        }
      ],
      "name": "getMyAdminIndex",
      "outputs": [
        {
          "internalType": "uint256",
          "name": "",
          "type": "uint256"
        }
      ],
      "stateMutability": "view",
      "type": "function",
      "constant": true
    },
    {
      "inputs": [
        {
          "internalType": "uint256",
          "name": "groupId",
          "type": "uint256"
        }
      ],
      "name": "getNewJoinerRequests",
      "outputs": [
        {
          "internalType": "address[]",
          "name": "",
          "type": "address[]"
        },
        {
          "internalType": "string[]",
          "name": "",
          "type": "string[]"
        },
        {
          "internalType": "bool[]",
          "name": "",
          "type": "bool[]"
        }
      ],
      "stateMutability": "view",
      "type": "function",
      "constant": true
    },
    {
      "inputs": [
        {
          "internalType": "uint256",
          "name": "groupId",
          "type": "uint256"
        }
      ],
      "name": "getRegisteredRecipientNames",
      "outputs": [
        {
          "internalType": "string[]",
          "name": "",
          "type": "string[]"
        }
      ],
      "stateMutability": "view",
      "type": "function",
      "constant": true
    },
    {
      "inputs": [
        {
          "internalType": "uint256",
          "name": "groupId",
          "type": "uint256"
        }
      ],
      "name": "getRegisteredRecipients",
      "outputs": [
        {
          "internalType": "address[]",
          "name": "",
          "type": "address[]"
        },
        {
          "internalType": "string[]",
          "name": "",
          "type": "string[]"
        },
        {
          "internalType": "bool[]",
          "name": "",
          "type": "bool[]"
        }
      ],
      "stateMutability": "view",
      "type": "function",
      "constant": true
    },
    {
      "inputs": [],
      "name": "getString",
      "outputs": [
        {
          "internalType": "string",
          "name": "",
          "type": "string"
        }
      ],
      "stateMutability": "view",
      "type": "function",
      "constant": true
    },
    {
      "inputs": [
        {
          "internalType": "address",
          "name": "account",
          "type": "address"
        },
        {
          "internalType": "uint256",
          "name": "groupId",
          "type": "uint256"
        }
      ],
      "name": "isAdmin",
      "outputs": [
        {
          "internalType": "bool",
          "name": "",
          "type": "bool"
        }
      ],
      "stateMutability": "view",
      "type": "function",
      "constant": true
    },
    {
      "inputs": [],
      "name": "isCEO",
      "outputs": [
        {
          "internalType": "bool",
          "name": "",
          "type": "bool"
        }
      ],
      "stateMutability": "view",
      "type": "function",
      "constant": true
    },
    {
      "inputs": [],
      "name": "isCFO",
      "outputs": [
        {
          "internalType": "bool",
          "name": "",
          "type": "bool"
        }
      ],
      "stateMutability": "view",
      "type": "function",
      "constant": true
    },
    {
      "inputs": [],
      "name": "isCOO",
      "outputs": [
        {
          "internalType": "bool",
          "name": "",
          "type": "bool"
        }
      ],
      "stateMutability": "view",
      "type": "function",
      "constant": true
    },
    {
      "inputs": [
        {
          "internalType": "address",
          "name": "account",
          "type": "address"
        },
        {
          "internalType": "uint256",
          "name": "groupId",
          "type": "uint256"
        }
      ],
      "name": "isContributor",
      "outputs": [
        {
          "internalType": "bool",
          "name": "",
          "type": "bool"
        }
      ],
      "stateMutability": "view",
      "type": "function",
      "constant": true
    },
    {
      "inputs": [
        {
          "internalType": "address",
          "name": "account",
          "type": "address"
        },
        {
          "internalType": "uint256",
          "name": "groupId",
          "type": "uint256"
        }
      ],
      "name": "isEligibleRecipient",
      "outputs": [
        {
          "internalType": "bool",
          "name": "",
          "type": "bool"
        }
      ],
      "stateMutability": "view",
      "type": "function",
      "constant": true
    },
    {
      "inputs": [],
      "name": "isPaused",
      "outputs": [
        {
          "internalType": "bool",
          "name": "",
          "type": "bool"
        }
      ],
      "stateMutability": "view",
      "type": "function",
      "constant": true
    },
    {
      "inputs": [
        {
          "internalType": "address",
          "name": "account",
          "type": "address"
        },
        {
          "internalType": "uint256",
          "name": "groupId",
          "type": "uint256"
        }
      ],
      "name": "isRegisteredRecipient",
      "outputs": [
        {
          "internalType": "bool",
          "name": "",
          "type": "bool"
        }
      ],
      "stateMutability": "view",
      "type": "function",
      "constant": true
    },
    {
      "inputs": [],
      "name": "newContractAddress",
      "outputs": [
        {
          "internalType": "address",
          "name": "",
          "type": "address"
        }
      ],
      "stateMutability": "view",
      "type": "function",
      "constant": true
    },
    {
      "inputs": [],
      "name": "pause",
      "outputs": [],
      "stateMutability": "nonpayable",
      "type": "function"
    },
    {
      "inputs": [],
      "name": "paused",
      "outputs": [
        {
          "internalType": "bool",
          "name": "",
          "type": "bool"
        }
      ],
      "stateMutability": "view",
      "type": "function",
      "constant": true
    },
    {
      "inputs": [
        {
          "internalType": "uint256",
          "name": "groupId",
          "type": "uint256"
        },
        {
          "internalType": "address",
          "name": "account",
          "type": "address"
        }
      ],
      "name": "reEnableAdmin",
      "outputs": [],
      "stateMutability": "nonpayable",
      "type": "function"
    },
    {
      "inputs": [
        {
          "internalType": "uint256",
          "name": "groupId",
          "type": "uint256"
        }
      ],
      "name": "readEventInfo",
      "outputs": [
        {
          "components": [
            {
              "internalType": "uint256",
              "name": "groupId",
              "type": "uint256"
            },
            {
              "internalType": "string",
              "name": "groupName",
              "type": "string"
            },
            {
              "internalType": "enum EthDropBase.EventState",
              "name": "currentState",
              "type": "uint8"
            },
            {
              "internalType": "uint256",
              "name": "registeredRecipientsCount",
              "type": "uint256"
            },
            {
              "internalType": "string",
              "name": "sponsorName",
              "type": "string"
            },
            {
              "internalType": "string",
              "name": "sponsorImageUrl",
              "type": "string"
            },
            {
              "internalType": "string",
              "name": "sponsorLinkToUrl",
              "type": "string"
            },
            {
              "internalType": "address",
              "name": "currentContributor",
              "type": "address"
            },
            {
              "internalType": "uint256",
              "name": "totalAmountContributed",
              "type": "uint256"
            },
            {
              "internalType": "uint256",
              "name": "weiWinnings",
              "type": "uint256"
            },
            {
              "internalType": "uint256",
              "name": "numberOfUsersWhoClaimedWinnings",
              "type": "uint256"
            }
          ],
          "internalType": "struct EthDropBase.EthDropEvent",
          "name": "",
          "type": "tuple"
        }
      ],
      "stateMutability": "view",
      "type": "function",
      "constant": true
    },
    {
      "inputs": [
        {
          "internalType": "uint256",
          "name": "groupId",
          "type": "uint256"
        }
      ],
      "name": "registerForEvent",
      "outputs": [],
      "stateMutability": "nonpayable",
      "type": "function"
    },
    {
      "inputs": [
        {
          "internalType": "uint256",
          "name": "groupId",
          "type": "uint256"
        },
        {
          "internalType": "address",
          "name": "account",
          "type": "address"
        }
      ],
      "name": "removeAdmin",
      "outputs": [],
      "stateMutability": "nonpayable",
      "type": "function"
    },
    {
      "inputs": [
        {
          "internalType": "address",
          "name": "account",
          "type": "address"
        },
        {
          "internalType": "uint256",
          "name": "groupId",
          "type": "uint256"
        }
      ],
      "name": "removeEligibleRecipient",
      "outputs": [],
      "stateMutability": "nonpayable",
      "type": "function"
    },
    {
      "inputs": [
        {
          "internalType": "uint256",
          "name": "groupId",
          "type": "uint256"
        }
      ],
      "name": "renounceAdmin",
      "outputs": [],
      "stateMutability": "nonpayable",
      "type": "function"
    },
    {
      "inputs": [
        {
          "internalType": "uint256",
          "name": "groupId",
          "type": "uint256"
        },
        {
          "internalType": "string",
          "name": "username",
          "type": "string"
        }
      ],
      "name": "requestToJoinGroup",
      "outputs": [],
      "stateMutability": "nonpayable",
      "type": "function"
    },
    {
      "inputs": [
        {
          "internalType": "address",
          "name": "_newCEO",
          "type": "address"
        }
      ],
      "name": "setCEO",
      "outputs": [],
      "stateMutability": "nonpayable",
      "type": "function"
    },
    {
      "inputs": [
        {
          "internalType": "address",
          "name": "_newCFO",
          "type": "address"
        }
      ],
      "name": "setCFO",
      "outputs": [],
      "stateMutability": "nonpayable",
      "type": "function"
    },
    {
      "inputs": [
        {
          "internalType": "address",
          "name": "_newCOO",
          "type": "address"
        }
      ],
      "name": "setCOO",
      "outputs": [],
      "stateMutability": "nonpayable",
      "type": "function"
    },
    {
      "inputs": [
        {
          "internalType": "string",
          "name": "_s",
          "type": "string"
        }
      ],
      "name": "setString",
      "outputs": [],
      "stateMutability": "nonpayable",
      "type": "function"
    },
    {
      "inputs": [
        {
          "internalType": "uint256",
          "name": "groupId",
          "type": "uint256"
        }
      ],
      "name": "startEvent",
      "outputs": [],
      "stateMutability": "nonpayable",
      "type": "function"
    },
    {
      "inputs": [],
      "name": "stringgg",
      "outputs": [
        {
          "internalType": "string",
          "name": "",
          "type": "string"
        }
      ],
      "stateMutability": "view",
      "type": "function",
      "constant": true
    },
    {
      "inputs": [],
      "name": "unpause",
      "outputs": [
        {
          "internalType": "bool",
          "name": "",
          "type": "bool"
        }
      ],
      "stateMutability": "nonpayable",
      "type": "function"
    },
    {
      "inputs": [
        {
          "internalType": "uint256",
          "name": "groupId",
          "type": "uint256"
        },
        {
          "internalType": "string",
          "name": "newContributorName",
          "type": "string"
        },
        {
          "internalType": "string",
          "name": "newContributorImgUrl",
          "type": "string"
        },
        {
          "internalType": "string",
          "name": "newContributorLinkToUrl",
          "type": "string"
        }
      ],
      "name": "updateContributorInfo",
      "outputs": [],
      "stateMutability": "nonpayable",
      "type": "function"
    },
    {
      "inputs": [],
      "name": "whoami",
      "outputs": [
        {
          "internalType": "address",
          "name": "",
          "type": "address"
        }
      ],
      "stateMutability": "view",
      "type": "function",
      "constant": true
    },
    {
      "inputs": [
        {
          "internalType": "address",
          "name": "_v2Address",
          "type": "address"
        }
      ],
      "name": "setNewAddress",
      "outputs": [],
      "stateMutability": "nonpayable",
      "type": "function"
    },
    {
      "inputs": [],
      "name": "foobar",
      "outputs": [
        {
          "internalType": "string",
          "name": "",
          "type": "string"
        }
      ],
      "stateMutability": "pure",
      "type": "function",
      "constant": true
    }
  ],
  "bytecode": "0x6080604052600180546001600160a01b031916331781556003805460ff60a01b191690556005805560085534801561003657600080fd5b506003805460ff60a01b19169055600180546001600160a01b0319163317905561594880620000666000396000f3fe6080604052600436106103645760003560e01c80637eb0bdc9116101c8578063c6db5094116100f8578063e9af9bca1161009b578063e9af9bca14610b5f578063ea303f0814610b97578063edf6261d14610bb7578063ee41b59214610bd7578063ef2e61cc14610bf7578063f40fb25414610c17578063f4a02e7014610c37578063f89e9cb914610c57578063fc5fd6e414610c7757600080fd5b8063c6db509414610a62578063cd04e47514610a77578063d5f016c314610aaa578063e33db42614610abf578063e513b7a914610aec578063e62092be14610b0c578063e82f24e014610b2c578063e9992d9914610b3f57600080fd5b80639bda87961161016b5780639bda879614610941578063a59a69531461096e578063aea88a051461098e578063b047fb50146109ae578063b187bd26146109ce578063b3b36bb3146109ed578063bc5b2e1a14610a00578063c02b8b2c14610a20578063c271e80c14610a4257600080fd5b80637eb0bdc9146108575780637fcaf666146108775780638182aaf2146108975780638456cb59146108b757806389ea642f146108cc5780639393ae37146108e1578063962ecff514610901578063967cafbc1461092157600080fd5b806344b2983b116102a3578063674811ca11610246578063674811ca1461071b578063677bd9ff1461074a5780636af04a571461076a5780636ebdec491461078a57806371587988146107b9578063744c5e1e146107d9578063785142be146107f95780637b936ac2146108195780637d837ce51461083757600080fd5b806344b2983b146105df578063454432e21461060e5780634635509b1461062e5780634e0a33791461065f57806355b57ec11461067f57806356c9a3391461069f5780635c975abb146106da5780635e82c1fc146106fb57600080fd5b8063222fd0871161030b578063222fd087146104ea57806327d7874c1461050a5780632ba73c151461052a57806330bb01151461054a578063330a347b1461056a57806338f0b6561461058a5780633f4ba83a146105aa578063406db843146105bf57600080fd5b80630519ce791461036957806305df75db146103a657806306cb9d6f146103e557806306cc49221461041257806307bfa330146104425780630a0f81681461046f5780630d82ffa01461048f57806315891ff4146104c8575b600080fd5b34801561037557600080fd5b50600254610389906001600160a01b031681565b6040516001600160a01b0390911681526020015b60405180910390f35b3480156103b257600080fd5b5060408051808201909152600d81526c666f6f6261727272727272722160981b60208201525b60405161039d91906153ca565b3480156103f157600080fd5b50610405610400366004614f1d565b610c95565b60405161039d9190615330565b34801561041e57600080fd5b5061043261042d366004614f1d565b610d17565b604051901515815260200161039d565b34801561044e57600080fd5b5061046261045d366004614f1d565b610d70565b60405161039d9190615343565b34801561047b57600080fd5b50600154610389906001600160a01b031681565b34801561049b57600080fd5b506103896104aa366004614f1d565b6000908152600960205260409020600701546001600160a01b031690565b3480156104d457600080fd5b506104e86104e3366004614eb6565b610e5c565b005b3480156104f657600080fd5b506104e8610505366004614fb9565b610f61565b34801561051657600080fd5b506104e8610525366004614e3d565b611269565b34801561053657600080fd5b506104e8610545366004614e3d565b6112db565b34801561055657600080fd5b506104e8610565366004614f1d565b61135f565b34801561057657600080fd5b506104e8610585366004614f1d565b611394565b34801561059657600080fd5b506104326105a5366004614f1d565b611660565b3480156105b657600080fd5b5061043261169d565b3480156105cb57600080fd5b506104e86105da366004614f1d565b611710565b3480156105eb57600080fd5b506105ff6105fa366004614f1d565b611bd4565b60405161039d939291906152f7565b34801561061a57600080fd5b50610462610629366004614f1d565b611da1565b34801561063a57600080fd5b5061064e610649366004614f1d565b611e82565b60405161039d95949392919061539a565b34801561066b57600080fd5b506104e861067a366004614e3d565b6121a2565b34801561068b57600080fd5b5061040561069a366004614f1d565b612239565b3480156106ab57600080fd5b506106cc6106ba366004614f1d565b6000908152600c602052604090205490565b60405190815260200161039d565b3480156106e657600080fd5b5060035461043290600160a01b900460ff1681565b34801561070757600080fd5b50610432610716366004614eb6565b61229e565b34801561072757600080fd5b5061073b610736366004614f1d565b6122f5565b60405161039d939291906153dd565b34801561075657600080fd5b506104e8610765366004614f1d565b6124c3565b34801561077657600080fd5b50602254610389906001600160a01b031681565b34801561079657600080fd5b506107aa6107a5366004614f1d565b61272a565b60405161039d939291906152b4565b3480156107c557600080fd5b506104e86107d4366004614e3d565b6128f9565b3480156107e557600080fd5b506104326107f4366004614f1d565b6129a0565b34801561080557600080fd5b506104e8610814366004614f1d565b6129ed565b34801561082557600080fd5b506002546001600160a01b0316610389565b34801561084357600080fd5b50610432610852366004614eb6565b612baf565b34801561086357600080fd5b506104e8610872366004614f36565b612c06565b34801561088357600080fd5b506104e8610892366004614ee0565b612c3a565b3480156108a357600080fd5b506104326108b2366004614eb6565b612c4d565b3480156108c357600080fd5b506104e8612c9e565b3480156108d857600080fd5b506103d8612d7b565b3480156108ed57600080fd5b506002546001600160a01b03163314610432565b34801561090d57600080fd5b5061043261091c366004614f1d565b612e0d565b34801561092d57600080fd5b506104e861093c366004614e5f565b612e19565b34801561094d57600080fd5b5061096161095c366004614f1d565b613137565b60405161039d91906152a1565b34801561097a57600080fd5b506104e8610989366004614f1d565b6131a2565b34801561099a57600080fd5b506104e86109a9366004615035565b613242565b3480156109ba57600080fd5b50600354610389906001600160a01b031681565b3480156109da57600080fd5b50600354600160a01b900460ff16610432565b3480156109f957600080fd5b5033610389565b348015610a0c57600080fd5b506104e8610a1b366004614f36565b61333c565b348015610a2c57600080fd5b50610a35613630565b60405161039d9190615356565b348015610a4e57600080fd5b506104e8610a5d366004614eb6565b613687565b348015610a6e57600080fd5b506103d86136e9565b348015610a8357600080fd5b50610a97610a92366004614f1d565b613777565b60405161039d979695949392919061574b565b348015610ab657600080fd5b50610462613ac1565b348015610acb57600080fd5b50610adf610ada366004614f1d565b613b9a565b60405161039d91906155f8565b348015610af857600080fd5b506001546001600160a01b03163314610432565b348015610b1857600080fd5b50610432610b27366004614eb6565b613f10565b6104e8610b3a366004614f1d565b613f92565b348015610b4b57600080fd5b506104e8610b5a366004614f36565b61403f565b348015610b6b57600080fd5b506106cc610b7a366004614f1d565b6000908152600b6020908152604080832033845290915290205490565b348015610ba357600080fd5b506104e8610bb2366004614ee0565b614141565b348015610bc357600080fd5b506104e8610bd2366004614f62565b6143f4565b348015610be357600080fd5b50610432610bf2366004614f1d565b614461565b348015610c0357600080fd5b506105ff610c12366004614f1d565b614498565b348015610c2357600080fd5b506105ff610c32366004614f1d565b614690565b348015610c4357600080fd5b506003546001600160a01b03163314610432565b348015610c6357600080fd5b50610432610c72366004614f1d565b6147da565b348015610c8357600080fd5b506003546001600160a01b0316610389565b600081815260156020908152604091829020805483518184028101840190945280845260609392830182828015610d0b57602002820191906000526020600020906000905b825461010083900a900460ff161515815260206001928301818104948501949093039092029101808411610cda5790505b50505050509050919050565b600354600090600160a01b900460ff1615610d4d5760405162461bcd60e51b8152600401610d449061545a565b60405180910390fd5b50600081815260106020908152604080832033845290915290205415155b919050565b6060601f6000838152602001908152602001600020805480602002602001604051908101604052809291908181526020016000905b82821015610e51578382906000526020600020018054610dc49061586a565b80601f0160208091040260200160405190810160405280929190818152602001828054610df09061586a565b8015610e3d5780601f10610e1257610100808354040283529160200191610e3d565b820191906000526020600020905b815481529060010190602001808311610e2057829003601f168201915b505050505081526020019060010190610da5565b505050509050919050565b80610e673382613f10565b610e835760405162461bcd60e51b8152600401610d44906154e5565b600354600160a01b900460ff1615610ead5760405162461bcd60e51b8152600401610d449061545a565b60008281526010602090815260408083206001600160a01b038716845282528083205485845260149092528220805491929183908110610eef57610eef6158e6565b90600052602060002090602091828204019190066101000a81548160ff021916908315150217905550836001600160a01b03167f1af6d16168d33745872119540d28858eed156c5f265206bbf1344fda39a93a3384604051610f5391815260200190565b60405180910390a250505050565b6000838152601760209081526040808320338085529252909120548491908015610ff35760405162461bcd60e51b815260206004820152603d60248201527f4572726f723a207468697320616464726573732068617320616c72656164792060448201527f72657175657374656420746f206a6f696e20746869732067726f75702e0000006064820152608401610d44565b600086815260106020908152604080832033808552925290912054879190801561102f5760405162461bcd60e51b8152600401610d4490615488565b60008981526018602052604090205461111757600089815260186020908152604080832060019081905560198352818420805480830182559085528385200180546001600160a01b03191690558c8452601a8352818420805491820181558452828420825193840192839052928490526110ab93920191614b56565b506000898152601b60209081526040808320805460018082018355918552838520848204018054601f92831661010090810a60ff908102199092169092558f8752601c86529386208054938401815586529484902093820490930180549190931690930a021990911690555b6000898152601860209081526040808320546017835281842033808652908452828520919091558c8452601983528184208054600181810183559186528486200180546001600160a01b0319169092179091558c8452601a8352908320805491820181558352912061118b91018989614bda565b506000898152601b60209081526040808320805460018082018355918552838520848204018054601f92831661010090810a60ff81810219909316179092558f8752601c8652848720805480860182559088528688208782040180549190941690920a02191690558c8452601890925290912054611208916157fa565b60008a815260186020908152604080832093909355600c90528190205490517fc73d895047e43bcf8caa9f1cce950d0f1a21fc9a00a8d693db86cd0c93dc91aa91611256918c913391615713565b60405180910390a1505050505050505050565b6001546001600160a01b031633146112935760405162461bcd60e51b8152600401610d4490615416565b6001600160a01b0381166112b95760405162461bcd60e51b8152600401610d44906155c1565b600180546001600160a01b0319166001600160a01b0392909216919091179055565b6001546001600160a01b031633146113055760405162461bcd60e51b8152600401610d4490615416565b6001600160a01b03811661131857600080fd5b600380546001600160a01b0319166001600160a01b0383161790556040517fa308298a77084def994b565be25bff2e8fbfe7006c2c6b2bacfb84d1ba1f635090600090a150565b8061136a3382613f10565b6113865760405162461bcd60e51b8152600401610d44906154e5565b6113908233614851565b5050565b8061139f3382613f10565b806113b457506003546001600160a01b031633145b6113bd57600080fd5b600354600160a01b900460ff16156113e75760405162461bcd60e51b8152600401610d449061545a565b6000828152600960205260408120600201805460ff191660031790555b60008381526009602052604090206003015481101561147b576000838152602080526040812080548390811061143c5761143c6158e6565b6000918252602080832090910154868352601d825260408084206001600160a01b039092168452915281205550806114738161589f565b915050611404565b50600082815260216020526040812061149391614c4e565b6000828152601f602052604081206114aa91614c76565b600082815260208052604081206114c091614c94565b6000828152601e60209081526040808320839055600a825280832060098352908320815460018181018455928552929093208354600b9093020191825580830180549183019161150f9061586a565b61151a929190614cb2565b50600282810154908201805460ff9092169160ff19166001836003811115611544576115446158d0565b02179055506003820154816003015560048201816004019080546115679061586a565b611572929190614cb2565b5060058201816005019080546115879061586a565b611592929190614cb2565b5060068201816006019080546115a79061586a565b6115b2929190614cb2565b5060078281015490820180546001600160a01b0319166001600160a01b039092169190911790556008808301548183015560098084015481840155600a9384015492840192909255600085815260208390526040808220600381018390559283018290559282018190559201919091555133907ff184af570dff3a3eecc3464b3ee06c5b91b8cbd63a658135ded4f57fc3643579906116549085815260200190565b60405180910390a25050565b600354600090600160a01b900460ff161561168d5760405162461bcd60e51b8152600401610d449061545a565b6116973383612baf565b92915050565b6001546000906001600160a01b031633146116ca5760405162461bcd60e51b8152600401610d4490615416565b600354600160a01b900460ff166116f35760405162461bcd60e51b8152600401610d4490615572565b506003805460ff60a01b191690819055600160a01b900460ff1690565b8061171b338261229e565b6117795760405162461bcd60e51b815260206004820152602960248201527f736f7272792c20796f7520617265206e6f7420616e20656c696769626c65207260448201526832b1b4b834b2b73a1760b91b6064820152608401610d44565b600082815260106020908152604080832033808552908352818420548685526014909352922080548593929190829081106117b6576117b66158e6565b60009182526020918290209181049091015460ff601f9092166101000a9004166118545760405162461bcd60e51b815260206004820152604360248201527f4572726f723a20726563697069656e74277320656c696769626c696c6974792060448201527f686173206265656e2064697361626c656420666f7220746869732067726f757060648201526217171760e91b608482015260a401610d44565b6000858152601d60209081526040808320338085529252909120548690156118e45760405162461bcd60e51b815260206004820152603c60248201527f77686f6f70732c206c6f6f6b73206c696b6520796f7527766520616c7265616460448201527f79207265676973746572656420666f722074686973206576656e7421000000006064820152608401610d44565b600354600160a01b900460ff161561190e5760405162461bcd60e51b8152600401610d449061545a565b6000878152601e60205260409020546119c2576000878152601e60209081526040808320600190819055828052818420805480830182559085528385200180546001600160a01b03191690558a8452601f83528184208054918201815584528284208251938401928390529284905261198993920191614b56565b5060008781526021602090815260408220805460018101825590835291819020908204018054601f9092166101000a60ff021990911690555b6000878152601e6020908152604080832054601d835281842033808652908452828520919091558a8452601083528184209084528252808320548a845260139092528220805491929183908110611a1b57611a1b6158e6565b906000526020600020018054611a309061586a565b80601f0160208091040260200160405190810160405280929190818152602001828054611a5c9061586a565b8015611aa95780601f10611a7e57610100808354040283529160200191611aa9565b820191906000526020600020905b815481529060010190602001808311611a8c57829003601f168201915b50505060008c8152602080805260408083208054600181810183559185528385200180546001600160a01b031916331790558f8452601f8352908320805491820181558352918190208551959650611b08959201935085019150614b56565b506000898152602160209081526040808320805460018082018355918552838520848204018054601f9092166101000a60ff021990911690558c8452600990925290912060030154611b59916157fa565b60008a815260096020908152604080832060030193909355601e90522054611b829060016157fa565b60008a8152601e602090815260409182902092909255518a815233917f0695e999be8100bdb5bee8612337296508d527eae78c65b8f170eacb5a3b439d910160405180910390a2505050505050505050565b600081815260208080526040808320601f835281842060218452938290208154835181860281018601909452808452606095869586959193928591830182828015611c4857602002820191906000526020600020905b81546001600160a01b03168152600190910190602001808311611c2a575b5050505050925081805480602002602001604051908101604052809291908181526020016000905b82821015611d1c578382906000526020600020018054611c8f9061586a565b80601f0160208091040260200160405190810160405280929190818152602001828054611cbb9061586a565b8015611d085780601f10611cdd57610100808354040283529160200191611d08565b820191906000526020600020905b815481529060010190602001808311611ceb57829003601f168201915b505050505081526020019060010190611c70565b50505050915080805480602002602001604051908101604052809291908181526020018280548015611d8d57602002820191906000526020600020906000905b825461010083900a900460ff161515815260206001928301818104948501949093039092029101808411611d5c5790505b505050505090509250925092509193909250565b606060136000838152602001908152602001600020805480602002602001604051908101604052809291908181526020016000905b82821015610e51578382906000526020600020018054611df59061586a565b80601f0160208091040260200160405190810160405280929190818152602001828054611e219061586a565b8015611e6e5780601f10611e4357610100808354040283529160200191611e6e565b820191906000526020600020905b815481529060010190602001808311611e5157829003601f168201915b505050505081526020019060010190611dd6565b600080600080600080600960008881526020019081526020016000206040518061016001604052908160008201548152602001600182018054611ec49061586a565b80601f0160208091040260200160405190810160405280929190818152602001828054611ef09061586a565b8015611f3d5780601f10611f1257610100808354040283529160200191611f3d565b820191906000526020600020905b815481529060010190602001808311611f2057829003601f168201915b5050509183525050600282015460209091019060ff166003811115611f6457611f646158d0565b6003811115611f7557611f756158d0565b815260200160038201548152602001600482018054611f939061586a565b80601f0160208091040260200160405190810160405280929190818152602001828054611fbf9061586a565b801561200c5780601f10611fe15761010080835404028352916020019161200c565b820191906000526020600020905b815481529060010190602001808311611fef57829003601f168201915b505050505081526020016005820180546120259061586a565b80601f01602080910402602001604051908101604052809291908181526020018280546120519061586a565b801561209e5780601f106120735761010080835404028352916020019161209e565b820191906000526020600020905b81548152906001019060200180831161208157829003601f168201915b505050505081526020016006820180546120b79061586a565b80601f01602080910402602001604051908101604052809291908181526020018280546120e39061586a565b80156121305780601f1061210557610100808354040283529160200191612130565b820191906000526020600020905b81548152906001019060200180831161211357829003601f168201915b505050918352505060078201546001600160a01b0316602082015260088201546040808301919091526009830154606080840191909152600a909301546080909201919091528201519082015161010083015161012084015161014090940151929b919a509850919650945092505050565b6001546001600160a01b031633146121cc5760405162461bcd60e51b8152600401610d4490615416565b6001600160a01b0381166121f25760405162461bcd60e51b8152600401610d44906155c1565b600280546001600160a01b0319166001600160a01b0383161790556040517f162e32528b5907ecf876b3b7a4e5e0edf878642e3ec25852e3c35af1a4e1c04090600090a150565b600081815260146020908152604091829020805483518184028101840190945280845260609392830182828015610d0b576000918252602091829020805460ff1615158452908202830192909160019101808411610cda575094979650505050505050565b600354600090600160a01b900460ff16156122cb5760405162461bcd60e51b8152600401610d449061545a565b5060009081526010602090815260408083206001600160a01b039490941683529290522054151590565b6000818152600960205260409020600481018054606092839283929091600581019160069091019083906123289061586a565b80601f01602080910402602001604051908101604052809291908181526020018280546123549061586a565b80156123a15780601f10612376576101008083540402835291602001916123a1565b820191906000526020600020905b81548152906001019060200180831161238457829003601f168201915b505050505092508180546123b49061586a565b80601f01602080910402602001604051908101604052809291908181526020018280546123e09061586a565b801561242d5780601f106124025761010080835404028352916020019161242d565b820191906000526020600020905b81548152906001019060200180831161241057829003601f168201915b505050505091508080546124409061586a565b80601f016020809104026020016040519081016040528092919081815260200182805461246c9061586a565b8015611d8d5780601f1061248e57610100808354040283529160200191611d8d565b820191906000526020600020905b81548152906001019060200180831161249c5750969b959a50929850939650505050505050565b806124ce3382612baf565b61252d5760405162461bcd60e51b815260206004820152602a60248201527f736f7272792c20796f7520617265206e6f7420612072656769737465726564206044820152693932b1b4b834b2b73a1760b11b6064820152608401610d44565b6000828152601060209081526040808320338085529083528184205486855260159093529220805485939291908290811061256a5761256a6158e6565b90600052602060002090602091828204019190069054906101000a900460ff1615156001151514156125fa5760405162461bcd60e51b815260206004820152603360248201527f77686f6f70732c206c6f6f6b73206c696b6520796f7527766520616c726561646044820152727920636c61696d65642077696e6e696e67732160681b6064820152608401610d44565b600354600160a01b900460ff16156126245760405162461bcd60e51b8152600401610d449061545a565b600085815260106020908152604080832033845282528083205488845260159092529091208054600191908390811061265f5761265f6158e6565b6000918252602080832081830401805460ff601f9094166101000a938402191694151592909202939093179055878152600990915260408120600a018054916126a78361589f565b90915550506000868152600960208190526040808320909101549051339282156108fc02929190818181858888f193505050501580156126eb573d6000803e3d6000fd5b5060405186815233907f1a31e733a172afcf46074b3106c17f0c298e226442682a03c1e99ce256139ec2906020015b60405180910390a2505050505050565b6000818152600d60209081526040808320600f8352818420600e84529382902081548351818602810186019094528084526060958695869591939285918301828280156127a057602002820191906000526020600020905b81546001600160a01b03168152600190910190602001808311612782575b505050505092508180548060200260200160405190810160405280929190818152602001828054801561281257602002820191906000526020600020906000905b825461010083900a900460ff1615158152602060019283018181049485019490930390920291018084116127e15790505b5050505050915080805480602002602001604051908101604052809291908181526020016000905b828210156128e65783829060005260206000200180546128599061586a565b80601f01602080910402602001604051908101604052809291908181526020018280546128859061586a565b80156128d25780601f106128a7576101008083540402835291602001916128d2565b820191906000526020600020905b8154815290600101906020018083116128b557829003601f168201915b50505050508152602001906001019061283a565b5050505090509250925092509193909250565b6001546001600160a01b031633146129235760405162461bcd60e51b8152600401610d4490615416565b600354600160a01b900460ff1661294c5760405162461bcd60e51b8152600401610d4490615572565b602280546001600160a01b0319166001600160a01b0383169081179091556040519081527f450db8da6efbe9c22f2347f7c2021231df1fc58d3ae9a2fa75d39fa4461993059060200160405180910390a150565b600354600090600160a01b900460ff16156129cd5760405162461bcd60e51b8152600401610d449061545a565b506000908152601760209081526040808320338452909152902054151590565b806129f83382613f10565b612a145760405162461bcd60e51b8152600401610d44906154e5565b600354600160a01b900460ff1615612a3e5760405162461bcd60e51b8152600401610d449061545a565b600082815260096020526040902060030154612ab25760405162461bcd60e51b815260206004820152602d60248201527f43616e277420656e6420726567697374726174696f6e2077697468207a65726f60448201526c2072656769737472616e74732160981b6064820152608401610d44565b6005546000838152600960205260408120600801549091606491612ad69190615834565b612ae09190615812565b6002546040519192506001600160a01b03169082156108fc029083906000818181858888f19350505050158015612b1b573d6000803e3d6000fd5b50600083815260096020526040812060080154612b39908390615853565b600085815260096020526040902060030154909150612b589082615812565b600085815260096020818152604092839020918201939093556002908101805460ff191690911790555185815233917f0eac29f28d53644f45e1f9f2feef665e4c5d7816090d91e169176fb4e23086299101610f53565b600354600090600160a01b900460ff1615612bdc5760405162461bcd60e51b8152600401610d449061545a565b506000908152601d602090815260408083206001600160a01b039490941683529290522054151590565b6003546001600160a01b03163314612c305760405162461bcd60e51b8152600401610d449061552e565b6113908282614851565b8051611390906000906020840190614b56565b600354600090600160a01b900460ff1615612c7a5760405162461bcd60e51b8152600401610d449061545a565b506000908152600960205260409020600701546001600160a01b0390811691161490565b6003546001600160a01b0316331480612cc157506001546001600160a01b031633145b80612cd657506002546001600160a01b031633145b612d3c5760405162461bcd60e51b815260206004820152603160248201527f6f6e6c7920736f6d656f6e652066726f6d20632d73756974652063616e2063616044820152703636103a3434b990333ab731ba34b7b71760791b6064820152608401610d44565b600354600160a01b900460ff1615612d665760405162461bcd60e51b8152600401610d449061545a565b6003805460ff60a01b1916600160a01b179055565b606060008054612d8a9061586a565b80601f0160208091040260200160405190810160405280929190818152602001828054612db69061586a565b8015612e035780601f10612dd857610100808354040283529160200191612e03565b820191906000526020600020905b815481529060010190602001808311612de657829003601f168201915b5050505050905090565b60006116973383613f10565b600354600160a01b900460ff1615612e435760405162461bcd60e51b8152600401610d449061545a565b80612e4e3382613f10565b612e6a5760405162461bcd60e51b8152600401610d44906154e5565b60008281526010602090815260408083206001600160a01b03881684529091529020548290859015612efd5760405162461bcd60e51b815260206004820152603660248201527f57686f6f70732c2074686973206164647265737320697320616c726561647920604482015275616e20656c696769626c6520726563697069656e742160501b6064820152608401610d44565b600084815260116020526040902054612fe757600084815260116020908152604080832060019081905560128352818420805480830182559085528385200180546001600160a01b03191690558784526013835281842080549182018155845282842082519384019283905292849052612f7993920191614b56565b50600084815260146020908152604080832080546001818101835591855283852084820401805460ff601f93841661010090810a8202199092169092558a8752601586529386208054938401815586529484902093820490930180549190931690910a928302191690911790555b600084815260116020908152604080832054601083528184206001600160a01b038b1680865290845282852091909155878452601283528184208054600181810183559186528486200180546001600160a01b0319169092179091558784526013835290832080549182018155835291819020875161306d939190910191880190614b56565b506000848152601460209081526040808320805460018082018355918552838520848204018054601f92831661010090810a60ff81810219909316179092558a875260158652848720805480860182559088528688208782040180549190941690920a02191690558784526011909252909120546130ea916157fa565b60008581526011602090815260409182902092909255518581526001600160a01b038816917f46b8357d30dedd734a71d059a385f46b6e667bff20233f907477760207f88965910161271a565b600081815260126020908152604091829020805483518184028101840190945280845260609392830182828015610d0b57602002820191906000526020600020905b81546001600160a01b031681526001909101906020018083116131795750505050509050919050565b806131ad3382613f10565b6131c95760405162461bcd60e51b8152600401610d44906154e5565b600354600160a01b900460ff16156131f35760405162461bcd60e51b8152600401610d449061545a565b600082815260096020908152604091829020600201805460ff19166001179055905183815233917f9118a3ee6cd03b7e9740d3092ac8fab787a7f93f52732d7bcd32f35dbea62a9c9101611654565b8361324d3382612c4d565b61325657600080fd5b835115613284576000858152600960209081526040909120855161328292600490920191870190614b56565b505b8251156132b257600085815260096020908152604090912084516132b092600590920191860190614b56565b505b8151156132e057600085815260096020908152604090912083516132de92600690920191850190614b56565b505b6000858152600960205260409081902090517fcd9ad49d834aeea746bafd2d26eebd3d01ebac2d8f5d3f53d7f3884292e5835f9161332d91889160048101916005820191600601906157b0565b60405180910390a15050505050565b816133473382613f10565b6133635760405162461bcd60e51b8152600401610d44906154e5565b600354600160a01b900460ff161561338d5760405162461bcd60e51b8152600401610d449061545a565b60008381526010602090815260408083206001600160a01b03861684529091529020548390839080156133d25760405162461bcd60e51b8152600401610d4490615488565b60008681526017602090815260408083206001600160a01b0389168452909152902054869086908061347c5760405162461bcd60e51b815260206004820152604760248201527f4572726f723a2074686973206164647265737320646f6573206e6f742068617660448201527f6520612070656e64696e67207265717565737420746f206a6f696e20746869736064820152661033b937bab81760c91b608482015260a401610d44565b60008981526017602090815260408083206001600160a01b038c1684528252808320548c8452601990925282208054919291839081106134be576134be6158e6565b60009182526020808320909101548d8352601a9091526040822080546001600160a01b03909216935090849081106134f8576134f86158e6565b90600052602060002001805461350d9061586a565b80601f01602080910402602001604051908101604052809291908181526020018280546135399061586a565b80156135865780601f1061355b57610100808354040283529160200191613586565b820191906000526020600020905b81548152906001019060200180831161356957829003601f168201915b505050505090506001601c60008e815260200190815260200160002084815481106135b3576135b36158e6565b90600052602060002090602091828204019190066101000a81548160ff0219169083151502179055506135e782828e612e19565b7fa99702a14ae3f010941d30549064432035071f0e359c50ec6b37d47f430d557a8c838360405161361a939291906156e0565b60405180910390a1505050505050505050505050565b60606006805480602002602001604051908101604052809291908181526020018280548015612e0357602002820191906000526020600020905b81548152602001906001019080831161366a575050505050905090565b806136923382613f10565b806136a757506003546001600160a01b031633145b6136b057600080fd5b600354600160a01b900460ff16156136da5760405162461bcd60e51b8152600401610d449061545a565b6136e48383614902565b505050565b600080546136f69061586a565b80601f01602080910402602001604051908101604052809291908181526020018280546137229061586a565b801561376f5780601f106137445761010080835404028352916020019161376f565b820191906000526020600020905b81548152906001019060200180831161375257829003601f168201915b505050505081565b60006060600080600080600080600960008a815260200190815260200160002060405180610160016040529081600082015481526020016001820180546137bd9061586a565b80601f01602080910402602001604051908101604052809291908181526020018280546137e99061586a565b80156138365780601f1061380b57610100808354040283529160200191613836565b820191906000526020600020905b81548152906001019060200180831161381957829003601f168201915b5050509183525050600282015460209091019060ff16600381111561385d5761385d6158d0565b600381111561386e5761386e6158d0565b81526020016003820154815260200160048201805461388c9061586a565b80601f01602080910402602001604051908101604052809291908181526020018280546138b89061586a565b80156139055780601f106138da57610100808354040283529160200191613905565b820191906000526020600020905b8154815290600101906020018083116138e857829003601f168201915b5050505050815260200160058201805461391e9061586a565b80601f016020809104026020016040519081016040528092919081815260200182805461394a9061586a565b80156139975780601f1061396c57610100808354040283529160200191613997565b820191906000526020600020905b81548152906001019060200180831161397a57829003601f168201915b505050505081526020016006820180546139b09061586a565b80601f01602080910402602001604051908101604052809291908181526020018280546139dc9061586a565b8015613a295780601f106139fe57610100808354040283529160200191613a29565b820191906000526020600020905b815481529060010190602001808311613a0c57829003601f168201915b505050505081526020016007820160009054906101000a90046001600160a01b03166001600160a01b03166001600160a01b031681526020016008820154815260200160098201548152602001600a8201548152505090508060000151816020015182604001518360600151846101000151856101200151866101400151975097509750975097509750975050919395979092949650565b60606007805480602002602001604051908101604052809291908181526020016000905b82821015613b91578382906000526020600020018054613b049061586a565b80601f0160208091040260200160405190810160405280929190818152602001828054613b309061586a565b8015613b7d5780601f10613b5257610100808354040283529160200191613b7d565b820191906000526020600020905b815481529060010190602001808311613b6057829003601f168201915b505050505081526020019060010190613ae5565b50505050905090565b613c006040805161016081018252600080825260606020830152909182019081526020016000815260200160608152602001606081526020016060815260200160006001600160a01b031681526020016000815260200160008152602001600081525090565b81613c0b3382613f10565b613c275760405162461bcd60e51b8152600401610d44906154e5565b600960008481526020019081526020016000206040518061016001604052908160008201548152602001600182018054613c609061586a565b80601f0160208091040260200160405190810160405280929190818152602001828054613c8c9061586a565b8015613cd95780601f10613cae57610100808354040283529160200191613cd9565b820191906000526020600020905b815481529060010190602001808311613cbc57829003601f168201915b5050509183525050600282015460209091019060ff166003811115613d0057613d006158d0565b6003811115613d1157613d116158d0565b815260200160038201548152602001600482018054613d2f9061586a565b80601f0160208091040260200160405190810160405280929190818152602001828054613d5b9061586a565b8015613da85780601f10613d7d57610100808354040283529160200191613da8565b820191906000526020600020905b815481529060010190602001808311613d8b57829003601f168201915b50505050508152602001600582018054613dc19061586a565b80601f0160208091040260200160405190810160405280929190818152602001828054613ded9061586a565b8015613e3a5780601f10613e0f57610100808354040283529160200191613e3a565b820191906000526020600020905b815481529060010190602001808311613e1d57829003601f168201915b50505050508152602001600682018054613e539061586a565b80601f0160208091040260200160405190810160405280929190818152602001828054613e7f9061586a565b8015613ecc5780601f10613ea157610100808354040283529160200191613ecc565b820191906000526020600020905b815481529060010190602001808311613eaf57829003601f168201915b505050918352505060078201546001600160a01b031660208201526008820154604082015260098201546060820152600a9091015460809091015291505b50919050565b6000818152600b602090815260408083206001600160a01b038616845290915281205480613f42576000915050611697565b6000838152600f60205260409020805482908110613f6257613f626158e6565b90600052602060002090602091828204019190069054906101000a900460ff161515600115151491505092915050565b80613f9d3382612c4d565b613fa657600080fd5b600354600160a01b900460ff1615613fd05760405162461bcd60e51b8152600401610d449061545a565b60008281526009602052604081206008018054349290613ff19084906157fa565b90915550506000828152600960209081526040918290206008015482518581529182015233917f5dc1fe5ab986a852c4eda8e8bb94247d13307065c593fb83f1a09be2736793829101611654565b6003546001600160a01b031633146140695760405162461bcd60e51b8152600401610d449061552e565b6000828152600b602090815260408083206001600160a01b0385168452825280832054858452600f909252909120805460019190839081106140ad576140ad6158e6565b90600052602060002090602091828204019190066101000a81548160ff0219169083151502179055507f2d19f1f4aa7d21a07d18586e49b3e0529d148488052497ea97f06d7266c3cbbe83600e6000868152602001908152602001600020838154811061411c5761411c6158e6565b90600052602060002001604051614134929190615797565b60405180910390a1505050565b6003546001600160a01b0316331461416b5760405162461bcd60e51b8152600401610d449061552e565b600354600160a01b900460ff16156141955760405162461bcd60e51b8152600401610d449061545a565b600854604080516101608101825282815260208082018581526000838501819052606084018190528451808401865281815260808501528451808401865281815260a08501528451808401865281815260c085015260e0840181905261010084018190526101208401819052610140840181905285815260098352939093208251815592518051929384939092614233926001850192910190614b56565b50604082015160028201805460ff19166001836003811115614257576142576158d0565b02179055506060820151600382015560808201518051614281916004840191602090910190614b56565b5060a0820151805161429d916005840191602090910190614b56565b5060c082015180516142b9916006840191602090910190614b56565b5060e0820151600782810180546001600160a01b0319166001600160a01b03909316929092179091556101008301516008830155610120830151600983015561014090920151600a909101556006805460018181019092557ff652222313e28459528d920b65115c16c04f3efc82aaedc97be59f3f377c0d3f01849055815490810182556000919091528351614376917fa66cc928b5edb82af9bd49922954155ab7b0942694bea4ce44661d9a8736c68801906020860190614b56565b5060008281526010602090815260408083208380528252808320839055848352601890915280822091909155517fa27df82d27a5b2a66bcd0c6210f8024283ed1197a6d8e30372f8df2e487c376e906143d29084908690615732565b60405180910390a1600880549060006143ea8361589f565b9190505550505050565b6000838152600b602090815260408083206001600160a01b0386168452909152902054839083901561442557600080fd5b6003546001600160a01b0316331461444f5760405162461bcd60e51b8152600401610d449061552e565b61445a85858561497b565b5050505050565b600354600090600160a01b900460ff161561448e5760405162461bcd60e51b8152600401610d449061545a565b6116973383612c4d565b6060806060836144a83382613f10565b6144c45760405162461bcd60e51b8152600401610d44906154e5565b6000858152601960209081526040808320601a8352818420601c8452938290208154835181860281018601909452808452919493909291859183018282801561453657602002820191906000526020600020905b81546001600160a01b03168152600190910190602001808311614518575b5050505050925081805480602002602001604051908101604052809291908181526020016000905b8282101561460a57838290600052602060002001805461457d9061586a565b80601f01602080910402602001604051908101604052809291908181526020018280546145a99061586a565b80156145f65780601f106145cb576101008083540402835291602001916145f6565b820191906000526020600020905b8154815290600101906020018083116145d957829003601f168201915b50505050508152602001906001019061455e565b5050505091508080548060200260200160405190810160405280929190818152602001828054801561467b57602002820191906000526020600020906000905b825461010083900a900460ff16151581526020600192830181810494850194909303909202910180841161464a5790505b50505050509050935093509350509193909250565b6000818152601260209081526040808320601383528184206014845293829020815483518186028101860190945280845260609586958695919392859183018282801561470657602002820191906000526020600020905b81546001600160a01b031681526001909101906020018083116146e8575b5050505050925081805480602002602001604051908101604052809291908181526020016000905b82821015611d1c57838290600052602060002001805461474d9061586a565b80601f01602080910402602001604051908101604052809291908181526020018280546147799061586a565b80156147c65780601f1061479b576101008083540402835291602001916147c6565b820191906000526020600020905b8154815290600101906020018083116147a957829003601f168201915b50505050508152602001906001019061472e565b60006147e63383612baf565b6147f257506000919050565b60008281526010602090815260408083203384528252808320548584526015909252909120805482908110614829576148296158e6565b60009182526020918290209181049091015460ff601f9092166101000a900416159392505050565b6000828152600b602090815260408083206001600160a01b0385168452825280832054858452600f9092528220805491929183908110614893576148936158e6565b90600052602060002090602091828204019190066101000a81548160ff0219169083151502179055507f021d633158208ba55afbe8aae9878e510cccaf8f1fe2d8c42455d95f58f3b1f083600e6000868152602001908152602001600020838154811061411c5761411c6158e6565b60008181526016602090815260408083206001600160a01b038616808552908352818420805460ff19166001179055848452600983529281902060070180546001600160a01b03191684179055518381527f5fd6d0b7e707fe344bd2a1887f9d0eeea8bfcac6f339ba4200e74f0647f101c09101611654565b6000838152600c6020526040902054614a40576000838152600c60208181526040808420600190819055600d8352818520805480830182559086528386200180546001600160a01b0319169055878552600f835281852080548083018255908652838620848204018054601f9092166101000a60ff02199091169055878552600e83528185208054918201815585529382902081518083019092528382526b7a65726f206164647265737360a01b91909201908152614a3e939190910191614b56565b505b6000838152600c6020908152604080832054600b83528184206001600160a01b03871680865290845282852091909155868452600d83528184208054600181810183559186528486200180546001600160a01b031916909217909155868452600f83528184208054808301825590855283852084820401805460ff601f9093166101000a92830219169091179055868452600e8352908320805491820181558352918190208351614af8939190910191840190614b56565b506000838152600c6020526040902054614b139060016157fa565b6000848152600c602052604090819020829055517f88356b104f5ba3e9281d371b21296e4e0390dda6f4bcc4bfc219f6d67cc8ae50916141349186918691615713565b828054614b629061586a565b90600052602060002090601f016020900481019282614b845760008555614bca565b82601f10614b9d57805160ff1916838001178555614bca565b82800160010185558215614bca579182015b82811115614bca578251825591602001919060010190614baf565b50614bd6929150614d2d565b5090565b828054614be69061586a565b90600052602060002090601f016020900481019282614c085760008555614bca565b82601f10614c215782800160ff19823516178555614bca565b82800160010185558215614bca579182015b82811115614bca578235825591602001919060010190614c33565b50805460008255601f016020900490600052602060002090810190614c739190614d2d565b50565b5080546000825590600052602060002090810190614c739190614d42565b5080546000825590600052602060002090810190614c739190614d2d565b828054614cbe9061586a565b90600052602060002090601f016020900481019282614ce05760008555614bca565b82601f10614cf15780548555614bca565b82800160010185558215614bca57600052602060002091601f016020900482015b82811115614bca578254825591600101919060010190614d12565b5b80821115614bd65760008155600101614d2e565b80821115614bd6576000614d568282614d5f565b50600101614d42565b508054614d6b9061586a565b6000825580601f10614d7b575050565b601f016020900490600052602060002090810190614c739190614d2d565b80356001600160a01b0381168114610d6b57600080fd5b600082601f830112614dc157600080fd5b813567ffffffffffffffff80821115614ddc57614ddc6158fc565b604051601f8301601f19908116603f01168101908282118183101715614e0457614e046158fc565b81604052838152866020858801011115614e1d57600080fd5b836020870160208301376000602085830101528094505050505092915050565b600060208284031215614e4f57600080fd5b614e5882614d99565b9392505050565b600080600060608486031215614e7457600080fd5b614e7d84614d99565b9250602084013567ffffffffffffffff811115614e9957600080fd5b614ea586828701614db0565b925050604084013590509250925092565b60008060408385031215614ec957600080fd5b614ed283614d99565b946020939093013593505050565b600060208284031215614ef257600080fd5b813567ffffffffffffffff811115614f0957600080fd5b614f1584828501614db0565b949350505050565b600060208284031215614f2f57600080fd5b5035919050565b60008060408385031215614f4957600080fd5b82359150614f5960208401614d99565b90509250929050565b600080600060608486031215614f7757600080fd5b83359250614f8760208501614d99565b9150604084013567ffffffffffffffff811115614fa357600080fd5b614faf86828701614db0565b9150509250925092565b600080600060408486031215614fce57600080fd5b83359250602084013567ffffffffffffffff80821115614fed57600080fd5b818601915086601f83011261500157600080fd5b81358181111561501057600080fd5b87602082850101111561502257600080fd5b6020830194508093505050509250925092565b6000806000806080858703121561504b57600080fd5b84359350602085013567ffffffffffffffff8082111561506a57600080fd5b61507688838901614db0565b9450604087013591508082111561508c57600080fd5b61509888838901614db0565b935060608701359150808211156150ae57600080fd5b506150bb87828801614db0565b91505092959194509250565b600081518084526020808501945080840160005b838110156151005781516001600160a01b0316875295820195908201906001016150db565b509495945050505050565b600081518084526020808501945080840160005b8381101561510057815115158752958201959082019060010161511f565b600081518084526020808501808196508360051b8101915082860160005b858110156151855782840389526151738483516151b4565b9885019893509084019060010161515b565b5091979650505050505050565b600481106151b057634e487b7160e01b600052602160045260246000fd5b9052565b6000815180845260005b818110156151da576020818501810151868301820152016151be565b818111156151ec576000602083870101525b50601f01601f19169290920160200192915050565b8054600090600181811c908083168061521b57607f831692505b602080841082141561523d57634e487b7160e01b600052602260045260246000fd5b83885260208801828015615258576001811461526957615294565b60ff19871682528282019750615294565b60008981526020902060005b8781101561528e57815484820152908601908401615275565b83019850505b5050505050505092915050565b602081526000614e5860208301846150c7565b6060815260006152c760608301866150c7565b82810360208401526152d9818661510b565b905082810360408401526152ed818561513d565b9695505050505050565b60608152600061530a60608301866150c7565b828103602084015261531c818661513d565b905082810360408401526152ed818561510b565b602081526000614e58602083018461510b565b602081526000614e58602083018461513d565b6020808252825182820181905260009190848201906040850190845b8181101561538e57835183529284019291840191600101615372565b50909695505050505050565b60a081016153a88288615192565b8560208301528460408301528360608301528260808301529695505050505050565b602081526000614e5860208301846151b4565b6060815260006153f060608301866151b4565b828103602084015261540281866151b4565b905082810360408401526152ed81856151b4565b60208082526024908201527f6f6e6c79207468652063656f2063616e2063616c6c20746869732066756e637460408201526334b7b71760e11b606082015260800190565b6020808252601490820152733a34329030b8381034b9903830bab9b2b217171760611b604082015260600190565b6020808252603f908201527f4572726f723a20726563697069656e7420697320616c726561647920616e206560408201527f6c696769626c6520726563697069656e7420696e207468652067726f75702e00606082015260800190565b60208082526029908201527f6f6e6c792067726f75702061646d696e732063616e2063616c6c20746869732060408201526866756e6374696f6e2160b81b606082015260800190565b60208082526024908201527f6f6e6c792074686520636f6f2063616e2063616c6c20746869732066756e637460408201526334b7b71760e11b606082015260800190565b6020808252602f908201527f66756e6374696f6e2063616e206f6e6c792062652063616c6c6564207768656e60408201526e1030b8381034b9903830bab9b2b21760891b606082015260800190565b6020808252601f908201527f63616e6e6f74207365742043454f20746f207a65726f20616464726573732100604082015260600190565b6020815281516020820152600060208301516101608060408501526156216101808501836151b4565b915060408501516156356060860182615192565b50606085015160808501526080850151601f19808685030160a087015261565c84836151b4565b935060a08701519150808685030160c087015261567984836151b4565b935060c08701519150808685030160e08701525061569783826151b4565b92505060e08501516101006156b6818701836001600160a01b03169052565b86015161012086810191909152860151610140808701919091529095015193019290925250919050565b8381526001600160a01b038316602082015260606040820181905260009061570a908301846151b4565b95945050505050565b9283526001600160a01b03919091166020830152604082015260600190565b828152604060208201526000614f1560408301846151b4565b87815260e06020820152600061576460e08301896151b4565b90506157736040830188615192565b8560608301528460808301528360a08301528260c083015298975050505050505050565b828152604060208201526000614f156040830184615201565b8481526080602082015260006157c96080830186615201565b82810360408401526157db8186615201565b905082810360608401526157ef8185615201565b979650505050505050565b6000821982111561580d5761580d6158ba565b500190565b60008261582f57634e487b7160e01b600052601260045260246000fd5b500490565b600081600019048311821515161561584e5761584e6158ba565b500290565b600082821015615865576158656158ba565b500390565b600181811c9082168061587e57607f821691505b60208210811415613f0a57634e487b7160e01b600052602260045260246000fd5b60006000198214156158b3576158b36158ba565b5060010190565b634e487b7160e01b600052601160045260246000fd5b634e487b7160e01b600052602160045260246000fd5b634e487b7160e01b600052603260045260246000fd5b634e487b7160e01b600052604160045260246000fdfea2646970667358221220920ea1da5fc1549c18961df2d829c6f7417a406f94e540cdf94ea66bc688c29464736f6c63430008070033",
  "immutableReferences": {},
  "source": "// SPDX-License-Identifier: MIT\npragma solidity ^0.8.0;\n\nimport \"../roles/AdminsManager.sol\";\n\ncontract EthDropCore is AdminsManager {\n    // Set in case the core contract is broken and an upgrade is required\n    address public newContractAddress;\n\n    /// @notice Creates the main EthDrop smart contract instance.\n    constructor () {\n        // Starts paused.\n\n        // TODO \n        paused = false;\n\n        // the creator of the contract is the initial CEO\n        ceoAddress = msg.sender;\n\n    }\n\n    /// @dev Used to mark the smart contract as upgraded, in case there is a serious\n    ///  breaking bug. This method does nothing but keep track of the new contract and\n    ///  emit a message indicating that the new address is set. It's up to clients of this\n    ///  contract to update to the new contract address in that case. (This contract will\n    ///  be paused indefinitely if such an upgrade takes place.)\n    /// @param _v2Address new address\n    function setNewAddress(address _v2Address) external onlyCEO whenPaused {\n        // See README.md for updgrade plan\n        newContractAddress = _v2Address;\n        emit ContractUpgrade(_v2Address);\n    }\n\n    function foobar() external pure returns (string memory) {\n        return \"foobarrrrrrr!\";\n    }\n}",
  "sourcePath": "/Users/jim/trash/EthDrop/contracts/core/EthDropCore.sol",
  "compiler": {
    "name": "solc",
    "version": "0.8.7+commit.e28d00a7.Emscripten.clang"
  },
  "schemaVersion": "3.4.3",
  "updatedAt": "2021-09-18T21:03:43.037Z",
  "networkType": "ethereum",
  "devdoc": {
    "kind": "dev",
    "methods": {
      "pause()": {
        "details": "Called by any \"C-level\" role to pause the contract. Used only when  a bug or exploit is detected and we need to limit damage."
      },
      "setCEO(address)": {
        "details": "Assigns a new address to act as the CEO. Only available to the current CEO.",
        "params": {
          "_newCEO": "The address of the new CEO"
        }
      },
      "setCFO(address)": {
        "details": "Assigns a new address to act as the CFO. Only available to the current CEO.",
        "params": {
          "_newCFO": "The address of the new CFO"
        }
      },
      "setCOO(address)": {
        "details": "Assigns a new address to act as the COO. Only available to the current CEO.",
        "params": {
          "_newCOO": "The address of the new COO"
        }
      },
      "setNewAddress(address)": {
        "details": "Used to mark the smart contract as upgraded, in case there is a serious  breaking bug. This method does nothing but keep track of the new contract and  emit a message indicating that the new address is set. It's up to clients of this  contract to update to the new contract address in that case. (This contract will  be paused indefinitely if such an upgrade takes place.)",
        "params": {
          "_v2Address": "new address"
        }
      },
      "unpause()": {
        "details": "Unpauses the smart contract. Can only be called by the CEO, since  one reason we may pause the contract is when CFO or COO accounts are  compromised."
      }
    },
    "version": 1
  },
  "userdoc": {
    "kind": "user",
    "methods": {
      "constructor": {
        "notice": "Creates the main EthDrop smart contract instance."
      },
      "unpause()": {
        "notice": "This is public rather than external so it can be called by  derived contracts."
      }
    },
    "version": 1
  }
}