{
  "contractName": "RecipientsManager",
  "abi": [
    {
      "inputs": [],
      "stateMutability": "nonpayable",
      "type": "constructor"
    },
    {
      "anonymous": false,
      "inputs": [
        {
          "indexed": false,
          "internalType": "bool",
          "name": "isPaused",
          "type": "bool"
        }
      ],
      "name": "AppPaused",
      "type": "event"
    },
    {
      "anonymous": false,
      "inputs": [],
      "name": "CfoUpdated",
      "type": "event"
    },
    {
      "anonymous": false,
      "inputs": [
        {
          "indexed": false,
          "internalType": "address",
          "name": "newContract",
          "type": "address"
        }
      ],
      "name": "ContractUpgrade",
      "type": "event"
    },
    {
      "anonymous": false,
      "inputs": [],
      "name": "CooUpdated",
      "type": "event"
    },
    {
      "anonymous": false,
      "inputs": [
        {
          "indexed": true,
          "internalType": "address",
          "name": "account",
          "type": "address"
        },
        {
          "indexed": false,
          "internalType": "uint256",
          "name": "groupId",
          "type": "uint256"
        }
      ],
      "name": "EligibleRecipientAdded",
      "type": "event"
    },
    {
      "anonymous": false,
      "inputs": [
        {
          "indexed": true,
          "internalType": "address",
          "name": "account",
          "type": "address"
        },
        {
          "indexed": false,
          "internalType": "uint256",
          "name": "groupId",
          "type": "uint256"
        }
      ],
      "name": "EligibleRecipientRemoved",
      "type": "event"
    },
    {
      "anonymous": false,
      "inputs": [],
      "name": "EventClose",
      "type": "event"
    },
    {
      "anonymous": false,
      "inputs": [
        {
          "indexed": false,
          "internalType": "uint256",
          "name": "groupId",
          "type": "uint256"
        },
        {
          "indexed": false,
          "internalType": "address",
          "name": "account",
          "type": "address"
        },
        {
          "indexed": false,
          "internalType": "uint256",
          "name": "index",
          "type": "uint256"
        }
      ],
      "name": "NewUserRequestedToJoinGroup",
      "type": "event"
    },
    {
      "anonymous": false,
      "inputs": [
        {
          "indexed": true,
          "internalType": "address",
          "name": "account",
          "type": "address"
        },
        {
          "indexed": false,
          "internalType": "uint256",
          "name": "groupId",
          "type": "uint256"
        }
      ],
      "name": "RecipientRegistered",
      "type": "event"
    },
    {
      "anonymous": false,
      "inputs": [],
      "name": "RegistrationOpen",
      "type": "event"
    },
    {
      "anonymous": false,
      "inputs": [
        {
          "indexed": false,
          "internalType": "address",
          "name": "from",
          "type": "address"
        },
        {
          "indexed": false,
          "internalType": "address",
          "name": "to",
          "type": "address"
        }
      ],
      "name": "Transfer",
      "type": "event"
    },
    {
      "anonymous": false,
      "inputs": [
        {
          "indexed": true,
          "internalType": "address",
          "name": "account",
          "type": "address"
        },
        {
          "indexed": false,
          "internalType": "uint256",
          "name": "groupId",
          "type": "uint256"
        }
      ],
      "name": "WinningsClaimed",
      "type": "event"
    },
    {
      "anonymous": false,
      "inputs": [],
      "name": "WinningsClaimingOpen",
      "type": "event"
    },
    {
      "inputs": [],
      "name": "ceoAddress",
      "outputs": [
        {
          "internalType": "address",
          "name": "",
          "type": "address"
        }
      ],
      "stateMutability": "view",
      "type": "function",
      "constant": true
    },
    {
      "inputs": [],
      "name": "cfoAddress",
      "outputs": [
        {
          "internalType": "address",
          "name": "",
          "type": "address"
        }
      ],
      "stateMutability": "view",
      "type": "function",
      "constant": true
    },
    {
      "inputs": [],
      "name": "cooAddress",
      "outputs": [
        {
          "internalType": "address",
          "name": "",
          "type": "address"
        }
      ],
      "stateMutability": "view",
      "type": "function",
      "constant": true
    },
    {
      "inputs": [],
      "name": "getCFO",
      "outputs": [
        {
          "internalType": "address",
          "name": "",
          "type": "address"
        }
      ],
      "stateMutability": "view",
      "type": "function",
      "constant": true
    },
    {
      "inputs": [],
      "name": "getCOO",
      "outputs": [
        {
          "internalType": "address",
          "name": "",
          "type": "address"
        }
      ],
      "stateMutability": "view",
      "type": "function",
      "constant": true
    },
    {
      "inputs": [
        {
          "internalType": "uint256",
          "name": "groupId",
          "type": "uint256"
        }
      ],
      "name": "getGroupEventData",
      "outputs": [
        {
          "internalType": "enum EthDropBase.EventState",
          "name": "",
          "type": "uint8"
        },
        {
          "internalType": "uint256",
          "name": "",
          "type": "uint256"
        },
        {
          "internalType": "uint256",
          "name": "",
          "type": "uint256"
        },
        {
          "internalType": "uint256",
          "name": "",
          "type": "uint256"
        },
        {
          "internalType": "uint256",
          "name": "",
          "type": "uint256"
        }
      ],
      "stateMutability": "view",
      "type": "function",
      "constant": true
    },
    {
      "inputs": [],
      "name": "getGroupIds",
      "outputs": [
        {
          "internalType": "uint256[]",
          "name": "",
          "type": "uint256[]"
        }
      ],
      "stateMutability": "view",
      "type": "function",
      "constant": true
    },
    {
      "inputs": [],
      "name": "getGroupNames",
      "outputs": [
        {
          "internalType": "string[]",
          "name": "",
          "type": "string[]"
        }
      ],
      "stateMutability": "view",
      "type": "function",
      "constant": true
    },
    {
      "inputs": [
        {
          "internalType": "uint256",
          "name": "groupId",
          "type": "uint256"
        }
      ],
      "name": "getGroupPublicData",
      "outputs": [
        {
          "internalType": "uint256",
          "name": "",
          "type": "uint256"
        },
        {
          "internalType": "string",
          "name": "",
          "type": "string"
        },
        {
          "internalType": "enum EthDropBase.EventState",
          "name": "",
          "type": "uint8"
        },
        {
          "internalType": "uint256",
          "name": "",
          "type": "uint256"
        },
        {
          "internalType": "uint256",
          "name": "",
          "type": "uint256"
        },
        {
          "internalType": "uint256",
          "name": "",
          "type": "uint256"
        },
        {
          "internalType": "uint256",
          "name": "",
          "type": "uint256"
        }
      ],
      "stateMutability": "view",
      "type": "function",
      "constant": true
    },
    {
      "inputs": [],
      "name": "getString",
      "outputs": [
        {
          "internalType": "string",
          "name": "",
          "type": "string"
        }
      ],
      "stateMutability": "view",
      "type": "function",
      "constant": true
    },
    {
      "inputs": [],
      "name": "isCEO",
      "outputs": [
        {
          "internalType": "bool",
          "name": "",
          "type": "bool"
        }
      ],
      "stateMutability": "view",
      "type": "function",
      "constant": true
    },
    {
      "inputs": [],
      "name": "isCFO",
      "outputs": [
        {
          "internalType": "bool",
          "name": "",
          "type": "bool"
        }
      ],
      "stateMutability": "view",
      "type": "function",
      "constant": true
    },
    {
      "inputs": [],
      "name": "isCOO",
      "outputs": [
        {
          "internalType": "bool",
          "name": "",
          "type": "bool"
        }
      ],
      "stateMutability": "view",
      "type": "function",
      "constant": true
    },
    {
      "inputs": [],
      "name": "isPaused",
      "outputs": [
        {
          "internalType": "bool",
          "name": "",
          "type": "bool"
        }
      ],
      "stateMutability": "view",
      "type": "function",
      "constant": true
    },
    {
      "inputs": [],
      "name": "pause",
      "outputs": [],
      "stateMutability": "nonpayable",
      "type": "function"
    },
    {
      "inputs": [],
      "name": "paused",
      "outputs": [
        {
          "internalType": "bool",
          "name": "",
          "type": "bool"
        }
      ],
      "stateMutability": "view",
      "type": "function",
      "constant": true
    },
    {
      "inputs": [
        {
          "internalType": "address",
          "name": "_newCEO",
          "type": "address"
        }
      ],
      "name": "setCEO",
      "outputs": [],
      "stateMutability": "nonpayable",
      "type": "function"
    },
    {
      "inputs": [
        {
          "internalType": "address",
          "name": "_newCFO",
          "type": "address"
        }
      ],
      "name": "setCFO",
      "outputs": [],
      "stateMutability": "nonpayable",
      "type": "function"
    },
    {
      "inputs": [
        {
          "internalType": "address",
          "name": "_newCOO",
          "type": "address"
        }
      ],
      "name": "setCOO",
      "outputs": [],
      "stateMutability": "nonpayable",
      "type": "function"
    },
    {
      "inputs": [
        {
          "internalType": "string",
          "name": "_s",
          "type": "string"
        }
      ],
      "name": "setString",
      "outputs": [],
      "stateMutability": "nonpayable",
      "type": "function"
    },
    {
      "inputs": [],
      "name": "stringgg",
      "outputs": [
        {
          "internalType": "string",
          "name": "",
          "type": "string"
        }
      ],
      "stateMutability": "view",
      "type": "function",
      "constant": true
    },
    {
      "inputs": [],
      "name": "unpause",
      "outputs": [
        {
          "internalType": "bool",
          "name": "",
          "type": "bool"
        }
      ],
      "stateMutability": "nonpayable",
      "type": "function"
    },
    {
      "inputs": [],
      "name": "whoami",
      "outputs": [
        {
          "internalType": "address",
          "name": "",
          "type": "address"
        }
      ],
      "stateMutability": "view",
      "type": "function",
      "constant": true
    },
    {
      "inputs": [
        {
          "internalType": "address",
          "name": "account",
          "type": "address"
        },
        {
          "internalType": "uint256",
          "name": "groupId",
          "type": "uint256"
        }
      ],
      "name": "isEligibleRecipient",
      "outputs": [
        {
          "internalType": "bool",
          "name": "",
          "type": "bool"
        }
      ],
      "stateMutability": "view",
      "type": "function",
      "constant": true
    },
    {
      "inputs": [
        {
          "internalType": "uint256",
          "name": "groupId",
          "type": "uint256"
        }
      ],
      "name": "amIEligibleRecipient",
      "outputs": [
        {
          "internalType": "bool",
          "name": "",
          "type": "bool"
        }
      ],
      "stateMutability": "view",
      "type": "function",
      "constant": true
    },
    {
      "inputs": [
        {
          "internalType": "address",
          "name": "account",
          "type": "address"
        },
        {
          "internalType": "uint256",
          "name": "groupId",
          "type": "uint256"
        }
      ],
      "name": "isRegisteredRecipient",
      "outputs": [
        {
          "internalType": "bool",
          "name": "",
          "type": "bool"
        }
      ],
      "stateMutability": "view",
      "type": "function",
      "constant": true
    },
    {
      "inputs": [
        {
          "internalType": "uint256",
          "name": "groupId",
          "type": "uint256"
        }
      ],
      "name": "amIRegisteredRecipient",
      "outputs": [
        {
          "internalType": "bool",
          "name": "",
          "type": "bool"
        }
      ],
      "stateMutability": "view",
      "type": "function",
      "constant": true
    },
    {
      "inputs": [
        {
          "internalType": "uint256",
          "name": "groupId",
          "type": "uint256"
        }
      ],
      "name": "amIPendingNewJoiner",
      "outputs": [
        {
          "internalType": "bool",
          "name": "",
          "type": "bool"
        }
      ],
      "stateMutability": "view",
      "type": "function",
      "constant": true
    },
    {
      "inputs": [
        {
          "internalType": "uint256",
          "name": "groupId",
          "type": "uint256"
        }
      ],
      "name": "registerForEvent",
      "outputs": [],
      "stateMutability": "nonpayable",
      "type": "function"
    },
    {
      "inputs": [
        {
          "internalType": "uint256",
          "name": "groupId",
          "type": "uint256"
        }
      ],
      "name": "doIHaveClaimableWinnings",
      "outputs": [
        {
          "internalType": "bool",
          "name": "",
          "type": "bool"
        }
      ],
      "stateMutability": "view",
      "type": "function",
      "constant": true
    },
    {
      "inputs": [
        {
          "internalType": "uint256",
          "name": "groupId",
          "type": "uint256"
        }
      ],
      "name": "claimWinnings",
      "outputs": [],
      "stateMutability": "nonpayable",
      "type": "function"
    },
    {
      "inputs": [
        {
          "internalType": "uint256",
          "name": "groupId",
          "type": "uint256"
        }
      ],
      "name": "getEligibleRecipientAddresses",
      "outputs": [
        {
          "internalType": "address[]",
          "name": "",
          "type": "address[]"
        }
      ],
      "stateMutability": "view",
      "type": "function",
      "constant": true
    },
    {
      "inputs": [
        {
          "internalType": "uint256",
          "name": "groupId",
          "type": "uint256"
        }
      ],
      "name": "getEligibleRecipientNames",
      "outputs": [
        {
          "internalType": "string[]",
          "name": "",
          "type": "string[]"
        }
      ],
      "stateMutability": "view",
      "type": "function",
      "constant": true
    },
    {
      "inputs": [
        {
          "internalType": "uint256",
          "name": "groupId",
          "type": "uint256"
        }
      ],
      "name": "getRegisteredRecipientNames",
      "outputs": [
        {
          "internalType": "string[]",
          "name": "",
          "type": "string[]"
        }
      ],
      "stateMutability": "view",
      "type": "function",
      "constant": true
    },
    {
      "inputs": [
        {
          "internalType": "uint256",
          "name": "groupId",
          "type": "uint256"
        }
      ],
      "name": "getEligibleRecipientIsEligibilityEnabled",
      "outputs": [
        {
          "internalType": "bool[]",
          "name": "",
          "type": "bool[]"
        }
      ],
      "stateMutability": "view",
      "type": "function",
      "constant": true
    },
    {
      "inputs": [
        {
          "internalType": "uint256",
          "name": "groupId",
          "type": "uint256"
        }
      ],
      "name": "getRegisteredRecipients",
      "outputs": [
        {
          "internalType": "address[]",
          "name": "",
          "type": "address[]"
        },
        {
          "internalType": "string[]",
          "name": "",
          "type": "string[]"
        },
        {
          "internalType": "bool[]",
          "name": "",
          "type": "bool[]"
        }
      ],
      "stateMutability": "view",
      "type": "function",
      "constant": true
    },
    {
      "inputs": [
        {
          "internalType": "uint256",
          "name": "groupId",
          "type": "uint256"
        },
        {
          "internalType": "string",
          "name": "username",
          "type": "string"
        }
      ],
      "name": "requestToJoinGroup",
      "outputs": [],
      "stateMutability": "nonpayable",
      "type": "function"
    }
  ],
  "bytecode": "0x6080604052600180546001600160a01b031916331781556003805460ff60a01b191690556005805560085534801561003657600080fd5b50612794806100466000396000f3fe608060405234801561001057600080fd5b50600436106101f75760003560e01c8063744c5e1e11610120578063b187bd26116100b8578063d5f016c31161007c578063d5f016c3146104b9578063e513b7a9146104c1578063f4a02e70146104d4578063f89e9cb9146104e7578063fc5fd6e4146104fa57600080fd5b8063b187bd261461045e578063b3b36bb314610470578063c02b8b2c14610476578063c6db50941461048b578063cd04e4751461049357600080fd5b8063744c5e1e146103b15780637b936ac2146103c45780637d837ce5146103d55780637fcaf666146103e85780638456cb59146103fb57806389ea642f146104035780639393ae37146104185780639bda87961461042b578063b047fb501461044b57600080fd5b8063406db84311610193578063406db843146102d857806344b2983b146102eb578063454432e21461030d5780634635509b146103205780634e0a33791461034457806355b57ec1146103575780635c975abb146103775780635e82c1fc1461038b578063677bd9ff1461039e57600080fd5b80630519ce79146101fc57806306cc49221461022c57806307bfa3301461024f5780630a0f81681461026f578063222fd0871461028257806327d7874c146102975780632ba73c15146102aa57806338f0b656146102bd5780633f4ba83a146102d0575b600080fd5b60025461020f906001600160a01b031681565b6040516001600160a01b0390911681526020015b60405180910390f35b61023f61023a3660046122ce565b61050b565b6040519015158152602001610223565b61026261025d3660046122ce565b610564565b6040516102239190612509565b60015461020f906001600160a01b031681565b6102956102903660046122e7565b610650565b005b6102956102a53660046121d1565b6109b3565b6102956102b83660046121d1565b610a25565b61023f6102cb3660046122ce565b610aa9565b61023f610ae6565b6102956102e63660046122ce565b610ba1565b6102fe6102f93660046122ce565b610fb3565b604051610223939291906124b3565b61026261031b3660046122ce565b611180565b61033361032e3660046122ce565b611261565b604051610223959493929190612560565b6102956103523660046121d1565b611581565b61036a6103653660046122ce565b611618565b60405161022391906124f6565b60035461023f90600160a01b900460ff1681565b61023f6103993660046121f3565b61169a565b6102956103ac3660046122ce565b6116f1565b61023f6103bf3660046122ce565b6118d1565b6002546001600160a01b031661020f565b61023f6103e33660046121f3565b61191e565b6102956103f636600461221d565b611975565b61029561198c565b61040b611a69565b6040516102239190612590565b6002546001600160a01b0316331461023f565b61043e6104393660046122ce565b611afb565b60405161022391906124a0565b60035461020f906001600160a01b031681565b600354600160a01b900460ff1661023f565b3361020f565b61047e611b66565b604051610223919061251c565b61040b611bbd565b6104a66104a13660046122ce565b611c4b565b604051610223979695949392919061264c565b610262611f95565b6001546001600160a01b0316331461023f565b6003546001600160a01b0316331461023f565b61023f6104f53660046122ce565b61206e565b6003546001600160a01b031661020f565b600354600090600160a01b900460ff16156105415760405162461bcd60e51b8152600401610538906125e7565b60405180910390fd5b50600081815260106020908152604080832033845290915290205415155b919050565b6060601f6000838152602001908152602001600020805480602002602001604051908101604052809291908181526020016000905b828210156106455783829060005260206000200180546105b8906126b0565b80601f01602080910402602001604051908101604052809291908181526020018280546105e4906126b0565b80156106315780601f1061060657610100808354040283529160200191610631565b820191906000526020600020905b81548152906001019060200180831161061457829003601f168201915b505050505081526020019060010190610599565b505050509050919050565b60008381526017602090815260408083203380855292529091205484919080156106e25760405162461bcd60e51b815260206004820152603d60248201527f4572726f723a207468697320616464726573732068617320616c72656164792060448201527f72657175657374656420746f206a6f696e20746869732067726f75702e0000006064820152608401610538565b60008681526010602090815260408083203380855292529091205487919080156107745760405162461bcd60e51b815260206004820152603f60248201527f4572726f723a20726563697069656e7420697320616c726561647920616e206560448201527f6c696769626c6520726563697069656e7420696e207468652067726f75702e006064820152608401610538565b60008981526018602052604090205461085c57600089815260186020908152604080832060019081905560198352818420805480830182559085528385200180546001600160a01b03191690558c8452601a8352818420805491820181558452828420825193840192839052928490526107f0939201916120ad565b506000898152601b60209081526040808320805460018082018355918552838520848204018054601f92831661010090810a60ff908102199092169092558f8752601c86529386208054938401815586529484902093820490930180549190931690930a021990911690555b6000898152601860209081526040808320546017835281842033808652908452828520919091558c8452601983528184208054600181810183559186528486200180546001600160a01b0319169092179091558c8452601a835290832080549182018155835291206108d091018989612131565b506000898152601b60209081526040808320805460018082018355918552838520848204018054601f92831661010090810a60ff81810219909316179092558f8752601c8652848720805480860182559088528688208782040180549190941690920a02191690558c845260189092529091205461094d91612698565b60008a815260186020908152604080832093909355600c8152908290205482518c815233928101929092528183015290517fc73d895047e43bcf8caa9f1cce950d0f1a21fc9a00a8d693db86cd0c93dc91aa9181900360600190a1505050505050505050565b6001546001600160a01b031633146109dd5760405162461bcd60e51b8152600401610538906125a3565b6001600160a01b038116610a035760405162461bcd60e51b815260040161053890612615565b600180546001600160a01b0319166001600160a01b0392909216919091179055565b6001546001600160a01b03163314610a4f5760405162461bcd60e51b8152600401610538906125a3565b6001600160a01b038116610a6257600080fd5b600380546001600160a01b0319166001600160a01b0383161790556040517fa308298a77084def994b565be25bff2e8fbfe7006c2c6b2bacfb84d1ba1f635090600090a150565b600354600090600160a01b900460ff1615610ad65760405162461bcd60e51b8152600401610538906125e7565b610ae0338361191e565b92915050565b6001546000906001600160a01b03163314610b135760405162461bcd60e51b8152600401610538906125a3565b600354600160a01b900460ff16610b845760405162461bcd60e51b815260206004820152602f60248201527f66756e6374696f6e2063616e206f6e6c792062652063616c6c6564207768656e60448201526e1030b8381034b9903830bab9b2b21760891b6064820152608401610538565b506003805460ff60a01b191690819055600160a01b900460ff1690565b80610bac338261169a565b610c0a5760405162461bcd60e51b815260206004820152602960248201527f736f7272792c20796f7520617265206e6f7420616e20656c696769626c65207260448201526832b1b4b834b2b73a1760b91b6064820152608401610538565b60008281526010602090815260408083203380855290835281842054868552601490935292208054859392919082908110610c4757610c47612732565b60009182526020918290209181049091015460ff601f9092166101000a900416610ce55760405162461bcd60e51b815260206004820152604360248201527f4572726f723a20726563697069656e74277320656c696769626c696c6974792060448201527f686173206265656e2064697361626c656420666f7220746869732067726f757060648201526217171760e91b608482015260a401610538565b600354600160a01b900460ff1615610d0f5760405162461bcd60e51b8152600401610538906125e7565b6000858152601e6020526040902054610dc3576000858152601e60209081526040808320600190819055828052818420805480830182559085528385200180546001600160a01b0319169055888452601f835281842080549182018155845282842082519384019283905292849052610d8a939201916120ad565b5060008581526021602090815260408220805460018101825590835291819020908204018054601f9092166101000a60ff021990911690555b600085815260106020908152604080832033845282528083205488845260139092528220805491929183908110610dfc57610dfc612732565b906000526020600020018054610e11906126b0565b80601f0160208091040260200160405190810160405280929190818152602001828054610e3d906126b0565b8015610e8a5780601f10610e5f57610100808354040283529160200191610e8a565b820191906000526020600020905b815481529060010190602001808311610e6d57829003601f168201915b50505060008a8152602080805260408083208054600181810183559185528385200180546001600160a01b031916331790558d8452601f8352908320805491820181558352918190208551959650610ee99592019350850191506120ad565b506000878152602160209081526040808320805460018082018355918552838520848204018054601f9092166101000a60ff021990911690558a8452600990925290912060030154610f3a91612698565b600088815260096020908152604080832060030193909355601e90522054610f63906001612698565b6000888152601e6020908152604091829020929092555188815233917f0695e999be8100bdb5bee8612337296508d527eae78c65b8f170eacb5a3b439d910160405180910390a250505050505050565b600081815260208080526040808320601f83528184206021845293829020815483518186028101860190945280845260609586958695919392859183018282801561102757602002820191906000526020600020905b81546001600160a01b03168152600190910190602001808311611009575b5050505050925081805480602002602001604051908101604052809291908181526020016000905b828210156110fb57838290600052602060002001805461106e906126b0565b80601f016020809104026020016040519081016040528092919081815260200182805461109a906126b0565b80156110e75780601f106110bc576101008083540402835291602001916110e7565b820191906000526020600020905b8154815290600101906020018083116110ca57829003601f168201915b50505050508152602001906001019061104f565b5050505091508080548060200260200160405190810160405280929190818152602001828054801561116c57602002820191906000526020600020906000905b825461010083900a900460ff16151581526020600192830181810494850194909303909202910180841161113b5790505b505050505090509250925092509193909250565b606060136000838152602001908152602001600020805480602002602001604051908101604052809291908181526020016000905b828210156106455783829060005260206000200180546111d4906126b0565b80601f0160208091040260200160405190810160405280929190818152602001828054611200906126b0565b801561124d5780601f106112225761010080835404028352916020019161124d565b820191906000526020600020905b81548152906001019060200180831161123057829003601f168201915b5050505050815260200190600101906111b5565b6000806000806000806009600088815260200190815260200160002060405180610160016040529081600082015481526020016001820180546112a3906126b0565b80601f01602080910402602001604051908101604052809291908181526020018280546112cf906126b0565b801561131c5780601f106112f15761010080835404028352916020019161131c565b820191906000526020600020905b8154815290600101906020018083116112ff57829003601f168201915b5050509183525050600282015460209091019060ff1660038111156113435761134361271c565b60038111156113545761135461271c565b815260200160038201548152602001600482018054611372906126b0565b80601f016020809104026020016040519081016040528092919081815260200182805461139e906126b0565b80156113eb5780601f106113c0576101008083540402835291602001916113eb565b820191906000526020600020905b8154815290600101906020018083116113ce57829003601f168201915b50505050508152602001600582018054611404906126b0565b80601f0160208091040260200160405190810160405280929190818152602001828054611430906126b0565b801561147d5780601f106114525761010080835404028352916020019161147d565b820191906000526020600020905b81548152906001019060200180831161146057829003601f168201915b50505050508152602001600682018054611496906126b0565b80601f01602080910402602001604051908101604052809291908181526020018280546114c2906126b0565b801561150f5780601f106114e45761010080835404028352916020019161150f565b820191906000526020600020905b8154815290600101906020018083116114f257829003601f168201915b505050918352505060078201546001600160a01b0316602082015260088201546040808301919091526009830154606080840191909152600a909301546080909201919091528201519082015161010083015161012084015161014090940151929b919a509850919650945092505050565b6001546001600160a01b031633146115ab5760405162461bcd60e51b8152600401610538906125a3565b6001600160a01b0381166115d15760405162461bcd60e51b815260040161053890612615565b600280546001600160a01b0319166001600160a01b0383161790556040517f162e32528b5907ecf876b3b7a4e5e0edf878642e3ec25852e3c35af1a4e1c04090600090a150565b60008181526014602090815260409182902080548351818402810184019094528084526060939283018282801561168e57602002820191906000526020600020906000905b825461010083900a900460ff16151581526020600192830181810494850194909303909202910180841161165d5790505b50505050509050919050565b600354600090600160a01b900460ff16156116c75760405162461bcd60e51b8152600401610538906125e7565b5060009081526010602090815260408083206001600160a01b039490941683529290522054151590565b806116fc338261191e565b61175b5760405162461bcd60e51b815260206004820152602a60248201527f736f7272792c20796f7520617265206e6f7420612072656769737465726564206044820152693932b1b4b834b2b73a1760b11b6064820152608401610538565b60008281526015602090815260408083203380855292529091205483919060ff161515600114156117ea5760405162461bcd60e51b815260206004820152603360248201527f77686f6f70732c206c6f6f6b73206c696b6520796f7527766520616c726561646044820152727920636c61696d65642077696e6e696e67732160681b6064820152608401610538565b600354600160a01b900460ff16156118145760405162461bcd60e51b8152600401610538906125e7565b60008481526015602090815260408083203384528252808320805460ff1916600117905586835260099091528120600a01805491611851836126eb565b90915550506000848152600960208190526040808320909101549051339282156108fc02929190818181858888f19350505050158015611895573d6000803e3d6000fd5b5060405184815233907f1a31e733a172afcf46074b3106c17f0c298e226442682a03c1e99ce256139ec29060200160405180910390a250505050565b600354600090600160a01b900460ff16156118fe5760405162461bcd60e51b8152600401610538906125e7565b506000908152601760209081526040808320338452909152902054151590565b600354600090600160a01b900460ff161561194b5760405162461bcd60e51b8152600401610538906125e7565b506000908152601d602090815260408083206001600160a01b039490941683529290522054151590565b80516119889060009060208401906120ad565b5050565b6003546001600160a01b03163314806119af57506001546001600160a01b031633145b806119c457506002546001600160a01b031633145b611a2a5760405162461bcd60e51b815260206004820152603160248201527f6f6e6c7920736f6d656f6e652066726f6d20632d73756974652063616e2063616044820152703636103a3434b990333ab731ba34b7b71760791b6064820152608401610538565b600354600160a01b900460ff1615611a545760405162461bcd60e51b8152600401610538906125e7565b6003805460ff60a01b1916600160a01b179055565b606060008054611a78906126b0565b80601f0160208091040260200160405190810160405280929190818152602001828054611aa4906126b0565b8015611af15780601f10611ac657610100808354040283529160200191611af1565b820191906000526020600020905b815481529060010190602001808311611ad457829003601f168201915b5050505050905090565b60008181526012602090815260409182902080548351818402810184019094528084526060939283018282801561168e57602002820191906000526020600020905b81546001600160a01b03168152600190910190602001808311611b3d5750505050509050919050565b60606006805480602002602001604051908101604052809291908181526020018280548015611af157602002820191906000526020600020905b815481526020019060010190808311611ba0575050505050905090565b60008054611bca906126b0565b80601f0160208091040260200160405190810160405280929190818152602001828054611bf6906126b0565b8015611c435780601f10611c1857610100808354040283529160200191611c43565b820191906000526020600020905b815481529060010190602001808311611c2657829003601f168201915b505050505081565b60006060600080600080600080600960008a81526020019081526020016000206040518061016001604052908160008201548152602001600182018054611c91906126b0565b80601f0160208091040260200160405190810160405280929190818152602001828054611cbd906126b0565b8015611d0a5780601f10611cdf57610100808354040283529160200191611d0a565b820191906000526020600020905b815481529060010190602001808311611ced57829003601f168201915b5050509183525050600282015460209091019060ff166003811115611d3157611d3161271c565b6003811115611d4257611d4261271c565b815260200160038201548152602001600482018054611d60906126b0565b80601f0160208091040260200160405190810160405280929190818152602001828054611d8c906126b0565b8015611dd95780601f10611dae57610100808354040283529160200191611dd9565b820191906000526020600020905b815481529060010190602001808311611dbc57829003601f168201915b50505050508152602001600582018054611df2906126b0565b80601f0160208091040260200160405190810160405280929190818152602001828054611e1e906126b0565b8015611e6b5780601f10611e4057610100808354040283529160200191611e6b565b820191906000526020600020905b815481529060010190602001808311611e4e57829003601f168201915b50505050508152602001600682018054611e84906126b0565b80601f0160208091040260200160405190810160405280929190818152602001828054611eb0906126b0565b8015611efd5780601f10611ed257610100808354040283529160200191611efd565b820191906000526020600020905b815481529060010190602001808311611ee057829003601f168201915b505050505081526020016007820160009054906101000a90046001600160a01b03166001600160a01b03166001600160a01b031681526020016008820154815260200160098201548152602001600a8201548152505090508060000151816020015182604001518360600151846101000151856101200151866101400151975097509750975097509750975050919395979092949650565b60606007805480602002602001604051908101604052809291908181526020016000905b82821015612065578382906000526020600020018054611fd8906126b0565b80601f0160208091040260200160405190810160405280929190818152602001828054612004906126b0565b80156120515780601f1061202657610100808354040283529160200191612051565b820191906000526020600020905b81548152906001019060200180831161203457829003601f168201915b505050505081526020019060010190611fb9565b50505050905090565b600061207a338361191e565b61208657506000919050565b50600090815260156020908152604080832033845290915290205460ff1615156001141590565b8280546120b9906126b0565b90600052602060002090601f0160209004810192826120db5760008555612121565b82601f106120f457805160ff1916838001178555612121565b82800160010185558215612121579182015b82811115612121578251825591602001919060010190612106565b5061212d9291506121a5565b5090565b82805461213d906126b0565b90600052602060002090601f01602090048101928261215f5760008555612121565b82601f106121785782800160ff19823516178555612121565b82800160010185558215612121579182015b8281111561212157823582559160200191906001019061218a565b5b8082111561212d57600081556001016121a6565b80356001600160a01b038116811461055f57600080fd5b6000602082840312156121e357600080fd5b6121ec826121ba565b9392505050565b6000806040838503121561220657600080fd5b61220f836121ba565b946020939093013593505050565b60006020828403121561222f57600080fd5b813567ffffffffffffffff8082111561224757600080fd5b818401915084601f83011261225b57600080fd5b81358181111561226d5761226d612748565b604051601f8201601f19908116603f0116810190838211818310171561229557612295612748565b816040528281528760208487010111156122ae57600080fd5b826020860160208301376000928101602001929092525095945050505050565b6000602082840312156122e057600080fd5b5035919050565b6000806000604084860312156122fc57600080fd5b83359250602084013567ffffffffffffffff8082111561231b57600080fd5b818601915086601f83011261232f57600080fd5b81358181111561233e57600080fd5b87602082850101111561235057600080fd5b6020830194508093505050509250925092565b600081518084526020808501945080840160005b8381101561239c5781516001600160a01b031687529582019590820190600101612377565b509495945050505050565b600081518084526020808501945080840160005b8381101561239c5781511515875295820195908201906001016123bb565b600082825180855260208086019550808260051b84010181860160005b8481101561242457601f19868403018952612412838351612453565b988401989250908301906001016123f6565b5090979650505050505050565b6004811061244f57634e487b7160e01b600052602160045260246000fd5b9052565b6000815180845260005b818110156124795760208185018101518683018201520161245d565b8181111561248b576000602083870101525b50601f01601f19169290920160200192915050565b6020815260006121ec6020830184612363565b6060815260006124c66060830186612363565b82810360208401526124d881866123d9565b905082810360408401526124ec81856123a7565b9695505050505050565b6020815260006121ec60208301846123a7565b6020815260006121ec60208301846123d9565b6020808252825182820181905260009190848201906040850190845b8181101561255457835183529284019291840191600101612538565b50909695505050505050565b60a0810161256e8288612431565b8560208301528460408301528360608301528260808301529695505050505050565b6020815260006121ec6020830184612453565b60208082526024908201527f6f6e6c79207468652063656f2063616e2063616c6c20746869732066756e637460408201526334b7b71760e11b606082015260800190565b6020808252601490820152733a34329030b8381034b9903830bab9b2b217171760611b604082015260600190565b6020808252601f908201527f63616e6e6f74207365742043454f20746f207a65726f20616464726573732100604082015260600190565b87815260e06020820152600061266560e0830189612453565b90506126746040830188612431565b8560608301528460808301528360a08301528260c083015298975050505050505050565b600082198211156126ab576126ab612706565b500190565b600181811c908216806126c457607f821691505b602082108114156126e557634e487b7160e01b600052602260045260246000fd5b50919050565b60006000198214156126ff576126ff612706565b5060010190565b634e487b7160e01b600052601160045260246000fd5b634e487b7160e01b600052602160045260246000fd5b634e487b7160e01b600052603260045260246000fd5b634e487b7160e01b600052604160045260246000fdfea2646970667358221220bfb1a59f360064898d7e47c79740bf699158807c208535cf55d2235fb3e1ef2164736f6c63430008070033",
  "immutableReferences": {},
  "source": "// SPDX-License-Identifier: MIT\npragma solidity ^0.8.0;\n\nimport '../core/EthDropBase.sol';\n\ncontract RecipientsManager is EthDropBase {\n    event EligibleRecipientAdded(address indexed account, uint256 groupId);\n    event EligibleRecipientRemoved(address indexed account, uint256 groupId);\n\n    event RecipientRegistered(address indexed account, uint256 groupId);\n    event WinningsClaimed(address indexed account, uint256 groupId);\n    event NewUserRequestedToJoinGroup(\n        uint256 groupId,\n        address account,\n        uint256 index\n    );\n\n    constructor() {}\n\n    modifier onlyEligibleRecipients(uint256 groupId) {\n        require(isEligibleRecipient(msg.sender, groupId),\n            \"sorry, you are not an eligible recipient.\");\n        _;\n    }\n\n    function isEligibleRecipient(address account, uint256 groupId)\n        public\n        view\n        whenNotPaused\n        returns (bool)\n    {\n        return eligibleRecipientsAddresstoIndex[groupId][account] > 0;\n    }\n\n    function amIEligibleRecipient(uint256 groupId)\n        external\n        view\n        whenNotPaused\n        returns (bool)\n    {\n        return eligibleRecipientsAddresstoIndex[groupId][msg.sender] > 0;\n    }\n\n    modifier onlyRegisteredRecipients(uint256 groupId) {\n        require(isRegisteredRecipient(msg.sender, groupId),\n            \"sorry, you are not a registered recipient.\");\n        _;\n    }\n\n    modifier hasntAlreadyClaimedWinnings(uint256 groupId, address account) {\n        require(winningsCollected[groupId][msg.sender] != true,\n            \"whoops, looks like you've already claimed winnings!\");\n        _;\n    }\n\n    function isRegisteredRecipient(address account, uint256 groupId)\n        public\n        view\n        whenNotPaused\n        returns (bool)\n    {\n        return registeredRecipientsAddressToIndex[groupId][account] > 0;\n    }\n\n    function amIRegisteredRecipient(uint256 groupId)\n        external\n        view\n        whenNotPaused\n        returns (bool)\n    {\n        return isRegisteredRecipient(msg.sender, groupId);\n    }\n\n    function amIPendingNewJoiner(uint256 groupId)\n        external\n        view\n        whenNotPaused\n        returns (bool)\n    {\n        return requestsToJoinGroupAddressToIndex[groupId][msg.sender] > 0;\n    }\n\n    modifier recipientEligibilityIsEnabled(uint256 groupId, address account) {\n        uint256 indexOfEligibleRecipient = eligibleRecipientsAddresstoIndex[\n            groupId\n        ][msg.sender];\n\n        require(\n            eligibleRecipientsEligibilityIsEnabled[groupId][\n                indexOfEligibleRecipient\n            ] != false,\n            \"Error: recipient's eligiblility has been disabled for this group...\"\n        );\n        _;\n    }\n\n    function registerForEvent(uint256 groupId)\n        external\n        onlyEligibleRecipients(groupId)\n        recipientEligibilityIsEnabled(groupId, msg.sender)\n        whenNotPaused\n    {\n        if (registeredRecipientsNextIndex[groupId] == 0) {\n            registeredRecipientsNextIndex[groupId] = 1;\n\n            registeredRecipientAddressesArray[groupId].push(address(0));\n            registeredRecipientNamesArray[groupId].push('');\n            registeredRecipientsWinningsCollected[groupId].push(false);\n        }\n\n        uint256 indexOfEligibleRecipient = eligibleRecipientsAddresstoIndex[\n            groupId\n        ][msg.sender];\n        string memory nameOfEligibleRecipient = eligibleRecipientNamesArray[\n            groupId\n        ][indexOfEligibleRecipient];\n\n        registeredRecipientAddressesArray[groupId].push(msg.sender);\n        registeredRecipientNamesArray[groupId].push(nameOfEligibleRecipient);\n        registeredRecipientsWinningsCollected[groupId].push(false);\n\n        currentEvents[groupId].registeredRecipientsCount = currentEvents[groupId].registeredRecipientsCount + 1;\n\n        registeredRecipientsNextIndex[groupId] =\n            registeredRecipientsNextIndex[groupId] +\n            1;\n\n        emit RecipientRegistered(msg.sender, groupId);\n    }\n\n    function doIHaveClaimableWinnings(uint256 groupId)\n        external\n        view\n        returns (bool)\n    {\n        if (!isRegisteredRecipient(msg.sender, groupId)) {\n            return false;\n        }\n\n        return winningsCollected[groupId][msg.sender] != true;\n    }\n\n    function claimWinnings(uint256 groupId)\n        external\n        onlyRegisteredRecipients(groupId)\n        hasntAlreadyClaimedWinnings(groupId, msg.sender)\n        whenNotPaused\n    {\n        winningsCollected[groupId][msg.sender] = true;\n        currentEvents[groupId].numberOfUsersWhoClaimedWinnings++;\n\n        payable(msg.sender).transfer(currentEvents[groupId].weiWinnings);\n\n        emit WinningsClaimed(msg.sender, groupId);\n    }\n\n    function getEligibleRecipientAddresses(uint256 groupId)\n        external\n        view\n        returns (address[] memory)\n    {\n        return eligibleRecipientAddressesArray[groupId];\n    }\n\n    function getEligibleRecipientNames(uint256 groupId)\n        external\n        view\n        returns (string[] memory)\n    {\n        return eligibleRecipientNamesArray[groupId];\n    }\n\n    function getRegisteredRecipientNames(uint256 groupId)\n        external\n        view\n        returns (string[] memory)\n    {\n        return registeredRecipientNamesArray[groupId];\n    }\n\n    function getEligibleRecipientIsEligibilityEnabled(uint256 groupId)\n        external\n        view\n        returns (bool[] memory)\n    {\n        return eligibleRecipientsEligibilityIsEnabled[groupId];\n    }\n\n    function getRegisteredRecipients(uint256 groupId)\n        external\n        view\n        returns (\n            address[] memory,\n            string[] memory,\n            bool[] memory\n        )\n    {\n        return (\n            registeredRecipientAddressesArray[groupId],\n            registeredRecipientNamesArray[groupId],\n            registeredRecipientsWinningsCollected[groupId]\n        );\n    }\n\n    modifier requestsToJoinGroupNotAlreadyPending(\n        uint256 groupId,\n        address account\n    ) {\n        uint256 userIndex = requestsToJoinGroupAddressToIndex[groupId][account];\n        require(\n            userIndex == 0,\n            'Error: this address has already requested to join this group.'\n        );\n        _;\n    }\n\n    modifier requestsToJoinGroupIsPending(uint256 groupId, address account) {\n        uint256 userIndex = requestsToJoinGroupAddressToIndex[groupId][account];\n        require(\n            userIndex > 0 && requestedToJoinGroup[groupId][userIndex],\n            'Error: this address does not have a pending request to join this group.'\n        );\n        _;\n    }\n\n    modifier notAlreadyInGroup(uint256 groupId, address account) {\n        uint256 userIndex = eligibleRecipientsAddresstoIndex[groupId][account];\n        require(\n            userIndex == 0,\n            'Error: recipient is already an eligible recipient in the group.'\n        );\n        _;\n    }\n\n    // functions for recipients not yet eligible\n    function requestToJoinGroup(uint256 groupId, string calldata username)\n        external\n        requestsToJoinGroupNotAlreadyPending(groupId, msg.sender)\n        notAlreadyInGroup(groupId, msg.sender)\n    {\n        if (requestsToJoinGroupNextIndex[groupId] == 0) {\n            requestsToJoinGroupNextIndex[groupId] = 1;\n\n            requestsToJoinGroupAddresses[groupId].push(address(0));\n            requestsToJoinGroupNames[groupId].push('');\n            requestedToJoinGroup[groupId].push(false);\n            requestsToJoinGroupApprovals[groupId].push(false);\n        }\n\n        requestsToJoinGroupAddressToIndex[groupId][\n            msg.sender\n        ] = requestsToJoinGroupNextIndex[groupId];\n\n        requestsToJoinGroupAddresses[groupId].push(msg.sender);\n        requestsToJoinGroupNames[groupId].push(username);\n        requestedToJoinGroup[groupId].push(true);\n        requestsToJoinGroupApprovals[groupId].push(false);\n\n        requestsToJoinGroupNextIndex[groupId] =\n            requestsToJoinGroupNextIndex[groupId] +\n            1;\n\n        emit NewUserRequestedToJoinGroup(\n            groupId,\n            msg.sender,\n            nextAdminIndexForGroup[groupId]\n        );\n    }\n}\n",
  "sourcePath": "/Users/jim/trash/EthDrop/contracts/roles/RecipientsManager.sol",
  "compiler": {
    "name": "solc",
    "version": "0.8.7+commit.e28d00a7.Emscripten.clang"
  },
  "schemaVersion": "3.4.3",
  "updatedAt": "2021-09-15T04:13:47.903Z",
  "networkType": "ethereum",
  "devdoc": {
    "kind": "dev",
    "methods": {
      "pause()": {
        "details": "Called by any \"C-level\" role to pause the contract. Used only when  a bug or exploit is detected and we need to limit damage."
      },
      "setCEO(address)": {
        "details": "Assigns a new address to act as the CEO. Only available to the current CEO.",
        "params": {
          "_newCEO": "The address of the new CEO"
        }
      },
      "setCFO(address)": {
        "details": "Assigns a new address to act as the CFO. Only available to the current CEO.",
        "params": {
          "_newCFO": "The address of the new CFO"
        }
      },
      "setCOO(address)": {
        "details": "Assigns a new address to act as the COO. Only available to the current CEO.",
        "params": {
          "_newCOO": "The address of the new COO"
        }
      },
      "unpause()": {
        "details": "Unpauses the smart contract. Can only be called by the CEO, since  one reason we may pause the contract is when CFO or COO accounts are  compromised."
      }
    },
    "version": 1
  },
  "userdoc": {
    "kind": "user",
    "methods": {
      "unpause()": {
        "notice": "This is public rather than external so it can be called by  derived contracts."
      }
    },
    "version": 1
  }
}