{
  "contractName": "RecipientsManager",
  "abi": [
    {
      "inputs": [],
      "stateMutability": "nonpayable",
      "type": "constructor"
    },
    {
      "anonymous": false,
      "inputs": [
        {
          "indexed": false,
          "internalType": "bool",
          "name": "isPaused",
          "type": "bool"
        }
      ],
      "name": "AppPaused",
      "type": "event"
    },
    {
      "anonymous": false,
      "inputs": [],
      "name": "CfoUpdated",
      "type": "event"
    },
    {
      "anonymous": false,
      "inputs": [
        {
          "indexed": false,
          "internalType": "address",
          "name": "newContract",
          "type": "address"
        }
      ],
      "name": "ContractUpgrade",
      "type": "event"
    },
    {
      "anonymous": false,
      "inputs": [],
      "name": "CooUpdated",
      "type": "event"
    },
    {
      "anonymous": false,
      "inputs": [
        {
          "indexed": true,
          "internalType": "address",
          "name": "account",
          "type": "address"
        },
        {
          "indexed": false,
          "internalType": "uint256",
          "name": "groupId",
          "type": "uint256"
        }
      ],
      "name": "EligibleRecipientAdded",
      "type": "event"
    },
    {
      "anonymous": false,
      "inputs": [
        {
          "indexed": true,
          "internalType": "address",
          "name": "account",
          "type": "address"
        },
        {
          "indexed": false,
          "internalType": "uint256",
          "name": "groupId",
          "type": "uint256"
        }
      ],
      "name": "EligibleRecipientRemoved",
      "type": "event"
    },
    {
      "anonymous": false,
      "inputs": [],
      "name": "EventClose",
      "type": "event"
    },
    {
      "anonymous": false,
      "inputs": [
        {
          "indexed": false,
          "internalType": "uint256",
          "name": "groupId",
          "type": "uint256"
        },
        {
          "indexed": false,
          "internalType": "address",
          "name": "account",
          "type": "address"
        },
        {
          "indexed": false,
          "internalType": "uint256",
          "name": "index",
          "type": "uint256"
        }
      ],
      "name": "NewUserRequestedToJoinGroup",
      "type": "event"
    },
    {
      "anonymous": false,
      "inputs": [
        {
          "indexed": true,
          "internalType": "address",
          "name": "account",
          "type": "address"
        },
        {
          "indexed": false,
          "internalType": "uint256",
          "name": "groupId",
          "type": "uint256"
        }
      ],
      "name": "RecipientRegistered",
      "type": "event"
    },
    {
      "anonymous": false,
      "inputs": [],
      "name": "RegistrationOpen",
      "type": "event"
    },
    {
      "anonymous": false,
      "inputs": [
        {
          "indexed": false,
          "internalType": "address",
          "name": "from",
          "type": "address"
        },
        {
          "indexed": false,
          "internalType": "address",
          "name": "to",
          "type": "address"
        }
      ],
      "name": "Transfer",
      "type": "event"
    },
    {
      "anonymous": false,
      "inputs": [
        {
          "indexed": true,
          "internalType": "address",
          "name": "account",
          "type": "address"
        },
        {
          "indexed": false,
          "internalType": "uint256",
          "name": "groupId",
          "type": "uint256"
        }
      ],
      "name": "WinningsClaimed",
      "type": "event"
    },
    {
      "anonymous": false,
      "inputs": [],
      "name": "WinningsClaimingOpen",
      "type": "event"
    },
    {
      "inputs": [],
      "name": "ceoAddress",
      "outputs": [
        {
          "internalType": "address",
          "name": "",
          "type": "address"
        }
      ],
      "stateMutability": "view",
      "type": "function",
      "constant": true
    },
    {
      "inputs": [],
      "name": "cfoAddress",
      "outputs": [
        {
          "internalType": "address",
          "name": "",
          "type": "address"
        }
      ],
      "stateMutability": "view",
      "type": "function",
      "constant": true
    },
    {
      "inputs": [],
      "name": "cooAddress",
      "outputs": [
        {
          "internalType": "address",
          "name": "",
          "type": "address"
        }
      ],
      "stateMutability": "view",
      "type": "function",
      "constant": true
    },
    {
      "inputs": [],
      "name": "getCFO",
      "outputs": [
        {
          "internalType": "address",
          "name": "",
          "type": "address"
        }
      ],
      "stateMutability": "view",
      "type": "function",
      "constant": true
    },
    {
      "inputs": [],
      "name": "getCOO",
      "outputs": [
        {
          "internalType": "address",
          "name": "",
          "type": "address"
        }
      ],
      "stateMutability": "view",
      "type": "function",
      "constant": true
    },
    {
      "inputs": [
        {
          "internalType": "uint256",
          "name": "groupId",
          "type": "uint256"
        }
      ],
      "name": "getGroupEventData",
      "outputs": [
        {
          "internalType": "enum EthDropBase.EventState",
          "name": "",
          "type": "uint8"
        },
        {
          "internalType": "uint256",
          "name": "",
          "type": "uint256"
        },
        {
          "internalType": "uint256",
          "name": "",
          "type": "uint256"
        },
        {
          "internalType": "uint256",
          "name": "",
          "type": "uint256"
        },
        {
          "internalType": "uint256",
          "name": "",
          "type": "uint256"
        }
      ],
      "stateMutability": "view",
      "type": "function",
      "constant": true
    },
    {
      "inputs": [],
      "name": "getGroupIds",
      "outputs": [
        {
          "internalType": "uint256[]",
          "name": "",
          "type": "uint256[]"
        }
      ],
      "stateMutability": "view",
      "type": "function",
      "constant": true
    },
    {
      "inputs": [],
      "name": "getGroupNames",
      "outputs": [
        {
          "internalType": "string[]",
          "name": "",
          "type": "string[]"
        }
      ],
      "stateMutability": "view",
      "type": "function",
      "constant": true
    },
    {
      "inputs": [
        {
          "internalType": "uint256",
          "name": "groupId",
          "type": "uint256"
        }
      ],
      "name": "getGroupPublicData",
      "outputs": [
        {
          "internalType": "uint256",
          "name": "",
          "type": "uint256"
        },
        {
          "internalType": "string",
          "name": "",
          "type": "string"
        },
        {
          "internalType": "enum EthDropBase.EventState",
          "name": "",
          "type": "uint8"
        },
        {
          "internalType": "uint256",
          "name": "",
          "type": "uint256"
        },
        {
          "internalType": "uint256",
          "name": "",
          "type": "uint256"
        },
        {
          "internalType": "uint256",
          "name": "",
          "type": "uint256"
        },
        {
          "internalType": "uint256",
          "name": "",
          "type": "uint256"
        }
      ],
      "stateMutability": "view",
      "type": "function",
      "constant": true
    },
    {
      "inputs": [],
      "name": "getString",
      "outputs": [
        {
          "internalType": "string",
          "name": "",
          "type": "string"
        }
      ],
      "stateMutability": "view",
      "type": "function",
      "constant": true
    },
    {
      "inputs": [],
      "name": "isCEO",
      "outputs": [
        {
          "internalType": "bool",
          "name": "",
          "type": "bool"
        }
      ],
      "stateMutability": "view",
      "type": "function",
      "constant": true
    },
    {
      "inputs": [],
      "name": "isCFO",
      "outputs": [
        {
          "internalType": "bool",
          "name": "",
          "type": "bool"
        }
      ],
      "stateMutability": "view",
      "type": "function",
      "constant": true
    },
    {
      "inputs": [],
      "name": "isCOO",
      "outputs": [
        {
          "internalType": "bool",
          "name": "",
          "type": "bool"
        }
      ],
      "stateMutability": "view",
      "type": "function",
      "constant": true
    },
    {
      "inputs": [],
      "name": "isPaused",
      "outputs": [
        {
          "internalType": "bool",
          "name": "",
          "type": "bool"
        }
      ],
      "stateMutability": "view",
      "type": "function",
      "constant": true
    },
    {
      "inputs": [],
      "name": "pause",
      "outputs": [],
      "stateMutability": "nonpayable",
      "type": "function"
    },
    {
      "inputs": [],
      "name": "paused",
      "outputs": [
        {
          "internalType": "bool",
          "name": "",
          "type": "bool"
        }
      ],
      "stateMutability": "view",
      "type": "function",
      "constant": true
    },
    {
      "inputs": [
        {
          "internalType": "address",
          "name": "_newCEO",
          "type": "address"
        }
      ],
      "name": "setCEO",
      "outputs": [],
      "stateMutability": "nonpayable",
      "type": "function"
    },
    {
      "inputs": [
        {
          "internalType": "address",
          "name": "_newCFO",
          "type": "address"
        }
      ],
      "name": "setCFO",
      "outputs": [],
      "stateMutability": "nonpayable",
      "type": "function"
    },
    {
      "inputs": [
        {
          "internalType": "address",
          "name": "_newCOO",
          "type": "address"
        }
      ],
      "name": "setCOO",
      "outputs": [],
      "stateMutability": "nonpayable",
      "type": "function"
    },
    {
      "inputs": [
        {
          "internalType": "string",
          "name": "_s",
          "type": "string"
        }
      ],
      "name": "setString",
      "outputs": [],
      "stateMutability": "nonpayable",
      "type": "function"
    },
    {
      "inputs": [],
      "name": "stringgg",
      "outputs": [
        {
          "internalType": "string",
          "name": "",
          "type": "string"
        }
      ],
      "stateMutability": "view",
      "type": "function",
      "constant": true
    },
    {
      "inputs": [],
      "name": "unpause",
      "outputs": [
        {
          "internalType": "bool",
          "name": "",
          "type": "bool"
        }
      ],
      "stateMutability": "nonpayable",
      "type": "function"
    },
    {
      "inputs": [],
      "name": "whoami",
      "outputs": [
        {
          "internalType": "address",
          "name": "",
          "type": "address"
        }
      ],
      "stateMutability": "view",
      "type": "function",
      "constant": true
    },
    {
      "inputs": [
        {
          "internalType": "address",
          "name": "account",
          "type": "address"
        },
        {
          "internalType": "uint256",
          "name": "groupId",
          "type": "uint256"
        }
      ],
      "name": "isEligibleRecipient",
      "outputs": [
        {
          "internalType": "bool",
          "name": "",
          "type": "bool"
        }
      ],
      "stateMutability": "view",
      "type": "function",
      "constant": true
    },
    {
      "inputs": [
        {
          "internalType": "uint256",
          "name": "groupId",
          "type": "uint256"
        }
      ],
      "name": "amIEligibleRecipient",
      "outputs": [
        {
          "internalType": "bool",
          "name": "",
          "type": "bool"
        }
      ],
      "stateMutability": "view",
      "type": "function",
      "constant": true
    },
    {
      "inputs": [
        {
          "internalType": "address",
          "name": "account",
          "type": "address"
        },
        {
          "internalType": "uint256",
          "name": "groupId",
          "type": "uint256"
        }
      ],
      "name": "isRegisteredRecipient",
      "outputs": [
        {
          "internalType": "bool",
          "name": "",
          "type": "bool"
        }
      ],
      "stateMutability": "view",
      "type": "function",
      "constant": true
    },
    {
      "inputs": [
        {
          "internalType": "uint256",
          "name": "groupId",
          "type": "uint256"
        }
      ],
      "name": "amIRegisteredRecipient",
      "outputs": [
        {
          "internalType": "bool",
          "name": "",
          "type": "bool"
        }
      ],
      "stateMutability": "view",
      "type": "function",
      "constant": true
    },
    {
      "inputs": [
        {
          "internalType": "uint256",
          "name": "groupId",
          "type": "uint256"
        }
      ],
      "name": "amIPendingNewJoiner",
      "outputs": [
        {
          "internalType": "bool",
          "name": "",
          "type": "bool"
        }
      ],
      "stateMutability": "view",
      "type": "function",
      "constant": true
    },
    {
      "inputs": [
        {
          "internalType": "uint256",
          "name": "groupId",
          "type": "uint256"
        }
      ],
      "name": "registerForEvent",
      "outputs": [],
      "stateMutability": "nonpayable",
      "type": "function"
    },
    {
      "inputs": [
        {
          "internalType": "uint256",
          "name": "groupId",
          "type": "uint256"
        }
      ],
      "name": "doIHaveClaimableWinnings",
      "outputs": [
        {
          "internalType": "bool",
          "name": "",
          "type": "bool"
        }
      ],
      "stateMutability": "view",
      "type": "function",
      "constant": true
    },
    {
      "inputs": [
        {
          "internalType": "uint256",
          "name": "groupId",
          "type": "uint256"
        }
      ],
      "name": "claimWinnings",
      "outputs": [],
      "stateMutability": "nonpayable",
      "type": "function"
    },
    {
      "inputs": [
        {
          "internalType": "uint256",
          "name": "groupId",
          "type": "uint256"
        }
      ],
      "name": "getEligibleRecipientAddresses",
      "outputs": [
        {
          "internalType": "address[]",
          "name": "",
          "type": "address[]"
        }
      ],
      "stateMutability": "view",
      "type": "function",
      "constant": true
    },
    {
      "inputs": [
        {
          "internalType": "uint256",
          "name": "groupId",
          "type": "uint256"
        }
      ],
      "name": "getEligibleRecipientNames",
      "outputs": [
        {
          "internalType": "string[]",
          "name": "",
          "type": "string[]"
        }
      ],
      "stateMutability": "view",
      "type": "function",
      "constant": true
    },
    {
      "inputs": [
        {
          "internalType": "uint256",
          "name": "groupId",
          "type": "uint256"
        }
      ],
      "name": "getRegisteredRecipientNames",
      "outputs": [
        {
          "internalType": "string[]",
          "name": "",
          "type": "string[]"
        }
      ],
      "stateMutability": "view",
      "type": "function",
      "constant": true
    },
    {
      "inputs": [
        {
          "internalType": "uint256",
          "name": "groupId",
          "type": "uint256"
        }
      ],
      "name": "getEligibleRecipientIsEligibilityEnabled",
      "outputs": [
        {
          "internalType": "bool[]",
          "name": "",
          "type": "bool[]"
        }
      ],
      "stateMutability": "view",
      "type": "function",
      "constant": true
    },
    {
      "inputs": [
        {
          "internalType": "uint256",
          "name": "groupId",
          "type": "uint256"
        }
      ],
      "name": "getRegisteredRecipients",
      "outputs": [
        {
          "internalType": "address[]",
          "name": "",
          "type": "address[]"
        },
        {
          "internalType": "string[]",
          "name": "",
          "type": "string[]"
        },
        {
          "internalType": "bool[]",
          "name": "",
          "type": "bool[]"
        }
      ],
      "stateMutability": "view",
      "type": "function",
      "constant": true
    },
    {
      "inputs": [
        {
          "internalType": "uint256",
          "name": "groupId",
          "type": "uint256"
        },
        {
          "internalType": "string",
          "name": "username",
          "type": "string"
        }
      ],
      "name": "requestToJoinGroup",
      "outputs": [],
      "stateMutability": "nonpayable",
      "type": "function"
    }
  ],
  "bytecode": "0x6080604052600180546001600160a01b031916331781556003805460ff60a01b191690556005805560085534801561003657600080fd5b50612846806100466000396000f3fe608060405234801561001057600080fd5b50600436106101f75760003560e01c8063744c5e1e11610120578063b187bd26116100b8578063d5f016c31161007c578063d5f016c3146104b9578063e513b7a9146104c1578063f4a02e70146104d4578063f89e9cb9146104e7578063fc5fd6e4146104fa57600080fd5b8063b187bd261461045e578063b3b36bb314610470578063c02b8b2c14610476578063c6db50941461048b578063cd04e4751461049357600080fd5b8063744c5e1e146103b15780637b936ac2146103c45780637d837ce5146103d55780637fcaf666146103e85780638456cb59146103fb57806389ea642f146104035780639393ae37146104185780639bda87961461042b578063b047fb501461044b57600080fd5b8063406db84311610193578063406db843146102d857806344b2983b146102eb578063454432e21461030d5780634635509b146103205780634e0a33791461034457806355b57ec1146103575780635c975abb146103775780635e82c1fc1461038b578063677bd9ff1461039e57600080fd5b80630519ce79146101fc57806306cc49221461022c57806307bfa3301461024f5780630a0f81681461026f578063222fd0871461028257806327d7874c146102975780632ba73c15146102aa57806338f0b656146102bd5780633f4ba83a146102d0575b600080fd5b60025461020f906001600160a01b031681565b6040516001600160a01b0390911681526020015b60405180910390f35b61023f61023a366004612380565b61050b565b6040519015158152602001610223565b61026261025d366004612380565b610564565b60405161022391906125bb565b60015461020f906001600160a01b031681565b610295610290366004612399565b610650565b005b6102956102a5366004612283565b6109b3565b6102956102b8366004612283565b610a25565b61023f6102cb366004612380565b610aa9565b61023f610ae6565b6102956102e6366004612380565b610ba1565b6102fe6102f9366004612380565b611065565b60405161022393929190612565565b61026261031b366004612380565b611232565b61033361032e366004612380565b611313565b604051610223959493929190612612565b610295610352366004612283565b611633565b61036a610365366004612380565b6116ca565b60405161022391906125a8565b60035461023f90600160a01b900460ff1681565b61023f6103993660046122a5565b61174c565b6102956103ac366004612380565b6117a3565b61023f6103bf366004612380565b611983565b6002546001600160a01b031661020f565b61023f6103e33660046122a5565b6119d0565b6102956103f63660046122cf565b611a27565b610295611a3e565b61040b611b1b565b6040516102239190612642565b6002546001600160a01b0316331461023f565b61043e610439366004612380565b611bad565b6040516102239190612552565b60035461020f906001600160a01b031681565b600354600160a01b900460ff1661023f565b3361020f565b61047e611c18565b60405161022391906125ce565b61040b611c6f565b6104a66104a1366004612380565b611cfd565b60405161022397969594939291906126fe565b610262612047565b6001546001600160a01b0316331461023f565b6003546001600160a01b0316331461023f565b61023f6104f5366004612380565b612120565b6003546001600160a01b031661020f565b600354600090600160a01b900460ff16156105415760405162461bcd60e51b815260040161053890612699565b60405180910390fd5b50600081815260106020908152604080832033845290915290205415155b919050565b6060601f6000838152602001908152602001600020805480602002602001604051908101604052809291908181526020016000905b828210156106455783829060005260206000200180546105b890612762565b80601f01602080910402602001604051908101604052809291908181526020018280546105e490612762565b80156106315780601f1061060657610100808354040283529160200191610631565b820191906000526020600020905b81548152906001019060200180831161061457829003601f168201915b505050505081526020019060010190610599565b505050509050919050565b60008381526017602090815260408083203380855292529091205484919080156106e25760405162461bcd60e51b815260206004820152603d60248201527f4572726f723a207468697320616464726573732068617320616c72656164792060448201527f72657175657374656420746f206a6f696e20746869732067726f75702e0000006064820152608401610538565b60008681526010602090815260408083203380855292529091205487919080156107745760405162461bcd60e51b815260206004820152603f60248201527f4572726f723a20726563697069656e7420697320616c726561647920616e206560448201527f6c696769626c6520726563697069656e7420696e207468652067726f75702e006064820152608401610538565b60008981526018602052604090205461085c57600089815260186020908152604080832060019081905560198352818420805480830182559085528385200180546001600160a01b03191690558c8452601a8352818420805491820181558452828420825193840192839052928490526107f09392019161215f565b506000898152601b60209081526040808320805460018082018355918552838520848204018054601f92831661010090810a60ff908102199092169092558f8752601c86529386208054938401815586529484902093820490930180549190931690930a021990911690555b6000898152601860209081526040808320546017835281842033808652908452828520919091558c8452601983528184208054600181810183559186528486200180546001600160a01b0319169092179091558c8452601a835290832080549182018155835291206108d0910189896121e3565b506000898152601b60209081526040808320805460018082018355918552838520848204018054601f92831661010090810a60ff81810219909316179092558f8752601c8652848720805480860182559088528688208782040180549190941690920a02191690558c845260189092529091205461094d9161274a565b60008a815260186020908152604080832093909355600c8152908290205482518c815233928101929092528183015290517fc73d895047e43bcf8caa9f1cce950d0f1a21fc9a00a8d693db86cd0c93dc91aa9181900360600190a1505050505050505050565b6001546001600160a01b031633146109dd5760405162461bcd60e51b815260040161053890612655565b6001600160a01b038116610a035760405162461bcd60e51b8152600401610538906126c7565b600180546001600160a01b0319166001600160a01b0392909216919091179055565b6001546001600160a01b03163314610a4f5760405162461bcd60e51b815260040161053890612655565b6001600160a01b038116610a6257600080fd5b600380546001600160a01b0319166001600160a01b0383161790556040517fa308298a77084def994b565be25bff2e8fbfe7006c2c6b2bacfb84d1ba1f635090600090a150565b600354600090600160a01b900460ff1615610ad65760405162461bcd60e51b815260040161053890612699565b610ae033836119d0565b92915050565b6001546000906001600160a01b03163314610b135760405162461bcd60e51b815260040161053890612655565b600354600160a01b900460ff16610b845760405162461bcd60e51b815260206004820152602f60248201527f66756e6374696f6e2063616e206f6e6c792062652063616c6c6564207768656e60448201526e1030b8381034b9903830bab9b2b21760891b6064820152608401610538565b506003805460ff60a01b191690819055600160a01b900460ff1690565b80610bac338261174c565b610c0a5760405162461bcd60e51b815260206004820152602960248201527f736f7272792c20796f7520617265206e6f7420616e20656c696769626c65207260448201526832b1b4b834b2b73a1760b91b6064820152608401610538565b60008281526010602090815260408083203380855290835281842054868552601490935292208054859392919082908110610c4757610c476127e4565b60009182526020918290209181049091015460ff601f9092166101000a900416610ce55760405162461bcd60e51b815260206004820152604360248201527f4572726f723a20726563697069656e74277320656c696769626c696c6974792060448201527f686173206265656e2064697361626c656420666f7220746869732067726f757060648201526217171760e91b608482015260a401610538565b6000858152601d6020908152604080832033808552925290912054869015610d755760405162461bcd60e51b815260206004820152603c60248201527f77686f6f70732c206c6f6f6b73206c696b6520796f7527766520616c7265616460448201527f79207265676973746572656420666f722074686973206576656e7421000000006064820152608401610538565b600354600160a01b900460ff1615610d9f5760405162461bcd60e51b815260040161053890612699565b6000878152601e6020526040902054610e53576000878152601e60209081526040808320600190819055828052818420805480830182559085528385200180546001600160a01b03191690558a8452601f835281842080549182018155845282842082519384019283905292849052610e1a9392019161215f565b5060008781526021602090815260408220805460018101825590835291819020908204018054601f9092166101000a60ff021990911690555b6000878152601e6020908152604080832054601d835281842033808652908452828520919091558a8452601083528184209084528252808320548a845260139092528220805491929183908110610eac57610eac6127e4565b906000526020600020018054610ec190612762565b80601f0160208091040260200160405190810160405280929190818152602001828054610eed90612762565b8015610f3a5780601f10610f0f57610100808354040283529160200191610f3a565b820191906000526020600020905b815481529060010190602001808311610f1d57829003601f168201915b50505060008c8152602080805260408083208054600181810183559185528385200180546001600160a01b031916331790558f8452601f8352908320805491820181558352918190208551959650610f9995920193508501915061215f565b506000898152602160209081526040808320805460018082018355918552838520848204018054601f9092166101000a60ff021990911690558c8452600990925290912060030154610fea9161274a565b60008a815260096020908152604080832060030193909355601e9052205461101390600161274a565b60008a8152601e602090815260409182902092909255518a815233917f0695e999be8100bdb5bee8612337296508d527eae78c65b8f170eacb5a3b439d910160405180910390a2505050505050505050565b600081815260208080526040808320601f8352818420602184529382902081548351818602810186019094528084526060958695869591939285918301828280156110d957602002820191906000526020600020905b81546001600160a01b031681526001909101906020018083116110bb575b5050505050925081805480602002602001604051908101604052809291908181526020016000905b828210156111ad57838290600052602060002001805461112090612762565b80601f016020809104026020016040519081016040528092919081815260200182805461114c90612762565b80156111995780601f1061116e57610100808354040283529160200191611199565b820191906000526020600020905b81548152906001019060200180831161117c57829003601f168201915b505050505081526020019060010190611101565b5050505091508080548060200260200160405190810160405280929190818152602001828054801561121e57602002820191906000526020600020906000905b825461010083900a900460ff1615158152602060019283018181049485019490930390920291018084116111ed5790505b505050505090509250925092509193909250565b606060136000838152602001908152602001600020805480602002602001604051908101604052809291908181526020016000905b8282101561064557838290600052602060002001805461128690612762565b80601f01602080910402602001604051908101604052809291908181526020018280546112b290612762565b80156112ff5780601f106112d4576101008083540402835291602001916112ff565b820191906000526020600020905b8154815290600101906020018083116112e257829003601f168201915b505050505081526020019060010190611267565b60008060008060008060096000888152602001908152602001600020604051806101600160405290816000820154815260200160018201805461135590612762565b80601f016020809104026020016040519081016040528092919081815260200182805461138190612762565b80156113ce5780601f106113a3576101008083540402835291602001916113ce565b820191906000526020600020905b8154815290600101906020018083116113b157829003601f168201915b5050509183525050600282015460209091019060ff1660038111156113f5576113f56127ce565b6003811115611406576114066127ce565b81526020016003820154815260200160048201805461142490612762565b80601f016020809104026020016040519081016040528092919081815260200182805461145090612762565b801561149d5780601f106114725761010080835404028352916020019161149d565b820191906000526020600020905b81548152906001019060200180831161148057829003601f168201915b505050505081526020016005820180546114b690612762565b80601f01602080910402602001604051908101604052809291908181526020018280546114e290612762565b801561152f5780601f106115045761010080835404028352916020019161152f565b820191906000526020600020905b81548152906001019060200180831161151257829003601f168201915b5050505050815260200160068201805461154890612762565b80601f016020809104026020016040519081016040528092919081815260200182805461157490612762565b80156115c15780601f10611596576101008083540402835291602001916115c1565b820191906000526020600020905b8154815290600101906020018083116115a457829003601f168201915b505050918352505060078201546001600160a01b0316602082015260088201546040808301919091526009830154606080840191909152600a909301546080909201919091528201519082015161010083015161012084015161014090940151929b919a509850919650945092505050565b6001546001600160a01b0316331461165d5760405162461bcd60e51b815260040161053890612655565b6001600160a01b0381166116835760405162461bcd60e51b8152600401610538906126c7565b600280546001600160a01b0319166001600160a01b0383161790556040517f162e32528b5907ecf876b3b7a4e5e0edf878642e3ec25852e3c35af1a4e1c04090600090a150565b60008181526014602090815260409182902080548351818402810184019094528084526060939283018282801561174057602002820191906000526020600020906000905b825461010083900a900460ff16151581526020600192830181810494850194909303909202910180841161170f5790505b50505050509050919050565b600354600090600160a01b900460ff16156117795760405162461bcd60e51b815260040161053890612699565b5060009081526010602090815260408083206001600160a01b039490941683529290522054151590565b806117ae33826119d0565b61180d5760405162461bcd60e51b815260206004820152602a60248201527f736f7272792c20796f7520617265206e6f7420612072656769737465726564206044820152693932b1b4b834b2b73a1760b11b6064820152608401610538565b60008281526015602090815260408083203380855292529091205483919060ff1615156001141561189c5760405162461bcd60e51b815260206004820152603360248201527f77686f6f70732c206c6f6f6b73206c696b6520796f7527766520616c726561646044820152727920636c61696d65642077696e6e696e67732160681b6064820152608401610538565b600354600160a01b900460ff16156118c65760405162461bcd60e51b815260040161053890612699565b60008481526015602090815260408083203384528252808320805460ff1916600117905586835260099091528120600a018054916119038361279d565b90915550506000848152600960208190526040808320909101549051339282156108fc02929190818181858888f19350505050158015611947573d6000803e3d6000fd5b5060405184815233907f1a31e733a172afcf46074b3106c17f0c298e226442682a03c1e99ce256139ec29060200160405180910390a250505050565b600354600090600160a01b900460ff16156119b05760405162461bcd60e51b815260040161053890612699565b506000908152601760209081526040808320338452909152902054151590565b600354600090600160a01b900460ff16156119fd5760405162461bcd60e51b815260040161053890612699565b506000908152601d602090815260408083206001600160a01b039490941683529290522054151590565b8051611a3a90600090602084019061215f565b5050565b6003546001600160a01b0316331480611a6157506001546001600160a01b031633145b80611a7657506002546001600160a01b031633145b611adc5760405162461bcd60e51b815260206004820152603160248201527f6f6e6c7920736f6d656f6e652066726f6d20632d73756974652063616e2063616044820152703636103a3434b990333ab731ba34b7b71760791b6064820152608401610538565b600354600160a01b900460ff1615611b065760405162461bcd60e51b815260040161053890612699565b6003805460ff60a01b1916600160a01b179055565b606060008054611b2a90612762565b80601f0160208091040260200160405190810160405280929190818152602001828054611b5690612762565b8015611ba35780601f10611b7857610100808354040283529160200191611ba3565b820191906000526020600020905b815481529060010190602001808311611b8657829003601f168201915b5050505050905090565b60008181526012602090815260409182902080548351818402810184019094528084526060939283018282801561174057602002820191906000526020600020905b81546001600160a01b03168152600190910190602001808311611bef5750505050509050919050565b60606006805480602002602001604051908101604052809291908181526020018280548015611ba357602002820191906000526020600020905b815481526020019060010190808311611c52575050505050905090565b60008054611c7c90612762565b80601f0160208091040260200160405190810160405280929190818152602001828054611ca890612762565b8015611cf55780601f10611cca57610100808354040283529160200191611cf5565b820191906000526020600020905b815481529060010190602001808311611cd857829003601f168201915b505050505081565b60006060600080600080600080600960008a81526020019081526020016000206040518061016001604052908160008201548152602001600182018054611d4390612762565b80601f0160208091040260200160405190810160405280929190818152602001828054611d6f90612762565b8015611dbc5780601f10611d9157610100808354040283529160200191611dbc565b820191906000526020600020905b815481529060010190602001808311611d9f57829003601f168201915b5050509183525050600282015460209091019060ff166003811115611de357611de36127ce565b6003811115611df457611df46127ce565b815260200160038201548152602001600482018054611e1290612762565b80601f0160208091040260200160405190810160405280929190818152602001828054611e3e90612762565b8015611e8b5780601f10611e6057610100808354040283529160200191611e8b565b820191906000526020600020905b815481529060010190602001808311611e6e57829003601f168201915b50505050508152602001600582018054611ea490612762565b80601f0160208091040260200160405190810160405280929190818152602001828054611ed090612762565b8015611f1d5780601f10611ef257610100808354040283529160200191611f1d565b820191906000526020600020905b815481529060010190602001808311611f0057829003601f168201915b50505050508152602001600682018054611f3690612762565b80601f0160208091040260200160405190810160405280929190818152602001828054611f6290612762565b8015611faf5780601f10611f8457610100808354040283529160200191611faf565b820191906000526020600020905b815481529060010190602001808311611f9257829003601f168201915b505050505081526020016007820160009054906101000a90046001600160a01b03166001600160a01b03166001600160a01b031681526020016008820154815260200160098201548152602001600a8201548152505090508060000151816020015182604001518360600151846101000151856101200151866101400151975097509750975097509750975050919395979092949650565b60606007805480602002602001604051908101604052809291908181526020016000905b8282101561211757838290600052602060002001805461208a90612762565b80601f01602080910402602001604051908101604052809291908181526020018280546120b690612762565b80156121035780601f106120d857610100808354040283529160200191612103565b820191906000526020600020905b8154815290600101906020018083116120e657829003601f168201915b50505050508152602001906001019061206b565b50505050905090565b600061212c33836119d0565b61213857506000919050565b50600090815260156020908152604080832033845290915290205460ff1615156001141590565b82805461216b90612762565b90600052602060002090601f01602090048101928261218d57600085556121d3565b82601f106121a657805160ff19168380011785556121d3565b828001600101855582156121d3579182015b828111156121d35782518255916020019190600101906121b8565b506121df929150612257565b5090565b8280546121ef90612762565b90600052602060002090601f01602090048101928261221157600085556121d3565b82601f1061222a5782800160ff198235161785556121d3565b828001600101855582156121d3579182015b828111156121d357823582559160200191906001019061223c565b5b808211156121df5760008155600101612258565b80356001600160a01b038116811461055f57600080fd5b60006020828403121561229557600080fd5b61229e8261226c565b9392505050565b600080604083850312156122b857600080fd5b6122c18361226c565b946020939093013593505050565b6000602082840312156122e157600080fd5b813567ffffffffffffffff808211156122f957600080fd5b818401915084601f83011261230d57600080fd5b81358181111561231f5761231f6127fa565b604051601f8201601f19908116603f01168101908382118183101715612347576123476127fa565b8160405282815287602084870101111561236057600080fd5b826020860160208301376000928101602001929092525095945050505050565b60006020828403121561239257600080fd5b5035919050565b6000806000604084860312156123ae57600080fd5b83359250602084013567ffffffffffffffff808211156123cd57600080fd5b818601915086601f8301126123e157600080fd5b8135818111156123f057600080fd5b87602082850101111561240257600080fd5b6020830194508093505050509250925092565b600081518084526020808501945080840160005b8381101561244e5781516001600160a01b031687529582019590820190600101612429565b509495945050505050565b600081518084526020808501945080840160005b8381101561244e57815115158752958201959082019060010161246d565b600082825180855260208086019550808260051b84010181860160005b848110156124d657601f198684030189526124c4838351612505565b988401989250908301906001016124a8565b5090979650505050505050565b6004811061250157634e487b7160e01b600052602160045260246000fd5b9052565b6000815180845260005b8181101561252b5760208185018101518683018201520161250f565b8181111561253d576000602083870101525b50601f01601f19169290920160200192915050565b60208152600061229e6020830184612415565b6060815260006125786060830186612415565b828103602084015261258a818661248b565b9050828103604084015261259e8185612459565b9695505050505050565b60208152600061229e6020830184612459565b60208152600061229e602083018461248b565b6020808252825182820181905260009190848201906040850190845b81811015612606578351835292840192918401916001016125ea565b50909695505050505050565b60a0810161262082886124e3565b8560208301528460408301528360608301528260808301529695505050505050565b60208152600061229e6020830184612505565b60208082526024908201527f6f6e6c79207468652063656f2063616e2063616c6c20746869732066756e637460408201526334b7b71760e11b606082015260800190565b6020808252601490820152733a34329030b8381034b9903830bab9b2b217171760611b604082015260600190565b6020808252601f908201527f63616e6e6f74207365742043454f20746f207a65726f20616464726573732100604082015260600190565b87815260e06020820152600061271760e0830189612505565b905061272660408301886124e3565b8560608301528460808301528360a08301528260c083015298975050505050505050565b6000821982111561275d5761275d6127b8565b500190565b600181811c9082168061277657607f821691505b6020821081141561279757634e487b7160e01b600052602260045260246000fd5b50919050565b60006000198214156127b1576127b16127b8565b5060010190565b634e487b7160e01b600052601160045260246000fd5b634e487b7160e01b600052602160045260246000fd5b634e487b7160e01b600052603260045260246000fd5b634e487b7160e01b600052604160045260246000fdfea26469706673582212209cfef5bf8522b3d3393d7eb96e28a0480010344627c61030fb06687908e63c8564736f6c63430008070033",
  "immutableReferences": {},
  "source": "// SPDX-License-Identifier: MIT\npragma solidity ^0.8.0;\n\nimport '../core/EthDropBase.sol';\n\ncontract RecipientsManager is EthDropBase {\n    event EligibleRecipientAdded(address indexed account, uint256 groupId);\n    event EligibleRecipientRemoved(address indexed account, uint256 groupId);\n\n    event RecipientRegistered(address indexed account, uint256 groupId);\n    event WinningsClaimed(address indexed account, uint256 groupId);\n    event NewUserRequestedToJoinGroup(\n        uint256 groupId,\n        address account,\n        uint256 index\n    );\n\n    constructor() {}\n\n    modifier onlyEligibleRecipients(uint256 groupId) {\n        require(\n            isEligibleRecipient(msg.sender, groupId),\n            'sorry, you are not an eligible recipient.'\n        );\n        _;\n    }\n\n    function isEligibleRecipient(address account, uint256 groupId)\n        public\n        view\n        whenNotPaused\n        returns (bool)\n    {\n        return eligibleRecipientsAddresstoIndex[groupId][account] > 0;\n    }\n\n    function amIEligibleRecipient(uint256 groupId)\n        external\n        view\n        whenNotPaused\n        returns (bool)\n    {\n        return eligibleRecipientsAddresstoIndex[groupId][msg.sender] > 0;\n    }\n\n    modifier onlyRegisteredRecipients(uint256 groupId) {\n        require(\n            isRegisteredRecipient(msg.sender, groupId),\n            'sorry, you are not a registered recipient.'\n        );\n        _;\n    }\n\n    modifier hasntAlreadyClaimedWinnings(uint256 groupId, address account) {\n        require(\n            winningsCollected[groupId][msg.sender] != true,\n            \"whoops, looks like you've already claimed winnings!\"\n        );\n        _;\n    }\n\n    function isRegisteredRecipient(address account, uint256 groupId)\n        public\n        view\n        whenNotPaused\n        returns (bool)\n    {\n        return registeredRecipientsAddressToIndex[groupId][account] > 0;\n    }\n\n    modifier isNotRegisteredRecipient(address account, uint256 groupId) {\n        require(\n            registeredRecipientsAddressToIndex[groupId][account] == 0,\n            \"whoops, looks like you've already registered for this event!\"\n        );\n        _;\n    }\n\n    function amIRegisteredRecipient(uint256 groupId)\n        external\n        view\n        whenNotPaused\n        returns (bool)\n    {\n        return isRegisteredRecipient(msg.sender, groupId);\n    }\n\n    function amIPendingNewJoiner(uint256 groupId)\n        external\n        view\n        whenNotPaused\n        returns (bool)\n    {\n        return requestsToJoinGroupAddressToIndex[groupId][msg.sender] > 0;\n    }\n\n    modifier recipientEligibilityIsEnabled(uint256 groupId, address account) {\n        uint256 indexOfEligibleRecipient = eligibleRecipientsAddresstoIndex[\n            groupId\n        ][msg.sender];\n\n        require(\n            eligibleRecipientsEligibilityIsEnabled[groupId][\n                indexOfEligibleRecipient\n            ] != false,\n            \"Error: recipient's eligiblility has been disabled for this group...\"\n        );\n        _;\n    }\n\n    function registerForEvent(uint256 groupId)\n        external\n        onlyEligibleRecipients(groupId)\n        recipientEligibilityIsEnabled(groupId, msg.sender)\n        isNotRegisteredRecipient(msg.sender, groupId)\n        whenNotPaused\n    {\n        if (registeredRecipientsNextIndex[groupId] == 0) {\n            registeredRecipientsNextIndex[groupId] = 1;\n\n            registeredRecipientAddressesArray[groupId].push(address(0));\n            registeredRecipientNamesArray[groupId].push('');\n            registeredRecipientsWinningsCollected[groupId].push(false);\n        }\n\n        registeredRecipientsAddressToIndex[groupId][msg.sender] = registeredRecipientsNextIndex[groupId];\n\n        uint256 indexOfEligibleRecipient = eligibleRecipientsAddresstoIndex[\n            groupId\n        ][msg.sender];\n        string memory nameOfEligibleRecipient = eligibleRecipientNamesArray[\n            groupId\n        ][indexOfEligibleRecipient];\n\n        registeredRecipientAddressesArray[groupId].push(msg.sender);\n        registeredRecipientNamesArray[groupId].push(nameOfEligibleRecipient);\n        registeredRecipientsWinningsCollected[groupId].push(false);\n\n        currentEvents[groupId].registeredRecipientsCount =\n            currentEvents[groupId].registeredRecipientsCount +\n            1;\n\n        registeredRecipientsNextIndex[groupId] =\n            registeredRecipientsNextIndex[groupId] +\n            1;\n\n        emit RecipientRegistered(msg.sender, groupId);\n    }\n\n    function doIHaveClaimableWinnings(uint256 groupId)\n        external\n        view\n        returns (bool)\n    {\n        if (!isRegisteredRecipient(msg.sender, groupId)) {\n            return false;\n        }\n\n        return winningsCollected[groupId][msg.sender] != true;\n    }\n\n    function claimWinnings(uint256 groupId)\n        external\n        onlyRegisteredRecipients(groupId)\n        hasntAlreadyClaimedWinnings(groupId, msg.sender)\n        whenNotPaused\n    {\n        winningsCollected[groupId][msg.sender] = true;\n        currentEvents[groupId].numberOfUsersWhoClaimedWinnings++;\n\n        payable(msg.sender).transfer(currentEvents[groupId].weiWinnings);\n\n        emit WinningsClaimed(msg.sender, groupId);\n    }\n\n    function getEligibleRecipientAddresses(uint256 groupId)\n        external\n        view\n        returns (address[] memory)\n    {\n        return eligibleRecipientAddressesArray[groupId];\n    }\n\n    function getEligibleRecipientNames(uint256 groupId)\n        external\n        view\n        returns (string[] memory)\n    {\n        return eligibleRecipientNamesArray[groupId];\n    }\n\n    function getRegisteredRecipientNames(uint256 groupId)\n        external\n        view\n        returns (string[] memory)\n    {\n        return registeredRecipientNamesArray[groupId];\n    }\n\n    function getEligibleRecipientIsEligibilityEnabled(uint256 groupId)\n        external\n        view\n        returns (bool[] memory)\n    {\n        return eligibleRecipientsEligibilityIsEnabled[groupId];\n    }\n\n    function getRegisteredRecipients(uint256 groupId)\n        external\n        view\n        returns (\n            address[] memory,\n            string[] memory,\n            bool[] memory\n        )\n    {\n        return (\n            registeredRecipientAddressesArray[groupId],\n            registeredRecipientNamesArray[groupId],\n            registeredRecipientsWinningsCollected[groupId]\n        );\n    }\n\n    modifier requestsToJoinGroupNotAlreadyPending(\n        uint256 groupId,\n        address account\n    ) {\n        uint256 userIndex = requestsToJoinGroupAddressToIndex[groupId][account];\n        require(\n            userIndex == 0,\n            'Error: this address has already requested to join this group.'\n        );\n        _;\n    }\n\n    modifier requestToJoinGroupIsPending(uint256 groupId, address account) {\n        uint256 userIndex = requestsToJoinGroupAddressToIndex[groupId][account];\n        require(\n            userIndex > 0,\n            'Error: this address does not have a pending request to join this group.'\n        );\n        _;\n    }\n\n    modifier notAlreadyInGroup(uint256 groupId, address account) {\n        uint256 userIndex = eligibleRecipientsAddresstoIndex[groupId][account];\n        require(\n            userIndex == 0,\n            'Error: recipient is already an eligible recipient in the group.'\n        );\n        _;\n    }\n\n    // functions for recipients not yet eligible\n    function requestToJoinGroup(uint256 groupId, string calldata username)\n        external\n        requestsToJoinGroupNotAlreadyPending(groupId, msg.sender)\n        notAlreadyInGroup(groupId, msg.sender)\n    {\n        if (requestsToJoinGroupNextIndex[groupId] == 0) {\n            requestsToJoinGroupNextIndex[groupId] = 1;\n\n            requestsToJoinGroupAddresses[groupId].push(address(0));\n            requestsToJoinGroupNames[groupId].push('');\n            requestedToJoinGroup[groupId].push(false);\n            requestsToJoinGroupApprovals[groupId].push(false);\n        }\n\n        requestsToJoinGroupAddressToIndex[groupId][\n            msg.sender\n        ] = requestsToJoinGroupNextIndex[groupId];\n\n        requestsToJoinGroupAddresses[groupId].push(msg.sender);\n        requestsToJoinGroupNames[groupId].push(username);\n        requestedToJoinGroup[groupId].push(true);\n        requestsToJoinGroupApprovals[groupId].push(false);\n\n        requestsToJoinGroupNextIndex[groupId] =\n            requestsToJoinGroupNextIndex[groupId] +\n            1;\n\n        emit NewUserRequestedToJoinGroup(\n            groupId,\n            msg.sender,\n            nextAdminIndexForGroup[groupId]\n        );\n    }\n}\n",
  "sourcePath": "/Users/jim/trash/EthDrop/contracts/roles/RecipientsManager.sol",
  "compiler": {
    "name": "solc",
    "version": "0.8.7+commit.e28d00a7.Emscripten.clang"
  },
  "schemaVersion": "3.4.3",
  "updatedAt": "2021-09-17T20:51:43.226Z",
  "networkType": "ethereum",
  "devdoc": {
    "kind": "dev",
    "methods": {
      "pause()": {
        "details": "Called by any \"C-level\" role to pause the contract. Used only when  a bug or exploit is detected and we need to limit damage."
      },
      "setCEO(address)": {
        "details": "Assigns a new address to act as the CEO. Only available to the current CEO.",
        "params": {
          "_newCEO": "The address of the new CEO"
        }
      },
      "setCFO(address)": {
        "details": "Assigns a new address to act as the CFO. Only available to the current CEO.",
        "params": {
          "_newCFO": "The address of the new CFO"
        }
      },
      "setCOO(address)": {
        "details": "Assigns a new address to act as the COO. Only available to the current CEO.",
        "params": {
          "_newCOO": "The address of the new COO"
        }
      },
      "unpause()": {
        "details": "Unpauses the smart contract. Can only be called by the CEO, since  one reason we may pause the contract is when CFO or COO accounts are  compromised."
      }
    },
    "version": 1
  },
  "userdoc": {
    "kind": "user",
    "methods": {
      "unpause()": {
        "notice": "This is public rather than external so it can be called by  derived contracts."
      }
    },
    "version": 1
  }
}