{
  "contractName": "RecipientsManager",
  "abi": [
    {
      "inputs": [],
      "stateMutability": "nonpayable",
      "type": "constructor"
    },
    {
      "anonymous": false,
      "inputs": [
        {
          "indexed": false,
          "internalType": "bool",
          "name": "isPaused",
          "type": "bool"
        }
      ],
      "name": "AppPaused",
      "type": "event"
    },
    {
      "anonymous": false,
      "inputs": [],
      "name": "CfoUpdated",
      "type": "event"
    },
    {
      "anonymous": false,
      "inputs": [
        {
          "indexed": false,
          "internalType": "address",
          "name": "newContract",
          "type": "address"
        }
      ],
      "name": "ContractUpgrade",
      "type": "event"
    },
    {
      "anonymous": false,
      "inputs": [],
      "name": "CooUpdated",
      "type": "event"
    },
    {
      "anonymous": false,
      "inputs": [
        {
          "indexed": true,
          "internalType": "address",
          "name": "account",
          "type": "address"
        },
        {
          "indexed": false,
          "internalType": "uint256",
          "name": "groupId",
          "type": "uint256"
        }
      ],
      "name": "EligibleRecipientAdded",
      "type": "event"
    },
    {
      "anonymous": false,
      "inputs": [
        {
          "indexed": true,
          "internalType": "address",
          "name": "account",
          "type": "address"
        },
        {
          "indexed": false,
          "internalType": "uint256",
          "name": "groupId",
          "type": "uint256"
        }
      ],
      "name": "EligibleRecipientRemoved",
      "type": "event"
    },
    {
      "anonymous": false,
      "inputs": [],
      "name": "EventClose",
      "type": "event"
    },
    {
      "anonymous": false,
      "inputs": [
        {
          "indexed": false,
          "internalType": "uint256",
          "name": "groupId",
          "type": "uint256"
        },
        {
          "indexed": false,
          "internalType": "address",
          "name": "account",
          "type": "address"
        },
        {
          "indexed": false,
          "internalType": "uint256",
          "name": "index",
          "type": "uint256"
        }
      ],
      "name": "NewUserRequestedToJoinGroup",
      "type": "event"
    },
    {
      "anonymous": false,
      "inputs": [
        {
          "indexed": true,
          "internalType": "address",
          "name": "account",
          "type": "address"
        },
        {
          "indexed": false,
          "internalType": "uint256",
          "name": "groupId",
          "type": "uint256"
        }
      ],
      "name": "RecipientRegistered",
      "type": "event"
    },
    {
      "anonymous": false,
      "inputs": [],
      "name": "RegistrationOpen",
      "type": "event"
    },
    {
      "anonymous": false,
      "inputs": [
        {
          "indexed": false,
          "internalType": "address",
          "name": "from",
          "type": "address"
        },
        {
          "indexed": false,
          "internalType": "address",
          "name": "to",
          "type": "address"
        }
      ],
      "name": "Transfer",
      "type": "event"
    },
    {
      "anonymous": false,
      "inputs": [
        {
          "indexed": true,
          "internalType": "address",
          "name": "account",
          "type": "address"
        },
        {
          "indexed": false,
          "internalType": "uint256",
          "name": "groupId",
          "type": "uint256"
        }
      ],
      "name": "WinningsClaimed",
      "type": "event"
    },
    {
      "anonymous": false,
      "inputs": [],
      "name": "WinningsClaimingOpen",
      "type": "event"
    },
    {
      "inputs": [],
      "name": "ceoAddress",
      "outputs": [
        {
          "internalType": "address",
          "name": "",
          "type": "address"
        }
      ],
      "stateMutability": "view",
      "type": "function",
      "constant": true
    },
    {
      "inputs": [],
      "name": "cfoAddress",
      "outputs": [
        {
          "internalType": "address",
          "name": "",
          "type": "address"
        }
      ],
      "stateMutability": "view",
      "type": "function",
      "constant": true
    },
    {
      "inputs": [],
      "name": "cooAddress",
      "outputs": [
        {
          "internalType": "address",
          "name": "",
          "type": "address"
        }
      ],
      "stateMutability": "view",
      "type": "function",
      "constant": true
    },
    {
      "inputs": [],
      "name": "getCFO",
      "outputs": [
        {
          "internalType": "address",
          "name": "",
          "type": "address"
        }
      ],
      "stateMutability": "view",
      "type": "function",
      "constant": true
    },
    {
      "inputs": [],
      "name": "getCOO",
      "outputs": [
        {
          "internalType": "address",
          "name": "",
          "type": "address"
        }
      ],
      "stateMutability": "view",
      "type": "function",
      "constant": true
    },
    {
      "inputs": [
        {
          "internalType": "uint256",
          "name": "groupId",
          "type": "uint256"
        }
      ],
      "name": "getGroupEventData",
      "outputs": [
        {
          "internalType": "enum EthDropBase.EventState",
          "name": "",
          "type": "uint8"
        },
        {
          "internalType": "uint256",
          "name": "",
          "type": "uint256"
        },
        {
          "internalType": "uint256",
          "name": "",
          "type": "uint256"
        },
        {
          "internalType": "uint256",
          "name": "",
          "type": "uint256"
        },
        {
          "internalType": "uint256",
          "name": "",
          "type": "uint256"
        }
      ],
      "stateMutability": "view",
      "type": "function",
      "constant": true
    },
    {
      "inputs": [],
      "name": "getGroupIds",
      "outputs": [
        {
          "internalType": "uint256[]",
          "name": "",
          "type": "uint256[]"
        }
      ],
      "stateMutability": "view",
      "type": "function",
      "constant": true
    },
    {
      "inputs": [],
      "name": "getGroupNames",
      "outputs": [
        {
          "internalType": "string[]",
          "name": "",
          "type": "string[]"
        }
      ],
      "stateMutability": "view",
      "type": "function",
      "constant": true
    },
    {
      "inputs": [
        {
          "internalType": "uint256",
          "name": "groupId",
          "type": "uint256"
        }
      ],
      "name": "getGroupPublicData",
      "outputs": [
        {
          "internalType": "uint256",
          "name": "",
          "type": "uint256"
        },
        {
          "internalType": "string",
          "name": "",
          "type": "string"
        },
        {
          "internalType": "enum EthDropBase.EventState",
          "name": "",
          "type": "uint8"
        },
        {
          "internalType": "uint256",
          "name": "",
          "type": "uint256"
        },
        {
          "internalType": "uint256",
          "name": "",
          "type": "uint256"
        },
        {
          "internalType": "uint256",
          "name": "",
          "type": "uint256"
        },
        {
          "internalType": "uint256",
          "name": "",
          "type": "uint256"
        }
      ],
      "stateMutability": "view",
      "type": "function",
      "constant": true
    },
    {
      "inputs": [],
      "name": "getString",
      "outputs": [
        {
          "internalType": "string",
          "name": "",
          "type": "string"
        }
      ],
      "stateMutability": "view",
      "type": "function",
      "constant": true
    },
    {
      "inputs": [],
      "name": "isCEO",
      "outputs": [
        {
          "internalType": "bool",
          "name": "",
          "type": "bool"
        }
      ],
      "stateMutability": "view",
      "type": "function",
      "constant": true
    },
    {
      "inputs": [],
      "name": "isCFO",
      "outputs": [
        {
          "internalType": "bool",
          "name": "",
          "type": "bool"
        }
      ],
      "stateMutability": "view",
      "type": "function",
      "constant": true
    },
    {
      "inputs": [],
      "name": "isCOO",
      "outputs": [
        {
          "internalType": "bool",
          "name": "",
          "type": "bool"
        }
      ],
      "stateMutability": "view",
      "type": "function",
      "constant": true
    },
    {
      "inputs": [],
      "name": "isPaused",
      "outputs": [
        {
          "internalType": "bool",
          "name": "",
          "type": "bool"
        }
      ],
      "stateMutability": "view",
      "type": "function",
      "constant": true
    },
    {
      "inputs": [],
      "name": "pause",
      "outputs": [],
      "stateMutability": "nonpayable",
      "type": "function"
    },
    {
      "inputs": [],
      "name": "paused",
      "outputs": [
        {
          "internalType": "bool",
          "name": "",
          "type": "bool"
        }
      ],
      "stateMutability": "view",
      "type": "function",
      "constant": true
    },
    {
      "inputs": [
        {
          "internalType": "address",
          "name": "_newCEO",
          "type": "address"
        }
      ],
      "name": "setCEO",
      "outputs": [],
      "stateMutability": "nonpayable",
      "type": "function"
    },
    {
      "inputs": [
        {
          "internalType": "address",
          "name": "_newCFO",
          "type": "address"
        }
      ],
      "name": "setCFO",
      "outputs": [],
      "stateMutability": "nonpayable",
      "type": "function"
    },
    {
      "inputs": [
        {
          "internalType": "address",
          "name": "_newCOO",
          "type": "address"
        }
      ],
      "name": "setCOO",
      "outputs": [],
      "stateMutability": "nonpayable",
      "type": "function"
    },
    {
      "inputs": [
        {
          "internalType": "string",
          "name": "_s",
          "type": "string"
        }
      ],
      "name": "setString",
      "outputs": [],
      "stateMutability": "nonpayable",
      "type": "function"
    },
    {
      "inputs": [],
      "name": "stringgg",
      "outputs": [
        {
          "internalType": "string",
          "name": "",
          "type": "string"
        }
      ],
      "stateMutability": "view",
      "type": "function",
      "constant": true
    },
    {
      "inputs": [],
      "name": "unpause",
      "outputs": [
        {
          "internalType": "bool",
          "name": "",
          "type": "bool"
        }
      ],
      "stateMutability": "nonpayable",
      "type": "function"
    },
    {
      "inputs": [],
      "name": "whoami",
      "outputs": [
        {
          "internalType": "address",
          "name": "",
          "type": "address"
        }
      ],
      "stateMutability": "view",
      "type": "function",
      "constant": true
    },
    {
      "inputs": [
        {
          "internalType": "address",
          "name": "account",
          "type": "address"
        },
        {
          "internalType": "uint256",
          "name": "groupId",
          "type": "uint256"
        }
      ],
      "name": "isEligibleRecipient",
      "outputs": [
        {
          "internalType": "bool",
          "name": "",
          "type": "bool"
        }
      ],
      "stateMutability": "view",
      "type": "function",
      "constant": true
    },
    {
      "inputs": [
        {
          "internalType": "uint256",
          "name": "groupId",
          "type": "uint256"
        }
      ],
      "name": "amIEligibleRecipient",
      "outputs": [
        {
          "internalType": "bool",
          "name": "",
          "type": "bool"
        }
      ],
      "stateMutability": "view",
      "type": "function",
      "constant": true
    },
    {
      "inputs": [
        {
          "internalType": "address",
          "name": "account",
          "type": "address"
        },
        {
          "internalType": "uint256",
          "name": "groupId",
          "type": "uint256"
        }
      ],
      "name": "isRegisteredRecipient",
      "outputs": [
        {
          "internalType": "bool",
          "name": "",
          "type": "bool"
        }
      ],
      "stateMutability": "view",
      "type": "function",
      "constant": true
    },
    {
      "inputs": [
        {
          "internalType": "uint256",
          "name": "groupId",
          "type": "uint256"
        }
      ],
      "name": "amIRegisteredRecipient",
      "outputs": [
        {
          "internalType": "bool",
          "name": "",
          "type": "bool"
        }
      ],
      "stateMutability": "view",
      "type": "function",
      "constant": true
    },
    {
      "inputs": [
        {
          "internalType": "uint256",
          "name": "groupId",
          "type": "uint256"
        }
      ],
      "name": "amIPendingNewJoiner",
      "outputs": [
        {
          "internalType": "bool",
          "name": "",
          "type": "bool"
        }
      ],
      "stateMutability": "view",
      "type": "function",
      "constant": true
    },
    {
      "inputs": [
        {
          "internalType": "uint256",
          "name": "groupId",
          "type": "uint256"
        }
      ],
      "name": "registerForEvent",
      "outputs": [],
      "stateMutability": "nonpayable",
      "type": "function"
    },
    {
      "inputs": [
        {
          "internalType": "uint256",
          "name": "groupId",
          "type": "uint256"
        }
      ],
      "name": "doIHaveClaimableWinnings",
      "outputs": [
        {
          "internalType": "bool",
          "name": "hasclaimableWinnings",
          "type": "bool"
        }
      ],
      "stateMutability": "view",
      "type": "function",
      "constant": true
    },
    {
      "inputs": [
        {
          "internalType": "uint256",
          "name": "groupId",
          "type": "uint256"
        }
      ],
      "name": "getEligibleRecipientsHasCollectedWinnings",
      "outputs": [
        {
          "internalType": "bool[]",
          "name": "",
          "type": "bool[]"
        }
      ],
      "stateMutability": "view",
      "type": "function",
      "constant": true
    },
    {
      "inputs": [
        {
          "internalType": "uint256",
          "name": "groupId",
          "type": "uint256"
        }
      ],
      "name": "claimWinnings",
      "outputs": [],
      "stateMutability": "nonpayable",
      "type": "function"
    },
    {
      "inputs": [
        {
          "internalType": "uint256",
          "name": "groupId",
          "type": "uint256"
        }
      ],
      "name": "getEligibleRecipientAddresses",
      "outputs": [
        {
          "internalType": "address[]",
          "name": "",
          "type": "address[]"
        }
      ],
      "stateMutability": "view",
      "type": "function",
      "constant": true
    },
    {
      "inputs": [
        {
          "internalType": "uint256",
          "name": "groupId",
          "type": "uint256"
        }
      ],
      "name": "getEligibleRecipientNames",
      "outputs": [
        {
          "internalType": "string[]",
          "name": "",
          "type": "string[]"
        }
      ],
      "stateMutability": "view",
      "type": "function",
      "constant": true
    },
    {
      "inputs": [
        {
          "internalType": "uint256",
          "name": "groupId",
          "type": "uint256"
        }
      ],
      "name": "getRegisteredRecipientNames",
      "outputs": [
        {
          "internalType": "string[]",
          "name": "",
          "type": "string[]"
        }
      ],
      "stateMutability": "view",
      "type": "function",
      "constant": true
    },
    {
      "inputs": [
        {
          "internalType": "uint256",
          "name": "groupId",
          "type": "uint256"
        }
      ],
      "name": "getEligibleRecipientIsEligibilityEnabled",
      "outputs": [
        {
          "internalType": "bool[]",
          "name": "",
          "type": "bool[]"
        }
      ],
      "stateMutability": "view",
      "type": "function",
      "constant": true
    },
    {
      "inputs": [
        {
          "internalType": "uint256",
          "name": "groupId",
          "type": "uint256"
        }
      ],
      "name": "getRegisteredRecipients",
      "outputs": [
        {
          "internalType": "address[]",
          "name": "",
          "type": "address[]"
        },
        {
          "internalType": "string[]",
          "name": "",
          "type": "string[]"
        },
        {
          "internalType": "bool[]",
          "name": "",
          "type": "bool[]"
        }
      ],
      "stateMutability": "view",
      "type": "function",
      "constant": true
    },
    {
      "inputs": [
        {
          "internalType": "uint256",
          "name": "groupId",
          "type": "uint256"
        },
        {
          "internalType": "string",
          "name": "username",
          "type": "string"
        }
      ],
      "name": "requestToJoinGroup",
      "outputs": [],
      "stateMutability": "nonpayable",
      "type": "function"
    }
  ],
  "bytecode": "0x6080604052600180546001600160a01b031916331781556003805460ff60a01b191690556005805560085534801561003657600080fd5b50612997806100466000396000f3fe608060405234801561001057600080fd5b50600436106102125760003560e01c8063744c5e1e11610120578063b187bd26116100b8578063d5f016c31161007c578063d5f016c3146104e7578063e513b7a9146104ef578063f4a02e7014610502578063f89e9cb914610515578063fc5fd6e41461052857600080fd5b8063b187bd261461048c578063b3b36bb31461049e578063c02b8b2c146104a4578063c6db5094146104b9578063cd04e475146104c157600080fd5b8063744c5e1e146103df5780637b936ac2146103f25780637d837ce5146104035780637fcaf666146104165780638456cb591461042957806389ea642f146104315780639393ae37146104465780639bda879614610459578063b047fb501461047957600080fd5b80633f4ba83a116101ae5780634e0a3379116101725780634e0a33791461037f57806355b57ec1146103925780635c975abb146103a55780635e82c1fc146103b9578063677bd9ff146103cc57600080fd5b80633f4ba83a1461030b578063406db8431461031357806344b2983b14610326578063454432e2146103485780634635509b1461035b57600080fd5b80630519ce791461021757806306cb9d6f1461024757806306cc49221461026757806307bfa3301461028a5780630a0f8168146102aa578063222fd087146102bd57806327d7874c146102d25780632ba73c15146102e557806338f0b656146102f8575b600080fd5b60025461022a906001600160a01b031681565b6040516001600160a01b0390911681526020015b60405180910390f35b61025a6102553660046124d1565b610539565b60405161023e91906126f9565b61027a6102753660046124d1565b6105bb565b604051901515815260200161023e565b61029d6102983660046124d1565b610614565b60405161023e919061270c565b60015461022a906001600160a01b031681565b6102d06102cb3660046124ea565b610700565b005b6102d06102e03660046123d4565b610a63565b6102d06102f33660046123d4565b610ad5565b61027a6103063660046124d1565b610b59565b61027a610b96565b6102d06103213660046124d1565b610c51565b6103396103343660046124d1565b611115565b60405161023e939291906126b6565b61029d6103563660046124d1565b6112e2565b61036e6103693660046124d1565b6113c3565b60405161023e959493929190612763565b6102d061038d3660046123d4565b6116e3565b61025a6103a03660046124d1565b61177a565b60035461027a90600160a01b900460ff1681565b61027a6103c73660046123f6565b6117df565b6102d06103da3660046124d1565b611836565b61027a6103ed3660046124d1565b611a9c565b6002546001600160a01b031661022a565b61027a6104113660046123f6565b611ae9565b6102d0610424366004612420565b611b40565b6102d0611b57565b610439611c34565b60405161023e9190612793565b6002546001600160a01b0316331461027a565b61046c6104673660046124d1565b611cc6565b60405161023e91906126a3565b60035461022a906001600160a01b031681565b600354600160a01b900460ff1661027a565b3361022a565b6104ac611d31565b60405161023e919061271f565b610439611d88565b6104d46104cf3660046124d1565b611e16565b60405161023e979695949392919061284f565b61029d612160565b6001546001600160a01b0316331461027a565b6003546001600160a01b0316331461027a565b61027a6105233660046124d1565b612239565b6003546001600160a01b031661022a565b6000818152601560209081526040918290208054835181840281018401909452808452606093928301828280156105af57602002820191906000526020600020906000905b825461010083900a900460ff16151581526020600192830181810494850194909303909202910180841161057e5790505b50505050509050919050565b600354600090600160a01b900460ff16156105f15760405162461bcd60e51b81526004016105e8906127ea565b60405180910390fd5b50600081815260106020908152604080832033845290915290205415155b919050565b6060601f6000838152602001908152602001600020805480602002602001604051908101604052809291908181526020016000905b828210156106f5578382906000526020600020018054610668906128b3565b80601f0160208091040260200160405190810160405280929190818152602001828054610694906128b3565b80156106e15780601f106106b6576101008083540402835291602001916106e1565b820191906000526020600020905b8154815290600101906020018083116106c457829003601f168201915b505050505081526020019060010190610649565b505050509050919050565b60008381526017602090815260408083203380855292529091205484919080156107925760405162461bcd60e51b815260206004820152603d60248201527f4572726f723a207468697320616464726573732068617320616c72656164792060448201527f72657175657374656420746f206a6f696e20746869732067726f75702e00000060648201526084016105e8565b60008681526010602090815260408083203380855292529091205487919080156108245760405162461bcd60e51b815260206004820152603f60248201527f4572726f723a20726563697069656e7420697320616c726561647920616e206560448201527f6c696769626c6520726563697069656e7420696e207468652067726f75702e0060648201526084016105e8565b60008981526018602052604090205461090c57600089815260186020908152604080832060019081905560198352818420805480830182559085528385200180546001600160a01b03191690558c8452601a8352818420805491820181558452828420825193840192839052928490526108a0939201916122b0565b506000898152601b60209081526040808320805460018082018355918552838520848204018054601f92831661010090810a60ff908102199092169092558f8752601c86529386208054938401815586529484902093820490930180549190931690930a021990911690555b6000898152601860209081526040808320546017835281842033808652908452828520919091558c8452601983528184208054600181810183559186528486200180546001600160a01b0319169092179091558c8452601a8352908320805491820181558352912061098091018989612334565b506000898152601b60209081526040808320805460018082018355918552838520848204018054601f92831661010090810a60ff81810219909316179092558f8752601c8652848720805480860182559088528688208782040180549190941690920a02191690558c84526018909252909120546109fd9161289b565b60008a815260186020908152604080832093909355600c8152908290205482518c815233928101929092528183015290517fc73d895047e43bcf8caa9f1cce950d0f1a21fc9a00a8d693db86cd0c93dc91aa9181900360600190a1505050505050505050565b6001546001600160a01b03163314610a8d5760405162461bcd60e51b81526004016105e8906127a6565b6001600160a01b038116610ab35760405162461bcd60e51b81526004016105e890612818565b600180546001600160a01b0319166001600160a01b0392909216919091179055565b6001546001600160a01b03163314610aff5760405162461bcd60e51b81526004016105e8906127a6565b6001600160a01b038116610b1257600080fd5b600380546001600160a01b0319166001600160a01b0383161790556040517fa308298a77084def994b565be25bff2e8fbfe7006c2c6b2bacfb84d1ba1f635090600090a150565b600354600090600160a01b900460ff1615610b865760405162461bcd60e51b81526004016105e8906127ea565b610b903383611ae9565b92915050565b6001546000906001600160a01b03163314610bc35760405162461bcd60e51b81526004016105e8906127a6565b600354600160a01b900460ff16610c345760405162461bcd60e51b815260206004820152602f60248201527f66756e6374696f6e2063616e206f6e6c792062652063616c6c6564207768656e60448201526e1030b8381034b9903830bab9b2b21760891b60648201526084016105e8565b506003805460ff60a01b191690819055600160a01b900460ff1690565b80610c5c33826117df565b610cba5760405162461bcd60e51b815260206004820152602960248201527f736f7272792c20796f7520617265206e6f7420616e20656c696769626c65207260448201526832b1b4b834b2b73a1760b91b60648201526084016105e8565b60008281526010602090815260408083203380855290835281842054868552601490935292208054859392919082908110610cf757610cf7612935565b60009182526020918290209181049091015460ff601f9092166101000a900416610d955760405162461bcd60e51b815260206004820152604360248201527f4572726f723a20726563697069656e74277320656c696769626c696c6974792060448201527f686173206265656e2064697361626c656420666f7220746869732067726f757060648201526217171760e91b608482015260a4016105e8565b6000858152601d6020908152604080832033808552925290912054869015610e255760405162461bcd60e51b815260206004820152603c60248201527f77686f6f70732c206c6f6f6b73206c696b6520796f7527766520616c7265616460448201527f79207265676973746572656420666f722074686973206576656e74210000000060648201526084016105e8565b600354600160a01b900460ff1615610e4f5760405162461bcd60e51b81526004016105e8906127ea565b6000878152601e6020526040902054610f03576000878152601e60209081526040808320600190819055828052818420805480830182559085528385200180546001600160a01b03191690558a8452601f835281842080549182018155845282842082519384019283905292849052610eca939201916122b0565b5060008781526021602090815260408220805460018101825590835291819020908204018054601f9092166101000a60ff021990911690555b6000878152601e6020908152604080832054601d835281842033808652908452828520919091558a8452601083528184209084528252808320548a845260139092528220805491929183908110610f5c57610f5c612935565b906000526020600020018054610f71906128b3565b80601f0160208091040260200160405190810160405280929190818152602001828054610f9d906128b3565b8015610fea5780601f10610fbf57610100808354040283529160200191610fea565b820191906000526020600020905b815481529060010190602001808311610fcd57829003601f168201915b50505060008c8152602080805260408083208054600181810183559185528385200180546001600160a01b031916331790558f8452601f83529083208054918201815583529181902085519596506110499592019350850191506122b0565b506000898152602160209081526040808320805460018082018355918552838520848204018054601f9092166101000a60ff021990911690558c845260099092529091206003015461109a9161289b565b60008a815260096020908152604080832060030193909355601e905220546110c390600161289b565b60008a8152601e602090815260409182902092909255518a815233917f0695e999be8100bdb5bee8612337296508d527eae78c65b8f170eacb5a3b439d910160405180910390a2505050505050505050565b600081815260208080526040808320601f83528184206021845293829020815483518186028101860190945280845260609586958695919392859183018282801561118957602002820191906000526020600020905b81546001600160a01b0316815260019091019060200180831161116b575b5050505050925081805480602002602001604051908101604052809291908181526020016000905b8282101561125d5783829060005260206000200180546111d0906128b3565b80601f01602080910402602001604051908101604052809291908181526020018280546111fc906128b3565b80156112495780601f1061121e57610100808354040283529160200191611249565b820191906000526020600020905b81548152906001019060200180831161122c57829003601f168201915b5050505050815260200190600101906111b1565b505050509150808054806020026020016040519081016040528092919081815260200182805480156112ce57602002820191906000526020600020906000905b825461010083900a900460ff16151581526020600192830181810494850194909303909202910180841161129d5790505b505050505090509250925092509193909250565b606060136000838152602001908152602001600020805480602002602001604051908101604052809291908181526020016000905b828210156106f5578382906000526020600020018054611336906128b3565b80601f0160208091040260200160405190810160405280929190818152602001828054611362906128b3565b80156113af5780601f10611384576101008083540402835291602001916113af565b820191906000526020600020905b81548152906001019060200180831161139257829003601f168201915b505050505081526020019060010190611317565b600080600080600080600960008881526020019081526020016000206040518061016001604052908160008201548152602001600182018054611405906128b3565b80601f0160208091040260200160405190810160405280929190818152602001828054611431906128b3565b801561147e5780601f106114535761010080835404028352916020019161147e565b820191906000526020600020905b81548152906001019060200180831161146157829003601f168201915b5050509183525050600282015460209091019060ff1660038111156114a5576114a561291f565b60038111156114b6576114b661291f565b8152602001600382015481526020016004820180546114d4906128b3565b80601f0160208091040260200160405190810160405280929190818152602001828054611500906128b3565b801561154d5780601f106115225761010080835404028352916020019161154d565b820191906000526020600020905b81548152906001019060200180831161153057829003601f168201915b50505050508152602001600582018054611566906128b3565b80601f0160208091040260200160405190810160405280929190818152602001828054611592906128b3565b80156115df5780601f106115b4576101008083540402835291602001916115df565b820191906000526020600020905b8154815290600101906020018083116115c257829003601f168201915b505050505081526020016006820180546115f8906128b3565b80601f0160208091040260200160405190810160405280929190818152602001828054611624906128b3565b80156116715780601f1061164657610100808354040283529160200191611671565b820191906000526020600020905b81548152906001019060200180831161165457829003601f168201915b505050918352505060078201546001600160a01b0316602082015260088201546040808301919091526009830154606080840191909152600a909301546080909201919091528201519082015161010083015161012084015161014090940151929b919a509850919650945092505050565b6001546001600160a01b0316331461170d5760405162461bcd60e51b81526004016105e8906127a6565b6001600160a01b0381166117335760405162461bcd60e51b81526004016105e890612818565b600280546001600160a01b0319166001600160a01b0383161790556040517f162e32528b5907ecf876b3b7a4e5e0edf878642e3ec25852e3c35af1a4e1c04090600090a150565b6000818152601460209081526040918290208054835181840281018401909452808452606093928301828280156105af576000918252602091829020805460ff161515845290820283019290916001910180841161057e575094979650505050505050565b600354600090600160a01b900460ff161561180c5760405162461bcd60e51b81526004016105e8906127ea565b5060009081526010602090815260408083206001600160a01b039490941683529290522054151590565b806118413382611ae9565b6118a05760405162461bcd60e51b815260206004820152602a60248201527f736f7272792c20796f7520617265206e6f7420612072656769737465726564206044820152693932b1b4b834b2b73a1760b11b60648201526084016105e8565b600082815260106020908152604080832033808552908352818420548685526015909352922080548593929190829081106118dd576118dd612935565b90600052602060002090602091828204019190069054906101000a900460ff16151560011515141561196d5760405162461bcd60e51b815260206004820152603360248201527f77686f6f70732c206c6f6f6b73206c696b6520796f7527766520616c726561646044820152727920636c61696d65642077696e6e696e67732160681b60648201526084016105e8565b600354600160a01b900460ff16156119975760405162461bcd60e51b81526004016105e8906127ea565b60008581526010602090815260408083203384528252808320548884526015909252909120805460019190839081106119d2576119d2612935565b6000918252602080832081830401805460ff601f9094166101000a938402191694151592909202939093179055878152600990915260408120600a01805491611a1a836128ee565b90915550506000868152600960208190526040808320909101549051339282156108fc02929190818181858888f19350505050158015611a5e573d6000803e3d6000fd5b5060405186815233907f1a31e733a172afcf46074b3106c17f0c298e226442682a03c1e99ce256139ec29060200160405180910390a2505050505050565b600354600090600160a01b900460ff1615611ac95760405162461bcd60e51b81526004016105e8906127ea565b506000908152601760209081526040808320338452909152902054151590565b600354600090600160a01b900460ff1615611b165760405162461bcd60e51b81526004016105e8906127ea565b506000908152601d602090815260408083206001600160a01b039490941683529290522054151590565b8051611b539060009060208401906122b0565b5050565b6003546001600160a01b0316331480611b7a57506001546001600160a01b031633145b80611b8f57506002546001600160a01b031633145b611bf55760405162461bcd60e51b815260206004820152603160248201527f6f6e6c7920736f6d656f6e652066726f6d20632d73756974652063616e2063616044820152703636103a3434b990333ab731ba34b7b71760791b60648201526084016105e8565b600354600160a01b900460ff1615611c1f5760405162461bcd60e51b81526004016105e8906127ea565b6003805460ff60a01b1916600160a01b179055565b606060008054611c43906128b3565b80601f0160208091040260200160405190810160405280929190818152602001828054611c6f906128b3565b8015611cbc5780601f10611c9157610100808354040283529160200191611cbc565b820191906000526020600020905b815481529060010190602001808311611c9f57829003601f168201915b5050505050905090565b6000818152601260209081526040918290208054835181840281018401909452808452606093928301828280156105af57602002820191906000526020600020905b81546001600160a01b03168152600190910190602001808311611d085750505050509050919050565b60606006805480602002602001604051908101604052809291908181526020018280548015611cbc57602002820191906000526020600020905b815481526020019060010190808311611d6b575050505050905090565b60008054611d95906128b3565b80601f0160208091040260200160405190810160405280929190818152602001828054611dc1906128b3565b8015611e0e5780601f10611de357610100808354040283529160200191611e0e565b820191906000526020600020905b815481529060010190602001808311611df157829003601f168201915b505050505081565b60006060600080600080600080600960008a81526020019081526020016000206040518061016001604052908160008201548152602001600182018054611e5c906128b3565b80601f0160208091040260200160405190810160405280929190818152602001828054611e88906128b3565b8015611ed55780601f10611eaa57610100808354040283529160200191611ed5565b820191906000526020600020905b815481529060010190602001808311611eb857829003601f168201915b5050509183525050600282015460209091019060ff166003811115611efc57611efc61291f565b6003811115611f0d57611f0d61291f565b815260200160038201548152602001600482018054611f2b906128b3565b80601f0160208091040260200160405190810160405280929190818152602001828054611f57906128b3565b8015611fa45780601f10611f7957610100808354040283529160200191611fa4565b820191906000526020600020905b815481529060010190602001808311611f8757829003601f168201915b50505050508152602001600582018054611fbd906128b3565b80601f0160208091040260200160405190810160405280929190818152602001828054611fe9906128b3565b80156120365780601f1061200b57610100808354040283529160200191612036565b820191906000526020600020905b81548152906001019060200180831161201957829003601f168201915b5050505050815260200160068201805461204f906128b3565b80601f016020809104026020016040519081016040528092919081815260200182805461207b906128b3565b80156120c85780601f1061209d576101008083540402835291602001916120c8565b820191906000526020600020905b8154815290600101906020018083116120ab57829003601f168201915b505050505081526020016007820160009054906101000a90046001600160a01b03166001600160a01b03166001600160a01b031681526020016008820154815260200160098201548152602001600a8201548152505090508060000151816020015182604001518360600151846101000151856101200151866101400151975097509750975097509750975050919395979092949650565b60606007805480602002602001604051908101604052809291908181526020016000905b828210156122305783829060005260206000200180546121a3906128b3565b80601f01602080910402602001604051908101604052809291908181526020018280546121cf906128b3565b801561221c5780601f106121f15761010080835404028352916020019161221c565b820191906000526020600020905b8154815290600101906020018083116121ff57829003601f168201915b505050505081526020019060010190612184565b50505050905090565b60006122453383611ae9565b61225157506000919050565b6000828152601060209081526040808320338452825280832054858452601590925290912080548290811061228857612288612935565b60009182526020918290209181049091015460ff601f9092166101000a900416159392505050565b8280546122bc906128b3565b90600052602060002090601f0160209004810192826122de5760008555612324565b82601f106122f757805160ff1916838001178555612324565b82800160010185558215612324579182015b82811115612324578251825591602001919060010190612309565b506123309291506123a8565b5090565b828054612340906128b3565b90600052602060002090601f0160209004810192826123625760008555612324565b82601f1061237b5782800160ff19823516178555612324565b82800160010185558215612324579182015b8281111561232457823582559160200191906001019061238d565b5b8082111561233057600081556001016123a9565b80356001600160a01b038116811461060f57600080fd5b6000602082840312156123e657600080fd5b6123ef826123bd565b9392505050565b6000806040838503121561240957600080fd5b612412836123bd565b946020939093013593505050565b60006020828403121561243257600080fd5b813567ffffffffffffffff8082111561244a57600080fd5b818401915084601f83011261245e57600080fd5b8135818111156124705761247061294b565b604051601f8201601f19908116603f011681019083821181831017156124985761249861294b565b816040528281528760208487010111156124b157600080fd5b826020860160208301376000928101602001929092525095945050505050565b6000602082840312156124e357600080fd5b5035919050565b6000806000604084860312156124ff57600080fd5b83359250602084013567ffffffffffffffff8082111561251e57600080fd5b818601915086601f83011261253257600080fd5b81358181111561254157600080fd5b87602082850101111561255357600080fd5b6020830194508093505050509250925092565b600081518084526020808501945080840160005b8381101561259f5781516001600160a01b03168752958201959082019060010161257a565b509495945050505050565b600081518084526020808501945080840160005b8381101561259f5781511515875295820195908201906001016125be565b600082825180855260208086019550808260051b84010181860160005b8481101561262757601f19868403018952612615838351612656565b988401989250908301906001016125f9565b5090979650505050505050565b6004811061265257634e487b7160e01b600052602160045260246000fd5b9052565b6000815180845260005b8181101561267c57602081850181015186830182015201612660565b8181111561268e576000602083870101525b50601f01601f19169290920160200192915050565b6020815260006123ef6020830184612566565b6060815260006126c96060830186612566565b82810360208401526126db81866125dc565b905082810360408401526126ef81856125aa565b9695505050505050565b6020815260006123ef60208301846125aa565b6020815260006123ef60208301846125dc565b6020808252825182820181905260009190848201906040850190845b818110156127575783518352928401929184019160010161273b565b50909695505050505050565b60a081016127718288612634565b8560208301528460408301528360608301528260808301529695505050505050565b6020815260006123ef6020830184612656565b60208082526024908201527f6f6e6c79207468652063656f2063616e2063616c6c20746869732066756e637460408201526334b7b71760e11b606082015260800190565b6020808252601490820152733a34329030b8381034b9903830bab9b2b217171760611b604082015260600190565b6020808252601f908201527f63616e6e6f74207365742043454f20746f207a65726f20616464726573732100604082015260600190565b87815260e06020820152600061286860e0830189612656565b90506128776040830188612634565b8560608301528460808301528360a08301528260c083015298975050505050505050565b600082198211156128ae576128ae612909565b500190565b600181811c908216806128c757607f821691505b602082108114156128e857634e487b7160e01b600052602260045260246000fd5b50919050565b600060001982141561290257612902612909565b5060010190565b634e487b7160e01b600052601160045260246000fd5b634e487b7160e01b600052602160045260246000fd5b634e487b7160e01b600052603260045260246000fd5b634e487b7160e01b600052604160045260246000fdfea2646970667358221220baf51911a532c544f447593435dd31a931fa8259dce1d2ebff3e5c90b0f9843964736f6c63430008070033",
  "immutableReferences": {},
  "source": "// SPDX-License-Identifier: MIT\npragma solidity ^0.8.0;\n\nimport '../core/EthDropBase.sol';\n\ncontract RecipientsManager is EthDropBase {\n    event EligibleRecipientAdded(address indexed account, uint256 groupId);\n    event EligibleRecipientRemoved(address indexed account, uint256 groupId);\n\n    event RecipientRegistered(address indexed account, uint256 groupId);\n    event WinningsClaimed(address indexed account, uint256 groupId);\n    event NewUserRequestedToJoinGroup(\n        uint256 groupId,\n        address account,\n        uint256 index\n    );\n\n    constructor() {}\n\n    modifier onlyEligibleRecipients(uint256 groupId) {\n        require(\n            isEligibleRecipient(msg.sender, groupId),\n            'sorry, you are not an eligible recipient.'\n        );\n        _;\n    }\n\n    function isEligibleRecipient(address account, uint256 groupId)\n        public\n        view\n        whenNotPaused\n        returns (bool)\n    {\n        return eligibleRecipientsAddresstoIndex[groupId][account] > 0;\n    }\n\n    function amIEligibleRecipient(uint256 groupId)\n        external\n        view\n        whenNotPaused\n        returns (bool)\n    {\n        return eligibleRecipientsAddresstoIndex[groupId][msg.sender] > 0;\n    }\n\n    modifier onlyRegisteredRecipients(uint256 groupId) {\n        require(\n            isRegisteredRecipient(msg.sender, groupId),\n            'sorry, you are not a registered recipient.'\n        );\n        _;\n    }\n\n    modifier hasntAlreadyClaimedWinnings(uint256 groupId, address account) {\n            uint256 indexOfClaimer = eligibleRecipientsAddresstoIndex[groupId][\n            msg.sender\n        ];\n        require(\n            eligibleRecipientsHasCollectedWinnings[groupId][indexOfClaimer] != true,\n            \"whoops, looks like you've already claimed winnings!\"\n        );\n        _;\n    }\n\n    function isRegisteredRecipient(address account, uint256 groupId)\n        public\n        view\n        whenNotPaused\n        returns (bool)\n    {\n        return registeredRecipientsAddressToIndex[groupId][account] > 0;\n    }\n\n    modifier isNotRegisteredRecipient(address account, uint256 groupId) {\n        require(\n            registeredRecipientsAddressToIndex[groupId][account] == 0,\n            \"whoops, looks like you've already registered for this event!\"\n        );\n        _;\n    }\n\n    function amIRegisteredRecipient(uint256 groupId)\n        external\n        view\n        whenNotPaused\n        returns (bool)\n    {\n        return isRegisteredRecipient(msg.sender, groupId);\n    }\n\n    function amIPendingNewJoiner(uint256 groupId)\n        external\n        view\n        whenNotPaused\n        returns (bool)\n    {\n        return requestsToJoinGroupAddressToIndex[groupId][msg.sender] > 0;\n    }\n\n    modifier recipientEligibilityIsEnabled(uint256 groupId, address account) {\n        uint256 indexOfEligibleRecipient = eligibleRecipientsAddresstoIndex[\n            groupId\n        ][msg.sender];\n\n        require(\n            eligibleRecipientsEligibilityIsEnabled[groupId][\n                indexOfEligibleRecipient\n            ] != false,\n            \"Error: recipient's eligiblility has been disabled for this group...\"\n        );\n        _;\n    }\n\n    function registerForEvent(uint256 groupId)\n        external\n        onlyEligibleRecipients(groupId)\n        recipientEligibilityIsEnabled(groupId, msg.sender)\n        isNotRegisteredRecipient(msg.sender, groupId)\n        whenNotPaused\n    {\n        if (registeredRecipientsNextIndex[groupId] == 0) {\n            registeredRecipientsNextIndex[groupId] = 1;\n\n            registeredRecipientAddressesArray[groupId].push(address(0));\n            registeredRecipientNamesArray[groupId].push('');\n            registeredRecipientsWinningsCollected[groupId].push(false);\n        }\n\n        registeredRecipientsAddressToIndex[groupId][\n            msg.sender\n        ] = registeredRecipientsNextIndex[groupId];\n\n        uint256 indexOfEligibleRecipient = eligibleRecipientsAddresstoIndex[\n            groupId\n        ][msg.sender];\n        string memory nameOfEligibleRecipient = eligibleRecipientNamesArray[\n            groupId\n        ][indexOfEligibleRecipient];\n\n        registeredRecipientAddressesArray[groupId].push(msg.sender);\n        registeredRecipientNamesArray[groupId].push(nameOfEligibleRecipient);\n        registeredRecipientsWinningsCollected[groupId].push(false);\n\n        currentEvents[groupId].registeredRecipientsCount =\n            currentEvents[groupId].registeredRecipientsCount +\n            1;\n\n        registeredRecipientsNextIndex[groupId] =\n            registeredRecipientsNextIndex[groupId] +\n            1;\n\n        emit RecipientRegistered(msg.sender, groupId);\n    }\n\n    function doIHaveClaimableWinnings(uint256 groupId)\n        external\n        view\n        returns (bool hasclaimableWinnings)\n    {\n        if (!isRegisteredRecipient(msg.sender, groupId)) {\n            return false;\n        }\n\n        uint256 indexOfClaimer = eligibleRecipientsAddresstoIndex[groupId][\n            msg.sender\n        ];\n\n        return eligibleRecipientsHasCollectedWinnings[groupId][indexOfClaimer] == false;\n    }\n\n    function getEligibleRecipientsHasCollectedWinnings(uint256 groupId)\n        external\n        view\n        returns (bool[] memory)\n    {\n        // return winningsCollected[groupId];\n        // uint256 indexOfClaimer = eligibleRecipientsAddresstoIndex[groupId][\n        //     msg.sender\n        // ];\n        return eligibleRecipientsHasCollectedWinnings[groupId];\n\n    }\n\n    function claimWinnings(uint256 groupId)\n        external\n        onlyRegisteredRecipients(groupId)\n        hasntAlreadyClaimedWinnings(groupId, msg.sender)\n        whenNotPaused\n    {\n        uint256 indexOfClaimer = eligibleRecipientsAddresstoIndex[groupId][\n            msg.sender\n        ];\n        eligibleRecipientsHasCollectedWinnings[groupId][indexOfClaimer] = true;\n\n        currentEvents[groupId].numberOfUsersWhoClaimedWinnings++;\n\n        payable(msg.sender).transfer(currentEvents[groupId].weiWinnings);\n\n        emit WinningsClaimed(msg.sender, groupId);\n    }\n\n    function getEligibleRecipientAddresses(uint256 groupId)\n        external\n        view\n        returns (address[] memory)\n    {\n        return eligibleRecipientAddressesArray[groupId];\n    }\n\n    function getEligibleRecipientNames(uint256 groupId)\n        external\n        view\n        returns (string[] memory)\n    {\n        return eligibleRecipientNamesArray[groupId];\n    }\n\n    function getRegisteredRecipientNames(uint256 groupId)\n        external\n        view\n        returns (string[] memory)\n    {\n        return registeredRecipientNamesArray[groupId];\n    }\n\n    function getEligibleRecipientIsEligibilityEnabled(uint256 groupId)\n        external\n        view\n        returns (bool[] memory)\n    {\n        return eligibleRecipientsEligibilityIsEnabled[groupId];\n    }\n\n    function getRegisteredRecipients(uint256 groupId)\n        external\n        view\n        returns (\n            address[] memory,\n            string[] memory,\n            bool[] memory\n        )\n    {\n        return (\n            registeredRecipientAddressesArray[groupId],\n            registeredRecipientNamesArray[groupId],\n            registeredRecipientsWinningsCollected[groupId]\n        );\n    }\n\n    modifier requestsToJoinGroupNotAlreadyPending(\n        uint256 groupId,\n        address account\n    ) {\n        uint256 userIndex = requestsToJoinGroupAddressToIndex[groupId][account];\n        require(\n            userIndex == 0,\n            'Error: this address has already requested to join this group.'\n        );\n        _;\n    }\n\n    modifier requestToJoinGroupIsPending(uint256 groupId, address account) {\n        uint256 userIndex = requestsToJoinGroupAddressToIndex[groupId][account];\n        require(\n            userIndex > 0,\n            'Error: this address does not have a pending request to join this group.'\n        );\n        _;\n    }\n\n    modifier notAlreadyInGroup(uint256 groupId, address account) {\n        uint256 userIndex = eligibleRecipientsAddresstoIndex[groupId][account];\n        require(\n            userIndex == 0,\n            'Error: recipient is already an eligible recipient in the group.'\n        );\n        _;\n    }\n\n    // functions for recipients not yet eligible\n    function requestToJoinGroup(uint256 groupId, string calldata username)\n        external\n        requestsToJoinGroupNotAlreadyPending(groupId, msg.sender)\n        notAlreadyInGroup(groupId, msg.sender)\n    {\n        if (requestsToJoinGroupNextIndex[groupId] == 0) {\n            requestsToJoinGroupNextIndex[groupId] = 1;\n\n            requestsToJoinGroupAddresses[groupId].push(address(0));\n            requestsToJoinGroupNames[groupId].push('');\n            requestedToJoinGroup[groupId].push(false);\n            requestsToJoinGroupApprovals[groupId].push(false);\n        }\n\n        requestsToJoinGroupAddressToIndex[groupId][\n            msg.sender\n        ] = requestsToJoinGroupNextIndex[groupId];\n\n        requestsToJoinGroupAddresses[groupId].push(msg.sender);\n        requestsToJoinGroupNames[groupId].push(username);\n        requestedToJoinGroup[groupId].push(true);\n        requestsToJoinGroupApprovals[groupId].push(false);\n\n        requestsToJoinGroupNextIndex[groupId] =\n            requestsToJoinGroupNextIndex[groupId] +\n            1;\n\n        emit NewUserRequestedToJoinGroup(\n            groupId,\n            msg.sender,\n            nextAdminIndexForGroup[groupId]\n        );\n    }\n}\n",
  "sourcePath": "/Users/jim/trash/EthDrop/contracts/roles/RecipientsManager.sol",
  "compiler": {
    "name": "solc",
    "version": "0.8.7+commit.e28d00a7.Emscripten.clang"
  },
  "schemaVersion": "3.4.3",
  "updatedAt": "2021-09-18T21:03:42.498Z",
  "networkType": "ethereum",
  "devdoc": {
    "kind": "dev",
    "methods": {
      "pause()": {
        "details": "Called by any \"C-level\" role to pause the contract. Used only when  a bug or exploit is detected and we need to limit damage."
      },
      "setCEO(address)": {
        "details": "Assigns a new address to act as the CEO. Only available to the current CEO.",
        "params": {
          "_newCEO": "The address of the new CEO"
        }
      },
      "setCFO(address)": {
        "details": "Assigns a new address to act as the CFO. Only available to the current CEO.",
        "params": {
          "_newCFO": "The address of the new CFO"
        }
      },
      "setCOO(address)": {
        "details": "Assigns a new address to act as the COO. Only available to the current CEO.",
        "params": {
          "_newCOO": "The address of the new COO"
        }
      },
      "unpause()": {
        "details": "Unpauses the smart contract. Can only be called by the CEO, since  one reason we may pause the contract is when CFO or COO accounts are  compromised."
      }
    },
    "version": 1
  },
  "userdoc": {
    "kind": "user",
    "methods": {
      "unpause()": {
        "notice": "This is public rather than external so it can be called by  derived contracts."
      }
    },
    "version": 1
  }
}