{
  "contractName": "AdminsManager",
  "abi": [
    {
      "inputs": [],
      "stateMutability": "nonpayable",
      "type": "constructor"
    },
    {
      "anonymous": false,
      "inputs": [
        {
          "indexed": true,
          "internalType": "address",
          "name": "account",
          "type": "address"
        },
        {
          "indexed": false,
          "internalType": "uint256",
          "name": "groupId",
          "type": "uint256"
        }
      ],
      "name": "AdminAdded",
      "type": "event"
    },
    {
      "anonymous": false,
      "inputs": [
        {
          "indexed": true,
          "internalType": "address",
          "name": "account",
          "type": "address"
        },
        {
          "indexed": false,
          "internalType": "uint256",
          "name": "groupId",
          "type": "uint256"
        }
      ],
      "name": "AdminRemoved",
      "type": "event"
    },
    {
      "anonymous": false,
      "inputs": [
        {
          "indexed": false,
          "internalType": "uint256",
          "name": "registeredRecipientCount",
          "type": "uint256"
        },
        {
          "indexed": false,
          "internalType": "uint256",
          "name": "winningsPerRecipient",
          "type": "uint256"
        }
      ],
      "name": "CalculatedPot",
      "type": "event"
    },
    {
      "anonymous": false,
      "inputs": [
        {
          "indexed": false,
          "internalType": "address",
          "name": "newContract",
          "type": "address"
        }
      ],
      "name": "ContractUpgrade",
      "type": "event"
    },
    {
      "anonymous": false,
      "inputs": [
        {
          "indexed": true,
          "internalType": "address",
          "name": "account",
          "type": "address"
        },
        {
          "indexed": false,
          "internalType": "uint256",
          "name": "groupId",
          "type": "uint256"
        },
        {
          "indexed": false,
          "internalType": "uint256",
          "name": "amount",
          "type": "uint256"
        }
      ],
      "name": "ContributionMade",
      "type": "event"
    },
    {
      "anonymous": false,
      "inputs": [
        {
          "indexed": true,
          "internalType": "address",
          "name": "account",
          "type": "address"
        },
        {
          "indexed": false,
          "internalType": "uint256",
          "name": "groupId",
          "type": "uint256"
        }
      ],
      "name": "ContributorAdded",
      "type": "event"
    },
    {
      "anonymous": false,
      "inputs": [
        {
          "indexed": true,
          "internalType": "address",
          "name": "account",
          "type": "address"
        },
        {
          "indexed": false,
          "internalType": "uint256",
          "name": "groupId",
          "type": "uint256"
        }
      ],
      "name": "ContributorRemoved",
      "type": "event"
    },
    {
      "anonymous": false,
      "inputs": [
        {
          "indexed": true,
          "internalType": "address",
          "name": "account",
          "type": "address"
        },
        {
          "indexed": false,
          "internalType": "uint256",
          "name": "groupId",
          "type": "uint256"
        }
      ],
      "name": "EligibleRecipientAdded",
      "type": "event"
    },
    {
      "anonymous": false,
      "inputs": [
        {
          "indexed": true,
          "internalType": "address",
          "name": "account",
          "type": "address"
        },
        {
          "indexed": false,
          "internalType": "uint256",
          "name": "groupId",
          "type": "uint256"
        }
      ],
      "name": "EligibleRecipientRemoved",
      "type": "event"
    },
    {
      "anonymous": false,
      "inputs": [],
      "name": "EventClose",
      "type": "event"
    },
    {
      "anonymous": false,
      "inputs": [
        {
          "indexed": true,
          "internalType": "address",
          "name": "endedBy",
          "type": "address"
        },
        {
          "indexed": false,
          "internalType": "uint256",
          "name": "groupId",
          "type": "uint256"
        }
      ],
      "name": "EventEnded",
      "type": "event"
    },
    {
      "anonymous": false,
      "inputs": [
        {
          "indexed": true,
          "internalType": "address",
          "name": "startedBy",
          "type": "address"
        },
        {
          "indexed": false,
          "internalType": "uint256",
          "name": "groupId",
          "type": "uint256"
        }
      ],
      "name": "EventStarted",
      "type": "event"
    },
    {
      "anonymous": false,
      "inputs": [
        {
          "indexed": true,
          "internalType": "address",
          "name": "creator",
          "type": "address"
        },
        {
          "indexed": false,
          "internalType": "uint256",
          "name": "groupId",
          "type": "uint256"
        }
      ],
      "name": "GroupCreated",
      "type": "event"
    },
    {
      "anonymous": false,
      "inputs": [
        {
          "indexed": true,
          "internalType": "address",
          "name": "account",
          "type": "address"
        },
        {
          "indexed": false,
          "internalType": "uint256",
          "name": "groupId",
          "type": "uint256"
        }
      ],
      "name": "RecipientRegistered",
      "type": "event"
    },
    {
      "anonymous": false,
      "inputs": [
        {
          "indexed": true,
          "internalType": "address",
          "name": "endedBy",
          "type": "address"
        },
        {
          "indexed": false,
          "internalType": "uint256",
          "name": "groupId",
          "type": "uint256"
        }
      ],
      "name": "RegistrationEnded",
      "type": "event"
    },
    {
      "anonymous": false,
      "inputs": [],
      "name": "RegistrationOpen",
      "type": "event"
    },
    {
      "anonymous": false,
      "inputs": [
        {
          "indexed": false,
          "internalType": "address",
          "name": "from",
          "type": "address"
        },
        {
          "indexed": false,
          "internalType": "address",
          "name": "to",
          "type": "address"
        }
      ],
      "name": "Transfer",
      "type": "event"
    },
    {
      "anonymous": false,
      "inputs": [
        {
          "indexed": true,
          "internalType": "address",
          "name": "account",
          "type": "address"
        },
        {
          "indexed": false,
          "internalType": "uint256",
          "name": "groupId",
          "type": "uint256"
        }
      ],
      "name": "WinningsClaimed",
      "type": "event"
    },
    {
      "anonymous": false,
      "inputs": [],
      "name": "WinningsClaimingOpen",
      "type": "event"
    },
    {
      "inputs": [
        {
          "internalType": "uint256",
          "name": "groupId",
          "type": "uint256"
        }
      ],
      "name": "amIContributor",
      "outputs": [
        {
          "internalType": "bool",
          "name": "",
          "type": "bool"
        }
      ],
      "stateMutability": "view",
      "type": "function",
      "constant": true
    },
    {
      "inputs": [
        {
          "internalType": "uint256",
          "name": "groupId",
          "type": "uint256"
        }
      ],
      "name": "amIEligibleRecipient",
      "outputs": [
        {
          "internalType": "bool",
          "name": "",
          "type": "bool"
        }
      ],
      "stateMutability": "view",
      "type": "function",
      "constant": true
    },
    {
      "inputs": [
        {
          "internalType": "uint256",
          "name": "groupId",
          "type": "uint256"
        }
      ],
      "name": "amIRegisteredRecipient",
      "outputs": [
        {
          "internalType": "bool",
          "name": "",
          "type": "bool"
        }
      ],
      "stateMutability": "view",
      "type": "function",
      "constant": true
    },
    {
      "inputs": [],
      "name": "ceoAddress",
      "outputs": [
        {
          "internalType": "address",
          "name": "",
          "type": "address"
        }
      ],
      "stateMutability": "view",
      "type": "function",
      "constant": true
    },
    {
      "inputs": [],
      "name": "cfoAddress",
      "outputs": [
        {
          "internalType": "address",
          "name": "",
          "type": "address"
        }
      ],
      "stateMutability": "view",
      "type": "function",
      "constant": true
    },
    {
      "inputs": [
        {
          "internalType": "uint256",
          "name": "groupId",
          "type": "uint256"
        }
      ],
      "name": "claimWinnings",
      "outputs": [],
      "stateMutability": "nonpayable",
      "type": "function"
    },
    {
      "inputs": [
        {
          "internalType": "uint256",
          "name": "groupId",
          "type": "uint256"
        }
      ],
      "name": "contributeToPot",
      "outputs": [],
      "stateMutability": "payable",
      "type": "function",
      "payable": true
    },
    {
      "inputs": [],
      "name": "cooAddress",
      "outputs": [
        {
          "internalType": "address",
          "name": "",
          "type": "address"
        }
      ],
      "stateMutability": "view",
      "type": "function",
      "constant": true
    },
    {
      "inputs": [],
      "name": "getCFO",
      "outputs": [
        {
          "internalType": "address",
          "name": "",
          "type": "address"
        }
      ],
      "stateMutability": "view",
      "type": "function",
      "constant": true
    },
    {
      "inputs": [],
      "name": "getCOO",
      "outputs": [
        {
          "internalType": "address",
          "name": "",
          "type": "address"
        }
      ],
      "stateMutability": "view",
      "type": "function",
      "constant": true
    },
    {
      "inputs": [
        {
          "internalType": "uint256",
          "name": "groupId",
          "type": "uint256"
        }
      ],
      "name": "getEligibleRecipientAddresses",
      "outputs": [
        {
          "internalType": "address[]",
          "name": "",
          "type": "address[]"
        }
      ],
      "stateMutability": "view",
      "type": "function",
      "constant": true
    },
    {
      "inputs": [
        {
          "internalType": "uint256",
          "name": "groupId",
          "type": "uint256"
        }
      ],
      "name": "getEligibleRecipientIsEligibilityEnabled",
      "outputs": [
        {
          "internalType": "bool[]",
          "name": "",
          "type": "bool[]"
        }
      ],
      "stateMutability": "view",
      "type": "function",
      "constant": true
    },
    {
      "inputs": [
        {
          "internalType": "uint256",
          "name": "groupId",
          "type": "uint256"
        }
      ],
      "name": "getGroupEventData",
      "outputs": [
        {
          "internalType": "enum EthDropBase.EventState",
          "name": "",
          "type": "uint8"
        },
        {
          "internalType": "uint256",
          "name": "",
          "type": "uint256"
        },
        {
          "internalType": "uint256",
          "name": "",
          "type": "uint256"
        },
        {
          "internalType": "string",
          "name": "",
          "type": "string"
        },
        {
          "internalType": "string",
          "name": "",
          "type": "string"
        },
        {
          "internalType": "string",
          "name": "",
          "type": "string"
        }
      ],
      "stateMutability": "view",
      "type": "function",
      "constant": true
    },
    {
      "inputs": [],
      "name": "getGroupIds",
      "outputs": [
        {
          "internalType": "uint256[]",
          "name": "",
          "type": "uint256[]"
        }
      ],
      "stateMutability": "view",
      "type": "function",
      "constant": true
    },
    {
      "inputs": [],
      "name": "getGroupNames",
      "outputs": [
        {
          "internalType": "string[]",
          "name": "",
          "type": "string[]"
        }
      ],
      "stateMutability": "view",
      "type": "function",
      "constant": true
    },
    {
      "inputs": [
        {
          "internalType": "uint256",
          "name": "groupId",
          "type": "uint256"
        }
      ],
      "name": "getRegisteredRecipients",
      "outputs": [
        {
          "internalType": "address[]",
          "name": "",
          "type": "address[]"
        }
      ],
      "stateMutability": "view",
      "type": "function",
      "constant": true
    },
    {
      "inputs": [],
      "name": "getString",
      "outputs": [
        {
          "internalType": "string",
          "name": "",
          "type": "string"
        }
      ],
      "stateMutability": "view",
      "type": "function",
      "constant": true
    },
    {
      "inputs": [],
      "name": "isCEO",
      "outputs": [
        {
          "internalType": "bool",
          "name": "",
          "type": "bool"
        }
      ],
      "stateMutability": "view",
      "type": "function",
      "constant": true
    },
    {
      "inputs": [],
      "name": "isCFO",
      "outputs": [
        {
          "internalType": "bool",
          "name": "",
          "type": "bool"
        }
      ],
      "stateMutability": "view",
      "type": "function",
      "constant": true
    },
    {
      "inputs": [],
      "name": "isCOO",
      "outputs": [
        {
          "internalType": "bool",
          "name": "",
          "type": "bool"
        }
      ],
      "stateMutability": "view",
      "type": "function",
      "constant": true
    },
    {
      "inputs": [
        {
          "internalType": "address",
          "name": "account",
          "type": "address"
        },
        {
          "internalType": "uint256",
          "name": "groupId",
          "type": "uint256"
        }
      ],
      "name": "isContributor",
      "outputs": [
        {
          "internalType": "bool",
          "name": "",
          "type": "bool"
        }
      ],
      "stateMutability": "view",
      "type": "function",
      "constant": true
    },
    {
      "inputs": [
        {
          "internalType": "address",
          "name": "account",
          "type": "address"
        },
        {
          "internalType": "uint256",
          "name": "groupId",
          "type": "uint256"
        }
      ],
      "name": "isEligibleRecipient",
      "outputs": [
        {
          "internalType": "bool",
          "name": "",
          "type": "bool"
        }
      ],
      "stateMutability": "view",
      "type": "function",
      "constant": true
    },
    {
      "inputs": [],
      "name": "isPaused",
      "outputs": [
        {
          "internalType": "bool",
          "name": "",
          "type": "bool"
        }
      ],
      "stateMutability": "view",
      "type": "function",
      "constant": true
    },
    {
      "inputs": [
        {
          "internalType": "address",
          "name": "account",
          "type": "address"
        },
        {
          "internalType": "uint256",
          "name": "groupId",
          "type": "uint256"
        }
      ],
      "name": "isRegisteredRecipient",
      "outputs": [
        {
          "internalType": "bool",
          "name": "",
          "type": "bool"
        }
      ],
      "stateMutability": "view",
      "type": "function",
      "constant": true
    },
    {
      "inputs": [],
      "name": "pause",
      "outputs": [],
      "stateMutability": "nonpayable",
      "type": "function"
    },
    {
      "inputs": [],
      "name": "paused",
      "outputs": [
        {
          "internalType": "bool",
          "name": "",
          "type": "bool"
        }
      ],
      "stateMutability": "view",
      "type": "function",
      "constant": true
    },
    {
      "inputs": [
        {
          "internalType": "uint256",
          "name": "groupId",
          "type": "uint256"
        }
      ],
      "name": "registerForEvent",
      "outputs": [],
      "stateMutability": "nonpayable",
      "type": "function"
    },
    {
      "inputs": [
        {
          "internalType": "uint256",
          "name": "groupId",
          "type": "uint256"
        }
      ],
      "name": "renounceContributor",
      "outputs": [],
      "stateMutability": "nonpayable",
      "type": "function"
    },
    {
      "inputs": [
        {
          "internalType": "address",
          "name": "_newCEO",
          "type": "address"
        }
      ],
      "name": "setCEO",
      "outputs": [],
      "stateMutability": "nonpayable",
      "type": "function"
    },
    {
      "inputs": [
        {
          "internalType": "address",
          "name": "_newCFO",
          "type": "address"
        }
      ],
      "name": "setCFO",
      "outputs": [],
      "stateMutability": "nonpayable",
      "type": "function"
    },
    {
      "inputs": [
        {
          "internalType": "address",
          "name": "_newCOO",
          "type": "address"
        }
      ],
      "name": "setCOO",
      "outputs": [],
      "stateMutability": "nonpayable",
      "type": "function"
    },
    {
      "inputs": [
        {
          "internalType": "string",
          "name": "_s",
          "type": "string"
        }
      ],
      "name": "setString",
      "outputs": [],
      "stateMutability": "nonpayable",
      "type": "function"
    },
    {
      "inputs": [],
      "name": "stringgg",
      "outputs": [
        {
          "internalType": "string",
          "name": "",
          "type": "string"
        }
      ],
      "stateMutability": "view",
      "type": "function",
      "constant": true
    },
    {
      "inputs": [],
      "name": "unpause",
      "outputs": [
        {
          "internalType": "bool",
          "name": "",
          "type": "bool"
        }
      ],
      "stateMutability": "nonpayable",
      "type": "function"
    },
    {
      "inputs": [],
      "name": "whoami",
      "outputs": [
        {
          "internalType": "address",
          "name": "",
          "type": "address"
        }
      ],
      "stateMutability": "view",
      "type": "function",
      "constant": true
    },
    {
      "inputs": [
        {
          "internalType": "address",
          "name": "account",
          "type": "address"
        },
        {
          "internalType": "uint256",
          "name": "groupId",
          "type": "uint256"
        }
      ],
      "name": "isAdmin",
      "outputs": [
        {
          "internalType": "bool",
          "name": "",
          "type": "bool"
        }
      ],
      "stateMutability": "view",
      "type": "function",
      "constant": true
    },
    {
      "inputs": [
        {
          "internalType": "uint256",
          "name": "groupId",
          "type": "uint256"
        }
      ],
      "name": "amIAdmin",
      "outputs": [
        {
          "internalType": "bool",
          "name": "",
          "type": "bool"
        }
      ],
      "stateMutability": "view",
      "type": "function",
      "constant": true
    },
    {
      "inputs": [
        {
          "internalType": "uint256",
          "name": "groupId",
          "type": "uint256"
        }
      ],
      "name": "getAdminsForGroup",
      "outputs": [
        {
          "internalType": "address[]",
          "name": "",
          "type": "address[]"
        },
        {
          "internalType": "bool[]",
          "name": "",
          "type": "bool[]"
        }
      ],
      "stateMutability": "view",
      "type": "function",
      "constant": true
    },
    {
      "inputs": [
        {
          "internalType": "address",
          "name": "account",
          "type": "address"
        },
        {
          "internalType": "uint256",
          "name": "groupId",
          "type": "uint256"
        }
      ],
      "name": "addAdmin",
      "outputs": [],
      "stateMutability": "nonpayable",
      "type": "function"
    },
    {
      "inputs": [
        {
          "internalType": "address",
          "name": "account",
          "type": "address"
        },
        {
          "internalType": "uint256",
          "name": "groupId",
          "type": "uint256"
        }
      ],
      "name": "removeAdmin",
      "outputs": [],
      "stateMutability": "nonpayable",
      "type": "function"
    },
    {
      "inputs": [
        {
          "internalType": "uint256",
          "name": "groupId",
          "type": "uint256"
        }
      ],
      "name": "renounceAdmin",
      "outputs": [],
      "stateMutability": "nonpayable",
      "type": "function"
    },
    {
      "inputs": [
        {
          "internalType": "uint256",
          "name": "groupId",
          "type": "uint256"
        }
      ],
      "name": "readEventInfo",
      "outputs": [
        {
          "components": [
            {
              "internalType": "uint256",
              "name": "groupId",
              "type": "uint256"
            },
            {
              "internalType": "string",
              "name": "groupName",
              "type": "string"
            },
            {
              "internalType": "enum EthDropBase.EventState",
              "name": "currentState",
              "type": "uint8"
            },
            {
              "internalType": "uint256",
              "name": "startTime",
              "type": "uint256"
            },
            {
              "internalType": "uint256",
              "name": "registrationEndTime",
              "type": "uint256"
            },
            {
              "internalType": "uint256",
              "name": "endTime",
              "type": "uint256"
            },
            {
              "internalType": "uint256",
              "name": "registeredRecipientsCount",
              "type": "uint256"
            },
            {
              "internalType": "string",
              "name": "sponsorName",
              "type": "string"
            },
            {
              "internalType": "string",
              "name": "sponsorImageUrl",
              "type": "string"
            },
            {
              "internalType": "string",
              "name": "sponsorLinkToUrl",
              "type": "string"
            },
            {
              "internalType": "address",
              "name": "currentContributor",
              "type": "address"
            },
            {
              "internalType": "uint256",
              "name": "totalAmountContributed",
              "type": "uint256"
            },
            {
              "internalType": "uint256",
              "name": "weiWinnings",
              "type": "uint256"
            }
          ],
          "internalType": "struct EthDropBase.EthDropEvent",
          "name": "",
          "type": "tuple"
        }
      ],
      "stateMutability": "view",
      "type": "function",
      "constant": true
    },
    {
      "inputs": [
        {
          "internalType": "string",
          "name": "groupName",
          "type": "string"
        }
      ],
      "name": "createNewGroup",
      "outputs": [],
      "stateMutability": "nonpayable",
      "type": "function"
    },
    {
      "inputs": [
        {
          "internalType": "uint256",
          "name": "groupId",
          "type": "uint256"
        }
      ],
      "name": "startEvent",
      "outputs": [],
      "stateMutability": "nonpayable",
      "type": "function"
    },
    {
      "inputs": [
        {
          "internalType": "uint256",
          "name": "groupId",
          "type": "uint256"
        }
      ],
      "name": "closeEventRegistration",
      "outputs": [],
      "stateMutability": "nonpayable",
      "type": "function"
    },
    {
      "inputs": [
        {
          "internalType": "uint256",
          "name": "groupId",
          "type": "uint256"
        }
      ],
      "name": "endEvent",
      "outputs": [],
      "stateMutability": "nonpayable",
      "type": "function"
    },
    {
      "inputs": [
        {
          "internalType": "address",
          "name": "account",
          "type": "address"
        },
        {
          "internalType": "uint256",
          "name": "groupId",
          "type": "uint256"
        }
      ],
      "name": "addEligibleRecipient",
      "outputs": [],
      "stateMutability": "nonpayable",
      "type": "function"
    },
    {
      "inputs": [
        {
          "internalType": "address",
          "name": "account",
          "type": "address"
        },
        {
          "internalType": "uint256",
          "name": "groupId",
          "type": "uint256"
        }
      ],
      "name": "removeEligibleRecipient",
      "outputs": [],
      "stateMutability": "nonpayable",
      "type": "function"
    },
    {
      "inputs": [
        {
          "internalType": "address",
          "name": "account",
          "type": "address"
        },
        {
          "internalType": "uint256",
          "name": "groupId",
          "type": "uint256"
        }
      ],
      "name": "addContributor",
      "outputs": [],
      "stateMutability": "nonpayable",
      "type": "function"
    },
    {
      "inputs": [
        {
          "internalType": "address",
          "name": "account",
          "type": "address"
        },
        {
          "internalType": "uint256",
          "name": "groupId",
          "type": "uint256"
        }
      ],
      "name": "removeContributor",
      "outputs": [],
      "stateMutability": "nonpayable",
      "type": "function"
    }
  ],
  "bytecode": "0x60806040526000600360146101000a81548160ff02191690831515021790555060056004556000600b5534801561003557600080fd5b5061465a806100456000396000f3fe6080604052600436106102c95760003560e01c80638182aaf211610175578063c6db5094116100dc578063e513b7a911610095578063ea303f081161006f578063ea303f0814610b33578063ee41b59214610b5c578063f4a02e7014610b99578063fc5fd6e414610bc4576102c9565b8063e513b7a914610aaf578063e62092be14610ada578063e82f24e014610b17576102c9565b8063c6db5094146109a1578063c6e0ddfa146109cc578063d5f016c3146109f5578063e0bd7d1514610a20578063e320d5e714610a49578063e33db42614610a72576102c9565b8063a59a69531161012e578063a59a6953146108a3578063ab4e1945146108cc578063b047fb50146108f5578063b187bd2614610920578063b3b36bb31461094b578063c02b8b2c14610976576102c9565b80638182aaf21461077f5780638456cb59146107bc57806389ea642f146107d35780639393ae37146107fe578063962ecff5146108295780639bda879614610866576102c9565b80634635509b11610234578063677bd9ff116101ed5780637b936ac2116101c75780637b936ac2146106c55780637d837ce5146106f05780637fcaf6661461072d5780637fcb29c914610756576102c9565b8063677bd9ff146106355780636ebdec491461065e578063785142be1461069c576102c9565b80634635509b146104fc5780634e0a33791461053e5780634f1ef03c1461056757806355b57ec1146105905780635c975abb146105cd5780635e82c1fc146105f8576102c9565b806330bb01151161028657806330bb0115146103dc578063330a347b1461040557806338f0b6561461042e5780633f4ba83a1461046b578063406db8431461049657806344b2983b146104bf576102c9565b80630519ce79146102ce57806306cc4922146102f95780630a0f81681461033657806315891ff41461036157806327d7874c1461038a5780632ba73c15146103b3575b600080fd5b3480156102da57600080fd5b506102e3610bef565b6040516102f09190613f2f565b60405180910390f35b34801561030557600080fd5b50610320600480360381019061031b9190613aff565b610c15565b60405161032d9190614009565b60405180910390f35b34801561034257600080fd5b5061034b610c42565b6040516103589190613f2f565b60405180910390f35b34801561036d57600080fd5b5061038860048036038101906103839190613a76565b610c68565b005b34801561039657600080fd5b506103b160048036038101906103ac9190613a49565b610d52565b005b3480156103bf57600080fd5b506103da60048036038101906103d59190613a49565b610e2a565b005b3480156103e857600080fd5b5061040360048036038101906103fe9190613aff565b610f02565b005b34801561041157600080fd5b5061042c60048036038101906104279190613aff565b610f24565b005b34801561043a57600080fd5b5061045560048036038101906104509190613aff565b611211565b6040516104629190614009565b60405180910390f35b34801561047757600080fd5b5061048061123e565b60405161048d9190614009565b60405180910390f35b3480156104a257600080fd5b506104bd60048036038101906104b89190613aff565b6112e3565b005b3480156104cb57600080fd5b506104e660048036038101906104e19190613aff565b61146c565b6040516104f39190613f4a565b60405180910390f35b34801561050857600080fd5b50610523600480360381019061051e9190613aff565b61150d565b60405161053596959493929190614024565b60405180910390f35b34801561054a57600080fd5b5061056560048036038101906105609190613a49565b611890565b005b34801561057357600080fd5b5061058e60048036038101906105899190613aff565b61192e565b005b34801561059c57600080fd5b506105b760048036038101906105b29190613aff565b61196a565b6040516105c49190613fa3565b60405180910390f35b3480156105d957600080fd5b506105e26119fa565b6040516105ef9190614009565b60405180910390f35b34801561060457600080fd5b5061061f600480360381019061061a9190613a76565b611a0d565b60405161062c9190614009565b60405180910390f35b34801561064157600080fd5b5061065c60048036038101906106579190613aff565b611a96565b005b34801561066a57600080fd5b5061068560048036038101906106809190613aff565b611c4f565b604051610693929190613f6c565b60405180910390f35b3480156106a857600080fd5b506106c360048036038101906106be9190613aff565b611d80565b005b3480156106d157600080fd5b506106da611f5b565b6040516106e79190613f2f565b60405180910390f35b3480156106fc57600080fd5b5061071760048036038101906107129190613a76565b611f85565b6040516107249190614009565b60405180910390f35b34801561073957600080fd5b50610754600480360381019061074f9190613ab6565b61200e565b005b34801561076257600080fd5b5061077d60048036038101906107789190613a76565b612028565b005b34801561078b57600080fd5b506107a660048036038101906107a19190613a76565b612090565b6040516107b39190614009565b60405180910390f35b3480156107c857600080fd5b506107d1612119565b005b3480156107df57600080fd5b506107e861225a565b6040516107f5919061409a565b60405180910390f35b34801561080a57600080fd5b506108136122ec565b6040516108209190614009565b60405180910390f35b34801561083557600080fd5b50610850600480360381019061084b9190613aff565b612344565b60405161085d9190614009565b60405180910390f35b34801561087257600080fd5b5061088d60048036038101906108889190613aff565b6123b2565b60405161089a9190613f4a565b60405180910390f35b3480156108af57600080fd5b506108ca60048036038101906108c59190613aff565b612453565b005b3480156108d857600080fd5b506108f360048036038101906108ee9190613a76565b61252d565b005b34801561090157600080fd5b5061090a6126e1565b6040516109179190613f2f565b60405180910390f35b34801561092c57600080fd5b50610935612707565b6040516109429190614009565b60405180910390f35b34801561095757600080fd5b5061096061271e565b60405161096d9190613f2f565b60405180910390f35b34801561098257600080fd5b5061098b612726565b6040516109989190613fe7565b60405180910390f35b3480156109ad57600080fd5b506109b661277e565b6040516109c3919061409a565b60405180910390f35b3480156109d857600080fd5b506109f360048036038101906109ee9190613a76565b61280c565b005b348015610a0157600080fd5b50610a0a612874565b604051610a179190613fc5565b60405180910390f35b348015610a2c57600080fd5b50610a476004803603810190610a429190613a76565b61294d565b005b348015610a5557600080fd5b50610a706004803603810190610a6b9190613a76565b6129e2565b005b348015610a7e57600080fd5b50610a996004803603810190610a949190613aff565b612a77565b604051610aa691906140bc565b60405180910390f35b348015610abb57600080fd5b50610ac4612dd9565b604051610ad19190614009565b60405180910390f35b348015610ae657600080fd5b50610b016004803603810190610afc9190613a76565b612e31565b604051610b0e9190614009565b60405180910390f35b610b316004803603810190610b2c9190613aff565b612ea0565b005b348015610b3f57600080fd5b50610b5a6004803603810190610b559190613ab6565b612f3d565b005b348015610b6857600080fd5b50610b836004803603810190610b7e9190613aff565b613275565b604051610b909190614009565b60405180910390f35b348015610ba557600080fd5b50610bae6132a2565b604051610bbb9190614009565b60405180910390f35b348015610bd057600080fd5b50610bd96132fa565b604051610be69190613f2f565b60405180910390f35b600260009054906101000a900473ffffffffffffffffffffffffffffffffffffffff1681565b6000600360149054906101000a900460ff1615610c3157600080fd5b610c3b3383611a0d565b9050919050565b600160009054906101000a900473ffffffffffffffffffffffffffffffffffffffff1681565b80610c733382612e31565b610c7c57600080fd5b600360149054906101000a900460ff1615610c9657600080fd5b60006011600084815260200190815260200160002060008573ffffffffffffffffffffffffffffffffffffffff1673ffffffffffffffffffffffffffffffffffffffff16815260200190815260200160002060006101000a81548160ff0219169083151502179055508273ffffffffffffffffffffffffffffffffffffffff167f1af6d16168d33745872119540d28858eed156c5f265206bbf1344fda39a93a3383604051610d4591906140de565b60405180910390a2505050565b600160009054906101000a900473ffffffffffffffffffffffffffffffffffffffff1673ffffffffffffffffffffffffffffffffffffffff163373ffffffffffffffffffffffffffffffffffffffff1614610dac57600080fd5b600073ffffffffffffffffffffffffffffffffffffffff168173ffffffffffffffffffffffffffffffffffffffff161415610de657600080fd5b80600160006101000a81548173ffffffffffffffffffffffffffffffffffffffff021916908373ffffffffffffffffffffffffffffffffffffffff16021790555050565b600160009054906101000a900473ffffffffffffffffffffffffffffffffffffffff1673ffffffffffffffffffffffffffffffffffffffff163373ffffffffffffffffffffffffffffffffffffffff1614610e8457600080fd5b600073ffffffffffffffffffffffffffffffffffffffff168173ffffffffffffffffffffffffffffffffffffffff161415610ebe57600080fd5b80600360006101000a81548173ffffffffffffffffffffffffffffffffffffffff021916908373ffffffffffffffffffffffffffffffffffffffff16021790555050565b80610f0d3382612e31565b610f1657600080fd5b610f203383613324565b5050565b80610f2f3382612e31565b80610f875750600360009054906101000a900473ffffffffffffffffffffffffffffffffffffffff1673ffffffffffffffffffffffffffffffffffffffff163373ffffffffffffffffffffffffffffffffffffffff16145b610f9057600080fd5b600360149054906101000a900460ff1615610faa57600080fd5b42600760008481526020019081526020016000206005018190555060036007600084815260200190815260200160002060020160006101000a81548160ff02191690836003811115610fff57610ffe614501565b5b0217905550600860008381526020019081526020016000206007600084815260200190815260200160002090806001815401808255809150506001900390600052602060002090600d0201600090919091909150600082015481600001556001820181600101908054611071906143f7565b61107c9291906137ef565b506002820160009054906101000a900460ff168160020160006101000a81548160ff021916908360038111156110b5576110b4614501565b5b02179055506003820154816003015560048201548160040155600582015481600501556006820154816006015560078201816007019080546110f6906143f7565b6111019291906137ef565b506008820181600801908054611116906143f7565b6111219291906137ef565b506009820181600901908054611136906143f7565b6111419291906137ef565b50600a820160009054906101000a900473ffffffffffffffffffffffffffffffffffffffff1681600a0160006101000a81548173ffffffffffffffffffffffffffffffffffffffff021916908373ffffffffffffffffffffffffffffffffffffffff160217905550600b82015481600b0155600c82015481600c015550503373ffffffffffffffffffffffffffffffffffffffff167f6f45a19e8850c727d0de9f32e0d8691324a9a74ffb4347652e6404138b1d81658360405161120591906140de565b60405180910390a25050565b6000600360149054906101000a900460ff161561122d57600080fd5b6112373383611f85565b9050919050565b6000600160009054906101000a900473ffffffffffffffffffffffffffffffffffffffff1673ffffffffffffffffffffffffffffffffffffffff163373ffffffffffffffffffffffffffffffffffffffff161461129a57600080fd5b600360149054906101000a900460ff166112b357600080fd5b6000600360146101000a81548160ff021916908315150217905550600360149054906101000a900460ff16905090565b806112ee3382611a0d565b6112f757600080fd5b600360149054906101000a900460ff161561131157600080fd5b60016014600084815260200190815260200160002060003373ffffffffffffffffffffffffffffffffffffffff1673ffffffffffffffffffffffffffffffffffffffff16815260200190815260200160002060006101000a81548160ff02191690831515021790555060156000838152602001908152602001600020339080600181540180825580915050600190039060005260206000200160009091909190916101000a81548173ffffffffffffffffffffffffffffffffffffffff021916908373ffffffffffffffffffffffffffffffffffffffff1602179055506007600083815260200190815260200160002060060160008154809291906114159061445a565b91905055503373ffffffffffffffffffffffffffffffffffffffff167f0695e999be8100bdb5bee8612337296508d527eae78c65b8f170eacb5a3b439d8360405161146091906140de565b60405180910390a25050565b60606015600083815260200190815260200160002080548060200260200160405190810160405280929190818152602001828054801561150157602002820191906000526020600020905b8160009054906101000a900473ffffffffffffffffffffffffffffffffffffffff1673ffffffffffffffffffffffffffffffffffffffff16815260200190600101908083116114b7575b50505050509050919050565b60008060006060806060600060076000898152602001908152602001600020604051806101a001604052908160008201548152602001600182018054611552906143f7565b80601f016020809104026020016040519081016040528092919081815260200182805461157e906143f7565b80156115cb5780601f106115a0576101008083540402835291602001916115cb565b820191906000526020600020905b8154815290600101906020018083116115ae57829003601f168201915b505050505081526020016002820160009054906101000a900460ff1660038111156115f9576115f8614501565b5b600381111561160b5761160a614501565b5b815260200160038201548152602001600482015481526020016005820154815260200160068201548152602001600782018054611647906143f7565b80601f0160208091040260200160405190810160405280929190818152602001828054611673906143f7565b80156116c05780601f10611695576101008083540402835291602001916116c0565b820191906000526020600020905b8154815290600101906020018083116116a357829003601f168201915b505050505081526020016008820180546116d9906143f7565b80601f0160208091040260200160405190810160405280929190818152602001828054611705906143f7565b80156117525780601f1061172757610100808354040283529160200191611752565b820191906000526020600020905b81548152906001019060200180831161173557829003601f168201915b5050505050815260200160098201805461176b906143f7565b80601f0160208091040260200160405190810160405280929190818152602001828054611797906143f7565b80156117e45780601f106117b9576101008083540402835291602001916117e4565b820191906000526020600020905b8154815290600101906020018083116117c757829003601f168201915b50505050508152602001600a820160009054906101000a900473ffffffffffffffffffffffffffffffffffffffff1673ffffffffffffffffffffffffffffffffffffffff1673ffffffffffffffffffffffffffffffffffffffff168152602001600b8201548152602001600c82015481525050905080604001518160c001518261016001518360e001518461010001518561012001519650965096509650965096505091939550919395565b600160009054906101000a900473ffffffffffffffffffffffffffffffffffffffff1673ffffffffffffffffffffffffffffffffffffffff163373ffffffffffffffffffffffffffffffffffffffff16146118ea57600080fd5b80600260006101000a81548173ffffffffffffffffffffffffffffffffffffffff021916908373ffffffffffffffffffffffffffffffffffffffff16021790555050565b806119393382612090565b61194257600080fd5b600360149054906101000a900460ff161561195c57600080fd5b6119663383613485565b5050565b6060601360008381526020019081526020016000208054806020026020016040519081016040528092919081815260200182805480156119ee57602002820191906000526020600020906000905b82829054906101000a900460ff161515815260200190600101906020826000010492830192600103820291508084116119b85790505b50505050509050919050565b600360149054906101000a900460ff1681565b6000600360149054906101000a900460ff1615611a2957600080fd5b600115156011600084815260200190815260200160002060008573ffffffffffffffffffffffffffffffffffffffff1673ffffffffffffffffffffffffffffffffffffffff16815260200190815260200160002060009054906101000a900460ff16151514905092915050565b80611aa13382611f85565b611aaa57600080fd5b813360011515600c600084815260200190815260200160002060003373ffffffffffffffffffffffffffffffffffffffff1673ffffffffffffffffffffffffffffffffffffffff16815260200190815260200160002060009054906101000a900460ff1615151415611b1b57600080fd5b600360149054906101000a900460ff1615611b3557600080fd5b6001600c600086815260200190815260200160002060003373ffffffffffffffffffffffffffffffffffffffff1673ffffffffffffffffffffffffffffffffffffffff16815260200190815260200160002060006101000a81548160ff0219169083151502179055503373ffffffffffffffffffffffffffffffffffffffff166108fc60076000878152602001908152602001600020600c01549081150290604051600060405180830381858888f19350505050158015611bfa573d6000803e3d6000fd5b503373ffffffffffffffffffffffffffffffffffffffff167f1a31e733a172afcf46074b3106c17f0c298e226442682a03c1e99ce256139ec285604051611c4191906140de565b60405180910390a250505050565b606080600d6000848152602001908152602001600020600f600085815260200190815260200160002081805480602002602001604051908101604052809291908181526020018280548015611cf957602002820191906000526020600020905b8160009054906101000a900473ffffffffffffffffffffffffffffffffffffffff1673ffffffffffffffffffffffffffffffffffffffff1681526020019060010190808311611caf575b5050505050915080805480602002602001604051908101604052809291908181526020018280548015611d7057602002820191906000526020600020906000905b82829054906101000a900460ff16151581526020019060010190602082600001049283019260010382029150808411611d3a5790505b5050505050905091509150915091565b80611d8b3382612e31565b611d9457600080fd5b600360149054906101000a900460ff1615611dae57600080fd5b4260076000848152602001908152602001600020600401819055506000606460045460076000868152602001908152602001600020600b0154611df191906142ba565b611dfb9190614289565b9050600260009054906101000a900473ffffffffffffffffffffffffffffffffffffffff1673ffffffffffffffffffffffffffffffffffffffff166108fc829081150290604051600060405180830381858888f19350505050158015611e65573d6000803e3d6000fd5b5060008160076000868152602001908152602001600020600b0154611e8a9190614314565b9050600760008581526020019081526020016000206006015481611eae9190614289565b60076000868152602001908152602001600020600c018190555060026007600086815260200190815260200160002060020160006101000a81548160ff02191690836003811115611f0257611f01614501565b5b02179055503373ffffffffffffffffffffffffffffffffffffffff167fef898a6941c945450e9bbdad4a76fcd0f51f42f7e251fddcb1e5479ba786d5e485604051611f4d91906140de565b60405180910390a250505050565b6000600260009054906101000a900473ffffffffffffffffffffffffffffffffffffffff16905090565b6000600360149054906101000a900460ff1615611fa157600080fd5b600115156014600084815260200190815260200160002060008573ffffffffffffffffffffffffffffffffffffffff1673ffffffffffffffffffffffffffffffffffffffff16815260200190815260200160002060009054906101000a900460ff16151514905092915050565b806000908051906020019061202492919061387c565b5050565b600360009054906101000a900473ffffffffffffffffffffffffffffffffffffffff1673ffffffffffffffffffffffffffffffffffffffff163373ffffffffffffffffffffffffffffffffffffffff161461208257600080fd5b61208c8282613540565b5050565b6000600360149054906101000a900460ff16156120ac57600080fd5b600115156010600084815260200190815260200160002060008573ffffffffffffffffffffffffffffffffffffffff1673ffffffffffffffffffffffffffffffffffffffff16815260200190815260200160002060009054906101000a900460ff16151514905092915050565b600360009054906101000a900473ffffffffffffffffffffffffffffffffffffffff1673ffffffffffffffffffffffffffffffffffffffff163373ffffffffffffffffffffffffffffffffffffffff1614806121c25750600160009054906101000a900473ffffffffffffffffffffffffffffffffffffffff1673ffffffffffffffffffffffffffffffffffffffff163373ffffffffffffffffffffffffffffffffffffffff16145b8061221a5750600260009054906101000a900473ffffffffffffffffffffffffffffffffffffffff1673ffffffffffffffffffffffffffffffffffffffff163373ffffffffffffffffffffffffffffffffffffffff16145b61222357600080fd5b600360149054906101000a900460ff161561223d57600080fd5b6001600360146101000a81548160ff021916908315150217905550565b606060008054612269906143f7565b80601f0160208091040260200160405190810160405280929190818152602001828054612295906143f7565b80156122e25780601f106122b7576101008083540402835291602001916122e2565b820191906000526020600020905b8154815290600101906020018083116122c557829003601f168201915b5050505050905090565b6000600260009054906101000a900473ffffffffffffffffffffffffffffffffffffffff1673ffffffffffffffffffffffffffffffffffffffff163373ffffffffffffffffffffffffffffffffffffffff1614905090565b6000600115156009600084815260200190815260200160002060003373ffffffffffffffffffffffffffffffffffffffff1673ffffffffffffffffffffffffffffffffffffffff16815260200190815260200160002060009054906101000a900460ff161515149050919050565b60606012600083815260200190815260200160002080548060200260200160405190810160405280929190818152602001828054801561244757602002820191906000526020600020905b8160009054906101000a900473ffffffffffffffffffffffffffffffffffffffff1673ffffffffffffffffffffffffffffffffffffffff16815260200190600101908083116123fd575b50505050509050919050565b8061245e3382612e31565b61246757600080fd5b600360149054906101000a900460ff161561248157600080fd5b60016007600084815260200190815260200160002060020160006101000a81548160ff021916908360038111156124bb576124ba614501565b5b02179055504260076000848152602001908152602001600020600301819055503373ffffffffffffffffffffffffffffffffffffffff167ff77c6f27499b698205f54058c2914a340e1300c2bc0d9a819e7aebfbaabbbb938360405161252191906140de565b60405180910390a25050565b600360149054906101000a900460ff161561254757600080fd5b806125523382612e31565b61255b57600080fd5b60016011600084815260200190815260200160002060008573ffffffffffffffffffffffffffffffffffffffff1673ffffffffffffffffffffffffffffffffffffffff16815260200190815260200160002060006101000a81548160ff02191690831515021790555060126000838152602001908152602001600020839080600181540180825580915050600190039060005260206000200160009091909190916101000a81548173ffffffffffffffffffffffffffffffffffffffff021916908373ffffffffffffffffffffffffffffffffffffffff16021790555060136000838152602001908152602001600020600190806001815401808255809150506001900390600052602060002090602091828204019190069091909190916101000a81548160ff0219169083151502179055508273ffffffffffffffffffffffffffffffffffffffff167f46b8357d30dedd734a71d059a385f46b6e667bff20233f907477760207f88965836040516126d491906140de565b60405180910390a2505050565b600360009054906101000a900473ffffffffffffffffffffffffffffffffffffffff1681565b6000600360149054906101000a900460ff16905090565b600033905090565b6060600580548060200260200160405190810160405280929190818152602001828054801561277457602002820191906000526020600020905b815481526020019060010190808311612760575b5050505050905090565b6000805461278b906143f7565b80601f01602080910402602001604051908101604052809291908181526020018280546127b7906143f7565b80156128045780601f106127d957610100808354040283529160200191612804565b820191906000526020600020905b8154815290600101906020018083116127e757829003601f168201915b505050505081565b600360009054906101000a900473ffffffffffffffffffffffffffffffffffffffff1673ffffffffffffffffffffffffffffffffffffffff163373ffffffffffffffffffffffffffffffffffffffff161461286657600080fd5b6128708282613324565b5050565b60606006805480602002602001604051908101604052809291908181526020016000905b828210156129445783829060005260206000200180546128b7906143f7565b80601f01602080910402602001604051908101604052809291908181526020018280546128e3906143f7565b80156129305780601f1061290557610100808354040283529160200191612930565b820191906000526020600020905b81548152906001019060200180831161291357829003601f168201915b505050505081526020019060010190612898565b50505050905090565b806129583382612e31565b806129b05750600360009054906101000a900473ffffffffffffffffffffffffffffffffffffffff1673ffffffffffffffffffffffffffffffffffffffff163373ffffffffffffffffffffffffffffffffffffffff16145b6129b957600080fd5b600360149054906101000a900460ff16156129d357600080fd5b6129dd8383613734565b505050565b806129ed3382612e31565b80612a455750600360009054906101000a900473ffffffffffffffffffffffffffffffffffffffff1673ffffffffffffffffffffffffffffffffffffffff163373ffffffffffffffffffffffffffffffffffffffff16145b612a4e57600080fd5b600360149054906101000a900460ff1615612a6857600080fd5b612a728383613485565b505050565b612a7f613902565b81612a8a3382612e31565b612a9357600080fd5b60076000848152602001908152602001600020604051806101a001604052908160008201548152602001600182018054612acc906143f7565b80601f0160208091040260200160405190810160405280929190818152602001828054612af8906143f7565b8015612b455780601f10612b1a57610100808354040283529160200191612b45565b820191906000526020600020905b815481529060010190602001808311612b2857829003601f168201915b505050505081526020016002820160009054906101000a900460ff166003811115612b7357612b72614501565b5b6003811115612b8557612b84614501565b5b815260200160038201548152602001600482015481526020016005820154815260200160068201548152602001600782018054612bc1906143f7565b80601f0160208091040260200160405190810160405280929190818152602001828054612bed906143f7565b8015612c3a5780601f10612c0f57610100808354040283529160200191612c3a565b820191906000526020600020905b815481529060010190602001808311612c1d57829003601f168201915b50505050508152602001600882018054612c53906143f7565b80601f0160208091040260200160405190810160405280929190818152602001828054612c7f906143f7565b8015612ccc5780601f10612ca157610100808354040283529160200191612ccc565b820191906000526020600020905b815481529060010190602001808311612caf57829003601f168201915b50505050508152602001600982018054612ce5906143f7565b80601f0160208091040260200160405190810160405280929190818152602001828054612d11906143f7565b8015612d5e5780601f10612d3357610100808354040283529160200191612d5e565b820191906000526020600020905b815481529060010190602001808311612d4157829003601f168201915b50505050508152602001600a820160009054906101000a900473ffffffffffffffffffffffffffffffffffffffff1673ffffffffffffffffffffffffffffffffffffffff1673ffffffffffffffffffffffffffffffffffffffff168152602001600b8201548152602001600c82015481525050915050919050565b6000600160009054906101000a900473ffffffffffffffffffffffffffffffffffffffff1673ffffffffffffffffffffffffffffffffffffffff163373ffffffffffffffffffffffffffffffffffffffff1614905090565b6000600115156009600084815260200190815260200160002060008573ffffffffffffffffffffffffffffffffffffffff1673ffffffffffffffffffffffffffffffffffffffff16815260200190815260200160002060009054906101000a900460ff16151514905092915050565b80612eab3382612090565b612eb457600080fd5b600360149054906101000a900460ff1615612ece57600080fd5b3460076000848152602001908152602001600020600b01819055503373ffffffffffffffffffffffffffffffffffffffff167f5dc1fe5ab986a852c4eda8e8bb94247d13307065c593fb83f1a09be2736793828334604051612f319291906140f9565b60405180910390a25050565b600360009054906101000a900473ffffffffffffffffffffffffffffffffffffffff1673ffffffffffffffffffffffffffffffffffffffff163373ffffffffffffffffffffffffffffffffffffffff1614612f9757600080fd5b600360149054906101000a900460ff1615612fb157600080fd5b6000434060001c90506000604051806101a0016040528083815260200184815260200160006003811115612fe857612fe7614501565b5b815260200142815260200142815260200142815260200160008152602001604051806020016040528060008152508152602001604051806020016040528060008152508152602001604051806020016040528060008152508152602001600073ffffffffffffffffffffffffffffffffffffffff168152602001600081526020016000815250905080600760008481526020019081526020016000206000820151816000015560208201518160010190805190602001906130aa92919061387c565b5060408201518160020160006101000a81548160ff021916908360038111156130d6576130d5614501565b5b0217905550606082015181600301556080820151816004015560a0820151816005015560c0820151816006015560e082015181600701908051906020019061311f92919061387c565b5061010082015181600801908051906020019061313d92919061387c565b5061012082015181600901908051906020019061315b92919061387c565b5061014082015181600a0160006101000a81548173ffffffffffffffffffffffffffffffffffffffff021916908373ffffffffffffffffffffffffffffffffffffffff16021790555061016082015181600b015561018082015181600c0155905050600542908060018154018082558091505060019003906000526020600020016000909190919091505560068390806001815401808255809150506001900390600052602060002001600090919091909150908051906020019061322192919061387c565b503373ffffffffffffffffffffffffffffffffffffffff167f3482e3d6d38a18835a6ad59afad8098300ce9f907925e4be71126d7b43dc803d8360405161326891906140de565b60405180910390a2505050565b6000600360149054906101000a900460ff161561329157600080fd5b61329b3383612090565b9050919050565b6000600360009054906101000a900473ffffffffffffffffffffffffffffffffffffffff1673ffffffffffffffffffffffffffffffffffffffff163373ffffffffffffffffffffffffffffffffffffffff1614905090565b6000600360009054906101000a900473ffffffffffffffffffffffffffffffffffffffff16905090565b60006009600083815260200190815260200160002060008473ffffffffffffffffffffffffffffffffffffffff1673ffffffffffffffffffffffffffffffffffffffff16815260200190815260200160002060006101000a81548160ff0219169083151502179055506000600a600083815260200190815260200160002060008473ffffffffffffffffffffffffffffffffffffffff1673ffffffffffffffffffffffffffffffffffffffff1681526020019081526020016000205490506000600f600084815260200190815260200160002082815481106134095761340861455f565b5b90600052602060002090602091828204019190066101000a81548160ff0219169083151502179055508273ffffffffffffffffffffffffffffffffffffffff167fa0726c73cf6ad18ddb855ba65d1ddd4d7fd37d320f4e52f6b154c13d386f5fd98360405161347891906140de565b60405180910390a2505050565b60006010600083815260200190815260200160002060008473ffffffffffffffffffffffffffffffffffffffff1673ffffffffffffffffffffffffffffffffffffffff16815260200190815260200160002060006101000a81548160ff0219169083151502179055508173ffffffffffffffffffffffffffffffffffffffff167fda111d7eb5d5b2033c4ffad00cd7cd42f45af2813bee1a69e65f26d90ea15f0b8260405161353491906140de565b60405180910390a25050565b60016009600083815260200190815260200160002060008473ffffffffffffffffffffffffffffffffffffffff1673ffffffffffffffffffffffffffffffffffffffff16815260200190815260200160002060006101000a81548160ff021916908315150217905550600b54600a600083815260200190815260200160002060008473ffffffffffffffffffffffffffffffffffffffff1673ffffffffffffffffffffffffffffffffffffffff16815260200190815260200160002081905550600b60008154809291906136139061445a565b9190505550600d6000828152602001908152602001600020829080600181540180825580915050600190039060005260206000200160009091909190916101000a81548173ffffffffffffffffffffffffffffffffffffffff021916908373ffffffffffffffffffffffffffffffffffffffff160217905550600f6000828152602001908152602001600020600190806001815401808255809150506001900390600052602060002090602091828204019190069091909190916101000a81548160ff0219169083151502179055508173ffffffffffffffffffffffffffffffffffffffff167f723c2b747529ca7f5eb53a74808f4a8b9bf264f0fc450fd904900151da74548a8260405161372891906140de565b60405180910390a25050565b60016010600083815260200190815260200160002060008473ffffffffffffffffffffffffffffffffffffffff1673ffffffffffffffffffffffffffffffffffffffff16815260200190815260200160002060006101000a81548160ff0219169083151502179055508173ffffffffffffffffffffffffffffffffffffffff167f5fd6d0b7e707fe344bd2a1887f9d0eeea8bfcac6f339ba4200e74f0647f101c0826040516137e391906140de565b60405180910390a25050565b8280546137fb906143f7565b90600052602060002090601f01602090048101928261381d576000855561386b565b82601f1061382e578054855561386b565b8280016001018555821561386b57600052602060002091601f016020900482015b8281111561386a57825482559160010191906001019061384f565b5b5090506138789190613992565b5090565b828054613888906143f7565b90600052602060002090601f0160209004810192826138aa57600085556138f1565b82601f106138c357805160ff19168380011785556138f1565b828001600101855582156138f1579182015b828111156138f05782518255916020019190600101906138d5565b5b5090506138fe9190613992565b5090565b604051806101a001604052806000815260200160608152602001600060038111156139305761392f614501565b5b815260200160008152602001600081526020016000815260200160008152602001606081526020016060815260200160608152602001600073ffffffffffffffffffffffffffffffffffffffff16815260200160008152602001600081525090565b5b808211156139ab576000816000905550600101613993565b5090565b60006139c26139bd84614147565b614122565b9050828152602081018484840111156139de576139dd6145c2565b5b6139e98482856143b5565b509392505050565b600081359050613a00816145f6565b92915050565b600082601f830112613a1b57613a1a6145bd565b5b8135613a2b8482602086016139af565b91505092915050565b600081359050613a438161460d565b92915050565b600060208284031215613a5f57613a5e6145cc565b5b6000613a6d848285016139f1565b91505092915050565b60008060408385031215613a8d57613a8c6145cc565b5b6000613a9b858286016139f1565b9250506020613aac85828601613a34565b9150509250929050565b600060208284031215613acc57613acb6145cc565b5b600082013567ffffffffffffffff811115613aea57613ae96145c7565b5b613af684828501613a06565b91505092915050565b600060208284031215613b1557613b146145cc565b5b6000613b2384828501613a34565b91505092915050565b6000613b388383613b88565b60208301905092915050565b6000613b508383613d35565b60208301905092915050565b6000613b688383613d71565b905092915050565b6000613b7c8383613f11565b60208301905092915050565b613b9181614348565b82525050565b613ba081614348565b82525050565b6000613bb1826141b8565b613bbb8185614223565b9350613bc683614178565b8060005b83811015613bf7578151613bde8882613b2c565b9750613be9836141ef565b925050600181019050613bca565b5085935050505092915050565b6000613c0f826141c3565b613c198185614234565b9350613c2483614188565b8060005b83811015613c55578151613c3c8882613b44565b9750613c47836141fc565b925050600181019050613c28565b5085935050505092915050565b6000613c6d826141ce565b613c778185614245565b935083602082028501613c8985614198565b8060005b85811015613cc55784840389528151613ca68582613b5c565b9450613cb183614209565b925060208a01995050600181019050613c8d565b50829750879550505050505092915050565b6000613ce2826141d9565b613cec8185614256565b9350613cf7836141a8565b8060005b83811015613d28578151613d0f8882613b70565b9750613d1a83614216565b925050600181019050613cfb565b5085935050505092915050565b613d3e8161435a565b82525050565b613d4d8161435a565b82525050565b613d5c816143a3565b82525050565b613d6b816143a3565b82525050565b6000613d7c826141e4565b613d868185614267565b9350613d968185602086016143c4565b613d9f816145d1565b840191505092915050565b6000613db5826141e4565b613dbf8185614278565b9350613dcf8185602086016143c4565b613dd8816145d1565b840191505092915050565b60006101a083016000830151613dfc6000860182613f11565b5060208301518482036020860152613e148282613d71565b9150506040830151613e296040860182613d53565b506060830151613e3c6060860182613f11565b506080830151613e4f6080860182613f11565b5060a0830151613e6260a0860182613f11565b5060c0830151613e7560c0860182613f11565b5060e083015184820360e0860152613e8d8282613d71565b915050610100830151848203610100860152613ea98282613d71565b915050610120830151848203610120860152613ec58282613d71565b915050610140830151613edc610140860182613b88565b50610160830151613ef1610160860182613f11565b50610180830151613f06610180860182613f11565b508091505092915050565b613f1a81614399565b82525050565b613f2981614399565b82525050565b6000602082019050613f446000830184613b97565b92915050565b60006020820190508181036000830152613f648184613ba6565b905092915050565b60006040820190508181036000830152613f868185613ba6565b90508181036020830152613f9a8184613c04565b90509392505050565b60006020820190508181036000830152613fbd8184613c04565b905092915050565b60006020820190508181036000830152613fdf8184613c62565b905092915050565b600060208201905081810360008301526140018184613cd7565b905092915050565b600060208201905061401e6000830184613d44565b92915050565b600060c0820190506140396000830189613d62565b6140466020830188613f20565b6140536040830187613f20565b81810360608301526140658186613daa565b905081810360808301526140798185613daa565b905081810360a083015261408d8184613daa565b9050979650505050505050565b600060208201905081810360008301526140b48184613daa565b905092915050565b600060208201905081810360008301526140d68184613de3565b905092915050565b60006020820190506140f36000830184613f20565b92915050565b600060408201905061410e6000830185613f20565b61411b6020830184613f20565b9392505050565b600061412c61413d565b90506141388282614429565b919050565b6000604051905090565b600067ffffffffffffffff8211156141625761416161458e565b5b61416b826145d1565b9050602081019050919050565b6000819050602082019050919050565b6000819050602082019050919050565b6000819050602082019050919050565b6000819050602082019050919050565b600081519050919050565b600081519050919050565b600081519050919050565b600081519050919050565b600081519050919050565b6000602082019050919050565b6000602082019050919050565b6000602082019050919050565b6000602082019050919050565b600082825260208201905092915050565b600082825260208201905092915050565b600082825260208201905092915050565b600082825260208201905092915050565b600082825260208201905092915050565b600082825260208201905092915050565b600061429482614399565b915061429f83614399565b9250826142af576142ae6144d2565b5b828204905092915050565b60006142c582614399565b91506142d083614399565b9250817fffffffffffffffffffffffffffffffffffffffffffffffffffffffffffffffff0483118215151615614309576143086144a3565b5b828202905092915050565b600061431f82614399565b915061432a83614399565b92508282101561433d5761433c6144a3565b5b828203905092915050565b600061435382614379565b9050919050565b60008115159050919050565b6000819050614374826145e2565b919050565b600073ffffffffffffffffffffffffffffffffffffffff82169050919050565b6000819050919050565b60006143ae82614366565b9050919050565b82818337600083830152505050565b60005b838110156143e25780820151818401526020810190506143c7565b838111156143f1576000848401525b50505050565b6000600282049050600182168061440f57607f821691505b6020821081141561442357614422614530565b5b50919050565b614432826145d1565b810181811067ffffffffffffffff821117156144515761445061458e565b5b80604052505050565b600061446582614399565b91507fffffffffffffffffffffffffffffffffffffffffffffffffffffffffffffffff821415614498576144976144a3565b5b600182019050919050565b7f4e487b7100000000000000000000000000000000000000000000000000000000600052601160045260246000fd5b7f4e487b7100000000000000000000000000000000000000000000000000000000600052601260045260246000fd5b7f4e487b7100000000000000000000000000000000000000000000000000000000600052602160045260246000fd5b7f4e487b7100000000000000000000000000000000000000000000000000000000600052602260045260246000fd5b7f4e487b7100000000000000000000000000000000000000000000000000000000600052603260045260246000fd5b7f4e487b7100000000000000000000000000000000000000000000000000000000600052604160045260246000fd5b600080fd5b600080fd5b600080fd5b600080fd5b6000601f19601f8301169050919050565b600481106145f3576145f2614501565b5b50565b6145ff81614348565b811461460a57600080fd5b50565b61461681614399565b811461462157600080fd5b5056fea2646970667358221220486db7fdbb13385e104a4930af9c38676ae624bec965f521b74bb5589cc3d0c964736f6c63430008060033",
  "immutableReferences": {},
  "source": "// SPDX-License-Identifier: MIT\npragma solidity ^0.8.0;\n\nimport \"./ContributorManager.sol\";\n\ncontract AdminsManager is ContributorManager {\n\n    event AdminAdded(address indexed account, uint256 groupId);\n    event AdminRemoved(address indexed account, uint256 groupId);\n\n    event GroupCreated(address indexed creator, uint256 groupId);\n    event EventStarted(address indexed startedBy, uint256 groupId);\n    event RegistrationEnded(address indexed endedBy, uint256 groupId);\n    event EventEnded(address indexed endedBy, uint256 groupId);\n\n    event CalculatedPot(\n        uint256 registeredRecipientCount,\n        uint256 winningsPerRecipient\n    );\n\n    constructor() {}\n\n    modifier onlyAdmins(uint256 groupId) {\n        require(isAdmin(msg.sender, groupId));\n        _;\n    }\n\n    function isAdmin(address account, uint256 groupId)\n        public\n        view\n        returns (bool)\n    {\n        return admins[groupId][account] == true;\n    }\n\n    function amIAdmin(uint groupId) external view returns (bool) {\n        return admins[groupId][msg.sender] == true;\n    }\n\n    function getAdminsForGroup(uint256 groupId) external view returns (address[] memory, bool[] memory) {\n        return (adminAddresses[groupId], adminEnabled[groupId]);\n    }\n\n    modifier onlyAdminsOrCOO(uint256 groupId) {\n        require(isAdmin(msg.sender, groupId) || msg.sender == cooAddress);\n        _;\n    }\n\n    // TODO - allow COO to give \"admin-granting power\" to other admins\n    function addAdmin(address account, uint256 groupId) external onlyCOO {\n        _addAdmin(account, groupId);\n    }\n\n    function removeAdmin(address account, uint256 groupId) external onlyCOO {\n        _removeAdmin(account, groupId);\n    }\n\n    function renounceAdmin(uint256 groupId) public onlyAdmins(groupId) {\n        _removeAdmin(msg.sender, groupId);\n    }\n\n    function _addAdmin(address account, uint256 groupId) internal {\n        admins[groupId][account] = true;\n\n        adminAddressToIndex[groupId][account] = adminAddressToIndexNextIndex;\n        adminAddressToIndexNextIndex++;\n\n        adminAddresses[groupId].push(account);\n        adminEnabled[groupId].push(true);\n        // TODO - adminNames\n\n        emit AdminAdded(account, groupId);\n    }\n\n    function _removeAdmin(address account, uint256 groupId) internal {\n        admins[groupId][account] = false;\n\n        uint index = adminAddressToIndex[groupId][account];\n        adminEnabled[groupId][index] = false;\n\n        emit AdminRemoved(account, groupId);\n    }\n\n    function readEventInfo(uint256 groupId)\n        external\n        view\n        onlyAdmins(groupId)\n        returns (EthDropEvent memory)\n    {\n        return currentEvents[groupId];\n    }\n\n    function createNewGroup(string memory groupName) external onlyCOO whenNotPaused {\n        uint256 newGroupId = uint256(blockhash(block.number));\n\n        EthDropEvent memory newGroup = EthDropEvent(\n            newGroupId,\n            groupName,\n            EventState.CREATED,\n            block.timestamp,\n            block.timestamp,\n            block.timestamp,\n            0,\n            \"\",\n            \"\",\n            \"\",\n            address(0),\n            0,\n            0\n        );\n\n        currentEvents[newGroupId] = newGroup;\n\n        listOfGroupIds.push(block.timestamp);\n        listOfGroupNames.push(groupName);\n\n        emit GroupCreated(msg.sender, newGroupId);\n    }\n\n    function startEvent(uint256 groupId)\n        external\n        onlyAdmins(groupId)\n        whenNotPaused\n    {\n        currentEvents[groupId].currentState = EventState.REGISTRATION;\n        currentEvents[groupId].startTime = block.timestamp;\n\n        emit EventStarted(msg.sender, groupId);\n    }\n\n    function closeEventRegistration(uint256 groupId)\n        external\n        onlyAdmins(groupId)\n        whenNotPaused\n    {\n        currentEvents[groupId].registrationEndTime = block.timestamp;\n\n\n        uint devCutWei = currentEvents[groupId].totalAmountContributed * devCutPercentage / 100;\n\n        // Transfer dev cut to cfo\n        payable(cfoAddress).transfer(devCutWei);\n\n        // pot is the amount for recipients to share\n        uint pot = currentEvents[groupId].totalAmountContributed - devCutWei;\n\n        // each recipient's winnings is the \"weiWinnings\"\n        currentEvents[groupId].weiWinnings = pot / currentEvents[groupId].registeredRecipientsCount;\n\n        // uint256[] memory potShares = new uint256[](\n        //     currentEvents[groupId].registeredRecipientsCount\n        // );\n\n        // for (\n        //     uint256 i;\n        //     i < currentEvents[groupId].registeredRecipientsCount;\n        //     i++\n        // ) {\n        //     potShares[i] = 1;\n        // }\n\n        // pot[groupId] = new PaymentSplitter(\n        //     registeredRecipientsArray[groupId],\n        //     potShares\n        // );\n\n        currentEvents[groupId].currentState = EventState.CLAIM_WINNINGS;\n\n        // uint256 winningsPerRecipient = address(this).balance /\n        //     pot[groupId].totalShares();\n\n        // emit CalculatedPot(\n        //     currentEvents[groupId].registeredRecipientsCount,\n        //     winningsPerRecipient\n        // );\n\n        emit RegistrationEnded(msg.sender, groupId);\n    }\n\n    function endEvent(uint256 groupId)\n        external\n        onlyAdminsOrCOO(groupId)\n        whenNotPaused\n    {\n        currentEvents[groupId].endTime = block.timestamp;\n\n        currentEvents[groupId].currentState = EventState.ENDED;\n\n        pastEvents[groupId].push(currentEvents[groupId]);\n\n        emit EventEnded(msg.sender, groupId);\n    }\n\n    function addEligibleRecipient(address account, uint256 groupId)\n        external\n        whenNotPaused\n        onlyAdmins(groupId)\n    {\n        eligibleRecipients[groupId][account] = true;\n\n        eligibleRecipientsArray[groupId].push(account);\n        eligibleRecipientsEligibilityIsEnabled[groupId].push(true);\n\n        emit EligibleRecipientAdded(account, groupId);\n    }\n\n    function removeEligibleRecipient(address account, uint256 groupId)\n        external\n        onlyAdmins(groupId)\n        whenNotPaused\n    {\n        eligibleRecipients[groupId][account] = false;\n        emit EligibleRecipientRemoved(account, groupId);\n    }\n\n    function addContributor(address account, uint256 groupId)\n        external\n        onlyAdminsOrCOO(groupId)\n        whenNotPaused\n    {\n        _addContributor(account, groupId);\n    }\n\n    function removeContributor(address account, uint256 groupId)\n        external\n        onlyAdminsOrCOO(groupId)\n        whenNotPaused\n    {\n        _removeContributor(account, groupId);\n    }\n}",
  "sourcePath": "/Users/jim/Git-Projects/EthDrop/contracts/roles/AdminsManager.sol",
  "compiler": {
    "name": "solc",
    "version": "0.8.6+commit.11564f7e.Emscripten.clang"
  },
  "schemaVersion": "3.4.1",
  "updatedAt": "2021-07-23T17:22:27.645Z",
  "networkType": "ethereum",
  "devdoc": {
    "kind": "dev",
    "methods": {
      "pause()": {
        "details": "Called by any \"C-level\" role to pause the contract. Used only when  a bug or exploit is detected and we need to limit damage."
      },
      "setCEO(address)": {
        "details": "Assigns a new address to act as the CEO. Only available to the current CEO.",
        "params": {
          "_newCEO": "The address of the new CEO"
        }
      },
      "setCFO(address)": {
        "details": "Assigns a new address to act as the CFO. Only available to the current CEO.",
        "params": {
          "_newCFO": "The address of the new CFO"
        }
      },
      "setCOO(address)": {
        "details": "Assigns a new address to act as the COO. Only available to the current CEO.",
        "params": {
          "_newCOO": "The address of the new COO"
        }
      },
      "unpause()": {
        "details": "Unpauses the smart contract. Can only be called by the CEO, since  one reason we may pause the contract is when CFO or COO accounts are  compromised."
      }
    },
    "version": 1
  },
  "userdoc": {
    "kind": "user",
    "methods": {
      "unpause()": {
        "notice": "This is public rather than external so it can be called by  derived contracts."
      }
    },
    "version": 1
  }
}