{
  "contractName": "AdminsManager",
  "abi": [
    {
      "inputs": [],
      "stateMutability": "nonpayable",
      "type": "constructor"
    },
    {
      "anonymous": false,
      "inputs": [
        {
          "indexed": false,
          "internalType": "uint256",
          "name": "groupId",
          "type": "uint256"
        },
        {
          "indexed": false,
          "internalType": "address",
          "name": "account",
          "type": "address"
        },
        {
          "indexed": false,
          "internalType": "uint256",
          "name": "index",
          "type": "uint256"
        }
      ],
      "name": "AdminAdded",
      "type": "event"
    },
    {
      "anonymous": false,
      "inputs": [
        {
          "indexed": false,
          "internalType": "uint256",
          "name": "groupId",
          "type": "uint256"
        },
        {
          "indexed": false,
          "internalType": "string",
          "name": "name",
          "type": "string"
        }
      ],
      "name": "AdminReEnabled",
      "type": "event"
    },
    {
      "anonymous": false,
      "inputs": [
        {
          "indexed": false,
          "internalType": "uint256",
          "name": "groupId",
          "type": "uint256"
        },
        {
          "indexed": false,
          "internalType": "string",
          "name": "name",
          "type": "string"
        }
      ],
      "name": "AdminRemoved",
      "type": "event"
    },
    {
      "anonymous": false,
      "inputs": [
        {
          "indexed": false,
          "internalType": "bool",
          "name": "isPaused",
          "type": "bool"
        }
      ],
      "name": "AppPaused",
      "type": "event"
    },
    {
      "anonymous": false,
      "inputs": [
        {
          "indexed": false,
          "internalType": "uint256",
          "name": "registeredRecipientCount",
          "type": "uint256"
        },
        {
          "indexed": false,
          "internalType": "uint256",
          "name": "winningsPerRecipient",
          "type": "uint256"
        }
      ],
      "name": "CalculatedPot",
      "type": "event"
    },
    {
      "anonymous": false,
      "inputs": [],
      "name": "CfoUpdated",
      "type": "event"
    },
    {
      "anonymous": false,
      "inputs": [
        {
          "indexed": false,
          "internalType": "address",
          "name": "newContract",
          "type": "address"
        }
      ],
      "name": "ContractUpgrade",
      "type": "event"
    },
    {
      "anonymous": false,
      "inputs": [
        {
          "indexed": true,
          "internalType": "address",
          "name": "account",
          "type": "address"
        },
        {
          "indexed": false,
          "internalType": "uint256",
          "name": "groupId",
          "type": "uint256"
        },
        {
          "indexed": false,
          "internalType": "uint256",
          "name": "amount",
          "type": "uint256"
        }
      ],
      "name": "ContributionMade",
      "type": "event"
    },
    {
      "anonymous": false,
      "inputs": [
        {
          "indexed": true,
          "internalType": "address",
          "name": "account",
          "type": "address"
        },
        {
          "indexed": false,
          "internalType": "uint256",
          "name": "groupId",
          "type": "uint256"
        }
      ],
      "name": "ContributorAdded",
      "type": "event"
    },
    {
      "anonymous": false,
      "inputs": [
        {
          "indexed": false,
          "internalType": "uint256",
          "name": "groupId",
          "type": "uint256"
        },
        {
          "indexed": false,
          "internalType": "address",
          "name": "newContributor",
          "type": "address"
        }
      ],
      "name": "ContributorAddressUpdated",
      "type": "event"
    },
    {
      "anonymous": false,
      "inputs": [
        {
          "indexed": false,
          "internalType": "uint256",
          "name": "groupId",
          "type": "uint256"
        },
        {
          "indexed": false,
          "internalType": "string",
          "name": "sponsorName",
          "type": "string"
        },
        {
          "indexed": false,
          "internalType": "string",
          "name": "imgUrl",
          "type": "string"
        },
        {
          "indexed": false,
          "internalType": "string",
          "name": "imgLinkToUrl",
          "type": "string"
        }
      ],
      "name": "ContributorInfoUpdated",
      "type": "event"
    },
    {
      "anonymous": false,
      "inputs": [
        {
          "indexed": true,
          "internalType": "address",
          "name": "account",
          "type": "address"
        },
        {
          "indexed": false,
          "internalType": "uint256",
          "name": "groupId",
          "type": "uint256"
        }
      ],
      "name": "ContributorRemoved",
      "type": "event"
    },
    {
      "anonymous": false,
      "inputs": [],
      "name": "CooUpdated",
      "type": "event"
    },
    {
      "anonymous": false,
      "inputs": [
        {
          "indexed": true,
          "internalType": "address",
          "name": "account",
          "type": "address"
        },
        {
          "indexed": false,
          "internalType": "uint256",
          "name": "groupId",
          "type": "uint256"
        }
      ],
      "name": "EligibleRecipientAdded",
      "type": "event"
    },
    {
      "anonymous": false,
      "inputs": [
        {
          "indexed": true,
          "internalType": "address",
          "name": "account",
          "type": "address"
        },
        {
          "indexed": false,
          "internalType": "uint256",
          "name": "groupId",
          "type": "uint256"
        }
      ],
      "name": "EligibleRecipientRemoved",
      "type": "event"
    },
    {
      "anonymous": false,
      "inputs": [
        {
          "indexed": true,
          "internalType": "address",
          "name": "endedBy",
          "type": "address"
        },
        {
          "indexed": false,
          "internalType": "uint256",
          "name": "groupId",
          "type": "uint256"
        }
      ],
      "name": "EventEnded",
      "type": "event"
    },
    {
      "anonymous": false,
      "inputs": [
        {
          "indexed": true,
          "internalType": "address",
          "name": "startedBy",
          "type": "address"
        },
        {
          "indexed": false,
          "internalType": "uint256",
          "name": "groupId",
          "type": "uint256"
        }
      ],
      "name": "EventStarted",
      "type": "event"
    },
    {
      "anonymous": false,
      "inputs": [
        {
          "indexed": false,
          "internalType": "string",
          "name": "groupName",
          "type": "string"
        },
        {
          "indexed": false,
          "internalType": "uint256",
          "name": "groupId",
          "type": "uint256"
        }
      ],
      "name": "GroupCreated",
      "type": "event"
    },
    {
      "anonymous": false,
      "inputs": [
        {
          "indexed": true,
          "internalType": "address",
          "name": "account",
          "type": "address"
        },
        {
          "indexed": false,
          "internalType": "uint256",
          "name": "groupId",
          "type": "uint256"
        }
      ],
      "name": "RecipientRegistered",
      "type": "event"
    },
    {
      "anonymous": false,
      "inputs": [
        {
          "indexed": true,
          "internalType": "address",
          "name": "endedBy",
          "type": "address"
        },
        {
          "indexed": false,
          "internalType": "uint256",
          "name": "groupId",
          "type": "uint256"
        }
      ],
      "name": "RegistrationEnded",
      "type": "event"
    },
    {
      "anonymous": false,
      "inputs": [
        {
          "indexed": false,
          "internalType": "address",
          "name": "from",
          "type": "address"
        },
        {
          "indexed": false,
          "internalType": "address",
          "name": "to",
          "type": "address"
        }
      ],
      "name": "Transfer",
      "type": "event"
    },
    {
      "anonymous": false,
      "inputs": [
        {
          "indexed": true,
          "internalType": "address",
          "name": "account",
          "type": "address"
        },
        {
          "indexed": false,
          "internalType": "uint256",
          "name": "groupId",
          "type": "uint256"
        }
      ],
      "name": "WinningsClaimed",
      "type": "event"
    },
    {
      "inputs": [
        {
          "internalType": "uint256",
          "name": "groupId",
          "type": "uint256"
        }
      ],
      "name": "amIContributor",
      "outputs": [
        {
          "internalType": "bool",
          "name": "",
          "type": "bool"
        }
      ],
      "stateMutability": "view",
      "type": "function"
    },
    {
      "inputs": [
        {
          "internalType": "uint256",
          "name": "groupId",
          "type": "uint256"
        }
      ],
      "name": "amIEligibleRecipient",
      "outputs": [
        {
          "internalType": "bool",
          "name": "",
          "type": "bool"
        }
      ],
      "stateMutability": "view",
      "type": "function"
    },
    {
      "inputs": [
        {
          "internalType": "uint256",
          "name": "groupId",
          "type": "uint256"
        }
      ],
      "name": "amIRegisteredRecipient",
      "outputs": [
        {
          "internalType": "bool",
          "name": "",
          "type": "bool"
        }
      ],
      "stateMutability": "view",
      "type": "function"
    },
    {
      "inputs": [],
      "name": "ceoAddress",
      "outputs": [
        {
          "internalType": "address",
          "name": "",
          "type": "address"
        }
      ],
      "stateMutability": "view",
      "type": "function"
    },
    {
      "inputs": [],
      "name": "cfoAddress",
      "outputs": [
        {
          "internalType": "address",
          "name": "",
          "type": "address"
        }
      ],
      "stateMutability": "view",
      "type": "function"
    },
    {
      "inputs": [
        {
          "internalType": "uint256",
          "name": "groupId",
          "type": "uint256"
        }
      ],
      "name": "claimWinnings",
      "outputs": [],
      "stateMutability": "nonpayable",
      "type": "function"
    },
    {
      "inputs": [
        {
          "internalType": "uint256",
          "name": "groupId",
          "type": "uint256"
        }
      ],
      "name": "contributeToPot",
      "outputs": [],
      "stateMutability": "payable",
      "type": "function"
    },
    {
      "inputs": [],
      "name": "cooAddress",
      "outputs": [
        {
          "internalType": "address",
          "name": "",
          "type": "address"
        }
      ],
      "stateMutability": "view",
      "type": "function"
    },
    {
      "inputs": [
        {
          "internalType": "uint256",
          "name": "groupId",
          "type": "uint256"
        }
      ],
      "name": "doIHaveClaimableWinnings",
      "outputs": [
        {
          "internalType": "bool",
          "name": "",
          "type": "bool"
        }
      ],
      "stateMutability": "view",
      "type": "function"
    },
    {
      "inputs": [],
      "name": "getCFO",
      "outputs": [
        {
          "internalType": "address",
          "name": "",
          "type": "address"
        }
      ],
      "stateMutability": "view",
      "type": "function"
    },
    {
      "inputs": [],
      "name": "getCOO",
      "outputs": [
        {
          "internalType": "address",
          "name": "",
          "type": "address"
        }
      ],
      "stateMutability": "view",
      "type": "function"
    },
    {
      "inputs": [
        {
          "internalType": "uint256",
          "name": "groupId",
          "type": "uint256"
        }
      ],
      "name": "getContributorInfo",
      "outputs": [
        {
          "internalType": "string",
          "name": "newContributorName",
          "type": "string"
        },
        {
          "internalType": "string",
          "name": "newContributorImgUrl",
          "type": "string"
        },
        {
          "internalType": "string",
          "name": "newContributorLinkToUrl",
          "type": "string"
        }
      ],
      "stateMutability": "view",
      "type": "function"
    },
    {
      "inputs": [
        {
          "internalType": "uint256",
          "name": "groupId",
          "type": "uint256"
        }
      ],
      "name": "getCurrentSponsorAddress",
      "outputs": [
        {
          "internalType": "address",
          "name": "",
          "type": "address"
        }
      ],
      "stateMutability": "view",
      "type": "function"
    },
    {
      "inputs": [
        {
          "internalType": "uint256",
          "name": "groupId",
          "type": "uint256"
        }
      ],
      "name": "getEligibleRecipientAddresses",
      "outputs": [
        {
          "internalType": "address[]",
          "name": "",
          "type": "address[]"
        }
      ],
      "stateMutability": "view",
      "type": "function"
    },
    {
      "inputs": [
        {
          "internalType": "uint256",
          "name": "groupId",
          "type": "uint256"
        }
      ],
      "name": "getEligibleRecipientIsEligibilityEnabled",
      "outputs": [
        {
          "internalType": "bool[]",
          "name": "",
          "type": "bool[]"
        }
      ],
      "stateMutability": "view",
      "type": "function"
    },
    {
      "inputs": [
        {
          "internalType": "uint256",
          "name": "groupId",
          "type": "uint256"
        }
      ],
      "name": "getEligibleRecipientNames",
      "outputs": [
        {
          "internalType": "string[]",
          "name": "",
          "type": "string[]"
        }
      ],
      "stateMutability": "view",
      "type": "function"
    },
    {
      "inputs": [],
      "name": "getGlobalData",
      "outputs": [
        {
          "internalType": "bool",
          "name": "",
          "type": "bool"
        },
        {
          "internalType": "bool",
          "name": "",
          "type": "bool"
        },
        {
          "internalType": "bool",
          "name": "",
          "type": "bool"
        },
        {
          "internalType": "bool",
          "name": "",
          "type": "bool"
        },
        {
          "internalType": "uint256[]",
          "name": "",
          "type": "uint256[]"
        },
        {
          "internalType": "string[]",
          "name": "",
          "type": "string[]"
        }
      ],
      "stateMutability": "view",
      "type": "function"
    },
    {
      "inputs": [
        {
          "internalType": "uint256",
          "name": "groupId",
          "type": "uint256"
        }
      ],
      "name": "getGroupEventData",
      "outputs": [
        {
          "internalType": "uint256",
          "name": "",
          "type": "uint256"
        },
        {
          "internalType": "uint256",
          "name": "",
          "type": "uint256"
        },
        {
          "internalType": "uint256",
          "name": "",
          "type": "uint256"
        },
        {
          "internalType": "uint256",
          "name": "",
          "type": "uint256"
        },
        {
          "internalType": "uint256",
          "name": "",
          "type": "uint256"
        },
        {
          "internalType": "uint256",
          "name": "",
          "type": "uint256"
        },
        {
          "internalType": "address",
          "name": "",
          "type": "address"
        },
        {
          "internalType": "string",
          "name": "",
          "type": "string"
        },
        {
          "internalType": "string",
          "name": "",
          "type": "string"
        },
        {
          "internalType": "string",
          "name": "",
          "type": "string"
        },
        {
          "internalType": "string",
          "name": "",
          "type": "string"
        }
      ],
      "stateMutability": "view",
      "type": "function"
    },
    {
      "inputs": [
        {
          "internalType": "uint256",
          "name": "groupId",
          "type": "uint256"
        }
      ],
      "name": "getGroupEventUsersData",
      "outputs": [
        {
          "internalType": "address[]",
          "name": "",
          "type": "address[]"
        },
        {
          "internalType": "address[]",
          "name": "",
          "type": "address[]"
        },
        {
          "internalType": "address[]",
          "name": "",
          "type": "address[]"
        },
        {
          "internalType": "string[]",
          "name": "",
          "type": "string[]"
        },
        {
          "internalType": "string[]",
          "name": "",
          "type": "string[]"
        },
        {
          "internalType": "string[]",
          "name": "",
          "type": "string[]"
        }
      ],
      "stateMutability": "view",
      "type": "function"
    },
    {
      "inputs": [],
      "name": "getNewGroupSuggestions",
      "outputs": [
        {
          "internalType": "string[]",
          "name": "",
          "type": "string[]"
        },
        {
          "internalType": "string[]",
          "name": "",
          "type": "string[]"
        },
        {
          "internalType": "string[]",
          "name": "",
          "type": "string[]"
        },
        {
          "internalType": "bool[]",
          "name": "",
          "type": "bool[]"
        }
      ],
      "stateMutability": "view",
      "type": "function"
    },
    {
      "inputs": [
        {
          "internalType": "uint256",
          "name": "groupId",
          "type": "uint256"
        }
      ],
      "name": "getRegisteredRecipientNames",
      "outputs": [
        {
          "internalType": "string[]",
          "name": "",
          "type": "string[]"
        }
      ],
      "stateMutability": "view",
      "type": "function"
    },
    {
      "inputs": [
        {
          "internalType": "uint256",
          "name": "groupId",
          "type": "uint256"
        }
      ],
      "name": "getRegisteredRecipients",
      "outputs": [
        {
          "internalType": "address[]",
          "name": "",
          "type": "address[]"
        }
      ],
      "stateMutability": "view",
      "type": "function"
    },
    {
      "inputs": [],
      "name": "isCEO",
      "outputs": [
        {
          "internalType": "bool",
          "name": "",
          "type": "bool"
        }
      ],
      "stateMutability": "view",
      "type": "function"
    },
    {
      "inputs": [],
      "name": "isCFO",
      "outputs": [
        {
          "internalType": "bool",
          "name": "",
          "type": "bool"
        }
      ],
      "stateMutability": "view",
      "type": "function"
    },
    {
      "inputs": [],
      "name": "isCOO",
      "outputs": [
        {
          "internalType": "bool",
          "name": "",
          "type": "bool"
        }
      ],
      "stateMutability": "view",
      "type": "function"
    },
    {
      "inputs": [
        {
          "internalType": "address",
          "name": "account",
          "type": "address"
        },
        {
          "internalType": "uint256",
          "name": "groupId",
          "type": "uint256"
        }
      ],
      "name": "isContributor",
      "outputs": [
        {
          "internalType": "bool",
          "name": "",
          "type": "bool"
        }
      ],
      "stateMutability": "view",
      "type": "function"
    },
    {
      "inputs": [
        {
          "internalType": "address",
          "name": "account",
          "type": "address"
        },
        {
          "internalType": "uint256",
          "name": "groupId",
          "type": "uint256"
        }
      ],
      "name": "isEligibleRecipient",
      "outputs": [
        {
          "internalType": "bool",
          "name": "",
          "type": "bool"
        }
      ],
      "stateMutability": "view",
      "type": "function"
    },
    {
      "inputs": [],
      "name": "isPaused",
      "outputs": [
        {
          "internalType": "bool",
          "name": "",
          "type": "bool"
        }
      ],
      "stateMutability": "view",
      "type": "function"
    },
    {
      "inputs": [
        {
          "internalType": "address",
          "name": "account",
          "type": "address"
        },
        {
          "internalType": "uint256",
          "name": "groupId",
          "type": "uint256"
        }
      ],
      "name": "isRegisteredRecipient",
      "outputs": [
        {
          "internalType": "bool",
          "name": "",
          "type": "bool"
        }
      ],
      "stateMutability": "view",
      "type": "function"
    },
    {
      "inputs": [],
      "name": "pause",
      "outputs": [],
      "stateMutability": "nonpayable",
      "type": "function"
    },
    {
      "inputs": [],
      "name": "paused",
      "outputs": [
        {
          "internalType": "bool",
          "name": "",
          "type": "bool"
        }
      ],
      "stateMutability": "view",
      "type": "function"
    },
    {
      "inputs": [
        {
          "internalType": "uint256",
          "name": "groupId",
          "type": "uint256"
        }
      ],
      "name": "registerForEvent",
      "outputs": [],
      "stateMutability": "nonpayable",
      "type": "function"
    },
    {
      "inputs": [
        {
          "internalType": "address",
          "name": "_newCEO",
          "type": "address"
        }
      ],
      "name": "setCEO",
      "outputs": [],
      "stateMutability": "nonpayable",
      "type": "function"
    },
    {
      "inputs": [
        {
          "internalType": "address",
          "name": "_newCFO",
          "type": "address"
        }
      ],
      "name": "setCFO",
      "outputs": [],
      "stateMutability": "nonpayable",
      "type": "function"
    },
    {
      "inputs": [
        {
          "internalType": "address",
          "name": "_newCOO",
          "type": "address"
        }
      ],
      "name": "setCOO",
      "outputs": [],
      "stateMutability": "nonpayable",
      "type": "function"
    },
    {
      "inputs": [
        {
          "internalType": "string",
          "name": "groupName",
          "type": "string"
        },
        {
          "internalType": "string",
          "name": "location",
          "type": "string"
        },
        {
          "internalType": "string",
          "name": "contactInfo",
          "type": "string"
        }
      ],
      "name": "suggestNewGroup",
      "outputs": [],
      "stateMutability": "nonpayable",
      "type": "function"
    },
    {
      "inputs": [],
      "name": "unpause",
      "outputs": [
        {
          "internalType": "bool",
          "name": "",
          "type": "bool"
        }
      ],
      "stateMutability": "nonpayable",
      "type": "function"
    },
    {
      "inputs": [
        {
          "internalType": "uint256",
          "name": "groupId",
          "type": "uint256"
        },
        {
          "internalType": "string",
          "name": "newContributorName",
          "type": "string"
        },
        {
          "internalType": "string",
          "name": "newContributorImgUrl",
          "type": "string"
        },
        {
          "internalType": "string",
          "name": "newContributorLinkToUrl",
          "type": "string"
        }
      ],
      "name": "updateContributorInfo",
      "outputs": [],
      "stateMutability": "nonpayable",
      "type": "function"
    },
    {
      "inputs": [],
      "name": "whoami",
      "outputs": [
        {
          "internalType": "address",
          "name": "",
          "type": "address"
        }
      ],
      "stateMutability": "view",
      "type": "function"
    },
    {
      "inputs": [
        {
          "internalType": "address",
          "name": "account",
          "type": "address"
        },
        {
          "internalType": "uint256",
          "name": "groupId",
          "type": "uint256"
        }
      ],
      "name": "isAdmin",
      "outputs": [
        {
          "internalType": "bool",
          "name": "",
          "type": "bool"
        }
      ],
      "stateMutability": "view",
      "type": "function"
    },
    {
      "inputs": [
        {
          "internalType": "uint256",
          "name": "groupId",
          "type": "uint256"
        },
        {
          "internalType": "address",
          "name": "account",
          "type": "address"
        },
        {
          "internalType": "string",
          "name": "name",
          "type": "string"
        }
      ],
      "name": "addAdmin",
      "outputs": [],
      "stateMutability": "nonpayable",
      "type": "function"
    },
    {
      "inputs": [
        {
          "internalType": "uint256",
          "name": "groupId",
          "type": "uint256"
        }
      ],
      "name": "amIAdmin",
      "outputs": [
        {
          "internalType": "bool",
          "name": "",
          "type": "bool"
        }
      ],
      "stateMutability": "view",
      "type": "function"
    },
    {
      "inputs": [
        {
          "internalType": "uint256",
          "name": "groupId",
          "type": "uint256"
        },
        {
          "internalType": "address",
          "name": "account",
          "type": "address"
        }
      ],
      "name": "reEnableAdmin",
      "outputs": [],
      "stateMutability": "nonpayable",
      "type": "function"
    },
    {
      "inputs": [
        {
          "internalType": "uint256",
          "name": "groupId",
          "type": "uint256"
        },
        {
          "internalType": "address",
          "name": "account",
          "type": "address"
        }
      ],
      "name": "removeAdmin",
      "outputs": [],
      "stateMutability": "nonpayable",
      "type": "function"
    },
    {
      "inputs": [
        {
          "internalType": "string",
          "name": "groupName",
          "type": "string"
        }
      ],
      "name": "createNewGroup",
      "outputs": [],
      "stateMutability": "nonpayable",
      "type": "function"
    },
    {
      "inputs": [
        {
          "internalType": "uint256",
          "name": "groupId",
          "type": "uint256"
        }
      ],
      "name": "startEvent",
      "outputs": [],
      "stateMutability": "nonpayable",
      "type": "function"
    },
    {
      "inputs": [
        {
          "internalType": "uint256",
          "name": "groupId",
          "type": "uint256"
        }
      ],
      "name": "closeEventRegistration",
      "outputs": [],
      "stateMutability": "nonpayable",
      "type": "function"
    },
    {
      "inputs": [
        {
          "internalType": "uint256",
          "name": "groupId",
          "type": "uint256"
        }
      ],
      "name": "endEvent",
      "outputs": [],
      "stateMutability": "nonpayable",
      "type": "function"
    },
    {
      "inputs": [
        {
          "internalType": "address",
          "name": "account",
          "type": "address"
        },
        {
          "internalType": "string",
          "name": "name",
          "type": "string"
        },
        {
          "internalType": "uint256",
          "name": "groupId",
          "type": "uint256"
        }
      ],
      "name": "addEligibleRecipient",
      "outputs": [],
      "stateMutability": "nonpayable",
      "type": "function"
    },
    {
      "inputs": [
        {
          "internalType": "address",
          "name": "account",
          "type": "address"
        },
        {
          "internalType": "uint256",
          "name": "groupId",
          "type": "uint256"
        }
      ],
      "name": "removeEligibleRecipient",
      "outputs": [],
      "stateMutability": "nonpayable",
      "type": "function"
    },
    {
      "inputs": [
        {
          "internalType": "address",
          "name": "account",
          "type": "address"
        },
        {
          "internalType": "uint256",
          "name": "groupId",
          "type": "uint256"
        }
      ],
      "name": "changeContributor",
      "outputs": [],
      "stateMutability": "nonpayable",
      "type": "function"
    },
    {
      "inputs": [
        {
          "internalType": "uint256",
          "name": "index",
          "type": "uint256"
        }
      ],
      "name": "approveNewGroupSuggestion",
      "outputs": [],
      "stateMutability": "nonpayable",
      "type": "function"
    }
  ],
  "bytecode": "0x6080604052600080546001600160a01b031916331790556002805460ff60a01b19169055600560035534801561003457600080fd5b50613efb806100446000396000f3fe6080604052600436106102bf5760003560e01c80637b936ac211610170578063b187bd26116100cc578063e9992d9911610085578063e9992d99146108e5578063ea303f0814610905578063edf6261d14610925578063ee41b59214610945578063f4a02e7014610965578063f89e9cb914610985578063fc5fd6e4146109a557600080fd5b8063b187bd2614610840578063b3b36bb31461085f578063c271e80c14610872578063e513b7a914610892578063e62092be146108b2578063e82f24e0146108d257600080fd5b80639393ae37116101295780639393ae3714610760578063962ecff514610780578063967cafbc146107a05780639bda8796146107c0578063a59a6953146107e0578063aea88a0514610800578063b047fb501461082057600080fd5b80637b936ac2146106ad5780637d2b3ba2146106cb5780637d837ce5146106eb5780637eb0bdc91461070b5780638182aaf21461072b5780638456cb591461074b57600080fd5b806344b2983b1161021f5780635c975abb116101d85780635c975abb146105b65780635e82c1fc146105d7578063674811ca146105f7578063677bd9ff146106265780636a03402114610646578063766144821461066d578063785142be1461068d57600080fd5b806344b2983b146104b3578063454432e2146104e05780634635509b146105005780634e0a33791461053757806355b57ec1146105575780635624aab01461058457600080fd5b806319a2394d1161027c57806319a2394d146103d957806327d7874c146103fe5780632ba73c151461041e578063330a347b1461043e57806338f0b6561461045e5780633f4ba83a1461047e578063406db8431461049357600080fd5b80630519ce79146102c457806306cc49221461030157806307bfa330146103315780630a0f81681461035e5780630d82ffa01461037e57806315891ff4146103b7575b600080fd5b3480156102d057600080fd5b506001546102e4906001600160a01b031681565b6040516001600160a01b0390911681526020015b60405180910390f35b34801561030d57600080fd5b5061032161031c3660046137e3565b6109c3565b60405190151581526020016102f8565b34801561033d57600080fd5b5061035161034c3660046137e3565b6109ef565b6040516102f89190613b6a565b34801561036a57600080fd5b506000546102e4906001600160a01b031681565b34801561038a57600080fd5b506102e46103993660046137e3565b6000908152600a60205260409020600601546001600160a01b031690565b3480156103c357600080fd5b506103d76103d23660046136f4565b610adb565b005b3480156103e557600080fd5b506103ee610b68565b6040516102f89493929190613b7d565b34801561040a57600080fd5b506103d761041936600461367b565b610e6f565b34801561042a57600080fd5b506103d761043936600461367b565b610ebb565b34801561044a57600080fd5b506103d76104593660046137e3565b610f2c565b34801561046a57600080fd5b506103216104793660046137e3565b611292565b34801561048a57600080fd5b506103216112b6565b34801561049f57600080fd5b506103d76104ae3660046137e3565b611336565b3480156104bf57600080fd5b506104d36104ce3660046137e3565b6114d2565b6040516102f89190613ac2565b3480156104ec57600080fd5b506103516104fb3660046137e3565b61153e565b34801561050c57600080fd5b5061052061051b3660046137e3565b61161f565b6040516102f89b9a99989796959493929190613d10565b34801561054357600080fd5b506103d761055236600461367b565b611999565b34801561056357600080fd5b506105776105723660046137e3565b611a0a565b6040516102f89190613b57565b34801561059057600080fd5b506105a461059f3660046137e3565b611a8a565b6040516102f896959493929190613ad5565b3480156105c257600080fd5b5060025461032190600160a01b900460ff1681565b3480156105e357600080fd5b506103216105f23660046136f4565b611e72565b34801561060357600080fd5b506106176106123660046137e3565b611ebf565b6040516102f893929190613c53565b34801561063257600080fd5b506103d76106413660046137e3565b612098565b34801561065257600080fd5b5061065b6121af565b6040516102f896959493929190613bd5565b34801561067957600080fd5b506103d76106883660046137e3565b612337565b34801561069957600080fd5b506103d76106a83660046137e3565b612426565b3480156106b957600080fd5b506001546001600160a01b03166102e4565b3480156106d757600080fd5b506103d76106e636600461375b565b6125cd565b3480156106f757600080fd5b506103216107063660046136f4565b6126e8565b34801561071757600080fd5b506103d76107263660046137fc565b612732565b34801561073757600080fd5b506103216107463660046136f4565b612757565b34801561075757600080fd5b506103d7612795565b34801561076c57600080fd5b506001546001600160a01b03163314610321565b34801561078c57600080fd5b5061032161079b3660046137e3565b612836565b3480156107ac57600080fd5b506103d76107bb36600461369d565b612842565b3480156107cc57600080fd5b506104d36107db3660046137e3565b612999565b3480156107ec57600080fd5b506103d76107fb3660046137e3565b612a03565b34801561080c57600080fd5b506103d761081b366004613875565b612a7d565b34801561082c57600080fd5b506002546102e4906001600160a01b031681565b34801561084c57600080fd5b50600254600160a01b900460ff16610321565b34801561086b57600080fd5b50336102e4565b34801561087e57600080fd5b506103d761088d3660046136f4565b612b78565b34801561089e57600080fd5b506000546001600160a01b03163314610321565b3480156108be57600080fd5b506103216108cd3660046136f4565b612bc7565b6103d76108e03660046137e3565b612c49565b3480156108f157600080fd5b506103d76109003660046137fc565b612ce3565b34801561091157600080fd5b506103d761092036600461371e565b612dd2565b34801561093157600080fd5b506103d7610940366004613828565b613047565b34801561095157600080fd5b506103216109603660046137e3565b6130a1565b34801561097157600080fd5b506002546001600160a01b03163314610321565b34801561099157600080fd5b506103216109a03660046137e3565b6130c5565b3480156109b157600080fd5b506002546001600160a01b03166102e4565b600254600090600160a01b900460ff16156109dd57600080fd5b6109e73383611e72565b90505b919050565b6060601f6000838152602001908152602001600020805480602002602001604051908101604052809291908181526020016000905b82821015610ad0578382906000526020600020018054610a4390613e17565b80601f0160208091040260200160405190810160405280929190818152602001828054610a6f90613e17565b8015610abc5780601f10610a9157610100808354040283529160200191610abc565b820191906000526020600020905b815481529060010190602001808311610a9f57829003601f168201915b505050505081526020019060010190610a24565b505050509050919050565b80610ae63382612bc7565b610aef57600080fd5b600254600160a01b900460ff1615610b0657600080fd5b60008281526018602090815260408083206001600160a01b03871680855290835292819020805460ff19169055518481527f1af6d16168d33745872119540d28858eed156c5f265206bbf1344fda39a93a3391015b60405180910390a2505050565b606080606080600660076008600983805480602002602001604051908101604052809291908181526020016000905b82821015610c43578382906000526020600020018054610bb690613e17565b80601f0160208091040260200160405190810160405280929190818152602001828054610be290613e17565b8015610c2f5780601f10610c0457610100808354040283529160200191610c2f565b820191906000526020600020905b815481529060010190602001808311610c1257829003601f168201915b505050505081526020019060010190610b97565b50505050935082805480602002602001604051908101604052809291908181526020016000905b82821015610d16578382906000526020600020018054610c8990613e17565b80601f0160208091040260200160405190810160405280929190818152602001828054610cb590613e17565b8015610d025780601f10610cd757610100808354040283529160200191610d02565b820191906000526020600020905b815481529060010190602001808311610ce557829003601f168201915b505050505081526020019060010190610c6a565b50505050925081805480602002602001604051908101604052809291908181526020016000905b82821015610de9578382906000526020600020018054610d5c90613e17565b80601f0160208091040260200160405190810160405280929190818152602001828054610d8890613e17565b8015610dd55780601f10610daa57610100808354040283529160200191610dd5565b820191906000526020600020905b815481529060010190602001808311610db857829003601f168201915b505050505081526020019060010190610d3d565b50505050915080805480602002602001604051908101604052809291908181526020018280548015610e5a57602002820191906000526020600020906000905b825461010083900a900460ff161515815260206001928301818104948501949093039092029101808411610e295790505b50505050509050935093509350935090919293565b6000546001600160a01b03163314610e8657600080fd5b6001600160a01b038116610e9957600080fd5b600080546001600160a01b0319166001600160a01b0392909216919091179055565b6000546001600160a01b03163314610ed257600080fd5b6001600160a01b038116610ee557600080fd5b600280546001600160a01b0319166001600160a01b0383161790556040517fa308298a77084def994b565be25bff2e8fbfe7006c2c6b2bacfb84d1ba1f635090600090a150565b80610f373382612bc7565b80610f4c57506002546001600160a01b031633145b610f5557600080fd5b600254600160a01b900460ff1615610f6c57600080fd5b6000828152600a60205260408120600801805460ff191660031790555b6000838152600a6020526040902060030154811015611052576000838152602160205260408120805483908110610fc257610fc2613e99565b600091825260208083209091015486835281805260408084206001600160a01b03909216808552918352808420805460ff19169055878452601c83528084208285529092529082209092506110169161342d565b6000848152600e602090815260408083206001600160a01b03909416835292905220805460ff191690558061104a81613e52565b915050610f89565b506000828152601f6020526040812061106a9161346a565b600082815260216020526040812061108191613488565b6000828152600b60209081526040808320600a8352908320815460018181018455928552929093208354600c9093020191825580830154908201556002808301549082015560038083015490820155600480830154908201556005808301549082015560068083015490820180546001600160a01b0319166001600160a01b03909216919091179055600780830180549183019161111e90613e17565b6111299291906134a6565b50600882810154908201805460ff9092169160ff1916600183600381111561115357611153613e83565b0217905550600982018160090190805461116c90613e17565b6111779291906134a6565b50600a820181600a0190805461118c90613e17565b6111979291906134a6565b50600b820181600b019080546111ac90613e17565b6111b79291906134a6565b5050506000828152600a60205260408082206003810183905560018101839055600281018390556005018290555133917f5dc1fe5ab986a852c4eda8e8bb94247d13307065c593fb83f1a09be2736793829161121b91868252602082015260400190565b60405180910390a260405182815233907f0695e999be8100bdb5bee8612337296508d527eae78c65b8f170eacb5a3b439d9060200160405180910390a260405182815233907f6f45a19e8850c727d0de9f32e0d8691324a9a74ffb4347652e6404138b1d8165906020015b60405180910390a25050565b600254600090600160a01b900460ff16156112ac57600080fd5b6109e733836126e8565b600080546001600160a01b031633146112ce57600080fd5b600254600160a01b900460ff166112e457600080fd5b6002805460ff60a01b19169055604051600081527fedcd3d1311c56a1f814f5b4de26e8fb77f2db3563b9fc81138c17fd630e4876e9060200160405180910390a150600254600160a01b900460ff1690565b806113413382611e72565b61134a57600080fd5b600254600160a01b900460ff161561136157600080fd5b60008281526020808052604080832033808552908352818420805460ff19166001908117909155868552602184528285208054918201815585528385200180546001600160a01b03191682179055858452601c8352818420908452909152812080546113cc90613e17565b80601f01602080910402602001604051908101604052809291908181526020018280546113f890613e17565b80156114455780601f1061141a57610100808354040283529160200191611445565b820191906000526020600020905b81548152906001019060200180831161142857829003601f168201915b5050506000868152601f602090815260408220805460018101825590835291819020855195965061147d959201935085019150613531565b506000838152600a6020526040812060030180549161149b83613e52565b909155505060405183815233907f0695e999be8100bdb5bee8612337296508d527eae78c65b8f170eacb5a3b439d90602001610b5b565b60008181526021602090815260409182902080548351818402810184019094528084526060939283018282801561153257602002820191906000526020600020905b81546001600160a01b03168152600190910190602001808311611514575b50505050509050919050565b6060601a6000838152602001908152602001600020805480602002602001604051908101604052809291908181526020016000905b82821015610ad057838290600052602060002001805461159290613e17565b80601f01602080910402602001604051908101604052809291908181526020018280546115be90613e17565b801561160b5780601f106115e05761010080835404028352916020019161160b565b820191906000526020600020905b8154815290600101906020018083116115ee57829003601f168201915b505050505081526020019060010190611573565b60008060008060008060006060806060806000600a60008e8152602001908152602001600020604051806101800160405290816000820154815260200160018201548152602001600282015481526020016003820154815260200160048201548152602001600582015481526020016006820160009054906101000a90046001600160a01b03166001600160a01b03166001600160a01b031681526020016007820180546116cc90613e17565b80601f01602080910402602001604051908101604052809291908181526020018280546116f890613e17565b80156117455780601f1061171a57610100808354040283529160200191611745565b820191906000526020600020905b81548152906001019060200180831161172857829003601f168201915b5050509183525050600882015460209091019060ff16600381111561176c5761176c613e83565b600381111561177d5761177d613e83565b815260200160098201805461179190613e17565b80601f01602080910402602001604051908101604052809291908181526020018280546117bd90613e17565b801561180a5780601f106117df5761010080835404028352916020019161180a565b820191906000526020600020905b8154815290600101906020018083116117ed57829003601f168201915b50505050508152602001600a8201805461182390613e17565b80601f016020809104026020016040519081016040528092919081815260200182805461184f90613e17565b801561189c5780601f106118715761010080835404028352916020019161189c565b820191906000526020600020905b81548152906001019060200180831161187f57829003601f168201915b50505050508152602001600b820180546118b590613e17565b80601f01602080910402602001604051908101604052809291908181526020018280546118e190613e17565b801561192e5780601f106119035761010080835404028352916020019161192e565b820191906000526020600020905b81548152906001019060200180831161191157829003601f168201915b50505050508152505090508060000151816020015182604001518360a00151846060015185608001518660c001518760e001518861012001518961014001518a61016001519b509b509b509b509b509b509b509b509b509b509b505091939597999b90929496989a50565b6000546001600160a01b031633146119b057600080fd5b6001600160a01b0381166119c357600080fd5b600180546001600160a01b0319166001600160a01b0383161790556040517f162e32528b5907ecf876b3b7a4e5e0edf878642e3ec25852e3c35af1a4e1c04090600090a150565b6000818152601b602090815260409182902080548351818402810184019094528084526060939283018282801561153257602002820191906000526020600020906000905b825461010083900a900460ff161515815260206001928301818104948501949093039092029101808411611a4f575094979650505050505050565b600081815260196020908152604080832060218352818420601e8452828520601a8552838620601f8652848720601d875296859020845486518189028101890190975280875260609889988998899889988998919790969195909493919291889190830182828015611b2557602002820191906000526020600020905b81546001600160a01b03168152600190910190602001808311611b07575b5050505050955084805480602002602001604051908101604052809291908181526020018280548015611b8157602002820191906000526020600020905b81546001600160a01b03168152600190910190602001808311611b63575b5050505050945083805480602002602001604051908101604052809291908181526020018280548015611bdd57602002820191906000526020600020905b81546001600160a01b03168152600190910190602001808311611bbf575b5050505050935082805480602002602001604051908101604052809291908181526020016000905b82821015611cb1578382906000526020600020018054611c2490613e17565b80601f0160208091040260200160405190810160405280929190818152602001828054611c5090613e17565b8015611c9d5780601f10611c7257610100808354040283529160200191611c9d565b820191906000526020600020905b815481529060010190602001808311611c8057829003601f168201915b505050505081526020019060010190611c05565b50505050925081805480602002602001604051908101604052809291908181526020016000905b82821015611d84578382906000526020600020018054611cf790613e17565b80601f0160208091040260200160405190810160405280929190818152602001828054611d2390613e17565b8015611d705780601f10611d4557610100808354040283529160200191611d70565b820191906000526020600020905b815481529060010190602001808311611d5357829003601f168201915b505050505081526020019060010190611cd8565b50505050915080805480602002602001604051908101604052809291908181526020016000905b82821015611e57578382906000526020600020018054611dca90613e17565b80601f0160208091040260200160405190810160405280929190818152602001828054611df690613e17565b8015611e435780601f10611e1857610100808354040283529160200191611e43565b820191906000526020600020905b815481529060010190602001808311611e2657829003601f168201915b505050505081526020019060010190611dab565b50505050905095509550955095509550955091939550919395565b600254600090600160a01b900460ff1615611e8c57600080fd5b5060008181526018602090815260408083206001600160a01b038616845290915290205460ff1615156001145b92915050565b6000818152600a60208190526040909120600981018054606093849384939291810191600b909101908390611ef390613e17565b80601f0160208091040260200160405190810160405280929190818152602001828054611f1f90613e17565b8015611f6c5780601f10611f4157610100808354040283529160200191611f6c565b820191906000526020600020905b815481529060010190602001808311611f4f57829003601f168201915b50505050509250818054611f7f90613e17565b80601f0160208091040260200160405190810160405280929190818152602001828054611fab90613e17565b8015611ff85780601f10611fcd57610100808354040283529160200191611ff8565b820191906000526020600020905b815481529060010190602001808311611fdb57829003601f168201915b5050505050915080805461200b90613e17565b80601f016020809104026020016040519081016040528092919081815260200182805461203790613e17565b80156120845780601f1061205957610100808354040283529160200191612084565b820191906000526020600020905b81548152906001019060200180831161206757829003601f168201915b505050505090509250925092509193909250565b806120a333826126e8565b6120ac57600080fd5b6000828152600e602090815260408083203380855292529091205483919060ff161515600114156120dc57600080fd5b600254600160a01b900460ff16156120f357600080fd5b6000848152600e602090815260408083203384528252808320805460ff19166001179055868352600a909152812060050180549161213083613e52565b90915550506000848152600a6020526040808220600201549051339282156108fc02929190818181858888f19350505050158015612172573d6000803e3d6000fd5b5060405184815233907f1a31e733a172afcf46074b3106c17f0c298e226442682a03c1e99ce256139ec2906020015b60405180910390a250505050565b6000806000806060806121ce600054336001600160a01b039091161490565b6002546001600160a01b031633146001546001600160a01b03163314600260149054906101000a900460ff16600460058180548060200260200160405190810160405280929190818152602001828054801561224957602002820191906000526020600020905b815481526020019060010190808311612235575b5050505050915080805480602002602001604051908101604052809291908181526020016000905b8282101561231d57838290600052602060002001805461229090613e17565b80601f01602080910402602001604051908101604052809291908181526020018280546122bc90613e17565b80156123095780601f106122de57610100808354040283529160200191612309565b820191906000526020600020905b8154815290600101906020018083116122ec57829003601f168201915b505050505081526020019060010190612271565b505050509050955095509550955095509550909192939495565b6123e56006828154811061234d5761234d613e99565b90600052602060002001805461236290613e17565b80601f016020809104026020016040519081016040528092919081815260200182805461238e90613e17565b80156123db5780601f106123b0576101008083540402835291602001916123db565b820191906000526020600020905b8154815290600101906020018083116123be57829003601f168201915b5050505050612dd2565b6001600982815481106123fa576123fa613e99565b90600052602060002090602091828204019190066101000a81548160ff02191690831515021790555050565b806124313382612bc7565b61243a57600080fd5b600254600160a01b900460ff161561245157600080fd5b6000828152600a6020526040902060030154600111156124cd5760405162461bcd60e51b815260206004820152602d60248201527f43616e277420656e6420726567697374726174696f6e2077697468207a65726f60448201526c2072656769737472616e74732160981b606482015260840160405180910390fd5b6003546000838152600a602052604081206001015490916064916124f19190613de1565b6124fb9190613dbf565b6001546040519192506001600160a01b03169082156108fc029083906000818181858888f19350505050158015612536573d6000803e3d6000fd5b506000838152600a6020526040812060010154612554908390613e00565b6000858152600a60205260409020600301549091506125739082613dbf565b6000858152600a60205260409020600280820192909255600801805460ff1916600183021790555060405184815233907fef898a6941c945450e9bbdad4a76fcd0f51f42f7e251fddcb1e5479ba786d5e4906020016121a1565b600680546001810182556000919091528351612610917ff652222313e28459528d920b65115c16c04f3efc82aaedc97be59f3f377c0d3f01906020860190613531565b50600780546001810182556000919091528251612654917fa66cc928b5edb82af9bd49922954155ab7b0942694bea4ce44661d9a8736c68801906020850190613531565b50600880546001810182556000919091528151612698917ff3f7a9fe364faab93b216da50a3214154f22a0a2b415b23a84c8169e8b636ee301906020840190613531565b5050600980546001810182556000919091527f6e1540171b6c0c960b71a7020d9f60077f6af931a8bbf590da0223dacf75c7af60208204018054601f9092166101000a60ff021990911690555050565b600254600090600160a01b900460ff161561270257600080fd5b506000818152602080805260408083206001600160a01b038616845290915290205460ff16151560011492915050565b6002546001600160a01b0316331461274957600080fd5b6127538282613104565b5050565b600254600090600160a01b900460ff161561277157600080fd5b506000908152600a60205260409020600601546001600160a01b0390811691161490565b6002546001600160a01b03163314806127b857506000546001600160a01b031633145b806127cd57506001546001600160a01b031633145b6127d657600080fd5b600254600160a01b900460ff16156127ed57600080fd5b6002805460ff60a01b1916600160a01b179055604051600181527fedcd3d1311c56a1f814f5b4de26e8fb77f2db3563b9fc81138c17fd630e4876e9060200160405180910390a1565b60006109e73383612bc7565b600254600160a01b900460ff161561285957600080fd5b806128643382612bc7565b61286d57600080fd5b60008281526018602090815260408083206001600160a01b038816808552908352818420805460ff1916600190811790915586855260198452828520805480830182559086528486200180546001600160a01b031916909217909155858452601a83529083208054918201815583529181902085516128f3939190910191860190613531565b506000828152601c602090815260408083206001600160a01b03881684528252909120845161292492860190613531565b506000828152601b6020908152604080832080546001810182559084529282902082840401805460ff601f9095166101000a948502191690931790925590518381526001600160a01b038616917f46b8357d30dedd734a71d059a385f46b6e667bff20233f907477760207f8896591016121a1565b600081815260196020908152604091829020805483518184028101840190945280845260609392830182828015611532576020028201919060005260206000209081546001600160a01b031681526001909101906020018083116115145750505050509050919050565b80612a0e3382612bc7565b612a1757600080fd5b600254600160a01b900460ff1615612a2e57600080fd5b6000828152600a6020908152604091829020600801805460ff19166001179055905183815233917ff77c6f27499b698205f54058c2914a340e1300c2bc0d9a819e7aebfbaabbbb939101611286565b83612a883382612757565b612a9157600080fd5b835115612abf576000858152600a602090815260409091208551612abd92600990920191870190613531565b505b825115612aed576000858152600a602081815260409092208551612aeb93919092019190860190613531565b505b815115612b1b576000858152600a602090815260409091208351612b1992600b90920191850190613531565b505b6000858152600a602081905260409182902091517fcd9ad49d834aeea746bafd2d26eebd3d01ebac2d8f5d3f53d7f3884292e5835f92612b69928992600983019291820191600b0190613cd1565b60405180910390a15050505050565b80612b833382612bc7565b80612b9857506002546001600160a01b031633145b612ba157600080fd5b600254600160a01b900460ff1615612bb857600080fd5b612bc283836131b5565b505050565b6000818152600c602090815260408083206001600160a01b038616845290915281205480612bf9576000915050611eb9565b6000838152601160205260409020805482908110612c1957612c19613e99565b90600052602060002090602091828204019190069054906101000a900460ff161515600115151491505092915050565b80612c543382612757565b612c5d57600080fd5b600254600160a01b900460ff1615612c7457600080fd5b6000828152600a602052604081206001018054349290612c95908490613da7565b90915550506000828152600a60209081526040918290206001015482518581529182015233917f5dc1fe5ab986a852c4eda8e8bb94247d13307065c593fb83f1a09be2736793829101611286565b6002546001600160a01b03163314612cfa57600080fd5b6000828152600c602090815260408083206001600160a01b0385168452825280832054858452601190925290912080546001919083908110612d3e57612d3e613e99565b90600052602060002090602091828204019190066101000a81548160ff0219169083151502179055507f2d19f1f4aa7d21a07d18586e49b3e0529d148488052497ea97f06d7266c3cbbe83601060008681526020019081526020016000208381548110612dad57612dad613e99565b90600052602060002001604051612dc5929190613cb8565b60405180910390a1505050565b6002546001600160a01b03163314612de957600080fd5b600254600160a01b900460ff1615612e0057600080fd5b60004290506000604051806101800160405280838152602001600081526020016000815260200160008152602001600081526020016000815260200160006001600160a01b0316815260200184815260200160006003811115612e6557612e65613e83565b81526040805160208082018352600080835281850192909252825180820184528281528385015282518082018452828152606094850152868252600a815290829020845181558482015160018201559184015160028301559183015160038201556080830151600482015560a0830151600582015560c08301516006820180546001600160a01b0319166001600160a01b0390921691909117905560e0830151805193945084939192612f2092600785019290910190613531565b5061010082015160088201805460ff19166001836003811115612f4557612f45613e83565b02179055506101208201518051612f66916009840191602090910190613531565b506101408201518051612f8391600a840191602090910190613531565b506101608201518051612fa091600b840191602090910190613531565b50506004805460018181019092557f8a35acfbc15ff81a39ae7d344fd709f28e8600b4aa8c65c6b64bfe7fe36bd19b01849055600580549182018155600052845161301592507f036b6384b5eca791c62761152d0c79bb0604c104a5fb6f4eb0703f3154bb3db0909101906020860190613531565b507f5937a473913f56daf7dea7a6e821970acaa73f35555cf88f70c54f243cd98a9e8383604051612dc5929190613c96565b6000838152600c602090815260408083206001600160a01b0386168452909152902054839083901561307857600080fd5b6002546001600160a01b0316331461308f57600080fd5b61309a85858561322e565b5050505050565b600254600090600160a01b900460ff16156130bb57600080fd5b6109e73383612757565b60006130d133836126e8565b6130dd57506000919050565b506000908152600e6020908152604080832033845290915290205460ff1615156001141590565b6000828152600c602090815260408083206001600160a01b03851684528252808320548584526011909252822080549192918390811061314657613146613e99565b90600052602060002090602091828204019190066101000a81548160ff0219169083151502179055507f021d633158208ba55afbe8aae9878e510cccaf8f1fe2d8c42455d95f58f3b1f083601060008681526020019081526020016000208381548110612dad57612dad613e99565b60008181526017602090815260408083206001600160a01b038616808552908352818420805460ff19166001179055848452600a83529281902060060180546001600160a01b03191684179055518381527f5fd6d0b7e707fe344bd2a1887f9d0eeea8bfcac6f339ba4200e74f0647f101c09101611286565b6000838152600d6020526040902054613306576000838152600d6020526040812080549161325b83613e52565b90915550506000838152600f602090815260408083208054600180820183559185528385200180546001600160a01b03191690558684526011835281842080548083018255908552838520848204018054601f9092166101000a60ff0219909116905586845260108352818420805491820181558452928290208151808301909252600c8083526b7a65726f206164647265737360a01b92909301918252613304930191613531565b505b6000838152600d6020908152604080832054600c83528184206001600160a01b038716808652908452828520829055878552600f84528285208054600181810183559187528587200180546001600160a01b031916909217909155878552601184528285208054808301825590865284862085820401805460ff601f9093166101000a92830219169091179055878552601084529184208054928301815584529282902084516133be93919092019190850190613531565b50604080518581526001600160a01b03851660208201529081018290527f88356b104f5ba3e9281d371b21296e4e0390dda6f4bcc4bfc219f6d67cc8ae509060600160405180910390a16000848152600d6020526040812080549161342283613e52565b919050555050505050565b50805461343990613e17565b6000825580601f10613449575050565b601f01602090049060005260206000209081019061346791906135a5565b50565b508054600082559060005260206000209081019061346791906135ba565b508054600082559060005260206000209081019061346791906135a5565b8280546134b290613e17565b90600052602060002090601f0160209004810192826134d45760008555613521565b82601f106134e55780548555613521565b8280016001018555821561352157600052602060002091601f016020900482015b82811115613521578254825591600101919060010190613506565b5061352d9291506135a5565b5090565b82805461353d90613e17565b90600052602060002090601f01602090048101928261355f5760008555613521565b82601f1061357857805160ff1916838001178555613521565b82800160010185558215613521579182015b8281111561352157825182559160200191906001019061358a565b5b8082111561352d57600081556001016135a6565b8082111561352d5760006135ce828261342d565b506001016135ba565b80356001600160a01b03811681146109ea57600080fd5b600082601f8301126135ff57600080fd5b813567ffffffffffffffff8082111561361a5761361a613eaf565b604051601f8301601f19908116603f0116810190828211818310171561364257613642613eaf565b8160405283815286602085880101111561365b57600080fd5b836020870160208301376000602085830101528094505050505092915050565b60006020828403121561368d57600080fd5b613696826135d7565b9392505050565b6000806000606084860312156136b257600080fd5b6136bb846135d7565b9250602084013567ffffffffffffffff8111156136d757600080fd5b6136e3868287016135ee565b925050604084013590509250925092565b6000806040838503121561370757600080fd5b613710836135d7565b946020939093013593505050565b60006020828403121561373057600080fd5b813567ffffffffffffffff81111561374757600080fd5b613753848285016135ee565b949350505050565b60008060006060848603121561377057600080fd5b833567ffffffffffffffff8082111561378857600080fd5b613794878388016135ee565b945060208601359150808211156137aa57600080fd5b6137b6878388016135ee565b935060408601359150808211156137cc57600080fd5b506137d9868287016135ee565b9150509250925092565b6000602082840312156137f557600080fd5b5035919050565b6000806040838503121561380f57600080fd5b8235915061381f602084016135d7565b90509250929050565b60008060006060848603121561383d57600080fd5b8335925061384d602085016135d7565b9150604084013567ffffffffffffffff81111561386957600080fd5b6137d9868287016135ee565b6000806000806080858703121561388b57600080fd5b84359350602085013567ffffffffffffffff808211156138aa57600080fd5b6138b6888389016135ee565b945060408701359150808211156138cc57600080fd5b6138d8888389016135ee565b935060608701359150808211156138ee57600080fd5b506138fb878288016135ee565b91505092959194509250565b600081518084526020808501945080840160005b838110156139405781516001600160a01b03168752958201959082019060010161391b565b509495945050505050565b600081518084526020808501945080840160005b8381101561394057815115158752958201959082019060010161395f565b600082825180855260208086019550808260051b84010181860160005b848110156139c857601f198684030189526139b68383516139d5565b9884019892509083019060010161399a565b5090979650505050505050565b6000815180845260005b818110156139fb576020818501810151868301820152016139df565b81811115613a0d576000602083870101525b50601f01601f19169290920160200192915050565b8054600090600181811c9080831680613a3c57607f831692505b6020808410821415613a5e57634e487b7160e01b600052602260045260246000fd5b83885260208801828015613a795760018114613a8a57613ab5565b60ff19871682528282019750613ab5565b60008981526020902060005b87811015613aaf57815484820152908601908401613a96565b83019850505b5050505050505092915050565b6020815260006136966020830184613907565b60c081526000613ae860c0830189613907565b8281036020840152613afa8189613907565b90508281036040840152613b0e8188613907565b90508281036060840152613b22818761397d565b90508281036080840152613b36818661397d565b905082810360a0840152613b4a818561397d565b9998505050505050505050565b602081526000613696602083018461394b565b602081526000613696602083018461397d565b608081526000613b90608083018761397d565b8281036020840152613ba2818761397d565b90508281036040840152613bb6818661397d565b90508281036060840152613bca818561394b565b979650505050505050565b600060c0820188151583526020881515818501528715156040850152861515606085015260c0608085015281865180845260e086019150828801935060005b81811015613c3057845183529383019391830191600101613c14565b505084810360a0860152613c44818761397d565b9b9a5050505050505050505050565b606081526000613c6660608301866139d5565b8281036020840152613c7881866139d5565b90508281036040840152613c8c81856139d5565b9695505050505050565b604081526000613ca960408301856139d5565b90508260208301529392505050565b8281526040602082015260006137536040830184613a22565b848152608060208201526000613cea6080830186613a22565b8281036040840152613cfc8186613a22565b90508281036060840152613bca8185613a22565b60006101608d83528c60208401528b60408401528a60608401528960808401528860a084015260018060a01b03881660c08401528060e0840152613d56818401886139d5565b9050828103610100840152613d6b81876139d5565b9050828103610120840152613d8081866139d5565b9050828103610140840152613d9581856139d5565b9e9d5050505050505050505050505050565b60008219821115613dba57613dba613e6d565b500190565b600082613ddc57634e487b7160e01b600052601260045260246000fd5b500490565b6000816000190483118215151615613dfb57613dfb613e6d565b500290565b600082821015613e1257613e12613e6d565b500390565b600181811c90821680613e2b57607f821691505b60208210811415613e4c57634e487b7160e01b600052602260045260246000fd5b50919050565b6000600019821415613e6657613e66613e6d565b5060010190565b634e487b7160e01b600052601160045260246000fd5b634e487b7160e01b600052602160045260246000fd5b634e487b7160e01b600052603260045260246000fd5b634e487b7160e01b600052604160045260246000fdfea2646970667358221220b30163677fa082741a7e39224184c0d54c0466eb1cadd3914611ed547817285b64736f6c63430008070033",
  "immutableReferences": {},
  "source": "// SPDX-License-Identifier: MIT\npragma solidity ^0.8.0;\n\nimport \"./ContributorManager.sol\";\n\ncontract AdminsManager is ContributorManager {\n    event GroupCreated(string groupName, uint256 groupId);\n    event EventStarted(address indexed startedBy, uint256 groupId);\n    event RegistrationEnded(address indexed endedBy, uint256 groupId);\n    event EventEnded(address indexed endedBy, uint256 groupId);\n    event AdminAdded(uint256 groupId, address account, uint256 index);\n    event AdminRemoved(uint256 groupId, string name);\n    event AdminReEnabled(uint256 groupId, string name);\n\n    event CalculatedPot(\n        uint256 registeredRecipientCount,\n        uint256 winningsPerRecipient\n    );\n\n    constructor() {}\n\n    modifier onlyAdmins(uint256 groupId) {\n        require(isAdmin(msg.sender, groupId));\n        _;\n    }\n\n    modifier wasntAlreadyAnAdmin(uint256 groupId, address account) {\n        require(adminAddressToIndex[groupId][account] == 0);\n        _;\n    }\n\n    function isAdmin(address account, uint256 groupId)\n        public\n        view\n        returns (bool)\n    {\n        uint256 adminIndex = adminAddressToIndex[groupId][account];\n\n        // if user was never an admin, return false\n        if (adminIndex == 0) {\n            return false;\n        }\n\n        return adminEnabled[groupId][adminIndex] == true;\n    }\n\n    // function getMyAdminIndex(uint256 groupId) external view returns (uint256) {\n    //     return adminAddressToIndex[groupId][msg.sender];\n    // }\n\n    // TODO - allow COO to give \"admin-granting power\" to other admins\n    function addAdmin(\n        uint256 groupId,\n        address account,\n        string memory name\n    ) external wasntAlreadyAnAdmin(groupId, account) onlyCOO {\n        _addAdmin(groupId, account, name);\n    }\n\n    // debug\n    // function getAddressNextAdminIndex(uint256 groupId)\n    //     external\n    //     view\n    //     returns (uint256)\n    // {\n    //     return nextAdminIndexForGroup[groupId];\n    // }\n\n    function amIAdmin(uint256 groupId) external view returns (bool) {\n        return isAdmin(msg.sender, groupId);\n    }\n\n    // function getAdminsForGroup(uint256 groupId)\n    //     external\n    //     view\n    //     returns (\n    //         address[] memory,\n    //         bool[] memory,\n    //         string[] memory\n    //     )\n    // {\n    //     return (\n    //         adminAddresses[groupId],\n    //         adminEnabled[groupId],\n    //         adminNames[groupId]\n    //     );\n    // }\n\n    modifier onlyAdminsOrCOO(uint256 groupId) {\n        require(isAdmin(msg.sender, groupId) || msg.sender == cooAddress);\n        _;\n    }\n\n    function reEnableAdmin(uint256 groupId, address account) external onlyCOO {\n        uint256 index = adminAddressToIndex[groupId][account];\n        adminEnabled[groupId][index] = true;\n        emit AdminReEnabled(groupId, adminNames[groupId][index]);\n    }\n\n    function removeAdmin(uint256 groupId, address account) external onlyCOO {\n        _removeAdmin(groupId, account);\n    }\n\n    // function renounceAdmin(uint256 groupId) public onlyAdmins(groupId) {\n    //     _removeAdmin(groupId, msg.sender);\n    // }\n\n    function _addAdmin(\n        uint256 groupId,\n        address account,\n        string memory name\n    ) internal {\n        // if first user, use index 1 and push some garbage things at the 0 index\n        if (nextAdminIndexForGroup[groupId] == 0) {\n            nextAdminIndexForGroup[groupId]++;\n\n            adminAddresses[groupId].push(address(0));\n            adminEnabled[groupId].push(false);\n            adminNames[groupId].push(\"zero address\");\n        }\n\n        uint256 index = nextAdminIndexForGroup[groupId];\n        adminAddressToIndex[groupId][account] = index;\n\n        adminAddresses[groupId].push(account);\n        adminEnabled[groupId].push(true);\n        adminNames[groupId].push(name);\n\n        emit AdminAdded(groupId, account, index);\n\n        nextAdminIndexForGroup[groupId]++;\n    }\n\n    function _removeAdmin(uint256 groupId, address account) internal {\n        uint256 index = adminAddressToIndex[groupId][account];\n\n        adminEnabled[groupId][index] = false;\n\n        emit AdminRemoved(groupId, adminNames[groupId][index]);\n    }\n\n    // function readEventInfo(uint256 groupId)\n    //     external\n    //     view\n    //     onlyAdmins(groupId)\n    //     returns (EthDropEvent memory)\n    // {\n    //     return currentEvents[groupId];\n    // }\n\n    function createNewGroup(string memory groupName)\n        public\n        onlyCOO\n        whenNotPaused\n    {\n        // TODO - is this the best way to set the groupId? \n        uint256 newGroupId = block.timestamp;\n\n        EthDropEvent memory newGroup = EthDropEvent(\n            newGroupId,\n            0,\n            0,\n            0,\n            0,\n            0,\n            address(0),\n            // block.timestamp,\n            // block.timestamp,\n            // block.timestamp,\n            groupName,\n            EventState.CREATED,\n            \"\",\n            \"\",\n            \"\"\n        );\n\n        currentEvents[newGroupId] = newGroup;\n\n        listOfGroupIds.push(newGroupId);\n        listOfGroupNames.push(groupName);\n\n        emit GroupCreated(groupName, newGroupId);\n    }\n\n    function startEvent(uint256 groupId)\n        external\n        onlyAdmins(groupId)\n        whenNotPaused\n    {\n        currentEvents[groupId].currentState = EventState.REGISTRATION;\n        // currentEvents[groupId].startTime = block.timestamp;\n\n        emit EventStarted(msg.sender, groupId);\n    }\n\n    function closeEventRegistration(uint256 groupId)\n        external\n        onlyAdmins(groupId)\n        whenNotPaused\n    {\n        require(\n            currentEvents[groupId].numberOfUsersCurrentlyRegistered >= 1,\n            \"Can't end registration with zero registrants!\"\n        );\n\n        // currentEvents[groupId].registrationEndTime = block.timestamp;\n\n        uint256 devCutWei = (currentEvents[groupId].totalAmountContributed *\n            devCutPercentage) / 100;\n\n        // Transfer dev cut to cfo\n        payable(cfoAddress).transfer(devCutWei);\n\n        // pot is the amount for recipients to share\n        uint256 pot = currentEvents[groupId].totalAmountContributed - devCutWei;\n\n        // each recipient's winnings is the \"weiWinnings\"\n        currentEvents[groupId].weiWinnings =\n            pot /\n            currentEvents[groupId].numberOfUsersCurrentlyRegistered;\n\n        currentEvents[groupId].currentState = EventState.CLAIM_WINNINGS;\n\n        emit RegistrationEnded(msg.sender, groupId);\n    }\n\n    function endEvent(uint256 groupId)\n        external\n        onlyAdminsOrCOO(groupId)\n        whenNotPaused\n    {\n        // currentEvents[groupId].endTime = block.timestamp;\n\n        currentEvents[groupId].currentState = EventState.ENDED;\n\n        // First delete mappings, then arrays\n        for (\n            uint256 i = 0;\n            i < currentEvents[groupId].numberOfUsersCurrentlyRegistered;\n            i++\n        ) {\n            address currentAddress = registeredRecipientAddressesArray[groupId][\n                i\n            ];\n\n            delete registeredRecipients[groupId][currentAddress];\n            delete recipientAddressToName[groupId][currentAddress];\n            delete winningsCollected[groupId][currentAddress];\n        }\n\n        delete registeredRecipientNamesArray[groupId];\n        delete registeredRecipientAddressesArray[groupId];\n\n        pastEvents[groupId].push(currentEvents[groupId]);\n\n        currentEvents[groupId].numberOfUsersCurrentlyRegistered = 0;\n        currentEvents[groupId].totalAmountContributed = 0;\n        currentEvents[groupId].weiWinnings = 0;\n        currentEvents[groupId].numberOfUsersWhoClaimedWinnings = 0;\n\n        emit ContributionMade(msg.sender, groupId, 0);\n        emit RecipientRegistered(msg.sender, groupId);\n        emit EventEnded(msg.sender, groupId);\n    }\n\n    function addEligibleRecipient(\n        address account,\n        string memory name,\n        uint256 groupId\n    ) external whenNotPaused onlyAdmins(groupId) {\n        eligibleRecipients[groupId][account] = true;\n\n        eligibleRecipientAddressesArray[groupId].push(account);\n        eligibleRecipientNamesArray[groupId].push(name);\n\n        recipientAddressToName[groupId][account] = name;\n        eligibleRecipientsEligibilityIsEnabled[groupId].push(true);\n\n        emit EligibleRecipientAdded(account, groupId);\n    }\n\n    function removeEligibleRecipient(address account, uint256 groupId)\n        external\n        onlyAdmins(groupId)\n        whenNotPaused\n    {\n        eligibleRecipients[groupId][account] = false;\n        emit EligibleRecipientRemoved(account, groupId);\n    }\n\n    function changeContributor(address account, uint256 groupId)\n        external\n        onlyAdminsOrCOO(groupId)\n        whenNotPaused\n    {\n        _changeContributor(account, groupId);\n    }\n\n    function approveNewGroupSuggestion(uint256 index) external {\n        createNewGroup(suggestedGroupNames[index]);\n\n        suggestedGroupAlreadyCreated[index] = true;\n    }\n}\n",
  "sourcePath": "/Users/jim/v2-client-ethDrop/EthDrop/contracts/roles/AdminsManager.sol",
  "compiler": {
    "name": "solc",
    "version": "0.8.7+commit.e28d00a7.Emscripten.clang"
  },
  "schemaVersion": "3.4.1",
  "updatedAt": "2021-09-05T19:56:19.647Z",
  "devdoc": {
    "kind": "dev",
    "methods": {
      "pause()": {
        "details": "Called by any \"C-level\" role to pause the contract. Used only when  a bug or exploit is detected and we need to limit damage."
      },
      "setCEO(address)": {
        "details": "Assigns a new address to act as the CEO. Only available to the current CEO.",
        "params": {
          "_newCEO": "The address of the new CEO"
        }
      },
      "setCFO(address)": {
        "details": "Assigns a new address to act as the CFO. Only available to the current CEO.",
        "params": {
          "_newCFO": "The address of the new CFO"
        }
      },
      "setCOO(address)": {
        "details": "Assigns a new address to act as the COO. Only available to the current CEO.",
        "params": {
          "_newCOO": "The address of the new COO"
        }
      },
      "unpause()": {
        "details": "Unpauses the smart contract. Can only be called by the CEO, since  one reason we may pause the contract is when CFO or COO accounts are  compromised."
      }
    },
    "version": 1
  },
  "userdoc": {
    "kind": "user",
    "methods": {
      "unpause()": {
        "notice": "This is public rather than external so it can be called by  derived contracts."
      }
    },
    "version": 1
  }
}