{
  "contractName": "AdminsManager",
  "abi": [
    {
      "inputs": [],
      "stateMutability": "nonpayable",
      "type": "constructor"
    },
    {
      "anonymous": false,
      "inputs": [
        {
          "indexed": true,
          "internalType": "address",
          "name": "account",
          "type": "address"
        },
        {
          "indexed": false,
          "internalType": "uint256",
          "name": "groupId",
          "type": "uint256"
        }
      ],
      "name": "AdminAdded",
      "type": "event"
    },
    {
      "anonymous": false,
      "inputs": [
        {
          "indexed": true,
          "internalType": "address",
          "name": "account",
          "type": "address"
        },
        {
          "indexed": false,
          "internalType": "uint256",
          "name": "groupId",
          "type": "uint256"
        }
      ],
      "name": "AdminRemoved",
      "type": "event"
    },
    {
      "anonymous": false,
      "inputs": [
        {
          "indexed": false,
          "internalType": "uint256",
          "name": "registeredRecipientCount",
          "type": "uint256"
        },
        {
          "indexed": false,
          "internalType": "uint256",
          "name": "winningsPerRecipient",
          "type": "uint256"
        }
      ],
      "name": "CalculatedPot",
      "type": "event"
    },
    {
      "anonymous": false,
      "inputs": [
        {
          "indexed": false,
          "internalType": "address",
          "name": "newContract",
          "type": "address"
        }
      ],
      "name": "ContractUpgrade",
      "type": "event"
    },
    {
      "anonymous": false,
      "inputs": [
        {
          "indexed": true,
          "internalType": "address",
          "name": "account",
          "type": "address"
        },
        {
          "indexed": false,
          "internalType": "uint256",
          "name": "groupId",
          "type": "uint256"
        },
        {
          "indexed": false,
          "internalType": "uint256",
          "name": "amount",
          "type": "uint256"
        }
      ],
      "name": "ContributionMade",
      "type": "event"
    },
    {
      "anonymous": false,
      "inputs": [
        {
          "indexed": true,
          "internalType": "address",
          "name": "account",
          "type": "address"
        },
        {
          "indexed": false,
          "internalType": "uint256",
          "name": "groupId",
          "type": "uint256"
        }
      ],
      "name": "ContributorAdded",
      "type": "event"
    },
    {
      "anonymous": false,
      "inputs": [
        {
          "indexed": true,
          "internalType": "address",
          "name": "account",
          "type": "address"
        },
        {
          "indexed": false,
          "internalType": "uint256",
          "name": "groupId",
          "type": "uint256"
        }
      ],
      "name": "ContributorRemoved",
      "type": "event"
    },
    {
      "anonymous": false,
      "inputs": [
        {
          "indexed": true,
          "internalType": "address",
          "name": "account",
          "type": "address"
        },
        {
          "indexed": false,
          "internalType": "uint256",
          "name": "groupId",
          "type": "uint256"
        }
      ],
      "name": "EligibleRecipientAdded",
      "type": "event"
    },
    {
      "anonymous": false,
      "inputs": [
        {
          "indexed": true,
          "internalType": "address",
          "name": "account",
          "type": "address"
        },
        {
          "indexed": false,
          "internalType": "uint256",
          "name": "groupId",
          "type": "uint256"
        }
      ],
      "name": "EligibleRecipientRemoved",
      "type": "event"
    },
    {
      "anonymous": false,
      "inputs": [],
      "name": "EventClose",
      "type": "event"
    },
    {
      "anonymous": false,
      "inputs": [
        {
          "indexed": true,
          "internalType": "address",
          "name": "endedBy",
          "type": "address"
        },
        {
          "indexed": false,
          "internalType": "uint256",
          "name": "groupId",
          "type": "uint256"
        }
      ],
      "name": "EventEnded",
      "type": "event"
    },
    {
      "anonymous": false,
      "inputs": [
        {
          "indexed": true,
          "internalType": "address",
          "name": "startedBy",
          "type": "address"
        },
        {
          "indexed": false,
          "internalType": "uint256",
          "name": "groupId",
          "type": "uint256"
        }
      ],
      "name": "EventStarted",
      "type": "event"
    },
    {
      "anonymous": false,
      "inputs": [
        {
          "indexed": true,
          "internalType": "address",
          "name": "creator",
          "type": "address"
        },
        {
          "indexed": false,
          "internalType": "uint256",
          "name": "groupId",
          "type": "uint256"
        }
      ],
      "name": "GroupCreated",
      "type": "event"
    },
    {
      "anonymous": false,
      "inputs": [
        {
          "indexed": true,
          "internalType": "address",
          "name": "account",
          "type": "address"
        },
        {
          "indexed": false,
          "internalType": "uint256",
          "name": "groupId",
          "type": "uint256"
        }
      ],
      "name": "RecipientRegistered",
      "type": "event"
    },
    {
      "anonymous": false,
      "inputs": [
        {
          "indexed": true,
          "internalType": "address",
          "name": "endedBy",
          "type": "address"
        },
        {
          "indexed": false,
          "internalType": "uint256",
          "name": "groupId",
          "type": "uint256"
        }
      ],
      "name": "RegistrationEnded",
      "type": "event"
    },
    {
      "anonymous": false,
      "inputs": [],
      "name": "RegistrationOpen",
      "type": "event"
    },
    {
      "anonymous": false,
      "inputs": [
        {
          "indexed": false,
          "internalType": "address",
          "name": "from",
          "type": "address"
        },
        {
          "indexed": false,
          "internalType": "address",
          "name": "to",
          "type": "address"
        }
      ],
      "name": "Transfer",
      "type": "event"
    },
    {
      "anonymous": false,
      "inputs": [
        {
          "indexed": true,
          "internalType": "address",
          "name": "account",
          "type": "address"
        },
        {
          "indexed": false,
          "internalType": "uint256",
          "name": "groupId",
          "type": "uint256"
        }
      ],
      "name": "WinningsClaimed",
      "type": "event"
    },
    {
      "anonymous": false,
      "inputs": [],
      "name": "WinningsClaimingOpen",
      "type": "event"
    },
    {
      "inputs": [],
      "name": "ceoAddress",
      "outputs": [
        {
          "internalType": "address",
          "name": "",
          "type": "address"
        }
      ],
      "stateMutability": "view",
      "type": "function",
      "constant": true
    },
    {
      "inputs": [],
      "name": "cfoAddress",
      "outputs": [
        {
          "internalType": "address",
          "name": "",
          "type": "address"
        }
      ],
      "stateMutability": "view",
      "type": "function",
      "constant": true
    },
    {
      "inputs": [
        {
          "internalType": "uint256",
          "name": "groupId",
          "type": "uint256"
        }
      ],
      "name": "claimWinnings",
      "outputs": [],
      "stateMutability": "nonpayable",
      "type": "function"
    },
    {
      "inputs": [
        {
          "internalType": "uint256",
          "name": "groupId",
          "type": "uint256"
        }
      ],
      "name": "contributeToPot",
      "outputs": [],
      "stateMutability": "payable",
      "type": "function",
      "payable": true
    },
    {
      "inputs": [],
      "name": "cooAddress",
      "outputs": [
        {
          "internalType": "address",
          "name": "",
          "type": "address"
        }
      ],
      "stateMutability": "view",
      "type": "function",
      "constant": true
    },
    {
      "inputs": [],
      "name": "getCFO",
      "outputs": [
        {
          "internalType": "address",
          "name": "",
          "type": "address"
        }
      ],
      "stateMutability": "view",
      "type": "function",
      "constant": true
    },
    {
      "inputs": [],
      "name": "getCOO",
      "outputs": [
        {
          "internalType": "address",
          "name": "",
          "type": "address"
        }
      ],
      "stateMutability": "view",
      "type": "function",
      "constant": true
    },
    {
      "inputs": [],
      "name": "getGroupIds",
      "outputs": [
        {
          "internalType": "uint256[]",
          "name": "",
          "type": "uint256[]"
        }
      ],
      "stateMutability": "view",
      "type": "function",
      "constant": true
    },
    {
      "inputs": [],
      "name": "getGroupNames",
      "outputs": [
        {
          "internalType": "string[]",
          "name": "",
          "type": "string[]"
        }
      ],
      "stateMutability": "view",
      "type": "function",
      "constant": true
    },
    {
      "inputs": [],
      "name": "getString",
      "outputs": [
        {
          "internalType": "string",
          "name": "",
          "type": "string"
        }
      ],
      "stateMutability": "view",
      "type": "function",
      "constant": true
    },
    {
      "inputs": [],
      "name": "isCEO",
      "outputs": [
        {
          "internalType": "bool",
          "name": "",
          "type": "bool"
        }
      ],
      "stateMutability": "view",
      "type": "function",
      "constant": true
    },
    {
      "inputs": [],
      "name": "isCFO",
      "outputs": [
        {
          "internalType": "bool",
          "name": "",
          "type": "bool"
        }
      ],
      "stateMutability": "view",
      "type": "function",
      "constant": true
    },
    {
      "inputs": [],
      "name": "isCOO",
      "outputs": [
        {
          "internalType": "bool",
          "name": "",
          "type": "bool"
        }
      ],
      "stateMutability": "view",
      "type": "function",
      "constant": true
    },
    {
      "inputs": [
        {
          "internalType": "address",
          "name": "account",
          "type": "address"
        },
        {
          "internalType": "uint256",
          "name": "groupId",
          "type": "uint256"
        }
      ],
      "name": "isContributor",
      "outputs": [
        {
          "internalType": "bool",
          "name": "",
          "type": "bool"
        }
      ],
      "stateMutability": "view",
      "type": "function",
      "constant": true
    },
    {
      "inputs": [
        {
          "internalType": "address",
          "name": "account",
          "type": "address"
        },
        {
          "internalType": "uint256",
          "name": "groupId",
          "type": "uint256"
        }
      ],
      "name": "isEligibleRecipient",
      "outputs": [
        {
          "internalType": "bool",
          "name": "",
          "type": "bool"
        }
      ],
      "stateMutability": "view",
      "type": "function",
      "constant": true
    },
    {
      "inputs": [
        {
          "internalType": "address",
          "name": "account",
          "type": "address"
        },
        {
          "internalType": "uint256",
          "name": "groupId",
          "type": "uint256"
        }
      ],
      "name": "isRegisteredRecipient",
      "outputs": [
        {
          "internalType": "bool",
          "name": "",
          "type": "bool"
        }
      ],
      "stateMutability": "view",
      "type": "function",
      "constant": true
    },
    {
      "inputs": [],
      "name": "pause",
      "outputs": [],
      "stateMutability": "nonpayable",
      "type": "function"
    },
    {
      "inputs": [],
      "name": "paused",
      "outputs": [
        {
          "internalType": "bool",
          "name": "",
          "type": "bool"
        }
      ],
      "stateMutability": "view",
      "type": "function",
      "constant": true
    },
    {
      "inputs": [
        {
          "internalType": "uint256",
          "name": "groupId",
          "type": "uint256"
        }
      ],
      "name": "registerForEvent",
      "outputs": [],
      "stateMutability": "nonpayable",
      "type": "function"
    },
    {
      "inputs": [
        {
          "internalType": "uint256",
          "name": "groupId",
          "type": "uint256"
        }
      ],
      "name": "renounceContributor",
      "outputs": [],
      "stateMutability": "nonpayable",
      "type": "function"
    },
    {
      "inputs": [
        {
          "internalType": "address",
          "name": "_newCEO",
          "type": "address"
        }
      ],
      "name": "setCEO",
      "outputs": [],
      "stateMutability": "nonpayable",
      "type": "function"
    },
    {
      "inputs": [
        {
          "internalType": "address",
          "name": "_newCFO",
          "type": "address"
        }
      ],
      "name": "setCFO",
      "outputs": [],
      "stateMutability": "nonpayable",
      "type": "function"
    },
    {
      "inputs": [
        {
          "internalType": "address",
          "name": "_newCOO",
          "type": "address"
        }
      ],
      "name": "setCOO",
      "outputs": [],
      "stateMutability": "nonpayable",
      "type": "function"
    },
    {
      "inputs": [
        {
          "internalType": "string",
          "name": "_s",
          "type": "string"
        }
      ],
      "name": "setString",
      "outputs": [],
      "stateMutability": "nonpayable",
      "type": "function"
    },
    {
      "inputs": [],
      "name": "stringgg",
      "outputs": [
        {
          "internalType": "string",
          "name": "",
          "type": "string"
        }
      ],
      "stateMutability": "view",
      "type": "function",
      "constant": true
    },
    {
      "inputs": [],
      "name": "unpause",
      "outputs": [],
      "stateMutability": "nonpayable",
      "type": "function"
    },
    {
      "inputs": [],
      "name": "whoami",
      "outputs": [
        {
          "internalType": "address",
          "name": "",
          "type": "address"
        }
      ],
      "stateMutability": "view",
      "type": "function",
      "constant": true
    },
    {
      "inputs": [
        {
          "internalType": "address",
          "name": "account",
          "type": "address"
        },
        {
          "internalType": "uint256",
          "name": "groupId",
          "type": "uint256"
        }
      ],
      "name": "isAdmin",
      "outputs": [
        {
          "internalType": "bool",
          "name": "",
          "type": "bool"
        }
      ],
      "stateMutability": "view",
      "type": "function",
      "constant": true
    },
    {
      "inputs": [
        {
          "internalType": "address",
          "name": "account",
          "type": "address"
        },
        {
          "internalType": "uint256",
          "name": "groupId",
          "type": "uint256"
        }
      ],
      "name": "addAdmin",
      "outputs": [],
      "stateMutability": "nonpayable",
      "type": "function"
    },
    {
      "inputs": [
        {
          "internalType": "address",
          "name": "account",
          "type": "address"
        },
        {
          "internalType": "uint256",
          "name": "groupId",
          "type": "uint256"
        }
      ],
      "name": "removeAdmin",
      "outputs": [],
      "stateMutability": "nonpayable",
      "type": "function"
    },
    {
      "inputs": [
        {
          "internalType": "uint256",
          "name": "groupId",
          "type": "uint256"
        }
      ],
      "name": "renounceAdmin",
      "outputs": [],
      "stateMutability": "nonpayable",
      "type": "function"
    },
    {
      "inputs": [
        {
          "internalType": "uint256",
          "name": "groupId",
          "type": "uint256"
        }
      ],
      "name": "readEventInfo",
      "outputs": [
        {
          "components": [
            {
              "internalType": "uint256",
              "name": "groupId",
              "type": "uint256"
            },
            {
              "internalType": "string",
              "name": "groupName",
              "type": "string"
            },
            {
              "internalType": "enum EthDropBase.EventState",
              "name": "currentState",
              "type": "uint8"
            },
            {
              "internalType": "uint256",
              "name": "startTime",
              "type": "uint256"
            },
            {
              "internalType": "uint256",
              "name": "registrationEndTime",
              "type": "uint256"
            },
            {
              "internalType": "uint256",
              "name": "endTime",
              "type": "uint256"
            },
            {
              "internalType": "uint256",
              "name": "registeredRecipientsCount",
              "type": "uint256"
            },
            {
              "internalType": "string",
              "name": "sponsorName",
              "type": "string"
            },
            {
              "internalType": "string",
              "name": "sponsorImageUrl",
              "type": "string"
            },
            {
              "internalType": "string",
              "name": "sponsorLinkToUrl",
              "type": "string"
            },
            {
              "internalType": "address",
              "name": "currentContributor",
              "type": "address"
            }
          ],
          "internalType": "struct EthDropBase.EthDropEvent",
          "name": "",
          "type": "tuple"
        }
      ],
      "stateMutability": "view",
      "type": "function",
      "constant": true
    },
    {
      "inputs": [
        {
          "internalType": "string",
          "name": "groupName",
          "type": "string"
        }
      ],
      "name": "createNewGroup",
      "outputs": [],
      "stateMutability": "nonpayable",
      "type": "function"
    },
    {
      "inputs": [
        {
          "internalType": "uint256",
          "name": "groupId",
          "type": "uint256"
        }
      ],
      "name": "startEvent",
      "outputs": [],
      "stateMutability": "nonpayable",
      "type": "function"
    },
    {
      "inputs": [
        {
          "internalType": "uint256",
          "name": "groupId",
          "type": "uint256"
        }
      ],
      "name": "closeEventRegistration",
      "outputs": [],
      "stateMutability": "nonpayable",
      "type": "function"
    },
    {
      "inputs": [
        {
          "internalType": "uint256",
          "name": "groupId",
          "type": "uint256"
        }
      ],
      "name": "endEvent",
      "outputs": [],
      "stateMutability": "nonpayable",
      "type": "function"
    },
    {
      "inputs": [
        {
          "internalType": "address",
          "name": "account",
          "type": "address"
        },
        {
          "internalType": "uint256",
          "name": "groupId",
          "type": "uint256"
        }
      ],
      "name": "addEligibleRecipient",
      "outputs": [],
      "stateMutability": "nonpayable",
      "type": "function"
    },
    {
      "inputs": [
        {
          "internalType": "address",
          "name": "account",
          "type": "address"
        },
        {
          "internalType": "uint256",
          "name": "groupId",
          "type": "uint256"
        }
      ],
      "name": "removeEligibleRecipient",
      "outputs": [],
      "stateMutability": "nonpayable",
      "type": "function"
    },
    {
      "inputs": [
        {
          "internalType": "address",
          "name": "account",
          "type": "address"
        },
        {
          "internalType": "uint256",
          "name": "groupId",
          "type": "uint256"
        }
      ],
      "name": "addContributor",
      "outputs": [],
      "stateMutability": "nonpayable",
      "type": "function"
    },
    {
      "inputs": [
        {
          "internalType": "address",
          "name": "account",
          "type": "address"
        },
        {
          "internalType": "uint256",
          "name": "groupId",
          "type": "uint256"
        }
      ],
      "name": "removeContributor",
      "outputs": [],
      "stateMutability": "nonpayable",
      "type": "function"
    }
  ],
  "bytecode": "0x60806040526000600360146101000a81548160ff021916908315150217905550600560045534801561003057600080fd5b506153e3806100406000396000f3fe608060405260043610620002725760003560e01c80638456cb59116200014b578063d5f016c311620000bb578063e62092be1162000079578063e62092be1462000909578063e82f24e0146200094d578063ea303f08146200096d578063f4a02e70146200099b578063fc5fd6e414620009cb5762000272565b8063d5f016c31462000809578063e0bd7d151462000839578063e320d5e71462000867578063e33db4261462000895578063e513b7a914620008d95762000272565b8063b047fb501162000109578063b047fb50146200071b578063b3b36bb3146200074b578063c02b8b2c146200077b578063c6db509414620007ab578063c6e0ddfa14620007db5762000272565b80638456cb59146200064557806389ea642f146200065f5780639393ae37146200068f578063a59a695314620006bf578063ab4e194514620006ed5762000272565b80634f1ef03c11620001e75780637b936ac211620001a55780637b936ac214620005315780637d837ce514620005615780637fcaf66614620005a55780637fcb29c914620005d35780638182aaf214620006015762000272565b80634f1ef03c14620004335780635c975abb14620004615780635e82c1fc1462000491578063677bd9ff14620004d5578063785142be14620005035762000272565b806330bb0115116200023557806330bb01151462000361578063330a347b146200038f5780633f4ba83a14620003bd578063406db84314620003d75780634e0a337914620004055762000272565b80630519ce7914620002775780630a0f816814620002a757806315891ff414620002d757806327d7874c14620003055780632ba73c151462000333575b600080fd5b3480156200028457600080fd5b506200028f620009fb565b6040516200029e919062003516565b60405180910390f35b348015620002b457600080fd5b50620002bf62000a21565b604051620002ce919062003516565b60405180910390f35b348015620002e457600080fd5b50620003036004803603810190620002fd91906200305f565b62000a47565b005b3480156200031257600080fd5b506200033160048036038101906200032b91906200302d565b62000b37565b005b3480156200034057600080fd5b506200035f60048036038101906200035991906200302d565b62000c11565b005b3480156200036e57600080fd5b506200038d6004803603810190620003879190620030f7565b62000ceb565b005b3480156200039c57600080fd5b50620003bb6004803603810190620003b59190620030f7565b62000d12565b005b348015620003ca57600080fd5b50620003d562001008565b005b348015620003e457600080fd5b50620004036004803603810190620003fd9190620030f7565b6200109a565b005b3480156200041257600080fd5b506200043160048036038101906200042b91906200302d565b6200122b565b005b3480156200044057600080fd5b506200045f6004803603810190620004599190620030f7565b620012ca565b005b3480156200046e57600080fd5b50620004796200130c565b604051620004889190620035d3565b60405180910390f35b3480156200049e57600080fd5b50620004bd6004803603810190620004b791906200305f565b6200131f565b604051620004cc9190620035d3565b60405180910390f35b348015620004e257600080fd5b50620005016004803603810190620004fb9190620030f7565b620013a9565b005b3480156200051057600080fd5b506200052f6004803603810190620005299190620030f7565b620014d1565b005b3480156200053e57600080fd5b5062000549620018b6565b60405162000558919062003516565b60405180910390f35b3480156200056e57600080fd5b506200058d60048036038101906200058791906200305f565b620018e0565b6040516200059c9190620035d3565b60405180910390f35b348015620005b257600080fd5b50620005d16004803603810190620005cb9190620030a6565b6200196a565b005b348015620005e057600080fd5b50620005ff6004803603810190620005f991906200305f565b62001986565b005b3480156200060e57600080fd5b506200062d60048036038101906200062791906200305f565b620019f1565b6040516200063c9190620035d3565b60405180910390f35b3480156200065257600080fd5b506200065d62001a7b565b005b3480156200066c57600080fd5b506200067762001bc0565b604051620006869190620035f0565b60405180910390f35b3480156200069c57600080fd5b50620006a762001c5a565b604051620006b69190620035d3565b60405180910390f35b348015620006cc57600080fd5b50620006eb6004803603810190620006e59190620030f7565b62001cb2565b005b348015620006fa57600080fd5b506200071960048036038101906200071391906200305f565b62001d95565b005b3480156200072857600080fd5b506200073362001e85565b60405162000742919062003516565b60405180910390f35b3480156200075857600080fd5b506200076362001eab565b60405162000772919062003516565b60405180910390f35b3480156200078857600080fd5b506200079362001eb3565b604051620007a29190620035af565b60405180910390f35b348015620007b857600080fd5b50620007c362001f0d565b604051620007d29190620035f0565b60405180910390f35b348015620007e857600080fd5b506200080760048036038101906200080191906200305f565b62001fa3565b005b3480156200081657600080fd5b50620008216200200e565b6040516200083091906200358b565b60405180910390f35b3480156200084657600080fd5b506200086560048036038101906200085f91906200305f565b620020f1565b005b3480156200087457600080fd5b506200089360048036038101906200088d91906200305f565b6200218d565b005b348015620008a257600080fd5b50620008c16004803603810190620008bb9190620030f7565b62002229565b604051620008d0919062003614565b60405180910390f35b348015620008e657600080fd5b50620008f1620025a2565b604051620009009190620035d3565b60405180910390f35b3480156200091657600080fd5b506200093560048036038101906200092f91906200305f565b620025fa565b604051620009449190620035d3565b60405180910390f35b6200096b6004803603810190620009659190620030f7565b62002669565b005b3480156200097a57600080fd5b50620009996004803603810190620009939190620030a6565b620026f1565b005b348015620009a857600080fd5b50620009b362002a19565b604051620009c29190620035d3565b60405180910390f35b348015620009d857600080fd5b50620009e362002a71565b604051620009f2919062003516565b60405180910390f35b600260009054906101000a900473ffffffffffffffffffffffffffffffffffffffff1681565b600160009054906101000a900473ffffffffffffffffffffffffffffffffffffffff1681565b8062000a543382620025fa565b62000a5e57600080fd5b600360149054906101000a900460ff161562000a7957600080fd5b6000600b600084815260200190815260200160002060008573ffffffffffffffffffffffffffffffffffffffff1673ffffffffffffffffffffffffffffffffffffffff16815260200190815260200160002060006101000a81548160ff0219169083151502179055508273ffffffffffffffffffffffffffffffffffffffff167f1af6d16168d33745872119540d28858eed156c5f265206bbf1344fda39a93a338360405162000b2a919062003638565b60405180910390a2505050565b600160009054906101000a900473ffffffffffffffffffffffffffffffffffffffff1673ffffffffffffffffffffffffffffffffffffffff163373ffffffffffffffffffffffffffffffffffffffff161462000b9257600080fd5b600073ffffffffffffffffffffffffffffffffffffffff168173ffffffffffffffffffffffffffffffffffffffff16141562000bcd57600080fd5b80600160006101000a81548173ffffffffffffffffffffffffffffffffffffffff021916908373ffffffffffffffffffffffffffffffffffffffff16021790555050565b600160009054906101000a900473ffffffffffffffffffffffffffffffffffffffff1673ffffffffffffffffffffffffffffffffffffffff163373ffffffffffffffffffffffffffffffffffffffff161462000c6c57600080fd5b600073ffffffffffffffffffffffffffffffffffffffff168173ffffffffffffffffffffffffffffffffffffffff16141562000ca757600080fd5b80600360006101000a81548173ffffffffffffffffffffffffffffffffffffffff021916908373ffffffffffffffffffffffffffffffffffffffff16021790555050565b8062000cf83382620025fa565b62000d0257600080fd5b62000d0e338362002a9b565b5050565b8062000d1f3382620025fa565b8062000d785750600360009054906101000a900473ffffffffffffffffffffffffffffffffffffffff1673ffffffffffffffffffffffffffffffffffffffff163373ffffffffffffffffffffffffffffffffffffffff16145b62000d8257600080fd5b600360149054906101000a900460ff161562000d9d57600080fd5b42600760008481526020019081526020016000206005018190555060036007600084815260200190815260200160002060020160006101000a81548160ff0219169083600381111562000df55762000df462003a79565b5b0217905550600860008381526020019081526020016000206007600084815260200190815260200160002090806001815401808255809150506001900390600052602060002090600b020160009091909190915060008201548160000155600182018160010190805462000e699062003943565b62000e7692919062002d8f565b506002820160009054906101000a900460ff168160020160006101000a81548160ff0219169083600381111562000eb25762000eb162003a79565b5b021790555060038201548160030155600482015481600401556005820154816005015560068201548160060155600782018160070190805462000ef59062003943565b62000f0292919062002d8f565b50600882018160080190805462000f199062003943565b62000f2692919062002d8f565b50600982018160090190805462000f3d9062003943565b62000f4a92919062002d8f565b50600a820160009054906101000a900473ffffffffffffffffffffffffffffffffffffffff1681600a0160006101000a81548173ffffffffffffffffffffffffffffffffffffffff021916908373ffffffffffffffffffffffffffffffffffffffff16021790555050503373ffffffffffffffffffffffffffffffffffffffff167f6f45a19e8850c727d0de9f32e0d8691324a9a74ffb4347652e6404138b1d81658360405162000ffc919062003638565b60405180910390a25050565b600160009054906101000a900473ffffffffffffffffffffffffffffffffffffffff1673ffffffffffffffffffffffffffffffffffffffff163373ffffffffffffffffffffffffffffffffffffffff16146200106357600080fd5b600360149054906101000a900460ff166200107d57600080fd5b6000600360146101000a81548160ff021916908315150217905550565b80620010a733826200131f565b620010b157600080fd5b600360149054906101000a900460ff1615620010cc57600080fd5b6001600c600084815260200190815260200160002060003373ffffffffffffffffffffffffffffffffffffffff1673ffffffffffffffffffffffffffffffffffffffff16815260200190815260200160002060006101000a81548160ff021916908315150217905550600d6000838152602001908152602001600020339080600181540180825580915050600190039060005260206000200160009091909190916101000a81548173ffffffffffffffffffffffffffffffffffffffff021916908373ffffffffffffffffffffffffffffffffffffffff160217905550600760008381526020019081526020016000206006016000815480929190620011d290620039cd565b91905055503373ffffffffffffffffffffffffffffffffffffffff167f0695e999be8100bdb5bee8612337296508d527eae78c65b8f170eacb5a3b439d836040516200121f919062003638565b60405180910390a25050565b600160009054906101000a900473ffffffffffffffffffffffffffffffffffffffff1673ffffffffffffffffffffffffffffffffffffffff163373ffffffffffffffffffffffffffffffffffffffff16146200128657600080fd5b80600260006101000a81548173ffffffffffffffffffffffffffffffffffffffff021916908373ffffffffffffffffffffffffffffffffffffffff16021790555050565b80620012d73382620019f1565b620012e157600080fd5b600360149054906101000a900460ff1615620012fc57600080fd5b62001308338362002b58565b5050565b600360149054906101000a900460ff1681565b6000600360149054906101000a900460ff16156200133c57600080fd5b60011515600b600084815260200190815260200160002060008573ffffffffffffffffffffffffffffffffffffffff1673ffffffffffffffffffffffffffffffffffffffff16815260200190815260200160002060009054906101000a900460ff16151514905092915050565b80620013b63382620018e0565b620013c057600080fd5b600360149054906101000a900460ff1615620013db57600080fd5b600e600083815260200190815260200160002060009054906101000a900473ffffffffffffffffffffffffffffffffffffffff1673ffffffffffffffffffffffffffffffffffffffff166319165587336040518263ffffffff1660e01b815260040162001449919062003533565b600060405180830381600087803b1580156200146457600080fd5b505af115801562001479573d6000803e3d6000fd5b505050503373ffffffffffffffffffffffffffffffffffffffff167f1a31e733a172afcf46074b3106c17f0c298e226442682a03c1e99ce256139ec283604051620014c5919062003638565b60405180910390a25050565b80620014de3382620025fa565b620014e857600080fd5b600360149054906101000a900460ff16156200150357600080fd5b426007600084815260200190815260200160002060040181905550600260009054906101000a900473ffffffffffffffffffffffffffffffffffffffff1673ffffffffffffffffffffffffffffffffffffffff166108fc6064600454476200156c9190620037f6565b620015789190620037be565b9081150290604051600060405180830381858888f19350505050158015620015a4573d6000803e3d6000fd5b506000600760008481526020019081526020016000206006015467ffffffffffffffff811115620015da57620015d962003b06565b5b604051908082528060200260200182016040528015620016095781602001602082028036833780820191505090505b50905060005b60076000858152602001908152602001600020600601548110156200166857600182828151811062001646576200164562003ad7565b5b60200260200101818152505080806200165f90620039cd565b9150506200160f565b50600d6000848152602001908152602001600020816040516200168b9062002e27565b6200169892919062003550565b604051809103906000f080158015620016b5573d6000803e3d6000fd5b50600e600085815260200190815260200160002060006101000a81548173ffffffffffffffffffffffffffffffffffffffff021916908373ffffffffffffffffffffffffffffffffffffffff16021790555060026007600085815260200190815260200160002060020160006101000a81548160ff0219169083600381111562001744576200174362003a79565b5b02179055506000600e600085815260200190815260200160002060009054906101000a900473ffffffffffffffffffffffffffffffffffffffff1673ffffffffffffffffffffffffffffffffffffffff16633a98ef396040518163ffffffff1660e01b815260040160206040518083038186803b158015620017c557600080fd5b505afa158015620017da573d6000803e3d6000fd5b505050506040513d601f19601f8201168201806040525081019062001800919062003129565b476200180d9190620037be565b90507f80bb271e4cd4fd0e4cc21617a1a4cfe46af15e974bb329a92e7c15a69665158c6007600086815260200190815260200160002060060154826040516200185892919062003655565b60405180910390a13373ffffffffffffffffffffffffffffffffffffffff167fef898a6941c945450e9bbdad4a76fcd0f51f42f7e251fddcb1e5479ba786d5e485604051620018a8919062003638565b60405180910390a250505050565b6000600260009054906101000a900473ffffffffffffffffffffffffffffffffffffffff16905090565b6000600360149054906101000a900460ff1615620018fd57600080fd5b60011515600c600084815260200190815260200160002060008573ffffffffffffffffffffffffffffffffffffffff1673ffffffffffffffffffffffffffffffffffffffff16815260200190815260200160002060009054906101000a900460ff16151514905092915050565b80600090805190602001906200198292919062002e35565b5050565b600360009054906101000a900473ffffffffffffffffffffffffffffffffffffffff1673ffffffffffffffffffffffffffffffffffffffff163373ffffffffffffffffffffffffffffffffffffffff1614620019e157600080fd5b620019ed828262002c15565b5050565b6000600360149054906101000a900460ff161562001a0e57600080fd5b60011515600a600084815260200190815260200160002060008573ffffffffffffffffffffffffffffffffffffffff1673ffffffffffffffffffffffffffffffffffffffff16815260200190815260200160002060009054906101000a900460ff16151514905092915050565b600360009054906101000a900473ffffffffffffffffffffffffffffffffffffffff1673ffffffffffffffffffffffffffffffffffffffff163373ffffffffffffffffffffffffffffffffffffffff16148062001b255750600160009054906101000a900473ffffffffffffffffffffffffffffffffffffffff1673ffffffffffffffffffffffffffffffffffffffff163373ffffffffffffffffffffffffffffffffffffffff16145b8062001b7e5750600260009054906101000a900473ffffffffffffffffffffffffffffffffffffffff1673ffffffffffffffffffffffffffffffffffffffff163373ffffffffffffffffffffffffffffffffffffffff16145b62001b8857600080fd5b600360149054906101000a900460ff161562001ba357600080fd5b6001600360146101000a81548160ff021916908315150217905550565b60606000805462001bd19062003943565b80601f016020809104026020016040519081016040528092919081815260200182805462001bff9062003943565b801562001c505780601f1062001c245761010080835404028352916020019162001c50565b820191906000526020600020905b81548152906001019060200180831162001c3257829003601f168201915b5050505050905090565b6000600260009054906101000a900473ffffffffffffffffffffffffffffffffffffffff1673ffffffffffffffffffffffffffffffffffffffff163373ffffffffffffffffffffffffffffffffffffffff1614905090565b8062001cbf3382620025fa565b62001cc957600080fd5b600360149054906101000a900460ff161562001ce457600080fd5b60016007600084815260200190815260200160002060020160006101000a81548160ff0219169083600381111562001d215762001d2062003a79565b5b02179055504260076000848152602001908152602001600020600301819055503373ffffffffffffffffffffffffffffffffffffffff167ff77c6f27499b698205f54058c2914a340e1300c2bc0d9a819e7aebfbaabbbb938360405162001d89919062003638565b60405180910390a25050565b600360149054906101000a900460ff161562001db057600080fd5b8062001dbd3382620025fa565b62001dc757600080fd5b6001600b600084815260200190815260200160002060008573ffffffffffffffffffffffffffffffffffffffff1673ffffffffffffffffffffffffffffffffffffffff16815260200190815260200160002060006101000a81548160ff0219169083151502179055508273ffffffffffffffffffffffffffffffffffffffff167f46b8357d30dedd734a71d059a385f46b6e667bff20233f907477760207f889658360405162001e78919062003638565b60405180910390a2505050565b600360009054906101000a900473ffffffffffffffffffffffffffffffffffffffff1681565b600033905090565b6060600580548060200260200160405190810160405280929190818152602001828054801562001f0357602002820191906000526020600020905b81548152602001906001019080831162001eee575b5050505050905090565b6000805462001f1c9062003943565b80601f016020809104026020016040519081016040528092919081815260200182805462001f4a9062003943565b801562001f9b5780601f1062001f6f5761010080835404028352916020019162001f9b565b820191906000526020600020905b81548152906001019060200180831162001f7d57829003601f168201915b505050505081565b600360009054906101000a900473ffffffffffffffffffffffffffffffffffffffff1673ffffffffffffffffffffffffffffffffffffffff163373ffffffffffffffffffffffffffffffffffffffff161462001ffe57600080fd5b6200200a828262002a9b565b5050565b60606006805480602002602001604051908101604052809291908181526020016000905b82821015620020e8578382906000526020600020018054620020549062003943565b80601f0160208091040260200160405190810160405280929190818152602001828054620020829062003943565b8015620020d35780601f10620020a757610100808354040283529160200191620020d3565b820191906000526020600020905b815481529060010190602001808311620020b557829003601f168201915b50505050508152602001906001019062002032565b50505050905090565b80620020fe3382620025fa565b80620021575750600360009054906101000a900473ffffffffffffffffffffffffffffffffffffffff1673ffffffffffffffffffffffffffffffffffffffff163373ffffffffffffffffffffffffffffffffffffffff16145b6200216157600080fd5b600360149054906101000a900460ff16156200217c57600080fd5b62002188838362002cd2565b505050565b806200219a3382620025fa565b80620021f35750600360009054906101000a900473ffffffffffffffffffffffffffffffffffffffff1673ffffffffffffffffffffffffffffffffffffffff163373ffffffffffffffffffffffffffffffffffffffff16145b620021fd57600080fd5b600360149054906101000a900460ff16156200221857600080fd5b62002224838362002b58565b505050565b6200223362002ec6565b81620022403382620025fa565b6200224a57600080fd5b600760008481526020019081526020016000206040518061016001604052908160008201548152602001600182018054620022859062003943565b80601f0160208091040260200160405190810160405280929190818152602001828054620022b39062003943565b8015620023045780601f10620022d85761010080835404028352916020019162002304565b820191906000526020600020905b815481529060010190602001808311620022e657829003601f168201915b505050505081526020016002820160009054906101000a900460ff16600381111562002335576200233462003a79565b5b60038111156200234a576200234962003a79565b5b815260200160038201548152602001600482015481526020016005820154815260200160068201548152602001600782018054620023889062003943565b80601f0160208091040260200160405190810160405280929190818152602001828054620023b69062003943565b8015620024075780601f10620023db5761010080835404028352916020019162002407565b820191906000526020600020905b815481529060010190602001808311620023e957829003601f168201915b50505050508152602001600882018054620024229062003943565b80601f0160208091040260200160405190810160405280929190818152602001828054620024509062003943565b8015620024a15780601f106200247557610100808354040283529160200191620024a1565b820191906000526020600020905b8154815290600101906020018083116200248357829003601f168201915b50505050508152602001600982018054620024bc9062003943565b80601f0160208091040260200160405190810160405280929190818152602001828054620024ea9062003943565b80156200253b5780601f106200250f576101008083540402835291602001916200253b565b820191906000526020600020905b8154815290600101906020018083116200251d57829003601f168201915b50505050508152602001600a820160009054906101000a900473ffffffffffffffffffffffffffffffffffffffff1673ffffffffffffffffffffffffffffffffffffffff1673ffffffffffffffffffffffffffffffffffffffff1681525050915050919050565b6000600160009054906101000a900473ffffffffffffffffffffffffffffffffffffffff1673ffffffffffffffffffffffffffffffffffffffff163373ffffffffffffffffffffffffffffffffffffffff1614905090565b6000600115156009600084815260200190815260200160002060008573ffffffffffffffffffffffffffffffffffffffff1673ffffffffffffffffffffffffffffffffffffffff16815260200190815260200160002060009054906101000a900460ff16151514905092915050565b80620026763382620019f1565b6200268057600080fd5b600360149054906101000a900460ff16156200269b57600080fd5b3373ffffffffffffffffffffffffffffffffffffffff167f5dc1fe5ab986a852c4eda8e8bb94247d13307065c593fb83f1a09be2736793828334604051620026e592919062003655565b60405180910390a25050565b600360009054906101000a900473ffffffffffffffffffffffffffffffffffffffff1673ffffffffffffffffffffffffffffffffffffffff163373ffffffffffffffffffffffffffffffffffffffff16146200274c57600080fd5b600360149054906101000a900460ff16156200276757600080fd5b6000434060001c9050600060405180610160016040528083815260200184815260200160006003811115620027a157620027a062003a79565b5b815260200142815260200142815260200142815260200160008152602001604051806020016040528060008152508152602001604051806020016040528060008152508152602001604051806020016040528060008152508152602001600073ffffffffffffffffffffffffffffffffffffffff16815250905080600760008481526020019081526020016000206000820151816000015560208201518160010190805190602001906200285792919062002e35565b5060408201518160020160006101000a81548160ff0219169083600381111562002886576200288562003a79565b5b0217905550606082015181600301556080820151816004015560a0820151816005015560c0820151816006015560e0820151816007019080519060200190620028d192919062002e35565b50610100820151816008019080519060200190620028f192919062002e35565b506101208201518160090190805190602001906200291192919062002e35565b5061014082015181600a0160006101000a81548173ffffffffffffffffffffffffffffffffffffffff021916908373ffffffffffffffffffffffffffffffffffffffff1602179055509050506005829080600181540180825580915050600190039060005260206000200160009091909190915055600683908060018154018082558091505060019003906000526020600020016000909190919091509080519060200190620029c392919062002e35565b503373ffffffffffffffffffffffffffffffffffffffff167f3482e3d6d38a18835a6ad59afad8098300ce9f907925e4be71126d7b43dc803d8360405162002a0c919062003638565b60405180910390a2505050565b6000600360009054906101000a900473ffffffffffffffffffffffffffffffffffffffff1673ffffffffffffffffffffffffffffffffffffffff163373ffffffffffffffffffffffffffffffffffffffff1614905090565b6000600360009054906101000a900473ffffffffffffffffffffffffffffffffffffffff16905090565b60006009600083815260200190815260200160002060008473ffffffffffffffffffffffffffffffffffffffff1673ffffffffffffffffffffffffffffffffffffffff16815260200190815260200160002060006101000a81548160ff0219169083151502179055508173ffffffffffffffffffffffffffffffffffffffff167fa0726c73cf6ad18ddb855ba65d1ddd4d7fd37d320f4e52f6b154c13d386f5fd98260405162002b4c919062003638565b60405180910390a25050565b6000600a600083815260200190815260200160002060008473ffffffffffffffffffffffffffffffffffffffff1673ffffffffffffffffffffffffffffffffffffffff16815260200190815260200160002060006101000a81548160ff0219169083151502179055508173ffffffffffffffffffffffffffffffffffffffff167fda111d7eb5d5b2033c4ffad00cd7cd42f45af2813bee1a69e65f26d90ea15f0b8260405162002c09919062003638565b60405180910390a25050565b60016009600083815260200190815260200160002060008473ffffffffffffffffffffffffffffffffffffffff1673ffffffffffffffffffffffffffffffffffffffff16815260200190815260200160002060006101000a81548160ff0219169083151502179055508173ffffffffffffffffffffffffffffffffffffffff167f723c2b747529ca7f5eb53a74808f4a8b9bf264f0fc450fd904900151da74548a8260405162002cc6919062003638565b60405180910390a25050565b6001600a600083815260200190815260200160002060008473ffffffffffffffffffffffffffffffffffffffff1673ffffffffffffffffffffffffffffffffffffffff16815260200190815260200160002060006101000a81548160ff0219169083151502179055508173ffffffffffffffffffffffffffffffffffffffff167f5fd6d0b7e707fe344bd2a1887f9d0eeea8bfcac6f339ba4200e74f0647f101c08260405162002d83919062003638565b60405180910390a25050565b82805462002d9d9062003943565b90600052602060002090601f01602090048101928262002dc1576000855562002e14565b82601f1062002dd4578054855562002e14565b8280016001018555821562002e1457600052602060002091601f016020900482015b8281111562002e1357825482559160010191906001019062002df6565b5b50905062002e23919062002f4b565b5090565b6117e68062003bc883390190565b82805462002e439062003943565b90600052602060002090601f01602090048101928262002e67576000855562002eb3565b82601f1062002e8257805160ff191683800117855562002eb3565b8280016001018555821562002eb3579182015b8281111562002eb257825182559160200191906001019062002e95565b5b50905062002ec2919062002f4b565b5090565b60405180610160016040528060008152602001606081526020016000600381111562002ef75762002ef662003a79565b5b815260200160008152602001600081526020016000815260200160008152602001606081526020016060815260200160608152602001600073ffffffffffffffffffffffffffffffffffffffff1681525090565b5b8082111562002f6657600081600090555060010162002f4c565b5090565b600062002f8162002f7b84620036ab565b62003682565b90508281526020810184848401111562002fa05762002f9f62003b4f565b5b62002fad848285620038fe565b509392505050565b60008135905062002fc68162003b93565b92915050565b600082601f83011262002fe45762002fe362003b4a565b5b813562002ff684826020860162002f6a565b91505092915050565b600081359050620030108162003bad565b92915050565b600081519050620030278162003bad565b92915050565b60006020828403121562003046576200304562003b59565b5b6000620030568482850162002fb5565b91505092915050565b6000806040838503121562003079576200307862003b59565b5b6000620030898582860162002fb5565b92505060206200309c8582860162002fff565b9150509250929050565b600060208284031215620030bf57620030be62003b59565b5b600082013567ffffffffffffffff811115620030e057620030df62003b54565b5b620030ee8482850162002fcc565b91505092915050565b60006020828403121562003110576200310f62003b59565b5b6000620031208482850162002fff565b91505092915050565b60006020828403121562003142576200314162003b59565b5b6000620031528482850162003016565b91505092915050565b6000620031698383620031b6565b60208301905092915050565b600062003183838362003358565b905092915050565b6000620031998383620034f4565b60208301905092915050565b620031b0816200388b565b82525050565b620031c18162003877565b82525050565b620031d28162003877565b82525050565b6000620031e58262003716565b620031f1818562003769565b9350620031fe83620036e1565b8060005b838110156200323e57620032168262003b35565b6200322288826200315b565b97506200322f8362003742565b92505060018101905062003202565b5085935050505092915050565b6000620032588262003721565b6200326481856200377a565b9350836020820285016200327885620036f6565b8060005b85811015620032ba578484038952815162003298858262003175565b9450620032a5836200374f565b925060208a019950506001810190506200327c565b50829750879550505050505092915050565b6000620032d9826200372c565b620032e581856200378b565b9350620032f28362003706565b8060005b83811015620033295781516200330d88826200318b565b97506200331a836200375c565b925050600181019050620032f6565b5085935050505092915050565b62003341816200389f565b82525050565b6200335281620038ea565b82525050565b6000620033658262003737565b6200337181856200379c565b9350620033838185602086016200390d565b6200338e8162003b5e565b840191505092915050565b6000620033a68262003737565b620033b28185620037ad565b9350620033c48185602086016200390d565b620033cf8162003b5e565b840191505092915050565b600061016083016000830151620033f56000860182620034f4565b50602083015184820360208601526200340f828262003358565b915050604083015162003426604086018262003347565b5060608301516200343b6060860182620034f4565b506080830151620034506080860182620034f4565b5060a08301516200346560a0860182620034f4565b5060c08301516200347a60c0860182620034f4565b5060e083015184820360e086015262003494828262003358565b915050610100830151848203610100860152620034b2828262003358565b915050610120830151848203610120860152620034d0828262003358565b915050610140830151620034e9610140860182620031b6565b508091505092915050565b620034ff81620038e0565b82525050565b6200351081620038e0565b82525050565b60006020820190506200352d6000830184620031c7565b92915050565b60006020820190506200354a6000830184620031a5565b92915050565b600060408201905081810360008301526200356c8185620031d8565b90508181036020830152620035828184620032cc565b90509392505050565b60006020820190508181036000830152620035a781846200324b565b905092915050565b60006020820190508181036000830152620035cb8184620032cc565b905092915050565b6000602082019050620035ea600083018462003336565b92915050565b600060208201905081810360008301526200360c818462003399565b905092915050565b60006020820190508181036000830152620036308184620033da565b905092915050565b60006020820190506200364f600083018462003505565b92915050565b60006040820190506200366c600083018562003505565b6200367b602083018462003505565b9392505050565b60006200368e620036a1565b90506200369c828262003997565b919050565b6000604051905090565b600067ffffffffffffffff821115620036c957620036c862003b06565b5b620036d48262003b5e565b9050602081019050919050565b60008190508160005260206000209050919050565b6000819050602082019050919050565b6000819050602082019050919050565b600081549050919050565b600081519050919050565b600081519050919050565b600081519050919050565b6000600182019050919050565b6000602082019050919050565b6000602082019050919050565b600082825260208201905092915050565b600082825260208201905092915050565b600082825260208201905092915050565b600082825260208201905092915050565b600082825260208201905092915050565b6000620037cb82620038e0565b9150620037d883620038e0565b925082620037eb57620037ea62003a4a565b5b828204905092915050565b60006200380382620038e0565b91506200381083620038e0565b9250817fffffffffffffffffffffffffffffffffffffffffffffffffffffffffffffffff04831182151516156200384c576200384b62003a1b565b5b828202905092915050565b600073ffffffffffffffffffffffffffffffffffffffff82169050919050565b60006200388482620038c0565b9050919050565b60006200389882620038c0565b9050919050565b60008115159050919050565b6000819050620038bb8262003b7c565b919050565b600073ffffffffffffffffffffffffffffffffffffffff82169050919050565b6000819050919050565b6000620038f782620038ab565b9050919050565b82818337600083830152505050565b60005b838110156200392d57808201518184015260208101905062003910565b838111156200393d576000848401525b50505050565b600060028204905060018216806200395c57607f821691505b6020821081141562003973576200397262003aa8565b5b50919050565b6000620039906200398a8362003b6f565b62003857565b9050919050565b620039a28262003b5e565b810181811067ffffffffffffffff82111715620039c457620039c362003b06565b5b80604052505050565b6000620039da82620038e0565b91507fffffffffffffffffffffffffffffffffffffffffffffffffffffffffffffffff82141562003a105762003a0f62003a1b565b5b600182019050919050565b7f4e487b7100000000000000000000000000000000000000000000000000000000600052601160045260246000fd5b7f4e487b7100000000000000000000000000000000000000000000000000000000600052601260045260246000fd5b7f4e487b7100000000000000000000000000000000000000000000000000000000600052602160045260246000fd5b7f4e487b7100000000000000000000000000000000000000000000000000000000600052602260045260246000fd5b7f4e487b7100000000000000000000000000000000000000000000000000000000600052603260045260246000fd5b7f4e487b7100000000000000000000000000000000000000000000000000000000600052604160045260246000fd5b600062003b43825462003979565b9050919050565b600080fd5b600080fd5b600080fd5b600080fd5b6000601f19601f8301169050919050565b60008160001c9050919050565b6004811062003b905762003b8f62003a79565b5b50565b62003b9e8162003877565b811462003baa57600080fd5b50565b62003bb881620038e0565b811462003bc457600080fd5b5056fe6080604052604051620017e6380380620017e68339818101604052810190620000299190620004f3565b805182511462000070576040517f08c379a00000000000000000000000000000000000000000000000000000000081526004016200006790620006ac565b60405180910390fd5b6000825111620000b7576040517f08c379a0000000000000000000000000000000000000000000000000000000008152600401620000ae90620006f0565b60405180910390fd5b60005b8251811015620001265762000110838281518110620000de57620000dd6200091a565b5b6020026020010151838381518110620000fc57620000fb6200091a565b5b60200260200101516200012f60201b60201c565b80806200011d906200089d565b915050620000ba565b50505062000b10565b600073ffffffffffffffffffffffffffffffffffffffff168273ffffffffffffffffffffffffffffffffffffffff161415620001a2576040517f08c379a000000000000000000000000000000000000000000000000000000000815260040162000199906200068a565b60405180910390fd5b60008111620001e8576040517f08c379a0000000000000000000000000000000000000000000000000000000008152600401620001df9062000712565b60405180910390fd5b6000600260008473ffffffffffffffffffffffffffffffffffffffff1673ffffffffffffffffffffffffffffffffffffffff16815260200190815260200160002054146200026d576040517f08c379a00000000000000000000000000000000000000000000000000000000081526004016200026490620006ce565b60405180910390fd5b6004829080600181540180825580915050600190039060005260206000200160009091909190916101000a81548173ffffffffffffffffffffffffffffffffffffffff021916908373ffffffffffffffffffffffffffffffffffffffff16021790555080600260008473ffffffffffffffffffffffffffffffffffffffff1673ffffffffffffffffffffffffffffffffffffffff1681526020019081526020016000208190555080600054620003249190620007cc565b6000819055507f40c340f65e17194d14ddddb073d3c9f888e3cb52b5aae0c6c7706b4fbc905fac82826040516200035d9291906200065d565b60405180910390a15050565b6000620003806200037a846200075d565b62000734565b90508083825260208201905082856020860282011115620003a657620003a56200097d565b5b60005b85811015620003da5781620003bf88826200045f565b845260208401935060208301925050600181019050620003a9565b5050509392505050565b6000620003fb620003f5846200078c565b62000734565b905080838252602082019050828560208602820111156200042157620004206200097d565b5b60005b858110156200045557816200043a8882620004dc565b84526020840193506020830192505060018101905062000424565b5050509392505050565b600081519050620004708162000adc565b92915050565b600082601f8301126200048e576200048d62000978565b5b8151620004a084826020860162000369565b91505092915050565b600082601f830112620004c157620004c062000978565b5b8151620004d3848260208601620003e4565b91505092915050565b600081519050620004ed8162000af6565b92915050565b600080604083850312156200050d576200050c62000987565b5b600083015167ffffffffffffffff8111156200052e576200052d62000982565b5b6200053c8582860162000476565b925050602083015167ffffffffffffffff81111562000560576200055f62000982565b5b6200056e85828601620004a9565b9150509250929050565b620005838162000829565b82525050565b600062000598602c83620007bb565b9150620005a5826200099d565b604082019050919050565b6000620005bf603283620007bb565b9150620005cc82620009ec565b604082019050919050565b6000620005e6602b83620007bb565b9150620005f38262000a3b565b604082019050919050565b60006200060d601a83620007bb565b91506200061a8262000a8a565b602082019050919050565b600062000634601d83620007bb565b9150620006418262000ab3565b602082019050919050565b62000657816200085d565b82525050565b600060408201905062000674600083018562000578565b6200068360208301846200064c565b9392505050565b60006020820190508181036000830152620006a58162000589565b9050919050565b60006020820190508181036000830152620006c781620005b0565b9050919050565b60006020820190508181036000830152620006e981620005d7565b9050919050565b600060208201905081810360008301526200070b81620005fe565b9050919050565b600060208201905081810360008301526200072d8162000625565b9050919050565b60006200074062000753565b90506200074e828262000867565b919050565b6000604051905090565b600067ffffffffffffffff8211156200077b576200077a62000949565b5b602082029050602081019050919050565b600067ffffffffffffffff821115620007aa57620007a962000949565b5b602082029050602081019050919050565b600082825260208201905092915050565b6000620007d9826200085d565b9150620007e6836200085d565b9250827fffffffffffffffffffffffffffffffffffffffffffffffffffffffffffffffff038211156200081e576200081d620008eb565b5b828201905092915050565b600062000836826200083d565b9050919050565b600073ffffffffffffffffffffffffffffffffffffffff82169050919050565b6000819050919050565b62000872826200098c565b810181811067ffffffffffffffff8211171562000894576200089362000949565b5b80604052505050565b6000620008aa826200085d565b91507fffffffffffffffffffffffffffffffffffffffffffffffffffffffffffffffff821415620008e057620008df620008eb565b5b600182019050919050565b7f4e487b7100000000000000000000000000000000000000000000000000000000600052601160045260246000fd5b7f4e487b7100000000000000000000000000000000000000000000000000000000600052603260045260246000fd5b7f4e487b7100000000000000000000000000000000000000000000000000000000600052604160045260246000fd5b600080fd5b600080fd5b600080fd5b600080fd5b6000601f19601f8301169050919050565b7f5061796d656e7453706c69747465723a206163636f756e74206973207468652060008201527f7a65726f20616464726573730000000000000000000000000000000000000000602082015250565b7f5061796d656e7453706c69747465723a2070617965657320616e64207368617260008201527f6573206c656e677468206d69736d617463680000000000000000000000000000602082015250565b7f5061796d656e7453706c69747465723a206163636f756e7420616c726561647960008201527f2068617320736861726573000000000000000000000000000000000000000000602082015250565b7f5061796d656e7453706c69747465723a206e6f20706179656573000000000000600082015250565b7f5061796d656e7453706c69747465723a20736861726573206172652030000000600082015250565b62000ae78162000829565b811462000af357600080fd5b50565b62000b01816200085d565b811462000b0d57600080fd5b50565b610cc68062000b206000396000f3fe6080604052600436106100595760003560e01c806319165587146100a55780633a98ef39146100ce5780638b83209b146100f95780639852595c14610136578063ce7c2ac214610173578063e33b7de3146101b0576100a0565b366100a0577f6ef95f06320e7a25a04a175ca677b7052bdd97131872c2192525a629f51be7706100876101db565b34604051610096929190610827565b60405180910390a1005b600080fd5b3480156100b157600080fd5b506100cc60048036038101906100c79190610698565b6101e3565b005b3480156100da57600080fd5b506100e361044b565b6040516100f091906108d0565b60405180910390f35b34801561010557600080fd5b50610120600480360381019061011b91906106c5565b610454565b60405161012d91906107e3565b60405180910390f35b34801561014257600080fd5b5061015d6004803603810190610158919061066b565b61049c565b60405161016a91906108d0565b60405180910390f35b34801561017f57600080fd5b5061019a6004803603810190610195919061066b565b6104e5565b6040516101a791906108d0565b60405180910390f35b3480156101bc57600080fd5b506101c561052e565b6040516101d291906108d0565b60405180910390f35b600033905090565b6000600260008373ffffffffffffffffffffffffffffffffffffffff1673ffffffffffffffffffffffffffffffffffffffff1681526020019081526020016000205411610265576040517f08c379a000000000000000000000000000000000000000000000000000000000815260040161025c90610850565b60405180910390fd5b6000600154476102759190610907565b90506000600360008473ffffffffffffffffffffffffffffffffffffffff1673ffffffffffffffffffffffffffffffffffffffff16815260200190815260200160002054600054600260008673ffffffffffffffffffffffffffffffffffffffff1673ffffffffffffffffffffffffffffffffffffffff1681526020019081526020016000205484610307919061098e565b610311919061095d565b61031b91906109e8565b90506000811415610361576040517f08c379a0000000000000000000000000000000000000000000000000000000008152600401610358906108b0565b60405180910390fd5b80600360008573ffffffffffffffffffffffffffffffffffffffff1673ffffffffffffffffffffffffffffffffffffffff168152602001908152602001600020546103ac9190610907565b600360008573ffffffffffffffffffffffffffffffffffffffff1673ffffffffffffffffffffffffffffffffffffffff16815260200190815260200160002081905550806001546103fd9190610907565b60018190555061040d8382610538565b7fdf20fd1e76bc69d672e4814fafb2c449bba3a5369d8359adf9e05e6fde87b056838260405161043e9291906107fe565b60405180910390a1505050565b60008054905090565b60006004828154811061046a57610469610afe565b5b9060005260206000200160009054906101000a900473ffffffffffffffffffffffffffffffffffffffff169050919050565b6000600360008373ffffffffffffffffffffffffffffffffffffffff1673ffffffffffffffffffffffffffffffffffffffff168152602001908152602001600020549050919050565b6000600260008373ffffffffffffffffffffffffffffffffffffffff1673ffffffffffffffffffffffffffffffffffffffff168152602001908152602001600020549050919050565b6000600154905090565b8047101561057b576040517f08c379a000000000000000000000000000000000000000000000000000000000815260040161057290610890565b60405180910390fd5b60008273ffffffffffffffffffffffffffffffffffffffff16826040516105a1906107ce565b60006040518083038185875af1925050503d80600081146105de576040519150601f19603f3d011682016040523d82523d6000602084013e6105e3565b606091505b5050905080610627576040517f08c379a000000000000000000000000000000000000000000000000000000000815260040161061e90610870565b60405180910390fd5b505050565b60008135905061063b81610c4b565b92915050565b60008135905061065081610c62565b92915050565b60008135905061066581610c79565b92915050565b60006020828403121561068157610680610b2d565b5b600061068f8482850161062c565b91505092915050565b6000602082840312156106ae576106ad610b2d565b5b60006106bc84828501610641565b91505092915050565b6000602082840312156106db576106da610b2d565b5b60006106e984828501610656565b91505092915050565b6106fb81610a6a565b82525050565b61070a81610a1c565b82525050565b600061071d6026836108f6565b915061072882610b32565b604082019050919050565b6000610740603a836108f6565b915061074b82610b81565b604082019050919050565b6000610763601d836108f6565b915061076e82610bd0565b602082019050919050565b6000610786602b836108f6565b915061079182610bf9565b604082019050919050565b60006107a96000836108eb565b91506107b482610c48565b600082019050919050565b6107c881610a60565b82525050565b60006107d98261079c565b9150819050919050565b60006020820190506107f86000830184610701565b92915050565b600060408201905061081360008301856106f2565b61082060208301846107bf565b9392505050565b600060408201905061083c6000830185610701565b61084960208301846107bf565b9392505050565b6000602082019050818103600083015261086981610710565b9050919050565b6000602082019050818103600083015261088981610733565b9050919050565b600060208201905081810360008301526108a981610756565b9050919050565b600060208201905081810360008301526108c981610779565b9050919050565b60006020820190506108e560008301846107bf565b92915050565b600081905092915050565b600082825260208201905092915050565b600061091282610a60565b915061091d83610a60565b9250827fffffffffffffffffffffffffffffffffffffffffffffffffffffffffffffffff0382111561095257610951610aa0565b5b828201905092915050565b600061096882610a60565b915061097383610a60565b92508261098357610982610acf565b5b828204905092915050565b600061099982610a60565b91506109a483610a60565b9250817fffffffffffffffffffffffffffffffffffffffffffffffffffffffffffffffff04831182151516156109dd576109dc610aa0565b5b828202905092915050565b60006109f382610a60565b91506109fe83610a60565b925082821015610a1157610a10610aa0565b5b828203905092915050565b6000610a2782610a40565b9050919050565b6000610a3982610a40565b9050919050565b600073ffffffffffffffffffffffffffffffffffffffff82169050919050565b6000819050919050565b6000610a7582610a7c565b9050919050565b6000610a8782610a8e565b9050919050565b6000610a9982610a40565b9050919050565b7f4e487b7100000000000000000000000000000000000000000000000000000000600052601160045260246000fd5b7f4e487b7100000000000000000000000000000000000000000000000000000000600052601260045260246000fd5b7f4e487b7100000000000000000000000000000000000000000000000000000000600052603260045260246000fd5b600080fd5b7f5061796d656e7453706c69747465723a206163636f756e7420686173206e6f2060008201527f7368617265730000000000000000000000000000000000000000000000000000602082015250565b7f416464726573733a20756e61626c6520746f2073656e642076616c75652c207260008201527f6563697069656e74206d61792068617665207265766572746564000000000000602082015250565b7f416464726573733a20696e73756666696369656e742062616c616e6365000000600082015250565b7f5061796d656e7453706c69747465723a206163636f756e74206973206e6f742060008201527f647565207061796d656e74000000000000000000000000000000000000000000602082015250565b50565b610c5481610a1c565b8114610c5f57600080fd5b50565b610c6b81610a2e565b8114610c7657600080fd5b50565b610c8281610a60565b8114610c8d57600080fd5b5056fea26469706673582212201a1926926729a651a90b3eab60e8020c21831fe7b8ae85e46838951eafc5870464736f6c63430008060033a2646970667358221220d8a520bf635006c485aed47bec1623a780801d7da7efe543f944f75d53f965b264736f6c63430008060033",
  "immutableReferences": {},
  "source": "// SPDX-License-Identifier: MIT\npragma solidity ^0.8.0;\n\nimport \"./ContributorManager.sol\";\n\ncontract AdminsManager is ContributorManager {\n\n    event AdminAdded(address indexed account, uint256 groupId);\n    event AdminRemoved(address indexed account, uint256 groupId);\n\n    event GroupCreated(address indexed creator, uint256 groupId);\n    event EventStarted(address indexed startedBy, uint256 groupId);\n    event RegistrationEnded(address indexed endedBy, uint256 groupId);\n    event EventEnded(address indexed endedBy, uint256 groupId);\n\n    event CalculatedPot(\n        uint256 registeredRecipientCount,\n        uint256 winningsPerRecipient\n    );\n\n    constructor() {}\n\n    modifier onlyAdmins(uint256 groupId) {\n        require(isAdmin(msg.sender, groupId));\n        _;\n    }\n\n    function isAdmin(address account, uint256 groupId)\n        public\n        view\n        returns (bool)\n    {\n        return admins[groupId][account] == true;\n    }\n\n    modifier onlyAdminsOrCOO(uint256 groupId) {\n        require(isAdmin(msg.sender, groupId) || msg.sender == cooAddress);\n        _;\n    }\n\n    // TODO - allow COO to give \"admin-granting power\" to other admins\n    function addAdmin(address account, uint256 groupId) external onlyCOO {\n        _addAdmin(account, groupId);\n    }\n\n    function removeAdmin(address account, uint256 groupId) external onlyCOO {\n        _removeAdmin(account, groupId);\n    }\n\n    function renounceAdmin(uint256 groupId) public onlyAdmins(groupId) {\n        _removeAdmin(msg.sender, groupId);\n    }\n\n    function _addAdmin(address account, uint256 groupId) internal {\n        admins[groupId][account] = true;\n        emit AdminAdded(account, groupId);\n    }\n\n    function _removeAdmin(address account, uint256 groupId) internal {\n        admins[groupId][account] = false;\n        emit AdminRemoved(account, groupId);\n    }\n\n    function readEventInfo(uint256 groupId)\n        external\n        view\n        onlyAdmins(groupId)\n        returns (EthDropEvent memory)\n    {\n        return currentEvents[groupId];\n    }\n\n    function createNewGroup(string memory groupName) external onlyCOO whenNotPaused {\n        uint256 newGroupId = uint256(blockhash(block.number));\n\n        EthDropEvent memory newGroup = EthDropEvent(\n            newGroupId,\n            groupName,\n            EventState.CREATED,\n            block.timestamp,\n            block.timestamp,\n            block.timestamp,\n            0,\n            \"\",\n            \"\",\n            \"\",\n            address(0)\n        );\n\n        currentEvents[newGroupId] = newGroup;\n\n        listOfGroupIds.push(newGroupId);\n        listOfGroupNames.push(groupName);\n\n        emit GroupCreated(msg.sender, newGroupId);\n    }\n\n    function startEvent(uint256 groupId)\n        external\n        onlyAdmins(groupId)\n        whenNotPaused\n    {\n        currentEvents[groupId].currentState = EventState.REGISTRATION;\n        currentEvents[groupId].startTime = block.timestamp;\n\n        emit EventStarted(msg.sender, groupId);\n    }\n\n    function closeEventRegistration(uint256 groupId)\n        external\n        onlyAdmins(groupId)\n        whenNotPaused\n    {\n        currentEvents[groupId].registrationEndTime = block.timestamp;\n\n        // Transfer dev cut to cfo\n        payable(cfoAddress).transfer(\n            (address(this).balance * devCutPercentage) / 100\n        );\n\n        uint256[] memory potShares = new uint256[](\n            currentEvents[groupId].registeredRecipientsCount\n        );\n\n        for (\n            uint256 i;\n            i < currentEvents[groupId].registeredRecipientsCount;\n            i++\n        ) {\n            potShares[i] = 1;\n        }\n\n        pot[groupId] = new PaymentSplitter(\n            registeredRecipientsArray[groupId],\n            potShares\n        );\n\n        currentEvents[groupId].currentState = EventState.CLAIM_WINNINGS;\n\n        uint256 winningsPerRecipient = address(this).balance /\n            pot[groupId].totalShares();\n\n        emit CalculatedPot(\n            currentEvents[groupId].registeredRecipientsCount,\n            winningsPerRecipient\n        );\n\n        emit RegistrationEnded(msg.sender, groupId);\n    }\n\n    function endEvent(uint256 groupId)\n        external\n        onlyAdminsOrCOO(groupId)\n        whenNotPaused\n    {\n        currentEvents[groupId].endTime = block.timestamp;\n\n        currentEvents[groupId].currentState = EventState.ENDED;\n\n        pastEvents[groupId].push(currentEvents[groupId]);\n\n        emit EventEnded(msg.sender, groupId);\n    }\n\n    function addEligibleRecipient(address account, uint256 groupId)\n        external\n        whenNotPaused\n        onlyAdmins(groupId)\n    {\n        eligibleRecipients[groupId][account] = true;\n        emit EligibleRecipientAdded(account, groupId);\n    }\n\n    function removeEligibleRecipient(address account, uint256 groupId)\n        external\n        onlyAdmins(groupId)\n        whenNotPaused\n    {\n        eligibleRecipients[groupId][account] = false;\n        emit EligibleRecipientRemoved(account, groupId);\n    }\n\n    function addContributor(address account, uint256 groupId)\n        external\n        onlyAdminsOrCOO(groupId)\n        whenNotPaused\n    {\n        _addContributor(account, groupId);\n    }\n\n    function removeContributor(address account, uint256 groupId)\n        external\n        onlyAdminsOrCOO(groupId)\n        whenNotPaused\n    {\n        _removeContributor(account, groupId);\n    }\n}",
  "sourcePath": "/Users/jim/Git-Projects/EthDrop/contracts/roles/AdminsManager.sol",
  "compiler": {
    "name": "solc",
    "version": "0.8.6+commit.11564f7e.Emscripten.clang"
  },
  "schemaVersion": "3.4.1",
  "updatedAt": "2021-07-21T22:58:28.154Z",
  "networkType": "ethereum",
  "devdoc": {
    "kind": "dev",
    "methods": {
      "pause()": {
        "details": "Called by any \"C-level\" role to pause the contract. Used only when  a bug or exploit is detected and we need to limit damage."
      },
      "setCEO(address)": {
        "details": "Assigns a new address to act as the CEO. Only available to the current CEO.",
        "params": {
          "_newCEO": "The address of the new CEO"
        }
      },
      "setCFO(address)": {
        "details": "Assigns a new address to act as the CFO. Only available to the current CEO.",
        "params": {
          "_newCFO": "The address of the new CFO"
        }
      },
      "setCOO(address)": {
        "details": "Assigns a new address to act as the COO. Only available to the current CEO.",
        "params": {
          "_newCOO": "The address of the new COO"
        }
      },
      "unpause()": {
        "details": "Unpauses the smart contract. Can only be called by the CEO, since  one reason we may pause the contract is when CFO or COO accounts are  compromised."
      }
    },
    "version": 1
  },
  "userdoc": {
    "kind": "user",
    "methods": {
      "unpause()": {
        "notice": "This is public rather than external so it can be called by  derived contracts."
      }
    },
    "version": 1
  }
}