{
  "contractName": "AdminsManager",
  "abi": [
    {
      "inputs": [],
      "stateMutability": "nonpayable",
      "type": "constructor"
    },
    {
      "anonymous": false,
      "inputs": [
        {
          "indexed": false,
          "internalType": "uint256",
          "name": "groupId",
          "type": "uint256"
        }
      ],
      "name": "AdminAdded",
      "type": "event"
    },
    {
      "anonymous": false,
      "inputs": [
        {
          "indexed": false,
          "internalType": "uint256",
          "name": "groupId",
          "type": "uint256"
        }
      ],
      "name": "AdminRemoved",
      "type": "event"
    },
    {
      "anonymous": false,
      "inputs": [
        {
          "indexed": false,
          "internalType": "bool",
          "name": "isPaused",
          "type": "bool"
        }
      ],
      "name": "AppPaused",
      "type": "event"
    },
    {
      "anonymous": false,
      "inputs": [
        {
          "indexed": false,
          "internalType": "uint256",
          "name": "registeredRecipientCount",
          "type": "uint256"
        },
        {
          "indexed": false,
          "internalType": "uint256",
          "name": "winningsPerRecipient",
          "type": "uint256"
        }
      ],
      "name": "CalculatedPot",
      "type": "event"
    },
    {
      "anonymous": false,
      "inputs": [],
      "name": "CfoUpdated",
      "type": "event"
    },
    {
      "anonymous": false,
      "inputs": [
        {
          "indexed": false,
          "internalType": "address",
          "name": "newContract",
          "type": "address"
        }
      ],
      "name": "ContractUpgrade",
      "type": "event"
    },
    {
      "anonymous": false,
      "inputs": [
        {
          "indexed": true,
          "internalType": "address",
          "name": "account",
          "type": "address"
        },
        {
          "indexed": false,
          "internalType": "uint256",
          "name": "groupId",
          "type": "uint256"
        },
        {
          "indexed": false,
          "internalType": "uint256",
          "name": "amount",
          "type": "uint256"
        }
      ],
      "name": "ContributionMade",
      "type": "event"
    },
    {
      "anonymous": false,
      "inputs": [
        {
          "indexed": true,
          "internalType": "address",
          "name": "account",
          "type": "address"
        },
        {
          "indexed": false,
          "internalType": "uint256",
          "name": "groupId",
          "type": "uint256"
        }
      ],
      "name": "ContributorAdded",
      "type": "event"
    },
    {
      "anonymous": false,
      "inputs": [
        {
          "indexed": false,
          "internalType": "uint256",
          "name": "groupId",
          "type": "uint256"
        },
        {
          "indexed": false,
          "internalType": "address",
          "name": "newContributor",
          "type": "address"
        }
      ],
      "name": "ContributorAddressUpdated",
      "type": "event"
    },
    {
      "anonymous": false,
      "inputs": [
        {
          "indexed": false,
          "internalType": "uint256",
          "name": "groupId",
          "type": "uint256"
        },
        {
          "indexed": false,
          "internalType": "string",
          "name": "sponsorName",
          "type": "string"
        },
        {
          "indexed": false,
          "internalType": "string",
          "name": "imgUrl",
          "type": "string"
        },
        {
          "indexed": false,
          "internalType": "string",
          "name": "imgLinkToUrl",
          "type": "string"
        }
      ],
      "name": "ContributorInfoUpdated",
      "type": "event"
    },
    {
      "anonymous": false,
      "inputs": [
        {
          "indexed": true,
          "internalType": "address",
          "name": "account",
          "type": "address"
        },
        {
          "indexed": false,
          "internalType": "uint256",
          "name": "groupId",
          "type": "uint256"
        }
      ],
      "name": "ContributorRemoved",
      "type": "event"
    },
    {
      "anonymous": false,
      "inputs": [],
      "name": "CooUpdated",
      "type": "event"
    },
    {
      "anonymous": false,
      "inputs": [
        {
          "indexed": true,
          "internalType": "address",
          "name": "account",
          "type": "address"
        },
        {
          "indexed": false,
          "internalType": "uint256",
          "name": "groupId",
          "type": "uint256"
        }
      ],
      "name": "EligibleRecipientAdded",
      "type": "event"
    },
    {
      "anonymous": false,
      "inputs": [
        {
          "indexed": true,
          "internalType": "address",
          "name": "account",
          "type": "address"
        },
        {
          "indexed": false,
          "internalType": "uint256",
          "name": "groupId",
          "type": "uint256"
        }
      ],
      "name": "EligibleRecipientRemoved",
      "type": "event"
    },
    {
      "anonymous": false,
      "inputs": [],
      "name": "EventClose",
      "type": "event"
    },
    {
      "anonymous": false,
      "inputs": [
        {
          "indexed": true,
          "internalType": "address",
          "name": "endedBy",
          "type": "address"
        },
        {
          "indexed": false,
          "internalType": "uint256",
          "name": "groupId",
          "type": "uint256"
        }
      ],
      "name": "EventEnded",
      "type": "event"
    },
    {
      "anonymous": false,
      "inputs": [
        {
          "indexed": true,
          "internalType": "address",
          "name": "startedBy",
          "type": "address"
        },
        {
          "indexed": false,
          "internalType": "uint256",
          "name": "groupId",
          "type": "uint256"
        }
      ],
      "name": "EventStarted",
      "type": "event"
    },
    {
      "anonymous": false,
      "inputs": [
        {
          "indexed": false,
          "internalType": "string",
          "name": "groupName",
          "type": "string"
        },
        {
          "indexed": false,
          "internalType": "uint256",
          "name": "groupId",
          "type": "uint256"
        }
      ],
      "name": "GroupCreated",
      "type": "event"
    },
    {
      "anonymous": false,
      "inputs": [
        {
          "indexed": true,
          "internalType": "address",
          "name": "account",
          "type": "address"
        },
        {
          "indexed": false,
          "internalType": "uint256",
          "name": "groupId",
          "type": "uint256"
        }
      ],
      "name": "RecipientRegistered",
      "type": "event"
    },
    {
      "anonymous": false,
      "inputs": [
        {
          "indexed": true,
          "internalType": "address",
          "name": "endedBy",
          "type": "address"
        },
        {
          "indexed": false,
          "internalType": "uint256",
          "name": "groupId",
          "type": "uint256"
        }
      ],
      "name": "RegistrationEnded",
      "type": "event"
    },
    {
      "anonymous": false,
      "inputs": [],
      "name": "RegistrationOpen",
      "type": "event"
    },
    {
      "anonymous": false,
      "inputs": [
        {
          "indexed": false,
          "internalType": "address",
          "name": "from",
          "type": "address"
        },
        {
          "indexed": false,
          "internalType": "address",
          "name": "to",
          "type": "address"
        }
      ],
      "name": "Transfer",
      "type": "event"
    },
    {
      "anonymous": false,
      "inputs": [
        {
          "indexed": true,
          "internalType": "address",
          "name": "account",
          "type": "address"
        },
        {
          "indexed": false,
          "internalType": "uint256",
          "name": "groupId",
          "type": "uint256"
        }
      ],
      "name": "WinningsClaimed",
      "type": "event"
    },
    {
      "anonymous": false,
      "inputs": [],
      "name": "WinningsClaimingOpen",
      "type": "event"
    },
    {
      "inputs": [
        {
          "internalType": "uint256",
          "name": "groupId",
          "type": "uint256"
        }
      ],
      "name": "amIContributor",
      "outputs": [
        {
          "internalType": "bool",
          "name": "",
          "type": "bool"
        }
      ],
      "stateMutability": "view",
      "type": "function"
    },
    {
      "inputs": [
        {
          "internalType": "uint256",
          "name": "groupId",
          "type": "uint256"
        }
      ],
      "name": "amIEligibleRecipient",
      "outputs": [
        {
          "internalType": "bool",
          "name": "",
          "type": "bool"
        }
      ],
      "stateMutability": "view",
      "type": "function"
    },
    {
      "inputs": [
        {
          "internalType": "uint256",
          "name": "groupId",
          "type": "uint256"
        }
      ],
      "name": "amIRegisteredRecipient",
      "outputs": [
        {
          "internalType": "bool",
          "name": "",
          "type": "bool"
        }
      ],
      "stateMutability": "view",
      "type": "function"
    },
    {
      "inputs": [],
      "name": "ceoAddress",
      "outputs": [
        {
          "internalType": "address",
          "name": "",
          "type": "address"
        }
      ],
      "stateMutability": "view",
      "type": "function"
    },
    {
      "inputs": [],
      "name": "cfoAddress",
      "outputs": [
        {
          "internalType": "address",
          "name": "",
          "type": "address"
        }
      ],
      "stateMutability": "view",
      "type": "function"
    },
    {
      "inputs": [
        {
          "internalType": "uint256",
          "name": "groupId",
          "type": "uint256"
        }
      ],
      "name": "claimWinnings",
      "outputs": [],
      "stateMutability": "nonpayable",
      "type": "function"
    },
    {
      "inputs": [
        {
          "internalType": "uint256",
          "name": "groupId",
          "type": "uint256"
        }
      ],
      "name": "contributeToPot",
      "outputs": [],
      "stateMutability": "payable",
      "type": "function"
    },
    {
      "inputs": [],
      "name": "cooAddress",
      "outputs": [
        {
          "internalType": "address",
          "name": "",
          "type": "address"
        }
      ],
      "stateMutability": "view",
      "type": "function"
    },
    {
      "inputs": [
        {
          "internalType": "uint256",
          "name": "groupId",
          "type": "uint256"
        }
      ],
      "name": "doIHaveClaimableWinnings",
      "outputs": [
        {
          "internalType": "bool",
          "name": "",
          "type": "bool"
        }
      ],
      "stateMutability": "view",
      "type": "function"
    },
    {
      "inputs": [],
      "name": "getCFO",
      "outputs": [
        {
          "internalType": "address",
          "name": "",
          "type": "address"
        }
      ],
      "stateMutability": "view",
      "type": "function"
    },
    {
      "inputs": [],
      "name": "getCOO",
      "outputs": [
        {
          "internalType": "address",
          "name": "",
          "type": "address"
        }
      ],
      "stateMutability": "view",
      "type": "function"
    },
    {
      "inputs": [
        {
          "internalType": "uint256",
          "name": "groupId",
          "type": "uint256"
        }
      ],
      "name": "getContributorInfo",
      "outputs": [
        {
          "internalType": "string",
          "name": "newContributorName",
          "type": "string"
        },
        {
          "internalType": "string",
          "name": "newContributorImgUrl",
          "type": "string"
        },
        {
          "internalType": "string",
          "name": "newContributorLinkToUrl",
          "type": "string"
        }
      ],
      "stateMutability": "view",
      "type": "function"
    },
    {
      "inputs": [
        {
          "internalType": "uint256",
          "name": "groupId",
          "type": "uint256"
        }
      ],
      "name": "getCurrentSponsorAddress",
      "outputs": [
        {
          "internalType": "address",
          "name": "",
          "type": "address"
        }
      ],
      "stateMutability": "view",
      "type": "function"
    },
    {
      "inputs": [
        {
          "internalType": "uint256",
          "name": "groupId",
          "type": "uint256"
        }
      ],
      "name": "getEligibleRecipientAddresses",
      "outputs": [
        {
          "internalType": "address[]",
          "name": "",
          "type": "address[]"
        }
      ],
      "stateMutability": "view",
      "type": "function"
    },
    {
      "inputs": [
        {
          "internalType": "uint256",
          "name": "groupId",
          "type": "uint256"
        }
      ],
      "name": "getEligibleRecipientIsEligibilityEnabled",
      "outputs": [
        {
          "internalType": "bool[]",
          "name": "",
          "type": "bool[]"
        }
      ],
      "stateMutability": "view",
      "type": "function"
    },
    {
      "inputs": [
        {
          "internalType": "uint256",
          "name": "groupId",
          "type": "uint256"
        }
      ],
      "name": "getEligibleRecipientNames",
      "outputs": [
        {
          "internalType": "string[]",
          "name": "",
          "type": "string[]"
        }
      ],
      "stateMutability": "view",
      "type": "function"
    },
    {
      "inputs": [
        {
          "internalType": "uint256",
          "name": "groupId",
          "type": "uint256"
        }
      ],
      "name": "getGroupEventData",
      "outputs": [
        {
          "internalType": "enum EthDropBase.EventState",
          "name": "",
          "type": "uint8"
        },
        {
          "internalType": "uint256",
          "name": "",
          "type": "uint256"
        },
        {
          "internalType": "uint256",
          "name": "",
          "type": "uint256"
        },
        {
          "internalType": "uint256",
          "name": "",
          "type": "uint256"
        },
        {
          "internalType": "uint256",
          "name": "",
          "type": "uint256"
        }
      ],
      "stateMutability": "view",
      "type": "function"
    },
    {
      "inputs": [],
      "name": "getGroupIds",
      "outputs": [
        {
          "internalType": "uint256[]",
          "name": "",
          "type": "uint256[]"
        }
      ],
      "stateMutability": "view",
      "type": "function"
    },
    {
      "inputs": [],
      "name": "getGroupNames",
      "outputs": [
        {
          "internalType": "string[]",
          "name": "",
          "type": "string[]"
        }
      ],
      "stateMutability": "view",
      "type": "function"
    },
    {
      "inputs": [
        {
          "internalType": "uint256",
          "name": "groupId",
          "type": "uint256"
        }
      ],
      "name": "getRegisteredRecipientNames",
      "outputs": [
        {
          "internalType": "string[]",
          "name": "",
          "type": "string[]"
        }
      ],
      "stateMutability": "view",
      "type": "function"
    },
    {
      "inputs": [
        {
          "internalType": "uint256",
          "name": "groupId",
          "type": "uint256"
        }
      ],
      "name": "getRegisteredRecipients",
      "outputs": [
        {
          "internalType": "address[]",
          "name": "",
          "type": "address[]"
        }
      ],
      "stateMutability": "view",
      "type": "function"
    },
    {
      "inputs": [],
      "name": "getString",
      "outputs": [
        {
          "internalType": "string",
          "name": "",
          "type": "string"
        }
      ],
      "stateMutability": "view",
      "type": "function"
    },
    {
      "inputs": [],
      "name": "isCEO",
      "outputs": [
        {
          "internalType": "bool",
          "name": "",
          "type": "bool"
        }
      ],
      "stateMutability": "view",
      "type": "function"
    },
    {
      "inputs": [],
      "name": "isCFO",
      "outputs": [
        {
          "internalType": "bool",
          "name": "",
          "type": "bool"
        }
      ],
      "stateMutability": "view",
      "type": "function"
    },
    {
      "inputs": [],
      "name": "isCOO",
      "outputs": [
        {
          "internalType": "bool",
          "name": "",
          "type": "bool"
        }
      ],
      "stateMutability": "view",
      "type": "function"
    },
    {
      "inputs": [
        {
          "internalType": "address",
          "name": "account",
          "type": "address"
        },
        {
          "internalType": "uint256",
          "name": "groupId",
          "type": "uint256"
        }
      ],
      "name": "isContributor",
      "outputs": [
        {
          "internalType": "bool",
          "name": "",
          "type": "bool"
        }
      ],
      "stateMutability": "view",
      "type": "function"
    },
    {
      "inputs": [
        {
          "internalType": "address",
          "name": "account",
          "type": "address"
        },
        {
          "internalType": "uint256",
          "name": "groupId",
          "type": "uint256"
        }
      ],
      "name": "isEligibleRecipient",
      "outputs": [
        {
          "internalType": "bool",
          "name": "",
          "type": "bool"
        }
      ],
      "stateMutability": "view",
      "type": "function"
    },
    {
      "inputs": [],
      "name": "isPaused",
      "outputs": [
        {
          "internalType": "bool",
          "name": "",
          "type": "bool"
        }
      ],
      "stateMutability": "view",
      "type": "function"
    },
    {
      "inputs": [
        {
          "internalType": "address",
          "name": "account",
          "type": "address"
        },
        {
          "internalType": "uint256",
          "name": "groupId",
          "type": "uint256"
        }
      ],
      "name": "isRegisteredRecipient",
      "outputs": [
        {
          "internalType": "bool",
          "name": "",
          "type": "bool"
        }
      ],
      "stateMutability": "view",
      "type": "function"
    },
    {
      "inputs": [],
      "name": "pause",
      "outputs": [],
      "stateMutability": "nonpayable",
      "type": "function"
    },
    {
      "inputs": [],
      "name": "paused",
      "outputs": [
        {
          "internalType": "bool",
          "name": "",
          "type": "bool"
        }
      ],
      "stateMutability": "view",
      "type": "function"
    },
    {
      "inputs": [
        {
          "internalType": "uint256",
          "name": "groupId",
          "type": "uint256"
        }
      ],
      "name": "registerForEvent",
      "outputs": [],
      "stateMutability": "nonpayable",
      "type": "function"
    },
    {
      "inputs": [
        {
          "internalType": "address",
          "name": "_newCEO",
          "type": "address"
        }
      ],
      "name": "setCEO",
      "outputs": [],
      "stateMutability": "nonpayable",
      "type": "function"
    },
    {
      "inputs": [
        {
          "internalType": "address",
          "name": "_newCFO",
          "type": "address"
        }
      ],
      "name": "setCFO",
      "outputs": [],
      "stateMutability": "nonpayable",
      "type": "function"
    },
    {
      "inputs": [
        {
          "internalType": "address",
          "name": "_newCOO",
          "type": "address"
        }
      ],
      "name": "setCOO",
      "outputs": [],
      "stateMutability": "nonpayable",
      "type": "function"
    },
    {
      "inputs": [
        {
          "internalType": "string",
          "name": "_s",
          "type": "string"
        }
      ],
      "name": "setString",
      "outputs": [],
      "stateMutability": "nonpayable",
      "type": "function"
    },
    {
      "inputs": [],
      "name": "stringgg",
      "outputs": [
        {
          "internalType": "string",
          "name": "",
          "type": "string"
        }
      ],
      "stateMutability": "view",
      "type": "function"
    },
    {
      "inputs": [],
      "name": "unpause",
      "outputs": [
        {
          "internalType": "bool",
          "name": "",
          "type": "bool"
        }
      ],
      "stateMutability": "nonpayable",
      "type": "function"
    },
    {
      "inputs": [
        {
          "internalType": "uint256",
          "name": "groupId",
          "type": "uint256"
        },
        {
          "internalType": "string",
          "name": "newContributorName",
          "type": "string"
        },
        {
          "internalType": "string",
          "name": "newContributorImgUrl",
          "type": "string"
        },
        {
          "internalType": "string",
          "name": "newContributorLinkToUrl",
          "type": "string"
        }
      ],
      "name": "updateContributorInfo",
      "outputs": [],
      "stateMutability": "nonpayable",
      "type": "function"
    },
    {
      "inputs": [],
      "name": "whoami",
      "outputs": [
        {
          "internalType": "address",
          "name": "",
          "type": "address"
        }
      ],
      "stateMutability": "view",
      "type": "function"
    },
    {
      "inputs": [
        {
          "internalType": "address",
          "name": "account",
          "type": "address"
        },
        {
          "internalType": "uint256",
          "name": "groupId",
          "type": "uint256"
        }
      ],
      "name": "isAdmin",
      "outputs": [
        {
          "internalType": "bool",
          "name": "",
          "type": "bool"
        }
      ],
      "stateMutability": "view",
      "type": "function"
    },
    {
      "inputs": [
        {
          "internalType": "uint256",
          "name": "groupId",
          "type": "uint256"
        }
      ],
      "name": "amIAdmin",
      "outputs": [
        {
          "internalType": "bool",
          "name": "",
          "type": "bool"
        }
      ],
      "stateMutability": "view",
      "type": "function"
    },
    {
      "inputs": [
        {
          "internalType": "uint256",
          "name": "groupId",
          "type": "uint256"
        }
      ],
      "name": "getAdminsForGroup",
      "outputs": [
        {
          "internalType": "address[]",
          "name": "",
          "type": "address[]"
        },
        {
          "internalType": "bool[]",
          "name": "",
          "type": "bool[]"
        }
      ],
      "stateMutability": "view",
      "type": "function"
    },
    {
      "inputs": [
        {
          "internalType": "address",
          "name": "account",
          "type": "address"
        },
        {
          "internalType": "uint256",
          "name": "groupId",
          "type": "uint256"
        }
      ],
      "name": "addAdmin",
      "outputs": [],
      "stateMutability": "nonpayable",
      "type": "function"
    },
    {
      "inputs": [
        {
          "internalType": "address",
          "name": "account",
          "type": "address"
        },
        {
          "internalType": "uint256",
          "name": "groupId",
          "type": "uint256"
        }
      ],
      "name": "removeAdmin",
      "outputs": [],
      "stateMutability": "nonpayable",
      "type": "function"
    },
    {
      "inputs": [
        {
          "internalType": "uint256",
          "name": "groupId",
          "type": "uint256"
        }
      ],
      "name": "renounceAdmin",
      "outputs": [],
      "stateMutability": "nonpayable",
      "type": "function"
    },
    {
      "inputs": [
        {
          "internalType": "uint256",
          "name": "groupId",
          "type": "uint256"
        }
      ],
      "name": "readEventInfo",
      "outputs": [
        {
          "components": [
            {
              "internalType": "uint256",
              "name": "groupId",
              "type": "uint256"
            },
            {
              "internalType": "string",
              "name": "groupName",
              "type": "string"
            },
            {
              "internalType": "enum EthDropBase.EventState",
              "name": "currentState",
              "type": "uint8"
            },
            {
              "internalType": "uint256",
              "name": "startTime",
              "type": "uint256"
            },
            {
              "internalType": "uint256",
              "name": "registrationEndTime",
              "type": "uint256"
            },
            {
              "internalType": "uint256",
              "name": "endTime",
              "type": "uint256"
            },
            {
              "internalType": "uint256",
              "name": "registeredRecipientsCount",
              "type": "uint256"
            },
            {
              "internalType": "string",
              "name": "sponsorName",
              "type": "string"
            },
            {
              "internalType": "string",
              "name": "sponsorImageUrl",
              "type": "string"
            },
            {
              "internalType": "string",
              "name": "sponsorLinkToUrl",
              "type": "string"
            },
            {
              "internalType": "address",
              "name": "currentContributor",
              "type": "address"
            },
            {
              "internalType": "uint256",
              "name": "totalAmountContributed",
              "type": "uint256"
            },
            {
              "internalType": "uint256",
              "name": "weiWinnings",
              "type": "uint256"
            },
            {
              "internalType": "uint256",
              "name": "numberOfUsersWhoClaimedWinnings",
              "type": "uint256"
            }
          ],
          "internalType": "struct EthDropBase.EthDropEvent",
          "name": "",
          "type": "tuple"
        }
      ],
      "stateMutability": "view",
      "type": "function"
    },
    {
      "inputs": [
        {
          "internalType": "string",
          "name": "groupName",
          "type": "string"
        }
      ],
      "name": "createNewGroup",
      "outputs": [],
      "stateMutability": "nonpayable",
      "type": "function"
    },
    {
      "inputs": [
        {
          "internalType": "uint256",
          "name": "groupId",
          "type": "uint256"
        }
      ],
      "name": "startEvent",
      "outputs": [],
      "stateMutability": "nonpayable",
      "type": "function"
    },
    {
      "inputs": [
        {
          "internalType": "uint256",
          "name": "groupId",
          "type": "uint256"
        }
      ],
      "name": "closeEventRegistration",
      "outputs": [],
      "stateMutability": "nonpayable",
      "type": "function"
    },
    {
      "inputs": [
        {
          "internalType": "uint256",
          "name": "groupId",
          "type": "uint256"
        }
      ],
      "name": "endEvent",
      "outputs": [],
      "stateMutability": "nonpayable",
      "type": "function"
    },
    {
      "inputs": [
        {
          "internalType": "address",
          "name": "account",
          "type": "address"
        },
        {
          "internalType": "string",
          "name": "name",
          "type": "string"
        },
        {
          "internalType": "uint256",
          "name": "groupId",
          "type": "uint256"
        }
      ],
      "name": "addEligibleRecipient",
      "outputs": [],
      "stateMutability": "nonpayable",
      "type": "function"
    },
    {
      "inputs": [
        {
          "internalType": "address",
          "name": "account",
          "type": "address"
        },
        {
          "internalType": "uint256",
          "name": "groupId",
          "type": "uint256"
        }
      ],
      "name": "removeEligibleRecipient",
      "outputs": [],
      "stateMutability": "nonpayable",
      "type": "function"
    },
    {
      "inputs": [
        {
          "internalType": "address",
          "name": "account",
          "type": "address"
        },
        {
          "internalType": "uint256",
          "name": "groupId",
          "type": "uint256"
        }
      ],
      "name": "changeContributor",
      "outputs": [],
      "stateMutability": "nonpayable",
      "type": "function"
    }
  ],
  "bytecode": "0x60806040526000600360146101000a81548160ff02191690831515021790555060056004556000600b5534801561003557600080fd5b506156bb80620000466000396000f3fe6080604052600436106103355760003560e01c80637fcb29c9116101ab578063c02b8b2c116100f7578063e62092be11610095578063ee41b5921161006f578063ee41b59214610c94578063f4a02e7014610cd1578063f89e9cb914610cfc578063fc5fd6e414610d3957610335565b8063e62092be14610c12578063e82f24e014610c4f578063ea303f0814610c6b57610335565b8063c6e0ddfa116100d1578063c6e0ddfa14610b56578063d5f016c314610b7f578063e33db42614610baa578063e513b7a914610be757610335565b8063c02b8b2c14610ad7578063c271e80c14610b02578063c6db509414610b2b57610335565b8063967cafbc11610164578063aea88a051161013e578063aea88a0514610a2d578063b047fb5014610a56578063b187bd2614610a81578063b3b36bb314610aac57610335565b8063967cafbc1461099e5780639bda8796146109c7578063a59a695314610a0457610335565b80637fcb29c91461088e5780638182aaf2146108b75780638456cb59146108f457806389ea642f1461090b5780639393ae3714610936578063962ecff51461096157610335565b806344b2983b11610285578063674811ca11610223578063785142be116101fd578063785142be146107d45780637b936ac2146107fd5780637d837ce5146108285780637fcaf6661461086557610335565b8063674811ca1461072e578063677bd9ff1461076d5780636ebdec491461079657610335565b80634e0a33791161025f5780634e0a33791461066057806355b57ec1146106895780635c975abb146106c65780635e82c1fc146106f157610335565b806344b2983b146105a5578063454432e2146105e25780634635509b1461061f57610335565b806327d7874c116102f2578063330a347b116102cc578063330a347b146104eb57806338f0b656146105145780633f4ba83a14610551578063406db8431461057c57610335565b806327d7874c146104705780632ba73c151461049957806330bb0115146104c257610335565b80630519ce791461033a57806306cc49221461036557806307bfa330146103a25780630a0f8168146103df5780630d82ffa01461040a57806315891ff414610447575b600080fd5b34801561034657600080fd5b5061034f610d64565b60405161035c9190614dc8565b60405180910390f35b34801561037157600080fd5b5061038c60048036038101906103879190614816565b610d8a565b6040516103999190614ea2565b60405180910390f35b3480156103ae57600080fd5b506103c960048036038101906103c49190614816565b610db7565b6040516103d69190614e5e565b60405180910390f35b3480156103eb57600080fd5b506103f4610ea3565b6040516104019190614dc8565b60405180910390f35b34801561041657600080fd5b50610431600480360381019061042c9190614816565b610ec9565b60405161043e9190614dc8565b60405180910390f35b34801561045357600080fd5b5061046e6004803603810190610469919061478d565b610f09565b005b34801561047c57600080fd5b50610497600480360381019061049291906146f1565b610ff3565b005b3480156104a557600080fd5b506104c060048036038101906104bb91906146f1565b6110cb565b005b3480156104ce57600080fd5b506104e960048036038101906104e49190614816565b6111cf565b005b3480156104f757600080fd5b50610512600480360381019061050d9190614816565b6111f1565b005b34801561052057600080fd5b5061053b60048036038101906105369190614816565b6117db565b6040516105489190614ea2565b60405180910390f35b34801561055d57600080fd5b50610566611808565b6040516105739190614ea2565b60405180910390f35b34801561058857600080fd5b506105a3600480360381019061059e9190614816565b6118ad565b005b3480156105b157600080fd5b506105cc60048036038101906105c79190614816565b611b61565b6040516105d99190614de3565b60405180910390f35b3480156105ee57600080fd5b5061060960048036038101906106049190614816565b611c02565b6040516106169190614e5e565b60405180910390f35b34801561062b57600080fd5b5061064660048036038101906106419190614816565b611cee565b604051610657959493929190614ebd565b60405180910390f35b34801561066c57600080fd5b50610687600480360381019061068291906146f1565b612071565b005b34801561069557600080fd5b506106b060048036038101906106ab9190614816565b61213b565b6040516106bd9190614e3c565b60405180910390f35b3480156106d257600080fd5b506106db6121cb565b6040516106e89190614ea2565b60405180910390f35b3480156106fd57600080fd5b506107186004803603810190610713919061478d565b6121de565b6040516107259190614ea2565b60405180910390f35b34801561073a57600080fd5b5061075560048036038101906107509190614816565b612267565b60405161076493929190614f32565b60405180910390f35b34801561077957600080fd5b50610794600480360381019061078f9190614816565b61245f565b005b3480156107a257600080fd5b506107bd60048036038101906107b89190614816565b612644565b6040516107cb929190614e05565b60405180910390f35b3480156107e057600080fd5b506107fb60048036038101906107f69190614816565b612775565b005b34801561080957600080fd5b506108126129aa565b60405161081f9190614dc8565b60405180910390f35b34801561083457600080fd5b5061084f600480360381019061084a919061478d565b6129d4565b60405161085c9190614ea2565b60405180910390f35b34801561087157600080fd5b5061088c600480360381019061088791906147cd565b612a5d565b005b34801561089a57600080fd5b506108b560048036038101906108b0919061478d565b612a77565b005b3480156108c357600080fd5b506108de60048036038101906108d9919061478d565b612b16565b6040516108eb9190614ea2565b60405180910390f35b34801561090057600080fd5b50610909612b9f565b005b34801561091757600080fd5b50610920612ce0565b60405161092d9190614f10565b60405180910390f35b34801561094257600080fd5b5061094b612d72565b6040516109589190614ea2565b60405180910390f35b34801561096d57600080fd5b5061098860048036038101906109839190614816565b612dca565b6040516109959190614ea2565b60405180910390f35b3480156109aa57600080fd5b506109c560048036038101906109c0919061471e565b612e38565b005b3480156109d357600080fd5b506109ee60048036038101906109e99190614816565b61309f565b6040516109fb9190614de3565b60405180910390f35b348015610a1057600080fd5b50610a2b6004803603810190610a269190614816565b613140565b005b348015610a3957600080fd5b50610a546004803603810190610a4f9190614843565b61321a565b005b348015610a6257600080fd5b50610a6b613353565b604051610a789190614dc8565b60405180910390f35b348015610a8d57600080fd5b50610a96613379565b604051610aa39190614ea2565b60405180910390f35b348015610ab857600080fd5b50610ac1613390565b604051610ace9190614dc8565b60405180910390f35b348015610ae357600080fd5b50610aec613398565b604051610af99190614e80565b60405180910390f35b348015610b0e57600080fd5b50610b296004803603810190610b24919061478d565b6133f0565b005b348015610b3757600080fd5b50610b40613485565b604051610b4d9190614f10565b60405180910390f35b348015610b6257600080fd5b50610b7d6004803603810190610b78919061478d565b613513565b005b348015610b8b57600080fd5b50610b9461357b565b604051610ba19190614e5e565b60405180910390f35b348015610bb657600080fd5b50610bd16004803603810190610bcc9190614816565b613654565b604051610bde9190614fce565b60405180910390f35b348015610bf357600080fd5b50610bfc6139c0565b604051610c099190614ea2565b60405180910390f35b348015610c1e57600080fd5b50610c396004803603810190610c34919061478d565b613a18565b604051610c469190614ea2565b60405180910390f35b610c696004803603810190610c649190614816565b613a87565b005b348015610c7757600080fd5b50610c926004803603810190610c8d91906147cd565b613b4c565b005b348015610ca057600080fd5b50610cbb6004803603810190610cb69190614816565b613e7d565b604051610cc89190614ea2565b60405180910390f35b348015610cdd57600080fd5b50610ce6613eaa565b604051610cf39190614ea2565b60405180910390f35b348015610d0857600080fd5b50610d236004803603810190610d1e9190614816565b613f02565b604051610d309190614ea2565b60405180910390f35b348015610d4557600080fd5b50610d4e613f89565b604051610d5b9190614dc8565b60405180910390f35b600260009054906101000a900473ffffffffffffffffffffffffffffffffffffffff1681565b6000600360149054906101000a900460ff1615610da657600080fd5b610db033836121de565b9050919050565b606060166000838152602001908152602001600020805480602002602001604051908101604052809291908181526020016000905b82821015610e98578382906000526020600020018054610e0b90615409565b80601f0160208091040260200160405190810160405280929190818152602001828054610e3790615409565b8015610e845780601f10610e5957610100808354040283529160200191610e84565b820191906000526020600020905b815481529060010190602001808311610e6757829003601f168201915b505050505081526020019060010190610dec565b505050509050919050565b600160009054906101000a900473ffffffffffffffffffffffffffffffffffffffff1681565b600060076000838152602001908152602001600020600a0160009054906101000a900473ffffffffffffffffffffffffffffffffffffffff169050919050565b80610f143382613a18565b610f1d57600080fd5b600360149054906101000a900460ff1615610f3757600080fd5b60006011600084815260200190815260200160002060008573ffffffffffffffffffffffffffffffffffffffff1673ffffffffffffffffffffffffffffffffffffffff16815260200190815260200160002060006101000a81548160ff0219169083151502179055508273ffffffffffffffffffffffffffffffffffffffff167f1af6d16168d33745872119540d28858eed156c5f265206bbf1344fda39a93a3383604051610fe69190614ff0565b60405180910390a2505050565b600160009054906101000a900473ffffffffffffffffffffffffffffffffffffffff1673ffffffffffffffffffffffffffffffffffffffff163373ffffffffffffffffffffffffffffffffffffffff161461104d57600080fd5b600073ffffffffffffffffffffffffffffffffffffffff168173ffffffffffffffffffffffffffffffffffffffff16141561108757600080fd5b80600160006101000a81548173ffffffffffffffffffffffffffffffffffffffff021916908373ffffffffffffffffffffffffffffffffffffffff16021790555050565b600160009054906101000a900473ffffffffffffffffffffffffffffffffffffffff1673ffffffffffffffffffffffffffffffffffffffff163373ffffffffffffffffffffffffffffffffffffffff161461112557600080fd5b600073ffffffffffffffffffffffffffffffffffffffff168173ffffffffffffffffffffffffffffffffffffffff16141561115f57600080fd5b80600360006101000a81548173ffffffffffffffffffffffffffffffffffffffff021916908373ffffffffffffffffffffffffffffffffffffffff1602179055507fa308298a77084def994b565be25bff2e8fbfe7006c2c6b2bacfb84d1ba1f635060405160405180910390a150565b806111da3382613a18565b6111e357600080fd5b6111ed3383613fb3565b5050565b806111fc3382613a18565b806112545750600360009054906101000a900473ffffffffffffffffffffffffffffffffffffffff1673ffffffffffffffffffffffffffffffffffffffff163373ffffffffffffffffffffffffffffffffffffffff16145b61125d57600080fd5b600360149054906101000a900460ff161561127757600080fd5b42600760008481526020019081526020016000206005018190555060036007600084815260200190815260200160002060020160006101000a81548160ff021916908360038111156112cc576112cb615513565b5b021790555060005b600760008481526020019081526020016000206006015481101561147657600060186000858152602001908152602001600020828154811061131957611318615571565b5b9060005260206000200160009054906101000a900473ffffffffffffffffffffffffffffffffffffffff1690506017600085815260200190815260200160002060008273ffffffffffffffffffffffffffffffffffffffff1673ffffffffffffffffffffffffffffffffffffffff16815260200190815260200160002060006101000a81549060ff02191690556015600085815260200190815260200160002060008273ffffffffffffffffffffffffffffffffffffffff1673ffffffffffffffffffffffffffffffffffffffff168152602001908152602001600020600061140291906143ea565b600c600085815260200190815260200160002060008273ffffffffffffffffffffffffffffffffffffffff1673ffffffffffffffffffffffffffffffffffffffff16815260200190815260200160002060006101000a81549060ff021916905550808061146e9061546c565b9150506112d4565b50601660008381526020019081526020016000206000611496919061442a565b6018600083815260200190815260200160002060006114b5919061444b565b600860008381526020019081526020016000206007600084815260200190815260200160002090806001815401808255809150506001900390600052602060002090600e020160009091909190915060008201548160000155600182018160010190805461152290615409565b61152d92919061446c565b506002820160009054906101000a900460ff168160020160006101000a81548160ff0219169083600381111561156657611565615513565b5b02179055506003820154816003015560048201548160040155600582015481600501556006820154816006015560078201816007019080546115a790615409565b6115b292919061446c565b5060088201816008019080546115c790615409565b6115d292919061446c565b5060098201816009019080546115e790615409565b6115f292919061446c565b50600a820160009054906101000a900473ffffffffffffffffffffffffffffffffffffffff1681600a0160006101000a81548173ffffffffffffffffffffffffffffffffffffffff021916908373ffffffffffffffffffffffffffffffffffffffff160217905550600b82015481600b0155600c82015481600c0155600d82015481600d0155505060006007600084815260200190815260200160002060060181905550600060076000848152602001908152602001600020600b0181905550600060076000848152602001908152602001600020600c0181905550600060076000848152602001908152602001600020600d01819055503373ffffffffffffffffffffffffffffffffffffffff167f5dc1fe5ab986a852c4eda8e8bb94247d13307065c593fb83f1a09be27367938283600060405161173392919061500b565b60405180910390a23373ffffffffffffffffffffffffffffffffffffffff167f0695e999be8100bdb5bee8612337296508d527eae78c65b8f170eacb5a3b439d836040516117819190614ff0565b60405180910390a23373ffffffffffffffffffffffffffffffffffffffff167f6f45a19e8850c727d0de9f32e0d8691324a9a74ffb4347652e6404138b1d8165836040516117cf9190614ff0565b60405180910390a25050565b6000600360149054906101000a900460ff16156117f757600080fd5b61180133836129d4565b9050919050565b6000600160009054906101000a900473ffffffffffffffffffffffffffffffffffffffff1673ffffffffffffffffffffffffffffffffffffffff163373ffffffffffffffffffffffffffffffffffffffff161461186457600080fd5b600360149054906101000a900460ff1661187d57600080fd5b6000600360146101000a81548160ff021916908315150217905550600360149054906101000a900460ff16905090565b806118b833826121de565b6118c157600080fd5b600360149054906101000a900460ff16156118db57600080fd5b60016017600084815260200190815260200160002060003373ffffffffffffffffffffffffffffffffffffffff1673ffffffffffffffffffffffffffffffffffffffff16815260200190815260200160002060006101000a81548160ff02191690831515021790555060186000838152602001908152602001600020339080600181540180825580915050600190039060005260206000200160009091909190916101000a81548173ffffffffffffffffffffffffffffffffffffffff021916908373ffffffffffffffffffffffffffffffffffffffff16021790555060006015600084815260200190815260200160002060003373ffffffffffffffffffffffffffffffffffffffff1673ffffffffffffffffffffffffffffffffffffffff1681526020019081526020016000208054611a1590615409565b80601f0160208091040260200160405190810160405280929190818152602001828054611a4190615409565b8015611a8e5780601f10611a6357610100808354040283529160200191611a8e565b820191906000526020600020905b815481529060010190602001808311611a7157829003601f168201915b505050505090506016600084815260200190815260200160002081908060018154018082558091505060019003906000526020600020016000909190919091509080519060200190611ae19291906144f9565b50600760008481526020019081526020016000206006016000815480929190611b099061546c565b91905055503373ffffffffffffffffffffffffffffffffffffffff167f0695e999be8100bdb5bee8612337296508d527eae78c65b8f170eacb5a3b439d84604051611b549190614ff0565b60405180910390a2505050565b606060186000838152602001908152602001600020805480602002602001604051908101604052809291908181526020018280548015611bf657602002820191906000526020600020905b8160009054906101000a900473ffffffffffffffffffffffffffffffffffffffff1673ffffffffffffffffffffffffffffffffffffffff1681526020019060010190808311611bac575b50505050509050919050565b606060136000838152602001908152602001600020805480602002602001604051908101604052809291908181526020016000905b82821015611ce3578382906000526020600020018054611c5690615409565b80601f0160208091040260200160405190810160405280929190818152602001828054611c8290615409565b8015611ccf5780601f10611ca457610100808354040283529160200191611ccf565b820191906000526020600020905b815481529060010190602001808311611cb257829003601f168201915b505050505081526020019060010190611c37565b505050509050919050565b60008060008060008060076000888152602001908152602001600020604051806101c001604052908160008201548152602001600182018054611d3090615409565b80601f0160208091040260200160405190810160405280929190818152602001828054611d5c90615409565b8015611da95780601f10611d7e57610100808354040283529160200191611da9565b820191906000526020600020905b815481529060010190602001808311611d8c57829003601f168201915b505050505081526020016002820160009054906101000a900460ff166003811115611dd757611dd6615513565b5b6003811115611de957611de8615513565b5b815260200160038201548152602001600482015481526020016005820154815260200160068201548152602001600782018054611e2590615409565b80601f0160208091040260200160405190810160405280929190818152602001828054611e5190615409565b8015611e9e5780601f10611e7357610100808354040283529160200191611e9e565b820191906000526020600020905b815481529060010190602001808311611e8157829003601f168201915b50505050508152602001600882018054611eb790615409565b80601f0160208091040260200160405190810160405280929190818152602001828054611ee390615409565b8015611f305780601f10611f0557610100808354040283529160200191611f30565b820191906000526020600020905b815481529060010190602001808311611f1357829003601f168201915b50505050508152602001600982018054611f4990615409565b80601f0160208091040260200160405190810160405280929190818152602001828054611f7590615409565b8015611fc25780601f10611f9757610100808354040283529160200191611fc2565b820191906000526020600020905b815481529060010190602001808311611fa557829003601f168201915b50505050508152602001600a820160009054906101000a900473ffffffffffffffffffffffffffffffffffffffff1673ffffffffffffffffffffffffffffffffffffffff1673ffffffffffffffffffffffffffffffffffffffff168152602001600b8201548152602001600c8201548152602001600d82015481525050905080604001518160c00151826101600151836101800151846101a00151955095509550955095505091939590929450565b600160009054906101000a900473ffffffffffffffffffffffffffffffffffffffff1673ffffffffffffffffffffffffffffffffffffffff163373ffffffffffffffffffffffffffffffffffffffff16146120cb57600080fd5b80600260006101000a81548173ffffffffffffffffffffffffffffffffffffffff021916908373ffffffffffffffffffffffffffffffffffffffff1602179055507f162e32528b5907ecf876b3b7a4e5e0edf878642e3ec25852e3c35af1a4e1c04060405160405180910390a150565b6060601460008381526020019081526020016000208054806020026020016040519081016040528092919081815260200182805480156121bf57602002820191906000526020600020906000905b82829054906101000a900460ff161515815260200190600101906020826000010492830192600103820291508084116121895790505b50505050509050919050565b600360149054906101000a900460ff1681565b6000600360149054906101000a900460ff16156121fa57600080fd5b600115156011600084815260200190815260200160002060008573ffffffffffffffffffffffffffffffffffffffff1673ffffffffffffffffffffffffffffffffffffffff16815260200190815260200160002060009054906101000a900460ff16151514905092915050565b60608060606007600085815260200190815260200160002060070160076000868152602001908152602001600020600801600760008781526020019081526020016000206009018280546122ba90615409565b80601f01602080910402602001604051908101604052809291908181526020018280546122e690615409565b80156123335780601f1061230857610100808354040283529160200191612333565b820191906000526020600020905b81548152906001019060200180831161231657829003601f168201915b5050505050925081805461234690615409565b80601f016020809104026020016040519081016040528092919081815260200182805461237290615409565b80156123bf5780601f10612394576101008083540402835291602001916123bf565b820191906000526020600020905b8154815290600101906020018083116123a257829003601f168201915b505050505091508080546123d290615409565b80601f01602080910402602001604051908101604052809291908181526020018280546123fe90615409565b801561244b5780601f106124205761010080835404028352916020019161244b565b820191906000526020600020905b81548152906001019060200180831161242e57829003601f168201915b505050505090509250925092509193909250565b8061246a33826129d4565b61247357600080fd5b813360011515600c600084815260200190815260200160002060003373ffffffffffffffffffffffffffffffffffffffff1673ffffffffffffffffffffffffffffffffffffffff16815260200190815260200160002060009054906101000a900460ff16151514156124e457600080fd5b600360149054906101000a900460ff16156124fe57600080fd5b6001600c600086815260200190815260200160002060003373ffffffffffffffffffffffffffffffffffffffff1673ffffffffffffffffffffffffffffffffffffffff16815260200190815260200160002060006101000a81548160ff02191690831515021790555060076000858152602001908152602001600020600d01600081548092919061258e9061546c565b91905055503373ffffffffffffffffffffffffffffffffffffffff166108fc60076000878152602001908152602001600020600c01549081150290604051600060405180830381858888f193505050501580156125ef573d6000803e3d6000fd5b503373ffffffffffffffffffffffffffffffffffffffff167f1a31e733a172afcf46074b3106c17f0c298e226442682a03c1e99ce256139ec2856040516126369190614ff0565b60405180910390a250505050565b606080600d6000848152602001908152602001600020600f6000858152602001908152602001600020818054806020026020016040519081016040528092919081815260200182805480156126ee57602002820191906000526020600020905b8160009054906101000a900473ffffffffffffffffffffffffffffffffffffffff1673ffffffffffffffffffffffffffffffffffffffff16815260200190600101908083116126a4575b505050505091508080548060200260200160405190810160405280929190818152602001828054801561276557602002820191906000526020600020906000905b82829054906101000a900460ff1615158152602001906001019060208260000104928301926001038202915080841161272f5790505b5050505050905091509150915091565b806127803382613a18565b61278957600080fd5b600360149054906101000a900460ff16156127a357600080fd5b6001600760008481526020019081526020016000206006015410156127fd576040517f08c379a00000000000000000000000000000000000000000000000000000000081526004016127f490614fae565b60405180910390fd5b4260076000848152602001908152602001600020600401819055506000606460045460076000868152602001908152602001600020600b015461284091906152ba565b61284a9190615289565b9050600260009054906101000a900473ffffffffffffffffffffffffffffffffffffffff1673ffffffffffffffffffffffffffffffffffffffff166108fc829081150290604051600060405180830381858888f193505050501580156128b4573d6000803e3d6000fd5b5060008160076000868152602001908152602001600020600b01546128d99190615314565b90506007600085815260200190815260200160002060060154816128fd9190615289565b60076000868152602001908152602001600020600c018190555060026007600086815260200190815260200160002060020160006101000a81548160ff0219169083600381111561295157612950615513565b5b02179055503373ffffffffffffffffffffffffffffffffffffffff167fef898a6941c945450e9bbdad4a76fcd0f51f42f7e251fddcb1e5479ba786d5e48560405161299c9190614ff0565b60405180910390a250505050565b6000600260009054906101000a900473ffffffffffffffffffffffffffffffffffffffff16905090565b6000600360149054906101000a900460ff16156129f057600080fd5b600115156017600084815260200190815260200160002060008573ffffffffffffffffffffffffffffffffffffffff1673ffffffffffffffffffffffffffffffffffffffff16815260200190815260200160002060009054906101000a900460ff16151514905092915050565b8060009080519060200190612a739291906144f9565b5050565b600360009054906101000a900473ffffffffffffffffffffffffffffffffffffffff1673ffffffffffffffffffffffffffffffffffffffff163373ffffffffffffffffffffffffffffffffffffffff1614612ad157600080fd5b612adb82826140fd565b7f6d08be0da99b3a8dabb8a9d0bd4ebece8d00f747b0d0e6c29f97508f1a40a29181604051612b0a9190614ff0565b60405180910390a15050565b6000600360149054906101000a900460ff1615612b3257600080fd5b60076000838152602001908152602001600020600a0160009054906101000a900473ffffffffffffffffffffffffffffffffffffffff1673ffffffffffffffffffffffffffffffffffffffff168373ffffffffffffffffffffffffffffffffffffffff1614905092915050565b600360009054906101000a900473ffffffffffffffffffffffffffffffffffffffff1673ffffffffffffffffffffffffffffffffffffffff163373ffffffffffffffffffffffffffffffffffffffff161480612c485750600160009054906101000a900473ffffffffffffffffffffffffffffffffffffffff1673ffffffffffffffffffffffffffffffffffffffff163373ffffffffffffffffffffffffffffffffffffffff16145b80612ca05750600260009054906101000a900473ffffffffffffffffffffffffffffffffffffffff1673ffffffffffffffffffffffffffffffffffffffff163373ffffffffffffffffffffffffffffffffffffffff16145b612ca957600080fd5b600360149054906101000a900460ff1615612cc357600080fd5b6001600360146101000a81548160ff021916908315150217905550565b606060008054612cef90615409565b80601f0160208091040260200160405190810160405280929190818152602001828054612d1b90615409565b8015612d685780601f10612d3d57610100808354040283529160200191612d68565b820191906000526020600020905b815481529060010190602001808311612d4b57829003601f168201915b5050505050905090565b6000600260009054906101000a900473ffffffffffffffffffffffffffffffffffffffff1673ffffffffffffffffffffffffffffffffffffffff163373ffffffffffffffffffffffffffffffffffffffff1614905090565b6000600115156009600084815260200190815260200160002060003373ffffffffffffffffffffffffffffffffffffffff1673ffffffffffffffffffffffffffffffffffffffff16815260200190815260200160002060009054906101000a900460ff161515149050919050565b600360149054906101000a900460ff1615612e5257600080fd5b80612e5d3382613a18565b612e6657600080fd5b60016011600084815260200190815260200160002060008673ffffffffffffffffffffffffffffffffffffffff1673ffffffffffffffffffffffffffffffffffffffff16815260200190815260200160002060006101000a81548160ff02191690831515021790555060126000838152602001908152602001600020849080600181540180825580915050600190039060005260206000200160009091909190916101000a81548173ffffffffffffffffffffffffffffffffffffffff021916908373ffffffffffffffffffffffffffffffffffffffff1602179055506013600083815260200190815260200160002083908060018154018082558091505060019003906000526020600020016000909190919091509080519060200190612f8f9291906144f9565b50826015600084815260200190815260200160002060008673ffffffffffffffffffffffffffffffffffffffff1673ffffffffffffffffffffffffffffffffffffffff1681526020019081526020016000209080519060200190612ff49291906144f9565b5060146000838152602001908152602001600020600190806001815401808255809150506001900390600052602060002090602091828204019190069091909190916101000a81548160ff0219169083151502179055508373ffffffffffffffffffffffffffffffffffffffff167f46b8357d30dedd734a71d059a385f46b6e667bff20233f907477760207f88965836040516130919190614ff0565b60405180910390a250505050565b60606012600083815260200190815260200160002080548060200260200160405190810160405280929190818152602001828054801561313457602002820191906000526020600020905b8160009054906101000a900473ffffffffffffffffffffffffffffffffffffffff1673ffffffffffffffffffffffffffffffffffffffff16815260200190600101908083116130ea575b50505050509050919050565b8061314b3382613a18565b61315457600080fd5b600360149054906101000a900460ff161561316e57600080fd5b60016007600084815260200190815260200160002060020160006101000a81548160ff021916908360038111156131a8576131a7615513565b5b02179055504260076000848152602001908152602001600020600301819055503373ffffffffffffffffffffffffffffffffffffffff167ff77c6f27499b698205f54058c2914a340e1300c2bc0d9a819e7aebfbaabbbb938360405161320e9190614ff0565b60405180910390a25050565b836132253382612b16565b61322e57600080fd5b60008451111561326457836007600087815260200190815260200160002060070190805190602001906132629291906144f9565b505b60008351111561329a57826007600087815260200190815260200160002060080190805190602001906132989291906144f9565b505b6000825111156132d057816007600087815260200190815260200160002060090190805190602001906132ce9291906144f9565b505b7fcd9ad49d834aeea746bafd2d26eebd3d01ebac2d8f5d3f53d7f3884292e5835f856007600088815260200190815260200160002060070160076000898152602001908152602001600020600801600760008a81526020019081526020016000206009016040516133449493929190615034565b60405180910390a15050505050565b600360009054906101000a900473ffffffffffffffffffffffffffffffffffffffff1681565b6000600360149054906101000a900460ff16905090565b600033905090565b606060058054806020026020016040519081016040528092919081815260200182805480156133e657602002820191906000526020600020905b8154815260200190600101908083116133d2575b5050505050905090565b806133fb3382613a18565b806134535750600360009054906101000a900473ffffffffffffffffffffffffffffffffffffffff1673ffffffffffffffffffffffffffffffffffffffff163373ffffffffffffffffffffffffffffffffffffffff16145b61345c57600080fd5b600360149054906101000a900460ff161561347657600080fd5b61348083836142da565b505050565b6000805461349290615409565b80601f01602080910402602001604051908101604052809291908181526020018280546134be90615409565b801561350b5780601f106134e05761010080835404028352916020019161350b565b820191906000526020600020905b8154815290600101906020018083116134ee57829003601f168201915b505050505081565b600360009054906101000a900473ffffffffffffffffffffffffffffffffffffffff1673ffffffffffffffffffffffffffffffffffffffff163373ffffffffffffffffffffffffffffffffffffffff161461356d57600080fd5b6135778282613fb3565b5050565b60606006805480602002602001604051908101604052809291908181526020016000905b8282101561364b5783829060005260206000200180546135be90615409565b80601f01602080910402602001604051908101604052809291908181526020018280546135ea90615409565b80156136375780601f1061360c57610100808354040283529160200191613637565b820191906000526020600020905b81548152906001019060200180831161361a57829003601f168201915b50505050508152602001906001019061359f565b50505050905090565b61365c61457f565b816136673382613a18565b61367057600080fd5b60076000848152602001908152602001600020604051806101c0016040529081600082015481526020016001820180546136a990615409565b80601f01602080910402602001604051908101604052809291908181526020018280546136d590615409565b80156137225780601f106136f757610100808354040283529160200191613722565b820191906000526020600020905b81548152906001019060200180831161370557829003601f168201915b505050505081526020016002820160009054906101000a900460ff1660038111156137505761374f615513565b5b600381111561376257613761615513565b5b81526020016003820154815260200160048201548152602001600582015481526020016006820154815260200160078201805461379e90615409565b80601f01602080910402602001604051908101604052809291908181526020018280546137ca90615409565b80156138175780601f106137ec57610100808354040283529160200191613817565b820191906000526020600020905b8154815290600101906020018083116137fa57829003601f168201915b5050505050815260200160088201805461383090615409565b80601f016020809104026020016040519081016040528092919081815260200182805461385c90615409565b80156138a95780601f1061387e576101008083540402835291602001916138a9565b820191906000526020600020905b81548152906001019060200180831161388c57829003601f168201915b505050505081526020016009820180546138c290615409565b80601f01602080910402602001604051908101604052809291908181526020018280546138ee90615409565b801561393b5780601f106139105761010080835404028352916020019161393b565b820191906000526020600020905b81548152906001019060200180831161391e57829003601f168201915b50505050508152602001600a820160009054906101000a900473ffffffffffffffffffffffffffffffffffffffff1673ffffffffffffffffffffffffffffffffffffffff1673ffffffffffffffffffffffffffffffffffffffff168152602001600b8201548152602001600c8201548152602001600d82015481525050915050919050565b6000600160009054906101000a900473ffffffffffffffffffffffffffffffffffffffff1673ffffffffffffffffffffffffffffffffffffffff163373ffffffffffffffffffffffffffffffffffffffff1614905090565b6000600115156009600084815260200190815260200160002060008573ffffffffffffffffffffffffffffffffffffffff1673ffffffffffffffffffffffffffffffffffffffff16815260200190815260200160002060009054906101000a900460ff16151514905092915050565b80613a923382612b16565b613a9b57600080fd5b600360149054906101000a900460ff1615613ab557600080fd5b3460076000848152602001908152602001600020600b016000828254613adb9190615233565b925050819055503373ffffffffffffffffffffffffffffffffffffffff167f5dc1fe5ab986a852c4eda8e8bb94247d13307065c593fb83f1a09be2736793828360076000868152602001908152602001600020600b0154604051613b4092919061508e565b60405180910390a25050565b600360009054906101000a900473ffffffffffffffffffffffffffffffffffffffff1673ffffffffffffffffffffffffffffffffffffffff163373ffffffffffffffffffffffffffffffffffffffff1614613ba657600080fd5b600360149054906101000a900460ff1615613bc057600080fd5b60004290506000604051806101c0016040528083815260200184815260200160006003811115613bf357613bf2615513565b5b815260200142815260200142815260200142815260200160008152602001604051806020016040528060008152508152602001604051806020016040528060008152508152602001604051806020016040528060008152508152602001600073ffffffffffffffffffffffffffffffffffffffff1681526020016000815260200160008152602001600081525090508060076000848152602001908152602001600020600082015181600001556020820151816001019080519060200190613cbc9291906144f9565b5060408201518160020160006101000a81548160ff02191690836003811115613ce857613ce7615513565b5b0217905550606082015181600301556080820151816004015560a0820151816005015560c0820151816006015560e0820151816007019080519060200190613d319291906144f9565b50610100820151816008019080519060200190613d4f9291906144f9565b50610120820151816009019080519060200190613d6d9291906144f9565b5061014082015181600a0160006101000a81548173ffffffffffffffffffffffffffffffffffffffff021916908373ffffffffffffffffffffffffffffffffffffffff16021790555061016082015181600b015561018082015181600c01556101a082015181600d01559050506005829080600181540180825580915050600190039060005260206000200160009091909190915055600683908060018154018082558091505060019003906000526020600020016000909190919091509080519060200190613e3e9291906144f9565b507f5937a473913f56daf7dea7a6e821970acaa73f35555cf88f70c54f243cd98a9e8383604051613e70929190614f7e565b60405180910390a1505050565b6000600360149054906101000a900460ff1615613e9957600080fd5b613ea33383612b16565b9050919050565b6000600360009054906101000a900473ffffffffffffffffffffffffffffffffffffffff1673ffffffffffffffffffffffffffffffffffffffff163373ffffffffffffffffffffffffffffffffffffffff1614905090565b6000613f0e33836129d4565b613f1b5760009050613f84565b60011515600c600084815260200190815260200160002060003373ffffffffffffffffffffffffffffffffffffffff1673ffffffffffffffffffffffffffffffffffffffff16815260200190815260200160002060009054906101000a900460ff161515141590505b919050565b6000600360009054906101000a900473ffffffffffffffffffffffffffffffffffffffff16905090565b60006009600083815260200190815260200160002060008473ffffffffffffffffffffffffffffffffffffffff1673ffffffffffffffffffffffffffffffffffffffff16815260200190815260200160002060006101000a81548160ff0219169083151502179055506000600a600083815260200190815260200160002060008473ffffffffffffffffffffffffffffffffffffffff1673ffffffffffffffffffffffffffffffffffffffff1681526020019081526020016000205490506000600f6000848152602001908152602001600020828154811061409857614097615571565b5b90600052602060002090602091828204019190066101000a81548160ff0219169083151502179055507f99f4c949f294dd13aa62d19c1344b81968121fe570d11657ebd54aae55ac0f20826040516140f09190614ff0565b60405180910390a1505050565b60016009600083815260200190815260200160002060008473ffffffffffffffffffffffffffffffffffffffff1673ffffffffffffffffffffffffffffffffffffffff16815260200190815260200160002060006101000a81548160ff021916908315150217905550600b54600a600083815260200190815260200160002060008473ffffffffffffffffffffffffffffffffffffffff1673ffffffffffffffffffffffffffffffffffffffff16815260200190815260200160002081905550600b60008154809291906141d09061546c565b9190505550600d6000828152602001908152602001600020829080600181540180825580915050600190039060005260206000200160009091909190916101000a81548173ffffffffffffffffffffffffffffffffffffffff021916908373ffffffffffffffffffffffffffffffffffffffff160217905550600f6000828152602001908152602001600020600190806001815401808255809150506001900390600052602060002090602091828204019190069091909190916101000a81548160ff0219169083151502179055507f6d08be0da99b3a8dabb8a9d0bd4ebece8d00f747b0d0e6c29f97508f1a40a291816040516142ce9190614ff0565b60405180910390a15050565b60016010600083815260200190815260200160002060008473ffffffffffffffffffffffffffffffffffffffff1673ffffffffffffffffffffffffffffffffffffffff16815260200190815260200160002060006101000a81548160ff0219169083151502179055508160076000838152602001908152602001600020600a0160006101000a81548173ffffffffffffffffffffffffffffffffffffffff021916908373ffffffffffffffffffffffffffffffffffffffff1602179055508173ffffffffffffffffffffffffffffffffffffffff167f5fd6d0b7e707fe344bd2a1887f9d0eeea8bfcac6f339ba4200e74f0647f101c0826040516143de9190614ff0565b60405180910390a25050565b5080546143f690615409565b6000825580601f106144085750614427565b601f0160209004906000526020600020908101906144269190614616565b5b50565b50805460008255906000526020600020908101906144489190614633565b50565b50805460008255906000526020600020908101906144699190614616565b50565b82805461447890615409565b90600052602060002090601f01602090048101928261449a57600085556144e8565b82601f106144ab57805485556144e8565b828001600101855582156144e857600052602060002091601f016020900482015b828111156144e75782548255916001019190600101906144cc565b5b5090506144f59190614616565b5090565b82805461450590615409565b90600052602060002090601f016020900481019282614527576000855561456e565b82601f1061454057805160ff191683800117855561456e565b8280016001018555821561456e579182015b8281111561456d578251825591602001919060010190614552565b5b50905061457b9190614616565b5090565b604051806101c001604052806000815260200160608152602001600060038111156145ad576145ac615513565b5b815260200160008152602001600081526020016000815260200160008152602001606081526020016060815260200160608152602001600073ffffffffffffffffffffffffffffffffffffffff1681526020016000815260200160008152602001600081525090565b5b8082111561462f576000816000905550600101614617565b5090565b5b80821115614653576000818161464a91906143ea565b50600101614634565b5090565b600061466a614665846150dc565b6150b7565b905082815260208101848484011115614686576146856155d4565b5b6146918482856153c7565b509392505050565b6000813590506146a881615657565b92915050565b600082601f8301126146c3576146c26155cf565b5b81356146d3848260208601614657565b91505092915050565b6000813590506146eb8161566e565b92915050565b600060208284031215614707576147066155de565b5b600061471584828501614699565b91505092915050565b600080600060608486031215614737576147366155de565b5b600061474586828701614699565b935050602084013567ffffffffffffffff811115614766576147656155d9565b5b614772868287016146ae565b9250506040614783868287016146dc565b9150509250925092565b600080604083850312156147a4576147a36155de565b5b60006147b285828601614699565b92505060206147c3858286016146dc565b9150509250929050565b6000602082840312156147e3576147e26155de565b5b600082013567ffffffffffffffff811115614801576148006155d9565b5b61480d848285016146ae565b91505092915050565b60006020828403121561482c5761482b6155de565b5b600061483a848285016146dc565b91505092915050565b6000806000806080858703121561485d5761485c6155de565b5b600061486b878288016146dc565b945050602085013567ffffffffffffffff81111561488c5761488b6155d9565b5b614898878288016146ae565b935050604085013567ffffffffffffffff8111156148b9576148b86155d9565b5b6148c5878288016146ae565b925050606085013567ffffffffffffffff8111156148e6576148e56155d9565b5b6148f2878288016146ae565b91505092959194509250565b600061490a838361495a565b60208301905092915050565b60006149228383614b07565b60208301905092915050565b600061493a8383614b52565b905092915050565b600061494e8383614daa565b60208301905092915050565b61496381615348565b82525050565b61497281615348565b82525050565b600061498382615162565b61498d81856151cd565b93506149988361510d565b8060005b838110156149c95781516149b088826148fe565b97506149bb83615199565b92505060018101905061499c565b5085935050505092915050565b60006149e18261516d565b6149eb81856151de565b93506149f68361511d565b8060005b83811015614a27578151614a0e8882614916565b9750614a19836151a6565b9250506001810190506149fa565b5085935050505092915050565b6000614a3f82615178565b614a4981856151ef565b935083602082028501614a5b8561512d565b8060005b85811015614a975784840389528151614a78858261492e565b9450614a83836151b3565b925060208a01995050600181019050614a5f565b50829750879550505050505092915050565b6000614ab482615183565b614abe8185615200565b9350614ac98361513d565b8060005b83811015614afa578151614ae18882614942565b9750614aec836151c0565b925050600181019050614acd565b5085935050505092915050565b614b108161535a565b82525050565b614b1f8161535a565b82525050565b614b2e816153a3565b82525050565b614b3d816153a3565b82525050565b614b4c816153b5565b82525050565b6000614b5d8261518e565b614b678185615211565b9350614b778185602086016153d6565b614b80816155e3565b840191505092915050565b6000614b968261518e565b614ba08185615222565b9350614bb08185602086016153d6565b614bb9816155e3565b840191505092915050565b60008154614bd181615409565b614bdb8186615222565b94506001821660008114614bf65760018114614c0857614c3b565b60ff1983168652602086019350614c3b565b614c118561514d565b60005b83811015614c3357815481890152600182019150602081019050614c14565b808801955050505b50505092915050565b6000614c51602d83615222565b9150614c5c826155f4565b604082019050919050565b60006101c083016000830151614c806000860182614daa565b5060208301518482036020860152614c988282614b52565b9150506040830151614cad6040860182614b25565b506060830151614cc06060860182614daa565b506080830151614cd36080860182614daa565b5060a0830151614ce660a0860182614daa565b5060c0830151614cf960c0860182614daa565b5060e083015184820360e0860152614d118282614b52565b915050610100830151848203610100860152614d2d8282614b52565b915050610120830151848203610120860152614d498282614b52565b915050610140830151614d6061014086018261495a565b50610160830151614d75610160860182614daa565b50610180830151614d8a610180860182614daa565b506101a0830151614d9f6101a0860182614daa565b508091505092915050565b614db381615399565b82525050565b614dc281615399565b82525050565b6000602082019050614ddd6000830184614969565b92915050565b60006020820190508181036000830152614dfd8184614978565b905092915050565b60006040820190508181036000830152614e1f8185614978565b90508181036020830152614e3381846149d6565b90509392505050565b60006020820190508181036000830152614e5681846149d6565b905092915050565b60006020820190508181036000830152614e788184614a34565b905092915050565b60006020820190508181036000830152614e9a8184614aa9565b905092915050565b6000602082019050614eb76000830184614b16565b92915050565b600060a082019050614ed26000830188614b34565b614edf6020830187614db9565b614eec6040830186614db9565b614ef96060830185614db9565b614f066080830184614db9565b9695505050505050565b60006020820190508181036000830152614f2a8184614b8b565b905092915050565b60006060820190508181036000830152614f4c8186614b8b565b90508181036020830152614f608185614b8b565b90508181036040830152614f748184614b8b565b9050949350505050565b60006040820190508181036000830152614f988185614b8b565b9050614fa76020830184614db9565b9392505050565b60006020820190508181036000830152614fc781614c44565b9050919050565b60006020820190508181036000830152614fe88184614c67565b905092915050565b60006020820190506150056000830184614db9565b92915050565b60006040820190506150206000830185614db9565b61502d6020830184614b43565b9392505050565b60006080820190506150496000830187614db9565b818103602083015261505b8186614bc4565b9050818103604083015261506f8185614bc4565b905081810360608301526150838184614bc4565b905095945050505050565b60006040820190506150a36000830185614db9565b6150b06020830184614db9565b9392505050565b60006150c16150d2565b90506150cd828261543b565b919050565b6000604051905090565b600067ffffffffffffffff8211156150f7576150f66155a0565b5b615100826155e3565b9050602081019050919050565b6000819050602082019050919050565b6000819050602082019050919050565b6000819050602082019050919050565b6000819050602082019050919050565b60008190508160005260206000209050919050565b600081519050919050565b600081519050919050565b600081519050919050565b600081519050919050565b600081519050919050565b6000602082019050919050565b6000602082019050919050565b6000602082019050919050565b6000602082019050919050565b600082825260208201905092915050565b600082825260208201905092915050565b600082825260208201905092915050565b600082825260208201905092915050565b600082825260208201905092915050565b600082825260208201905092915050565b600061523e82615399565b915061524983615399565b9250827fffffffffffffffffffffffffffffffffffffffffffffffffffffffffffffffff0382111561527e5761527d6154b5565b5b828201905092915050565b600061529482615399565b915061529f83615399565b9250826152af576152ae6154e4565b5b828204905092915050565b60006152c582615399565b91506152d083615399565b9250817fffffffffffffffffffffffffffffffffffffffffffffffffffffffffffffffff0483118215151615615309576153086154b5565b5b828202905092915050565b600061531f82615399565b915061532a83615399565b92508282101561533d5761533c6154b5565b5b828203905092915050565b600061535382615379565b9050919050565b60008115159050919050565b600081905061537482615643565b919050565b600073ffffffffffffffffffffffffffffffffffffffff82169050919050565b6000819050919050565b60006153ae82615366565b9050919050565b60006153c082615399565b9050919050565b82818337600083830152505050565b60005b838110156153f45780820151818401526020810190506153d9565b83811115615403576000848401525b50505050565b6000600282049050600182168061542157607f821691505b6020821081141561543557615434615542565b5b50919050565b615444826155e3565b810181811067ffffffffffffffff82111715615463576154626155a0565b5b80604052505050565b600061547782615399565b91507fffffffffffffffffffffffffffffffffffffffffffffffffffffffffffffffff8214156154aa576154a96154b5565b5b600182019050919050565b7f4e487b7100000000000000000000000000000000000000000000000000000000600052601160045260246000fd5b7f4e487b7100000000000000000000000000000000000000000000000000000000600052601260045260246000fd5b7f4e487b7100000000000000000000000000000000000000000000000000000000600052602160045260246000fd5b7f4e487b7100000000000000000000000000000000000000000000000000000000600052602260045260246000fd5b7f4e487b7100000000000000000000000000000000000000000000000000000000600052603260045260246000fd5b7f4e487b7100000000000000000000000000000000000000000000000000000000600052604160045260246000fd5b600080fd5b600080fd5b600080fd5b600080fd5b6000601f19601f8301169050919050565b7f43616e277420656e6420726567697374726174696f6e2077697468207a65726f60008201527f2072656769737472616e74732100000000000000000000000000000000000000602082015250565b6004811061565457615653615513565b5b50565b61566081615348565b811461566b57600080fd5b50565b61567781615399565b811461568257600080fd5b5056fea2646970667358221220d4ab84b32dc0fca471fdf813768410f0f088424360bcb94f6ac043e295a51e8364736f6c63430008060033",
  "immutableReferences": {},
  "source": "// SPDX-License-Identifier: MIT\npragma solidity ^0.8.0;\n\nimport \"./ContributorManager.sol\";\n\ncontract AdminsManager is ContributorManager {\n    // event AdminAdded(address indexed account, uint256 groupId);\n    // event AdminRemoved(address indexed account, uint256 groupId);\n\n    event GroupCreated(string groupName, uint256 groupId);\n    event EventStarted(address indexed startedBy, uint256 groupId);\n    event RegistrationEnded(address indexed endedBy, uint256 groupId);\n    event EventEnded(address indexed endedBy, uint256 groupId);\n    event AdminAdded(uint256 groupId);\n    event AdminRemoved(uint256 groupId);\n\n    event CalculatedPot(\n        uint256 registeredRecipientCount,\n        uint256 winningsPerRecipient\n    );\n\n    constructor() {}\n\n    modifier onlyAdmins(uint256 groupId) {\n        require(isAdmin(msg.sender, groupId));\n        _;\n    }\n\n    function isAdmin(address account, uint256 groupId)\n        public\n        view\n        returns (bool)\n    {\n        return admins[groupId][account] == true;\n    }\n\n    function amIAdmin(uint256 groupId) external view returns (bool) {\n        return admins[groupId][msg.sender] == true;\n    }\n\n    function getAdminsForGroup(uint256 groupId)\n        external\n        view\n        returns (address[] memory, bool[] memory)\n    {\n        return (adminAddresses[groupId], adminEnabled[groupId]);\n    }\n\n    modifier onlyAdminsOrCOO(uint256 groupId) {\n        require(isAdmin(msg.sender, groupId) || msg.sender == cooAddress);\n        _;\n    }\n\n    // TODO - allow COO to give \"admin-granting power\" to other admins\n    function addAdmin(address account, uint256 groupId) external onlyCOO {\n        _addAdmin(account, groupId);\n\n        emit AdminAdded(groupId);\n    }\n\n    function removeAdmin(address account, uint256 groupId) external onlyCOO {\n        _removeAdmin(account, groupId);\n    }\n\n    function renounceAdmin(uint256 groupId) public onlyAdmins(groupId) {\n        _removeAdmin(msg.sender, groupId);\n    }\n\n    function _addAdmin(address account, uint256 groupId) internal {\n        admins[groupId][account] = true;\n\n        adminAddressToIndex[groupId][account] = adminAddressToIndexNextIndex;\n        adminAddressToIndexNextIndex++;\n\n        adminAddresses[groupId].push(account);\n        adminEnabled[groupId].push(true);\n        // TODO - give admins human readable names\n\n        emit AdminAdded(groupId);\n    }\n\n    function _removeAdmin(address account, uint256 groupId) internal {\n        admins[groupId][account] = false;\n\n        uint256 index = adminAddressToIndex[groupId][account];\n        adminEnabled[groupId][index] = false;\n\n        emit AdminRemoved(groupId);\n    }\n\n    function readEventInfo(uint256 groupId)\n        external\n        view\n        onlyAdmins(groupId)\n        returns (EthDropEvent memory)\n    {\n        return currentEvents[groupId];\n    }\n\n    function createNewGroup(string memory groupName)\n        external\n        onlyCOO\n        whenNotPaused\n    {\n        // TODO - is this the best way to set the groupId? \n        uint256 newGroupId = block.timestamp;\n\n        EthDropEvent memory newGroup = EthDropEvent(\n            newGroupId,\n            groupName,\n            EventState.CREATED,\n            block.timestamp,\n            block.timestamp,\n            block.timestamp,\n            0,\n            \"\",\n            \"\",\n            \"\",\n            address(0),\n            0,\n            0,\n            0\n        );\n\n        currentEvents[newGroupId] = newGroup;\n\n        listOfGroupIds.push(newGroupId);\n        listOfGroupNames.push(groupName);\n\n        emit GroupCreated(groupName, newGroupId);\n    }\n\n    function startEvent(uint256 groupId)\n        external\n        onlyAdmins(groupId)\n        whenNotPaused\n    {\n        currentEvents[groupId].currentState = EventState.REGISTRATION;\n        currentEvents[groupId].startTime = block.timestamp;\n\n        emit EventStarted(msg.sender, groupId);\n    }\n\n    function closeEventRegistration(uint256 groupId)\n        external\n        onlyAdmins(groupId)\n        whenNotPaused\n    {\n        require(currentEvents[groupId].registeredRecipientsCount >= 1,\n        \"Can't end registration with zero registrants!\");\n        \n        currentEvents[groupId].registrationEndTime = block.timestamp;\n\n        uint256 devCutWei = (currentEvents[groupId].totalAmountContributed *\n            devCutPercentage) / 100;\n\n        // Transfer dev cut to cfo\n        payable(cfoAddress).transfer(devCutWei);\n\n        // pot is the amount for recipients to share\n        uint256 pot = currentEvents[groupId].totalAmountContributed - devCutWei;\n\n        // each recipient's winnings is the \"weiWinnings\"\n        currentEvents[groupId].weiWinnings =\n            pot /\n            currentEvents[groupId].registeredRecipientsCount;\n\n        currentEvents[groupId].currentState = EventState.CLAIM_WINNINGS;\n\n        emit RegistrationEnded(msg.sender, groupId);\n    }\n\n    function endEvent(uint256 groupId)\n        external\n        onlyAdminsOrCOO(groupId)\n        whenNotPaused\n    {\n        currentEvents[groupId].endTime = block.timestamp;\n\n        currentEvents[groupId].currentState = EventState.ENDED;\n\n        // First delete mappings, then arrays\n        for (\n            uint256 i = 0;\n            i < currentEvents[groupId].registeredRecipientsCount;\n            i++\n        ) {\n            address currentAddress = registeredRecipientAddressesArray[groupId][\n                i\n            ];\n\n            delete registeredRecipients[groupId][currentAddress];\n            delete recipientAddressToName[groupId][currentAddress];\n            delete winningsCollected[groupId][currentAddress];\n        }\n\n        delete registeredRecipientNamesArray[groupId];\n        delete registeredRecipientAddressesArray[groupId];\n\n        pastEvents[groupId].push(currentEvents[groupId]);\n\n        currentEvents[groupId].registeredRecipientsCount = 0;\n        currentEvents[groupId].totalAmountContributed = 0;\n        currentEvents[groupId].weiWinnings = 0;\n        currentEvents[groupId].numberOfUsersWhoClaimedWinnings = 0;\n\n        emit ContributionMade(msg.sender, groupId, 0);\n        emit RecipientRegistered(msg.sender, groupId);\n        emit EventEnded(msg.sender, groupId);\n    }\n\n    function addEligibleRecipient(\n        address account,\n        string memory name,\n        uint256 groupId\n    ) external whenNotPaused onlyAdmins(groupId) {\n        eligibleRecipients[groupId][account] = true;\n\n        eligibleRecipientAddressesArray[groupId].push(account);\n        eligibleRecipientNamesArray[groupId].push(name);\n\n        recipientAddressToName[groupId][account] = name;\n        eligibleRecipientsEligibilityIsEnabled[groupId].push(true);\n\n        emit EligibleRecipientAdded(account, groupId);\n    }\n\n    function removeEligibleRecipient(address account, uint256 groupId)\n        external\n        onlyAdmins(groupId)\n        whenNotPaused\n    {\n        eligibleRecipients[groupId][account] = false;\n        emit EligibleRecipientRemoved(account, groupId);\n    }\n\n    function changeContributor(address account, uint256 groupId)\n        external\n        onlyAdminsOrCOO(groupId)\n        whenNotPaused\n    {\n        _changeContributor(account, groupId);\n    }\n\n}\n",
  "sourcePath": "/Users/jlynch/Git-Projects/EthDrop/contracts/roles/AdminsManager.sol",
  "compiler": {
    "name": "solc",
    "version": "0.8.6+commit.11564f7e.Emscripten.clang"
  },
  "schemaVersion": "3.4.1",
  "updatedAt": "2021-07-30T03:40:53.474Z",
  "devdoc": {
    "kind": "dev",
    "methods": {
      "pause()": {
        "details": "Called by any \"C-level\" role to pause the contract. Used only when  a bug or exploit is detected and we need to limit damage."
      },
      "setCEO(address)": {
        "details": "Assigns a new address to act as the CEO. Only available to the current CEO.",
        "params": {
          "_newCEO": "The address of the new CEO"
        }
      },
      "setCFO(address)": {
        "details": "Assigns a new address to act as the CFO. Only available to the current CEO.",
        "params": {
          "_newCFO": "The address of the new CFO"
        }
      },
      "setCOO(address)": {
        "details": "Assigns a new address to act as the COO. Only available to the current CEO.",
        "params": {
          "_newCOO": "The address of the new COO"
        }
      },
      "unpause()": {
        "details": "Unpauses the smart contract. Can only be called by the CEO, since  one reason we may pause the contract is when CFO or COO accounts are  compromised."
      }
    },
    "version": 1
  },
  "userdoc": {
    "kind": "user",
    "methods": {
      "unpause()": {
        "notice": "This is public rather than external so it can be called by  derived contracts."
      }
    },
    "version": 1
  }
}