{
  "contractName": "AdminsManager",
  "abi": [
    {
      "inputs": [],
      "stateMutability": "nonpayable",
      "type": "constructor"
    },
    {
      "anonymous": false,
      "inputs": [
        {
          "indexed": false,
          "internalType": "uint256",
          "name": "groupId",
          "type": "uint256"
        },
        {
          "indexed": false,
          "internalType": "address",
          "name": "account",
          "type": "address"
        },
        {
          "indexed": false,
          "internalType": "uint256",
          "name": "index",
          "type": "uint256"
        }
      ],
      "name": "AdminAdded",
      "type": "event"
    },
    {
      "anonymous": false,
      "inputs": [
        {
          "indexed": false,
          "internalType": "uint256",
          "name": "groupId",
          "type": "uint256"
        },
        {
          "indexed": false,
          "internalType": "string",
          "name": "name",
          "type": "string"
        }
      ],
      "name": "AdminReEnabled",
      "type": "event"
    },
    {
      "anonymous": false,
      "inputs": [
        {
          "indexed": false,
          "internalType": "uint256",
          "name": "groupId",
          "type": "uint256"
        },
        {
          "indexed": false,
          "internalType": "string",
          "name": "name",
          "type": "string"
        }
      ],
      "name": "AdminRemoved",
      "type": "event"
    },
    {
      "anonymous": false,
      "inputs": [
        {
          "indexed": false,
          "internalType": "bool",
          "name": "isPaused",
          "type": "bool"
        }
      ],
      "name": "AppPaused",
      "type": "event"
    },
    {
      "anonymous": false,
      "inputs": [
        {
          "indexed": false,
          "internalType": "uint256",
          "name": "registeredRecipientCount",
          "type": "uint256"
        },
        {
          "indexed": false,
          "internalType": "uint256",
          "name": "winningsPerRecipient",
          "type": "uint256"
        }
      ],
      "name": "CalculatedPot",
      "type": "event"
    },
    {
      "anonymous": false,
      "inputs": [],
      "name": "CfoUpdated",
      "type": "event"
    },
    {
      "anonymous": false,
      "inputs": [
        {
          "indexed": false,
          "internalType": "address",
          "name": "newContract",
          "type": "address"
        }
      ],
      "name": "ContractUpgrade",
      "type": "event"
    },
    {
      "anonymous": false,
      "inputs": [
        {
          "indexed": true,
          "internalType": "address",
          "name": "account",
          "type": "address"
        },
        {
          "indexed": false,
          "internalType": "uint256",
          "name": "groupId",
          "type": "uint256"
        },
        {
          "indexed": false,
          "internalType": "uint256",
          "name": "amount",
          "type": "uint256"
        }
      ],
      "name": "ContributionMade",
      "type": "event"
    },
    {
      "anonymous": false,
      "inputs": [
        {
          "indexed": true,
          "internalType": "address",
          "name": "account",
          "type": "address"
        },
        {
          "indexed": false,
          "internalType": "uint256",
          "name": "groupId",
          "type": "uint256"
        }
      ],
      "name": "ContributorAdded",
      "type": "event"
    },
    {
      "anonymous": false,
      "inputs": [
        {
          "indexed": false,
          "internalType": "uint256",
          "name": "groupId",
          "type": "uint256"
        },
        {
          "indexed": false,
          "internalType": "address",
          "name": "newContributor",
          "type": "address"
        }
      ],
      "name": "ContributorAddressUpdated",
      "type": "event"
    },
    {
      "anonymous": false,
      "inputs": [
        {
          "indexed": false,
          "internalType": "uint256",
          "name": "groupId",
          "type": "uint256"
        },
        {
          "indexed": false,
          "internalType": "string",
          "name": "sponsorName",
          "type": "string"
        },
        {
          "indexed": false,
          "internalType": "string",
          "name": "imgUrl",
          "type": "string"
        },
        {
          "indexed": false,
          "internalType": "string",
          "name": "imgLinkToUrl",
          "type": "string"
        }
      ],
      "name": "ContributorInfoUpdated",
      "type": "event"
    },
    {
      "anonymous": false,
      "inputs": [
        {
          "indexed": true,
          "internalType": "address",
          "name": "account",
          "type": "address"
        },
        {
          "indexed": false,
          "internalType": "uint256",
          "name": "groupId",
          "type": "uint256"
        }
      ],
      "name": "ContributorRemoved",
      "type": "event"
    },
    {
      "anonymous": false,
      "inputs": [],
      "name": "CooUpdated",
      "type": "event"
    },
    {
      "anonymous": false,
      "inputs": [
        {
          "indexed": true,
          "internalType": "address",
          "name": "account",
          "type": "address"
        },
        {
          "indexed": false,
          "internalType": "uint256",
          "name": "groupId",
          "type": "uint256"
        }
      ],
      "name": "EligibleRecipientAdded",
      "type": "event"
    },
    {
      "anonymous": false,
      "inputs": [
        {
          "indexed": true,
          "internalType": "address",
          "name": "account",
          "type": "address"
        },
        {
          "indexed": false,
          "internalType": "uint256",
          "name": "groupId",
          "type": "uint256"
        }
      ],
      "name": "EligibleRecipientRemoved",
      "type": "event"
    },
    {
      "anonymous": false,
      "inputs": [],
      "name": "EventClose",
      "type": "event"
    },
    {
      "anonymous": false,
      "inputs": [
        {
          "indexed": true,
          "internalType": "address",
          "name": "endedBy",
          "type": "address"
        },
        {
          "indexed": false,
          "internalType": "uint256",
          "name": "groupId",
          "type": "uint256"
        }
      ],
      "name": "EventEnded",
      "type": "event"
    },
    {
      "anonymous": false,
      "inputs": [
        {
          "indexed": true,
          "internalType": "address",
          "name": "startedBy",
          "type": "address"
        },
        {
          "indexed": false,
          "internalType": "uint256",
          "name": "groupId",
          "type": "uint256"
        }
      ],
      "name": "EventStarted",
      "type": "event"
    },
    {
      "anonymous": false,
      "inputs": [
        {
          "indexed": false,
          "internalType": "uint256",
          "name": "groupId",
          "type": "uint256"
        },
        {
          "indexed": false,
          "internalType": "address",
          "name": "account",
          "type": "address"
        },
        {
          "indexed": false,
          "internalType": "uint256",
          "name": "index",
          "type": "uint256"
        }
      ],
      "name": "GettingMyAdminIndex",
      "type": "event"
    },
    {
      "anonymous": false,
      "inputs": [
        {
          "indexed": false,
          "internalType": "string",
          "name": "groupName",
          "type": "string"
        },
        {
          "indexed": false,
          "internalType": "uint256",
          "name": "groupId",
          "type": "uint256"
        }
      ],
      "name": "GroupCreated",
      "type": "event"
    },
    {
      "anonymous": false,
      "inputs": [
        {
          "indexed": false,
          "internalType": "uint256",
          "name": "groupId",
          "type": "uint256"
        },
        {
          "indexed": false,
          "internalType": "address",
          "name": "addressOfUserGettingApproved",
          "type": "address"
        },
        {
          "indexed": false,
          "internalType": "string",
          "name": "nameOfUserGettingApproved",
          "type": "string"
        }
      ],
      "name": "NewJoinerRequestApproved",
      "type": "event"
    },
    {
      "anonymous": false,
      "inputs": [
        {
          "indexed": false,
          "internalType": "uint256",
          "name": "groupId",
          "type": "uint256"
        },
        {
          "indexed": false,
          "internalType": "address",
          "name": "account",
          "type": "address"
        },
        {
          "indexed": false,
          "internalType": "uint256",
          "name": "index",
          "type": "uint256"
        }
      ],
      "name": "NewUserRequestedToJoinGroup",
      "type": "event"
    },
    {
      "anonymous": false,
      "inputs": [
        {
          "indexed": true,
          "internalType": "address",
          "name": "account",
          "type": "address"
        },
        {
          "indexed": false,
          "internalType": "uint256",
          "name": "groupId",
          "type": "uint256"
        }
      ],
      "name": "RecipientRegistered",
      "type": "event"
    },
    {
      "anonymous": false,
      "inputs": [
        {
          "indexed": true,
          "internalType": "address",
          "name": "endedBy",
          "type": "address"
        },
        {
          "indexed": false,
          "internalType": "uint256",
          "name": "groupId",
          "type": "uint256"
        }
      ],
      "name": "RegistrationEnded",
      "type": "event"
    },
    {
      "anonymous": false,
      "inputs": [],
      "name": "RegistrationOpen",
      "type": "event"
    },
    {
      "anonymous": false,
      "inputs": [
        {
          "indexed": false,
          "internalType": "address",
          "name": "from",
          "type": "address"
        },
        {
          "indexed": false,
          "internalType": "address",
          "name": "to",
          "type": "address"
        }
      ],
      "name": "Transfer",
      "type": "event"
    },
    {
      "anonymous": false,
      "inputs": [
        {
          "indexed": true,
          "internalType": "address",
          "name": "account",
          "type": "address"
        },
        {
          "indexed": false,
          "internalType": "uint256",
          "name": "groupId",
          "type": "uint256"
        }
      ],
      "name": "WinningsClaimed",
      "type": "event"
    },
    {
      "anonymous": false,
      "inputs": [],
      "name": "WinningsClaimingOpen",
      "type": "event"
    },
    {
      "inputs": [
        {
          "internalType": "uint256",
          "name": "groupId",
          "type": "uint256"
        }
      ],
      "name": "amIContributor",
      "outputs": [
        {
          "internalType": "bool",
          "name": "",
          "type": "bool"
        }
      ],
      "stateMutability": "view",
      "type": "function"
    },
    {
      "inputs": [
        {
          "internalType": "uint256",
          "name": "groupId",
          "type": "uint256"
        }
      ],
      "name": "amIEligibleRecipient",
      "outputs": [
        {
          "internalType": "bool",
          "name": "",
          "type": "bool"
        }
      ],
      "stateMutability": "view",
      "type": "function"
    },
    {
      "inputs": [
        {
          "internalType": "uint256",
          "name": "groupId",
          "type": "uint256"
        }
      ],
      "name": "amIRegisteredRecipient",
      "outputs": [
        {
          "internalType": "bool",
          "name": "",
          "type": "bool"
        }
      ],
      "stateMutability": "view",
      "type": "function"
    },
    {
      "inputs": [],
      "name": "ceoAddress",
      "outputs": [
        {
          "internalType": "address",
          "name": "",
          "type": "address"
        }
      ],
      "stateMutability": "view",
      "type": "function"
    },
    {
      "inputs": [],
      "name": "cfoAddress",
      "outputs": [
        {
          "internalType": "address",
          "name": "",
          "type": "address"
        }
      ],
      "stateMutability": "view",
      "type": "function"
    },
    {
      "inputs": [
        {
          "internalType": "uint256",
          "name": "groupId",
          "type": "uint256"
        }
      ],
      "name": "claimWinnings",
      "outputs": [],
      "stateMutability": "nonpayable",
      "type": "function"
    },
    {
      "inputs": [
        {
          "internalType": "uint256",
          "name": "groupId",
          "type": "uint256"
        }
      ],
      "name": "contributeToPot",
      "outputs": [],
      "stateMutability": "payable",
      "type": "function"
    },
    {
      "inputs": [],
      "name": "cooAddress",
      "outputs": [
        {
          "internalType": "address",
          "name": "",
          "type": "address"
        }
      ],
      "stateMutability": "view",
      "type": "function"
    },
    {
      "inputs": [
        {
          "internalType": "uint256",
          "name": "groupId",
          "type": "uint256"
        }
      ],
      "name": "doIHaveClaimableWinnings",
      "outputs": [
        {
          "internalType": "bool",
          "name": "",
          "type": "bool"
        }
      ],
      "stateMutability": "view",
      "type": "function"
    },
    {
      "inputs": [],
      "name": "getCFO",
      "outputs": [
        {
          "internalType": "address",
          "name": "",
          "type": "address"
        }
      ],
      "stateMutability": "view",
      "type": "function"
    },
    {
      "inputs": [],
      "name": "getCOO",
      "outputs": [
        {
          "internalType": "address",
          "name": "",
          "type": "address"
        }
      ],
      "stateMutability": "view",
      "type": "function"
    },
    {
      "inputs": [
        {
          "internalType": "uint256",
          "name": "groupId",
          "type": "uint256"
        }
      ],
      "name": "getContributorInfo",
      "outputs": [
        {
          "internalType": "string",
          "name": "newContributorName",
          "type": "string"
        },
        {
          "internalType": "string",
          "name": "newContributorImgUrl",
          "type": "string"
        },
        {
          "internalType": "string",
          "name": "newContributorLinkToUrl",
          "type": "string"
        }
      ],
      "stateMutability": "view",
      "type": "function"
    },
    {
      "inputs": [
        {
          "internalType": "uint256",
          "name": "groupId",
          "type": "uint256"
        }
      ],
      "name": "getCurrentSponsorAddress",
      "outputs": [
        {
          "internalType": "address",
          "name": "",
          "type": "address"
        }
      ],
      "stateMutability": "view",
      "type": "function"
    },
    {
      "inputs": [
        {
          "internalType": "uint256",
          "name": "groupId",
          "type": "uint256"
        }
      ],
      "name": "getEligibleRecipientAddresses",
      "outputs": [
        {
          "internalType": "address[]",
          "name": "",
          "type": "address[]"
        }
      ],
      "stateMutability": "view",
      "type": "function"
    },
    {
      "inputs": [
        {
          "internalType": "uint256",
          "name": "groupId",
          "type": "uint256"
        }
      ],
      "name": "getEligibleRecipientIsEligibilityEnabled",
      "outputs": [
        {
          "internalType": "bool[]",
          "name": "",
          "type": "bool[]"
        }
      ],
      "stateMutability": "view",
      "type": "function"
    },
    {
      "inputs": [
        {
          "internalType": "uint256",
          "name": "groupId",
          "type": "uint256"
        }
      ],
      "name": "getEligibleRecipientNames",
      "outputs": [
        {
          "internalType": "string[]",
          "name": "",
          "type": "string[]"
        }
      ],
      "stateMutability": "view",
      "type": "function"
    },
    {
      "inputs": [
        {
          "internalType": "uint256",
          "name": "groupId",
          "type": "uint256"
        }
      ],
      "name": "getGroupEventData",
      "outputs": [
        {
          "internalType": "enum EthDropBase.EventState",
          "name": "",
          "type": "uint8"
        },
        {
          "internalType": "uint256",
          "name": "",
          "type": "uint256"
        },
        {
          "internalType": "uint256",
          "name": "",
          "type": "uint256"
        },
        {
          "internalType": "uint256",
          "name": "",
          "type": "uint256"
        },
        {
          "internalType": "uint256",
          "name": "",
          "type": "uint256"
        }
      ],
      "stateMutability": "view",
      "type": "function"
    },
    {
      "inputs": [],
      "name": "getGroupIds",
      "outputs": [
        {
          "internalType": "uint256[]",
          "name": "",
          "type": "uint256[]"
        }
      ],
      "stateMutability": "view",
      "type": "function"
    },
    {
      "inputs": [],
      "name": "getGroupNames",
      "outputs": [
        {
          "internalType": "string[]",
          "name": "",
          "type": "string[]"
        }
      ],
      "stateMutability": "view",
      "type": "function"
    },
    {
      "inputs": [
        {
          "internalType": "uint256",
          "name": "groupId",
          "type": "uint256"
        }
      ],
      "name": "getGroupPublicData",
      "outputs": [
        {
          "internalType": "uint256",
          "name": "",
          "type": "uint256"
        },
        {
          "internalType": "string",
          "name": "",
          "type": "string"
        },
        {
          "internalType": "enum EthDropBase.EventState",
          "name": "",
          "type": "uint8"
        },
        {
          "internalType": "uint256",
          "name": "",
          "type": "uint256"
        },
        {
          "internalType": "uint256",
          "name": "",
          "type": "uint256"
        },
        {
          "internalType": "uint256",
          "name": "",
          "type": "uint256"
        },
        {
          "internalType": "uint256",
          "name": "",
          "type": "uint256"
        }
      ],
      "stateMutability": "view",
      "type": "function"
    },
    {
      "inputs": [
        {
          "internalType": "uint256",
          "name": "groupId",
          "type": "uint256"
        }
      ],
      "name": "getRegisteredRecipientNames",
      "outputs": [
        {
          "internalType": "string[]",
          "name": "",
          "type": "string[]"
        }
      ],
      "stateMutability": "view",
      "type": "function"
    },
    {
      "inputs": [
        {
          "internalType": "uint256",
          "name": "groupId",
          "type": "uint256"
        }
      ],
      "name": "getRegisteredRecipients",
      "outputs": [
        {
          "internalType": "address[]",
          "name": "",
          "type": "address[]"
        },
        {
          "internalType": "string[]",
          "name": "",
          "type": "string[]"
        },
        {
          "internalType": "bool[]",
          "name": "",
          "type": "bool[]"
        }
      ],
      "stateMutability": "view",
      "type": "function"
    },
    {
      "inputs": [],
      "name": "getString",
      "outputs": [
        {
          "internalType": "string",
          "name": "",
          "type": "string"
        }
      ],
      "stateMutability": "view",
      "type": "function"
    },
    {
      "inputs": [],
      "name": "isCEO",
      "outputs": [
        {
          "internalType": "bool",
          "name": "",
          "type": "bool"
        }
      ],
      "stateMutability": "view",
      "type": "function"
    },
    {
      "inputs": [],
      "name": "isCFO",
      "outputs": [
        {
          "internalType": "bool",
          "name": "",
          "type": "bool"
        }
      ],
      "stateMutability": "view",
      "type": "function"
    },
    {
      "inputs": [],
      "name": "isCOO",
      "outputs": [
        {
          "internalType": "bool",
          "name": "",
          "type": "bool"
        }
      ],
      "stateMutability": "view",
      "type": "function"
    },
    {
      "inputs": [
        {
          "internalType": "address",
          "name": "account",
          "type": "address"
        },
        {
          "internalType": "uint256",
          "name": "groupId",
          "type": "uint256"
        }
      ],
      "name": "isContributor",
      "outputs": [
        {
          "internalType": "bool",
          "name": "",
          "type": "bool"
        }
      ],
      "stateMutability": "view",
      "type": "function"
    },
    {
      "inputs": [
        {
          "internalType": "address",
          "name": "account",
          "type": "address"
        },
        {
          "internalType": "uint256",
          "name": "groupId",
          "type": "uint256"
        }
      ],
      "name": "isEligibleRecipient",
      "outputs": [
        {
          "internalType": "bool",
          "name": "",
          "type": "bool"
        }
      ],
      "stateMutability": "view",
      "type": "function"
    },
    {
      "inputs": [],
      "name": "isPaused",
      "outputs": [
        {
          "internalType": "bool",
          "name": "",
          "type": "bool"
        }
      ],
      "stateMutability": "view",
      "type": "function"
    },
    {
      "inputs": [
        {
          "internalType": "address",
          "name": "account",
          "type": "address"
        },
        {
          "internalType": "uint256",
          "name": "groupId",
          "type": "uint256"
        }
      ],
      "name": "isRegisteredRecipient",
      "outputs": [
        {
          "internalType": "bool",
          "name": "",
          "type": "bool"
        }
      ],
      "stateMutability": "view",
      "type": "function"
    },
    {
      "inputs": [],
      "name": "pause",
      "outputs": [],
      "stateMutability": "nonpayable",
      "type": "function"
    },
    {
      "inputs": [],
      "name": "paused",
      "outputs": [
        {
          "internalType": "bool",
          "name": "",
          "type": "bool"
        }
      ],
      "stateMutability": "view",
      "type": "function"
    },
    {
      "inputs": [
        {
          "internalType": "uint256",
          "name": "groupId",
          "type": "uint256"
        }
      ],
      "name": "registerForEvent",
      "outputs": [],
      "stateMutability": "nonpayable",
      "type": "function"
    },
    {
      "inputs": [
        {
          "internalType": "uint256",
          "name": "groupId",
          "type": "uint256"
        },
        {
          "internalType": "string",
          "name": "username",
          "type": "string"
        }
      ],
      "name": "requestToJoinGroup",
      "outputs": [],
      "stateMutability": "nonpayable",
      "type": "function"
    },
    {
      "inputs": [
        {
          "internalType": "address",
          "name": "_newCEO",
          "type": "address"
        }
      ],
      "name": "setCEO",
      "outputs": [],
      "stateMutability": "nonpayable",
      "type": "function"
    },
    {
      "inputs": [
        {
          "internalType": "address",
          "name": "_newCFO",
          "type": "address"
        }
      ],
      "name": "setCFO",
      "outputs": [],
      "stateMutability": "nonpayable",
      "type": "function"
    },
    {
      "inputs": [
        {
          "internalType": "address",
          "name": "_newCOO",
          "type": "address"
        }
      ],
      "name": "setCOO",
      "outputs": [],
      "stateMutability": "nonpayable",
      "type": "function"
    },
    {
      "inputs": [
        {
          "internalType": "string",
          "name": "_s",
          "type": "string"
        }
      ],
      "name": "setString",
      "outputs": [],
      "stateMutability": "nonpayable",
      "type": "function"
    },
    {
      "inputs": [],
      "name": "stringgg",
      "outputs": [
        {
          "internalType": "string",
          "name": "",
          "type": "string"
        }
      ],
      "stateMutability": "view",
      "type": "function"
    },
    {
      "inputs": [],
      "name": "unpause",
      "outputs": [
        {
          "internalType": "bool",
          "name": "",
          "type": "bool"
        }
      ],
      "stateMutability": "nonpayable",
      "type": "function"
    },
    {
      "inputs": [
        {
          "internalType": "uint256",
          "name": "groupId",
          "type": "uint256"
        },
        {
          "internalType": "string",
          "name": "newContributorName",
          "type": "string"
        },
        {
          "internalType": "string",
          "name": "newContributorImgUrl",
          "type": "string"
        },
        {
          "internalType": "string",
          "name": "newContributorLinkToUrl",
          "type": "string"
        }
      ],
      "name": "updateContributorInfo",
      "outputs": [],
      "stateMutability": "nonpayable",
      "type": "function"
    },
    {
      "inputs": [],
      "name": "whoami",
      "outputs": [
        {
          "internalType": "address",
          "name": "",
          "type": "address"
        }
      ],
      "stateMutability": "view",
      "type": "function"
    },
    {
      "inputs": [
        {
          "internalType": "address",
          "name": "account",
          "type": "address"
        },
        {
          "internalType": "uint256",
          "name": "groupId",
          "type": "uint256"
        }
      ],
      "name": "isAdmin",
      "outputs": [
        {
          "internalType": "bool",
          "name": "",
          "type": "bool"
        }
      ],
      "stateMutability": "view",
      "type": "function"
    },
    {
      "inputs": [
        {
          "internalType": "uint256",
          "name": "groupId",
          "type": "uint256"
        }
      ],
      "name": "getMyAdminIndex",
      "outputs": [
        {
          "internalType": "uint256",
          "name": "",
          "type": "uint256"
        }
      ],
      "stateMutability": "view",
      "type": "function"
    },
    {
      "inputs": [
        {
          "internalType": "uint256",
          "name": "groupId",
          "type": "uint256"
        },
        {
          "internalType": "address",
          "name": "account",
          "type": "address"
        },
        {
          "internalType": "string",
          "name": "name",
          "type": "string"
        }
      ],
      "name": "addAdmin",
      "outputs": [],
      "stateMutability": "nonpayable",
      "type": "function"
    },
    {
      "inputs": [
        {
          "internalType": "uint256",
          "name": "groupId",
          "type": "uint256"
        }
      ],
      "name": "getAddressNextAdminIndex",
      "outputs": [
        {
          "internalType": "uint256",
          "name": "",
          "type": "uint256"
        }
      ],
      "stateMutability": "view",
      "type": "function"
    },
    {
      "inputs": [
        {
          "internalType": "uint256",
          "name": "groupId",
          "type": "uint256"
        }
      ],
      "name": "amIAdmin",
      "outputs": [
        {
          "internalType": "bool",
          "name": "",
          "type": "bool"
        }
      ],
      "stateMutability": "view",
      "type": "function"
    },
    {
      "inputs": [
        {
          "internalType": "uint256",
          "name": "groupId",
          "type": "uint256"
        }
      ],
      "name": "getAdminsForGroup",
      "outputs": [
        {
          "internalType": "address[]",
          "name": "",
          "type": "address[]"
        },
        {
          "internalType": "bool[]",
          "name": "",
          "type": "bool[]"
        },
        {
          "internalType": "string[]",
          "name": "",
          "type": "string[]"
        }
      ],
      "stateMutability": "view",
      "type": "function"
    },
    {
      "inputs": [
        {
          "internalType": "uint256",
          "name": "groupId",
          "type": "uint256"
        },
        {
          "internalType": "address",
          "name": "account",
          "type": "address"
        }
      ],
      "name": "reEnableAdmin",
      "outputs": [],
      "stateMutability": "nonpayable",
      "type": "function"
    },
    {
      "inputs": [
        {
          "internalType": "uint256",
          "name": "groupId",
          "type": "uint256"
        },
        {
          "internalType": "address",
          "name": "account",
          "type": "address"
        }
      ],
      "name": "removeAdmin",
      "outputs": [],
      "stateMutability": "nonpayable",
      "type": "function"
    },
    {
      "inputs": [
        {
          "internalType": "uint256",
          "name": "groupId",
          "type": "uint256"
        }
      ],
      "name": "renounceAdmin",
      "outputs": [],
      "stateMutability": "nonpayable",
      "type": "function"
    },
    {
      "inputs": [
        {
          "internalType": "uint256",
          "name": "groupId",
          "type": "uint256"
        }
      ],
      "name": "readEventInfo",
      "outputs": [
        {
          "components": [
            {
              "internalType": "uint256",
              "name": "groupId",
              "type": "uint256"
            },
            {
              "internalType": "string",
              "name": "groupName",
              "type": "string"
            },
            {
              "internalType": "enum EthDropBase.EventState",
              "name": "currentState",
              "type": "uint8"
            },
            {
              "internalType": "uint256",
              "name": "startTime",
              "type": "uint256"
            },
            {
              "internalType": "uint256",
              "name": "registrationEndTime",
              "type": "uint256"
            },
            {
              "internalType": "uint256",
              "name": "endTime",
              "type": "uint256"
            },
            {
              "internalType": "uint256",
              "name": "registeredRecipientsCount",
              "type": "uint256"
            },
            {
              "internalType": "string",
              "name": "sponsorName",
              "type": "string"
            },
            {
              "internalType": "string",
              "name": "sponsorImageUrl",
              "type": "string"
            },
            {
              "internalType": "string",
              "name": "sponsorLinkToUrl",
              "type": "string"
            },
            {
              "internalType": "address",
              "name": "currentContributor",
              "type": "address"
            },
            {
              "internalType": "uint256",
              "name": "totalAmountContributed",
              "type": "uint256"
            },
            {
              "internalType": "uint256",
              "name": "weiWinnings",
              "type": "uint256"
            },
            {
              "internalType": "uint256",
              "name": "numberOfUsersWhoClaimedWinnings",
              "type": "uint256"
            }
          ],
          "internalType": "struct EthDropBase.EthDropEvent",
          "name": "",
          "type": "tuple"
        }
      ],
      "stateMutability": "view",
      "type": "function"
    },
    {
      "inputs": [
        {
          "internalType": "string",
          "name": "groupName",
          "type": "string"
        }
      ],
      "name": "createNewGroup",
      "outputs": [],
      "stateMutability": "nonpayable",
      "type": "function"
    },
    {
      "inputs": [
        {
          "internalType": "uint256",
          "name": "groupId",
          "type": "uint256"
        }
      ],
      "name": "startEvent",
      "outputs": [],
      "stateMutability": "nonpayable",
      "type": "function"
    },
    {
      "inputs": [
        {
          "internalType": "uint256",
          "name": "groupId",
          "type": "uint256"
        }
      ],
      "name": "closeEventRegistration",
      "outputs": [],
      "stateMutability": "nonpayable",
      "type": "function"
    },
    {
      "inputs": [
        {
          "internalType": "uint256",
          "name": "groupId",
          "type": "uint256"
        }
      ],
      "name": "endEvent",
      "outputs": [],
      "stateMutability": "nonpayable",
      "type": "function"
    },
    {
      "inputs": [
        {
          "internalType": "address",
          "name": "account",
          "type": "address"
        },
        {
          "internalType": "uint256",
          "name": "groupId",
          "type": "uint256"
        }
      ],
      "name": "removeEligibleRecipient",
      "outputs": [],
      "stateMutability": "nonpayable",
      "type": "function"
    },
    {
      "inputs": [
        {
          "internalType": "address",
          "name": "account",
          "type": "address"
        },
        {
          "internalType": "uint256",
          "name": "groupId",
          "type": "uint256"
        }
      ],
      "name": "changeContributor",
      "outputs": [],
      "stateMutability": "nonpayable",
      "type": "function"
    },
    {
      "inputs": [
        {
          "internalType": "uint256",
          "name": "groupId",
          "type": "uint256"
        },
        {
          "internalType": "address",
          "name": "accountToApprove",
          "type": "address"
        }
      ],
      "name": "approveRequestToJoinGroup",
      "outputs": [],
      "stateMutability": "nonpayable",
      "type": "function"
    },
    {
      "inputs": [
        {
          "internalType": "uint256",
          "name": "groupId",
          "type": "uint256"
        }
      ],
      "name": "getNewJoinerRequests",
      "outputs": [
        {
          "internalType": "address[]",
          "name": "",
          "type": "address[]"
        },
        {
          "internalType": "string[]",
          "name": "",
          "type": "string[]"
        },
        {
          "internalType": "bool[]",
          "name": "",
          "type": "bool[]"
        }
      ],
      "stateMutability": "view",
      "type": "function"
    },
    {
      "inputs": [
        {
          "internalType": "uint256",
          "name": "groupId",
          "type": "uint256"
        }
      ],
      "name": "getEligibleRecipients",
      "outputs": [
        {
          "internalType": "address[]",
          "name": "",
          "type": "address[]"
        },
        {
          "internalType": "string[]",
          "name": "",
          "type": "string[]"
        },
        {
          "internalType": "bool[]",
          "name": "",
          "type": "bool[]"
        }
      ],
      "stateMutability": "view",
      "type": "function"
    }
  ],
  "bytecode": "0x6080604052600180546001600160a01b031916331790556003805460ff60a01b191690556005805534801561003357600080fd5b50614ec1806100436000396000f3fe6080604052600436106103225760003560e01c80638182aaf2116101a7578063cd04e475116100ed578063ea303f0811610090578063ea303f0814610a83578063edf6261d14610aa3578063ee41b59214610ac3578063ef2e61cc14610ae3578063f40fb25414610b03578063f4a02e7014610b23578063f89e9cb914610b43578063fc5fd6e414610b6357600080fd5b8063cd04e47514610963578063d5f016c314610996578063e33db426146109ab578063e513b7a9146109d8578063e62092be146109f8578063e82f24e014610a18578063e9992d9914610a2b578063e9af9bca14610a4b57600080fd5b8063aea88a0511610155578063aea88a051461087a578063b047fb501461089a578063b187bd26146108ba578063b3b36bb3146108d9578063bc5b2e1a146108ec578063c02b8b2c1461090c578063c271e80c1461092e578063c6db50941461094e57600080fd5b80638182aaf2146107965780638456cb59146107b657806389ea642f146107cb5780639393ae37146107ed578063962ecff51461080d5780639bda87961461082d578063a59a69531461085a57600080fd5b8063454432e21161026c578063674811ca1161021a578063674811ca1461067a578063677bd9ff146106a95780636ebdec49146106c9578063785142be146106f85780637b936ac2146107185780637d837ce5146107365780637eb0bdc9146107565780637fcaf6661461077657600080fd5b8063454432e2146105605780634635509b146105805780634e0a3379146105b157806355b57ec1146105d157806356c9a339146105fe5780635c975abb146106395780635e82c1fc1461065a57600080fd5b806327d7874c116102d457806327d7874c1461045c5780632ba73c151461047c57806330bb01151461049c578063330a347b146104bc57806338f0b656146104dc5780633f4ba83a146104fc578063406db8431461051157806344b2983b1461053157600080fd5b80630519ce791461032757806306cc49221461036457806307bfa330146103945780630a0f8168146103c15780630d82ffa0146103e157806315891ff41461041a578063222fd0871461043c575b600080fd5b34801561033357600080fd5b50600254610347906001600160a01b031681565b6040516001600160a01b0390911681526020015b60405180910390f35b34801561037057600080fd5b5061038461037f3660046145ea565b610b81565b604051901515815260200161035b565b3480156103a057600080fd5b506103b46103af3660046145ea565b610bad565b60405161035b9190614a13565b3480156103cd57600080fd5b50600154610347906001600160a01b031681565b3480156103ed57600080fd5b506103476103fc3660046145ea565b6000908152600860205260409020600a01546001600160a01b031690565b34801561042657600080fd5b5061043a610435366004614583565b610c99565b005b34801561044857600080fd5b5061043a610457366004614686565b610d25565b34801561046857600080fd5b5061043a610477366004614561565b611032565b34801561048857600080fd5b5061043a610497366004614561565b61107e565b3480156104a857600080fd5b5061043a6104b73660046145ea565b6110ef565b3480156104c857600080fd5b5061043a6104d73660046145ea565b611111565b3480156104e857600080fd5b506103846104f73660046145ea565b6113e8565b34801561050857600080fd5b5061038461140c565b34801561051d57600080fd5b5061043a61052c3660046145ea565b611459565b34801561053d57600080fd5b5061055161054c3660046145ea565b611803565b60405161035b939291906149c7565b34801561056c57600080fd5b506103b461057b3660046145ea565b6119d0565b34801561058c57600080fd5b506105a061059b3660046145ea565b611ab1565b60405161035b959493929190614a6a565b3480156105bd57600080fd5b5061043a6105cc366004614561565b611de9565b3480156105dd57600080fd5b506105f16105ec3660046145ea565b611e5a565b60405161035b9190614a00565b34801561060a57600080fd5b5061062b6106193660046145ea565b6000908152600b602052604090205490565b60405190815260200161035b565b34801561064557600080fd5b5060035461038490600160a01b900460ff1681565b34801561066657600080fd5b50610384610675366004614583565b611edc565b34801561068657600080fd5b5061069a6106953660046145ea565b611f29565b60405161035b93929190614aad565b3480156106b557600080fd5b5061043a6106c43660046145ea565b6120f8565b3480156106d557600080fd5b506106e96106e43660046145ea565b61220f565b60405161035b93929190614984565b34801561070457600080fd5b5061043a6107133660046145ea565b6123de565b34801561072457600080fd5b506002546001600160a01b0316610347565b34801561074257600080fd5b50610384610751366004614583565b612587565b34801561076257600080fd5b5061043a610771366004614603565b6125cb565b34801561078257600080fd5b5061043a6107913660046145ad565b6125ec565b3480156107a257600080fd5b506103846107b1366004614583565b6125ff565b3480156107c257600080fd5b5061043a61263d565b3480156107d757600080fd5b506107e06126aa565b60405161035b9190614a9a565b3480156107f957600080fd5b506002546001600160a01b03163314610384565b34801561081957600080fd5b506103846108283660046145ea565b61273c565b34801561083957600080fd5b5061084d6108483660046145ea565b612748565b60405161035b9190614971565b34801561086657600080fd5b5061043a6108753660046145ea565b6127b3565b34801561088657600080fd5b5061043a610895366004614702565b612835565b3480156108a657600080fd5b50600354610347906001600160a01b031681565b3480156108c657600080fd5b50600354600160a01b900460ff16610384565b3480156108e557600080fd5b5033610347565b3480156108f857600080fd5b5061043a610907366004614603565b612930565b34801561091857600080fd5b50610921612c48565b60405161035b9190614a26565b34801561093a57600080fd5b5061043a610949366004614583565b612c9f565b34801561095a57600080fd5b506107e0612cee565b34801561096f57600080fd5b5061098361097e3660046145ea565b612d7c565b60405161035b9796959493929190614cc4565b3480156109a257600080fd5b506103b46130cc565b3480156109b757600080fd5b506109cb6109c63660046145ea565b6131a5565b60405161035b9190614b65565b3480156109e457600080fd5b506001546001600160a01b03163314610384565b348015610a0457600080fd5b50610384610a13366004614583565b61353b565b61043a610a263660046145ea565b6135bd565b348015610a3757600080fd5b5061043a610a46366004614603565b613657565b348015610a5757600080fd5b5061062b610a663660046145ea565b6000908152600a6020908152604080832033845290915290205490565b348015610a8f57600080fd5b5061043a610a9e3660046145ad565b613746565b348015610aaf57600080fd5b5061043a610abe36600461462f565b6139bb565b348015610acf57600080fd5b50610384610ade3660046145ea565b613a15565b348015610aef57600080fd5b50610551610afe3660046145ea565b613a39565b348015610b0f57600080fd5b50610551610b1e3660046145ea565b613c1e565b348015610b2f57600080fd5b506003546001600160a01b03163314610384565b348015610b4f57600080fd5b50610384610b5e3660046145ea565b613d68565b348015610b6f57600080fd5b506003546001600160a01b0316610347565b600354600090600160a01b900460ff1615610b9b57600080fd5b610ba53383611edc565b90505b919050565b6060601f6000838152602001908152602001600020805480602002602001604051908101604052809291908181526020016000905b82821015610c8e578382906000526020600020018054610c0190614de3565b80601f0160208091040260200160405190810160405280929190818152602001828054610c2d90614de3565b8015610c7a5780601f10610c4f57610100808354040283529160200191610c7a565b820191906000526020600020905b815481529060010190602001808311610c5d57829003601f168201915b505050505081526020019060010190610be2565b505050509050919050565b80610ca4338261353b565b610cad57600080fd5b600354600160a01b900460ff1615610cc457600080fd5b6000828152600f602090815260408083206001600160a01b03871680855290835292819020805460ff19169055518481527f1af6d16168d33745872119540d28858eed156c5f265206bbf1344fda39a93a33910160405180910390a2505050565b6000838152601760209081526040808320338085529252909120548491908015610dbc5760405162461bcd60e51b815260206004820152603d60248201527f4572726f723a207468697320616464726573732068617320616c72656164792060448201527f72657175657374656420746f206a6f696e20746869732067726f75702e00000060648201526084015b60405180910390fd5b6000868152601060209081526040808320338085529252909120548791908015610df85760405162461bcd60e51b8152600401610db390614b08565b600089815260186020526040902054610ee057600089815260186020908152604080832060019081905560198352818420805480830182559085528385200180546001600160a01b03191690558c8452601a835281842080549182018155845282842082519384019283905292849052610e749392019161427a565b506000898152601b60209081526040808320805460018082018355918552838520848204018054601f92831661010090810a60ff908102199092169092558f8752601c86529386208054938401815586529484902093820490930180549190931690930a021990911690555b6000898152601860209081526040808320546017835281842033808652908452828520919091558c8452601983528184208054600181810183559186528486200180546001600160a01b0319169092179091558c8452601a83529083208054918201815583529120610f54910189896142fe565b506000898152601b60209081526040808320805460018082018355918552838520848204018054601f92831661010090810a60ff81810219909316179092558f8752601c8652848720805480860182559088528688208782040180549190941690920a02191690558c8452601890925290912054610fd191614d73565b60008a815260186020908152604080832093909355600b90528190205490517fc73d895047e43bcf8caa9f1cce950d0f1a21fc9a00a8d693db86cd0c93dc91aa9161101f918c913391614ca5565b60405180910390a1505050505050505050565b6001546001600160a01b0316331461104957600080fd5b6001600160a01b03811661105c57600080fd5b600180546001600160a01b0319166001600160a01b0392909216919091179055565b6001546001600160a01b0316331461109557600080fd5b6001600160a01b0381166110a857600080fd5b600380546001600160a01b0319166001600160a01b0383161790556040517fa308298a77084def994b565be25bff2e8fbfe7006c2c6b2bacfb84d1ba1f635090600090a150565b806110fa338261353b565b61110357600080fd5b61110d8233613da7565b5050565b8061111c338261353b565b8061113157506003546001600160a01b031633145b61113a57600080fd5b600354600160a01b900460ff161561115157600080fd5b6000828152600860205260408120600201805460ff191660031790555b6000838152600860205260409020600601548110156111e557600083815260208052604081208054839081106111a6576111a6614e5f565b6000918252602080832090910154868352601d825260408084206001600160a01b039092168452915281205550806111dd81614e18565b91505061116e565b5060008281526021602052604081206111fd91614372565b6000828152601f602052604081206112149161439a565b6000828152602080526040812061122a916143b8565b6000828152601e602090815260408083208390556009825280832060088352908320815460018181018455928552929093208354600e9093020191825580830180549183019161127990614de3565b6112849291906143d6565b50600282810154908201805460ff9092169160ff191660018360038111156112ae576112ae614e49565b02179055506003820154816003015560048201548160040155600582015481600501556006820154816006015560078201816007019080546112ef90614de3565b6112fa9291906143d6565b50600882018160080190805461130f90614de3565b61131a9291906143d6565b50600982018160090190805461132f90614de3565b61133a9291906143d6565b50600a8281015490820180546001600160a01b0319166001600160a01b03909216919091179055600b8083015481830155600c8084015481840155600d9384015492840192909255600085815260086020526040808220600681018390559283018290559282018190559201919091555133907f6f45a19e8850c727d0de9f32e0d8691324a9a74ffb4347652e6404138b1d8165906113dc9085815260200190565b60405180910390a25050565b600354600090600160a01b900460ff161561140257600080fd5b610ba53383612587565b6001546000906001600160a01b0316331461142657600080fd5b600354600160a01b900460ff1661143c57600080fd5b506003805460ff60a01b191690819055600160a01b900460ff1690565b806114643382611edc565b61146d57600080fd5b600082815260106020908152604080832033808552908352818420548685526014909352922080548593929190829081106114aa576114aa614e5f565b60009182526020918290209181049091015460ff601f9092166101000a9004166115485760405162461bcd60e51b815260206004820152604360248201527f4572726f723a20726563697069656e74277320656c696769626c696c6974792060448201527f686173206265656e2064697361626c656420666f7220746869732067726f757060648201526217171760e91b608482015260a401610db3565b600354600160a01b900460ff161561155f57600080fd5b6000858152601e6020526040902054611613576000858152601e60209081526040808320600190819055828052818420805480830182559085528385200180546001600160a01b0319169055888452601f8352818420805491820181558452828420825193840192839052928490526115da9392019161427a565b5060008581526021602090815260408220805460018101825590835291819020908204018054601f9092166101000a60ff021990911690555b60008581526010602090815260408083203384528252808320548884526013909252822080549192918390811061164c5761164c614e5f565b90600052602060002001805461166190614de3565b80601f016020809104026020016040519081016040528092919081815260200182805461168d90614de3565b80156116da5780601f106116af576101008083540402835291602001916116da565b820191906000526020600020905b8154815290600101906020018083116116bd57829003601f168201915b50505060008a8152602080805260408083208054600181810183559185528385200180546001600160a01b031916331790558d8452601f835290832080549182018155835291819020855195965061173995920193508501915061427a565b506000878152602160209081526040808320805460018082018355918552838520848204018054601f9092166101000a60ff021990911690558a845260089092529091206006015461178a91614d73565b600088815260086020908152604080832060060193909355601e905220546117b3906001614d73565b6000888152601e6020908152604091829020929092555188815233917f0695e999be8100bdb5bee8612337296508d527eae78c65b8f170eacb5a3b439d910160405180910390a250505050505050565b600081815260208080526040808320601f83528184206021845293829020815483518186028101860190945280845260609586958695919392859183018282801561187757602002820191906000526020600020905b81546001600160a01b03168152600190910190602001808311611859575b5050505050925081805480602002602001604051908101604052809291908181526020016000905b8282101561194b5783829060005260206000200180546118be90614de3565b80601f01602080910402602001604051908101604052809291908181526020018280546118ea90614de3565b80156119375780601f1061190c57610100808354040283529160200191611937565b820191906000526020600020905b81548152906001019060200180831161191a57829003601f168201915b50505050508152602001906001019061189f565b505050509150808054806020026020016040519081016040528092919081815260200182805480156119bc57602002820191906000526020600020906000905b825461010083900a900460ff16151581526020600192830181810494850194909303909202910180841161198b5790505b505050505090509250925092509193909250565b606060136000838152602001908152602001600020805480602002602001604051908101604052809291908181526020016000905b82821015610c8e578382906000526020600020018054611a2490614de3565b80601f0160208091040260200160405190810160405280929190818152602001828054611a5090614de3565b8015611a9d5780601f10611a7257610100808354040283529160200191611a9d565b820191906000526020600020905b815481529060010190602001808311611a8057829003601f168201915b505050505081526020019060010190611a05565b60008060008060008060086000888152602001908152602001600020604051806101c001604052908160008201548152602001600182018054611af390614de3565b80601f0160208091040260200160405190810160405280929190818152602001828054611b1f90614de3565b8015611b6c5780601f10611b4157610100808354040283529160200191611b6c565b820191906000526020600020905b815481529060010190602001808311611b4f57829003601f168201915b5050509183525050600282015460209091019060ff166003811115611b9357611b93614e49565b6003811115611ba457611ba4614e49565b815260200160038201548152602001600482015481526020016005820154815260200160068201548152602001600782018054611be090614de3565b80601f0160208091040260200160405190810160405280929190818152602001828054611c0c90614de3565b8015611c595780601f10611c2e57610100808354040283529160200191611c59565b820191906000526020600020905b815481529060010190602001808311611c3c57829003601f168201915b50505050508152602001600882018054611c7290614de3565b80601f0160208091040260200160405190810160405280929190818152602001828054611c9e90614de3565b8015611ceb5780601f10611cc057610100808354040283529160200191611ceb565b820191906000526020600020905b815481529060010190602001808311611cce57829003601f168201915b50505050508152602001600982018054611d0490614de3565b80601f0160208091040260200160405190810160405280929190818152602001828054611d3090614de3565b8015611d7d5780601f10611d5257610100808354040283529160200191611d7d565b820191906000526020600020905b815481529060010190602001808311611d6057829003601f168201915b5050509183525050600a8201546001600160a01b03166020820152600b820154604080830191909152600c8301546060830152600d9092015460809091015281015160c08201516101608301516101808401516101a090940151929b919a509850919650945092505050565b6001546001600160a01b03163314611e0057600080fd5b6001600160a01b038116611e1357600080fd5b600280546001600160a01b0319166001600160a01b0383161790556040517f162e32528b5907ecf876b3b7a4e5e0edf878642e3ec25852e3c35af1a4e1c04090600090a150565b600081815260146020908152604091829020805483518184028101840190945280845260609392830182828015611ed057602002820191906000526020600020906000905b825461010083900a900460ff161515815260206001928301818104948501949093039092029101808411611e9f5790505b50505050509050919050565b600354600090600160a01b900460ff1615611ef657600080fd5b506000818152600f602090815260408083206001600160a01b038616845290915290205460ff1615156001145b92915050565b60008181526008602081905260409091206007810180546060938493849392918101916009909101908390611f5d90614de3565b80601f0160208091040260200160405190810160405280929190818152602001828054611f8990614de3565b8015611fd65780601f10611fab57610100808354040283529160200191611fd6565b820191906000526020600020905b815481529060010190602001808311611fb957829003601f168201915b50505050509250818054611fe990614de3565b80601f016020809104026020016040519081016040528092919081815260200182805461201590614de3565b80156120625780601f1061203757610100808354040283529160200191612062565b820191906000526020600020905b81548152906001019060200180831161204557829003601f168201915b5050505050915080805461207590614de3565b80601f01602080910402602001604051908101604052809291908181526020018280546120a190614de3565b80156119bc5780601f106120c3576101008083540402835291602001916119bc565b820191906000526020600020905b8154815290600101906020018083116120d15750969b959a50929850939650505050505050565b806121033382612587565b61210c57600080fd5b60008281526015602090815260408083203380855292529091205483919060ff1615156001141561213c57600080fd5b600354600160a01b900460ff161561215357600080fd5b60008481526015602090815260408083203384528252808320805460ff1916600117905586835260089091528120600d0180549161219083614e18565b9091555050600084815260086020526040808220600c01549051339282156108fc02929190818181858888f193505050501580156121d2573d6000803e3d6000fd5b5060405184815233907f1a31e733a172afcf46074b3106c17f0c298e226442682a03c1e99ce256139ec2906020015b60405180910390a250505050565b6000818152600c60209081526040808320600e8352818420600d845293829020815483518186028101860190945280845260609586958695919392859183018282801561228557602002820191906000526020600020905b81546001600160a01b03168152600190910190602001808311612267575b50505050509250818054806020026020016040519081016040528092919081815260200182805480156122f757602002820191906000526020600020906000905b825461010083900a900460ff1615158152602060019283018181049485019490930390920291018084116122c65790505b5050505050915080805480602002602001604051908101604052809291908181526020016000905b828210156123cb57838290600052602060002001805461233e90614de3565b80601f016020809104026020016040519081016040528092919081815260200182805461236a90614de3565b80156123b75780601f1061238c576101008083540402835291602001916123b7565b820191906000526020600020905b81548152906001019060200180831161239a57829003601f168201915b50505050508152602001906001019061231f565b5050505090509250925092509193909250565b806123e9338261353b565b6123f257600080fd5b600354600160a01b900460ff161561240957600080fd5b600082815260086020526040902060060154600111156124815760405162461bcd60e51b815260206004820152602d60248201527f43616e277420656e6420726567697374726174696f6e2077697468207a65726f60448201526c2072656769737472616e74732160981b6064820152608401610db3565b6000828152600860205260408120426004820155600554600b909101546064916124aa91614dad565b6124b49190614d8b565b6002546040519192506001600160a01b03169082156108fc029083906000818181858888f193505050501580156124ef573d6000803e3d6000fd5b506000838152600860205260408120600b015461250d908390614dcc565b60008581526008602052604090206006015490915061252c9082614d8b565b6000858152600860205260409020600c8101919091556002908101805460ff1916600183021790555060405184815233907fef898a6941c945450e9bbdad4a76fcd0f51f42f7e251fddcb1e5479ba786d5e490602001612201565b600354600090600160a01b900460ff16156125a157600080fd5b506000908152601d602090815260408083206001600160a01b039490941683529290522054151590565b6003546001600160a01b031633146125e257600080fd5b61110d8282613da7565b805161110d90600090602084019061427a565b600354600090600160a01b900460ff161561261957600080fd5b506000908152600860205260409020600a01546001600160a01b0390811691161490565b6003546001600160a01b031633148061266057506001546001600160a01b031633145b8061267557506002546001600160a01b031633145b61267e57600080fd5b600354600160a01b900460ff161561269557600080fd5b6003805460ff60a01b1916600160a01b179055565b6060600080546126b990614de3565b80601f01602080910402602001604051908101604052809291908181526020018280546126e590614de3565b80156127325780601f1061270757610100808354040283529160200191612732565b820191906000526020600020905b81548152906001019060200180831161271557829003601f168201915b5050505050905090565b6000610ba5338361353b565b600081815260126020908152604091829020805483518184028101840190945280845260609392830182828015611ed057602002820191906000526020600020905b81546001600160a01b0316815260019091019060200180831161278a5750505050509050919050565b806127be338261353b565b6127c757600080fd5b600354600160a01b900460ff16156127de57600080fd5b60008281526008602090815260409182902060028101805460ff1916600117905542600390910155905183815233917ff77c6f27499b698205f54058c2914a340e1300c2bc0d9a819e7aebfbaabbbb9391016113dc565b8361284033826125ff565b61284957600080fd5b83511561287757600085815260086020908152604090912085516128759260079092019187019061427a565b505b8251156128a557600085815260086020818152604090922085516128a39391909201919086019061427a565b505b8151156128d357600085815260086020908152604090912083516128d19260099092019185019061427a565b505b60008581526008602081905260409182902091517fcd9ad49d834aeea746bafd2d26eebd3d01ebac2d8f5d3f53d7f3884292e5835f9261292192899260078301929182019160090190614d29565b60405180910390a15050505050565b8161293b338261353b565b61294457600080fd5b600354600160a01b900460ff161561295b57600080fd5b60008381526010602090815260408083206001600160a01b03861684529091529020548390839080156129a05760405162461bcd60e51b8152600401610db390614b08565b60008681526017602090815260408083206001600160a01b0389168452909152902054869086908015801590612a1257506000838152601b602052604090208054829081106129f1576129f1614e5f565b90600052602060002090602091828204019190069054906101000a900460ff165b612a945760405162461bcd60e51b815260206004820152604760248201527f4572726f723a2074686973206164647265737320646f6573206e6f742068617660448201527f6520612070656e64696e67207265717565737420746f206a6f696e20746869736064820152661033b937bab81760c91b608482015260a401610db3565b60008981526017602090815260408083206001600160a01b038c1684528252808320548c845260199092528220805491929183908110612ad657612ad6614e5f565b60009182526020808320909101548d8352601a9091526040822080546001600160a01b0390921693509084908110612b1057612b10614e5f565b906000526020600020018054612b2590614de3565b80601f0160208091040260200160405190810160405280929190818152602001828054612b5190614de3565b8015612b9e5780601f10612b7357610100808354040283529160200191612b9e565b820191906000526020600020905b815481529060010190602001808311612b8157829003601f168201915b505050505090506001601c60008e81526020019081526020016000208481548110612bcb57612bcb614e5f565b90600052602060002090602091828204019190066101000a81548160ff021916908315150217905550612bff82828e613e58565b7fa99702a14ae3f010941d30549064432035071f0e359c50ec6b37d47f430d557a8c8383604051612c3293929190614c72565b60405180910390a1505050505050505050505050565b6060600680548060200260200160405190810160405280929190818152602001828054801561273257602002820191906000526020600020905b815481526020019060010190808311612c82575050505050905090565b80612caa338261353b565b80612cbf57506003546001600160a01b031633145b612cc857600080fd5b600354600160a01b900460ff1615612cdf57600080fd5b612ce98383614027565b505050565b60008054612cfb90614de3565b80601f0160208091040260200160405190810160405280929190818152602001828054612d2790614de3565b8015612d745780601f10612d4957610100808354040283529160200191612d74565b820191906000526020600020905b815481529060010190602001808311612d5757829003601f168201915b505050505081565b60006060600080600080600080600860008a8152602001908152602001600020604051806101c001604052908160008201548152602001600182018054612dc290614de3565b80601f0160208091040260200160405190810160405280929190818152602001828054612dee90614de3565b8015612e3b5780601f10612e1057610100808354040283529160200191612e3b565b820191906000526020600020905b815481529060010190602001808311612e1e57829003601f168201915b5050509183525050600282015460209091019060ff166003811115612e6257612e62614e49565b6003811115612e7357612e73614e49565b815260200160038201548152602001600482015481526020016005820154815260200160068201548152602001600782018054612eaf90614de3565b80601f0160208091040260200160405190810160405280929190818152602001828054612edb90614de3565b8015612f285780601f10612efd57610100808354040283529160200191612f28565b820191906000526020600020905b815481529060010190602001808311612f0b57829003601f168201915b50505050508152602001600882018054612f4190614de3565b80601f0160208091040260200160405190810160405280929190818152602001828054612f6d90614de3565b8015612fba5780601f10612f8f57610100808354040283529160200191612fba565b820191906000526020600020905b815481529060010190602001808311612f9d57829003601f168201915b50505050508152602001600982018054612fd390614de3565b80601f0160208091040260200160405190810160405280929190818152602001828054612fff90614de3565b801561304c5780601f106130215761010080835404028352916020019161304c565b820191906000526020600020905b81548152906001019060200180831161302f57829003601f168201915b5050509183525050600a8201546001600160a01b0316602080830191909152600b830154604080840191909152600c8401546060840152600d909301546080909201919091528251908301519183015160c08401516101608501516101808601516101a090960151939f949e50919c509a50985091965090945092505050565b60606007805480602002602001604051908101604052809291908181526020016000905b8282101561319c57838290600052602060002001805461310f90614de3565b80601f016020809104026020016040519081016040528092919081815260200182805461313b90614de3565b80156131885780601f1061315d57610100808354040283529160200191613188565b820191906000526020600020905b81548152906001019060200180831161316b57829003601f168201915b5050505050815260200190600101906130f0565b50505050905090565b613220604080516101c081018252600080825260606020830152909182019081526020016000815260200160008152602001600081526020016000815260200160608152602001606081526020016060815260200160006001600160a01b031681526020016000815260200160008152602001600081525090565b8161322b338261353b565b61323457600080fd5b60086000848152602001908152602001600020604051806101c00160405290816000820154815260200160018201805461326d90614de3565b80601f016020809104026020016040519081016040528092919081815260200182805461329990614de3565b80156132e65780601f106132bb576101008083540402835291602001916132e6565b820191906000526020600020905b8154815290600101906020018083116132c957829003601f168201915b5050509183525050600282015460209091019060ff16600381111561330d5761330d614e49565b600381111561331e5761331e614e49565b81526020016003820154815260200160048201548152602001600582015481526020016006820154815260200160078201805461335a90614de3565b80601f016020809104026020016040519081016040528092919081815260200182805461338690614de3565b80156133d35780601f106133a8576101008083540402835291602001916133d3565b820191906000526020600020905b8154815290600101906020018083116133b657829003601f168201915b505050505081526020016008820180546133ec90614de3565b80601f016020809104026020016040519081016040528092919081815260200182805461341890614de3565b80156134655780601f1061343a57610100808354040283529160200191613465565b820191906000526020600020905b81548152906001019060200180831161344857829003601f168201915b5050505050815260200160098201805461347e90614de3565b80601f01602080910402602001604051908101604052809291908181526020018280546134aa90614de3565b80156134f75780601f106134cc576101008083540402835291602001916134f7565b820191906000526020600020905b8154815290600101906020018083116134da57829003601f168201915b5050509183525050600a8201546001600160a01b03166020820152600b8201546040820152600c8201546060820152600d9091015460809091015291505b50919050565b6000818152600a602090815260408083206001600160a01b03861684529091528120548061356d576000915050611f23565b6000838152600e6020526040902080548290811061358d5761358d614e5f565b90600052602060002090602091828204019190069054906101000a900460ff161515600115151491505092915050565b806135c833826125ff565b6135d157600080fd5b600354600160a01b900460ff16156135e857600080fd5b6000828152600860205260408120600b018054349290613609908490614d73565b9091555050600082815260086020908152604091829020600b015482518581529182015233917f5dc1fe5ab986a852c4eda8e8bb94247d13307065c593fb83f1a09be27367938291016113dc565b6003546001600160a01b0316331461366e57600080fd5b6000828152600a602090815260408083206001600160a01b0385168452825280832054858452600e909252909120805460019190839081106136b2576136b2614e5f565b90600052602060002090602091828204019190066101000a81548160ff0219169083151502179055507f2d19f1f4aa7d21a07d18586e49b3e0529d148488052497ea97f06d7266c3cbbe83600d6000868152602001908152602001600020838154811061372157613721614e5f565b90600052602060002001604051613739929190614d10565b60405180910390a1505050565b6003546001600160a01b0316331461375d57600080fd5b600354600160a01b900460ff161561377457600080fd5b604080516101c0810182524280825260208083018581526000848601819052606085018490526080850184905260a0850184905260c085018190528551808401875281815260e086015285518084018752818152610100860152855180840187528181526101208601526101408501819052610160850181905261018085018190526101a085018190528381526008835294909420835181559351805192948493909261382892600185019291019061427a565b50604082015160028201805460ff1916600183600381111561384c5761384c614e49565b0217905550606082015160038201556080820151600482015560a0820151600582015560c0820151600682015560e0820151805161389491600784019160209091019061427a565b5061010082015180516138b191600884019160209091019061427a565b5061012082015180516138ce91600984019160209091019061427a565b50610140820151600a820180546001600160a01b0319166001600160a01b03909216919091179055610160820151600b820155610180820151600c8201556101a090910151600d909101556006805460018181019092557ff652222313e28459528d920b65115c16c04f3efc82aaedc97be59f3f377c0d3f018390556007805491820181556000528351613989917fa66cc928b5edb82af9bd49922954155ab7b0942694bea4ce44661d9a8736c6880190602086019061427a565b507f5937a473913f56daf7dea7a6e821970acaa73f35555cf88f70c54f243cd98a9e8383604051613739929190614ae6565b6000838152600a602090815260408083206001600160a01b038616845290915290205483908390156139ec57600080fd5b6003546001600160a01b03163314613a0357600080fd5b613a0e8585856140a0565b5050505050565b600354600090600160a01b900460ff1615613a2f57600080fd5b610ba533836125ff565b606080606083613a49338261353b565b613a5257600080fd5b6000858152601960209081526040808320601a8352818420601c84529382902081548351818602810186019094528084529194939092918591830182828015613ac457602002820191906000526020600020905b81546001600160a01b03168152600190910190602001808311613aa6575b5050505050925081805480602002602001604051908101604052809291908181526020016000905b82821015613b98578382906000526020600020018054613b0b90614de3565b80601f0160208091040260200160405190810160405280929190818152602001828054613b3790614de3565b8015613b845780601f10613b5957610100808354040283529160200191613b84565b820191906000526020600020905b815481529060010190602001808311613b6757829003601f168201915b505050505081526020019060010190613aec565b50505050915080805480602002602001604051908101604052809291908181526020018280548015613c0957602002820191906000526020600020906000905b825461010083900a900460ff161515815260206001928301818104948501949093039092029101808411613bd85790505b50505050509050935093509350509193909250565b60008181526012602090815260408083206013835281842060148452938290208154835181860281018601909452808452606095869586959193928591830182828015613c9457602002820191906000526020600020905b81546001600160a01b03168152600190910190602001808311613c76575b5050505050925081805480602002602001604051908101604052809291908181526020016000905b8282101561194b578382906000526020600020018054613cdb90614de3565b80601f0160208091040260200160405190810160405280929190818152602001828054613d0790614de3565b8015613d545780601f10613d2957610100808354040283529160200191613d54565b820191906000526020600020905b815481529060010190602001808311613d3757829003601f168201915b505050505081526020019060010190613cbc565b6000613d743383612587565b613d8057506000919050565b50600090815260156020908152604080832033845290915290205460ff1615156001141590565b6000828152600a602090815260408083206001600160a01b0385168452825280832054858452600e9092528220805491929183908110613de957613de9614e5f565b90600052602060002090602091828204019190066101000a81548160ff0219169083151502179055507f021d633158208ba55afbe8aae9878e510cccaf8f1fe2d8c42455d95f58f3b1f083600d6000868152602001908152602001600020838154811061372157613721614e5f565b600354600160a01b900460ff1615613e6f57600080fd5b80613e7a338261353b565b613e8357600080fd5b600082815260116020526040902054613f3857600082815260116020908152604080832060019081905560128352818420805480830182559085528385200180546001600160a01b03191690558584526013835281842080549182018155845282842082519384019283905292849052613eff9392019161427a565b5060008281526014602090815260408220805460018101825590835291819020908204018054601f9092166101000a60ff021990911690555b600082815260116020908152604080832054601083528184206001600160a01b03891680865290845282852091909155858452601283528184208054600181810183559186528486200180546001600160a01b03191690921790915585845260138352908320805491820181558352918190208551613fbe93919091019186019061427a565b50600082815260146020908152604080832080546001818101835591855283852084820401805460ff601f9093166101000a9283021916909117905585845260119092529091205461400f91614d73565b60009283526011602052604090922091909155505050565b60008181526016602090815260408083206001600160a01b038616808552908352818420805460ff191660011790558484526008835292819020600a0180546001600160a01b03191684179055518381527f5fd6d0b7e707fe344bd2a1887f9d0eeea8bfcac6f339ba4200e74f0647f101c091016113dc565b6000838152600b6020526040902054614164576000838152600b60209081526040808320600190819055600c808452828520805480840182559086528486200180546001600160a01b0319169055878552600e845282852080548084018255908652848620858204018054601f9092166101000a60ff02199091169055878552600d84528285208054928301815585529383902082518084019093528483526b7a65726f206164647265737360a01b929093019182526141629392019161427a565b505b6000838152600b6020908152604080832054600a83528184206001600160a01b03871680865290845282852091909155868452600c83528184208054600181810183559186528486200180546001600160a01b031916909217909155868452600e83528184208054808301825590855283852084820401805460ff601f9093166101000a92830219169091179055868452600d835290832080549182018155835291819020835161421c93919091019184019061427a565b506000838152600b6020526040902054614237906001614d73565b6000848152600b602052604090819020829055517f88356b104f5ba3e9281d371b21296e4e0390dda6f4bcc4bfc219f6d67cc8ae50916137399186918691614ca5565b82805461428690614de3565b90600052602060002090601f0160209004810192826142a857600085556142ee565b82601f106142c157805160ff19168380011785556142ee565b828001600101855582156142ee579182015b828111156142ee5782518255916020019190600101906142d3565b506142fa929150614451565b5090565b82805461430a90614de3565b90600052602060002090601f01602090048101928261432c57600085556142ee565b82601f106143455782800160ff198235161785556142ee565b828001600101855582156142ee579182015b828111156142ee578235825591602001919060010190614357565b50805460008255601f0160209004906000526020600020908101906143979190614451565b50565b50805460008255906000526020600020908101906143979190614466565b50805460008255906000526020600020908101906143979190614451565b8280546143e290614de3565b90600052602060002090601f01602090048101928261440457600085556142ee565b82601f1061441557805485556142ee565b828001600101855582156142ee57600052602060002091601f016020900482015b828111156142ee578254825591600101919060010190614436565b5b808211156142fa5760008155600101614452565b808211156142fa57600061447a8282614483565b50600101614466565b50805461448f90614de3565b6000825580601f1061449f575050565b601f0160209004906000526020600020908101906143979190614451565b80356001600160a01b0381168114610ba857600080fd5b600082601f8301126144e557600080fd5b813567ffffffffffffffff8082111561450057614500614e75565b604051601f8301601f19908116603f0116810190828211818310171561452857614528614e75565b8160405283815286602085880101111561454157600080fd5b836020870160208301376000602085830101528094505050505092915050565b60006020828403121561457357600080fd5b61457c826144bd565b9392505050565b6000806040838503121561459657600080fd5b61459f836144bd565b946020939093013593505050565b6000602082840312156145bf57600080fd5b813567ffffffffffffffff8111156145d657600080fd5b6145e2848285016144d4565b949350505050565b6000602082840312156145fc57600080fd5b5035919050565b6000806040838503121561461657600080fd5b82359150614626602084016144bd565b90509250929050565b60008060006060848603121561464457600080fd5b83359250614654602085016144bd565b9150604084013567ffffffffffffffff81111561467057600080fd5b61467c868287016144d4565b9150509250925092565b60008060006040848603121561469b57600080fd5b83359250602084013567ffffffffffffffff808211156146ba57600080fd5b818601915086601f8301126146ce57600080fd5b8135818111156146dd57600080fd5b8760208285010111156146ef57600080fd5b6020830194508093505050509250925092565b6000806000806080858703121561471857600080fd5b84359350602085013567ffffffffffffffff8082111561473757600080fd5b614743888389016144d4565b9450604087013591508082111561475957600080fd5b614765888389016144d4565b9350606087013591508082111561477b57600080fd5b50614788878288016144d4565b91505092959194509250565b600081518084526020808501945080840160005b838110156147cd5781516001600160a01b0316875295820195908201906001016147a8565b509495945050505050565b600081518084526020808501945080840160005b838110156147cd5781511515875295820195908201906001016147ec565b600082825180855260208086019550808260051b84010181860160005b8481101561485557601f19868403018952614843838351614884565b98840198925090830190600101614827565b5090979650505050505050565b6004811061488057634e487b7160e01b600052602160045260246000fd5b9052565b6000815180845260005b818110156148aa5760208185018101518683018201520161488e565b818111156148bc576000602083870101525b50601f01601f19169290920160200192915050565b8054600090600181811c90808316806148eb57607f831692505b602080841082141561490d57634e487b7160e01b600052602260045260246000fd5b83885260208801828015614928576001811461493957614964565b60ff19871682528282019750614964565b60008981526020902060005b8781101561495e57815484820152908601908401614945565b83019850505b5050505050505092915050565b60208152600061457c6020830184614794565b6060815260006149976060830186614794565b82810360208401526149a981866147d8565b905082810360408401526149bd818561480a565b9695505050505050565b6060815260006149da6060830186614794565b82810360208401526149ec818661480a565b905082810360408401526149bd81856147d8565b60208152600061457c60208301846147d8565b60208152600061457c602083018461480a565b6020808252825182820181905260009190848201906040850190845b81811015614a5e57835183529284019291840191600101614a42565b50909695505050505050565b60a08101614a788288614862565b8560208301528460408301528360608301528260808301529695505050505050565b60208152600061457c6020830184614884565b606081526000614ac06060830186614884565b8281036020840152614ad28186614884565b905082810360408401526149bd8185614884565b604081526000614af96040830185614884565b90508260208301529392505050565b6020808252603f908201527f4572726f723a20726563697069656e7420697320616c726561647920616e206560408201527f6c696769626c6520726563697069656e7420696e207468652067726f75702e00606082015260800190565b6020815281516020820152600060208301516101c0806040850152614b8e6101e0850183614884565b91506040850151614ba26060860182614862565b5060608501516080850152608085015160a085015260a085015160c085015260c085015160e085015260e0850151601f19610100818786030181880152614be98584614884565b945080880151925050610120818786030181880152614c088584614884565b945080880151925050610140818786030181880152614c278584614884565b94508088015192505050610160614c48818701836001600160a01b03169052565b860151610180868101919091528601516101a0808701919091529095015193019290925250919050565b8381526001600160a01b0383166020820152606060408201819052600090614c9c90830184614884565b95945050505050565b9283526001600160a01b03919091166020830152604082015260600190565b87815260e060208201526000614cdd60e0830189614884565b9050614cec6040830188614862565b8560608301528460808301528360a08301528260c083015298975050505050505050565b8281526040602082015260006145e260408301846148d1565b848152608060208201526000614d4260808301866148d1565b8281036040840152614d5481866148d1565b90508281036060840152614d6881856148d1565b979650505050505050565b60008219821115614d8657614d86614e33565b500190565b600082614da857634e487b7160e01b600052601260045260246000fd5b500490565b6000816000190483118215151615614dc757614dc7614e33565b500290565b600082821015614dde57614dde614e33565b500390565b600181811c90821680614df757607f821691505b6020821081141561353557634e487b7160e01b600052602260045260246000fd5b6000600019821415614e2c57614e2c614e33565b5060010190565b634e487b7160e01b600052601160045260246000fd5b634e487b7160e01b600052602160045260246000fd5b634e487b7160e01b600052603260045260246000fd5b634e487b7160e01b600052604160045260246000fdfea264697066735822122084b8fc33de4744b55da56fd33c19b1e11b0e627c0e3a1fa62290ac99b7f61f8064736f6c63430008070033",
  "immutableReferences": {},
  "source": "// SPDX-License-Identifier: MIT\npragma solidity ^0.8.0;\n\nimport './ContributorManager.sol';\n\ncontract AdminsManager is ContributorManager {\n    event GroupCreated(string groupName, uint256 groupId);\n    event EventStarted(address indexed startedBy, uint256 groupId);\n    event RegistrationEnded(address indexed endedBy, uint256 groupId);\n    event EventEnded(address indexed endedBy, uint256 groupId);\n    event AdminAdded(uint256 groupId, address account, uint256 index);\n    event AdminRemoved(uint256 groupId, string name);\n    event AdminReEnabled(uint256 groupId, string name);\n    event GettingMyAdminIndex(uint256 groupId, address account, uint256 index);\n\n    event NewJoinerRequestApproved(\n        uint256 groupId,\n        address addressOfUserGettingApproved,\n        string nameOfUserGettingApproved\n    );\n\n    event CalculatedPot(\n        uint256 registeredRecipientCount,\n        uint256 winningsPerRecipient\n    );\n\n    constructor() {}\n\n    modifier onlyAdmins(uint256 groupId) {\n        require(isAdmin(msg.sender, groupId));\n        _;\n    }\n\n    modifier wasntAlreadyAnAdmin(uint256 groupId, address account) {\n        require(adminAddressToIndex[groupId][account] == 0);\n        _;\n    }\n\n    function isAdmin(address account, uint256 groupId)\n        public\n        view\n        returns (bool)\n    {\n        uint256 adminIndex = adminAddressToIndex[groupId][account];\n\n        // if user was never an admin, return false\n        if (adminIndex == 0) {\n            return false;\n        }\n\n        return adminEnabled[groupId][adminIndex] == true;\n    }\n\n    function getMyAdminIndex(uint256 groupId) external view returns (uint256) {\n        return adminAddressToIndex[groupId][msg.sender];\n    }\n\n    // TODO - allow COO to give \"admin-granting power\" to other admins\n    function addAdmin(\n        uint256 groupId,\n        address account,\n        string memory name\n    ) external wasntAlreadyAnAdmin(groupId, account) onlyCOO {\n        _addAdmin(groupId, account, name);\n    }\n\n    // debug\n    function getAddressNextAdminIndex(uint256 groupId)\n        external\n        view\n        returns (uint256)\n    {\n        return nextAdminIndexForGroup[groupId];\n    }\n\n    function amIAdmin(uint256 groupId) external view returns (bool) {\n        return isAdmin(msg.sender, groupId);\n    }\n\n    function getAdminsForGroup(uint256 groupId)\n        external\n        view\n        returns (\n            address[] memory,\n            bool[] memory,\n            string[] memory\n        )\n    {\n        return (\n            adminAddresses[groupId],\n            adminEnabled[groupId],\n            adminNames[groupId]\n        );\n    }\n\n    modifier onlyAdminsOrCOO(uint256 groupId) {\n        require(isAdmin(msg.sender, groupId) || msg.sender == cooAddress);\n        _;\n    }\n\n    function reEnableAdmin(uint256 groupId, address account) external onlyCOO {\n        uint256 index = adminAddressToIndex[groupId][account];\n        adminEnabled[groupId][index] = true;\n        emit AdminReEnabled(groupId, adminNames[groupId][index]);\n    }\n\n    function removeAdmin(uint256 groupId, address account) external onlyCOO {\n        _removeAdmin(groupId, account);\n    }\n\n    function renounceAdmin(uint256 groupId) public onlyAdmins(groupId) {\n        _removeAdmin(groupId, msg.sender);\n    }\n\n    function _addAdmin(\n        uint256 groupId,\n        address account,\n        string memory name\n    ) internal {\n        // if first user, use index 1 and push some garbage things at the 0 index\n        if (nextAdminIndexForGroup[groupId] == 0) {\n            nextAdminIndexForGroup[groupId] = 1;\n\n            adminAddresses[groupId].push(address(0));\n            adminEnabled[groupId].push(false);\n            adminNames[groupId].push('zero address');\n        }\n\n        adminAddressToIndex[groupId][account] = nextAdminIndexForGroup[groupId];\n\n        adminAddresses[groupId].push(account);\n        adminEnabled[groupId].push(true);\n        adminNames[groupId].push(name);\n\n        nextAdminIndexForGroup[groupId] = nextAdminIndexForGroup[groupId] + 1;\n\n        emit AdminAdded(groupId, account, nextAdminIndexForGroup[groupId]);\n    }\n\n    function _removeAdmin(uint256 groupId, address account) internal {\n        uint256 index = adminAddressToIndex[groupId][account];\n\n        adminEnabled[groupId][index] = false;\n\n        emit AdminRemoved(groupId, adminNames[groupId][index]);\n    }\n\n    function readEventInfo(uint256 groupId)\n        external\n        view\n        onlyAdmins(groupId)\n        returns (EthDropEvent memory)\n    {\n        return currentEvents[groupId];\n    }\n\n    function createNewGroup(string memory groupName)\n        external\n        onlyCOO\n        whenNotPaused\n    {\n        // TODO - is this the best way to set the groupId? \n        uint256 newGroupId = block.timestamp;\n\n        EthDropEvent memory newGroup = EthDropEvent(\n            newGroupId,\n            groupName,\n            EventState.CREATED,\n            block.timestamp,\n            block.timestamp,\n            block.timestamp,\n            0,\n            '',\n            '',\n            '',\n            address(0),\n            0,\n            0,\n            0\n        );\n\n        currentEvents[newGroupId] = newGroup;\n\n        listOfGroupIds.push(newGroupId);\n        listOfGroupNames.push(groupName);\n\n        emit GroupCreated(groupName, newGroupId);\n    }\n\n    function startEvent(uint256 groupId)\n        external\n        onlyAdmins(groupId)\n        whenNotPaused\n    {\n        currentEvents[groupId].currentState = EventState.REGISTRATION;\n        currentEvents[groupId].startTime = block.timestamp;\n\n        emit EventStarted(msg.sender, groupId);\n    }\n\n    function closeEventRegistration(uint256 groupId)\n        external\n        onlyAdmins(groupId)\n        whenNotPaused\n    {\n        require(\n            currentEvents[groupId].registeredRecipientsCount >= 1,\n            \"Can't end registration with zero registrants!\"\n        );\n\n        currentEvents[groupId].registrationEndTime = block.timestamp;\n\n        uint256 devCutWei = (currentEvents[groupId].totalAmountContributed *\n            devCutPercentage) / 100;\n\n        // Transfer dev cut to cfo\n        payable(cfoAddress).transfer(devCutWei);\n\n        // pot is the amount for recipients to share\n        uint256 pot = currentEvents[groupId].totalAmountContributed - devCutWei;\n\n        // each recipient's winnings is the \"weiWinnings\"\n        currentEvents[groupId].weiWinnings =\n            pot /\n            currentEvents[groupId].registeredRecipientsCount;\n\n        currentEvents[groupId].currentState = EventState.CLAIM_WINNINGS;\n\n        emit RegistrationEnded(msg.sender, groupId);\n    }\n\n    function endEvent(uint256 groupId)\n        external\n        onlyAdminsOrCOO(groupId)\n        whenNotPaused\n    {\n        currentEvents[groupId].currentState = EventState.ENDED;\n\n        // First delete mappings, then arrays\n        for (\n            uint256 i = 0;\n            i < currentEvents[groupId].registeredRecipientsCount;\n            i++\n        ) {\n            address currentAddress = registeredRecipientAddressesArray[groupId][\n                i\n            ];\n\n            delete registeredRecipientsAddressToIndex[groupId][currentAddress];\n        }\n\n        delete registeredRecipientsWinningsCollected[groupId];\n        delete registeredRecipientNamesArray[groupId];\n        delete registeredRecipientAddressesArray[groupId];\n\n        registeredRecipientsNextIndex[groupId] = 0;\n\n        pastEvents[groupId].push(currentEvents[groupId]);\n\n        currentEvents[groupId].registeredRecipientsCount = 0;\n        currentEvents[groupId].totalAmountContributed = 0;\n        currentEvents[groupId].weiWinnings = 0;\n        currentEvents[groupId].numberOfUsersWhoClaimedWinnings = 0;\n\n        emit EventEnded(msg.sender, groupId);\n    }\n\n    function addEligibleRecipient(\n        address addressOfUserGettingApproved,\n        string memory nameOfUserGettingApproved,\n        uint256 groupId\n    ) internal whenNotPaused onlyAdmins(groupId) {\n        \n        if (nextEligibleRecipientIndexForGroup[groupId] == 0) {\n            nextEligibleRecipientIndexForGroup[groupId] = 1;\n\n            eligibleRecipientAddressesArray[groupId].push(address(0));\n            eligibleRecipientNamesArray[groupId].push('');\n            eligibleRecipientsEligibilityIsEnabled[groupId].push(false);\n        }\n\n        eligibleRecipientsAddresstoIndex[groupId][\n            addressOfUserGettingApproved\n        ] = nextEligibleRecipientIndexForGroup[groupId];\n\n        eligibleRecipientAddressesArray[groupId].push(\n            addressOfUserGettingApproved\n        );\n        eligibleRecipientNamesArray[groupId].push(nameOfUserGettingApproved);\n        eligibleRecipientsEligibilityIsEnabled[groupId].push(true);\n\n        nextEligibleRecipientIndexForGroup[groupId] =\n            nextEligibleRecipientIndexForGroup[groupId] +\n            1;\n    }\n\n    function removeEligibleRecipient(address account, uint256 groupId)\n        external\n        onlyAdmins(groupId)\n        whenNotPaused\n    {\n        eligibleRecipients[groupId][account] = false;\n        emit EligibleRecipientRemoved(account, groupId);\n    }\n\n    function changeContributor(address account, uint256 groupId)\n        external\n        onlyAdminsOrCOO(groupId)\n        whenNotPaused\n    {\n        _changeContributor(account, groupId);\n    }\n\n    function approveRequestToJoinGroup(\n        uint256 groupId,\n        address accountToApprove\n    )\n        external\n        onlyAdmins(groupId)\n        whenNotPaused\n        notAlreadyInGroup(groupId, accountToApprove)\n        requestsToJoinGroupIsPending(groupId, accountToApprove)\n    {\n        uint256 requestsIndexOfUserGettingApproved = requestsToJoinGroupAddressToIndex[\n                groupId\n            ][accountToApprove];\n\n        address addressOfUserGettingApproved = requestsToJoinGroupAddresses[\n            groupId\n        ][requestsIndexOfUserGettingApproved];\n\n        string memory nameOfUserGettingApproved = requestsToJoinGroupNames[\n            groupId\n        ][requestsIndexOfUserGettingApproved];\n\n        // updates requests approvals array\n        requestsToJoinGroupApprovals[groupId][\n            requestsIndexOfUserGettingApproved\n        ] = true;\n\n        // if first user, use index 1 and push some garbage things at the 0 index\n        addEligibleRecipient(addressOfUserGettingApproved, nameOfUserGettingApproved, groupId);\n\n        emit NewJoinerRequestApproved(\n            groupId,\n            addressOfUserGettingApproved,\n            nameOfUserGettingApproved\n        );\n    }\n\n    function getNewJoinerRequests(uint256 groupId)\n        external\n        view\n        onlyAdmins(groupId)\n        returns (\n            address[] memory,\n            string[] memory,\n            bool[] memory\n        )\n    {\n        return (\n            requestsToJoinGroupAddresses[groupId],\n            requestsToJoinGroupNames[groupId],\n            requestsToJoinGroupApprovals[groupId]\n        );\n    }\n\n    function getEligibleRecipients(uint256 groupId)\n        external\n        view\n        returns (\n            address[] memory,\n            string[] memory,\n            bool[] memory\n        )\n    {\n        return (\n            eligibleRecipientAddressesArray[groupId],\n            eligibleRecipientNamesArray[groupId],\n            eligibleRecipientsEligibilityIsEnabled[groupId]\n        );\n    }\n}\n",
  "sourcePath": "/Users/jim/trash/EthDrop/contracts/roles/AdminsManager.sol",
  "compiler": {
    "name": "solc",
    "version": "0.8.7+commit.e28d00a7.Emscripten.clang"
  },
  "schemaVersion": "3.4.3",
  "updatedAt": "2021-09-12T18:57:53.866Z",
  "devdoc": {
    "kind": "dev",
    "methods": {
      "pause()": {
        "details": "Called by any \"C-level\" role to pause the contract. Used only when  a bug or exploit is detected and we need to limit damage."
      },
      "setCEO(address)": {
        "details": "Assigns a new address to act as the CEO. Only available to the current CEO.",
        "params": {
          "_newCEO": "The address of the new CEO"
        }
      },
      "setCFO(address)": {
        "details": "Assigns a new address to act as the CFO. Only available to the current CEO.",
        "params": {
          "_newCFO": "The address of the new CFO"
        }
      },
      "setCOO(address)": {
        "details": "Assigns a new address to act as the COO. Only available to the current CEO.",
        "params": {
          "_newCOO": "The address of the new COO"
        }
      },
      "unpause()": {
        "details": "Unpauses the smart contract. Can only be called by the CEO, since  one reason we may pause the contract is when CFO or COO accounts are  compromised."
      }
    },
    "version": 1
  },
  "userdoc": {
    "kind": "user",
    "methods": {
      "unpause()": {
        "notice": "This is public rather than external so it can be called by  derived contracts."
      }
    },
    "version": 1
  }
}