{
  "contractName": "AdminsManager",
  "abi": [
    {
      "inputs": [],
      "stateMutability": "nonpayable",
      "type": "constructor"
    },
    {
      "anonymous": false,
      "inputs": [
        {
          "indexed": true,
          "internalType": "address",
          "name": "account",
          "type": "address"
        },
        {
          "indexed": false,
          "internalType": "uint256",
          "name": "groupId",
          "type": "uint256"
        }
      ],
      "name": "AdminAdded",
      "type": "event"
    },
    {
      "anonymous": false,
      "inputs": [
        {
          "indexed": true,
          "internalType": "address",
          "name": "account",
          "type": "address"
        },
        {
          "indexed": false,
          "internalType": "uint256",
          "name": "groupId",
          "type": "uint256"
        }
      ],
      "name": "AdminRemoved",
      "type": "event"
    },
    {
      "anonymous": false,
      "inputs": [
        {
          "indexed": false,
          "internalType": "uint256",
          "name": "registeredRecipientCount",
          "type": "uint256"
        },
        {
          "indexed": false,
          "internalType": "uint256",
          "name": "winningsPerRecipient",
          "type": "uint256"
        }
      ],
      "name": "CalculatedPot",
      "type": "event"
    },
    {
      "anonymous": false,
      "inputs": [
        {
          "indexed": false,
          "internalType": "address",
          "name": "newContract",
          "type": "address"
        }
      ],
      "name": "ContractUpgrade",
      "type": "event"
    },
    {
      "anonymous": false,
      "inputs": [
        {
          "indexed": true,
          "internalType": "address",
          "name": "account",
          "type": "address"
        },
        {
          "indexed": false,
          "internalType": "uint256",
          "name": "groupId",
          "type": "uint256"
        },
        {
          "indexed": false,
          "internalType": "uint256",
          "name": "amount",
          "type": "uint256"
        }
      ],
      "name": "ContributionMade",
      "type": "event"
    },
    {
      "anonymous": false,
      "inputs": [
        {
          "indexed": true,
          "internalType": "address",
          "name": "account",
          "type": "address"
        },
        {
          "indexed": false,
          "internalType": "uint256",
          "name": "groupId",
          "type": "uint256"
        }
      ],
      "name": "ContributorAdded",
      "type": "event"
    },
    {
      "anonymous": false,
      "inputs": [
        {
          "indexed": true,
          "internalType": "address",
          "name": "account",
          "type": "address"
        },
        {
          "indexed": false,
          "internalType": "uint256",
          "name": "groupId",
          "type": "uint256"
        }
      ],
      "name": "ContributorRemoved",
      "type": "event"
    },
    {
      "anonymous": false,
      "inputs": [
        {
          "indexed": true,
          "internalType": "address",
          "name": "account",
          "type": "address"
        },
        {
          "indexed": false,
          "internalType": "uint256",
          "name": "groupId",
          "type": "uint256"
        }
      ],
      "name": "EligibleRecipientAdded",
      "type": "event"
    },
    {
      "anonymous": false,
      "inputs": [
        {
          "indexed": true,
          "internalType": "address",
          "name": "account",
          "type": "address"
        },
        {
          "indexed": false,
          "internalType": "uint256",
          "name": "groupId",
          "type": "uint256"
        }
      ],
      "name": "EligibleRecipientRemoved",
      "type": "event"
    },
    {
      "anonymous": false,
      "inputs": [],
      "name": "EventClose",
      "type": "event"
    },
    {
      "anonymous": false,
      "inputs": [
        {
          "indexed": true,
          "internalType": "address",
          "name": "endedBy",
          "type": "address"
        },
        {
          "indexed": false,
          "internalType": "uint256",
          "name": "groupId",
          "type": "uint256"
        }
      ],
      "name": "EventEnded",
      "type": "event"
    },
    {
      "anonymous": false,
      "inputs": [
        {
          "indexed": true,
          "internalType": "address",
          "name": "startedBy",
          "type": "address"
        },
        {
          "indexed": false,
          "internalType": "uint256",
          "name": "groupId",
          "type": "uint256"
        }
      ],
      "name": "EventStarted",
      "type": "event"
    },
    {
      "anonymous": false,
      "inputs": [
        {
          "indexed": true,
          "internalType": "address",
          "name": "creator",
          "type": "address"
        },
        {
          "indexed": false,
          "internalType": "uint256",
          "name": "groupId",
          "type": "uint256"
        }
      ],
      "name": "GroupCreated",
      "type": "event"
    },
    {
      "anonymous": false,
      "inputs": [
        {
          "indexed": true,
          "internalType": "address",
          "name": "account",
          "type": "address"
        },
        {
          "indexed": false,
          "internalType": "uint256",
          "name": "groupId",
          "type": "uint256"
        }
      ],
      "name": "RecipientRegistered",
      "type": "event"
    },
    {
      "anonymous": false,
      "inputs": [
        {
          "indexed": true,
          "internalType": "address",
          "name": "endedBy",
          "type": "address"
        },
        {
          "indexed": false,
          "internalType": "uint256",
          "name": "groupId",
          "type": "uint256"
        }
      ],
      "name": "RegistrationEnded",
      "type": "event"
    },
    {
      "anonymous": false,
      "inputs": [],
      "name": "RegistrationOpen",
      "type": "event"
    },
    {
      "anonymous": false,
      "inputs": [
        {
          "indexed": false,
          "internalType": "address",
          "name": "from",
          "type": "address"
        },
        {
          "indexed": false,
          "internalType": "address",
          "name": "to",
          "type": "address"
        }
      ],
      "name": "Transfer",
      "type": "event"
    },
    {
      "anonymous": false,
      "inputs": [
        {
          "indexed": true,
          "internalType": "address",
          "name": "account",
          "type": "address"
        },
        {
          "indexed": false,
          "internalType": "uint256",
          "name": "groupId",
          "type": "uint256"
        }
      ],
      "name": "WinningsClaimed",
      "type": "event"
    },
    {
      "anonymous": false,
      "inputs": [],
      "name": "WinningsClaimingOpen",
      "type": "event"
    },
    {
      "inputs": [],
      "name": "ceoAddress",
      "outputs": [
        {
          "internalType": "address",
          "name": "",
          "type": "address"
        }
      ],
      "stateMutability": "view",
      "type": "function",
      "constant": true
    },
    {
      "inputs": [],
      "name": "cfoAddress",
      "outputs": [
        {
          "internalType": "address",
          "name": "",
          "type": "address"
        }
      ],
      "stateMutability": "view",
      "type": "function",
      "constant": true
    },
    {
      "inputs": [
        {
          "internalType": "uint256",
          "name": "groupId",
          "type": "uint256"
        }
      ],
      "name": "claimWinnings",
      "outputs": [],
      "stateMutability": "nonpayable",
      "type": "function"
    },
    {
      "inputs": [
        {
          "internalType": "uint256",
          "name": "groupId",
          "type": "uint256"
        }
      ],
      "name": "contributeToPot",
      "outputs": [],
      "stateMutability": "payable",
      "type": "function",
      "payable": true
    },
    {
      "inputs": [],
      "name": "cooAddress",
      "outputs": [
        {
          "internalType": "address",
          "name": "",
          "type": "address"
        }
      ],
      "stateMutability": "view",
      "type": "function",
      "constant": true
    },
    {
      "inputs": [],
      "name": "getGroupIds",
      "outputs": [
        {
          "internalType": "uint256[]",
          "name": "",
          "type": "uint256[]"
        }
      ],
      "stateMutability": "view",
      "type": "function",
      "constant": true
    },
    {
      "inputs": [],
      "name": "getGroupNames",
      "outputs": [
        {
          "internalType": "string[]",
          "name": "",
          "type": "string[]"
        }
      ],
      "stateMutability": "view",
      "type": "function",
      "constant": true
    },
    {
      "inputs": [],
      "name": "isCEO",
      "outputs": [
        {
          "internalType": "bool",
          "name": "",
          "type": "bool"
        }
      ],
      "stateMutability": "view",
      "type": "function",
      "constant": true
    },
    {
      "inputs": [],
      "name": "isCFO",
      "outputs": [
        {
          "internalType": "bool",
          "name": "",
          "type": "bool"
        }
      ],
      "stateMutability": "view",
      "type": "function",
      "constant": true
    },
    {
      "inputs": [],
      "name": "isCOO",
      "outputs": [
        {
          "internalType": "bool",
          "name": "",
          "type": "bool"
        }
      ],
      "stateMutability": "view",
      "type": "function",
      "constant": true
    },
    {
      "inputs": [
        {
          "internalType": "address",
          "name": "account",
          "type": "address"
        },
        {
          "internalType": "uint256",
          "name": "groupId",
          "type": "uint256"
        }
      ],
      "name": "isContributor",
      "outputs": [
        {
          "internalType": "bool",
          "name": "",
          "type": "bool"
        }
      ],
      "stateMutability": "view",
      "type": "function",
      "constant": true
    },
    {
      "inputs": [
        {
          "internalType": "address",
          "name": "account",
          "type": "address"
        },
        {
          "internalType": "uint256",
          "name": "groupId",
          "type": "uint256"
        }
      ],
      "name": "isEligibleRecipient",
      "outputs": [
        {
          "internalType": "bool",
          "name": "",
          "type": "bool"
        }
      ],
      "stateMutability": "view",
      "type": "function",
      "constant": true
    },
    {
      "inputs": [
        {
          "internalType": "address",
          "name": "account",
          "type": "address"
        },
        {
          "internalType": "uint256",
          "name": "groupId",
          "type": "uint256"
        }
      ],
      "name": "isRegisteredRecipient",
      "outputs": [
        {
          "internalType": "bool",
          "name": "",
          "type": "bool"
        }
      ],
      "stateMutability": "view",
      "type": "function",
      "constant": true
    },
    {
      "inputs": [],
      "name": "pause",
      "outputs": [],
      "stateMutability": "nonpayable",
      "type": "function"
    },
    {
      "inputs": [],
      "name": "paused",
      "outputs": [
        {
          "internalType": "bool",
          "name": "",
          "type": "bool"
        }
      ],
      "stateMutability": "view",
      "type": "function",
      "constant": true
    },
    {
      "inputs": [
        {
          "internalType": "uint256",
          "name": "groupId",
          "type": "uint256"
        }
      ],
      "name": "registerForEvent",
      "outputs": [],
      "stateMutability": "nonpayable",
      "type": "function"
    },
    {
      "inputs": [
        {
          "internalType": "uint256",
          "name": "groupId",
          "type": "uint256"
        }
      ],
      "name": "renounceContributor",
      "outputs": [],
      "stateMutability": "nonpayable",
      "type": "function"
    },
    {
      "inputs": [
        {
          "internalType": "address",
          "name": "_newCEO",
          "type": "address"
        }
      ],
      "name": "setCEO",
      "outputs": [],
      "stateMutability": "nonpayable",
      "type": "function"
    },
    {
      "inputs": [
        {
          "internalType": "address",
          "name": "_newCFO",
          "type": "address"
        }
      ],
      "name": "setCFO",
      "outputs": [],
      "stateMutability": "nonpayable",
      "type": "function"
    },
    {
      "inputs": [
        {
          "internalType": "address",
          "name": "_newCOO",
          "type": "address"
        }
      ],
      "name": "setCOO",
      "outputs": [],
      "stateMutability": "nonpayable",
      "type": "function"
    },
    {
      "inputs": [],
      "name": "unpause",
      "outputs": [],
      "stateMutability": "nonpayable",
      "type": "function"
    },
    {
      "inputs": [
        {
          "internalType": "address",
          "name": "account",
          "type": "address"
        },
        {
          "internalType": "uint256",
          "name": "groupId",
          "type": "uint256"
        }
      ],
      "name": "isAdmin",
      "outputs": [
        {
          "internalType": "bool",
          "name": "",
          "type": "bool"
        }
      ],
      "stateMutability": "view",
      "type": "function",
      "constant": true
    },
    {
      "inputs": [
        {
          "internalType": "address",
          "name": "account",
          "type": "address"
        },
        {
          "internalType": "uint256",
          "name": "groupId",
          "type": "uint256"
        }
      ],
      "name": "addAdmin",
      "outputs": [],
      "stateMutability": "nonpayable",
      "type": "function"
    },
    {
      "inputs": [
        {
          "internalType": "address",
          "name": "account",
          "type": "address"
        },
        {
          "internalType": "uint256",
          "name": "groupId",
          "type": "uint256"
        }
      ],
      "name": "removeAdmin",
      "outputs": [],
      "stateMutability": "nonpayable",
      "type": "function"
    },
    {
      "inputs": [
        {
          "internalType": "uint256",
          "name": "groupId",
          "type": "uint256"
        }
      ],
      "name": "renounceAdmin",
      "outputs": [],
      "stateMutability": "nonpayable",
      "type": "function"
    },
    {
      "inputs": [
        {
          "internalType": "uint256",
          "name": "groupId",
          "type": "uint256"
        }
      ],
      "name": "readEventInfo",
      "outputs": [
        {
          "components": [
            {
              "internalType": "uint256",
              "name": "groupId",
              "type": "uint256"
            },
            {
              "internalType": "string",
              "name": "groupName",
              "type": "string"
            },
            {
              "internalType": "enum EthDropBase.EventState",
              "name": "currentState",
              "type": "uint8"
            },
            {
              "internalType": "uint256",
              "name": "startTime",
              "type": "uint256"
            },
            {
              "internalType": "uint256",
              "name": "registrationEndTime",
              "type": "uint256"
            },
            {
              "internalType": "uint256",
              "name": "endTime",
              "type": "uint256"
            },
            {
              "internalType": "uint256",
              "name": "registeredRecipientsCount",
              "type": "uint256"
            },
            {
              "internalType": "string",
              "name": "sponsorName",
              "type": "string"
            },
            {
              "internalType": "string",
              "name": "sponsorImageUrl",
              "type": "string"
            },
            {
              "internalType": "string",
              "name": "sponsorLinkToUrl",
              "type": "string"
            },
            {
              "internalType": "address",
              "name": "currentContributor",
              "type": "address"
            }
          ],
          "internalType": "struct EthDropBase.EthDropEvent",
          "name": "",
          "type": "tuple"
        }
      ],
      "stateMutability": "view",
      "type": "function",
      "constant": true
    },
    {
      "inputs": [
        {
          "internalType": "string",
          "name": "groupName",
          "type": "string"
        }
      ],
      "name": "createNewGroup",
      "outputs": [],
      "stateMutability": "nonpayable",
      "type": "function"
    },
    {
      "inputs": [
        {
          "internalType": "uint256",
          "name": "groupId",
          "type": "uint256"
        }
      ],
      "name": "startEvent",
      "outputs": [],
      "stateMutability": "nonpayable",
      "type": "function"
    },
    {
      "inputs": [
        {
          "internalType": "uint256",
          "name": "groupId",
          "type": "uint256"
        }
      ],
      "name": "closeEventRegistration",
      "outputs": [],
      "stateMutability": "nonpayable",
      "type": "function"
    },
    {
      "inputs": [
        {
          "internalType": "uint256",
          "name": "groupId",
          "type": "uint256"
        }
      ],
      "name": "endEvent",
      "outputs": [],
      "stateMutability": "nonpayable",
      "type": "function"
    },
    {
      "inputs": [
        {
          "internalType": "address",
          "name": "account",
          "type": "address"
        },
        {
          "internalType": "uint256",
          "name": "groupId",
          "type": "uint256"
        }
      ],
      "name": "addEligibleRecipient",
      "outputs": [],
      "stateMutability": "nonpayable",
      "type": "function"
    },
    {
      "inputs": [
        {
          "internalType": "address",
          "name": "account",
          "type": "address"
        },
        {
          "internalType": "uint256",
          "name": "groupId",
          "type": "uint256"
        }
      ],
      "name": "removeEligibleRecipient",
      "outputs": [],
      "stateMutability": "nonpayable",
      "type": "function"
    },
    {
      "inputs": [
        {
          "internalType": "address",
          "name": "account",
          "type": "address"
        },
        {
          "internalType": "uint256",
          "name": "groupId",
          "type": "uint256"
        }
      ],
      "name": "addContributor",
      "outputs": [],
      "stateMutability": "nonpayable",
      "type": "function"
    },
    {
      "inputs": [
        {
          "internalType": "address",
          "name": "account",
          "type": "address"
        },
        {
          "internalType": "uint256",
          "name": "groupId",
          "type": "uint256"
        }
      ],
      "name": "removeContributor",
      "outputs": [],
      "stateMutability": "nonpayable",
      "type": "function"
    }
  ],
  "bytecode": "0x60806040526000600260146101000a81548160ff021916908315150217905550600560035534801561003057600080fd5b5061508c806100406000396000f3fe6080604052600436106200022a5760003560e01c80638182aaf21162000127578063d5f016c311620000af578063e513b7a91162000079578063e513b7a914620007a3578063e62092be14620007d3578063e82f24e01462000817578063ea303f081462000837578063f4a02e701462000865576200022a565b8063d5f016c314620006d3578063e0bd7d151462000703578063e320d5e71462000731578063e33db426146200075f576200022a565b8063ab4e194511620000f1578063ab4e19451462000617578063b047fb501462000645578063c02b8b2c1462000675578063c6e0ddfa14620006a5576200022a565b80638182aaf2146200055b5780638456cb59146200059f5780639393ae3714620005b9578063a59a695314620005e9576200022a565b8063406db84311620001b75780635e82c1fc11620001815780635e82c1fc1462000449578063677bd9ff146200048d578063785142be14620004bb5780637d837ce514620004e95780637fcb29c9146200052d576200022a565b8063406db843146200038f5780634e0a337914620003bd5780634f1ef03c14620003eb5780635c975abb1462000419576200022a565b80632ba73c1511620001f95780632ba73c1514620002eb57806330bb01151462000319578063330a347b14620003475780633f4ba83a1462000375576200022a565b80630519ce79146200022f5780630a0f8168146200025f57806315891ff4146200028f57806327d7874c14620002bd575b600080fd5b3480156200023c57600080fd5b506200024762000895565b604051620002569190620031f4565b60405180910390f35b3480156200026c57600080fd5b5062000277620008bb565b604051620002869190620031f4565b60405180910390f35b3480156200029c57600080fd5b50620002bb6004803603810190620002b5919062002d7e565b620008df565b005b348015620002ca57600080fd5b50620002e96004803603810190620002e3919062002d4c565b620009cf565b005b348015620002f857600080fd5b5062000317600480360381019062000311919062002d4c565b62000aa6565b005b3480156200032657600080fd5b506200034560048036038101906200033f919062002e16565b62000b7e565b005b3480156200035457600080fd5b506200037360048036038101906200036d919062002e16565b62000ba5565b005b3480156200038257600080fd5b506200038d62000e9b565b005b3480156200039c57600080fd5b50620003bb6004803603810190620003b5919062002e16565b62000f2b565b005b348015620003ca57600080fd5b50620003e96004803603810190620003e3919062002d4c565b620010bc565b005b348015620003f857600080fd5b5062000417600480360381019062000411919062002e16565b62001194565b005b3480156200042657600080fd5b5062000431620011d6565b604051620004409190620032b1565b60405180910390f35b3480156200045657600080fd5b506200047560048036038101906200046f919062002d7e565b620011e9565b604051620004849190620032b1565b60405180910390f35b3480156200049a57600080fd5b50620004b96004803603810190620004b3919062002e16565b62001273565b005b348015620004c857600080fd5b50620004e76004803603810190620004e1919062002e16565b6200139b565b005b348015620004f657600080fd5b506200051560048036038101906200050f919062002d7e565b62001780565b604051620005249190620032b1565b60405180910390f35b3480156200053a57600080fd5b5062000559600480360381019062000553919062002d7e565b6200180a565b005b3480156200056857600080fd5b5062000587600480360381019062000581919062002d7e565b62001875565b604051620005969190620032b1565b60405180910390f35b348015620005ac57600080fd5b50620005b7620018ff565b005b348015620005c657600080fd5b50620005d162001a42565b604051620005e09190620032b1565b60405180910390f35b348015620005f657600080fd5b506200061560048036038101906200060f919062002e16565b62001a9a565b005b3480156200062457600080fd5b506200064360048036038101906200063d919062002d7e565b62001b7d565b005b3480156200065257600080fd5b506200065d62001c6d565b6040516200066c9190620031f4565b60405180910390f35b3480156200068257600080fd5b506200068d62001c93565b6040516200069c91906200328d565b60405180910390f35b348015620006b257600080fd5b50620006d16004803603810190620006cb919062002d7e565b62001ced565b005b348015620006e057600080fd5b50620006eb62001d58565b604051620006fa919062003269565b60405180910390f35b3480156200071057600080fd5b506200072f600480360381019062000729919062002d7e565b62001e3b565b005b3480156200073e57600080fd5b506200075d600480360381019062000757919062002d7e565b62001ed7565b005b3480156200076c57600080fd5b506200078b600480360381019062000785919062002e16565b62001f73565b6040516200079a9190620032ce565b60405180910390f35b348015620007b057600080fd5b50620007bb620022ec565b604051620007ca9190620032b1565b60405180910390f35b348015620007e057600080fd5b50620007ff6004803603810190620007f9919062002d7e565b62002343565b6040516200080e9190620032b1565b60405180910390f35b6200083560048036038101906200082f919062002e16565b620023b2565b005b3480156200084457600080fd5b506200086360048036038101906200085d919062002dc5565b6200243a565b005b3480156200087257600080fd5b506200087d62002762565b6040516200088c9190620032b1565b60405180910390f35b600160009054906101000a900473ffffffffffffffffffffffffffffffffffffffff1681565b60008054906101000a900473ffffffffffffffffffffffffffffffffffffffff1681565b80620008ec338262002343565b620008f657600080fd5b600260149054906101000a900460ff16156200091157600080fd5b6000600a600084815260200190815260200160002060008573ffffffffffffffffffffffffffffffffffffffff1673ffffffffffffffffffffffffffffffffffffffff16815260200190815260200160002060006101000a81548160ff0219169083151502179055508273ffffffffffffffffffffffffffffffffffffffff167f1af6d16168d33745872119540d28858eed156c5f265206bbf1344fda39a93a3383604051620009c29190620032f2565b60405180910390a2505050565b60008054906101000a900473ffffffffffffffffffffffffffffffffffffffff1673ffffffffffffffffffffffffffffffffffffffff163373ffffffffffffffffffffffffffffffffffffffff161462000a2857600080fd5b600073ffffffffffffffffffffffffffffffffffffffff168173ffffffffffffffffffffffffffffffffffffffff16141562000a6357600080fd5b806000806101000a81548173ffffffffffffffffffffffffffffffffffffffff021916908373ffffffffffffffffffffffffffffffffffffffff16021790555050565b60008054906101000a900473ffffffffffffffffffffffffffffffffffffffff1673ffffffffffffffffffffffffffffffffffffffff163373ffffffffffffffffffffffffffffffffffffffff161462000aff57600080fd5b600073ffffffffffffffffffffffffffffffffffffffff168173ffffffffffffffffffffffffffffffffffffffff16141562000b3a57600080fd5b80600260006101000a81548173ffffffffffffffffffffffffffffffffffffffff021916908373ffffffffffffffffffffffffffffffffffffffff16021790555050565b8062000b8b338262002343565b62000b9557600080fd5b62000ba13383620027ba565b5050565b8062000bb2338262002343565b8062000c0b5750600260009054906101000a900473ffffffffffffffffffffffffffffffffffffffff1673ffffffffffffffffffffffffffffffffffffffff163373ffffffffffffffffffffffffffffffffffffffff16145b62000c1557600080fd5b600260149054906101000a900460ff161562000c3057600080fd5b42600660008481526020019081526020016000206005018190555060036006600084815260200190815260200160002060020160006101000a81548160ff0219169083600381111562000c885762000c8762003722565b5b0217905550600760008381526020019081526020016000206006600084815260200190815260200160002090806001815401808255809150506001900390600052602060002090600b020160009091909190915060008201548160000155600182018160010190805462000cfc90620035ec565b62000d0992919062002aae565b506002820160009054906101000a900460ff168160020160006101000a81548160ff0219169083600381111562000d455762000d4462003722565b5b021790555060038201548160030155600482015481600401556005820154816005015560068201548160060155600782018160070190805462000d8890620035ec565b62000d9592919062002aae565b50600882018160080190805462000dac90620035ec565b62000db992919062002aae565b50600982018160090190805462000dd090620035ec565b62000ddd92919062002aae565b50600a820160009054906101000a900473ffffffffffffffffffffffffffffffffffffffff1681600a0160006101000a81548173ffffffffffffffffffffffffffffffffffffffff021916908373ffffffffffffffffffffffffffffffffffffffff16021790555050503373ffffffffffffffffffffffffffffffffffffffff167f6f45a19e8850c727d0de9f32e0d8691324a9a74ffb4347652e6404138b1d81658360405162000e8f9190620032f2565b60405180910390a25050565b60008054906101000a900473ffffffffffffffffffffffffffffffffffffffff1673ffffffffffffffffffffffffffffffffffffffff163373ffffffffffffffffffffffffffffffffffffffff161462000ef457600080fd5b600260149054906101000a900460ff1662000f0e57600080fd5b6000600260146101000a81548160ff021916908315150217905550565b8062000f383382620011e9565b62000f4257600080fd5b600260149054906101000a900460ff161562000f5d57600080fd5b6001600b600084815260200190815260200160002060003373ffffffffffffffffffffffffffffffffffffffff1673ffffffffffffffffffffffffffffffffffffffff16815260200190815260200160002060006101000a81548160ff021916908315150217905550600c6000838152602001908152602001600020339080600181540180825580915050600190039060005260206000200160009091909190916101000a81548173ffffffffffffffffffffffffffffffffffffffff021916908373ffffffffffffffffffffffffffffffffffffffff160217905550600660008381526020019081526020016000206006016000815480929190620010639062003676565b91905055503373ffffffffffffffffffffffffffffffffffffffff167f0695e999be8100bdb5bee8612337296508d527eae78c65b8f170eacb5a3b439d83604051620010b09190620032f2565b60405180910390a25050565b60008054906101000a900473ffffffffffffffffffffffffffffffffffffffff1673ffffffffffffffffffffffffffffffffffffffff163373ffffffffffffffffffffffffffffffffffffffff16146200111557600080fd5b600073ffffffffffffffffffffffffffffffffffffffff168173ffffffffffffffffffffffffffffffffffffffff1614156200115057600080fd5b80600160006101000a81548173ffffffffffffffffffffffffffffffffffffffff021916908373ffffffffffffffffffffffffffffffffffffffff16021790555050565b80620011a1338262001875565b620011ab57600080fd5b600260149054906101000a900460ff1615620011c657600080fd5b620011d2338362002877565b5050565b600260149054906101000a900460ff1681565b6000600260149054906101000a900460ff16156200120657600080fd5b60011515600a600084815260200190815260200160002060008573ffffffffffffffffffffffffffffffffffffffff1673ffffffffffffffffffffffffffffffffffffffff16815260200190815260200160002060009054906101000a900460ff16151514905092915050565b8062001280338262001780565b6200128a57600080fd5b600260149054906101000a900460ff1615620012a557600080fd5b600d600083815260200190815260200160002060009054906101000a900473ffffffffffffffffffffffffffffffffffffffff1673ffffffffffffffffffffffffffffffffffffffff166319165587336040518263ffffffff1660e01b815260040162001313919062003211565b600060405180830381600087803b1580156200132e57600080fd5b505af115801562001343573d6000803e3d6000fd5b505050503373ffffffffffffffffffffffffffffffffffffffff167f1a31e733a172afcf46074b3106c17f0c298e226442682a03c1e99ce256139ec2836040516200138f9190620032f2565b60405180910390a25050565b80620013a8338262002343565b620013b257600080fd5b600260149054906101000a900460ff1615620013cd57600080fd5b426006600084815260200190815260200160002060040181905550600160009054906101000a900473ffffffffffffffffffffffffffffffffffffffff1673ffffffffffffffffffffffffffffffffffffffff166108fc6064600354476200143691906200349f565b62001442919062003467565b9081150290604051600060405180830381858888f193505050501580156200146e573d6000803e3d6000fd5b506000600660008481526020019081526020016000206006015467ffffffffffffffff811115620014a457620014a3620037af565b5b604051908082528060200260200182016040528015620014d35781602001602082028036833780820191505090505b50905060005b60066000858152602001908152602001600020600601548110156200153257600182828151811062001510576200150f62003780565b5b6020026020010181815250508080620015299062003676565b915050620014d9565b50600c600084815260200190815260200160002081604051620015559062002b46565b620015629291906200322e565b604051809103906000f0801580156200157f573d6000803e3d6000fd5b50600d600085815260200190815260200160002060006101000a81548173ffffffffffffffffffffffffffffffffffffffff021916908373ffffffffffffffffffffffffffffffffffffffff16021790555060026006600085815260200190815260200160002060020160006101000a81548160ff021916908360038111156200160e576200160d62003722565b5b02179055506000600d600085815260200190815260200160002060009054906101000a900473ffffffffffffffffffffffffffffffffffffffff1673ffffffffffffffffffffffffffffffffffffffff16633a98ef396040518163ffffffff1660e01b815260040160206040518083038186803b1580156200168f57600080fd5b505afa158015620016a4573d6000803e3d6000fd5b505050506040513d601f19601f82011682018060405250810190620016ca919062002e48565b47620016d7919062003467565b90507f80bb271e4cd4fd0e4cc21617a1a4cfe46af15e974bb329a92e7c15a69665158c600660008681526020019081526020016000206006015482604051620017229291906200330f565b60405180910390a13373ffffffffffffffffffffffffffffffffffffffff167fef898a6941c945450e9bbdad4a76fcd0f51f42f7e251fddcb1e5479ba786d5e485604051620017729190620032f2565b60405180910390a250505050565b6000600260149054906101000a900460ff16156200179d57600080fd5b60011515600b600084815260200190815260200160002060008573ffffffffffffffffffffffffffffffffffffffff1673ffffffffffffffffffffffffffffffffffffffff16815260200190815260200160002060009054906101000a900460ff16151514905092915050565b600260009054906101000a900473ffffffffffffffffffffffffffffffffffffffff1673ffffffffffffffffffffffffffffffffffffffff163373ffffffffffffffffffffffffffffffffffffffff16146200186557600080fd5b62001871828262002934565b5050565b6000600260149054906101000a900460ff16156200189257600080fd5b600115156009600084815260200190815260200160002060008573ffffffffffffffffffffffffffffffffffffffff1673ffffffffffffffffffffffffffffffffffffffff16815260200190815260200160002060009054906101000a900460ff16151514905092915050565b600260009054906101000a900473ffffffffffffffffffffffffffffffffffffffff1673ffffffffffffffffffffffffffffffffffffffff163373ffffffffffffffffffffffffffffffffffffffff161480620019a7575060008054906101000a900473ffffffffffffffffffffffffffffffffffffffff1673ffffffffffffffffffffffffffffffffffffffff163373ffffffffffffffffffffffffffffffffffffffff16145b8062001a005750600160009054906101000a900473ffffffffffffffffffffffffffffffffffffffff1673ffffffffffffffffffffffffffffffffffffffff163373ffffffffffffffffffffffffffffffffffffffff16145b62001a0a57600080fd5b600260149054906101000a900460ff161562001a2557600080fd5b6001600260146101000a81548160ff021916908315150217905550565b6000600160009054906101000a900473ffffffffffffffffffffffffffffffffffffffff1673ffffffffffffffffffffffffffffffffffffffff163373ffffffffffffffffffffffffffffffffffffffff1614905090565b8062001aa7338262002343565b62001ab157600080fd5b600260149054906101000a900460ff161562001acc57600080fd5b60016006600084815260200190815260200160002060020160006101000a81548160ff0219169083600381111562001b095762001b0862003722565b5b02179055504260066000848152602001908152602001600020600301819055503373ffffffffffffffffffffffffffffffffffffffff167ff77c6f27499b698205f54058c2914a340e1300c2bc0d9a819e7aebfbaabbbb938360405162001b719190620032f2565b60405180910390a25050565b600260149054906101000a900460ff161562001b9857600080fd5b8062001ba5338262002343565b62001baf57600080fd5b6001600a600084815260200190815260200160002060008573ffffffffffffffffffffffffffffffffffffffff1673ffffffffffffffffffffffffffffffffffffffff16815260200190815260200160002060006101000a81548160ff0219169083151502179055508273ffffffffffffffffffffffffffffffffffffffff167f46b8357d30dedd734a71d059a385f46b6e667bff20233f907477760207f889658360405162001c609190620032f2565b60405180910390a2505050565b600260009054906101000a900473ffffffffffffffffffffffffffffffffffffffff1681565b6060600480548060200260200160405190810160405280929190818152602001828054801562001ce357602002820191906000526020600020905b81548152602001906001019080831162001cce575b5050505050905090565b600260009054906101000a900473ffffffffffffffffffffffffffffffffffffffff1673ffffffffffffffffffffffffffffffffffffffff163373ffffffffffffffffffffffffffffffffffffffff161462001d4857600080fd5b62001d548282620027ba565b5050565b60606005805480602002602001604051908101604052809291908181526020016000905b8282101562001e3257838290600052602060002001805462001d9e90620035ec565b80601f016020809104026020016040519081016040528092919081815260200182805462001dcc90620035ec565b801562001e1d5780601f1062001df15761010080835404028352916020019162001e1d565b820191906000526020600020905b81548152906001019060200180831162001dff57829003601f168201915b50505050508152602001906001019062001d7c565b50505050905090565b8062001e48338262002343565b8062001ea15750600260009054906101000a900473ffffffffffffffffffffffffffffffffffffffff1673ffffffffffffffffffffffffffffffffffffffff163373ffffffffffffffffffffffffffffffffffffffff16145b62001eab57600080fd5b600260149054906101000a900460ff161562001ec657600080fd5b62001ed28383620029f1565b505050565b8062001ee4338262002343565b8062001f3d5750600260009054906101000a900473ffffffffffffffffffffffffffffffffffffffff1673ffffffffffffffffffffffffffffffffffffffff163373ffffffffffffffffffffffffffffffffffffffff16145b62001f4757600080fd5b600260149054906101000a900460ff161562001f6257600080fd5b62001f6e838362002877565b505050565b62001f7d62002b54565b8162001f8a338262002343565b62001f9457600080fd5b60066000848152602001908152602001600020604051806101600160405290816000820154815260200160018201805462001fcf90620035ec565b80601f016020809104026020016040519081016040528092919081815260200182805462001ffd90620035ec565b80156200204e5780601f1062002022576101008083540402835291602001916200204e565b820191906000526020600020905b8154815290600101906020018083116200203057829003601f168201915b505050505081526020016002820160009054906101000a900460ff1660038111156200207f576200207e62003722565b5b600381111562002094576200209362003722565b5b815260200160038201548152602001600482015481526020016005820154815260200160068201548152602001600782018054620020d290620035ec565b80601f01602080910402602001604051908101604052809291908181526020018280546200210090620035ec565b8015620021515780601f10620021255761010080835404028352916020019162002151565b820191906000526020600020905b8154815290600101906020018083116200213357829003601f168201915b505050505081526020016008820180546200216c90620035ec565b80601f01602080910402602001604051908101604052809291908181526020018280546200219a90620035ec565b8015620021eb5780601f10620021bf57610100808354040283529160200191620021eb565b820191906000526020600020905b815481529060010190602001808311620021cd57829003601f168201915b505050505081526020016009820180546200220690620035ec565b80601f01602080910402602001604051908101604052809291908181526020018280546200223490620035ec565b8015620022855780601f10620022595761010080835404028352916020019162002285565b820191906000526020600020905b8154815290600101906020018083116200226757829003601f168201915b50505050508152602001600a820160009054906101000a900473ffffffffffffffffffffffffffffffffffffffff1673ffffffffffffffffffffffffffffffffffffffff1673ffffffffffffffffffffffffffffffffffffffff1681525050915050919050565b60008060009054906101000a900473ffffffffffffffffffffffffffffffffffffffff1673ffffffffffffffffffffffffffffffffffffffff163373ffffffffffffffffffffffffffffffffffffffff1614905090565b6000600115156008600084815260200190815260200160002060008573ffffffffffffffffffffffffffffffffffffffff1673ffffffffffffffffffffffffffffffffffffffff16815260200190815260200160002060009054906101000a900460ff16151514905092915050565b80620023bf338262001875565b620023c957600080fd5b600260149054906101000a900460ff1615620023e457600080fd5b3373ffffffffffffffffffffffffffffffffffffffff167f5dc1fe5ab986a852c4eda8e8bb94247d13307065c593fb83f1a09be27367938283346040516200242e9291906200330f565b60405180910390a25050565b600260009054906101000a900473ffffffffffffffffffffffffffffffffffffffff1673ffffffffffffffffffffffffffffffffffffffff163373ffffffffffffffffffffffffffffffffffffffff16146200249557600080fd5b600260149054906101000a900460ff1615620024b057600080fd5b6000434060001c9050600060405180610160016040528083815260200184815260200160006003811115620024ea57620024e962003722565b5b815260200142815260200142815260200142815260200160008152602001604051806020016040528060008152508152602001604051806020016040528060008152508152602001604051806020016040528060008152508152602001600073ffffffffffffffffffffffffffffffffffffffff1681525090508060066000848152602001908152602001600020600082015181600001556020820151816001019080519060200190620025a092919062002bd9565b5060408201518160020160006101000a81548160ff02191690836003811115620025cf57620025ce62003722565b5b0217905550606082015181600301556080820151816004015560a0820151816005015560c0820151816006015560e08201518160070190805190602001906200261a92919062002bd9565b506101008201518160080190805190602001906200263a92919062002bd9565b506101208201518160090190805190602001906200265a92919062002bd9565b5061014082015181600a0160006101000a81548173ffffffffffffffffffffffffffffffffffffffff021916908373ffffffffffffffffffffffffffffffffffffffff16021790555090505060048290806001815401808255809150506001900390600052602060002001600090919091909150556005839080600181540180825580915050600190039060005260206000200160009091909190915090805190602001906200270c92919062002bd9565b503373ffffffffffffffffffffffffffffffffffffffff167f3482e3d6d38a18835a6ad59afad8098300ce9f907925e4be71126d7b43dc803d83604051620027559190620032f2565b60405180910390a2505050565b6000600260009054906101000a900473ffffffffffffffffffffffffffffffffffffffff1673ffffffffffffffffffffffffffffffffffffffff163373ffffffffffffffffffffffffffffffffffffffff1614905090565b60006008600083815260200190815260200160002060008473ffffffffffffffffffffffffffffffffffffffff1673ffffffffffffffffffffffffffffffffffffffff16815260200190815260200160002060006101000a81548160ff0219169083151502179055508173ffffffffffffffffffffffffffffffffffffffff167fa0726c73cf6ad18ddb855ba65d1ddd4d7fd37d320f4e52f6b154c13d386f5fd9826040516200286b9190620032f2565b60405180910390a25050565b60006009600083815260200190815260200160002060008473ffffffffffffffffffffffffffffffffffffffff1673ffffffffffffffffffffffffffffffffffffffff16815260200190815260200160002060006101000a81548160ff0219169083151502179055508173ffffffffffffffffffffffffffffffffffffffff167fda111d7eb5d5b2033c4ffad00cd7cd42f45af2813bee1a69e65f26d90ea15f0b82604051620029289190620032f2565b60405180910390a25050565b60016008600083815260200190815260200160002060008473ffffffffffffffffffffffffffffffffffffffff1673ffffffffffffffffffffffffffffffffffffffff16815260200190815260200160002060006101000a81548160ff0219169083151502179055508173ffffffffffffffffffffffffffffffffffffffff167f723c2b747529ca7f5eb53a74808f4a8b9bf264f0fc450fd904900151da74548a82604051620029e59190620032f2565b60405180910390a25050565b60016009600083815260200190815260200160002060008473ffffffffffffffffffffffffffffffffffffffff1673ffffffffffffffffffffffffffffffffffffffff16815260200190815260200160002060006101000a81548160ff0219169083151502179055508173ffffffffffffffffffffffffffffffffffffffff167f5fd6d0b7e707fe344bd2a1887f9d0eeea8bfcac6f339ba4200e74f0647f101c08260405162002aa29190620032f2565b60405180910390a25050565b82805462002abc90620035ec565b90600052602060002090601f01602090048101928262002ae0576000855562002b33565b82601f1062002af3578054855562002b33565b8280016001018555821562002b3357600052602060002091601f016020900482015b8281111562002b3257825482559160010191906001019062002b15565b5b50905062002b42919062002c6a565b5090565b6117e6806200387183390190565b60405180610160016040528060008152602001606081526020016000600381111562002b855762002b8462003722565b5b815260200160008152602001600081526020016000815260200160008152602001606081526020016060815260200160608152602001600073ffffffffffffffffffffffffffffffffffffffff1681525090565b82805462002be790620035ec565b90600052602060002090601f01602090048101928262002c0b576000855562002c57565b82601f1062002c2657805160ff191683800117855562002c57565b8280016001018555821562002c57579182015b8281111562002c5657825182559160200191906001019062002c39565b5b50905062002c66919062002c6a565b5090565b5b8082111562002c8557600081600090555060010162002c6b565b5090565b600062002ca062002c9a8462003365565b6200333c565b90508281526020810184848401111562002cbf5762002cbe620037f8565b5b62002ccc848285620035a7565b509392505050565b60008135905062002ce5816200383c565b92915050565b600082601f83011262002d035762002d02620037f3565b5b813562002d1584826020860162002c89565b91505092915050565b60008135905062002d2f8162003856565b92915050565b60008151905062002d468162003856565b92915050565b60006020828403121562002d655762002d6462003802565b5b600062002d758482850162002cd4565b91505092915050565b6000806040838503121562002d985762002d9762003802565b5b600062002da88582860162002cd4565b925050602062002dbb8582860162002d1e565b9150509250929050565b60006020828403121562002dde5762002ddd62003802565b5b600082013567ffffffffffffffff81111562002dff5762002dfe620037fd565b5b62002e0d8482850162002ceb565b91505092915050565b60006020828403121562002e2f5762002e2e62003802565b5b600062002e3f8482850162002d1e565b91505092915050565b60006020828403121562002e615762002e6062003802565b5b600062002e718482850162002d35565b91505092915050565b600062002e88838362002ed5565b60208301905092915050565b600062002ea2838362003077565b905092915050565b600062002eb88383620031d2565b60208301905092915050565b62002ecf8162003534565b82525050565b62002ee08162003520565b82525050565b62002ef18162003520565b82525050565b600062002f0482620033d0565b62002f10818562003423565b935062002f1d836200339b565b8060005b8381101562002f5d5762002f3582620037de565b62002f41888262002e7a565b975062002f4e83620033fc565b92505060018101905062002f21565b5085935050505092915050565b600062002f7782620033db565b62002f83818562003434565b93508360208202850162002f9785620033b0565b8060005b8581101562002fd9578484038952815162002fb7858262002e94565b945062002fc48362003409565b925060208a0199505060018101905062002f9b565b50829750879550505050505092915050565b600062002ff882620033e6565b62003004818562003445565b93506200301183620033c0565b8060005b83811015620030485781516200302c888262002eaa565b9750620030398362003416565b92505060018101905062003015565b5085935050505092915050565b620030608162003548565b82525050565b620030718162003593565b82525050565b60006200308482620033f1565b62003090818562003456565b9350620030a2818560208601620035b6565b620030ad8162003807565b840191505092915050565b600061016083016000830151620030d36000860182620031d2565b5060208301518482036020860152620030ed828262003077565b915050604083015162003104604086018262003066565b506060830151620031196060860182620031d2565b5060808301516200312e6080860182620031d2565b5060a08301516200314360a0860182620031d2565b5060c08301516200315860c0860182620031d2565b5060e083015184820360e086015262003172828262003077565b91505061010083015184820361010086015262003190828262003077565b915050610120830151848203610120860152620031ae828262003077565b915050610140830151620031c761014086018262002ed5565b508091505092915050565b620031dd8162003589565b82525050565b620031ee8162003589565b82525050565b60006020820190506200320b600083018462002ee6565b92915050565b600060208201905062003228600083018462002ec4565b92915050565b600060408201905081810360008301526200324a818562002ef7565b9050818103602083015262003260818462002feb565b90509392505050565b6000602082019050818103600083015262003285818462002f6a565b905092915050565b60006020820190508181036000830152620032a9818462002feb565b905092915050565b6000602082019050620032c8600083018462003055565b92915050565b60006020820190508181036000830152620032ea8184620030b8565b905092915050565b6000602082019050620033096000830184620031e3565b92915050565b6000604082019050620033266000830185620031e3565b620033356020830184620031e3565b9392505050565b6000620033486200335b565b905062003356828262003640565b919050565b6000604051905090565b600067ffffffffffffffff821115620033835762003382620037af565b5b6200338e8262003807565b9050602081019050919050565b60008190508160005260206000209050919050565b6000819050602082019050919050565b6000819050602082019050919050565b600081549050919050565b600081519050919050565b600081519050919050565b600081519050919050565b6000600182019050919050565b6000602082019050919050565b6000602082019050919050565b600082825260208201905092915050565b600082825260208201905092915050565b600082825260208201905092915050565b600082825260208201905092915050565b6000620034748262003589565b9150620034818362003589565b925082620034945762003493620036f3565b5b828204905092915050565b6000620034ac8262003589565b9150620034b98362003589565b9250817fffffffffffffffffffffffffffffffffffffffffffffffffffffffffffffffff0483118215151615620034f557620034f4620036c4565b5b828202905092915050565b600073ffffffffffffffffffffffffffffffffffffffff82169050919050565b60006200352d8262003569565b9050919050565b6000620035418262003569565b9050919050565b60008115159050919050565b6000819050620035648262003825565b919050565b600073ffffffffffffffffffffffffffffffffffffffff82169050919050565b6000819050919050565b6000620035a08262003554565b9050919050565b82818337600083830152505050565b60005b83811015620035d6578082015181840152602081019050620035b9565b83811115620035e6576000848401525b50505050565b600060028204905060018216806200360557607f821691505b602082108114156200361c576200361b62003751565b5b50919050565b600062003639620036338362003818565b62003500565b9050919050565b6200364b8262003807565b810181811067ffffffffffffffff821117156200366d576200366c620037af565b5b80604052505050565b6000620036838262003589565b91507fffffffffffffffffffffffffffffffffffffffffffffffffffffffffffffffff821415620036b957620036b8620036c4565b5b600182019050919050565b7f4e487b7100000000000000000000000000000000000000000000000000000000600052601160045260246000fd5b7f4e487b7100000000000000000000000000000000000000000000000000000000600052601260045260246000fd5b7f4e487b7100000000000000000000000000000000000000000000000000000000600052602160045260246000fd5b7f4e487b7100000000000000000000000000000000000000000000000000000000600052602260045260246000fd5b7f4e487b7100000000000000000000000000000000000000000000000000000000600052603260045260246000fd5b7f4e487b7100000000000000000000000000000000000000000000000000000000600052604160045260246000fd5b6000620037ec825462003622565b9050919050565b600080fd5b600080fd5b600080fd5b600080fd5b6000601f19601f8301169050919050565b60008160001c9050919050565b6004811062003839576200383862003722565b5b50565b620038478162003520565b81146200385357600080fd5b50565b620038618162003589565b81146200386d57600080fd5b5056fe6080604052604051620017e6380380620017e68339818101604052810190620000299190620004f3565b805182511462000070576040517f08c379a00000000000000000000000000000000000000000000000000000000081526004016200006790620006ac565b60405180910390fd5b6000825111620000b7576040517f08c379a0000000000000000000000000000000000000000000000000000000008152600401620000ae90620006f0565b60405180910390fd5b60005b8251811015620001265762000110838281518110620000de57620000dd6200091a565b5b6020026020010151838381518110620000fc57620000fb6200091a565b5b60200260200101516200012f60201b60201c565b80806200011d906200089d565b915050620000ba565b50505062000b10565b600073ffffffffffffffffffffffffffffffffffffffff168273ffffffffffffffffffffffffffffffffffffffff161415620001a2576040517f08c379a000000000000000000000000000000000000000000000000000000000815260040162000199906200068a565b60405180910390fd5b60008111620001e8576040517f08c379a0000000000000000000000000000000000000000000000000000000008152600401620001df9062000712565b60405180910390fd5b6000600260008473ffffffffffffffffffffffffffffffffffffffff1673ffffffffffffffffffffffffffffffffffffffff16815260200190815260200160002054146200026d576040517f08c379a00000000000000000000000000000000000000000000000000000000081526004016200026490620006ce565b60405180910390fd5b6004829080600181540180825580915050600190039060005260206000200160009091909190916101000a81548173ffffffffffffffffffffffffffffffffffffffff021916908373ffffffffffffffffffffffffffffffffffffffff16021790555080600260008473ffffffffffffffffffffffffffffffffffffffff1673ffffffffffffffffffffffffffffffffffffffff1681526020019081526020016000208190555080600054620003249190620007cc565b6000819055507f40c340f65e17194d14ddddb073d3c9f888e3cb52b5aae0c6c7706b4fbc905fac82826040516200035d9291906200065d565b60405180910390a15050565b6000620003806200037a846200075d565b62000734565b90508083825260208201905082856020860282011115620003a657620003a56200097d565b5b60005b85811015620003da5781620003bf88826200045f565b845260208401935060208301925050600181019050620003a9565b5050509392505050565b6000620003fb620003f5846200078c565b62000734565b905080838252602082019050828560208602820111156200042157620004206200097d565b5b60005b858110156200045557816200043a8882620004dc565b84526020840193506020830192505060018101905062000424565b5050509392505050565b600081519050620004708162000adc565b92915050565b600082601f8301126200048e576200048d62000978565b5b8151620004a084826020860162000369565b91505092915050565b600082601f830112620004c157620004c062000978565b5b8151620004d3848260208601620003e4565b91505092915050565b600081519050620004ed8162000af6565b92915050565b600080604083850312156200050d576200050c62000987565b5b600083015167ffffffffffffffff8111156200052e576200052d62000982565b5b6200053c8582860162000476565b925050602083015167ffffffffffffffff81111562000560576200055f62000982565b5b6200056e85828601620004a9565b9150509250929050565b620005838162000829565b82525050565b600062000598602c83620007bb565b9150620005a5826200099d565b604082019050919050565b6000620005bf603283620007bb565b9150620005cc82620009ec565b604082019050919050565b6000620005e6602b83620007bb565b9150620005f38262000a3b565b604082019050919050565b60006200060d601a83620007bb565b91506200061a8262000a8a565b602082019050919050565b600062000634601d83620007bb565b9150620006418262000ab3565b602082019050919050565b62000657816200085d565b82525050565b600060408201905062000674600083018562000578565b6200068360208301846200064c565b9392505050565b60006020820190508181036000830152620006a58162000589565b9050919050565b60006020820190508181036000830152620006c781620005b0565b9050919050565b60006020820190508181036000830152620006e981620005d7565b9050919050565b600060208201905081810360008301526200070b81620005fe565b9050919050565b600060208201905081810360008301526200072d8162000625565b9050919050565b60006200074062000753565b90506200074e828262000867565b919050565b6000604051905090565b600067ffffffffffffffff8211156200077b576200077a62000949565b5b602082029050602081019050919050565b600067ffffffffffffffff821115620007aa57620007a962000949565b5b602082029050602081019050919050565b600082825260208201905092915050565b6000620007d9826200085d565b9150620007e6836200085d565b9250827fffffffffffffffffffffffffffffffffffffffffffffffffffffffffffffffff038211156200081e576200081d620008eb565b5b828201905092915050565b600062000836826200083d565b9050919050565b600073ffffffffffffffffffffffffffffffffffffffff82169050919050565b6000819050919050565b62000872826200098c565b810181811067ffffffffffffffff8211171562000894576200089362000949565b5b80604052505050565b6000620008aa826200085d565b91507fffffffffffffffffffffffffffffffffffffffffffffffffffffffffffffffff821415620008e057620008df620008eb565b5b600182019050919050565b7f4e487b7100000000000000000000000000000000000000000000000000000000600052601160045260246000fd5b7f4e487b7100000000000000000000000000000000000000000000000000000000600052603260045260246000fd5b7f4e487b7100000000000000000000000000000000000000000000000000000000600052604160045260246000fd5b600080fd5b600080fd5b600080fd5b600080fd5b6000601f19601f8301169050919050565b7f5061796d656e7453706c69747465723a206163636f756e74206973207468652060008201527f7a65726f20616464726573730000000000000000000000000000000000000000602082015250565b7f5061796d656e7453706c69747465723a2070617965657320616e64207368617260008201527f6573206c656e677468206d69736d617463680000000000000000000000000000602082015250565b7f5061796d656e7453706c69747465723a206163636f756e7420616c726561647960008201527f2068617320736861726573000000000000000000000000000000000000000000602082015250565b7f5061796d656e7453706c69747465723a206e6f20706179656573000000000000600082015250565b7f5061796d656e7453706c69747465723a20736861726573206172652030000000600082015250565b62000ae78162000829565b811462000af357600080fd5b50565b62000b01816200085d565b811462000b0d57600080fd5b50565b610cc68062000b206000396000f3fe6080604052600436106100595760003560e01c806319165587146100a55780633a98ef39146100ce5780638b83209b146100f95780639852595c14610136578063ce7c2ac214610173578063e33b7de3146101b0576100a0565b366100a0577f6ef95f06320e7a25a04a175ca677b7052bdd97131872c2192525a629f51be7706100876101db565b34604051610096929190610827565b60405180910390a1005b600080fd5b3480156100b157600080fd5b506100cc60048036038101906100c79190610698565b6101e3565b005b3480156100da57600080fd5b506100e361044b565b6040516100f091906108d0565b60405180910390f35b34801561010557600080fd5b50610120600480360381019061011b91906106c5565b610454565b60405161012d91906107e3565b60405180910390f35b34801561014257600080fd5b5061015d6004803603810190610158919061066b565b61049c565b60405161016a91906108d0565b60405180910390f35b34801561017f57600080fd5b5061019a6004803603810190610195919061066b565b6104e5565b6040516101a791906108d0565b60405180910390f35b3480156101bc57600080fd5b506101c561052e565b6040516101d291906108d0565b60405180910390f35b600033905090565b6000600260008373ffffffffffffffffffffffffffffffffffffffff1673ffffffffffffffffffffffffffffffffffffffff1681526020019081526020016000205411610265576040517f08c379a000000000000000000000000000000000000000000000000000000000815260040161025c90610850565b60405180910390fd5b6000600154476102759190610907565b90506000600360008473ffffffffffffffffffffffffffffffffffffffff1673ffffffffffffffffffffffffffffffffffffffff16815260200190815260200160002054600054600260008673ffffffffffffffffffffffffffffffffffffffff1673ffffffffffffffffffffffffffffffffffffffff1681526020019081526020016000205484610307919061098e565b610311919061095d565b61031b91906109e8565b90506000811415610361576040517f08c379a0000000000000000000000000000000000000000000000000000000008152600401610358906108b0565b60405180910390fd5b80600360008573ffffffffffffffffffffffffffffffffffffffff1673ffffffffffffffffffffffffffffffffffffffff168152602001908152602001600020546103ac9190610907565b600360008573ffffffffffffffffffffffffffffffffffffffff1673ffffffffffffffffffffffffffffffffffffffff16815260200190815260200160002081905550806001546103fd9190610907565b60018190555061040d8382610538565b7fdf20fd1e76bc69d672e4814fafb2c449bba3a5369d8359adf9e05e6fde87b056838260405161043e9291906107fe565b60405180910390a1505050565b60008054905090565b60006004828154811061046a57610469610afe565b5b9060005260206000200160009054906101000a900473ffffffffffffffffffffffffffffffffffffffff169050919050565b6000600360008373ffffffffffffffffffffffffffffffffffffffff1673ffffffffffffffffffffffffffffffffffffffff168152602001908152602001600020549050919050565b6000600260008373ffffffffffffffffffffffffffffffffffffffff1673ffffffffffffffffffffffffffffffffffffffff168152602001908152602001600020549050919050565b6000600154905090565b8047101561057b576040517f08c379a000000000000000000000000000000000000000000000000000000000815260040161057290610890565b60405180910390fd5b60008273ffffffffffffffffffffffffffffffffffffffff16826040516105a1906107ce565b60006040518083038185875af1925050503d80600081146105de576040519150601f19603f3d011682016040523d82523d6000602084013e6105e3565b606091505b5050905080610627576040517f08c379a000000000000000000000000000000000000000000000000000000000815260040161061e90610870565b60405180910390fd5b505050565b60008135905061063b81610c4b565b92915050565b60008135905061065081610c62565b92915050565b60008135905061066581610c79565b92915050565b60006020828403121561068157610680610b2d565b5b600061068f8482850161062c565b91505092915050565b6000602082840312156106ae576106ad610b2d565b5b60006106bc84828501610641565b91505092915050565b6000602082840312156106db576106da610b2d565b5b60006106e984828501610656565b91505092915050565b6106fb81610a6a565b82525050565b61070a81610a1c565b82525050565b600061071d6026836108f6565b915061072882610b32565b604082019050919050565b6000610740603a836108f6565b915061074b82610b81565b604082019050919050565b6000610763601d836108f6565b915061076e82610bd0565b602082019050919050565b6000610786602b836108f6565b915061079182610bf9565b604082019050919050565b60006107a96000836108eb565b91506107b482610c48565b600082019050919050565b6107c881610a60565b82525050565b60006107d98261079c565b9150819050919050565b60006020820190506107f86000830184610701565b92915050565b600060408201905061081360008301856106f2565b61082060208301846107bf565b9392505050565b600060408201905061083c6000830185610701565b61084960208301846107bf565b9392505050565b6000602082019050818103600083015261086981610710565b9050919050565b6000602082019050818103600083015261088981610733565b9050919050565b600060208201905081810360008301526108a981610756565b9050919050565b600060208201905081810360008301526108c981610779565b9050919050565b60006020820190506108e560008301846107bf565b92915050565b600081905092915050565b600082825260208201905092915050565b600061091282610a60565b915061091d83610a60565b9250827fffffffffffffffffffffffffffffffffffffffffffffffffffffffffffffffff0382111561095257610951610aa0565b5b828201905092915050565b600061096882610a60565b915061097383610a60565b92508261098357610982610acf565b5b828204905092915050565b600061099982610a60565b91506109a483610a60565b9250817fffffffffffffffffffffffffffffffffffffffffffffffffffffffffffffffff04831182151516156109dd576109dc610aa0565b5b828202905092915050565b60006109f382610a60565b91506109fe83610a60565b925082821015610a1157610a10610aa0565b5b828203905092915050565b6000610a2782610a40565b9050919050565b6000610a3982610a40565b9050919050565b600073ffffffffffffffffffffffffffffffffffffffff82169050919050565b6000819050919050565b6000610a7582610a7c565b9050919050565b6000610a8782610a8e565b9050919050565b6000610a9982610a40565b9050919050565b7f4e487b7100000000000000000000000000000000000000000000000000000000600052601160045260246000fd5b7f4e487b7100000000000000000000000000000000000000000000000000000000600052601260045260246000fd5b7f4e487b7100000000000000000000000000000000000000000000000000000000600052603260045260246000fd5b600080fd5b7f5061796d656e7453706c69747465723a206163636f756e7420686173206e6f2060008201527f7368617265730000000000000000000000000000000000000000000000000000602082015250565b7f416464726573733a20756e61626c6520746f2073656e642076616c75652c207260008201527f6563697069656e74206d61792068617665207265766572746564000000000000602082015250565b7f416464726573733a20696e73756666696369656e742062616c616e6365000000600082015250565b7f5061796d656e7453706c69747465723a206163636f756e74206973206e6f742060008201527f647565207061796d656e74000000000000000000000000000000000000000000602082015250565b50565b610c5481610a1c565b8114610c5f57600080fd5b50565b610c6b81610a2e565b8114610c7657600080fd5b50565b610c8281610a60565b8114610c8d57600080fd5b5056fea26469706673582212201a1926926729a651a90b3eab60e8020c21831fe7b8ae85e46838951eafc5870464736f6c63430008060033a2646970667358221220875cdfff6784520cf28ea310597d513501271658aea2870dd7722cfffbd4020964736f6c63430008060033",
  "immutableReferences": {},
  "source": "// SPDX-License-Identifier: MIT\npragma solidity ^0.8.0;\n\nimport \"./ContributorManager.sol\";\n\ncontract AdminsManager is ContributorManager {\n\n    event AdminAdded(address indexed account, uint256 groupId);\n    event AdminRemoved(address indexed account, uint256 groupId);\n\n    event GroupCreated(address indexed creator, uint256 groupId);\n    event EventStarted(address indexed startedBy, uint256 groupId);\n    event RegistrationEnded(address indexed endedBy, uint256 groupId);\n    event EventEnded(address indexed endedBy, uint256 groupId);\n\n    event CalculatedPot(\n        uint256 registeredRecipientCount,\n        uint256 winningsPerRecipient\n    );\n\n    constructor() {}\n\n    modifier onlyAdmins(uint256 groupId) {\n        require(isAdmin(msg.sender, groupId));\n        _;\n    }\n\n    function isAdmin(address account, uint256 groupId)\n        public\n        view\n        returns (bool)\n    {\n        return admins[groupId][account] == true;\n    }\n\n    modifier onlyAdminsOrCOO(uint256 groupId) {\n        require(isAdmin(msg.sender, groupId) || msg.sender == cooAddress);\n        _;\n    }\n\n    // TODO - allow COO to give \"admin-granting power\" to other admins\n    function addAdmin(address account, uint256 groupId) external onlyCOO {\n        _addAdmin(account, groupId);\n    }\n\n    function removeAdmin(address account, uint256 groupId) external onlyCOO {\n        _removeAdmin(account, groupId);\n    }\n\n    function renounceAdmin(uint256 groupId) public onlyAdmins(groupId) {\n        _removeAdmin(msg.sender, groupId);\n    }\n\n    function _addAdmin(address account, uint256 groupId) internal {\n        admins[groupId][account] = true;\n        emit AdminAdded(account, groupId);\n    }\n\n    function _removeAdmin(address account, uint256 groupId) internal {\n        admins[groupId][account] = false;\n        emit AdminRemoved(account, groupId);\n    }\n\n    function readEventInfo(uint256 groupId)\n        external\n        view\n        onlyAdmins(groupId)\n        returns (EthDropEvent memory)\n    {\n        return currentEvents[groupId];\n    }\n\n    function createNewGroup(string memory groupName) external onlyCOO whenNotPaused {\n        uint256 newGroupId = uint256(blockhash(block.number));\n\n        EthDropEvent memory newGroup = EthDropEvent(\n            newGroupId,\n            groupName,\n            EventState.CREATED,\n            block.timestamp,\n            block.timestamp,\n            block.timestamp,\n            0,\n            \"\",\n            \"\",\n            \"\",\n            address(0)\n        );\n\n        currentEvents[newGroupId] = newGroup;\n\n        listOfGroupIds.push(newGroupId);\n        listOfGroupNames.push(groupName);\n\n        emit GroupCreated(msg.sender, newGroupId);\n    }\n\n    function startEvent(uint256 groupId)\n        external\n        onlyAdmins(groupId)\n        whenNotPaused\n    {\n        currentEvents[groupId].currentState = EventState.REGISTRATION;\n        currentEvents[groupId].startTime = block.timestamp;\n\n        emit EventStarted(msg.sender, groupId);\n    }\n\n    function closeEventRegistration(uint256 groupId)\n        external\n        onlyAdmins(groupId)\n        whenNotPaused\n    {\n        currentEvents[groupId].registrationEndTime = block.timestamp;\n\n        // Transfer dev cut to cfo\n        payable(cfoAddress).transfer(\n            (address(this).balance * devCutPercentage) / 100\n        );\n\n        uint256[] memory potShares = new uint256[](\n            currentEvents[groupId].registeredRecipientsCount\n        );\n\n        for (\n            uint256 i;\n            i < currentEvents[groupId].registeredRecipientsCount;\n            i++\n        ) {\n            potShares[i] = 1;\n        }\n\n        pot[groupId] = new PaymentSplitter(\n            registeredRecipientsArray[groupId],\n            potShares\n        );\n\n        currentEvents[groupId].currentState = EventState.CLAIM_WINNINGS;\n\n        uint256 winningsPerRecipient = address(this).balance /\n            pot[groupId].totalShares();\n\n        emit CalculatedPot(\n            currentEvents[groupId].registeredRecipientsCount,\n            winningsPerRecipient\n        );\n\n        emit RegistrationEnded(msg.sender, groupId);\n    }\n\n    function endEvent(uint256 groupId)\n        external\n        onlyAdminsOrCOO(groupId)\n        whenNotPaused\n    {\n        currentEvents[groupId].endTime = block.timestamp;\n\n        currentEvents[groupId].currentState = EventState.ENDED;\n\n        pastEvents[groupId].push(currentEvents[groupId]);\n\n        emit EventEnded(msg.sender, groupId);\n    }\n\n    function addEligibleRecipient(address account, uint256 groupId)\n        external\n        whenNotPaused\n        onlyAdmins(groupId)\n    {\n        eligibleRecipients[groupId][account] = true;\n        emit EligibleRecipientAdded(account, groupId);\n    }\n\n    function removeEligibleRecipient(address account, uint256 groupId)\n        external\n        onlyAdmins(groupId)\n        whenNotPaused\n    {\n        eligibleRecipients[groupId][account] = false;\n        emit EligibleRecipientRemoved(account, groupId);\n    }\n\n    function addContributor(address account, uint256 groupId)\n        external\n        onlyAdminsOrCOO(groupId)\n        whenNotPaused\n    {\n        _addContributor(account, groupId);\n    }\n\n    function removeContributor(address account, uint256 groupId)\n        external\n        onlyAdminsOrCOO(groupId)\n        whenNotPaused\n    {\n        _removeContributor(account, groupId);\n    }\n}",
  "sourcePath": "/Users/jlynch/Git-Projects/EthDrop/contracts/roles/AdminsManager.sol",
  "compiler": {
    "name": "solc",
    "version": "0.8.6+commit.11564f7e.Emscripten.clang"
  },
  "schemaVersion": "3.4.1",
  "updatedAt": "2021-07-21T14:28:52.301Z",
  "networkType": "ethereum",
  "devdoc": {
    "kind": "dev",
    "methods": {
      "pause()": {
        "details": "Called by any \"C-level\" role to pause the contract. Used only when  a bug or exploit is detected and we need to limit damage."
      },
      "setCEO(address)": {
        "details": "Assigns a new address to act as the CEO. Only available to the current CEO.",
        "params": {
          "_newCEO": "The address of the new CEO"
        }
      },
      "setCFO(address)": {
        "details": "Assigns a new address to act as the CFO. Only available to the current CEO.",
        "params": {
          "_newCFO": "The address of the new CFO"
        }
      },
      "setCOO(address)": {
        "details": "Assigns a new address to act as the COO. Only available to the current CEO.",
        "params": {
          "_newCOO": "The address of the new COO"
        }
      },
      "unpause()": {
        "details": "Unpauses the smart contract. Can only be called by the CEO, since  one reason we may pause the contract is when CFO or COO accounts are  compromised."
      }
    },
    "version": 1
  },
  "userdoc": {
    "kind": "user",
    "methods": {
      "unpause()": {
        "notice": "This is public rather than external so it can be called by  derived contracts."
      }
    },
    "version": 1
  }
}