{
  "contractName": "AdminsManager",
  "abi": [
    {
      "inputs": [],
      "stateMutability": "nonpayable",
      "type": "constructor"
    },
    {
      "anonymous": false,
      "inputs": [
        {
          "indexed": true,
          "internalType": "address",
          "name": "account",
          "type": "address"
        },
        {
          "indexed": false,
          "internalType": "uint256",
          "name": "groupId",
          "type": "uint256"
        }
      ],
      "name": "AdminAdded",
      "type": "event"
    },
    {
      "anonymous": false,
      "inputs": [],
      "name": "AdminAdded",
      "type": "event"
    },
    {
      "anonymous": false,
      "inputs": [
        {
          "indexed": true,
          "internalType": "address",
          "name": "account",
          "type": "address"
        },
        {
          "indexed": false,
          "internalType": "uint256",
          "name": "groupId",
          "type": "uint256"
        }
      ],
      "name": "AdminRemoved",
      "type": "event"
    },
    {
      "anonymous": false,
      "inputs": [
        {
          "indexed": false,
          "internalType": "bool",
          "name": "isPaused",
          "type": "bool"
        }
      ],
      "name": "AppPaused",
      "type": "event"
    },
    {
      "anonymous": false,
      "inputs": [
        {
          "indexed": false,
          "internalType": "uint256",
          "name": "registeredRecipientCount",
          "type": "uint256"
        },
        {
          "indexed": false,
          "internalType": "uint256",
          "name": "winningsPerRecipient",
          "type": "uint256"
        }
      ],
      "name": "CalculatedPot",
      "type": "event"
    },
    {
      "anonymous": false,
      "inputs": [],
      "name": "CfoUpdated",
      "type": "event"
    },
    {
      "anonymous": false,
      "inputs": [
        {
          "indexed": false,
          "internalType": "address",
          "name": "newContract",
          "type": "address"
        }
      ],
      "name": "ContractUpgrade",
      "type": "event"
    },
    {
      "anonymous": false,
      "inputs": [
        {
          "indexed": true,
          "internalType": "address",
          "name": "account",
          "type": "address"
        },
        {
          "indexed": false,
          "internalType": "uint256",
          "name": "groupId",
          "type": "uint256"
        },
        {
          "indexed": false,
          "internalType": "uint256",
          "name": "amount",
          "type": "uint256"
        }
      ],
      "name": "ContributionMade",
      "type": "event"
    },
    {
      "anonymous": false,
      "inputs": [
        {
          "indexed": true,
          "internalType": "address",
          "name": "account",
          "type": "address"
        },
        {
          "indexed": false,
          "internalType": "uint256",
          "name": "groupId",
          "type": "uint256"
        }
      ],
      "name": "ContributorAdded",
      "type": "event"
    },
    {
      "anonymous": false,
      "inputs": [
        {
          "indexed": true,
          "internalType": "address",
          "name": "account",
          "type": "address"
        },
        {
          "indexed": false,
          "internalType": "uint256",
          "name": "groupId",
          "type": "uint256"
        }
      ],
      "name": "ContributorRemoved",
      "type": "event"
    },
    {
      "anonymous": false,
      "inputs": [],
      "name": "CooUpdated",
      "type": "event"
    },
    {
      "anonymous": false,
      "inputs": [
        {
          "indexed": true,
          "internalType": "address",
          "name": "account",
          "type": "address"
        },
        {
          "indexed": false,
          "internalType": "uint256",
          "name": "groupId",
          "type": "uint256"
        }
      ],
      "name": "EligibleRecipientAdded",
      "type": "event"
    },
    {
      "anonymous": false,
      "inputs": [
        {
          "indexed": true,
          "internalType": "address",
          "name": "account",
          "type": "address"
        },
        {
          "indexed": false,
          "internalType": "uint256",
          "name": "groupId",
          "type": "uint256"
        }
      ],
      "name": "EligibleRecipientRemoved",
      "type": "event"
    },
    {
      "anonymous": false,
      "inputs": [],
      "name": "EventClose",
      "type": "event"
    },
    {
      "anonymous": false,
      "inputs": [
        {
          "indexed": true,
          "internalType": "address",
          "name": "endedBy",
          "type": "address"
        },
        {
          "indexed": false,
          "internalType": "uint256",
          "name": "groupId",
          "type": "uint256"
        }
      ],
      "name": "EventEnded",
      "type": "event"
    },
    {
      "anonymous": false,
      "inputs": [
        {
          "indexed": true,
          "internalType": "address",
          "name": "startedBy",
          "type": "address"
        },
        {
          "indexed": false,
          "internalType": "uint256",
          "name": "groupId",
          "type": "uint256"
        }
      ],
      "name": "EventStarted",
      "type": "event"
    },
    {
      "anonymous": false,
      "inputs": [
        {
          "indexed": false,
          "internalType": "string",
          "name": "groupName",
          "type": "string"
        },
        {
          "indexed": false,
          "internalType": "uint256",
          "name": "groupId",
          "type": "uint256"
        }
      ],
      "name": "GroupCreated",
      "type": "event"
    },
    {
      "anonymous": false,
      "inputs": [
        {
          "indexed": true,
          "internalType": "address",
          "name": "account",
          "type": "address"
        },
        {
          "indexed": false,
          "internalType": "uint256",
          "name": "groupId",
          "type": "uint256"
        }
      ],
      "name": "RecipientRegistered",
      "type": "event"
    },
    {
      "anonymous": false,
      "inputs": [
        {
          "indexed": true,
          "internalType": "address",
          "name": "endedBy",
          "type": "address"
        },
        {
          "indexed": false,
          "internalType": "uint256",
          "name": "groupId",
          "type": "uint256"
        }
      ],
      "name": "RegistrationEnded",
      "type": "event"
    },
    {
      "anonymous": false,
      "inputs": [],
      "name": "RegistrationOpen",
      "type": "event"
    },
    {
      "anonymous": false,
      "inputs": [
        {
          "indexed": false,
          "internalType": "address",
          "name": "from",
          "type": "address"
        },
        {
          "indexed": false,
          "internalType": "address",
          "name": "to",
          "type": "address"
        }
      ],
      "name": "Transfer",
      "type": "event"
    },
    {
      "anonymous": false,
      "inputs": [
        {
          "indexed": true,
          "internalType": "address",
          "name": "account",
          "type": "address"
        },
        {
          "indexed": false,
          "internalType": "uint256",
          "name": "groupId",
          "type": "uint256"
        }
      ],
      "name": "WinningsClaimed",
      "type": "event"
    },
    {
      "anonymous": false,
      "inputs": [],
      "name": "WinningsClaimingOpen",
      "type": "event"
    },
    {
      "inputs": [
        {
          "internalType": "uint256",
          "name": "groupId",
          "type": "uint256"
        }
      ],
      "name": "amIContributor",
      "outputs": [
        {
          "internalType": "bool",
          "name": "",
          "type": "bool"
        }
      ],
      "stateMutability": "view",
      "type": "function",
      "constant": true
    },
    {
      "inputs": [
        {
          "internalType": "uint256",
          "name": "groupId",
          "type": "uint256"
        }
      ],
      "name": "amIEligibleRecipient",
      "outputs": [
        {
          "internalType": "bool",
          "name": "",
          "type": "bool"
        }
      ],
      "stateMutability": "view",
      "type": "function",
      "constant": true
    },
    {
      "inputs": [
        {
          "internalType": "uint256",
          "name": "groupId",
          "type": "uint256"
        }
      ],
      "name": "amIRegisteredRecipient",
      "outputs": [
        {
          "internalType": "bool",
          "name": "",
          "type": "bool"
        }
      ],
      "stateMutability": "view",
      "type": "function",
      "constant": true
    },
    {
      "inputs": [],
      "name": "ceoAddress",
      "outputs": [
        {
          "internalType": "address",
          "name": "",
          "type": "address"
        }
      ],
      "stateMutability": "view",
      "type": "function",
      "constant": true
    },
    {
      "inputs": [],
      "name": "cfoAddress",
      "outputs": [
        {
          "internalType": "address",
          "name": "",
          "type": "address"
        }
      ],
      "stateMutability": "view",
      "type": "function",
      "constant": true
    },
    {
      "inputs": [
        {
          "internalType": "uint256",
          "name": "groupId",
          "type": "uint256"
        }
      ],
      "name": "claimWinnings",
      "outputs": [],
      "stateMutability": "nonpayable",
      "type": "function"
    },
    {
      "inputs": [
        {
          "internalType": "uint256",
          "name": "groupId",
          "type": "uint256"
        }
      ],
      "name": "contributeToPot",
      "outputs": [],
      "stateMutability": "payable",
      "type": "function",
      "payable": true
    },
    {
      "inputs": [],
      "name": "cooAddress",
      "outputs": [
        {
          "internalType": "address",
          "name": "",
          "type": "address"
        }
      ],
      "stateMutability": "view",
      "type": "function",
      "constant": true
    },
    {
      "inputs": [
        {
          "internalType": "uint256",
          "name": "groupId",
          "type": "uint256"
        }
      ],
      "name": "doIHaveClaimableWinnings",
      "outputs": [
        {
          "internalType": "bool",
          "name": "",
          "type": "bool"
        }
      ],
      "stateMutability": "view",
      "type": "function",
      "constant": true
    },
    {
      "inputs": [],
      "name": "getCFO",
      "outputs": [
        {
          "internalType": "address",
          "name": "",
          "type": "address"
        }
      ],
      "stateMutability": "view",
      "type": "function",
      "constant": true
    },
    {
      "inputs": [],
      "name": "getCOO",
      "outputs": [
        {
          "internalType": "address",
          "name": "",
          "type": "address"
        }
      ],
      "stateMutability": "view",
      "type": "function",
      "constant": true
    },
    {
      "inputs": [
        {
          "internalType": "uint256",
          "name": "groupId",
          "type": "uint256"
        }
      ],
      "name": "getContributorInfo",
      "outputs": [
        {
          "internalType": "string",
          "name": "newContributorName",
          "type": "string"
        },
        {
          "internalType": "string",
          "name": "newContributorImgUrl",
          "type": "string"
        },
        {
          "internalType": "string",
          "name": "newContributorLinkToUrl",
          "type": "string"
        }
      ],
      "stateMutability": "view",
      "type": "function",
      "constant": true
    },
    {
      "inputs": [
        {
          "internalType": "uint256",
          "name": "groupId",
          "type": "uint256"
        }
      ],
      "name": "getCurrentSponsorAddress",
      "outputs": [
        {
          "internalType": "address",
          "name": "",
          "type": "address"
        }
      ],
      "stateMutability": "view",
      "type": "function",
      "constant": true
    },
    {
      "inputs": [
        {
          "internalType": "uint256",
          "name": "groupId",
          "type": "uint256"
        }
      ],
      "name": "getEligibleRecipientAddresses",
      "outputs": [
        {
          "internalType": "address[]",
          "name": "",
          "type": "address[]"
        }
      ],
      "stateMutability": "view",
      "type": "function",
      "constant": true
    },
    {
      "inputs": [
        {
          "internalType": "uint256",
          "name": "groupId",
          "type": "uint256"
        }
      ],
      "name": "getEligibleRecipientIsEligibilityEnabled",
      "outputs": [
        {
          "internalType": "bool[]",
          "name": "",
          "type": "bool[]"
        }
      ],
      "stateMutability": "view",
      "type": "function",
      "constant": true
    },
    {
      "inputs": [
        {
          "internalType": "uint256",
          "name": "groupId",
          "type": "uint256"
        }
      ],
      "name": "getGroupEventData",
      "outputs": [
        {
          "internalType": "enum EthDropBase.EventState",
          "name": "",
          "type": "uint8"
        },
        {
          "internalType": "uint256",
          "name": "",
          "type": "uint256"
        },
        {
          "internalType": "uint256",
          "name": "",
          "type": "uint256"
        },
        {
          "internalType": "uint256",
          "name": "",
          "type": "uint256"
        },
        {
          "internalType": "uint256",
          "name": "",
          "type": "uint256"
        }
      ],
      "stateMutability": "view",
      "type": "function",
      "constant": true
    },
    {
      "inputs": [],
      "name": "getGroupIds",
      "outputs": [
        {
          "internalType": "uint256[]",
          "name": "",
          "type": "uint256[]"
        }
      ],
      "stateMutability": "view",
      "type": "function",
      "constant": true
    },
    {
      "inputs": [],
      "name": "getGroupNames",
      "outputs": [
        {
          "internalType": "string[]",
          "name": "",
          "type": "string[]"
        }
      ],
      "stateMutability": "view",
      "type": "function",
      "constant": true
    },
    {
      "inputs": [
        {
          "internalType": "uint256",
          "name": "groupId",
          "type": "uint256"
        }
      ],
      "name": "getRegisteredRecipients",
      "outputs": [
        {
          "internalType": "address[]",
          "name": "",
          "type": "address[]"
        }
      ],
      "stateMutability": "view",
      "type": "function",
      "constant": true
    },
    {
      "inputs": [],
      "name": "getString",
      "outputs": [
        {
          "internalType": "string",
          "name": "",
          "type": "string"
        }
      ],
      "stateMutability": "view",
      "type": "function",
      "constant": true
    },
    {
      "inputs": [],
      "name": "isCEO",
      "outputs": [
        {
          "internalType": "bool",
          "name": "",
          "type": "bool"
        }
      ],
      "stateMutability": "view",
      "type": "function",
      "constant": true
    },
    {
      "inputs": [],
      "name": "isCFO",
      "outputs": [
        {
          "internalType": "bool",
          "name": "",
          "type": "bool"
        }
      ],
      "stateMutability": "view",
      "type": "function",
      "constant": true
    },
    {
      "inputs": [],
      "name": "isCOO",
      "outputs": [
        {
          "internalType": "bool",
          "name": "",
          "type": "bool"
        }
      ],
      "stateMutability": "view",
      "type": "function",
      "constant": true
    },
    {
      "inputs": [
        {
          "internalType": "address",
          "name": "account",
          "type": "address"
        },
        {
          "internalType": "uint256",
          "name": "groupId",
          "type": "uint256"
        }
      ],
      "name": "isContributor",
      "outputs": [
        {
          "internalType": "bool",
          "name": "",
          "type": "bool"
        }
      ],
      "stateMutability": "view",
      "type": "function",
      "constant": true
    },
    {
      "inputs": [
        {
          "internalType": "address",
          "name": "account",
          "type": "address"
        },
        {
          "internalType": "uint256",
          "name": "groupId",
          "type": "uint256"
        }
      ],
      "name": "isEligibleRecipient",
      "outputs": [
        {
          "internalType": "bool",
          "name": "",
          "type": "bool"
        }
      ],
      "stateMutability": "view",
      "type": "function",
      "constant": true
    },
    {
      "inputs": [],
      "name": "isPaused",
      "outputs": [
        {
          "internalType": "bool",
          "name": "",
          "type": "bool"
        }
      ],
      "stateMutability": "view",
      "type": "function",
      "constant": true
    },
    {
      "inputs": [
        {
          "internalType": "address",
          "name": "account",
          "type": "address"
        },
        {
          "internalType": "uint256",
          "name": "groupId",
          "type": "uint256"
        }
      ],
      "name": "isRegisteredRecipient",
      "outputs": [
        {
          "internalType": "bool",
          "name": "",
          "type": "bool"
        }
      ],
      "stateMutability": "view",
      "type": "function",
      "constant": true
    },
    {
      "inputs": [],
      "name": "pause",
      "outputs": [],
      "stateMutability": "nonpayable",
      "type": "function"
    },
    {
      "inputs": [],
      "name": "paused",
      "outputs": [
        {
          "internalType": "bool",
          "name": "",
          "type": "bool"
        }
      ],
      "stateMutability": "view",
      "type": "function",
      "constant": true
    },
    {
      "inputs": [
        {
          "internalType": "uint256",
          "name": "groupId",
          "type": "uint256"
        }
      ],
      "name": "registerForEvent",
      "outputs": [],
      "stateMutability": "nonpayable",
      "type": "function"
    },
    {
      "inputs": [
        {
          "internalType": "uint256",
          "name": "groupId",
          "type": "uint256"
        }
      ],
      "name": "renounceContributor",
      "outputs": [],
      "stateMutability": "nonpayable",
      "type": "function"
    },
    {
      "inputs": [
        {
          "internalType": "address",
          "name": "_newCEO",
          "type": "address"
        }
      ],
      "name": "setCEO",
      "outputs": [],
      "stateMutability": "nonpayable",
      "type": "function"
    },
    {
      "inputs": [
        {
          "internalType": "address",
          "name": "_newCFO",
          "type": "address"
        }
      ],
      "name": "setCFO",
      "outputs": [],
      "stateMutability": "nonpayable",
      "type": "function"
    },
    {
      "inputs": [
        {
          "internalType": "address",
          "name": "_newCOO",
          "type": "address"
        }
      ],
      "name": "setCOO",
      "outputs": [],
      "stateMutability": "nonpayable",
      "type": "function"
    },
    {
      "inputs": [
        {
          "internalType": "string",
          "name": "_s",
          "type": "string"
        }
      ],
      "name": "setString",
      "outputs": [],
      "stateMutability": "nonpayable",
      "type": "function"
    },
    {
      "inputs": [],
      "name": "stringgg",
      "outputs": [
        {
          "internalType": "string",
          "name": "",
          "type": "string"
        }
      ],
      "stateMutability": "view",
      "type": "function",
      "constant": true
    },
    {
      "inputs": [],
      "name": "unpause",
      "outputs": [
        {
          "internalType": "bool",
          "name": "",
          "type": "bool"
        }
      ],
      "stateMutability": "nonpayable",
      "type": "function"
    },
    {
      "inputs": [
        {
          "internalType": "uint256",
          "name": "groupId",
          "type": "uint256"
        },
        {
          "internalType": "string",
          "name": "newContributorName",
          "type": "string"
        },
        {
          "internalType": "string",
          "name": "newContributorImgUrl",
          "type": "string"
        },
        {
          "internalType": "string",
          "name": "newContributorLinkToUrl",
          "type": "string"
        }
      ],
      "name": "updateContributorInfo",
      "outputs": [],
      "stateMutability": "nonpayable",
      "type": "function"
    },
    {
      "inputs": [],
      "name": "whoami",
      "outputs": [
        {
          "internalType": "address",
          "name": "",
          "type": "address"
        }
      ],
      "stateMutability": "view",
      "type": "function",
      "constant": true
    },
    {
      "inputs": [
        {
          "internalType": "address",
          "name": "account",
          "type": "address"
        },
        {
          "internalType": "uint256",
          "name": "groupId",
          "type": "uint256"
        }
      ],
      "name": "isAdmin",
      "outputs": [
        {
          "internalType": "bool",
          "name": "",
          "type": "bool"
        }
      ],
      "stateMutability": "view",
      "type": "function",
      "constant": true
    },
    {
      "inputs": [
        {
          "internalType": "uint256",
          "name": "groupId",
          "type": "uint256"
        }
      ],
      "name": "amIAdmin",
      "outputs": [
        {
          "internalType": "bool",
          "name": "",
          "type": "bool"
        }
      ],
      "stateMutability": "view",
      "type": "function",
      "constant": true
    },
    {
      "inputs": [
        {
          "internalType": "uint256",
          "name": "groupId",
          "type": "uint256"
        }
      ],
      "name": "getAdminsForGroup",
      "outputs": [
        {
          "internalType": "address[]",
          "name": "",
          "type": "address[]"
        },
        {
          "internalType": "bool[]",
          "name": "",
          "type": "bool[]"
        }
      ],
      "stateMutability": "view",
      "type": "function",
      "constant": true
    },
    {
      "inputs": [
        {
          "internalType": "address",
          "name": "account",
          "type": "address"
        },
        {
          "internalType": "uint256",
          "name": "groupId",
          "type": "uint256"
        }
      ],
      "name": "addAdmin",
      "outputs": [],
      "stateMutability": "nonpayable",
      "type": "function"
    },
    {
      "inputs": [
        {
          "internalType": "address",
          "name": "account",
          "type": "address"
        },
        {
          "internalType": "uint256",
          "name": "groupId",
          "type": "uint256"
        }
      ],
      "name": "removeAdmin",
      "outputs": [],
      "stateMutability": "nonpayable",
      "type": "function"
    },
    {
      "inputs": [
        {
          "internalType": "uint256",
          "name": "groupId",
          "type": "uint256"
        }
      ],
      "name": "renounceAdmin",
      "outputs": [],
      "stateMutability": "nonpayable",
      "type": "function"
    },
    {
      "inputs": [
        {
          "internalType": "uint256",
          "name": "groupId",
          "type": "uint256"
        }
      ],
      "name": "readEventInfo",
      "outputs": [
        {
          "components": [
            {
              "internalType": "uint256",
              "name": "groupId",
              "type": "uint256"
            },
            {
              "internalType": "string",
              "name": "groupName",
              "type": "string"
            },
            {
              "internalType": "enum EthDropBase.EventState",
              "name": "currentState",
              "type": "uint8"
            },
            {
              "internalType": "uint256",
              "name": "startTime",
              "type": "uint256"
            },
            {
              "internalType": "uint256",
              "name": "registrationEndTime",
              "type": "uint256"
            },
            {
              "internalType": "uint256",
              "name": "endTime",
              "type": "uint256"
            },
            {
              "internalType": "uint256",
              "name": "registeredRecipientsCount",
              "type": "uint256"
            },
            {
              "internalType": "string",
              "name": "sponsorName",
              "type": "string"
            },
            {
              "internalType": "string",
              "name": "sponsorImageUrl",
              "type": "string"
            },
            {
              "internalType": "string",
              "name": "sponsorLinkToUrl",
              "type": "string"
            },
            {
              "internalType": "address",
              "name": "currentContributor",
              "type": "address"
            },
            {
              "internalType": "uint256",
              "name": "totalAmountContributed",
              "type": "uint256"
            },
            {
              "internalType": "uint256",
              "name": "weiWinnings",
              "type": "uint256"
            },
            {
              "internalType": "uint256",
              "name": "numberOfUsersWhoClaimedWinnings",
              "type": "uint256"
            }
          ],
          "internalType": "struct EthDropBase.EthDropEvent",
          "name": "",
          "type": "tuple"
        }
      ],
      "stateMutability": "view",
      "type": "function",
      "constant": true
    },
    {
      "inputs": [
        {
          "internalType": "string",
          "name": "groupName",
          "type": "string"
        }
      ],
      "name": "createNewGroup",
      "outputs": [],
      "stateMutability": "nonpayable",
      "type": "function"
    },
    {
      "inputs": [
        {
          "internalType": "uint256",
          "name": "groupId",
          "type": "uint256"
        }
      ],
      "name": "startEvent",
      "outputs": [],
      "stateMutability": "nonpayable",
      "type": "function"
    },
    {
      "inputs": [
        {
          "internalType": "uint256",
          "name": "groupId",
          "type": "uint256"
        }
      ],
      "name": "closeEventRegistration",
      "outputs": [],
      "stateMutability": "nonpayable",
      "type": "function"
    },
    {
      "inputs": [
        {
          "internalType": "uint256",
          "name": "groupId",
          "type": "uint256"
        }
      ],
      "name": "endEvent",
      "outputs": [],
      "stateMutability": "nonpayable",
      "type": "function"
    },
    {
      "inputs": [
        {
          "internalType": "address",
          "name": "account",
          "type": "address"
        },
        {
          "internalType": "uint256",
          "name": "groupId",
          "type": "uint256"
        }
      ],
      "name": "addEligibleRecipient",
      "outputs": [],
      "stateMutability": "nonpayable",
      "type": "function"
    },
    {
      "inputs": [
        {
          "internalType": "address",
          "name": "account",
          "type": "address"
        },
        {
          "internalType": "uint256",
          "name": "groupId",
          "type": "uint256"
        }
      ],
      "name": "removeEligibleRecipient",
      "outputs": [],
      "stateMutability": "nonpayable",
      "type": "function"
    },
    {
      "inputs": [
        {
          "internalType": "address",
          "name": "account",
          "type": "address"
        },
        {
          "internalType": "uint256",
          "name": "groupId",
          "type": "uint256"
        }
      ],
      "name": "changeContributor",
      "outputs": [],
      "stateMutability": "nonpayable",
      "type": "function"
    },
    {
      "inputs": [
        {
          "internalType": "address",
          "name": "account",
          "type": "address"
        },
        {
          "internalType": "uint256",
          "name": "groupId",
          "type": "uint256"
        }
      ],
      "name": "removeContributor",
      "outputs": [],
      "stateMutability": "nonpayable",
      "type": "function"
    }
  ],
  "bytecode": "0x60806040526000600360146101000a81548160ff02191690831515021790555060056004556000600b5534801561003557600080fd5b50614d9a806100456000396000f3fe6080604052600436106103355760003560e01c80638182aaf2116101ab578063c271e80c116100f7578063e62092be11610095578063ee41b5921161006f578063ee41b59214610c6c578063f4a02e7014610ca9578063f89e9cb914610cd4578063fc5fd6e414610d1157610335565b8063e62092be14610bea578063e82f24e014610c27578063ea303f0814610c4357610335565b8063d5f016c3116100d1578063d5f016c314610b2e578063e320d5e714610b59578063e33db42614610b82578063e513b7a914610bbf57610335565b8063c271e80c14610ab1578063c6db509414610ada578063c6e0ddfa14610b0557610335565b8063a59a695311610164578063b047fb501161013e578063b047fb5014610a05578063b187bd2614610a30578063b3b36bb314610a5b578063c02b8b2c14610a8657610335565b8063a59a69531461098a578063ab4e1945146109b3578063aea88a05146109dc57610335565b80638182aaf2146108665780638456cb59146108a357806389ea642f146108ba5780639393ae37146108e5578063962ecff5146109105780639bda87961461094d57610335565b80634635509b11610285578063677bd9ff116102235780637b936ac2116101fd5780637b936ac2146107ac5780637d837ce5146107d75780637fcaf666146108145780637fcb29c91461083d57610335565b8063677bd9ff1461071c5780636ebdec4914610745578063785142be1461078357610335565b806355b57ec11161025f57806355b57ec1146106385780635c975abb146106755780635e82c1fc146106a0578063674811ca146106dd57610335565b80634635509b146105a55780634e0a3379146105e65780634f1ef03c1461060f57610335565b80632ba73c15116102f257806338f0b656116102cc57806338f0b656146104d75780633f4ba83a14610514578063406db8431461053f57806344b2983b1461056857610335565b80632ba73c151461045c57806330bb011514610485578063330a347b146104ae57610335565b80630519ce791461033a57806306cc4922146103655780630a0f8168146103a25780630d82ffa0146103cd57806315891ff41461040a57806327d7874c14610433575b600080fd5b34801561034657600080fd5b5061034f610d3c565b60405161035c9190614616565b60405180910390f35b34801561037157600080fd5b5061038c60048036038101906103879190614116565b610d62565b60405161039991906146f0565b60405180910390f35b3480156103ae57600080fd5b506103b7610d8f565b6040516103c49190614616565b60405180910390f35b3480156103d957600080fd5b506103f460048036038101906103ef9190614116565b610db5565b6040516104019190614616565b60405180910390f35b34801561041657600080fd5b50610431600480360381019061042c919061408d565b610df5565b005b34801561043f57600080fd5b5061045a60048036038101906104559190614060565b610edf565b005b34801561046857600080fd5b50610483600480360381019061047e9190614060565b610fb7565b005b34801561049157600080fd5b506104ac60048036038101906104a79190614116565b6110bb565b005b3480156104ba57600080fd5b506104d560048036038101906104d09190614116565b6110dd565b005b3480156104e357600080fd5b506104fe60048036038101906104f99190614116565b6113d4565b60405161050b91906146f0565b60405180910390f35b34801561052057600080fd5b50610529611401565b60405161053691906146f0565b60405180910390f35b34801561054b57600080fd5b5061056660048036038101906105619190614116565b6114a6565b005b34801561057457600080fd5b5061058f600480360381019061058a9190614116565b61162f565b60405161059c9190614631565b60405180910390f35b3480156105b157600080fd5b506105cc60048036038101906105c79190614116565b6116d0565b6040516105dd95949392919061470b565b60405180910390f35b3480156105f257600080fd5b5061060d60048036038101906106089190614060565b611a53565b005b34801561061b57600080fd5b5061063660048036038101906106319190614116565b611b1d565b005b34801561064457600080fd5b5061065f600480360381019061065a9190614116565b611b59565b60405161066c919061468a565b60405180910390f35b34801561068157600080fd5b5061068a611be9565b60405161069791906146f0565b60405180910390f35b3480156106ac57600080fd5b506106c760048036038101906106c2919061408d565b611bfc565b6040516106d491906146f0565b60405180910390f35b3480156106e957600080fd5b5061070460048036038101906106ff9190614116565b611c85565b60405161071393929190614780565b60405180910390f35b34801561072857600080fd5b50610743600480360381019061073e9190614116565b611e7d565b005b34801561075157600080fd5b5061076c60048036038101906107679190614116565b612062565b60405161077a929190614653565b60405180910390f35b34801561078f57600080fd5b506107aa60048036038101906107a59190614116565b612193565b005b3480156107b857600080fd5b506107c161236e565b6040516107ce9190614616565b60405180910390f35b3480156107e357600080fd5b506107fe60048036038101906107f9919061408d565b612398565b60405161080b91906146f0565b60405180910390f35b34801561082057600080fd5b5061083b600480360381019061083691906140cd565b612421565b005b34801561084957600080fd5b50610864600480360381019061085f919061408d565b61243b565b005b34801561087257600080fd5b5061088d6004803603810190610888919061408d565b6124cf565b60405161089a91906146f0565b60405180910390f35b3480156108af57600080fd5b506108b8612558565b005b3480156108c657600080fd5b506108cf612699565b6040516108dc919061475e565b60405180910390f35b3480156108f157600080fd5b506108fa61272b565b60405161090791906146f0565b60405180910390f35b34801561091c57600080fd5b5061093760048036038101906109329190614116565b612783565b60405161094491906146f0565b60405180910390f35b34801561095957600080fd5b50610974600480360381019061096f9190614116565b6127f1565b6040516109819190614631565b60405180910390f35b34801561099657600080fd5b506109b160048036038101906109ac9190614116565b612892565b005b3480156109bf57600080fd5b506109da60048036038101906109d5919061408d565b61296c565b005b3480156109e857600080fd5b50610a0360048036038101906109fe9190614143565b612b20565b005b348015610a1157600080fd5b50610a1a612bbc565b604051610a279190614616565b60405180910390f35b348015610a3c57600080fd5b50610a45612be2565b604051610a5291906146f0565b60405180910390f35b348015610a6757600080fd5b50610a70612bf9565b604051610a7d9190614616565b60405180910390f35b348015610a9257600080fd5b50610a9b612c01565b604051610aa891906146ce565b60405180910390f35b348015610abd57600080fd5b50610ad86004803603810190610ad3919061408d565b612c59565b005b348015610ae657600080fd5b50610aef612cee565b604051610afc919061475e565b60405180910390f35b348015610b1157600080fd5b50610b2c6004803603810190610b27919061408d565b612d7c565b005b348015610b3a57600080fd5b50610b43612de4565b604051610b5091906146ac565b60405180910390f35b348015610b6557600080fd5b50610b806004803603810190610b7b919061408d565b612ebd565b005b348015610b8e57600080fd5b50610ba96004803603810190610ba49190614116565b612f52565b604051610bb691906147fc565b60405180910390f35b348015610bcb57600080fd5b50610bd46132be565b604051610be191906146f0565b60405180910390f35b348015610bf657600080fd5b50610c116004803603810190610c0c919061408d565b613316565b604051610c1e91906146f0565b60405180910390f35b610c416004803603810190610c3c9190614116565b613385565b005b348015610c4f57600080fd5b50610c6a6004803603810190610c6591906140cd565b613422565b005b348015610c7857600080fd5b50610c936004803603810190610c8e9190614116565b613753565b604051610ca091906146f0565b60405180910390f35b348015610cb557600080fd5b50610cbe613780565b604051610ccb91906146f0565b60405180910390f35b348015610ce057600080fd5b50610cfb6004803603810190610cf69190614116565b6137d8565b604051610d0891906146f0565b60405180910390f35b348015610d1d57600080fd5b50610d2661385f565b604051610d339190614616565b60405180910390f35b600260009054906101000a900473ffffffffffffffffffffffffffffffffffffffff1681565b6000600360149054906101000a900460ff1615610d7e57600080fd5b610d883383611bfc565b9050919050565b600160009054906101000a900473ffffffffffffffffffffffffffffffffffffffff1681565b600060076000838152602001908152602001600020600a0160009054906101000a900473ffffffffffffffffffffffffffffffffffffffff169050919050565b80610e003382613316565b610e0957600080fd5b600360149054906101000a900460ff1615610e2357600080fd5b60006011600084815260200190815260200160002060008573ffffffffffffffffffffffffffffffffffffffff1673ffffffffffffffffffffffffffffffffffffffff16815260200190815260200160002060006101000a81548160ff0219169083151502179055508273ffffffffffffffffffffffffffffffffffffffff167f1af6d16168d33745872119540d28858eed156c5f265206bbf1344fda39a93a3383604051610ed2919061481e565b60405180910390a2505050565b600160009054906101000a900473ffffffffffffffffffffffffffffffffffffffff1673ffffffffffffffffffffffffffffffffffffffff163373ffffffffffffffffffffffffffffffffffffffff1614610f3957600080fd5b600073ffffffffffffffffffffffffffffffffffffffff168173ffffffffffffffffffffffffffffffffffffffff161415610f7357600080fd5b80600160006101000a81548173ffffffffffffffffffffffffffffffffffffffff021916908373ffffffffffffffffffffffffffffffffffffffff16021790555050565b600160009054906101000a900473ffffffffffffffffffffffffffffffffffffffff1673ffffffffffffffffffffffffffffffffffffffff163373ffffffffffffffffffffffffffffffffffffffff161461101157600080fd5b600073ffffffffffffffffffffffffffffffffffffffff168173ffffffffffffffffffffffffffffffffffffffff16141561104b57600080fd5b80600360006101000a81548173ffffffffffffffffffffffffffffffffffffffff021916908373ffffffffffffffffffffffffffffffffffffffff1602179055507fa308298a77084def994b565be25bff2e8fbfe7006c2c6b2bacfb84d1ba1f635060405160405180910390a150565b806110c63382613316565b6110cf57600080fd5b6110d93383613889565b5050565b806110e83382613316565b806111405750600360009054906101000a900473ffffffffffffffffffffffffffffffffffffffff1673ffffffffffffffffffffffffffffffffffffffff163373ffffffffffffffffffffffffffffffffffffffff16145b61114957600080fd5b600360149054906101000a900460ff161561116357600080fd5b42600760008481526020019081526020016000206005018190555060036007600084815260200190815260200160002060020160006101000a81548160ff021916908360038111156111b8576111b7614c41565b5b0217905550600860008381526020019081526020016000206007600084815260200190815260200160002090806001815401808255809150506001900390600052602060002090600e020160009091909190915060008201548160000155600182018160010190805461122a90614b37565b611235929190613dff565b506002820160009054906101000a900460ff168160020160006101000a81548160ff0219169083600381111561126e5761126d614c41565b5b02179055506003820154816003015560048201548160040155600582015481600501556006820154816006015560078201816007019080546112af90614b37565b6112ba929190613dff565b5060088201816008019080546112cf90614b37565b6112da929190613dff565b5060098201816009019080546112ef90614b37565b6112fa929190613dff565b50600a820160009054906101000a900473ffffffffffffffffffffffffffffffffffffffff1681600a0160006101000a81548173ffffffffffffffffffffffffffffffffffffffff021916908373ffffffffffffffffffffffffffffffffffffffff160217905550600b82015481600b0155600c82015481600c0155600d82015481600d015550503373ffffffffffffffffffffffffffffffffffffffff167f6f45a19e8850c727d0de9f32e0d8691324a9a74ffb4347652e6404138b1d8165836040516113c8919061481e565b60405180910390a25050565b6000600360149054906101000a900460ff16156113f057600080fd5b6113fa3383612398565b9050919050565b6000600160009054906101000a900473ffffffffffffffffffffffffffffffffffffffff1673ffffffffffffffffffffffffffffffffffffffff163373ffffffffffffffffffffffffffffffffffffffff161461145d57600080fd5b600360149054906101000a900460ff1661147657600080fd5b6000600360146101000a81548160ff021916908315150217905550600360149054906101000a900460ff16905090565b806114b13382611bfc565b6114ba57600080fd5b600360149054906101000a900460ff16156114d457600080fd5b60016014600084815260200190815260200160002060003373ffffffffffffffffffffffffffffffffffffffff1673ffffffffffffffffffffffffffffffffffffffff16815260200190815260200160002060006101000a81548160ff02191690831515021790555060156000838152602001908152602001600020339080600181540180825580915050600190039060005260206000200160009091909190916101000a81548173ffffffffffffffffffffffffffffffffffffffff021916908373ffffffffffffffffffffffffffffffffffffffff1602179055506007600083815260200190815260200160002060060160008154809291906115d890614b9a565b91905055503373ffffffffffffffffffffffffffffffffffffffff167f0695e999be8100bdb5bee8612337296508d527eae78c65b8f170eacb5a3b439d83604051611623919061481e565b60405180910390a25050565b6060601560008381526020019081526020016000208054806020026020016040519081016040528092919081815260200182805480156116c457602002820191906000526020600020905b8160009054906101000a900473ffffffffffffffffffffffffffffffffffffffff1673ffffffffffffffffffffffffffffffffffffffff168152602001906001019080831161167a575b50505050509050919050565b60008060008060008060076000888152602001908152602001600020604051806101c00160405290816000820154815260200160018201805461171290614b37565b80601f016020809104026020016040519081016040528092919081815260200182805461173e90614b37565b801561178b5780601f106117605761010080835404028352916020019161178b565b820191906000526020600020905b81548152906001019060200180831161176e57829003601f168201915b505050505081526020016002820160009054906101000a900460ff1660038111156117b9576117b8614c41565b5b60038111156117cb576117ca614c41565b5b81526020016003820154815260200160048201548152602001600582015481526020016006820154815260200160078201805461180790614b37565b80601f016020809104026020016040519081016040528092919081815260200182805461183390614b37565b80156118805780601f1061185557610100808354040283529160200191611880565b820191906000526020600020905b81548152906001019060200180831161186357829003601f168201915b5050505050815260200160088201805461189990614b37565b80601f01602080910402602001604051908101604052809291908181526020018280546118c590614b37565b80156119125780601f106118e757610100808354040283529160200191611912565b820191906000526020600020905b8154815290600101906020018083116118f557829003601f168201915b5050505050815260200160098201805461192b90614b37565b80601f016020809104026020016040519081016040528092919081815260200182805461195790614b37565b80156119a45780601f10611979576101008083540402835291602001916119a4565b820191906000526020600020905b81548152906001019060200180831161198757829003601f168201915b50505050508152602001600a820160009054906101000a900473ffffffffffffffffffffffffffffffffffffffff1673ffffffffffffffffffffffffffffffffffffffff1673ffffffffffffffffffffffffffffffffffffffff168152602001600b8201548152602001600c8201548152602001600d82015481525050905080604001518160c00151826101600151836101800151846101a00151955095509550955095505091939590929450565b600160009054906101000a900473ffffffffffffffffffffffffffffffffffffffff1673ffffffffffffffffffffffffffffffffffffffff163373ffffffffffffffffffffffffffffffffffffffff1614611aad57600080fd5b80600260006101000a81548173ffffffffffffffffffffffffffffffffffffffff021916908373ffffffffffffffffffffffffffffffffffffffff1602179055507f162e32528b5907ecf876b3b7a4e5e0edf878642e3ec25852e3c35af1a4e1c04060405160405180910390a150565b80611b2833826124cf565b611b3157600080fd5b600360149054906101000a900460ff1615611b4b57600080fd5b611b5533836139ea565b5050565b606060136000838152602001908152602001600020805480602002602001604051908101604052809291908181526020018280548015611bdd57602002820191906000526020600020906000905b82829054906101000a900460ff16151581526020019060010190602082600001049283019260010382029150808411611ba75790505b50505050509050919050565b600360149054906101000a900460ff1681565b6000600360149054906101000a900460ff1615611c1857600080fd5b600115156011600084815260200190815260200160002060008573ffffffffffffffffffffffffffffffffffffffff1673ffffffffffffffffffffffffffffffffffffffff16815260200190815260200160002060009054906101000a900460ff16151514905092915050565b6060806060600760008581526020019081526020016000206007016007600086815260200190815260200160002060080160076000878152602001908152602001600020600901828054611cd890614b37565b80601f0160208091040260200160405190810160405280929190818152602001828054611d0490614b37565b8015611d515780601f10611d2657610100808354040283529160200191611d51565b820191906000526020600020905b815481529060010190602001808311611d3457829003601f168201915b50505050509250818054611d6490614b37565b80601f0160208091040260200160405190810160405280929190818152602001828054611d9090614b37565b8015611ddd5780601f10611db257610100808354040283529160200191611ddd565b820191906000526020600020905b815481529060010190602001808311611dc057829003601f168201915b50505050509150808054611df090614b37565b80601f0160208091040260200160405190810160405280929190818152602001828054611e1c90614b37565b8015611e695780601f10611e3e57610100808354040283529160200191611e69565b820191906000526020600020905b815481529060010190602001808311611e4c57829003601f168201915b505050505090509250925092509193909250565b80611e883382612398565b611e9157600080fd5b813360011515600c600084815260200190815260200160002060003373ffffffffffffffffffffffffffffffffffffffff1673ffffffffffffffffffffffffffffffffffffffff16815260200190815260200160002060009054906101000a900460ff1615151415611f0257600080fd5b600360149054906101000a900460ff1615611f1c57600080fd5b6001600c600086815260200190815260200160002060003373ffffffffffffffffffffffffffffffffffffffff1673ffffffffffffffffffffffffffffffffffffffff16815260200190815260200160002060006101000a81548160ff02191690831515021790555060076000858152602001908152602001600020600d016000815480929190611fac90614b9a565b91905055503373ffffffffffffffffffffffffffffffffffffffff166108fc60076000878152602001908152602001600020600c01549081150290604051600060405180830381858888f1935050505015801561200d573d6000803e3d6000fd5b503373ffffffffffffffffffffffffffffffffffffffff167f1a31e733a172afcf46074b3106c17f0c298e226442682a03c1e99ce256139ec285604051612054919061481e565b60405180910390a250505050565b606080600d6000848152602001908152602001600020600f60008581526020019081526020016000208180548060200260200160405190810160405280929190818152602001828054801561210c57602002820191906000526020600020905b8160009054906101000a900473ffffffffffffffffffffffffffffffffffffffff1673ffffffffffffffffffffffffffffffffffffffff16815260200190600101908083116120c2575b505050505091508080548060200260200160405190810160405280929190818152602001828054801561218357602002820191906000526020600020906000905b82829054906101000a900460ff1615158152602001906001019060208260000104928301926001038202915080841161214d5790505b5050505050905091509150915091565b8061219e3382613316565b6121a757600080fd5b600360149054906101000a900460ff16156121c157600080fd5b4260076000848152602001908152602001600020600401819055506000606460045460076000868152602001908152602001600020600b015461220491906149fa565b61220e91906149c9565b9050600260009054906101000a900473ffffffffffffffffffffffffffffffffffffffff1673ffffffffffffffffffffffffffffffffffffffff166108fc829081150290604051600060405180830381858888f19350505050158015612278573d6000803e3d6000fd5b5060008160076000868152602001908152602001600020600b015461229d9190614a54565b90506007600085815260200190815260200160002060060154816122c191906149c9565b60076000868152602001908152602001600020600c018190555060026007600086815260200190815260200160002060020160006101000a81548160ff0219169083600381111561231557612314614c41565b5b02179055503373ffffffffffffffffffffffffffffffffffffffff167fef898a6941c945450e9bbdad4a76fcd0f51f42f7e251fddcb1e5479ba786d5e485604051612360919061481e565b60405180910390a250505050565b6000600260009054906101000a900473ffffffffffffffffffffffffffffffffffffffff16905090565b6000600360149054906101000a900460ff16156123b457600080fd5b600115156014600084815260200190815260200160002060008573ffffffffffffffffffffffffffffffffffffffff1673ffffffffffffffffffffffffffffffffffffffff16815260200190815260200160002060009054906101000a900460ff16151514905092915050565b8060009080519060200190612437929190613e8c565b5050565b600360009054906101000a900473ffffffffffffffffffffffffffffffffffffffff1673ffffffffffffffffffffffffffffffffffffffff163373ffffffffffffffffffffffffffffffffffffffff161461249557600080fd5b61249f8282613afb565b7f5e98fc0a2b96aaaf43c5d24a7d998895523ed18636d276b24f12b5f2e0bb857360405160405180910390a15050565b6000600360149054906101000a900460ff16156124eb57600080fd5b600115156010600084815260200190815260200160002060008573ffffffffffffffffffffffffffffffffffffffff1673ffffffffffffffffffffffffffffffffffffffff16815260200190815260200160002060009054906101000a900460ff16151514905092915050565b600360009054906101000a900473ffffffffffffffffffffffffffffffffffffffff1673ffffffffffffffffffffffffffffffffffffffff163373ffffffffffffffffffffffffffffffffffffffff1614806126015750600160009054906101000a900473ffffffffffffffffffffffffffffffffffffffff1673ffffffffffffffffffffffffffffffffffffffff163373ffffffffffffffffffffffffffffffffffffffff16145b806126595750600260009054906101000a900473ffffffffffffffffffffffffffffffffffffffff1673ffffffffffffffffffffffffffffffffffffffff163373ffffffffffffffffffffffffffffffffffffffff16145b61266257600080fd5b600360149054906101000a900460ff161561267c57600080fd5b6001600360146101000a81548160ff021916908315150217905550565b6060600080546126a890614b37565b80601f01602080910402602001604051908101604052809291908181526020018280546126d490614b37565b80156127215780601f106126f657610100808354040283529160200191612721565b820191906000526020600020905b81548152906001019060200180831161270457829003601f168201915b5050505050905090565b6000600260009054906101000a900473ffffffffffffffffffffffffffffffffffffffff1673ffffffffffffffffffffffffffffffffffffffff163373ffffffffffffffffffffffffffffffffffffffff1614905090565b6000600115156009600084815260200190815260200160002060003373ffffffffffffffffffffffffffffffffffffffff1673ffffffffffffffffffffffffffffffffffffffff16815260200190815260200160002060009054906101000a900460ff161515149050919050565b60606012600083815260200190815260200160002080548060200260200160405190810160405280929190818152602001828054801561288657602002820191906000526020600020905b8160009054906101000a900473ffffffffffffffffffffffffffffffffffffffff1673ffffffffffffffffffffffffffffffffffffffff168152602001906001019080831161283c575b50505050509050919050565b8061289d3382613316565b6128a657600080fd5b600360149054906101000a900460ff16156128c057600080fd5b60016007600084815260200190815260200160002060020160006101000a81548160ff021916908360038111156128fa576128f9614c41565b5b02179055504260076000848152602001908152602001600020600301819055503373ffffffffffffffffffffffffffffffffffffffff167ff77c6f27499b698205f54058c2914a340e1300c2bc0d9a819e7aebfbaabbbb9383604051612960919061481e565b60405180910390a25050565b600360149054906101000a900460ff161561298657600080fd5b806129913382613316565b61299a57600080fd5b60016011600084815260200190815260200160002060008573ffffffffffffffffffffffffffffffffffffffff1673ffffffffffffffffffffffffffffffffffffffff16815260200190815260200160002060006101000a81548160ff02191690831515021790555060126000838152602001908152602001600020839080600181540180825580915050600190039060005260206000200160009091909190916101000a81548173ffffffffffffffffffffffffffffffffffffffff021916908373ffffffffffffffffffffffffffffffffffffffff16021790555060136000838152602001908152602001600020600190806001815401808255809150506001900390600052602060002090602091828204019190069091909190916101000a81548160ff0219169083151502179055508273ffffffffffffffffffffffffffffffffffffffff167f46b8357d30dedd734a71d059a385f46b6e667bff20233f907477760207f8896583604051612b13919061481e565b60405180910390a2505050565b83612b2b33826124cf565b612b3457600080fd5b83600760008781526020019081526020016000206007019080519060200190612b5e929190613e8c565b5082600760008781526020019081526020016000206008019080519060200190612b89929190613e8c565b5081600760008781526020019081526020016000206009019080519060200190612bb4929190613e8c565b505050505050565b600360009054906101000a900473ffffffffffffffffffffffffffffffffffffffff1681565b6000600360149054906101000a900460ff16905090565b600033905090565b60606005805480602002602001604051908101604052809291908181526020018280548015612c4f57602002820191906000526020600020905b815481526020019060010190808311612c3b575b5050505050905090565b80612c643382613316565b80612cbc5750600360009054906101000a900473ffffffffffffffffffffffffffffffffffffffff1673ffffffffffffffffffffffffffffffffffffffff163373ffffffffffffffffffffffffffffffffffffffff16145b612cc557600080fd5b600360149054906101000a900460ff1615612cdf57600080fd5b612ce98383613cef565b505050565b60008054612cfb90614b37565b80601f0160208091040260200160405190810160405280929190818152602001828054612d2790614b37565b8015612d745780601f10612d4957610100808354040283529160200191612d74565b820191906000526020600020905b815481529060010190602001808311612d5757829003601f168201915b505050505081565b600360009054906101000a900473ffffffffffffffffffffffffffffffffffffffff1673ffffffffffffffffffffffffffffffffffffffff163373ffffffffffffffffffffffffffffffffffffffff1614612dd657600080fd5b612de08282613889565b5050565b60606006805480602002602001604051908101604052809291908181526020016000905b82821015612eb4578382906000526020600020018054612e2790614b37565b80601f0160208091040260200160405190810160405280929190818152602001828054612e5390614b37565b8015612ea05780601f10612e7557610100808354040283529160200191612ea0565b820191906000526020600020905b815481529060010190602001808311612e8357829003601f168201915b505050505081526020019060010190612e08565b50505050905090565b80612ec83382613316565b80612f205750600360009054906101000a900473ffffffffffffffffffffffffffffffffffffffff1673ffffffffffffffffffffffffffffffffffffffff163373ffffffffffffffffffffffffffffffffffffffff16145b612f2957600080fd5b600360149054906101000a900460ff1615612f4357600080fd5b612f4d83836139ea565b505050565b612f5a613f12565b81612f653382613316565b612f6e57600080fd5b60076000848152602001908152602001600020604051806101c001604052908160008201548152602001600182018054612fa790614b37565b80601f0160208091040260200160405190810160405280929190818152602001828054612fd390614b37565b80156130205780601f10612ff557610100808354040283529160200191613020565b820191906000526020600020905b81548152906001019060200180831161300357829003601f168201915b505050505081526020016002820160009054906101000a900460ff16600381111561304e5761304d614c41565b5b60038111156130605761305f614c41565b5b81526020016003820154815260200160048201548152602001600582015481526020016006820154815260200160078201805461309c90614b37565b80601f01602080910402602001604051908101604052809291908181526020018280546130c890614b37565b80156131155780601f106130ea57610100808354040283529160200191613115565b820191906000526020600020905b8154815290600101906020018083116130f857829003601f168201915b5050505050815260200160088201805461312e90614b37565b80601f016020809104026020016040519081016040528092919081815260200182805461315a90614b37565b80156131a75780601f1061317c576101008083540402835291602001916131a7565b820191906000526020600020905b81548152906001019060200180831161318a57829003601f168201915b505050505081526020016009820180546131c090614b37565b80601f01602080910402602001604051908101604052809291908181526020018280546131ec90614b37565b80156132395780601f1061320e57610100808354040283529160200191613239565b820191906000526020600020905b81548152906001019060200180831161321c57829003601f168201915b50505050508152602001600a820160009054906101000a900473ffffffffffffffffffffffffffffffffffffffff1673ffffffffffffffffffffffffffffffffffffffff1673ffffffffffffffffffffffffffffffffffffffff168152602001600b8201548152602001600c8201548152602001600d82015481525050915050919050565b6000600160009054906101000a900473ffffffffffffffffffffffffffffffffffffffff1673ffffffffffffffffffffffffffffffffffffffff163373ffffffffffffffffffffffffffffffffffffffff1614905090565b6000600115156009600084815260200190815260200160002060008573ffffffffffffffffffffffffffffffffffffffff1673ffffffffffffffffffffffffffffffffffffffff16815260200190815260200160002060009054906101000a900460ff16151514905092915050565b8061339033826124cf565b61339957600080fd5b600360149054906101000a900460ff16156133b357600080fd5b3460076000848152602001908152602001600020600b01819055503373ffffffffffffffffffffffffffffffffffffffff167f5dc1fe5ab986a852c4eda8e8bb94247d13307065c593fb83f1a09be2736793828334604051613416929190614839565b60405180910390a25050565b600360009054906101000a900473ffffffffffffffffffffffffffffffffffffffff1673ffffffffffffffffffffffffffffffffffffffff163373ffffffffffffffffffffffffffffffffffffffff161461347c57600080fd5b600360149054906101000a900460ff161561349657600080fd5b60004290506000604051806101c00160405280838152602001848152602001600060038111156134c9576134c8614c41565b5b815260200142815260200142815260200142815260200160008152602001604051806020016040528060008152508152602001604051806020016040528060008152508152602001604051806020016040528060008152508152602001600073ffffffffffffffffffffffffffffffffffffffff1681526020016000815260200160008152602001600081525090508060076000848152602001908152602001600020600082015181600001556020820151816001019080519060200190613592929190613e8c565b5060408201518160020160006101000a81548160ff021916908360038111156135be576135bd614c41565b5b0217905550606082015181600301556080820151816004015560a0820151816005015560c0820151816006015560e0820151816007019080519060200190613607929190613e8c565b50610100820151816008019080519060200190613625929190613e8c565b50610120820151816009019080519060200190613643929190613e8c565b5061014082015181600a0160006101000a81548173ffffffffffffffffffffffffffffffffffffffff021916908373ffffffffffffffffffffffffffffffffffffffff16021790555061016082015181600b015561018082015181600c01556101a082015181600d01559050506005829080600181540180825580915050600190039060005260206000200160009091909190915055600683908060018154018082558091505060019003906000526020600020016000909190919091509080519060200190613714929190613e8c565b507f5937a473913f56daf7dea7a6e821970acaa73f35555cf88f70c54f243cd98a9e83836040516137469291906147cc565b60405180910390a1505050565b6000600360149054906101000a900460ff161561376f57600080fd5b61377933836124cf565b9050919050565b6000600360009054906101000a900473ffffffffffffffffffffffffffffffffffffffff1673ffffffffffffffffffffffffffffffffffffffff163373ffffffffffffffffffffffffffffffffffffffff1614905090565b60006137e43383612398565b6137f1576000905061385a565b60011515600c600084815260200190815260200160002060003373ffffffffffffffffffffffffffffffffffffffff1673ffffffffffffffffffffffffffffffffffffffff16815260200190815260200160002060009054906101000a900460ff161515141590505b919050565b6000600360009054906101000a900473ffffffffffffffffffffffffffffffffffffffff16905090565b60006009600083815260200190815260200160002060008473ffffffffffffffffffffffffffffffffffffffff1673ffffffffffffffffffffffffffffffffffffffff16815260200190815260200160002060006101000a81548160ff0219169083151502179055506000600a600083815260200190815260200160002060008473ffffffffffffffffffffffffffffffffffffffff1673ffffffffffffffffffffffffffffffffffffffff1681526020019081526020016000205490506000600f6000848152602001908152602001600020828154811061396e5761396d614c9f565b5b90600052602060002090602091828204019190066101000a81548160ff0219169083151502179055508273ffffffffffffffffffffffffffffffffffffffff167fa0726c73cf6ad18ddb855ba65d1ddd4d7fd37d320f4e52f6b154c13d386f5fd9836040516139dd919061481e565b60405180910390a2505050565b60006010600083815260200190815260200160002060008473ffffffffffffffffffffffffffffffffffffffff1673ffffffffffffffffffffffffffffffffffffffff16815260200190815260200160002060006101000a81548160ff021916908315150217905550600060076000838152602001908152602001600020600a0160006101000a81548173ffffffffffffffffffffffffffffffffffffffff021916908373ffffffffffffffffffffffffffffffffffffffff1602179055508173ffffffffffffffffffffffffffffffffffffffff167fda111d7eb5d5b2033c4ffad00cd7cd42f45af2813bee1a69e65f26d90ea15f0b82604051613aef919061481e565b60405180910390a25050565b60016009600083815260200190815260200160002060008473ffffffffffffffffffffffffffffffffffffffff1673ffffffffffffffffffffffffffffffffffffffff16815260200190815260200160002060006101000a81548160ff021916908315150217905550600b54600a600083815260200190815260200160002060008473ffffffffffffffffffffffffffffffffffffffff1673ffffffffffffffffffffffffffffffffffffffff16815260200190815260200160002081905550600b6000815480929190613bce90614b9a565b9190505550600d6000828152602001908152602001600020829080600181540180825580915050600190039060005260206000200160009091909190916101000a81548173ffffffffffffffffffffffffffffffffffffffff021916908373ffffffffffffffffffffffffffffffffffffffff160217905550600f6000828152602001908152602001600020600190806001815401808255809150506001900390600052602060002090602091828204019190069091909190916101000a81548160ff0219169083151502179055508173ffffffffffffffffffffffffffffffffffffffff167f723c2b747529ca7f5eb53a74808f4a8b9bf264f0fc450fd904900151da74548a82604051613ce3919061481e565b60405180910390a25050565b60016010600083815260200190815260200160002060008473ffffffffffffffffffffffffffffffffffffffff1673ffffffffffffffffffffffffffffffffffffffff16815260200190815260200160002060006101000a81548160ff0219169083151502179055508160076000838152602001908152602001600020600a0160006101000a81548173ffffffffffffffffffffffffffffffffffffffff021916908373ffffffffffffffffffffffffffffffffffffffff1602179055508173ffffffffffffffffffffffffffffffffffffffff167f5fd6d0b7e707fe344bd2a1887f9d0eeea8bfcac6f339ba4200e74f0647f101c082604051613df3919061481e565b60405180910390a25050565b828054613e0b90614b37565b90600052602060002090601f016020900481019282613e2d5760008555613e7b565b82601f10613e3e5780548555613e7b565b82800160010185558215613e7b57600052602060002091601f016020900482015b82811115613e7a578254825591600101919060010190613e5f565b5b509050613e889190613fa9565b5090565b828054613e9890614b37565b90600052602060002090601f016020900481019282613eba5760008555613f01565b82601f10613ed357805160ff1916838001178555613f01565b82800160010185558215613f01579182015b82811115613f00578251825591602001919060010190613ee5565b5b509050613f0e9190613fa9565b5090565b604051806101c00160405280600081526020016060815260200160006003811115613f4057613f3f614c41565b5b815260200160008152602001600081526020016000815260200160008152602001606081526020016060815260200160608152602001600073ffffffffffffffffffffffffffffffffffffffff1681526020016000815260200160008152602001600081525090565b5b80821115613fc2576000816000905550600101613faa565b5090565b6000613fd9613fd484614887565b614862565b905082815260208101848484011115613ff557613ff4614d02565b5b614000848285614af5565b509392505050565b60008135905061401781614d36565b92915050565b600082601f83011261403257614031614cfd565b5b8135614042848260208601613fc6565b91505092915050565b60008135905061405a81614d4d565b92915050565b60006020828403121561407657614075614d0c565b5b600061408484828501614008565b91505092915050565b600080604083850312156140a4576140a3614d0c565b5b60006140b285828601614008565b92505060206140c38582860161404b565b9150509250929050565b6000602082840312156140e3576140e2614d0c565b5b600082013567ffffffffffffffff81111561410157614100614d07565b5b61410d8482850161401d565b91505092915050565b60006020828403121561412c5761412b614d0c565b5b600061413a8482850161404b565b91505092915050565b6000806000806080858703121561415d5761415c614d0c565b5b600061416b8782880161404b565b945050602085013567ffffffffffffffff81111561418c5761418b614d07565b5b6141988782880161401d565b935050604085013567ffffffffffffffff8111156141b9576141b8614d07565b5b6141c58782880161401d565b925050606085013567ffffffffffffffff8111156141e6576141e5614d07565b5b6141f28782880161401d565b91505092959194509250565b600061420a838361425a565b60208301905092915050565b60006142228383614407565b60208301905092915050565b600061423a8383614443565b905092915050565b600061424e83836145f8565b60208301905092915050565b61426381614a88565b82525050565b61427281614a88565b82525050565b6000614283826148f8565b61428d8185614963565b9350614298836148b8565b8060005b838110156142c95781516142b088826141fe565b97506142bb8361492f565b92505060018101905061429c565b5085935050505092915050565b60006142e182614903565b6142eb8185614974565b93506142f6836148c8565b8060005b8381101561432757815161430e8882614216565b97506143198361493c565b9250506001810190506142fa565b5085935050505092915050565b600061433f8261490e565b6143498185614985565b93508360208202850161435b856148d8565b8060005b858110156143975784840389528151614378858261422e565b945061438383614949565b925060208a0199505060018101905061435f565b50829750879550505050505092915050565b60006143b482614919565b6143be8185614996565b93506143c9836148e8565b8060005b838110156143fa5781516143e18882614242565b97506143ec83614956565b9250506001810190506143cd565b5085935050505092915050565b61441081614a9a565b82525050565b61441f81614a9a565b82525050565b61442e81614ae3565b82525050565b61443d81614ae3565b82525050565b600061444e82614924565b61445881856149a7565b9350614468818560208601614b04565b61447181614d11565b840191505092915050565b600061448782614924565b61449181856149b8565b93506144a1818560208601614b04565b6144aa81614d11565b840191505092915050565b60006101c0830160008301516144ce60008601826145f8565b50602083015184820360208601526144e68282614443565b91505060408301516144fb6040860182614425565b50606083015161450e60608601826145f8565b50608083015161452160808601826145f8565b5060a083015161453460a08601826145f8565b5060c083015161454760c08601826145f8565b5060e083015184820360e086015261455f8282614443565b91505061010083015184820361010086015261457b8282614443565b9150506101208301518482036101208601526145978282614443565b9150506101408301516145ae61014086018261425a565b506101608301516145c36101608601826145f8565b506101808301516145d86101808601826145f8565b506101a08301516145ed6101a08601826145f8565b508091505092915050565b61460181614ad9565b82525050565b61461081614ad9565b82525050565b600060208201905061462b6000830184614269565b92915050565b6000602082019050818103600083015261464b8184614278565b905092915050565b6000604082019050818103600083015261466d8185614278565b9050818103602083015261468181846142d6565b90509392505050565b600060208201905081810360008301526146a481846142d6565b905092915050565b600060208201905081810360008301526146c68184614334565b905092915050565b600060208201905081810360008301526146e881846143a9565b905092915050565b60006020820190506147056000830184614416565b92915050565b600060a0820190506147206000830188614434565b61472d6020830187614607565b61473a6040830186614607565b6147476060830185614607565b6147546080830184614607565b9695505050505050565b60006020820190508181036000830152614778818461447c565b905092915050565b6000606082019050818103600083015261479a818661447c565b905081810360208301526147ae818561447c565b905081810360408301526147c2818461447c565b9050949350505050565b600060408201905081810360008301526147e6818561447c565b90506147f56020830184614607565b9392505050565b6000602082019050818103600083015261481681846144b5565b905092915050565b60006020820190506148336000830184614607565b92915050565b600060408201905061484e6000830185614607565b61485b6020830184614607565b9392505050565b600061486c61487d565b90506148788282614b69565b919050565b6000604051905090565b600067ffffffffffffffff8211156148a2576148a1614cce565b5b6148ab82614d11565b9050602081019050919050565b6000819050602082019050919050565b6000819050602082019050919050565b6000819050602082019050919050565b6000819050602082019050919050565b600081519050919050565b600081519050919050565b600081519050919050565b600081519050919050565b600081519050919050565b6000602082019050919050565b6000602082019050919050565b6000602082019050919050565b6000602082019050919050565b600082825260208201905092915050565b600082825260208201905092915050565b600082825260208201905092915050565b600082825260208201905092915050565b600082825260208201905092915050565b600082825260208201905092915050565b60006149d482614ad9565b91506149df83614ad9565b9250826149ef576149ee614c12565b5b828204905092915050565b6000614a0582614ad9565b9150614a1083614ad9565b9250817fffffffffffffffffffffffffffffffffffffffffffffffffffffffffffffffff0483118215151615614a4957614a48614be3565b5b828202905092915050565b6000614a5f82614ad9565b9150614a6a83614ad9565b925082821015614a7d57614a7c614be3565b5b828203905092915050565b6000614a9382614ab9565b9050919050565b60008115159050919050565b6000819050614ab482614d22565b919050565b600073ffffffffffffffffffffffffffffffffffffffff82169050919050565b6000819050919050565b6000614aee82614aa6565b9050919050565b82818337600083830152505050565b60005b83811015614b22578082015181840152602081019050614b07565b83811115614b31576000848401525b50505050565b60006002820490506001821680614b4f57607f821691505b60208210811415614b6357614b62614c70565b5b50919050565b614b7282614d11565b810181811067ffffffffffffffff82111715614b9157614b90614cce565b5b80604052505050565b6000614ba582614ad9565b91507fffffffffffffffffffffffffffffffffffffffffffffffffffffffffffffffff821415614bd857614bd7614be3565b5b600182019050919050565b7f4e487b7100000000000000000000000000000000000000000000000000000000600052601160045260246000fd5b7f4e487b7100000000000000000000000000000000000000000000000000000000600052601260045260246000fd5b7f4e487b7100000000000000000000000000000000000000000000000000000000600052602160045260246000fd5b7f4e487b7100000000000000000000000000000000000000000000000000000000600052602260045260246000fd5b7f4e487b7100000000000000000000000000000000000000000000000000000000600052603260045260246000fd5b7f4e487b7100000000000000000000000000000000000000000000000000000000600052604160045260246000fd5b600080fd5b600080fd5b600080fd5b600080fd5b6000601f19601f8301169050919050565b60048110614d3357614d32614c41565b5b50565b614d3f81614a88565b8114614d4a57600080fd5b50565b614d5681614ad9565b8114614d6157600080fd5b5056fea2646970667358221220fd0ea76a057f8a3226990d6c0bffa343c6eb78241cd0deab96b2ec485ad2407a64736f6c63430008060033",
  "immutableReferences": {},
  "source": "// SPDX-License-Identifier: MIT\npragma solidity ^0.8.0;\n\nimport \"./ContributorManager.sol\";\n\ncontract AdminsManager is ContributorManager {\n\n    event AdminAdded(address indexed account, uint256 groupId);\n    event AdminRemoved(address indexed account, uint256 groupId);\n\n    event GroupCreated(string groupName, uint256 groupId);\n    event EventStarted(address indexed startedBy, uint256 groupId);\n    event RegistrationEnded(address indexed endedBy, uint256 groupId);\n    event EventEnded(address indexed endedBy, uint256 groupId);\n    event AdminAdded();\n\n    event CalculatedPot(\n        uint256 registeredRecipientCount,\n        uint256 winningsPerRecipient\n    );\n\n    constructor() {}\n\n    modifier onlyAdmins(uint256 groupId) {\n        require(isAdmin(msg.sender, groupId));\n        _;\n    }\n\n    function isAdmin(address account, uint256 groupId)\n        public\n        view\n        returns (bool)\n    {\n        return admins[groupId][account] == true;\n    }\n\n    function amIAdmin(uint groupId) external view returns (bool) {\n        return admins[groupId][msg.sender] == true;\n    }\n\n    function getAdminsForGroup(uint256 groupId) external view returns (address[] memory, bool[] memory) {\n        return (adminAddresses[groupId], adminEnabled[groupId]);\n    }\n\n    modifier onlyAdminsOrCOO(uint256 groupId) {\n        require(isAdmin(msg.sender, groupId) || msg.sender == cooAddress);\n        _;\n    }\n\n    // TODO - allow COO to give \"admin-granting power\" to other admins\n    function addAdmin(address account, uint256 groupId) external onlyCOO {\n        _addAdmin(account, groupId);\n\n        emit AdminAdded();\n    }\n\n    function removeAdmin(address account, uint256 groupId) external onlyCOO {\n        _removeAdmin(account, groupId);\n    }\n\n    function renounceAdmin(uint256 groupId) public onlyAdmins(groupId) {\n        _removeAdmin(msg.sender, groupId);\n    }\n\n    function _addAdmin(address account, uint256 groupId) internal {\n        admins[groupId][account] = true;\n\n        adminAddressToIndex[groupId][account] = adminAddressToIndexNextIndex;\n        adminAddressToIndexNextIndex++;\n\n        adminAddresses[groupId].push(account);\n        adminEnabled[groupId].push(true);\n        // TODO - adminNames\n\n        emit AdminAdded(account, groupId);\n    }\n\n    function _removeAdmin(address account, uint256 groupId) internal {\n        admins[groupId][account] = false;\n\n        uint index = adminAddressToIndex[groupId][account];\n        adminEnabled[groupId][index] = false;\n\n        emit AdminRemoved(account, groupId);\n    }\n\n    function readEventInfo(uint256 groupId)\n        external\n        view\n        onlyAdmins(groupId)\n        returns (EthDropEvent memory)\n    {\n        return currentEvents[groupId];\n    }\n\n    function createNewGroup(string memory groupName) external onlyCOO whenNotPaused {\n        // uint256 newGroupId = uint256(blockhash(block.number));\n        uint256 newGroupId = block.timestamp;\n\n        EthDropEvent memory newGroup = EthDropEvent(\n            newGroupId,\n            groupName,\n            EventState.CREATED,\n            block.timestamp,\n            block.timestamp,\n            block.timestamp,\n            0,\n            \"\",\n            \"\",\n            \"\",\n            address(0),\n            0,\n            0,\n            0\n        );\n\n        currentEvents[newGroupId] = newGroup;\n\n        listOfGroupIds.push(newGroupId);\n        listOfGroupNames.push(groupName);\n\n        emit GroupCreated(groupName, newGroupId);\n    }\n\n    function startEvent(uint256 groupId)\n        external\n        onlyAdmins(groupId)\n        whenNotPaused\n    {\n        currentEvents[groupId].currentState = EventState.REGISTRATION;\n        currentEvents[groupId].startTime = block.timestamp;\n\n        emit EventStarted(msg.sender, groupId);\n    }\n\n    function closeEventRegistration(uint256 groupId)\n        external\n        onlyAdmins(groupId)\n        whenNotPaused\n    {\n        currentEvents[groupId].registrationEndTime = block.timestamp;\n\n\n        uint devCutWei = currentEvents[groupId].totalAmountContributed * devCutPercentage / 100;\n\n        // Transfer dev cut to cfo\n        payable(cfoAddress).transfer(devCutWei);\n\n        // pot is the amount for recipients to share\n        uint pot = currentEvents[groupId].totalAmountContributed - devCutWei;\n\n        // each recipient's winnings is the \"weiWinnings\"\n        currentEvents[groupId].weiWinnings = pot / currentEvents[groupId].registeredRecipientsCount;\n\n        // uint256[] memory potShares = new uint256[](\n        //     currentEvents[groupId].registeredRecipientsCount\n        // );\n\n        // for (\n        //     uint256 i;\n        //     i < currentEvents[groupId].registeredRecipientsCount;\n        //     i++\n        // ) {\n        //     potShares[i] = 1;\n        // }\n\n        // pot[groupId] = new PaymentSplitter(\n        //     registeredRecipientsArray[groupId],\n        //     potShares\n        // );\n\n        currentEvents[groupId].currentState = EventState.CLAIM_WINNINGS;\n\n        // uint256 winningsPerRecipient = address(this).balance /\n        //     pot[groupId].totalShares();\n\n        // emit CalculatedPot(\n        //     currentEvents[groupId].registeredRecipientsCount,\n        //     winningsPerRecipient\n        // );\n\n        emit RegistrationEnded(msg.sender, groupId);\n    }\n\n    function endEvent(uint256 groupId)\n        external\n        onlyAdminsOrCOO(groupId)\n        whenNotPaused\n    {\n        currentEvents[groupId].endTime = block.timestamp;\n\n        currentEvents[groupId].currentState = EventState.ENDED;\n\n        pastEvents[groupId].push(currentEvents[groupId]);\n\n        emit EventEnded(msg.sender, groupId);\n    }\n\n    function addEligibleRecipient(address account, uint256 groupId)\n        external\n        whenNotPaused\n        onlyAdmins(groupId)\n    {\n        eligibleRecipients[groupId][account] = true;\n\n        eligibleRecipientsArray[groupId].push(account);\n        eligibleRecipientsEligibilityIsEnabled[groupId].push(true);\n\n        emit EligibleRecipientAdded(account, groupId);\n    }\n\n    function removeEligibleRecipient(address account, uint256 groupId)\n        external\n        onlyAdmins(groupId)\n        whenNotPaused\n    {\n        eligibleRecipients[groupId][account] = false;\n        emit EligibleRecipientRemoved(account, groupId);\n    }\n\n    function changeContributor(address account, uint256 groupId)\n        external\n        onlyAdminsOrCOO(groupId)\n        whenNotPaused\n    {\n        _changeContributor(account, groupId);\n    }\n\n    function removeContributor(address account, uint256 groupId)\n        external\n        onlyAdminsOrCOO(groupId)\n        whenNotPaused\n    {\n        _removeContributor(account, groupId);\n    }\n}",
  "sourcePath": "/Users/jlynch/Git-Projects/EthDrop/contracts/roles/AdminsManager.sol",
  "compiler": {
    "name": "solc",
    "version": "0.8.6+commit.11564f7e.Emscripten.clang"
  },
  "schemaVersion": "3.4.1",
  "updatedAt": "2021-07-27T01:35:46.177Z",
  "networkType": "ethereum",
  "devdoc": {
    "kind": "dev",
    "methods": {
      "pause()": {
        "details": "Called by any \"C-level\" role to pause the contract. Used only when  a bug or exploit is detected and we need to limit damage."
      },
      "setCEO(address)": {
        "details": "Assigns a new address to act as the CEO. Only available to the current CEO.",
        "params": {
          "_newCEO": "The address of the new CEO"
        }
      },
      "setCFO(address)": {
        "details": "Assigns a new address to act as the CFO. Only available to the current CEO.",
        "params": {
          "_newCFO": "The address of the new CFO"
        }
      },
      "setCOO(address)": {
        "details": "Assigns a new address to act as the COO. Only available to the current CEO.",
        "params": {
          "_newCOO": "The address of the new COO"
        }
      },
      "unpause()": {
        "details": "Unpauses the smart contract. Can only be called by the CEO, since  one reason we may pause the contract is when CFO or COO accounts are  compromised."
      }
    },
    "version": 1
  },
  "userdoc": {
    "kind": "user",
    "methods": {
      "unpause()": {
        "notice": "This is public rather than external so it can be called by  derived contracts."
      }
    },
    "version": 1
  }
}