{
  "contractName": "AdminsManager",
  "abi": [
    {
      "inputs": [],
      "stateMutability": "nonpayable",
      "type": "constructor"
    },
    {
      "anonymous": false,
      "inputs": [
        {
          "indexed": false,
          "internalType": "uint256",
          "name": "groupId",
          "type": "uint256"
        }
      ],
      "name": "AdminAdded",
      "type": "event"
    },
    {
      "anonymous": false,
      "inputs": [
        {
          "indexed": false,
          "internalType": "uint256",
          "name": "groupId",
          "type": "uint256"
        }
      ],
      "name": "AdminRemoved",
      "type": "event"
    },
    {
      "anonymous": false,
      "inputs": [
        {
          "indexed": false,
          "internalType": "bool",
          "name": "isPaused",
          "type": "bool"
        }
      ],
      "name": "AppPaused",
      "type": "event"
    },
    {
      "anonymous": false,
      "inputs": [
        {
          "indexed": false,
          "internalType": "uint256",
          "name": "registeredRecipientCount",
          "type": "uint256"
        },
        {
          "indexed": false,
          "internalType": "uint256",
          "name": "winningsPerRecipient",
          "type": "uint256"
        }
      ],
      "name": "CalculatedPot",
      "type": "event"
    },
    {
      "anonymous": false,
      "inputs": [],
      "name": "CfoUpdated",
      "type": "event"
    },
    {
      "anonymous": false,
      "inputs": [
        {
          "indexed": false,
          "internalType": "address",
          "name": "newContract",
          "type": "address"
        }
      ],
      "name": "ContractUpgrade",
      "type": "event"
    },
    {
      "anonymous": false,
      "inputs": [
        {
          "indexed": true,
          "internalType": "address",
          "name": "account",
          "type": "address"
        },
        {
          "indexed": false,
          "internalType": "uint256",
          "name": "groupId",
          "type": "uint256"
        },
        {
          "indexed": false,
          "internalType": "uint256",
          "name": "amount",
          "type": "uint256"
        }
      ],
      "name": "ContributionMade",
      "type": "event"
    },
    {
      "anonymous": false,
      "inputs": [
        {
          "indexed": true,
          "internalType": "address",
          "name": "account",
          "type": "address"
        },
        {
          "indexed": false,
          "internalType": "uint256",
          "name": "groupId",
          "type": "uint256"
        }
      ],
      "name": "ContributorAdded",
      "type": "event"
    },
    {
      "anonymous": false,
      "inputs": [
        {
          "indexed": false,
          "internalType": "uint256",
          "name": "groupId",
          "type": "uint256"
        },
        {
          "indexed": false,
          "internalType": "address",
          "name": "newContributor",
          "type": "address"
        }
      ],
      "name": "ContributorAddressUpdated",
      "type": "event"
    },
    {
      "anonymous": false,
      "inputs": [
        {
          "indexed": false,
          "internalType": "uint256",
          "name": "groupId",
          "type": "uint256"
        },
        {
          "indexed": false,
          "internalType": "string",
          "name": "sponsorName",
          "type": "string"
        },
        {
          "indexed": false,
          "internalType": "string",
          "name": "imgUrl",
          "type": "string"
        },
        {
          "indexed": false,
          "internalType": "string",
          "name": "imgLinkToUrl",
          "type": "string"
        }
      ],
      "name": "ContributorInfoUpdated",
      "type": "event"
    },
    {
      "anonymous": false,
      "inputs": [
        {
          "indexed": true,
          "internalType": "address",
          "name": "account",
          "type": "address"
        },
        {
          "indexed": false,
          "internalType": "uint256",
          "name": "groupId",
          "type": "uint256"
        }
      ],
      "name": "ContributorRemoved",
      "type": "event"
    },
    {
      "anonymous": false,
      "inputs": [],
      "name": "CooUpdated",
      "type": "event"
    },
    {
      "anonymous": false,
      "inputs": [
        {
          "indexed": true,
          "internalType": "address",
          "name": "account",
          "type": "address"
        },
        {
          "indexed": false,
          "internalType": "uint256",
          "name": "groupId",
          "type": "uint256"
        }
      ],
      "name": "EligibleRecipientAdded",
      "type": "event"
    },
    {
      "anonymous": false,
      "inputs": [
        {
          "indexed": true,
          "internalType": "address",
          "name": "account",
          "type": "address"
        },
        {
          "indexed": false,
          "internalType": "uint256",
          "name": "groupId",
          "type": "uint256"
        }
      ],
      "name": "EligibleRecipientRemoved",
      "type": "event"
    },
    {
      "anonymous": false,
      "inputs": [],
      "name": "EventClose",
      "type": "event"
    },
    {
      "anonymous": false,
      "inputs": [
        {
          "indexed": true,
          "internalType": "address",
          "name": "endedBy",
          "type": "address"
        },
        {
          "indexed": false,
          "internalType": "uint256",
          "name": "groupId",
          "type": "uint256"
        }
      ],
      "name": "EventEnded",
      "type": "event"
    },
    {
      "anonymous": false,
      "inputs": [
        {
          "indexed": true,
          "internalType": "address",
          "name": "startedBy",
          "type": "address"
        },
        {
          "indexed": false,
          "internalType": "uint256",
          "name": "groupId",
          "type": "uint256"
        }
      ],
      "name": "EventStarted",
      "type": "event"
    },
    {
      "anonymous": false,
      "inputs": [
        {
          "indexed": false,
          "internalType": "string",
          "name": "groupName",
          "type": "string"
        },
        {
          "indexed": false,
          "internalType": "uint256",
          "name": "groupId",
          "type": "uint256"
        }
      ],
      "name": "GroupCreated",
      "type": "event"
    },
    {
      "anonymous": false,
      "inputs": [
        {
          "indexed": true,
          "internalType": "address",
          "name": "account",
          "type": "address"
        },
        {
          "indexed": false,
          "internalType": "uint256",
          "name": "groupId",
          "type": "uint256"
        }
      ],
      "name": "RecipientRegistered",
      "type": "event"
    },
    {
      "anonymous": false,
      "inputs": [
        {
          "indexed": true,
          "internalType": "address",
          "name": "endedBy",
          "type": "address"
        },
        {
          "indexed": false,
          "internalType": "uint256",
          "name": "groupId",
          "type": "uint256"
        }
      ],
      "name": "RegistrationEnded",
      "type": "event"
    },
    {
      "anonymous": false,
      "inputs": [],
      "name": "RegistrationOpen",
      "type": "event"
    },
    {
      "anonymous": false,
      "inputs": [
        {
          "indexed": false,
          "internalType": "address",
          "name": "from",
          "type": "address"
        },
        {
          "indexed": false,
          "internalType": "address",
          "name": "to",
          "type": "address"
        }
      ],
      "name": "Transfer",
      "type": "event"
    },
    {
      "anonymous": false,
      "inputs": [
        {
          "indexed": true,
          "internalType": "address",
          "name": "account",
          "type": "address"
        },
        {
          "indexed": false,
          "internalType": "uint256",
          "name": "groupId",
          "type": "uint256"
        }
      ],
      "name": "WinningsClaimed",
      "type": "event"
    },
    {
      "anonymous": false,
      "inputs": [],
      "name": "WinningsClaimingOpen",
      "type": "event"
    },
    {
      "inputs": [
        {
          "internalType": "uint256",
          "name": "groupId",
          "type": "uint256"
        }
      ],
      "name": "amIContributor",
      "outputs": [
        {
          "internalType": "bool",
          "name": "",
          "type": "bool"
        }
      ],
      "stateMutability": "view",
      "type": "function",
      "constant": true
    },
    {
      "inputs": [
        {
          "internalType": "uint256",
          "name": "groupId",
          "type": "uint256"
        }
      ],
      "name": "amIEligibleRecipient",
      "outputs": [
        {
          "internalType": "bool",
          "name": "",
          "type": "bool"
        }
      ],
      "stateMutability": "view",
      "type": "function",
      "constant": true
    },
    {
      "inputs": [
        {
          "internalType": "uint256",
          "name": "groupId",
          "type": "uint256"
        }
      ],
      "name": "amIRegisteredRecipient",
      "outputs": [
        {
          "internalType": "bool",
          "name": "",
          "type": "bool"
        }
      ],
      "stateMutability": "view",
      "type": "function",
      "constant": true
    },
    {
      "inputs": [],
      "name": "ceoAddress",
      "outputs": [
        {
          "internalType": "address",
          "name": "",
          "type": "address"
        }
      ],
      "stateMutability": "view",
      "type": "function",
      "constant": true
    },
    {
      "inputs": [],
      "name": "cfoAddress",
      "outputs": [
        {
          "internalType": "address",
          "name": "",
          "type": "address"
        }
      ],
      "stateMutability": "view",
      "type": "function",
      "constant": true
    },
    {
      "inputs": [
        {
          "internalType": "uint256",
          "name": "groupId",
          "type": "uint256"
        }
      ],
      "name": "claimWinnings",
      "outputs": [],
      "stateMutability": "nonpayable",
      "type": "function"
    },
    {
      "inputs": [
        {
          "internalType": "uint256",
          "name": "groupId",
          "type": "uint256"
        }
      ],
      "name": "contributeToPot",
      "outputs": [],
      "stateMutability": "payable",
      "type": "function",
      "payable": true
    },
    {
      "inputs": [],
      "name": "cooAddress",
      "outputs": [
        {
          "internalType": "address",
          "name": "",
          "type": "address"
        }
      ],
      "stateMutability": "view",
      "type": "function",
      "constant": true
    },
    {
      "inputs": [
        {
          "internalType": "uint256",
          "name": "groupId",
          "type": "uint256"
        }
      ],
      "name": "doIHaveClaimableWinnings",
      "outputs": [
        {
          "internalType": "bool",
          "name": "",
          "type": "bool"
        }
      ],
      "stateMutability": "view",
      "type": "function",
      "constant": true
    },
    {
      "inputs": [],
      "name": "getCFO",
      "outputs": [
        {
          "internalType": "address",
          "name": "",
          "type": "address"
        }
      ],
      "stateMutability": "view",
      "type": "function",
      "constant": true
    },
    {
      "inputs": [],
      "name": "getCOO",
      "outputs": [
        {
          "internalType": "address",
          "name": "",
          "type": "address"
        }
      ],
      "stateMutability": "view",
      "type": "function",
      "constant": true
    },
    {
      "inputs": [
        {
          "internalType": "uint256",
          "name": "groupId",
          "type": "uint256"
        }
      ],
      "name": "getContributorInfo",
      "outputs": [
        {
          "internalType": "string",
          "name": "newContributorName",
          "type": "string"
        },
        {
          "internalType": "string",
          "name": "newContributorImgUrl",
          "type": "string"
        },
        {
          "internalType": "string",
          "name": "newContributorLinkToUrl",
          "type": "string"
        }
      ],
      "stateMutability": "view",
      "type": "function",
      "constant": true
    },
    {
      "inputs": [
        {
          "internalType": "uint256",
          "name": "groupId",
          "type": "uint256"
        }
      ],
      "name": "getCurrentSponsorAddress",
      "outputs": [
        {
          "internalType": "address",
          "name": "",
          "type": "address"
        }
      ],
      "stateMutability": "view",
      "type": "function",
      "constant": true
    },
    {
      "inputs": [
        {
          "internalType": "uint256",
          "name": "groupId",
          "type": "uint256"
        }
      ],
      "name": "getEligibleRecipientAddresses",
      "outputs": [
        {
          "internalType": "address[]",
          "name": "",
          "type": "address[]"
        }
      ],
      "stateMutability": "view",
      "type": "function",
      "constant": true
    },
    {
      "inputs": [
        {
          "internalType": "uint256",
          "name": "groupId",
          "type": "uint256"
        }
      ],
      "name": "getEligibleRecipientIsEligibilityEnabled",
      "outputs": [
        {
          "internalType": "bool[]",
          "name": "",
          "type": "bool[]"
        }
      ],
      "stateMutability": "view",
      "type": "function",
      "constant": true
    },
    {
      "inputs": [
        {
          "internalType": "uint256",
          "name": "groupId",
          "type": "uint256"
        }
      ],
      "name": "getEligibleRecipientNames",
      "outputs": [
        {
          "internalType": "string[]",
          "name": "",
          "type": "string[]"
        }
      ],
      "stateMutability": "view",
      "type": "function",
      "constant": true
    },
    {
      "inputs": [
        {
          "internalType": "uint256",
          "name": "groupId",
          "type": "uint256"
        }
      ],
      "name": "getGroupEventData",
      "outputs": [
        {
          "internalType": "enum EthDropBase.EventState",
          "name": "",
          "type": "uint8"
        },
        {
          "internalType": "uint256",
          "name": "",
          "type": "uint256"
        },
        {
          "internalType": "uint256",
          "name": "",
          "type": "uint256"
        },
        {
          "internalType": "uint256",
          "name": "",
          "type": "uint256"
        },
        {
          "internalType": "uint256",
          "name": "",
          "type": "uint256"
        }
      ],
      "stateMutability": "view",
      "type": "function",
      "constant": true
    },
    {
      "inputs": [],
      "name": "getGroupIds",
      "outputs": [
        {
          "internalType": "uint256[]",
          "name": "",
          "type": "uint256[]"
        }
      ],
      "stateMutability": "view",
      "type": "function",
      "constant": true
    },
    {
      "inputs": [],
      "name": "getGroupNames",
      "outputs": [
        {
          "internalType": "string[]",
          "name": "",
          "type": "string[]"
        }
      ],
      "stateMutability": "view",
      "type": "function",
      "constant": true
    },
    {
      "inputs": [
        {
          "internalType": "uint256",
          "name": "groupId",
          "type": "uint256"
        }
      ],
      "name": "getRegisteredRecipientNames",
      "outputs": [
        {
          "internalType": "string[]",
          "name": "",
          "type": "string[]"
        }
      ],
      "stateMutability": "view",
      "type": "function",
      "constant": true
    },
    {
      "inputs": [
        {
          "internalType": "uint256",
          "name": "groupId",
          "type": "uint256"
        }
      ],
      "name": "getRegisteredRecipients",
      "outputs": [
        {
          "internalType": "address[]",
          "name": "",
          "type": "address[]"
        }
      ],
      "stateMutability": "view",
      "type": "function",
      "constant": true
    },
    {
      "inputs": [],
      "name": "getString",
      "outputs": [
        {
          "internalType": "string",
          "name": "",
          "type": "string"
        }
      ],
      "stateMutability": "view",
      "type": "function",
      "constant": true
    },
    {
      "inputs": [],
      "name": "isCEO",
      "outputs": [
        {
          "internalType": "bool",
          "name": "",
          "type": "bool"
        }
      ],
      "stateMutability": "view",
      "type": "function",
      "constant": true
    },
    {
      "inputs": [],
      "name": "isCFO",
      "outputs": [
        {
          "internalType": "bool",
          "name": "",
          "type": "bool"
        }
      ],
      "stateMutability": "view",
      "type": "function",
      "constant": true
    },
    {
      "inputs": [],
      "name": "isCOO",
      "outputs": [
        {
          "internalType": "bool",
          "name": "",
          "type": "bool"
        }
      ],
      "stateMutability": "view",
      "type": "function",
      "constant": true
    },
    {
      "inputs": [
        {
          "internalType": "address",
          "name": "account",
          "type": "address"
        },
        {
          "internalType": "uint256",
          "name": "groupId",
          "type": "uint256"
        }
      ],
      "name": "isContributor",
      "outputs": [
        {
          "internalType": "bool",
          "name": "",
          "type": "bool"
        }
      ],
      "stateMutability": "view",
      "type": "function",
      "constant": true
    },
    {
      "inputs": [
        {
          "internalType": "address",
          "name": "account",
          "type": "address"
        },
        {
          "internalType": "uint256",
          "name": "groupId",
          "type": "uint256"
        }
      ],
      "name": "isEligibleRecipient",
      "outputs": [
        {
          "internalType": "bool",
          "name": "",
          "type": "bool"
        }
      ],
      "stateMutability": "view",
      "type": "function",
      "constant": true
    },
    {
      "inputs": [],
      "name": "isPaused",
      "outputs": [
        {
          "internalType": "bool",
          "name": "",
          "type": "bool"
        }
      ],
      "stateMutability": "view",
      "type": "function",
      "constant": true
    },
    {
      "inputs": [
        {
          "internalType": "address",
          "name": "account",
          "type": "address"
        },
        {
          "internalType": "uint256",
          "name": "groupId",
          "type": "uint256"
        }
      ],
      "name": "isRegisteredRecipient",
      "outputs": [
        {
          "internalType": "bool",
          "name": "",
          "type": "bool"
        }
      ],
      "stateMutability": "view",
      "type": "function",
      "constant": true
    },
    {
      "inputs": [],
      "name": "pause",
      "outputs": [],
      "stateMutability": "nonpayable",
      "type": "function"
    },
    {
      "inputs": [],
      "name": "paused",
      "outputs": [
        {
          "internalType": "bool",
          "name": "",
          "type": "bool"
        }
      ],
      "stateMutability": "view",
      "type": "function",
      "constant": true
    },
    {
      "inputs": [
        {
          "internalType": "uint256",
          "name": "groupId",
          "type": "uint256"
        }
      ],
      "name": "registerForEvent",
      "outputs": [],
      "stateMutability": "nonpayable",
      "type": "function"
    },
    {
      "inputs": [
        {
          "internalType": "uint256",
          "name": "groupId",
          "type": "uint256"
        }
      ],
      "name": "renounceContributor",
      "outputs": [],
      "stateMutability": "nonpayable",
      "type": "function"
    },
    {
      "inputs": [
        {
          "internalType": "address",
          "name": "_newCEO",
          "type": "address"
        }
      ],
      "name": "setCEO",
      "outputs": [],
      "stateMutability": "nonpayable",
      "type": "function"
    },
    {
      "inputs": [
        {
          "internalType": "address",
          "name": "_newCFO",
          "type": "address"
        }
      ],
      "name": "setCFO",
      "outputs": [],
      "stateMutability": "nonpayable",
      "type": "function"
    },
    {
      "inputs": [
        {
          "internalType": "address",
          "name": "_newCOO",
          "type": "address"
        }
      ],
      "name": "setCOO",
      "outputs": [],
      "stateMutability": "nonpayable",
      "type": "function"
    },
    {
      "inputs": [
        {
          "internalType": "string",
          "name": "_s",
          "type": "string"
        }
      ],
      "name": "setString",
      "outputs": [],
      "stateMutability": "nonpayable",
      "type": "function"
    },
    {
      "inputs": [],
      "name": "stringgg",
      "outputs": [
        {
          "internalType": "string",
          "name": "",
          "type": "string"
        }
      ],
      "stateMutability": "view",
      "type": "function",
      "constant": true
    },
    {
      "inputs": [],
      "name": "unpause",
      "outputs": [
        {
          "internalType": "bool",
          "name": "",
          "type": "bool"
        }
      ],
      "stateMutability": "nonpayable",
      "type": "function"
    },
    {
      "inputs": [
        {
          "internalType": "uint256",
          "name": "groupId",
          "type": "uint256"
        },
        {
          "internalType": "string",
          "name": "newContributorName",
          "type": "string"
        },
        {
          "internalType": "string",
          "name": "newContributorImgUrl",
          "type": "string"
        },
        {
          "internalType": "string",
          "name": "newContributorLinkToUrl",
          "type": "string"
        }
      ],
      "name": "updateContributorInfo",
      "outputs": [],
      "stateMutability": "nonpayable",
      "type": "function"
    },
    {
      "inputs": [],
      "name": "whoami",
      "outputs": [
        {
          "internalType": "address",
          "name": "",
          "type": "address"
        }
      ],
      "stateMutability": "view",
      "type": "function",
      "constant": true
    },
    {
      "inputs": [
        {
          "internalType": "address",
          "name": "account",
          "type": "address"
        },
        {
          "internalType": "uint256",
          "name": "groupId",
          "type": "uint256"
        }
      ],
      "name": "isAdmin",
      "outputs": [
        {
          "internalType": "bool",
          "name": "",
          "type": "bool"
        }
      ],
      "stateMutability": "view",
      "type": "function",
      "constant": true
    },
    {
      "inputs": [
        {
          "internalType": "uint256",
          "name": "groupId",
          "type": "uint256"
        }
      ],
      "name": "amIAdmin",
      "outputs": [
        {
          "internalType": "bool",
          "name": "",
          "type": "bool"
        }
      ],
      "stateMutability": "view",
      "type": "function",
      "constant": true
    },
    {
      "inputs": [
        {
          "internalType": "uint256",
          "name": "groupId",
          "type": "uint256"
        }
      ],
      "name": "getAdminsForGroup",
      "outputs": [
        {
          "internalType": "address[]",
          "name": "",
          "type": "address[]"
        },
        {
          "internalType": "bool[]",
          "name": "",
          "type": "bool[]"
        }
      ],
      "stateMutability": "view",
      "type": "function",
      "constant": true
    },
    {
      "inputs": [
        {
          "internalType": "address",
          "name": "account",
          "type": "address"
        },
        {
          "internalType": "uint256",
          "name": "groupId",
          "type": "uint256"
        }
      ],
      "name": "addAdmin",
      "outputs": [],
      "stateMutability": "nonpayable",
      "type": "function"
    },
    {
      "inputs": [
        {
          "internalType": "address",
          "name": "account",
          "type": "address"
        },
        {
          "internalType": "uint256",
          "name": "groupId",
          "type": "uint256"
        }
      ],
      "name": "removeAdmin",
      "outputs": [],
      "stateMutability": "nonpayable",
      "type": "function"
    },
    {
      "inputs": [
        {
          "internalType": "uint256",
          "name": "groupId",
          "type": "uint256"
        }
      ],
      "name": "renounceAdmin",
      "outputs": [],
      "stateMutability": "nonpayable",
      "type": "function"
    },
    {
      "inputs": [
        {
          "internalType": "uint256",
          "name": "groupId",
          "type": "uint256"
        }
      ],
      "name": "readEventInfo",
      "outputs": [
        {
          "components": [
            {
              "internalType": "uint256",
              "name": "groupId",
              "type": "uint256"
            },
            {
              "internalType": "string",
              "name": "groupName",
              "type": "string"
            },
            {
              "internalType": "enum EthDropBase.EventState",
              "name": "currentState",
              "type": "uint8"
            },
            {
              "internalType": "uint256",
              "name": "startTime",
              "type": "uint256"
            },
            {
              "internalType": "uint256",
              "name": "registrationEndTime",
              "type": "uint256"
            },
            {
              "internalType": "uint256",
              "name": "endTime",
              "type": "uint256"
            },
            {
              "internalType": "uint256",
              "name": "registeredRecipientsCount",
              "type": "uint256"
            },
            {
              "internalType": "string",
              "name": "sponsorName",
              "type": "string"
            },
            {
              "internalType": "string",
              "name": "sponsorImageUrl",
              "type": "string"
            },
            {
              "internalType": "string",
              "name": "sponsorLinkToUrl",
              "type": "string"
            },
            {
              "internalType": "address",
              "name": "currentContributor",
              "type": "address"
            },
            {
              "internalType": "uint256",
              "name": "totalAmountContributed",
              "type": "uint256"
            },
            {
              "internalType": "uint256",
              "name": "weiWinnings",
              "type": "uint256"
            },
            {
              "internalType": "uint256",
              "name": "numberOfUsersWhoClaimedWinnings",
              "type": "uint256"
            }
          ],
          "internalType": "struct EthDropBase.EthDropEvent",
          "name": "",
          "type": "tuple"
        }
      ],
      "stateMutability": "view",
      "type": "function",
      "constant": true
    },
    {
      "inputs": [
        {
          "internalType": "string",
          "name": "groupName",
          "type": "string"
        }
      ],
      "name": "createNewGroup",
      "outputs": [],
      "stateMutability": "nonpayable",
      "type": "function"
    },
    {
      "inputs": [
        {
          "internalType": "uint256",
          "name": "groupId",
          "type": "uint256"
        }
      ],
      "name": "startEvent",
      "outputs": [],
      "stateMutability": "nonpayable",
      "type": "function"
    },
    {
      "inputs": [
        {
          "internalType": "uint256",
          "name": "groupId",
          "type": "uint256"
        }
      ],
      "name": "closeEventRegistration",
      "outputs": [],
      "stateMutability": "nonpayable",
      "type": "function"
    },
    {
      "inputs": [
        {
          "internalType": "uint256",
          "name": "groupId",
          "type": "uint256"
        }
      ],
      "name": "endEvent",
      "outputs": [],
      "stateMutability": "nonpayable",
      "type": "function"
    },
    {
      "inputs": [
        {
          "internalType": "address",
          "name": "account",
          "type": "address"
        },
        {
          "internalType": "string",
          "name": "name",
          "type": "string"
        },
        {
          "internalType": "uint256",
          "name": "groupId",
          "type": "uint256"
        }
      ],
      "name": "addEligibleRecipient",
      "outputs": [],
      "stateMutability": "nonpayable",
      "type": "function"
    },
    {
      "inputs": [
        {
          "internalType": "address",
          "name": "account",
          "type": "address"
        },
        {
          "internalType": "uint256",
          "name": "groupId",
          "type": "uint256"
        }
      ],
      "name": "removeEligibleRecipient",
      "outputs": [],
      "stateMutability": "nonpayable",
      "type": "function"
    },
    {
      "inputs": [
        {
          "internalType": "address",
          "name": "account",
          "type": "address"
        },
        {
          "internalType": "uint256",
          "name": "groupId",
          "type": "uint256"
        }
      ],
      "name": "changeContributor",
      "outputs": [],
      "stateMutability": "nonpayable",
      "type": "function"
    },
    {
      "inputs": [
        {
          "internalType": "address",
          "name": "account",
          "type": "address"
        },
        {
          "internalType": "uint256",
          "name": "groupId",
          "type": "uint256"
        }
      ],
      "name": "removeContributor",
      "outputs": [],
      "stateMutability": "nonpayable",
      "type": "function"
    }
  ],
  "bytecode": "0x60806040526000600360146101000a81548160ff02191690831515021790555060056004556000600b5534801561003557600080fd5b5061583980620000466000396000f3fe60806040526004361061036b5760003560e01c80637fcb29c9116101c6578063c271e80c116100f7578063e62092be11610095578063ee41b5921161006f578063ee41b59214610d1c578063f4a02e7014610d59578063f89e9cb914610d84578063fc5fd6e414610dc15761036b565b8063e62092be14610c9a578063e82f24e014610cd7578063ea303f0814610cf35761036b565b8063d5f016c3116100d1578063d5f016c314610bde578063e320d5e714610c09578063e33db42614610c32578063e513b7a914610c6f5761036b565b8063c271e80c14610b61578063c6db509414610b8a578063c6e0ddfa14610bb55761036b565b80639bda879611610164578063b047fb501161013e578063b047fb5014610ab5578063b187bd2614610ae0578063b3b36bb314610b0b578063c02b8b2c14610b365761036b565b80639bda879614610a26578063a59a695314610a63578063aea88a0514610a8c5761036b565b806389ea642f116101a057806389ea642f1461096a5780639393ae3714610995578063962ecff5146109c0578063967cafbc146109fd5761036b565b80637fcb29c9146108ed5780638182aaf2146109165780638456cb59146109535761036b565b8063454432e2116102a0578063674811ca1161023e578063785142be11610218578063785142be146108335780637b936ac21461085c5780637d837ce5146108875780637fcaf666146108c45761036b565b8063674811ca1461078d578063677bd9ff146107cc5780636ebdec49146107f55761036b565b80634f1ef03c1161027a5780634f1ef03c146106bf57806355b57ec1146106e85780635c975abb146107255780635e82c1fc146107505761036b565b8063454432e2146106185780634635509b146106555780634e0a3379146106965761036b565b80632ba73c151161030d57806338f0b656116102e757806338f0b6561461054a5780633f4ba83a14610587578063406db843146105b257806344b2983b146105db5761036b565b80632ba73c15146104cf57806330bb0115146104f8578063330a347b146105215761036b565b80630a0f8168116103495780630a0f8168146104155780630d82ffa01461044057806315891ff41461047d57806327d7874c146104a65761036b565b80630519ce791461037057806306cc49221461039b57806307bfa330146103d8575b600080fd5b34801561037c57600080fd5b50610385610dec565b6040516103929190614fb5565b60405180910390f35b3480156103a757600080fd5b506103c260048036038101906103bd9190614a26565b610e12565b6040516103cf919061508f565b60405180910390f35b3480156103e457600080fd5b506103ff60048036038101906103fa9190614a26565b610e3f565b60405161040c919061504b565b60405180910390f35b34801561042157600080fd5b5061042a610f2b565b6040516104379190614fb5565b60405180910390f35b34801561044c57600080fd5b5061046760048036038101906104629190614a26565b610f51565b6040516104749190614fb5565b60405180910390f35b34801561048957600080fd5b506104a4600480360381019061049f919061499d565b610f91565b005b3480156104b257600080fd5b506104cd60048036038101906104c89190614901565b61107b565b005b3480156104db57600080fd5b506104f660048036038101906104f19190614901565b611153565b005b34801561050457600080fd5b5061051f600480360381019061051a9190614a26565b611257565b005b34801561052d57600080fd5b5061054860048036038101906105439190614a26565b611279565b005b34801561055657600080fd5b50610571600480360381019061056c9190614a26565b611863565b60405161057e919061508f565b60405180910390f35b34801561059357600080fd5b5061059c611890565b6040516105a9919061508f565b60405180910390f35b3480156105be57600080fd5b506105d960048036038101906105d49190614a26565b611935565b005b3480156105e757600080fd5b5061060260048036038101906105fd9190614a26565b611be9565b60405161060f9190614fd0565b60405180910390f35b34801561062457600080fd5b5061063f600480360381019061063a9190614a26565b611c8a565b60405161064c919061504b565b60405180910390f35b34801561066157600080fd5b5061067c60048036038101906106779190614a26565b611d76565b60405161068d9594939291906150aa565b60405180910390f35b3480156106a257600080fd5b506106bd60048036038101906106b89190614901565b6120f9565b005b3480156106cb57600080fd5b506106e660048036038101906106e19190614a26565b6121c3565b005b3480156106f457600080fd5b5061070f600480360381019061070a9190614a26565b6121ff565b60405161071c9190615029565b60405180910390f35b34801561073157600080fd5b5061073a61228f565b604051610747919061508f565b60405180910390f35b34801561075c57600080fd5b506107776004803603810190610772919061499d565b6122a2565b604051610784919061508f565b60405180910390f35b34801561079957600080fd5b506107b460048036038101906107af9190614a26565b61232b565b6040516107c39392919061511f565b60405180910390f35b3480156107d857600080fd5b506107f360048036038101906107ee9190614a26565b612523565b005b34801561080157600080fd5b5061081c60048036038101906108179190614a26565b612708565b60405161082a929190614ff2565b60405180910390f35b34801561083f57600080fd5b5061085a60048036038101906108559190614a26565b612839565b005b34801561086857600080fd5b50610871612a14565b60405161087e9190614fb5565b60405180910390f35b34801561089357600080fd5b506108ae60048036038101906108a9919061499d565b612a3e565b6040516108bb919061508f565b60405180910390f35b3480156108d057600080fd5b506108eb60048036038101906108e691906149dd565b612ac7565b005b3480156108f957600080fd5b50610914600480360381019061090f919061499d565b612ae1565b005b34801561092257600080fd5b5061093d6004803603810190610938919061499d565b612b80565b60405161094a919061508f565b60405180910390f35b34801561095f57600080fd5b50610968612c09565b005b34801561097657600080fd5b5061097f612d4a565b60405161098c91906150fd565b60405180910390f35b3480156109a157600080fd5b506109aa612ddc565b6040516109b7919061508f565b60405180910390f35b3480156109cc57600080fd5b506109e760048036038101906109e29190614a26565b612e34565b6040516109f4919061508f565b60405180910390f35b348015610a0957600080fd5b50610a246004803603810190610a1f919061492e565b612ea2565b005b348015610a3257600080fd5b50610a4d6004803603810190610a489190614a26565b613109565b604051610a5a9190614fd0565b60405180910390f35b348015610a6f57600080fd5b50610a8a6004803603810190610a859190614a26565b6131aa565b005b348015610a9857600080fd5b50610ab36004803603810190610aae9190614a53565b613284565b005b348015610ac157600080fd5b50610aca6133bd565b604051610ad79190614fb5565b60405180910390f35b348015610aec57600080fd5b50610af56133e3565b604051610b02919061508f565b60405180910390f35b348015610b1757600080fd5b50610b206133fa565b604051610b2d9190614fb5565b60405180910390f35b348015610b4257600080fd5b50610b4b613402565b604051610b58919061506d565b60405180910390f35b348015610b6d57600080fd5b50610b886004803603810190610b83919061499d565b61345a565b005b348015610b9657600080fd5b50610b9f6134ef565b604051610bac91906150fd565b60405180910390f35b348015610bc157600080fd5b50610bdc6004803603810190610bd7919061499d565b61357d565b005b348015610bea57600080fd5b50610bf36135e5565b604051610c00919061504b565b60405180910390f35b348015610c1557600080fd5b50610c306004803603810190610c2b919061499d565b6136be565b005b348015610c3e57600080fd5b50610c596004803603810190610c549190614a26565b613753565b604051610c66919061519b565b60405180910390f35b348015610c7b57600080fd5b50610c84613abf565b604051610c91919061508f565b60405180910390f35b348015610ca657600080fd5b50610cc16004803603810190610cbc919061499d565b613b17565b604051610cce919061508f565b60405180910390f35b610cf16004803603810190610cec9190614a26565b613b86565b005b348015610cff57600080fd5b50610d1a6004803603810190610d1591906149dd565b613c4b565b005b348015610d2857600080fd5b50610d436004803603810190610d3e9190614a26565b613f7c565b604051610d50919061508f565b60405180910390f35b348015610d6557600080fd5b50610d6e613fa9565b604051610d7b919061508f565b60405180910390f35b348015610d9057600080fd5b50610dab6004803603810190610da69190614a26565b614001565b604051610db8919061508f565b60405180910390f35b348015610dcd57600080fd5b50610dd6614088565b604051610de39190614fb5565b60405180910390f35b600260009054906101000a900473ffffffffffffffffffffffffffffffffffffffff1681565b6000600360149054906101000a900460ff1615610e2e57600080fd5b610e3833836122a2565b9050919050565b606060166000838152602001908152602001600020805480602002602001604051908101604052809291908181526020016000905b82821015610f20578382906000526020600020018054610e93906155d6565b80601f0160208091040260200160405190810160405280929190818152602001828054610ebf906155d6565b8015610f0c5780601f10610ee157610100808354040283529160200191610f0c565b820191906000526020600020905b815481529060010190602001808311610eef57829003601f168201915b505050505081526020019060010190610e74565b505050509050919050565b600160009054906101000a900473ffffffffffffffffffffffffffffffffffffffff1681565b600060076000838152602001908152602001600020600a0160009054906101000a900473ffffffffffffffffffffffffffffffffffffffff169050919050565b80610f9c3382613b17565b610fa557600080fd5b600360149054906101000a900460ff1615610fbf57600080fd5b60006011600084815260200190815260200160002060008573ffffffffffffffffffffffffffffffffffffffff1673ffffffffffffffffffffffffffffffffffffffff16815260200190815260200160002060006101000a81548160ff0219169083151502179055508273ffffffffffffffffffffffffffffffffffffffff167f1af6d16168d33745872119540d28858eed156c5f265206bbf1344fda39a93a338360405161106e91906151bd565b60405180910390a2505050565b600160009054906101000a900473ffffffffffffffffffffffffffffffffffffffff1673ffffffffffffffffffffffffffffffffffffffff163373ffffffffffffffffffffffffffffffffffffffff16146110d557600080fd5b600073ffffffffffffffffffffffffffffffffffffffff168173ffffffffffffffffffffffffffffffffffffffff16141561110f57600080fd5b80600160006101000a81548173ffffffffffffffffffffffffffffffffffffffff021916908373ffffffffffffffffffffffffffffffffffffffff16021790555050565b600160009054906101000a900473ffffffffffffffffffffffffffffffffffffffff1673ffffffffffffffffffffffffffffffffffffffff163373ffffffffffffffffffffffffffffffffffffffff16146111ad57600080fd5b600073ffffffffffffffffffffffffffffffffffffffff168173ffffffffffffffffffffffffffffffffffffffff1614156111e757600080fd5b80600360006101000a81548173ffffffffffffffffffffffffffffffffffffffff021916908373ffffffffffffffffffffffffffffffffffffffff1602179055507fa308298a77084def994b565be25bff2e8fbfe7006c2c6b2bacfb84d1ba1f635060405160405180910390a150565b806112623382613b17565b61126b57600080fd5b61127533836140b2565b5050565b806112843382613b17565b806112dc5750600360009054906101000a900473ffffffffffffffffffffffffffffffffffffffff1673ffffffffffffffffffffffffffffffffffffffff163373ffffffffffffffffffffffffffffffffffffffff16145b6112e557600080fd5b600360149054906101000a900460ff16156112ff57600080fd5b42600760008481526020019081526020016000206005018190555060036007600084815260200190815260200160002060020160006101000a81548160ff02191690836003811115611354576113536156e0565b5b021790555060005b60076000848152602001908152602001600020600601548110156114fe5760006018600085815260200190815260200160002082815481106113a1576113a061573e565b5b9060005260206000200160009054906101000a900473ffffffffffffffffffffffffffffffffffffffff1690506017600085815260200190815260200160002060008273ffffffffffffffffffffffffffffffffffffffff1673ffffffffffffffffffffffffffffffffffffffff16815260200190815260200160002060006101000a81549060ff02191690556015600085815260200190815260200160002060008273ffffffffffffffffffffffffffffffffffffffff1673ffffffffffffffffffffffffffffffffffffffff168152602001908152602001600020600061148a91906145fa565b600c600085815260200190815260200160002060008273ffffffffffffffffffffffffffffffffffffffff1673ffffffffffffffffffffffffffffffffffffffff16815260200190815260200160002060006101000a81549060ff02191690555080806114f690615639565b91505061135c565b5060166000838152602001908152602001600020600061151e919061463a565b60186000838152602001908152602001600020600061153d919061465b565b600860008381526020019081526020016000206007600084815260200190815260200160002090806001815401808255809150506001900390600052602060002090600e02016000909190919091506000820154816000015560018201816001019080546115aa906155d6565b6115b592919061467c565b506002820160009054906101000a900460ff168160020160006101000a81548160ff021916908360038111156115ee576115ed6156e0565b5b021790555060038201548160030155600482015481600401556005820154816005015560068201548160060155600782018160070190805461162f906155d6565b61163a92919061467c565b50600882018160080190805461164f906155d6565b61165a92919061467c565b50600982018160090190805461166f906155d6565b61167a92919061467c565b50600a820160009054906101000a900473ffffffffffffffffffffffffffffffffffffffff1681600a0160006101000a81548173ffffffffffffffffffffffffffffffffffffffff021916908373ffffffffffffffffffffffffffffffffffffffff160217905550600b82015481600b0155600c82015481600c0155600d82015481600d0155505060006007600084815260200190815260200160002060060181905550600060076000848152602001908152602001600020600b0181905550600060076000848152602001908152602001600020600c0181905550600060076000848152602001908152602001600020600d01819055503373ffffffffffffffffffffffffffffffffffffffff167f5dc1fe5ab986a852c4eda8e8bb94247d13307065c593fb83f1a09be2736793828360006040516117bb9291906151d8565b60405180910390a23373ffffffffffffffffffffffffffffffffffffffff167f0695e999be8100bdb5bee8612337296508d527eae78c65b8f170eacb5a3b439d8360405161180991906151bd565b60405180910390a23373ffffffffffffffffffffffffffffffffffffffff167f6f45a19e8850c727d0de9f32e0d8691324a9a74ffb4347652e6404138b1d81658360405161185791906151bd565b60405180910390a25050565b6000600360149054906101000a900460ff161561187f57600080fd5b6118893383612a3e565b9050919050565b6000600160009054906101000a900473ffffffffffffffffffffffffffffffffffffffff1673ffffffffffffffffffffffffffffffffffffffff163373ffffffffffffffffffffffffffffffffffffffff16146118ec57600080fd5b600360149054906101000a900460ff1661190557600080fd5b6000600360146101000a81548160ff021916908315150217905550600360149054906101000a900460ff16905090565b8061194033826122a2565b61194957600080fd5b600360149054906101000a900460ff161561196357600080fd5b60016017600084815260200190815260200160002060003373ffffffffffffffffffffffffffffffffffffffff1673ffffffffffffffffffffffffffffffffffffffff16815260200190815260200160002060006101000a81548160ff02191690831515021790555060186000838152602001908152602001600020339080600181540180825580915050600190039060005260206000200160009091909190916101000a81548173ffffffffffffffffffffffffffffffffffffffff021916908373ffffffffffffffffffffffffffffffffffffffff16021790555060006015600084815260200190815260200160002060003373ffffffffffffffffffffffffffffffffffffffff1673ffffffffffffffffffffffffffffffffffffffff1681526020019081526020016000208054611a9d906155d6565b80601f0160208091040260200160405190810160405280929190818152602001828054611ac9906155d6565b8015611b165780601f10611aeb57610100808354040283529160200191611b16565b820191906000526020600020905b815481529060010190602001808311611af957829003601f168201915b505050505090506016600084815260200190815260200160002081908060018154018082558091505060019003906000526020600020016000909190919091509080519060200190611b69929190614709565b50600760008481526020019081526020016000206006016000815480929190611b9190615639565b91905055503373ffffffffffffffffffffffffffffffffffffffff167f0695e999be8100bdb5bee8612337296508d527eae78c65b8f170eacb5a3b439d84604051611bdc91906151bd565b60405180910390a2505050565b606060186000838152602001908152602001600020805480602002602001604051908101604052809291908181526020018280548015611c7e57602002820191906000526020600020905b8160009054906101000a900473ffffffffffffffffffffffffffffffffffffffff1673ffffffffffffffffffffffffffffffffffffffff1681526020019060010190808311611c34575b50505050509050919050565b606060136000838152602001908152602001600020805480602002602001604051908101604052809291908181526020016000905b82821015611d6b578382906000526020600020018054611cde906155d6565b80601f0160208091040260200160405190810160405280929190818152602001828054611d0a906155d6565b8015611d575780601f10611d2c57610100808354040283529160200191611d57565b820191906000526020600020905b815481529060010190602001808311611d3a57829003601f168201915b505050505081526020019060010190611cbf565b505050509050919050565b60008060008060008060076000888152602001908152602001600020604051806101c001604052908160008201548152602001600182018054611db8906155d6565b80601f0160208091040260200160405190810160405280929190818152602001828054611de4906155d6565b8015611e315780601f10611e0657610100808354040283529160200191611e31565b820191906000526020600020905b815481529060010190602001808311611e1457829003601f168201915b505050505081526020016002820160009054906101000a900460ff166003811115611e5f57611e5e6156e0565b5b6003811115611e7157611e706156e0565b5b815260200160038201548152602001600482015481526020016005820154815260200160068201548152602001600782018054611ead906155d6565b80601f0160208091040260200160405190810160405280929190818152602001828054611ed9906155d6565b8015611f265780601f10611efb57610100808354040283529160200191611f26565b820191906000526020600020905b815481529060010190602001808311611f0957829003601f168201915b50505050508152602001600882018054611f3f906155d6565b80601f0160208091040260200160405190810160405280929190818152602001828054611f6b906155d6565b8015611fb85780601f10611f8d57610100808354040283529160200191611fb8565b820191906000526020600020905b815481529060010190602001808311611f9b57829003601f168201915b50505050508152602001600982018054611fd1906155d6565b80601f0160208091040260200160405190810160405280929190818152602001828054611ffd906155d6565b801561204a5780601f1061201f5761010080835404028352916020019161204a565b820191906000526020600020905b81548152906001019060200180831161202d57829003601f168201915b50505050508152602001600a820160009054906101000a900473ffffffffffffffffffffffffffffffffffffffff1673ffffffffffffffffffffffffffffffffffffffff1673ffffffffffffffffffffffffffffffffffffffff168152602001600b8201548152602001600c8201548152602001600d82015481525050905080604001518160c00151826101600151836101800151846101a00151955095509550955095505091939590929450565b600160009054906101000a900473ffffffffffffffffffffffffffffffffffffffff1673ffffffffffffffffffffffffffffffffffffffff163373ffffffffffffffffffffffffffffffffffffffff161461215357600080fd5b80600260006101000a81548173ffffffffffffffffffffffffffffffffffffffff021916908373ffffffffffffffffffffffffffffffffffffffff1602179055507f162e32528b5907ecf876b3b7a4e5e0edf878642e3ec25852e3c35af1a4e1c04060405160405180910390a150565b806121ce3382612b80565b6121d757600080fd5b600360149054906101000a900460ff16156121f157600080fd5b6121fb33836141fc565b5050565b60606014600083815260200190815260200160002080548060200260200160405190810160405280929190818152602001828054801561228357602002820191906000526020600020906000905b82829054906101000a900460ff1615158152602001906001019060208260000104928301926001038202915080841161224d5790505b50505050509050919050565b600360149054906101000a900460ff1681565b6000600360149054906101000a900460ff16156122be57600080fd5b600115156011600084815260200190815260200160002060008573ffffffffffffffffffffffffffffffffffffffff1673ffffffffffffffffffffffffffffffffffffffff16815260200190815260200160002060009054906101000a900460ff16151514905092915050565b606080606060076000858152602001908152602001600020600701600760008681526020019081526020016000206008016007600087815260200190815260200160002060090182805461237e906155d6565b80601f01602080910402602001604051908101604052809291908181526020018280546123aa906155d6565b80156123f75780601f106123cc576101008083540402835291602001916123f7565b820191906000526020600020905b8154815290600101906020018083116123da57829003601f168201915b5050505050925081805461240a906155d6565b80601f0160208091040260200160405190810160405280929190818152602001828054612436906155d6565b80156124835780601f1061245857610100808354040283529160200191612483565b820191906000526020600020905b81548152906001019060200180831161246657829003601f168201915b50505050509150808054612496906155d6565b80601f01602080910402602001604051908101604052809291908181526020018280546124c2906155d6565b801561250f5780601f106124e45761010080835404028352916020019161250f565b820191906000526020600020905b8154815290600101906020018083116124f257829003601f168201915b505050505090509250925092509193909250565b8061252e3382612a3e565b61253757600080fd5b813360011515600c600084815260200190815260200160002060003373ffffffffffffffffffffffffffffffffffffffff1673ffffffffffffffffffffffffffffffffffffffff16815260200190815260200160002060009054906101000a900460ff16151514156125a857600080fd5b600360149054906101000a900460ff16156125c257600080fd5b6001600c600086815260200190815260200160002060003373ffffffffffffffffffffffffffffffffffffffff1673ffffffffffffffffffffffffffffffffffffffff16815260200190815260200160002060006101000a81548160ff02191690831515021790555060076000858152602001908152602001600020600d01600081548092919061265290615639565b91905055503373ffffffffffffffffffffffffffffffffffffffff166108fc60076000878152602001908152602001600020600c01549081150290604051600060405180830381858888f193505050501580156126b3573d6000803e3d6000fd5b503373ffffffffffffffffffffffffffffffffffffffff167f1a31e733a172afcf46074b3106c17f0c298e226442682a03c1e99ce256139ec2856040516126fa91906151bd565b60405180910390a250505050565b606080600d6000848152602001908152602001600020600f6000858152602001908152602001600020818054806020026020016040519081016040528092919081815260200182805480156127b257602002820191906000526020600020905b8160009054906101000a900473ffffffffffffffffffffffffffffffffffffffff1673ffffffffffffffffffffffffffffffffffffffff1681526020019060010190808311612768575b505050505091508080548060200260200160405190810160405280929190818152602001828054801561282957602002820191906000526020600020906000905b82829054906101000a900460ff161515815260200190600101906020826000010492830192600103820291508084116127f35790505b5050505050905091509150915091565b806128443382613b17565b61284d57600080fd5b600360149054906101000a900460ff161561286757600080fd5b4260076000848152602001908152602001600020600401819055506000606460045460076000868152602001908152602001600020600b01546128aa9190615487565b6128b49190615456565b9050600260009054906101000a900473ffffffffffffffffffffffffffffffffffffffff1673ffffffffffffffffffffffffffffffffffffffff166108fc829081150290604051600060405180830381858888f1935050505015801561291e573d6000803e3d6000fd5b5060008160076000868152602001908152602001600020600b015461294391906154e1565b90506007600085815260200190815260200160002060060154816129679190615456565b60076000868152602001908152602001600020600c018190555060026007600086815260200190815260200160002060020160006101000a81548160ff021916908360038111156129bb576129ba6156e0565b5b02179055503373ffffffffffffffffffffffffffffffffffffffff167fef898a6941c945450e9bbdad4a76fcd0f51f42f7e251fddcb1e5479ba786d5e485604051612a0691906151bd565b60405180910390a250505050565b6000600260009054906101000a900473ffffffffffffffffffffffffffffffffffffffff16905090565b6000600360149054906101000a900460ff1615612a5a57600080fd5b600115156017600084815260200190815260200160002060008573ffffffffffffffffffffffffffffffffffffffff1673ffffffffffffffffffffffffffffffffffffffff16815260200190815260200160002060009054906101000a900460ff16151514905092915050565b8060009080519060200190612add929190614709565b5050565b600360009054906101000a900473ffffffffffffffffffffffffffffffffffffffff1673ffffffffffffffffffffffffffffffffffffffff163373ffffffffffffffffffffffffffffffffffffffff1614612b3b57600080fd5b612b45828261430d565b7f6d08be0da99b3a8dabb8a9d0bd4ebece8d00f747b0d0e6c29f97508f1a40a29181604051612b7491906151bd565b60405180910390a15050565b6000600360149054906101000a900460ff1615612b9c57600080fd5b60076000838152602001908152602001600020600a0160009054906101000a900473ffffffffffffffffffffffffffffffffffffffff1673ffffffffffffffffffffffffffffffffffffffff168373ffffffffffffffffffffffffffffffffffffffff1614905092915050565b600360009054906101000a900473ffffffffffffffffffffffffffffffffffffffff1673ffffffffffffffffffffffffffffffffffffffff163373ffffffffffffffffffffffffffffffffffffffff161480612cb25750600160009054906101000a900473ffffffffffffffffffffffffffffffffffffffff1673ffffffffffffffffffffffffffffffffffffffff163373ffffffffffffffffffffffffffffffffffffffff16145b80612d0a5750600260009054906101000a900473ffffffffffffffffffffffffffffffffffffffff1673ffffffffffffffffffffffffffffffffffffffff163373ffffffffffffffffffffffffffffffffffffffff16145b612d1357600080fd5b600360149054906101000a900460ff1615612d2d57600080fd5b6001600360146101000a81548160ff021916908315150217905550565b606060008054612d59906155d6565b80601f0160208091040260200160405190810160405280929190818152602001828054612d85906155d6565b8015612dd25780601f10612da757610100808354040283529160200191612dd2565b820191906000526020600020905b815481529060010190602001808311612db557829003601f168201915b5050505050905090565b6000600260009054906101000a900473ffffffffffffffffffffffffffffffffffffffff1673ffffffffffffffffffffffffffffffffffffffff163373ffffffffffffffffffffffffffffffffffffffff1614905090565b6000600115156009600084815260200190815260200160002060003373ffffffffffffffffffffffffffffffffffffffff1673ffffffffffffffffffffffffffffffffffffffff16815260200190815260200160002060009054906101000a900460ff161515149050919050565b600360149054906101000a900460ff1615612ebc57600080fd5b80612ec73382613b17565b612ed057600080fd5b60016011600084815260200190815260200160002060008673ffffffffffffffffffffffffffffffffffffffff1673ffffffffffffffffffffffffffffffffffffffff16815260200190815260200160002060006101000a81548160ff02191690831515021790555060126000838152602001908152602001600020849080600181540180825580915050600190039060005260206000200160009091909190916101000a81548173ffffffffffffffffffffffffffffffffffffffff021916908373ffffffffffffffffffffffffffffffffffffffff1602179055506013600083815260200190815260200160002083908060018154018082558091505060019003906000526020600020016000909190919091509080519060200190612ff9929190614709565b50826015600084815260200190815260200160002060008673ffffffffffffffffffffffffffffffffffffffff1673ffffffffffffffffffffffffffffffffffffffff168152602001908152602001600020908051906020019061305e929190614709565b5060146000838152602001908152602001600020600190806001815401808255809150506001900390600052602060002090602091828204019190069091909190916101000a81548160ff0219169083151502179055508373ffffffffffffffffffffffffffffffffffffffff167f46b8357d30dedd734a71d059a385f46b6e667bff20233f907477760207f88965836040516130fb91906151bd565b60405180910390a250505050565b60606012600083815260200190815260200160002080548060200260200160405190810160405280929190818152602001828054801561319e57602002820191906000526020600020905b8160009054906101000a900473ffffffffffffffffffffffffffffffffffffffff1673ffffffffffffffffffffffffffffffffffffffff1681526020019060010190808311613154575b50505050509050919050565b806131b53382613b17565b6131be57600080fd5b600360149054906101000a900460ff16156131d857600080fd5b60016007600084815260200190815260200160002060020160006101000a81548160ff02191690836003811115613212576132116156e0565b5b02179055504260076000848152602001908152602001600020600301819055503373ffffffffffffffffffffffffffffffffffffffff167ff77c6f27499b698205f54058c2914a340e1300c2bc0d9a819e7aebfbaabbbb938360405161327891906151bd565b60405180910390a25050565b8361328f3382612b80565b61329857600080fd5b6000845111156132ce57836007600087815260200190815260200160002060070190805190602001906132cc929190614709565b505b6000835111156133045782600760008781526020019081526020016000206008019080519060200190613302929190614709565b505b60008251111561333a5781600760008781526020019081526020016000206009019080519060200190613338929190614709565b505b7fcd9ad49d834aeea746bafd2d26eebd3d01ebac2d8f5d3f53d7f3884292e5835f856007600088815260200190815260200160002060070160076000898152602001908152602001600020600801600760008a81526020019081526020016000206009016040516133ae9493929190615201565b60405180910390a15050505050565b600360009054906101000a900473ffffffffffffffffffffffffffffffffffffffff1681565b6000600360149054906101000a900460ff16905090565b600033905090565b6060600580548060200260200160405190810160405280929190818152602001828054801561345057602002820191906000526020600020905b81548152602001906001019080831161343c575b5050505050905090565b806134653382613b17565b806134bd5750600360009054906101000a900473ffffffffffffffffffffffffffffffffffffffff1673ffffffffffffffffffffffffffffffffffffffff163373ffffffffffffffffffffffffffffffffffffffff16145b6134c657600080fd5b600360149054906101000a900460ff16156134e057600080fd5b6134ea83836144ea565b505050565b600080546134fc906155d6565b80601f0160208091040260200160405190810160405280929190818152602001828054613528906155d6565b80156135755780601f1061354a57610100808354040283529160200191613575565b820191906000526020600020905b81548152906001019060200180831161355857829003601f168201915b505050505081565b600360009054906101000a900473ffffffffffffffffffffffffffffffffffffffff1673ffffffffffffffffffffffffffffffffffffffff163373ffffffffffffffffffffffffffffffffffffffff16146135d757600080fd5b6135e182826140b2565b5050565b60606006805480602002602001604051908101604052809291908181526020016000905b828210156136b5578382906000526020600020018054613628906155d6565b80601f0160208091040260200160405190810160405280929190818152602001828054613654906155d6565b80156136a15780601f10613676576101008083540402835291602001916136a1565b820191906000526020600020905b81548152906001019060200180831161368457829003601f168201915b505050505081526020019060010190613609565b50505050905090565b806136c93382613b17565b806137215750600360009054906101000a900473ffffffffffffffffffffffffffffffffffffffff1673ffffffffffffffffffffffffffffffffffffffff163373ffffffffffffffffffffffffffffffffffffffff16145b61372a57600080fd5b600360149054906101000a900460ff161561374457600080fd5b61374e83836141fc565b505050565b61375b61478f565b816137663382613b17565b61376f57600080fd5b60076000848152602001908152602001600020604051806101c0016040529081600082015481526020016001820180546137a8906155d6565b80601f01602080910402602001604051908101604052809291908181526020018280546137d4906155d6565b80156138215780601f106137f657610100808354040283529160200191613821565b820191906000526020600020905b81548152906001019060200180831161380457829003601f168201915b505050505081526020016002820160009054906101000a900460ff16600381111561384f5761384e6156e0565b5b6003811115613861576138606156e0565b5b81526020016003820154815260200160048201548152602001600582015481526020016006820154815260200160078201805461389d906155d6565b80601f01602080910402602001604051908101604052809291908181526020018280546138c9906155d6565b80156139165780601f106138eb57610100808354040283529160200191613916565b820191906000526020600020905b8154815290600101906020018083116138f957829003601f168201915b5050505050815260200160088201805461392f906155d6565b80601f016020809104026020016040519081016040528092919081815260200182805461395b906155d6565b80156139a85780601f1061397d576101008083540402835291602001916139a8565b820191906000526020600020905b81548152906001019060200180831161398b57829003601f168201915b505050505081526020016009820180546139c1906155d6565b80601f01602080910402602001604051908101604052809291908181526020018280546139ed906155d6565b8015613a3a5780601f10613a0f57610100808354040283529160200191613a3a565b820191906000526020600020905b815481529060010190602001808311613a1d57829003601f168201915b50505050508152602001600a820160009054906101000a900473ffffffffffffffffffffffffffffffffffffffff1673ffffffffffffffffffffffffffffffffffffffff1673ffffffffffffffffffffffffffffffffffffffff168152602001600b8201548152602001600c8201548152602001600d82015481525050915050919050565b6000600160009054906101000a900473ffffffffffffffffffffffffffffffffffffffff1673ffffffffffffffffffffffffffffffffffffffff163373ffffffffffffffffffffffffffffffffffffffff1614905090565b6000600115156009600084815260200190815260200160002060008573ffffffffffffffffffffffffffffffffffffffff1673ffffffffffffffffffffffffffffffffffffffff16815260200190815260200160002060009054906101000a900460ff16151514905092915050565b80613b913382612b80565b613b9a57600080fd5b600360149054906101000a900460ff1615613bb457600080fd5b3460076000848152602001908152602001600020600b016000828254613bda9190615400565b925050819055503373ffffffffffffffffffffffffffffffffffffffff167f5dc1fe5ab986a852c4eda8e8bb94247d13307065c593fb83f1a09be2736793828360076000868152602001908152602001600020600b0154604051613c3f92919061525b565b60405180910390a25050565b600360009054906101000a900473ffffffffffffffffffffffffffffffffffffffff1673ffffffffffffffffffffffffffffffffffffffff163373ffffffffffffffffffffffffffffffffffffffff1614613ca557600080fd5b600360149054906101000a900460ff1615613cbf57600080fd5b60004290506000604051806101c0016040528083815260200184815260200160006003811115613cf257613cf16156e0565b5b815260200142815260200142815260200142815260200160008152602001604051806020016040528060008152508152602001604051806020016040528060008152508152602001604051806020016040528060008152508152602001600073ffffffffffffffffffffffffffffffffffffffff1681526020016000815260200160008152602001600081525090508060076000848152602001908152602001600020600082015181600001556020820151816001019080519060200190613dbb929190614709565b5060408201518160020160006101000a81548160ff02191690836003811115613de757613de66156e0565b5b0217905550606082015181600301556080820151816004015560a0820151816005015560c0820151816006015560e0820151816007019080519060200190613e30929190614709565b50610100820151816008019080519060200190613e4e929190614709565b50610120820151816009019080519060200190613e6c929190614709565b5061014082015181600a0160006101000a81548173ffffffffffffffffffffffffffffffffffffffff021916908373ffffffffffffffffffffffffffffffffffffffff16021790555061016082015181600b015561018082015181600c01556101a082015181600d01559050506005829080600181540180825580915050600190039060005260206000200160009091909190915055600683908060018154018082558091505060019003906000526020600020016000909190919091509080519060200190613f3d929190614709565b507f5937a473913f56daf7dea7a6e821970acaa73f35555cf88f70c54f243cd98a9e8383604051613f6f92919061516b565b60405180910390a1505050565b6000600360149054906101000a900460ff1615613f9857600080fd5b613fa23383612b80565b9050919050565b6000600360009054906101000a900473ffffffffffffffffffffffffffffffffffffffff1673ffffffffffffffffffffffffffffffffffffffff163373ffffffffffffffffffffffffffffffffffffffff1614905090565b600061400d3383612a3e565b61401a5760009050614083565b60011515600c600084815260200190815260200160002060003373ffffffffffffffffffffffffffffffffffffffff1673ffffffffffffffffffffffffffffffffffffffff16815260200190815260200160002060009054906101000a900460ff161515141590505b919050565b6000600360009054906101000a900473ffffffffffffffffffffffffffffffffffffffff16905090565b60006009600083815260200190815260200160002060008473ffffffffffffffffffffffffffffffffffffffff1673ffffffffffffffffffffffffffffffffffffffff16815260200190815260200160002060006101000a81548160ff0219169083151502179055506000600a600083815260200190815260200160002060008473ffffffffffffffffffffffffffffffffffffffff1673ffffffffffffffffffffffffffffffffffffffff1681526020019081526020016000205490506000600f600084815260200190815260200160002082815481106141975761419661573e565b5b90600052602060002090602091828204019190066101000a81548160ff0219169083151502179055507f99f4c949f294dd13aa62d19c1344b81968121fe570d11657ebd54aae55ac0f20826040516141ef91906151bd565b60405180910390a1505050565b60006010600083815260200190815260200160002060008473ffffffffffffffffffffffffffffffffffffffff1673ffffffffffffffffffffffffffffffffffffffff16815260200190815260200160002060006101000a81548160ff021916908315150217905550600060076000838152602001908152602001600020600a0160006101000a81548173ffffffffffffffffffffffffffffffffffffffff021916908373ffffffffffffffffffffffffffffffffffffffff1602179055508173ffffffffffffffffffffffffffffffffffffffff167fda111d7eb5d5b2033c4ffad00cd7cd42f45af2813bee1a69e65f26d90ea15f0b8260405161430191906151bd565b60405180910390a25050565b60016009600083815260200190815260200160002060008473ffffffffffffffffffffffffffffffffffffffff1673ffffffffffffffffffffffffffffffffffffffff16815260200190815260200160002060006101000a81548160ff021916908315150217905550600b54600a600083815260200190815260200160002060008473ffffffffffffffffffffffffffffffffffffffff1673ffffffffffffffffffffffffffffffffffffffff16815260200190815260200160002081905550600b60008154809291906143e090615639565b9190505550600d6000828152602001908152602001600020829080600181540180825580915050600190039060005260206000200160009091909190916101000a81548173ffffffffffffffffffffffffffffffffffffffff021916908373ffffffffffffffffffffffffffffffffffffffff160217905550600f6000828152602001908152602001600020600190806001815401808255809150506001900390600052602060002090602091828204019190069091909190916101000a81548160ff0219169083151502179055507f6d08be0da99b3a8dabb8a9d0bd4ebece8d00f747b0d0e6c29f97508f1a40a291816040516144de91906151bd565b60405180910390a15050565b60016010600083815260200190815260200160002060008473ffffffffffffffffffffffffffffffffffffffff1673ffffffffffffffffffffffffffffffffffffffff16815260200190815260200160002060006101000a81548160ff0219169083151502179055508160076000838152602001908152602001600020600a0160006101000a81548173ffffffffffffffffffffffffffffffffffffffff021916908373ffffffffffffffffffffffffffffffffffffffff1602179055508173ffffffffffffffffffffffffffffffffffffffff167f5fd6d0b7e707fe344bd2a1887f9d0eeea8bfcac6f339ba4200e74f0647f101c0826040516145ee91906151bd565b60405180910390a25050565b508054614606906155d6565b6000825580601f106146185750614637565b601f0160209004906000526020600020908101906146369190614826565b5b50565b50805460008255906000526020600020908101906146589190614843565b50565b50805460008255906000526020600020908101906146799190614826565b50565b828054614688906155d6565b90600052602060002090601f0160209004810192826146aa57600085556146f8565b82601f106146bb57805485556146f8565b828001600101855582156146f857600052602060002091601f016020900482015b828111156146f75782548255916001019190600101906146dc565b5b5090506147059190614826565b5090565b828054614715906155d6565b90600052602060002090601f016020900481019282614737576000855561477e565b82601f1061475057805160ff191683800117855561477e565b8280016001018555821561477e579182015b8281111561477d578251825591602001919060010190614762565b5b50905061478b9190614826565b5090565b604051806101c001604052806000815260200160608152602001600060038111156147bd576147bc6156e0565b5b815260200160008152602001600081526020016000815260200160008152602001606081526020016060815260200160608152602001600073ffffffffffffffffffffffffffffffffffffffff1681526020016000815260200160008152602001600081525090565b5b8082111561483f576000816000905550600101614827565b5090565b5b80821115614863576000818161485a91906145fa565b50600101614844565b5090565b600061487a614875846152a9565b615284565b905082815260208101848484011115614896576148956157a1565b5b6148a1848285615594565b509392505050565b6000813590506148b8816157d5565b92915050565b600082601f8301126148d3576148d261579c565b5b81356148e3848260208601614867565b91505092915050565b6000813590506148fb816157ec565b92915050565b600060208284031215614917576149166157ab565b5b6000614925848285016148a9565b91505092915050565b600080600060608486031215614947576149466157ab565b5b6000614955868287016148a9565b935050602084013567ffffffffffffffff811115614976576149756157a6565b5b614982868287016148be565b9250506040614993868287016148ec565b9150509250925092565b600080604083850312156149b4576149b36157ab565b5b60006149c2858286016148a9565b92505060206149d3858286016148ec565b9150509250929050565b6000602082840312156149f3576149f26157ab565b5b600082013567ffffffffffffffff811115614a1157614a106157a6565b5b614a1d848285016148be565b91505092915050565b600060208284031215614a3c57614a3b6157ab565b5b6000614a4a848285016148ec565b91505092915050565b60008060008060808587031215614a6d57614a6c6157ab565b5b6000614a7b878288016148ec565b945050602085013567ffffffffffffffff811115614a9c57614a9b6157a6565b5b614aa8878288016148be565b935050604085013567ffffffffffffffff811115614ac957614ac86157a6565b5b614ad5878288016148be565b925050606085013567ffffffffffffffff811115614af657614af56157a6565b5b614b02878288016148be565b91505092959194509250565b6000614b1a8383614b6a565b60208301905092915050565b6000614b328383614d17565b60208301905092915050565b6000614b4a8383614d62565b905092915050565b6000614b5e8383614f97565b60208301905092915050565b614b7381615515565b82525050565b614b8281615515565b82525050565b6000614b938261532f565b614b9d818561539a565b9350614ba8836152da565b8060005b83811015614bd9578151614bc08882614b0e565b9750614bcb83615366565b925050600181019050614bac565b5085935050505092915050565b6000614bf18261533a565b614bfb81856153ab565b9350614c06836152ea565b8060005b83811015614c37578151614c1e8882614b26565b9750614c2983615373565b925050600181019050614c0a565b5085935050505092915050565b6000614c4f82615345565b614c5981856153bc565b935083602082028501614c6b856152fa565b8060005b85811015614ca75784840389528151614c888582614b3e565b9450614c9383615380565b925060208a01995050600181019050614c6f565b50829750879550505050505092915050565b6000614cc482615350565b614cce81856153cd565b9350614cd98361530a565b8060005b83811015614d0a578151614cf18882614b52565b9750614cfc8361538d565b925050600181019050614cdd565b5085935050505092915050565b614d2081615527565b82525050565b614d2f81615527565b82525050565b614d3e81615570565b82525050565b614d4d81615570565b82525050565b614d5c81615582565b82525050565b6000614d6d8261535b565b614d7781856153de565b9350614d878185602086016155a3565b614d90816157b0565b840191505092915050565b6000614da68261535b565b614db081856153ef565b9350614dc08185602086016155a3565b614dc9816157b0565b840191505092915050565b60008154614de1816155d6565b614deb81866153ef565b94506001821660008114614e065760018114614e1857614e4b565b60ff1983168652602086019350614e4b565b614e218561531a565b60005b83811015614e4357815481890152600182019150602081019050614e24565b808801955050505b50505092915050565b60006101c083016000830151614e6d6000860182614f97565b5060208301518482036020860152614e858282614d62565b9150506040830151614e9a6040860182614d35565b506060830151614ead6060860182614f97565b506080830151614ec06080860182614f97565b5060a0830151614ed360a0860182614f97565b5060c0830151614ee660c0860182614f97565b5060e083015184820360e0860152614efe8282614d62565b915050610100830151848203610100860152614f1a8282614d62565b915050610120830151848203610120860152614f368282614d62565b915050610140830151614f4d610140860182614b6a565b50610160830151614f62610160860182614f97565b50610180830151614f77610180860182614f97565b506101a0830151614f8c6101a0860182614f97565b508091505092915050565b614fa081615566565b82525050565b614faf81615566565b82525050565b6000602082019050614fca6000830184614b79565b92915050565b60006020820190508181036000830152614fea8184614b88565b905092915050565b6000604082019050818103600083015261500c8185614b88565b905081810360208301526150208184614be6565b90509392505050565b600060208201905081810360008301526150438184614be6565b905092915050565b600060208201905081810360008301526150658184614c44565b905092915050565b600060208201905081810360008301526150878184614cb9565b905092915050565b60006020820190506150a46000830184614d26565b92915050565b600060a0820190506150bf6000830188614d44565b6150cc6020830187614fa6565b6150d96040830186614fa6565b6150e66060830185614fa6565b6150f36080830184614fa6565b9695505050505050565b600060208201905081810360008301526151178184614d9b565b905092915050565b600060608201905081810360008301526151398186614d9b565b9050818103602083015261514d8185614d9b565b905081810360408301526151618184614d9b565b9050949350505050565b600060408201905081810360008301526151858185614d9b565b90506151946020830184614fa6565b9392505050565b600060208201905081810360008301526151b58184614e54565b905092915050565b60006020820190506151d26000830184614fa6565b92915050565b60006040820190506151ed6000830185614fa6565b6151fa6020830184614d53565b9392505050565b60006080820190506152166000830187614fa6565b81810360208301526152288186614dd4565b9050818103604083015261523c8185614dd4565b905081810360608301526152508184614dd4565b905095945050505050565b60006040820190506152706000830185614fa6565b61527d6020830184614fa6565b9392505050565b600061528e61529f565b905061529a8282615608565b919050565b6000604051905090565b600067ffffffffffffffff8211156152c4576152c361576d565b5b6152cd826157b0565b9050602081019050919050565b6000819050602082019050919050565b6000819050602082019050919050565b6000819050602082019050919050565b6000819050602082019050919050565b60008190508160005260206000209050919050565b600081519050919050565b600081519050919050565b600081519050919050565b600081519050919050565b600081519050919050565b6000602082019050919050565b6000602082019050919050565b6000602082019050919050565b6000602082019050919050565b600082825260208201905092915050565b600082825260208201905092915050565b600082825260208201905092915050565b600082825260208201905092915050565b600082825260208201905092915050565b600082825260208201905092915050565b600061540b82615566565b915061541683615566565b9250827fffffffffffffffffffffffffffffffffffffffffffffffffffffffffffffffff0382111561544b5761544a615682565b5b828201905092915050565b600061546182615566565b915061546c83615566565b92508261547c5761547b6156b1565b5b828204905092915050565b600061549282615566565b915061549d83615566565b9250817fffffffffffffffffffffffffffffffffffffffffffffffffffffffffffffffff04831182151516156154d6576154d5615682565b5b828202905092915050565b60006154ec82615566565b91506154f783615566565b92508282101561550a57615509615682565b5b828203905092915050565b600061552082615546565b9050919050565b60008115159050919050565b6000819050615541826157c1565b919050565b600073ffffffffffffffffffffffffffffffffffffffff82169050919050565b6000819050919050565b600061557b82615533565b9050919050565b600061558d82615566565b9050919050565b82818337600083830152505050565b60005b838110156155c15780820151818401526020810190506155a6565b838111156155d0576000848401525b50505050565b600060028204905060018216806155ee57607f821691505b602082108114156156025761560161570f565b5b50919050565b615611826157b0565b810181811067ffffffffffffffff821117156156305761562f61576d565b5b80604052505050565b600061564482615566565b91507fffffffffffffffffffffffffffffffffffffffffffffffffffffffffffffffff82141561567757615676615682565b5b600182019050919050565b7f4e487b7100000000000000000000000000000000000000000000000000000000600052601160045260246000fd5b7f4e487b7100000000000000000000000000000000000000000000000000000000600052601260045260246000fd5b7f4e487b7100000000000000000000000000000000000000000000000000000000600052602160045260246000fd5b7f4e487b7100000000000000000000000000000000000000000000000000000000600052602260045260246000fd5b7f4e487b7100000000000000000000000000000000000000000000000000000000600052603260045260246000fd5b7f4e487b7100000000000000000000000000000000000000000000000000000000600052604160045260246000fd5b600080fd5b600080fd5b600080fd5b600080fd5b6000601f19601f8301169050919050565b600481106157d2576157d16156e0565b5b50565b6157de81615515565b81146157e957600080fd5b50565b6157f581615566565b811461580057600080fd5b5056fea264697066735822122094e7f8ebc7ba2f3cbef9ddf192673a48550a3004ced0c7dbc071d28b726f960864736f6c63430008060033",
  "immutableReferences": {},
  "source": "// SPDX-License-Identifier: MIT\npragma solidity ^0.8.0;\n\nimport \"./ContributorManager.sol\";\n\ncontract AdminsManager is ContributorManager {\n    // event AdminAdded(address indexed account, uint256 groupId);\n    // event AdminRemoved(address indexed account, uint256 groupId);\n\n    event GroupCreated(string groupName, uint256 groupId);\n    event EventStarted(address indexed startedBy, uint256 groupId);\n    event RegistrationEnded(address indexed endedBy, uint256 groupId);\n    event EventEnded(address indexed endedBy, uint256 groupId);\n    event AdminAdded(uint256 groupId);\n    event AdminRemoved(uint256 groupId);\n\n    event CalculatedPot(\n        uint256 registeredRecipientCount,\n        uint256 winningsPerRecipient\n    );\n\n    constructor() {}\n\n    modifier onlyAdmins(uint256 groupId) {\n        require(isAdmin(msg.sender, groupId));\n        _;\n    }\n\n    function isAdmin(address account, uint256 groupId)\n        public\n        view\n        returns (bool)\n    {\n        return admins[groupId][account] == true;\n    }\n\n    function amIAdmin(uint256 groupId) external view returns (bool) {\n        return admins[groupId][msg.sender] == true;\n    }\n\n    function getAdminsForGroup(uint256 groupId)\n        external\n        view\n        returns (address[] memory, bool[] memory)\n    {\n        return (adminAddresses[groupId], adminEnabled[groupId]);\n    }\n\n    modifier onlyAdminsOrCOO(uint256 groupId) {\n        require(isAdmin(msg.sender, groupId) || msg.sender == cooAddress);\n        _;\n    }\n\n    // TODO - allow COO to give \"admin-granting power\" to other admins\n    function addAdmin(address account, uint256 groupId) external onlyCOO {\n        _addAdmin(account, groupId);\n\n        emit AdminAdded(groupId);\n    }\n\n    function removeAdmin(address account, uint256 groupId) external onlyCOO {\n        _removeAdmin(account, groupId);\n    }\n\n    function renounceAdmin(uint256 groupId) public onlyAdmins(groupId) {\n        _removeAdmin(msg.sender, groupId);\n    }\n\n    function _addAdmin(address account, uint256 groupId) internal {\n        admins[groupId][account] = true;\n\n        adminAddressToIndex[groupId][account] = adminAddressToIndexNextIndex;\n        adminAddressToIndexNextIndex++;\n\n        adminAddresses[groupId].push(account);\n        adminEnabled[groupId].push(true);\n        // TODO - adminNames\n\n        emit AdminAdded(groupId);\n    }\n\n    function _removeAdmin(address account, uint256 groupId) internal {\n        admins[groupId][account] = false;\n\n        uint256 index = adminAddressToIndex[groupId][account];\n        adminEnabled[groupId][index] = false;\n\n        emit AdminRemoved(groupId);\n    }\n\n    function readEventInfo(uint256 groupId)\n        external\n        view\n        onlyAdmins(groupId)\n        returns (EthDropEvent memory)\n    {\n        return currentEvents[groupId];\n    }\n\n    function createNewGroup(string memory groupName)\n        external\n        onlyCOO\n        whenNotPaused\n    {\n        // uint256 newGroupId = uint256(blockhash(block.number));\n        uint256 newGroupId = block.timestamp;\n\n        EthDropEvent memory newGroup = EthDropEvent(\n            newGroupId,\n            groupName,\n            EventState.CREATED,\n            block.timestamp,\n            block.timestamp,\n            block.timestamp,\n            0,\n            \"\",\n            \"\",\n            \"\",\n            address(0),\n            0,\n            0,\n            0\n        );\n\n        currentEvents[newGroupId] = newGroup;\n\n        listOfGroupIds.push(newGroupId);\n        listOfGroupNames.push(groupName);\n\n        emit GroupCreated(groupName, newGroupId);\n    }\n\n    function startEvent(uint256 groupId)\n        external\n        onlyAdmins(groupId)\n        whenNotPaused\n    {\n        currentEvents[groupId].currentState = EventState.REGISTRATION;\n        currentEvents[groupId].startTime = block.timestamp;\n\n        emit EventStarted(msg.sender, groupId);\n    }\n\n    function closeEventRegistration(uint256 groupId)\n        external\n        onlyAdmins(groupId)\n        whenNotPaused\n    {\n        currentEvents[groupId].registrationEndTime = block.timestamp;\n\n        uint256 devCutWei = (currentEvents[groupId].totalAmountContributed *\n            devCutPercentage) / 100;\n\n        // Transfer dev cut to cfo\n        payable(cfoAddress).transfer(devCutWei);\n\n        // pot is the amount for recipients to share\n        uint256 pot = currentEvents[groupId].totalAmountContributed - devCutWei;\n\n        // each recipient's winnings is the \"weiWinnings\"\n        currentEvents[groupId].weiWinnings =\n            pot /\n            currentEvents[groupId].registeredRecipientsCount;\n\n        currentEvents[groupId].currentState = EventState.CLAIM_WINNINGS;\n\n        emit RegistrationEnded(msg.sender, groupId);\n    }\n\n    function endEvent(uint256 groupId)\n        external\n        onlyAdminsOrCOO(groupId)\n        whenNotPaused\n    {\n        currentEvents[groupId].endTime = block.timestamp;\n\n        currentEvents[groupId].currentState = EventState.ENDED;\n\n        // First delete mappings, then arrays\n        for (\n            uint256 i = 0;\n            i < currentEvents[groupId].registeredRecipientsCount;\n            i++\n        ) {\n            address currentAddress = registeredRecipientAddressesArray[groupId][\n                i\n            ];\n\n            delete registeredRecipients[groupId][currentAddress];\n            delete recipientAddressToName[groupId][currentAddress];\n            delete winningsCollected[groupId][currentAddress];\n        }\n\n        delete registeredRecipientNamesArray[groupId];\n        delete registeredRecipientAddressesArray[groupId];\n\n        pastEvents[groupId].push(currentEvents[groupId]);\n\n        currentEvents[groupId].registeredRecipientsCount = 0;\n        currentEvents[groupId].totalAmountContributed = 0;\n        currentEvents[groupId].weiWinnings = 0;\n        currentEvents[groupId].numberOfUsersWhoClaimedWinnings = 0;\n\n        emit ContributionMade(msg.sender, groupId, 0);\n\n        emit RecipientRegistered(msg.sender, groupId);\n\n        // TODO - reset mappings\n\n        // winningsCollected[groupId] = new mapping(address => bool);\n        // registeredRecipientNamesArray[groupId] = new mapping(address => bool);\n        // registeredRecipients[groupId] = new mapping(address => bool);\n        // registeredRecipientAddressesArray[groupId] = address[];\n\n        emit EventEnded(msg.sender, groupId);\n    }\n\n    function addEligibleRecipient(\n        address account,\n        string memory name,\n        uint256 groupId\n    ) external whenNotPaused onlyAdmins(groupId) {\n        eligibleRecipients[groupId][account] = true;\n\n        eligibleRecipientAddressesArray[groupId].push(account);\n        eligibleRecipientNamesArray[groupId].push(name);\n\n        recipientAddressToName[groupId][account] = name;\n        eligibleRecipientsEligibilityIsEnabled[groupId].push(true);\n\n        emit EligibleRecipientAdded(account, groupId);\n    }\n\n    function removeEligibleRecipient(address account, uint256 groupId)\n        external\n        onlyAdmins(groupId)\n        whenNotPaused\n    {\n        eligibleRecipients[groupId][account] = false;\n        emit EligibleRecipientRemoved(account, groupId);\n    }\n\n    function changeContributor(address account, uint256 groupId)\n        external\n        onlyAdminsOrCOO(groupId)\n        whenNotPaused\n    {\n        _changeContributor(account, groupId);\n    }\n\n    function removeContributor(address account, uint256 groupId)\n        external\n        onlyAdminsOrCOO(groupId)\n        whenNotPaused\n    {\n        _removeContributor(account, groupId);\n    }\n}\n",
  "sourcePath": "/Users/jim/Git-Projects/EthDrop/contracts/roles/AdminsManager.sol",
  "compiler": {
    "name": "solc",
    "version": "0.8.6+commit.11564f7e.Emscripten.clang"
  },
  "schemaVersion": "3.4.1",
  "updatedAt": "2021-07-29T17:31:32.786Z",
  "networkType": "ethereum",
  "devdoc": {
    "kind": "dev",
    "methods": {
      "pause()": {
        "details": "Called by any \"C-level\" role to pause the contract. Used only when  a bug or exploit is detected and we need to limit damage."
      },
      "setCEO(address)": {
        "details": "Assigns a new address to act as the CEO. Only available to the current CEO.",
        "params": {
          "_newCEO": "The address of the new CEO"
        }
      },
      "setCFO(address)": {
        "details": "Assigns a new address to act as the CFO. Only available to the current CEO.",
        "params": {
          "_newCFO": "The address of the new CFO"
        }
      },
      "setCOO(address)": {
        "details": "Assigns a new address to act as the COO. Only available to the current CEO.",
        "params": {
          "_newCOO": "The address of the new COO"
        }
      },
      "unpause()": {
        "details": "Unpauses the smart contract. Can only be called by the CEO, since  one reason we may pause the contract is when CFO or COO accounts are  compromised."
      }
    },
    "version": 1
  },
  "userdoc": {
    "kind": "user",
    "methods": {
      "unpause()": {
        "notice": "This is public rather than external so it can be called by  derived contracts."
      }
    },
    "version": 1
  }
}