{
  "contractName": "AdminsManager",
  "abi": [
    {
      "inputs": [],
      "stateMutability": "nonpayable",
      "type": "constructor"
    },
    {
      "anonymous": false,
      "inputs": [
        {
          "indexed": true,
          "internalType": "address",
          "name": "account",
          "type": "address"
        },
        {
          "indexed": false,
          "internalType": "uint256",
          "name": "groupId",
          "type": "uint256"
        }
      ],
      "name": "AdminAdded",
      "type": "event"
    },
    {
      "anonymous": false,
      "inputs": [
        {
          "indexed": true,
          "internalType": "address",
          "name": "account",
          "type": "address"
        },
        {
          "indexed": false,
          "internalType": "uint256",
          "name": "groupId",
          "type": "uint256"
        }
      ],
      "name": "AdminRemoved",
      "type": "event"
    },
    {
      "anonymous": false,
      "inputs": [
        {
          "indexed": false,
          "internalType": "uint256",
          "name": "registeredRecipientCount",
          "type": "uint256"
        },
        {
          "indexed": false,
          "internalType": "uint256",
          "name": "winningsPerRecipient",
          "type": "uint256"
        }
      ],
      "name": "CalculatedPot",
      "type": "event"
    },
    {
      "anonymous": false,
      "inputs": [
        {
          "indexed": false,
          "internalType": "address",
          "name": "newContract",
          "type": "address"
        }
      ],
      "name": "ContractUpgrade",
      "type": "event"
    },
    {
      "anonymous": false,
      "inputs": [
        {
          "indexed": true,
          "internalType": "address",
          "name": "account",
          "type": "address"
        },
        {
          "indexed": false,
          "internalType": "uint256",
          "name": "groupId",
          "type": "uint256"
        },
        {
          "indexed": false,
          "internalType": "uint256",
          "name": "amount",
          "type": "uint256"
        }
      ],
      "name": "ContributionMade",
      "type": "event"
    },
    {
      "anonymous": false,
      "inputs": [
        {
          "indexed": true,
          "internalType": "address",
          "name": "account",
          "type": "address"
        },
        {
          "indexed": false,
          "internalType": "uint256",
          "name": "groupId",
          "type": "uint256"
        }
      ],
      "name": "ContributorAdded",
      "type": "event"
    },
    {
      "anonymous": false,
      "inputs": [
        {
          "indexed": true,
          "internalType": "address",
          "name": "account",
          "type": "address"
        },
        {
          "indexed": false,
          "internalType": "uint256",
          "name": "groupId",
          "type": "uint256"
        }
      ],
      "name": "ContributorRemoved",
      "type": "event"
    },
    {
      "anonymous": false,
      "inputs": [
        {
          "indexed": true,
          "internalType": "address",
          "name": "account",
          "type": "address"
        },
        {
          "indexed": false,
          "internalType": "uint256",
          "name": "groupId",
          "type": "uint256"
        }
      ],
      "name": "EligibleRecipientAdded",
      "type": "event"
    },
    {
      "anonymous": false,
      "inputs": [
        {
          "indexed": true,
          "internalType": "address",
          "name": "account",
          "type": "address"
        },
        {
          "indexed": false,
          "internalType": "uint256",
          "name": "groupId",
          "type": "uint256"
        }
      ],
      "name": "EligibleRecipientRemoved",
      "type": "event"
    },
    {
      "anonymous": false,
      "inputs": [],
      "name": "EventClose",
      "type": "event"
    },
    {
      "anonymous": false,
      "inputs": [
        {
          "indexed": true,
          "internalType": "address",
          "name": "endedBy",
          "type": "address"
        },
        {
          "indexed": false,
          "internalType": "uint256",
          "name": "groupId",
          "type": "uint256"
        }
      ],
      "name": "EventEnded",
      "type": "event"
    },
    {
      "anonymous": false,
      "inputs": [
        {
          "indexed": true,
          "internalType": "address",
          "name": "startedBy",
          "type": "address"
        },
        {
          "indexed": false,
          "internalType": "uint256",
          "name": "groupId",
          "type": "uint256"
        }
      ],
      "name": "EventStarted",
      "type": "event"
    },
    {
      "anonymous": false,
      "inputs": [
        {
          "indexed": true,
          "internalType": "address",
          "name": "creator",
          "type": "address"
        },
        {
          "indexed": false,
          "internalType": "uint256",
          "name": "groupId",
          "type": "uint256"
        }
      ],
      "name": "GroupCreated",
      "type": "event"
    },
    {
      "anonymous": false,
      "inputs": [
        {
          "indexed": true,
          "internalType": "address",
          "name": "account",
          "type": "address"
        },
        {
          "indexed": false,
          "internalType": "uint256",
          "name": "groupId",
          "type": "uint256"
        }
      ],
      "name": "RecipientRegistered",
      "type": "event"
    },
    {
      "anonymous": false,
      "inputs": [
        {
          "indexed": true,
          "internalType": "address",
          "name": "endedBy",
          "type": "address"
        },
        {
          "indexed": false,
          "internalType": "uint256",
          "name": "groupId",
          "type": "uint256"
        }
      ],
      "name": "RegistrationEnded",
      "type": "event"
    },
    {
      "anonymous": false,
      "inputs": [],
      "name": "RegistrationOpen",
      "type": "event"
    },
    {
      "anonymous": false,
      "inputs": [
        {
          "indexed": false,
          "internalType": "address",
          "name": "from",
          "type": "address"
        },
        {
          "indexed": false,
          "internalType": "address",
          "name": "to",
          "type": "address"
        }
      ],
      "name": "Transfer",
      "type": "event"
    },
    {
      "anonymous": false,
      "inputs": [
        {
          "indexed": true,
          "internalType": "address",
          "name": "account",
          "type": "address"
        },
        {
          "indexed": false,
          "internalType": "uint256",
          "name": "groupId",
          "type": "uint256"
        }
      ],
      "name": "WinningsClaimed",
      "type": "event"
    },
    {
      "anonymous": false,
      "inputs": [],
      "name": "WinningsClaimingOpen",
      "type": "event"
    },
    {
      "inputs": [
        {
          "internalType": "uint256",
          "name": "groupId",
          "type": "uint256"
        }
      ],
      "name": "amIContributor",
      "outputs": [
        {
          "internalType": "bool",
          "name": "",
          "type": "bool"
        }
      ],
      "stateMutability": "view",
      "type": "function",
      "constant": true
    },
    {
      "inputs": [
        {
          "internalType": "uint256",
          "name": "groupId",
          "type": "uint256"
        }
      ],
      "name": "amIEligibleRecipient",
      "outputs": [
        {
          "internalType": "bool",
          "name": "",
          "type": "bool"
        }
      ],
      "stateMutability": "view",
      "type": "function",
      "constant": true
    },
    {
      "inputs": [
        {
          "internalType": "uint256",
          "name": "groupId",
          "type": "uint256"
        }
      ],
      "name": "amIRegisteredRecipient",
      "outputs": [
        {
          "internalType": "bool",
          "name": "",
          "type": "bool"
        }
      ],
      "stateMutability": "view",
      "type": "function",
      "constant": true
    },
    {
      "inputs": [],
      "name": "ceoAddress",
      "outputs": [
        {
          "internalType": "address",
          "name": "",
          "type": "address"
        }
      ],
      "stateMutability": "view",
      "type": "function",
      "constant": true
    },
    {
      "inputs": [],
      "name": "cfoAddress",
      "outputs": [
        {
          "internalType": "address",
          "name": "",
          "type": "address"
        }
      ],
      "stateMutability": "view",
      "type": "function",
      "constant": true
    },
    {
      "inputs": [
        {
          "internalType": "uint256",
          "name": "groupId",
          "type": "uint256"
        }
      ],
      "name": "claimWinnings",
      "outputs": [],
      "stateMutability": "nonpayable",
      "type": "function"
    },
    {
      "inputs": [
        {
          "internalType": "uint256",
          "name": "groupId",
          "type": "uint256"
        }
      ],
      "name": "contributeToPot",
      "outputs": [],
      "stateMutability": "payable",
      "type": "function",
      "payable": true
    },
    {
      "inputs": [],
      "name": "cooAddress",
      "outputs": [
        {
          "internalType": "address",
          "name": "",
          "type": "address"
        }
      ],
      "stateMutability": "view",
      "type": "function",
      "constant": true
    },
    {
      "inputs": [],
      "name": "getCFO",
      "outputs": [
        {
          "internalType": "address",
          "name": "",
          "type": "address"
        }
      ],
      "stateMutability": "view",
      "type": "function",
      "constant": true
    },
    {
      "inputs": [],
      "name": "getCOO",
      "outputs": [
        {
          "internalType": "address",
          "name": "",
          "type": "address"
        }
      ],
      "stateMutability": "view",
      "type": "function",
      "constant": true
    },
    {
      "inputs": [
        {
          "internalType": "uint256",
          "name": "groupId",
          "type": "uint256"
        }
      ],
      "name": "getContributorInfo",
      "outputs": [
        {
          "internalType": "string",
          "name": "newContributorName",
          "type": "string"
        },
        {
          "internalType": "string",
          "name": "newContributorImgUrl",
          "type": "string"
        },
        {
          "internalType": "string",
          "name": "newContributorLinkToUrl",
          "type": "string"
        }
      ],
      "stateMutability": "view",
      "type": "function",
      "constant": true
    },
    {
      "inputs": [
        {
          "internalType": "uint256",
          "name": "groupId",
          "type": "uint256"
        }
      ],
      "name": "getCurrentSponsorAddress",
      "outputs": [
        {
          "internalType": "address",
          "name": "",
          "type": "address"
        }
      ],
      "stateMutability": "view",
      "type": "function",
      "constant": true
    },
    {
      "inputs": [
        {
          "internalType": "uint256",
          "name": "groupId",
          "type": "uint256"
        }
      ],
      "name": "getEligibleRecipientAddresses",
      "outputs": [
        {
          "internalType": "address[]",
          "name": "",
          "type": "address[]"
        }
      ],
      "stateMutability": "view",
      "type": "function",
      "constant": true
    },
    {
      "inputs": [
        {
          "internalType": "uint256",
          "name": "groupId",
          "type": "uint256"
        }
      ],
      "name": "getEligibleRecipientIsEligibilityEnabled",
      "outputs": [
        {
          "internalType": "bool[]",
          "name": "",
          "type": "bool[]"
        }
      ],
      "stateMutability": "view",
      "type": "function",
      "constant": true
    },
    {
      "inputs": [
        {
          "internalType": "uint256",
          "name": "groupId",
          "type": "uint256"
        }
      ],
      "name": "getGroupEventData",
      "outputs": [
        {
          "internalType": "enum EthDropBase.EventState",
          "name": "",
          "type": "uint8"
        },
        {
          "internalType": "uint256",
          "name": "",
          "type": "uint256"
        },
        {
          "internalType": "uint256",
          "name": "",
          "type": "uint256"
        },
        {
          "internalType": "uint256",
          "name": "",
          "type": "uint256"
        },
        {
          "internalType": "uint256",
          "name": "",
          "type": "uint256"
        }
      ],
      "stateMutability": "view",
      "type": "function",
      "constant": true
    },
    {
      "inputs": [],
      "name": "getGroupIds",
      "outputs": [
        {
          "internalType": "uint256[]",
          "name": "",
          "type": "uint256[]"
        }
      ],
      "stateMutability": "view",
      "type": "function",
      "constant": true
    },
    {
      "inputs": [],
      "name": "getGroupNames",
      "outputs": [
        {
          "internalType": "string[]",
          "name": "",
          "type": "string[]"
        }
      ],
      "stateMutability": "view",
      "type": "function",
      "constant": true
    },
    {
      "inputs": [
        {
          "internalType": "uint256",
          "name": "groupId",
          "type": "uint256"
        }
      ],
      "name": "getRegisteredRecipients",
      "outputs": [
        {
          "internalType": "address[]",
          "name": "",
          "type": "address[]"
        }
      ],
      "stateMutability": "view",
      "type": "function",
      "constant": true
    },
    {
      "inputs": [],
      "name": "getString",
      "outputs": [
        {
          "internalType": "string",
          "name": "",
          "type": "string"
        }
      ],
      "stateMutability": "view",
      "type": "function",
      "constant": true
    },
    {
      "inputs": [],
      "name": "isCEO",
      "outputs": [
        {
          "internalType": "bool",
          "name": "",
          "type": "bool"
        }
      ],
      "stateMutability": "view",
      "type": "function",
      "constant": true
    },
    {
      "inputs": [],
      "name": "isCFO",
      "outputs": [
        {
          "internalType": "bool",
          "name": "",
          "type": "bool"
        }
      ],
      "stateMutability": "view",
      "type": "function",
      "constant": true
    },
    {
      "inputs": [],
      "name": "isCOO",
      "outputs": [
        {
          "internalType": "bool",
          "name": "",
          "type": "bool"
        }
      ],
      "stateMutability": "view",
      "type": "function",
      "constant": true
    },
    {
      "inputs": [
        {
          "internalType": "address",
          "name": "account",
          "type": "address"
        },
        {
          "internalType": "uint256",
          "name": "groupId",
          "type": "uint256"
        }
      ],
      "name": "isContributor",
      "outputs": [
        {
          "internalType": "bool",
          "name": "",
          "type": "bool"
        }
      ],
      "stateMutability": "view",
      "type": "function",
      "constant": true
    },
    {
      "inputs": [
        {
          "internalType": "address",
          "name": "account",
          "type": "address"
        },
        {
          "internalType": "uint256",
          "name": "groupId",
          "type": "uint256"
        }
      ],
      "name": "isEligibleRecipient",
      "outputs": [
        {
          "internalType": "bool",
          "name": "",
          "type": "bool"
        }
      ],
      "stateMutability": "view",
      "type": "function",
      "constant": true
    },
    {
      "inputs": [],
      "name": "isPaused",
      "outputs": [
        {
          "internalType": "bool",
          "name": "",
          "type": "bool"
        }
      ],
      "stateMutability": "view",
      "type": "function",
      "constant": true
    },
    {
      "inputs": [
        {
          "internalType": "address",
          "name": "account",
          "type": "address"
        },
        {
          "internalType": "uint256",
          "name": "groupId",
          "type": "uint256"
        }
      ],
      "name": "isRegisteredRecipient",
      "outputs": [
        {
          "internalType": "bool",
          "name": "",
          "type": "bool"
        }
      ],
      "stateMutability": "view",
      "type": "function",
      "constant": true
    },
    {
      "inputs": [],
      "name": "pause",
      "outputs": [],
      "stateMutability": "nonpayable",
      "type": "function"
    },
    {
      "inputs": [],
      "name": "paused",
      "outputs": [
        {
          "internalType": "bool",
          "name": "",
          "type": "bool"
        }
      ],
      "stateMutability": "view",
      "type": "function",
      "constant": true
    },
    {
      "inputs": [
        {
          "internalType": "uint256",
          "name": "groupId",
          "type": "uint256"
        }
      ],
      "name": "registerForEvent",
      "outputs": [],
      "stateMutability": "nonpayable",
      "type": "function"
    },
    {
      "inputs": [
        {
          "internalType": "uint256",
          "name": "groupId",
          "type": "uint256"
        }
      ],
      "name": "renounceContributor",
      "outputs": [],
      "stateMutability": "nonpayable",
      "type": "function"
    },
    {
      "inputs": [
        {
          "internalType": "address",
          "name": "_newCEO",
          "type": "address"
        }
      ],
      "name": "setCEO",
      "outputs": [],
      "stateMutability": "nonpayable",
      "type": "function"
    },
    {
      "inputs": [
        {
          "internalType": "address",
          "name": "_newCFO",
          "type": "address"
        }
      ],
      "name": "setCFO",
      "outputs": [],
      "stateMutability": "nonpayable",
      "type": "function"
    },
    {
      "inputs": [
        {
          "internalType": "address",
          "name": "_newCOO",
          "type": "address"
        }
      ],
      "name": "setCOO",
      "outputs": [],
      "stateMutability": "nonpayable",
      "type": "function"
    },
    {
      "inputs": [
        {
          "internalType": "string",
          "name": "_s",
          "type": "string"
        }
      ],
      "name": "setString",
      "outputs": [],
      "stateMutability": "nonpayable",
      "type": "function"
    },
    {
      "inputs": [],
      "name": "stringgg",
      "outputs": [
        {
          "internalType": "string",
          "name": "",
          "type": "string"
        }
      ],
      "stateMutability": "view",
      "type": "function",
      "constant": true
    },
    {
      "inputs": [],
      "name": "unpause",
      "outputs": [
        {
          "internalType": "bool",
          "name": "",
          "type": "bool"
        }
      ],
      "stateMutability": "nonpayable",
      "type": "function"
    },
    {
      "inputs": [
        {
          "internalType": "uint256",
          "name": "groupId",
          "type": "uint256"
        },
        {
          "internalType": "string",
          "name": "newContributorName",
          "type": "string"
        },
        {
          "internalType": "string",
          "name": "newContributorImgUrl",
          "type": "string"
        },
        {
          "internalType": "string",
          "name": "newContributorLinkToUrl",
          "type": "string"
        }
      ],
      "name": "updateContributorInfo",
      "outputs": [],
      "stateMutability": "nonpayable",
      "type": "function"
    },
    {
      "inputs": [],
      "name": "whoami",
      "outputs": [
        {
          "internalType": "address",
          "name": "",
          "type": "address"
        }
      ],
      "stateMutability": "view",
      "type": "function",
      "constant": true
    },
    {
      "inputs": [
        {
          "internalType": "address",
          "name": "account",
          "type": "address"
        },
        {
          "internalType": "uint256",
          "name": "groupId",
          "type": "uint256"
        }
      ],
      "name": "isAdmin",
      "outputs": [
        {
          "internalType": "bool",
          "name": "",
          "type": "bool"
        }
      ],
      "stateMutability": "view",
      "type": "function",
      "constant": true
    },
    {
      "inputs": [
        {
          "internalType": "uint256",
          "name": "groupId",
          "type": "uint256"
        }
      ],
      "name": "amIAdmin",
      "outputs": [
        {
          "internalType": "bool",
          "name": "",
          "type": "bool"
        }
      ],
      "stateMutability": "view",
      "type": "function",
      "constant": true
    },
    {
      "inputs": [
        {
          "internalType": "uint256",
          "name": "groupId",
          "type": "uint256"
        }
      ],
      "name": "getAdminsForGroup",
      "outputs": [
        {
          "internalType": "address[]",
          "name": "",
          "type": "address[]"
        },
        {
          "internalType": "bool[]",
          "name": "",
          "type": "bool[]"
        }
      ],
      "stateMutability": "view",
      "type": "function",
      "constant": true
    },
    {
      "inputs": [
        {
          "internalType": "address",
          "name": "account",
          "type": "address"
        },
        {
          "internalType": "uint256",
          "name": "groupId",
          "type": "uint256"
        }
      ],
      "name": "addAdmin",
      "outputs": [],
      "stateMutability": "nonpayable",
      "type": "function"
    },
    {
      "inputs": [
        {
          "internalType": "address",
          "name": "account",
          "type": "address"
        },
        {
          "internalType": "uint256",
          "name": "groupId",
          "type": "uint256"
        }
      ],
      "name": "removeAdmin",
      "outputs": [],
      "stateMutability": "nonpayable",
      "type": "function"
    },
    {
      "inputs": [
        {
          "internalType": "uint256",
          "name": "groupId",
          "type": "uint256"
        }
      ],
      "name": "renounceAdmin",
      "outputs": [],
      "stateMutability": "nonpayable",
      "type": "function"
    },
    {
      "inputs": [
        {
          "internalType": "uint256",
          "name": "groupId",
          "type": "uint256"
        }
      ],
      "name": "readEventInfo",
      "outputs": [
        {
          "components": [
            {
              "internalType": "uint256",
              "name": "groupId",
              "type": "uint256"
            },
            {
              "internalType": "string",
              "name": "groupName",
              "type": "string"
            },
            {
              "internalType": "enum EthDropBase.EventState",
              "name": "currentState",
              "type": "uint8"
            },
            {
              "internalType": "uint256",
              "name": "startTime",
              "type": "uint256"
            },
            {
              "internalType": "uint256",
              "name": "registrationEndTime",
              "type": "uint256"
            },
            {
              "internalType": "uint256",
              "name": "endTime",
              "type": "uint256"
            },
            {
              "internalType": "uint256",
              "name": "registeredRecipientsCount",
              "type": "uint256"
            },
            {
              "internalType": "string",
              "name": "sponsorName",
              "type": "string"
            },
            {
              "internalType": "string",
              "name": "sponsorImageUrl",
              "type": "string"
            },
            {
              "internalType": "string",
              "name": "sponsorLinkToUrl",
              "type": "string"
            },
            {
              "internalType": "address",
              "name": "currentContributor",
              "type": "address"
            },
            {
              "internalType": "uint256",
              "name": "totalAmountContributed",
              "type": "uint256"
            },
            {
              "internalType": "uint256",
              "name": "weiWinnings",
              "type": "uint256"
            },
            {
              "internalType": "uint256",
              "name": "numberOfUsersWhoClaimedWinnings",
              "type": "uint256"
            }
          ],
          "internalType": "struct EthDropBase.EthDropEvent",
          "name": "",
          "type": "tuple"
        }
      ],
      "stateMutability": "view",
      "type": "function",
      "constant": true
    },
    {
      "inputs": [
        {
          "internalType": "string",
          "name": "groupName",
          "type": "string"
        }
      ],
      "name": "createNewGroup",
      "outputs": [],
      "stateMutability": "nonpayable",
      "type": "function"
    },
    {
      "inputs": [
        {
          "internalType": "uint256",
          "name": "groupId",
          "type": "uint256"
        }
      ],
      "name": "startEvent",
      "outputs": [],
      "stateMutability": "nonpayable",
      "type": "function"
    },
    {
      "inputs": [
        {
          "internalType": "uint256",
          "name": "groupId",
          "type": "uint256"
        }
      ],
      "name": "closeEventRegistration",
      "outputs": [],
      "stateMutability": "nonpayable",
      "type": "function"
    },
    {
      "inputs": [
        {
          "internalType": "uint256",
          "name": "groupId",
          "type": "uint256"
        }
      ],
      "name": "endEvent",
      "outputs": [],
      "stateMutability": "nonpayable",
      "type": "function"
    },
    {
      "inputs": [
        {
          "internalType": "address",
          "name": "account",
          "type": "address"
        },
        {
          "internalType": "uint256",
          "name": "groupId",
          "type": "uint256"
        }
      ],
      "name": "addEligibleRecipient",
      "outputs": [],
      "stateMutability": "nonpayable",
      "type": "function"
    },
    {
      "inputs": [
        {
          "internalType": "address",
          "name": "account",
          "type": "address"
        },
        {
          "internalType": "uint256",
          "name": "groupId",
          "type": "uint256"
        }
      ],
      "name": "removeEligibleRecipient",
      "outputs": [],
      "stateMutability": "nonpayable",
      "type": "function"
    },
    {
      "inputs": [
        {
          "internalType": "address",
          "name": "account",
          "type": "address"
        },
        {
          "internalType": "uint256",
          "name": "groupId",
          "type": "uint256"
        }
      ],
      "name": "changeContributor",
      "outputs": [],
      "stateMutability": "nonpayable",
      "type": "function"
    },
    {
      "inputs": [
        {
          "internalType": "address",
          "name": "account",
          "type": "address"
        },
        {
          "internalType": "uint256",
          "name": "groupId",
          "type": "uint256"
        }
      ],
      "name": "removeContributor",
      "outputs": [],
      "stateMutability": "nonpayable",
      "type": "function"
    }
  ],
  "bytecode": "0x60806040526000600360146101000a81548160ff02191690831515021790555060056004556000600b5534801561003557600080fd5b50614c20806100456000396000f3fe60806040526004361061031a5760003560e01c80637fcb29c9116101ab578063c02b8b2c116100f7578063e513b7a911610095578063ea303f081161006f578063ea303f0814610c28578063ee41b59214610c51578063f4a02e7014610c8e578063fc5fd6e414610cb95761031a565b8063e513b7a914610ba4578063e62092be14610bcf578063e82f24e014610c0c5761031a565b8063c6e0ddfa116100d1578063c6e0ddfa14610aea578063d5f016c314610b13578063e320d5e714610b3e578063e33db42614610b675761031a565b8063c02b8b2c14610a6b578063c271e80c14610a96578063c6db509414610abf5761031a565b80639bda879611610164578063aea88a051161013e578063aea88a05146109c1578063b047fb50146109ea578063b187bd2614610a15578063b3b36bb314610a405761031a565b80639bda879614610932578063a59a69531461096f578063ab4e1945146109985761031a565b80637fcb29c9146108225780638182aaf21461084b5780638456cb591461088857806389ea642f1461089f5780639393ae37146108ca578063962ecff5146108f55761031a565b80634635509b1161026a578063674811ca11610223578063785142be116101fd578063785142be146107685780637b936ac2146107915780637d837ce5146107bc5780637fcaf666146107f95761031a565b8063674811ca146106c2578063677bd9ff146107015780636ebdec491461072a5761031a565b80634635509b1461058a5780634e0a3379146105cb5780634f1ef03c146105f457806355b57ec11461061d5780635c975abb1461065a5780635e82c1fc146106855761031a565b80632ba73c15116102d757806338f0b656116102b157806338f0b656146104bc5780633f4ba83a146104f9578063406db8431461052457806344b2983b1461054d5761031a565b80632ba73c151461044157806330bb01151461046a578063330a347b146104935761031a565b80630519ce791461031f57806306cc49221461034a5780630a0f8168146103875780630d82ffa0146103b257806315891ff4146103ef57806327d7874c14610418575b600080fd5b34801561032b57600080fd5b50610334610ce4565b60405161034191906144cc565b60405180910390f35b34801561035657600080fd5b50610371600480360381019061036c9190613fcc565b610d0a565b60405161037e91906145a6565b60405180910390f35b34801561039357600080fd5b5061039c610d37565b6040516103a991906144cc565b60405180910390f35b3480156103be57600080fd5b506103d960048036038101906103d49190613fcc565b610d5d565b6040516103e691906144cc565b60405180910390f35b3480156103fb57600080fd5b5061041660048036038101906104119190613f43565b610d9d565b005b34801561042457600080fd5b5061043f600480360381019061043a9190613f16565b610e87565b005b34801561044d57600080fd5b5061046860048036038101906104639190613f16565b610f5f565b005b34801561047657600080fd5b50610491600480360381019061048c9190613fcc565b611037565b005b34801561049f57600080fd5b506104ba60048036038101906104b59190613fcc565b611059565b005b3480156104c857600080fd5b506104e360048036038101906104de9190613fcc565b611350565b6040516104f091906145a6565b60405180910390f35b34801561050557600080fd5b5061050e61137d565b60405161051b91906145a6565b60405180910390f35b34801561053057600080fd5b5061054b60048036038101906105469190613fcc565b611422565b005b34801561055957600080fd5b50610574600480360381019061056f9190613fcc565b6115ab565b60405161058191906144e7565b60405180910390f35b34801561059657600080fd5b506105b160048036038101906105ac9190613fcc565b61164c565b6040516105c29594939291906145c1565b60405180910390f35b3480156105d757600080fd5b506105f260048036038101906105ed9190613f16565b6119cf565b005b34801561060057600080fd5b5061061b60048036038101906106169190613fcc565b611a6d565b005b34801561062957600080fd5b50610644600480360381019061063f9190613fcc565b611aa9565b6040516106519190614540565b60405180910390f35b34801561066657600080fd5b5061066f611b39565b60405161067c91906145a6565b60405180910390f35b34801561069157600080fd5b506106ac60048036038101906106a79190613f43565b611b4c565b6040516106b991906145a6565b60405180910390f35b3480156106ce57600080fd5b506106e960048036038101906106e49190613fcc565b611bd5565b6040516106f893929190614636565b60405180910390f35b34801561070d57600080fd5b5061072860048036038101906107239190613fcc565b611dcd565b005b34801561073657600080fd5b50610751600480360381019061074c9190613fcc565b611fb2565b60405161075f929190614509565b60405180910390f35b34801561077457600080fd5b5061078f600480360381019061078a9190613fcc565b6120e3565b005b34801561079d57600080fd5b506107a66122be565b6040516107b391906144cc565b60405180910390f35b3480156107c857600080fd5b506107e360048036038101906107de9190613f43565b6122e8565b6040516107f091906145a6565b60405180910390f35b34801561080557600080fd5b50610820600480360381019061081b9190613f83565b612371565b005b34801561082e57600080fd5b5061084960048036038101906108449190613f43565b61238b565b005b34801561085757600080fd5b50610872600480360381019061086d9190613f43565b6123f3565b60405161087f91906145a6565b60405180910390f35b34801561089457600080fd5b5061089d61247c565b005b3480156108ab57600080fd5b506108b46125bd565b6040516108c19190614614565b60405180910390f35b3480156108d657600080fd5b506108df61264f565b6040516108ec91906145a6565b60405180910390f35b34801561090157600080fd5b5061091c60048036038101906109179190613fcc565b6126a7565b60405161092991906145a6565b60405180910390f35b34801561093e57600080fd5b5061095960048036038101906109549190613fcc565b612715565b60405161096691906144e7565b60405180910390f35b34801561097b57600080fd5b5061099660048036038101906109919190613fcc565b6127b6565b005b3480156109a457600080fd5b506109bf60048036038101906109ba9190613f43565b612890565b005b3480156109cd57600080fd5b506109e860048036038101906109e39190613ff9565b612a44565b005b3480156109f657600080fd5b506109ff612ae0565b604051610a0c91906144cc565b60405180910390f35b348015610a2157600080fd5b50610a2a612b06565b604051610a3791906145a6565b60405180910390f35b348015610a4c57600080fd5b50610a55612b1d565b604051610a6291906144cc565b60405180910390f35b348015610a7757600080fd5b50610a80612b25565b604051610a8d9190614584565b60405180910390f35b348015610aa257600080fd5b50610abd6004803603810190610ab89190613f43565b612b7d565b005b348015610acb57600080fd5b50610ad4612c12565b604051610ae19190614614565b60405180910390f35b348015610af657600080fd5b50610b116004803603810190610b0c9190613f43565b612ca0565b005b348015610b1f57600080fd5b50610b28612d08565b604051610b359190614562565b60405180910390f35b348015610b4a57600080fd5b50610b656004803603810190610b609190613f43565b612de1565b005b348015610b7357600080fd5b50610b8e6004803603810190610b899190613fcc565b612e76565b604051610b9b9190614682565b60405180910390f35b348015610bb057600080fd5b50610bb96131e2565b604051610bc691906145a6565b60405180910390f35b348015610bdb57600080fd5b50610bf66004803603810190610bf19190613f43565b61323a565b604051610c0391906145a6565b60405180910390f35b610c266004803603810190610c219190613fcc565b6132a9565b005b348015610c3457600080fd5b50610c4f6004803603810190610c4a9190613f83565b613346565b005b348015610c5d57600080fd5b50610c786004803603810190610c739190613fcc565b613690565b604051610c8591906145a6565b60405180910390f35b348015610c9a57600080fd5b50610ca36136bd565b604051610cb091906145a6565b60405180910390f35b348015610cc557600080fd5b50610cce613715565b604051610cdb91906144cc565b60405180910390f35b600260009054906101000a900473ffffffffffffffffffffffffffffffffffffffff1681565b6000600360149054906101000a900460ff1615610d2657600080fd5b610d303383611b4c565b9050919050565b600160009054906101000a900473ffffffffffffffffffffffffffffffffffffffff1681565b600060076000838152602001908152602001600020600a0160009054906101000a900473ffffffffffffffffffffffffffffffffffffffff169050919050565b80610da8338261323a565b610db157600080fd5b600360149054906101000a900460ff1615610dcb57600080fd5b60006011600084815260200190815260200160002060008573ffffffffffffffffffffffffffffffffffffffff1673ffffffffffffffffffffffffffffffffffffffff16815260200190815260200160002060006101000a81548160ff0219169083151502179055508273ffffffffffffffffffffffffffffffffffffffff167f1af6d16168d33745872119540d28858eed156c5f265206bbf1344fda39a93a3383604051610e7a91906146a4565b60405180910390a2505050565b600160009054906101000a900473ffffffffffffffffffffffffffffffffffffffff1673ffffffffffffffffffffffffffffffffffffffff163373ffffffffffffffffffffffffffffffffffffffff1614610ee157600080fd5b600073ffffffffffffffffffffffffffffffffffffffff168173ffffffffffffffffffffffffffffffffffffffff161415610f1b57600080fd5b80600160006101000a81548173ffffffffffffffffffffffffffffffffffffffff021916908373ffffffffffffffffffffffffffffffffffffffff16021790555050565b600160009054906101000a900473ffffffffffffffffffffffffffffffffffffffff1673ffffffffffffffffffffffffffffffffffffffff163373ffffffffffffffffffffffffffffffffffffffff1614610fb957600080fd5b600073ffffffffffffffffffffffffffffffffffffffff168173ffffffffffffffffffffffffffffffffffffffff161415610ff357600080fd5b80600360006101000a81548173ffffffffffffffffffffffffffffffffffffffff021916908373ffffffffffffffffffffffffffffffffffffffff16021790555050565b80611042338261323a565b61104b57600080fd5b611055338361373f565b5050565b80611064338261323a565b806110bc5750600360009054906101000a900473ffffffffffffffffffffffffffffffffffffffff1673ffffffffffffffffffffffffffffffffffffffff163373ffffffffffffffffffffffffffffffffffffffff16145b6110c557600080fd5b600360149054906101000a900460ff16156110df57600080fd5b42600760008481526020019081526020016000206005018190555060036007600084815260200190815260200160002060020160006101000a81548160ff0219169083600381111561113457611133614ac7565b5b0217905550600860008381526020019081526020016000206007600084815260200190815260200160002090806001815401808255809150506001900390600052602060002090600e02016000909190919091506000820154816000015560018201816001019080546111a6906149bd565b6111b1929190613cb5565b506002820160009054906101000a900460ff168160020160006101000a81548160ff021916908360038111156111ea576111e9614ac7565b5b021790555060038201548160030155600482015481600401556005820154816005015560068201548160060155600782018160070190805461122b906149bd565b611236929190613cb5565b50600882018160080190805461124b906149bd565b611256929190613cb5565b50600982018160090190805461126b906149bd565b611276929190613cb5565b50600a820160009054906101000a900473ffffffffffffffffffffffffffffffffffffffff1681600a0160006101000a81548173ffffffffffffffffffffffffffffffffffffffff021916908373ffffffffffffffffffffffffffffffffffffffff160217905550600b82015481600b0155600c82015481600c0155600d82015481600d015550503373ffffffffffffffffffffffffffffffffffffffff167f6f45a19e8850c727d0de9f32e0d8691324a9a74ffb4347652e6404138b1d81658360405161134491906146a4565b60405180910390a25050565b6000600360149054906101000a900460ff161561136c57600080fd5b61137633836122e8565b9050919050565b6000600160009054906101000a900473ffffffffffffffffffffffffffffffffffffffff1673ffffffffffffffffffffffffffffffffffffffff163373ffffffffffffffffffffffffffffffffffffffff16146113d957600080fd5b600360149054906101000a900460ff166113f257600080fd5b6000600360146101000a81548160ff021916908315150217905550600360149054906101000a900460ff16905090565b8061142d3382611b4c565b61143657600080fd5b600360149054906101000a900460ff161561145057600080fd5b60016014600084815260200190815260200160002060003373ffffffffffffffffffffffffffffffffffffffff1673ffffffffffffffffffffffffffffffffffffffff16815260200190815260200160002060006101000a81548160ff02191690831515021790555060156000838152602001908152602001600020339080600181540180825580915050600190039060005260206000200160009091909190916101000a81548173ffffffffffffffffffffffffffffffffffffffff021916908373ffffffffffffffffffffffffffffffffffffffff16021790555060076000838152602001908152602001600020600601600081548092919061155490614a20565b91905055503373ffffffffffffffffffffffffffffffffffffffff167f0695e999be8100bdb5bee8612337296508d527eae78c65b8f170eacb5a3b439d8360405161159f91906146a4565b60405180910390a25050565b60606015600083815260200190815260200160002080548060200260200160405190810160405280929190818152602001828054801561164057602002820191906000526020600020905b8160009054906101000a900473ffffffffffffffffffffffffffffffffffffffff1673ffffffffffffffffffffffffffffffffffffffff16815260200190600101908083116115f6575b50505050509050919050565b60008060008060008060076000888152602001908152602001600020604051806101c00160405290816000820154815260200160018201805461168e906149bd565b80601f01602080910402602001604051908101604052809291908181526020018280546116ba906149bd565b80156117075780601f106116dc57610100808354040283529160200191611707565b820191906000526020600020905b8154815290600101906020018083116116ea57829003601f168201915b505050505081526020016002820160009054906101000a900460ff16600381111561173557611734614ac7565b5b600381111561174757611746614ac7565b5b815260200160038201548152602001600482015481526020016005820154815260200160068201548152602001600782018054611783906149bd565b80601f01602080910402602001604051908101604052809291908181526020018280546117af906149bd565b80156117fc5780601f106117d1576101008083540402835291602001916117fc565b820191906000526020600020905b8154815290600101906020018083116117df57829003601f168201915b50505050508152602001600882018054611815906149bd565b80601f0160208091040260200160405190810160405280929190818152602001828054611841906149bd565b801561188e5780601f106118635761010080835404028352916020019161188e565b820191906000526020600020905b81548152906001019060200180831161187157829003601f168201915b505050505081526020016009820180546118a7906149bd565b80601f01602080910402602001604051908101604052809291908181526020018280546118d3906149bd565b80156119205780601f106118f557610100808354040283529160200191611920565b820191906000526020600020905b81548152906001019060200180831161190357829003601f168201915b50505050508152602001600a820160009054906101000a900473ffffffffffffffffffffffffffffffffffffffff1673ffffffffffffffffffffffffffffffffffffffff1673ffffffffffffffffffffffffffffffffffffffff168152602001600b8201548152602001600c8201548152602001600d82015481525050905080604001518160c00151826101600151836101800151846101a00151955095509550955095505091939590929450565b600160009054906101000a900473ffffffffffffffffffffffffffffffffffffffff1673ffffffffffffffffffffffffffffffffffffffff163373ffffffffffffffffffffffffffffffffffffffff1614611a2957600080fd5b80600260006101000a81548173ffffffffffffffffffffffffffffffffffffffff021916908373ffffffffffffffffffffffffffffffffffffffff16021790555050565b80611a7833826123f3565b611a8157600080fd5b600360149054906101000a900460ff1615611a9b57600080fd5b611aa533836138a0565b5050565b606060136000838152602001908152602001600020805480602002602001604051908101604052809291908181526020018280548015611b2d57602002820191906000526020600020906000905b82829054906101000a900460ff16151581526020019060010190602082600001049283019260010382029150808411611af75790505b50505050509050919050565b600360149054906101000a900460ff1681565b6000600360149054906101000a900460ff1615611b6857600080fd5b600115156011600084815260200190815260200160002060008573ffffffffffffffffffffffffffffffffffffffff1673ffffffffffffffffffffffffffffffffffffffff16815260200190815260200160002060009054906101000a900460ff16151514905092915050565b6060806060600760008581526020019081526020016000206007016007600086815260200190815260200160002060080160076000878152602001908152602001600020600901828054611c28906149bd565b80601f0160208091040260200160405190810160405280929190818152602001828054611c54906149bd565b8015611ca15780601f10611c7657610100808354040283529160200191611ca1565b820191906000526020600020905b815481529060010190602001808311611c8457829003601f168201915b50505050509250818054611cb4906149bd565b80601f0160208091040260200160405190810160405280929190818152602001828054611ce0906149bd565b8015611d2d5780601f10611d0257610100808354040283529160200191611d2d565b820191906000526020600020905b815481529060010190602001808311611d1057829003601f168201915b50505050509150808054611d40906149bd565b80601f0160208091040260200160405190810160405280929190818152602001828054611d6c906149bd565b8015611db95780601f10611d8e57610100808354040283529160200191611db9565b820191906000526020600020905b815481529060010190602001808311611d9c57829003601f168201915b505050505090509250925092509193909250565b80611dd833826122e8565b611de157600080fd5b813360011515600c600084815260200190815260200160002060003373ffffffffffffffffffffffffffffffffffffffff1673ffffffffffffffffffffffffffffffffffffffff16815260200190815260200160002060009054906101000a900460ff1615151415611e5257600080fd5b600360149054906101000a900460ff1615611e6c57600080fd5b6001600c600086815260200190815260200160002060003373ffffffffffffffffffffffffffffffffffffffff1673ffffffffffffffffffffffffffffffffffffffff16815260200190815260200160002060006101000a81548160ff02191690831515021790555060076000858152602001908152602001600020600d016000815480929190611efc90614a20565b91905055503373ffffffffffffffffffffffffffffffffffffffff166108fc60076000878152602001908152602001600020600c01549081150290604051600060405180830381858888f19350505050158015611f5d573d6000803e3d6000fd5b503373ffffffffffffffffffffffffffffffffffffffff167f1a31e733a172afcf46074b3106c17f0c298e226442682a03c1e99ce256139ec285604051611fa491906146a4565b60405180910390a250505050565b606080600d6000848152602001908152602001600020600f60008581526020019081526020016000208180548060200260200160405190810160405280929190818152602001828054801561205c57602002820191906000526020600020905b8160009054906101000a900473ffffffffffffffffffffffffffffffffffffffff1673ffffffffffffffffffffffffffffffffffffffff1681526020019060010190808311612012575b50505050509150808054806020026020016040519081016040528092919081815260200182805480156120d357602002820191906000526020600020906000905b82829054906101000a900460ff1615158152602001906001019060208260000104928301926001038202915080841161209d5790505b5050505050905091509150915091565b806120ee338261323a565b6120f757600080fd5b600360149054906101000a900460ff161561211157600080fd5b4260076000848152602001908152602001600020600401819055506000606460045460076000868152602001908152602001600020600b01546121549190614880565b61215e919061484f565b9050600260009054906101000a900473ffffffffffffffffffffffffffffffffffffffff1673ffffffffffffffffffffffffffffffffffffffff166108fc829081150290604051600060405180830381858888f193505050501580156121c8573d6000803e3d6000fd5b5060008160076000868152602001908152602001600020600b01546121ed91906148da565b9050600760008581526020019081526020016000206006015481612211919061484f565b60076000868152602001908152602001600020600c018190555060026007600086815260200190815260200160002060020160006101000a81548160ff0219169083600381111561226557612264614ac7565b5b02179055503373ffffffffffffffffffffffffffffffffffffffff167fef898a6941c945450e9bbdad4a76fcd0f51f42f7e251fddcb1e5479ba786d5e4856040516122b091906146a4565b60405180910390a250505050565b6000600260009054906101000a900473ffffffffffffffffffffffffffffffffffffffff16905090565b6000600360149054906101000a900460ff161561230457600080fd5b600115156014600084815260200190815260200160002060008573ffffffffffffffffffffffffffffffffffffffff1673ffffffffffffffffffffffffffffffffffffffff16815260200190815260200160002060009054906101000a900460ff16151514905092915050565b8060009080519060200190612387929190613d42565b5050565b600360009054906101000a900473ffffffffffffffffffffffffffffffffffffffff1673ffffffffffffffffffffffffffffffffffffffff163373ffffffffffffffffffffffffffffffffffffffff16146123e557600080fd5b6123ef82826139b1565b5050565b6000600360149054906101000a900460ff161561240f57600080fd5b600115156010600084815260200190815260200160002060008573ffffffffffffffffffffffffffffffffffffffff1673ffffffffffffffffffffffffffffffffffffffff16815260200190815260200160002060009054906101000a900460ff16151514905092915050565b600360009054906101000a900473ffffffffffffffffffffffffffffffffffffffff1673ffffffffffffffffffffffffffffffffffffffff163373ffffffffffffffffffffffffffffffffffffffff1614806125255750600160009054906101000a900473ffffffffffffffffffffffffffffffffffffffff1673ffffffffffffffffffffffffffffffffffffffff163373ffffffffffffffffffffffffffffffffffffffff16145b8061257d5750600260009054906101000a900473ffffffffffffffffffffffffffffffffffffffff1673ffffffffffffffffffffffffffffffffffffffff163373ffffffffffffffffffffffffffffffffffffffff16145b61258657600080fd5b600360149054906101000a900460ff16156125a057600080fd5b6001600360146101000a81548160ff021916908315150217905550565b6060600080546125cc906149bd565b80601f01602080910402602001604051908101604052809291908181526020018280546125f8906149bd565b80156126455780601f1061261a57610100808354040283529160200191612645565b820191906000526020600020905b81548152906001019060200180831161262857829003601f168201915b5050505050905090565b6000600260009054906101000a900473ffffffffffffffffffffffffffffffffffffffff1673ffffffffffffffffffffffffffffffffffffffff163373ffffffffffffffffffffffffffffffffffffffff1614905090565b6000600115156009600084815260200190815260200160002060003373ffffffffffffffffffffffffffffffffffffffff1673ffffffffffffffffffffffffffffffffffffffff16815260200190815260200160002060009054906101000a900460ff161515149050919050565b6060601260008381526020019081526020016000208054806020026020016040519081016040528092919081815260200182805480156127aa57602002820191906000526020600020905b8160009054906101000a900473ffffffffffffffffffffffffffffffffffffffff1673ffffffffffffffffffffffffffffffffffffffff1681526020019060010190808311612760575b50505050509050919050565b806127c1338261323a565b6127ca57600080fd5b600360149054906101000a900460ff16156127e457600080fd5b60016007600084815260200190815260200160002060020160006101000a81548160ff0219169083600381111561281e5761281d614ac7565b5b02179055504260076000848152602001908152602001600020600301819055503373ffffffffffffffffffffffffffffffffffffffff167ff77c6f27499b698205f54058c2914a340e1300c2bc0d9a819e7aebfbaabbbb938360405161288491906146a4565b60405180910390a25050565b600360149054906101000a900460ff16156128aa57600080fd5b806128b5338261323a565b6128be57600080fd5b60016011600084815260200190815260200160002060008573ffffffffffffffffffffffffffffffffffffffff1673ffffffffffffffffffffffffffffffffffffffff16815260200190815260200160002060006101000a81548160ff02191690831515021790555060126000838152602001908152602001600020839080600181540180825580915050600190039060005260206000200160009091909190916101000a81548173ffffffffffffffffffffffffffffffffffffffff021916908373ffffffffffffffffffffffffffffffffffffffff16021790555060136000838152602001908152602001600020600190806001815401808255809150506001900390600052602060002090602091828204019190069091909190916101000a81548160ff0219169083151502179055508273ffffffffffffffffffffffffffffffffffffffff167f46b8357d30dedd734a71d059a385f46b6e667bff20233f907477760207f8896583604051612a3791906146a4565b60405180910390a2505050565b83612a4f33826123f3565b612a5857600080fd5b83600760008781526020019081526020016000206007019080519060200190612a82929190613d42565b5082600760008781526020019081526020016000206008019080519060200190612aad929190613d42565b5081600760008781526020019081526020016000206009019080519060200190612ad8929190613d42565b505050505050565b600360009054906101000a900473ffffffffffffffffffffffffffffffffffffffff1681565b6000600360149054906101000a900460ff16905090565b600033905090565b60606005805480602002602001604051908101604052809291908181526020018280548015612b7357602002820191906000526020600020905b815481526020019060010190808311612b5f575b5050505050905090565b80612b88338261323a565b80612be05750600360009054906101000a900473ffffffffffffffffffffffffffffffffffffffff1673ffffffffffffffffffffffffffffffffffffffff163373ffffffffffffffffffffffffffffffffffffffff16145b612be957600080fd5b600360149054906101000a900460ff1615612c0357600080fd5b612c0d8383613ba5565b505050565b60008054612c1f906149bd565b80601f0160208091040260200160405190810160405280929190818152602001828054612c4b906149bd565b8015612c985780601f10612c6d57610100808354040283529160200191612c98565b820191906000526020600020905b815481529060010190602001808311612c7b57829003601f168201915b505050505081565b600360009054906101000a900473ffffffffffffffffffffffffffffffffffffffff1673ffffffffffffffffffffffffffffffffffffffff163373ffffffffffffffffffffffffffffffffffffffff1614612cfa57600080fd5b612d04828261373f565b5050565b60606006805480602002602001604051908101604052809291908181526020016000905b82821015612dd8578382906000526020600020018054612d4b906149bd565b80601f0160208091040260200160405190810160405280929190818152602001828054612d77906149bd565b8015612dc45780601f10612d9957610100808354040283529160200191612dc4565b820191906000526020600020905b815481529060010190602001808311612da757829003601f168201915b505050505081526020019060010190612d2c565b50505050905090565b80612dec338261323a565b80612e445750600360009054906101000a900473ffffffffffffffffffffffffffffffffffffffff1673ffffffffffffffffffffffffffffffffffffffff163373ffffffffffffffffffffffffffffffffffffffff16145b612e4d57600080fd5b600360149054906101000a900460ff1615612e6757600080fd5b612e7183836138a0565b505050565b612e7e613dc8565b81612e89338261323a565b612e9257600080fd5b60076000848152602001908152602001600020604051806101c001604052908160008201548152602001600182018054612ecb906149bd565b80601f0160208091040260200160405190810160405280929190818152602001828054612ef7906149bd565b8015612f445780601f10612f1957610100808354040283529160200191612f44565b820191906000526020600020905b815481529060010190602001808311612f2757829003601f168201915b505050505081526020016002820160009054906101000a900460ff166003811115612f7257612f71614ac7565b5b6003811115612f8457612f83614ac7565b5b815260200160038201548152602001600482015481526020016005820154815260200160068201548152602001600782018054612fc0906149bd565b80601f0160208091040260200160405190810160405280929190818152602001828054612fec906149bd565b80156130395780601f1061300e57610100808354040283529160200191613039565b820191906000526020600020905b81548152906001019060200180831161301c57829003601f168201915b50505050508152602001600882018054613052906149bd565b80601f016020809104026020016040519081016040528092919081815260200182805461307e906149bd565b80156130cb5780601f106130a0576101008083540402835291602001916130cb565b820191906000526020600020905b8154815290600101906020018083116130ae57829003601f168201915b505050505081526020016009820180546130e4906149bd565b80601f0160208091040260200160405190810160405280929190818152602001828054613110906149bd565b801561315d5780601f106131325761010080835404028352916020019161315d565b820191906000526020600020905b81548152906001019060200180831161314057829003601f168201915b50505050508152602001600a820160009054906101000a900473ffffffffffffffffffffffffffffffffffffffff1673ffffffffffffffffffffffffffffffffffffffff1673ffffffffffffffffffffffffffffffffffffffff168152602001600b8201548152602001600c8201548152602001600d82015481525050915050919050565b6000600160009054906101000a900473ffffffffffffffffffffffffffffffffffffffff1673ffffffffffffffffffffffffffffffffffffffff163373ffffffffffffffffffffffffffffffffffffffff1614905090565b6000600115156009600084815260200190815260200160002060008573ffffffffffffffffffffffffffffffffffffffff1673ffffffffffffffffffffffffffffffffffffffff16815260200190815260200160002060009054906101000a900460ff16151514905092915050565b806132b433826123f3565b6132bd57600080fd5b600360149054906101000a900460ff16156132d757600080fd5b3460076000848152602001908152602001600020600b01819055503373ffffffffffffffffffffffffffffffffffffffff167f5dc1fe5ab986a852c4eda8e8bb94247d13307065c593fb83f1a09be273679382833460405161333a9291906146bf565b60405180910390a25050565b600360009054906101000a900473ffffffffffffffffffffffffffffffffffffffff1673ffffffffffffffffffffffffffffffffffffffff163373ffffffffffffffffffffffffffffffffffffffff16146133a057600080fd5b600360149054906101000a900460ff16156133ba57600080fd5b6000434060001c90506000604051806101c00160405280838152602001848152602001600060038111156133f1576133f0614ac7565b5b815260200142815260200142815260200142815260200160008152602001604051806020016040528060008152508152602001604051806020016040528060008152508152602001604051806020016040528060008152508152602001600073ffffffffffffffffffffffffffffffffffffffff16815260200160008152602001600081526020016000815250905080600760008481526020019081526020016000206000820151816000015560208201518160010190805190602001906134ba929190613d42565b5060408201518160020160006101000a81548160ff021916908360038111156134e6576134e5614ac7565b5b0217905550606082015181600301556080820151816004015560a0820151816005015560c0820151816006015560e082015181600701908051906020019061352f929190613d42565b5061010082015181600801908051906020019061354d929190613d42565b5061012082015181600901908051906020019061356b929190613d42565b5061014082015181600a0160006101000a81548173ffffffffffffffffffffffffffffffffffffffff021916908373ffffffffffffffffffffffffffffffffffffffff16021790555061016082015181600b015561018082015181600c01556101a082015181600d0155905050600542908060018154018082558091505060019003906000526020600020016000909190919091505560068390806001815401808255809150506001900390600052602060002001600090919091909150908051906020019061363c929190613d42565b503373ffffffffffffffffffffffffffffffffffffffff167f3482e3d6d38a18835a6ad59afad8098300ce9f907925e4be71126d7b43dc803d8360405161368391906146a4565b60405180910390a2505050565b6000600360149054906101000a900460ff16156136ac57600080fd5b6136b633836123f3565b9050919050565b6000600360009054906101000a900473ffffffffffffffffffffffffffffffffffffffff1673ffffffffffffffffffffffffffffffffffffffff163373ffffffffffffffffffffffffffffffffffffffff1614905090565b6000600360009054906101000a900473ffffffffffffffffffffffffffffffffffffffff16905090565b60006009600083815260200190815260200160002060008473ffffffffffffffffffffffffffffffffffffffff1673ffffffffffffffffffffffffffffffffffffffff16815260200190815260200160002060006101000a81548160ff0219169083151502179055506000600a600083815260200190815260200160002060008473ffffffffffffffffffffffffffffffffffffffff1673ffffffffffffffffffffffffffffffffffffffff1681526020019081526020016000205490506000600f6000848152602001908152602001600020828154811061382457613823614b25565b5b90600052602060002090602091828204019190066101000a81548160ff0219169083151502179055508273ffffffffffffffffffffffffffffffffffffffff167fa0726c73cf6ad18ddb855ba65d1ddd4d7fd37d320f4e52f6b154c13d386f5fd98360405161389391906146a4565b60405180910390a2505050565b60006010600083815260200190815260200160002060008473ffffffffffffffffffffffffffffffffffffffff1673ffffffffffffffffffffffffffffffffffffffff16815260200190815260200160002060006101000a81548160ff021916908315150217905550600060076000838152602001908152602001600020600a0160006101000a81548173ffffffffffffffffffffffffffffffffffffffff021916908373ffffffffffffffffffffffffffffffffffffffff1602179055508173ffffffffffffffffffffffffffffffffffffffff167fda111d7eb5d5b2033c4ffad00cd7cd42f45af2813bee1a69e65f26d90ea15f0b826040516139a591906146a4565b60405180910390a25050565b60016009600083815260200190815260200160002060008473ffffffffffffffffffffffffffffffffffffffff1673ffffffffffffffffffffffffffffffffffffffff16815260200190815260200160002060006101000a81548160ff021916908315150217905550600b54600a600083815260200190815260200160002060008473ffffffffffffffffffffffffffffffffffffffff1673ffffffffffffffffffffffffffffffffffffffff16815260200190815260200160002081905550600b6000815480929190613a8490614a20565b9190505550600d6000828152602001908152602001600020829080600181540180825580915050600190039060005260206000200160009091909190916101000a81548173ffffffffffffffffffffffffffffffffffffffff021916908373ffffffffffffffffffffffffffffffffffffffff160217905550600f6000828152602001908152602001600020600190806001815401808255809150506001900390600052602060002090602091828204019190069091909190916101000a81548160ff0219169083151502179055508173ffffffffffffffffffffffffffffffffffffffff167f723c2b747529ca7f5eb53a74808f4a8b9bf264f0fc450fd904900151da74548a82604051613b9991906146a4565b60405180910390a25050565b60016010600083815260200190815260200160002060008473ffffffffffffffffffffffffffffffffffffffff1673ffffffffffffffffffffffffffffffffffffffff16815260200190815260200160002060006101000a81548160ff0219169083151502179055508160076000838152602001908152602001600020600a0160006101000a81548173ffffffffffffffffffffffffffffffffffffffff021916908373ffffffffffffffffffffffffffffffffffffffff1602179055508173ffffffffffffffffffffffffffffffffffffffff167f5fd6d0b7e707fe344bd2a1887f9d0eeea8bfcac6f339ba4200e74f0647f101c082604051613ca991906146a4565b60405180910390a25050565b828054613cc1906149bd565b90600052602060002090601f016020900481019282613ce35760008555613d31565b82601f10613cf45780548555613d31565b82800160010185558215613d3157600052602060002091601f016020900482015b82811115613d30578254825591600101919060010190613d15565b5b509050613d3e9190613e5f565b5090565b828054613d4e906149bd565b90600052602060002090601f016020900481019282613d705760008555613db7565b82601f10613d8957805160ff1916838001178555613db7565b82800160010185558215613db7579182015b82811115613db6578251825591602001919060010190613d9b565b5b509050613dc49190613e5f565b5090565b604051806101c00160405280600081526020016060815260200160006003811115613df657613df5614ac7565b5b815260200160008152602001600081526020016000815260200160008152602001606081526020016060815260200160608152602001600073ffffffffffffffffffffffffffffffffffffffff1681526020016000815260200160008152602001600081525090565b5b80821115613e78576000816000905550600101613e60565b5090565b6000613e8f613e8a8461470d565b6146e8565b905082815260208101848484011115613eab57613eaa614b88565b5b613eb684828561497b565b509392505050565b600081359050613ecd81614bbc565b92915050565b600082601f830112613ee857613ee7614b83565b5b8135613ef8848260208601613e7c565b91505092915050565b600081359050613f1081614bd3565b92915050565b600060208284031215613f2c57613f2b614b92565b5b6000613f3a84828501613ebe565b91505092915050565b60008060408385031215613f5a57613f59614b92565b5b6000613f6885828601613ebe565b9250506020613f7985828601613f01565b9150509250929050565b600060208284031215613f9957613f98614b92565b5b600082013567ffffffffffffffff811115613fb757613fb6614b8d565b5b613fc384828501613ed3565b91505092915050565b600060208284031215613fe257613fe1614b92565b5b6000613ff084828501613f01565b91505092915050565b6000806000806080858703121561401357614012614b92565b5b600061402187828801613f01565b945050602085013567ffffffffffffffff81111561404257614041614b8d565b5b61404e87828801613ed3565b935050604085013567ffffffffffffffff81111561406f5761406e614b8d565b5b61407b87828801613ed3565b925050606085013567ffffffffffffffff81111561409c5761409b614b8d565b5b6140a887828801613ed3565b91505092959194509250565b60006140c08383614110565b60208301905092915050565b60006140d883836142bd565b60208301905092915050565b60006140f083836142f9565b905092915050565b600061410483836144ae565b60208301905092915050565b6141198161490e565b82525050565b6141288161490e565b82525050565b60006141398261477e565b61414381856147e9565b935061414e8361473e565b8060005b8381101561417f57815161416688826140b4565b9750614171836147b5565b925050600181019050614152565b5085935050505092915050565b600061419782614789565b6141a181856147fa565b93506141ac8361474e565b8060005b838110156141dd5781516141c488826140cc565b97506141cf836147c2565b9250506001810190506141b0565b5085935050505092915050565b60006141f582614794565b6141ff818561480b565b9350836020820285016142118561475e565b8060005b8581101561424d578484038952815161422e85826140e4565b9450614239836147cf565b925060208a01995050600181019050614215565b50829750879550505050505092915050565b600061426a8261479f565b614274818561481c565b935061427f8361476e565b8060005b838110156142b057815161429788826140f8565b97506142a2836147dc565b925050600181019050614283565b5085935050505092915050565b6142c681614920565b82525050565b6142d581614920565b82525050565b6142e481614969565b82525050565b6142f381614969565b82525050565b6000614304826147aa565b61430e818561482d565b935061431e81856020860161498a565b61432781614b97565b840191505092915050565b600061433d826147aa565b614347818561483e565b935061435781856020860161498a565b61436081614b97565b840191505092915050565b60006101c08301600083015161438460008601826144ae565b506020830151848203602086015261439c82826142f9565b91505060408301516143b160408601826142db565b5060608301516143c460608601826144ae565b5060808301516143d760808601826144ae565b5060a08301516143ea60a08601826144ae565b5060c08301516143fd60c08601826144ae565b5060e083015184820360e086015261441582826142f9565b91505061010083015184820361010086015261443182826142f9565b91505061012083015184820361012086015261444d82826142f9565b915050610140830151614464610140860182614110565b506101608301516144796101608601826144ae565b5061018083015161448e6101808601826144ae565b506101a08301516144a36101a08601826144ae565b508091505092915050565b6144b78161495f565b82525050565b6144c68161495f565b82525050565b60006020820190506144e1600083018461411f565b92915050565b60006020820190508181036000830152614501818461412e565b905092915050565b60006040820190508181036000830152614523818561412e565b90508181036020830152614537818461418c565b90509392505050565b6000602082019050818103600083015261455a818461418c565b905092915050565b6000602082019050818103600083015261457c81846141ea565b905092915050565b6000602082019050818103600083015261459e818461425f565b905092915050565b60006020820190506145bb60008301846142cc565b92915050565b600060a0820190506145d660008301886142ea565b6145e360208301876144bd565b6145f060408301866144bd565b6145fd60608301856144bd565b61460a60808301846144bd565b9695505050505050565b6000602082019050818103600083015261462e8184614332565b905092915050565b600060608201905081810360008301526146508186614332565b905081810360208301526146648185614332565b905081810360408301526146788184614332565b9050949350505050565b6000602082019050818103600083015261469c818461436b565b905092915050565b60006020820190506146b960008301846144bd565b92915050565b60006040820190506146d460008301856144bd565b6146e160208301846144bd565b9392505050565b60006146f2614703565b90506146fe82826149ef565b919050565b6000604051905090565b600067ffffffffffffffff82111561472857614727614b54565b5b61473182614b97565b9050602081019050919050565b6000819050602082019050919050565b6000819050602082019050919050565b6000819050602082019050919050565b6000819050602082019050919050565b600081519050919050565b600081519050919050565b600081519050919050565b600081519050919050565b600081519050919050565b6000602082019050919050565b6000602082019050919050565b6000602082019050919050565b6000602082019050919050565b600082825260208201905092915050565b600082825260208201905092915050565b600082825260208201905092915050565b600082825260208201905092915050565b600082825260208201905092915050565b600082825260208201905092915050565b600061485a8261495f565b91506148658361495f565b92508261487557614874614a98565b5b828204905092915050565b600061488b8261495f565b91506148968361495f565b9250817fffffffffffffffffffffffffffffffffffffffffffffffffffffffffffffffff04831182151516156148cf576148ce614a69565b5b828202905092915050565b60006148e58261495f565b91506148f08361495f565b92508282101561490357614902614a69565b5b828203905092915050565b60006149198261493f565b9050919050565b60008115159050919050565b600081905061493a82614ba8565b919050565b600073ffffffffffffffffffffffffffffffffffffffff82169050919050565b6000819050919050565b60006149748261492c565b9050919050565b82818337600083830152505050565b60005b838110156149a857808201518184015260208101905061498d565b838111156149b7576000848401525b50505050565b600060028204905060018216806149d557607f821691505b602082108114156149e9576149e8614af6565b5b50919050565b6149f882614b97565b810181811067ffffffffffffffff82111715614a1757614a16614b54565b5b80604052505050565b6000614a2b8261495f565b91507fffffffffffffffffffffffffffffffffffffffffffffffffffffffffffffffff821415614a5e57614a5d614a69565b5b600182019050919050565b7f4e487b7100000000000000000000000000000000000000000000000000000000600052601160045260246000fd5b7f4e487b7100000000000000000000000000000000000000000000000000000000600052601260045260246000fd5b7f4e487b7100000000000000000000000000000000000000000000000000000000600052602160045260246000fd5b7f4e487b7100000000000000000000000000000000000000000000000000000000600052602260045260246000fd5b7f4e487b7100000000000000000000000000000000000000000000000000000000600052603260045260246000fd5b7f4e487b7100000000000000000000000000000000000000000000000000000000600052604160045260246000fd5b600080fd5b600080fd5b600080fd5b600080fd5b6000601f19601f8301169050919050565b60048110614bb957614bb8614ac7565b5b50565b614bc58161490e565b8114614bd057600080fd5b50565b614bdc8161495f565b8114614be757600080fd5b5056fea2646970667358221220a1658c7155aa37eb4f3274c7554868677549c6215387a699edaab337b1dc26f364736f6c63430008060033",
  "immutableReferences": {},
  "source": "// SPDX-License-Identifier: MIT\npragma solidity ^0.8.0;\n\nimport \"./ContributorManager.sol\";\n\ncontract AdminsManager is ContributorManager {\n\n    event AdminAdded(address indexed account, uint256 groupId);\n    event AdminRemoved(address indexed account, uint256 groupId);\n\n    event GroupCreated(address indexed creator, uint256 groupId);\n    event EventStarted(address indexed startedBy, uint256 groupId);\n    event RegistrationEnded(address indexed endedBy, uint256 groupId);\n    event EventEnded(address indexed endedBy, uint256 groupId);\n\n    event CalculatedPot(\n        uint256 registeredRecipientCount,\n        uint256 winningsPerRecipient\n    );\n\n    constructor() {}\n\n    modifier onlyAdmins(uint256 groupId) {\n        require(isAdmin(msg.sender, groupId));\n        _;\n    }\n\n    function isAdmin(address account, uint256 groupId)\n        public\n        view\n        returns (bool)\n    {\n        return admins[groupId][account] == true;\n    }\n\n    function amIAdmin(uint groupId) external view returns (bool) {\n        return admins[groupId][msg.sender] == true;\n    }\n\n    function getAdminsForGroup(uint256 groupId) external view returns (address[] memory, bool[] memory) {\n        return (adminAddresses[groupId], adminEnabled[groupId]);\n    }\n\n    modifier onlyAdminsOrCOO(uint256 groupId) {\n        require(isAdmin(msg.sender, groupId) || msg.sender == cooAddress);\n        _;\n    }\n\n    // TODO - allow COO to give \"admin-granting power\" to other admins\n    function addAdmin(address account, uint256 groupId) external onlyCOO {\n        _addAdmin(account, groupId);\n    }\n\n    function removeAdmin(address account, uint256 groupId) external onlyCOO {\n        _removeAdmin(account, groupId);\n    }\n\n    function renounceAdmin(uint256 groupId) public onlyAdmins(groupId) {\n        _removeAdmin(msg.sender, groupId);\n    }\n\n    function _addAdmin(address account, uint256 groupId) internal {\n        admins[groupId][account] = true;\n\n        adminAddressToIndex[groupId][account] = adminAddressToIndexNextIndex;\n        adminAddressToIndexNextIndex++;\n\n        adminAddresses[groupId].push(account);\n        adminEnabled[groupId].push(true);\n        // TODO - adminNames\n\n        emit AdminAdded(account, groupId);\n    }\n\n    function _removeAdmin(address account, uint256 groupId) internal {\n        admins[groupId][account] = false;\n\n        uint index = adminAddressToIndex[groupId][account];\n        adminEnabled[groupId][index] = false;\n\n        emit AdminRemoved(account, groupId);\n    }\n\n    function readEventInfo(uint256 groupId)\n        external\n        view\n        onlyAdmins(groupId)\n        returns (EthDropEvent memory)\n    {\n        return currentEvents[groupId];\n    }\n\n    function createNewGroup(string memory groupName) external onlyCOO whenNotPaused {\n        uint256 newGroupId = uint256(blockhash(block.number));\n\n        EthDropEvent memory newGroup = EthDropEvent(\n            newGroupId,\n            groupName,\n            EventState.CREATED,\n            block.timestamp,\n            block.timestamp,\n            block.timestamp,\n            0,\n            \"\",\n            \"\",\n            \"\",\n            address(0),\n            0,\n            0,\n            0\n        );\n\n        currentEvents[newGroupId] = newGroup;\n\n        listOfGroupIds.push(block.timestamp);\n        listOfGroupNames.push(groupName);\n\n        emit GroupCreated(msg.sender, newGroupId);\n    }\n\n    function startEvent(uint256 groupId)\n        external\n        onlyAdmins(groupId)\n        whenNotPaused\n    {\n        currentEvents[groupId].currentState = EventState.REGISTRATION;\n        currentEvents[groupId].startTime = block.timestamp;\n\n        emit EventStarted(msg.sender, groupId);\n    }\n\n    function closeEventRegistration(uint256 groupId)\n        external\n        onlyAdmins(groupId)\n        whenNotPaused\n    {\n        currentEvents[groupId].registrationEndTime = block.timestamp;\n\n\n        uint devCutWei = currentEvents[groupId].totalAmountContributed * devCutPercentage / 100;\n\n        // Transfer dev cut to cfo\n        payable(cfoAddress).transfer(devCutWei);\n\n        // pot is the amount for recipients to share\n        uint pot = currentEvents[groupId].totalAmountContributed - devCutWei;\n\n        // each recipient's winnings is the \"weiWinnings\"\n        currentEvents[groupId].weiWinnings = pot / currentEvents[groupId].registeredRecipientsCount;\n\n        // uint256[] memory potShares = new uint256[](\n        //     currentEvents[groupId].registeredRecipientsCount\n        // );\n\n        // for (\n        //     uint256 i;\n        //     i < currentEvents[groupId].registeredRecipientsCount;\n        //     i++\n        // ) {\n        //     potShares[i] = 1;\n        // }\n\n        // pot[groupId] = new PaymentSplitter(\n        //     registeredRecipientsArray[groupId],\n        //     potShares\n        // );\n\n        currentEvents[groupId].currentState = EventState.CLAIM_WINNINGS;\n\n        // uint256 winningsPerRecipient = address(this).balance /\n        //     pot[groupId].totalShares();\n\n        // emit CalculatedPot(\n        //     currentEvents[groupId].registeredRecipientsCount,\n        //     winningsPerRecipient\n        // );\n\n        emit RegistrationEnded(msg.sender, groupId);\n    }\n\n    function endEvent(uint256 groupId)\n        external\n        onlyAdminsOrCOO(groupId)\n        whenNotPaused\n    {\n        currentEvents[groupId].endTime = block.timestamp;\n\n        currentEvents[groupId].currentState = EventState.ENDED;\n\n        pastEvents[groupId].push(currentEvents[groupId]);\n\n        emit EventEnded(msg.sender, groupId);\n    }\n\n    function addEligibleRecipient(address account, uint256 groupId)\n        external\n        whenNotPaused\n        onlyAdmins(groupId)\n    {\n        eligibleRecipients[groupId][account] = true;\n\n        eligibleRecipientsArray[groupId].push(account);\n        eligibleRecipientsEligibilityIsEnabled[groupId].push(true);\n\n        emit EligibleRecipientAdded(account, groupId);\n    }\n\n    function removeEligibleRecipient(address account, uint256 groupId)\n        external\n        onlyAdmins(groupId)\n        whenNotPaused\n    {\n        eligibleRecipients[groupId][account] = false;\n        emit EligibleRecipientRemoved(account, groupId);\n    }\n\n    function changeContributor(address account, uint256 groupId)\n        external\n        onlyAdminsOrCOO(groupId)\n        whenNotPaused\n    {\n        _changeContributor(account, groupId);\n    }\n\n    function removeContributor(address account, uint256 groupId)\n        external\n        onlyAdminsOrCOO(groupId)\n        whenNotPaused\n    {\n        _removeContributor(account, groupId);\n    }\n}",
  "sourcePath": "/Users/jim/Git-Projects/EthDrop/contracts/roles/AdminsManager.sol",
  "compiler": {
    "name": "solc",
    "version": "0.8.6+commit.11564f7e.Emscripten.clang"
  },
  "schemaVersion": "3.4.1",
  "updatedAt": "2021-07-24T17:16:41.057Z",
  "networkType": "ethereum",
  "devdoc": {
    "kind": "dev",
    "methods": {
      "pause()": {
        "details": "Called by any \"C-level\" role to pause the contract. Used only when  a bug or exploit is detected and we need to limit damage."
      },
      "setCEO(address)": {
        "details": "Assigns a new address to act as the CEO. Only available to the current CEO.",
        "params": {
          "_newCEO": "The address of the new CEO"
        }
      },
      "setCFO(address)": {
        "details": "Assigns a new address to act as the CFO. Only available to the current CEO.",
        "params": {
          "_newCFO": "The address of the new CFO"
        }
      },
      "setCOO(address)": {
        "details": "Assigns a new address to act as the COO. Only available to the current CEO.",
        "params": {
          "_newCOO": "The address of the new COO"
        }
      },
      "unpause()": {
        "details": "Unpauses the smart contract. Can only be called by the CEO, since  one reason we may pause the contract is when CFO or COO accounts are  compromised."
      }
    },
    "version": 1
  },
  "userdoc": {
    "kind": "user",
    "methods": {
      "unpause()": {
        "notice": "This is public rather than external so it can be called by  derived contracts."
      }
    },
    "version": 1
  }
}