{
  "contractName": "AdminsManager",
  "abi": [
    {
      "inputs": [],
      "stateMutability": "nonpayable",
      "type": "constructor"
    },
    {
      "anonymous": false,
      "inputs": [
        {
          "indexed": false,
          "internalType": "uint256",
          "name": "groupId",
          "type": "uint256"
        }
      ],
      "name": "AdminAdded",
      "type": "event"
    },
    {
      "anonymous": false,
      "inputs": [
        {
          "indexed": false,
          "internalType": "uint256",
          "name": "groupId",
          "type": "uint256"
        }
      ],
      "name": "AdminRemoved",
      "type": "event"
    },
    {
      "anonymous": false,
      "inputs": [
        {
          "indexed": false,
          "internalType": "bool",
          "name": "isPaused",
          "type": "bool"
        }
      ],
      "name": "AppPaused",
      "type": "event"
    },
    {
      "anonymous": false,
      "inputs": [
        {
          "indexed": false,
          "internalType": "uint256",
          "name": "registeredRecipientCount",
          "type": "uint256"
        },
        {
          "indexed": false,
          "internalType": "uint256",
          "name": "winningsPerRecipient",
          "type": "uint256"
        }
      ],
      "name": "CalculatedPot",
      "type": "event"
    },
    {
      "anonymous": false,
      "inputs": [],
      "name": "CfoUpdated",
      "type": "event"
    },
    {
      "anonymous": false,
      "inputs": [
        {
          "indexed": false,
          "internalType": "address",
          "name": "newContract",
          "type": "address"
        }
      ],
      "name": "ContractUpgrade",
      "type": "event"
    },
    {
      "anonymous": false,
      "inputs": [
        {
          "indexed": true,
          "internalType": "address",
          "name": "account",
          "type": "address"
        },
        {
          "indexed": false,
          "internalType": "uint256",
          "name": "groupId",
          "type": "uint256"
        },
        {
          "indexed": false,
          "internalType": "uint256",
          "name": "amount",
          "type": "uint256"
        }
      ],
      "name": "ContributionMade",
      "type": "event"
    },
    {
      "anonymous": false,
      "inputs": [
        {
          "indexed": true,
          "internalType": "address",
          "name": "account",
          "type": "address"
        },
        {
          "indexed": false,
          "internalType": "uint256",
          "name": "groupId",
          "type": "uint256"
        }
      ],
      "name": "ContributorAdded",
      "type": "event"
    },
    {
      "anonymous": false,
      "inputs": [
        {
          "indexed": false,
          "internalType": "uint256",
          "name": "groupId",
          "type": "uint256"
        },
        {
          "indexed": false,
          "internalType": "address",
          "name": "newContributor",
          "type": "address"
        }
      ],
      "name": "ContributorAddressUpdated",
      "type": "event"
    },
    {
      "anonymous": false,
      "inputs": [
        {
          "indexed": false,
          "internalType": "uint256",
          "name": "groupId",
          "type": "uint256"
        },
        {
          "indexed": false,
          "internalType": "string",
          "name": "sponsorName",
          "type": "string"
        },
        {
          "indexed": false,
          "internalType": "string",
          "name": "imgUrl",
          "type": "string"
        },
        {
          "indexed": false,
          "internalType": "string",
          "name": "imgLinkToUrl",
          "type": "string"
        }
      ],
      "name": "ContributorInfoUpdated",
      "type": "event"
    },
    {
      "anonymous": false,
      "inputs": [
        {
          "indexed": true,
          "internalType": "address",
          "name": "account",
          "type": "address"
        },
        {
          "indexed": false,
          "internalType": "uint256",
          "name": "groupId",
          "type": "uint256"
        }
      ],
      "name": "ContributorRemoved",
      "type": "event"
    },
    {
      "anonymous": false,
      "inputs": [],
      "name": "CooUpdated",
      "type": "event"
    },
    {
      "anonymous": false,
      "inputs": [
        {
          "indexed": true,
          "internalType": "address",
          "name": "account",
          "type": "address"
        },
        {
          "indexed": false,
          "internalType": "uint256",
          "name": "groupId",
          "type": "uint256"
        }
      ],
      "name": "EligibleRecipientAdded",
      "type": "event"
    },
    {
      "anonymous": false,
      "inputs": [
        {
          "indexed": true,
          "internalType": "address",
          "name": "account",
          "type": "address"
        },
        {
          "indexed": false,
          "internalType": "uint256",
          "name": "groupId",
          "type": "uint256"
        }
      ],
      "name": "EligibleRecipientRemoved",
      "type": "event"
    },
    {
      "anonymous": false,
      "inputs": [],
      "name": "EventClose",
      "type": "event"
    },
    {
      "anonymous": false,
      "inputs": [
        {
          "indexed": true,
          "internalType": "address",
          "name": "endedBy",
          "type": "address"
        },
        {
          "indexed": false,
          "internalType": "uint256",
          "name": "groupId",
          "type": "uint256"
        }
      ],
      "name": "EventEnded",
      "type": "event"
    },
    {
      "anonymous": false,
      "inputs": [
        {
          "indexed": true,
          "internalType": "address",
          "name": "startedBy",
          "type": "address"
        },
        {
          "indexed": false,
          "internalType": "uint256",
          "name": "groupId",
          "type": "uint256"
        }
      ],
      "name": "EventStarted",
      "type": "event"
    },
    {
      "anonymous": false,
      "inputs": [
        {
          "indexed": false,
          "internalType": "string",
          "name": "groupName",
          "type": "string"
        },
        {
          "indexed": false,
          "internalType": "uint256",
          "name": "groupId",
          "type": "uint256"
        }
      ],
      "name": "GroupCreated",
      "type": "event"
    },
    {
      "anonymous": false,
      "inputs": [
        {
          "indexed": true,
          "internalType": "address",
          "name": "account",
          "type": "address"
        },
        {
          "indexed": false,
          "internalType": "uint256",
          "name": "groupId",
          "type": "uint256"
        }
      ],
      "name": "RecipientRegistered",
      "type": "event"
    },
    {
      "anonymous": false,
      "inputs": [
        {
          "indexed": true,
          "internalType": "address",
          "name": "endedBy",
          "type": "address"
        },
        {
          "indexed": false,
          "internalType": "uint256",
          "name": "groupId",
          "type": "uint256"
        }
      ],
      "name": "RegistrationEnded",
      "type": "event"
    },
    {
      "anonymous": false,
      "inputs": [],
      "name": "RegistrationOpen",
      "type": "event"
    },
    {
      "anonymous": false,
      "inputs": [
        {
          "indexed": false,
          "internalType": "address",
          "name": "from",
          "type": "address"
        },
        {
          "indexed": false,
          "internalType": "address",
          "name": "to",
          "type": "address"
        }
      ],
      "name": "Transfer",
      "type": "event"
    },
    {
      "anonymous": false,
      "inputs": [
        {
          "indexed": true,
          "internalType": "address",
          "name": "account",
          "type": "address"
        },
        {
          "indexed": false,
          "internalType": "uint256",
          "name": "groupId",
          "type": "uint256"
        }
      ],
      "name": "WinningsClaimed",
      "type": "event"
    },
    {
      "anonymous": false,
      "inputs": [],
      "name": "WinningsClaimingOpen",
      "type": "event"
    },
    {
      "inputs": [
        {
          "internalType": "uint256",
          "name": "groupId",
          "type": "uint256"
        }
      ],
      "name": "amIContributor",
      "outputs": [
        {
          "internalType": "bool",
          "name": "",
          "type": "bool"
        }
      ],
      "stateMutability": "view",
      "type": "function",
      "constant": true
    },
    {
      "inputs": [
        {
          "internalType": "uint256",
          "name": "groupId",
          "type": "uint256"
        }
      ],
      "name": "amIEligibleRecipient",
      "outputs": [
        {
          "internalType": "bool",
          "name": "",
          "type": "bool"
        }
      ],
      "stateMutability": "view",
      "type": "function",
      "constant": true
    },
    {
      "inputs": [
        {
          "internalType": "uint256",
          "name": "groupId",
          "type": "uint256"
        }
      ],
      "name": "amIRegisteredRecipient",
      "outputs": [
        {
          "internalType": "bool",
          "name": "",
          "type": "bool"
        }
      ],
      "stateMutability": "view",
      "type": "function",
      "constant": true
    },
    {
      "inputs": [],
      "name": "ceoAddress",
      "outputs": [
        {
          "internalType": "address",
          "name": "",
          "type": "address"
        }
      ],
      "stateMutability": "view",
      "type": "function",
      "constant": true
    },
    {
      "inputs": [],
      "name": "cfoAddress",
      "outputs": [
        {
          "internalType": "address",
          "name": "",
          "type": "address"
        }
      ],
      "stateMutability": "view",
      "type": "function",
      "constant": true
    },
    {
      "inputs": [
        {
          "internalType": "uint256",
          "name": "groupId",
          "type": "uint256"
        }
      ],
      "name": "claimWinnings",
      "outputs": [],
      "stateMutability": "nonpayable",
      "type": "function"
    },
    {
      "inputs": [
        {
          "internalType": "uint256",
          "name": "groupId",
          "type": "uint256"
        }
      ],
      "name": "contributeToPot",
      "outputs": [],
      "stateMutability": "payable",
      "type": "function",
      "payable": true
    },
    {
      "inputs": [],
      "name": "cooAddress",
      "outputs": [
        {
          "internalType": "address",
          "name": "",
          "type": "address"
        }
      ],
      "stateMutability": "view",
      "type": "function",
      "constant": true
    },
    {
      "inputs": [
        {
          "internalType": "uint256",
          "name": "groupId",
          "type": "uint256"
        }
      ],
      "name": "doIHaveClaimableWinnings",
      "outputs": [
        {
          "internalType": "bool",
          "name": "",
          "type": "bool"
        }
      ],
      "stateMutability": "view",
      "type": "function",
      "constant": true
    },
    {
      "inputs": [],
      "name": "getCFO",
      "outputs": [
        {
          "internalType": "address",
          "name": "",
          "type": "address"
        }
      ],
      "stateMutability": "view",
      "type": "function",
      "constant": true
    },
    {
      "inputs": [],
      "name": "getCOO",
      "outputs": [
        {
          "internalType": "address",
          "name": "",
          "type": "address"
        }
      ],
      "stateMutability": "view",
      "type": "function",
      "constant": true
    },
    {
      "inputs": [
        {
          "internalType": "uint256",
          "name": "groupId",
          "type": "uint256"
        }
      ],
      "name": "getContributorInfo",
      "outputs": [
        {
          "internalType": "string",
          "name": "newContributorName",
          "type": "string"
        },
        {
          "internalType": "string",
          "name": "newContributorImgUrl",
          "type": "string"
        },
        {
          "internalType": "string",
          "name": "newContributorLinkToUrl",
          "type": "string"
        }
      ],
      "stateMutability": "view",
      "type": "function",
      "constant": true
    },
    {
      "inputs": [
        {
          "internalType": "uint256",
          "name": "groupId",
          "type": "uint256"
        }
      ],
      "name": "getCurrentSponsorAddress",
      "outputs": [
        {
          "internalType": "address",
          "name": "",
          "type": "address"
        }
      ],
      "stateMutability": "view",
      "type": "function",
      "constant": true
    },
    {
      "inputs": [
        {
          "internalType": "uint256",
          "name": "groupId",
          "type": "uint256"
        }
      ],
      "name": "getEligibleRecipientAddresses",
      "outputs": [
        {
          "internalType": "address[]",
          "name": "",
          "type": "address[]"
        }
      ],
      "stateMutability": "view",
      "type": "function",
      "constant": true
    },
    {
      "inputs": [
        {
          "internalType": "uint256",
          "name": "groupId",
          "type": "uint256"
        }
      ],
      "name": "getEligibleRecipientIsEligibilityEnabled",
      "outputs": [
        {
          "internalType": "bool[]",
          "name": "",
          "type": "bool[]"
        }
      ],
      "stateMutability": "view",
      "type": "function",
      "constant": true
    },
    {
      "inputs": [
        {
          "internalType": "uint256",
          "name": "groupId",
          "type": "uint256"
        }
      ],
      "name": "getEligibleRecipientNames",
      "outputs": [
        {
          "internalType": "string[]",
          "name": "",
          "type": "string[]"
        }
      ],
      "stateMutability": "view",
      "type": "function",
      "constant": true
    },
    {
      "inputs": [
        {
          "internalType": "uint256",
          "name": "groupId",
          "type": "uint256"
        }
      ],
      "name": "getGroupEventData",
      "outputs": [
        {
          "internalType": "enum EthDropBase.EventState",
          "name": "",
          "type": "uint8"
        },
        {
          "internalType": "uint256",
          "name": "",
          "type": "uint256"
        },
        {
          "internalType": "uint256",
          "name": "",
          "type": "uint256"
        },
        {
          "internalType": "uint256",
          "name": "",
          "type": "uint256"
        },
        {
          "internalType": "uint256",
          "name": "",
          "type": "uint256"
        }
      ],
      "stateMutability": "view",
      "type": "function",
      "constant": true
    },
    {
      "inputs": [],
      "name": "getGroupIds",
      "outputs": [
        {
          "internalType": "uint256[]",
          "name": "",
          "type": "uint256[]"
        }
      ],
      "stateMutability": "view",
      "type": "function",
      "constant": true
    },
    {
      "inputs": [],
      "name": "getGroupNames",
      "outputs": [
        {
          "internalType": "string[]",
          "name": "",
          "type": "string[]"
        }
      ],
      "stateMutability": "view",
      "type": "function",
      "constant": true
    },
    {
      "inputs": [
        {
          "internalType": "uint256",
          "name": "groupId",
          "type": "uint256"
        }
      ],
      "name": "getRegisteredRecipientNames",
      "outputs": [
        {
          "internalType": "string[]",
          "name": "",
          "type": "string[]"
        }
      ],
      "stateMutability": "view",
      "type": "function",
      "constant": true
    },
    {
      "inputs": [
        {
          "internalType": "uint256",
          "name": "groupId",
          "type": "uint256"
        }
      ],
      "name": "getRegisteredRecipients",
      "outputs": [
        {
          "internalType": "address[]",
          "name": "",
          "type": "address[]"
        }
      ],
      "stateMutability": "view",
      "type": "function",
      "constant": true
    },
    {
      "inputs": [],
      "name": "getString",
      "outputs": [
        {
          "internalType": "string",
          "name": "",
          "type": "string"
        }
      ],
      "stateMutability": "view",
      "type": "function",
      "constant": true
    },
    {
      "inputs": [],
      "name": "isCEO",
      "outputs": [
        {
          "internalType": "bool",
          "name": "",
          "type": "bool"
        }
      ],
      "stateMutability": "view",
      "type": "function",
      "constant": true
    },
    {
      "inputs": [],
      "name": "isCFO",
      "outputs": [
        {
          "internalType": "bool",
          "name": "",
          "type": "bool"
        }
      ],
      "stateMutability": "view",
      "type": "function",
      "constant": true
    },
    {
      "inputs": [],
      "name": "isCOO",
      "outputs": [
        {
          "internalType": "bool",
          "name": "",
          "type": "bool"
        }
      ],
      "stateMutability": "view",
      "type": "function",
      "constant": true
    },
    {
      "inputs": [
        {
          "internalType": "address",
          "name": "account",
          "type": "address"
        },
        {
          "internalType": "uint256",
          "name": "groupId",
          "type": "uint256"
        }
      ],
      "name": "isContributor",
      "outputs": [
        {
          "internalType": "bool",
          "name": "",
          "type": "bool"
        }
      ],
      "stateMutability": "view",
      "type": "function",
      "constant": true
    },
    {
      "inputs": [
        {
          "internalType": "address",
          "name": "account",
          "type": "address"
        },
        {
          "internalType": "uint256",
          "name": "groupId",
          "type": "uint256"
        }
      ],
      "name": "isEligibleRecipient",
      "outputs": [
        {
          "internalType": "bool",
          "name": "",
          "type": "bool"
        }
      ],
      "stateMutability": "view",
      "type": "function",
      "constant": true
    },
    {
      "inputs": [],
      "name": "isPaused",
      "outputs": [
        {
          "internalType": "bool",
          "name": "",
          "type": "bool"
        }
      ],
      "stateMutability": "view",
      "type": "function",
      "constant": true
    },
    {
      "inputs": [
        {
          "internalType": "address",
          "name": "account",
          "type": "address"
        },
        {
          "internalType": "uint256",
          "name": "groupId",
          "type": "uint256"
        }
      ],
      "name": "isRegisteredRecipient",
      "outputs": [
        {
          "internalType": "bool",
          "name": "",
          "type": "bool"
        }
      ],
      "stateMutability": "view",
      "type": "function",
      "constant": true
    },
    {
      "inputs": [],
      "name": "pause",
      "outputs": [],
      "stateMutability": "nonpayable",
      "type": "function"
    },
    {
      "inputs": [],
      "name": "paused",
      "outputs": [
        {
          "internalType": "bool",
          "name": "",
          "type": "bool"
        }
      ],
      "stateMutability": "view",
      "type": "function",
      "constant": true
    },
    {
      "inputs": [
        {
          "internalType": "uint256",
          "name": "groupId",
          "type": "uint256"
        }
      ],
      "name": "registerForEvent",
      "outputs": [],
      "stateMutability": "nonpayable",
      "type": "function"
    },
    {
      "inputs": [
        {
          "internalType": "address",
          "name": "_newCEO",
          "type": "address"
        }
      ],
      "name": "setCEO",
      "outputs": [],
      "stateMutability": "nonpayable",
      "type": "function"
    },
    {
      "inputs": [
        {
          "internalType": "address",
          "name": "_newCFO",
          "type": "address"
        }
      ],
      "name": "setCFO",
      "outputs": [],
      "stateMutability": "nonpayable",
      "type": "function"
    },
    {
      "inputs": [
        {
          "internalType": "address",
          "name": "_newCOO",
          "type": "address"
        }
      ],
      "name": "setCOO",
      "outputs": [],
      "stateMutability": "nonpayable",
      "type": "function"
    },
    {
      "inputs": [
        {
          "internalType": "string",
          "name": "_s",
          "type": "string"
        }
      ],
      "name": "setString",
      "outputs": [],
      "stateMutability": "nonpayable",
      "type": "function"
    },
    {
      "inputs": [],
      "name": "stringgg",
      "outputs": [
        {
          "internalType": "string",
          "name": "",
          "type": "string"
        }
      ],
      "stateMutability": "view",
      "type": "function",
      "constant": true
    },
    {
      "inputs": [],
      "name": "unpause",
      "outputs": [
        {
          "internalType": "bool",
          "name": "",
          "type": "bool"
        }
      ],
      "stateMutability": "nonpayable",
      "type": "function"
    },
    {
      "inputs": [
        {
          "internalType": "uint256",
          "name": "groupId",
          "type": "uint256"
        },
        {
          "internalType": "string",
          "name": "newContributorName",
          "type": "string"
        },
        {
          "internalType": "string",
          "name": "newContributorImgUrl",
          "type": "string"
        },
        {
          "internalType": "string",
          "name": "newContributorLinkToUrl",
          "type": "string"
        }
      ],
      "name": "updateContributorInfo",
      "outputs": [],
      "stateMutability": "nonpayable",
      "type": "function"
    },
    {
      "inputs": [],
      "name": "whoami",
      "outputs": [
        {
          "internalType": "address",
          "name": "",
          "type": "address"
        }
      ],
      "stateMutability": "view",
      "type": "function",
      "constant": true
    },
    {
      "inputs": [
        {
          "internalType": "address",
          "name": "account",
          "type": "address"
        },
        {
          "internalType": "uint256",
          "name": "groupId",
          "type": "uint256"
        }
      ],
      "name": "isAdmin",
      "outputs": [
        {
          "internalType": "bool",
          "name": "",
          "type": "bool"
        }
      ],
      "stateMutability": "view",
      "type": "function",
      "constant": true
    },
    {
      "inputs": [
        {
          "internalType": "uint256",
          "name": "groupId",
          "type": "uint256"
        }
      ],
      "name": "getMyAdminIndex",
      "outputs": [
        {
          "internalType": "uint256",
          "name": "",
          "type": "uint256"
        }
      ],
      "stateMutability": "view",
      "type": "function",
      "constant": true
    },
    {
      "inputs": [
        {
          "internalType": "uint256",
          "name": "groupId",
          "type": "uint256"
        }
      ],
      "name": "getAddressNextAdminIndex",
      "outputs": [
        {
          "internalType": "uint256",
          "name": "",
          "type": "uint256"
        }
      ],
      "stateMutability": "view",
      "type": "function",
      "constant": true
    },
    {
      "inputs": [
        {
          "internalType": "uint256",
          "name": "groupId",
          "type": "uint256"
        }
      ],
      "name": "amIAdmin",
      "outputs": [
        {
          "internalType": "bool",
          "name": "",
          "type": "bool"
        }
      ],
      "stateMutability": "view",
      "type": "function",
      "constant": true
    },
    {
      "inputs": [
        {
          "internalType": "uint256",
          "name": "groupId",
          "type": "uint256"
        }
      ],
      "name": "getAdminsForGroup",
      "outputs": [
        {
          "internalType": "address[]",
          "name": "",
          "type": "address[]"
        },
        {
          "internalType": "bool[]",
          "name": "",
          "type": "bool[]"
        }
      ],
      "stateMutability": "view",
      "type": "function",
      "constant": true
    },
    {
      "inputs": [
        {
          "internalType": "address",
          "name": "account",
          "type": "address"
        },
        {
          "internalType": "uint256",
          "name": "groupId",
          "type": "uint256"
        }
      ],
      "name": "addAdmin",
      "outputs": [],
      "stateMutability": "nonpayable",
      "type": "function"
    },
    {
      "inputs": [
        {
          "internalType": "address",
          "name": "account",
          "type": "address"
        },
        {
          "internalType": "uint256",
          "name": "groupId",
          "type": "uint256"
        }
      ],
      "name": "removeAdmin",
      "outputs": [],
      "stateMutability": "nonpayable",
      "type": "function"
    },
    {
      "inputs": [
        {
          "internalType": "uint256",
          "name": "groupId",
          "type": "uint256"
        }
      ],
      "name": "renounceAdmin",
      "outputs": [],
      "stateMutability": "nonpayable",
      "type": "function"
    },
    {
      "inputs": [
        {
          "internalType": "uint256",
          "name": "groupId",
          "type": "uint256"
        }
      ],
      "name": "readEventInfo",
      "outputs": [
        {
          "components": [
            {
              "internalType": "uint256",
              "name": "groupId",
              "type": "uint256"
            },
            {
              "internalType": "string",
              "name": "groupName",
              "type": "string"
            },
            {
              "internalType": "enum EthDropBase.EventState",
              "name": "currentState",
              "type": "uint8"
            },
            {
              "internalType": "uint256",
              "name": "startTime",
              "type": "uint256"
            },
            {
              "internalType": "uint256",
              "name": "registrationEndTime",
              "type": "uint256"
            },
            {
              "internalType": "uint256",
              "name": "endTime",
              "type": "uint256"
            },
            {
              "internalType": "uint256",
              "name": "registeredRecipientsCount",
              "type": "uint256"
            },
            {
              "internalType": "string",
              "name": "sponsorName",
              "type": "string"
            },
            {
              "internalType": "string",
              "name": "sponsorImageUrl",
              "type": "string"
            },
            {
              "internalType": "string",
              "name": "sponsorLinkToUrl",
              "type": "string"
            },
            {
              "internalType": "address",
              "name": "currentContributor",
              "type": "address"
            },
            {
              "internalType": "uint256",
              "name": "totalAmountContributed",
              "type": "uint256"
            },
            {
              "internalType": "uint256",
              "name": "weiWinnings",
              "type": "uint256"
            },
            {
              "internalType": "uint256",
              "name": "numberOfUsersWhoClaimedWinnings",
              "type": "uint256"
            }
          ],
          "internalType": "struct EthDropBase.EthDropEvent",
          "name": "",
          "type": "tuple"
        }
      ],
      "stateMutability": "view",
      "type": "function",
      "constant": true
    },
    {
      "inputs": [
        {
          "internalType": "string",
          "name": "groupName",
          "type": "string"
        }
      ],
      "name": "createNewGroup",
      "outputs": [],
      "stateMutability": "nonpayable",
      "type": "function"
    },
    {
      "inputs": [
        {
          "internalType": "uint256",
          "name": "groupId",
          "type": "uint256"
        }
      ],
      "name": "startEvent",
      "outputs": [],
      "stateMutability": "nonpayable",
      "type": "function"
    },
    {
      "inputs": [
        {
          "internalType": "uint256",
          "name": "groupId",
          "type": "uint256"
        }
      ],
      "name": "closeEventRegistration",
      "outputs": [],
      "stateMutability": "nonpayable",
      "type": "function"
    },
    {
      "inputs": [
        {
          "internalType": "uint256",
          "name": "groupId",
          "type": "uint256"
        }
      ],
      "name": "endEvent",
      "outputs": [],
      "stateMutability": "nonpayable",
      "type": "function"
    },
    {
      "inputs": [
        {
          "internalType": "address",
          "name": "account",
          "type": "address"
        },
        {
          "internalType": "string",
          "name": "name",
          "type": "string"
        },
        {
          "internalType": "uint256",
          "name": "groupId",
          "type": "uint256"
        }
      ],
      "name": "addEligibleRecipient",
      "outputs": [],
      "stateMutability": "nonpayable",
      "type": "function"
    },
    {
      "inputs": [
        {
          "internalType": "address",
          "name": "account",
          "type": "address"
        },
        {
          "internalType": "uint256",
          "name": "groupId",
          "type": "uint256"
        }
      ],
      "name": "removeEligibleRecipient",
      "outputs": [],
      "stateMutability": "nonpayable",
      "type": "function"
    },
    {
      "inputs": [
        {
          "internalType": "address",
          "name": "account",
          "type": "address"
        },
        {
          "internalType": "uint256",
          "name": "groupId",
          "type": "uint256"
        }
      ],
      "name": "changeContributor",
      "outputs": [],
      "stateMutability": "nonpayable",
      "type": "function"
    }
  ],
  "bytecode": "0x60806040526000600360146101000a81548160ff021916908315150217905550600560045534801561003057600080fd5b5061586280620000416000396000f3fe60806040526004361061036b5760003560e01c80637fcb29c9116101c6578063c271e80c116100f7578063e82f24e011610095578063ee41b5921161006f578063ee41b59214610d44578063f4a02e7014610d81578063f89e9cb914610dac578063fc5fd6e414610de95761036b565b8063e82f24e014610cc2578063e9af9bca14610cde578063ea303f0814610d1b5761036b565b8063d5f016c3116100d1578063d5f016c314610bf2578063e33db42614610c1d578063e513b7a914610c5a578063e62092be14610c855761036b565b8063c271e80c14610b75578063c6db509414610b9e578063c6e0ddfa14610bc95761036b565b80639bda879611610164578063b047fb501161013e578063b047fb5014610ac9578063b187bd2614610af4578063b3b36bb314610b1f578063c02b8b2c14610b4a5761036b565b80639bda879614610a3a578063a59a695314610a77578063aea88a0514610aa05761036b565b806389ea642f116101a057806389ea642f1461097e5780639393ae37146109a9578063962ecff5146109d4578063967cafbc14610a115761036b565b80637fcb29c9146109015780638182aaf21461092a5780638456cb59146109675761036b565b8063454432e2116102a0578063674811ca1161023e578063785142be11610218578063785142be146108475780637b936ac2146108705780637d837ce51461089b5780637fcaf666146108d85761036b565b8063674811ca146107a1578063677bd9ff146107e05780636ebdec49146108095761036b565b806355b57ec11161027a57806355b57ec1146106bf57806356c9a339146106fc5780635c975abb146107395780635e82c1fc146107645761036b565b8063454432e2146106185780634635509b146106555780634e0a3379146106965761036b565b80632ba73c151161030d57806338f0b656116102e757806338f0b6561461054a5780633f4ba83a14610587578063406db843146105b257806344b2983b146105db5761036b565b80632ba73c15146104cf57806330bb0115146104f8578063330a347b146105215761036b565b80630a0f8168116103495780630a0f8168146104155780630d82ffa01461044057806315891ff41461047d57806327d7874c146104a65761036b565b80630519ce791461037057806306cc49221461039b57806307bfa330146103d8575b600080fd5b34801561037c57600080fd5b50610385610e14565b6040516103929190614f6f565b60405180910390f35b3480156103a757600080fd5b506103c260048036038101906103bd91906149bd565b610e3a565b6040516103cf9190615049565b60405180910390f35b3480156103e457600080fd5b506103ff60048036038101906103fa91906149bd565b610e67565b60405161040c9190615005565b60405180910390f35b34801561042157600080fd5b5061042a610f53565b6040516104379190614f6f565b60405180910390f35b34801561044c57600080fd5b50610467600480360381019061046291906149bd565b610f79565b6040516104749190614f6f565b60405180910390f35b34801561048957600080fd5b506104a4600480360381019061049f9190614934565b610fb9565b005b3480156104b257600080fd5b506104cd60048036038101906104c89190614898565b6110a3565b005b3480156104db57600080fd5b506104f660048036038101906104f19190614898565b61117b565b005b34801561050457600080fd5b5061051f600480360381019061051a91906149bd565b61127f565b005b34801561052d57600080fd5b50610548600480360381019061054391906149bd565b6112a1565b005b34801561055657600080fd5b50610571600480360381019061056c91906149bd565b61188b565b60405161057e9190615049565b60405180910390f35b34801561059357600080fd5b5061059c6118b8565b6040516105a99190615049565b60405180910390f35b3480156105be57600080fd5b506105d960048036038101906105d491906149bd565b61195d565b005b3480156105e757600080fd5b5061060260048036038101906105fd91906149bd565b611c11565b60405161060f9190614f8a565b60405180910390f35b34801561062457600080fd5b5061063f600480360381019061063a91906149bd565b611cb2565b60405161064c9190615005565b60405180910390f35b34801561066157600080fd5b5061067c600480360381019061067791906149bd565b611d9e565b60405161068d959493929190615064565b60405180910390f35b3480156106a257600080fd5b506106bd60048036038101906106b89190614898565b612121565b005b3480156106cb57600080fd5b506106e660048036038101906106e191906149bd565b6121eb565b6040516106f39190614fe3565b60405180910390f35b34801561070857600080fd5b50610723600480360381019061071e91906149bd565b61227b565b6040516107309190615197565b60405180910390f35b34801561074557600080fd5b5061074e612298565b60405161075b9190615049565b60405180910390f35b34801561077057600080fd5b5061078b60048036038101906107869190614934565b6122ab565b6040516107989190615049565b60405180910390f35b3480156107ad57600080fd5b506107c860048036038101906107c391906149bd565b612334565b6040516107d7939291906150d9565b60405180910390f35b3480156107ec57600080fd5b50610807600480360381019061080291906149bd565b61252c565b005b34801561081557600080fd5b50610830600480360381019061082b91906149bd565b612711565b60405161083e929190614fac565b60405180910390f35b34801561085357600080fd5b5061086e600480360381019061086991906149bd565b612842565b005b34801561087c57600080fd5b50610885612a77565b6040516108929190614f6f565b60405180910390f35b3480156108a757600080fd5b506108c260048036038101906108bd9190614934565b612aa1565b6040516108cf9190615049565b60405180910390f35b3480156108e457600080fd5b506108ff60048036038101906108fa9190614974565b612b2a565b005b34801561090d57600080fd5b5061092860048036038101906109239190614934565b612b44565b005b34801561093657600080fd5b50610951600480360381019061094c9190614934565b612be3565b60405161095e9190615049565b60405180910390f35b34801561097357600080fd5b5061097c612c6c565b005b34801561098a57600080fd5b50610993612dad565b6040516109a091906150b7565b60405180910390f35b3480156109b557600080fd5b506109be612e3f565b6040516109cb9190615049565b60405180910390f35b3480156109e057600080fd5b506109fb60048036038101906109f691906149bd565b612e97565b604051610a089190615049565b60405180910390f35b348015610a1d57600080fd5b50610a386004803603810190610a3391906148c5565b612eaa565b005b348015610a4657600080fd5b50610a616004803603810190610a5c91906149bd565b613111565b604051610a6e9190614f8a565b60405180910390f35b348015610a8357600080fd5b50610a9e6004803603810190610a9991906149bd565b6131b2565b005b348015610aac57600080fd5b50610ac76004803603810190610ac291906149ea565b61328c565b005b348015610ad557600080fd5b50610ade6133c5565b604051610aeb9190614f6f565b60405180910390f35b348015610b0057600080fd5b50610b096133eb565b604051610b169190615049565b60405180910390f35b348015610b2b57600080fd5b50610b34613402565b604051610b419190614f6f565b60405180910390f35b348015610b5657600080fd5b50610b5f61340a565b604051610b6c9190615027565b60405180910390f35b348015610b8157600080fd5b50610b9c6004803603810190610b979190614934565b613462565b005b348015610baa57600080fd5b50610bb36134f7565b604051610bc091906150b7565b60405180910390f35b348015610bd557600080fd5b50610bf06004803603810190610beb9190614934565b613585565b005b348015610bfe57600080fd5b50610c076135ed565b604051610c149190615005565b60405180910390f35b348015610c2957600080fd5b50610c446004803603810190610c3f91906149bd565b6136c6565b604051610c519190615175565b60405180910390f35b348015610c6657600080fd5b50610c6f613a32565b604051610c7c9190615049565b60405180910390f35b348015610c9157600080fd5b50610cac6004803603810190610ca79190614934565b613a8a565b604051610cb99190615049565b60405180910390f35b610cdc6004803603810190610cd791906149bd565b613b9c565b005b348015610cea57600080fd5b50610d056004803603810190610d0091906149bd565b613c61565b604051610d129190615197565b60405180910390f35b348015610d2757600080fd5b50610d426004803603810190610d3d9190614974565b613cbb565b005b348015610d5057600080fd5b50610d6b6004803603810190610d6691906149bd565b613fec565b604051610d789190615049565b60405180910390f35b348015610d8d57600080fd5b50610d96614019565b604051610da39190615049565b60405180910390f35b348015610db857600080fd5b50610dd36004803603810190610dce91906149bd565b614071565b604051610de09190615049565b60405180910390f35b348015610df557600080fd5b50610dfe6140f8565b604051610e0b9190614f6f565b60405180910390f35b600260009054906101000a900473ffffffffffffffffffffffffffffffffffffffff1681565b6000600360149054906101000a900460ff1615610e5657600080fd5b610e6033836122ab565b9050919050565b606060156000838152602001908152602001600020805480602002602001604051908101604052809291908181526020016000905b82821015610f48578382906000526020600020018054610ebb906155b0565b80601f0160208091040260200160405190810160405280929190818152602001828054610ee7906155b0565b8015610f345780601f10610f0957610100808354040283529160200191610f34565b820191906000526020600020905b815481529060010190602001808311610f1757829003601f168201915b505050505081526020019060010190610e9c565b505050509050919050565b600160009054906101000a900473ffffffffffffffffffffffffffffffffffffffff1681565b600060076000838152602001908152602001600020600a0160009054906101000a900473ffffffffffffffffffffffffffffffffffffffff169050919050565b80610fc43382613a8a565b610fcd57600080fd5b600360149054906101000a900460ff1615610fe757600080fd5b60006010600084815260200190815260200160002060008573ffffffffffffffffffffffffffffffffffffffff1673ffffffffffffffffffffffffffffffffffffffff16815260200190815260200160002060006101000a81548160ff0219169083151502179055508273ffffffffffffffffffffffffffffffffffffffff167f1af6d16168d33745872119540d28858eed156c5f265206bbf1344fda39a93a33836040516110969190615197565b60405180910390a2505050565b600160009054906101000a900473ffffffffffffffffffffffffffffffffffffffff1673ffffffffffffffffffffffffffffffffffffffff163373ffffffffffffffffffffffffffffffffffffffff16146110fd57600080fd5b600073ffffffffffffffffffffffffffffffffffffffff168173ffffffffffffffffffffffffffffffffffffffff16141561113757600080fd5b80600160006101000a81548173ffffffffffffffffffffffffffffffffffffffff021916908373ffffffffffffffffffffffffffffffffffffffff16021790555050565b600160009054906101000a900473ffffffffffffffffffffffffffffffffffffffff1673ffffffffffffffffffffffffffffffffffffffff163373ffffffffffffffffffffffffffffffffffffffff16146111d557600080fd5b600073ffffffffffffffffffffffffffffffffffffffff168173ffffffffffffffffffffffffffffffffffffffff16141561120f57600080fd5b80600360006101000a81548173ffffffffffffffffffffffffffffffffffffffff021916908373ffffffffffffffffffffffffffffffffffffffff1602179055507fa308298a77084def994b565be25bff2e8fbfe7006c2c6b2bacfb84d1ba1f635060405160405180910390a150565b8061128a3382613a8a565b61129357600080fd5b61129d3383614122565b5050565b806112ac3382613a8a565b806113045750600360009054906101000a900473ffffffffffffffffffffffffffffffffffffffff1673ffffffffffffffffffffffffffffffffffffffff163373ffffffffffffffffffffffffffffffffffffffff16145b61130d57600080fd5b600360149054906101000a900460ff161561132757600080fd5b42600760008481526020019081526020016000206005018190555060036007600084815260200190815260200160002060020160006101000a81548160ff0219169083600381111561137c5761137b6156ba565b5b021790555060005b60076000848152602001908152602001600020600601548110156115265760006017600085815260200190815260200160002082815481106113c9576113c8615718565b5b9060005260206000200160009054906101000a900473ffffffffffffffffffffffffffffffffffffffff1690506016600085815260200190815260200160002060008273ffffffffffffffffffffffffffffffffffffffff1673ffffffffffffffffffffffffffffffffffffffff16815260200190815260200160002060006101000a81549060ff02191690556014600085815260200190815260200160002060008273ffffffffffffffffffffffffffffffffffffffff1673ffffffffffffffffffffffffffffffffffffffff16815260200190815260200160002060006114b29190614591565b600b600085815260200190815260200160002060008273ffffffffffffffffffffffffffffffffffffffff1673ffffffffffffffffffffffffffffffffffffffff16815260200190815260200160002060006101000a81549060ff021916905550808061151e90615613565b915050611384565b5060156000838152602001908152602001600020600061154691906145d1565b60176000838152602001908152602001600020600061156591906145f2565b600860008381526020019081526020016000206007600084815260200190815260200160002090806001815401808255809150506001900390600052602060002090600e02016000909190919091506000820154816000015560018201816001019080546115d2906155b0565b6115dd929190614613565b506002820160009054906101000a900460ff168160020160006101000a81548160ff02191690836003811115611616576116156156ba565b5b0217905550600382015481600301556004820154816004015560058201548160050155600682015481600601556007820181600701908054611657906155b0565b611662929190614613565b506008820181600801908054611677906155b0565b611682929190614613565b506009820181600901908054611697906155b0565b6116a2929190614613565b50600a820160009054906101000a900473ffffffffffffffffffffffffffffffffffffffff1681600a0160006101000a81548173ffffffffffffffffffffffffffffffffffffffff021916908373ffffffffffffffffffffffffffffffffffffffff160217905550600b82015481600b0155600c82015481600c0155600d82015481600d0155505060006007600084815260200190815260200160002060060181905550600060076000848152602001908152602001600020600b0181905550600060076000848152602001908152602001600020600c0181905550600060076000848152602001908152602001600020600d01819055503373ffffffffffffffffffffffffffffffffffffffff167f5dc1fe5ab986a852c4eda8e8bb94247d13307065c593fb83f1a09be2736793828360006040516117e39291906151b2565b60405180910390a23373ffffffffffffffffffffffffffffffffffffffff167f0695e999be8100bdb5bee8612337296508d527eae78c65b8f170eacb5a3b439d836040516118319190615197565b60405180910390a23373ffffffffffffffffffffffffffffffffffffffff167f6f45a19e8850c727d0de9f32e0d8691324a9a74ffb4347652e6404138b1d81658360405161187f9190615197565b60405180910390a25050565b6000600360149054906101000a900460ff16156118a757600080fd5b6118b13383612aa1565b9050919050565b6000600160009054906101000a900473ffffffffffffffffffffffffffffffffffffffff1673ffffffffffffffffffffffffffffffffffffffff163373ffffffffffffffffffffffffffffffffffffffff161461191457600080fd5b600360149054906101000a900460ff1661192d57600080fd5b6000600360146101000a81548160ff021916908315150217905550600360149054906101000a900460ff16905090565b8061196833826122ab565b61197157600080fd5b600360149054906101000a900460ff161561198b57600080fd5b60016016600084815260200190815260200160002060003373ffffffffffffffffffffffffffffffffffffffff1673ffffffffffffffffffffffffffffffffffffffff16815260200190815260200160002060006101000a81548160ff02191690831515021790555060176000838152602001908152602001600020339080600181540180825580915050600190039060005260206000200160009091909190916101000a81548173ffffffffffffffffffffffffffffffffffffffff021916908373ffffffffffffffffffffffffffffffffffffffff16021790555060006014600084815260200190815260200160002060003373ffffffffffffffffffffffffffffffffffffffff1673ffffffffffffffffffffffffffffffffffffffff1681526020019081526020016000208054611ac5906155b0565b80601f0160208091040260200160405190810160405280929190818152602001828054611af1906155b0565b8015611b3e5780601f10611b1357610100808354040283529160200191611b3e565b820191906000526020600020905b815481529060010190602001808311611b2157829003601f168201915b505050505090506015600084815260200190815260200160002081908060018154018082558091505060019003906000526020600020016000909190919091509080519060200190611b919291906146a0565b50600760008481526020019081526020016000206006016000815480929190611bb990615613565b91905055503373ffffffffffffffffffffffffffffffffffffffff167f0695e999be8100bdb5bee8612337296508d527eae78c65b8f170eacb5a3b439d84604051611c049190615197565b60405180910390a2505050565b606060176000838152602001908152602001600020805480602002602001604051908101604052809291908181526020018280548015611ca657602002820191906000526020600020905b8160009054906101000a900473ffffffffffffffffffffffffffffffffffffffff1673ffffffffffffffffffffffffffffffffffffffff1681526020019060010190808311611c5c575b50505050509050919050565b606060126000838152602001908152602001600020805480602002602001604051908101604052809291908181526020016000905b82821015611d93578382906000526020600020018054611d06906155b0565b80601f0160208091040260200160405190810160405280929190818152602001828054611d32906155b0565b8015611d7f5780601f10611d5457610100808354040283529160200191611d7f565b820191906000526020600020905b815481529060010190602001808311611d6257829003601f168201915b505050505081526020019060010190611ce7565b505050509050919050565b60008060008060008060076000888152602001908152602001600020604051806101c001604052908160008201548152602001600182018054611de0906155b0565b80601f0160208091040260200160405190810160405280929190818152602001828054611e0c906155b0565b8015611e595780601f10611e2e57610100808354040283529160200191611e59565b820191906000526020600020905b815481529060010190602001808311611e3c57829003601f168201915b505050505081526020016002820160009054906101000a900460ff166003811115611e8757611e866156ba565b5b6003811115611e9957611e986156ba565b5b815260200160038201548152602001600482015481526020016005820154815260200160068201548152602001600782018054611ed5906155b0565b80601f0160208091040260200160405190810160405280929190818152602001828054611f01906155b0565b8015611f4e5780601f10611f2357610100808354040283529160200191611f4e565b820191906000526020600020905b815481529060010190602001808311611f3157829003601f168201915b50505050508152602001600882018054611f67906155b0565b80601f0160208091040260200160405190810160405280929190818152602001828054611f93906155b0565b8015611fe05780601f10611fb557610100808354040283529160200191611fe0565b820191906000526020600020905b815481529060010190602001808311611fc357829003601f168201915b50505050508152602001600982018054611ff9906155b0565b80601f0160208091040260200160405190810160405280929190818152602001828054612025906155b0565b80156120725780601f1061204757610100808354040283529160200191612072565b820191906000526020600020905b81548152906001019060200180831161205557829003601f168201915b50505050508152602001600a820160009054906101000a900473ffffffffffffffffffffffffffffffffffffffff1673ffffffffffffffffffffffffffffffffffffffff1673ffffffffffffffffffffffffffffffffffffffff168152602001600b8201548152602001600c8201548152602001600d82015481525050905080604001518160c00151826101600151836101800151846101a00151955095509550955095505091939590929450565b600160009054906101000a900473ffffffffffffffffffffffffffffffffffffffff1673ffffffffffffffffffffffffffffffffffffffff163373ffffffffffffffffffffffffffffffffffffffff161461217b57600080fd5b80600260006101000a81548173ffffffffffffffffffffffffffffffffffffffff021916908373ffffffffffffffffffffffffffffffffffffffff1602179055507f162e32528b5907ecf876b3b7a4e5e0edf878642e3ec25852e3c35af1a4e1c04060405160405180910390a150565b60606013600083815260200190815260200160002080548060200260200160405190810160405280929190818152602001828054801561226f57602002820191906000526020600020906000905b82829054906101000a900460ff161515815260200190600101906020826000010492830192600103820291508084116122395790505b50505050509050919050565b6000600a6000838152602001908152602001600020549050919050565b600360149054906101000a900460ff1681565b6000600360149054906101000a900460ff16156122c757600080fd5b600115156010600084815260200190815260200160002060008573ffffffffffffffffffffffffffffffffffffffff1673ffffffffffffffffffffffffffffffffffffffff16815260200190815260200160002060009054906101000a900460ff16151514905092915050565b6060806060600760008581526020019081526020016000206007016007600086815260200190815260200160002060080160076000878152602001908152602001600020600901828054612387906155b0565b80601f01602080910402602001604051908101604052809291908181526020018280546123b3906155b0565b80156124005780601f106123d557610100808354040283529160200191612400565b820191906000526020600020905b8154815290600101906020018083116123e357829003601f168201915b50505050509250818054612413906155b0565b80601f016020809104026020016040519081016040528092919081815260200182805461243f906155b0565b801561248c5780601f106124615761010080835404028352916020019161248c565b820191906000526020600020905b81548152906001019060200180831161246f57829003601f168201915b5050505050915080805461249f906155b0565b80601f01602080910402602001604051908101604052809291908181526020018280546124cb906155b0565b80156125185780601f106124ed57610100808354040283529160200191612518565b820191906000526020600020905b8154815290600101906020018083116124fb57829003601f168201915b505050505090509250925092509193909250565b806125373382612aa1565b61254057600080fd5b813360011515600b600084815260200190815260200160002060003373ffffffffffffffffffffffffffffffffffffffff1673ffffffffffffffffffffffffffffffffffffffff16815260200190815260200160002060009054906101000a900460ff16151514156125b157600080fd5b600360149054906101000a900460ff16156125cb57600080fd5b6001600b600086815260200190815260200160002060003373ffffffffffffffffffffffffffffffffffffffff1673ffffffffffffffffffffffffffffffffffffffff16815260200190815260200160002060006101000a81548160ff02191690831515021790555060076000858152602001908152602001600020600d01600081548092919061265b90615613565b91905055503373ffffffffffffffffffffffffffffffffffffffff166108fc60076000878152602001908152602001600020600c01549081150290604051600060405180830381858888f193505050501580156126bc573d6000803e3d6000fd5b503373ffffffffffffffffffffffffffffffffffffffff167f1a31e733a172afcf46074b3106c17f0c298e226442682a03c1e99ce256139ec2856040516127039190615197565b60405180910390a250505050565b606080600c6000848152602001908152602001600020600e6000858152602001908152602001600020818054806020026020016040519081016040528092919081815260200182805480156127bb57602002820191906000526020600020905b8160009054906101000a900473ffffffffffffffffffffffffffffffffffffffff1673ffffffffffffffffffffffffffffffffffffffff1681526020019060010190808311612771575b505050505091508080548060200260200160405190810160405280929190818152602001828054801561283257602002820191906000526020600020906000905b82829054906101000a900460ff161515815260200190600101906020826000010492830192600103820291508084116127fc5790505b5050505050905091509150915091565b8061284d3382613a8a565b61285657600080fd5b600360149054906101000a900460ff161561287057600080fd5b6001600760008481526020019081526020016000206006015410156128ca576040517f08c379a00000000000000000000000000000000000000000000000000000000081526004016128c190615155565b60405180910390fd5b4260076000848152602001908152602001600020600401819055506000606460045460076000868152602001908152602001600020600b015461290d9190615461565b6129179190615430565b9050600260009054906101000a900473ffffffffffffffffffffffffffffffffffffffff1673ffffffffffffffffffffffffffffffffffffffff166108fc829081150290604051600060405180830381858888f19350505050158015612981573d6000803e3d6000fd5b5060008160076000868152602001908152602001600020600b01546129a691906154bb565b90506007600085815260200190815260200160002060060154816129ca9190615430565b60076000868152602001908152602001600020600c018190555060026007600086815260200190815260200160002060020160006101000a81548160ff02191690836003811115612a1e57612a1d6156ba565b5b02179055503373ffffffffffffffffffffffffffffffffffffffff167fef898a6941c945450e9bbdad4a76fcd0f51f42f7e251fddcb1e5479ba786d5e485604051612a699190615197565b60405180910390a250505050565b6000600260009054906101000a900473ffffffffffffffffffffffffffffffffffffffff16905090565b6000600360149054906101000a900460ff1615612abd57600080fd5b600115156016600084815260200190815260200160002060008573ffffffffffffffffffffffffffffffffffffffff1673ffffffffffffffffffffffffffffffffffffffff16815260200190815260200160002060009054906101000a900460ff16151514905092915050565b8060009080519060200190612b409291906146a0565b5050565b600360009054906101000a900473ffffffffffffffffffffffffffffffffffffffff1673ffffffffffffffffffffffffffffffffffffffff163373ffffffffffffffffffffffffffffffffffffffff1614612b9e57600080fd5b612ba88282614203565b7f6d08be0da99b3a8dabb8a9d0bd4ebece8d00f747b0d0e6c29f97508f1a40a29181604051612bd79190615197565b60405180910390a15050565b6000600360149054906101000a900460ff1615612bff57600080fd5b60076000838152602001908152602001600020600a0160009054906101000a900473ffffffffffffffffffffffffffffffffffffffff1673ffffffffffffffffffffffffffffffffffffffff168373ffffffffffffffffffffffffffffffffffffffff1614905092915050565b600360009054906101000a900473ffffffffffffffffffffffffffffffffffffffff1673ffffffffffffffffffffffffffffffffffffffff163373ffffffffffffffffffffffffffffffffffffffff161480612d155750600160009054906101000a900473ffffffffffffffffffffffffffffffffffffffff1673ffffffffffffffffffffffffffffffffffffffff163373ffffffffffffffffffffffffffffffffffffffff16145b80612d6d5750600260009054906101000a900473ffffffffffffffffffffffffffffffffffffffff1673ffffffffffffffffffffffffffffffffffffffff163373ffffffffffffffffffffffffffffffffffffffff16145b612d7657600080fd5b600360149054906101000a900460ff1615612d9057600080fd5b6001600360146101000a81548160ff021916908315150217905550565b606060008054612dbc906155b0565b80601f0160208091040260200160405190810160405280929190818152602001828054612de8906155b0565b8015612e355780601f10612e0a57610100808354040283529160200191612e35565b820191906000526020600020905b815481529060010190602001808311612e1857829003601f168201915b5050505050905090565b6000600260009054906101000a900473ffffffffffffffffffffffffffffffffffffffff1673ffffffffffffffffffffffffffffffffffffffff163373ffffffffffffffffffffffffffffffffffffffff1614905090565b6000612ea33383613a8a565b9050919050565b600360149054906101000a900460ff1615612ec457600080fd5b80612ecf3382613a8a565b612ed857600080fd5b60016010600084815260200190815260200160002060008673ffffffffffffffffffffffffffffffffffffffff1673ffffffffffffffffffffffffffffffffffffffff16815260200190815260200160002060006101000a81548160ff02191690831515021790555060116000838152602001908152602001600020849080600181540180825580915050600190039060005260206000200160009091909190916101000a81548173ffffffffffffffffffffffffffffffffffffffff021916908373ffffffffffffffffffffffffffffffffffffffff16021790555060126000838152602001908152602001600020839080600181540180825580915050600190039060005260206000200160009091909190915090805190602001906130019291906146a0565b50826014600084815260200190815260200160002060008673ffffffffffffffffffffffffffffffffffffffff1673ffffffffffffffffffffffffffffffffffffffff16815260200190815260200160002090805190602001906130669291906146a0565b5060136000838152602001908152602001600020600190806001815401808255809150506001900390600052602060002090602091828204019190069091909190916101000a81548160ff0219169083151502179055508373ffffffffffffffffffffffffffffffffffffffff167f46b8357d30dedd734a71d059a385f46b6e667bff20233f907477760207f88965836040516131039190615197565b60405180910390a250505050565b6060601160008381526020019081526020016000208054806020026020016040519081016040528092919081815260200182805480156131a657602002820191906000526020600020905b8160009054906101000a900473ffffffffffffffffffffffffffffffffffffffff1673ffffffffffffffffffffffffffffffffffffffff168152602001906001019080831161315c575b50505050509050919050565b806131bd3382613a8a565b6131c657600080fd5b600360149054906101000a900460ff16156131e057600080fd5b60016007600084815260200190815260200160002060020160006101000a81548160ff0219169083600381111561321a576132196156ba565b5b02179055504260076000848152602001908152602001600020600301819055503373ffffffffffffffffffffffffffffffffffffffff167ff77c6f27499b698205f54058c2914a340e1300c2bc0d9a819e7aebfbaabbbb93836040516132809190615197565b60405180910390a25050565b836132973382612be3565b6132a057600080fd5b6000845111156132d657836007600087815260200190815260200160002060070190805190602001906132d49291906146a0565b505b60008351111561330c578260076000878152602001908152602001600020600801908051906020019061330a9291906146a0565b505b60008251111561334257816007600087815260200190815260200160002060090190805190602001906133409291906146a0565b505b7fcd9ad49d834aeea746bafd2d26eebd3d01ebac2d8f5d3f53d7f3884292e5835f856007600088815260200190815260200160002060070160076000898152602001908152602001600020600801600760008a81526020019081526020016000206009016040516133b694939291906151db565b60405180910390a15050505050565b600360009054906101000a900473ffffffffffffffffffffffffffffffffffffffff1681565b6000600360149054906101000a900460ff16905090565b600033905090565b6060600580548060200260200160405190810160405280929190818152602001828054801561345857602002820191906000526020600020905b815481526020019060010190808311613444575b5050505050905090565b8061346d3382613a8a565b806134c55750600360009054906101000a900473ffffffffffffffffffffffffffffffffffffffff1673ffffffffffffffffffffffffffffffffffffffff163373ffffffffffffffffffffffffffffffffffffffff16145b6134ce57600080fd5b600360149054906101000a900460ff16156134e857600080fd5b6134f28383614481565b505050565b60008054613504906155b0565b80601f0160208091040260200160405190810160405280929190818152602001828054613530906155b0565b801561357d5780601f106135525761010080835404028352916020019161357d565b820191906000526020600020905b81548152906001019060200180831161356057829003601f168201915b505050505081565b600360009054906101000a900473ffffffffffffffffffffffffffffffffffffffff1673ffffffffffffffffffffffffffffffffffffffff163373ffffffffffffffffffffffffffffffffffffffff16146135df57600080fd5b6135e98282614122565b5050565b60606006805480602002602001604051908101604052809291908181526020016000905b828210156136bd578382906000526020600020018054613630906155b0565b80601f016020809104026020016040519081016040528092919081815260200182805461365c906155b0565b80156136a95780601f1061367e576101008083540402835291602001916136a9565b820191906000526020600020905b81548152906001019060200180831161368c57829003601f168201915b505050505081526020019060010190613611565b50505050905090565b6136ce614726565b816136d93382613a8a565b6136e257600080fd5b60076000848152602001908152602001600020604051806101c00160405290816000820154815260200160018201805461371b906155b0565b80601f0160208091040260200160405190810160405280929190818152602001828054613747906155b0565b80156137945780601f1061376957610100808354040283529160200191613794565b820191906000526020600020905b81548152906001019060200180831161377757829003601f168201915b505050505081526020016002820160009054906101000a900460ff1660038111156137c2576137c16156ba565b5b60038111156137d4576137d36156ba565b5b815260200160038201548152602001600482015481526020016005820154815260200160068201548152602001600782018054613810906155b0565b80601f016020809104026020016040519081016040528092919081815260200182805461383c906155b0565b80156138895780601f1061385e57610100808354040283529160200191613889565b820191906000526020600020905b81548152906001019060200180831161386c57829003601f168201915b505050505081526020016008820180546138a2906155b0565b80601f01602080910402602001604051908101604052809291908181526020018280546138ce906155b0565b801561391b5780601f106138f05761010080835404028352916020019161391b565b820191906000526020600020905b8154815290600101906020018083116138fe57829003601f168201915b50505050508152602001600982018054613934906155b0565b80601f0160208091040260200160405190810160405280929190818152602001828054613960906155b0565b80156139ad5780601f10613982576101008083540402835291602001916139ad565b820191906000526020600020905b81548152906001019060200180831161399057829003601f168201915b50505050508152602001600a820160009054906101000a900473ffffffffffffffffffffffffffffffffffffffff1673ffffffffffffffffffffffffffffffffffffffff1673ffffffffffffffffffffffffffffffffffffffff168152602001600b8201548152602001600c8201548152602001600d82015481525050915050919050565b6000600160009054906101000a900473ffffffffffffffffffffffffffffffffffffffff1673ffffffffffffffffffffffffffffffffffffffff163373ffffffffffffffffffffffffffffffffffffffff1614905090565b6000806009600084815260200190815260200160002060008573ffffffffffffffffffffffffffffffffffffffff1673ffffffffffffffffffffffffffffffffffffffff1681526020019081526020016000205490506000811415613af3576000915050613b96565b600e60008481526020019081526020016000208181548110613b1857613b17615718565b5b90600052602060002090602091828204019190069054906101000a900460ff16613b46576000915050613b96565b60011515600e60008581526020019081526020016000208281548110613b6f57613b6e615718565b5b90600052602060002090602091828204019190069054906101000a900460ff161515149150505b92915050565b80613ba73382612be3565b613bb057600080fd5b600360149054906101000a900460ff1615613bca57600080fd5b3460076000848152602001908152602001600020600b016000828254613bf091906153da565b925050819055503373ffffffffffffffffffffffffffffffffffffffff167f5dc1fe5ab986a852c4eda8e8bb94247d13307065c593fb83f1a09be2736793828360076000868152602001908152602001600020600b0154604051613c55929190615235565b60405180910390a25050565b60006009600083815260200190815260200160002060003373ffffffffffffffffffffffffffffffffffffffff1673ffffffffffffffffffffffffffffffffffffffff168152602001908152602001600020549050919050565b600360009054906101000a900473ffffffffffffffffffffffffffffffffffffffff1673ffffffffffffffffffffffffffffffffffffffff163373ffffffffffffffffffffffffffffffffffffffff1614613d1557600080fd5b600360149054906101000a900460ff1615613d2f57600080fd5b60004290506000604051806101c0016040528083815260200184815260200160006003811115613d6257613d616156ba565b5b815260200142815260200142815260200142815260200160008152602001604051806020016040528060008152508152602001604051806020016040528060008152508152602001604051806020016040528060008152508152602001600073ffffffffffffffffffffffffffffffffffffffff1681526020016000815260200160008152602001600081525090508060076000848152602001908152602001600020600082015181600001556020820151816001019080519060200190613e2b9291906146a0565b5060408201518160020160006101000a81548160ff02191690836003811115613e5757613e566156ba565b5b0217905550606082015181600301556080820151816004015560a0820151816005015560c0820151816006015560e0820151816007019080519060200190613ea09291906146a0565b50610100820151816008019080519060200190613ebe9291906146a0565b50610120820151816009019080519060200190613edc9291906146a0565b5061014082015181600a0160006101000a81548173ffffffffffffffffffffffffffffffffffffffff021916908373ffffffffffffffffffffffffffffffffffffffff16021790555061016082015181600b015561018082015181600c01556101a082015181600d01559050506005829080600181540180825580915050600190039060005260206000200160009091909190915055600683908060018154018082558091505060019003906000526020600020016000909190919091509080519060200190613fad9291906146a0565b507f5937a473913f56daf7dea7a6e821970acaa73f35555cf88f70c54f243cd98a9e8383604051613fdf929190615125565b60405180910390a1505050565b6000600360149054906101000a900460ff161561400857600080fd5b6140123383612be3565b9050919050565b6000600360009054906101000a900473ffffffffffffffffffffffffffffffffffffffff1673ffffffffffffffffffffffffffffffffffffffff163373ffffffffffffffffffffffffffffffffffffffff1614905090565b600061407d3383612aa1565b61408a57600090506140f3565b60011515600b600084815260200190815260200160002060003373ffffffffffffffffffffffffffffffffffffffff1673ffffffffffffffffffffffffffffffffffffffff16815260200190815260200160002060009054906101000a900460ff161515141590505b919050565b6000600360009054906101000a900473ffffffffffffffffffffffffffffffffffffffff16905090565b60006009600083815260200190815260200160002060008473ffffffffffffffffffffffffffffffffffffffff1673ffffffffffffffffffffffffffffffffffffffff1681526020019081526020016000205490506000600e6000848152602001908152602001600020828154811061419e5761419d615718565b5b90600052602060002090602091828204019190066101000a81548160ff0219169083151502179055507f99f4c949f294dd13aa62d19c1344b81968121fe570d11657ebd54aae55ac0f20826040516141f69190615197565b60405180910390a1505050565b6000600a600083815260200190815260200160002054141561431457600a6000828152602001908152602001600020600081548092919061424390615613565b9190505550600c600082815260200190815260200160002060009080600181540180825580915050600190039060005260206000200160009091909190916101000a81548173ffffffffffffffffffffffffffffffffffffffff021916908373ffffffffffffffffffffffffffffffffffffffff160217905550600e6000828152602001908152602001600020600090806001815401808255809150506001900390600052602060002090602091828204019190069091909190916101000a81548160ff0219169083151502179055505b600a6000828152602001908152602001600020546009600083815260200190815260200160002060008473ffffffffffffffffffffffffffffffffffffffff1673ffffffffffffffffffffffffffffffffffffffff16815260200190815260200160002081905550600c6000828152602001908152602001600020829080600181540180825580915050600190039060005260206000200160009091909190916101000a81548173ffffffffffffffffffffffffffffffffffffffff021916908373ffffffffffffffffffffffffffffffffffffffff160217905550600e6000828152602001908152602001600020600190806001815401808255809150506001900390600052602060002090602091828204019190069091909190916101000a81548160ff0219169083151502179055507f6d08be0da99b3a8dabb8a9d0bd4ebece8d00f747b0d0e6c29f97508f1a40a291816040516144759190615197565b60405180910390a15050565b6001600f600083815260200190815260200160002060008473ffffffffffffffffffffffffffffffffffffffff1673ffffffffffffffffffffffffffffffffffffffff16815260200190815260200160002060006101000a81548160ff0219169083151502179055508160076000838152602001908152602001600020600a0160006101000a81548173ffffffffffffffffffffffffffffffffffffffff021916908373ffffffffffffffffffffffffffffffffffffffff1602179055508173ffffffffffffffffffffffffffffffffffffffff167f5fd6d0b7e707fe344bd2a1887f9d0eeea8bfcac6f339ba4200e74f0647f101c0826040516145859190615197565b60405180910390a25050565b50805461459d906155b0565b6000825580601f106145af57506145ce565b601f0160209004906000526020600020908101906145cd91906147bd565b5b50565b50805460008255906000526020600020908101906145ef91906147da565b50565b508054600082559060005260206000209081019061461091906147bd565b50565b82805461461f906155b0565b90600052602060002090601f016020900481019282614641576000855561468f565b82601f10614652578054855561468f565b8280016001018555821561468f57600052602060002091601f016020900482015b8281111561468e578254825591600101919060010190614673565b5b50905061469c91906147bd565b5090565b8280546146ac906155b0565b90600052602060002090601f0160209004810192826146ce5760008555614715565b82601f106146e757805160ff1916838001178555614715565b82800160010185558215614715579182015b828111156147145782518255916020019190600101906146f9565b5b50905061472291906147bd565b5090565b604051806101c00160405280600081526020016060815260200160006003811115614754576147536156ba565b5b815260200160008152602001600081526020016000815260200160008152602001606081526020016060815260200160608152602001600073ffffffffffffffffffffffffffffffffffffffff1681526020016000815260200160008152602001600081525090565b5b808211156147d65760008160009055506001016147be565b5090565b5b808211156147fa57600081816147f19190614591565b506001016147db565b5090565b600061481161480c84615283565b61525e565b90508281526020810184848401111561482d5761482c61577b565b5b61483884828561556e565b509392505050565b60008135905061484f816157fe565b92915050565b600082601f83011261486a57614869615776565b5b813561487a8482602086016147fe565b91505092915050565b60008135905061489281615815565b92915050565b6000602082840312156148ae576148ad615785565b5b60006148bc84828501614840565b91505092915050565b6000806000606084860312156148de576148dd615785565b5b60006148ec86828701614840565b935050602084013567ffffffffffffffff81111561490d5761490c615780565b5b61491986828701614855565b925050604061492a86828701614883565b9150509250925092565b6000806040838503121561494b5761494a615785565b5b600061495985828601614840565b925050602061496a85828601614883565b9150509250929050565b60006020828403121561498a57614989615785565b5b600082013567ffffffffffffffff8111156149a8576149a7615780565b5b6149b484828501614855565b91505092915050565b6000602082840312156149d3576149d2615785565b5b60006149e184828501614883565b91505092915050565b60008060008060808587031215614a0457614a03615785565b5b6000614a1287828801614883565b945050602085013567ffffffffffffffff811115614a3357614a32615780565b5b614a3f87828801614855565b935050604085013567ffffffffffffffff811115614a6057614a5f615780565b5b614a6c87828801614855565b925050606085013567ffffffffffffffff811115614a8d57614a8c615780565b5b614a9987828801614855565b91505092959194509250565b6000614ab18383614b01565b60208301905092915050565b6000614ac98383614cae565b60208301905092915050565b6000614ae18383614cf9565b905092915050565b6000614af58383614f51565b60208301905092915050565b614b0a816154ef565b82525050565b614b19816154ef565b82525050565b6000614b2a82615309565b614b348185615374565b9350614b3f836152b4565b8060005b83811015614b70578151614b578882614aa5565b9750614b6283615340565b925050600181019050614b43565b5085935050505092915050565b6000614b8882615314565b614b928185615385565b9350614b9d836152c4565b8060005b83811015614bce578151614bb58882614abd565b9750614bc08361534d565b925050600181019050614ba1565b5085935050505092915050565b6000614be68261531f565b614bf08185615396565b935083602082028501614c02856152d4565b8060005b85811015614c3e5784840389528151614c1f8582614ad5565b9450614c2a8361535a565b925060208a01995050600181019050614c06565b50829750879550505050505092915050565b6000614c5b8261532a565b614c6581856153a7565b9350614c70836152e4565b8060005b83811015614ca1578151614c888882614ae9565b9750614c9383615367565b925050600181019050614c74565b5085935050505092915050565b614cb781615501565b82525050565b614cc681615501565b82525050565b614cd58161554a565b82525050565b614ce48161554a565b82525050565b614cf38161555c565b82525050565b6000614d0482615335565b614d0e81856153b8565b9350614d1e81856020860161557d565b614d278161578a565b840191505092915050565b6000614d3d82615335565b614d4781856153c9565b9350614d5781856020860161557d565b614d608161578a565b840191505092915050565b60008154614d78816155b0565b614d8281866153c9565b94506001821660008114614d9d5760018114614daf57614de2565b60ff1983168652602086019350614de2565b614db8856152f4565b60005b83811015614dda57815481890152600182019150602081019050614dbb565b808801955050505b50505092915050565b6000614df8602d836153c9565b9150614e038261579b565b604082019050919050565b60006101c083016000830151614e276000860182614f51565b5060208301518482036020860152614e3f8282614cf9565b9150506040830151614e546040860182614ccc565b506060830151614e676060860182614f51565b506080830151614e7a6080860182614f51565b5060a0830151614e8d60a0860182614f51565b5060c0830151614ea060c0860182614f51565b5060e083015184820360e0860152614eb88282614cf9565b915050610100830151848203610100860152614ed48282614cf9565b915050610120830151848203610120860152614ef08282614cf9565b915050610140830151614f07610140860182614b01565b50610160830151614f1c610160860182614f51565b50610180830151614f31610180860182614f51565b506101a0830151614f466101a0860182614f51565b508091505092915050565b614f5a81615540565b82525050565b614f6981615540565b82525050565b6000602082019050614f846000830184614b10565b92915050565b60006020820190508181036000830152614fa48184614b1f565b905092915050565b60006040820190508181036000830152614fc68185614b1f565b90508181036020830152614fda8184614b7d565b90509392505050565b60006020820190508181036000830152614ffd8184614b7d565b905092915050565b6000602082019050818103600083015261501f8184614bdb565b905092915050565b600060208201905081810360008301526150418184614c50565b905092915050565b600060208201905061505e6000830184614cbd565b92915050565b600060a0820190506150796000830188614cdb565b6150866020830187614f60565b6150936040830186614f60565b6150a06060830185614f60565b6150ad6080830184614f60565b9695505050505050565b600060208201905081810360008301526150d18184614d32565b905092915050565b600060608201905081810360008301526150f38186614d32565b905081810360208301526151078185614d32565b9050818103604083015261511b8184614d32565b9050949350505050565b6000604082019050818103600083015261513f8185614d32565b905061514e6020830184614f60565b9392505050565b6000602082019050818103600083015261516e81614deb565b9050919050565b6000602082019050818103600083015261518f8184614e0e565b905092915050565b60006020820190506151ac6000830184614f60565b92915050565b60006040820190506151c76000830185614f60565b6151d46020830184614cea565b9392505050565b60006080820190506151f06000830187614f60565b81810360208301526152028186614d6b565b905081810360408301526152168185614d6b565b9050818103606083015261522a8184614d6b565b905095945050505050565b600060408201905061524a6000830185614f60565b6152576020830184614f60565b9392505050565b6000615268615279565b905061527482826155e2565b919050565b6000604051905090565b600067ffffffffffffffff82111561529e5761529d615747565b5b6152a78261578a565b9050602081019050919050565b6000819050602082019050919050565b6000819050602082019050919050565b6000819050602082019050919050565b6000819050602082019050919050565b60008190508160005260206000209050919050565b600081519050919050565b600081519050919050565b600081519050919050565b600081519050919050565b600081519050919050565b6000602082019050919050565b6000602082019050919050565b6000602082019050919050565b6000602082019050919050565b600082825260208201905092915050565b600082825260208201905092915050565b600082825260208201905092915050565b600082825260208201905092915050565b600082825260208201905092915050565b600082825260208201905092915050565b60006153e582615540565b91506153f083615540565b9250827fffffffffffffffffffffffffffffffffffffffffffffffffffffffffffffffff038211156154255761542461565c565b5b828201905092915050565b600061543b82615540565b915061544683615540565b9250826154565761545561568b565b5b828204905092915050565b600061546c82615540565b915061547783615540565b9250817fffffffffffffffffffffffffffffffffffffffffffffffffffffffffffffffff04831182151516156154b0576154af61565c565b5b828202905092915050565b60006154c682615540565b91506154d183615540565b9250828210156154e4576154e361565c565b5b828203905092915050565b60006154fa82615520565b9050919050565b60008115159050919050565b600081905061551b826157ea565b919050565b600073ffffffffffffffffffffffffffffffffffffffff82169050919050565b6000819050919050565b60006155558261550d565b9050919050565b600061556782615540565b9050919050565b82818337600083830152505050565b60005b8381101561559b578082015181840152602081019050615580565b838111156155aa576000848401525b50505050565b600060028204905060018216806155c857607f821691505b602082108114156155dc576155db6156e9565b5b50919050565b6155eb8261578a565b810181811067ffffffffffffffff8211171561560a57615609615747565b5b80604052505050565b600061561e82615540565b91507fffffffffffffffffffffffffffffffffffffffffffffffffffffffffffffffff8214156156515761565061565c565b5b600182019050919050565b7f4e487b7100000000000000000000000000000000000000000000000000000000600052601160045260246000fd5b7f4e487b7100000000000000000000000000000000000000000000000000000000600052601260045260246000fd5b7f4e487b7100000000000000000000000000000000000000000000000000000000600052602160045260246000fd5b7f4e487b7100000000000000000000000000000000000000000000000000000000600052602260045260246000fd5b7f4e487b7100000000000000000000000000000000000000000000000000000000600052603260045260246000fd5b7f4e487b7100000000000000000000000000000000000000000000000000000000600052604160045260246000fd5b600080fd5b600080fd5b600080fd5b600080fd5b6000601f19601f8301169050919050565b7f43616e277420656e6420726567697374726174696f6e2077697468207a65726f60008201527f2072656769737472616e74732100000000000000000000000000000000000000602082015250565b600481106157fb576157fa6156ba565b5b50565b615807816154ef565b811461581257600080fd5b50565b61581e81615540565b811461582957600080fd5b5056fea264697066735822122023f7a1376151ba3bf7289cd50eb57f3815f9f46439e8f1ee06f8c13bc1a71be364736f6c63430008060033",
  "immutableReferences": {},
  "source": "// SPDX-License-Identifier: MIT\npragma solidity ^0.8.0;\n\nimport \"./ContributorManager.sol\";\n\ncontract AdminsManager is ContributorManager {\n    event GroupCreated(string groupName, uint256 groupId);\n    event EventStarted(address indexed startedBy, uint256 groupId);\n    event RegistrationEnded(address indexed endedBy, uint256 groupId);\n    event EventEnded(address indexed endedBy, uint256 groupId);\n    event AdminAdded(uint256 groupId);\n    event AdminRemoved(uint256 groupId);\n\n    event CalculatedPot(\n        uint256 registeredRecipientCount,\n        uint256 winningsPerRecipient\n    );\n\n    constructor() {}\n\n    modifier onlyAdmins(uint256 groupId) {\n        require(isAdmin(msg.sender, groupId));\n        _;\n    }\n\n    function isAdmin(address account, uint256 groupId)\n        public\n        view\n        returns (bool)\n    {\n        uint256 adminIndex = adminAddresToIndex[groupId][account];\n\n        // if user was never an admin, return false\n        if (adminIndex == 0) {\n            return false;\n        }\n\n        if (!adminEnabled[groupId][adminIndex]) {\n            return false;\n        }\n\n        return adminEnabled[groupId][adminIndex] == true;\n\n    }\n\n    // debug\n    function getMyAdminIndex(uint256 groupId) external view returns (uint256) {\n        return adminAddresToIndex[groupId][msg.sender];\n    }\n\n    // debug\n    function getAddressNextAdminIndex(uint256 groupId)\n        external\n        view\n        returns (uint256)\n    {\n        return adminAddressNextIndex3[groupId];\n    }\n\n    function amIAdmin(uint256 groupId) external view returns (bool) {\n        return isAdmin(msg.sender, groupId);\n    }\n\n    function getAdminsForGroup(uint256 groupId)\n        external\n        view\n        returns (address[] memory, bool[] memory)\n    {\n        return (adminAddresses[groupId], adminEnabled[groupId]);\n    }\n\n    modifier onlyAdminsOrCOO(uint256 groupId) {\n        require(isAdmin(msg.sender, groupId) || msg.sender == cooAddress);\n        _;\n    }\n\n    // TODO - allow COO to give \"admin-granting power\" to other admins\n    function addAdmin(address account, uint256 groupId) external onlyCOO {\n        _addAdmin(account, groupId);\n\n        emit AdminAdded(groupId);\n    }\n\n    function removeAdmin(address account, uint256 groupId) external onlyCOO {\n        _removeAdmin(account, groupId);\n    }\n\n    function renounceAdmin(uint256 groupId) public onlyAdmins(groupId) {\n        _removeAdmin(msg.sender, groupId);\n    }\n\n    function _addAdmin(address account, uint256 groupId) internal {   \n\n        // if first user, use index 1 and push some garbage things at the 0 index\n        if (adminAddressNextIndex3[groupId] == 0) {\n            adminAddressNextIndex3[groupId]++;\n            \n            adminAddresses[groupId].push(address(0));\n            adminEnabled[groupId].push(false);\n        }\n\n        adminAddresToIndex[groupId][account] = adminAddressNextIndex3[groupId];\n        adminAddresses[groupId].push(account);\n        adminEnabled[groupId].push(true);\n\n\n        emit AdminAdded(groupId);\n    }\n\n    function _removeAdmin(address account, uint256 groupId) internal {\n        uint256 index = adminAddresToIndex[groupId][account];\n        adminEnabled[groupId][index] = false;\n\n        emit AdminRemoved(groupId);\n    }\n\n    function readEventInfo(uint256 groupId)\n        external\n        view\n        onlyAdmins(groupId)\n        returns (EthDropEvent memory)\n    {\n        return currentEvents[groupId];\n    }\n\n    function createNewGroup(string memory groupName)\n        external\n        onlyCOO\n        whenNotPaused\n    {\n        // TODO - is this the best way to set the groupId? \n        uint256 newGroupId = block.timestamp;\n\n        EthDropEvent memory newGroup = EthDropEvent(\n            newGroupId,\n            groupName,\n            EventState.CREATED,\n            block.timestamp,\n            block.timestamp,\n            block.timestamp,\n            0,\n            \"\",\n            \"\",\n            \"\",\n            address(0),\n            0,\n            0,\n            0\n        );\n\n        currentEvents[newGroupId] = newGroup;\n\n        listOfGroupIds.push(newGroupId);\n        listOfGroupNames.push(groupName);\n\n        emit GroupCreated(groupName, newGroupId);\n    }\n\n    function startEvent(uint256 groupId)\n        external\n        onlyAdmins(groupId)\n        whenNotPaused\n    {\n        currentEvents[groupId].currentState = EventState.REGISTRATION;\n        currentEvents[groupId].startTime = block.timestamp;\n\n        emit EventStarted(msg.sender, groupId);\n    }\n\n    function closeEventRegistration(uint256 groupId)\n        external\n        onlyAdmins(groupId)\n        whenNotPaused\n    {\n        require(\n            currentEvents[groupId].registeredRecipientsCount >= 1,\n            \"Can't end registration with zero registrants!\"\n        );\n\n        currentEvents[groupId].registrationEndTime = block.timestamp;\n\n        uint256 devCutWei = (currentEvents[groupId].totalAmountContributed *\n            devCutPercentage) / 100;\n\n        // Transfer dev cut to cfo\n        payable(cfoAddress).transfer(devCutWei);\n\n        // pot is the amount for recipients to share\n        uint256 pot = currentEvents[groupId].totalAmountContributed - devCutWei;\n\n        // each recipient's winnings is the \"weiWinnings\"\n        currentEvents[groupId].weiWinnings =\n            pot /\n            currentEvents[groupId].registeredRecipientsCount;\n\n        currentEvents[groupId].currentState = EventState.CLAIM_WINNINGS;\n\n        emit RegistrationEnded(msg.sender, groupId);\n    }\n\n    function endEvent(uint256 groupId)\n        external\n        onlyAdminsOrCOO(groupId)\n        whenNotPaused\n    {\n        currentEvents[groupId].endTime = block.timestamp;\n\n        currentEvents[groupId].currentState = EventState.ENDED;\n\n        // First delete mappings, then arrays\n        for (\n            uint256 i = 0;\n            i < currentEvents[groupId].registeredRecipientsCount;\n            i++\n        ) {\n            address currentAddress = registeredRecipientAddressesArray[groupId][\n                i\n            ];\n\n            delete registeredRecipients[groupId][currentAddress];\n            delete recipientAddressToName[groupId][currentAddress];\n            delete winningsCollected[groupId][currentAddress];\n        }\n\n        delete registeredRecipientNamesArray[groupId];\n        delete registeredRecipientAddressesArray[groupId];\n\n        pastEvents[groupId].push(currentEvents[groupId]);\n\n        currentEvents[groupId].registeredRecipientsCount = 0;\n        currentEvents[groupId].totalAmountContributed = 0;\n        currentEvents[groupId].weiWinnings = 0;\n        currentEvents[groupId].numberOfUsersWhoClaimedWinnings = 0;\n\n        emit ContributionMade(msg.sender, groupId, 0);\n        emit RecipientRegistered(msg.sender, groupId);\n        emit EventEnded(msg.sender, groupId);\n    }\n\n    function addEligibleRecipient(\n        address account,\n        string memory name,\n        uint256 groupId\n    ) external whenNotPaused onlyAdmins(groupId) {\n        eligibleRecipients[groupId][account] = true;\n\n        eligibleRecipientAddressesArray[groupId].push(account);\n        eligibleRecipientNamesArray[groupId].push(name);\n\n        recipientAddressToName[groupId][account] = name;\n        eligibleRecipientsEligibilityIsEnabled[groupId].push(true);\n\n        emit EligibleRecipientAdded(account, groupId);\n    }\n\n    function removeEligibleRecipient(address account, uint256 groupId)\n        external\n        onlyAdmins(groupId)\n        whenNotPaused\n    {\n        eligibleRecipients[groupId][account] = false;\n        emit EligibleRecipientRemoved(account, groupId);\n    }\n\n    function changeContributor(address account, uint256 groupId)\n        external\n        onlyAdminsOrCOO(groupId)\n        whenNotPaused\n    {\n        _changeContributor(account, groupId);\n    }\n}\n",
  "sourcePath": "/Users/jim/Git-Projects/EthDrop/contracts/roles/AdminsManager.sol",
  "compiler": {
    "name": "solc",
    "version": "0.8.6+commit.11564f7e.Emscripten.clang"
  },
  "schemaVersion": "3.4.1",
  "updatedAt": "2021-08-01T05:02:33.232Z",
  "networkType": "ethereum",
  "devdoc": {
    "kind": "dev",
    "methods": {
      "pause()": {
        "details": "Called by any \"C-level\" role to pause the contract. Used only when  a bug or exploit is detected and we need to limit damage."
      },
      "setCEO(address)": {
        "details": "Assigns a new address to act as the CEO. Only available to the current CEO.",
        "params": {
          "_newCEO": "The address of the new CEO"
        }
      },
      "setCFO(address)": {
        "details": "Assigns a new address to act as the CFO. Only available to the current CEO.",
        "params": {
          "_newCFO": "The address of the new CFO"
        }
      },
      "setCOO(address)": {
        "details": "Assigns a new address to act as the COO. Only available to the current CEO.",
        "params": {
          "_newCOO": "The address of the new COO"
        }
      },
      "unpause()": {
        "details": "Unpauses the smart contract. Can only be called by the CEO, since  one reason we may pause the contract is when CFO or COO accounts are  compromised."
      }
    },
    "version": 1
  },
  "userdoc": {
    "kind": "user",
    "methods": {
      "unpause()": {
        "notice": "This is public rather than external so it can be called by  derived contracts."
      }
    },
    "version": 1
  }
}