{
  "contractName": "AdminsManager",
  "abi": [
    {
      "inputs": [],
      "stateMutability": "nonpayable",
      "type": "constructor"
    },
    {
      "anonymous": false,
      "inputs": [
        {
          "indexed": false,
          "internalType": "uint256",
          "name": "groupId",
          "type": "uint256"
        }
      ],
      "name": "AdminAdded",
      "type": "event"
    },
    {
      "anonymous": false,
      "inputs": [
        {
          "indexed": false,
          "internalType": "uint256",
          "name": "groupId",
          "type": "uint256"
        }
      ],
      "name": "AdminRemoved",
      "type": "event"
    },
    {
      "anonymous": false,
      "inputs": [
        {
          "indexed": false,
          "internalType": "bool",
          "name": "isPaused",
          "type": "bool"
        }
      ],
      "name": "AppPaused",
      "type": "event"
    },
    {
      "anonymous": false,
      "inputs": [
        {
          "indexed": false,
          "internalType": "uint256",
          "name": "registeredRecipientCount",
          "type": "uint256"
        },
        {
          "indexed": false,
          "internalType": "uint256",
          "name": "winningsPerRecipient",
          "type": "uint256"
        }
      ],
      "name": "CalculatedPot",
      "type": "event"
    },
    {
      "anonymous": false,
      "inputs": [],
      "name": "CfoUpdated",
      "type": "event"
    },
    {
      "anonymous": false,
      "inputs": [
        {
          "indexed": false,
          "internalType": "address",
          "name": "newContract",
          "type": "address"
        }
      ],
      "name": "ContractUpgrade",
      "type": "event"
    },
    {
      "anonymous": false,
      "inputs": [
        {
          "indexed": true,
          "internalType": "address",
          "name": "account",
          "type": "address"
        },
        {
          "indexed": false,
          "internalType": "uint256",
          "name": "groupId",
          "type": "uint256"
        },
        {
          "indexed": false,
          "internalType": "uint256",
          "name": "amount",
          "type": "uint256"
        }
      ],
      "name": "ContributionMade",
      "type": "event"
    },
    {
      "anonymous": false,
      "inputs": [
        {
          "indexed": true,
          "internalType": "address",
          "name": "account",
          "type": "address"
        },
        {
          "indexed": false,
          "internalType": "uint256",
          "name": "groupId",
          "type": "uint256"
        }
      ],
      "name": "ContributorAdded",
      "type": "event"
    },
    {
      "anonymous": false,
      "inputs": [
        {
          "indexed": false,
          "internalType": "uint256",
          "name": "groupId",
          "type": "uint256"
        },
        {
          "indexed": false,
          "internalType": "address",
          "name": "newContributor",
          "type": "address"
        }
      ],
      "name": "ContributorAddressUpdated",
      "type": "event"
    },
    {
      "anonymous": false,
      "inputs": [
        {
          "indexed": false,
          "internalType": "uint256",
          "name": "groupId",
          "type": "uint256"
        },
        {
          "indexed": false,
          "internalType": "string",
          "name": "sponsorName",
          "type": "string"
        },
        {
          "indexed": false,
          "internalType": "string",
          "name": "imgUrl",
          "type": "string"
        },
        {
          "indexed": false,
          "internalType": "string",
          "name": "imgLinkToUrl",
          "type": "string"
        }
      ],
      "name": "ContributorInfoUpdated",
      "type": "event"
    },
    {
      "anonymous": false,
      "inputs": [
        {
          "indexed": true,
          "internalType": "address",
          "name": "account",
          "type": "address"
        },
        {
          "indexed": false,
          "internalType": "uint256",
          "name": "groupId",
          "type": "uint256"
        }
      ],
      "name": "ContributorRemoved",
      "type": "event"
    },
    {
      "anonymous": false,
      "inputs": [],
      "name": "CooUpdated",
      "type": "event"
    },
    {
      "anonymous": false,
      "inputs": [
        {
          "indexed": true,
          "internalType": "address",
          "name": "account",
          "type": "address"
        },
        {
          "indexed": false,
          "internalType": "uint256",
          "name": "groupId",
          "type": "uint256"
        }
      ],
      "name": "EligibleRecipientAdded",
      "type": "event"
    },
    {
      "anonymous": false,
      "inputs": [
        {
          "indexed": true,
          "internalType": "address",
          "name": "account",
          "type": "address"
        },
        {
          "indexed": false,
          "internalType": "uint256",
          "name": "groupId",
          "type": "uint256"
        }
      ],
      "name": "EligibleRecipientRemoved",
      "type": "event"
    },
    {
      "anonymous": false,
      "inputs": [],
      "name": "EventClose",
      "type": "event"
    },
    {
      "anonymous": false,
      "inputs": [
        {
          "indexed": true,
          "internalType": "address",
          "name": "endedBy",
          "type": "address"
        },
        {
          "indexed": false,
          "internalType": "uint256",
          "name": "groupId",
          "type": "uint256"
        }
      ],
      "name": "EventEnded",
      "type": "event"
    },
    {
      "anonymous": false,
      "inputs": [
        {
          "indexed": true,
          "internalType": "address",
          "name": "startedBy",
          "type": "address"
        },
        {
          "indexed": false,
          "internalType": "uint256",
          "name": "groupId",
          "type": "uint256"
        }
      ],
      "name": "EventStarted",
      "type": "event"
    },
    {
      "anonymous": false,
      "inputs": [
        {
          "indexed": false,
          "internalType": "string",
          "name": "groupName",
          "type": "string"
        },
        {
          "indexed": false,
          "internalType": "uint256",
          "name": "groupId",
          "type": "uint256"
        }
      ],
      "name": "GroupCreated",
      "type": "event"
    },
    {
      "anonymous": false,
      "inputs": [
        {
          "indexed": true,
          "internalType": "address",
          "name": "account",
          "type": "address"
        },
        {
          "indexed": false,
          "internalType": "uint256",
          "name": "groupId",
          "type": "uint256"
        }
      ],
      "name": "RecipientRegistered",
      "type": "event"
    },
    {
      "anonymous": false,
      "inputs": [
        {
          "indexed": true,
          "internalType": "address",
          "name": "endedBy",
          "type": "address"
        },
        {
          "indexed": false,
          "internalType": "uint256",
          "name": "groupId",
          "type": "uint256"
        }
      ],
      "name": "RegistrationEnded",
      "type": "event"
    },
    {
      "anonymous": false,
      "inputs": [],
      "name": "RegistrationOpen",
      "type": "event"
    },
    {
      "anonymous": false,
      "inputs": [
        {
          "indexed": false,
          "internalType": "address",
          "name": "from",
          "type": "address"
        },
        {
          "indexed": false,
          "internalType": "address",
          "name": "to",
          "type": "address"
        }
      ],
      "name": "Transfer",
      "type": "event"
    },
    {
      "anonymous": false,
      "inputs": [
        {
          "indexed": true,
          "internalType": "address",
          "name": "account",
          "type": "address"
        },
        {
          "indexed": false,
          "internalType": "uint256",
          "name": "groupId",
          "type": "uint256"
        }
      ],
      "name": "WinningsClaimed",
      "type": "event"
    },
    {
      "anonymous": false,
      "inputs": [],
      "name": "WinningsClaimingOpen",
      "type": "event"
    },
    {
      "inputs": [
        {
          "internalType": "uint256",
          "name": "groupId",
          "type": "uint256"
        }
      ],
      "name": "amIContributor",
      "outputs": [
        {
          "internalType": "bool",
          "name": "",
          "type": "bool"
        }
      ],
      "stateMutability": "view",
      "type": "function",
      "constant": true
    },
    {
      "inputs": [
        {
          "internalType": "uint256",
          "name": "groupId",
          "type": "uint256"
        }
      ],
      "name": "amIEligibleRecipient",
      "outputs": [
        {
          "internalType": "bool",
          "name": "",
          "type": "bool"
        }
      ],
      "stateMutability": "view",
      "type": "function",
      "constant": true
    },
    {
      "inputs": [
        {
          "internalType": "uint256",
          "name": "groupId",
          "type": "uint256"
        }
      ],
      "name": "amIRegisteredRecipient",
      "outputs": [
        {
          "internalType": "bool",
          "name": "",
          "type": "bool"
        }
      ],
      "stateMutability": "view",
      "type": "function",
      "constant": true
    },
    {
      "inputs": [],
      "name": "ceoAddress",
      "outputs": [
        {
          "internalType": "address",
          "name": "",
          "type": "address"
        }
      ],
      "stateMutability": "view",
      "type": "function",
      "constant": true
    },
    {
      "inputs": [],
      "name": "cfoAddress",
      "outputs": [
        {
          "internalType": "address",
          "name": "",
          "type": "address"
        }
      ],
      "stateMutability": "view",
      "type": "function",
      "constant": true
    },
    {
      "inputs": [
        {
          "internalType": "uint256",
          "name": "groupId",
          "type": "uint256"
        }
      ],
      "name": "claimWinnings",
      "outputs": [],
      "stateMutability": "nonpayable",
      "type": "function"
    },
    {
      "inputs": [
        {
          "internalType": "uint256",
          "name": "groupId",
          "type": "uint256"
        }
      ],
      "name": "contributeToPot",
      "outputs": [],
      "stateMutability": "payable",
      "type": "function",
      "payable": true
    },
    {
      "inputs": [],
      "name": "cooAddress",
      "outputs": [
        {
          "internalType": "address",
          "name": "",
          "type": "address"
        }
      ],
      "stateMutability": "view",
      "type": "function",
      "constant": true
    },
    {
      "inputs": [
        {
          "internalType": "uint256",
          "name": "groupId",
          "type": "uint256"
        }
      ],
      "name": "doIHaveClaimableWinnings",
      "outputs": [
        {
          "internalType": "bool",
          "name": "",
          "type": "bool"
        }
      ],
      "stateMutability": "view",
      "type": "function",
      "constant": true
    },
    {
      "inputs": [],
      "name": "getCFO",
      "outputs": [
        {
          "internalType": "address",
          "name": "",
          "type": "address"
        }
      ],
      "stateMutability": "view",
      "type": "function",
      "constant": true
    },
    {
      "inputs": [],
      "name": "getCOO",
      "outputs": [
        {
          "internalType": "address",
          "name": "",
          "type": "address"
        }
      ],
      "stateMutability": "view",
      "type": "function",
      "constant": true
    },
    {
      "inputs": [
        {
          "internalType": "uint256",
          "name": "groupId",
          "type": "uint256"
        }
      ],
      "name": "getContributorInfo",
      "outputs": [
        {
          "internalType": "string",
          "name": "newContributorName",
          "type": "string"
        },
        {
          "internalType": "string",
          "name": "newContributorImgUrl",
          "type": "string"
        },
        {
          "internalType": "string",
          "name": "newContributorLinkToUrl",
          "type": "string"
        }
      ],
      "stateMutability": "view",
      "type": "function",
      "constant": true
    },
    {
      "inputs": [
        {
          "internalType": "uint256",
          "name": "groupId",
          "type": "uint256"
        }
      ],
      "name": "getCurrentSponsorAddress",
      "outputs": [
        {
          "internalType": "address",
          "name": "",
          "type": "address"
        }
      ],
      "stateMutability": "view",
      "type": "function",
      "constant": true
    },
    {
      "inputs": [
        {
          "internalType": "uint256",
          "name": "groupId",
          "type": "uint256"
        }
      ],
      "name": "getEligibleRecipientAddresses",
      "outputs": [
        {
          "internalType": "address[]",
          "name": "",
          "type": "address[]"
        }
      ],
      "stateMutability": "view",
      "type": "function",
      "constant": true
    },
    {
      "inputs": [
        {
          "internalType": "uint256",
          "name": "groupId",
          "type": "uint256"
        }
      ],
      "name": "getEligibleRecipientIsEligibilityEnabled",
      "outputs": [
        {
          "internalType": "bool[]",
          "name": "",
          "type": "bool[]"
        }
      ],
      "stateMutability": "view",
      "type": "function",
      "constant": true
    },
    {
      "inputs": [
        {
          "internalType": "uint256",
          "name": "groupId",
          "type": "uint256"
        }
      ],
      "name": "getEligibleRecipientNames",
      "outputs": [
        {
          "internalType": "string[]",
          "name": "",
          "type": "string[]"
        }
      ],
      "stateMutability": "view",
      "type": "function",
      "constant": true
    },
    {
      "inputs": [
        {
          "internalType": "uint256",
          "name": "groupId",
          "type": "uint256"
        }
      ],
      "name": "getGroupEventData",
      "outputs": [
        {
          "internalType": "enum EthDropBase.EventState",
          "name": "",
          "type": "uint8"
        },
        {
          "internalType": "uint256",
          "name": "",
          "type": "uint256"
        },
        {
          "internalType": "uint256",
          "name": "",
          "type": "uint256"
        },
        {
          "internalType": "uint256",
          "name": "",
          "type": "uint256"
        },
        {
          "internalType": "uint256",
          "name": "",
          "type": "uint256"
        }
      ],
      "stateMutability": "view",
      "type": "function",
      "constant": true
    },
    {
      "inputs": [],
      "name": "getGroupIds",
      "outputs": [
        {
          "internalType": "uint256[]",
          "name": "",
          "type": "uint256[]"
        }
      ],
      "stateMutability": "view",
      "type": "function",
      "constant": true
    },
    {
      "inputs": [],
      "name": "getGroupNames",
      "outputs": [
        {
          "internalType": "string[]",
          "name": "",
          "type": "string[]"
        }
      ],
      "stateMutability": "view",
      "type": "function",
      "constant": true
    },
    {
      "inputs": [
        {
          "internalType": "uint256",
          "name": "groupId",
          "type": "uint256"
        }
      ],
      "name": "getRegisteredRecipientNames",
      "outputs": [
        {
          "internalType": "string[]",
          "name": "",
          "type": "string[]"
        }
      ],
      "stateMutability": "view",
      "type": "function",
      "constant": true
    },
    {
      "inputs": [
        {
          "internalType": "uint256",
          "name": "groupId",
          "type": "uint256"
        }
      ],
      "name": "getRegisteredRecipients",
      "outputs": [
        {
          "internalType": "address[]",
          "name": "",
          "type": "address[]"
        }
      ],
      "stateMutability": "view",
      "type": "function",
      "constant": true
    },
    {
      "inputs": [],
      "name": "getString",
      "outputs": [
        {
          "internalType": "string",
          "name": "",
          "type": "string"
        }
      ],
      "stateMutability": "view",
      "type": "function",
      "constant": true
    },
    {
      "inputs": [],
      "name": "isCEO",
      "outputs": [
        {
          "internalType": "bool",
          "name": "",
          "type": "bool"
        }
      ],
      "stateMutability": "view",
      "type": "function",
      "constant": true
    },
    {
      "inputs": [],
      "name": "isCFO",
      "outputs": [
        {
          "internalType": "bool",
          "name": "",
          "type": "bool"
        }
      ],
      "stateMutability": "view",
      "type": "function",
      "constant": true
    },
    {
      "inputs": [],
      "name": "isCOO",
      "outputs": [
        {
          "internalType": "bool",
          "name": "",
          "type": "bool"
        }
      ],
      "stateMutability": "view",
      "type": "function",
      "constant": true
    },
    {
      "inputs": [
        {
          "internalType": "address",
          "name": "account",
          "type": "address"
        },
        {
          "internalType": "uint256",
          "name": "groupId",
          "type": "uint256"
        }
      ],
      "name": "isContributor",
      "outputs": [
        {
          "internalType": "bool",
          "name": "",
          "type": "bool"
        }
      ],
      "stateMutability": "view",
      "type": "function",
      "constant": true
    },
    {
      "inputs": [
        {
          "internalType": "address",
          "name": "account",
          "type": "address"
        },
        {
          "internalType": "uint256",
          "name": "groupId",
          "type": "uint256"
        }
      ],
      "name": "isEligibleRecipient",
      "outputs": [
        {
          "internalType": "bool",
          "name": "",
          "type": "bool"
        }
      ],
      "stateMutability": "view",
      "type": "function",
      "constant": true
    },
    {
      "inputs": [],
      "name": "isPaused",
      "outputs": [
        {
          "internalType": "bool",
          "name": "",
          "type": "bool"
        }
      ],
      "stateMutability": "view",
      "type": "function",
      "constant": true
    },
    {
      "inputs": [
        {
          "internalType": "address",
          "name": "account",
          "type": "address"
        },
        {
          "internalType": "uint256",
          "name": "groupId",
          "type": "uint256"
        }
      ],
      "name": "isRegisteredRecipient",
      "outputs": [
        {
          "internalType": "bool",
          "name": "",
          "type": "bool"
        }
      ],
      "stateMutability": "view",
      "type": "function",
      "constant": true
    },
    {
      "inputs": [],
      "name": "pause",
      "outputs": [],
      "stateMutability": "nonpayable",
      "type": "function"
    },
    {
      "inputs": [],
      "name": "paused",
      "outputs": [
        {
          "internalType": "bool",
          "name": "",
          "type": "bool"
        }
      ],
      "stateMutability": "view",
      "type": "function",
      "constant": true
    },
    {
      "inputs": [
        {
          "internalType": "uint256",
          "name": "groupId",
          "type": "uint256"
        }
      ],
      "name": "registerForEvent",
      "outputs": [],
      "stateMutability": "nonpayable",
      "type": "function"
    },
    {
      "inputs": [
        {
          "internalType": "address",
          "name": "_newCEO",
          "type": "address"
        }
      ],
      "name": "setCEO",
      "outputs": [],
      "stateMutability": "nonpayable",
      "type": "function"
    },
    {
      "inputs": [
        {
          "internalType": "address",
          "name": "_newCFO",
          "type": "address"
        }
      ],
      "name": "setCFO",
      "outputs": [],
      "stateMutability": "nonpayable",
      "type": "function"
    },
    {
      "inputs": [
        {
          "internalType": "address",
          "name": "_newCOO",
          "type": "address"
        }
      ],
      "name": "setCOO",
      "outputs": [],
      "stateMutability": "nonpayable",
      "type": "function"
    },
    {
      "inputs": [
        {
          "internalType": "string",
          "name": "_s",
          "type": "string"
        }
      ],
      "name": "setString",
      "outputs": [],
      "stateMutability": "nonpayable",
      "type": "function"
    },
    {
      "inputs": [],
      "name": "stringgg",
      "outputs": [
        {
          "internalType": "string",
          "name": "",
          "type": "string"
        }
      ],
      "stateMutability": "view",
      "type": "function",
      "constant": true
    },
    {
      "inputs": [],
      "name": "unpause",
      "outputs": [
        {
          "internalType": "bool",
          "name": "",
          "type": "bool"
        }
      ],
      "stateMutability": "nonpayable",
      "type": "function"
    },
    {
      "inputs": [
        {
          "internalType": "uint256",
          "name": "groupId",
          "type": "uint256"
        },
        {
          "internalType": "string",
          "name": "newContributorName",
          "type": "string"
        },
        {
          "internalType": "string",
          "name": "newContributorImgUrl",
          "type": "string"
        },
        {
          "internalType": "string",
          "name": "newContributorLinkToUrl",
          "type": "string"
        }
      ],
      "name": "updateContributorInfo",
      "outputs": [],
      "stateMutability": "nonpayable",
      "type": "function"
    },
    {
      "inputs": [],
      "name": "whoami",
      "outputs": [
        {
          "internalType": "address",
          "name": "",
          "type": "address"
        }
      ],
      "stateMutability": "view",
      "type": "function",
      "constant": true
    },
    {
      "inputs": [
        {
          "internalType": "address",
          "name": "account",
          "type": "address"
        },
        {
          "internalType": "uint256",
          "name": "groupId",
          "type": "uint256"
        }
      ],
      "name": "isAdmin",
      "outputs": [
        {
          "internalType": "bool",
          "name": "",
          "type": "bool"
        }
      ],
      "stateMutability": "view",
      "type": "function",
      "constant": true
    },
    {
      "inputs": [
        {
          "internalType": "uint256",
          "name": "groupId",
          "type": "uint256"
        }
      ],
      "name": "getMyAdminIndex",
      "outputs": [
        {
          "internalType": "uint256",
          "name": "",
          "type": "uint256"
        }
      ],
      "stateMutability": "view",
      "type": "function",
      "constant": true
    },
    {
      "inputs": [
        {
          "internalType": "uint256",
          "name": "groupId",
          "type": "uint256"
        }
      ],
      "name": "getAddressNextAdminIndex",
      "outputs": [
        {
          "internalType": "uint256",
          "name": "",
          "type": "uint256"
        }
      ],
      "stateMutability": "view",
      "type": "function",
      "constant": true
    },
    {
      "inputs": [
        {
          "internalType": "uint256",
          "name": "groupId",
          "type": "uint256"
        }
      ],
      "name": "amIAdmin",
      "outputs": [
        {
          "internalType": "bool",
          "name": "",
          "type": "bool"
        }
      ],
      "stateMutability": "view",
      "type": "function",
      "constant": true
    },
    {
      "inputs": [
        {
          "internalType": "uint256",
          "name": "groupId",
          "type": "uint256"
        }
      ],
      "name": "getAdminsForGroup",
      "outputs": [
        {
          "internalType": "address[]",
          "name": "",
          "type": "address[]"
        },
        {
          "internalType": "bool[]",
          "name": "",
          "type": "bool[]"
        }
      ],
      "stateMutability": "view",
      "type": "function",
      "constant": true
    },
    {
      "inputs": [
        {
          "internalType": "address",
          "name": "account",
          "type": "address"
        },
        {
          "internalType": "uint256",
          "name": "groupId",
          "type": "uint256"
        }
      ],
      "name": "addAdmin",
      "outputs": [],
      "stateMutability": "nonpayable",
      "type": "function"
    },
    {
      "inputs": [
        {
          "internalType": "address",
          "name": "account",
          "type": "address"
        },
        {
          "internalType": "uint256",
          "name": "groupId",
          "type": "uint256"
        }
      ],
      "name": "removeAdmin",
      "outputs": [],
      "stateMutability": "nonpayable",
      "type": "function"
    },
    {
      "inputs": [
        {
          "internalType": "uint256",
          "name": "groupId",
          "type": "uint256"
        }
      ],
      "name": "renounceAdmin",
      "outputs": [],
      "stateMutability": "nonpayable",
      "type": "function"
    },
    {
      "inputs": [
        {
          "internalType": "uint256",
          "name": "groupId",
          "type": "uint256"
        }
      ],
      "name": "readEventInfo",
      "outputs": [
        {
          "components": [
            {
              "internalType": "uint256",
              "name": "groupId",
              "type": "uint256"
            },
            {
              "internalType": "string",
              "name": "groupName",
              "type": "string"
            },
            {
              "internalType": "enum EthDropBase.EventState",
              "name": "currentState",
              "type": "uint8"
            },
            {
              "internalType": "uint256",
              "name": "startTime",
              "type": "uint256"
            },
            {
              "internalType": "uint256",
              "name": "registrationEndTime",
              "type": "uint256"
            },
            {
              "internalType": "uint256",
              "name": "endTime",
              "type": "uint256"
            },
            {
              "internalType": "uint256",
              "name": "registeredRecipientsCount",
              "type": "uint256"
            },
            {
              "internalType": "string",
              "name": "sponsorName",
              "type": "string"
            },
            {
              "internalType": "string",
              "name": "sponsorImageUrl",
              "type": "string"
            },
            {
              "internalType": "string",
              "name": "sponsorLinkToUrl",
              "type": "string"
            },
            {
              "internalType": "address",
              "name": "currentContributor",
              "type": "address"
            },
            {
              "internalType": "uint256",
              "name": "totalAmountContributed",
              "type": "uint256"
            },
            {
              "internalType": "uint256",
              "name": "weiWinnings",
              "type": "uint256"
            },
            {
              "internalType": "uint256",
              "name": "numberOfUsersWhoClaimedWinnings",
              "type": "uint256"
            }
          ],
          "internalType": "struct EthDropBase.EthDropEvent",
          "name": "",
          "type": "tuple"
        }
      ],
      "stateMutability": "view",
      "type": "function",
      "constant": true
    },
    {
      "inputs": [
        {
          "internalType": "string",
          "name": "groupName",
          "type": "string"
        }
      ],
      "name": "createNewGroup",
      "outputs": [],
      "stateMutability": "nonpayable",
      "type": "function"
    },
    {
      "inputs": [
        {
          "internalType": "uint256",
          "name": "groupId",
          "type": "uint256"
        }
      ],
      "name": "startEvent",
      "outputs": [],
      "stateMutability": "nonpayable",
      "type": "function"
    },
    {
      "inputs": [
        {
          "internalType": "uint256",
          "name": "groupId",
          "type": "uint256"
        }
      ],
      "name": "closeEventRegistration",
      "outputs": [],
      "stateMutability": "nonpayable",
      "type": "function"
    },
    {
      "inputs": [
        {
          "internalType": "uint256",
          "name": "groupId",
          "type": "uint256"
        }
      ],
      "name": "endEvent",
      "outputs": [],
      "stateMutability": "nonpayable",
      "type": "function"
    },
    {
      "inputs": [
        {
          "internalType": "address",
          "name": "account",
          "type": "address"
        },
        {
          "internalType": "string",
          "name": "name",
          "type": "string"
        },
        {
          "internalType": "uint256",
          "name": "groupId",
          "type": "uint256"
        }
      ],
      "name": "addEligibleRecipient",
      "outputs": [],
      "stateMutability": "nonpayable",
      "type": "function"
    },
    {
      "inputs": [
        {
          "internalType": "address",
          "name": "account",
          "type": "address"
        },
        {
          "internalType": "uint256",
          "name": "groupId",
          "type": "uint256"
        }
      ],
      "name": "removeEligibleRecipient",
      "outputs": [],
      "stateMutability": "nonpayable",
      "type": "function"
    },
    {
      "inputs": [
        {
          "internalType": "address",
          "name": "account",
          "type": "address"
        },
        {
          "internalType": "uint256",
          "name": "groupId",
          "type": "uint256"
        }
      ],
      "name": "changeContributor",
      "outputs": [],
      "stateMutability": "nonpayable",
      "type": "function"
    }
  ],
  "bytecode": "0x60806040526000600360146101000a81548160ff021916908315150217905550600560045534801561003057600080fd5b5061587b80620000416000396000f3fe60806040526004361061036b5760003560e01c80637fcb29c9116101c6578063c271e80c116100f7578063e82f24e011610095578063ee41b5921161006f578063ee41b59214610d44578063f4a02e7014610d81578063f89e9cb914610dac578063fc5fd6e414610de95761036b565b8063e82f24e014610cc2578063e9af9bca14610cde578063ea303f0814610d1b5761036b565b8063d5f016c3116100d1578063d5f016c314610bf2578063e33db42614610c1d578063e513b7a914610c5a578063e62092be14610c855761036b565b8063c271e80c14610b75578063c6db509414610b9e578063c6e0ddfa14610bc95761036b565b80639bda879611610164578063b047fb501161013e578063b047fb5014610ac9578063b187bd2614610af4578063b3b36bb314610b1f578063c02b8b2c14610b4a5761036b565b80639bda879614610a3a578063a59a695314610a77578063aea88a0514610aa05761036b565b806389ea642f116101a057806389ea642f1461097e5780639393ae37146109a9578063962ecff5146109d4578063967cafbc14610a115761036b565b80637fcb29c9146109015780638182aaf21461092a5780638456cb59146109675761036b565b8063454432e2116102a0578063674811ca1161023e578063785142be11610218578063785142be146108475780637b936ac2146108705780637d837ce51461089b5780637fcaf666146108d85761036b565b8063674811ca146107a1578063677bd9ff146107e05780636ebdec49146108095761036b565b806355b57ec11161027a57806355b57ec1146106bf57806356c9a339146106fc5780635c975abb146107395780635e82c1fc146107645761036b565b8063454432e2146106185780634635509b146106555780634e0a3379146106965761036b565b80632ba73c151161030d57806338f0b656116102e757806338f0b6561461054a5780633f4ba83a14610587578063406db843146105b257806344b2983b146105db5761036b565b80632ba73c15146104cf57806330bb0115146104f8578063330a347b146105215761036b565b80630a0f8168116103495780630a0f8168146104155780630d82ffa01461044057806315891ff41461047d57806327d7874c146104a65761036b565b80630519ce791461037057806306cc49221461039b57806307bfa330146103d8575b600080fd5b34801561037c57600080fd5b50610385610e14565b6040516103929190614f88565b60405180910390f35b3480156103a757600080fd5b506103c260048036038101906103bd91906149d6565b610e3a565b6040516103cf9190615062565b60405180910390f35b3480156103e457600080fd5b506103ff60048036038101906103fa91906149d6565b610e67565b60405161040c919061501e565b60405180910390f35b34801561042157600080fd5b5061042a610f53565b6040516104379190614f88565b60405180910390f35b34801561044c57600080fd5b50610467600480360381019061046291906149d6565b610f79565b6040516104749190614f88565b60405180910390f35b34801561048957600080fd5b506104a4600480360381019061049f919061494d565b610fb9565b005b3480156104b257600080fd5b506104cd60048036038101906104c891906148b1565b6110a3565b005b3480156104db57600080fd5b506104f660048036038101906104f191906148b1565b61117b565b005b34801561050457600080fd5b5061051f600480360381019061051a91906149d6565b61127f565b005b34801561052d57600080fd5b50610548600480360381019061054391906149d6565b6112a1565b005b34801561055657600080fd5b50610571600480360381019061056c91906149d6565b61188b565b60405161057e9190615062565b60405180910390f35b34801561059357600080fd5b5061059c6118b8565b6040516105a99190615062565b60405180910390f35b3480156105be57600080fd5b506105d960048036038101906105d491906149d6565b61195d565b005b3480156105e757600080fd5b5061060260048036038101906105fd91906149d6565b611c11565b60405161060f9190614fa3565b60405180910390f35b34801561062457600080fd5b5061063f600480360381019061063a91906149d6565b611cb2565b60405161064c919061501e565b60405180910390f35b34801561066157600080fd5b5061067c600480360381019061067791906149d6565b611d9e565b60405161068d95949392919061507d565b60405180910390f35b3480156106a257600080fd5b506106bd60048036038101906106b891906148b1565b612121565b005b3480156106cb57600080fd5b506106e660048036038101906106e191906149d6565b6121eb565b6040516106f39190614ffc565b60405180910390f35b34801561070857600080fd5b50610723600480360381019061071e91906149d6565b61227b565b60405161073091906151b0565b60405180910390f35b34801561074557600080fd5b5061074e612298565b60405161075b9190615062565b60405180910390f35b34801561077057600080fd5b5061078b6004803603810190610786919061494d565b6122ab565b6040516107989190615062565b60405180910390f35b3480156107ad57600080fd5b506107c860048036038101906107c391906149d6565b612334565b6040516107d7939291906150f2565b60405180910390f35b3480156107ec57600080fd5b50610807600480360381019061080291906149d6565b61252c565b005b34801561081557600080fd5b50610830600480360381019061082b91906149d6565b612711565b60405161083e929190614fc5565b60405180910390f35b34801561085357600080fd5b5061086e600480360381019061086991906149d6565b612842565b005b34801561087c57600080fd5b50610885612a77565b6040516108929190614f88565b60405180910390f35b3480156108a757600080fd5b506108c260048036038101906108bd919061494d565b612aa1565b6040516108cf9190615062565b60405180910390f35b3480156108e457600080fd5b506108ff60048036038101906108fa919061498d565b612b2a565b005b34801561090d57600080fd5b506109286004803603810190610923919061494d565b612b44565b005b34801561093657600080fd5b50610951600480360381019061094c919061494d565b612be3565b60405161095e9190615062565b60405180910390f35b34801561097357600080fd5b5061097c612c6c565b005b34801561098a57600080fd5b50610993612dad565b6040516109a091906150d0565b60405180910390f35b3480156109b557600080fd5b506109be612e3f565b6040516109cb9190615062565b60405180910390f35b3480156109e057600080fd5b506109fb60048036038101906109f691906149d6565b612e97565b604051610a089190615062565b60405180910390f35b348015610a1d57600080fd5b50610a386004803603810190610a3391906148de565b612eaa565b005b348015610a4657600080fd5b50610a616004803603810190610a5c91906149d6565b613111565b604051610a6e9190614fa3565b60405180910390f35b348015610a8357600080fd5b50610a9e6004803603810190610a9991906149d6565b6131b2565b005b348015610aac57600080fd5b50610ac76004803603810190610ac29190614a03565b61328c565b005b348015610ad557600080fd5b50610ade6133c5565b604051610aeb9190614f88565b60405180910390f35b348015610b0057600080fd5b50610b096133eb565b604051610b169190615062565b60405180910390f35b348015610b2b57600080fd5b50610b34613402565b604051610b419190614f88565b60405180910390f35b348015610b5657600080fd5b50610b5f61340a565b604051610b6c9190615040565b60405180910390f35b348015610b8157600080fd5b50610b9c6004803603810190610b97919061494d565b613462565b005b348015610baa57600080fd5b50610bb36134f7565b604051610bc091906150d0565b60405180910390f35b348015610bd557600080fd5b50610bf06004803603810190610beb919061494d565b613585565b005b348015610bfe57600080fd5b50610c076135ed565b604051610c14919061501e565b60405180910390f35b348015610c2957600080fd5b50610c446004803603810190610c3f91906149d6565b6136c6565b604051610c51919061518e565b60405180910390f35b348015610c6657600080fd5b50610c6f613a32565b604051610c7c9190615062565b60405180910390f35b348015610c9157600080fd5b50610cac6004803603810190610ca7919061494d565b613a8a565b604051610cb99190615062565b60405180910390f35b610cdc6004803603810190610cd791906149d6565b613b9c565b005b348015610cea57600080fd5b50610d056004803603810190610d0091906149d6565b613c61565b604051610d1291906151b0565b60405180910390f35b348015610d2757600080fd5b50610d426004803603810190610d3d919061498d565b613cbb565b005b348015610d5057600080fd5b50610d6b6004803603810190610d6691906149d6565b613fec565b604051610d789190615062565b60405180910390f35b348015610d8d57600080fd5b50610d96614019565b604051610da39190615062565b60405180910390f35b348015610db857600080fd5b50610dd36004803603810190610dce91906149d6565b614071565b604051610de09190615062565b60405180910390f35b348015610df557600080fd5b50610dfe6140f8565b604051610e0b9190614f88565b60405180910390f35b600260009054906101000a900473ffffffffffffffffffffffffffffffffffffffff1681565b6000600360149054906101000a900460ff1615610e5657600080fd5b610e6033836122ab565b9050919050565b606060156000838152602001908152602001600020805480602002602001604051908101604052809291908181526020016000905b82821015610f48578382906000526020600020018054610ebb906155c9565b80601f0160208091040260200160405190810160405280929190818152602001828054610ee7906155c9565b8015610f345780601f10610f0957610100808354040283529160200191610f34565b820191906000526020600020905b815481529060010190602001808311610f1757829003601f168201915b505050505081526020019060010190610e9c565b505050509050919050565b600160009054906101000a900473ffffffffffffffffffffffffffffffffffffffff1681565b600060076000838152602001908152602001600020600a0160009054906101000a900473ffffffffffffffffffffffffffffffffffffffff169050919050565b80610fc43382613a8a565b610fcd57600080fd5b600360149054906101000a900460ff1615610fe757600080fd5b60006010600084815260200190815260200160002060008573ffffffffffffffffffffffffffffffffffffffff1673ffffffffffffffffffffffffffffffffffffffff16815260200190815260200160002060006101000a81548160ff0219169083151502179055508273ffffffffffffffffffffffffffffffffffffffff167f1af6d16168d33745872119540d28858eed156c5f265206bbf1344fda39a93a338360405161109691906151b0565b60405180910390a2505050565b600160009054906101000a900473ffffffffffffffffffffffffffffffffffffffff1673ffffffffffffffffffffffffffffffffffffffff163373ffffffffffffffffffffffffffffffffffffffff16146110fd57600080fd5b600073ffffffffffffffffffffffffffffffffffffffff168173ffffffffffffffffffffffffffffffffffffffff16141561113757600080fd5b80600160006101000a81548173ffffffffffffffffffffffffffffffffffffffff021916908373ffffffffffffffffffffffffffffffffffffffff16021790555050565b600160009054906101000a900473ffffffffffffffffffffffffffffffffffffffff1673ffffffffffffffffffffffffffffffffffffffff163373ffffffffffffffffffffffffffffffffffffffff16146111d557600080fd5b600073ffffffffffffffffffffffffffffffffffffffff168173ffffffffffffffffffffffffffffffffffffffff16141561120f57600080fd5b80600360006101000a81548173ffffffffffffffffffffffffffffffffffffffff021916908373ffffffffffffffffffffffffffffffffffffffff1602179055507fa308298a77084def994b565be25bff2e8fbfe7006c2c6b2bacfb84d1ba1f635060405160405180910390a150565b8061128a3382613a8a565b61129357600080fd5b61129d3383614122565b5050565b806112ac3382613a8a565b806113045750600360009054906101000a900473ffffffffffffffffffffffffffffffffffffffff1673ffffffffffffffffffffffffffffffffffffffff163373ffffffffffffffffffffffffffffffffffffffff16145b61130d57600080fd5b600360149054906101000a900460ff161561132757600080fd5b42600760008481526020019081526020016000206005018190555060036007600084815260200190815260200160002060020160006101000a81548160ff0219169083600381111561137c5761137b6156d3565b5b021790555060005b60076000848152602001908152602001600020600601548110156115265760006017600085815260200190815260200160002082815481106113c9576113c8615731565b5b9060005260206000200160009054906101000a900473ffffffffffffffffffffffffffffffffffffffff1690506016600085815260200190815260200160002060008273ffffffffffffffffffffffffffffffffffffffff1673ffffffffffffffffffffffffffffffffffffffff16815260200190815260200160002060006101000a81549060ff02191690556014600085815260200190815260200160002060008273ffffffffffffffffffffffffffffffffffffffff1673ffffffffffffffffffffffffffffffffffffffff16815260200190815260200160002060006114b291906145aa565b600b600085815260200190815260200160002060008273ffffffffffffffffffffffffffffffffffffffff1673ffffffffffffffffffffffffffffffffffffffff16815260200190815260200160002060006101000a81549060ff021916905550808061151e9061562c565b915050611384565b5060156000838152602001908152602001600020600061154691906145ea565b601760008381526020019081526020016000206000611565919061460b565b600860008381526020019081526020016000206007600084815260200190815260200160002090806001815401808255809150506001900390600052602060002090600e02016000909190919091506000820154816000015560018201816001019080546115d2906155c9565b6115dd92919061462c565b506002820160009054906101000a900460ff168160020160006101000a81548160ff02191690836003811115611616576116156156d3565b5b0217905550600382015481600301556004820154816004015560058201548160050155600682015481600601556007820181600701908054611657906155c9565b61166292919061462c565b506008820181600801908054611677906155c9565b61168292919061462c565b506009820181600901908054611697906155c9565b6116a292919061462c565b50600a820160009054906101000a900473ffffffffffffffffffffffffffffffffffffffff1681600a0160006101000a81548173ffffffffffffffffffffffffffffffffffffffff021916908373ffffffffffffffffffffffffffffffffffffffff160217905550600b82015481600b0155600c82015481600c0155600d82015481600d0155505060006007600084815260200190815260200160002060060181905550600060076000848152602001908152602001600020600b0181905550600060076000848152602001908152602001600020600c0181905550600060076000848152602001908152602001600020600d01819055503373ffffffffffffffffffffffffffffffffffffffff167f5dc1fe5ab986a852c4eda8e8bb94247d13307065c593fb83f1a09be2736793828360006040516117e39291906151cb565b60405180910390a23373ffffffffffffffffffffffffffffffffffffffff167f0695e999be8100bdb5bee8612337296508d527eae78c65b8f170eacb5a3b439d8360405161183191906151b0565b60405180910390a23373ffffffffffffffffffffffffffffffffffffffff167f6f45a19e8850c727d0de9f32e0d8691324a9a74ffb4347652e6404138b1d81658360405161187f91906151b0565b60405180910390a25050565b6000600360149054906101000a900460ff16156118a757600080fd5b6118b13383612aa1565b9050919050565b6000600160009054906101000a900473ffffffffffffffffffffffffffffffffffffffff1673ffffffffffffffffffffffffffffffffffffffff163373ffffffffffffffffffffffffffffffffffffffff161461191457600080fd5b600360149054906101000a900460ff1661192d57600080fd5b6000600360146101000a81548160ff021916908315150217905550600360149054906101000a900460ff16905090565b8061196833826122ab565b61197157600080fd5b600360149054906101000a900460ff161561198b57600080fd5b60016016600084815260200190815260200160002060003373ffffffffffffffffffffffffffffffffffffffff1673ffffffffffffffffffffffffffffffffffffffff16815260200190815260200160002060006101000a81548160ff02191690831515021790555060176000838152602001908152602001600020339080600181540180825580915050600190039060005260206000200160009091909190916101000a81548173ffffffffffffffffffffffffffffffffffffffff021916908373ffffffffffffffffffffffffffffffffffffffff16021790555060006014600084815260200190815260200160002060003373ffffffffffffffffffffffffffffffffffffffff1673ffffffffffffffffffffffffffffffffffffffff1681526020019081526020016000208054611ac5906155c9565b80601f0160208091040260200160405190810160405280929190818152602001828054611af1906155c9565b8015611b3e5780601f10611b1357610100808354040283529160200191611b3e565b820191906000526020600020905b815481529060010190602001808311611b2157829003601f168201915b505050505090506015600084815260200190815260200160002081908060018154018082558091505060019003906000526020600020016000909190919091509080519060200190611b919291906146b9565b50600760008481526020019081526020016000206006016000815480929190611bb99061562c565b91905055503373ffffffffffffffffffffffffffffffffffffffff167f0695e999be8100bdb5bee8612337296508d527eae78c65b8f170eacb5a3b439d84604051611c0491906151b0565b60405180910390a2505050565b606060176000838152602001908152602001600020805480602002602001604051908101604052809291908181526020018280548015611ca657602002820191906000526020600020905b8160009054906101000a900473ffffffffffffffffffffffffffffffffffffffff1673ffffffffffffffffffffffffffffffffffffffff1681526020019060010190808311611c5c575b50505050509050919050565b606060126000838152602001908152602001600020805480602002602001604051908101604052809291908181526020016000905b82821015611d93578382906000526020600020018054611d06906155c9565b80601f0160208091040260200160405190810160405280929190818152602001828054611d32906155c9565b8015611d7f5780601f10611d5457610100808354040283529160200191611d7f565b820191906000526020600020905b815481529060010190602001808311611d6257829003601f168201915b505050505081526020019060010190611ce7565b505050509050919050565b60008060008060008060076000888152602001908152602001600020604051806101c001604052908160008201548152602001600182018054611de0906155c9565b80601f0160208091040260200160405190810160405280929190818152602001828054611e0c906155c9565b8015611e595780601f10611e2e57610100808354040283529160200191611e59565b820191906000526020600020905b815481529060010190602001808311611e3c57829003601f168201915b505050505081526020016002820160009054906101000a900460ff166003811115611e8757611e866156d3565b5b6003811115611e9957611e986156d3565b5b815260200160038201548152602001600482015481526020016005820154815260200160068201548152602001600782018054611ed5906155c9565b80601f0160208091040260200160405190810160405280929190818152602001828054611f01906155c9565b8015611f4e5780601f10611f2357610100808354040283529160200191611f4e565b820191906000526020600020905b815481529060010190602001808311611f3157829003601f168201915b50505050508152602001600882018054611f67906155c9565b80601f0160208091040260200160405190810160405280929190818152602001828054611f93906155c9565b8015611fe05780601f10611fb557610100808354040283529160200191611fe0565b820191906000526020600020905b815481529060010190602001808311611fc357829003601f168201915b50505050508152602001600982018054611ff9906155c9565b80601f0160208091040260200160405190810160405280929190818152602001828054612025906155c9565b80156120725780601f1061204757610100808354040283529160200191612072565b820191906000526020600020905b81548152906001019060200180831161205557829003601f168201915b50505050508152602001600a820160009054906101000a900473ffffffffffffffffffffffffffffffffffffffff1673ffffffffffffffffffffffffffffffffffffffff1673ffffffffffffffffffffffffffffffffffffffff168152602001600b8201548152602001600c8201548152602001600d82015481525050905080604001518160c00151826101600151836101800151846101a00151955095509550955095505091939590929450565b600160009054906101000a900473ffffffffffffffffffffffffffffffffffffffff1673ffffffffffffffffffffffffffffffffffffffff163373ffffffffffffffffffffffffffffffffffffffff161461217b57600080fd5b80600260006101000a81548173ffffffffffffffffffffffffffffffffffffffff021916908373ffffffffffffffffffffffffffffffffffffffff1602179055507f162e32528b5907ecf876b3b7a4e5e0edf878642e3ec25852e3c35af1a4e1c04060405160405180910390a150565b60606013600083815260200190815260200160002080548060200260200160405190810160405280929190818152602001828054801561226f57602002820191906000526020600020906000905b82829054906101000a900460ff161515815260200190600101906020826000010492830192600103820291508084116122395790505b50505050509050919050565b6000600a6000838152602001908152602001600020549050919050565b600360149054906101000a900460ff1681565b6000600360149054906101000a900460ff16156122c757600080fd5b600115156010600084815260200190815260200160002060008573ffffffffffffffffffffffffffffffffffffffff1673ffffffffffffffffffffffffffffffffffffffff16815260200190815260200160002060009054906101000a900460ff16151514905092915050565b6060806060600760008581526020019081526020016000206007016007600086815260200190815260200160002060080160076000878152602001908152602001600020600901828054612387906155c9565b80601f01602080910402602001604051908101604052809291908181526020018280546123b3906155c9565b80156124005780601f106123d557610100808354040283529160200191612400565b820191906000526020600020905b8154815290600101906020018083116123e357829003601f168201915b50505050509250818054612413906155c9565b80601f016020809104026020016040519081016040528092919081815260200182805461243f906155c9565b801561248c5780601f106124615761010080835404028352916020019161248c565b820191906000526020600020905b81548152906001019060200180831161246f57829003601f168201915b5050505050915080805461249f906155c9565b80601f01602080910402602001604051908101604052809291908181526020018280546124cb906155c9565b80156125185780601f106124ed57610100808354040283529160200191612518565b820191906000526020600020905b8154815290600101906020018083116124fb57829003601f168201915b505050505090509250925092509193909250565b806125373382612aa1565b61254057600080fd5b813360011515600b600084815260200190815260200160002060003373ffffffffffffffffffffffffffffffffffffffff1673ffffffffffffffffffffffffffffffffffffffff16815260200190815260200160002060009054906101000a900460ff16151514156125b157600080fd5b600360149054906101000a900460ff16156125cb57600080fd5b6001600b600086815260200190815260200160002060003373ffffffffffffffffffffffffffffffffffffffff1673ffffffffffffffffffffffffffffffffffffffff16815260200190815260200160002060006101000a81548160ff02191690831515021790555060076000858152602001908152602001600020600d01600081548092919061265b9061562c565b91905055503373ffffffffffffffffffffffffffffffffffffffff166108fc60076000878152602001908152602001600020600c01549081150290604051600060405180830381858888f193505050501580156126bc573d6000803e3d6000fd5b503373ffffffffffffffffffffffffffffffffffffffff167f1a31e733a172afcf46074b3106c17f0c298e226442682a03c1e99ce256139ec28560405161270391906151b0565b60405180910390a250505050565b606080600c6000848152602001908152602001600020600e6000858152602001908152602001600020818054806020026020016040519081016040528092919081815260200182805480156127bb57602002820191906000526020600020905b8160009054906101000a900473ffffffffffffffffffffffffffffffffffffffff1673ffffffffffffffffffffffffffffffffffffffff1681526020019060010190808311612771575b505050505091508080548060200260200160405190810160405280929190818152602001828054801561283257602002820191906000526020600020906000905b82829054906101000a900460ff161515815260200190600101906020826000010492830192600103820291508084116127fc5790505b5050505050905091509150915091565b8061284d3382613a8a565b61285657600080fd5b600360149054906101000a900460ff161561287057600080fd5b6001600760008481526020019081526020016000206006015410156128ca576040517f08c379a00000000000000000000000000000000000000000000000000000000081526004016128c19061516e565b60405180910390fd5b4260076000848152602001908152602001600020600401819055506000606460045460076000868152602001908152602001600020600b015461290d919061547a565b6129179190615449565b9050600260009054906101000a900473ffffffffffffffffffffffffffffffffffffffff1673ffffffffffffffffffffffffffffffffffffffff166108fc829081150290604051600060405180830381858888f19350505050158015612981573d6000803e3d6000fd5b5060008160076000868152602001908152602001600020600b01546129a691906154d4565b90506007600085815260200190815260200160002060060154816129ca9190615449565b60076000868152602001908152602001600020600c018190555060026007600086815260200190815260200160002060020160006101000a81548160ff02191690836003811115612a1e57612a1d6156d3565b5b02179055503373ffffffffffffffffffffffffffffffffffffffff167fef898a6941c945450e9bbdad4a76fcd0f51f42f7e251fddcb1e5479ba786d5e485604051612a6991906151b0565b60405180910390a250505050565b6000600260009054906101000a900473ffffffffffffffffffffffffffffffffffffffff16905090565b6000600360149054906101000a900460ff1615612abd57600080fd5b600115156016600084815260200190815260200160002060008573ffffffffffffffffffffffffffffffffffffffff1673ffffffffffffffffffffffffffffffffffffffff16815260200190815260200160002060009054906101000a900460ff16151514905092915050565b8060009080519060200190612b409291906146b9565b5050565b600360009054906101000a900473ffffffffffffffffffffffffffffffffffffffff1673ffffffffffffffffffffffffffffffffffffffff163373ffffffffffffffffffffffffffffffffffffffff1614612b9e57600080fd5b612ba88282614203565b7f6d08be0da99b3a8dabb8a9d0bd4ebece8d00f747b0d0e6c29f97508f1a40a29181604051612bd791906151b0565b60405180910390a15050565b6000600360149054906101000a900460ff1615612bff57600080fd5b60076000838152602001908152602001600020600a0160009054906101000a900473ffffffffffffffffffffffffffffffffffffffff1673ffffffffffffffffffffffffffffffffffffffff168373ffffffffffffffffffffffffffffffffffffffff1614905092915050565b600360009054906101000a900473ffffffffffffffffffffffffffffffffffffffff1673ffffffffffffffffffffffffffffffffffffffff163373ffffffffffffffffffffffffffffffffffffffff161480612d155750600160009054906101000a900473ffffffffffffffffffffffffffffffffffffffff1673ffffffffffffffffffffffffffffffffffffffff163373ffffffffffffffffffffffffffffffffffffffff16145b80612d6d5750600260009054906101000a900473ffffffffffffffffffffffffffffffffffffffff1673ffffffffffffffffffffffffffffffffffffffff163373ffffffffffffffffffffffffffffffffffffffff16145b612d7657600080fd5b600360149054906101000a900460ff1615612d9057600080fd5b6001600360146101000a81548160ff021916908315150217905550565b606060008054612dbc906155c9565b80601f0160208091040260200160405190810160405280929190818152602001828054612de8906155c9565b8015612e355780601f10612e0a57610100808354040283529160200191612e35565b820191906000526020600020905b815481529060010190602001808311612e1857829003601f168201915b5050505050905090565b6000600260009054906101000a900473ffffffffffffffffffffffffffffffffffffffff1673ffffffffffffffffffffffffffffffffffffffff163373ffffffffffffffffffffffffffffffffffffffff1614905090565b6000612ea33383613a8a565b9050919050565b600360149054906101000a900460ff1615612ec457600080fd5b80612ecf3382613a8a565b612ed857600080fd5b60016010600084815260200190815260200160002060008673ffffffffffffffffffffffffffffffffffffffff1673ffffffffffffffffffffffffffffffffffffffff16815260200190815260200160002060006101000a81548160ff02191690831515021790555060116000838152602001908152602001600020849080600181540180825580915050600190039060005260206000200160009091909190916101000a81548173ffffffffffffffffffffffffffffffffffffffff021916908373ffffffffffffffffffffffffffffffffffffffff16021790555060126000838152602001908152602001600020839080600181540180825580915050600190039060005260206000200160009091909190915090805190602001906130019291906146b9565b50826014600084815260200190815260200160002060008673ffffffffffffffffffffffffffffffffffffffff1673ffffffffffffffffffffffffffffffffffffffff16815260200190815260200160002090805190602001906130669291906146b9565b5060136000838152602001908152602001600020600190806001815401808255809150506001900390600052602060002090602091828204019190069091909190916101000a81548160ff0219169083151502179055508373ffffffffffffffffffffffffffffffffffffffff167f46b8357d30dedd734a71d059a385f46b6e667bff20233f907477760207f889658360405161310391906151b0565b60405180910390a250505050565b6060601160008381526020019081526020016000208054806020026020016040519081016040528092919081815260200182805480156131a657602002820191906000526020600020905b8160009054906101000a900473ffffffffffffffffffffffffffffffffffffffff1673ffffffffffffffffffffffffffffffffffffffff168152602001906001019080831161315c575b50505050509050919050565b806131bd3382613a8a565b6131c657600080fd5b600360149054906101000a900460ff16156131e057600080fd5b60016007600084815260200190815260200160002060020160006101000a81548160ff0219169083600381111561321a576132196156d3565b5b02179055504260076000848152602001908152602001600020600301819055503373ffffffffffffffffffffffffffffffffffffffff167ff77c6f27499b698205f54058c2914a340e1300c2bc0d9a819e7aebfbaabbbb938360405161328091906151b0565b60405180910390a25050565b836132973382612be3565b6132a057600080fd5b6000845111156132d657836007600087815260200190815260200160002060070190805190602001906132d49291906146b9565b505b60008351111561330c578260076000878152602001908152602001600020600801908051906020019061330a9291906146b9565b505b60008251111561334257816007600087815260200190815260200160002060090190805190602001906133409291906146b9565b505b7fcd9ad49d834aeea746bafd2d26eebd3d01ebac2d8f5d3f53d7f3884292e5835f856007600088815260200190815260200160002060070160076000898152602001908152602001600020600801600760008a81526020019081526020016000206009016040516133b694939291906151f4565b60405180910390a15050505050565b600360009054906101000a900473ffffffffffffffffffffffffffffffffffffffff1681565b6000600360149054906101000a900460ff16905090565b600033905090565b6060600580548060200260200160405190810160405280929190818152602001828054801561345857602002820191906000526020600020905b815481526020019060010190808311613444575b5050505050905090565b8061346d3382613a8a565b806134c55750600360009054906101000a900473ffffffffffffffffffffffffffffffffffffffff1673ffffffffffffffffffffffffffffffffffffffff163373ffffffffffffffffffffffffffffffffffffffff16145b6134ce57600080fd5b600360149054906101000a900460ff16156134e857600080fd5b6134f2838361449a565b505050565b60008054613504906155c9565b80601f0160208091040260200160405190810160405280929190818152602001828054613530906155c9565b801561357d5780601f106135525761010080835404028352916020019161357d565b820191906000526020600020905b81548152906001019060200180831161356057829003601f168201915b505050505081565b600360009054906101000a900473ffffffffffffffffffffffffffffffffffffffff1673ffffffffffffffffffffffffffffffffffffffff163373ffffffffffffffffffffffffffffffffffffffff16146135df57600080fd5b6135e98282614122565b5050565b60606006805480602002602001604051908101604052809291908181526020016000905b828210156136bd578382906000526020600020018054613630906155c9565b80601f016020809104026020016040519081016040528092919081815260200182805461365c906155c9565b80156136a95780601f1061367e576101008083540402835291602001916136a9565b820191906000526020600020905b81548152906001019060200180831161368c57829003601f168201915b505050505081526020019060010190613611565b50505050905090565b6136ce61473f565b816136d93382613a8a565b6136e257600080fd5b60076000848152602001908152602001600020604051806101c00160405290816000820154815260200160018201805461371b906155c9565b80601f0160208091040260200160405190810160405280929190818152602001828054613747906155c9565b80156137945780601f1061376957610100808354040283529160200191613794565b820191906000526020600020905b81548152906001019060200180831161377757829003601f168201915b505050505081526020016002820160009054906101000a900460ff1660038111156137c2576137c16156d3565b5b60038111156137d4576137d36156d3565b5b815260200160038201548152602001600482015481526020016005820154815260200160068201548152602001600782018054613810906155c9565b80601f016020809104026020016040519081016040528092919081815260200182805461383c906155c9565b80156138895780601f1061385e57610100808354040283529160200191613889565b820191906000526020600020905b81548152906001019060200180831161386c57829003601f168201915b505050505081526020016008820180546138a2906155c9565b80601f01602080910402602001604051908101604052809291908181526020018280546138ce906155c9565b801561391b5780601f106138f05761010080835404028352916020019161391b565b820191906000526020600020905b8154815290600101906020018083116138fe57829003601f168201915b50505050508152602001600982018054613934906155c9565b80601f0160208091040260200160405190810160405280929190818152602001828054613960906155c9565b80156139ad5780601f10613982576101008083540402835291602001916139ad565b820191906000526020600020905b81548152906001019060200180831161399057829003601f168201915b50505050508152602001600a820160009054906101000a900473ffffffffffffffffffffffffffffffffffffffff1673ffffffffffffffffffffffffffffffffffffffff1673ffffffffffffffffffffffffffffffffffffffff168152602001600b8201548152602001600c8201548152602001600d82015481525050915050919050565b6000600160009054906101000a900473ffffffffffffffffffffffffffffffffffffffff1673ffffffffffffffffffffffffffffffffffffffff163373ffffffffffffffffffffffffffffffffffffffff1614905090565b6000806009600084815260200190815260200160002060008573ffffffffffffffffffffffffffffffffffffffff1673ffffffffffffffffffffffffffffffffffffffff1681526020019081526020016000205490506000811415613af3576000915050613b96565b600e60008481526020019081526020016000208181548110613b1857613b17615731565b5b90600052602060002090602091828204019190069054906101000a900460ff16613b46576000915050613b96565b60011515600e60008581526020019081526020016000208281548110613b6f57613b6e615731565b5b90600052602060002090602091828204019190069054906101000a900460ff161515149150505b92915050565b80613ba73382612be3565b613bb057600080fd5b600360149054906101000a900460ff1615613bca57600080fd5b3460076000848152602001908152602001600020600b016000828254613bf091906153f3565b925050819055503373ffffffffffffffffffffffffffffffffffffffff167f5dc1fe5ab986a852c4eda8e8bb94247d13307065c593fb83f1a09be2736793828360076000868152602001908152602001600020600b0154604051613c5592919061524e565b60405180910390a25050565b60006009600083815260200190815260200160002060003373ffffffffffffffffffffffffffffffffffffffff1673ffffffffffffffffffffffffffffffffffffffff168152602001908152602001600020549050919050565b600360009054906101000a900473ffffffffffffffffffffffffffffffffffffffff1673ffffffffffffffffffffffffffffffffffffffff163373ffffffffffffffffffffffffffffffffffffffff1614613d1557600080fd5b600360149054906101000a900460ff1615613d2f57600080fd5b60004290506000604051806101c0016040528083815260200184815260200160006003811115613d6257613d616156d3565b5b815260200142815260200142815260200142815260200160008152602001604051806020016040528060008152508152602001604051806020016040528060008152508152602001604051806020016040528060008152508152602001600073ffffffffffffffffffffffffffffffffffffffff1681526020016000815260200160008152602001600081525090508060076000848152602001908152602001600020600082015181600001556020820151816001019080519060200190613e2b9291906146b9565b5060408201518160020160006101000a81548160ff02191690836003811115613e5757613e566156d3565b5b0217905550606082015181600301556080820151816004015560a0820151816005015560c0820151816006015560e0820151816007019080519060200190613ea09291906146b9565b50610100820151816008019080519060200190613ebe9291906146b9565b50610120820151816009019080519060200190613edc9291906146b9565b5061014082015181600a0160006101000a81548173ffffffffffffffffffffffffffffffffffffffff021916908373ffffffffffffffffffffffffffffffffffffffff16021790555061016082015181600b015561018082015181600c01556101a082015181600d01559050506005829080600181540180825580915050600190039060005260206000200160009091909190915055600683908060018154018082558091505060019003906000526020600020016000909190919091509080519060200190613fad9291906146b9565b507f5937a473913f56daf7dea7a6e821970acaa73f35555cf88f70c54f243cd98a9e8383604051613fdf92919061513e565b60405180910390a1505050565b6000600360149054906101000a900460ff161561400857600080fd5b6140123383612be3565b9050919050565b6000600360009054906101000a900473ffffffffffffffffffffffffffffffffffffffff1673ffffffffffffffffffffffffffffffffffffffff163373ffffffffffffffffffffffffffffffffffffffff1614905090565b600061407d3383612aa1565b61408a57600090506140f3565b60011515600b600084815260200190815260200160002060003373ffffffffffffffffffffffffffffffffffffffff1673ffffffffffffffffffffffffffffffffffffffff16815260200190815260200160002060009054906101000a900460ff161515141590505b919050565b6000600360009054906101000a900473ffffffffffffffffffffffffffffffffffffffff16905090565b60006009600083815260200190815260200160002060008473ffffffffffffffffffffffffffffffffffffffff1673ffffffffffffffffffffffffffffffffffffffff1681526020019081526020016000205490506000600e6000848152602001908152602001600020828154811061419e5761419d615731565b5b90600052602060002090602091828204019190066101000a81548160ff0219169083151502179055507f99f4c949f294dd13aa62d19c1344b81968121fe570d11657ebd54aae55ac0f20826040516141f691906151b0565b60405180910390a1505050565b6000600a6000838152602001908152602001600020541415614304576001600a600083815260200190815260200160002081905550600c600082815260200190815260200160002060009080600181540180825580915050600190039060005260206000200160009091909190916101000a81548173ffffffffffffffffffffffffffffffffffffffff021916908373ffffffffffffffffffffffffffffffffffffffff160217905550600e6000828152602001908152602001600020600090806001815401808255809150506001900390600052602060002090602091828204019190069091909190916101000a81548160ff0219169083151502179055505b600a6000828152602001908152602001600020546009600083815260200190815260200160002060008473ffffffffffffffffffffffffffffffffffffffff1673ffffffffffffffffffffffffffffffffffffffff16815260200190815260200160002081905550600c6000828152602001908152602001600020829080600181540180825580915050600190039060005260206000200160009091909190916101000a81548173ffffffffffffffffffffffffffffffffffffffff021916908373ffffffffffffffffffffffffffffffffffffffff160217905550600e6000828152602001908152602001600020600190806001815401808255809150506001900390600052602060002090602091828204019190069091909190916101000a81548160ff021916908315150217905550600a6000828152602001908152602001600020600081548092919061445a9061562c565b91905055507f6d08be0da99b3a8dabb8a9d0bd4ebece8d00f747b0d0e6c29f97508f1a40a2918160405161448e91906151b0565b60405180910390a15050565b6001600f600083815260200190815260200160002060008473ffffffffffffffffffffffffffffffffffffffff1673ffffffffffffffffffffffffffffffffffffffff16815260200190815260200160002060006101000a81548160ff0219169083151502179055508160076000838152602001908152602001600020600a0160006101000a81548173ffffffffffffffffffffffffffffffffffffffff021916908373ffffffffffffffffffffffffffffffffffffffff1602179055508173ffffffffffffffffffffffffffffffffffffffff167f5fd6d0b7e707fe344bd2a1887f9d0eeea8bfcac6f339ba4200e74f0647f101c08260405161459e91906151b0565b60405180910390a25050565b5080546145b6906155c9565b6000825580601f106145c857506145e7565b601f0160209004906000526020600020908101906145e691906147d6565b5b50565b508054600082559060005260206000209081019061460891906147f3565b50565b508054600082559060005260206000209081019061462991906147d6565b50565b828054614638906155c9565b90600052602060002090601f01602090048101928261465a57600085556146a8565b82601f1061466b57805485556146a8565b828001600101855582156146a857600052602060002091601f016020900482015b828111156146a757825482559160010191906001019061468c565b5b5090506146b591906147d6565b5090565b8280546146c5906155c9565b90600052602060002090601f0160209004810192826146e7576000855561472e565b82601f1061470057805160ff191683800117855561472e565b8280016001018555821561472e579182015b8281111561472d578251825591602001919060010190614712565b5b50905061473b91906147d6565b5090565b604051806101c0016040528060008152602001606081526020016000600381111561476d5761476c6156d3565b5b815260200160008152602001600081526020016000815260200160008152602001606081526020016060815260200160608152602001600073ffffffffffffffffffffffffffffffffffffffff1681526020016000815260200160008152602001600081525090565b5b808211156147ef5760008160009055506001016147d7565b5090565b5b80821115614813576000818161480a91906145aa565b506001016147f4565b5090565b600061482a6148258461529c565b615277565b90508281526020810184848401111561484657614845615794565b5b614851848285615587565b509392505050565b60008135905061486881615817565b92915050565b600082601f8301126148835761488261578f565b5b8135614893848260208601614817565b91505092915050565b6000813590506148ab8161582e565b92915050565b6000602082840312156148c7576148c661579e565b5b60006148d584828501614859565b91505092915050565b6000806000606084860312156148f7576148f661579e565b5b600061490586828701614859565b935050602084013567ffffffffffffffff81111561492657614925615799565b5b6149328682870161486e565b92505060406149438682870161489c565b9150509250925092565b600080604083850312156149645761496361579e565b5b600061497285828601614859565b92505060206149838582860161489c565b9150509250929050565b6000602082840312156149a3576149a261579e565b5b600082013567ffffffffffffffff8111156149c1576149c0615799565b5b6149cd8482850161486e565b91505092915050565b6000602082840312156149ec576149eb61579e565b5b60006149fa8482850161489c565b91505092915050565b60008060008060808587031215614a1d57614a1c61579e565b5b6000614a2b8782880161489c565b945050602085013567ffffffffffffffff811115614a4c57614a4b615799565b5b614a588782880161486e565b935050604085013567ffffffffffffffff811115614a7957614a78615799565b5b614a858782880161486e565b925050606085013567ffffffffffffffff811115614aa657614aa5615799565b5b614ab28782880161486e565b91505092959194509250565b6000614aca8383614b1a565b60208301905092915050565b6000614ae28383614cc7565b60208301905092915050565b6000614afa8383614d12565b905092915050565b6000614b0e8383614f6a565b60208301905092915050565b614b2381615508565b82525050565b614b3281615508565b82525050565b6000614b4382615322565b614b4d818561538d565b9350614b58836152cd565b8060005b83811015614b89578151614b708882614abe565b9750614b7b83615359565b925050600181019050614b5c565b5085935050505092915050565b6000614ba18261532d565b614bab818561539e565b9350614bb6836152dd565b8060005b83811015614be7578151614bce8882614ad6565b9750614bd983615366565b925050600181019050614bba565b5085935050505092915050565b6000614bff82615338565b614c0981856153af565b935083602082028501614c1b856152ed565b8060005b85811015614c575784840389528151614c388582614aee565b9450614c4383615373565b925060208a01995050600181019050614c1f565b50829750879550505050505092915050565b6000614c7482615343565b614c7e81856153c0565b9350614c89836152fd565b8060005b83811015614cba578151614ca18882614b02565b9750614cac83615380565b925050600181019050614c8d565b5085935050505092915050565b614cd08161551a565b82525050565b614cdf8161551a565b82525050565b614cee81615563565b82525050565b614cfd81615563565b82525050565b614d0c81615575565b82525050565b6000614d1d8261534e565b614d2781856153d1565b9350614d37818560208601615596565b614d40816157a3565b840191505092915050565b6000614d568261534e565b614d6081856153e2565b9350614d70818560208601615596565b614d79816157a3565b840191505092915050565b60008154614d91816155c9565b614d9b81866153e2565b94506001821660008114614db65760018114614dc857614dfb565b60ff1983168652602086019350614dfb565b614dd18561530d565b60005b83811015614df357815481890152600182019150602081019050614dd4565b808801955050505b50505092915050565b6000614e11602d836153e2565b9150614e1c826157b4565b604082019050919050565b60006101c083016000830151614e406000860182614f6a565b5060208301518482036020860152614e588282614d12565b9150506040830151614e6d6040860182614ce5565b506060830151614e806060860182614f6a565b506080830151614e936080860182614f6a565b5060a0830151614ea660a0860182614f6a565b5060c0830151614eb960c0860182614f6a565b5060e083015184820360e0860152614ed18282614d12565b915050610100830151848203610100860152614eed8282614d12565b915050610120830151848203610120860152614f098282614d12565b915050610140830151614f20610140860182614b1a565b50610160830151614f35610160860182614f6a565b50610180830151614f4a610180860182614f6a565b506101a0830151614f5f6101a0860182614f6a565b508091505092915050565b614f7381615559565b82525050565b614f8281615559565b82525050565b6000602082019050614f9d6000830184614b29565b92915050565b60006020820190508181036000830152614fbd8184614b38565b905092915050565b60006040820190508181036000830152614fdf8185614b38565b90508181036020830152614ff38184614b96565b90509392505050565b600060208201905081810360008301526150168184614b96565b905092915050565b600060208201905081810360008301526150388184614bf4565b905092915050565b6000602082019050818103600083015261505a8184614c69565b905092915050565b60006020820190506150776000830184614cd6565b92915050565b600060a0820190506150926000830188614cf4565b61509f6020830187614f79565b6150ac6040830186614f79565b6150b96060830185614f79565b6150c66080830184614f79565b9695505050505050565b600060208201905081810360008301526150ea8184614d4b565b905092915050565b6000606082019050818103600083015261510c8186614d4b565b905081810360208301526151208185614d4b565b905081810360408301526151348184614d4b565b9050949350505050565b600060408201905081810360008301526151588185614d4b565b90506151676020830184614f79565b9392505050565b6000602082019050818103600083015261518781614e04565b9050919050565b600060208201905081810360008301526151a88184614e27565b905092915050565b60006020820190506151c56000830184614f79565b92915050565b60006040820190506151e06000830185614f79565b6151ed6020830184614d03565b9392505050565b60006080820190506152096000830187614f79565b818103602083015261521b8186614d84565b9050818103604083015261522f8185614d84565b905081810360608301526152438184614d84565b905095945050505050565b60006040820190506152636000830185614f79565b6152706020830184614f79565b9392505050565b6000615281615292565b905061528d82826155fb565b919050565b6000604051905090565b600067ffffffffffffffff8211156152b7576152b6615760565b5b6152c0826157a3565b9050602081019050919050565b6000819050602082019050919050565b6000819050602082019050919050565b6000819050602082019050919050565b6000819050602082019050919050565b60008190508160005260206000209050919050565b600081519050919050565b600081519050919050565b600081519050919050565b600081519050919050565b600081519050919050565b6000602082019050919050565b6000602082019050919050565b6000602082019050919050565b6000602082019050919050565b600082825260208201905092915050565b600082825260208201905092915050565b600082825260208201905092915050565b600082825260208201905092915050565b600082825260208201905092915050565b600082825260208201905092915050565b60006153fe82615559565b915061540983615559565b9250827fffffffffffffffffffffffffffffffffffffffffffffffffffffffffffffffff0382111561543e5761543d615675565b5b828201905092915050565b600061545482615559565b915061545f83615559565b92508261546f5761546e6156a4565b5b828204905092915050565b600061548582615559565b915061549083615559565b9250817fffffffffffffffffffffffffffffffffffffffffffffffffffffffffffffffff04831182151516156154c9576154c8615675565b5b828202905092915050565b60006154df82615559565b91506154ea83615559565b9250828210156154fd576154fc615675565b5b828203905092915050565b600061551382615539565b9050919050565b60008115159050919050565b600081905061553482615803565b919050565b600073ffffffffffffffffffffffffffffffffffffffff82169050919050565b6000819050919050565b600061556e82615526565b9050919050565b600061558082615559565b9050919050565b82818337600083830152505050565b60005b838110156155b4578082015181840152602081019050615599565b838111156155c3576000848401525b50505050565b600060028204905060018216806155e157607f821691505b602082108114156155f5576155f4615702565b5b50919050565b615604826157a3565b810181811067ffffffffffffffff8211171561562357615622615760565b5b80604052505050565b600061563782615559565b91507fffffffffffffffffffffffffffffffffffffffffffffffffffffffffffffffff82141561566a57615669615675565b5b600182019050919050565b7f4e487b7100000000000000000000000000000000000000000000000000000000600052601160045260246000fd5b7f4e487b7100000000000000000000000000000000000000000000000000000000600052601260045260246000fd5b7f4e487b7100000000000000000000000000000000000000000000000000000000600052602160045260246000fd5b7f4e487b7100000000000000000000000000000000000000000000000000000000600052602260045260246000fd5b7f4e487b7100000000000000000000000000000000000000000000000000000000600052603260045260246000fd5b7f4e487b7100000000000000000000000000000000000000000000000000000000600052604160045260246000fd5b600080fd5b600080fd5b600080fd5b600080fd5b6000601f19601f8301169050919050565b7f43616e277420656e6420726567697374726174696f6e2077697468207a65726f60008201527f2072656769737472616e74732100000000000000000000000000000000000000602082015250565b60048110615814576158136156d3565b5b50565b61582081615508565b811461582b57600080fd5b50565b61583781615559565b811461584257600080fd5b5056fea264697066735822122082858b36b834bdaa5c53e99521bd137181d023969ef5b471bf707dbf991d9b3164736f6c63430008060033",
  "immutableReferences": {},
  "source": "// SPDX-License-Identifier: MIT\npragma solidity ^0.8.0;\n\nimport \"./ContributorManager.sol\";\n\ncontract AdminsManager is ContributorManager {\n    event GroupCreated(string groupName, uint256 groupId);\n    event EventStarted(address indexed startedBy, uint256 groupId);\n    event RegistrationEnded(address indexed endedBy, uint256 groupId);\n    event EventEnded(address indexed endedBy, uint256 groupId);\n    event AdminAdded(uint256 groupId);\n    event AdminRemoved(uint256 groupId);\n\n    event CalculatedPot(\n        uint256 registeredRecipientCount,\n        uint256 winningsPerRecipient\n    );\n\n    constructor() {}\n\n    modifier onlyAdmins(uint256 groupId) {\n        require(isAdmin(msg.sender, groupId));\n        _;\n    }\n\n    function isAdmin(address account, uint256 groupId)\n        public\n        view\n        returns (bool)\n    {\n        uint256 adminIndex = adminAddresToIndex[groupId][account];\n\n        // if user was never an admin, return false\n        if (adminIndex == 0) {\n            return false;\n        }\n\n        if (!adminEnabled[groupId][adminIndex]) {\n            return false;\n        }\n\n        return adminEnabled[groupId][adminIndex] == true;\n\n    }\n\n    // debug\n    function getMyAdminIndex(uint256 groupId) external view returns (uint256) {\n        return adminAddresToIndex[groupId][msg.sender];\n    }\n\n    // debug\n    function getAddressNextAdminIndex(uint256 groupId)\n        external\n        view\n        returns (uint256)\n    {\n        return adminAddressNextIndex3[groupId];\n    }\n\n    function amIAdmin(uint256 groupId) external view returns (bool) {\n        return isAdmin(msg.sender, groupId);\n    }\n\n    function getAdminsForGroup(uint256 groupId)\n        external\n        view\n        returns (address[] memory, bool[] memory)\n    {\n        return (adminAddresses[groupId], adminEnabled[groupId]);\n    }\n\n    modifier onlyAdminsOrCOO(uint256 groupId) {\n        require(isAdmin(msg.sender, groupId) || msg.sender == cooAddress);\n        _;\n    }\n\n    // TODO - allow COO to give \"admin-granting power\" to other admins\n    function addAdmin(address account, uint256 groupId) external onlyCOO {\n        _addAdmin(account, groupId);\n\n        emit AdminAdded(groupId);\n    }\n\n    function removeAdmin(address account, uint256 groupId) external onlyCOO {\n        _removeAdmin(account, groupId);\n    }\n\n    function renounceAdmin(uint256 groupId) public onlyAdmins(groupId) {\n        _removeAdmin(msg.sender, groupId);\n    }\n\n    function _addAdmin(address account, uint256 groupId) internal {   \n\n        // if first user, use index 1 and push some garbage things at the 0 index\n        if (adminAddressNextIndex3[groupId] == 0) {\n            adminAddressNextIndex3[groupId] = 1;\n            adminAddresses[groupId].push(address(0));\n            adminEnabled[groupId].push(false);\n        }\n\n        adminAddresToIndex[groupId][account] = adminAddressNextIndex3[groupId];\n        adminAddresses[groupId].push(account);\n        adminEnabled[groupId].push(true);\n\n        adminAddressNextIndex3[groupId]++;\n\n        emit AdminAdded(groupId);\n    }\n\n    function _removeAdmin(address account, uint256 groupId) internal {\n        uint256 index = adminAddresToIndex[groupId][account];\n        adminEnabled[groupId][index] = false;\n\n        emit AdminRemoved(groupId);\n    }\n\n    function readEventInfo(uint256 groupId)\n        external\n        view\n        onlyAdmins(groupId)\n        returns (EthDropEvent memory)\n    {\n        return currentEvents[groupId];\n    }\n\n    function createNewGroup(string memory groupName)\n        external\n        onlyCOO\n        whenNotPaused\n    {\n        // TODO - is this the best way to set the groupId? \n        uint256 newGroupId = block.timestamp;\n\n        EthDropEvent memory newGroup = EthDropEvent(\n            newGroupId,\n            groupName,\n            EventState.CREATED,\n            block.timestamp,\n            block.timestamp,\n            block.timestamp,\n            0,\n            \"\",\n            \"\",\n            \"\",\n            address(0),\n            0,\n            0,\n            0\n        );\n\n        currentEvents[newGroupId] = newGroup;\n\n        listOfGroupIds.push(newGroupId);\n        listOfGroupNames.push(groupName);\n\n        emit GroupCreated(groupName, newGroupId);\n    }\n\n    function startEvent(uint256 groupId)\n        external\n        onlyAdmins(groupId)\n        whenNotPaused\n    {\n        currentEvents[groupId].currentState = EventState.REGISTRATION;\n        currentEvents[groupId].startTime = block.timestamp;\n\n        emit EventStarted(msg.sender, groupId);\n    }\n\n    function closeEventRegistration(uint256 groupId)\n        external\n        onlyAdmins(groupId)\n        whenNotPaused\n    {\n        require(\n            currentEvents[groupId].registeredRecipientsCount >= 1,\n            \"Can't end registration with zero registrants!\"\n        );\n\n        currentEvents[groupId].registrationEndTime = block.timestamp;\n\n        uint256 devCutWei = (currentEvents[groupId].totalAmountContributed *\n            devCutPercentage) / 100;\n\n        // Transfer dev cut to cfo\n        payable(cfoAddress).transfer(devCutWei);\n\n        // pot is the amount for recipients to share\n        uint256 pot = currentEvents[groupId].totalAmountContributed - devCutWei;\n\n        // each recipient's winnings is the \"weiWinnings\"\n        currentEvents[groupId].weiWinnings =\n            pot /\n            currentEvents[groupId].registeredRecipientsCount;\n\n        currentEvents[groupId].currentState = EventState.CLAIM_WINNINGS;\n\n        emit RegistrationEnded(msg.sender, groupId);\n    }\n\n    function endEvent(uint256 groupId)\n        external\n        onlyAdminsOrCOO(groupId)\n        whenNotPaused\n    {\n        currentEvents[groupId].endTime = block.timestamp;\n\n        currentEvents[groupId].currentState = EventState.ENDED;\n\n        // First delete mappings, then arrays\n        for (\n            uint256 i = 0;\n            i < currentEvents[groupId].registeredRecipientsCount;\n            i++\n        ) {\n            address currentAddress = registeredRecipientAddressesArray[groupId][\n                i\n            ];\n\n            delete registeredRecipients[groupId][currentAddress];\n            delete recipientAddressToName[groupId][currentAddress];\n            delete winningsCollected[groupId][currentAddress];\n        }\n\n        delete registeredRecipientNamesArray[groupId];\n        delete registeredRecipientAddressesArray[groupId];\n\n        pastEvents[groupId].push(currentEvents[groupId]);\n\n        currentEvents[groupId].registeredRecipientsCount = 0;\n        currentEvents[groupId].totalAmountContributed = 0;\n        currentEvents[groupId].weiWinnings = 0;\n        currentEvents[groupId].numberOfUsersWhoClaimedWinnings = 0;\n\n        emit ContributionMade(msg.sender, groupId, 0);\n        emit RecipientRegistered(msg.sender, groupId);\n        emit EventEnded(msg.sender, groupId);\n    }\n\n    function addEligibleRecipient(\n        address account,\n        string memory name,\n        uint256 groupId\n    ) external whenNotPaused onlyAdmins(groupId) {\n        eligibleRecipients[groupId][account] = true;\n\n        eligibleRecipientAddressesArray[groupId].push(account);\n        eligibleRecipientNamesArray[groupId].push(name);\n\n        recipientAddressToName[groupId][account] = name;\n        eligibleRecipientsEligibilityIsEnabled[groupId].push(true);\n\n        emit EligibleRecipientAdded(account, groupId);\n    }\n\n    function removeEligibleRecipient(address account, uint256 groupId)\n        external\n        onlyAdmins(groupId)\n        whenNotPaused\n    {\n        eligibleRecipients[groupId][account] = false;\n        emit EligibleRecipientRemoved(account, groupId);\n    }\n\n    function changeContributor(address account, uint256 groupId)\n        external\n        onlyAdminsOrCOO(groupId)\n        whenNotPaused\n    {\n        _changeContributor(account, groupId);\n    }\n}\n",
  "sourcePath": "/Users/jlynch/Git-Projects/EthDrop/contracts/roles/AdminsManager.sol",
  "compiler": {
    "name": "solc",
    "version": "0.8.6+commit.11564f7e.Emscripten.clang"
  },
  "schemaVersion": "3.4.1",
  "updatedAt": "2021-08-01T02:24:26.838Z",
  "networkType": "ethereum",
  "devdoc": {
    "kind": "dev",
    "methods": {
      "pause()": {
        "details": "Called by any \"C-level\" role to pause the contract. Used only when  a bug or exploit is detected and we need to limit damage."
      },
      "setCEO(address)": {
        "details": "Assigns a new address to act as the CEO. Only available to the current CEO.",
        "params": {
          "_newCEO": "The address of the new CEO"
        }
      },
      "setCFO(address)": {
        "details": "Assigns a new address to act as the CFO. Only available to the current CEO.",
        "params": {
          "_newCFO": "The address of the new CFO"
        }
      },
      "setCOO(address)": {
        "details": "Assigns a new address to act as the COO. Only available to the current CEO.",
        "params": {
          "_newCOO": "The address of the new COO"
        }
      },
      "unpause()": {
        "details": "Unpauses the smart contract. Can only be called by the CEO, since  one reason we may pause the contract is when CFO or COO accounts are  compromised."
      }
    },
    "version": 1
  },
  "userdoc": {
    "kind": "user",
    "methods": {
      "unpause()": {
        "notice": "This is public rather than external so it can be called by  derived contracts."
      }
    },
    "version": 1
  }
}