{
  "contractName": "ContributorManager",
  "abi": [
    {
      "inputs": [],
      "stateMutability": "nonpayable",
      "type": "constructor"
    },
    {
      "anonymous": false,
      "inputs": [
        {
          "indexed": false,
          "internalType": "address",
          "name": "newContract",
          "type": "address"
        }
      ],
      "name": "ContractUpgrade",
      "type": "event"
    },
    {
      "anonymous": false,
      "inputs": [
        {
          "indexed": true,
          "internalType": "address",
          "name": "account",
          "type": "address"
        },
        {
          "indexed": false,
          "internalType": "uint256",
          "name": "groupId",
          "type": "uint256"
        },
        {
          "indexed": false,
          "internalType": "uint256",
          "name": "amount",
          "type": "uint256"
        }
      ],
      "name": "ContributionMade",
      "type": "event"
    },
    {
      "anonymous": false,
      "inputs": [
        {
          "indexed": true,
          "internalType": "address",
          "name": "account",
          "type": "address"
        },
        {
          "indexed": false,
          "internalType": "uint256",
          "name": "groupId",
          "type": "uint256"
        }
      ],
      "name": "ContributorAdded",
      "type": "event"
    },
    {
      "anonymous": false,
      "inputs": [
        {
          "indexed": true,
          "internalType": "address",
          "name": "account",
          "type": "address"
        },
        {
          "indexed": false,
          "internalType": "uint256",
          "name": "groupId",
          "type": "uint256"
        }
      ],
      "name": "ContributorRemoved",
      "type": "event"
    },
    {
      "anonymous": false,
      "inputs": [
        {
          "indexed": true,
          "internalType": "address",
          "name": "account",
          "type": "address"
        },
        {
          "indexed": false,
          "internalType": "uint256",
          "name": "groupId",
          "type": "uint256"
        }
      ],
      "name": "EligibleRecipientAdded",
      "type": "event"
    },
    {
      "anonymous": false,
      "inputs": [
        {
          "indexed": true,
          "internalType": "address",
          "name": "account",
          "type": "address"
        },
        {
          "indexed": false,
          "internalType": "uint256",
          "name": "groupId",
          "type": "uint256"
        }
      ],
      "name": "EligibleRecipientRemoved",
      "type": "event"
    },
    {
      "anonymous": false,
      "inputs": [],
      "name": "EventClose",
      "type": "event"
    },
    {
      "anonymous": false,
      "inputs": [
        {
          "indexed": true,
          "internalType": "address",
          "name": "account",
          "type": "address"
        },
        {
          "indexed": false,
          "internalType": "uint256",
          "name": "groupId",
          "type": "uint256"
        }
      ],
      "name": "RecipientRegistered",
      "type": "event"
    },
    {
      "anonymous": false,
      "inputs": [],
      "name": "RegistrationOpen",
      "type": "event"
    },
    {
      "anonymous": false,
      "inputs": [
        {
          "indexed": false,
          "internalType": "address",
          "name": "from",
          "type": "address"
        },
        {
          "indexed": false,
          "internalType": "address",
          "name": "to",
          "type": "address"
        }
      ],
      "name": "Transfer",
      "type": "event"
    },
    {
      "anonymous": false,
      "inputs": [
        {
          "indexed": true,
          "internalType": "address",
          "name": "account",
          "type": "address"
        },
        {
          "indexed": false,
          "internalType": "uint256",
          "name": "groupId",
          "type": "uint256"
        }
      ],
      "name": "WinningsClaimed",
      "type": "event"
    },
    {
      "anonymous": false,
      "inputs": [],
      "name": "WinningsClaimingOpen",
      "type": "event"
    },
    {
      "inputs": [
        {
          "internalType": "uint256",
          "name": "groupId",
          "type": "uint256"
        }
      ],
      "name": "amIEligibleRecipient",
      "outputs": [
        {
          "internalType": "bool",
          "name": "",
          "type": "bool"
        }
      ],
      "stateMutability": "view",
      "type": "function",
      "constant": true
    },
    {
      "inputs": [
        {
          "internalType": "uint256",
          "name": "groupId",
          "type": "uint256"
        }
      ],
      "name": "amIRegisteredRecipient",
      "outputs": [
        {
          "internalType": "bool",
          "name": "",
          "type": "bool"
        }
      ],
      "stateMutability": "view",
      "type": "function",
      "constant": true
    },
    {
      "inputs": [],
      "name": "ceoAddress",
      "outputs": [
        {
          "internalType": "address",
          "name": "",
          "type": "address"
        }
      ],
      "stateMutability": "view",
      "type": "function",
      "constant": true
    },
    {
      "inputs": [],
      "name": "cfoAddress",
      "outputs": [
        {
          "internalType": "address",
          "name": "",
          "type": "address"
        }
      ],
      "stateMutability": "view",
      "type": "function",
      "constant": true
    },
    {
      "inputs": [
        {
          "internalType": "uint256",
          "name": "groupId",
          "type": "uint256"
        }
      ],
      "name": "claimWinnings",
      "outputs": [],
      "stateMutability": "nonpayable",
      "type": "function"
    },
    {
      "inputs": [],
      "name": "cooAddress",
      "outputs": [
        {
          "internalType": "address",
          "name": "",
          "type": "address"
        }
      ],
      "stateMutability": "view",
      "type": "function",
      "constant": true
    },
    {
      "inputs": [],
      "name": "getCFO",
      "outputs": [
        {
          "internalType": "address",
          "name": "",
          "type": "address"
        }
      ],
      "stateMutability": "view",
      "type": "function",
      "constant": true
    },
    {
      "inputs": [],
      "name": "getCOO",
      "outputs": [
        {
          "internalType": "address",
          "name": "",
          "type": "address"
        }
      ],
      "stateMutability": "view",
      "type": "function",
      "constant": true
    },
    {
      "inputs": [
        {
          "internalType": "uint256",
          "name": "groupId",
          "type": "uint256"
        }
      ],
      "name": "getEligibleRecipientAddresses",
      "outputs": [
        {
          "internalType": "address[]",
          "name": "",
          "type": "address[]"
        }
      ],
      "stateMutability": "view",
      "type": "function",
      "constant": true
    },
    {
      "inputs": [
        {
          "internalType": "uint256",
          "name": "groupId",
          "type": "uint256"
        }
      ],
      "name": "getEligibleRecipientIsEligibilityEnabled",
      "outputs": [
        {
          "internalType": "bool[]",
          "name": "",
          "type": "bool[]"
        }
      ],
      "stateMutability": "view",
      "type": "function",
      "constant": true
    },
    {
      "inputs": [
        {
          "internalType": "uint256",
          "name": "groupId",
          "type": "uint256"
        }
      ],
      "name": "getGroupEventData",
      "outputs": [
        {
          "internalType": "enum EthDropBase.EventState",
          "name": "",
          "type": "uint8"
        },
        {
          "internalType": "uint256",
          "name": "",
          "type": "uint256"
        },
        {
          "internalType": "uint256",
          "name": "",
          "type": "uint256"
        },
        {
          "internalType": "string",
          "name": "",
          "type": "string"
        },
        {
          "internalType": "string",
          "name": "",
          "type": "string"
        },
        {
          "internalType": "string",
          "name": "",
          "type": "string"
        }
      ],
      "stateMutability": "view",
      "type": "function",
      "constant": true
    },
    {
      "inputs": [],
      "name": "getGroupIds",
      "outputs": [
        {
          "internalType": "uint256[]",
          "name": "",
          "type": "uint256[]"
        }
      ],
      "stateMutability": "view",
      "type": "function",
      "constant": true
    },
    {
      "inputs": [],
      "name": "getGroupNames",
      "outputs": [
        {
          "internalType": "string[]",
          "name": "",
          "type": "string[]"
        }
      ],
      "stateMutability": "view",
      "type": "function",
      "constant": true
    },
    {
      "inputs": [
        {
          "internalType": "uint256",
          "name": "groupId",
          "type": "uint256"
        }
      ],
      "name": "getRegisteredRecipients",
      "outputs": [
        {
          "internalType": "address[]",
          "name": "",
          "type": "address[]"
        }
      ],
      "stateMutability": "view",
      "type": "function",
      "constant": true
    },
    {
      "inputs": [],
      "name": "getString",
      "outputs": [
        {
          "internalType": "string",
          "name": "",
          "type": "string"
        }
      ],
      "stateMutability": "view",
      "type": "function",
      "constant": true
    },
    {
      "inputs": [],
      "name": "isCEO",
      "outputs": [
        {
          "internalType": "bool",
          "name": "",
          "type": "bool"
        }
      ],
      "stateMutability": "view",
      "type": "function",
      "constant": true
    },
    {
      "inputs": [],
      "name": "isCFO",
      "outputs": [
        {
          "internalType": "bool",
          "name": "",
          "type": "bool"
        }
      ],
      "stateMutability": "view",
      "type": "function",
      "constant": true
    },
    {
      "inputs": [],
      "name": "isCOO",
      "outputs": [
        {
          "internalType": "bool",
          "name": "",
          "type": "bool"
        }
      ],
      "stateMutability": "view",
      "type": "function",
      "constant": true
    },
    {
      "inputs": [
        {
          "internalType": "address",
          "name": "account",
          "type": "address"
        },
        {
          "internalType": "uint256",
          "name": "groupId",
          "type": "uint256"
        }
      ],
      "name": "isEligibleRecipient",
      "outputs": [
        {
          "internalType": "bool",
          "name": "",
          "type": "bool"
        }
      ],
      "stateMutability": "view",
      "type": "function",
      "constant": true
    },
    {
      "inputs": [],
      "name": "isPaused",
      "outputs": [
        {
          "internalType": "bool",
          "name": "",
          "type": "bool"
        }
      ],
      "stateMutability": "view",
      "type": "function",
      "constant": true
    },
    {
      "inputs": [
        {
          "internalType": "address",
          "name": "account",
          "type": "address"
        },
        {
          "internalType": "uint256",
          "name": "groupId",
          "type": "uint256"
        }
      ],
      "name": "isRegisteredRecipient",
      "outputs": [
        {
          "internalType": "bool",
          "name": "",
          "type": "bool"
        }
      ],
      "stateMutability": "view",
      "type": "function",
      "constant": true
    },
    {
      "inputs": [],
      "name": "pause",
      "outputs": [],
      "stateMutability": "nonpayable",
      "type": "function"
    },
    {
      "inputs": [],
      "name": "paused",
      "outputs": [
        {
          "internalType": "bool",
          "name": "",
          "type": "bool"
        }
      ],
      "stateMutability": "view",
      "type": "function",
      "constant": true
    },
    {
      "inputs": [
        {
          "internalType": "uint256",
          "name": "groupId",
          "type": "uint256"
        }
      ],
      "name": "registerForEvent",
      "outputs": [],
      "stateMutability": "nonpayable",
      "type": "function"
    },
    {
      "inputs": [
        {
          "internalType": "address",
          "name": "_newCEO",
          "type": "address"
        }
      ],
      "name": "setCEO",
      "outputs": [],
      "stateMutability": "nonpayable",
      "type": "function"
    },
    {
      "inputs": [
        {
          "internalType": "address",
          "name": "_newCFO",
          "type": "address"
        }
      ],
      "name": "setCFO",
      "outputs": [],
      "stateMutability": "nonpayable",
      "type": "function"
    },
    {
      "inputs": [
        {
          "internalType": "address",
          "name": "_newCOO",
          "type": "address"
        }
      ],
      "name": "setCOO",
      "outputs": [],
      "stateMutability": "nonpayable",
      "type": "function"
    },
    {
      "inputs": [
        {
          "internalType": "string",
          "name": "_s",
          "type": "string"
        }
      ],
      "name": "setString",
      "outputs": [],
      "stateMutability": "nonpayable",
      "type": "function"
    },
    {
      "inputs": [],
      "name": "stringgg",
      "outputs": [
        {
          "internalType": "string",
          "name": "",
          "type": "string"
        }
      ],
      "stateMutability": "view",
      "type": "function",
      "constant": true
    },
    {
      "inputs": [],
      "name": "unpause",
      "outputs": [
        {
          "internalType": "bool",
          "name": "",
          "type": "bool"
        }
      ],
      "stateMutability": "nonpayable",
      "type": "function"
    },
    {
      "inputs": [],
      "name": "whoami",
      "outputs": [
        {
          "internalType": "address",
          "name": "",
          "type": "address"
        }
      ],
      "stateMutability": "view",
      "type": "function",
      "constant": true
    },
    {
      "inputs": [
        {
          "internalType": "address",
          "name": "account",
          "type": "address"
        },
        {
          "internalType": "uint256",
          "name": "groupId",
          "type": "uint256"
        }
      ],
      "name": "isContributor",
      "outputs": [
        {
          "internalType": "bool",
          "name": "",
          "type": "bool"
        }
      ],
      "stateMutability": "view",
      "type": "function",
      "constant": true
    },
    {
      "inputs": [
        {
          "internalType": "uint256",
          "name": "groupId",
          "type": "uint256"
        }
      ],
      "name": "amIContributor",
      "outputs": [
        {
          "internalType": "bool",
          "name": "",
          "type": "bool"
        }
      ],
      "stateMutability": "view",
      "type": "function",
      "constant": true
    },
    {
      "inputs": [
        {
          "internalType": "uint256",
          "name": "groupId",
          "type": "uint256"
        }
      ],
      "name": "renounceContributor",
      "outputs": [],
      "stateMutability": "nonpayable",
      "type": "function"
    },
    {
      "inputs": [
        {
          "internalType": "uint256",
          "name": "groupId",
          "type": "uint256"
        }
      ],
      "name": "contributeToPot",
      "outputs": [],
      "stateMutability": "payable",
      "type": "function",
      "payable": true
    }
  ],
  "bytecode": "0x60806040526000600360146101000a81548160ff02191690831515021790555060056004556000600b5534801561003557600080fd5b506127f9806100456000396000f3fe6080604052600436106102045760003560e01c80637d837ce511610118578063b3b36bb3116100a0578063e513b7a91161006f578063e513b7a914610798578063e82f24e0146107c3578063ee41b592146107df578063f4a02e701461081c578063fc5fd6e41461084757610204565b8063b3b36bb3146106ec578063c02b8b2c14610717578063c6db509414610742578063d5f016c31461076d57610204565b806389ea642f116100e757806389ea642f146106035780639393ae371461062e5780639bda879614610659578063b047fb5014610696578063b187bd26146106c157610204565b80637d837ce5146105495780637fcaf666146105865780638182aaf2146105af5780638456cb59146105ec57610204565b806344b2983b1161019b57806355b57ec11161016a57806355b57ec1146104505780635c975abb1461048d5780635e82c1fc146104b8578063677bd9ff146104f55780637b936ac21461051e57610204565b806344b2983b1461037f5780634635509b146103bc5780634e0a3379146103fe5780634f1ef03c1461042757610204565b80632ba73c15116101d75780632ba73c15146102c557806338f0b656146102ee5780633f4ba83a1461032b578063406db8431461035657610204565b80630519ce791461020957806306cc4922146102345780630a0f81681461027157806327d7874c1461029c575b600080fd5b34801561021557600080fd5b5061021e610872565b60405161022b9190612244565b60405180910390f35b34801561024057600080fd5b5061025b60048036038101906102569190611f51565b610898565b60405161026891906122e7565b60405180910390f35b34801561027d57600080fd5b506102866108c5565b6040516102939190612244565b60405180910390f35b3480156102a857600080fd5b506102c360048036038101906102be9190611e9b565b6108eb565b005b3480156102d157600080fd5b506102ec60048036038101906102e79190611e9b565b6109c3565b005b3480156102fa57600080fd5b5061031560048036038101906103109190611f51565b610a9b565b60405161032291906122e7565b60405180910390f35b34801561033757600080fd5b50610340610ac8565b60405161034d91906122e7565b60405180910390f35b34801561036257600080fd5b5061037d60048036038101906103789190611f51565b610b6d565b005b34801561038b57600080fd5b506103a660048036038101906103a19190611f51565b610cf6565b6040516103b3919061225f565b60405180910390f35b3480156103c857600080fd5b506103e360048036038101906103de9190611f51565b610d97565b6040516103f596959493929190612302565b60405180910390f35b34801561040a57600080fd5b5061042560048036038101906104209190611e9b565b61111a565b005b34801561043357600080fd5b5061044e60048036038101906104499190611f51565b6111b8565b005b34801561045c57600080fd5b5061047760048036038101906104729190611f51565b6111f4565b6040516104849190612281565b60405180910390f35b34801561049957600080fd5b506104a2611284565b6040516104af91906122e7565b60405180910390f35b3480156104c457600080fd5b506104df60048036038101906104da9190611ec8565b611297565b6040516104ec91906122e7565b60405180910390f35b34801561050157600080fd5b5061051c60048036038101906105179190611f51565b611320565b005b34801561052a57600080fd5b506105336114d9565b6040516105409190612244565b60405180910390f35b34801561055557600080fd5b50610570600480360381019061056b9190611ec8565b611503565b60405161057d91906122e7565b60405180910390f35b34801561059257600080fd5b506105ad60048036038101906105a89190611f08565b61158c565b005b3480156105bb57600080fd5b506105d660048036038101906105d19190611ec8565b6115a6565b6040516105e391906122e7565b60405180910390f35b3480156105f857600080fd5b5061060161162f565b005b34801561060f57600080fd5b50610618611770565b6040516106259190612378565b60405180910390f35b34801561063a57600080fd5b50610643611802565b60405161065091906122e7565b60405180910390f35b34801561066557600080fd5b50610680600480360381019061067b9190611f51565b61185a565b60405161068d919061225f565b60405180910390f35b3480156106a257600080fd5b506106ab6118fb565b6040516106b89190612244565b60405180910390f35b3480156106cd57600080fd5b506106d6611921565b6040516106e391906122e7565b60405180910390f35b3480156106f857600080fd5b50610701611938565b60405161070e9190612244565b60405180910390f35b34801561072357600080fd5b5061072c611940565b60405161073991906122c5565b60405180910390f35b34801561074e57600080fd5b50610757611998565b6040516107649190612378565b60405180910390f35b34801561077957600080fd5b50610782611a26565b60405161078f91906122a3565b60405180910390f35b3480156107a457600080fd5b506107ad611aff565b6040516107ba91906122e7565b60405180910390f35b6107dd60048036038101906107d89190611f51565b611b57565b005b3480156107eb57600080fd5b5061080660048036038101906108019190611f51565b611bf4565b60405161081391906122e7565b60405180910390f35b34801561082857600080fd5b50610831611c21565b60405161083e91906122e7565b60405180910390f35b34801561085357600080fd5b5061085c611c79565b6040516108699190612244565b60405180910390f35b600260009054906101000a900473ffffffffffffffffffffffffffffffffffffffff1681565b6000600360149054906101000a900460ff16156108b457600080fd5b6108be3383611297565b9050919050565b600160009054906101000a900473ffffffffffffffffffffffffffffffffffffffff1681565b600160009054906101000a900473ffffffffffffffffffffffffffffffffffffffff1673ffffffffffffffffffffffffffffffffffffffff163373ffffffffffffffffffffffffffffffffffffffff161461094557600080fd5b600073ffffffffffffffffffffffffffffffffffffffff168173ffffffffffffffffffffffffffffffffffffffff16141561097f57600080fd5b80600160006101000a81548173ffffffffffffffffffffffffffffffffffffffff021916908373ffffffffffffffffffffffffffffffffffffffff16021790555050565b600160009054906101000a900473ffffffffffffffffffffffffffffffffffffffff1673ffffffffffffffffffffffffffffffffffffffff163373ffffffffffffffffffffffffffffffffffffffff1614610a1d57600080fd5b600073ffffffffffffffffffffffffffffffffffffffff168173ffffffffffffffffffffffffffffffffffffffff161415610a5757600080fd5b80600360006101000a81548173ffffffffffffffffffffffffffffffffffffffff021916908373ffffffffffffffffffffffffffffffffffffffff16021790555050565b6000600360149054906101000a900460ff1615610ab757600080fd5b610ac13383611503565b9050919050565b6000600160009054906101000a900473ffffffffffffffffffffffffffffffffffffffff1673ffffffffffffffffffffffffffffffffffffffff163373ffffffffffffffffffffffffffffffffffffffff1614610b2457600080fd5b600360149054906101000a900460ff16610b3d57600080fd5b6000600360146101000a81548160ff021916908315150217905550600360149054906101000a900460ff16905090565b80610b783382611297565b610b8157600080fd5b600360149054906101000a900460ff1615610b9b57600080fd5b60016014600084815260200190815260200160002060003373ffffffffffffffffffffffffffffffffffffffff1673ffffffffffffffffffffffffffffffffffffffff16815260200190815260200160002060006101000a81548160ff02191690831515021790555060156000838152602001908152602001600020339080600181540180825580915050600190039060005260206000200160009091909190916101000a81548173ffffffffffffffffffffffffffffffffffffffff021916908373ffffffffffffffffffffffffffffffffffffffff160217905550600760008381526020019081526020016000206006016000815480929190610c9f90612657565b91905055503373ffffffffffffffffffffffffffffffffffffffff167f0695e999be8100bdb5bee8612337296508d527eae78c65b8f170eacb5a3b439d83604051610cea919061239a565b60405180910390a25050565b606060156000838152602001908152602001600020805480602002602001604051908101604052809291908181526020018280548015610d8b57602002820191906000526020600020905b8160009054906101000a900473ffffffffffffffffffffffffffffffffffffffff1673ffffffffffffffffffffffffffffffffffffffff1681526020019060010190808311610d41575b50505050509050919050565b60008060006060806060600060076000898152602001908152602001600020604051806101a001604052908160008201548152602001600182018054610ddc906125f4565b80601f0160208091040260200160405190810160405280929190818152602001828054610e08906125f4565b8015610e555780601f10610e2a57610100808354040283529160200191610e55565b820191906000526020600020905b815481529060010190602001808311610e3857829003601f168201915b505050505081526020016002820160009054906101000a900460ff166003811115610e8357610e826126cf565b5b6003811115610e9557610e946126cf565b5b815260200160038201548152602001600482015481526020016005820154815260200160068201548152602001600782018054610ed1906125f4565b80601f0160208091040260200160405190810160405280929190818152602001828054610efd906125f4565b8015610f4a5780601f10610f1f57610100808354040283529160200191610f4a565b820191906000526020600020905b815481529060010190602001808311610f2d57829003601f168201915b50505050508152602001600882018054610f63906125f4565b80601f0160208091040260200160405190810160405280929190818152602001828054610f8f906125f4565b8015610fdc5780601f10610fb157610100808354040283529160200191610fdc565b820191906000526020600020905b815481529060010190602001808311610fbf57829003601f168201915b50505050508152602001600982018054610ff5906125f4565b80601f0160208091040260200160405190810160405280929190818152602001828054611021906125f4565b801561106e5780601f106110435761010080835404028352916020019161106e565b820191906000526020600020905b81548152906001019060200180831161105157829003601f168201915b50505050508152602001600a820160009054906101000a900473ffffffffffffffffffffffffffffffffffffffff1673ffffffffffffffffffffffffffffffffffffffff1673ffffffffffffffffffffffffffffffffffffffff168152602001600b8201548152602001600c82015481525050905080604001518160c001518261016001518360e001518461010001518561012001519650965096509650965096505091939550919395565b600160009054906101000a900473ffffffffffffffffffffffffffffffffffffffff1673ffffffffffffffffffffffffffffffffffffffff163373ffffffffffffffffffffffffffffffffffffffff161461117457600080fd5b80600260006101000a81548173ffffffffffffffffffffffffffffffffffffffff021916908373ffffffffffffffffffffffffffffffffffffffff16021790555050565b806111c333826115a6565b6111cc57600080fd5b600360149054906101000a900460ff16156111e657600080fd5b6111f03383611ca3565b5050565b60606013600083815260200190815260200160002080548060200260200160405190810160405280929190818152602001828054801561127857602002820191906000526020600020906000905b82829054906101000a900460ff161515815260200190600101906020826000010492830192600103820291508084116112425790505b50505050509050919050565b600360149054906101000a900460ff1681565b6000600360149054906101000a900460ff16156112b357600080fd5b600115156011600084815260200190815260200160002060008573ffffffffffffffffffffffffffffffffffffffff1673ffffffffffffffffffffffffffffffffffffffff16815260200190815260200160002060009054906101000a900460ff16151514905092915050565b8061132b3382611503565b61133457600080fd5b813360011515600c600084815260200190815260200160002060003373ffffffffffffffffffffffffffffffffffffffff1673ffffffffffffffffffffffffffffffffffffffff16815260200190815260200160002060009054906101000a900460ff16151514156113a557600080fd5b600360149054906101000a900460ff16156113bf57600080fd5b6001600c600086815260200190815260200160002060003373ffffffffffffffffffffffffffffffffffffffff1673ffffffffffffffffffffffffffffffffffffffff16815260200190815260200160002060006101000a81548160ff0219169083151502179055503373ffffffffffffffffffffffffffffffffffffffff166108fc60076000878152602001908152602001600020600c01549081150290604051600060405180830381858888f19350505050158015611484573d6000803e3d6000fd5b503373ffffffffffffffffffffffffffffffffffffffff167f1a31e733a172afcf46074b3106c17f0c298e226442682a03c1e99ce256139ec2856040516114cb919061239a565b60405180910390a250505050565b6000600260009054906101000a900473ffffffffffffffffffffffffffffffffffffffff16905090565b6000600360149054906101000a900460ff161561151f57600080fd5b600115156014600084815260200190815260200160002060008573ffffffffffffffffffffffffffffffffffffffff1673ffffffffffffffffffffffffffffffffffffffff16815260200190815260200160002060009054906101000a900460ff16151514905092915050565b80600090805190602001906115a2929190611d5e565b5050565b6000600360149054906101000a900460ff16156115c257600080fd5b600115156010600084815260200190815260200160002060008573ffffffffffffffffffffffffffffffffffffffff1673ffffffffffffffffffffffffffffffffffffffff16815260200190815260200160002060009054906101000a900460ff16151514905092915050565b600360009054906101000a900473ffffffffffffffffffffffffffffffffffffffff1673ffffffffffffffffffffffffffffffffffffffff163373ffffffffffffffffffffffffffffffffffffffff1614806116d85750600160009054906101000a900473ffffffffffffffffffffffffffffffffffffffff1673ffffffffffffffffffffffffffffffffffffffff163373ffffffffffffffffffffffffffffffffffffffff16145b806117305750600260009054906101000a900473ffffffffffffffffffffffffffffffffffffffff1673ffffffffffffffffffffffffffffffffffffffff163373ffffffffffffffffffffffffffffffffffffffff16145b61173957600080fd5b600360149054906101000a900460ff161561175357600080fd5b6001600360146101000a81548160ff021916908315150217905550565b60606000805461177f906125f4565b80601f01602080910402602001604051908101604052809291908181526020018280546117ab906125f4565b80156117f85780601f106117cd576101008083540402835291602001916117f8565b820191906000526020600020905b8154815290600101906020018083116117db57829003601f168201915b5050505050905090565b6000600260009054906101000a900473ffffffffffffffffffffffffffffffffffffffff1673ffffffffffffffffffffffffffffffffffffffff163373ffffffffffffffffffffffffffffffffffffffff1614905090565b6060601260008381526020019081526020016000208054806020026020016040519081016040528092919081815260200182805480156118ef57602002820191906000526020600020905b8160009054906101000a900473ffffffffffffffffffffffffffffffffffffffff1673ffffffffffffffffffffffffffffffffffffffff16815260200190600101908083116118a5575b50505050509050919050565b600360009054906101000a900473ffffffffffffffffffffffffffffffffffffffff1681565b6000600360149054906101000a900460ff16905090565b600033905090565b6060600580548060200260200160405190810160405280929190818152602001828054801561198e57602002820191906000526020600020905b81548152602001906001019080831161197a575b5050505050905090565b600080546119a5906125f4565b80601f01602080910402602001604051908101604052809291908181526020018280546119d1906125f4565b8015611a1e5780601f106119f357610100808354040283529160200191611a1e565b820191906000526020600020905b815481529060010190602001808311611a0157829003601f168201915b505050505081565b60606006805480602002602001604051908101604052809291908181526020016000905b82821015611af6578382906000526020600020018054611a69906125f4565b80601f0160208091040260200160405190810160405280929190818152602001828054611a95906125f4565b8015611ae25780601f10611ab757610100808354040283529160200191611ae2565b820191906000526020600020905b815481529060010190602001808311611ac557829003601f168201915b505050505081526020019060010190611a4a565b50505050905090565b6000600160009054906101000a900473ffffffffffffffffffffffffffffffffffffffff1673ffffffffffffffffffffffffffffffffffffffff163373ffffffffffffffffffffffffffffffffffffffff1614905090565b80611b6233826115a6565b611b6b57600080fd5b600360149054906101000a900460ff1615611b8557600080fd5b3460076000848152602001908152602001600020600b01819055503373ffffffffffffffffffffffffffffffffffffffff167f5dc1fe5ab986a852c4eda8e8bb94247d13307065c593fb83f1a09be2736793828334604051611be89291906123b5565b60405180910390a25050565b6000600360149054906101000a900460ff1615611c1057600080fd5b611c1a33836115a6565b9050919050565b6000600360009054906101000a900473ffffffffffffffffffffffffffffffffffffffff1673ffffffffffffffffffffffffffffffffffffffff163373ffffffffffffffffffffffffffffffffffffffff1614905090565b6000600360009054906101000a900473ffffffffffffffffffffffffffffffffffffffff16905090565b60006010600083815260200190815260200160002060008473ffffffffffffffffffffffffffffffffffffffff1673ffffffffffffffffffffffffffffffffffffffff16815260200190815260200160002060006101000a81548160ff0219169083151502179055508173ffffffffffffffffffffffffffffffffffffffff167fda111d7eb5d5b2033c4ffad00cd7cd42f45af2813bee1a69e65f26d90ea15f0b82604051611d52919061239a565b60405180910390a25050565b828054611d6a906125f4565b90600052602060002090601f016020900481019282611d8c5760008555611dd3565b82601f10611da557805160ff1916838001178555611dd3565b82800160010185558215611dd3579182015b82811115611dd2578251825591602001919060010190611db7565b5b509050611de09190611de4565b5090565b5b80821115611dfd576000816000905550600101611de5565b5090565b6000611e14611e0f84612403565b6123de565b905082815260208101848484011115611e3057611e2f612761565b5b611e3b8482856125b2565b509392505050565b600081359050611e5281612795565b92915050565b600082601f830112611e6d57611e6c61275c565b5b8135611e7d848260208601611e01565b91505092915050565b600081359050611e95816127ac565b92915050565b600060208284031215611eb157611eb061276b565b5b6000611ebf84828501611e43565b91505092915050565b60008060408385031215611edf57611ede61276b565b5b6000611eed85828601611e43565b9250506020611efe85828601611e86565b9150509250929050565b600060208284031215611f1e57611f1d61276b565b5b600082013567ffffffffffffffff811115611f3c57611f3b612766565b5b611f4884828501611e58565b91505092915050565b600060208284031215611f6757611f6661276b565b5b6000611f7584828501611e86565b91505092915050565b6000611f8a8383611fda565b60208301905092915050565b6000611fa28383612187565b60208301905092915050565b6000611fba83836121b4565b905092915050565b6000611fce8383612226565b60208301905092915050565b611fe381612545565b82525050565b611ff281612545565b82525050565b600061200382612474565b61200d81856124df565b935061201883612434565b8060005b838110156120495781516120308882611f7e565b975061203b836124ab565b92505060018101905061201c565b5085935050505092915050565b60006120618261247f565b61206b81856124f0565b935061207683612444565b8060005b838110156120a757815161208e8882611f96565b9750612099836124b8565b92505060018101905061207a565b5085935050505092915050565b60006120bf8261248a565b6120c98185612501565b9350836020820285016120db85612454565b8060005b8581101561211757848403895281516120f88582611fae565b9450612103836124c5565b925060208a019950506001810190506120df565b50829750879550505050505092915050565b600061213482612495565b61213e8185612512565b935061214983612464565b8060005b8381101561217a5781516121618882611fc2565b975061216c836124d2565b92505060018101905061214d565b5085935050505092915050565b61219081612557565b82525050565b61219f81612557565b82525050565b6121ae816125a0565b82525050565b60006121bf826124a0565b6121c98185612523565b93506121d98185602086016125c1565b6121e281612770565b840191505092915050565b60006121f8826124a0565b6122028185612534565b93506122128185602086016125c1565b61221b81612770565b840191505092915050565b61222f81612596565b82525050565b61223e81612596565b82525050565b60006020820190506122596000830184611fe9565b92915050565b600060208201905081810360008301526122798184611ff8565b905092915050565b6000602082019050818103600083015261229b8184612056565b905092915050565b600060208201905081810360008301526122bd81846120b4565b905092915050565b600060208201905081810360008301526122df8184612129565b905092915050565b60006020820190506122fc6000830184612196565b92915050565b600060c08201905061231760008301896121a5565b6123246020830188612235565b6123316040830187612235565b818103606083015261234381866121ed565b9050818103608083015261235781856121ed565b905081810360a083015261236b81846121ed565b9050979650505050505050565b6000602082019050818103600083015261239281846121ed565b905092915050565b60006020820190506123af6000830184612235565b92915050565b60006040820190506123ca6000830185612235565b6123d76020830184612235565b9392505050565b60006123e86123f9565b90506123f48282612626565b919050565b6000604051905090565b600067ffffffffffffffff82111561241e5761241d61272d565b5b61242782612770565b9050602081019050919050565b6000819050602082019050919050565b6000819050602082019050919050565b6000819050602082019050919050565b6000819050602082019050919050565b600081519050919050565b600081519050919050565b600081519050919050565b600081519050919050565b600081519050919050565b6000602082019050919050565b6000602082019050919050565b6000602082019050919050565b6000602082019050919050565b600082825260208201905092915050565b600082825260208201905092915050565b600082825260208201905092915050565b600082825260208201905092915050565b600082825260208201905092915050565b600082825260208201905092915050565b600061255082612576565b9050919050565b60008115159050919050565b600081905061257182612781565b919050565b600073ffffffffffffffffffffffffffffffffffffffff82169050919050565b6000819050919050565b60006125ab82612563565b9050919050565b82818337600083830152505050565b60005b838110156125df5780820151818401526020810190506125c4565b838111156125ee576000848401525b50505050565b6000600282049050600182168061260c57607f821691505b602082108114156126205761261f6126fe565b5b50919050565b61262f82612770565b810181811067ffffffffffffffff8211171561264e5761264d61272d565b5b80604052505050565b600061266282612596565b91507fffffffffffffffffffffffffffffffffffffffffffffffffffffffffffffffff821415612695576126946126a0565b5b600182019050919050565b7f4e487b7100000000000000000000000000000000000000000000000000000000600052601160045260246000fd5b7f4e487b7100000000000000000000000000000000000000000000000000000000600052602160045260246000fd5b7f4e487b7100000000000000000000000000000000000000000000000000000000600052602260045260246000fd5b7f4e487b7100000000000000000000000000000000000000000000000000000000600052604160045260246000fd5b600080fd5b600080fd5b600080fd5b600080fd5b6000601f19601f8301169050919050565b60048110612792576127916126cf565b5b50565b61279e81612545565b81146127a957600080fd5b50565b6127b581612596565b81146127c057600080fd5b5056fea2646970667358221220bc43fa42b5e4fdd0069fff31d0ea3781f4df41c75b367f087a30185afd8a6c9964736f6c63430008060033",
  "immutableReferences": {},
  "source": "// SPDX-License-Identifier: MIT\npragma solidity ^0.8.0;\n\nimport \"./RecipientsManager.sol\";\n\ncontract ContributorManager is RecipientsManager {\n\n    event ContributorAdded(address indexed account, uint groupId);\n    event ContributorRemoved(address indexed account, uint groupId);\n\n    event ContributionMade(\n        address indexed account,\n        uint groupId,\n        uint amount\n    );\n\n    constructor() {}\n\n    modifier onlyContributor(uint groupId) {\n        require(isContributor(msg.sender, groupId));\n        _;\n    }\n\n    function isContributor(address account, uint groupId)\n        public\n        view\n        whenNotPaused\n        returns (bool)\n    {\n        return contributors[groupId][account] == true;\n    }\n\n     function amIContributor(uint256 groupId)\n        external\n        view\n        whenNotPaused\n        returns (bool)\n    {\n        return isContributor(msg.sender, groupId);\n    }\n\n    function renounceContributor(uint groupId)\n        external\n        onlyContributor(groupId)\n        whenNotPaused\n    {\n        _removeContributor(msg.sender, groupId);\n    }\n\n    function _addContributor(address account, uint groupId) internal {\n        contributors[groupId][account] = true;\n        emit ContributorAdded(account, groupId);\n    }\n\n    function _removeContributor(address account, uint groupId) internal {\n        contributors[groupId][account] = false;\n        emit ContributorRemoved(account, groupId);\n    }\n\n    function contributeToPot(uint groupId)\n        external\n        payable\n        onlyContributor(groupId)\n        whenNotPaused\n    {\n        currentEvents[groupId].totalAmountContributed = msg.value;\n        emit ContributionMade(msg.sender, groupId, msg.value);\n    }\n}",
  "sourcePath": "/Users/jim/Git-Projects/EthDrop/contracts/roles/ContributorManager.sol",
  "compiler": {
    "name": "solc",
    "version": "0.8.6+commit.11564f7e.Emscripten.clang"
  },
  "schemaVersion": "3.4.1",
  "updatedAt": "2021-07-23T17:22:28.166Z",
  "networkType": "ethereum",
  "devdoc": {
    "kind": "dev",
    "methods": {
      "pause()": {
        "details": "Called by any \"C-level\" role to pause the contract. Used only when  a bug or exploit is detected and we need to limit damage."
      },
      "setCEO(address)": {
        "details": "Assigns a new address to act as the CEO. Only available to the current CEO.",
        "params": {
          "_newCEO": "The address of the new CEO"
        }
      },
      "setCFO(address)": {
        "details": "Assigns a new address to act as the CFO. Only available to the current CEO.",
        "params": {
          "_newCFO": "The address of the new CFO"
        }
      },
      "setCOO(address)": {
        "details": "Assigns a new address to act as the COO. Only available to the current CEO.",
        "params": {
          "_newCOO": "The address of the new COO"
        }
      },
      "unpause()": {
        "details": "Unpauses the smart contract. Can only be called by the CEO, since  one reason we may pause the contract is when CFO or COO accounts are  compromised."
      }
    },
    "version": 1
  },
  "userdoc": {
    "kind": "user",
    "methods": {
      "unpause()": {
        "notice": "This is public rather than external so it can be called by  derived contracts."
      }
    },
    "version": 1
  }
}