{
  "contractName": "ContributorManager",
  "abi": [
    {
      "inputs": [],
      "stateMutability": "nonpayable",
      "type": "constructor"
    },
    {
      "anonymous": false,
      "inputs": [
        {
          "indexed": false,
          "internalType": "bool",
          "name": "isPaused",
          "type": "bool"
        }
      ],
      "name": "AppPaused",
      "type": "event"
    },
    {
      "anonymous": false,
      "inputs": [],
      "name": "CfoUpdated",
      "type": "event"
    },
    {
      "anonymous": false,
      "inputs": [
        {
          "indexed": false,
          "internalType": "address",
          "name": "newContract",
          "type": "address"
        }
      ],
      "name": "ContractUpgrade",
      "type": "event"
    },
    {
      "anonymous": false,
      "inputs": [
        {
          "indexed": true,
          "internalType": "address",
          "name": "account",
          "type": "address"
        },
        {
          "indexed": false,
          "internalType": "uint256",
          "name": "groupId",
          "type": "uint256"
        },
        {
          "indexed": false,
          "internalType": "uint256",
          "name": "amount",
          "type": "uint256"
        }
      ],
      "name": "ContributionMade",
      "type": "event"
    },
    {
      "anonymous": false,
      "inputs": [
        {
          "indexed": true,
          "internalType": "address",
          "name": "account",
          "type": "address"
        },
        {
          "indexed": false,
          "internalType": "uint256",
          "name": "groupId",
          "type": "uint256"
        }
      ],
      "name": "ContributorAdded",
      "type": "event"
    },
    {
      "anonymous": false,
      "inputs": [
        {
          "indexed": true,
          "internalType": "address",
          "name": "account",
          "type": "address"
        },
        {
          "indexed": false,
          "internalType": "uint256",
          "name": "groupId",
          "type": "uint256"
        }
      ],
      "name": "ContributorRemoved",
      "type": "event"
    },
    {
      "anonymous": false,
      "inputs": [],
      "name": "CooUpdated",
      "type": "event"
    },
    {
      "anonymous": false,
      "inputs": [
        {
          "indexed": true,
          "internalType": "address",
          "name": "account",
          "type": "address"
        },
        {
          "indexed": false,
          "internalType": "uint256",
          "name": "groupId",
          "type": "uint256"
        }
      ],
      "name": "EligibleRecipientAdded",
      "type": "event"
    },
    {
      "anonymous": false,
      "inputs": [
        {
          "indexed": true,
          "internalType": "address",
          "name": "account",
          "type": "address"
        },
        {
          "indexed": false,
          "internalType": "uint256",
          "name": "groupId",
          "type": "uint256"
        }
      ],
      "name": "EligibleRecipientRemoved",
      "type": "event"
    },
    {
      "anonymous": false,
      "inputs": [],
      "name": "EventClose",
      "type": "event"
    },
    {
      "anonymous": false,
      "inputs": [
        {
          "indexed": true,
          "internalType": "address",
          "name": "account",
          "type": "address"
        },
        {
          "indexed": false,
          "internalType": "uint256",
          "name": "groupId",
          "type": "uint256"
        }
      ],
      "name": "RecipientRegistered",
      "type": "event"
    },
    {
      "anonymous": false,
      "inputs": [],
      "name": "RegistrationOpen",
      "type": "event"
    },
    {
      "anonymous": false,
      "inputs": [
        {
          "indexed": false,
          "internalType": "address",
          "name": "from",
          "type": "address"
        },
        {
          "indexed": false,
          "internalType": "address",
          "name": "to",
          "type": "address"
        }
      ],
      "name": "Transfer",
      "type": "event"
    },
    {
      "anonymous": false,
      "inputs": [
        {
          "indexed": true,
          "internalType": "address",
          "name": "account",
          "type": "address"
        },
        {
          "indexed": false,
          "internalType": "uint256",
          "name": "groupId",
          "type": "uint256"
        }
      ],
      "name": "WinningsClaimed",
      "type": "event"
    },
    {
      "anonymous": false,
      "inputs": [],
      "name": "WinningsClaimingOpen",
      "type": "event"
    },
    {
      "inputs": [
        {
          "internalType": "uint256",
          "name": "groupId",
          "type": "uint256"
        }
      ],
      "name": "amIEligibleRecipient",
      "outputs": [
        {
          "internalType": "bool",
          "name": "",
          "type": "bool"
        }
      ],
      "stateMutability": "view",
      "type": "function",
      "constant": true
    },
    {
      "inputs": [
        {
          "internalType": "uint256",
          "name": "groupId",
          "type": "uint256"
        }
      ],
      "name": "amIRegisteredRecipient",
      "outputs": [
        {
          "internalType": "bool",
          "name": "",
          "type": "bool"
        }
      ],
      "stateMutability": "view",
      "type": "function",
      "constant": true
    },
    {
      "inputs": [],
      "name": "ceoAddress",
      "outputs": [
        {
          "internalType": "address",
          "name": "",
          "type": "address"
        }
      ],
      "stateMutability": "view",
      "type": "function",
      "constant": true
    },
    {
      "inputs": [],
      "name": "cfoAddress",
      "outputs": [
        {
          "internalType": "address",
          "name": "",
          "type": "address"
        }
      ],
      "stateMutability": "view",
      "type": "function",
      "constant": true
    },
    {
      "inputs": [
        {
          "internalType": "uint256",
          "name": "groupId",
          "type": "uint256"
        }
      ],
      "name": "claimWinnings",
      "outputs": [],
      "stateMutability": "nonpayable",
      "type": "function"
    },
    {
      "inputs": [],
      "name": "cooAddress",
      "outputs": [
        {
          "internalType": "address",
          "name": "",
          "type": "address"
        }
      ],
      "stateMutability": "view",
      "type": "function",
      "constant": true
    },
    {
      "inputs": [
        {
          "internalType": "uint256",
          "name": "groupId",
          "type": "uint256"
        }
      ],
      "name": "doIHaveClaimableWinnings",
      "outputs": [
        {
          "internalType": "bool",
          "name": "",
          "type": "bool"
        }
      ],
      "stateMutability": "view",
      "type": "function",
      "constant": true
    },
    {
      "inputs": [],
      "name": "getCFO",
      "outputs": [
        {
          "internalType": "address",
          "name": "",
          "type": "address"
        }
      ],
      "stateMutability": "view",
      "type": "function",
      "constant": true
    },
    {
      "inputs": [],
      "name": "getCOO",
      "outputs": [
        {
          "internalType": "address",
          "name": "",
          "type": "address"
        }
      ],
      "stateMutability": "view",
      "type": "function",
      "constant": true
    },
    {
      "inputs": [
        {
          "internalType": "uint256",
          "name": "groupId",
          "type": "uint256"
        }
      ],
      "name": "getEligibleRecipientAddresses",
      "outputs": [
        {
          "internalType": "address[]",
          "name": "",
          "type": "address[]"
        }
      ],
      "stateMutability": "view",
      "type": "function",
      "constant": true
    },
    {
      "inputs": [
        {
          "internalType": "uint256",
          "name": "groupId",
          "type": "uint256"
        }
      ],
      "name": "getEligibleRecipientIsEligibilityEnabled",
      "outputs": [
        {
          "internalType": "bool[]",
          "name": "",
          "type": "bool[]"
        }
      ],
      "stateMutability": "view",
      "type": "function",
      "constant": true
    },
    {
      "inputs": [
        {
          "internalType": "uint256",
          "name": "groupId",
          "type": "uint256"
        }
      ],
      "name": "getGroupEventData",
      "outputs": [
        {
          "internalType": "enum EthDropBase.EventState",
          "name": "",
          "type": "uint8"
        },
        {
          "internalType": "uint256",
          "name": "",
          "type": "uint256"
        },
        {
          "internalType": "uint256",
          "name": "",
          "type": "uint256"
        },
        {
          "internalType": "uint256",
          "name": "",
          "type": "uint256"
        },
        {
          "internalType": "uint256",
          "name": "",
          "type": "uint256"
        }
      ],
      "stateMutability": "view",
      "type": "function",
      "constant": true
    },
    {
      "inputs": [],
      "name": "getGroupIds",
      "outputs": [
        {
          "internalType": "uint256[]",
          "name": "",
          "type": "uint256[]"
        }
      ],
      "stateMutability": "view",
      "type": "function",
      "constant": true
    },
    {
      "inputs": [],
      "name": "getGroupNames",
      "outputs": [
        {
          "internalType": "string[]",
          "name": "",
          "type": "string[]"
        }
      ],
      "stateMutability": "view",
      "type": "function",
      "constant": true
    },
    {
      "inputs": [
        {
          "internalType": "uint256",
          "name": "groupId",
          "type": "uint256"
        }
      ],
      "name": "getRegisteredRecipients",
      "outputs": [
        {
          "internalType": "address[]",
          "name": "",
          "type": "address[]"
        }
      ],
      "stateMutability": "view",
      "type": "function",
      "constant": true
    },
    {
      "inputs": [],
      "name": "getString",
      "outputs": [
        {
          "internalType": "string",
          "name": "",
          "type": "string"
        }
      ],
      "stateMutability": "view",
      "type": "function",
      "constant": true
    },
    {
      "inputs": [],
      "name": "isCEO",
      "outputs": [
        {
          "internalType": "bool",
          "name": "",
          "type": "bool"
        }
      ],
      "stateMutability": "view",
      "type": "function",
      "constant": true
    },
    {
      "inputs": [],
      "name": "isCFO",
      "outputs": [
        {
          "internalType": "bool",
          "name": "",
          "type": "bool"
        }
      ],
      "stateMutability": "view",
      "type": "function",
      "constant": true
    },
    {
      "inputs": [],
      "name": "isCOO",
      "outputs": [
        {
          "internalType": "bool",
          "name": "",
          "type": "bool"
        }
      ],
      "stateMutability": "view",
      "type": "function",
      "constant": true
    },
    {
      "inputs": [
        {
          "internalType": "address",
          "name": "account",
          "type": "address"
        },
        {
          "internalType": "uint256",
          "name": "groupId",
          "type": "uint256"
        }
      ],
      "name": "isEligibleRecipient",
      "outputs": [
        {
          "internalType": "bool",
          "name": "",
          "type": "bool"
        }
      ],
      "stateMutability": "view",
      "type": "function",
      "constant": true
    },
    {
      "inputs": [],
      "name": "isPaused",
      "outputs": [
        {
          "internalType": "bool",
          "name": "",
          "type": "bool"
        }
      ],
      "stateMutability": "view",
      "type": "function",
      "constant": true
    },
    {
      "inputs": [
        {
          "internalType": "address",
          "name": "account",
          "type": "address"
        },
        {
          "internalType": "uint256",
          "name": "groupId",
          "type": "uint256"
        }
      ],
      "name": "isRegisteredRecipient",
      "outputs": [
        {
          "internalType": "bool",
          "name": "",
          "type": "bool"
        }
      ],
      "stateMutability": "view",
      "type": "function",
      "constant": true
    },
    {
      "inputs": [],
      "name": "pause",
      "outputs": [],
      "stateMutability": "nonpayable",
      "type": "function"
    },
    {
      "inputs": [],
      "name": "paused",
      "outputs": [
        {
          "internalType": "bool",
          "name": "",
          "type": "bool"
        }
      ],
      "stateMutability": "view",
      "type": "function",
      "constant": true
    },
    {
      "inputs": [
        {
          "internalType": "uint256",
          "name": "groupId",
          "type": "uint256"
        }
      ],
      "name": "registerForEvent",
      "outputs": [],
      "stateMutability": "nonpayable",
      "type": "function"
    },
    {
      "inputs": [
        {
          "internalType": "address",
          "name": "_newCEO",
          "type": "address"
        }
      ],
      "name": "setCEO",
      "outputs": [],
      "stateMutability": "nonpayable",
      "type": "function"
    },
    {
      "inputs": [
        {
          "internalType": "address",
          "name": "_newCFO",
          "type": "address"
        }
      ],
      "name": "setCFO",
      "outputs": [],
      "stateMutability": "nonpayable",
      "type": "function"
    },
    {
      "inputs": [
        {
          "internalType": "address",
          "name": "_newCOO",
          "type": "address"
        }
      ],
      "name": "setCOO",
      "outputs": [],
      "stateMutability": "nonpayable",
      "type": "function"
    },
    {
      "inputs": [
        {
          "internalType": "string",
          "name": "_s",
          "type": "string"
        }
      ],
      "name": "setString",
      "outputs": [],
      "stateMutability": "nonpayable",
      "type": "function"
    },
    {
      "inputs": [],
      "name": "stringgg",
      "outputs": [
        {
          "internalType": "string",
          "name": "",
          "type": "string"
        }
      ],
      "stateMutability": "view",
      "type": "function",
      "constant": true
    },
    {
      "inputs": [],
      "name": "unpause",
      "outputs": [
        {
          "internalType": "bool",
          "name": "",
          "type": "bool"
        }
      ],
      "stateMutability": "nonpayable",
      "type": "function"
    },
    {
      "inputs": [],
      "name": "whoami",
      "outputs": [
        {
          "internalType": "address",
          "name": "",
          "type": "address"
        }
      ],
      "stateMutability": "view",
      "type": "function",
      "constant": true
    },
    {
      "inputs": [
        {
          "internalType": "address",
          "name": "account",
          "type": "address"
        },
        {
          "internalType": "uint256",
          "name": "groupId",
          "type": "uint256"
        }
      ],
      "name": "isContributor",
      "outputs": [
        {
          "internalType": "bool",
          "name": "",
          "type": "bool"
        }
      ],
      "stateMutability": "view",
      "type": "function",
      "constant": true
    },
    {
      "inputs": [
        {
          "internalType": "uint256",
          "name": "groupId",
          "type": "uint256"
        }
      ],
      "name": "amIContributor",
      "outputs": [
        {
          "internalType": "bool",
          "name": "",
          "type": "bool"
        }
      ],
      "stateMutability": "view",
      "type": "function",
      "constant": true
    },
    {
      "inputs": [
        {
          "internalType": "uint256",
          "name": "groupId",
          "type": "uint256"
        }
      ],
      "name": "getCurrentSponsorAddress",
      "outputs": [
        {
          "internalType": "address",
          "name": "",
          "type": "address"
        }
      ],
      "stateMutability": "view",
      "type": "function",
      "constant": true
    },
    {
      "inputs": [
        {
          "internalType": "uint256",
          "name": "groupId",
          "type": "uint256"
        }
      ],
      "name": "renounceContributor",
      "outputs": [],
      "stateMutability": "nonpayable",
      "type": "function"
    },
    {
      "inputs": [
        {
          "internalType": "uint256",
          "name": "groupId",
          "type": "uint256"
        },
        {
          "internalType": "string",
          "name": "newContributorName",
          "type": "string"
        },
        {
          "internalType": "string",
          "name": "newContributorImgUrl",
          "type": "string"
        },
        {
          "internalType": "string",
          "name": "newContributorLinkToUrl",
          "type": "string"
        }
      ],
      "name": "updateContributorInfo",
      "outputs": [],
      "stateMutability": "nonpayable",
      "type": "function"
    },
    {
      "inputs": [
        {
          "internalType": "uint256",
          "name": "groupId",
          "type": "uint256"
        }
      ],
      "name": "getContributorInfo",
      "outputs": [
        {
          "internalType": "string",
          "name": "newContributorName",
          "type": "string"
        },
        {
          "internalType": "string",
          "name": "newContributorImgUrl",
          "type": "string"
        },
        {
          "internalType": "string",
          "name": "newContributorLinkToUrl",
          "type": "string"
        }
      ],
      "stateMutability": "view",
      "type": "function",
      "constant": true
    },
    {
      "inputs": [
        {
          "internalType": "uint256",
          "name": "groupId",
          "type": "uint256"
        }
      ],
      "name": "contributeToPot",
      "outputs": [],
      "stateMutability": "payable",
      "type": "function",
      "payable": true
    }
  ],
  "bytecode": "0x60806040526000600360146101000a81548160ff02191690831515021790555060056004556000600b5534801561003557600080fd5b50612e1f806100456000396000f3fe6080604052600436106102305760003560e01c80637d837ce51161012e578063b3b36bb3116100ab578063e82f24e01161006f578063e82f24e014610893578063ee41b592146108af578063f4a02e70146108ec578063f89e9cb914610917578063fc5fd6e41461095457610230565b8063b3b36bb3146107bc578063c02b8b2c146107e7578063c6db509414610812578063d5f016c31461083d578063e513b7a91461086857610230565b80639393ae37116100f25780639393ae37146106d55780639bda879614610700578063aea88a051461073d578063b047fb5014610766578063b187bd261461079157610230565b80637d837ce5146105f05780637fcaf6661461062d5780638182aaf2146106565780638456cb591461069357806389ea642f146106aa57610230565b806344b2983b116101bc5780635c975abb116101805780635c975abb146104f55780635e82c1fc14610520578063674811ca1461055d578063677bd9ff1461059c5780637b936ac2146105c557610230565b806344b2983b146103e85780634635509b146104255780634e0a3379146104665780634f1ef03c1461048f57806355b57ec1146104b857610230565b806327d7874c1161020357806327d7874c146103055780632ba73c151461032e57806338f0b656146103575780633f4ba83a14610394578063406db843146103bf57610230565b80630519ce791461023557806306cc4922146102605780630a0f81681461029d5780630d82ffa0146102c8575b600080fd5b34801561024157600080fd5b5061024a61097f565b6040516102579190612841565b60405180910390f35b34801561026c57600080fd5b5061028760048036038101906102829190612493565b6109a5565b60405161029491906128e4565b60405180910390f35b3480156102a957600080fd5b506102b26109d2565b6040516102bf9190612841565b60405180910390f35b3480156102d457600080fd5b506102ef60048036038101906102ea9190612493565b6109f8565b6040516102fc9190612841565b60405180910390f35b34801561031157600080fd5b5061032c600480360381019061032791906123dd565b610a38565b005b34801561033a57600080fd5b50610355600480360381019061035091906123dd565b610b10565b005b34801561036357600080fd5b5061037e60048036038101906103799190612493565b610c14565b60405161038b91906128e4565b60405180910390f35b3480156103a057600080fd5b506103a9610c41565b6040516103b691906128e4565b60405180910390f35b3480156103cb57600080fd5b506103e660048036038101906103e19190612493565b610ce6565b005b3480156103f457600080fd5b5061040f600480360381019061040a9190612493565b610e6f565b60405161041c919061285c565b60405180910390f35b34801561043157600080fd5b5061044c60048036038101906104479190612493565b610f10565b60405161045d9594939291906128ff565b60405180910390f35b34801561047257600080fd5b5061048d600480360381019061048891906123dd565b611293565b005b34801561049b57600080fd5b506104b660048036038101906104b19190612493565b61135d565b005b3480156104c457600080fd5b506104df60048036038101906104da9190612493565b611399565b6040516104ec919061287e565b60405180910390f35b34801561050157600080fd5b5061050a611429565b60405161051791906128e4565b60405180910390f35b34801561052c57600080fd5b506105476004803603810190610542919061240a565b61143c565b60405161055491906128e4565b60405180910390f35b34801561056957600080fd5b50610584600480360381019061057f9190612493565b6114c5565b60405161059393929190612974565b60405180910390f35b3480156105a857600080fd5b506105c360048036038101906105be9190612493565b6116bd565b005b3480156105d157600080fd5b506105da6118a2565b6040516105e79190612841565b60405180910390f35b3480156105fc57600080fd5b506106176004803603810190610612919061240a565b6118cc565b60405161062491906128e4565b60405180910390f35b34801561063957600080fd5b50610654600480360381019061064f919061244a565b611955565b005b34801561066257600080fd5b5061067d6004803603810190610678919061240a565b61196f565b60405161068a91906128e4565b60405180910390f35b34801561069f57600080fd5b506106a86119f8565b005b3480156106b657600080fd5b506106bf611b39565b6040516106cc9190612952565b60405180910390f35b3480156106e157600080fd5b506106ea611bcb565b6040516106f791906128e4565b60405180910390f35b34801561070c57600080fd5b5061072760048036038101906107229190612493565b611c23565b604051610734919061285c565b60405180910390f35b34801561074957600080fd5b50610764600480360381019061075f91906124c0565b611cc4565b005b34801561077257600080fd5b5061077b611d60565b6040516107889190612841565b60405180910390f35b34801561079d57600080fd5b506107a6611d86565b6040516107b391906128e4565b60405180910390f35b3480156107c857600080fd5b506107d1611d9d565b6040516107de9190612841565b60405180910390f35b3480156107f357600080fd5b506107fc611da5565b60405161080991906128c2565b60405180910390f35b34801561081e57600080fd5b50610827611dfd565b6040516108349190612952565b60405180910390f35b34801561084957600080fd5b50610852611e8b565b60405161085f91906128a0565b60405180910390f35b34801561087457600080fd5b5061087d611f64565b60405161088a91906128e4565b60405180910390f35b6108ad60048036038101906108a89190612493565b611fbc565b005b3480156108bb57600080fd5b506108d660048036038101906108d19190612493565b612059565b6040516108e391906128e4565b60405180910390f35b3480156108f857600080fd5b50610901612086565b60405161090e91906128e4565b60405180910390f35b34801561092357600080fd5b5061093e60048036038101906109399190612493565b6120de565b60405161094b91906128e4565b60405180910390f35b34801561096057600080fd5b50610969612165565b6040516109769190612841565b60405180910390f35b600260009054906101000a900473ffffffffffffffffffffffffffffffffffffffff1681565b6000600360149054906101000a900460ff16156109c157600080fd5b6109cb338361143c565b9050919050565b600160009054906101000a900473ffffffffffffffffffffffffffffffffffffffff1681565b600060076000838152602001908152602001600020600a0160009054906101000a900473ffffffffffffffffffffffffffffffffffffffff169050919050565b600160009054906101000a900473ffffffffffffffffffffffffffffffffffffffff1673ffffffffffffffffffffffffffffffffffffffff163373ffffffffffffffffffffffffffffffffffffffff1614610a9257600080fd5b600073ffffffffffffffffffffffffffffffffffffffff168173ffffffffffffffffffffffffffffffffffffffff161415610acc57600080fd5b80600160006101000a81548173ffffffffffffffffffffffffffffffffffffffff021916908373ffffffffffffffffffffffffffffffffffffffff16021790555050565b600160009054906101000a900473ffffffffffffffffffffffffffffffffffffffff1673ffffffffffffffffffffffffffffffffffffffff163373ffffffffffffffffffffffffffffffffffffffff1614610b6a57600080fd5b600073ffffffffffffffffffffffffffffffffffffffff168173ffffffffffffffffffffffffffffffffffffffff161415610ba457600080fd5b80600360006101000a81548173ffffffffffffffffffffffffffffffffffffffff021916908373ffffffffffffffffffffffffffffffffffffffff1602179055507fa308298a77084def994b565be25bff2e8fbfe7006c2c6b2bacfb84d1ba1f635060405160405180910390a150565b6000600360149054906101000a900460ff1615610c3057600080fd5b610c3a33836118cc565b9050919050565b6000600160009054906101000a900473ffffffffffffffffffffffffffffffffffffffff1673ffffffffffffffffffffffffffffffffffffffff163373ffffffffffffffffffffffffffffffffffffffff1614610c9d57600080fd5b600360149054906101000a900460ff16610cb657600080fd5b6000600360146101000a81548160ff021916908315150217905550600360149054906101000a900460ff16905090565b80610cf1338261143c565b610cfa57600080fd5b600360149054906101000a900460ff1615610d1457600080fd5b60016014600084815260200190815260200160002060003373ffffffffffffffffffffffffffffffffffffffff1673ffffffffffffffffffffffffffffffffffffffff16815260200190815260200160002060006101000a81548160ff02191690831515021790555060156000838152602001908152602001600020339080600181540180825580915050600190039060005260206000200160009091909190916101000a81548173ffffffffffffffffffffffffffffffffffffffff021916908373ffffffffffffffffffffffffffffffffffffffff160217905550600760008381526020019081526020016000206006016000815480929190610e1890612c7d565b91905055503373ffffffffffffffffffffffffffffffffffffffff167f0695e999be8100bdb5bee8612337296508d527eae78c65b8f170eacb5a3b439d83604051610e6391906129c0565b60405180910390a25050565b606060156000838152602001908152602001600020805480602002602001604051908101604052809291908181526020018280548015610f0457602002820191906000526020600020905b8160009054906101000a900473ffffffffffffffffffffffffffffffffffffffff1673ffffffffffffffffffffffffffffffffffffffff1681526020019060010190808311610eba575b50505050509050919050565b60008060008060008060076000888152602001908152602001600020604051806101c001604052908160008201548152602001600182018054610f5290612c1a565b80601f0160208091040260200160405190810160405280929190818152602001828054610f7e90612c1a565b8015610fcb5780601f10610fa057610100808354040283529160200191610fcb565b820191906000526020600020905b815481529060010190602001808311610fae57829003601f168201915b505050505081526020016002820160009054906101000a900460ff166003811115610ff957610ff8612cf5565b5b600381111561100b5761100a612cf5565b5b81526020016003820154815260200160048201548152602001600582015481526020016006820154815260200160078201805461104790612c1a565b80601f016020809104026020016040519081016040528092919081815260200182805461107390612c1a565b80156110c05780601f10611095576101008083540402835291602001916110c0565b820191906000526020600020905b8154815290600101906020018083116110a357829003601f168201915b505050505081526020016008820180546110d990612c1a565b80601f016020809104026020016040519081016040528092919081815260200182805461110590612c1a565b80156111525780601f1061112757610100808354040283529160200191611152565b820191906000526020600020905b81548152906001019060200180831161113557829003601f168201915b5050505050815260200160098201805461116b90612c1a565b80601f016020809104026020016040519081016040528092919081815260200182805461119790612c1a565b80156111e45780601f106111b9576101008083540402835291602001916111e4565b820191906000526020600020905b8154815290600101906020018083116111c757829003601f168201915b50505050508152602001600a820160009054906101000a900473ffffffffffffffffffffffffffffffffffffffff1673ffffffffffffffffffffffffffffffffffffffff1673ffffffffffffffffffffffffffffffffffffffff168152602001600b8201548152602001600c8201548152602001600d82015481525050905080604001518160c00151826101600151836101800151846101a00151955095509550955095505091939590929450565b600160009054906101000a900473ffffffffffffffffffffffffffffffffffffffff1673ffffffffffffffffffffffffffffffffffffffff163373ffffffffffffffffffffffffffffffffffffffff16146112ed57600080fd5b80600260006101000a81548173ffffffffffffffffffffffffffffffffffffffff021916908373ffffffffffffffffffffffffffffffffffffffff1602179055507f162e32528b5907ecf876b3b7a4e5e0edf878642e3ec25852e3c35af1a4e1c04060405160405180910390a150565b80611368338261196f565b61137157600080fd5b600360149054906101000a900460ff161561138b57600080fd5b611395338361218f565b5050565b60606013600083815260200190815260200160002080548060200260200160405190810160405280929190818152602001828054801561141d57602002820191906000526020600020906000905b82829054906101000a900460ff161515815260200190600101906020826000010492830192600103820291508084116113e75790505b50505050509050919050565b600360149054906101000a900460ff1681565b6000600360149054906101000a900460ff161561145857600080fd5b600115156011600084815260200190815260200160002060008573ffffffffffffffffffffffffffffffffffffffff1673ffffffffffffffffffffffffffffffffffffffff16815260200190815260200160002060009054906101000a900460ff16151514905092915050565b606080606060076000858152602001908152602001600020600701600760008681526020019081526020016000206008016007600087815260200190815260200160002060090182805461151890612c1a565b80601f016020809104026020016040519081016040528092919081815260200182805461154490612c1a565b80156115915780601f1061156657610100808354040283529160200191611591565b820191906000526020600020905b81548152906001019060200180831161157457829003601f168201915b505050505092508180546115a490612c1a565b80601f01602080910402602001604051908101604052809291908181526020018280546115d090612c1a565b801561161d5780601f106115f25761010080835404028352916020019161161d565b820191906000526020600020905b81548152906001019060200180831161160057829003601f168201915b5050505050915080805461163090612c1a565b80601f016020809104026020016040519081016040528092919081815260200182805461165c90612c1a565b80156116a95780601f1061167e576101008083540402835291602001916116a9565b820191906000526020600020905b81548152906001019060200180831161168c57829003601f168201915b505050505090509250925092509193909250565b806116c833826118cc565b6116d157600080fd5b813360011515600c600084815260200190815260200160002060003373ffffffffffffffffffffffffffffffffffffffff1673ffffffffffffffffffffffffffffffffffffffff16815260200190815260200160002060009054906101000a900460ff161515141561174257600080fd5b600360149054906101000a900460ff161561175c57600080fd5b6001600c600086815260200190815260200160002060003373ffffffffffffffffffffffffffffffffffffffff1673ffffffffffffffffffffffffffffffffffffffff16815260200190815260200160002060006101000a81548160ff02191690831515021790555060076000858152602001908152602001600020600d0160008154809291906117ec90612c7d565b91905055503373ffffffffffffffffffffffffffffffffffffffff166108fc60076000878152602001908152602001600020600c01549081150290604051600060405180830381858888f1935050505015801561184d573d6000803e3d6000fd5b503373ffffffffffffffffffffffffffffffffffffffff167f1a31e733a172afcf46074b3106c17f0c298e226442682a03c1e99ce256139ec28560405161189491906129c0565b60405180910390a250505050565b6000600260009054906101000a900473ffffffffffffffffffffffffffffffffffffffff16905090565b6000600360149054906101000a900460ff16156118e857600080fd5b600115156014600084815260200190815260200160002060008573ffffffffffffffffffffffffffffffffffffffff1673ffffffffffffffffffffffffffffffffffffffff16815260200190815260200160002060009054906101000a900460ff16151514905092915050565b806000908051906020019061196b9291906122a0565b5050565b6000600360149054906101000a900460ff161561198b57600080fd5b600115156010600084815260200190815260200160002060008573ffffffffffffffffffffffffffffffffffffffff1673ffffffffffffffffffffffffffffffffffffffff16815260200190815260200160002060009054906101000a900460ff16151514905092915050565b600360009054906101000a900473ffffffffffffffffffffffffffffffffffffffff1673ffffffffffffffffffffffffffffffffffffffff163373ffffffffffffffffffffffffffffffffffffffff161480611aa15750600160009054906101000a900473ffffffffffffffffffffffffffffffffffffffff1673ffffffffffffffffffffffffffffffffffffffff163373ffffffffffffffffffffffffffffffffffffffff16145b80611af95750600260009054906101000a900473ffffffffffffffffffffffffffffffffffffffff1673ffffffffffffffffffffffffffffffffffffffff163373ffffffffffffffffffffffffffffffffffffffff16145b611b0257600080fd5b600360149054906101000a900460ff1615611b1c57600080fd5b6001600360146101000a81548160ff021916908315150217905550565b606060008054611b4890612c1a565b80601f0160208091040260200160405190810160405280929190818152602001828054611b7490612c1a565b8015611bc15780601f10611b9657610100808354040283529160200191611bc1565b820191906000526020600020905b815481529060010190602001808311611ba457829003601f168201915b5050505050905090565b6000600260009054906101000a900473ffffffffffffffffffffffffffffffffffffffff1673ffffffffffffffffffffffffffffffffffffffff163373ffffffffffffffffffffffffffffffffffffffff1614905090565b606060126000838152602001908152602001600020805480602002602001604051908101604052809291908181526020018280548015611cb857602002820191906000526020600020905b8160009054906101000a900473ffffffffffffffffffffffffffffffffffffffff1673ffffffffffffffffffffffffffffffffffffffff1681526020019060010190808311611c6e575b50505050509050919050565b83611ccf338261196f565b611cd857600080fd5b83600760008781526020019081526020016000206007019080519060200190611d029291906122a0565b5082600760008781526020019081526020016000206008019080519060200190611d2d9291906122a0565b5081600760008781526020019081526020016000206009019080519060200190611d589291906122a0565b505050505050565b600360009054906101000a900473ffffffffffffffffffffffffffffffffffffffff1681565b6000600360149054906101000a900460ff16905090565b600033905090565b60606005805480602002602001604051908101604052809291908181526020018280548015611df357602002820191906000526020600020905b815481526020019060010190808311611ddf575b5050505050905090565b60008054611e0a90612c1a565b80601f0160208091040260200160405190810160405280929190818152602001828054611e3690612c1a565b8015611e835780601f10611e5857610100808354040283529160200191611e83565b820191906000526020600020905b815481529060010190602001808311611e6657829003601f168201915b505050505081565b60606006805480602002602001604051908101604052809291908181526020016000905b82821015611f5b578382906000526020600020018054611ece90612c1a565b80601f0160208091040260200160405190810160405280929190818152602001828054611efa90612c1a565b8015611f475780601f10611f1c57610100808354040283529160200191611f47565b820191906000526020600020905b815481529060010190602001808311611f2a57829003601f168201915b505050505081526020019060010190611eaf565b50505050905090565b6000600160009054906101000a900473ffffffffffffffffffffffffffffffffffffffff1673ffffffffffffffffffffffffffffffffffffffff163373ffffffffffffffffffffffffffffffffffffffff1614905090565b80611fc7338261196f565b611fd057600080fd5b600360149054906101000a900460ff1615611fea57600080fd5b3460076000848152602001908152602001600020600b01819055503373ffffffffffffffffffffffffffffffffffffffff167f5dc1fe5ab986a852c4eda8e8bb94247d13307065c593fb83f1a09be273679382833460405161204d9291906129db565b60405180910390a25050565b6000600360149054906101000a900460ff161561207557600080fd5b61207f338361196f565b9050919050565b6000600360009054906101000a900473ffffffffffffffffffffffffffffffffffffffff1673ffffffffffffffffffffffffffffffffffffffff163373ffffffffffffffffffffffffffffffffffffffff1614905090565b60006120ea33836118cc565b6120f75760009050612160565b60011515600c600084815260200190815260200160002060003373ffffffffffffffffffffffffffffffffffffffff1673ffffffffffffffffffffffffffffffffffffffff16815260200190815260200160002060009054906101000a900460ff161515141590505b919050565b6000600360009054906101000a900473ffffffffffffffffffffffffffffffffffffffff16905090565b60006010600083815260200190815260200160002060008473ffffffffffffffffffffffffffffffffffffffff1673ffffffffffffffffffffffffffffffffffffffff16815260200190815260200160002060006101000a81548160ff021916908315150217905550600060076000838152602001908152602001600020600a0160006101000a81548173ffffffffffffffffffffffffffffffffffffffff021916908373ffffffffffffffffffffffffffffffffffffffff1602179055508173ffffffffffffffffffffffffffffffffffffffff167fda111d7eb5d5b2033c4ffad00cd7cd42f45af2813bee1a69e65f26d90ea15f0b8260405161229491906129c0565b60405180910390a25050565b8280546122ac90612c1a565b90600052602060002090601f0160209004810192826122ce5760008555612315565b82601f106122e757805160ff1916838001178555612315565b82800160010185558215612315579182015b828111156123145782518255916020019190600101906122f9565b5b5090506123229190612326565b5090565b5b8082111561233f576000816000905550600101612327565b5090565b600061235661235184612a29565b612a04565b90508281526020810184848401111561237257612371612d87565b5b61237d848285612bd8565b509392505050565b60008135905061239481612dbb565b92915050565b600082601f8301126123af576123ae612d82565b5b81356123bf848260208601612343565b91505092915050565b6000813590506123d781612dd2565b92915050565b6000602082840312156123f3576123f2612d91565b5b600061240184828501612385565b91505092915050565b6000806040838503121561242157612420612d91565b5b600061242f85828601612385565b9250506020612440858286016123c8565b9150509250929050565b6000602082840312156124605761245f612d91565b5b600082013567ffffffffffffffff81111561247e5761247d612d8c565b5b61248a8482850161239a565b91505092915050565b6000602082840312156124a9576124a8612d91565b5b60006124b7848285016123c8565b91505092915050565b600080600080608085870312156124da576124d9612d91565b5b60006124e8878288016123c8565b945050602085013567ffffffffffffffff81111561250957612508612d8c565b5b6125158782880161239a565b935050604085013567ffffffffffffffff81111561253657612535612d8c565b5b6125428782880161239a565b925050606085013567ffffffffffffffff81111561256357612562612d8c565b5b61256f8782880161239a565b91505092959194509250565b600061258783836125d7565b60208301905092915050565b600061259f8383612784565b60208301905092915050565b60006125b783836127b1565b905092915050565b60006125cb8383612823565b60208301905092915050565b6125e081612b6b565b82525050565b6125ef81612b6b565b82525050565b600061260082612a9a565b61260a8185612b05565b935061261583612a5a565b8060005b8381101561264657815161262d888261257b565b975061263883612ad1565b925050600181019050612619565b5085935050505092915050565b600061265e82612aa5565b6126688185612b16565b935061267383612a6a565b8060005b838110156126a457815161268b8882612593565b975061269683612ade565b925050600181019050612677565b5085935050505092915050565b60006126bc82612ab0565b6126c68185612b27565b9350836020820285016126d885612a7a565b8060005b8581101561271457848403895281516126f585826125ab565b945061270083612aeb565b925060208a019950506001810190506126dc565b50829750879550505050505092915050565b600061273182612abb565b61273b8185612b38565b935061274683612a8a565b8060005b8381101561277757815161275e88826125bf565b975061276983612af8565b92505060018101905061274a565b5085935050505092915050565b61278d81612b7d565b82525050565b61279c81612b7d565b82525050565b6127ab81612bc6565b82525050565b60006127bc82612ac6565b6127c68185612b49565b93506127d6818560208601612be7565b6127df81612d96565b840191505092915050565b60006127f582612ac6565b6127ff8185612b5a565b935061280f818560208601612be7565b61281881612d96565b840191505092915050565b61282c81612bbc565b82525050565b61283b81612bbc565b82525050565b600060208201905061285660008301846125e6565b92915050565b6000602082019050818103600083015261287681846125f5565b905092915050565b600060208201905081810360008301526128988184612653565b905092915050565b600060208201905081810360008301526128ba81846126b1565b905092915050565b600060208201905081810360008301526128dc8184612726565b905092915050565b60006020820190506128f96000830184612793565b92915050565b600060a08201905061291460008301886127a2565b6129216020830187612832565b61292e6040830186612832565b61293b6060830185612832565b6129486080830184612832565b9695505050505050565b6000602082019050818103600083015261296c81846127ea565b905092915050565b6000606082019050818103600083015261298e81866127ea565b905081810360208301526129a281856127ea565b905081810360408301526129b681846127ea565b9050949350505050565b60006020820190506129d56000830184612832565b92915050565b60006040820190506129f06000830185612832565b6129fd6020830184612832565b9392505050565b6000612a0e612a1f565b9050612a1a8282612c4c565b919050565b6000604051905090565b600067ffffffffffffffff821115612a4457612a43612d53565b5b612a4d82612d96565b9050602081019050919050565b6000819050602082019050919050565b6000819050602082019050919050565b6000819050602082019050919050565b6000819050602082019050919050565b600081519050919050565b600081519050919050565b600081519050919050565b600081519050919050565b600081519050919050565b6000602082019050919050565b6000602082019050919050565b6000602082019050919050565b6000602082019050919050565b600082825260208201905092915050565b600082825260208201905092915050565b600082825260208201905092915050565b600082825260208201905092915050565b600082825260208201905092915050565b600082825260208201905092915050565b6000612b7682612b9c565b9050919050565b60008115159050919050565b6000819050612b9782612da7565b919050565b600073ffffffffffffffffffffffffffffffffffffffff82169050919050565b6000819050919050565b6000612bd182612b89565b9050919050565b82818337600083830152505050565b60005b83811015612c05578082015181840152602081019050612bea565b83811115612c14576000848401525b50505050565b60006002820490506001821680612c3257607f821691505b60208210811415612c4657612c45612d24565b5b50919050565b612c5582612d96565b810181811067ffffffffffffffff82111715612c7457612c73612d53565b5b80604052505050565b6000612c8882612bbc565b91507fffffffffffffffffffffffffffffffffffffffffffffffffffffffffffffffff821415612cbb57612cba612cc6565b5b600182019050919050565b7f4e487b7100000000000000000000000000000000000000000000000000000000600052601160045260246000fd5b7f4e487b7100000000000000000000000000000000000000000000000000000000600052602160045260246000fd5b7f4e487b7100000000000000000000000000000000000000000000000000000000600052602260045260246000fd5b7f4e487b7100000000000000000000000000000000000000000000000000000000600052604160045260246000fd5b600080fd5b600080fd5b600080fd5b600080fd5b6000601f19601f8301169050919050565b60048110612db857612db7612cf5565b5b50565b612dc481612b6b565b8114612dcf57600080fd5b50565b612ddb81612bbc565b8114612de657600080fd5b5056fea2646970667358221220221d68671d075f68c47f9d30b27e446da8e6393002446e5bc303c5a9ab96958164736f6c63430008060033",
  "immutableReferences": {},
  "source": "// SPDX-License-Identifier: MIT\npragma solidity ^0.8.0;\n\nimport \"./RecipientsManager.sol\";\n\ncontract ContributorManager is RecipientsManager {\n    event ContributorAdded(address indexed account, uint256 groupId);\n    event ContributorRemoved(address indexed account, uint256 groupId);\n\n    event ContributionMade(\n        address indexed account,\n        uint256 groupId,\n        uint256 amount\n    );\n\n    constructor() {}\n\n    modifier onlyContributor(uint256 groupId) {\n        require(isContributor(msg.sender, groupId));\n        _;\n    }\n\n    function isContributor(address account, uint256 groupId)\n        public\n        view\n        whenNotPaused\n        returns (bool)\n    {\n        return contributors[groupId][account] == true;\n    }\n\n    function amIContributor(uint256 groupId)\n        external\n        view\n        whenNotPaused\n        returns (bool)\n    {\n        return isContributor(msg.sender, groupId);\n    }\n\n    function getCurrentSponsorAddress(uint256 groupId)\n        external\n        view\n        returns (address)\n    {\n        return currentEvents[groupId].currentContributor;\n    }\n\n    function renounceContributor(uint256 groupId)\n        external\n        onlyContributor(groupId)\n        whenNotPaused\n    {\n        _removeContributor(msg.sender, groupId);\n    }\n\n    function _changeContributor(address account, uint256 groupId) internal {\n        contributors[groupId][account] = true;\n\n        currentEvents[groupId].currentContributor = account;\n        emit ContributorAdded(account, groupId);\n    }\n\n    function _removeContributor(address account, uint256 groupId) internal {\n        contributors[groupId][account] = false;\n\n        currentEvents[groupId].currentContributor = address(0);\n        emit ContributorRemoved(account, groupId);\n    }\n\n    function updateContributorInfo(\n        uint256 groupId,\n        string memory newContributorName,\n        string memory newContributorImgUrl,\n        string memory newContributorLinkToUrl\n    ) external onlyContributor(groupId) {\n        currentEvents[groupId].sponsorName = newContributorName;\n        currentEvents[groupId].sponsorImageUrl = newContributorImgUrl;\n        currentEvents[groupId].sponsorLinkToUrl = newContributorLinkToUrl;\n\n        // emit contributor info updated\n    }\n    function getContributorInfo(uint groupId) external view returns (\n        string memory newContributorName,\n        string memory newContributorImgUrl,\n        string memory newContributorLinkToUrl\n    ) {\n        return (\n        currentEvents[groupId].sponsorName,\n        currentEvents[groupId].sponsorImageUrl,\n        currentEvents[groupId].sponsorLinkToUrl\n        );\n    }\n\n    function contributeToPot(uint256 groupId)\n        external\n        payable\n        onlyContributor(groupId)\n        whenNotPaused\n    {\n        currentEvents[groupId].totalAmountContributed = msg.value;\n        emit ContributionMade(msg.sender, groupId, msg.value);\n    }\n}\n",
  "sourcePath": "/Users/jlynch/Git-Projects/EthDrop/contracts/roles/ContributorManager.sol",
  "compiler": {
    "name": "solc",
    "version": "0.8.6+commit.11564f7e.Emscripten.clang"
  },
  "schemaVersion": "3.4.1",
  "updatedAt": "2021-07-27T01:35:47.129Z",
  "networkType": "ethereum",
  "devdoc": {
    "kind": "dev",
    "methods": {
      "pause()": {
        "details": "Called by any \"C-level\" role to pause the contract. Used only when  a bug or exploit is detected and we need to limit damage."
      },
      "setCEO(address)": {
        "details": "Assigns a new address to act as the CEO. Only available to the current CEO.",
        "params": {
          "_newCEO": "The address of the new CEO"
        }
      },
      "setCFO(address)": {
        "details": "Assigns a new address to act as the CFO. Only available to the current CEO.",
        "params": {
          "_newCFO": "The address of the new CFO"
        }
      },
      "setCOO(address)": {
        "details": "Assigns a new address to act as the COO. Only available to the current CEO.",
        "params": {
          "_newCOO": "The address of the new COO"
        }
      },
      "unpause()": {
        "details": "Unpauses the smart contract. Can only be called by the CEO, since  one reason we may pause the contract is when CFO or COO accounts are  compromised."
      }
    },
    "version": 1
  },
  "userdoc": {
    "kind": "user",
    "methods": {
      "unpause()": {
        "notice": "This is public rather than external so it can be called by  derived contracts."
      }
    },
    "version": 1
  }
}