{
  "contractName": "ContributorManager",
  "abi": [
    {
      "inputs": [],
      "stateMutability": "nonpayable",
      "type": "constructor"
    },
    {
      "anonymous": false,
      "inputs": [
        {
          "indexed": false,
          "internalType": "bool",
          "name": "isPaused",
          "type": "bool"
        }
      ],
      "name": "AppPaused",
      "type": "event"
    },
    {
      "anonymous": false,
      "inputs": [],
      "name": "CfoUpdated",
      "type": "event"
    },
    {
      "anonymous": false,
      "inputs": [
        {
          "indexed": false,
          "internalType": "address",
          "name": "newContract",
          "type": "address"
        }
      ],
      "name": "ContractUpgrade",
      "type": "event"
    },
    {
      "anonymous": false,
      "inputs": [
        {
          "indexed": true,
          "internalType": "address",
          "name": "account",
          "type": "address"
        },
        {
          "indexed": false,
          "internalType": "uint256",
          "name": "groupId",
          "type": "uint256"
        },
        {
          "indexed": false,
          "internalType": "uint256",
          "name": "amount",
          "type": "uint256"
        }
      ],
      "name": "ContributionMade",
      "type": "event"
    },
    {
      "anonymous": false,
      "inputs": [
        {
          "indexed": true,
          "internalType": "address",
          "name": "account",
          "type": "address"
        },
        {
          "indexed": false,
          "internalType": "uint256",
          "name": "groupId",
          "type": "uint256"
        }
      ],
      "name": "ContributorAdded",
      "type": "event"
    },
    {
      "anonymous": false,
      "inputs": [
        {
          "indexed": false,
          "internalType": "uint256",
          "name": "groupId",
          "type": "uint256"
        },
        {
          "indexed": false,
          "internalType": "address",
          "name": "newContributor",
          "type": "address"
        }
      ],
      "name": "ContributorAddressUpdated",
      "type": "event"
    },
    {
      "anonymous": false,
      "inputs": [
        {
          "indexed": false,
          "internalType": "uint256",
          "name": "groupId",
          "type": "uint256"
        },
        {
          "indexed": false,
          "internalType": "string",
          "name": "sponsorName",
          "type": "string"
        },
        {
          "indexed": false,
          "internalType": "string",
          "name": "imgUrl",
          "type": "string"
        },
        {
          "indexed": false,
          "internalType": "string",
          "name": "imgLinkToUrl",
          "type": "string"
        }
      ],
      "name": "ContributorInfoUpdated",
      "type": "event"
    },
    {
      "anonymous": false,
      "inputs": [
        {
          "indexed": true,
          "internalType": "address",
          "name": "account",
          "type": "address"
        },
        {
          "indexed": false,
          "internalType": "uint256",
          "name": "groupId",
          "type": "uint256"
        }
      ],
      "name": "ContributorRemoved",
      "type": "event"
    },
    {
      "anonymous": false,
      "inputs": [],
      "name": "CooUpdated",
      "type": "event"
    },
    {
      "anonymous": false,
      "inputs": [
        {
          "indexed": true,
          "internalType": "address",
          "name": "account",
          "type": "address"
        },
        {
          "indexed": false,
          "internalType": "uint256",
          "name": "groupId",
          "type": "uint256"
        }
      ],
      "name": "EligibleRecipientAdded",
      "type": "event"
    },
    {
      "anonymous": false,
      "inputs": [
        {
          "indexed": true,
          "internalType": "address",
          "name": "account",
          "type": "address"
        },
        {
          "indexed": false,
          "internalType": "uint256",
          "name": "groupId",
          "type": "uint256"
        }
      ],
      "name": "EligibleRecipientRemoved",
      "type": "event"
    },
    {
      "anonymous": false,
      "inputs": [],
      "name": "EventClose",
      "type": "event"
    },
    {
      "anonymous": false,
      "inputs": [
        {
          "indexed": false,
          "internalType": "uint256",
          "name": "groupId",
          "type": "uint256"
        },
        {
          "indexed": false,
          "internalType": "address",
          "name": "account",
          "type": "address"
        },
        {
          "indexed": false,
          "internalType": "uint256",
          "name": "index",
          "type": "uint256"
        }
      ],
      "name": "NewUserRequestedToJoinGroup",
      "type": "event"
    },
    {
      "anonymous": false,
      "inputs": [
        {
          "indexed": true,
          "internalType": "address",
          "name": "account",
          "type": "address"
        },
        {
          "indexed": false,
          "internalType": "uint256",
          "name": "groupId",
          "type": "uint256"
        }
      ],
      "name": "RecipientRegistered",
      "type": "event"
    },
    {
      "anonymous": false,
      "inputs": [],
      "name": "RegistrationOpen",
      "type": "event"
    },
    {
      "anonymous": false,
      "inputs": [
        {
          "indexed": false,
          "internalType": "address",
          "name": "from",
          "type": "address"
        },
        {
          "indexed": false,
          "internalType": "address",
          "name": "to",
          "type": "address"
        }
      ],
      "name": "Transfer",
      "type": "event"
    },
    {
      "anonymous": false,
      "inputs": [
        {
          "indexed": true,
          "internalType": "address",
          "name": "account",
          "type": "address"
        },
        {
          "indexed": false,
          "internalType": "uint256",
          "name": "groupId",
          "type": "uint256"
        }
      ],
      "name": "WinningsClaimed",
      "type": "event"
    },
    {
      "anonymous": false,
      "inputs": [],
      "name": "WinningsClaimingOpen",
      "type": "event"
    },
    {
      "inputs": [
        {
          "internalType": "uint256",
          "name": "groupId",
          "type": "uint256"
        }
      ],
      "name": "amIEligibleRecipient",
      "outputs": [
        {
          "internalType": "bool",
          "name": "",
          "type": "bool"
        }
      ],
      "stateMutability": "view",
      "type": "function"
    },
    {
      "inputs": [
        {
          "internalType": "uint256",
          "name": "groupId",
          "type": "uint256"
        }
      ],
      "name": "amIRegisteredRecipient",
      "outputs": [
        {
          "internalType": "bool",
          "name": "",
          "type": "bool"
        }
      ],
      "stateMutability": "view",
      "type": "function"
    },
    {
      "inputs": [],
      "name": "ceoAddress",
      "outputs": [
        {
          "internalType": "address",
          "name": "",
          "type": "address"
        }
      ],
      "stateMutability": "view",
      "type": "function"
    },
    {
      "inputs": [],
      "name": "cfoAddress",
      "outputs": [
        {
          "internalType": "address",
          "name": "",
          "type": "address"
        }
      ],
      "stateMutability": "view",
      "type": "function"
    },
    {
      "inputs": [
        {
          "internalType": "uint256",
          "name": "groupId",
          "type": "uint256"
        }
      ],
      "name": "claimWinnings",
      "outputs": [],
      "stateMutability": "nonpayable",
      "type": "function"
    },
    {
      "inputs": [],
      "name": "cooAddress",
      "outputs": [
        {
          "internalType": "address",
          "name": "",
          "type": "address"
        }
      ],
      "stateMutability": "view",
      "type": "function"
    },
    {
      "inputs": [
        {
          "internalType": "uint256",
          "name": "groupId",
          "type": "uint256"
        }
      ],
      "name": "doIHaveClaimableWinnings",
      "outputs": [
        {
          "internalType": "bool",
          "name": "",
          "type": "bool"
        }
      ],
      "stateMutability": "view",
      "type": "function"
    },
    {
      "inputs": [],
      "name": "getCFO",
      "outputs": [
        {
          "internalType": "address",
          "name": "",
          "type": "address"
        }
      ],
      "stateMutability": "view",
      "type": "function"
    },
    {
      "inputs": [],
      "name": "getCOO",
      "outputs": [
        {
          "internalType": "address",
          "name": "",
          "type": "address"
        }
      ],
      "stateMutability": "view",
      "type": "function"
    },
    {
      "inputs": [
        {
          "internalType": "uint256",
          "name": "groupId",
          "type": "uint256"
        }
      ],
      "name": "getEligibleRecipientAddresses",
      "outputs": [
        {
          "internalType": "address[]",
          "name": "",
          "type": "address[]"
        }
      ],
      "stateMutability": "view",
      "type": "function"
    },
    {
      "inputs": [
        {
          "internalType": "uint256",
          "name": "groupId",
          "type": "uint256"
        }
      ],
      "name": "getEligibleRecipientIsEligibilityEnabled",
      "outputs": [
        {
          "internalType": "bool[]",
          "name": "",
          "type": "bool[]"
        }
      ],
      "stateMutability": "view",
      "type": "function"
    },
    {
      "inputs": [
        {
          "internalType": "uint256",
          "name": "groupId",
          "type": "uint256"
        }
      ],
      "name": "getEligibleRecipientNames",
      "outputs": [
        {
          "internalType": "string[]",
          "name": "",
          "type": "string[]"
        }
      ],
      "stateMutability": "view",
      "type": "function"
    },
    {
      "inputs": [
        {
          "internalType": "uint256",
          "name": "groupId",
          "type": "uint256"
        }
      ],
      "name": "getGroupEventData",
      "outputs": [
        {
          "internalType": "enum EthDropBase.EventState",
          "name": "",
          "type": "uint8"
        },
        {
          "internalType": "uint256",
          "name": "",
          "type": "uint256"
        },
        {
          "internalType": "uint256",
          "name": "",
          "type": "uint256"
        },
        {
          "internalType": "uint256",
          "name": "",
          "type": "uint256"
        },
        {
          "internalType": "uint256",
          "name": "",
          "type": "uint256"
        }
      ],
      "stateMutability": "view",
      "type": "function"
    },
    {
      "inputs": [],
      "name": "getGroupIds",
      "outputs": [
        {
          "internalType": "uint256[]",
          "name": "",
          "type": "uint256[]"
        }
      ],
      "stateMutability": "view",
      "type": "function"
    },
    {
      "inputs": [],
      "name": "getGroupNames",
      "outputs": [
        {
          "internalType": "string[]",
          "name": "",
          "type": "string[]"
        }
      ],
      "stateMutability": "view",
      "type": "function"
    },
    {
      "inputs": [
        {
          "internalType": "uint256",
          "name": "groupId",
          "type": "uint256"
        }
      ],
      "name": "getGroupPublicData",
      "outputs": [
        {
          "internalType": "uint256",
          "name": "",
          "type": "uint256"
        },
        {
          "internalType": "string",
          "name": "",
          "type": "string"
        },
        {
          "internalType": "enum EthDropBase.EventState",
          "name": "",
          "type": "uint8"
        },
        {
          "internalType": "uint256",
          "name": "",
          "type": "uint256"
        },
        {
          "internalType": "uint256",
          "name": "",
          "type": "uint256"
        },
        {
          "internalType": "uint256",
          "name": "",
          "type": "uint256"
        },
        {
          "internalType": "uint256",
          "name": "",
          "type": "uint256"
        }
      ],
      "stateMutability": "view",
      "type": "function"
    },
    {
      "inputs": [
        {
          "internalType": "uint256",
          "name": "groupId",
          "type": "uint256"
        }
      ],
      "name": "getRegisteredRecipientNames",
      "outputs": [
        {
          "internalType": "string[]",
          "name": "",
          "type": "string[]"
        }
      ],
      "stateMutability": "view",
      "type": "function"
    },
    {
      "inputs": [
        {
          "internalType": "uint256",
          "name": "groupId",
          "type": "uint256"
        }
      ],
      "name": "getRegisteredRecipients",
      "outputs": [
        {
          "internalType": "address[]",
          "name": "",
          "type": "address[]"
        },
        {
          "internalType": "string[]",
          "name": "",
          "type": "string[]"
        },
        {
          "internalType": "bool[]",
          "name": "",
          "type": "bool[]"
        }
      ],
      "stateMutability": "view",
      "type": "function"
    },
    {
      "inputs": [],
      "name": "getString",
      "outputs": [
        {
          "internalType": "string",
          "name": "",
          "type": "string"
        }
      ],
      "stateMutability": "view",
      "type": "function"
    },
    {
      "inputs": [],
      "name": "isCEO",
      "outputs": [
        {
          "internalType": "bool",
          "name": "",
          "type": "bool"
        }
      ],
      "stateMutability": "view",
      "type": "function"
    },
    {
      "inputs": [],
      "name": "isCFO",
      "outputs": [
        {
          "internalType": "bool",
          "name": "",
          "type": "bool"
        }
      ],
      "stateMutability": "view",
      "type": "function"
    },
    {
      "inputs": [],
      "name": "isCOO",
      "outputs": [
        {
          "internalType": "bool",
          "name": "",
          "type": "bool"
        }
      ],
      "stateMutability": "view",
      "type": "function"
    },
    {
      "inputs": [
        {
          "internalType": "address",
          "name": "account",
          "type": "address"
        },
        {
          "internalType": "uint256",
          "name": "groupId",
          "type": "uint256"
        }
      ],
      "name": "isEligibleRecipient",
      "outputs": [
        {
          "internalType": "bool",
          "name": "",
          "type": "bool"
        }
      ],
      "stateMutability": "view",
      "type": "function"
    },
    {
      "inputs": [],
      "name": "isPaused",
      "outputs": [
        {
          "internalType": "bool",
          "name": "",
          "type": "bool"
        }
      ],
      "stateMutability": "view",
      "type": "function"
    },
    {
      "inputs": [
        {
          "internalType": "address",
          "name": "account",
          "type": "address"
        },
        {
          "internalType": "uint256",
          "name": "groupId",
          "type": "uint256"
        }
      ],
      "name": "isRegisteredRecipient",
      "outputs": [
        {
          "internalType": "bool",
          "name": "",
          "type": "bool"
        }
      ],
      "stateMutability": "view",
      "type": "function"
    },
    {
      "inputs": [],
      "name": "pause",
      "outputs": [],
      "stateMutability": "nonpayable",
      "type": "function"
    },
    {
      "inputs": [],
      "name": "paused",
      "outputs": [
        {
          "internalType": "bool",
          "name": "",
          "type": "bool"
        }
      ],
      "stateMutability": "view",
      "type": "function"
    },
    {
      "inputs": [
        {
          "internalType": "uint256",
          "name": "groupId",
          "type": "uint256"
        }
      ],
      "name": "registerForEvent",
      "outputs": [],
      "stateMutability": "nonpayable",
      "type": "function"
    },
    {
      "inputs": [
        {
          "internalType": "uint256",
          "name": "groupId",
          "type": "uint256"
        },
        {
          "internalType": "string",
          "name": "username",
          "type": "string"
        }
      ],
      "name": "requestToJoinGroup",
      "outputs": [],
      "stateMutability": "nonpayable",
      "type": "function"
    },
    {
      "inputs": [
        {
          "internalType": "address",
          "name": "_newCEO",
          "type": "address"
        }
      ],
      "name": "setCEO",
      "outputs": [],
      "stateMutability": "nonpayable",
      "type": "function"
    },
    {
      "inputs": [
        {
          "internalType": "address",
          "name": "_newCFO",
          "type": "address"
        }
      ],
      "name": "setCFO",
      "outputs": [],
      "stateMutability": "nonpayable",
      "type": "function"
    },
    {
      "inputs": [
        {
          "internalType": "address",
          "name": "_newCOO",
          "type": "address"
        }
      ],
      "name": "setCOO",
      "outputs": [],
      "stateMutability": "nonpayable",
      "type": "function"
    },
    {
      "inputs": [
        {
          "internalType": "string",
          "name": "_s",
          "type": "string"
        }
      ],
      "name": "setString",
      "outputs": [],
      "stateMutability": "nonpayable",
      "type": "function"
    },
    {
      "inputs": [],
      "name": "stringgg",
      "outputs": [
        {
          "internalType": "string",
          "name": "",
          "type": "string"
        }
      ],
      "stateMutability": "view",
      "type": "function"
    },
    {
      "inputs": [],
      "name": "unpause",
      "outputs": [
        {
          "internalType": "bool",
          "name": "",
          "type": "bool"
        }
      ],
      "stateMutability": "nonpayable",
      "type": "function"
    },
    {
      "inputs": [],
      "name": "whoami",
      "outputs": [
        {
          "internalType": "address",
          "name": "",
          "type": "address"
        }
      ],
      "stateMutability": "view",
      "type": "function"
    },
    {
      "inputs": [
        {
          "internalType": "address",
          "name": "account",
          "type": "address"
        },
        {
          "internalType": "uint256",
          "name": "groupId",
          "type": "uint256"
        }
      ],
      "name": "isContributor",
      "outputs": [
        {
          "internalType": "bool",
          "name": "",
          "type": "bool"
        }
      ],
      "stateMutability": "view",
      "type": "function"
    },
    {
      "inputs": [
        {
          "internalType": "uint256",
          "name": "groupId",
          "type": "uint256"
        }
      ],
      "name": "amIContributor",
      "outputs": [
        {
          "internalType": "bool",
          "name": "",
          "type": "bool"
        }
      ],
      "stateMutability": "view",
      "type": "function"
    },
    {
      "inputs": [
        {
          "internalType": "uint256",
          "name": "groupId",
          "type": "uint256"
        }
      ],
      "name": "getCurrentSponsorAddress",
      "outputs": [
        {
          "internalType": "address",
          "name": "",
          "type": "address"
        }
      ],
      "stateMutability": "view",
      "type": "function"
    },
    {
      "inputs": [
        {
          "internalType": "uint256",
          "name": "groupId",
          "type": "uint256"
        },
        {
          "internalType": "string",
          "name": "newContributorName",
          "type": "string"
        },
        {
          "internalType": "string",
          "name": "newContributorImgUrl",
          "type": "string"
        },
        {
          "internalType": "string",
          "name": "newContributorLinkToUrl",
          "type": "string"
        }
      ],
      "name": "updateContributorInfo",
      "outputs": [],
      "stateMutability": "nonpayable",
      "type": "function"
    },
    {
      "inputs": [
        {
          "internalType": "uint256",
          "name": "groupId",
          "type": "uint256"
        }
      ],
      "name": "getContributorInfo",
      "outputs": [
        {
          "internalType": "string",
          "name": "newContributorName",
          "type": "string"
        },
        {
          "internalType": "string",
          "name": "newContributorImgUrl",
          "type": "string"
        },
        {
          "internalType": "string",
          "name": "newContributorLinkToUrl",
          "type": "string"
        }
      ],
      "stateMutability": "view",
      "type": "function"
    },
    {
      "inputs": [
        {
          "internalType": "uint256",
          "name": "groupId",
          "type": "uint256"
        }
      ],
      "name": "contributeToPot",
      "outputs": [],
      "stateMutability": "payable",
      "type": "function"
    }
  ],
  "bytecode": "0x608060405233600160006101000a81548173ffffffffffffffffffffffffffffffffffffffff021916908373ffffffffffffffffffffffffffffffffffffffff1602179055506000600360146101000a81548160ff0219169083151502179055506005805534801561007057600080fd5b5061443a806100806000396000f3fe6080604052600436106102515760003560e01c80637d837ce511610139578063b3b36bb3116100b6578063e513b7a91161007a578063e513b7a914610948578063e82f24e014610973578063ee41b5921461098f578063f4a02e70146109cc578063f89e9cb9146109f7578063fc5fd6e414610a3457610251565b8063b3b36bb314610859578063c02b8b2c14610884578063c6db5094146108af578063cd04e475146108da578063d5f016c31461091d57610251565b80639393ae37116100fd5780639393ae37146107725780639bda87961461079d578063aea88a05146107da578063b047fb5014610803578063b187bd261461082e57610251565b80637d837ce51461068d5780637fcaf666146106ca5780638182aaf2146106f35780638456cb591461073057806389ea642f1461074757610251565b8063406db843116101d257806355b57ec11161019657806355b57ec1146105555780635c975abb146105925780635e82c1fc146105bd578063674811ca146105fa578063677bd9ff146106395780637b936ac21461066257610251565b8063406db8431461044657806344b2983b1461046f578063454432e2146104ae5780634635509b146104eb5780634e0a33791461052c57610251565b8063222fd08711610219578063222fd0871461036357806327d7874c1461038c5780632ba73c15146103b557806338f0b656146103de5780633f4ba83a1461041b57610251565b80630519ce791461025657806306cc49221461028157806307bfa330146102be5780630a0f8168146102fb5780630d82ffa014610326575b600080fd5b34801561026257600080fd5b5061026b610a5f565b6040516102789190613af2565b60405180910390f35b34801561028d57600080fd5b506102a860048036038101906102a391906135fb565b610a85565b6040516102b59190613be1565b60405180910390f35b3480156102ca57600080fd5b506102e560048036038101906102e091906135fb565b610ab2565b6040516102f29190613b9d565b60405180910390f35b34801561030757600080fd5b50610310610b9e565b60405161031d9190613af2565b60405180910390f35b34801561033257600080fd5b5061034d600480360381019061034891906135fb565b610bc4565b60405161035a9190613af2565b60405180910390f35b34801561036f57600080fd5b5061038a60048036038101906103859190613628565b610c04565b005b34801561039857600080fd5b506103b360048036038101906103ae9190613545565b61114f565b005b3480156103c157600080fd5b506103dc60048036038101906103d79190613545565b611227565b005b3480156103ea57600080fd5b50610405600480360381019061040091906135fb565b61132b565b6040516104129190613be1565b60405180910390f35b34801561042757600080fd5b50610430611358565b60405161043d9190613be1565b60405180910390f35b34801561045257600080fd5b5061046d600480360381019061046891906135fb565b6113fd565b005b34801561047b57600080fd5b50610496600480360381019061049191906135fb565b61195b565b6040516104a593929190613b2f565b60405180910390f35b3480156104ba57600080fd5b506104d560048036038101906104d091906135fb565b611b78565b6040516104e29190613b9d565b60405180910390f35b3480156104f757600080fd5b50610512600480360381019061050d91906135fb565b611c64565b604051610523959493929190613bfc565b60405180910390f35b34801561053857600080fd5b50610553600480360381019061054e9190613545565b611fe7565b005b34801561056157600080fd5b5061057c600480360381019061057791906135fb565b6120eb565b6040516105899190613b7b565b60405180910390f35b34801561059e57600080fd5b506105a761217b565b6040516105b49190613be1565b60405180910390f35b3480156105c957600080fd5b506105e460048036038101906105df9190613572565b61218e565b6040516105f19190613be1565b60405180910390f35b34801561060657600080fd5b50610621600480360381019061061c91906135fb565b612217565b60405161063093929190613c71565b60405180910390f35b34801561064557600080fd5b50610660600480360381019061065b91906135fb565b61240f565b005b34801561066e57600080fd5b506106776125f4565b6040516106849190613af2565b60405180910390f35b34801561069957600080fd5b506106b460048036038101906106af9190613572565b61261e565b6040516106c19190613be1565b60405180910390f35b3480156106d657600080fd5b506106f160048036038101906106ec91906135b2565b612696565b005b3480156106ff57600080fd5b5061071a60048036038101906107159190613572565b6126b0565b6040516107279190613be1565b60405180910390f35b34801561073c57600080fd5b50610745612739565b005b34801561075357600080fd5b5061075c61287a565b6040516107699190613c4f565b60405180910390f35b34801561077e57600080fd5b5061078761290c565b6040516107949190613be1565b60405180910390f35b3480156107a957600080fd5b506107c460048036038101906107bf91906135fb565b612964565b6040516107d19190613b0d565b60405180910390f35b3480156107e657600080fd5b5061080160048036038101906107fc9190613688565b612a05565b005b34801561080f57600080fd5b50610818612b3e565b6040516108259190613af2565b60405180910390f35b34801561083a57600080fd5b50610843612b64565b6040516108509190613be1565b60405180910390f35b34801561086557600080fd5b5061086e612b7b565b60405161087b9190613af2565b60405180910390f35b34801561089057600080fd5b50610899612b83565b6040516108a69190613bbf565b60405180910390f35b3480156108bb57600080fd5b506108c4612bdb565b6040516108d19190613c4f565b60405180910390f35b3480156108e657600080fd5b5061090160048036038101906108fc91906135fb565b612c69565b6040516109149796959493929190613d6f565b60405180910390f35b34801561092957600080fd5b50610932613000565b60405161093f9190613b9d565b60405180910390f35b34801561095457600080fd5b5061095d6130d9565b60405161096a9190613be1565b60405180910390f35b61098d600480360381019061098891906135fb565b613131565b005b34801561099b57600080fd5b506109b660048036038101906109b191906135fb565b6131f6565b6040516109c39190613be1565b60405180910390f35b3480156109d857600080fd5b506109e1613223565b6040516109ee9190613be1565b60405180910390f35b348015610a0357600080fd5b50610a1e6004803603810190610a1991906135fb565b61327b565b604051610a2b9190613be1565b60405180910390f35b348015610a4057600080fd5b50610a49613302565b604051610a569190613af2565b60405180910390f35b600260009054906101000a900473ffffffffffffffffffffffffffffffffffffffff1681565b6000600360149054906101000a900460ff1615610aa157600080fd5b610aab338361218e565b9050919050565b6060601f6000838152602001908152602001600020805480602002602001604051908101604052809291908181526020016000905b82821015610b93578382906000526020600020018054610b06906140e9565b80601f0160208091040260200160405190810160405280929190818152602001828054610b32906140e9565b8015610b7f5780601f10610b5457610100808354040283529160200191610b7f565b820191906000526020600020905b815481529060010190602001808311610b6257829003601f168201915b505050505081526020019060010190610ae7565b505050509050919050565b600160009054906101000a900473ffffffffffffffffffffffffffffffffffffffff1681565b600060086000838152602001908152602001600020600a0160009054906101000a900473ffffffffffffffffffffffffffffffffffffffff169050919050565b823360006017600084815260200190815260200160002060008373ffffffffffffffffffffffffffffffffffffffff1673ffffffffffffffffffffffffffffffffffffffff16815260200190815260200160002054905060008114610c9e576040517f08c379a0000000000000000000000000000000000000000000000000000000008152600401610c9590613cbd565b60405180910390fd5b853360006010600084815260200190815260200160002060008373ffffffffffffffffffffffffffffffffffffffff1673ffffffffffffffffffffffffffffffffffffffff16815260200190815260200160002054905060008114610d38576040517f08c379a0000000000000000000000000000000000000000000000000000000008152600401610d2f90613cfd565b60405180910390fd5b6000601860008b8152602001908152602001600020541415610ee8576001601860008b815260200190815260200160002081905550601960008a815260200190815260200160002060009080600181540180825580915050600190039060005260206000200160009091909190916101000a81548173ffffffffffffffffffffffffffffffffffffffff021916908373ffffffffffffffffffffffffffffffffffffffff160217905550601a60008a815260200190815260200160002080600181540180825580915050600190039060005260206000200160006040518060200160405280600081525090919091509080519060200190610e3a92919061332c565b50601b60008a8152602001908152602001600020600090806001815401808255809150506001900390600052602060002090602091828204019190069091909190916101000a81548160ff021916908315150217905550601c60008a8152602001908152602001600020600090806001815401808255809150506001900390600052602060002090602091828204019190069091909190916101000a81548160ff0219169083151502179055505b601860008a815260200190815260200160002054601760008b815260200190815260200160002060003373ffffffffffffffffffffffffffffffffffffffff1673ffffffffffffffffffffffffffffffffffffffff16815260200190815260200160002081905550601960008a8152602001908152602001600020339080600181540180825580915050600190039060005260206000200160009091909190916101000a81548173ffffffffffffffffffffffffffffffffffffffff021916908373ffffffffffffffffffffffffffffffffffffffff160217905550601a60008a81526020019081526020016000208888909180600181540180825580915050600190039060005260206000200160009091929091929091929091925091906110129291906133b2565b50601b60008a8152602001908152602001600020600190806001815401808255809150506001900390600052602060002090602091828204019190069091909190916101000a81548160ff021916908315150217905550601c60008a8152602001908152602001600020600090806001815401808255809150506001900390600052602060002090602091828204019190069091909190916101000a81548160ff0219169083151502179055506001601860008b8152602001908152602001600020546110df9190613fe4565b601860008b8152602001908152602001600020819055507fc73d895047e43bcf8caa9f1cce950d0f1a21fc9a00a8d693db86cd0c93dc91aa8933600b60008d81526020019081526020016000205460405161113c93929190613d38565b60405180910390a1505050505050505050565b600160009054906101000a900473ffffffffffffffffffffffffffffffffffffffff1673ffffffffffffffffffffffffffffffffffffffff163373ffffffffffffffffffffffffffffffffffffffff16146111a957600080fd5b600073ffffffffffffffffffffffffffffffffffffffff168173ffffffffffffffffffffffffffffffffffffffff1614156111e357600080fd5b80600160006101000a81548173ffffffffffffffffffffffffffffffffffffffff021916908373ffffffffffffffffffffffffffffffffffffffff16021790555050565b600160009054906101000a900473ffffffffffffffffffffffffffffffffffffffff1673ffffffffffffffffffffffffffffffffffffffff163373ffffffffffffffffffffffffffffffffffffffff161461128157600080fd5b600073ffffffffffffffffffffffffffffffffffffffff168173ffffffffffffffffffffffffffffffffffffffff1614156112bb57600080fd5b80600360006101000a81548173ffffffffffffffffffffffffffffffffffffffff021916908373ffffffffffffffffffffffffffffffffffffffff1602179055507fa308298a77084def994b565be25bff2e8fbfe7006c2c6b2bacfb84d1ba1f635060405160405180910390a150565b6000600360149054906101000a900460ff161561134757600080fd5b611351338361261e565b9050919050565b6000600160009054906101000a900473ffffffffffffffffffffffffffffffffffffffff1673ffffffffffffffffffffffffffffffffffffffff163373ffffffffffffffffffffffffffffffffffffffff16146113b457600080fd5b600360149054906101000a900460ff166113cd57600080fd5b6000600360146101000a81548160ff021916908315150217905550600360149054906101000a900460ff16905090565b80611408338261218e565b61141157600080fd5b813360006010600084815260200190815260200160002060003373ffffffffffffffffffffffffffffffffffffffff1673ffffffffffffffffffffffffffffffffffffffff1681526020019081526020016000205490506000151560146000858152602001908152602001600020828154811061149157611490614222565b5b90600052602060002090602091828204019190069054906101000a900460ff16151514156114f4576040517f08c379a00000000000000000000000000000000000000000000000000000000081526004016114eb90613cdd565b60405180910390fd5b600360149054906101000a900460ff161561150e57600080fd5b6000601e6000878152602001908152602001600020541415611668576001601e6000878152602001908152602001600020819055506020600086815260200190815260200160002060009080600181540180825580915050600190039060005260206000200160009091909190916101000a81548173ffffffffffffffffffffffffffffffffffffffff021916908373ffffffffffffffffffffffffffffffffffffffff160217905550601f60008681526020019081526020016000208060018154018082558091505060019003906000526020600020016000604051806020016040528060008152509091909150908051906020019061161092919061332c565b5060216000868152602001908152602001600020600090806001815401808255809150506001900390600052602060002090602091828204019190069091909190916101000a81548160ff0219169083151502179055505b60006010600087815260200190815260200160002060003373ffffffffffffffffffffffffffffffffffffffff1673ffffffffffffffffffffffffffffffffffffffff16815260200190815260200160002054905060006013600088815260200190815260200160002082815481106116e4576116e3614222565b5b9060005260206000200180546116f9906140e9565b80601f0160208091040260200160405190810160405280929190818152602001828054611725906140e9565b80156117725780601f1061174757610100808354040283529160200191611772565b820191906000526020600020905b81548152906001019060200180831161175557829003601f168201915b5050505050905060206000888152602001908152602001600020339080600181540180825580915050600190039060005260206000200160009091909190916101000a81548173ffffffffffffffffffffffffffffffffffffffff021916908373ffffffffffffffffffffffffffffffffffffffff160217905550601f60008881526020019081526020016000208190806001815401808255809150506001900390600052602060002001600090919091909150908051906020019061183992919061332c565b5060216000888152602001908152602001600020600090806001815401808255809150506001900390600052602060002090602091828204019190069091909190916101000a81548160ff021916908315150217905550600160086000898152602001908152602001600020600601546118b39190613fe4565b60086000898152602001908152602001600020600601819055506001601e6000898152602001908152602001600020546118ed9190613fe4565b601e6000898152602001908152602001600020819055503373ffffffffffffffffffffffffffffffffffffffff167f0695e999be8100bdb5bee8612337296508d527eae78c65b8f170eacb5a3b439d8860405161194a9190613d1d565b60405180910390a250505050505050565b606080606060206000858152602001908152602001600020601f60008681526020019081526020016000206021600087815260200190815260200160002082805480602002602001604051908101604052809291908181526020018280548015611a1a57602002820191906000526020600020905b8160009054906101000a900473ffffffffffffffffffffffffffffffffffffffff1673ffffffffffffffffffffffffffffffffffffffff16815260200190600101908083116119d0575b5050505050925081805480602002602001604051908101604052809291908181526020016000905b82821015611aee578382906000526020600020018054611a61906140e9565b80601f0160208091040260200160405190810160405280929190818152602001828054611a8d906140e9565b8015611ada5780601f10611aaf57610100808354040283529160200191611ada565b820191906000526020600020905b815481529060010190602001808311611abd57829003601f168201915b505050505081526020019060010190611a42565b50505050915080805480602002602001604051908101604052809291908181526020018280548015611b6457602002820191906000526020600020906000905b82829054906101000a900460ff16151581526020019060010190602082600001049283019260010382029150808411611b2e5790505b505050505090509250925092509193909250565b606060136000838152602001908152602001600020805480602002602001604051908101604052809291908181526020016000905b82821015611c59578382906000526020600020018054611bcc906140e9565b80601f0160208091040260200160405190810160405280929190818152602001828054611bf8906140e9565b8015611c455780601f10611c1a57610100808354040283529160200191611c45565b820191906000526020600020905b815481529060010190602001808311611c2857829003601f168201915b505050505081526020019060010190611bad565b505050509050919050565b60008060008060008060086000888152602001908152602001600020604051806101c001604052908160008201548152602001600182018054611ca6906140e9565b80601f0160208091040260200160405190810160405280929190818152602001828054611cd2906140e9565b8015611d1f5780601f10611cf457610100808354040283529160200191611d1f565b820191906000526020600020905b815481529060010190602001808311611d0257829003601f168201915b505050505081526020016002820160009054906101000a900460ff166003811115611d4d57611d4c6141c4565b5b6003811115611d5f57611d5e6141c4565b5b815260200160038201548152602001600482015481526020016005820154815260200160068201548152602001600782018054611d9b906140e9565b80601f0160208091040260200160405190810160405280929190818152602001828054611dc7906140e9565b8015611e145780601f10611de957610100808354040283529160200191611e14565b820191906000526020600020905b815481529060010190602001808311611df757829003601f168201915b50505050508152602001600882018054611e2d906140e9565b80601f0160208091040260200160405190810160405280929190818152602001828054611e59906140e9565b8015611ea65780601f10611e7b57610100808354040283529160200191611ea6565b820191906000526020600020905b815481529060010190602001808311611e8957829003601f168201915b50505050508152602001600982018054611ebf906140e9565b80601f0160208091040260200160405190810160405280929190818152602001828054611eeb906140e9565b8015611f385780601f10611f0d57610100808354040283529160200191611f38565b820191906000526020600020905b815481529060010190602001808311611f1b57829003601f168201915b50505050508152602001600a820160009054906101000a900473ffffffffffffffffffffffffffffffffffffffff1673ffffffffffffffffffffffffffffffffffffffff1673ffffffffffffffffffffffffffffffffffffffff168152602001600b8201548152602001600c8201548152602001600d82015481525050905080604001518160c00151826101600151836101800151846101a00151955095509550955095505091939590929450565b600160009054906101000a900473ffffffffffffffffffffffffffffffffffffffff1673ffffffffffffffffffffffffffffffffffffffff163373ffffffffffffffffffffffffffffffffffffffff161461204157600080fd5b600073ffffffffffffffffffffffffffffffffffffffff168173ffffffffffffffffffffffffffffffffffffffff16141561207b57600080fd5b80600260006101000a81548173ffffffffffffffffffffffffffffffffffffffff021916908373ffffffffffffffffffffffffffffffffffffffff1602179055507f162e32528b5907ecf876b3b7a4e5e0edf878642e3ec25852e3c35af1a4e1c04060405160405180910390a150565b60606014600083815260200190815260200160002080548060200260200160405190810160405280929190818152602001828054801561216f57602002820191906000526020600020906000905b82829054906101000a900460ff161515815260200190600101906020826000010492830192600103820291508084116121395790505b50505050509050919050565b600360149054906101000a900460ff1681565b6000600360149054906101000a900460ff16156121aa57600080fd5b60011515600f600084815260200190815260200160002060008573ffffffffffffffffffffffffffffffffffffffff1673ffffffffffffffffffffffffffffffffffffffff16815260200190815260200160002060009054906101000a900460ff16151514905092915050565b606080606060086000858152602001908152602001600020600701600860008681526020019081526020016000206008016008600087815260200190815260200160002060090182805461226a906140e9565b80601f0160208091040260200160405190810160405280929190818152602001828054612296906140e9565b80156122e35780601f106122b8576101008083540402835291602001916122e3565b820191906000526020600020905b8154815290600101906020018083116122c657829003601f168201915b505050505092508180546122f6906140e9565b80601f0160208091040260200160405190810160405280929190818152602001828054612322906140e9565b801561236f5780601f106123445761010080835404028352916020019161236f565b820191906000526020600020905b81548152906001019060200180831161235257829003601f168201915b50505050509150808054612382906140e9565b80601f01602080910402602001604051908101604052809291908181526020018280546123ae906140e9565b80156123fb5780601f106123d0576101008083540402835291602001916123fb565b820191906000526020600020905b8154815290600101906020018083116123de57829003601f168201915b505050505090509250925092509193909250565b8061241a338261261e565b61242357600080fd5b8133600115156015600084815260200190815260200160002060003373ffffffffffffffffffffffffffffffffffffffff1673ffffffffffffffffffffffffffffffffffffffff16815260200190815260200160002060009054906101000a900460ff161515141561249457600080fd5b600360149054906101000a900460ff16156124ae57600080fd5b60016015600086815260200190815260200160002060003373ffffffffffffffffffffffffffffffffffffffff1673ffffffffffffffffffffffffffffffffffffffff16815260200190815260200160002060006101000a81548160ff02191690831515021790555060086000858152602001908152602001600020600d01600081548092919061253e9061414c565b91905055503373ffffffffffffffffffffffffffffffffffffffff166108fc60086000878152602001908152602001600020600c01549081150290604051600060405180830381858888f1935050505015801561259f573d6000803e3d6000fd5b503373ffffffffffffffffffffffffffffffffffffffff167f1a31e733a172afcf46074b3106c17f0c298e226442682a03c1e99ce256139ec2856040516125e69190613d1d565b60405180910390a250505050565b6000600260009054906101000a900473ffffffffffffffffffffffffffffffffffffffff16905090565b6000600360149054906101000a900460ff161561263a57600080fd5b6000601d600084815260200190815260200160002060008573ffffffffffffffffffffffffffffffffffffffff1673ffffffffffffffffffffffffffffffffffffffff1681526020019081526020016000205411905092915050565b80600090805190602001906126ac92919061332c565b5050565b6000600360149054906101000a900460ff16156126cc57600080fd5b60086000838152602001908152602001600020600a0160009054906101000a900473ffffffffffffffffffffffffffffffffffffffff1673ffffffffffffffffffffffffffffffffffffffff168373ffffffffffffffffffffffffffffffffffffffff1614905092915050565b600360009054906101000a900473ffffffffffffffffffffffffffffffffffffffff1673ffffffffffffffffffffffffffffffffffffffff163373ffffffffffffffffffffffffffffffffffffffff1614806127e25750600160009054906101000a900473ffffffffffffffffffffffffffffffffffffffff1673ffffffffffffffffffffffffffffffffffffffff163373ffffffffffffffffffffffffffffffffffffffff16145b8061283a5750600260009054906101000a900473ffffffffffffffffffffffffffffffffffffffff1673ffffffffffffffffffffffffffffffffffffffff163373ffffffffffffffffffffffffffffffffffffffff16145b61284357600080fd5b600360149054906101000a900460ff161561285d57600080fd5b6001600360146101000a81548160ff021916908315150217905550565b606060008054612889906140e9565b80601f01602080910402602001604051908101604052809291908181526020018280546128b5906140e9565b80156129025780601f106128d757610100808354040283529160200191612902565b820191906000526020600020905b8154815290600101906020018083116128e557829003601f168201915b5050505050905090565b6000600260009054906101000a900473ffffffffffffffffffffffffffffffffffffffff1673ffffffffffffffffffffffffffffffffffffffff163373ffffffffffffffffffffffffffffffffffffffff1614905090565b6060601260008381526020019081526020016000208054806020026020016040519081016040528092919081815260200182805480156129f957602002820191906000526020600020905b8160009054906101000a900473ffffffffffffffffffffffffffffffffffffffff1673ffffffffffffffffffffffffffffffffffffffff16815260200190600101908083116129af575b50505050509050919050565b83612a1033826126b0565b612a1957600080fd5b600084511115612a4f5783600860008781526020019081526020016000206007019080519060200190612a4d92919061332c565b505b600083511115612a855782600860008781526020019081526020016000206008019080519060200190612a8392919061332c565b505b600082511115612abb5781600860008781526020019081526020016000206009019080519060200190612ab992919061332c565b505b7fcd9ad49d834aeea746bafd2d26eebd3d01ebac2d8f5d3f53d7f3884292e5835f856008600088815260200190815260200160002060070160086000898152602001908152602001600020600801600860008a8152602001908152602001600020600901604051612b2f9493929190613de5565b60405180910390a15050505050565b600360009054906101000a900473ffffffffffffffffffffffffffffffffffffffff1681565b6000600360149054906101000a900460ff16905090565b600033905090565b60606006805480602002602001604051908101604052809291908181526020018280548015612bd157602002820191906000526020600020905b815481526020019060010190808311612bbd575b5050505050905090565b60008054612be8906140e9565b80601f0160208091040260200160405190810160405280929190818152602001828054612c14906140e9565b8015612c615780601f10612c3657610100808354040283529160200191612c61565b820191906000526020600020905b815481529060010190602001808311612c4457829003601f168201915b505050505081565b60006060600080600080600080600860008a8152602001908152602001600020604051806101c001604052908160008201548152602001600182018054612caf906140e9565b80601f0160208091040260200160405190810160405280929190818152602001828054612cdb906140e9565b8015612d285780601f10612cfd57610100808354040283529160200191612d28565b820191906000526020600020905b815481529060010190602001808311612d0b57829003601f168201915b505050505081526020016002820160009054906101000a900460ff166003811115612d5657612d556141c4565b5b6003811115612d6857612d676141c4565b5b815260200160038201548152602001600482015481526020016005820154815260200160068201548152602001600782018054612da4906140e9565b80601f0160208091040260200160405190810160405280929190818152602001828054612dd0906140e9565b8015612e1d5780601f10612df257610100808354040283529160200191612e1d565b820191906000526020600020905b815481529060010190602001808311612e0057829003601f168201915b50505050508152602001600882018054612e36906140e9565b80601f0160208091040260200160405190810160405280929190818152602001828054612e62906140e9565b8015612eaf5780601f10612e8457610100808354040283529160200191612eaf565b820191906000526020600020905b815481529060010190602001808311612e9257829003601f168201915b50505050508152602001600982018054612ec8906140e9565b80601f0160208091040260200160405190810160405280929190818152602001828054612ef4906140e9565b8015612f415780601f10612f1657610100808354040283529160200191612f41565b820191906000526020600020905b815481529060010190602001808311612f2457829003601f168201915b50505050508152602001600a820160009054906101000a900473ffffffffffffffffffffffffffffffffffffffff1673ffffffffffffffffffffffffffffffffffffffff1673ffffffffffffffffffffffffffffffffffffffff168152602001600b8201548152602001600c8201548152602001600d8201548152505090508060000151816020015182604001518360c00151846101600151856101800151866101a00151975097509750975097509750975050919395979092949650565b60606007805480602002602001604051908101604052809291908181526020016000905b828210156130d0578382906000526020600020018054613043906140e9565b80601f016020809104026020016040519081016040528092919081815260200182805461306f906140e9565b80156130bc5780601f10613091576101008083540402835291602001916130bc565b820191906000526020600020905b81548152906001019060200180831161309f57829003601f168201915b505050505081526020019060010190613024565b50505050905090565b6000600160009054906101000a900473ffffffffffffffffffffffffffffffffffffffff1673ffffffffffffffffffffffffffffffffffffffff163373ffffffffffffffffffffffffffffffffffffffff1614905090565b8061313c33826126b0565b61314557600080fd5b600360149054906101000a900460ff161561315f57600080fd5b3460086000848152602001908152602001600020600b0160008282546131859190613fe4565b925050819055503373ffffffffffffffffffffffffffffffffffffffff167f5dc1fe5ab986a852c4eda8e8bb94247d13307065c593fb83f1a09be2736793828360086000868152602001908152602001600020600b01546040516131ea929190613e3f565b60405180910390a25050565b6000600360149054906101000a900460ff161561321257600080fd5b61321c33836126b0565b9050919050565b6000600360009054906101000a900473ffffffffffffffffffffffffffffffffffffffff1673ffffffffffffffffffffffffffffffffffffffff163373ffffffffffffffffffffffffffffffffffffffff1614905090565b6000613287338361261e565b61329457600090506132fd565b600115156015600084815260200190815260200160002060003373ffffffffffffffffffffffffffffffffffffffff1673ffffffffffffffffffffffffffffffffffffffff16815260200190815260200160002060009054906101000a900460ff161515141590505b919050565b6000600360009054906101000a900473ffffffffffffffffffffffffffffffffffffffff16905090565b828054613338906140e9565b90600052602060002090601f01602090048101928261335a57600085556133a1565b82601f1061337357805160ff19168380011785556133a1565b828001600101855582156133a1579182015b828111156133a0578251825591602001919060010190613385565b5b5090506133ae9190613438565b5090565b8280546133be906140e9565b90600052602060002090601f0160209004810192826133e05760008555613427565b82601f106133f957803560ff1916838001178555613427565b82800160010185558215613427579182015b8281111561342657823582559160200191906001019061340b565b5b5090506134349190613438565b5090565b5b80821115613451576000816000905550600101613439565b5090565b600061346861346384613e8d565b613e68565b9050828152602081018484840111156134845761348361428f565b5b61348f8482856140a7565b509392505050565b6000813590506134a6816143d6565b92915050565b60008083601f8401126134c2576134c1614285565b5b8235905067ffffffffffffffff8111156134df576134de614280565b5b6020830191508360018202830111156134fb576134fa61428a565b5b9250929050565b600082601f83011261351757613516614285565b5b8135613527848260208601613455565b91505092915050565b60008135905061353f816143ed565b92915050565b60006020828403121561355b5761355a614299565b5b600061356984828501613497565b91505092915050565b6000806040838503121561358957613588614299565b5b600061359785828601613497565b92505060206135a885828601613530565b9150509250929050565b6000602082840312156135c8576135c7614299565b5b600082013567ffffffffffffffff8111156135e6576135e5614294565b5b6135f284828501613502565b91505092915050565b60006020828403121561361157613610614299565b5b600061361f84828501613530565b91505092915050565b60008060006040848603121561364157613640614299565b5b600061364f86828701613530565b935050602084013567ffffffffffffffff8111156136705761366f614294565b5b61367c868287016134ac565b92509250509250925092565b600080600080608085870312156136a2576136a1614299565b5b60006136b087828801613530565b945050602085013567ffffffffffffffff8111156136d1576136d0614294565b5b6136dd87828801613502565b935050604085013567ffffffffffffffff8111156136fe576136fd614294565b5b61370a87828801613502565b925050606085013567ffffffffffffffff81111561372b5761372a614294565b5b61373787828801613502565b91505092959194509250565b600061374f838361379f565b60208301905092915050565b6000613767838361394c565b60208301905092915050565b600061377f8383613979565b905092915050565b60006137938383613ad4565b60208301905092915050565b6137a88161403a565b82525050565b6137b78161403a565b82525050565b60006137c882613f13565b6137d28185613f7e565b93506137dd83613ebe565b8060005b8381101561380e5781516137f58882613743565b975061380083613f4a565b9250506001810190506137e1565b5085935050505092915050565b600061382682613f1e565b6138308185613f8f565b935061383b83613ece565b8060005b8381101561386c578151613853888261375b565b975061385e83613f57565b92505060018101905061383f565b5085935050505092915050565b600061388482613f29565b61388e8185613fa0565b9350836020820285016138a085613ede565b8060005b858110156138dc57848403895281516138bd8582613773565b94506138c883613f64565b925060208a019950506001810190506138a4565b50829750879550505050505092915050565b60006138f982613f34565b6139038185613fb1565b935061390e83613eee565b8060005b8381101561393f5781516139268882613787565b975061393183613f71565b925050600181019050613912565b5085935050505092915050565b6139558161404c565b82525050565b6139648161404c565b82525050565b61397381614095565b82525050565b600061398482613f3f565b61398e8185613fc2565b935061399e8185602086016140b6565b6139a78161429e565b840191505092915050565b60006139bd82613f3f565b6139c78185613fd3565b93506139d78185602086016140b6565b6139e08161429e565b840191505092915050565b600081546139f8816140e9565b613a028186613fd3565b94506001821660008114613a1d5760018114613a2f57613a62565b60ff1983168652602086019350613a62565b613a3885613efe565b60005b83811015613a5a57815481890152600182019150602081019050613a3b565b808801955050505b50505092915050565b6000613a78603d83613fd3565b9150613a83826142af565b604082019050919050565b6000613a9b604383613fd3565b9150613aa6826142fe565b606082019050919050565b6000613abe603f83613fd3565b9150613ac982614373565b604082019050919050565b613add8161408b565b82525050565b613aec8161408b565b82525050565b6000602082019050613b0760008301846137ae565b92915050565b60006020820190508181036000830152613b2781846137bd565b905092915050565b60006060820190508181036000830152613b4981866137bd565b90508181036020830152613b5d8185613879565b90508181036040830152613b71818461381b565b9050949350505050565b60006020820190508181036000830152613b95818461381b565b905092915050565b60006020820190508181036000830152613bb78184613879565b905092915050565b60006020820190508181036000830152613bd981846138ee565b905092915050565b6000602082019050613bf6600083018461395b565b92915050565b600060a082019050613c11600083018861396a565b613c1e6020830187613ae3565b613c2b6040830186613ae3565b613c386060830185613ae3565b613c456080830184613ae3565b9695505050505050565b60006020820190508181036000830152613c6981846139b2565b905092915050565b60006060820190508181036000830152613c8b81866139b2565b90508181036020830152613c9f81856139b2565b90508181036040830152613cb381846139b2565b9050949350505050565b60006020820190508181036000830152613cd681613a6b565b9050919050565b60006020820190508181036000830152613cf681613a8e565b9050919050565b60006020820190508181036000830152613d1681613ab1565b9050919050565b6000602082019050613d326000830184613ae3565b92915050565b6000606082019050613d4d6000830186613ae3565b613d5a60208301856137ae565b613d676040830184613ae3565b949350505050565b600060e082019050613d84600083018a613ae3565b8181036020830152613d9681896139b2565b9050613da5604083018861396a565b613db26060830187613ae3565b613dbf6080830186613ae3565b613dcc60a0830185613ae3565b613dd960c0830184613ae3565b98975050505050505050565b6000608082019050613dfa6000830187613ae3565b8181036020830152613e0c81866139eb565b90508181036040830152613e2081856139eb565b90508181036060830152613e3481846139eb565b905095945050505050565b6000604082019050613e546000830185613ae3565b613e616020830184613ae3565b9392505050565b6000613e72613e83565b9050613e7e828261411b565b919050565b6000604051905090565b600067ffffffffffffffff821115613ea857613ea7614251565b5b613eb18261429e565b9050602081019050919050565b6000819050602082019050919050565b6000819050602082019050919050565b6000819050602082019050919050565b6000819050602082019050919050565b60008190508160005260206000209050919050565b600081519050919050565b600081519050919050565b600081519050919050565b600081519050919050565b600081519050919050565b6000602082019050919050565b6000602082019050919050565b6000602082019050919050565b6000602082019050919050565b600082825260208201905092915050565b600082825260208201905092915050565b600082825260208201905092915050565b600082825260208201905092915050565b600082825260208201905092915050565b600082825260208201905092915050565b6000613fef8261408b565b9150613ffa8361408b565b9250827fffffffffffffffffffffffffffffffffffffffffffffffffffffffffffffffff0382111561402f5761402e614195565b5b828201905092915050565b60006140458261406b565b9050919050565b60008115159050919050565b6000819050614066826143c2565b919050565b600073ffffffffffffffffffffffffffffffffffffffff82169050919050565b6000819050919050565b60006140a082614058565b9050919050565b82818337600083830152505050565b60005b838110156140d45780820151818401526020810190506140b9565b838111156140e3576000848401525b50505050565b6000600282049050600182168061410157607f821691505b60208210811415614115576141146141f3565b5b50919050565b6141248261429e565b810181811067ffffffffffffffff8211171561414357614142614251565b5b80604052505050565b60006141578261408b565b91507fffffffffffffffffffffffffffffffffffffffffffffffffffffffffffffffff82141561418a57614189614195565b5b600182019050919050565b7f4e487b7100000000000000000000000000000000000000000000000000000000600052601160045260246000fd5b7f4e487b7100000000000000000000000000000000000000000000000000000000600052602160045260246000fd5b7f4e487b7100000000000000000000000000000000000000000000000000000000600052602260045260246000fd5b7f4e487b7100000000000000000000000000000000000000000000000000000000600052603260045260246000fd5b7f4e487b7100000000000000000000000000000000000000000000000000000000600052604160045260246000fd5b600080fd5b600080fd5b600080fd5b600080fd5b600080fd5b600080fd5b6000601f19601f8301169050919050565b7f4572726f723a207468697320616464726573732068617320616c72656164792060008201527f72657175657374656420746f206a6f696e20746869732067726f75702e000000602082015250565b7f4572726f723a20726563697069656e74277320656c696769626c696c6974792060008201527f686173206265656e2064697361626c656420666f7220746869732067726f757060208201527f2e2e2e0000000000000000000000000000000000000000000000000000000000604082015250565b7f4572726f723a20726563697069656e7420697320616c726561647920616e206560008201527f6c696769626c6520726563697069656e7420696e207468652067726f75702e00602082015250565b600481106143d3576143d26141c4565b5b50565b6143df8161403a565b81146143ea57600080fd5b50565b6143f68161408b565b811461440157600080fd5b5056fea26469706673582212203f33f2d7812307f3f429f5a7e38b0cdb1b140fcb9a6ac15f0e4c95b88a40660964736f6c63430008070033",
  "immutableReferences": {},
  "source": "// SPDX-License-Identifier: MIT\npragma solidity ^0.8.0;\n\nimport \"./RecipientsManager.sol\";\n\ncontract ContributorManager is RecipientsManager {\n    event ContributorAdded(address indexed account, uint256 groupId);\n    event ContributorRemoved(address indexed account, uint256 groupId);\n\n    event ContributorAddressUpdated(uint256 groupId, address newContributor);\n    event ContributorInfoUpdated(\n        uint256 groupId,\n        string sponsorName,\n        string imgUrl,\n        string imgLinkToUrl\n    );\n\n    event ContributionMade(\n        address indexed account,\n        uint256 groupId,\n        uint256 amount\n    );\n\n    constructor() {}\n\n    modifier onlyContributor(uint256 groupId) {\n        require(isContributor(msg.sender, groupId));\n        _;\n    }\n\n    function isContributor(address account, uint256 groupId)\n        public\n        view\n        whenNotPaused\n        returns (bool)\n    {\n        return account == currentEvents[groupId].currentContributor;\n    }\n\n    function amIContributor(uint256 groupId)\n        external\n        view\n        whenNotPaused\n        returns (bool)\n    {\n        return isContributor(msg.sender, groupId);\n    }\n\n    function getCurrentSponsorAddress(uint256 groupId)\n        external\n        view\n        returns (address)\n    {\n        return currentEvents[groupId].currentContributor;\n    }\n\n    function _changeContributor(address account, uint256 groupId) internal {\n        contributors[groupId][account] = true;\n\n        currentEvents[groupId].currentContributor = account;\n        emit ContributorAdded(account, groupId);\n    }\n\n    function updateContributorInfo(\n        uint256 groupId,\n        string memory newContributorName,\n        string memory newContributorImgUrl,\n        string memory newContributorLinkToUrl\n    ) external onlyContributor(groupId) {\n        if (bytes(newContributorName).length > 0) {\n            currentEvents[groupId].sponsorName = newContributorName;\n        }\n        if (bytes(newContributorImgUrl).length > 0) {\n            currentEvents[groupId].sponsorImageUrl = newContributorImgUrl;\n        }\n        if (bytes(newContributorLinkToUrl).length > 0) {\n            currentEvents[groupId].sponsorLinkToUrl = newContributorLinkToUrl;\n        }\n\n        emit ContributorInfoUpdated(\n            groupId,\n            currentEvents[groupId].sponsorName,\n            currentEvents[groupId].sponsorImageUrl,\n            currentEvents[groupId].sponsorLinkToUrl\n        );\n    }\n\n    function getContributorInfo(uint256 groupId)\n        external\n        view\n        returns (\n            string memory newContributorName,\n            string memory newContributorImgUrl,\n            string memory newContributorLinkToUrl\n        )\n    {\n        return (\n            currentEvents[groupId].sponsorName,\n            currentEvents[groupId].sponsorImageUrl,\n            currentEvents[groupId].sponsorLinkToUrl\n        );\n    }\n\n    function contributeToPot(uint256 groupId)\n        external\n        payable\n        onlyContributor(groupId)\n        whenNotPaused\n    {\n        currentEvents[groupId].totalAmountContributed += msg.value;\n        emit ContributionMade(\n            msg.sender,\n            groupId,\n            currentEvents[groupId].totalAmountContributed\n        );\n    }\n}\n",
  "sourcePath": "/Users/jim/trash/EthDrop/contracts/roles/ContributorManager.sol",
  "compiler": {
    "name": "solc",
    "version": "0.8.7+commit.e28d00a7.Emscripten.clang"
  },
  "schemaVersion": "3.4.3",
  "updatedAt": "2021-09-12T18:48:56.032Z",
  "devdoc": {
    "kind": "dev",
    "methods": {
      "pause()": {
        "details": "Called by any \"C-level\" role to pause the contract. Used only when  a bug or exploit is detected and we need to limit damage."
      },
      "setCEO(address)": {
        "details": "Assigns a new address to act as the CEO. Only available to the current CEO.",
        "params": {
          "_newCEO": "The address of the new CEO"
        }
      },
      "setCFO(address)": {
        "details": "Assigns a new address to act as the CFO. Only available to the current CEO.",
        "params": {
          "_newCFO": "The address of the new CFO"
        }
      },
      "setCOO(address)": {
        "details": "Assigns a new address to act as the COO. Only available to the current CEO.",
        "params": {
          "_newCOO": "The address of the new COO"
        }
      },
      "unpause()": {
        "details": "Unpauses the smart contract. Can only be called by the CEO, since  one reason we may pause the contract is when CFO or COO accounts are  compromised."
      }
    },
    "version": 1
  },
  "userdoc": {
    "kind": "user",
    "methods": {
      "unpause()": {
        "notice": "This is public rather than external so it can be called by  derived contracts."
      }
    },
    "version": 1
  }
}