{
  "contractName": "ContributorManager",
  "abi": [
    {
      "inputs": [],
      "stateMutability": "nonpayable",
      "type": "constructor"
    },
    {
      "anonymous": false,
      "inputs": [
        {
          "indexed": false,
          "internalType": "bool",
          "name": "isPaused",
          "type": "bool"
        }
      ],
      "name": "AppPaused",
      "type": "event"
    },
    {
      "anonymous": false,
      "inputs": [],
      "name": "CfoUpdated",
      "type": "event"
    },
    {
      "anonymous": false,
      "inputs": [
        {
          "indexed": false,
          "internalType": "address",
          "name": "newContract",
          "type": "address"
        }
      ],
      "name": "ContractUpgrade",
      "type": "event"
    },
    {
      "anonymous": false,
      "inputs": [
        {
          "indexed": true,
          "internalType": "address",
          "name": "account",
          "type": "address"
        },
        {
          "indexed": false,
          "internalType": "uint256",
          "name": "groupId",
          "type": "uint256"
        },
        {
          "indexed": false,
          "internalType": "uint256",
          "name": "amount",
          "type": "uint256"
        }
      ],
      "name": "ContributionMade",
      "type": "event"
    },
    {
      "anonymous": false,
      "inputs": [
        {
          "indexed": true,
          "internalType": "address",
          "name": "account",
          "type": "address"
        },
        {
          "indexed": false,
          "internalType": "uint256",
          "name": "groupId",
          "type": "uint256"
        }
      ],
      "name": "ContributorAdded",
      "type": "event"
    },
    {
      "anonymous": false,
      "inputs": [
        {
          "indexed": false,
          "internalType": "uint256",
          "name": "groupId",
          "type": "uint256"
        },
        {
          "indexed": false,
          "internalType": "address",
          "name": "newContributor",
          "type": "address"
        }
      ],
      "name": "ContributorAddressUpdated",
      "type": "event"
    },
    {
      "anonymous": false,
      "inputs": [
        {
          "indexed": false,
          "internalType": "uint256",
          "name": "groupId",
          "type": "uint256"
        },
        {
          "indexed": false,
          "internalType": "string",
          "name": "sponsorName",
          "type": "string"
        },
        {
          "indexed": false,
          "internalType": "string",
          "name": "imgUrl",
          "type": "string"
        },
        {
          "indexed": false,
          "internalType": "string",
          "name": "imgLinkToUrl",
          "type": "string"
        }
      ],
      "name": "ContributorInfoUpdated",
      "type": "event"
    },
    {
      "anonymous": false,
      "inputs": [
        {
          "indexed": true,
          "internalType": "address",
          "name": "account",
          "type": "address"
        },
        {
          "indexed": false,
          "internalType": "uint256",
          "name": "groupId",
          "type": "uint256"
        }
      ],
      "name": "ContributorRemoved",
      "type": "event"
    },
    {
      "anonymous": false,
      "inputs": [],
      "name": "CooUpdated",
      "type": "event"
    },
    {
      "anonymous": false,
      "inputs": [
        {
          "indexed": true,
          "internalType": "address",
          "name": "account",
          "type": "address"
        },
        {
          "indexed": false,
          "internalType": "uint256",
          "name": "groupId",
          "type": "uint256"
        }
      ],
      "name": "EligibleRecipientAdded",
      "type": "event"
    },
    {
      "anonymous": false,
      "inputs": [
        {
          "indexed": true,
          "internalType": "address",
          "name": "account",
          "type": "address"
        },
        {
          "indexed": false,
          "internalType": "uint256",
          "name": "groupId",
          "type": "uint256"
        }
      ],
      "name": "EligibleRecipientRemoved",
      "type": "event"
    },
    {
      "anonymous": false,
      "inputs": [],
      "name": "EventClose",
      "type": "event"
    },
    {
      "anonymous": false,
      "inputs": [
        {
          "indexed": true,
          "internalType": "address",
          "name": "account",
          "type": "address"
        },
        {
          "indexed": false,
          "internalType": "uint256",
          "name": "groupId",
          "type": "uint256"
        }
      ],
      "name": "RecipientRegistered",
      "type": "event"
    },
    {
      "anonymous": false,
      "inputs": [],
      "name": "RegistrationOpen",
      "type": "event"
    },
    {
      "anonymous": false,
      "inputs": [
        {
          "indexed": false,
          "internalType": "address",
          "name": "from",
          "type": "address"
        },
        {
          "indexed": false,
          "internalType": "address",
          "name": "to",
          "type": "address"
        }
      ],
      "name": "Transfer",
      "type": "event"
    },
    {
      "anonymous": false,
      "inputs": [
        {
          "indexed": true,
          "internalType": "address",
          "name": "account",
          "type": "address"
        },
        {
          "indexed": false,
          "internalType": "uint256",
          "name": "groupId",
          "type": "uint256"
        }
      ],
      "name": "WinningsClaimed",
      "type": "event"
    },
    {
      "anonymous": false,
      "inputs": [],
      "name": "WinningsClaimingOpen",
      "type": "event"
    },
    {
      "inputs": [
        {
          "internalType": "uint256",
          "name": "groupId",
          "type": "uint256"
        }
      ],
      "name": "amIEligibleRecipient",
      "outputs": [
        {
          "internalType": "bool",
          "name": "",
          "type": "bool"
        }
      ],
      "stateMutability": "view",
      "type": "function",
      "constant": true
    },
    {
      "inputs": [
        {
          "internalType": "uint256",
          "name": "groupId",
          "type": "uint256"
        }
      ],
      "name": "amIRegisteredRecipient",
      "outputs": [
        {
          "internalType": "bool",
          "name": "",
          "type": "bool"
        }
      ],
      "stateMutability": "view",
      "type": "function",
      "constant": true
    },
    {
      "inputs": [],
      "name": "ceoAddress",
      "outputs": [
        {
          "internalType": "address",
          "name": "",
          "type": "address"
        }
      ],
      "stateMutability": "view",
      "type": "function",
      "constant": true
    },
    {
      "inputs": [],
      "name": "cfoAddress",
      "outputs": [
        {
          "internalType": "address",
          "name": "",
          "type": "address"
        }
      ],
      "stateMutability": "view",
      "type": "function",
      "constant": true
    },
    {
      "inputs": [
        {
          "internalType": "uint256",
          "name": "groupId",
          "type": "uint256"
        }
      ],
      "name": "claimWinnings",
      "outputs": [],
      "stateMutability": "nonpayable",
      "type": "function"
    },
    {
      "inputs": [],
      "name": "cooAddress",
      "outputs": [
        {
          "internalType": "address",
          "name": "",
          "type": "address"
        }
      ],
      "stateMutability": "view",
      "type": "function",
      "constant": true
    },
    {
      "inputs": [
        {
          "internalType": "uint256",
          "name": "groupId",
          "type": "uint256"
        }
      ],
      "name": "doIHaveClaimableWinnings",
      "outputs": [
        {
          "internalType": "bool",
          "name": "",
          "type": "bool"
        }
      ],
      "stateMutability": "view",
      "type": "function",
      "constant": true
    },
    {
      "inputs": [],
      "name": "getCFO",
      "outputs": [
        {
          "internalType": "address",
          "name": "",
          "type": "address"
        }
      ],
      "stateMutability": "view",
      "type": "function",
      "constant": true
    },
    {
      "inputs": [],
      "name": "getCOO",
      "outputs": [
        {
          "internalType": "address",
          "name": "",
          "type": "address"
        }
      ],
      "stateMutability": "view",
      "type": "function",
      "constant": true
    },
    {
      "inputs": [
        {
          "internalType": "uint256",
          "name": "groupId",
          "type": "uint256"
        }
      ],
      "name": "getEligibleRecipientAddresses",
      "outputs": [
        {
          "internalType": "address[]",
          "name": "",
          "type": "address[]"
        }
      ],
      "stateMutability": "view",
      "type": "function",
      "constant": true
    },
    {
      "inputs": [
        {
          "internalType": "uint256",
          "name": "groupId",
          "type": "uint256"
        }
      ],
      "name": "getEligibleRecipientIsEligibilityEnabled",
      "outputs": [
        {
          "internalType": "bool[]",
          "name": "",
          "type": "bool[]"
        }
      ],
      "stateMutability": "view",
      "type": "function",
      "constant": true
    },
    {
      "inputs": [
        {
          "internalType": "uint256",
          "name": "groupId",
          "type": "uint256"
        }
      ],
      "name": "getEligibleRecipientNames",
      "outputs": [
        {
          "internalType": "string[]",
          "name": "",
          "type": "string[]"
        }
      ],
      "stateMutability": "view",
      "type": "function",
      "constant": true
    },
    {
      "inputs": [
        {
          "internalType": "uint256",
          "name": "groupId",
          "type": "uint256"
        }
      ],
      "name": "getGroupEventData",
      "outputs": [
        {
          "internalType": "enum EthDropBase.EventState",
          "name": "",
          "type": "uint8"
        },
        {
          "internalType": "uint256",
          "name": "",
          "type": "uint256"
        },
        {
          "internalType": "uint256",
          "name": "",
          "type": "uint256"
        },
        {
          "internalType": "uint256",
          "name": "",
          "type": "uint256"
        },
        {
          "internalType": "uint256",
          "name": "",
          "type": "uint256"
        }
      ],
      "stateMutability": "view",
      "type": "function",
      "constant": true
    },
    {
      "inputs": [],
      "name": "getGroupIds",
      "outputs": [
        {
          "internalType": "uint256[]",
          "name": "",
          "type": "uint256[]"
        }
      ],
      "stateMutability": "view",
      "type": "function",
      "constant": true
    },
    {
      "inputs": [],
      "name": "getGroupNames",
      "outputs": [
        {
          "internalType": "string[]",
          "name": "",
          "type": "string[]"
        }
      ],
      "stateMutability": "view",
      "type": "function",
      "constant": true
    },
    {
      "inputs": [
        {
          "internalType": "uint256",
          "name": "groupId",
          "type": "uint256"
        }
      ],
      "name": "getRegisteredRecipientNames",
      "outputs": [
        {
          "internalType": "string[]",
          "name": "",
          "type": "string[]"
        }
      ],
      "stateMutability": "view",
      "type": "function",
      "constant": true
    },
    {
      "inputs": [
        {
          "internalType": "uint256",
          "name": "groupId",
          "type": "uint256"
        }
      ],
      "name": "getRegisteredRecipients",
      "outputs": [
        {
          "internalType": "address[]",
          "name": "",
          "type": "address[]"
        }
      ],
      "stateMutability": "view",
      "type": "function",
      "constant": true
    },
    {
      "inputs": [],
      "name": "getString",
      "outputs": [
        {
          "internalType": "string",
          "name": "",
          "type": "string"
        }
      ],
      "stateMutability": "view",
      "type": "function",
      "constant": true
    },
    {
      "inputs": [],
      "name": "isCEO",
      "outputs": [
        {
          "internalType": "bool",
          "name": "",
          "type": "bool"
        }
      ],
      "stateMutability": "view",
      "type": "function",
      "constant": true
    },
    {
      "inputs": [],
      "name": "isCFO",
      "outputs": [
        {
          "internalType": "bool",
          "name": "",
          "type": "bool"
        }
      ],
      "stateMutability": "view",
      "type": "function",
      "constant": true
    },
    {
      "inputs": [],
      "name": "isCOO",
      "outputs": [
        {
          "internalType": "bool",
          "name": "",
          "type": "bool"
        }
      ],
      "stateMutability": "view",
      "type": "function",
      "constant": true
    },
    {
      "inputs": [
        {
          "internalType": "address",
          "name": "account",
          "type": "address"
        },
        {
          "internalType": "uint256",
          "name": "groupId",
          "type": "uint256"
        }
      ],
      "name": "isEligibleRecipient",
      "outputs": [
        {
          "internalType": "bool",
          "name": "",
          "type": "bool"
        }
      ],
      "stateMutability": "view",
      "type": "function",
      "constant": true
    },
    {
      "inputs": [],
      "name": "isPaused",
      "outputs": [
        {
          "internalType": "bool",
          "name": "",
          "type": "bool"
        }
      ],
      "stateMutability": "view",
      "type": "function",
      "constant": true
    },
    {
      "inputs": [
        {
          "internalType": "address",
          "name": "account",
          "type": "address"
        },
        {
          "internalType": "uint256",
          "name": "groupId",
          "type": "uint256"
        }
      ],
      "name": "isRegisteredRecipient",
      "outputs": [
        {
          "internalType": "bool",
          "name": "",
          "type": "bool"
        }
      ],
      "stateMutability": "view",
      "type": "function",
      "constant": true
    },
    {
      "inputs": [],
      "name": "pause",
      "outputs": [],
      "stateMutability": "nonpayable",
      "type": "function"
    },
    {
      "inputs": [],
      "name": "paused",
      "outputs": [
        {
          "internalType": "bool",
          "name": "",
          "type": "bool"
        }
      ],
      "stateMutability": "view",
      "type": "function",
      "constant": true
    },
    {
      "inputs": [
        {
          "internalType": "uint256",
          "name": "groupId",
          "type": "uint256"
        }
      ],
      "name": "registerForEvent",
      "outputs": [],
      "stateMutability": "nonpayable",
      "type": "function"
    },
    {
      "inputs": [
        {
          "internalType": "address",
          "name": "_newCEO",
          "type": "address"
        }
      ],
      "name": "setCEO",
      "outputs": [],
      "stateMutability": "nonpayable",
      "type": "function"
    },
    {
      "inputs": [
        {
          "internalType": "address",
          "name": "_newCFO",
          "type": "address"
        }
      ],
      "name": "setCFO",
      "outputs": [],
      "stateMutability": "nonpayable",
      "type": "function"
    },
    {
      "inputs": [
        {
          "internalType": "address",
          "name": "_newCOO",
          "type": "address"
        }
      ],
      "name": "setCOO",
      "outputs": [],
      "stateMutability": "nonpayable",
      "type": "function"
    },
    {
      "inputs": [
        {
          "internalType": "string",
          "name": "_s",
          "type": "string"
        }
      ],
      "name": "setString",
      "outputs": [],
      "stateMutability": "nonpayable",
      "type": "function"
    },
    {
      "inputs": [],
      "name": "stringgg",
      "outputs": [
        {
          "internalType": "string",
          "name": "",
          "type": "string"
        }
      ],
      "stateMutability": "view",
      "type": "function",
      "constant": true
    },
    {
      "inputs": [],
      "name": "unpause",
      "outputs": [
        {
          "internalType": "bool",
          "name": "",
          "type": "bool"
        }
      ],
      "stateMutability": "nonpayable",
      "type": "function"
    },
    {
      "inputs": [],
      "name": "whoami",
      "outputs": [
        {
          "internalType": "address",
          "name": "",
          "type": "address"
        }
      ],
      "stateMutability": "view",
      "type": "function",
      "constant": true
    },
    {
      "inputs": [
        {
          "internalType": "address",
          "name": "account",
          "type": "address"
        },
        {
          "internalType": "uint256",
          "name": "groupId",
          "type": "uint256"
        }
      ],
      "name": "isContributor",
      "outputs": [
        {
          "internalType": "bool",
          "name": "",
          "type": "bool"
        }
      ],
      "stateMutability": "view",
      "type": "function",
      "constant": true
    },
    {
      "inputs": [
        {
          "internalType": "uint256",
          "name": "groupId",
          "type": "uint256"
        }
      ],
      "name": "amIContributor",
      "outputs": [
        {
          "internalType": "bool",
          "name": "",
          "type": "bool"
        }
      ],
      "stateMutability": "view",
      "type": "function",
      "constant": true
    },
    {
      "inputs": [
        {
          "internalType": "uint256",
          "name": "groupId",
          "type": "uint256"
        }
      ],
      "name": "getCurrentSponsorAddress",
      "outputs": [
        {
          "internalType": "address",
          "name": "",
          "type": "address"
        }
      ],
      "stateMutability": "view",
      "type": "function",
      "constant": true
    },
    {
      "inputs": [
        {
          "internalType": "uint256",
          "name": "groupId",
          "type": "uint256"
        },
        {
          "internalType": "string",
          "name": "newContributorName",
          "type": "string"
        },
        {
          "internalType": "string",
          "name": "newContributorImgUrl",
          "type": "string"
        },
        {
          "internalType": "string",
          "name": "newContributorLinkToUrl",
          "type": "string"
        }
      ],
      "name": "updateContributorInfo",
      "outputs": [],
      "stateMutability": "nonpayable",
      "type": "function"
    },
    {
      "inputs": [
        {
          "internalType": "uint256",
          "name": "groupId",
          "type": "uint256"
        }
      ],
      "name": "getContributorInfo",
      "outputs": [
        {
          "internalType": "string",
          "name": "newContributorName",
          "type": "string"
        },
        {
          "internalType": "string",
          "name": "newContributorImgUrl",
          "type": "string"
        },
        {
          "internalType": "string",
          "name": "newContributorLinkToUrl",
          "type": "string"
        }
      ],
      "stateMutability": "view",
      "type": "function",
      "constant": true
    },
    {
      "inputs": [
        {
          "internalType": "uint256",
          "name": "groupId",
          "type": "uint256"
        }
      ],
      "name": "contributeToPot",
      "outputs": [],
      "stateMutability": "payable",
      "type": "function",
      "payable": true
    }
  ],
  "bytecode": "0x60806040526000600360146101000a81548160ff021916908315150217905550600560045534801561003057600080fd5b5061323b806100406000396000f3fe60806040526004361061023b5760003560e01c80637d837ce51161012e578063b3b36bb3116100ab578063e82f24e01161006f578063e82f24e0146108ef578063ee41b5921461090b578063f4a02e7014610948578063f89e9cb914610973578063fc5fd6e4146109b05761023b565b8063b3b36bb314610818578063c02b8b2c14610843578063c6db50941461086e578063d5f016c314610899578063e513b7a9146108c45761023b565b80639393ae37116100f25780639393ae37146107315780639bda87961461075c578063aea88a0514610799578063b047fb50146107c2578063b187bd26146107ed5761023b565b80637d837ce51461064c5780637fcaf666146106895780638182aaf2146106b25780638456cb59146106ef57806389ea642f146107065761023b565b806344b2983b116101bc5780635c975abb116101805780635c975abb146105515780635e82c1fc1461057c578063674811ca146105b9578063677bd9ff146105f85780637b936ac2146106215761023b565b806344b2983b14610430578063454432e21461046d5780634635509b146104aa5780634e0a3379146104eb57806355b57ec1146105145761023b565b806327d7874c1161020357806327d7874c1461034d5780632ba73c151461037657806338f0b6561461039f5780633f4ba83a146103dc578063406db843146104075761023b565b80630519ce791461024057806306cc49221461026b57806307bfa330146102a85780630a0f8168146102e55780630d82ffa014610310575b600080fd5b34801561024c57600080fd5b506102556109db565b6040516102629190612b98565b60405180910390f35b34801561027757600080fd5b50610292600480360381019061028d919061276a565b610a01565b60405161029f9190612c3b565b60405180910390f35b3480156102b457600080fd5b506102cf60048036038101906102ca919061276a565b610a2e565b6040516102dc9190612bf7565b60405180910390f35b3480156102f157600080fd5b506102fa610b1a565b6040516103079190612b98565b60405180910390f35b34801561031c57600080fd5b506103376004803603810190610332919061276a565b610b40565b6040516103449190612b98565b60405180910390f35b34801561035957600080fd5b50610374600480360381019061036f91906126b4565b610b80565b005b34801561038257600080fd5b5061039d600480360381019061039891906126b4565b610c58565b005b3480156103ab57600080fd5b506103c660048036038101906103c1919061276a565b610d5c565b6040516103d39190612c3b565b60405180910390f35b3480156103e857600080fd5b506103f1610d89565b6040516103fe9190612c3b565b60405180910390f35b34801561041357600080fd5b5061042e6004803603810190610429919061276a565b610e2e565b005b34801561043c57600080fd5b506104576004803603810190610452919061276a565b6110e2565b6040516104649190612bb3565b60405180910390f35b34801561047957600080fd5b50610494600480360381019061048f919061276a565b611183565b6040516104a19190612bf7565b60405180910390f35b3480156104b657600080fd5b506104d160048036038101906104cc919061276a565b61126f565b6040516104e2959493929190612c56565b60405180910390f35b3480156104f757600080fd5b50610512600480360381019061050d91906126b4565b6115f2565b005b34801561052057600080fd5b5061053b6004803603810190610536919061276a565b6116bc565b6040516105489190612bd5565b60405180910390f35b34801561055d57600080fd5b5061056661174c565b6040516105739190612c3b565b60405180910390f35b34801561058857600080fd5b506105a3600480360381019061059e91906126e1565b61175f565b6040516105b09190612c3b565b60405180910390f35b3480156105c557600080fd5b506105e060048036038101906105db919061276a565b6117e8565b6040516105ef93929190612ccb565b60405180910390f35b34801561060457600080fd5b5061061f600480360381019061061a919061276a565b6119e0565b005b34801561062d57600080fd5b50610636611bc5565b6040516106439190612b98565b60405180910390f35b34801561065857600080fd5b50610673600480360381019061066e91906126e1565b611bef565b6040516106809190612c3b565b60405180910390f35b34801561069557600080fd5b506106b060048036038101906106ab9190612721565b611c78565b005b3480156106be57600080fd5b506106d960048036038101906106d491906126e1565b611c92565b6040516106e69190612c3b565b60405180910390f35b3480156106fb57600080fd5b50610704611d1b565b005b34801561071257600080fd5b5061071b611e5c565b6040516107289190612ca9565b60405180910390f35b34801561073d57600080fd5b50610746611eee565b6040516107539190612c3b565b60405180910390f35b34801561076857600080fd5b50610783600480360381019061077e919061276a565b611f46565b6040516107909190612bb3565b60405180910390f35b3480156107a557600080fd5b506107c060048036038101906107bb9190612797565b611fe7565b005b3480156107ce57600080fd5b506107d7612120565b6040516107e49190612b98565b60405180910390f35b3480156107f957600080fd5b50610802612146565b60405161080f9190612c3b565b60405180910390f35b34801561082457600080fd5b5061082d61215d565b60405161083a9190612b98565b60405180910390f35b34801561084f57600080fd5b50610858612165565b6040516108659190612c19565b60405180910390f35b34801561087a57600080fd5b506108836121bd565b6040516108909190612ca9565b60405180910390f35b3480156108a557600080fd5b506108ae61224b565b6040516108bb9190612bf7565b60405180910390f35b3480156108d057600080fd5b506108d9612324565b6040516108e69190612c3b565b60405180910390f35b6109096004803603810190610904919061276a565b61237c565b005b34801561091757600080fd5b50610932600480360381019061092d919061276a565b612441565b60405161093f9190612c3b565b60405180910390f35b34801561095457600080fd5b5061095d61246e565b60405161096a9190612c3b565b60405180910390f35b34801561097f57600080fd5b5061099a6004803603810190610995919061276a565b6124c6565b6040516109a79190612c3b565b60405180910390f35b3480156109bc57600080fd5b506109c561254d565b6040516109d29190612b98565b60405180910390f35b600260009054906101000a900473ffffffffffffffffffffffffffffffffffffffff1681565b6000600360149054906101000a900460ff1615610a1d57600080fd5b610a27338361175f565b9050919050565b606060156000838152602001908152602001600020805480602002602001604051908101604052809291908181526020016000905b82821015610b0f578382906000526020600020018054610a8290613036565b80601f0160208091040260200160405190810160405280929190818152602001828054610aae90613036565b8015610afb5780601f10610ad057610100808354040283529160200191610afb565b820191906000526020600020905b815481529060010190602001808311610ade57829003601f168201915b505050505081526020019060010190610a63565b505050509050919050565b600160009054906101000a900473ffffffffffffffffffffffffffffffffffffffff1681565b600060076000838152602001908152602001600020600a0160009054906101000a900473ffffffffffffffffffffffffffffffffffffffff169050919050565b600160009054906101000a900473ffffffffffffffffffffffffffffffffffffffff1673ffffffffffffffffffffffffffffffffffffffff163373ffffffffffffffffffffffffffffffffffffffff1614610bda57600080fd5b600073ffffffffffffffffffffffffffffffffffffffff168173ffffffffffffffffffffffffffffffffffffffff161415610c1457600080fd5b80600160006101000a81548173ffffffffffffffffffffffffffffffffffffffff021916908373ffffffffffffffffffffffffffffffffffffffff16021790555050565b600160009054906101000a900473ffffffffffffffffffffffffffffffffffffffff1673ffffffffffffffffffffffffffffffffffffffff163373ffffffffffffffffffffffffffffffffffffffff1614610cb257600080fd5b600073ffffffffffffffffffffffffffffffffffffffff168173ffffffffffffffffffffffffffffffffffffffff161415610cec57600080fd5b80600360006101000a81548173ffffffffffffffffffffffffffffffffffffffff021916908373ffffffffffffffffffffffffffffffffffffffff1602179055507fa308298a77084def994b565be25bff2e8fbfe7006c2c6b2bacfb84d1ba1f635060405160405180910390a150565b6000600360149054906101000a900460ff1615610d7857600080fd5b610d823383611bef565b9050919050565b6000600160009054906101000a900473ffffffffffffffffffffffffffffffffffffffff1673ffffffffffffffffffffffffffffffffffffffff163373ffffffffffffffffffffffffffffffffffffffff1614610de557600080fd5b600360149054906101000a900460ff16610dfe57600080fd5b6000600360146101000a81548160ff021916908315150217905550600360149054906101000a900460ff16905090565b80610e39338261175f565b610e4257600080fd5b600360149054906101000a900460ff1615610e5c57600080fd5b60016016600084815260200190815260200160002060003373ffffffffffffffffffffffffffffffffffffffff1673ffffffffffffffffffffffffffffffffffffffff16815260200190815260200160002060006101000a81548160ff02191690831515021790555060176000838152602001908152602001600020339080600181540180825580915050600190039060005260206000200160009091909190916101000a81548173ffffffffffffffffffffffffffffffffffffffff021916908373ffffffffffffffffffffffffffffffffffffffff16021790555060006014600084815260200190815260200160002060003373ffffffffffffffffffffffffffffffffffffffff1673ffffffffffffffffffffffffffffffffffffffff1681526020019081526020016000208054610f9690613036565b80601f0160208091040260200160405190810160405280929190818152602001828054610fc290613036565b801561100f5780601f10610fe45761010080835404028352916020019161100f565b820191906000526020600020905b815481529060010190602001808311610ff257829003601f168201915b505050505090506015600084815260200190815260200160002081908060018154018082558091505060019003906000526020600020016000909190919091509080519060200190611062929190612577565b5060076000848152602001908152602001600020600601600081548092919061108a90613099565b91905055503373ffffffffffffffffffffffffffffffffffffffff167f0695e999be8100bdb5bee8612337296508d527eae78c65b8f170eacb5a3b439d846040516110d59190612d17565b60405180910390a2505050565b60606017600083815260200190815260200160002080548060200260200160405190810160405280929190818152602001828054801561117757602002820191906000526020600020905b8160009054906101000a900473ffffffffffffffffffffffffffffffffffffffff1673ffffffffffffffffffffffffffffffffffffffff168152602001906001019080831161112d575b50505050509050919050565b606060126000838152602001908152602001600020805480602002602001604051908101604052809291908181526020016000905b828210156112645783829060005260206000200180546111d790613036565b80601f016020809104026020016040519081016040528092919081815260200182805461120390613036565b80156112505780601f1061122557610100808354040283529160200191611250565b820191906000526020600020905b81548152906001019060200180831161123357829003601f168201915b5050505050815260200190600101906111b8565b505050509050919050565b60008060008060008060076000888152602001908152602001600020604051806101c0016040529081600082015481526020016001820180546112b190613036565b80601f01602080910402602001604051908101604052809291908181526020018280546112dd90613036565b801561132a5780601f106112ff5761010080835404028352916020019161132a565b820191906000526020600020905b81548152906001019060200180831161130d57829003601f168201915b505050505081526020016002820160009054906101000a900460ff16600381111561135857611357613111565b5b600381111561136a57611369613111565b5b8152602001600382015481526020016004820154815260200160058201548152602001600682015481526020016007820180546113a690613036565b80601f01602080910402602001604051908101604052809291908181526020018280546113d290613036565b801561141f5780601f106113f45761010080835404028352916020019161141f565b820191906000526020600020905b81548152906001019060200180831161140257829003601f168201915b5050505050815260200160088201805461143890613036565b80601f016020809104026020016040519081016040528092919081815260200182805461146490613036565b80156114b15780601f10611486576101008083540402835291602001916114b1565b820191906000526020600020905b81548152906001019060200180831161149457829003601f168201915b505050505081526020016009820180546114ca90613036565b80601f01602080910402602001604051908101604052809291908181526020018280546114f690613036565b80156115435780601f1061151857610100808354040283529160200191611543565b820191906000526020600020905b81548152906001019060200180831161152657829003601f168201915b50505050508152602001600a820160009054906101000a900473ffffffffffffffffffffffffffffffffffffffff1673ffffffffffffffffffffffffffffffffffffffff1673ffffffffffffffffffffffffffffffffffffffff168152602001600b8201548152602001600c8201548152602001600d82015481525050905080604001518160c00151826101600151836101800151846101a00151955095509550955095505091939590929450565b600160009054906101000a900473ffffffffffffffffffffffffffffffffffffffff1673ffffffffffffffffffffffffffffffffffffffff163373ffffffffffffffffffffffffffffffffffffffff161461164c57600080fd5b80600260006101000a81548173ffffffffffffffffffffffffffffffffffffffff021916908373ffffffffffffffffffffffffffffffffffffffff1602179055507f162e32528b5907ecf876b3b7a4e5e0edf878642e3ec25852e3c35af1a4e1c04060405160405180910390a150565b60606013600083815260200190815260200160002080548060200260200160405190810160405280929190818152602001828054801561174057602002820191906000526020600020906000905b82829054906101000a900460ff1615158152602001906001019060208260000104928301926001038202915080841161170a5790505b50505050509050919050565b600360149054906101000a900460ff1681565b6000600360149054906101000a900460ff161561177b57600080fd5b600115156010600084815260200190815260200160002060008573ffffffffffffffffffffffffffffffffffffffff1673ffffffffffffffffffffffffffffffffffffffff16815260200190815260200160002060009054906101000a900460ff16151514905092915050565b606080606060076000858152602001908152602001600020600701600760008681526020019081526020016000206008016007600087815260200190815260200160002060090182805461183b90613036565b80601f016020809104026020016040519081016040528092919081815260200182805461186790613036565b80156118b45780601f10611889576101008083540402835291602001916118b4565b820191906000526020600020905b81548152906001019060200180831161189757829003601f168201915b505050505092508180546118c790613036565b80601f01602080910402602001604051908101604052809291908181526020018280546118f390613036565b80156119405780601f1061191557610100808354040283529160200191611940565b820191906000526020600020905b81548152906001019060200180831161192357829003601f168201915b5050505050915080805461195390613036565b80601f016020809104026020016040519081016040528092919081815260200182805461197f90613036565b80156119cc5780601f106119a1576101008083540402835291602001916119cc565b820191906000526020600020905b8154815290600101906020018083116119af57829003601f168201915b505050505090509250925092509193909250565b806119eb3382611bef565b6119f457600080fd5b813360011515600b600084815260200190815260200160002060003373ffffffffffffffffffffffffffffffffffffffff1673ffffffffffffffffffffffffffffffffffffffff16815260200190815260200160002060009054906101000a900460ff1615151415611a6557600080fd5b600360149054906101000a900460ff1615611a7f57600080fd5b6001600b600086815260200190815260200160002060003373ffffffffffffffffffffffffffffffffffffffff1673ffffffffffffffffffffffffffffffffffffffff16815260200190815260200160002060006101000a81548160ff02191690831515021790555060076000858152602001908152602001600020600d016000815480929190611b0f90613099565b91905055503373ffffffffffffffffffffffffffffffffffffffff166108fc60076000878152602001908152602001600020600c01549081150290604051600060405180830381858888f19350505050158015611b70573d6000803e3d6000fd5b503373ffffffffffffffffffffffffffffffffffffffff167f1a31e733a172afcf46074b3106c17f0c298e226442682a03c1e99ce256139ec285604051611bb79190612d17565b60405180910390a250505050565b6000600260009054906101000a900473ffffffffffffffffffffffffffffffffffffffff16905090565b6000600360149054906101000a900460ff1615611c0b57600080fd5b600115156016600084815260200190815260200160002060008573ffffffffffffffffffffffffffffffffffffffff1673ffffffffffffffffffffffffffffffffffffffff16815260200190815260200160002060009054906101000a900460ff16151514905092915050565b8060009080519060200190611c8e929190612577565b5050565b6000600360149054906101000a900460ff1615611cae57600080fd5b60076000838152602001908152602001600020600a0160009054906101000a900473ffffffffffffffffffffffffffffffffffffffff1673ffffffffffffffffffffffffffffffffffffffff168373ffffffffffffffffffffffffffffffffffffffff1614905092915050565b600360009054906101000a900473ffffffffffffffffffffffffffffffffffffffff1673ffffffffffffffffffffffffffffffffffffffff163373ffffffffffffffffffffffffffffffffffffffff161480611dc45750600160009054906101000a900473ffffffffffffffffffffffffffffffffffffffff1673ffffffffffffffffffffffffffffffffffffffff163373ffffffffffffffffffffffffffffffffffffffff16145b80611e1c5750600260009054906101000a900473ffffffffffffffffffffffffffffffffffffffff1673ffffffffffffffffffffffffffffffffffffffff163373ffffffffffffffffffffffffffffffffffffffff16145b611e2557600080fd5b600360149054906101000a900460ff1615611e3f57600080fd5b6001600360146101000a81548160ff021916908315150217905550565b606060008054611e6b90613036565b80601f0160208091040260200160405190810160405280929190818152602001828054611e9790613036565b8015611ee45780601f10611eb957610100808354040283529160200191611ee4565b820191906000526020600020905b815481529060010190602001808311611ec757829003601f168201915b5050505050905090565b6000600260009054906101000a900473ffffffffffffffffffffffffffffffffffffffff1673ffffffffffffffffffffffffffffffffffffffff163373ffffffffffffffffffffffffffffffffffffffff1614905090565b606060116000838152602001908152602001600020805480602002602001604051908101604052809291908181526020018280548015611fdb57602002820191906000526020600020905b8160009054906101000a900473ffffffffffffffffffffffffffffffffffffffff1673ffffffffffffffffffffffffffffffffffffffff1681526020019060010190808311611f91575b50505050509050919050565b83611ff23382611c92565b611ffb57600080fd5b600084511115612031578360076000878152602001908152602001600020600701908051906020019061202f929190612577565b505b6000835111156120675782600760008781526020019081526020016000206008019080519060200190612065929190612577565b505b60008251111561209d578160076000878152602001908152602001600020600901908051906020019061209b929190612577565b505b7fcd9ad49d834aeea746bafd2d26eebd3d01ebac2d8f5d3f53d7f3884292e5835f856007600088815260200190815260200160002060070160076000898152602001908152602001600020600801600760008a81526020019081526020016000206009016040516121119493929190612d32565b60405180910390a15050505050565b600360009054906101000a900473ffffffffffffffffffffffffffffffffffffffff1681565b6000600360149054906101000a900460ff16905090565b600033905090565b606060058054806020026020016040519081016040528092919081815260200182805480156121b357602002820191906000526020600020905b81548152602001906001019080831161219f575b5050505050905090565b600080546121ca90613036565b80601f01602080910402602001604051908101604052809291908181526020018280546121f690613036565b80156122435780601f1061221857610100808354040283529160200191612243565b820191906000526020600020905b81548152906001019060200180831161222657829003601f168201915b505050505081565b60606006805480602002602001604051908101604052809291908181526020016000905b8282101561231b57838290600052602060002001805461228e90613036565b80601f01602080910402602001604051908101604052809291908181526020018280546122ba90613036565b80156123075780601f106122dc57610100808354040283529160200191612307565b820191906000526020600020905b8154815290600101906020018083116122ea57829003601f168201915b50505050508152602001906001019061226f565b50505050905090565b6000600160009054906101000a900473ffffffffffffffffffffffffffffffffffffffff1673ffffffffffffffffffffffffffffffffffffffff163373ffffffffffffffffffffffffffffffffffffffff1614905090565b806123873382611c92565b61239057600080fd5b600360149054906101000a900460ff16156123aa57600080fd5b3460076000848152602001908152602001600020600b0160008282546123d09190612f31565b925050819055503373ffffffffffffffffffffffffffffffffffffffff167f5dc1fe5ab986a852c4eda8e8bb94247d13307065c593fb83f1a09be2736793828360076000868152602001908152602001600020600b0154604051612435929190612d8c565b60405180910390a25050565b6000600360149054906101000a900460ff161561245d57600080fd5b6124673383611c92565b9050919050565b6000600360009054906101000a900473ffffffffffffffffffffffffffffffffffffffff1673ffffffffffffffffffffffffffffffffffffffff163373ffffffffffffffffffffffffffffffffffffffff1614905090565b60006124d23383611bef565b6124df5760009050612548565b60011515600b600084815260200190815260200160002060003373ffffffffffffffffffffffffffffffffffffffff1673ffffffffffffffffffffffffffffffffffffffff16815260200190815260200160002060009054906101000a900460ff161515141590505b919050565b6000600360009054906101000a900473ffffffffffffffffffffffffffffffffffffffff16905090565b82805461258390613036565b90600052602060002090601f0160209004810192826125a557600085556125ec565b82601f106125be57805160ff19168380011785556125ec565b828001600101855582156125ec579182015b828111156125eb5782518255916020019190600101906125d0565b5b5090506125f991906125fd565b5090565b5b808211156126165760008160009055506001016125fe565b5090565b600061262d61262884612dda565b612db5565b905082815260208101848484011115612649576126486131a3565b5b612654848285612ff4565b509392505050565b60008135905061266b816131d7565b92915050565b600082601f8301126126865761268561319e565b5b813561269684826020860161261a565b91505092915050565b6000813590506126ae816131ee565b92915050565b6000602082840312156126ca576126c96131ad565b5b60006126d88482850161265c565b91505092915050565b600080604083850312156126f8576126f76131ad565b5b60006127068582860161265c565b92505060206127178582860161269f565b9150509250929050565b600060208284031215612737576127366131ad565b5b600082013567ffffffffffffffff811115612755576127546131a8565b5b61276184828501612671565b91505092915050565b6000602082840312156127805761277f6131ad565b5b600061278e8482850161269f565b91505092915050565b600080600080608085870312156127b1576127b06131ad565b5b60006127bf8782880161269f565b945050602085013567ffffffffffffffff8111156127e0576127df6131a8565b5b6127ec87828801612671565b935050604085013567ffffffffffffffff81111561280d5761280c6131a8565b5b61281987828801612671565b925050606085013567ffffffffffffffff81111561283a576128396131a8565b5b61284687828801612671565b91505092959194509250565b600061285e83836128ae565b60208301905092915050565b60006128768383612a5b565b60208301905092915050565b600061288e8383612a88565b905092915050565b60006128a28383612b7a565b60208301905092915050565b6128b781612f87565b82525050565b6128c681612f87565b82525050565b60006128d782612e60565b6128e18185612ecb565b93506128ec83612e0b565b8060005b8381101561291d5781516129048882612852565b975061290f83612e97565b9250506001810190506128f0565b5085935050505092915050565b600061293582612e6b565b61293f8185612edc565b935061294a83612e1b565b8060005b8381101561297b578151612962888261286a565b975061296d83612ea4565b92505060018101905061294e565b5085935050505092915050565b600061299382612e76565b61299d8185612eed565b9350836020820285016129af85612e2b565b8060005b858110156129eb57848403895281516129cc8582612882565b94506129d783612eb1565b925060208a019950506001810190506129b3565b50829750879550505050505092915050565b6000612a0882612e81565b612a128185612efe565b9350612a1d83612e3b565b8060005b83811015612a4e578151612a358882612896565b9750612a4083612ebe565b925050600181019050612a21565b5085935050505092915050565b612a6481612f99565b82525050565b612a7381612f99565b82525050565b612a8281612fe2565b82525050565b6000612a9382612e8c565b612a9d8185612f0f565b9350612aad818560208601613003565b612ab6816131b2565b840191505092915050565b6000612acc82612e8c565b612ad68185612f20565b9350612ae6818560208601613003565b612aef816131b2565b840191505092915050565b60008154612b0781613036565b612b118186612f20565b94506001821660008114612b2c5760018114612b3e57612b71565b60ff1983168652602086019350612b71565b612b4785612e4b565b60005b83811015612b6957815481890152600182019150602081019050612b4a565b808801955050505b50505092915050565b612b8381612fd8565b82525050565b612b9281612fd8565b82525050565b6000602082019050612bad60008301846128bd565b92915050565b60006020820190508181036000830152612bcd81846128cc565b905092915050565b60006020820190508181036000830152612bef818461292a565b905092915050565b60006020820190508181036000830152612c118184612988565b905092915050565b60006020820190508181036000830152612c3381846129fd565b905092915050565b6000602082019050612c506000830184612a6a565b92915050565b600060a082019050612c6b6000830188612a79565b612c786020830187612b89565b612c856040830186612b89565b612c926060830185612b89565b612c9f6080830184612b89565b9695505050505050565b60006020820190508181036000830152612cc38184612ac1565b905092915050565b60006060820190508181036000830152612ce58186612ac1565b90508181036020830152612cf98185612ac1565b90508181036040830152612d0d8184612ac1565b9050949350505050565b6000602082019050612d2c6000830184612b89565b92915050565b6000608082019050612d476000830187612b89565b8181036020830152612d598186612afa565b90508181036040830152612d6d8185612afa565b90508181036060830152612d818184612afa565b905095945050505050565b6000604082019050612da16000830185612b89565b612dae6020830184612b89565b9392505050565b6000612dbf612dd0565b9050612dcb8282613068565b919050565b6000604051905090565b600067ffffffffffffffff821115612df557612df461316f565b5b612dfe826131b2565b9050602081019050919050565b6000819050602082019050919050565b6000819050602082019050919050565b6000819050602082019050919050565b6000819050602082019050919050565b60008190508160005260206000209050919050565b600081519050919050565b600081519050919050565b600081519050919050565b600081519050919050565b600081519050919050565b6000602082019050919050565b6000602082019050919050565b6000602082019050919050565b6000602082019050919050565b600082825260208201905092915050565b600082825260208201905092915050565b600082825260208201905092915050565b600082825260208201905092915050565b600082825260208201905092915050565b600082825260208201905092915050565b6000612f3c82612fd8565b9150612f4783612fd8565b9250827fffffffffffffffffffffffffffffffffffffffffffffffffffffffffffffffff03821115612f7c57612f7b6130e2565b5b828201905092915050565b6000612f9282612fb8565b9050919050565b60008115159050919050565b6000819050612fb3826131c3565b919050565b600073ffffffffffffffffffffffffffffffffffffffff82169050919050565b6000819050919050565b6000612fed82612fa5565b9050919050565b82818337600083830152505050565b60005b83811015613021578082015181840152602081019050613006565b83811115613030576000848401525b50505050565b6000600282049050600182168061304e57607f821691505b6020821081141561306257613061613140565b5b50919050565b613071826131b2565b810181811067ffffffffffffffff821117156130905761308f61316f565b5b80604052505050565b60006130a482612fd8565b91507fffffffffffffffffffffffffffffffffffffffffffffffffffffffffffffffff8214156130d7576130d66130e2565b5b600182019050919050565b7f4e487b7100000000000000000000000000000000000000000000000000000000600052601160045260246000fd5b7f4e487b7100000000000000000000000000000000000000000000000000000000600052602160045260246000fd5b7f4e487b7100000000000000000000000000000000000000000000000000000000600052602260045260246000fd5b7f4e487b7100000000000000000000000000000000000000000000000000000000600052604160045260246000fd5b600080fd5b600080fd5b600080fd5b600080fd5b6000601f19601f8301169050919050565b600481106131d4576131d3613111565b5b50565b6131e081612f87565b81146131eb57600080fd5b50565b6131f781612fd8565b811461320257600080fd5b5056fea26469706673582212208752dc0c0dfc9cce073bb2faec6bdcd8594dcbd1b51a3ba70bed973bba281a4b64736f6c63430008060033",
  "immutableReferences": {},
  "source": "// SPDX-License-Identifier: MIT\npragma solidity ^0.8.0;\n\nimport \"./RecipientsManager.sol\";\n\ncontract ContributorManager is RecipientsManager {\n    event ContributorAdded(address indexed account, uint256 groupId);\n    event ContributorRemoved(address indexed account, uint256 groupId);\n\n    event ContributorAddressUpdated(uint256 groupId, address newContributor);\n    event ContributorInfoUpdated(\n        uint256 groupId,\n        string sponsorName,\n        string imgUrl,\n        string imgLinkToUrl\n    );\n\n    event ContributionMade(\n        address indexed account,\n        uint256 groupId,\n        uint256 amount\n    );\n\n    constructor() {}\n\n    modifier onlyContributor(uint256 groupId) {\n        require(isContributor(msg.sender, groupId));\n        _;\n    }\n\n    function isContributor(address account, uint256 groupId)\n        public\n        view\n        whenNotPaused\n        returns (bool)\n    {\n        return account == currentEvents[groupId].currentContributor;\n    }\n\n    function amIContributor(uint256 groupId)\n        external\n        view\n        whenNotPaused\n        returns (bool)\n    {\n        return isContributor(msg.sender, groupId);\n    }\n\n    function getCurrentSponsorAddress(uint256 groupId)\n        external\n        view\n        returns (address)\n    {\n        return currentEvents[groupId].currentContributor;\n    }\n\n    function _changeContributor(address account, uint256 groupId) internal {\n        contributors[groupId][account] = true;\n\n        currentEvents[groupId].currentContributor = account;\n        emit ContributorAdded(account, groupId);\n    }\n\n    function updateContributorInfo(\n        uint256 groupId,\n        string memory newContributorName,\n        string memory newContributorImgUrl,\n        string memory newContributorLinkToUrl\n    ) external onlyContributor(groupId) {\n        if (bytes(newContributorName).length > 0) {\n            currentEvents[groupId].sponsorName = newContributorName;\n        }\n        if (bytes(newContributorImgUrl).length > 0) {\n            currentEvents[groupId].sponsorImageUrl = newContributorImgUrl;\n        }\n        if (bytes(newContributorLinkToUrl).length > 0) {\n            currentEvents[groupId].sponsorLinkToUrl = newContributorLinkToUrl;\n        }\n\n        emit ContributorInfoUpdated(\n            groupId,\n            currentEvents[groupId].sponsorName,\n            currentEvents[groupId].sponsorImageUrl,\n            currentEvents[groupId].sponsorLinkToUrl\n        );\n    }\n\n    function getContributorInfo(uint256 groupId)\n        external\n        view\n        returns (\n            string memory newContributorName,\n            string memory newContributorImgUrl,\n            string memory newContributorLinkToUrl\n        )\n    {\n        return (\n            currentEvents[groupId].sponsorName,\n            currentEvents[groupId].sponsorImageUrl,\n            currentEvents[groupId].sponsorLinkToUrl\n        );\n    }\n\n    function contributeToPot(uint256 groupId)\n        external\n        payable\n        onlyContributor(groupId)\n        whenNotPaused\n    {\n        currentEvents[groupId].totalAmountContributed += msg.value;\n        emit ContributionMade(\n            msg.sender,\n            groupId,\n            currentEvents[groupId].totalAmountContributed\n        );\n    }\n}\n",
  "sourcePath": "/Users/jlynch/Git-Projects/EthDrop/contracts/roles/ContributorManager.sol",
  "compiler": {
    "name": "solc",
    "version": "0.8.6+commit.11564f7e.Emscripten.clang"
  },
  "schemaVersion": "3.4.1",
  "updatedAt": "2021-08-01T03:55:03.071Z",
  "networkType": "ethereum",
  "devdoc": {
    "kind": "dev",
    "methods": {
      "pause()": {
        "details": "Called by any \"C-level\" role to pause the contract. Used only when  a bug or exploit is detected and we need to limit damage."
      },
      "setCEO(address)": {
        "details": "Assigns a new address to act as the CEO. Only available to the current CEO.",
        "params": {
          "_newCEO": "The address of the new CEO"
        }
      },
      "setCFO(address)": {
        "details": "Assigns a new address to act as the CFO. Only available to the current CEO.",
        "params": {
          "_newCFO": "The address of the new CFO"
        }
      },
      "setCOO(address)": {
        "details": "Assigns a new address to act as the COO. Only available to the current CEO.",
        "params": {
          "_newCOO": "The address of the new COO"
        }
      },
      "unpause()": {
        "details": "Unpauses the smart contract. Can only be called by the CEO, since  one reason we may pause the contract is when CFO or COO accounts are  compromised."
      }
    },
    "version": 1
  },
  "userdoc": {
    "kind": "user",
    "methods": {
      "unpause()": {
        "notice": "This is public rather than external so it can be called by  derived contracts."
      }
    },
    "version": 1
  }
}