{
  "contractName": "ContributorManager",
  "abi": [
    {
      "inputs": [],
      "stateMutability": "nonpayable",
      "type": "constructor"
    },
    {
      "anonymous": false,
      "inputs": [
        {
          "indexed": false,
          "internalType": "address",
          "name": "newContract",
          "type": "address"
        }
      ],
      "name": "ContractUpgrade",
      "type": "event"
    },
    {
      "anonymous": false,
      "inputs": [
        {
          "indexed": true,
          "internalType": "address",
          "name": "account",
          "type": "address"
        },
        {
          "indexed": false,
          "internalType": "uint256",
          "name": "groupId",
          "type": "uint256"
        },
        {
          "indexed": false,
          "internalType": "uint256",
          "name": "amount",
          "type": "uint256"
        }
      ],
      "name": "ContributionMade",
      "type": "event"
    },
    {
      "anonymous": false,
      "inputs": [
        {
          "indexed": true,
          "internalType": "address",
          "name": "account",
          "type": "address"
        },
        {
          "indexed": false,
          "internalType": "uint256",
          "name": "groupId",
          "type": "uint256"
        }
      ],
      "name": "ContributorAdded",
      "type": "event"
    },
    {
      "anonymous": false,
      "inputs": [
        {
          "indexed": true,
          "internalType": "address",
          "name": "account",
          "type": "address"
        },
        {
          "indexed": false,
          "internalType": "uint256",
          "name": "groupId",
          "type": "uint256"
        }
      ],
      "name": "ContributorRemoved",
      "type": "event"
    },
    {
      "anonymous": false,
      "inputs": [
        {
          "indexed": true,
          "internalType": "address",
          "name": "account",
          "type": "address"
        },
        {
          "indexed": false,
          "internalType": "uint256",
          "name": "groupId",
          "type": "uint256"
        }
      ],
      "name": "EligibleRecipientAdded",
      "type": "event"
    },
    {
      "anonymous": false,
      "inputs": [
        {
          "indexed": true,
          "internalType": "address",
          "name": "account",
          "type": "address"
        },
        {
          "indexed": false,
          "internalType": "uint256",
          "name": "groupId",
          "type": "uint256"
        }
      ],
      "name": "EligibleRecipientRemoved",
      "type": "event"
    },
    {
      "anonymous": false,
      "inputs": [],
      "name": "EventClose",
      "type": "event"
    },
    {
      "anonymous": false,
      "inputs": [
        {
          "indexed": true,
          "internalType": "address",
          "name": "account",
          "type": "address"
        },
        {
          "indexed": false,
          "internalType": "uint256",
          "name": "groupId",
          "type": "uint256"
        }
      ],
      "name": "RecipientRegistered",
      "type": "event"
    },
    {
      "anonymous": false,
      "inputs": [],
      "name": "RegistrationOpen",
      "type": "event"
    },
    {
      "anonymous": false,
      "inputs": [
        {
          "indexed": false,
          "internalType": "address",
          "name": "from",
          "type": "address"
        },
        {
          "indexed": false,
          "internalType": "address",
          "name": "to",
          "type": "address"
        }
      ],
      "name": "Transfer",
      "type": "event"
    },
    {
      "anonymous": false,
      "inputs": [
        {
          "indexed": true,
          "internalType": "address",
          "name": "account",
          "type": "address"
        },
        {
          "indexed": false,
          "internalType": "uint256",
          "name": "groupId",
          "type": "uint256"
        }
      ],
      "name": "WinningsClaimed",
      "type": "event"
    },
    {
      "anonymous": false,
      "inputs": [],
      "name": "WinningsClaimingOpen",
      "type": "event"
    },
    {
      "inputs": [
        {
          "internalType": "uint256",
          "name": "groupId",
          "type": "uint256"
        }
      ],
      "name": "amIEligibleRecipient",
      "outputs": [
        {
          "internalType": "bool",
          "name": "",
          "type": "bool"
        }
      ],
      "stateMutability": "view",
      "type": "function",
      "constant": true
    },
    {
      "inputs": [
        {
          "internalType": "uint256",
          "name": "groupId",
          "type": "uint256"
        }
      ],
      "name": "amIRegisteredRecipient",
      "outputs": [
        {
          "internalType": "bool",
          "name": "",
          "type": "bool"
        }
      ],
      "stateMutability": "view",
      "type": "function",
      "constant": true
    },
    {
      "inputs": [],
      "name": "ceoAddress",
      "outputs": [
        {
          "internalType": "address",
          "name": "",
          "type": "address"
        }
      ],
      "stateMutability": "view",
      "type": "function",
      "constant": true
    },
    {
      "inputs": [],
      "name": "cfoAddress",
      "outputs": [
        {
          "internalType": "address",
          "name": "",
          "type": "address"
        }
      ],
      "stateMutability": "view",
      "type": "function",
      "constant": true
    },
    {
      "inputs": [
        {
          "internalType": "uint256",
          "name": "groupId",
          "type": "uint256"
        }
      ],
      "name": "claimWinnings",
      "outputs": [],
      "stateMutability": "nonpayable",
      "type": "function"
    },
    {
      "inputs": [],
      "name": "cooAddress",
      "outputs": [
        {
          "internalType": "address",
          "name": "",
          "type": "address"
        }
      ],
      "stateMutability": "view",
      "type": "function",
      "constant": true
    },
    {
      "inputs": [
        {
          "internalType": "uint256",
          "name": "groupId",
          "type": "uint256"
        }
      ],
      "name": "doIHaveClaimableWinnings",
      "outputs": [
        {
          "internalType": "bool",
          "name": "",
          "type": "bool"
        }
      ],
      "stateMutability": "view",
      "type": "function",
      "constant": true
    },
    {
      "inputs": [],
      "name": "getCFO",
      "outputs": [
        {
          "internalType": "address",
          "name": "",
          "type": "address"
        }
      ],
      "stateMutability": "view",
      "type": "function",
      "constant": true
    },
    {
      "inputs": [],
      "name": "getCOO",
      "outputs": [
        {
          "internalType": "address",
          "name": "",
          "type": "address"
        }
      ],
      "stateMutability": "view",
      "type": "function",
      "constant": true
    },
    {
      "inputs": [
        {
          "internalType": "uint256",
          "name": "groupId",
          "type": "uint256"
        }
      ],
      "name": "getEligibleRecipientAddresses",
      "outputs": [
        {
          "internalType": "address[]",
          "name": "",
          "type": "address[]"
        }
      ],
      "stateMutability": "view",
      "type": "function",
      "constant": true
    },
    {
      "inputs": [
        {
          "internalType": "uint256",
          "name": "groupId",
          "type": "uint256"
        }
      ],
      "name": "getEligibleRecipientIsEligibilityEnabled",
      "outputs": [
        {
          "internalType": "bool[]",
          "name": "",
          "type": "bool[]"
        }
      ],
      "stateMutability": "view",
      "type": "function",
      "constant": true
    },
    {
      "inputs": [
        {
          "internalType": "uint256",
          "name": "groupId",
          "type": "uint256"
        }
      ],
      "name": "getGroupEventData",
      "outputs": [
        {
          "internalType": "enum EthDropBase.EventState",
          "name": "",
          "type": "uint8"
        },
        {
          "internalType": "uint256",
          "name": "",
          "type": "uint256"
        },
        {
          "internalType": "uint256",
          "name": "",
          "type": "uint256"
        },
        {
          "internalType": "uint256",
          "name": "",
          "type": "uint256"
        },
        {
          "internalType": "uint256",
          "name": "",
          "type": "uint256"
        }
      ],
      "stateMutability": "view",
      "type": "function",
      "constant": true
    },
    {
      "inputs": [],
      "name": "getGroupIds",
      "outputs": [
        {
          "internalType": "uint256[]",
          "name": "",
          "type": "uint256[]"
        }
      ],
      "stateMutability": "view",
      "type": "function",
      "constant": true
    },
    {
      "inputs": [],
      "name": "getGroupNames",
      "outputs": [
        {
          "internalType": "string[]",
          "name": "",
          "type": "string[]"
        }
      ],
      "stateMutability": "view",
      "type": "function",
      "constant": true
    },
    {
      "inputs": [
        {
          "internalType": "uint256",
          "name": "groupId",
          "type": "uint256"
        }
      ],
      "name": "getRegisteredRecipients",
      "outputs": [
        {
          "internalType": "address[]",
          "name": "",
          "type": "address[]"
        }
      ],
      "stateMutability": "view",
      "type": "function",
      "constant": true
    },
    {
      "inputs": [],
      "name": "getString",
      "outputs": [
        {
          "internalType": "string",
          "name": "",
          "type": "string"
        }
      ],
      "stateMutability": "view",
      "type": "function",
      "constant": true
    },
    {
      "inputs": [],
      "name": "isCEO",
      "outputs": [
        {
          "internalType": "bool",
          "name": "",
          "type": "bool"
        }
      ],
      "stateMutability": "view",
      "type": "function",
      "constant": true
    },
    {
      "inputs": [],
      "name": "isCFO",
      "outputs": [
        {
          "internalType": "bool",
          "name": "",
          "type": "bool"
        }
      ],
      "stateMutability": "view",
      "type": "function",
      "constant": true
    },
    {
      "inputs": [],
      "name": "isCOO",
      "outputs": [
        {
          "internalType": "bool",
          "name": "",
          "type": "bool"
        }
      ],
      "stateMutability": "view",
      "type": "function",
      "constant": true
    },
    {
      "inputs": [
        {
          "internalType": "address",
          "name": "account",
          "type": "address"
        },
        {
          "internalType": "uint256",
          "name": "groupId",
          "type": "uint256"
        }
      ],
      "name": "isEligibleRecipient",
      "outputs": [
        {
          "internalType": "bool",
          "name": "",
          "type": "bool"
        }
      ],
      "stateMutability": "view",
      "type": "function",
      "constant": true
    },
    {
      "inputs": [],
      "name": "isPaused",
      "outputs": [
        {
          "internalType": "bool",
          "name": "",
          "type": "bool"
        }
      ],
      "stateMutability": "view",
      "type": "function",
      "constant": true
    },
    {
      "inputs": [
        {
          "internalType": "address",
          "name": "account",
          "type": "address"
        },
        {
          "internalType": "uint256",
          "name": "groupId",
          "type": "uint256"
        }
      ],
      "name": "isRegisteredRecipient",
      "outputs": [
        {
          "internalType": "bool",
          "name": "",
          "type": "bool"
        }
      ],
      "stateMutability": "view",
      "type": "function",
      "constant": true
    },
    {
      "inputs": [],
      "name": "pause",
      "outputs": [],
      "stateMutability": "nonpayable",
      "type": "function"
    },
    {
      "inputs": [],
      "name": "paused",
      "outputs": [
        {
          "internalType": "bool",
          "name": "",
          "type": "bool"
        }
      ],
      "stateMutability": "view",
      "type": "function",
      "constant": true
    },
    {
      "inputs": [
        {
          "internalType": "uint256",
          "name": "groupId",
          "type": "uint256"
        }
      ],
      "name": "registerForEvent",
      "outputs": [],
      "stateMutability": "nonpayable",
      "type": "function"
    },
    {
      "inputs": [
        {
          "internalType": "address",
          "name": "_newCEO",
          "type": "address"
        }
      ],
      "name": "setCEO",
      "outputs": [],
      "stateMutability": "nonpayable",
      "type": "function"
    },
    {
      "inputs": [
        {
          "internalType": "address",
          "name": "_newCFO",
          "type": "address"
        }
      ],
      "name": "setCFO",
      "outputs": [],
      "stateMutability": "nonpayable",
      "type": "function"
    },
    {
      "inputs": [
        {
          "internalType": "address",
          "name": "_newCOO",
          "type": "address"
        }
      ],
      "name": "setCOO",
      "outputs": [],
      "stateMutability": "nonpayable",
      "type": "function"
    },
    {
      "inputs": [
        {
          "internalType": "string",
          "name": "_s",
          "type": "string"
        }
      ],
      "name": "setString",
      "outputs": [],
      "stateMutability": "nonpayable",
      "type": "function"
    },
    {
      "inputs": [],
      "name": "stringgg",
      "outputs": [
        {
          "internalType": "string",
          "name": "",
          "type": "string"
        }
      ],
      "stateMutability": "view",
      "type": "function",
      "constant": true
    },
    {
      "inputs": [],
      "name": "unpause",
      "outputs": [
        {
          "internalType": "bool",
          "name": "",
          "type": "bool"
        }
      ],
      "stateMutability": "nonpayable",
      "type": "function"
    },
    {
      "inputs": [],
      "name": "whoami",
      "outputs": [
        {
          "internalType": "address",
          "name": "",
          "type": "address"
        }
      ],
      "stateMutability": "view",
      "type": "function",
      "constant": true
    },
    {
      "inputs": [
        {
          "internalType": "address",
          "name": "account",
          "type": "address"
        },
        {
          "internalType": "uint256",
          "name": "groupId",
          "type": "uint256"
        }
      ],
      "name": "isContributor",
      "outputs": [
        {
          "internalType": "bool",
          "name": "",
          "type": "bool"
        }
      ],
      "stateMutability": "view",
      "type": "function",
      "constant": true
    },
    {
      "inputs": [
        {
          "internalType": "uint256",
          "name": "groupId",
          "type": "uint256"
        }
      ],
      "name": "amIContributor",
      "outputs": [
        {
          "internalType": "bool",
          "name": "",
          "type": "bool"
        }
      ],
      "stateMutability": "view",
      "type": "function",
      "constant": true
    },
    {
      "inputs": [
        {
          "internalType": "uint256",
          "name": "groupId",
          "type": "uint256"
        }
      ],
      "name": "getCurrentSponsorAddress",
      "outputs": [
        {
          "internalType": "address",
          "name": "",
          "type": "address"
        }
      ],
      "stateMutability": "view",
      "type": "function",
      "constant": true
    },
    {
      "inputs": [
        {
          "internalType": "uint256",
          "name": "groupId",
          "type": "uint256"
        }
      ],
      "name": "renounceContributor",
      "outputs": [],
      "stateMutability": "nonpayable",
      "type": "function"
    },
    {
      "inputs": [
        {
          "internalType": "uint256",
          "name": "groupId",
          "type": "uint256"
        },
        {
          "internalType": "string",
          "name": "newContributorName",
          "type": "string"
        },
        {
          "internalType": "string",
          "name": "newContributorImgUrl",
          "type": "string"
        },
        {
          "internalType": "string",
          "name": "newContributorLinkToUrl",
          "type": "string"
        }
      ],
      "name": "updateContributorInfo",
      "outputs": [],
      "stateMutability": "nonpayable",
      "type": "function"
    },
    {
      "inputs": [
        {
          "internalType": "uint256",
          "name": "groupId",
          "type": "uint256"
        }
      ],
      "name": "getContributorInfo",
      "outputs": [
        {
          "internalType": "string",
          "name": "newContributorName",
          "type": "string"
        },
        {
          "internalType": "string",
          "name": "newContributorImgUrl",
          "type": "string"
        },
        {
          "internalType": "string",
          "name": "newContributorLinkToUrl",
          "type": "string"
        }
      ],
      "stateMutability": "view",
      "type": "function",
      "constant": true
    },
    {
      "inputs": [
        {
          "internalType": "uint256",
          "name": "groupId",
          "type": "uint256"
        }
      ],
      "name": "contributeToPot",
      "outputs": [],
      "stateMutability": "payable",
      "type": "function",
      "payable": true
    }
  ],
  "bytecode": "0x60806040526000600360146101000a81548160ff02191690831515021790555060056004556000600b5534801561003557600080fd5b50612dbf806100456000396000f3fe6080604052600436106102305760003560e01c80637d837ce51161012e578063b3b36bb3116100ab578063e82f24e01161006f578063e82f24e014610893578063ee41b592146108af578063f4a02e70146108ec578063f89e9cb914610917578063fc5fd6e41461095457610230565b8063b3b36bb3146107bc578063c02b8b2c146107e7578063c6db509414610812578063d5f016c31461083d578063e513b7a91461086857610230565b80639393ae37116100f25780639393ae37146106d55780639bda879614610700578063aea88a051461073d578063b047fb5014610766578063b187bd261461079157610230565b80637d837ce5146105f05780637fcaf6661461062d5780638182aaf2146106565780638456cb591461069357806389ea642f146106aa57610230565b806344b2983b116101bc5780635c975abb116101805780635c975abb146104f55780635e82c1fc14610520578063674811ca1461055d578063677bd9ff1461059c5780637b936ac2146105c557610230565b806344b2983b146103e85780634635509b146104255780634e0a3379146104665780634f1ef03c1461048f57806355b57ec1146104b857610230565b806327d7874c1161020357806327d7874c146103055780632ba73c151461032e57806338f0b656146103575780633f4ba83a14610394578063406db843146103bf57610230565b80630519ce791461023557806306cc4922146102605780630a0f81681461029d5780630d82ffa0146102c8575b600080fd5b34801561024157600080fd5b5061024a61097f565b60405161025791906127e1565b60405180910390f35b34801561026c57600080fd5b5061028760048036038101906102829190612433565b6109a5565b6040516102949190612884565b60405180910390f35b3480156102a957600080fd5b506102b26109d2565b6040516102bf91906127e1565b60405180910390f35b3480156102d457600080fd5b506102ef60048036038101906102ea9190612433565b6109f8565b6040516102fc91906127e1565b60405180910390f35b34801561031157600080fd5b5061032c6004803603810190610327919061237d565b610a38565b005b34801561033a57600080fd5b506103556004803603810190610350919061237d565b610b10565b005b34801561036357600080fd5b5061037e60048036038101906103799190612433565b610be8565b60405161038b9190612884565b60405180910390f35b3480156103a057600080fd5b506103a9610c15565b6040516103b69190612884565b60405180910390f35b3480156103cb57600080fd5b506103e660048036038101906103e19190612433565b610cba565b005b3480156103f457600080fd5b5061040f600480360381019061040a9190612433565b610e43565b60405161041c91906127fc565b60405180910390f35b34801561043157600080fd5b5061044c60048036038101906104479190612433565b610ee4565b60405161045d95949392919061289f565b60405180910390f35b34801561047257600080fd5b5061048d6004803603810190610488919061237d565b611267565b005b34801561049b57600080fd5b506104b660048036038101906104b19190612433565b611305565b005b3480156104c457600080fd5b506104df60048036038101906104da9190612433565b611341565b6040516104ec919061281e565b60405180910390f35b34801561050157600080fd5b5061050a6113d1565b6040516105179190612884565b60405180910390f35b34801561052c57600080fd5b50610547600480360381019061054291906123aa565b6113e4565b6040516105549190612884565b60405180910390f35b34801561056957600080fd5b50610584600480360381019061057f9190612433565b61146d565b60405161059393929190612914565b60405180910390f35b3480156105a857600080fd5b506105c360048036038101906105be9190612433565b611665565b005b3480156105d157600080fd5b506105da61184a565b6040516105e791906127e1565b60405180910390f35b3480156105fc57600080fd5b50610617600480360381019061061291906123aa565b611874565b6040516106249190612884565b60405180910390f35b34801561063957600080fd5b50610654600480360381019061064f91906123ea565b6118fd565b005b34801561066257600080fd5b5061067d600480360381019061067891906123aa565b611917565b60405161068a9190612884565b60405180910390f35b34801561069f57600080fd5b506106a86119a0565b005b3480156106b657600080fd5b506106bf611ae1565b6040516106cc91906128f2565b60405180910390f35b3480156106e157600080fd5b506106ea611b73565b6040516106f79190612884565b60405180910390f35b34801561070c57600080fd5b5061072760048036038101906107229190612433565b611bcb565b60405161073491906127fc565b60405180910390f35b34801561074957600080fd5b50610764600480360381019061075f9190612460565b611c6c565b005b34801561077257600080fd5b5061077b611d08565b60405161078891906127e1565b60405180910390f35b34801561079d57600080fd5b506107a6611d2e565b6040516107b39190612884565b60405180910390f35b3480156107c857600080fd5b506107d1611d45565b6040516107de91906127e1565b60405180910390f35b3480156107f357600080fd5b506107fc611d4d565b6040516108099190612862565b60405180910390f35b34801561081e57600080fd5b50610827611da5565b60405161083491906128f2565b60405180910390f35b34801561084957600080fd5b50610852611e33565b60405161085f9190612840565b60405180910390f35b34801561087457600080fd5b5061087d611f0c565b60405161088a9190612884565b60405180910390f35b6108ad60048036038101906108a89190612433565b611f64565b005b3480156108bb57600080fd5b506108d660048036038101906108d19190612433565b612001565b6040516108e39190612884565b60405180910390f35b3480156108f857600080fd5b5061090161202e565b60405161090e9190612884565b60405180910390f35b34801561092357600080fd5b5061093e60048036038101906109399190612433565b612086565b60405161094b9190612884565b60405180910390f35b34801561096057600080fd5b50610969612105565b60405161097691906127e1565b60405180910390f35b600260009054906101000a900473ffffffffffffffffffffffffffffffffffffffff1681565b6000600360149054906101000a900460ff16156109c157600080fd5b6109cb33836113e4565b9050919050565b600160009054906101000a900473ffffffffffffffffffffffffffffffffffffffff1681565b600060076000838152602001908152602001600020600a0160009054906101000a900473ffffffffffffffffffffffffffffffffffffffff169050919050565b600160009054906101000a900473ffffffffffffffffffffffffffffffffffffffff1673ffffffffffffffffffffffffffffffffffffffff163373ffffffffffffffffffffffffffffffffffffffff1614610a9257600080fd5b600073ffffffffffffffffffffffffffffffffffffffff168173ffffffffffffffffffffffffffffffffffffffff161415610acc57600080fd5b80600160006101000a81548173ffffffffffffffffffffffffffffffffffffffff021916908373ffffffffffffffffffffffffffffffffffffffff16021790555050565b600160009054906101000a900473ffffffffffffffffffffffffffffffffffffffff1673ffffffffffffffffffffffffffffffffffffffff163373ffffffffffffffffffffffffffffffffffffffff1614610b6a57600080fd5b600073ffffffffffffffffffffffffffffffffffffffff168173ffffffffffffffffffffffffffffffffffffffff161415610ba457600080fd5b80600360006101000a81548173ffffffffffffffffffffffffffffffffffffffff021916908373ffffffffffffffffffffffffffffffffffffffff16021790555050565b6000600360149054906101000a900460ff1615610c0457600080fd5b610c0e3383611874565b9050919050565b6000600160009054906101000a900473ffffffffffffffffffffffffffffffffffffffff1673ffffffffffffffffffffffffffffffffffffffff163373ffffffffffffffffffffffffffffffffffffffff1614610c7157600080fd5b600360149054906101000a900460ff16610c8a57600080fd5b6000600360146101000a81548160ff021916908315150217905550600360149054906101000a900460ff16905090565b80610cc533826113e4565b610cce57600080fd5b600360149054906101000a900460ff1615610ce857600080fd5b60016014600084815260200190815260200160002060003373ffffffffffffffffffffffffffffffffffffffff1673ffffffffffffffffffffffffffffffffffffffff16815260200190815260200160002060006101000a81548160ff02191690831515021790555060156000838152602001908152602001600020339080600181540180825580915050600190039060005260206000200160009091909190916101000a81548173ffffffffffffffffffffffffffffffffffffffff021916908373ffffffffffffffffffffffffffffffffffffffff160217905550600760008381526020019081526020016000206006016000815480929190610dec90612c1d565b91905055503373ffffffffffffffffffffffffffffffffffffffff167f0695e999be8100bdb5bee8612337296508d527eae78c65b8f170eacb5a3b439d83604051610e379190612960565b60405180910390a25050565b606060156000838152602001908152602001600020805480602002602001604051908101604052809291908181526020018280548015610ed857602002820191906000526020600020905b8160009054906101000a900473ffffffffffffffffffffffffffffffffffffffff1673ffffffffffffffffffffffffffffffffffffffff1681526020019060010190808311610e8e575b50505050509050919050565b60008060008060008060076000888152602001908152602001600020604051806101c001604052908160008201548152602001600182018054610f2690612bba565b80601f0160208091040260200160405190810160405280929190818152602001828054610f5290612bba565b8015610f9f5780601f10610f7457610100808354040283529160200191610f9f565b820191906000526020600020905b815481529060010190602001808311610f8257829003601f168201915b505050505081526020016002820160009054906101000a900460ff166003811115610fcd57610fcc612c95565b5b6003811115610fdf57610fde612c95565b5b81526020016003820154815260200160048201548152602001600582015481526020016006820154815260200160078201805461101b90612bba565b80601f016020809104026020016040519081016040528092919081815260200182805461104790612bba565b80156110945780601f1061106957610100808354040283529160200191611094565b820191906000526020600020905b81548152906001019060200180831161107757829003601f168201915b505050505081526020016008820180546110ad90612bba565b80601f01602080910402602001604051908101604052809291908181526020018280546110d990612bba565b80156111265780601f106110fb57610100808354040283529160200191611126565b820191906000526020600020905b81548152906001019060200180831161110957829003601f168201915b5050505050815260200160098201805461113f90612bba565b80601f016020809104026020016040519081016040528092919081815260200182805461116b90612bba565b80156111b85780601f1061118d576101008083540402835291602001916111b8565b820191906000526020600020905b81548152906001019060200180831161119b57829003601f168201915b50505050508152602001600a820160009054906101000a900473ffffffffffffffffffffffffffffffffffffffff1673ffffffffffffffffffffffffffffffffffffffff1673ffffffffffffffffffffffffffffffffffffffff168152602001600b8201548152602001600c8201548152602001600d82015481525050905080604001518160c00151826101600151836101800151846101a00151955095509550955095505091939590929450565b600160009054906101000a900473ffffffffffffffffffffffffffffffffffffffff1673ffffffffffffffffffffffffffffffffffffffff163373ffffffffffffffffffffffffffffffffffffffff16146112c157600080fd5b80600260006101000a81548173ffffffffffffffffffffffffffffffffffffffff021916908373ffffffffffffffffffffffffffffffffffffffff16021790555050565b806113103382611917565b61131957600080fd5b600360149054906101000a900460ff161561133357600080fd5b61133d338361212f565b5050565b6060601360008381526020019081526020016000208054806020026020016040519081016040528092919081815260200182805480156113c557602002820191906000526020600020906000905b82829054906101000a900460ff1615158152602001906001019060208260000104928301926001038202915080841161138f5790505b50505050509050919050565b600360149054906101000a900460ff1681565b6000600360149054906101000a900460ff161561140057600080fd5b600115156011600084815260200190815260200160002060008573ffffffffffffffffffffffffffffffffffffffff1673ffffffffffffffffffffffffffffffffffffffff16815260200190815260200160002060009054906101000a900460ff16151514905092915050565b60608060606007600085815260200190815260200160002060070160076000868152602001908152602001600020600801600760008781526020019081526020016000206009018280546114c090612bba565b80601f01602080910402602001604051908101604052809291908181526020018280546114ec90612bba565b80156115395780601f1061150e57610100808354040283529160200191611539565b820191906000526020600020905b81548152906001019060200180831161151c57829003601f168201915b5050505050925081805461154c90612bba565b80601f016020809104026020016040519081016040528092919081815260200182805461157890612bba565b80156115c55780601f1061159a576101008083540402835291602001916115c5565b820191906000526020600020905b8154815290600101906020018083116115a857829003601f168201915b505050505091508080546115d890612bba565b80601f016020809104026020016040519081016040528092919081815260200182805461160490612bba565b80156116515780601f1061162657610100808354040283529160200191611651565b820191906000526020600020905b81548152906001019060200180831161163457829003601f168201915b505050505090509250925092509193909250565b806116703382611874565b61167957600080fd5b813360011515600c600084815260200190815260200160002060003373ffffffffffffffffffffffffffffffffffffffff1673ffffffffffffffffffffffffffffffffffffffff16815260200190815260200160002060009054906101000a900460ff16151514156116ea57600080fd5b600360149054906101000a900460ff161561170457600080fd5b6001600c600086815260200190815260200160002060003373ffffffffffffffffffffffffffffffffffffffff1673ffffffffffffffffffffffffffffffffffffffff16815260200190815260200160002060006101000a81548160ff02191690831515021790555060076000858152602001908152602001600020600d01600081548092919061179490612c1d565b91905055503373ffffffffffffffffffffffffffffffffffffffff166108fc60076000878152602001908152602001600020600c01549081150290604051600060405180830381858888f193505050501580156117f5573d6000803e3d6000fd5b503373ffffffffffffffffffffffffffffffffffffffff167f1a31e733a172afcf46074b3106c17f0c298e226442682a03c1e99ce256139ec28560405161183c9190612960565b60405180910390a250505050565b6000600260009054906101000a900473ffffffffffffffffffffffffffffffffffffffff16905090565b6000600360149054906101000a900460ff161561189057600080fd5b600115156014600084815260200190815260200160002060008573ffffffffffffffffffffffffffffffffffffffff1673ffffffffffffffffffffffffffffffffffffffff16815260200190815260200160002060009054906101000a900460ff16151514905092915050565b8060009080519060200190611913929190612240565b5050565b6000600360149054906101000a900460ff161561193357600080fd5b600115156010600084815260200190815260200160002060008573ffffffffffffffffffffffffffffffffffffffff1673ffffffffffffffffffffffffffffffffffffffff16815260200190815260200160002060009054906101000a900460ff16151514905092915050565b600360009054906101000a900473ffffffffffffffffffffffffffffffffffffffff1673ffffffffffffffffffffffffffffffffffffffff163373ffffffffffffffffffffffffffffffffffffffff161480611a495750600160009054906101000a900473ffffffffffffffffffffffffffffffffffffffff1673ffffffffffffffffffffffffffffffffffffffff163373ffffffffffffffffffffffffffffffffffffffff16145b80611aa15750600260009054906101000a900473ffffffffffffffffffffffffffffffffffffffff1673ffffffffffffffffffffffffffffffffffffffff163373ffffffffffffffffffffffffffffffffffffffff16145b611aaa57600080fd5b600360149054906101000a900460ff1615611ac457600080fd5b6001600360146101000a81548160ff021916908315150217905550565b606060008054611af090612bba565b80601f0160208091040260200160405190810160405280929190818152602001828054611b1c90612bba565b8015611b695780601f10611b3e57610100808354040283529160200191611b69565b820191906000526020600020905b815481529060010190602001808311611b4c57829003601f168201915b5050505050905090565b6000600260009054906101000a900473ffffffffffffffffffffffffffffffffffffffff1673ffffffffffffffffffffffffffffffffffffffff163373ffffffffffffffffffffffffffffffffffffffff1614905090565b606060126000838152602001908152602001600020805480602002602001604051908101604052809291908181526020018280548015611c6057602002820191906000526020600020905b8160009054906101000a900473ffffffffffffffffffffffffffffffffffffffff1673ffffffffffffffffffffffffffffffffffffffff1681526020019060010190808311611c16575b50505050509050919050565b83611c773382611917565b611c8057600080fd5b83600760008781526020019081526020016000206007019080519060200190611caa929190612240565b5082600760008781526020019081526020016000206008019080519060200190611cd5929190612240565b5081600760008781526020019081526020016000206009019080519060200190611d00929190612240565b505050505050565b600360009054906101000a900473ffffffffffffffffffffffffffffffffffffffff1681565b6000600360149054906101000a900460ff16905090565b600033905090565b60606005805480602002602001604051908101604052809291908181526020018280548015611d9b57602002820191906000526020600020905b815481526020019060010190808311611d87575b5050505050905090565b60008054611db290612bba565b80601f0160208091040260200160405190810160405280929190818152602001828054611dde90612bba565b8015611e2b5780601f10611e0057610100808354040283529160200191611e2b565b820191906000526020600020905b815481529060010190602001808311611e0e57829003601f168201915b505050505081565b60606006805480602002602001604051908101604052809291908181526020016000905b82821015611f03578382906000526020600020018054611e7690612bba565b80601f0160208091040260200160405190810160405280929190818152602001828054611ea290612bba565b8015611eef5780601f10611ec457610100808354040283529160200191611eef565b820191906000526020600020905b815481529060010190602001808311611ed257829003601f168201915b505050505081526020019060010190611e57565b50505050905090565b6000600160009054906101000a900473ffffffffffffffffffffffffffffffffffffffff1673ffffffffffffffffffffffffffffffffffffffff163373ffffffffffffffffffffffffffffffffffffffff1614905090565b80611f6f3382611917565b611f7857600080fd5b600360149054906101000a900460ff1615611f9257600080fd5b3460076000848152602001908152602001600020600b01819055503373ffffffffffffffffffffffffffffffffffffffff167f5dc1fe5ab986a852c4eda8e8bb94247d13307065c593fb83f1a09be2736793828334604051611ff592919061297b565b60405180910390a25050565b6000600360149054906101000a900460ff161561201d57600080fd5b6120273383611917565b9050919050565b6000600360009054906101000a900473ffffffffffffffffffffffffffffffffffffffff1673ffffffffffffffffffffffffffffffffffffffff163373ffffffffffffffffffffffffffffffffffffffff1614905090565b60006120923383611874565b61209f5760009050612100565b600c600083815260200190815260200160002060003373ffffffffffffffffffffffffffffffffffffffff1673ffffffffffffffffffffffffffffffffffffffff16815260200190815260200160002060009054906101000a900460ff1690505b919050565b6000600360009054906101000a900473ffffffffffffffffffffffffffffffffffffffff16905090565b60006010600083815260200190815260200160002060008473ffffffffffffffffffffffffffffffffffffffff1673ffffffffffffffffffffffffffffffffffffffff16815260200190815260200160002060006101000a81548160ff021916908315150217905550600060076000838152602001908152602001600020600a0160006101000a81548173ffffffffffffffffffffffffffffffffffffffff021916908373ffffffffffffffffffffffffffffffffffffffff1602179055508173ffffffffffffffffffffffffffffffffffffffff167fda111d7eb5d5b2033c4ffad00cd7cd42f45af2813bee1a69e65f26d90ea15f0b826040516122349190612960565b60405180910390a25050565b82805461224c90612bba565b90600052602060002090601f01602090048101928261226e57600085556122b5565b82601f1061228757805160ff19168380011785556122b5565b828001600101855582156122b5579182015b828111156122b4578251825591602001919060010190612299565b5b5090506122c291906122c6565b5090565b5b808211156122df5760008160009055506001016122c7565b5090565b60006122f66122f1846129c9565b6129a4565b90508281526020810184848401111561231257612311612d27565b5b61231d848285612b78565b509392505050565b60008135905061233481612d5b565b92915050565b600082601f83011261234f5761234e612d22565b5b813561235f8482602086016122e3565b91505092915050565b60008135905061237781612d72565b92915050565b60006020828403121561239357612392612d31565b5b60006123a184828501612325565b91505092915050565b600080604083850312156123c1576123c0612d31565b5b60006123cf85828601612325565b92505060206123e085828601612368565b9150509250929050565b600060208284031215612400576123ff612d31565b5b600082013567ffffffffffffffff81111561241e5761241d612d2c565b5b61242a8482850161233a565b91505092915050565b60006020828403121561244957612448612d31565b5b600061245784828501612368565b91505092915050565b6000806000806080858703121561247a57612479612d31565b5b600061248887828801612368565b945050602085013567ffffffffffffffff8111156124a9576124a8612d2c565b5b6124b58782880161233a565b935050604085013567ffffffffffffffff8111156124d6576124d5612d2c565b5b6124e28782880161233a565b925050606085013567ffffffffffffffff81111561250357612502612d2c565b5b61250f8782880161233a565b91505092959194509250565b60006125278383612577565b60208301905092915050565b600061253f8383612724565b60208301905092915050565b60006125578383612751565b905092915050565b600061256b83836127c3565b60208301905092915050565b61258081612b0b565b82525050565b61258f81612b0b565b82525050565b60006125a082612a3a565b6125aa8185612aa5565b93506125b5836129fa565b8060005b838110156125e65781516125cd888261251b565b97506125d883612a71565b9250506001810190506125b9565b5085935050505092915050565b60006125fe82612a45565b6126088185612ab6565b935061261383612a0a565b8060005b8381101561264457815161262b8882612533565b975061263683612a7e565b925050600181019050612617565b5085935050505092915050565b600061265c82612a50565b6126668185612ac7565b93508360208202850161267885612a1a565b8060005b858110156126b45784840389528151612695858261254b565b94506126a083612a8b565b925060208a0199505060018101905061267c565b50829750879550505050505092915050565b60006126d182612a5b565b6126db8185612ad8565b93506126e683612a2a565b8060005b838110156127175781516126fe888261255f565b975061270983612a98565b9250506001810190506126ea565b5085935050505092915050565b61272d81612b1d565b82525050565b61273c81612b1d565b82525050565b61274b81612b66565b82525050565b600061275c82612a66565b6127668185612ae9565b9350612776818560208601612b87565b61277f81612d36565b840191505092915050565b600061279582612a66565b61279f8185612afa565b93506127af818560208601612b87565b6127b881612d36565b840191505092915050565b6127cc81612b5c565b82525050565b6127db81612b5c565b82525050565b60006020820190506127f66000830184612586565b92915050565b600060208201905081810360008301526128168184612595565b905092915050565b6000602082019050818103600083015261283881846125f3565b905092915050565b6000602082019050818103600083015261285a8184612651565b905092915050565b6000602082019050818103600083015261287c81846126c6565b905092915050565b60006020820190506128996000830184612733565b92915050565b600060a0820190506128b46000830188612742565b6128c160208301876127d2565b6128ce60408301866127d2565b6128db60608301856127d2565b6128e860808301846127d2565b9695505050505050565b6000602082019050818103600083015261290c818461278a565b905092915050565b6000606082019050818103600083015261292e818661278a565b90508181036020830152612942818561278a565b90508181036040830152612956818461278a565b9050949350505050565b600060208201905061297560008301846127d2565b92915050565b600060408201905061299060008301856127d2565b61299d60208301846127d2565b9392505050565b60006129ae6129bf565b90506129ba8282612bec565b919050565b6000604051905090565b600067ffffffffffffffff8211156129e4576129e3612cf3565b5b6129ed82612d36565b9050602081019050919050565b6000819050602082019050919050565b6000819050602082019050919050565b6000819050602082019050919050565b6000819050602082019050919050565b600081519050919050565b600081519050919050565b600081519050919050565b600081519050919050565b600081519050919050565b6000602082019050919050565b6000602082019050919050565b6000602082019050919050565b6000602082019050919050565b600082825260208201905092915050565b600082825260208201905092915050565b600082825260208201905092915050565b600082825260208201905092915050565b600082825260208201905092915050565b600082825260208201905092915050565b6000612b1682612b3c565b9050919050565b60008115159050919050565b6000819050612b3782612d47565b919050565b600073ffffffffffffffffffffffffffffffffffffffff82169050919050565b6000819050919050565b6000612b7182612b29565b9050919050565b82818337600083830152505050565b60005b83811015612ba5578082015181840152602081019050612b8a565b83811115612bb4576000848401525b50505050565b60006002820490506001821680612bd257607f821691505b60208210811415612be657612be5612cc4565b5b50919050565b612bf582612d36565b810181811067ffffffffffffffff82111715612c1457612c13612cf3565b5b80604052505050565b6000612c2882612b5c565b91507fffffffffffffffffffffffffffffffffffffffffffffffffffffffffffffffff821415612c5b57612c5a612c66565b5b600182019050919050565b7f4e487b7100000000000000000000000000000000000000000000000000000000600052601160045260246000fd5b7f4e487b7100000000000000000000000000000000000000000000000000000000600052602160045260246000fd5b7f4e487b7100000000000000000000000000000000000000000000000000000000600052602260045260246000fd5b7f4e487b7100000000000000000000000000000000000000000000000000000000600052604160045260246000fd5b600080fd5b600080fd5b600080fd5b600080fd5b6000601f19601f8301169050919050565b60048110612d5857612d57612c95565b5b50565b612d6481612b0b565b8114612d6f57600080fd5b50565b612d7b81612b5c565b8114612d8657600080fd5b5056fea26469706673582212206c51b3856f8798f444991cebf08e09bd390c6d0527949fd28a2f7ce8d32bf4cf64736f6c63430008060033",
  "immutableReferences": {},
  "source": "// SPDX-License-Identifier: MIT\npragma solidity ^0.8.0;\n\nimport \"./RecipientsManager.sol\";\n\ncontract ContributorManager is RecipientsManager {\n    event ContributorAdded(address indexed account, uint256 groupId);\n    event ContributorRemoved(address indexed account, uint256 groupId);\n\n    event ContributionMade(\n        address indexed account,\n        uint256 groupId,\n        uint256 amount\n    );\n\n    constructor() {}\n\n    modifier onlyContributor(uint256 groupId) {\n        require(isContributor(msg.sender, groupId));\n        _;\n    }\n\n    function isContributor(address account, uint256 groupId)\n        public\n        view\n        whenNotPaused\n        returns (bool)\n    {\n        return contributors[groupId][account] == true;\n    }\n\n    function amIContributor(uint256 groupId)\n        external\n        view\n        whenNotPaused\n        returns (bool)\n    {\n        return isContributor(msg.sender, groupId);\n    }\n\n    function getCurrentSponsorAddress(uint256 groupId)\n        external\n        view\n        returns (address)\n    {\n        return currentEvents[groupId].currentContributor;\n    }\n\n    function renounceContributor(uint256 groupId)\n        external\n        onlyContributor(groupId)\n        whenNotPaused\n    {\n        _removeContributor(msg.sender, groupId);\n    }\n\n    function _changeContributor(address account, uint256 groupId) internal {\n        contributors[groupId][account] = true;\n\n        currentEvents[groupId].currentContributor = account;\n        emit ContributorAdded(account, groupId);\n    }\n\n    function _removeContributor(address account, uint256 groupId) internal {\n        contributors[groupId][account] = false;\n\n        currentEvents[groupId].currentContributor = address(0);\n        emit ContributorRemoved(account, groupId);\n    }\n\n    function updateContributorInfo(\n        uint256 groupId,\n        string memory newContributorName,\n        string memory newContributorImgUrl,\n        string memory newContributorLinkToUrl\n    ) external onlyContributor(groupId) {\n        currentEvents[groupId].sponsorName = newContributorName;\n        currentEvents[groupId].sponsorImageUrl = newContributorImgUrl;\n        currentEvents[groupId].sponsorLinkToUrl = newContributorLinkToUrl;\n\n        // emit contributor info updated\n    }\n    function getContributorInfo(uint groupId) external view returns (\n        string memory newContributorName,\n        string memory newContributorImgUrl,\n        string memory newContributorLinkToUrl\n    ) {\n        return (\n        currentEvents[groupId].sponsorName,\n        currentEvents[groupId].sponsorImageUrl,\n        currentEvents[groupId].sponsorLinkToUrl\n        );\n    }\n\n    function contributeToPot(uint256 groupId)\n        external\n        payable\n        onlyContributor(groupId)\n        whenNotPaused\n    {\n        currentEvents[groupId].totalAmountContributed = msg.value;\n        emit ContributionMade(msg.sender, groupId, msg.value);\n    }\n}\n",
  "sourcePath": "/Users/jim/Git-Projects/EthDrop/contracts/roles/ContributorManager.sol",
  "compiler": {
    "name": "solc",
    "version": "0.8.6+commit.11564f7e.Emscripten.clang"
  },
  "schemaVersion": "3.4.1",
  "updatedAt": "2021-07-25T04:09:55.342Z",
  "networkType": "ethereum",
  "devdoc": {
    "kind": "dev",
    "methods": {
      "pause()": {
        "details": "Called by any \"C-level\" role to pause the contract. Used only when  a bug or exploit is detected and we need to limit damage."
      },
      "setCEO(address)": {
        "details": "Assigns a new address to act as the CEO. Only available to the current CEO.",
        "params": {
          "_newCEO": "The address of the new CEO"
        }
      },
      "setCFO(address)": {
        "details": "Assigns a new address to act as the CFO. Only available to the current CEO.",
        "params": {
          "_newCFO": "The address of the new CFO"
        }
      },
      "setCOO(address)": {
        "details": "Assigns a new address to act as the COO. Only available to the current CEO.",
        "params": {
          "_newCOO": "The address of the new COO"
        }
      },
      "unpause()": {
        "details": "Unpauses the smart contract. Can only be called by the CEO, since  one reason we may pause the contract is when CFO or COO accounts are  compromised."
      }
    },
    "version": 1
  },
  "userdoc": {
    "kind": "user",
    "methods": {
      "unpause()": {
        "notice": "This is public rather than external so it can be called by  derived contracts."
      }
    },
    "version": 1
  }
}