{
  "contractName": "ContributorManager",
  "abi": [
    {
      "inputs": [],
      "stateMutability": "nonpayable",
      "type": "constructor"
    },
    {
      "anonymous": false,
      "inputs": [
        {
          "indexed": false,
          "internalType": "bool",
          "name": "isPaused",
          "type": "bool"
        }
      ],
      "name": "AppPaused",
      "type": "event"
    },
    {
      "anonymous": false,
      "inputs": [],
      "name": "CfoUpdated",
      "type": "event"
    },
    {
      "anonymous": false,
      "inputs": [
        {
          "indexed": false,
          "internalType": "address",
          "name": "newContract",
          "type": "address"
        }
      ],
      "name": "ContractUpgrade",
      "type": "event"
    },
    {
      "anonymous": false,
      "inputs": [
        {
          "indexed": true,
          "internalType": "address",
          "name": "account",
          "type": "address"
        },
        {
          "indexed": false,
          "internalType": "uint256",
          "name": "groupId",
          "type": "uint256"
        },
        {
          "indexed": false,
          "internalType": "uint256",
          "name": "amount",
          "type": "uint256"
        }
      ],
      "name": "ContributionMade",
      "type": "event"
    },
    {
      "anonymous": false,
      "inputs": [
        {
          "indexed": true,
          "internalType": "address",
          "name": "account",
          "type": "address"
        },
        {
          "indexed": false,
          "internalType": "uint256",
          "name": "groupId",
          "type": "uint256"
        }
      ],
      "name": "ContributorAdded",
      "type": "event"
    },
    {
      "anonymous": false,
      "inputs": [
        {
          "indexed": false,
          "internalType": "uint256",
          "name": "groupId",
          "type": "uint256"
        },
        {
          "indexed": false,
          "internalType": "address",
          "name": "newContributor",
          "type": "address"
        }
      ],
      "name": "ContributorAddressUpdated",
      "type": "event"
    },
    {
      "anonymous": false,
      "inputs": [
        {
          "indexed": false,
          "internalType": "uint256",
          "name": "groupId",
          "type": "uint256"
        },
        {
          "indexed": false,
          "internalType": "string",
          "name": "sponsorName",
          "type": "string"
        },
        {
          "indexed": false,
          "internalType": "string",
          "name": "imgUrl",
          "type": "string"
        },
        {
          "indexed": false,
          "internalType": "string",
          "name": "imgLinkToUrl",
          "type": "string"
        }
      ],
      "name": "ContributorInfoUpdated",
      "type": "event"
    },
    {
      "anonymous": false,
      "inputs": [
        {
          "indexed": true,
          "internalType": "address",
          "name": "account",
          "type": "address"
        },
        {
          "indexed": false,
          "internalType": "uint256",
          "name": "groupId",
          "type": "uint256"
        }
      ],
      "name": "ContributorRemoved",
      "type": "event"
    },
    {
      "anonymous": false,
      "inputs": [],
      "name": "CooUpdated",
      "type": "event"
    },
    {
      "anonymous": false,
      "inputs": [
        {
          "indexed": true,
          "internalType": "address",
          "name": "account",
          "type": "address"
        },
        {
          "indexed": false,
          "internalType": "uint256",
          "name": "groupId",
          "type": "uint256"
        }
      ],
      "name": "EligibleRecipientAdded",
      "type": "event"
    },
    {
      "anonymous": false,
      "inputs": [
        {
          "indexed": true,
          "internalType": "address",
          "name": "account",
          "type": "address"
        },
        {
          "indexed": false,
          "internalType": "uint256",
          "name": "groupId",
          "type": "uint256"
        }
      ],
      "name": "EligibleRecipientRemoved",
      "type": "event"
    },
    {
      "anonymous": false,
      "inputs": [],
      "name": "EventClose",
      "type": "event"
    },
    {
      "anonymous": false,
      "inputs": [
        {
          "indexed": true,
          "internalType": "address",
          "name": "account",
          "type": "address"
        },
        {
          "indexed": false,
          "internalType": "uint256",
          "name": "groupId",
          "type": "uint256"
        }
      ],
      "name": "RecipientRegistered",
      "type": "event"
    },
    {
      "anonymous": false,
      "inputs": [],
      "name": "RegistrationOpen",
      "type": "event"
    },
    {
      "anonymous": false,
      "inputs": [
        {
          "indexed": false,
          "internalType": "address",
          "name": "from",
          "type": "address"
        },
        {
          "indexed": false,
          "internalType": "address",
          "name": "to",
          "type": "address"
        }
      ],
      "name": "Transfer",
      "type": "event"
    },
    {
      "anonymous": false,
      "inputs": [
        {
          "indexed": true,
          "internalType": "address",
          "name": "account",
          "type": "address"
        },
        {
          "indexed": false,
          "internalType": "uint256",
          "name": "groupId",
          "type": "uint256"
        }
      ],
      "name": "WinningsClaimed",
      "type": "event"
    },
    {
      "anonymous": false,
      "inputs": [],
      "name": "WinningsClaimingOpen",
      "type": "event"
    },
    {
      "inputs": [
        {
          "internalType": "uint256",
          "name": "groupId",
          "type": "uint256"
        }
      ],
      "name": "amIEligibleRecipient",
      "outputs": [
        {
          "internalType": "bool",
          "name": "",
          "type": "bool"
        }
      ],
      "stateMutability": "view",
      "type": "function",
      "constant": true
    },
    {
      "inputs": [
        {
          "internalType": "uint256",
          "name": "groupId",
          "type": "uint256"
        }
      ],
      "name": "amIRegisteredRecipient",
      "outputs": [
        {
          "internalType": "bool",
          "name": "",
          "type": "bool"
        }
      ],
      "stateMutability": "view",
      "type": "function",
      "constant": true
    },
    {
      "inputs": [],
      "name": "ceoAddress",
      "outputs": [
        {
          "internalType": "address",
          "name": "",
          "type": "address"
        }
      ],
      "stateMutability": "view",
      "type": "function",
      "constant": true
    },
    {
      "inputs": [],
      "name": "cfoAddress",
      "outputs": [
        {
          "internalType": "address",
          "name": "",
          "type": "address"
        }
      ],
      "stateMutability": "view",
      "type": "function",
      "constant": true
    },
    {
      "inputs": [
        {
          "internalType": "uint256",
          "name": "groupId",
          "type": "uint256"
        }
      ],
      "name": "claimWinnings",
      "outputs": [],
      "stateMutability": "nonpayable",
      "type": "function"
    },
    {
      "inputs": [],
      "name": "cooAddress",
      "outputs": [
        {
          "internalType": "address",
          "name": "",
          "type": "address"
        }
      ],
      "stateMutability": "view",
      "type": "function",
      "constant": true
    },
    {
      "inputs": [
        {
          "internalType": "uint256",
          "name": "groupId",
          "type": "uint256"
        }
      ],
      "name": "doIHaveClaimableWinnings",
      "outputs": [
        {
          "internalType": "bool",
          "name": "",
          "type": "bool"
        }
      ],
      "stateMutability": "view",
      "type": "function",
      "constant": true
    },
    {
      "inputs": [],
      "name": "getCFO",
      "outputs": [
        {
          "internalType": "address",
          "name": "",
          "type": "address"
        }
      ],
      "stateMutability": "view",
      "type": "function",
      "constant": true
    },
    {
      "inputs": [],
      "name": "getCOO",
      "outputs": [
        {
          "internalType": "address",
          "name": "",
          "type": "address"
        }
      ],
      "stateMutability": "view",
      "type": "function",
      "constant": true
    },
    {
      "inputs": [
        {
          "internalType": "uint256",
          "name": "groupId",
          "type": "uint256"
        }
      ],
      "name": "getEligibleRecipientAddresses",
      "outputs": [
        {
          "internalType": "address[]",
          "name": "",
          "type": "address[]"
        }
      ],
      "stateMutability": "view",
      "type": "function",
      "constant": true
    },
    {
      "inputs": [
        {
          "internalType": "uint256",
          "name": "groupId",
          "type": "uint256"
        }
      ],
      "name": "getEligibleRecipientIsEligibilityEnabled",
      "outputs": [
        {
          "internalType": "bool[]",
          "name": "",
          "type": "bool[]"
        }
      ],
      "stateMutability": "view",
      "type": "function",
      "constant": true
    },
    {
      "inputs": [
        {
          "internalType": "uint256",
          "name": "groupId",
          "type": "uint256"
        }
      ],
      "name": "getEligibleRecipientNames",
      "outputs": [
        {
          "internalType": "string[]",
          "name": "",
          "type": "string[]"
        }
      ],
      "stateMutability": "view",
      "type": "function",
      "constant": true
    },
    {
      "inputs": [
        {
          "internalType": "uint256",
          "name": "groupId",
          "type": "uint256"
        }
      ],
      "name": "getGroupEventData",
      "outputs": [
        {
          "internalType": "enum EthDropBase.EventState",
          "name": "",
          "type": "uint8"
        },
        {
          "internalType": "uint256",
          "name": "",
          "type": "uint256"
        },
        {
          "internalType": "uint256",
          "name": "",
          "type": "uint256"
        },
        {
          "internalType": "uint256",
          "name": "",
          "type": "uint256"
        },
        {
          "internalType": "uint256",
          "name": "",
          "type": "uint256"
        }
      ],
      "stateMutability": "view",
      "type": "function",
      "constant": true
    },
    {
      "inputs": [],
      "name": "getGroupIds",
      "outputs": [
        {
          "internalType": "uint256[]",
          "name": "",
          "type": "uint256[]"
        }
      ],
      "stateMutability": "view",
      "type": "function",
      "constant": true
    },
    {
      "inputs": [],
      "name": "getGroupNames",
      "outputs": [
        {
          "internalType": "string[]",
          "name": "",
          "type": "string[]"
        }
      ],
      "stateMutability": "view",
      "type": "function",
      "constant": true
    },
    {
      "inputs": [
        {
          "internalType": "uint256",
          "name": "groupId",
          "type": "uint256"
        }
      ],
      "name": "getRegisteredRecipientNames",
      "outputs": [
        {
          "internalType": "string[]",
          "name": "",
          "type": "string[]"
        }
      ],
      "stateMutability": "view",
      "type": "function",
      "constant": true
    },
    {
      "inputs": [
        {
          "internalType": "uint256",
          "name": "groupId",
          "type": "uint256"
        }
      ],
      "name": "getRegisteredRecipients",
      "outputs": [
        {
          "internalType": "address[]",
          "name": "",
          "type": "address[]"
        }
      ],
      "stateMutability": "view",
      "type": "function",
      "constant": true
    },
    {
      "inputs": [],
      "name": "getString",
      "outputs": [
        {
          "internalType": "string",
          "name": "",
          "type": "string"
        }
      ],
      "stateMutability": "view",
      "type": "function",
      "constant": true
    },
    {
      "inputs": [],
      "name": "isCEO",
      "outputs": [
        {
          "internalType": "bool",
          "name": "",
          "type": "bool"
        }
      ],
      "stateMutability": "view",
      "type": "function",
      "constant": true
    },
    {
      "inputs": [],
      "name": "isCFO",
      "outputs": [
        {
          "internalType": "bool",
          "name": "",
          "type": "bool"
        }
      ],
      "stateMutability": "view",
      "type": "function",
      "constant": true
    },
    {
      "inputs": [],
      "name": "isCOO",
      "outputs": [
        {
          "internalType": "bool",
          "name": "",
          "type": "bool"
        }
      ],
      "stateMutability": "view",
      "type": "function",
      "constant": true
    },
    {
      "inputs": [
        {
          "internalType": "address",
          "name": "account",
          "type": "address"
        },
        {
          "internalType": "uint256",
          "name": "groupId",
          "type": "uint256"
        }
      ],
      "name": "isEligibleRecipient",
      "outputs": [
        {
          "internalType": "bool",
          "name": "",
          "type": "bool"
        }
      ],
      "stateMutability": "view",
      "type": "function",
      "constant": true
    },
    {
      "inputs": [],
      "name": "isPaused",
      "outputs": [
        {
          "internalType": "bool",
          "name": "",
          "type": "bool"
        }
      ],
      "stateMutability": "view",
      "type": "function",
      "constant": true
    },
    {
      "inputs": [
        {
          "internalType": "address",
          "name": "account",
          "type": "address"
        },
        {
          "internalType": "uint256",
          "name": "groupId",
          "type": "uint256"
        }
      ],
      "name": "isRegisteredRecipient",
      "outputs": [
        {
          "internalType": "bool",
          "name": "",
          "type": "bool"
        }
      ],
      "stateMutability": "view",
      "type": "function",
      "constant": true
    },
    {
      "inputs": [],
      "name": "pause",
      "outputs": [],
      "stateMutability": "nonpayable",
      "type": "function"
    },
    {
      "inputs": [],
      "name": "paused",
      "outputs": [
        {
          "internalType": "bool",
          "name": "",
          "type": "bool"
        }
      ],
      "stateMutability": "view",
      "type": "function",
      "constant": true
    },
    {
      "inputs": [
        {
          "internalType": "uint256",
          "name": "groupId",
          "type": "uint256"
        }
      ],
      "name": "registerForEvent",
      "outputs": [],
      "stateMutability": "nonpayable",
      "type": "function"
    },
    {
      "inputs": [
        {
          "internalType": "address",
          "name": "_newCEO",
          "type": "address"
        }
      ],
      "name": "setCEO",
      "outputs": [],
      "stateMutability": "nonpayable",
      "type": "function"
    },
    {
      "inputs": [
        {
          "internalType": "address",
          "name": "_newCFO",
          "type": "address"
        }
      ],
      "name": "setCFO",
      "outputs": [],
      "stateMutability": "nonpayable",
      "type": "function"
    },
    {
      "inputs": [
        {
          "internalType": "address",
          "name": "_newCOO",
          "type": "address"
        }
      ],
      "name": "setCOO",
      "outputs": [],
      "stateMutability": "nonpayable",
      "type": "function"
    },
    {
      "inputs": [
        {
          "internalType": "string",
          "name": "_s",
          "type": "string"
        }
      ],
      "name": "setString",
      "outputs": [],
      "stateMutability": "nonpayable",
      "type": "function"
    },
    {
      "inputs": [],
      "name": "stringgg",
      "outputs": [
        {
          "internalType": "string",
          "name": "",
          "type": "string"
        }
      ],
      "stateMutability": "view",
      "type": "function",
      "constant": true
    },
    {
      "inputs": [],
      "name": "unpause",
      "outputs": [
        {
          "internalType": "bool",
          "name": "",
          "type": "bool"
        }
      ],
      "stateMutability": "nonpayable",
      "type": "function"
    },
    {
      "inputs": [],
      "name": "whoami",
      "outputs": [
        {
          "internalType": "address",
          "name": "",
          "type": "address"
        }
      ],
      "stateMutability": "view",
      "type": "function",
      "constant": true
    },
    {
      "inputs": [
        {
          "internalType": "address",
          "name": "account",
          "type": "address"
        },
        {
          "internalType": "uint256",
          "name": "groupId",
          "type": "uint256"
        }
      ],
      "name": "isContributor",
      "outputs": [
        {
          "internalType": "bool",
          "name": "",
          "type": "bool"
        }
      ],
      "stateMutability": "view",
      "type": "function",
      "constant": true
    },
    {
      "inputs": [
        {
          "internalType": "uint256",
          "name": "groupId",
          "type": "uint256"
        }
      ],
      "name": "amIContributor",
      "outputs": [
        {
          "internalType": "bool",
          "name": "",
          "type": "bool"
        }
      ],
      "stateMutability": "view",
      "type": "function",
      "constant": true
    },
    {
      "inputs": [
        {
          "internalType": "uint256",
          "name": "groupId",
          "type": "uint256"
        }
      ],
      "name": "getCurrentSponsorAddress",
      "outputs": [
        {
          "internalType": "address",
          "name": "",
          "type": "address"
        }
      ],
      "stateMutability": "view",
      "type": "function",
      "constant": true
    },
    {
      "inputs": [
        {
          "internalType": "uint256",
          "name": "groupId",
          "type": "uint256"
        },
        {
          "internalType": "string",
          "name": "newContributorName",
          "type": "string"
        },
        {
          "internalType": "string",
          "name": "newContributorImgUrl",
          "type": "string"
        },
        {
          "internalType": "string",
          "name": "newContributorLinkToUrl",
          "type": "string"
        }
      ],
      "name": "updateContributorInfo",
      "outputs": [],
      "stateMutability": "nonpayable",
      "type": "function"
    },
    {
      "inputs": [
        {
          "internalType": "uint256",
          "name": "groupId",
          "type": "uint256"
        }
      ],
      "name": "getContributorInfo",
      "outputs": [
        {
          "internalType": "string",
          "name": "newContributorName",
          "type": "string"
        },
        {
          "internalType": "string",
          "name": "newContributorImgUrl",
          "type": "string"
        },
        {
          "internalType": "string",
          "name": "newContributorLinkToUrl",
          "type": "string"
        }
      ],
      "stateMutability": "view",
      "type": "function",
      "constant": true
    },
    {
      "inputs": [
        {
          "internalType": "uint256",
          "name": "groupId",
          "type": "uint256"
        }
      ],
      "name": "contributeToPot",
      "outputs": [],
      "stateMutability": "payable",
      "type": "function",
      "payable": true
    }
  ],
  "bytecode": "0x608060405233600160006101000a81548173ffffffffffffffffffffffffffffffffffffffff021916908373ffffffffffffffffffffffffffffffffffffffff1602179055506000600360146101000a81548160ff0219169083151502179055506005805534801561007057600080fd5b50613275806100806000396000f3fe60806040526004361061023b5760003560e01c80637d837ce51161012e578063b3b36bb3116100ab578063e82f24e01161006f578063e82f24e0146108ef578063ee41b5921461090b578063f4a02e7014610948578063f89e9cb914610973578063fc5fd6e4146109b05761023b565b8063b3b36bb314610818578063c02b8b2c14610843578063c6db50941461086e578063d5f016c314610899578063e513b7a9146108c45761023b565b80639393ae37116100f25780639393ae37146107315780639bda87961461075c578063aea88a0514610799578063b047fb50146107c2578063b187bd26146107ed5761023b565b80637d837ce51461064c5780637fcaf666146106895780638182aaf2146106b25780638456cb59146106ef57806389ea642f146107065761023b565b806344b2983b116101bc5780635c975abb116101805780635c975abb146105515780635e82c1fc1461057c578063674811ca146105b9578063677bd9ff146105f85780637b936ac2146106215761023b565b806344b2983b14610430578063454432e21461046d5780634635509b146104aa5780634e0a3379146104eb57806355b57ec1146105145761023b565b806327d7874c1161020357806327d7874c1461034d5780632ba73c151461037657806338f0b6561461039f5780633f4ba83a146103dc578063406db843146104075761023b565b80630519ce791461024057806306cc49221461026b57806307bfa330146102a85780630a0f8168146102e55780630d82ffa014610310575b600080fd5b34801561024c57600080fd5b506102556109db565b6040516102629190612bd2565b60405180910390f35b34801561027757600080fd5b50610292600480360381019061028d91906127a4565b610a01565b60405161029f9190612c75565b60405180910390f35b3480156102b457600080fd5b506102cf60048036038101906102ca91906127a4565b610a2e565b6040516102dc9190612c31565b60405180910390f35b3480156102f157600080fd5b506102fa610b1a565b6040516103079190612bd2565b60405180910390f35b34801561031c57600080fd5b50610337600480360381019061033291906127a4565b610b40565b6040516103449190612bd2565b60405180910390f35b34801561035957600080fd5b50610374600480360381019061036f91906126ee565b610b80565b005b34801561038257600080fd5b5061039d600480360381019061039891906126ee565b610c58565b005b3480156103ab57600080fd5b506103c660048036038101906103c191906127a4565b610d5c565b6040516103d39190612c75565b60405180910390f35b3480156103e857600080fd5b506103f1610d89565b6040516103fe9190612c75565b60405180910390f35b34801561041357600080fd5b5061042e600480360381019061042991906127a4565b610e2e565b005b34801561043c57600080fd5b50610457600480360381019061045291906127a4565b6110e2565b6040516104649190612bed565b60405180910390f35b34801561047957600080fd5b50610494600480360381019061048f91906127a4565b611183565b6040516104a19190612c31565b60405180910390f35b3480156104b657600080fd5b506104d160048036038101906104cc91906127a4565b61126f565b6040516104e2959493929190612c90565b60405180910390f35b3480156104f757600080fd5b50610512600480360381019061050d91906126ee565b6115f2565b005b34801561052057600080fd5b5061053b600480360381019061053691906127a4565b6116f6565b6040516105489190612c0f565b60405180910390f35b34801561055d57600080fd5b50610566611786565b6040516105739190612c75565b60405180910390f35b34801561058857600080fd5b506105a3600480360381019061059e919061271b565b611799565b6040516105b09190612c75565b60405180910390f35b3480156105c557600080fd5b506105e060048036038101906105db91906127a4565b611822565b6040516105ef93929190612d05565b60405180910390f35b34801561060457600080fd5b5061061f600480360381019061061a91906127a4565b611a1a565b005b34801561062d57600080fd5b50610636611bff565b6040516106439190612bd2565b60405180910390f35b34801561065857600080fd5b50610673600480360381019061066e919061271b565b611c29565b6040516106809190612c75565b60405180910390f35b34801561069557600080fd5b506106b060048036038101906106ab919061275b565b611cb2565b005b3480156106be57600080fd5b506106d960048036038101906106d4919061271b565b611ccc565b6040516106e69190612c75565b60405180910390f35b3480156106fb57600080fd5b50610704611d55565b005b34801561071257600080fd5b5061071b611e96565b6040516107289190612ce3565b60405180910390f35b34801561073d57600080fd5b50610746611f28565b6040516107539190612c75565b60405180910390f35b34801561076857600080fd5b50610783600480360381019061077e91906127a4565b611f80565b6040516107909190612bed565b60405180910390f35b3480156107a557600080fd5b506107c060048036038101906107bb91906127d1565b612021565b005b3480156107ce57600080fd5b506107d761215a565b6040516107e49190612bd2565b60405180910390f35b3480156107f957600080fd5b50610802612180565b60405161080f9190612c75565b60405180910390f35b34801561082457600080fd5b5061082d612197565b60405161083a9190612bd2565b60405180910390f35b34801561084f57600080fd5b5061085861219f565b6040516108659190612c53565b60405180910390f35b34801561087a57600080fd5b506108836121f7565b6040516108909190612ce3565b60405180910390f35b3480156108a557600080fd5b506108ae612285565b6040516108bb9190612c31565b60405180910390f35b3480156108d057600080fd5b506108d961235e565b6040516108e69190612c75565b60405180910390f35b610909600480360381019061090491906127a4565b6123b6565b005b34801561091757600080fd5b50610932600480360381019061092d91906127a4565b61247b565b60405161093f9190612c75565b60405180910390f35b34801561095457600080fd5b5061095d6124a8565b60405161096a9190612c75565b60405180910390f35b34801561097f57600080fd5b5061099a600480360381019061099591906127a4565b612500565b6040516109a79190612c75565b60405180910390f35b3480156109bc57600080fd5b506109c5612587565b6040516109d29190612bd2565b60405180910390f35b600260009054906101000a900473ffffffffffffffffffffffffffffffffffffffff1681565b6000600360149054906101000a900460ff1615610a1d57600080fd5b610a273383611799565b9050919050565b606060166000838152602001908152602001600020805480602002602001604051908101604052809291908181526020016000905b82821015610b0f578382906000526020600020018054610a8290613070565b80601f0160208091040260200160405190810160405280929190818152602001828054610aae90613070565b8015610afb5780601f10610ad057610100808354040283529160200191610afb565b820191906000526020600020905b815481529060010190602001808311610ade57829003601f168201915b505050505081526020019060010190610a63565b505050509050919050565b600160009054906101000a900473ffffffffffffffffffffffffffffffffffffffff1681565b600060086000838152602001908152602001600020600a0160009054906101000a900473ffffffffffffffffffffffffffffffffffffffff169050919050565b600160009054906101000a900473ffffffffffffffffffffffffffffffffffffffff1673ffffffffffffffffffffffffffffffffffffffff163373ffffffffffffffffffffffffffffffffffffffff1614610bda57600080fd5b600073ffffffffffffffffffffffffffffffffffffffff168173ffffffffffffffffffffffffffffffffffffffff161415610c1457600080fd5b80600160006101000a81548173ffffffffffffffffffffffffffffffffffffffff021916908373ffffffffffffffffffffffffffffffffffffffff16021790555050565b600160009054906101000a900473ffffffffffffffffffffffffffffffffffffffff1673ffffffffffffffffffffffffffffffffffffffff163373ffffffffffffffffffffffffffffffffffffffff1614610cb257600080fd5b600073ffffffffffffffffffffffffffffffffffffffff168173ffffffffffffffffffffffffffffffffffffffff161415610cec57600080fd5b80600360006101000a81548173ffffffffffffffffffffffffffffffffffffffff021916908373ffffffffffffffffffffffffffffffffffffffff1602179055507fa308298a77084def994b565be25bff2e8fbfe7006c2c6b2bacfb84d1ba1f635060405160405180910390a150565b6000600360149054906101000a900460ff1615610d7857600080fd5b610d823383611c29565b9050919050565b6000600160009054906101000a900473ffffffffffffffffffffffffffffffffffffffff1673ffffffffffffffffffffffffffffffffffffffff163373ffffffffffffffffffffffffffffffffffffffff1614610de557600080fd5b600360149054906101000a900460ff16610dfe57600080fd5b6000600360146101000a81548160ff021916908315150217905550600360149054906101000a900460ff16905090565b80610e393382611799565b610e4257600080fd5b600360149054906101000a900460ff1615610e5c57600080fd5b60016017600084815260200190815260200160002060003373ffffffffffffffffffffffffffffffffffffffff1673ffffffffffffffffffffffffffffffffffffffff16815260200190815260200160002060006101000a81548160ff02191690831515021790555060186000838152602001908152602001600020339080600181540180825580915050600190039060005260206000200160009091909190916101000a81548173ffffffffffffffffffffffffffffffffffffffff021916908373ffffffffffffffffffffffffffffffffffffffff16021790555060006015600084815260200190815260200160002060003373ffffffffffffffffffffffffffffffffffffffff1673ffffffffffffffffffffffffffffffffffffffff1681526020019081526020016000208054610f9690613070565b80601f0160208091040260200160405190810160405280929190818152602001828054610fc290613070565b801561100f5780601f10610fe45761010080835404028352916020019161100f565b820191906000526020600020905b815481529060010190602001808311610ff257829003601f168201915b5050505050905060166000848152602001908152602001600020819080600181540180825580915050600190039060005260206000200160009091909190915090805190602001906110629291906125b1565b5060086000848152602001908152602001600020600601600081548092919061108a906130d3565b91905055503373ffffffffffffffffffffffffffffffffffffffff167f0695e999be8100bdb5bee8612337296508d527eae78c65b8f170eacb5a3b439d846040516110d59190612d51565b60405180910390a2505050565b60606018600083815260200190815260200160002080548060200260200160405190810160405280929190818152602001828054801561117757602002820191906000526020600020905b8160009054906101000a900473ffffffffffffffffffffffffffffffffffffffff1673ffffffffffffffffffffffffffffffffffffffff168152602001906001019080831161112d575b50505050509050919050565b606060136000838152602001908152602001600020805480602002602001604051908101604052809291908181526020016000905b828210156112645783829060005260206000200180546111d790613070565b80601f016020809104026020016040519081016040528092919081815260200182805461120390613070565b80156112505780601f1061122557610100808354040283529160200191611250565b820191906000526020600020905b81548152906001019060200180831161123357829003601f168201915b5050505050815260200190600101906111b8565b505050509050919050565b60008060008060008060086000888152602001908152602001600020604051806101c0016040529081600082015481526020016001820180546112b190613070565b80601f01602080910402602001604051908101604052809291908181526020018280546112dd90613070565b801561132a5780601f106112ff5761010080835404028352916020019161132a565b820191906000526020600020905b81548152906001019060200180831161130d57829003601f168201915b505050505081526020016002820160009054906101000a900460ff1660038111156113585761135761314b565b5b600381111561136a5761136961314b565b5b8152602001600382015481526020016004820154815260200160058201548152602001600682015481526020016007820180546113a690613070565b80601f01602080910402602001604051908101604052809291908181526020018280546113d290613070565b801561141f5780601f106113f45761010080835404028352916020019161141f565b820191906000526020600020905b81548152906001019060200180831161140257829003601f168201915b5050505050815260200160088201805461143890613070565b80601f016020809104026020016040519081016040528092919081815260200182805461146490613070565b80156114b15780601f10611486576101008083540402835291602001916114b1565b820191906000526020600020905b81548152906001019060200180831161149457829003601f168201915b505050505081526020016009820180546114ca90613070565b80601f01602080910402602001604051908101604052809291908181526020018280546114f690613070565b80156115435780601f1061151857610100808354040283529160200191611543565b820191906000526020600020905b81548152906001019060200180831161152657829003601f168201915b50505050508152602001600a820160009054906101000a900473ffffffffffffffffffffffffffffffffffffffff1673ffffffffffffffffffffffffffffffffffffffff1673ffffffffffffffffffffffffffffffffffffffff168152602001600b8201548152602001600c8201548152602001600d82015481525050905080604001518160c00151826101600151836101800151846101a00151955095509550955095505091939590929450565b600160009054906101000a900473ffffffffffffffffffffffffffffffffffffffff1673ffffffffffffffffffffffffffffffffffffffff163373ffffffffffffffffffffffffffffffffffffffff161461164c57600080fd5b600073ffffffffffffffffffffffffffffffffffffffff168173ffffffffffffffffffffffffffffffffffffffff16141561168657600080fd5b80600260006101000a81548173ffffffffffffffffffffffffffffffffffffffff021916908373ffffffffffffffffffffffffffffffffffffffff1602179055507f162e32528b5907ecf876b3b7a4e5e0edf878642e3ec25852e3c35af1a4e1c04060405160405180910390a150565b60606014600083815260200190815260200160002080548060200260200160405190810160405280929190818152602001828054801561177a57602002820191906000526020600020906000905b82829054906101000a900460ff161515815260200190600101906020826000010492830192600103820291508084116117445790505b50505050509050919050565b600360149054906101000a900460ff1681565b6000600360149054906101000a900460ff16156117b557600080fd5b600115156011600084815260200190815260200160002060008573ffffffffffffffffffffffffffffffffffffffff1673ffffffffffffffffffffffffffffffffffffffff16815260200190815260200160002060009054906101000a900460ff16151514905092915050565b606080606060086000858152602001908152602001600020600701600860008681526020019081526020016000206008016008600087815260200190815260200160002060090182805461187590613070565b80601f01602080910402602001604051908101604052809291908181526020018280546118a190613070565b80156118ee5780601f106118c3576101008083540402835291602001916118ee565b820191906000526020600020905b8154815290600101906020018083116118d157829003601f168201915b5050505050925081805461190190613070565b80601f016020809104026020016040519081016040528092919081815260200182805461192d90613070565b801561197a5780601f1061194f5761010080835404028352916020019161197a565b820191906000526020600020905b81548152906001019060200180831161195d57829003601f168201915b5050505050915080805461198d90613070565b80601f01602080910402602001604051908101604052809291908181526020018280546119b990613070565b8015611a065780601f106119db57610100808354040283529160200191611a06565b820191906000526020600020905b8154815290600101906020018083116119e957829003601f168201915b505050505090509250925092509193909250565b80611a253382611c29565b611a2e57600080fd5b813360011515600c600084815260200190815260200160002060003373ffffffffffffffffffffffffffffffffffffffff1673ffffffffffffffffffffffffffffffffffffffff16815260200190815260200160002060009054906101000a900460ff1615151415611a9f57600080fd5b600360149054906101000a900460ff1615611ab957600080fd5b6001600c600086815260200190815260200160002060003373ffffffffffffffffffffffffffffffffffffffff1673ffffffffffffffffffffffffffffffffffffffff16815260200190815260200160002060006101000a81548160ff02191690831515021790555060086000858152602001908152602001600020600d016000815480929190611b49906130d3565b91905055503373ffffffffffffffffffffffffffffffffffffffff166108fc60086000878152602001908152602001600020600c01549081150290604051600060405180830381858888f19350505050158015611baa573d6000803e3d6000fd5b503373ffffffffffffffffffffffffffffffffffffffff167f1a31e733a172afcf46074b3106c17f0c298e226442682a03c1e99ce256139ec285604051611bf19190612d51565b60405180910390a250505050565b6000600260009054906101000a900473ffffffffffffffffffffffffffffffffffffffff16905090565b6000600360149054906101000a900460ff1615611c4557600080fd5b600115156017600084815260200190815260200160002060008573ffffffffffffffffffffffffffffffffffffffff1673ffffffffffffffffffffffffffffffffffffffff16815260200190815260200160002060009054906101000a900460ff16151514905092915050565b8060009080519060200190611cc89291906125b1565b5050565b6000600360149054906101000a900460ff1615611ce857600080fd5b60086000838152602001908152602001600020600a0160009054906101000a900473ffffffffffffffffffffffffffffffffffffffff1673ffffffffffffffffffffffffffffffffffffffff168373ffffffffffffffffffffffffffffffffffffffff1614905092915050565b600360009054906101000a900473ffffffffffffffffffffffffffffffffffffffff1673ffffffffffffffffffffffffffffffffffffffff163373ffffffffffffffffffffffffffffffffffffffff161480611dfe5750600160009054906101000a900473ffffffffffffffffffffffffffffffffffffffff1673ffffffffffffffffffffffffffffffffffffffff163373ffffffffffffffffffffffffffffffffffffffff16145b80611e565750600260009054906101000a900473ffffffffffffffffffffffffffffffffffffffff1673ffffffffffffffffffffffffffffffffffffffff163373ffffffffffffffffffffffffffffffffffffffff16145b611e5f57600080fd5b600360149054906101000a900460ff1615611e7957600080fd5b6001600360146101000a81548160ff021916908315150217905550565b606060008054611ea590613070565b80601f0160208091040260200160405190810160405280929190818152602001828054611ed190613070565b8015611f1e5780601f10611ef357610100808354040283529160200191611f1e565b820191906000526020600020905b815481529060010190602001808311611f0157829003601f168201915b5050505050905090565b6000600260009054906101000a900473ffffffffffffffffffffffffffffffffffffffff1673ffffffffffffffffffffffffffffffffffffffff163373ffffffffffffffffffffffffffffffffffffffff1614905090565b60606012600083815260200190815260200160002080548060200260200160405190810160405280929190818152602001828054801561201557602002820191906000526020600020905b8160009054906101000a900473ffffffffffffffffffffffffffffffffffffffff1673ffffffffffffffffffffffffffffffffffffffff1681526020019060010190808311611fcb575b50505050509050919050565b8361202c3382611ccc565b61203557600080fd5b60008451111561206b57836008600087815260200190815260200160002060070190805190602001906120699291906125b1565b505b6000835111156120a1578260086000878152602001908152602001600020600801908051906020019061209f9291906125b1565b505b6000825111156120d757816008600087815260200190815260200160002060090190805190602001906120d59291906125b1565b505b7fcd9ad49d834aeea746bafd2d26eebd3d01ebac2d8f5d3f53d7f3884292e5835f856008600088815260200190815260200160002060070160086000898152602001908152602001600020600801600860008a815260200190815260200160002060090160405161214b9493929190612d6c565b60405180910390a15050505050565b600360009054906101000a900473ffffffffffffffffffffffffffffffffffffffff1681565b6000600360149054906101000a900460ff16905090565b600033905090565b606060068054806020026020016040519081016040528092919081815260200182805480156121ed57602002820191906000526020600020905b8154815260200190600101908083116121d9575b5050505050905090565b6000805461220490613070565b80601f016020809104026020016040519081016040528092919081815260200182805461223090613070565b801561227d5780601f106122525761010080835404028352916020019161227d565b820191906000526020600020905b81548152906001019060200180831161226057829003601f168201915b505050505081565b60606007805480602002602001604051908101604052809291908181526020016000905b828210156123555783829060005260206000200180546122c890613070565b80601f01602080910402602001604051908101604052809291908181526020018280546122f490613070565b80156123415780601f1061231657610100808354040283529160200191612341565b820191906000526020600020905b81548152906001019060200180831161232457829003601f168201915b5050505050815260200190600101906122a9565b50505050905090565b6000600160009054906101000a900473ffffffffffffffffffffffffffffffffffffffff1673ffffffffffffffffffffffffffffffffffffffff163373ffffffffffffffffffffffffffffffffffffffff1614905090565b806123c13382611ccc565b6123ca57600080fd5b600360149054906101000a900460ff16156123e457600080fd5b3460086000848152602001908152602001600020600b01600082825461240a9190612f6b565b925050819055503373ffffffffffffffffffffffffffffffffffffffff167f5dc1fe5ab986a852c4eda8e8bb94247d13307065c593fb83f1a09be2736793828360086000868152602001908152602001600020600b015460405161246f929190612dc6565b60405180910390a25050565b6000600360149054906101000a900460ff161561249757600080fd5b6124a13383611ccc565b9050919050565b6000600360009054906101000a900473ffffffffffffffffffffffffffffffffffffffff1673ffffffffffffffffffffffffffffffffffffffff163373ffffffffffffffffffffffffffffffffffffffff1614905090565b600061250c3383611c29565b6125195760009050612582565b60011515600c600084815260200190815260200160002060003373ffffffffffffffffffffffffffffffffffffffff1673ffffffffffffffffffffffffffffffffffffffff16815260200190815260200160002060009054906101000a900460ff161515141590505b919050565b6000600360009054906101000a900473ffffffffffffffffffffffffffffffffffffffff16905090565b8280546125bd90613070565b90600052602060002090601f0160209004810192826125df5760008555612626565b82601f106125f857805160ff1916838001178555612626565b82800160010185558215612626579182015b8281111561262557825182559160200191906001019061260a565b5b5090506126339190612637565b5090565b5b80821115612650576000816000905550600101612638565b5090565b600061266761266284612e14565b612def565b905082815260208101848484011115612683576126826131dd565b5b61268e84828561302e565b509392505050565b6000813590506126a581613211565b92915050565b600082601f8301126126c0576126bf6131d8565b5b81356126d0848260208601612654565b91505092915050565b6000813590506126e881613228565b92915050565b600060208284031215612704576127036131e7565b5b600061271284828501612696565b91505092915050565b60008060408385031215612732576127316131e7565b5b600061274085828601612696565b9250506020612751858286016126d9565b9150509250929050565b600060208284031215612771576127706131e7565b5b600082013567ffffffffffffffff81111561278f5761278e6131e2565b5b61279b848285016126ab565b91505092915050565b6000602082840312156127ba576127b96131e7565b5b60006127c8848285016126d9565b91505092915050565b600080600080608085870312156127eb576127ea6131e7565b5b60006127f9878288016126d9565b945050602085013567ffffffffffffffff81111561281a576128196131e2565b5b612826878288016126ab565b935050604085013567ffffffffffffffff811115612847576128466131e2565b5b612853878288016126ab565b925050606085013567ffffffffffffffff811115612874576128736131e2565b5b612880878288016126ab565b91505092959194509250565b600061289883836128e8565b60208301905092915050565b60006128b08383612a95565b60208301905092915050565b60006128c88383612ac2565b905092915050565b60006128dc8383612bb4565b60208301905092915050565b6128f181612fc1565b82525050565b61290081612fc1565b82525050565b600061291182612e9a565b61291b8185612f05565b935061292683612e45565b8060005b8381101561295757815161293e888261288c565b975061294983612ed1565b92505060018101905061292a565b5085935050505092915050565b600061296f82612ea5565b6129798185612f16565b935061298483612e55565b8060005b838110156129b557815161299c88826128a4565b97506129a783612ede565b925050600181019050612988565b5085935050505092915050565b60006129cd82612eb0565b6129d78185612f27565b9350836020820285016129e985612e65565b8060005b85811015612a255784840389528151612a0685826128bc565b9450612a1183612eeb565b925060208a019950506001810190506129ed565b50829750879550505050505092915050565b6000612a4282612ebb565b612a4c8185612f38565b9350612a5783612e75565b8060005b83811015612a88578151612a6f88826128d0565b9750612a7a83612ef8565b925050600181019050612a5b565b5085935050505092915050565b612a9e81612fd3565b82525050565b612aad81612fd3565b82525050565b612abc8161301c565b82525050565b6000612acd82612ec6565b612ad78185612f49565b9350612ae781856020860161303d565b612af0816131ec565b840191505092915050565b6000612b0682612ec6565b612b108185612f5a565b9350612b2081856020860161303d565b612b29816131ec565b840191505092915050565b60008154612b4181613070565b612b4b8186612f5a565b94506001821660008114612b665760018114612b7857612bab565b60ff1983168652602086019350612bab565b612b8185612e85565b60005b83811015612ba357815481890152600182019150602081019050612b84565b808801955050505b50505092915050565b612bbd81613012565b82525050565b612bcc81613012565b82525050565b6000602082019050612be760008301846128f7565b92915050565b60006020820190508181036000830152612c078184612906565b905092915050565b60006020820190508181036000830152612c298184612964565b905092915050565b60006020820190508181036000830152612c4b81846129c2565b905092915050565b60006020820190508181036000830152612c6d8184612a37565b905092915050565b6000602082019050612c8a6000830184612aa4565b92915050565b600060a082019050612ca56000830188612ab3565b612cb26020830187612bc3565b612cbf6040830186612bc3565b612ccc6060830185612bc3565b612cd96080830184612bc3565b9695505050505050565b60006020820190508181036000830152612cfd8184612afb565b905092915050565b60006060820190508181036000830152612d1f8186612afb565b90508181036020830152612d338185612afb565b90508181036040830152612d478184612afb565b9050949350505050565b6000602082019050612d666000830184612bc3565b92915050565b6000608082019050612d816000830187612bc3565b8181036020830152612d938186612b34565b90508181036040830152612da78185612b34565b90508181036060830152612dbb8184612b34565b905095945050505050565b6000604082019050612ddb6000830185612bc3565b612de86020830184612bc3565b9392505050565b6000612df9612e0a565b9050612e0582826130a2565b919050565b6000604051905090565b600067ffffffffffffffff821115612e2f57612e2e6131a9565b5b612e38826131ec565b9050602081019050919050565b6000819050602082019050919050565b6000819050602082019050919050565b6000819050602082019050919050565b6000819050602082019050919050565b60008190508160005260206000209050919050565b600081519050919050565b600081519050919050565b600081519050919050565b600081519050919050565b600081519050919050565b6000602082019050919050565b6000602082019050919050565b6000602082019050919050565b6000602082019050919050565b600082825260208201905092915050565b600082825260208201905092915050565b600082825260208201905092915050565b600082825260208201905092915050565b600082825260208201905092915050565b600082825260208201905092915050565b6000612f7682613012565b9150612f8183613012565b9250827fffffffffffffffffffffffffffffffffffffffffffffffffffffffffffffffff03821115612fb657612fb561311c565b5b828201905092915050565b6000612fcc82612ff2565b9050919050565b60008115159050919050565b6000819050612fed826131fd565b919050565b600073ffffffffffffffffffffffffffffffffffffffff82169050919050565b6000819050919050565b600061302782612fdf565b9050919050565b82818337600083830152505050565b60005b8381101561305b578082015181840152602081019050613040565b8381111561306a576000848401525b50505050565b6000600282049050600182168061308857607f821691505b6020821081141561309c5761309b61317a565b5b50919050565b6130ab826131ec565b810181811067ffffffffffffffff821117156130ca576130c96131a9565b5b80604052505050565b60006130de82613012565b91507fffffffffffffffffffffffffffffffffffffffffffffffffffffffffffffffff8214156131115761311061311c565b5b600182019050919050565b7f4e487b7100000000000000000000000000000000000000000000000000000000600052601160045260246000fd5b7f4e487b7100000000000000000000000000000000000000000000000000000000600052602160045260246000fd5b7f4e487b7100000000000000000000000000000000000000000000000000000000600052602260045260246000fd5b7f4e487b7100000000000000000000000000000000000000000000000000000000600052604160045260246000fd5b600080fd5b600080fd5b600080fd5b600080fd5b6000601f19601f8301169050919050565b6004811061320e5761320d61314b565b5b50565b61321a81612fc1565b811461322557600080fd5b50565b61323181613012565b811461323c57600080fd5b5056fea26469706673582212200d2f18cee23736434b00957cf41178a183c5d680efe1b82126e3aa197546b52664736f6c63430008070033",
  "immutableReferences": {},
  "source": "// SPDX-License-Identifier: MIT\npragma solidity ^0.8.0;\n\nimport \"./RecipientsManager.sol\";\n\ncontract ContributorManager is RecipientsManager {\n    event ContributorAdded(address indexed account, uint256 groupId);\n    event ContributorRemoved(address indexed account, uint256 groupId);\n\n    event ContributorAddressUpdated(uint256 groupId, address newContributor);\n    event ContributorInfoUpdated(\n        uint256 groupId,\n        string sponsorName,\n        string imgUrl,\n        string imgLinkToUrl\n    );\n\n    event ContributionMade(\n        address indexed account,\n        uint256 groupId,\n        uint256 amount\n    );\n\n    constructor() {}\n\n    modifier onlyContributor(uint256 groupId) {\n        require(isContributor(msg.sender, groupId));\n        _;\n    }\n\n    function isContributor(address account, uint256 groupId)\n        public\n        view\n        whenNotPaused\n        returns (bool)\n    {\n        return account == currentEvents[groupId].currentContributor;\n    }\n\n    function amIContributor(uint256 groupId)\n        external\n        view\n        whenNotPaused\n        returns (bool)\n    {\n        return isContributor(msg.sender, groupId);\n    }\n\n    function getCurrentSponsorAddress(uint256 groupId)\n        external\n        view\n        returns (address)\n    {\n        return currentEvents[groupId].currentContributor;\n    }\n\n    function _changeContributor(address account, uint256 groupId) internal {\n        contributors[groupId][account] = true;\n\n        currentEvents[groupId].currentContributor = account;\n        emit ContributorAdded(account, groupId);\n    }\n\n    function updateContributorInfo(\n        uint256 groupId,\n        string memory newContributorName,\n        string memory newContributorImgUrl,\n        string memory newContributorLinkToUrl\n    ) external onlyContributor(groupId) {\n        if (bytes(newContributorName).length > 0) {\n            currentEvents[groupId].sponsorName = newContributorName;\n        }\n        if (bytes(newContributorImgUrl).length > 0) {\n            currentEvents[groupId].sponsorImageUrl = newContributorImgUrl;\n        }\n        if (bytes(newContributorLinkToUrl).length > 0) {\n            currentEvents[groupId].sponsorLinkToUrl = newContributorLinkToUrl;\n        }\n\n        emit ContributorInfoUpdated(\n            groupId,\n            currentEvents[groupId].sponsorName,\n            currentEvents[groupId].sponsorImageUrl,\n            currentEvents[groupId].sponsorLinkToUrl\n        );\n    }\n\n    function getContributorInfo(uint256 groupId)\n        external\n        view\n        returns (\n            string memory newContributorName,\n            string memory newContributorImgUrl,\n            string memory newContributorLinkToUrl\n        )\n    {\n        return (\n            currentEvents[groupId].sponsorName,\n            currentEvents[groupId].sponsorImageUrl,\n            currentEvents[groupId].sponsorLinkToUrl\n        );\n    }\n\n    function contributeToPot(uint256 groupId)\n        external\n        payable\n        onlyContributor(groupId)\n        whenNotPaused\n    {\n        currentEvents[groupId].totalAmountContributed += msg.value;\n        emit ContributionMade(\n            msg.sender,\n            groupId,\n            currentEvents[groupId].totalAmountContributed\n        );\n    }\n}\n",
  "sourcePath": "/Users/jim/v2-client-ethDrop/EthDrop/contracts/roles/ContributorManager.sol",
  "compiler": {
    "name": "solc",
    "version": "0.8.7+commit.e28d00a7.Emscripten.clang"
  },
  "schemaVersion": "3.4.2",
  "updatedAt": "2021-08-28T20:37:21.107Z",
  "networkType": "ethereum",
  "devdoc": {
    "kind": "dev",
    "methods": {
      "pause()": {
        "details": "Called by any \"C-level\" role to pause the contract. Used only when  a bug or exploit is detected and we need to limit damage."
      },
      "setCEO(address)": {
        "details": "Assigns a new address to act as the CEO. Only available to the current CEO.",
        "params": {
          "_newCEO": "The address of the new CEO"
        }
      },
      "setCFO(address)": {
        "details": "Assigns a new address to act as the CFO. Only available to the current CEO.",
        "params": {
          "_newCFO": "The address of the new CFO"
        }
      },
      "setCOO(address)": {
        "details": "Assigns a new address to act as the COO. Only available to the current CEO.",
        "params": {
          "_newCOO": "The address of the new COO"
        }
      },
      "unpause()": {
        "details": "Unpauses the smart contract. Can only be called by the CEO, since  one reason we may pause the contract is when CFO or COO accounts are  compromised."
      }
    },
    "version": 1
  },
  "userdoc": {
    "kind": "user",
    "methods": {
      "unpause()": {
        "notice": "This is public rather than external so it can be called by  derived contracts."
      }
    },
    "version": 1
  }
}