{
  "contractName": "ContributorManager",
  "abi": [
    {
      "inputs": [],
      "stateMutability": "nonpayable",
      "type": "constructor"
    },
    {
      "anonymous": false,
      "inputs": [
        {
          "indexed": false,
          "internalType": "bool",
          "name": "isPaused",
          "type": "bool"
        }
      ],
      "name": "AppPaused",
      "type": "event"
    },
    {
      "anonymous": false,
      "inputs": [],
      "name": "CfoUpdated",
      "type": "event"
    },
    {
      "anonymous": false,
      "inputs": [
        {
          "indexed": false,
          "internalType": "address",
          "name": "newContract",
          "type": "address"
        }
      ],
      "name": "ContractUpgrade",
      "type": "event"
    },
    {
      "anonymous": false,
      "inputs": [
        {
          "indexed": true,
          "internalType": "address",
          "name": "account",
          "type": "address"
        },
        {
          "indexed": false,
          "internalType": "uint256",
          "name": "groupId",
          "type": "uint256"
        },
        {
          "indexed": false,
          "internalType": "uint256",
          "name": "amount",
          "type": "uint256"
        }
      ],
      "name": "ContributionMade",
      "type": "event"
    },
    {
      "anonymous": false,
      "inputs": [
        {
          "indexed": true,
          "internalType": "address",
          "name": "account",
          "type": "address"
        },
        {
          "indexed": false,
          "internalType": "uint256",
          "name": "groupId",
          "type": "uint256"
        }
      ],
      "name": "ContributorAdded",
      "type": "event"
    },
    {
      "anonymous": false,
      "inputs": [
        {
          "indexed": false,
          "internalType": "uint256",
          "name": "groupId",
          "type": "uint256"
        },
        {
          "indexed": false,
          "internalType": "address",
          "name": "newContributor",
          "type": "address"
        }
      ],
      "name": "ContributorAddressUpdated",
      "type": "event"
    },
    {
      "anonymous": false,
      "inputs": [
        {
          "indexed": false,
          "internalType": "uint256",
          "name": "groupId",
          "type": "uint256"
        },
        {
          "indexed": false,
          "internalType": "string",
          "name": "sponsorName",
          "type": "string"
        },
        {
          "indexed": false,
          "internalType": "string",
          "name": "imgUrl",
          "type": "string"
        },
        {
          "indexed": false,
          "internalType": "string",
          "name": "imgLinkToUrl",
          "type": "string"
        }
      ],
      "name": "ContributorInfoUpdated",
      "type": "event"
    },
    {
      "anonymous": false,
      "inputs": [
        {
          "indexed": true,
          "internalType": "address",
          "name": "account",
          "type": "address"
        },
        {
          "indexed": false,
          "internalType": "uint256",
          "name": "groupId",
          "type": "uint256"
        }
      ],
      "name": "ContributorRemoved",
      "type": "event"
    },
    {
      "anonymous": false,
      "inputs": [],
      "name": "CooUpdated",
      "type": "event"
    },
    {
      "anonymous": false,
      "inputs": [
        {
          "indexed": true,
          "internalType": "address",
          "name": "account",
          "type": "address"
        },
        {
          "indexed": false,
          "internalType": "uint256",
          "name": "groupId",
          "type": "uint256"
        }
      ],
      "name": "EligibleRecipientAdded",
      "type": "event"
    },
    {
      "anonymous": false,
      "inputs": [
        {
          "indexed": true,
          "internalType": "address",
          "name": "account",
          "type": "address"
        },
        {
          "indexed": false,
          "internalType": "uint256",
          "name": "groupId",
          "type": "uint256"
        }
      ],
      "name": "EligibleRecipientRemoved",
      "type": "event"
    },
    {
      "anonymous": false,
      "inputs": [
        {
          "indexed": true,
          "internalType": "address",
          "name": "account",
          "type": "address"
        },
        {
          "indexed": false,
          "internalType": "uint256",
          "name": "groupId",
          "type": "uint256"
        }
      ],
      "name": "RecipientRegistered",
      "type": "event"
    },
    {
      "anonymous": false,
      "inputs": [
        {
          "indexed": false,
          "internalType": "address",
          "name": "from",
          "type": "address"
        },
        {
          "indexed": false,
          "internalType": "address",
          "name": "to",
          "type": "address"
        }
      ],
      "name": "Transfer",
      "type": "event"
    },
    {
      "anonymous": false,
      "inputs": [
        {
          "indexed": true,
          "internalType": "address",
          "name": "account",
          "type": "address"
        },
        {
          "indexed": false,
          "internalType": "uint256",
          "name": "groupId",
          "type": "uint256"
        }
      ],
      "name": "WinningsClaimed",
      "type": "event"
    },
    {
      "inputs": [
        {
          "internalType": "uint256",
          "name": "groupId",
          "type": "uint256"
        }
      ],
      "name": "amIEligibleRecipient",
      "outputs": [
        {
          "internalType": "bool",
          "name": "",
          "type": "bool"
        }
      ],
      "stateMutability": "view",
      "type": "function"
    },
    {
      "inputs": [
        {
          "internalType": "uint256",
          "name": "groupId",
          "type": "uint256"
        }
      ],
      "name": "amIRegisteredRecipient",
      "outputs": [
        {
          "internalType": "bool",
          "name": "",
          "type": "bool"
        }
      ],
      "stateMutability": "view",
      "type": "function"
    },
    {
      "inputs": [],
      "name": "ceoAddress",
      "outputs": [
        {
          "internalType": "address",
          "name": "",
          "type": "address"
        }
      ],
      "stateMutability": "view",
      "type": "function"
    },
    {
      "inputs": [],
      "name": "cfoAddress",
      "outputs": [
        {
          "internalType": "address",
          "name": "",
          "type": "address"
        }
      ],
      "stateMutability": "view",
      "type": "function"
    },
    {
      "inputs": [
        {
          "internalType": "uint256",
          "name": "groupId",
          "type": "uint256"
        }
      ],
      "name": "claimWinnings",
      "outputs": [],
      "stateMutability": "nonpayable",
      "type": "function"
    },
    {
      "inputs": [],
      "name": "cooAddress",
      "outputs": [
        {
          "internalType": "address",
          "name": "",
          "type": "address"
        }
      ],
      "stateMutability": "view",
      "type": "function"
    },
    {
      "inputs": [
        {
          "internalType": "uint256",
          "name": "groupId",
          "type": "uint256"
        }
      ],
      "name": "doIHaveClaimableWinnings",
      "outputs": [
        {
          "internalType": "bool",
          "name": "",
          "type": "bool"
        }
      ],
      "stateMutability": "view",
      "type": "function"
    },
    {
      "inputs": [],
      "name": "getCFO",
      "outputs": [
        {
          "internalType": "address",
          "name": "",
          "type": "address"
        }
      ],
      "stateMutability": "view",
      "type": "function"
    },
    {
      "inputs": [],
      "name": "getCOO",
      "outputs": [
        {
          "internalType": "address",
          "name": "",
          "type": "address"
        }
      ],
      "stateMutability": "view",
      "type": "function"
    },
    {
      "inputs": [
        {
          "internalType": "uint256",
          "name": "groupId",
          "type": "uint256"
        }
      ],
      "name": "getEligibleRecipientAddresses",
      "outputs": [
        {
          "internalType": "address[]",
          "name": "",
          "type": "address[]"
        }
      ],
      "stateMutability": "view",
      "type": "function"
    },
    {
      "inputs": [
        {
          "internalType": "uint256",
          "name": "groupId",
          "type": "uint256"
        }
      ],
      "name": "getEligibleRecipientIsEligibilityEnabled",
      "outputs": [
        {
          "internalType": "bool[]",
          "name": "",
          "type": "bool[]"
        }
      ],
      "stateMutability": "view",
      "type": "function"
    },
    {
      "inputs": [
        {
          "internalType": "uint256",
          "name": "groupId",
          "type": "uint256"
        }
      ],
      "name": "getEligibleRecipientNames",
      "outputs": [
        {
          "internalType": "string[]",
          "name": "",
          "type": "string[]"
        }
      ],
      "stateMutability": "view",
      "type": "function"
    },
    {
      "inputs": [],
      "name": "getGlobalData",
      "outputs": [
        {
          "internalType": "bool",
          "name": "",
          "type": "bool"
        },
        {
          "internalType": "bool",
          "name": "",
          "type": "bool"
        },
        {
          "internalType": "bool",
          "name": "",
          "type": "bool"
        },
        {
          "internalType": "bool",
          "name": "",
          "type": "bool"
        },
        {
          "internalType": "uint256[]",
          "name": "",
          "type": "uint256[]"
        },
        {
          "internalType": "string[]",
          "name": "",
          "type": "string[]"
        }
      ],
      "stateMutability": "view",
      "type": "function"
    },
    {
      "inputs": [
        {
          "internalType": "uint256",
          "name": "groupId",
          "type": "uint256"
        }
      ],
      "name": "getGroupEventData",
      "outputs": [
        {
          "internalType": "uint256",
          "name": "",
          "type": "uint256"
        },
        {
          "internalType": "uint256",
          "name": "",
          "type": "uint256"
        },
        {
          "internalType": "uint256",
          "name": "",
          "type": "uint256"
        },
        {
          "internalType": "uint256",
          "name": "",
          "type": "uint256"
        },
        {
          "internalType": "uint256",
          "name": "",
          "type": "uint256"
        },
        {
          "internalType": "uint256",
          "name": "",
          "type": "uint256"
        },
        {
          "internalType": "address",
          "name": "",
          "type": "address"
        },
        {
          "internalType": "string",
          "name": "",
          "type": "string"
        },
        {
          "internalType": "string",
          "name": "",
          "type": "string"
        },
        {
          "internalType": "string",
          "name": "",
          "type": "string"
        },
        {
          "internalType": "string",
          "name": "",
          "type": "string"
        }
      ],
      "stateMutability": "view",
      "type": "function"
    },
    {
      "inputs": [
        {
          "internalType": "uint256",
          "name": "groupId",
          "type": "uint256"
        }
      ],
      "name": "getGroupEventUsersData",
      "outputs": [
        {
          "internalType": "address[]",
          "name": "",
          "type": "address[]"
        },
        {
          "internalType": "address[]",
          "name": "",
          "type": "address[]"
        },
        {
          "internalType": "address[]",
          "name": "",
          "type": "address[]"
        },
        {
          "internalType": "string[]",
          "name": "",
          "type": "string[]"
        },
        {
          "internalType": "string[]",
          "name": "",
          "type": "string[]"
        },
        {
          "internalType": "string[]",
          "name": "",
          "type": "string[]"
        }
      ],
      "stateMutability": "view",
      "type": "function"
    },
    {
      "inputs": [],
      "name": "getNewGroupSuggestions",
      "outputs": [
        {
          "internalType": "string[]",
          "name": "",
          "type": "string[]"
        },
        {
          "internalType": "string[]",
          "name": "",
          "type": "string[]"
        },
        {
          "internalType": "string[]",
          "name": "",
          "type": "string[]"
        },
        {
          "internalType": "bool[]",
          "name": "",
          "type": "bool[]"
        }
      ],
      "stateMutability": "view",
      "type": "function"
    },
    {
      "inputs": [
        {
          "internalType": "uint256",
          "name": "groupId",
          "type": "uint256"
        }
      ],
      "name": "getRegisteredRecipientNames",
      "outputs": [
        {
          "internalType": "string[]",
          "name": "",
          "type": "string[]"
        }
      ],
      "stateMutability": "view",
      "type": "function"
    },
    {
      "inputs": [
        {
          "internalType": "uint256",
          "name": "groupId",
          "type": "uint256"
        }
      ],
      "name": "getRegisteredRecipients",
      "outputs": [
        {
          "internalType": "address[]",
          "name": "",
          "type": "address[]"
        }
      ],
      "stateMutability": "view",
      "type": "function"
    },
    {
      "inputs": [],
      "name": "isCEO",
      "outputs": [
        {
          "internalType": "bool",
          "name": "",
          "type": "bool"
        }
      ],
      "stateMutability": "view",
      "type": "function"
    },
    {
      "inputs": [],
      "name": "isCFO",
      "outputs": [
        {
          "internalType": "bool",
          "name": "",
          "type": "bool"
        }
      ],
      "stateMutability": "view",
      "type": "function"
    },
    {
      "inputs": [],
      "name": "isCOO",
      "outputs": [
        {
          "internalType": "bool",
          "name": "",
          "type": "bool"
        }
      ],
      "stateMutability": "view",
      "type": "function"
    },
    {
      "inputs": [
        {
          "internalType": "address",
          "name": "account",
          "type": "address"
        },
        {
          "internalType": "uint256",
          "name": "groupId",
          "type": "uint256"
        }
      ],
      "name": "isEligibleRecipient",
      "outputs": [
        {
          "internalType": "bool",
          "name": "",
          "type": "bool"
        }
      ],
      "stateMutability": "view",
      "type": "function"
    },
    {
      "inputs": [],
      "name": "isPaused",
      "outputs": [
        {
          "internalType": "bool",
          "name": "",
          "type": "bool"
        }
      ],
      "stateMutability": "view",
      "type": "function"
    },
    {
      "inputs": [
        {
          "internalType": "address",
          "name": "account",
          "type": "address"
        },
        {
          "internalType": "uint256",
          "name": "groupId",
          "type": "uint256"
        }
      ],
      "name": "isRegisteredRecipient",
      "outputs": [
        {
          "internalType": "bool",
          "name": "",
          "type": "bool"
        }
      ],
      "stateMutability": "view",
      "type": "function"
    },
    {
      "inputs": [],
      "name": "pause",
      "outputs": [],
      "stateMutability": "nonpayable",
      "type": "function"
    },
    {
      "inputs": [],
      "name": "paused",
      "outputs": [
        {
          "internalType": "bool",
          "name": "",
          "type": "bool"
        }
      ],
      "stateMutability": "view",
      "type": "function"
    },
    {
      "inputs": [
        {
          "internalType": "uint256",
          "name": "groupId",
          "type": "uint256"
        }
      ],
      "name": "registerForEvent",
      "outputs": [],
      "stateMutability": "nonpayable",
      "type": "function"
    },
    {
      "inputs": [
        {
          "internalType": "address",
          "name": "_newCEO",
          "type": "address"
        }
      ],
      "name": "setCEO",
      "outputs": [],
      "stateMutability": "nonpayable",
      "type": "function"
    },
    {
      "inputs": [
        {
          "internalType": "address",
          "name": "_newCFO",
          "type": "address"
        }
      ],
      "name": "setCFO",
      "outputs": [],
      "stateMutability": "nonpayable",
      "type": "function"
    },
    {
      "inputs": [
        {
          "internalType": "address",
          "name": "_newCOO",
          "type": "address"
        }
      ],
      "name": "setCOO",
      "outputs": [],
      "stateMutability": "nonpayable",
      "type": "function"
    },
    {
      "inputs": [
        {
          "internalType": "string",
          "name": "groupName",
          "type": "string"
        },
        {
          "internalType": "string",
          "name": "location",
          "type": "string"
        },
        {
          "internalType": "string",
          "name": "contactInfo",
          "type": "string"
        }
      ],
      "name": "suggestNewGroup",
      "outputs": [],
      "stateMutability": "nonpayable",
      "type": "function"
    },
    {
      "inputs": [],
      "name": "unpause",
      "outputs": [
        {
          "internalType": "bool",
          "name": "",
          "type": "bool"
        }
      ],
      "stateMutability": "nonpayable",
      "type": "function"
    },
    {
      "inputs": [],
      "name": "whoami",
      "outputs": [
        {
          "internalType": "address",
          "name": "",
          "type": "address"
        }
      ],
      "stateMutability": "view",
      "type": "function"
    },
    {
      "inputs": [
        {
          "internalType": "address",
          "name": "account",
          "type": "address"
        },
        {
          "internalType": "uint256",
          "name": "groupId",
          "type": "uint256"
        }
      ],
      "name": "isContributor",
      "outputs": [
        {
          "internalType": "bool",
          "name": "",
          "type": "bool"
        }
      ],
      "stateMutability": "view",
      "type": "function"
    },
    {
      "inputs": [
        {
          "internalType": "uint256",
          "name": "groupId",
          "type": "uint256"
        }
      ],
      "name": "amIContributor",
      "outputs": [
        {
          "internalType": "bool",
          "name": "",
          "type": "bool"
        }
      ],
      "stateMutability": "view",
      "type": "function"
    },
    {
      "inputs": [
        {
          "internalType": "uint256",
          "name": "groupId",
          "type": "uint256"
        }
      ],
      "name": "getCurrentSponsorAddress",
      "outputs": [
        {
          "internalType": "address",
          "name": "",
          "type": "address"
        }
      ],
      "stateMutability": "view",
      "type": "function"
    },
    {
      "inputs": [
        {
          "internalType": "uint256",
          "name": "groupId",
          "type": "uint256"
        },
        {
          "internalType": "string",
          "name": "newContributorName",
          "type": "string"
        },
        {
          "internalType": "string",
          "name": "newContributorImgUrl",
          "type": "string"
        },
        {
          "internalType": "string",
          "name": "newContributorLinkToUrl",
          "type": "string"
        }
      ],
      "name": "updateContributorInfo",
      "outputs": [],
      "stateMutability": "nonpayable",
      "type": "function"
    },
    {
      "inputs": [
        {
          "internalType": "uint256",
          "name": "groupId",
          "type": "uint256"
        }
      ],
      "name": "getContributorInfo",
      "outputs": [
        {
          "internalType": "string",
          "name": "newContributorName",
          "type": "string"
        },
        {
          "internalType": "string",
          "name": "newContributorImgUrl",
          "type": "string"
        },
        {
          "internalType": "string",
          "name": "newContributorLinkToUrl",
          "type": "string"
        }
      ],
      "stateMutability": "view",
      "type": "function"
    },
    {
      "inputs": [
        {
          "internalType": "uint256",
          "name": "groupId",
          "type": "uint256"
        }
      ],
      "name": "contributeToPot",
      "outputs": [],
      "stateMutability": "payable",
      "type": "function"
    }
  ],
  "bytecode": "0x6080604052600080546001600160a01b031916331790556002805460ff60a01b19169055600560035534801561003457600080fd5b506129b9806100446000396000f3fe6080604052600436106102205760003560e01c8063674811ca1161012e578063aea88a05116100ab578063e82f24e01161006f578063e82f24e0146106f3578063ee41b59214610706578063f4a02e7014610726578063f89e9cb914610746578063fc5fd6e41461076657600080fd5b8063aea88a0514610661578063b047fb5014610681578063b187bd26146106a1578063b3b36bb3146106c0578063e513b7a9146106d357600080fd5b80637d837ce5116100f25780637d837ce5146105cc5780638182aaf2146105ec5780638456cb591461060c5780639393ae37146106215780639bda87961461064157600080fd5b8063674811ca14610518578063677bd9ff146105475780636a034021146105675780637b936ac21461058e5780637d2b3ba2146105ac57600080fd5b80633f4ba83a116101bc5780634e0a3379116101805780634e0a33791461045857806355b57ec1146104785780635624aab0146104a55780635c975abb146104d75780635e82c1fc146104f857600080fd5b80633f4ba83a1461039f578063406db843146103b457806344b2983b146103d4578063454432e2146104015780634635509b1461042157600080fd5b80630519ce791461022557806306cc49221461026257806307bfa330146102925780630a0f8168146102bf5780630d82ffa0146102df57806319a2394d1461031857806327d7874c1461033d5780632ba73c151461035f57806338f0b6561461037f575b600080fd5b34801561023157600080fd5b50600154610245906001600160a01b031681565b6040516001600160a01b0390911681526020015b60405180910390f35b34801561026e57600080fd5b5061028261027d3660046123c9565b610784565b6040519015158152602001610259565b34801561029e57600080fd5b506102b26102ad3660046123c9565b6107b0565b60405161025991906126d1565b3480156102cb57600080fd5b50600054610245906001600160a01b031681565b3480156102eb57600080fd5b506102456102fa3660046123c9565b6000908152600a60205260409020600601546001600160a01b031690565b34801561032457600080fd5b5061032d61089c565b60405161025994939291906126e4565b34801561034957600080fd5b5061035d6103583660046122f5565b610ba3565b005b34801561036b57600080fd5b5061035d61037a3660046122f5565b610bef565b34801561038b57600080fd5b5061028261039a3660046123c9565b610c60565b3480156103ab57600080fd5b50610282610c84565b3480156103c057600080fd5b5061035d6103cf3660046123c9565b610d04565b3480156103e057600080fd5b506103f46103ef3660046123c9565b610ea8565b6040516102599190612629565b34801561040d57600080fd5b506102b261041c3660046123c9565b610f14565b34801561042d57600080fd5b5061044161043c3660046123c9565b610ff5565b6040516102599b9a9998979695949392919061283c565b34801561046457600080fd5b5061035d6104733660046122f5565b61136f565b34801561048457600080fd5b506104986104933660046123c9565b6113e0565b60405161025991906126be565b3480156104b157600080fd5b506104c56104c03660046123c9565b611460565b6040516102599695949392919061263c565b3480156104e357600080fd5b5060025461028290600160a01b900460ff1681565b34801561050457600080fd5b50610282610513366004612317565b611848565b34801561052457600080fd5b506105386105333660046123c9565b611894565b604051610259939291906127ba565b34801561055357600080fd5b5061035d6105623660046123c9565b611a6d565b34801561057357600080fd5b5061057c611b83565b6040516102599695949392919061273c565b34801561059a57600080fd5b506001546001600160a01b0316610245565b3480156105b857600080fd5b5061035d6105c7366004612341565b611d0b565b3480156105d857600080fd5b506102826105e7366004612317565b611e26565b3480156105f857600080fd5b50610282610607366004612317565b611e70565b34801561061857600080fd5b5061035d611eae565b34801561062d57600080fd5b506001546001600160a01b03163314610282565b34801561064d57600080fd5b506103f461065c3660046123c9565b611f4f565b34801561066d57600080fd5b5061035d61067c3660046123e2565b611fb9565b34801561068d57600080fd5b50600254610245906001600160a01b031681565b3480156106ad57600080fd5b50600254600160a01b900460ff16610282565b3480156106cc57600080fd5b5033610245565b3480156106df57600080fd5b506000546001600160a01b03163314610282565b61035d6107013660046123c9565b6120b4565b34801561071257600080fd5b506102826107213660046123c9565b612155565b34801561073257600080fd5b506002546001600160a01b03163314610282565b34801561075257600080fd5b506102826107613660046123c9565b612179565b34801561077257600080fd5b506002546001600160a01b0316610245565b600254600090600160a01b900460ff161561079e57600080fd5b6107a83383611848565b90505b919050565b6060601f6000838152602001908152602001600020805480602002602001604051908101604052809291908181526020016000905b82821015610891578382906000526020600020018054610804906128eb565b80601f0160208091040260200160405190810160405280929190818152602001828054610830906128eb565b801561087d5780601f106108525761010080835404028352916020019161087d565b820191906000526020600020905b81548152906001019060200180831161086057829003601f168201915b5050505050815260200190600101906107e5565b505050509050919050565b606080606080600660076008600983805480602002602001604051908101604052809291908181526020016000905b828210156109775783829060005260206000200180546108ea906128eb565b80601f0160208091040260200160405190810160405280929190818152602001828054610916906128eb565b80156109635780601f1061093857610100808354040283529160200191610963565b820191906000526020600020905b81548152906001019060200180831161094657829003601f168201915b5050505050815260200190600101906108cb565b50505050935082805480602002602001604051908101604052809291908181526020016000905b82821015610a4a5783829060005260206000200180546109bd906128eb565b80601f01602080910402602001604051908101604052809291908181526020018280546109e9906128eb565b8015610a365780601f10610a0b57610100808354040283529160200191610a36565b820191906000526020600020905b815481529060010190602001808311610a1957829003601f168201915b50505050508152602001906001019061099e565b50505050925081805480602002602001604051908101604052809291908181526020016000905b82821015610b1d578382906000526020600020018054610a90906128eb565b80601f0160208091040260200160405190810160405280929190818152602001828054610abc906128eb565b8015610b095780601f10610ade57610100808354040283529160200191610b09565b820191906000526020600020905b815481529060010190602001808311610aec57829003601f168201915b505050505081526020019060010190610a71565b50505050915080805480602002602001604051908101604052809291908181526020018280548015610b8e57602002820191906000526020600020906000905b825461010083900a900460ff161515815260206001928301818104948501949093039092029101808411610b5d5790505b50505050509050935093509350935090919293565b6000546001600160a01b03163314610bba57600080fd5b6001600160a01b038116610bcd57600080fd5b600080546001600160a01b0319166001600160a01b0392909216919091179055565b6000546001600160a01b03163314610c0657600080fd5b6001600160a01b038116610c1957600080fd5b600280546001600160a01b0319166001600160a01b0383161790556040517fa308298a77084def994b565be25bff2e8fbfe7006c2c6b2bacfb84d1ba1f635090600090a150565b600254600090600160a01b900460ff1615610c7a57600080fd5b6107a83383611e26565b600080546001600160a01b03163314610c9c57600080fd5b600254600160a01b900460ff16610cb257600080fd5b6002805460ff60a01b19169055604051600081527fedcd3d1311c56a1f814f5b4de26e8fb77f2db3563b9fc81138c17fd630e4876e9060200160405180910390a150600254600160a01b900460ff1690565b80610d0f3382611848565b610d1857600080fd5b600254600160a01b900460ff1615610d2f57600080fd5b60008281526020808052604080832033808552908352818420805460ff19166001908117909155868552602184528285208054918201815585528385200180546001600160a01b03191682179055858452601c835281842090845290915281208054610d9a906128eb565b80601f0160208091040260200160405190810160405280929190818152602001828054610dc6906128eb565b8015610e135780601f10610de857610100808354040283529160200191610e13565b820191906000526020600020905b815481529060010190602001808311610df657829003601f168201915b5050506000868152601f6020908152604082208054600181018255908352918190208551959650610e4b9592019350850191506121b8565b506000838152600a60205260408120600301805491610e6983612926565b909155505060405183815233907f0695e999be8100bdb5bee8612337296508d527eae78c65b8f170eacb5a3b439d9060200160405180910390a2505050565b600081815260216020908152604091829020805483518184028101840190945280845260609392830182828015610f0857602002820191906000526020600020905b81546001600160a01b03168152600190910190602001808311610eea575b50505050509050919050565b6060601a6000838152602001908152602001600020805480602002602001604051908101604052809291908181526020016000905b82821015610891578382906000526020600020018054610f68906128eb565b80601f0160208091040260200160405190810160405280929190818152602001828054610f94906128eb565b8015610fe15780601f10610fb657610100808354040283529160200191610fe1565b820191906000526020600020905b815481529060010190602001808311610fc457829003601f168201915b505050505081526020019060010190610f49565b60008060008060008060006060806060806000600a60008e8152602001908152602001600020604051806101800160405290816000820154815260200160018201548152602001600282015481526020016003820154815260200160048201548152602001600582015481526020016006820160009054906101000a90046001600160a01b03166001600160a01b03166001600160a01b031681526020016007820180546110a2906128eb565b80601f01602080910402602001604051908101604052809291908181526020018280546110ce906128eb565b801561111b5780601f106110f05761010080835404028352916020019161111b565b820191906000526020600020905b8154815290600101906020018083116110fe57829003601f168201915b5050509183525050600882015460209091019060ff16600381111561114257611142612957565b600381111561115357611153612957565b8152602001600982018054611167906128eb565b80601f0160208091040260200160405190810160405280929190818152602001828054611193906128eb565b80156111e05780601f106111b5576101008083540402835291602001916111e0565b820191906000526020600020905b8154815290600101906020018083116111c357829003601f168201915b50505050508152602001600a820180546111f9906128eb565b80601f0160208091040260200160405190810160405280929190818152602001828054611225906128eb565b80156112725780601f1061124757610100808354040283529160200191611272565b820191906000526020600020905b81548152906001019060200180831161125557829003601f168201915b50505050508152602001600b8201805461128b906128eb565b80601f01602080910402602001604051908101604052809291908181526020018280546112b7906128eb565b80156113045780601f106112d957610100808354040283529160200191611304565b820191906000526020600020905b8154815290600101906020018083116112e757829003601f168201915b50505050508152505090508060000151816020015182604001518360a00151846060015185608001518660c001518760e001518861012001518961014001518a61016001519b509b509b509b509b509b509b509b509b509b509b505091939597999b90929496989a50565b6000546001600160a01b0316331461138657600080fd5b6001600160a01b03811661139957600080fd5b600180546001600160a01b0319166001600160a01b0383161790556040517f162e32528b5907ecf876b3b7a4e5e0edf878642e3ec25852e3c35af1a4e1c04090600090a150565b6000818152601b6020908152604091829020805483518184028101840190945280845260609392830182828015610f0857602002820191906000526020600020906000905b825461010083900a900460ff161515815260206001928301818104948501949093039092029101808411611425575094979650505050505050565b600081815260196020908152604080832060218352818420601e8452828520601a8552838620601f8652848720601d8752968590208454865181890281018901909752808752606098899889988998899889989197909691959094939192918891908301828280156114fb57602002820191906000526020600020905b81546001600160a01b031681526001909101906020018083116114dd575b505050505095508480548060200260200160405190810160405280929190818152602001828054801561155757602002820191906000526020600020905b81546001600160a01b03168152600190910190602001808311611539575b50505050509450838054806020026020016040519081016040528092919081815260200182805480156115b357602002820191906000526020600020905b81546001600160a01b03168152600190910190602001808311611595575b5050505050935082805480602002602001604051908101604052809291908181526020016000905b828210156116875783829060005260206000200180546115fa906128eb565b80601f0160208091040260200160405190810160405280929190818152602001828054611626906128eb565b80156116735780601f1061164857610100808354040283529160200191611673565b820191906000526020600020905b81548152906001019060200180831161165657829003601f168201915b5050505050815260200190600101906115db565b50505050925081805480602002602001604051908101604052809291908181526020016000905b8282101561175a5783829060005260206000200180546116cd906128eb565b80601f01602080910402602001604051908101604052809291908181526020018280546116f9906128eb565b80156117465780601f1061171b57610100808354040283529160200191611746565b820191906000526020600020905b81548152906001019060200180831161172957829003601f168201915b5050505050815260200190600101906116ae565b50505050915080805480602002602001604051908101604052809291908181526020016000905b8282101561182d5783829060005260206000200180546117a0906128eb565b80601f01602080910402602001604051908101604052809291908181526020018280546117cc906128eb565b80156118195780601f106117ee57610100808354040283529160200191611819565b820191906000526020600020905b8154815290600101906020018083116117fc57829003601f168201915b505050505081526020019060010190611781565b50505050905095509550955095509550955091939550919395565b600254600090600160a01b900460ff161561186257600080fd5b5060008181526018602090815260408083206001600160a01b038616845290915290205460ff16151560011492915050565b6000818152600a60208190526040909120600981018054606093849384939291810191600b9091019083906118c8906128eb565b80601f01602080910402602001604051908101604052809291908181526020018280546118f4906128eb565b80156119415780601f1061191657610100808354040283529160200191611941565b820191906000526020600020905b81548152906001019060200180831161192457829003601f168201915b50505050509250818054611954906128eb565b80601f0160208091040260200160405190810160405280929190818152602001828054611980906128eb565b80156119cd5780601f106119a2576101008083540402835291602001916119cd565b820191906000526020600020905b8154815290600101906020018083116119b057829003601f168201915b505050505091508080546119e0906128eb565b80601f0160208091040260200160405190810160405280929190818152602001828054611a0c906128eb565b8015611a595780601f10611a2e57610100808354040283529160200191611a59565b820191906000526020600020905b815481529060010190602001808311611a3c57829003601f168201915b505050505090509250925092509193909250565b80611a783382611e26565b611a8157600080fd5b6000828152600e602090815260408083203380855292529091205483919060ff16151560011415611ab157600080fd5b600254600160a01b900460ff1615611ac857600080fd5b6000848152600e602090815260408083203384528252808320805460ff19166001179055868352600a9091528120600501805491611b0583612926565b90915550506000848152600a6020526040808220600201549051339282156108fc02929190818181858888f19350505050158015611b47573d6000803e3d6000fd5b5060405184815233907f1a31e733a172afcf46074b3106c17f0c298e226442682a03c1e99ce256139ec29060200160405180910390a250505050565b600080600080606080611ba2600054336001600160a01b039091161490565b6002546001600160a01b031633146001546001600160a01b03163314600260149054906101000a900460ff166004600581805480602002602001604051908101604052809291908181526020018280548015611c1d57602002820191906000526020600020905b815481526020019060010190808311611c09575b5050505050915080805480602002602001604051908101604052809291908181526020016000905b82821015611cf1578382906000526020600020018054611c64906128eb565b80601f0160208091040260200160405190810160405280929190818152602001828054611c90906128eb565b8015611cdd5780601f10611cb257610100808354040283529160200191611cdd565b820191906000526020600020905b815481529060010190602001808311611cc057829003601f168201915b505050505081526020019060010190611c45565b505050509050955095509550955095509550909192939495565b600680546001810182556000919091528351611d4e917ff652222313e28459528d920b65115c16c04f3efc82aaedc97be59f3f377c0d3f019060208601906121b8565b50600780546001810182556000919091528251611d92917fa66cc928b5edb82af9bd49922954155ab7b0942694bea4ce44661d9a8736c688019060208501906121b8565b50600880546001810182556000919091528151611dd6917ff3f7a9fe364faab93b216da50a3214154f22a0a2b415b23a84c8169e8b636ee3019060208401906121b8565b5050600980546001810182556000919091527f6e1540171b6c0c960b71a7020d9f60077f6af931a8bbf590da0223dacf75c7af60208204018054601f9092166101000a60ff021990911690555050565b600254600090600160a01b900460ff1615611e4057600080fd5b506000818152602080805260408083206001600160a01b038616845290915290205460ff16151560011492915050565b600254600090600160a01b900460ff1615611e8a57600080fd5b506000908152600a60205260409020600601546001600160a01b0390811691161490565b6002546001600160a01b0316331480611ed157506000546001600160a01b031633145b80611ee657506001546001600160a01b031633145b611eef57600080fd5b600254600160a01b900460ff1615611f0657600080fd5b6002805460ff60a01b1916600160a01b179055604051600181527fedcd3d1311c56a1f814f5b4de26e8fb77f2db3563b9fc81138c17fd630e4876e9060200160405180910390a1565b600081815260196020908152604091829020805483518184028101840190945280845260609392830182828015610f08576020028201919060005260206000209081546001600160a01b03168152600190910190602001808311610eea5750505050509050919050565b83611fc43382611e70565b611fcd57600080fd5b835115611ffb576000858152600a602090815260409091208551611ff9926009909201918701906121b8565b505b825115612029576000858152600a602081815260409092208551612027939190920191908601906121b8565b505b815115612057576000858152600a60209081526040909120835161205592600b909201918501906121b8565b505b6000858152600a602081905260409182902091517fcd9ad49d834aeea746bafd2d26eebd3d01ebac2d8f5d3f53d7f3884292e5835f926120a5928992600983019291820191600b01906127fd565b60405180910390a15050505050565b806120bf3382611e70565b6120c857600080fd5b600254600160a01b900460ff16156120df57600080fd5b6000828152600a6020526040812060010180543492906121009084906128d3565b90915550506000828152600a60209081526040918290206001015482518581529182015233917f5dc1fe5ab986a852c4eda8e8bb94247d13307065c593fb83f1a09be273679382910160405180910390a25050565b600254600090600160a01b900460ff161561216f57600080fd5b6107a83383611e70565b60006121853383611e26565b61219157506000919050565b506000908152600e6020908152604080832033845290915290205460ff1615156001141590565b8280546121c4906128eb565b90600052602060002090601f0160209004810192826121e6576000855561222c565b82601f106121ff57805160ff191683800117855561222c565b8280016001018555821561222c579182015b8281111561222c578251825591602001919060010190612211565b5061223892915061223c565b5090565b5b80821115612238576000815560010161223d565b80356001600160a01b03811681146107ab57600080fd5b600082601f83011261227957600080fd5b813567ffffffffffffffff808211156122945761229461296d565b604051601f8301601f19908116603f011681019082821181831017156122bc576122bc61296d565b816040528381528660208588010111156122d557600080fd5b836020870160208301376000602085830101528094505050505092915050565b60006020828403121561230757600080fd5b61231082612251565b9392505050565b6000806040838503121561232a57600080fd5b61233383612251565b946020939093013593505050565b60008060006060848603121561235657600080fd5b833567ffffffffffffffff8082111561236e57600080fd5b61237a87838801612268565b9450602086013591508082111561239057600080fd5b61239c87838801612268565b935060408601359150808211156123b257600080fd5b506123bf86828701612268565b9150509250925092565b6000602082840312156123db57600080fd5b5035919050565b600080600080608085870312156123f857600080fd5b84359350602085013567ffffffffffffffff8082111561241757600080fd5b61242388838901612268565b9450604087013591508082111561243957600080fd5b61244588838901612268565b9350606087013591508082111561245b57600080fd5b5061246887828801612268565b91505092959194509250565b600081518084526020808501945080840160005b838110156124ad5781516001600160a01b031687529582019590820190600101612488565b509495945050505050565b600081518084526020808501945080840160005b838110156124ad5781511515875295820195908201906001016124cc565b6000815180845260208085019450848260051b860182860160005b8581101561252f57838303895261251d83835161253c565b98850198925090840190600101612505565b5090979650505050505050565b6000815180845260005b8181101561256257602081850181015186830182015201612546565b81811115612574576000602083870101525b50601f01601f19169290920160200192915050565b8054600090600181811c90808316806125a357607f831692505b60208084108214156125c557634e487b7160e01b600052602260045260246000fd5b838852602088018280156125e057600181146125f15761261c565b60ff1987168252828201975061261c565b60008981526020902060005b87811015612616578154848201529086019084016125fd565b83019850505b5050505050505092915050565b6020815260006123106020830184612474565b60c08152600061264f60c0830189612474565b82810360208401526126618189612474565b905082810360408401526126758188612474565b9050828103606084015261268981876124ea565b9050828103608084015261269d81866124ea565b905082810360a08401526126b181856124ea565b9998505050505050505050565b60208152600061231060208301846124b8565b60208152600061231060208301846124ea565b6080815260006126f760808301876124ea565b828103602084015261270981876124ea565b9050828103604084015261271d81866124ea565b9050828103606084015261273181856124b8565b979650505050505050565b600060c0820188151583526020881515818501528715156040850152861515606085015260c0608085015281865180845260e086019150828801935060005b818110156127975784518352938301939183019160010161277b565b505084810360a08601526127ab81876124ea565b9b9a5050505050505050505050565b6060815260006127cd606083018661253c565b82810360208401526127df818661253c565b905082810360408401526127f3818561253c565b9695505050505050565b8481526080602082015260006128166080830186612589565b82810360408401526128288186612589565b905082810360608401526127318185612589565b60006101608d83528c60208401528b60408401528a60608401528960808401528860a084015260018060a01b03881660c08401528060e08401526128828184018861253c565b9050828103610100840152612897818761253c565b90508281036101208401526128ac818661253c565b90508281036101408401526128c1818561253c565b9e9d5050505050505050505050505050565b600082198211156128e6576128e6612941565b500190565b600181811c908216806128ff57607f821691505b6020821081141561292057634e487b7160e01b600052602260045260246000fd5b50919050565b600060001982141561293a5761293a612941565b5060010190565b634e487b7160e01b600052601160045260246000fd5b634e487b7160e01b600052602160045260246000fd5b634e487b7160e01b600052604160045260246000fdfea2646970667358221220c544285712d62a380610660e159b51879f0c857051338a1dd76ab61fdd5a79dd64736f6c63430008070033",
  "immutableReferences": {},
  "source": "// SPDX-License-Identifier: MIT\npragma solidity ^0.8.0;\n\nimport \"./RecipientsManager.sol\";\n\ncontract ContributorManager is RecipientsManager {\n    event ContributorAdded(address indexed account, uint256 groupId);\n    event ContributorRemoved(address indexed account, uint256 groupId);\n\n    event ContributorAddressUpdated(uint256 groupId, address newContributor);\n    event ContributorInfoUpdated(\n        uint256 groupId,\n        string sponsorName,\n        string imgUrl,\n        string imgLinkToUrl\n    );\n\n    event ContributionMade(\n        address indexed account,\n        uint256 groupId,\n        uint256 amount\n    );\n\n    constructor() {}\n\n    modifier onlyContributor(uint256 groupId) {\n        require(isContributor(msg.sender, groupId));\n        _;\n    }\n\n    function isContributor(address account, uint256 groupId)\n        public\n        view\n        whenNotPaused\n        returns (bool)\n    {\n        return account == currentEvents[groupId].currentContributorAddress;\n    }\n\n    function amIContributor(uint256 groupId)\n        external\n        view\n        whenNotPaused\n        returns (bool)\n    {\n        return isContributor(msg.sender, groupId);\n    }\n\n    function getCurrentSponsorAddress(uint256 groupId)\n        external\n        view\n        returns (address)\n    {\n        return currentEvents[groupId].currentContributorAddress;\n    }\n\n    function _changeContributor(address account, uint256 groupId) internal {\n        contributors[groupId][account] = true;\n\n        currentEvents[groupId].currentContributorAddress = account;\n        emit ContributorAdded(account, groupId);\n    }\n\n    function updateContributorInfo(\n        uint256 groupId,\n        string memory newContributorName,\n        string memory newContributorImgUrl,\n        string memory newContributorLinkToUrl\n    ) external onlyContributor(groupId) {\n        if (bytes(newContributorName).length > 0) {\n            currentEvents[groupId].sponsorName = newContributorName;\n        }\n        if (bytes(newContributorImgUrl).length > 0) {\n            currentEvents[groupId].sponsorImageUrl = newContributorImgUrl;\n        }\n        if (bytes(newContributorLinkToUrl).length > 0) {\n            currentEvents[groupId].sponsorLinkToUrl = newContributorLinkToUrl;\n        }\n\n        emit ContributorInfoUpdated(\n            groupId,\n            currentEvents[groupId].sponsorName,\n            currentEvents[groupId].sponsorImageUrl,\n            currentEvents[groupId].sponsorLinkToUrl\n        );\n    }\n\n    function getContributorInfo(uint256 groupId)\n        external\n        view\n        returns (\n            string memory newContributorName,\n            string memory newContributorImgUrl,\n            string memory newContributorLinkToUrl\n        )\n    {\n        return (\n            currentEvents[groupId].sponsorName,\n            currentEvents[groupId].sponsorImageUrl,\n            currentEvents[groupId].sponsorLinkToUrl\n        );\n    }\n\n    function contributeToPot(uint256 groupId)\n        external\n        payable\n        onlyContributor(groupId)\n        whenNotPaused\n    {\n        currentEvents[groupId].totalAmountContributed += msg.value;\n        emit ContributionMade(\n            msg.sender,\n            groupId,\n            currentEvents[groupId].totalAmountContributed\n        );\n    }\n}\n",
  "sourcePath": "/Users/jim/v2-client-ethDrop/EthDrop/contracts/roles/ContributorManager.sol",
  "compiler": {
    "name": "solc",
    "version": "0.8.7+commit.e28d00a7.Emscripten.clang"
  },
  "schemaVersion": "3.4.1",
  "updatedAt": "2021-09-05T19:56:19.660Z",
  "devdoc": {
    "kind": "dev",
    "methods": {
      "pause()": {
        "details": "Called by any \"C-level\" role to pause the contract. Used only when  a bug or exploit is detected and we need to limit damage."
      },
      "setCEO(address)": {
        "details": "Assigns a new address to act as the CEO. Only available to the current CEO.",
        "params": {
          "_newCEO": "The address of the new CEO"
        }
      },
      "setCFO(address)": {
        "details": "Assigns a new address to act as the CFO. Only available to the current CEO.",
        "params": {
          "_newCFO": "The address of the new CFO"
        }
      },
      "setCOO(address)": {
        "details": "Assigns a new address to act as the COO. Only available to the current CEO.",
        "params": {
          "_newCOO": "The address of the new COO"
        }
      },
      "unpause()": {
        "details": "Unpauses the smart contract. Can only be called by the CEO, since  one reason we may pause the contract is when CFO or COO accounts are  compromised."
      }
    },
    "version": 1
  },
  "userdoc": {
    "kind": "user",
    "methods": {
      "unpause()": {
        "notice": "This is public rather than external so it can be called by  derived contracts."
      }
    },
    "version": 1
  }
}