{
  "contractName": "ContributorManager",
  "abi": [
    {
      "inputs": [],
      "stateMutability": "nonpayable",
      "type": "constructor"
    },
    {
      "anonymous": false,
      "inputs": [
        {
          "indexed": false,
          "internalType": "address",
          "name": "newContract",
          "type": "address"
        }
      ],
      "name": "ContractUpgrade",
      "type": "event"
    },
    {
      "anonymous": false,
      "inputs": [
        {
          "indexed": true,
          "internalType": "address",
          "name": "account",
          "type": "address"
        },
        {
          "indexed": false,
          "internalType": "uint256",
          "name": "groupId",
          "type": "uint256"
        },
        {
          "indexed": false,
          "internalType": "uint256",
          "name": "amount",
          "type": "uint256"
        }
      ],
      "name": "ContributionMade",
      "type": "event"
    },
    {
      "anonymous": false,
      "inputs": [
        {
          "indexed": true,
          "internalType": "address",
          "name": "account",
          "type": "address"
        },
        {
          "indexed": false,
          "internalType": "uint256",
          "name": "groupId",
          "type": "uint256"
        }
      ],
      "name": "ContributorAdded",
      "type": "event"
    },
    {
      "anonymous": false,
      "inputs": [
        {
          "indexed": true,
          "internalType": "address",
          "name": "account",
          "type": "address"
        },
        {
          "indexed": false,
          "internalType": "uint256",
          "name": "groupId",
          "type": "uint256"
        }
      ],
      "name": "ContributorRemoved",
      "type": "event"
    },
    {
      "anonymous": false,
      "inputs": [
        {
          "indexed": true,
          "internalType": "address",
          "name": "account",
          "type": "address"
        },
        {
          "indexed": false,
          "internalType": "uint256",
          "name": "groupId",
          "type": "uint256"
        }
      ],
      "name": "EligibleRecipientAdded",
      "type": "event"
    },
    {
      "anonymous": false,
      "inputs": [
        {
          "indexed": true,
          "internalType": "address",
          "name": "account",
          "type": "address"
        },
        {
          "indexed": false,
          "internalType": "uint256",
          "name": "groupId",
          "type": "uint256"
        }
      ],
      "name": "EligibleRecipientRemoved",
      "type": "event"
    },
    {
      "anonymous": false,
      "inputs": [],
      "name": "EventClose",
      "type": "event"
    },
    {
      "anonymous": false,
      "inputs": [
        {
          "indexed": true,
          "internalType": "address",
          "name": "account",
          "type": "address"
        },
        {
          "indexed": false,
          "internalType": "uint256",
          "name": "groupId",
          "type": "uint256"
        }
      ],
      "name": "RecipientRegistered",
      "type": "event"
    },
    {
      "anonymous": false,
      "inputs": [],
      "name": "RegistrationOpen",
      "type": "event"
    },
    {
      "anonymous": false,
      "inputs": [
        {
          "indexed": false,
          "internalType": "address",
          "name": "from",
          "type": "address"
        },
        {
          "indexed": false,
          "internalType": "address",
          "name": "to",
          "type": "address"
        }
      ],
      "name": "Transfer",
      "type": "event"
    },
    {
      "anonymous": false,
      "inputs": [
        {
          "indexed": true,
          "internalType": "address",
          "name": "account",
          "type": "address"
        },
        {
          "indexed": false,
          "internalType": "uint256",
          "name": "groupId",
          "type": "uint256"
        }
      ],
      "name": "WinningsClaimed",
      "type": "event"
    },
    {
      "anonymous": false,
      "inputs": [],
      "name": "WinningsClaimingOpen",
      "type": "event"
    },
    {
      "inputs": [],
      "name": "ceoAddress",
      "outputs": [
        {
          "internalType": "address",
          "name": "",
          "type": "address"
        }
      ],
      "stateMutability": "view",
      "type": "function",
      "constant": true
    },
    {
      "inputs": [],
      "name": "cfoAddress",
      "outputs": [
        {
          "internalType": "address",
          "name": "",
          "type": "address"
        }
      ],
      "stateMutability": "view",
      "type": "function",
      "constant": true
    },
    {
      "inputs": [
        {
          "internalType": "uint256",
          "name": "groupId",
          "type": "uint256"
        }
      ],
      "name": "claimWinnings",
      "outputs": [],
      "stateMutability": "nonpayable",
      "type": "function"
    },
    {
      "inputs": [],
      "name": "cooAddress",
      "outputs": [
        {
          "internalType": "address",
          "name": "",
          "type": "address"
        }
      ],
      "stateMutability": "view",
      "type": "function",
      "constant": true
    },
    {
      "inputs": [],
      "name": "getCFO",
      "outputs": [
        {
          "internalType": "address",
          "name": "",
          "type": "address"
        }
      ],
      "stateMutability": "view",
      "type": "function",
      "constant": true
    },
    {
      "inputs": [],
      "name": "getCOO",
      "outputs": [
        {
          "internalType": "address",
          "name": "",
          "type": "address"
        }
      ],
      "stateMutability": "view",
      "type": "function",
      "constant": true
    },
    {
      "inputs": [],
      "name": "getGroupIds",
      "outputs": [
        {
          "internalType": "uint256[]",
          "name": "",
          "type": "uint256[]"
        }
      ],
      "stateMutability": "view",
      "type": "function",
      "constant": true
    },
    {
      "inputs": [],
      "name": "getGroupNames",
      "outputs": [
        {
          "internalType": "string[]",
          "name": "",
          "type": "string[]"
        }
      ],
      "stateMutability": "view",
      "type": "function",
      "constant": true
    },
    {
      "inputs": [],
      "name": "getString",
      "outputs": [
        {
          "internalType": "string",
          "name": "",
          "type": "string"
        }
      ],
      "stateMutability": "view",
      "type": "function",
      "constant": true
    },
    {
      "inputs": [],
      "name": "isCEO",
      "outputs": [
        {
          "internalType": "bool",
          "name": "",
          "type": "bool"
        }
      ],
      "stateMutability": "view",
      "type": "function",
      "constant": true
    },
    {
      "inputs": [],
      "name": "isCFO",
      "outputs": [
        {
          "internalType": "bool",
          "name": "",
          "type": "bool"
        }
      ],
      "stateMutability": "view",
      "type": "function",
      "constant": true
    },
    {
      "inputs": [],
      "name": "isCOO",
      "outputs": [
        {
          "internalType": "bool",
          "name": "",
          "type": "bool"
        }
      ],
      "stateMutability": "view",
      "type": "function",
      "constant": true
    },
    {
      "inputs": [
        {
          "internalType": "address",
          "name": "account",
          "type": "address"
        },
        {
          "internalType": "uint256",
          "name": "groupId",
          "type": "uint256"
        }
      ],
      "name": "isEligibleRecipient",
      "outputs": [
        {
          "internalType": "bool",
          "name": "",
          "type": "bool"
        }
      ],
      "stateMutability": "view",
      "type": "function",
      "constant": true
    },
    {
      "inputs": [
        {
          "internalType": "address",
          "name": "account",
          "type": "address"
        },
        {
          "internalType": "uint256",
          "name": "groupId",
          "type": "uint256"
        }
      ],
      "name": "isRegisteredRecipient",
      "outputs": [
        {
          "internalType": "bool",
          "name": "",
          "type": "bool"
        }
      ],
      "stateMutability": "view",
      "type": "function",
      "constant": true
    },
    {
      "inputs": [],
      "name": "pause",
      "outputs": [],
      "stateMutability": "nonpayable",
      "type": "function"
    },
    {
      "inputs": [],
      "name": "paused",
      "outputs": [
        {
          "internalType": "bool",
          "name": "",
          "type": "bool"
        }
      ],
      "stateMutability": "view",
      "type": "function",
      "constant": true
    },
    {
      "inputs": [
        {
          "internalType": "uint256",
          "name": "groupId",
          "type": "uint256"
        }
      ],
      "name": "registerForEvent",
      "outputs": [],
      "stateMutability": "nonpayable",
      "type": "function"
    },
    {
      "inputs": [
        {
          "internalType": "address",
          "name": "_newCEO",
          "type": "address"
        }
      ],
      "name": "setCEO",
      "outputs": [],
      "stateMutability": "nonpayable",
      "type": "function"
    },
    {
      "inputs": [
        {
          "internalType": "address",
          "name": "_newCFO",
          "type": "address"
        }
      ],
      "name": "setCFO",
      "outputs": [],
      "stateMutability": "nonpayable",
      "type": "function"
    },
    {
      "inputs": [
        {
          "internalType": "address",
          "name": "_newCOO",
          "type": "address"
        }
      ],
      "name": "setCOO",
      "outputs": [],
      "stateMutability": "nonpayable",
      "type": "function"
    },
    {
      "inputs": [
        {
          "internalType": "string",
          "name": "_s",
          "type": "string"
        }
      ],
      "name": "setString",
      "outputs": [],
      "stateMutability": "nonpayable",
      "type": "function"
    },
    {
      "inputs": [],
      "name": "stringgg",
      "outputs": [
        {
          "internalType": "string",
          "name": "",
          "type": "string"
        }
      ],
      "stateMutability": "view",
      "type": "function",
      "constant": true
    },
    {
      "inputs": [],
      "name": "unpause",
      "outputs": [],
      "stateMutability": "nonpayable",
      "type": "function"
    },
    {
      "inputs": [],
      "name": "whoami",
      "outputs": [
        {
          "internalType": "address",
          "name": "",
          "type": "address"
        }
      ],
      "stateMutability": "view",
      "type": "function",
      "constant": true
    },
    {
      "inputs": [
        {
          "internalType": "address",
          "name": "account",
          "type": "address"
        },
        {
          "internalType": "uint256",
          "name": "groupId",
          "type": "uint256"
        }
      ],
      "name": "isContributor",
      "outputs": [
        {
          "internalType": "bool",
          "name": "",
          "type": "bool"
        }
      ],
      "stateMutability": "view",
      "type": "function",
      "constant": true
    },
    {
      "inputs": [
        {
          "internalType": "uint256",
          "name": "groupId",
          "type": "uint256"
        }
      ],
      "name": "renounceContributor",
      "outputs": [],
      "stateMutability": "nonpayable",
      "type": "function"
    },
    {
      "inputs": [
        {
          "internalType": "uint256",
          "name": "groupId",
          "type": "uint256"
        }
      ],
      "name": "contributeToPot",
      "outputs": [],
      "stateMutability": "payable",
      "type": "function",
      "payable": true
    }
  ],
  "bytecode": "0x60806040526000600360146101000a81548160ff021916908315150217905550600560045534801561003057600080fd5b50611c73806100406000396000f3fe60806040526004361061019c5760003560e01c80637fcaf666116100ec578063c02b8b2c1161008a578063e513b7a911610064578063e513b7a91461057e578063e82f24e0146105a9578063f4a02e70146105c5578063fc5fd6e4146105f05761019c565b8063c02b8b2c146104fd578063c6db509414610528578063d5f016c3146105535761019c565b806389ea642f116100c657806389ea642f146104515780639393ae371461047c578063b047fb50146104a7578063b3b36bb3146104d25761019c565b80637fcaf666146103d45780638182aaf2146103fd5780638456cb591461043a5761019c565b80634e0a3379116101595780635e82c1fc116101335780635e82c1fc14610306578063677bd9ff146103435780637b936ac21461036c5780637d837ce5146103975761019c565b80634e0a3379146102895780634f1ef03c146102b25780635c975abb146102db5761019c565b80630519ce79146101a15780630a0f8168146101cc57806327d7874c146101f75780632ba73c15146102205780633f4ba83a14610249578063406db84314610260575b600080fd5b3480156101ad57600080fd5b506101b661061b565b6040516101c39190611825565b60405180910390f35b3480156101d857600080fd5b506101e1610641565b6040516101ee9190611825565b60405180910390f35b34801561020357600080fd5b5061021e60048036038101906102199190611586565b610667565b005b34801561022c57600080fd5b5061024760048036038101906102429190611586565b61073f565b005b34801561025557600080fd5b5061025e610817565b005b34801561026c57600080fd5b506102876004803603810190610282919061163c565b6108a7565b005b34801561029557600080fd5b506102b060048036038101906102ab9190611586565b610a30565b005b3480156102be57600080fd5b506102d960048036038101906102d4919061163c565b610ace565b005b3480156102e757600080fd5b506102f0610b0a565b6040516102fd919061189f565b60405180910390f35b34801561031257600080fd5b5061032d600480360381019061032891906115b3565b610b1d565b60405161033a919061189f565b60405180910390f35b34801561034f57600080fd5b5061036a6004803603810190610365919061163c565b610ba6565b005b34801561037857600080fd5b50610381610cc4565b60405161038e9190611825565b60405180910390f35b3480156103a357600080fd5b506103be60048036038101906103b991906115b3565b610cee565b6040516103cb919061189f565b60405180910390f35b3480156103e057600080fd5b506103fb60048036038101906103f691906115f3565b610d77565b005b34801561040957600080fd5b50610424600480360381019061041f91906115b3565b610d91565b604051610431919061189f565b60405180910390f35b34801561044657600080fd5b5061044f610e1a565b005b34801561045d57600080fd5b50610466610f5b565b60405161047391906118ba565b60405180910390f35b34801561048857600080fd5b50610491610fed565b60405161049e919061189f565b60405180910390f35b3480156104b357600080fd5b506104bc611045565b6040516104c99190611825565b60405180910390f35b3480156104de57600080fd5b506104e761106b565b6040516104f49190611825565b60405180910390f35b34801561050957600080fd5b50610512611073565b60405161051f919061187d565b60405180910390f35b34801561053457600080fd5b5061053d6110cb565b60405161054a91906118ba565b60405180910390f35b34801561055f57600080fd5b50610568611159565b604051610575919061185b565b60405180910390f35b34801561058a57600080fd5b50610593611232565b6040516105a0919061189f565b60405180910390f35b6105c360048036038101906105be919061163c565b61128a565b005b3480156105d157600080fd5b506105da61130c565b6040516105e7919061189f565b60405180910390f35b3480156105fc57600080fd5b50610605611364565b6040516106129190611825565b60405180910390f35b600260009054906101000a900473ffffffffffffffffffffffffffffffffffffffff1681565b600160009054906101000a900473ffffffffffffffffffffffffffffffffffffffff1681565b600160009054906101000a900473ffffffffffffffffffffffffffffffffffffffff1673ffffffffffffffffffffffffffffffffffffffff163373ffffffffffffffffffffffffffffffffffffffff16146106c157600080fd5b600073ffffffffffffffffffffffffffffffffffffffff168173ffffffffffffffffffffffffffffffffffffffff1614156106fb57600080fd5b80600160006101000a81548173ffffffffffffffffffffffffffffffffffffffff021916908373ffffffffffffffffffffffffffffffffffffffff16021790555050565b600160009054906101000a900473ffffffffffffffffffffffffffffffffffffffff1673ffffffffffffffffffffffffffffffffffffffff163373ffffffffffffffffffffffffffffffffffffffff161461079957600080fd5b600073ffffffffffffffffffffffffffffffffffffffff168173ffffffffffffffffffffffffffffffffffffffff1614156107d357600080fd5b80600360006101000a81548173ffffffffffffffffffffffffffffffffffffffff021916908373ffffffffffffffffffffffffffffffffffffffff16021790555050565b600160009054906101000a900473ffffffffffffffffffffffffffffffffffffffff1673ffffffffffffffffffffffffffffffffffffffff163373ffffffffffffffffffffffffffffffffffffffff161461087157600080fd5b600360149054906101000a900460ff1661088a57600080fd5b6000600360146101000a81548160ff021916908315150217905550565b806108b23382610b1d565b6108bb57600080fd5b600360149054906101000a900460ff16156108d557600080fd5b6001600c600084815260200190815260200160002060003373ffffffffffffffffffffffffffffffffffffffff1673ffffffffffffffffffffffffffffffffffffffff16815260200190815260200160002060006101000a81548160ff021916908315150217905550600d6000838152602001908152602001600020339080600181540180825580915050600190039060005260206000200160009091909190916101000a81548173ffffffffffffffffffffffffffffffffffffffff021916908373ffffffffffffffffffffffffffffffffffffffff1602179055506007600083815260200190815260200160002060060160008154809291906109d990611b14565b91905055503373ffffffffffffffffffffffffffffffffffffffff167f0695e999be8100bdb5bee8612337296508d527eae78c65b8f170eacb5a3b439d83604051610a2491906118dc565b60405180910390a25050565b600160009054906101000a900473ffffffffffffffffffffffffffffffffffffffff1673ffffffffffffffffffffffffffffffffffffffff163373ffffffffffffffffffffffffffffffffffffffff1614610a8a57600080fd5b80600260006101000a81548173ffffffffffffffffffffffffffffffffffffffff021916908373ffffffffffffffffffffffffffffffffffffffff16021790555050565b80610ad93382610d91565b610ae257600080fd5b600360149054906101000a900460ff1615610afc57600080fd5b610b06338361138e565b5050565b600360149054906101000a900460ff1681565b6000600360149054906101000a900460ff1615610b3957600080fd5b60011515600b600084815260200190815260200160002060008573ffffffffffffffffffffffffffffffffffffffff1673ffffffffffffffffffffffffffffffffffffffff16815260200190815260200160002060009054906101000a900460ff16151514905092915050565b80610bb13382610cee565b610bba57600080fd5b600360149054906101000a900460ff1615610bd457600080fd5b600e600083815260200190815260200160002060009054906101000a900473ffffffffffffffffffffffffffffffffffffffff1673ffffffffffffffffffffffffffffffffffffffff166319165587336040518263ffffffff1660e01b8152600401610c409190611840565b600060405180830381600087803b158015610c5a57600080fd5b505af1158015610c6e573d6000803e3d6000fd5b505050503373ffffffffffffffffffffffffffffffffffffffff167f1a31e733a172afcf46074b3106c17f0c298e226442682a03c1e99ce256139ec283604051610cb891906118dc565b60405180910390a25050565b6000600260009054906101000a900473ffffffffffffffffffffffffffffffffffffffff16905090565b6000600360149054906101000a900460ff1615610d0a57600080fd5b60011515600c600084815260200190815260200160002060008573ffffffffffffffffffffffffffffffffffffffff1673ffffffffffffffffffffffffffffffffffffffff16815260200190815260200160002060009054906101000a900460ff16151514905092915050565b8060009080519060200190610d8d929190611449565b5050565b6000600360149054906101000a900460ff1615610dad57600080fd5b60011515600a600084815260200190815260200160002060008573ffffffffffffffffffffffffffffffffffffffff1673ffffffffffffffffffffffffffffffffffffffff16815260200190815260200160002060009054906101000a900460ff16151514905092915050565b600360009054906101000a900473ffffffffffffffffffffffffffffffffffffffff1673ffffffffffffffffffffffffffffffffffffffff163373ffffffffffffffffffffffffffffffffffffffff161480610ec35750600160009054906101000a900473ffffffffffffffffffffffffffffffffffffffff1673ffffffffffffffffffffffffffffffffffffffff163373ffffffffffffffffffffffffffffffffffffffff16145b80610f1b5750600260009054906101000a900473ffffffffffffffffffffffffffffffffffffffff1673ffffffffffffffffffffffffffffffffffffffff163373ffffffffffffffffffffffffffffffffffffffff16145b610f2457600080fd5b600360149054906101000a900460ff1615610f3e57600080fd5b6001600360146101000a81548160ff021916908315150217905550565b606060008054610f6a90611ab1565b80601f0160208091040260200160405190810160405280929190818152602001828054610f9690611ab1565b8015610fe35780601f10610fb857610100808354040283529160200191610fe3565b820191906000526020600020905b815481529060010190602001808311610fc657829003601f168201915b5050505050905090565b6000600260009054906101000a900473ffffffffffffffffffffffffffffffffffffffff1673ffffffffffffffffffffffffffffffffffffffff163373ffffffffffffffffffffffffffffffffffffffff1614905090565b600360009054906101000a900473ffffffffffffffffffffffffffffffffffffffff1681565b600033905090565b606060058054806020026020016040519081016040528092919081815260200182805480156110c157602002820191906000526020600020905b8154815260200190600101908083116110ad575b5050505050905090565b600080546110d890611ab1565b80601f016020809104026020016040519081016040528092919081815260200182805461110490611ab1565b80156111515780601f1061112657610100808354040283529160200191611151565b820191906000526020600020905b81548152906001019060200180831161113457829003601f168201915b505050505081565b60606006805480602002602001604051908101604052809291908181526020016000905b8282101561122957838290600052602060002001805461119c90611ab1565b80601f01602080910402602001604051908101604052809291908181526020018280546111c890611ab1565b80156112155780601f106111ea57610100808354040283529160200191611215565b820191906000526020600020905b8154815290600101906020018083116111f857829003601f168201915b50505050508152602001906001019061117d565b50505050905090565b6000600160009054906101000a900473ffffffffffffffffffffffffffffffffffffffff1673ffffffffffffffffffffffffffffffffffffffff163373ffffffffffffffffffffffffffffffffffffffff1614905090565b806112953382610d91565b61129e57600080fd5b600360149054906101000a900460ff16156112b857600080fd5b3373ffffffffffffffffffffffffffffffffffffffff167f5dc1fe5ab986a852c4eda8e8bb94247d13307065c593fb83f1a09be27367938283346040516113009291906118f7565b60405180910390a25050565b6000600360009054906101000a900473ffffffffffffffffffffffffffffffffffffffff1673ffffffffffffffffffffffffffffffffffffffff163373ffffffffffffffffffffffffffffffffffffffff1614905090565b6000600360009054906101000a900473ffffffffffffffffffffffffffffffffffffffff16905090565b6000600a600083815260200190815260200160002060008473ffffffffffffffffffffffffffffffffffffffff1673ffffffffffffffffffffffffffffffffffffffff16815260200190815260200160002060006101000a81548160ff0219169083151502179055508173ffffffffffffffffffffffffffffffffffffffff167fda111d7eb5d5b2033c4ffad00cd7cd42f45af2813bee1a69e65f26d90ea15f0b8260405161143d91906118dc565b60405180910390a25050565b82805461145590611ab1565b90600052602060002090601f01602090048101928261147757600085556114be565b82601f1061149057805160ff19168380011785556114be565b828001600101855582156114be579182015b828111156114bd5782518255916020019190600101906114a2565b5b5090506114cb91906114cf565b5090565b5b808211156114e85760008160009055506001016114d0565b5090565b60006114ff6114fa84611945565b611920565b90508281526020810184848401111561151b5761151a611bef565b5b611526848285611a6f565b509392505050565b60008135905061153d81611c0f565b92915050565b600082601f83011261155857611557611bea565b5b81356115688482602086016114ec565b91505092915050565b60008135905061158081611c26565b92915050565b60006020828403121561159c5761159b611bf9565b5b60006115aa8482850161152e565b91505092915050565b600080604083850312156115ca576115c9611bf9565b5b60006115d88582860161152e565b92505060206115e985828601611571565b9150509250929050565b60006020828403121561160957611608611bf9565b5b600082013567ffffffffffffffff81111561162757611626611bf4565b5b61163384828501611543565b91505092915050565b60006020828403121561165257611651611bf9565b5b600061166084828501611571565b91505092915050565b60006116758383611795565b905092915050565b60006116898383611807565b60208301905092915050565b61169e81611a27565b82525050565b6116ad81611a15565b82525050565b60006116be82611996565b6116c881856119d1565b9350836020820285016116da85611976565b8060005b8581101561171657848403895281516116f78582611669565b9450611702836119b7565b925060208a019950506001810190506116de565b50829750879550505050505092915050565b6000611733826119a1565b61173d81856119e2565b935061174883611986565b8060005b83811015611779578151611760888261167d565b975061176b836119c4565b92505060018101905061174c565b5085935050505092915050565b61178f81611a39565b82525050565b60006117a0826119ac565b6117aa81856119f3565b93506117ba818560208601611a7e565b6117c381611bfe565b840191505092915050565b60006117d9826119ac565b6117e38185611a04565b93506117f3818560208601611a7e565b6117fc81611bfe565b840191505092915050565b61181081611a65565b82525050565b61181f81611a65565b82525050565b600060208201905061183a60008301846116a4565b92915050565b60006020820190506118556000830184611695565b92915050565b6000602082019050818103600083015261187581846116b3565b905092915050565b600060208201905081810360008301526118978184611728565b905092915050565b60006020820190506118b46000830184611786565b92915050565b600060208201905081810360008301526118d481846117ce565b905092915050565b60006020820190506118f16000830184611816565b92915050565b600060408201905061190c6000830185611816565b6119196020830184611816565b9392505050565b600061192a61193b565b90506119368282611ae3565b919050565b6000604051905090565b600067ffffffffffffffff8211156119605761195f611bbb565b5b61196982611bfe565b9050602081019050919050565b6000819050602082019050919050565b6000819050602082019050919050565b600081519050919050565b600081519050919050565b600081519050919050565b6000602082019050919050565b6000602082019050919050565b600082825260208201905092915050565b600082825260208201905092915050565b600082825260208201905092915050565b600082825260208201905092915050565b6000611a2082611a45565b9050919050565b6000611a3282611a45565b9050919050565b60008115159050919050565b600073ffffffffffffffffffffffffffffffffffffffff82169050919050565b6000819050919050565b82818337600083830152505050565b60005b83811015611a9c578082015181840152602081019050611a81565b83811115611aab576000848401525b50505050565b60006002820490506001821680611ac957607f821691505b60208210811415611add57611adc611b8c565b5b50919050565b611aec82611bfe565b810181811067ffffffffffffffff82111715611b0b57611b0a611bbb565b5b80604052505050565b6000611b1f82611a65565b91507fffffffffffffffffffffffffffffffffffffffffffffffffffffffffffffffff821415611b5257611b51611b5d565b5b600182019050919050565b7f4e487b7100000000000000000000000000000000000000000000000000000000600052601160045260246000fd5b7f4e487b7100000000000000000000000000000000000000000000000000000000600052602260045260246000fd5b7f4e487b7100000000000000000000000000000000000000000000000000000000600052604160045260246000fd5b600080fd5b600080fd5b600080fd5b600080fd5b6000601f19601f8301169050919050565b611c1881611a15565b8114611c2357600080fd5b50565b611c2f81611a65565b8114611c3a57600080fd5b5056fea26469706673582212200073aa07b21b52914d181a0ec139ea77844f4e0837e54a7fd5b60510df0a1a8c64736f6c63430008060033",
  "immutableReferences": {},
  "source": "// SPDX-License-Identifier: MIT\npragma solidity ^0.8.0;\n\nimport \"./RecipientsManager.sol\";\n\ncontract ContributorManager is RecipientsManager {\n\n    event ContributorAdded(address indexed account, uint groupId);\n    event ContributorRemoved(address indexed account, uint groupId);\n\n    event ContributionMade(\n        address indexed account,\n        uint groupId,\n        uint amount\n    );\n\n    constructor() {}\n\n    modifier onlyContributor(uint groupId) {\n        require(isContributor(msg.sender, groupId));\n        _;\n    }\n\n    function isContributor(address account, uint groupId)\n        public\n        view\n        whenNotPaused\n        returns (bool)\n    {\n        return contributors[groupId][account] == true;\n    }\n\n    function renounceContributor(uint groupId)\n        external\n        onlyContributor(groupId)\n        whenNotPaused\n    {\n        _removeContributor(msg.sender, groupId);\n    }\n\n    function _addContributor(address account, uint groupId) internal {\n        contributors[groupId][account] = true;\n        emit ContributorAdded(account, groupId);\n    }\n\n    function _removeContributor(address account, uint groupId) internal {\n        contributors[groupId][account] = false;\n        emit ContributorRemoved(account, groupId);\n    }\n\n    function contributeToPot(uint groupId)\n        external\n        payable\n        onlyContributor(groupId)\n        whenNotPaused\n    {\n        emit ContributionMade(msg.sender, groupId, msg.value);\n    }\n}",
  "sourcePath": "/Users/jim/Git-Projects/EthDrop/contracts/roles/ContributorManager.sol",
  "compiler": {
    "name": "solc",
    "version": "0.8.6+commit.11564f7e.Emscripten.clang"
  },
  "schemaVersion": "3.4.1",
  "updatedAt": "2021-07-22T14:39:00.419Z",
  "networkType": "ethereum",
  "devdoc": {
    "kind": "dev",
    "methods": {
      "pause()": {
        "details": "Called by any \"C-level\" role to pause the contract. Used only when  a bug or exploit is detected and we need to limit damage."
      },
      "setCEO(address)": {
        "details": "Assigns a new address to act as the CEO. Only available to the current CEO.",
        "params": {
          "_newCEO": "The address of the new CEO"
        }
      },
      "setCFO(address)": {
        "details": "Assigns a new address to act as the CFO. Only available to the current CEO.",
        "params": {
          "_newCFO": "The address of the new CFO"
        }
      },
      "setCOO(address)": {
        "details": "Assigns a new address to act as the COO. Only available to the current CEO.",
        "params": {
          "_newCOO": "The address of the new COO"
        }
      },
      "unpause()": {
        "details": "Unpauses the smart contract. Can only be called by the CEO, since  one reason we may pause the contract is when CFO or COO accounts are  compromised."
      }
    },
    "version": 1
  },
  "userdoc": {
    "kind": "user",
    "methods": {
      "unpause()": {
        "notice": "This is public rather than external so it can be called by  derived contracts."
      }
    },
    "version": 1
  }
}