{
  "contractName": "ContributorManager",
  "abi": [
    {
      "inputs": [],
      "stateMutability": "nonpayable",
      "type": "constructor"
    },
    {
      "anonymous": false,
      "inputs": [
        {
          "indexed": false,
          "internalType": "bool",
          "name": "isPaused",
          "type": "bool"
        }
      ],
      "name": "AppPaused",
      "type": "event"
    },
    {
      "anonymous": false,
      "inputs": [],
      "name": "CfoUpdated",
      "type": "event"
    },
    {
      "anonymous": false,
      "inputs": [
        {
          "indexed": false,
          "internalType": "address",
          "name": "newContract",
          "type": "address"
        }
      ],
      "name": "ContractUpgrade",
      "type": "event"
    },
    {
      "anonymous": false,
      "inputs": [
        {
          "indexed": true,
          "internalType": "address",
          "name": "account",
          "type": "address"
        },
        {
          "indexed": false,
          "internalType": "uint256",
          "name": "groupId",
          "type": "uint256"
        },
        {
          "indexed": false,
          "internalType": "uint256",
          "name": "amount",
          "type": "uint256"
        }
      ],
      "name": "ContributionMade",
      "type": "event"
    },
    {
      "anonymous": false,
      "inputs": [
        {
          "indexed": true,
          "internalType": "address",
          "name": "account",
          "type": "address"
        },
        {
          "indexed": false,
          "internalType": "uint256",
          "name": "groupId",
          "type": "uint256"
        }
      ],
      "name": "ContributorAdded",
      "type": "event"
    },
    {
      "anonymous": false,
      "inputs": [
        {
          "indexed": false,
          "internalType": "uint256",
          "name": "groupId",
          "type": "uint256"
        },
        {
          "indexed": false,
          "internalType": "address",
          "name": "newContributor",
          "type": "address"
        }
      ],
      "name": "ContributorAddressUpdated",
      "type": "event"
    },
    {
      "anonymous": false,
      "inputs": [
        {
          "indexed": false,
          "internalType": "uint256",
          "name": "groupId",
          "type": "uint256"
        },
        {
          "indexed": false,
          "internalType": "string",
          "name": "sponsorName",
          "type": "string"
        },
        {
          "indexed": false,
          "internalType": "string",
          "name": "imgUrl",
          "type": "string"
        },
        {
          "indexed": false,
          "internalType": "string",
          "name": "imgLinkToUrl",
          "type": "string"
        }
      ],
      "name": "ContributorInfoUpdated",
      "type": "event"
    },
    {
      "anonymous": false,
      "inputs": [
        {
          "indexed": true,
          "internalType": "address",
          "name": "account",
          "type": "address"
        },
        {
          "indexed": false,
          "internalType": "uint256",
          "name": "groupId",
          "type": "uint256"
        }
      ],
      "name": "ContributorRemoved",
      "type": "event"
    },
    {
      "anonymous": false,
      "inputs": [],
      "name": "CooUpdated",
      "type": "event"
    },
    {
      "anonymous": false,
      "inputs": [
        {
          "indexed": true,
          "internalType": "address",
          "name": "account",
          "type": "address"
        },
        {
          "indexed": false,
          "internalType": "uint256",
          "name": "groupId",
          "type": "uint256"
        }
      ],
      "name": "EligibleRecipientAdded",
      "type": "event"
    },
    {
      "anonymous": false,
      "inputs": [
        {
          "indexed": true,
          "internalType": "address",
          "name": "account",
          "type": "address"
        },
        {
          "indexed": false,
          "internalType": "uint256",
          "name": "groupId",
          "type": "uint256"
        }
      ],
      "name": "EligibleRecipientRemoved",
      "type": "event"
    },
    {
      "anonymous": false,
      "inputs": [],
      "name": "EventClose",
      "type": "event"
    },
    {
      "anonymous": false,
      "inputs": [
        {
          "indexed": true,
          "internalType": "address",
          "name": "account",
          "type": "address"
        },
        {
          "indexed": false,
          "internalType": "uint256",
          "name": "groupId",
          "type": "uint256"
        }
      ],
      "name": "RecipientRegistered",
      "type": "event"
    },
    {
      "anonymous": false,
      "inputs": [],
      "name": "RegistrationOpen",
      "type": "event"
    },
    {
      "anonymous": false,
      "inputs": [
        {
          "indexed": false,
          "internalType": "address",
          "name": "from",
          "type": "address"
        },
        {
          "indexed": false,
          "internalType": "address",
          "name": "to",
          "type": "address"
        }
      ],
      "name": "Transfer",
      "type": "event"
    },
    {
      "anonymous": false,
      "inputs": [
        {
          "indexed": true,
          "internalType": "address",
          "name": "account",
          "type": "address"
        },
        {
          "indexed": false,
          "internalType": "uint256",
          "name": "groupId",
          "type": "uint256"
        }
      ],
      "name": "WinningsClaimed",
      "type": "event"
    },
    {
      "anonymous": false,
      "inputs": [],
      "name": "WinningsClaimingOpen",
      "type": "event"
    },
    {
      "inputs": [
        {
          "internalType": "uint256",
          "name": "groupId",
          "type": "uint256"
        }
      ],
      "name": "amIEligibleRecipient",
      "outputs": [
        {
          "internalType": "bool",
          "name": "",
          "type": "bool"
        }
      ],
      "stateMutability": "view",
      "type": "function",
      "constant": true
    },
    {
      "inputs": [
        {
          "internalType": "uint256",
          "name": "groupId",
          "type": "uint256"
        }
      ],
      "name": "amIRegisteredRecipient",
      "outputs": [
        {
          "internalType": "bool",
          "name": "",
          "type": "bool"
        }
      ],
      "stateMutability": "view",
      "type": "function",
      "constant": true
    },
    {
      "inputs": [],
      "name": "ceoAddress",
      "outputs": [
        {
          "internalType": "address",
          "name": "",
          "type": "address"
        }
      ],
      "stateMutability": "view",
      "type": "function",
      "constant": true
    },
    {
      "inputs": [],
      "name": "cfoAddress",
      "outputs": [
        {
          "internalType": "address",
          "name": "",
          "type": "address"
        }
      ],
      "stateMutability": "view",
      "type": "function",
      "constant": true
    },
    {
      "inputs": [
        {
          "internalType": "uint256",
          "name": "groupId",
          "type": "uint256"
        }
      ],
      "name": "claimWinnings",
      "outputs": [],
      "stateMutability": "nonpayable",
      "type": "function"
    },
    {
      "inputs": [],
      "name": "cooAddress",
      "outputs": [
        {
          "internalType": "address",
          "name": "",
          "type": "address"
        }
      ],
      "stateMutability": "view",
      "type": "function",
      "constant": true
    },
    {
      "inputs": [
        {
          "internalType": "uint256",
          "name": "groupId",
          "type": "uint256"
        }
      ],
      "name": "doIHaveClaimableWinnings",
      "outputs": [
        {
          "internalType": "bool",
          "name": "",
          "type": "bool"
        }
      ],
      "stateMutability": "view",
      "type": "function",
      "constant": true
    },
    {
      "inputs": [],
      "name": "getCFO",
      "outputs": [
        {
          "internalType": "address",
          "name": "",
          "type": "address"
        }
      ],
      "stateMutability": "view",
      "type": "function",
      "constant": true
    },
    {
      "inputs": [],
      "name": "getCOO",
      "outputs": [
        {
          "internalType": "address",
          "name": "",
          "type": "address"
        }
      ],
      "stateMutability": "view",
      "type": "function",
      "constant": true
    },
    {
      "inputs": [
        {
          "internalType": "uint256",
          "name": "groupId",
          "type": "uint256"
        }
      ],
      "name": "getEligibleRecipientAddresses",
      "outputs": [
        {
          "internalType": "address[]",
          "name": "",
          "type": "address[]"
        }
      ],
      "stateMutability": "view",
      "type": "function",
      "constant": true
    },
    {
      "inputs": [
        {
          "internalType": "uint256",
          "name": "groupId",
          "type": "uint256"
        }
      ],
      "name": "getEligibleRecipientIsEligibilityEnabled",
      "outputs": [
        {
          "internalType": "bool[]",
          "name": "",
          "type": "bool[]"
        }
      ],
      "stateMutability": "view",
      "type": "function",
      "constant": true
    },
    {
      "inputs": [
        {
          "internalType": "uint256",
          "name": "groupId",
          "type": "uint256"
        }
      ],
      "name": "getEligibleRecipientNames",
      "outputs": [
        {
          "internalType": "string[]",
          "name": "",
          "type": "string[]"
        }
      ],
      "stateMutability": "view",
      "type": "function",
      "constant": true
    },
    {
      "inputs": [
        {
          "internalType": "uint256",
          "name": "groupId",
          "type": "uint256"
        }
      ],
      "name": "getGroupEventData",
      "outputs": [
        {
          "internalType": "enum EthDropBase.EventState",
          "name": "",
          "type": "uint8"
        },
        {
          "internalType": "uint256",
          "name": "",
          "type": "uint256"
        },
        {
          "internalType": "uint256",
          "name": "",
          "type": "uint256"
        },
        {
          "internalType": "uint256",
          "name": "",
          "type": "uint256"
        },
        {
          "internalType": "uint256",
          "name": "",
          "type": "uint256"
        }
      ],
      "stateMutability": "view",
      "type": "function",
      "constant": true
    },
    {
      "inputs": [],
      "name": "getGroupIds",
      "outputs": [
        {
          "internalType": "uint256[]",
          "name": "",
          "type": "uint256[]"
        }
      ],
      "stateMutability": "view",
      "type": "function",
      "constant": true
    },
    {
      "inputs": [],
      "name": "getGroupNames",
      "outputs": [
        {
          "internalType": "string[]",
          "name": "",
          "type": "string[]"
        }
      ],
      "stateMutability": "view",
      "type": "function",
      "constant": true
    },
    {
      "inputs": [
        {
          "internalType": "uint256",
          "name": "groupId",
          "type": "uint256"
        }
      ],
      "name": "getRegisteredRecipientNames",
      "outputs": [
        {
          "internalType": "string[]",
          "name": "",
          "type": "string[]"
        }
      ],
      "stateMutability": "view",
      "type": "function",
      "constant": true
    },
    {
      "inputs": [
        {
          "internalType": "uint256",
          "name": "groupId",
          "type": "uint256"
        }
      ],
      "name": "getRegisteredRecipients",
      "outputs": [
        {
          "internalType": "address[]",
          "name": "",
          "type": "address[]"
        }
      ],
      "stateMutability": "view",
      "type": "function",
      "constant": true
    },
    {
      "inputs": [],
      "name": "getString",
      "outputs": [
        {
          "internalType": "string",
          "name": "",
          "type": "string"
        }
      ],
      "stateMutability": "view",
      "type": "function",
      "constant": true
    },
    {
      "inputs": [],
      "name": "isCEO",
      "outputs": [
        {
          "internalType": "bool",
          "name": "",
          "type": "bool"
        }
      ],
      "stateMutability": "view",
      "type": "function",
      "constant": true
    },
    {
      "inputs": [],
      "name": "isCFO",
      "outputs": [
        {
          "internalType": "bool",
          "name": "",
          "type": "bool"
        }
      ],
      "stateMutability": "view",
      "type": "function",
      "constant": true
    },
    {
      "inputs": [],
      "name": "isCOO",
      "outputs": [
        {
          "internalType": "bool",
          "name": "",
          "type": "bool"
        }
      ],
      "stateMutability": "view",
      "type": "function",
      "constant": true
    },
    {
      "inputs": [
        {
          "internalType": "address",
          "name": "account",
          "type": "address"
        },
        {
          "internalType": "uint256",
          "name": "groupId",
          "type": "uint256"
        }
      ],
      "name": "isEligibleRecipient",
      "outputs": [
        {
          "internalType": "bool",
          "name": "",
          "type": "bool"
        }
      ],
      "stateMutability": "view",
      "type": "function",
      "constant": true
    },
    {
      "inputs": [],
      "name": "isPaused",
      "outputs": [
        {
          "internalType": "bool",
          "name": "",
          "type": "bool"
        }
      ],
      "stateMutability": "view",
      "type": "function",
      "constant": true
    },
    {
      "inputs": [
        {
          "internalType": "address",
          "name": "account",
          "type": "address"
        },
        {
          "internalType": "uint256",
          "name": "groupId",
          "type": "uint256"
        }
      ],
      "name": "isRegisteredRecipient",
      "outputs": [
        {
          "internalType": "bool",
          "name": "",
          "type": "bool"
        }
      ],
      "stateMutability": "view",
      "type": "function",
      "constant": true
    },
    {
      "inputs": [],
      "name": "pause",
      "outputs": [],
      "stateMutability": "nonpayable",
      "type": "function"
    },
    {
      "inputs": [],
      "name": "paused",
      "outputs": [
        {
          "internalType": "bool",
          "name": "",
          "type": "bool"
        }
      ],
      "stateMutability": "view",
      "type": "function",
      "constant": true
    },
    {
      "inputs": [
        {
          "internalType": "uint256",
          "name": "groupId",
          "type": "uint256"
        }
      ],
      "name": "registerForEvent",
      "outputs": [],
      "stateMutability": "nonpayable",
      "type": "function"
    },
    {
      "inputs": [
        {
          "internalType": "address",
          "name": "_newCEO",
          "type": "address"
        }
      ],
      "name": "setCEO",
      "outputs": [],
      "stateMutability": "nonpayable",
      "type": "function"
    },
    {
      "inputs": [
        {
          "internalType": "address",
          "name": "_newCFO",
          "type": "address"
        }
      ],
      "name": "setCFO",
      "outputs": [],
      "stateMutability": "nonpayable",
      "type": "function"
    },
    {
      "inputs": [
        {
          "internalType": "address",
          "name": "_newCOO",
          "type": "address"
        }
      ],
      "name": "setCOO",
      "outputs": [],
      "stateMutability": "nonpayable",
      "type": "function"
    },
    {
      "inputs": [
        {
          "internalType": "string",
          "name": "_s",
          "type": "string"
        }
      ],
      "name": "setString",
      "outputs": [],
      "stateMutability": "nonpayable",
      "type": "function"
    },
    {
      "inputs": [],
      "name": "stringgg",
      "outputs": [
        {
          "internalType": "string",
          "name": "",
          "type": "string"
        }
      ],
      "stateMutability": "view",
      "type": "function",
      "constant": true
    },
    {
      "inputs": [],
      "name": "unpause",
      "outputs": [
        {
          "internalType": "bool",
          "name": "",
          "type": "bool"
        }
      ],
      "stateMutability": "nonpayable",
      "type": "function"
    },
    {
      "inputs": [],
      "name": "whoami",
      "outputs": [
        {
          "internalType": "address",
          "name": "",
          "type": "address"
        }
      ],
      "stateMutability": "view",
      "type": "function",
      "constant": true
    },
    {
      "inputs": [
        {
          "internalType": "address",
          "name": "account",
          "type": "address"
        },
        {
          "internalType": "uint256",
          "name": "groupId",
          "type": "uint256"
        }
      ],
      "name": "isContributor",
      "outputs": [
        {
          "internalType": "bool",
          "name": "",
          "type": "bool"
        }
      ],
      "stateMutability": "view",
      "type": "function",
      "constant": true
    },
    {
      "inputs": [
        {
          "internalType": "uint256",
          "name": "groupId",
          "type": "uint256"
        }
      ],
      "name": "amIContributor",
      "outputs": [
        {
          "internalType": "bool",
          "name": "",
          "type": "bool"
        }
      ],
      "stateMutability": "view",
      "type": "function",
      "constant": true
    },
    {
      "inputs": [
        {
          "internalType": "uint256",
          "name": "groupId",
          "type": "uint256"
        }
      ],
      "name": "getCurrentSponsorAddress",
      "outputs": [
        {
          "internalType": "address",
          "name": "",
          "type": "address"
        }
      ],
      "stateMutability": "view",
      "type": "function",
      "constant": true
    },
    {
      "inputs": [
        {
          "internalType": "uint256",
          "name": "groupId",
          "type": "uint256"
        }
      ],
      "name": "renounceContributor",
      "outputs": [],
      "stateMutability": "nonpayable",
      "type": "function"
    },
    {
      "inputs": [
        {
          "internalType": "uint256",
          "name": "groupId",
          "type": "uint256"
        },
        {
          "internalType": "string",
          "name": "newContributorName",
          "type": "string"
        },
        {
          "internalType": "string",
          "name": "newContributorImgUrl",
          "type": "string"
        },
        {
          "internalType": "string",
          "name": "newContributorLinkToUrl",
          "type": "string"
        }
      ],
      "name": "updateContributorInfo",
      "outputs": [],
      "stateMutability": "nonpayable",
      "type": "function"
    },
    {
      "inputs": [
        {
          "internalType": "uint256",
          "name": "groupId",
          "type": "uint256"
        }
      ],
      "name": "getContributorInfo",
      "outputs": [
        {
          "internalType": "string",
          "name": "newContributorName",
          "type": "string"
        },
        {
          "internalType": "string",
          "name": "newContributorImgUrl",
          "type": "string"
        },
        {
          "internalType": "string",
          "name": "newContributorLinkToUrl",
          "type": "string"
        }
      ],
      "stateMutability": "view",
      "type": "function",
      "constant": true
    },
    {
      "inputs": [
        {
          "internalType": "uint256",
          "name": "groupId",
          "type": "uint256"
        }
      ],
      "name": "contributeToPot",
      "outputs": [],
      "stateMutability": "payable",
      "type": "function",
      "payable": true
    }
  ],
  "bytecode": "0x60806040526000600360146101000a81548160ff02191690831515021790555060056004556000600b5534801561003557600080fd5b506133bc806100456000396000f3fe6080604052600436106102465760003560e01c80637b936ac211610139578063b187bd26116100b6578063e513b7a91161007a578063e513b7a9146108f8578063e82f24e014610923578063ee41b5921461093f578063f4a02e701461097c578063f89e9cb9146109a7578063fc5fd6e4146109e457610246565b8063b187bd2614610821578063b3b36bb31461084c578063c02b8b2c14610877578063c6db5094146108a2578063d5f016c3146108cd57610246565b806389ea642f116100fd57806389ea642f1461073a5780639393ae37146107655780639bda879614610790578063aea88a05146107cd578063b047fb50146107f657610246565b80637b936ac2146106555780637d837ce5146106805780637fcaf666146106bd5780638182aaf2146106e65780638456cb591461072357610246565b806344b2983b116101c757806355b57ec11161018b57806355b57ec1146105485780635c975abb146105855780635e82c1fc146105b0578063674811ca146105ed578063677bd9ff1461062c57610246565b806344b2983b1461043b578063454432e2146104785780634635509b146104b55780634e0a3379146104f65780634f1ef03c1461051f57610246565b806327d7874c1161020e57806327d7874c146103585780632ba73c151461038157806338f0b656146103aa5780633f4ba83a146103e7578063406db8431461041257610246565b80630519ce791461024b57806306cc49221461027657806307bfa330146102b35780630a0f8168146102f05780630d82ffa01461031b575b600080fd5b34801561025757600080fd5b50610260610a0f565b60405161026d9190612d19565b60405180910390f35b34801561028257600080fd5b5061029d600480360381019061029891906128eb565b610a35565b6040516102aa9190612dbc565b60405180910390f35b3480156102bf57600080fd5b506102da60048036038101906102d591906128eb565b610a62565b6040516102e79190612d78565b60405180910390f35b3480156102fc57600080fd5b50610305610b4e565b6040516103129190612d19565b60405180910390f35b34801561032757600080fd5b50610342600480360381019061033d91906128eb565b610b74565b60405161034f9190612d19565b60405180910390f35b34801561036457600080fd5b5061037f600480360381019061037a9190612835565b610bb4565b005b34801561038d57600080fd5b506103a860048036038101906103a39190612835565b610c8c565b005b3480156103b657600080fd5b506103d160048036038101906103cc91906128eb565b610d90565b6040516103de9190612dbc565b60405180910390f35b3480156103f357600080fd5b506103fc610dbd565b6040516104099190612dbc565b60405180910390f35b34801561041e57600080fd5b50610439600480360381019061043491906128eb565b610e62565b005b34801561044757600080fd5b50610462600480360381019061045d91906128eb565b611116565b60405161046f9190612d34565b60405180910390f35b34801561048457600080fd5b5061049f600480360381019061049a91906128eb565b6111b7565b6040516104ac9190612d78565b60405180910390f35b3480156104c157600080fd5b506104dc60048036038101906104d791906128eb565b6112a3565b6040516104ed959493929190612dd7565b60405180910390f35b34801561050257600080fd5b5061051d60048036038101906105189190612835565b611626565b005b34801561052b57600080fd5b50610546600480360381019061054191906128eb565b6116f0565b005b34801561055457600080fd5b5061056f600480360381019061056a91906128eb565b61172c565b60405161057c9190612d56565b60405180910390f35b34801561059157600080fd5b5061059a6117bc565b6040516105a79190612dbc565b60405180910390f35b3480156105bc57600080fd5b506105d760048036038101906105d29190612862565b6117cf565b6040516105e49190612dbc565b60405180910390f35b3480156105f957600080fd5b50610614600480360381019061060f91906128eb565b611858565b60405161062393929190612e4c565b60405180910390f35b34801561063857600080fd5b50610653600480360381019061064e91906128eb565b611a50565b005b34801561066157600080fd5b5061066a611c35565b6040516106779190612d19565b60405180910390f35b34801561068c57600080fd5b506106a760048036038101906106a29190612862565b611c5f565b6040516106b49190612dbc565b60405180910390f35b3480156106c957600080fd5b506106e460048036038101906106df91906128a2565b611ce8565b005b3480156106f257600080fd5b5061070d60048036038101906107089190612862565b611d02565b60405161071a9190612dbc565b60405180910390f35b34801561072f57600080fd5b50610738611d8b565b005b34801561074657600080fd5b5061074f611ecc565b60405161075c9190612e2a565b60405180910390f35b34801561077157600080fd5b5061077a611f5e565b6040516107879190612dbc565b60405180910390f35b34801561079c57600080fd5b506107b760048036038101906107b291906128eb565b611fb6565b6040516107c49190612d34565b60405180910390f35b3480156107d957600080fd5b506107f460048036038101906107ef9190612918565b612057565b005b34801561080257600080fd5b5061080b612190565b6040516108189190612d19565b60405180910390f35b34801561082d57600080fd5b506108366121b6565b6040516108439190612dbc565b60405180910390f35b34801561085857600080fd5b506108616121cd565b60405161086e9190612d19565b60405180910390f35b34801561088357600080fd5b5061088c6121d5565b6040516108999190612d9a565b60405180910390f35b3480156108ae57600080fd5b506108b761222d565b6040516108c49190612e2a565b60405180910390f35b3480156108d957600080fd5b506108e26122bb565b6040516108ef9190612d78565b60405180910390f35b34801561090457600080fd5b5061090d612394565b60405161091a9190612dbc565b60405180910390f35b61093d600480360381019061093891906128eb565b6123ec565b005b34801561094b57600080fd5b50610966600480360381019061096191906128eb565b6124b1565b6040516109739190612dbc565b60405180910390f35b34801561098857600080fd5b506109916124de565b60405161099e9190612dbc565b60405180910390f35b3480156109b357600080fd5b506109ce60048036038101906109c991906128eb565b612536565b6040516109db9190612dbc565b60405180910390f35b3480156109f057600080fd5b506109f96125bd565b604051610a069190612d19565b60405180910390f35b600260009054906101000a900473ffffffffffffffffffffffffffffffffffffffff1681565b6000600360149054906101000a900460ff1615610a5157600080fd5b610a5b33836117cf565b9050919050565b606060166000838152602001908152602001600020805480602002602001604051908101604052809291908181526020016000905b82821015610b43578382906000526020600020018054610ab6906131b7565b80601f0160208091040260200160405190810160405280929190818152602001828054610ae2906131b7565b8015610b2f5780601f10610b0457610100808354040283529160200191610b2f565b820191906000526020600020905b815481529060010190602001808311610b1257829003601f168201915b505050505081526020019060010190610a97565b505050509050919050565b600160009054906101000a900473ffffffffffffffffffffffffffffffffffffffff1681565b600060076000838152602001908152602001600020600a0160009054906101000a900473ffffffffffffffffffffffffffffffffffffffff169050919050565b600160009054906101000a900473ffffffffffffffffffffffffffffffffffffffff1673ffffffffffffffffffffffffffffffffffffffff163373ffffffffffffffffffffffffffffffffffffffff1614610c0e57600080fd5b600073ffffffffffffffffffffffffffffffffffffffff168173ffffffffffffffffffffffffffffffffffffffff161415610c4857600080fd5b80600160006101000a81548173ffffffffffffffffffffffffffffffffffffffff021916908373ffffffffffffffffffffffffffffffffffffffff16021790555050565b600160009054906101000a900473ffffffffffffffffffffffffffffffffffffffff1673ffffffffffffffffffffffffffffffffffffffff163373ffffffffffffffffffffffffffffffffffffffff1614610ce657600080fd5b600073ffffffffffffffffffffffffffffffffffffffff168173ffffffffffffffffffffffffffffffffffffffff161415610d2057600080fd5b80600360006101000a81548173ffffffffffffffffffffffffffffffffffffffff021916908373ffffffffffffffffffffffffffffffffffffffff1602179055507fa308298a77084def994b565be25bff2e8fbfe7006c2c6b2bacfb84d1ba1f635060405160405180910390a150565b6000600360149054906101000a900460ff1615610dac57600080fd5b610db63383611c5f565b9050919050565b6000600160009054906101000a900473ffffffffffffffffffffffffffffffffffffffff1673ffffffffffffffffffffffffffffffffffffffff163373ffffffffffffffffffffffffffffffffffffffff1614610e1957600080fd5b600360149054906101000a900460ff16610e3257600080fd5b6000600360146101000a81548160ff021916908315150217905550600360149054906101000a900460ff16905090565b80610e6d33826117cf565b610e7657600080fd5b600360149054906101000a900460ff1615610e9057600080fd5b60016017600084815260200190815260200160002060003373ffffffffffffffffffffffffffffffffffffffff1673ffffffffffffffffffffffffffffffffffffffff16815260200190815260200160002060006101000a81548160ff02191690831515021790555060186000838152602001908152602001600020339080600181540180825580915050600190039060005260206000200160009091909190916101000a81548173ffffffffffffffffffffffffffffffffffffffff021916908373ffffffffffffffffffffffffffffffffffffffff16021790555060006015600084815260200190815260200160002060003373ffffffffffffffffffffffffffffffffffffffff1673ffffffffffffffffffffffffffffffffffffffff1681526020019081526020016000208054610fca906131b7565b80601f0160208091040260200160405190810160405280929190818152602001828054610ff6906131b7565b80156110435780601f1061101857610100808354040283529160200191611043565b820191906000526020600020905b81548152906001019060200180831161102657829003601f168201915b5050505050905060166000848152602001908152602001600020819080600181540180825580915050600190039060005260206000200160009091909190915090805190602001906110969291906126f8565b506007600084815260200190815260200160002060060160008154809291906110be9061321a565b91905055503373ffffffffffffffffffffffffffffffffffffffff167f0695e999be8100bdb5bee8612337296508d527eae78c65b8f170eacb5a3b439d846040516111099190612e98565b60405180910390a2505050565b6060601860008381526020019081526020016000208054806020026020016040519081016040528092919081815260200182805480156111ab57602002820191906000526020600020905b8160009054906101000a900473ffffffffffffffffffffffffffffffffffffffff1673ffffffffffffffffffffffffffffffffffffffff1681526020019060010190808311611161575b50505050509050919050565b606060136000838152602001908152602001600020805480602002602001604051908101604052809291908181526020016000905b8282101561129857838290600052602060002001805461120b906131b7565b80601f0160208091040260200160405190810160405280929190818152602001828054611237906131b7565b80156112845780601f1061125957610100808354040283529160200191611284565b820191906000526020600020905b81548152906001019060200180831161126757829003601f168201915b5050505050815260200190600101906111ec565b505050509050919050565b60008060008060008060076000888152602001908152602001600020604051806101c0016040529081600082015481526020016001820180546112e5906131b7565b80601f0160208091040260200160405190810160405280929190818152602001828054611311906131b7565b801561135e5780601f106113335761010080835404028352916020019161135e565b820191906000526020600020905b81548152906001019060200180831161134157829003601f168201915b505050505081526020016002820160009054906101000a900460ff16600381111561138c5761138b613292565b5b600381111561139e5761139d613292565b5b8152602001600382015481526020016004820154815260200160058201548152602001600682015481526020016007820180546113da906131b7565b80601f0160208091040260200160405190810160405280929190818152602001828054611406906131b7565b80156114535780601f1061142857610100808354040283529160200191611453565b820191906000526020600020905b81548152906001019060200180831161143657829003601f168201915b5050505050815260200160088201805461146c906131b7565b80601f0160208091040260200160405190810160405280929190818152602001828054611498906131b7565b80156114e55780601f106114ba576101008083540402835291602001916114e5565b820191906000526020600020905b8154815290600101906020018083116114c857829003601f168201915b505050505081526020016009820180546114fe906131b7565b80601f016020809104026020016040519081016040528092919081815260200182805461152a906131b7565b80156115775780601f1061154c57610100808354040283529160200191611577565b820191906000526020600020905b81548152906001019060200180831161155a57829003601f168201915b50505050508152602001600a820160009054906101000a900473ffffffffffffffffffffffffffffffffffffffff1673ffffffffffffffffffffffffffffffffffffffff1673ffffffffffffffffffffffffffffffffffffffff168152602001600b8201548152602001600c8201548152602001600d82015481525050905080604001518160c00151826101600151836101800151846101a00151955095509550955095505091939590929450565b600160009054906101000a900473ffffffffffffffffffffffffffffffffffffffff1673ffffffffffffffffffffffffffffffffffffffff163373ffffffffffffffffffffffffffffffffffffffff161461168057600080fd5b80600260006101000a81548173ffffffffffffffffffffffffffffffffffffffff021916908373ffffffffffffffffffffffffffffffffffffffff1602179055507f162e32528b5907ecf876b3b7a4e5e0edf878642e3ec25852e3c35af1a4e1c04060405160405180910390a150565b806116fb3382611d02565b61170457600080fd5b600360149054906101000a900460ff161561171e57600080fd5b61172833836125e7565b5050565b6060601460008381526020019081526020016000208054806020026020016040519081016040528092919081815260200182805480156117b057602002820191906000526020600020906000905b82829054906101000a900460ff1615158152602001906001019060208260000104928301926001038202915080841161177a5790505b50505050509050919050565b600360149054906101000a900460ff1681565b6000600360149054906101000a900460ff16156117eb57600080fd5b600115156011600084815260200190815260200160002060008573ffffffffffffffffffffffffffffffffffffffff1673ffffffffffffffffffffffffffffffffffffffff16815260200190815260200160002060009054906101000a900460ff16151514905092915050565b60608060606007600085815260200190815260200160002060070160076000868152602001908152602001600020600801600760008781526020019081526020016000206009018280546118ab906131b7565b80601f01602080910402602001604051908101604052809291908181526020018280546118d7906131b7565b80156119245780601f106118f957610100808354040283529160200191611924565b820191906000526020600020905b81548152906001019060200180831161190757829003601f168201915b50505050509250818054611937906131b7565b80601f0160208091040260200160405190810160405280929190818152602001828054611963906131b7565b80156119b05780601f10611985576101008083540402835291602001916119b0565b820191906000526020600020905b81548152906001019060200180831161199357829003601f168201915b505050505091508080546119c3906131b7565b80601f01602080910402602001604051908101604052809291908181526020018280546119ef906131b7565b8015611a3c5780601f10611a1157610100808354040283529160200191611a3c565b820191906000526020600020905b815481529060010190602001808311611a1f57829003601f168201915b505050505090509250925092509193909250565b80611a5b3382611c5f565b611a6457600080fd5b813360011515600c600084815260200190815260200160002060003373ffffffffffffffffffffffffffffffffffffffff1673ffffffffffffffffffffffffffffffffffffffff16815260200190815260200160002060009054906101000a900460ff1615151415611ad557600080fd5b600360149054906101000a900460ff1615611aef57600080fd5b6001600c600086815260200190815260200160002060003373ffffffffffffffffffffffffffffffffffffffff1673ffffffffffffffffffffffffffffffffffffffff16815260200190815260200160002060006101000a81548160ff02191690831515021790555060076000858152602001908152602001600020600d016000815480929190611b7f9061321a565b91905055503373ffffffffffffffffffffffffffffffffffffffff166108fc60076000878152602001908152602001600020600c01549081150290604051600060405180830381858888f19350505050158015611be0573d6000803e3d6000fd5b503373ffffffffffffffffffffffffffffffffffffffff167f1a31e733a172afcf46074b3106c17f0c298e226442682a03c1e99ce256139ec285604051611c279190612e98565b60405180910390a250505050565b6000600260009054906101000a900473ffffffffffffffffffffffffffffffffffffffff16905090565b6000600360149054906101000a900460ff1615611c7b57600080fd5b600115156017600084815260200190815260200160002060008573ffffffffffffffffffffffffffffffffffffffff1673ffffffffffffffffffffffffffffffffffffffff16815260200190815260200160002060009054906101000a900460ff16151514905092915050565b8060009080519060200190611cfe9291906126f8565b5050565b6000600360149054906101000a900460ff1615611d1e57600080fd5b60076000838152602001908152602001600020600a0160009054906101000a900473ffffffffffffffffffffffffffffffffffffffff1673ffffffffffffffffffffffffffffffffffffffff168373ffffffffffffffffffffffffffffffffffffffff1614905092915050565b600360009054906101000a900473ffffffffffffffffffffffffffffffffffffffff1673ffffffffffffffffffffffffffffffffffffffff163373ffffffffffffffffffffffffffffffffffffffff161480611e345750600160009054906101000a900473ffffffffffffffffffffffffffffffffffffffff1673ffffffffffffffffffffffffffffffffffffffff163373ffffffffffffffffffffffffffffffffffffffff16145b80611e8c5750600260009054906101000a900473ffffffffffffffffffffffffffffffffffffffff1673ffffffffffffffffffffffffffffffffffffffff163373ffffffffffffffffffffffffffffffffffffffff16145b611e9557600080fd5b600360149054906101000a900460ff1615611eaf57600080fd5b6001600360146101000a81548160ff021916908315150217905550565b606060008054611edb906131b7565b80601f0160208091040260200160405190810160405280929190818152602001828054611f07906131b7565b8015611f545780601f10611f2957610100808354040283529160200191611f54565b820191906000526020600020905b815481529060010190602001808311611f3757829003601f168201915b5050505050905090565b6000600260009054906101000a900473ffffffffffffffffffffffffffffffffffffffff1673ffffffffffffffffffffffffffffffffffffffff163373ffffffffffffffffffffffffffffffffffffffff1614905090565b60606012600083815260200190815260200160002080548060200260200160405190810160405280929190818152602001828054801561204b57602002820191906000526020600020905b8160009054906101000a900473ffffffffffffffffffffffffffffffffffffffff1673ffffffffffffffffffffffffffffffffffffffff1681526020019060010190808311612001575b50505050509050919050565b836120623382611d02565b61206b57600080fd5b6000845111156120a1578360076000878152602001908152602001600020600701908051906020019061209f9291906126f8565b505b6000835111156120d757826007600087815260200190815260200160002060080190805190602001906120d59291906126f8565b505b60008251111561210d578160076000878152602001908152602001600020600901908051906020019061210b9291906126f8565b505b7fcd9ad49d834aeea746bafd2d26eebd3d01ebac2d8f5d3f53d7f3884292e5835f856007600088815260200190815260200160002060070160076000898152602001908152602001600020600801600760008a81526020019081526020016000206009016040516121819493929190612eb3565b60405180910390a15050505050565b600360009054906101000a900473ffffffffffffffffffffffffffffffffffffffff1681565b6000600360149054906101000a900460ff16905090565b600033905090565b6060600580548060200260200160405190810160405280929190818152602001828054801561222357602002820191906000526020600020905b81548152602001906001019080831161220f575b5050505050905090565b6000805461223a906131b7565b80601f0160208091040260200160405190810160405280929190818152602001828054612266906131b7565b80156122b35780601f10612288576101008083540402835291602001916122b3565b820191906000526020600020905b81548152906001019060200180831161229657829003601f168201915b505050505081565b60606006805480602002602001604051908101604052809291908181526020016000905b8282101561238b5783829060005260206000200180546122fe906131b7565b80601f016020809104026020016040519081016040528092919081815260200182805461232a906131b7565b80156123775780601f1061234c57610100808354040283529160200191612377565b820191906000526020600020905b81548152906001019060200180831161235a57829003601f168201915b5050505050815260200190600101906122df565b50505050905090565b6000600160009054906101000a900473ffffffffffffffffffffffffffffffffffffffff1673ffffffffffffffffffffffffffffffffffffffff163373ffffffffffffffffffffffffffffffffffffffff1614905090565b806123f73382611d02565b61240057600080fd5b600360149054906101000a900460ff161561241a57600080fd5b3460076000848152602001908152602001600020600b01600082825461244091906130b2565b925050819055503373ffffffffffffffffffffffffffffffffffffffff167f5dc1fe5ab986a852c4eda8e8bb94247d13307065c593fb83f1a09be2736793828360076000868152602001908152602001600020600b01546040516124a5929190612f0d565b60405180910390a25050565b6000600360149054906101000a900460ff16156124cd57600080fd5b6124d73383611d02565b9050919050565b6000600360009054906101000a900473ffffffffffffffffffffffffffffffffffffffff1673ffffffffffffffffffffffffffffffffffffffff163373ffffffffffffffffffffffffffffffffffffffff1614905090565b60006125423383611c5f565b61254f57600090506125b8565b60011515600c600084815260200190815260200160002060003373ffffffffffffffffffffffffffffffffffffffff1673ffffffffffffffffffffffffffffffffffffffff16815260200190815260200160002060009054906101000a900460ff161515141590505b919050565b6000600360009054906101000a900473ffffffffffffffffffffffffffffffffffffffff16905090565b60006010600083815260200190815260200160002060008473ffffffffffffffffffffffffffffffffffffffff1673ffffffffffffffffffffffffffffffffffffffff16815260200190815260200160002060006101000a81548160ff021916908315150217905550600060076000838152602001908152602001600020600a0160006101000a81548173ffffffffffffffffffffffffffffffffffffffff021916908373ffffffffffffffffffffffffffffffffffffffff1602179055508173ffffffffffffffffffffffffffffffffffffffff167fda111d7eb5d5b2033c4ffad00cd7cd42f45af2813bee1a69e65f26d90ea15f0b826040516126ec9190612e98565b60405180910390a25050565b828054612704906131b7565b90600052602060002090601f016020900481019282612726576000855561276d565b82601f1061273f57805160ff191683800117855561276d565b8280016001018555821561276d579182015b8281111561276c578251825591602001919060010190612751565b5b50905061277a919061277e565b5090565b5b8082111561279757600081600090555060010161277f565b5090565b60006127ae6127a984612f5b565b612f36565b9050828152602081018484840111156127ca576127c9613324565b5b6127d5848285613175565b509392505050565b6000813590506127ec81613358565b92915050565b600082601f8301126128075761280661331f565b5b813561281784826020860161279b565b91505092915050565b60008135905061282f8161336f565b92915050565b60006020828403121561284b5761284a61332e565b5b6000612859848285016127dd565b91505092915050565b600080604083850312156128795761287861332e565b5b6000612887858286016127dd565b925050602061289885828601612820565b9150509250929050565b6000602082840312156128b8576128b761332e565b5b600082013567ffffffffffffffff8111156128d6576128d5613329565b5b6128e2848285016127f2565b91505092915050565b6000602082840312156129015761290061332e565b5b600061290f84828501612820565b91505092915050565b600080600080608085870312156129325761293161332e565b5b600061294087828801612820565b945050602085013567ffffffffffffffff81111561296157612960613329565b5b61296d878288016127f2565b935050604085013567ffffffffffffffff81111561298e5761298d613329565b5b61299a878288016127f2565b925050606085013567ffffffffffffffff8111156129bb576129ba613329565b5b6129c7878288016127f2565b91505092959194509250565b60006129df8383612a2f565b60208301905092915050565b60006129f78383612bdc565b60208301905092915050565b6000612a0f8383612c09565b905092915050565b6000612a238383612cfb565b60208301905092915050565b612a3881613108565b82525050565b612a4781613108565b82525050565b6000612a5882612fe1565b612a62818561304c565b9350612a6d83612f8c565b8060005b83811015612a9e578151612a8588826129d3565b9750612a9083613018565b925050600181019050612a71565b5085935050505092915050565b6000612ab682612fec565b612ac0818561305d565b9350612acb83612f9c565b8060005b83811015612afc578151612ae388826129eb565b9750612aee83613025565b925050600181019050612acf565b5085935050505092915050565b6000612b1482612ff7565b612b1e818561306e565b935083602082028501612b3085612fac565b8060005b85811015612b6c5784840389528151612b4d8582612a03565b9450612b5883613032565b925060208a01995050600181019050612b34565b50829750879550505050505092915050565b6000612b8982613002565b612b93818561307f565b9350612b9e83612fbc565b8060005b83811015612bcf578151612bb68882612a17565b9750612bc18361303f565b925050600181019050612ba2565b5085935050505092915050565b612be58161311a565b82525050565b612bf48161311a565b82525050565b612c0381613163565b82525050565b6000612c148261300d565b612c1e8185613090565b9350612c2e818560208601613184565b612c3781613333565b840191505092915050565b6000612c4d8261300d565b612c5781856130a1565b9350612c67818560208601613184565b612c7081613333565b840191505092915050565b60008154612c88816131b7565b612c9281866130a1565b94506001821660008114612cad5760018114612cbf57612cf2565b60ff1983168652602086019350612cf2565b612cc885612fcc565b60005b83811015612cea57815481890152600182019150602081019050612ccb565b808801955050505b50505092915050565b612d0481613159565b82525050565b612d1381613159565b82525050565b6000602082019050612d2e6000830184612a3e565b92915050565b60006020820190508181036000830152612d4e8184612a4d565b905092915050565b60006020820190508181036000830152612d708184612aab565b905092915050565b60006020820190508181036000830152612d928184612b09565b905092915050565b60006020820190508181036000830152612db48184612b7e565b905092915050565b6000602082019050612dd16000830184612beb565b92915050565b600060a082019050612dec6000830188612bfa565b612df96020830187612d0a565b612e066040830186612d0a565b612e136060830185612d0a565b612e206080830184612d0a565b9695505050505050565b60006020820190508181036000830152612e448184612c42565b905092915050565b60006060820190508181036000830152612e668186612c42565b90508181036020830152612e7a8185612c42565b90508181036040830152612e8e8184612c42565b9050949350505050565b6000602082019050612ead6000830184612d0a565b92915050565b6000608082019050612ec86000830187612d0a565b8181036020830152612eda8186612c7b565b90508181036040830152612eee8185612c7b565b90508181036060830152612f028184612c7b565b905095945050505050565b6000604082019050612f226000830185612d0a565b612f2f6020830184612d0a565b9392505050565b6000612f40612f51565b9050612f4c82826131e9565b919050565b6000604051905090565b600067ffffffffffffffff821115612f7657612f756132f0565b5b612f7f82613333565b9050602081019050919050565b6000819050602082019050919050565b6000819050602082019050919050565b6000819050602082019050919050565b6000819050602082019050919050565b60008190508160005260206000209050919050565b600081519050919050565b600081519050919050565b600081519050919050565b600081519050919050565b600081519050919050565b6000602082019050919050565b6000602082019050919050565b6000602082019050919050565b6000602082019050919050565b600082825260208201905092915050565b600082825260208201905092915050565b600082825260208201905092915050565b600082825260208201905092915050565b600082825260208201905092915050565b600082825260208201905092915050565b60006130bd82613159565b91506130c883613159565b9250827fffffffffffffffffffffffffffffffffffffffffffffffffffffffffffffffff038211156130fd576130fc613263565b5b828201905092915050565b600061311382613139565b9050919050565b60008115159050919050565b600081905061313482613344565b919050565b600073ffffffffffffffffffffffffffffffffffffffff82169050919050565b6000819050919050565b600061316e82613126565b9050919050565b82818337600083830152505050565b60005b838110156131a2578082015181840152602081019050613187565b838111156131b1576000848401525b50505050565b600060028204905060018216806131cf57607f821691505b602082108114156131e3576131e26132c1565b5b50919050565b6131f282613333565b810181811067ffffffffffffffff82111715613211576132106132f0565b5b80604052505050565b600061322582613159565b91507fffffffffffffffffffffffffffffffffffffffffffffffffffffffffffffffff82141561325857613257613263565b5b600182019050919050565b7f4e487b7100000000000000000000000000000000000000000000000000000000600052601160045260246000fd5b7f4e487b7100000000000000000000000000000000000000000000000000000000600052602160045260246000fd5b7f4e487b7100000000000000000000000000000000000000000000000000000000600052602260045260246000fd5b7f4e487b7100000000000000000000000000000000000000000000000000000000600052604160045260246000fd5b600080fd5b600080fd5b600080fd5b600080fd5b6000601f19601f8301169050919050565b6004811061335557613354613292565b5b50565b61336181613108565b811461336c57600080fd5b50565b61337881613159565b811461338357600080fd5b5056fea2646970667358221220b759fc67033ae0a24c491d3f5dadf6513b870a6056a2fafbbe7ad70436b2246d64736f6c63430008060033",
  "immutableReferences": {},
  "source": "// SPDX-License-Identifier: MIT\npragma solidity ^0.8.0;\n\nimport \"./RecipientsManager.sol\";\n\ncontract ContributorManager is RecipientsManager {\n    event ContributorAdded(address indexed account, uint256 groupId);\n    event ContributorRemoved(address indexed account, uint256 groupId);\n\n    event ContributorAddressUpdated(uint256 groupId, address newContributor);\n    event ContributorInfoUpdated(\n        uint256 groupId,\n        string sponsorName,\n        string imgUrl,\n        string imgLinkToUrl\n    );\n\n    event ContributionMade(\n        address indexed account,\n        uint256 groupId,\n        uint256 amount\n    );\n\n    constructor() {}\n\n    modifier onlyContributor(uint256 groupId) {\n        require(isContributor(msg.sender, groupId));\n        _;\n    }\n\n    function isContributor(address account, uint256 groupId)\n        public\n        view\n        whenNotPaused\n        returns (bool)\n    {\n        return account == currentEvents[groupId].currentContributor;\n    }\n\n    function amIContributor(uint256 groupId)\n        external\n        view\n        whenNotPaused\n        returns (bool)\n    {\n        return isContributor(msg.sender, groupId);\n    }\n\n    function getCurrentSponsorAddress(uint256 groupId)\n        external\n        view\n        returns (address)\n    {\n        return currentEvents[groupId].currentContributor;\n    }\n\n    function renounceContributor(uint256 groupId)\n        external\n        onlyContributor(groupId)\n        whenNotPaused\n    {\n        _removeContributor(msg.sender, groupId);\n    }\n\n    function _changeContributor(address account, uint256 groupId) internal {\n        contributors[groupId][account] = true;\n\n        currentEvents[groupId].currentContributor = account;\n        emit ContributorAdded(account, groupId);\n    }\n\n    function _removeContributor(address account, uint256 groupId) internal {\n        contributors[groupId][account] = false;\n\n        currentEvents[groupId].currentContributor = address(0);\n        emit ContributorRemoved(account, groupId);\n    }\n\n    function updateContributorInfo(\n        uint256 groupId,\n        string memory newContributorName,\n        string memory newContributorImgUrl,\n        string memory newContributorLinkToUrl\n    ) external onlyContributor(groupId) {\n        if (bytes(newContributorName).length > 0) {\n            currentEvents[groupId].sponsorName = newContributorName;\n        }\n        if (bytes(newContributorImgUrl).length > 0) {\n            currentEvents[groupId].sponsorImageUrl = newContributorImgUrl;\n        }\n        if (bytes(newContributorLinkToUrl).length > 0) {\n            currentEvents[groupId].sponsorLinkToUrl = newContributorLinkToUrl;\n        }\n\n        emit ContributorInfoUpdated(\n            groupId,\n            currentEvents[groupId].sponsorName,\n            currentEvents[groupId].sponsorImageUrl,\n            currentEvents[groupId].sponsorLinkToUrl\n        );\n    }\n\n    function getContributorInfo(uint256 groupId)\n        external\n        view\n        returns (\n            string memory newContributorName,\n            string memory newContributorImgUrl,\n            string memory newContributorLinkToUrl\n        )\n    {\n        return (\n            currentEvents[groupId].sponsorName,\n            currentEvents[groupId].sponsorImageUrl,\n            currentEvents[groupId].sponsorLinkToUrl\n        );\n    }\n\n    function contributeToPot(uint256 groupId)\n        external\n        payable\n        onlyContributor(groupId)\n        whenNotPaused\n    {\n        currentEvents[groupId].totalAmountContributed += msg.value;\n        emit ContributionMade(\n            msg.sender,\n            groupId,\n            currentEvents[groupId].totalAmountContributed\n        );\n    }\n}\n",
  "sourcePath": "/Users/jim/Git-Projects/EthDrop/contracts/roles/ContributorManager.sol",
  "compiler": {
    "name": "solc",
    "version": "0.8.6+commit.11564f7e.Emscripten.clang"
  },
  "schemaVersion": "3.4.1",
  "updatedAt": "2021-07-29T17:31:33.556Z",
  "networkType": "ethereum",
  "devdoc": {
    "kind": "dev",
    "methods": {
      "pause()": {
        "details": "Called by any \"C-level\" role to pause the contract. Used only when  a bug or exploit is detected and we need to limit damage."
      },
      "setCEO(address)": {
        "details": "Assigns a new address to act as the CEO. Only available to the current CEO.",
        "params": {
          "_newCEO": "The address of the new CEO"
        }
      },
      "setCFO(address)": {
        "details": "Assigns a new address to act as the CFO. Only available to the current CEO.",
        "params": {
          "_newCFO": "The address of the new CFO"
        }
      },
      "setCOO(address)": {
        "details": "Assigns a new address to act as the COO. Only available to the current CEO.",
        "params": {
          "_newCOO": "The address of the new COO"
        }
      },
      "unpause()": {
        "details": "Unpauses the smart contract. Can only be called by the CEO, since  one reason we may pause the contract is when CFO or COO accounts are  compromised."
      }
    },
    "version": 1
  },
  "userdoc": {
    "kind": "user",
    "methods": {
      "unpause()": {
        "notice": "This is public rather than external so it can be called by  derived contracts."
      }
    },
    "version": 1
  }
}