{
  "contractName": "EthDropBase",
  "abi": [
    {
      "anonymous": false,
      "inputs": [
        {
          "indexed": false,
          "internalType": "address",
          "name": "newContract",
          "type": "address"
        }
      ],
      "name": "ContractUpgrade",
      "type": "event"
    },
    {
      "anonymous": false,
      "inputs": [],
      "name": "EventClose",
      "type": "event"
    },
    {
      "anonymous": false,
      "inputs": [],
      "name": "RegistrationOpen",
      "type": "event"
    },
    {
      "anonymous": false,
      "inputs": [
        {
          "indexed": false,
          "internalType": "address",
          "name": "from",
          "type": "address"
        },
        {
          "indexed": false,
          "internalType": "address",
          "name": "to",
          "type": "address"
        }
      ],
      "name": "Transfer",
      "type": "event"
    },
    {
      "anonymous": false,
      "inputs": [],
      "name": "WinningsClaimingOpen",
      "type": "event"
    },
    {
      "inputs": [],
      "name": "ceoAddress",
      "outputs": [
        {
          "internalType": "address",
          "name": "",
          "type": "address"
        }
      ],
      "stateMutability": "view",
      "type": "function",
      "constant": true
    },
    {
      "inputs": [],
      "name": "cfoAddress",
      "outputs": [
        {
          "internalType": "address",
          "name": "",
          "type": "address"
        }
      ],
      "stateMutability": "view",
      "type": "function",
      "constant": true
    },
    {
      "inputs": [],
      "name": "cooAddress",
      "outputs": [
        {
          "internalType": "address",
          "name": "",
          "type": "address"
        }
      ],
      "stateMutability": "view",
      "type": "function",
      "constant": true
    },
    {
      "inputs": [],
      "name": "getCFO",
      "outputs": [
        {
          "internalType": "address",
          "name": "",
          "type": "address"
        }
      ],
      "stateMutability": "view",
      "type": "function",
      "constant": true
    },
    {
      "inputs": [],
      "name": "getCOO",
      "outputs": [
        {
          "internalType": "address",
          "name": "",
          "type": "address"
        }
      ],
      "stateMutability": "view",
      "type": "function",
      "constant": true
    },
    {
      "inputs": [],
      "name": "getString",
      "outputs": [
        {
          "internalType": "string",
          "name": "",
          "type": "string"
        }
      ],
      "stateMutability": "view",
      "type": "function",
      "constant": true
    },
    {
      "inputs": [],
      "name": "isCEO",
      "outputs": [
        {
          "internalType": "bool",
          "name": "",
          "type": "bool"
        }
      ],
      "stateMutability": "view",
      "type": "function",
      "constant": true
    },
    {
      "inputs": [],
      "name": "isCFO",
      "outputs": [
        {
          "internalType": "bool",
          "name": "",
          "type": "bool"
        }
      ],
      "stateMutability": "view",
      "type": "function",
      "constant": true
    },
    {
      "inputs": [],
      "name": "isCOO",
      "outputs": [
        {
          "internalType": "bool",
          "name": "",
          "type": "bool"
        }
      ],
      "stateMutability": "view",
      "type": "function",
      "constant": true
    },
    {
      "inputs": [],
      "name": "isPaused",
      "outputs": [
        {
          "internalType": "bool",
          "name": "",
          "type": "bool"
        }
      ],
      "stateMutability": "view",
      "type": "function",
      "constant": true
    },
    {
      "inputs": [],
      "name": "pause",
      "outputs": [],
      "stateMutability": "nonpayable",
      "type": "function"
    },
    {
      "inputs": [],
      "name": "paused",
      "outputs": [
        {
          "internalType": "bool",
          "name": "",
          "type": "bool"
        }
      ],
      "stateMutability": "view",
      "type": "function",
      "constant": true
    },
    {
      "inputs": [
        {
          "internalType": "address",
          "name": "_newCEO",
          "type": "address"
        }
      ],
      "name": "setCEO",
      "outputs": [],
      "stateMutability": "nonpayable",
      "type": "function"
    },
    {
      "inputs": [
        {
          "internalType": "address",
          "name": "_newCFO",
          "type": "address"
        }
      ],
      "name": "setCFO",
      "outputs": [],
      "stateMutability": "nonpayable",
      "type": "function"
    },
    {
      "inputs": [
        {
          "internalType": "address",
          "name": "_newCOO",
          "type": "address"
        }
      ],
      "name": "setCOO",
      "outputs": [],
      "stateMutability": "nonpayable",
      "type": "function"
    },
    {
      "inputs": [
        {
          "internalType": "string",
          "name": "_s",
          "type": "string"
        }
      ],
      "name": "setString",
      "outputs": [],
      "stateMutability": "nonpayable",
      "type": "function"
    },
    {
      "inputs": [],
      "name": "stringgg",
      "outputs": [
        {
          "internalType": "string",
          "name": "",
          "type": "string"
        }
      ],
      "stateMutability": "view",
      "type": "function",
      "constant": true
    },
    {
      "inputs": [],
      "name": "unpause",
      "outputs": [
        {
          "internalType": "bool",
          "name": "",
          "type": "bool"
        }
      ],
      "stateMutability": "nonpayable",
      "type": "function"
    },
    {
      "inputs": [],
      "name": "whoami",
      "outputs": [
        {
          "internalType": "address",
          "name": "",
          "type": "address"
        }
      ],
      "stateMutability": "view",
      "type": "function",
      "constant": true
    },
    {
      "inputs": [],
      "name": "getGroupIds",
      "outputs": [
        {
          "internalType": "uint256[]",
          "name": "",
          "type": "uint256[]"
        }
      ],
      "stateMutability": "view",
      "type": "function",
      "constant": true
    },
    {
      "inputs": [],
      "name": "getGroupNames",
      "outputs": [
        {
          "internalType": "string[]",
          "name": "",
          "type": "string[]"
        }
      ],
      "stateMutability": "view",
      "type": "function",
      "constant": true
    },
    {
      "inputs": [
        {
          "internalType": "uint256",
          "name": "groupId",
          "type": "uint256"
        }
      ],
      "name": "getGroupEventData",
      "outputs": [
        {
          "internalType": "enum EthDropBase.EventState",
          "name": "",
          "type": "uint8"
        },
        {
          "internalType": "uint256",
          "name": "",
          "type": "uint256"
        },
        {
          "internalType": "uint256",
          "name": "",
          "type": "uint256"
        },
        {
          "internalType": "uint256",
          "name": "",
          "type": "uint256"
        },
        {
          "internalType": "uint256",
          "name": "",
          "type": "uint256"
        }
      ],
      "stateMutability": "view",
      "type": "function",
      "constant": true
    }
  ],
  "bytecode": "0x60806040526000600360146101000a81548160ff02191690831515021790555060056004556000600b5534801561003557600080fd5b506117b3806100456000396000f3fe608060405234801561001057600080fd5b50600436106101425760003560e01c806389ea642f116100b8578063c02b8b2c1161007c578063c02b8b2c14610321578063c6db50941461033f578063d5f016c31461035d578063e513b7a91461037b578063f4a02e7014610399578063fc5fd6e4146103b757610142565b806389ea642f1461028b5780639393ae37146102a9578063b047fb50146102c7578063b187bd26146102e5578063b3b36bb31461030357610142565b80634635509b1161010a5780634635509b146101d95780634e0a33791461020d5780635c975abb146102295780637b936ac2146102475780637fcaf666146102655780638456cb591461028157610142565b80630519ce79146101475780630a0f81681461016557806327d7874c146101835780632ba73c151461019f5780633f4ba83a146101bb575b600080fd5b61014f6103d5565b60405161015c9190611393565b60405180910390f35b61016d6103fb565b60405161017a9190611393565b60405180910390f35b61019d60048036038101906101989190611134565b610421565b005b6101b960048036038101906101b49190611134565b6104f9565b005b6101c36105d1565b6040516101d091906113f2565b60405180910390f35b6101f360048036038101906101ee91906111aa565b610676565b60405161020495949392919061140d565b60405180910390f35b61022760048036038101906102229190611134565b6109f9565b005b610231610a97565b60405161023e91906113f2565b60405180910390f35b61024f610aaa565b60405161025c9190611393565b60405180910390f35b61027f600480360381019061027a9190611161565b610ad4565b005b610289610aee565b005b610293610c2f565b6040516102a09190611460565b60405180910390f35b6102b1610cc1565b6040516102be91906113f2565b60405180910390f35b6102cf610d19565b6040516102dc9190611393565b60405180910390f35b6102ed610d3f565b6040516102fa91906113f2565b60405180910390f35b61030b610d56565b6040516103189190611393565b60405180910390f35b610329610d5e565b60405161033691906113d0565b60405180910390f35b610347610db6565b6040516103549190611460565b60405180910390f35b610365610e44565b60405161037291906113ae565b60405180910390f35b610383610f1d565b60405161039091906113f2565b60405180910390f35b6103a1610f75565b6040516103ae91906113f2565b60405180910390f35b6103bf610fcd565b6040516103cc9190611393565b60405180910390f35b600260009054906101000a900473ffffffffffffffffffffffffffffffffffffffff1681565b600160009054906101000a900473ffffffffffffffffffffffffffffffffffffffff1681565b600160009054906101000a900473ffffffffffffffffffffffffffffffffffffffff1673ffffffffffffffffffffffffffffffffffffffff163373ffffffffffffffffffffffffffffffffffffffff161461047b57600080fd5b600073ffffffffffffffffffffffffffffffffffffffff168173ffffffffffffffffffffffffffffffffffffffff1614156104b557600080fd5b80600160006101000a81548173ffffffffffffffffffffffffffffffffffffffff021916908373ffffffffffffffffffffffffffffffffffffffff16021790555050565b600160009054906101000a900473ffffffffffffffffffffffffffffffffffffffff1673ffffffffffffffffffffffffffffffffffffffff163373ffffffffffffffffffffffffffffffffffffffff161461055357600080fd5b600073ffffffffffffffffffffffffffffffffffffffff168173ffffffffffffffffffffffffffffffffffffffff16141561058d57600080fd5b80600360006101000a81548173ffffffffffffffffffffffffffffffffffffffff021916908373ffffffffffffffffffffffffffffffffffffffff16021790555050565b6000600160009054906101000a900473ffffffffffffffffffffffffffffffffffffffff1673ffffffffffffffffffffffffffffffffffffffff163373ffffffffffffffffffffffffffffffffffffffff161461062d57600080fd5b600360149054906101000a900460ff1661064657600080fd5b6000600360146101000a81548160ff021916908315150217905550600360149054906101000a900460ff16905090565b60008060008060008060076000888152602001908152602001600020604051806101c0016040529081600082015481526020016001820180546106b890611626565b80601f01602080910402602001604051908101604052809291908181526020018280546106e490611626565b80156107315780601f1061070657610100808354040283529160200191610731565b820191906000526020600020905b81548152906001019060200180831161071457829003601f168201915b505050505081526020016002820160009054906101000a900460ff16600381111561075f5761075e611689565b5b600381111561077157610770611689565b5b8152602001600382015481526020016004820154815260200160058201548152602001600682015481526020016007820180546107ad90611626565b80601f01602080910402602001604051908101604052809291908181526020018280546107d990611626565b80156108265780601f106107fb57610100808354040283529160200191610826565b820191906000526020600020905b81548152906001019060200180831161080957829003601f168201915b5050505050815260200160088201805461083f90611626565b80601f016020809104026020016040519081016040528092919081815260200182805461086b90611626565b80156108b85780601f1061088d576101008083540402835291602001916108b8565b820191906000526020600020905b81548152906001019060200180831161089b57829003601f168201915b505050505081526020016009820180546108d190611626565b80601f01602080910402602001604051908101604052809291908181526020018280546108fd90611626565b801561094a5780601f1061091f5761010080835404028352916020019161094a565b820191906000526020600020905b81548152906001019060200180831161092d57829003601f168201915b50505050508152602001600a820160009054906101000a900473ffffffffffffffffffffffffffffffffffffffff1673ffffffffffffffffffffffffffffffffffffffff1673ffffffffffffffffffffffffffffffffffffffff168152602001600b8201548152602001600c8201548152602001600d82015481525050905080604001518160c00151826101600151836101800151846101a00151955095509550955095505091939590929450565b600160009054906101000a900473ffffffffffffffffffffffffffffffffffffffff1673ffffffffffffffffffffffffffffffffffffffff163373ffffffffffffffffffffffffffffffffffffffff1614610a5357600080fd5b80600260006101000a81548173ffffffffffffffffffffffffffffffffffffffff021916908373ffffffffffffffffffffffffffffffffffffffff16021790555050565b600360149054906101000a900460ff1681565b6000600260009054906101000a900473ffffffffffffffffffffffffffffffffffffffff16905090565b8060009080519060200190610aea929190610ff7565b5050565b600360009054906101000a900473ffffffffffffffffffffffffffffffffffffffff1673ffffffffffffffffffffffffffffffffffffffff163373ffffffffffffffffffffffffffffffffffffffff161480610b975750600160009054906101000a900473ffffffffffffffffffffffffffffffffffffffff1673ffffffffffffffffffffffffffffffffffffffff163373ffffffffffffffffffffffffffffffffffffffff16145b80610bef5750600260009054906101000a900473ffffffffffffffffffffffffffffffffffffffff1673ffffffffffffffffffffffffffffffffffffffff163373ffffffffffffffffffffffffffffffffffffffff16145b610bf857600080fd5b600360149054906101000a900460ff1615610c1257600080fd5b6001600360146101000a81548160ff021916908315150217905550565b606060008054610c3e90611626565b80601f0160208091040260200160405190810160405280929190818152602001828054610c6a90611626565b8015610cb75780601f10610c8c57610100808354040283529160200191610cb7565b820191906000526020600020905b815481529060010190602001808311610c9a57829003601f168201915b5050505050905090565b6000600260009054906101000a900473ffffffffffffffffffffffffffffffffffffffff1673ffffffffffffffffffffffffffffffffffffffff163373ffffffffffffffffffffffffffffffffffffffff1614905090565b600360009054906101000a900473ffffffffffffffffffffffffffffffffffffffff1681565b6000600360149054906101000a900460ff16905090565b600033905090565b60606005805480602002602001604051908101604052809291908181526020018280548015610dac57602002820191906000526020600020905b815481526020019060010190808311610d98575b5050505050905090565b60008054610dc390611626565b80601f0160208091040260200160405190810160405280929190818152602001828054610def90611626565b8015610e3c5780601f10610e1157610100808354040283529160200191610e3c565b820191906000526020600020905b815481529060010190602001808311610e1f57829003601f168201915b505050505081565b60606006805480602002602001604051908101604052809291908181526020016000905b82821015610f14578382906000526020600020018054610e8790611626565b80601f0160208091040260200160405190810160405280929190818152602001828054610eb390611626565b8015610f005780601f10610ed557610100808354040283529160200191610f00565b820191906000526020600020905b815481529060010190602001808311610ee357829003601f168201915b505050505081526020019060010190610e68565b50505050905090565b6000600160009054906101000a900473ffffffffffffffffffffffffffffffffffffffff1673ffffffffffffffffffffffffffffffffffffffff163373ffffffffffffffffffffffffffffffffffffffff1614905090565b6000600360009054906101000a900473ffffffffffffffffffffffffffffffffffffffff1673ffffffffffffffffffffffffffffffffffffffff163373ffffffffffffffffffffffffffffffffffffffff1614905090565b6000600360009054906101000a900473ffffffffffffffffffffffffffffffffffffffff16905090565b82805461100390611626565b90600052602060002090601f016020900481019282611025576000855561106c565b82601f1061103e57805160ff191683800117855561106c565b8280016001018555821561106c579182015b8281111561106b578251825591602001919060010190611050565b5b509050611079919061107d565b5090565b5b8082111561109657600081600090555060010161107e565b5090565b60006110ad6110a8846114a7565b611482565b9050828152602081018484840111156110c9576110c861171b565b5b6110d48482856115e4565b509392505050565b6000813590506110eb8161174f565b92915050565b600082601f83011261110657611105611716565b5b813561111684826020860161109a565b91505092915050565b60008135905061112e81611766565b92915050565b60006020828403121561114a57611149611725565b5b6000611158848285016110dc565b91505092915050565b60006020828403121561117757611176611725565b5b600082013567ffffffffffffffff81111561119557611194611720565b5b6111a1848285016110f1565b91505092915050565b6000602082840312156111c0576111bf611725565b5b60006111ce8482850161111f565b91505092915050565b60006111e38383611303565b905092915050565b60006111f78383611375565b60208301905092915050565b61120c81611577565b82525050565b600061121d826114f8565b6112278185611533565b935083602082028501611239856114d8565b8060005b85811015611275578484038952815161125685826111d7565b945061126183611519565b925060208a0199505060018101905061123d565b50829750879550505050505092915050565b600061129282611503565b61129c8185611544565b93506112a7836114e8565b8060005b838110156112d85781516112bf88826111eb565b97506112ca83611526565b9250506001810190506112ab565b5085935050505092915050565b6112ee81611589565b82525050565b6112fd816115d2565b82525050565b600061130e8261150e565b6113188185611555565b93506113288185602086016115f3565b6113318161172a565b840191505092915050565b60006113478261150e565b6113518185611566565b93506113618185602086016115f3565b61136a8161172a565b840191505092915050565b61137e816115c8565b82525050565b61138d816115c8565b82525050565b60006020820190506113a86000830184611203565b92915050565b600060208201905081810360008301526113c88184611212565b905092915050565b600060208201905081810360008301526113ea8184611287565b905092915050565b600060208201905061140760008301846112e5565b92915050565b600060a08201905061142260008301886112f4565b61142f6020830187611384565b61143c6040830186611384565b6114496060830185611384565b6114566080830184611384565b9695505050505050565b6000602082019050818103600083015261147a818461133c565b905092915050565b600061148c61149d565b90506114988282611658565b919050565b6000604051905090565b600067ffffffffffffffff8211156114c2576114c16116e7565b5b6114cb8261172a565b9050602081019050919050565b6000819050602082019050919050565b6000819050602082019050919050565b600081519050919050565b600081519050919050565b600081519050919050565b6000602082019050919050565b6000602082019050919050565b600082825260208201905092915050565b600082825260208201905092915050565b600082825260208201905092915050565b600082825260208201905092915050565b6000611582826115a8565b9050919050565b60008115159050919050565b60008190506115a38261173b565b919050565b600073ffffffffffffffffffffffffffffffffffffffff82169050919050565b6000819050919050565b60006115dd82611595565b9050919050565b82818337600083830152505050565b60005b838110156116115780820151818401526020810190506115f6565b83811115611620576000848401525b50505050565b6000600282049050600182168061163e57607f821691505b60208210811415611652576116516116b8565b5b50919050565b6116618261172a565b810181811067ffffffffffffffff821117156116805761167f6116e7565b5b80604052505050565b7f4e487b7100000000000000000000000000000000000000000000000000000000600052602160045260246000fd5b7f4e487b7100000000000000000000000000000000000000000000000000000000600052602260045260246000fd5b7f4e487b7100000000000000000000000000000000000000000000000000000000600052604160045260246000fd5b600080fd5b600080fd5b600080fd5b600080fd5b6000601f19601f8301169050919050565b6004811061174c5761174b611689565b5b50565b61175881611577565b811461176357600080fd5b50565b61176f816115c8565b811461177a57600080fd5b5056fea2646970667358221220feae1c6625a9d0db6a84c4870f0a5d1947bd197cefdc3a29011bf33286f0076a64736f6c63430008060033",
  "immutableReferences": {},
  "source": "// SPDX-License-Identifier: MIT\npragma solidity ^0.8.0;\n\nimport \"../roles/ExecutivesAccessControl.sol\";\nimport \"@openzeppelin/contracts/finance/PaymentSplitter.sol\";\n\ncontract EthDropBase is ExecutivesAccessControl {\n    /*** EVENTS ***/\n\n    /// @dev The RegistrationOpen event is fired whenever a new event starts and users can begin restering.\n    event RegistrationOpen();\n\n    /// @dev The RegistrationOpen event is fired whenever a new event starts and users can begin restering.\n    //    After this event fires users can no longer register, and users who have registered can claim winnings.\n    event WinningsClaimingOpen();\n\n    /// @dev The EventClose event is fired whenever an event closes. After this event is fired users can no\n    //    longer claim winnings\n    event EventClose();\n\n    /// @dev Transfer event as defined in current draft of ERC721. Emitted every some Eth is transferred\n\n    event Transfer(address from, address to); // Assumed Eth\n\n    // TODO - (in later, more than just eth contracts as pass tokenId)\n    // event Transfer(address from, address to, uint tokenId);\n\n    /*** DATA TYPES ***/\n\n    /// @dev The main Kitty struct. Every cat in CryptoKitties is represented by a copy\n    ///  of this structure, so great care was taken to ensure that it fits neatly into\n    ///  exactly two 256-bit words. Note that the order of the members in this structure\n    ///  is important because of the byte-packing rules used by Ethereum.\n    ///  Ref: http://solidity.readthedocs.io/en/develop/miscellaneous.html\n\n    // TODO - ^ think harder about all that byte-packing junk... \n\n    enum EventState {\n        CREATED,\n        REGISTRATION,\n        CLAIM_WINNINGS,\n        ENDED\n    }\n\n    uint256 devCutPercentage = 5;\n\n    struct EthDropEvent {\n        // The IRL organization that controls their own airdrops.\n        // Each group can only be running 1 event at a time.\n        uint256 groupId;\n        // Event goes through a linear flow of states, finite state machine.\n        string groupName;\n        // Event goes through a linear flow of states, finite state machine.\n        EventState currentState;\n        // The timestamp from the block when this event started.\n        uint256 startTime;\n        // The timestamp from the block when registration for this event ended.\n        uint256 registrationEndTime;\n        // The timestamp from the block when this event ended.\n        uint256 endTime;\n        // The number of eligibleRecipients who have registered.\n        uint256 registeredRecipientsCount;\n        // Data about the sponsor info (address is stored in Roles)\n        string sponsorName;\n        string sponsorImageUrl;\n        string sponsorLinkToUrl;\n        address currentContributor;\n\n        uint totalAmountContributed;\n        uint weiWinnings;\n        uint numberOfUsersWhoClaimedWinnings;\n    }\n\n    // ALL events happening now or in the future.\n    // Key is the groupId\n    uint256[] listOfGroupIds;\n    string[] listOfGroupNames;\n\n    // ALL events happening now or in the future.\n    // Key is the groupId\n    mapping(uint256 => EthDropEvent) currentEvents;\n\n    // ALL events that have already happened.\n    // Key is the groupId\n    mapping(uint256 => EthDropEvent[]) pastEvents;\n\n    // Holds ALL admins for all groups\n    // groupId => Role\n    mapping(uint256 => mapping(address => bool)) admins;\n\n    // groupId => index in arrays for this specific address\n    mapping(uint256 => mapping(address => uint256)) adminAddressToIndex;\n    uint256 adminAddressToIndexNextIndex = 0;\n    \n    mapping(uint256 => mapping(address => bool)) winningsCollected;\n\n    // groupId => list of admin addresses\n    mapping(uint256 => address[]) adminAddresses;\n\n    // groupId => list of admin names\n    mapping(uint256 => string[]) adminNames;\n\n    // groupId => whether of not user is an admin\n    mapping(uint256 => bool[]) adminEnabled;\n\n    // Holds ALL contributors for all groups\n    // groupId => Role\n    mapping(uint256 => mapping(address => bool)) contributors;\n\n    // Holds ALL eligibleRecipients for all groups\n    // groupId => Role\n    mapping(uint256 => mapping(address => bool)) eligibleRecipients;\n    mapping(uint256 => address[]) eligibleRecipientsArray;\n    mapping(uint256 => bool[]) eligibleRecipientsEligibilityIsEnabled;\n\n    // Holds ALL registeredRecipients for all groups\n    // groupId => Role\n    mapping(uint256 => mapping(address => bool)) registeredRecipients;\n\n    // Holds ALL registeredRecipients in an array (for PaymentSplitter)\n    // groupId => address[]\n    mapping(uint256 => address[]) registeredRecipientsArray;\n\n    // Keeping track of winnings for all groups\n    mapping(uint256 => PaymentSplitter) pot;\n\n    function getGroupIds() external view returns (uint256[] memory) {\n        return listOfGroupIds;\n    }\n\n    function getGroupNames() external view returns (string[] memory) {\n        return listOfGroupNames;\n    }\n\n    // stack too deep\n    // function getGroupEventData(uint256 groupId)\n    //     external\n    //     view\n    //     returns (\n    //         uint256, // groupId\n    //         // Event goes through a linear flow of states, finite state machine.\n    //         string memory, // groupName\n    //         // Event goes through a linear flow of states, finite state machine.\n    //         EventState, // currentState,\n    //         // The timestamp from the block when this event started.\n    //         // uint256, // startTime,\n    //         // // The timestamp from the block when registration for this event ended.\n    //         // uint256, // registrationEndTime,\n    //         // // The timestamp from the bock when this event ended.\n    //         // uint256, // endTime,\n    //         // The number of eligibleRecipients who have registered.\n    //         uint256, // registeredRecipientsCount,\n    //         // Data about the sponsor info (address is stored in Roles)\n    //         string memory, // sponsorName,\n    //         string memory, // sponsorImageUrl,\n    //         string memory, // sponsorLinkToUrl,\n    //         address // currentContributor,\n    //     )\n    // {\n    //     // EthDropEvent memory groupData = currentEvents[groupId];\n\n    //     return (\n    //         currentEvents[groupId].groupId,\n    //         currentEvents[groupId].groupName,\n    //         currentEvents[groupId].currentState,\n    //         // groupData.startTime,\n    //         // groupData.registrationEndTime,\n    //         // groupData.endTime,\n    //         currentEvents[groupId].registeredRecipientsCount,\n    //         currentEvents[groupId].sponsorName,\n    //         currentEvents[groupId].sponsorImageUrl,\n    //         currentEvents[groupId].sponsorLinkToUrl,\n    //         currentEvents[groupId].currentContributor\n    //     );\n    // }\n\n    function getGroupEventData(uint256 groupId)\n        external\n        view\n        returns (\n            // uint256, // groupId\n            // Event goes through a linear flow of states, finite state machine.\n            // string memory, // groupName\n            // Event goes through a linear flow of states, finite state machine.\n            EventState, // currentState,\n            // The timestamp from the block when this event started.\n            // uint256, // startTime,\n            // // The timestamp from the block when registration for this event ended.\n            // uint256, // registrationEndTime,\n            // // The timestamp from the bock when this event ended.\n            // uint256, // endTime,\n            // The number of eligibleRecipients who have registered.\n            uint256, // registeredRecipientsCount,\n            uint256, // total amount contributed,\n            // uint256, // registeredRecipientsCount,\n            // Data about the sponsor info (address is stored in Roles)\n\n            uint,\n            uint \n            // address // currentContributor,\n        )\n    {\n        EthDropEvent memory groupData = currentEvents[groupId];\n\n        return ( \n            // groupData.groupId,\n            // groupData.groupName,\n            groupData.currentState,\n            // groupData.startTime,\n            // groupData.registrationEndTime,\n            // groupData.endTime,\n            groupData.registeredRecipientsCount,\n            groupData.totalAmountContributed,\n\n            groupData.weiWinnings,\n            groupData.numberOfUsersWhoClaimedWinnings\n            // groupData.currentContributor\n        );\n    }\n}\n",
  "sourcePath": "/Users/jim/Git-Projects/EthDrop/contracts/core/EthDropBase.sol",
  "compiler": {
    "name": "solc",
    "version": "0.8.6+commit.11564f7e.Emscripten.clang"
  },
  "schemaVersion": "3.4.1",
  "updatedAt": "2021-07-25T04:09:54.451Z",
  "networkType": "ethereum",
  "devdoc": {
    "events": {
      "EventClose()": {
        "details": "The EventClose event is fired whenever an event closes. After this event is fired users can no"
      },
      "RegistrationOpen()": {
        "details": "The RegistrationOpen event is fired whenever a new event starts and users can begin restering."
      },
      "Transfer(address,address)": {
        "details": "Transfer event as defined in current draft of ERC721. Emitted every some Eth is transferred"
      },
      "WinningsClaimingOpen()": {
        "details": "The RegistrationOpen event is fired whenever a new event starts and users can begin restering."
      }
    },
    "kind": "dev",
    "methods": {
      "pause()": {
        "details": "Called by any \"C-level\" role to pause the contract. Used only when  a bug or exploit is detected and we need to limit damage."
      },
      "setCEO(address)": {
        "details": "Assigns a new address to act as the CEO. Only available to the current CEO.",
        "params": {
          "_newCEO": "The address of the new CEO"
        }
      },
      "setCFO(address)": {
        "details": "Assigns a new address to act as the CFO. Only available to the current CEO.",
        "params": {
          "_newCFO": "The address of the new CFO"
        }
      },
      "setCOO(address)": {
        "details": "Assigns a new address to act as the COO. Only available to the current CEO.",
        "params": {
          "_newCOO": "The address of the new COO"
        }
      },
      "unpause()": {
        "details": "Unpauses the smart contract. Can only be called by the CEO, since  one reason we may pause the contract is when CFO or COO accounts are  compromised."
      }
    },
    "version": 1
  },
  "userdoc": {
    "kind": "user",
    "methods": {
      "unpause()": {
        "notice": "This is public rather than external so it can be called by  derived contracts."
      }
    },
    "version": 1
  }
}