{
  "contractName": "EthDropCore",
  "abi": [
    {
      "inputs": [],
      "stateMutability": "nonpayable",
      "type": "constructor"
    },
    {
      "anonymous": false,
      "inputs": [
        {
          "indexed": false,
          "internalType": "uint256",
          "name": "groupId",
          "type": "uint256"
        },
        {
          "indexed": false,
          "internalType": "address",
          "name": "account",
          "type": "address"
        },
        {
          "indexed": false,
          "internalType": "uint256",
          "name": "index",
          "type": "uint256"
        }
      ],
      "name": "AdminAdded",
      "type": "event"
    },
    {
      "anonymous": false,
      "inputs": [
        {
          "indexed": false,
          "internalType": "uint256",
          "name": "groupId",
          "type": "uint256"
        },
        {
          "indexed": false,
          "internalType": "string",
          "name": "name",
          "type": "string"
        }
      ],
      "name": "AdminReEnabled",
      "type": "event"
    },
    {
      "anonymous": false,
      "inputs": [
        {
          "indexed": false,
          "internalType": "uint256",
          "name": "groupId",
          "type": "uint256"
        },
        {
          "indexed": false,
          "internalType": "string",
          "name": "name",
          "type": "string"
        }
      ],
      "name": "AdminRemoved",
      "type": "event"
    },
    {
      "anonymous": false,
      "inputs": [
        {
          "indexed": false,
          "internalType": "bool",
          "name": "isPaused",
          "type": "bool"
        }
      ],
      "name": "AppPaused",
      "type": "event"
    },
    {
      "anonymous": false,
      "inputs": [
        {
          "indexed": false,
          "internalType": "uint256",
          "name": "registeredRecipientCount",
          "type": "uint256"
        },
        {
          "indexed": false,
          "internalType": "uint256",
          "name": "winningsPerRecipient",
          "type": "uint256"
        }
      ],
      "name": "CalculatedPot",
      "type": "event"
    },
    {
      "anonymous": false,
      "inputs": [],
      "name": "CfoUpdated",
      "type": "event"
    },
    {
      "anonymous": false,
      "inputs": [
        {
          "indexed": false,
          "internalType": "address",
          "name": "newContract",
          "type": "address"
        }
      ],
      "name": "ContractUpgrade",
      "type": "event"
    },
    {
      "anonymous": false,
      "inputs": [
        {
          "indexed": true,
          "internalType": "address",
          "name": "account",
          "type": "address"
        },
        {
          "indexed": false,
          "internalType": "uint256",
          "name": "groupId",
          "type": "uint256"
        },
        {
          "indexed": false,
          "internalType": "uint256",
          "name": "amount",
          "type": "uint256"
        }
      ],
      "name": "ContributionMade",
      "type": "event"
    },
    {
      "anonymous": false,
      "inputs": [
        {
          "indexed": true,
          "internalType": "address",
          "name": "account",
          "type": "address"
        },
        {
          "indexed": false,
          "internalType": "uint256",
          "name": "groupId",
          "type": "uint256"
        }
      ],
      "name": "ContributorAdded",
      "type": "event"
    },
    {
      "anonymous": false,
      "inputs": [
        {
          "indexed": false,
          "internalType": "uint256",
          "name": "groupId",
          "type": "uint256"
        },
        {
          "indexed": false,
          "internalType": "address",
          "name": "newContributor",
          "type": "address"
        }
      ],
      "name": "ContributorAddressUpdated",
      "type": "event"
    },
    {
      "anonymous": false,
      "inputs": [
        {
          "indexed": false,
          "internalType": "uint256",
          "name": "groupId",
          "type": "uint256"
        },
        {
          "indexed": false,
          "internalType": "string",
          "name": "sponsorName",
          "type": "string"
        },
        {
          "indexed": false,
          "internalType": "string",
          "name": "imgUrl",
          "type": "string"
        },
        {
          "indexed": false,
          "internalType": "string",
          "name": "imgLinkToUrl",
          "type": "string"
        }
      ],
      "name": "ContributorInfoUpdated",
      "type": "event"
    },
    {
      "anonymous": false,
      "inputs": [
        {
          "indexed": true,
          "internalType": "address",
          "name": "account",
          "type": "address"
        },
        {
          "indexed": false,
          "internalType": "uint256",
          "name": "groupId",
          "type": "uint256"
        }
      ],
      "name": "ContributorRemoved",
      "type": "event"
    },
    {
      "anonymous": false,
      "inputs": [],
      "name": "CooUpdated",
      "type": "event"
    },
    {
      "anonymous": false,
      "inputs": [
        {
          "indexed": true,
          "internalType": "address",
          "name": "account",
          "type": "address"
        },
        {
          "indexed": false,
          "internalType": "uint256",
          "name": "groupId",
          "type": "uint256"
        }
      ],
      "name": "EligibleRecipientAdded",
      "type": "event"
    },
    {
      "anonymous": false,
      "inputs": [
        {
          "indexed": true,
          "internalType": "address",
          "name": "account",
          "type": "address"
        },
        {
          "indexed": false,
          "internalType": "uint256",
          "name": "groupId",
          "type": "uint256"
        }
      ],
      "name": "EligibleRecipientRemoved",
      "type": "event"
    },
    {
      "anonymous": false,
      "inputs": [],
      "name": "EventClose",
      "type": "event"
    },
    {
      "anonymous": false,
      "inputs": [
        {
          "indexed": true,
          "internalType": "address",
          "name": "endedBy",
          "type": "address"
        },
        {
          "indexed": false,
          "internalType": "uint256",
          "name": "groupId",
          "type": "uint256"
        }
      ],
      "name": "EventEnded",
      "type": "event"
    },
    {
      "anonymous": false,
      "inputs": [
        {
          "indexed": true,
          "internalType": "address",
          "name": "startedBy",
          "type": "address"
        },
        {
          "indexed": false,
          "internalType": "uint256",
          "name": "groupId",
          "type": "uint256"
        }
      ],
      "name": "EventStarted",
      "type": "event"
    },
    {
      "anonymous": false,
      "inputs": [
        {
          "indexed": false,
          "internalType": "uint256",
          "name": "groupId",
          "type": "uint256"
        },
        {
          "indexed": false,
          "internalType": "address",
          "name": "account",
          "type": "address"
        },
        {
          "indexed": false,
          "internalType": "uint256",
          "name": "index",
          "type": "uint256"
        }
      ],
      "name": "GettingMyAdminIndex",
      "type": "event"
    },
    {
      "anonymous": false,
      "inputs": [
        {
          "indexed": false,
          "internalType": "string",
          "name": "groupName",
          "type": "string"
        },
        {
          "indexed": false,
          "internalType": "uint256",
          "name": "groupId",
          "type": "uint256"
        }
      ],
      "name": "GroupCreated",
      "type": "event"
    },
    {
      "anonymous": false,
      "inputs": [
        {
          "indexed": false,
          "internalType": "uint256",
          "name": "groupId",
          "type": "uint256"
        },
        {
          "indexed": false,
          "internalType": "address",
          "name": "addressOfUserGettingApproved",
          "type": "address"
        },
        {
          "indexed": false,
          "internalType": "string",
          "name": "nameOfUserGettingApproved",
          "type": "string"
        }
      ],
      "name": "NewJoinerRequestApproved",
      "type": "event"
    },
    {
      "anonymous": false,
      "inputs": [
        {
          "indexed": false,
          "internalType": "uint256",
          "name": "groupId",
          "type": "uint256"
        },
        {
          "indexed": false,
          "internalType": "address",
          "name": "account",
          "type": "address"
        },
        {
          "indexed": false,
          "internalType": "uint256",
          "name": "index",
          "type": "uint256"
        }
      ],
      "name": "NewUserRequestedToJoinGroup",
      "type": "event"
    },
    {
      "anonymous": false,
      "inputs": [
        {
          "indexed": true,
          "internalType": "address",
          "name": "account",
          "type": "address"
        },
        {
          "indexed": false,
          "internalType": "uint256",
          "name": "groupId",
          "type": "uint256"
        }
      ],
      "name": "RecipientRegistered",
      "type": "event"
    },
    {
      "anonymous": false,
      "inputs": [
        {
          "indexed": true,
          "internalType": "address",
          "name": "endedBy",
          "type": "address"
        },
        {
          "indexed": false,
          "internalType": "uint256",
          "name": "groupId",
          "type": "uint256"
        }
      ],
      "name": "RegistrationEnded",
      "type": "event"
    },
    {
      "anonymous": false,
      "inputs": [],
      "name": "RegistrationOpen",
      "type": "event"
    },
    {
      "anonymous": false,
      "inputs": [
        {
          "indexed": false,
          "internalType": "address",
          "name": "from",
          "type": "address"
        },
        {
          "indexed": false,
          "internalType": "address",
          "name": "to",
          "type": "address"
        }
      ],
      "name": "Transfer",
      "type": "event"
    },
    {
      "anonymous": false,
      "inputs": [
        {
          "indexed": true,
          "internalType": "address",
          "name": "account",
          "type": "address"
        },
        {
          "indexed": false,
          "internalType": "uint256",
          "name": "groupId",
          "type": "uint256"
        }
      ],
      "name": "WinningsClaimed",
      "type": "event"
    },
    {
      "anonymous": false,
      "inputs": [],
      "name": "WinningsClaimingOpen",
      "type": "event"
    },
    {
      "inputs": [
        {
          "internalType": "uint256",
          "name": "groupId",
          "type": "uint256"
        },
        {
          "internalType": "address",
          "name": "account",
          "type": "address"
        },
        {
          "internalType": "string",
          "name": "name",
          "type": "string"
        }
      ],
      "name": "addAdmin",
      "outputs": [],
      "stateMutability": "nonpayable",
      "type": "function"
    },
    {
      "inputs": [
        {
          "internalType": "uint256",
          "name": "groupId",
          "type": "uint256"
        }
      ],
      "name": "amIAdmin",
      "outputs": [
        {
          "internalType": "bool",
          "name": "",
          "type": "bool"
        }
      ],
      "stateMutability": "view",
      "type": "function"
    },
    {
      "inputs": [
        {
          "internalType": "uint256",
          "name": "groupId",
          "type": "uint256"
        }
      ],
      "name": "amIContributor",
      "outputs": [
        {
          "internalType": "bool",
          "name": "",
          "type": "bool"
        }
      ],
      "stateMutability": "view",
      "type": "function"
    },
    {
      "inputs": [
        {
          "internalType": "uint256",
          "name": "groupId",
          "type": "uint256"
        }
      ],
      "name": "amIEligibleRecipient",
      "outputs": [
        {
          "internalType": "bool",
          "name": "",
          "type": "bool"
        }
      ],
      "stateMutability": "view",
      "type": "function"
    },
    {
      "inputs": [
        {
          "internalType": "uint256",
          "name": "groupId",
          "type": "uint256"
        }
      ],
      "name": "amIRegisteredRecipient",
      "outputs": [
        {
          "internalType": "bool",
          "name": "",
          "type": "bool"
        }
      ],
      "stateMutability": "view",
      "type": "function"
    },
    {
      "inputs": [
        {
          "internalType": "uint256",
          "name": "groupId",
          "type": "uint256"
        },
        {
          "internalType": "address",
          "name": "accountToApprove",
          "type": "address"
        }
      ],
      "name": "approveRequestToJoinGroup",
      "outputs": [],
      "stateMutability": "nonpayable",
      "type": "function"
    },
    {
      "inputs": [],
      "name": "ceoAddress",
      "outputs": [
        {
          "internalType": "address",
          "name": "",
          "type": "address"
        }
      ],
      "stateMutability": "view",
      "type": "function"
    },
    {
      "inputs": [],
      "name": "cfoAddress",
      "outputs": [
        {
          "internalType": "address",
          "name": "",
          "type": "address"
        }
      ],
      "stateMutability": "view",
      "type": "function"
    },
    {
      "inputs": [
        {
          "internalType": "address",
          "name": "account",
          "type": "address"
        },
        {
          "internalType": "uint256",
          "name": "groupId",
          "type": "uint256"
        }
      ],
      "name": "changeContributor",
      "outputs": [],
      "stateMutability": "nonpayable",
      "type": "function"
    },
    {
      "inputs": [
        {
          "internalType": "uint256",
          "name": "groupId",
          "type": "uint256"
        }
      ],
      "name": "claimWinnings",
      "outputs": [],
      "stateMutability": "nonpayable",
      "type": "function"
    },
    {
      "inputs": [
        {
          "internalType": "uint256",
          "name": "groupId",
          "type": "uint256"
        }
      ],
      "name": "closeEventRegistration",
      "outputs": [],
      "stateMutability": "nonpayable",
      "type": "function"
    },
    {
      "inputs": [
        {
          "internalType": "uint256",
          "name": "groupId",
          "type": "uint256"
        }
      ],
      "name": "contributeToPot",
      "outputs": [],
      "stateMutability": "payable",
      "type": "function"
    },
    {
      "inputs": [],
      "name": "cooAddress",
      "outputs": [
        {
          "internalType": "address",
          "name": "",
          "type": "address"
        }
      ],
      "stateMutability": "view",
      "type": "function"
    },
    {
      "inputs": [
        {
          "internalType": "string",
          "name": "groupName",
          "type": "string"
        }
      ],
      "name": "createNewGroup",
      "outputs": [],
      "stateMutability": "nonpayable",
      "type": "function"
    },
    {
      "inputs": [
        {
          "internalType": "uint256",
          "name": "groupId",
          "type": "uint256"
        }
      ],
      "name": "doIHaveClaimableWinnings",
      "outputs": [
        {
          "internalType": "bool",
          "name": "",
          "type": "bool"
        }
      ],
      "stateMutability": "view",
      "type": "function"
    },
    {
      "inputs": [
        {
          "internalType": "uint256",
          "name": "groupId",
          "type": "uint256"
        }
      ],
      "name": "endEvent",
      "outputs": [],
      "stateMutability": "nonpayable",
      "type": "function"
    },
    {
      "inputs": [
        {
          "internalType": "uint256",
          "name": "groupId",
          "type": "uint256"
        }
      ],
      "name": "getAddressNextAdminIndex",
      "outputs": [
        {
          "internalType": "uint256",
          "name": "",
          "type": "uint256"
        }
      ],
      "stateMutability": "view",
      "type": "function"
    },
    {
      "inputs": [
        {
          "internalType": "uint256",
          "name": "groupId",
          "type": "uint256"
        }
      ],
      "name": "getAdminsForGroup",
      "outputs": [
        {
          "internalType": "address[]",
          "name": "",
          "type": "address[]"
        },
        {
          "internalType": "bool[]",
          "name": "",
          "type": "bool[]"
        },
        {
          "internalType": "string[]",
          "name": "",
          "type": "string[]"
        }
      ],
      "stateMutability": "view",
      "type": "function"
    },
    {
      "inputs": [],
      "name": "getCFO",
      "outputs": [
        {
          "internalType": "address",
          "name": "",
          "type": "address"
        }
      ],
      "stateMutability": "view",
      "type": "function"
    },
    {
      "inputs": [],
      "name": "getCOO",
      "outputs": [
        {
          "internalType": "address",
          "name": "",
          "type": "address"
        }
      ],
      "stateMutability": "view",
      "type": "function"
    },
    {
      "inputs": [
        {
          "internalType": "uint256",
          "name": "groupId",
          "type": "uint256"
        }
      ],
      "name": "getContributorInfo",
      "outputs": [
        {
          "internalType": "string",
          "name": "newContributorName",
          "type": "string"
        },
        {
          "internalType": "string",
          "name": "newContributorImgUrl",
          "type": "string"
        },
        {
          "internalType": "string",
          "name": "newContributorLinkToUrl",
          "type": "string"
        }
      ],
      "stateMutability": "view",
      "type": "function"
    },
    {
      "inputs": [
        {
          "internalType": "uint256",
          "name": "groupId",
          "type": "uint256"
        }
      ],
      "name": "getCurrentSponsorAddress",
      "outputs": [
        {
          "internalType": "address",
          "name": "",
          "type": "address"
        }
      ],
      "stateMutability": "view",
      "type": "function"
    },
    {
      "inputs": [
        {
          "internalType": "uint256",
          "name": "groupId",
          "type": "uint256"
        }
      ],
      "name": "getEligibleRecipientAddresses",
      "outputs": [
        {
          "internalType": "address[]",
          "name": "",
          "type": "address[]"
        }
      ],
      "stateMutability": "view",
      "type": "function"
    },
    {
      "inputs": [
        {
          "internalType": "uint256",
          "name": "groupId",
          "type": "uint256"
        }
      ],
      "name": "getEligibleRecipientIsEligibilityEnabled",
      "outputs": [
        {
          "internalType": "bool[]",
          "name": "",
          "type": "bool[]"
        }
      ],
      "stateMutability": "view",
      "type": "function"
    },
    {
      "inputs": [
        {
          "internalType": "uint256",
          "name": "groupId",
          "type": "uint256"
        }
      ],
      "name": "getEligibleRecipientNames",
      "outputs": [
        {
          "internalType": "string[]",
          "name": "",
          "type": "string[]"
        }
      ],
      "stateMutability": "view",
      "type": "function"
    },
    {
      "inputs": [
        {
          "internalType": "uint256",
          "name": "groupId",
          "type": "uint256"
        }
      ],
      "name": "getEligibleRecipients",
      "outputs": [
        {
          "internalType": "address[]",
          "name": "",
          "type": "address[]"
        },
        {
          "internalType": "string[]",
          "name": "",
          "type": "string[]"
        },
        {
          "internalType": "bool[]",
          "name": "",
          "type": "bool[]"
        }
      ],
      "stateMutability": "view",
      "type": "function"
    },
    {
      "inputs": [
        {
          "internalType": "uint256",
          "name": "groupId",
          "type": "uint256"
        }
      ],
      "name": "getGroupEventData",
      "outputs": [
        {
          "internalType": "enum EthDropBase.EventState",
          "name": "",
          "type": "uint8"
        },
        {
          "internalType": "uint256",
          "name": "",
          "type": "uint256"
        },
        {
          "internalType": "uint256",
          "name": "",
          "type": "uint256"
        },
        {
          "internalType": "uint256",
          "name": "",
          "type": "uint256"
        },
        {
          "internalType": "uint256",
          "name": "",
          "type": "uint256"
        }
      ],
      "stateMutability": "view",
      "type": "function"
    },
    {
      "inputs": [],
      "name": "getGroupIds",
      "outputs": [
        {
          "internalType": "uint256[]",
          "name": "",
          "type": "uint256[]"
        }
      ],
      "stateMutability": "view",
      "type": "function"
    },
    {
      "inputs": [],
      "name": "getGroupNames",
      "outputs": [
        {
          "internalType": "string[]",
          "name": "",
          "type": "string[]"
        }
      ],
      "stateMutability": "view",
      "type": "function"
    },
    {
      "inputs": [
        {
          "internalType": "uint256",
          "name": "groupId",
          "type": "uint256"
        }
      ],
      "name": "getGroupPublicData",
      "outputs": [
        {
          "internalType": "uint256",
          "name": "",
          "type": "uint256"
        },
        {
          "internalType": "string",
          "name": "",
          "type": "string"
        },
        {
          "internalType": "enum EthDropBase.EventState",
          "name": "",
          "type": "uint8"
        },
        {
          "internalType": "uint256",
          "name": "",
          "type": "uint256"
        },
        {
          "internalType": "uint256",
          "name": "",
          "type": "uint256"
        },
        {
          "internalType": "uint256",
          "name": "",
          "type": "uint256"
        },
        {
          "internalType": "uint256",
          "name": "",
          "type": "uint256"
        }
      ],
      "stateMutability": "view",
      "type": "function"
    },
    {
      "inputs": [
        {
          "internalType": "uint256",
          "name": "groupId",
          "type": "uint256"
        }
      ],
      "name": "getMyAdminIndex",
      "outputs": [
        {
          "internalType": "uint256",
          "name": "",
          "type": "uint256"
        }
      ],
      "stateMutability": "view",
      "type": "function"
    },
    {
      "inputs": [
        {
          "internalType": "uint256",
          "name": "groupId",
          "type": "uint256"
        }
      ],
      "name": "getNewJoinerRequests",
      "outputs": [
        {
          "internalType": "address[]",
          "name": "",
          "type": "address[]"
        },
        {
          "internalType": "string[]",
          "name": "",
          "type": "string[]"
        },
        {
          "internalType": "bool[]",
          "name": "",
          "type": "bool[]"
        }
      ],
      "stateMutability": "view",
      "type": "function"
    },
    {
      "inputs": [
        {
          "internalType": "uint256",
          "name": "groupId",
          "type": "uint256"
        }
      ],
      "name": "getRegisteredRecipientNames",
      "outputs": [
        {
          "internalType": "string[]",
          "name": "",
          "type": "string[]"
        }
      ],
      "stateMutability": "view",
      "type": "function"
    },
    {
      "inputs": [
        {
          "internalType": "uint256",
          "name": "groupId",
          "type": "uint256"
        }
      ],
      "name": "getRegisteredRecipients",
      "outputs": [
        {
          "internalType": "address[]",
          "name": "",
          "type": "address[]"
        },
        {
          "internalType": "string[]",
          "name": "",
          "type": "string[]"
        },
        {
          "internalType": "bool[]",
          "name": "",
          "type": "bool[]"
        }
      ],
      "stateMutability": "view",
      "type": "function"
    },
    {
      "inputs": [],
      "name": "getString",
      "outputs": [
        {
          "internalType": "string",
          "name": "",
          "type": "string"
        }
      ],
      "stateMutability": "view",
      "type": "function"
    },
    {
      "inputs": [
        {
          "internalType": "address",
          "name": "account",
          "type": "address"
        },
        {
          "internalType": "uint256",
          "name": "groupId",
          "type": "uint256"
        }
      ],
      "name": "isAdmin",
      "outputs": [
        {
          "internalType": "bool",
          "name": "",
          "type": "bool"
        }
      ],
      "stateMutability": "view",
      "type": "function"
    },
    {
      "inputs": [],
      "name": "isCEO",
      "outputs": [
        {
          "internalType": "bool",
          "name": "",
          "type": "bool"
        }
      ],
      "stateMutability": "view",
      "type": "function"
    },
    {
      "inputs": [],
      "name": "isCFO",
      "outputs": [
        {
          "internalType": "bool",
          "name": "",
          "type": "bool"
        }
      ],
      "stateMutability": "view",
      "type": "function"
    },
    {
      "inputs": [],
      "name": "isCOO",
      "outputs": [
        {
          "internalType": "bool",
          "name": "",
          "type": "bool"
        }
      ],
      "stateMutability": "view",
      "type": "function"
    },
    {
      "inputs": [
        {
          "internalType": "address",
          "name": "account",
          "type": "address"
        },
        {
          "internalType": "uint256",
          "name": "groupId",
          "type": "uint256"
        }
      ],
      "name": "isContributor",
      "outputs": [
        {
          "internalType": "bool",
          "name": "",
          "type": "bool"
        }
      ],
      "stateMutability": "view",
      "type": "function"
    },
    {
      "inputs": [
        {
          "internalType": "address",
          "name": "account",
          "type": "address"
        },
        {
          "internalType": "uint256",
          "name": "groupId",
          "type": "uint256"
        }
      ],
      "name": "isEligibleRecipient",
      "outputs": [
        {
          "internalType": "bool",
          "name": "",
          "type": "bool"
        }
      ],
      "stateMutability": "view",
      "type": "function"
    },
    {
      "inputs": [],
      "name": "isPaused",
      "outputs": [
        {
          "internalType": "bool",
          "name": "",
          "type": "bool"
        }
      ],
      "stateMutability": "view",
      "type": "function"
    },
    {
      "inputs": [
        {
          "internalType": "address",
          "name": "account",
          "type": "address"
        },
        {
          "internalType": "uint256",
          "name": "groupId",
          "type": "uint256"
        }
      ],
      "name": "isRegisteredRecipient",
      "outputs": [
        {
          "internalType": "bool",
          "name": "",
          "type": "bool"
        }
      ],
      "stateMutability": "view",
      "type": "function"
    },
    {
      "inputs": [],
      "name": "newContractAddress",
      "outputs": [
        {
          "internalType": "address",
          "name": "",
          "type": "address"
        }
      ],
      "stateMutability": "view",
      "type": "function"
    },
    {
      "inputs": [],
      "name": "pause",
      "outputs": [],
      "stateMutability": "nonpayable",
      "type": "function"
    },
    {
      "inputs": [],
      "name": "paused",
      "outputs": [
        {
          "internalType": "bool",
          "name": "",
          "type": "bool"
        }
      ],
      "stateMutability": "view",
      "type": "function"
    },
    {
      "inputs": [
        {
          "internalType": "uint256",
          "name": "groupId",
          "type": "uint256"
        },
        {
          "internalType": "address",
          "name": "account",
          "type": "address"
        }
      ],
      "name": "reEnableAdmin",
      "outputs": [],
      "stateMutability": "nonpayable",
      "type": "function"
    },
    {
      "inputs": [
        {
          "internalType": "uint256",
          "name": "groupId",
          "type": "uint256"
        }
      ],
      "name": "readEventInfo",
      "outputs": [
        {
          "components": [
            {
              "internalType": "uint256",
              "name": "groupId",
              "type": "uint256"
            },
            {
              "internalType": "string",
              "name": "groupName",
              "type": "string"
            },
            {
              "internalType": "enum EthDropBase.EventState",
              "name": "currentState",
              "type": "uint8"
            },
            {
              "internalType": "uint256",
              "name": "startTime",
              "type": "uint256"
            },
            {
              "internalType": "uint256",
              "name": "registrationEndTime",
              "type": "uint256"
            },
            {
              "internalType": "uint256",
              "name": "endTime",
              "type": "uint256"
            },
            {
              "internalType": "uint256",
              "name": "registeredRecipientsCount",
              "type": "uint256"
            },
            {
              "internalType": "string",
              "name": "sponsorName",
              "type": "string"
            },
            {
              "internalType": "string",
              "name": "sponsorImageUrl",
              "type": "string"
            },
            {
              "internalType": "string",
              "name": "sponsorLinkToUrl",
              "type": "string"
            },
            {
              "internalType": "address",
              "name": "currentContributor",
              "type": "address"
            },
            {
              "internalType": "uint256",
              "name": "totalAmountContributed",
              "type": "uint256"
            },
            {
              "internalType": "uint256",
              "name": "weiWinnings",
              "type": "uint256"
            },
            {
              "internalType": "uint256",
              "name": "numberOfUsersWhoClaimedWinnings",
              "type": "uint256"
            }
          ],
          "internalType": "struct EthDropBase.EthDropEvent",
          "name": "",
          "type": "tuple"
        }
      ],
      "stateMutability": "view",
      "type": "function"
    },
    {
      "inputs": [
        {
          "internalType": "uint256",
          "name": "groupId",
          "type": "uint256"
        }
      ],
      "name": "registerForEvent",
      "outputs": [],
      "stateMutability": "nonpayable",
      "type": "function"
    },
    {
      "inputs": [
        {
          "internalType": "uint256",
          "name": "groupId",
          "type": "uint256"
        },
        {
          "internalType": "address",
          "name": "account",
          "type": "address"
        }
      ],
      "name": "removeAdmin",
      "outputs": [],
      "stateMutability": "nonpayable",
      "type": "function"
    },
    {
      "inputs": [
        {
          "internalType": "address",
          "name": "account",
          "type": "address"
        },
        {
          "internalType": "uint256",
          "name": "groupId",
          "type": "uint256"
        }
      ],
      "name": "removeEligibleRecipient",
      "outputs": [],
      "stateMutability": "nonpayable",
      "type": "function"
    },
    {
      "inputs": [
        {
          "internalType": "uint256",
          "name": "groupId",
          "type": "uint256"
        }
      ],
      "name": "renounceAdmin",
      "outputs": [],
      "stateMutability": "nonpayable",
      "type": "function"
    },
    {
      "inputs": [
        {
          "internalType": "uint256",
          "name": "groupId",
          "type": "uint256"
        },
        {
          "internalType": "string",
          "name": "username",
          "type": "string"
        }
      ],
      "name": "requestToJoinGroup",
      "outputs": [],
      "stateMutability": "nonpayable",
      "type": "function"
    },
    {
      "inputs": [
        {
          "internalType": "address",
          "name": "_newCEO",
          "type": "address"
        }
      ],
      "name": "setCEO",
      "outputs": [],
      "stateMutability": "nonpayable",
      "type": "function"
    },
    {
      "inputs": [
        {
          "internalType": "address",
          "name": "_newCFO",
          "type": "address"
        }
      ],
      "name": "setCFO",
      "outputs": [],
      "stateMutability": "nonpayable",
      "type": "function"
    },
    {
      "inputs": [
        {
          "internalType": "address",
          "name": "_newCOO",
          "type": "address"
        }
      ],
      "name": "setCOO",
      "outputs": [],
      "stateMutability": "nonpayable",
      "type": "function"
    },
    {
      "inputs": [
        {
          "internalType": "string",
          "name": "_s",
          "type": "string"
        }
      ],
      "name": "setString",
      "outputs": [],
      "stateMutability": "nonpayable",
      "type": "function"
    },
    {
      "inputs": [
        {
          "internalType": "uint256",
          "name": "groupId",
          "type": "uint256"
        }
      ],
      "name": "startEvent",
      "outputs": [],
      "stateMutability": "nonpayable",
      "type": "function"
    },
    {
      "inputs": [],
      "name": "stringgg",
      "outputs": [
        {
          "internalType": "string",
          "name": "",
          "type": "string"
        }
      ],
      "stateMutability": "view",
      "type": "function"
    },
    {
      "inputs": [],
      "name": "unpause",
      "outputs": [
        {
          "internalType": "bool",
          "name": "",
          "type": "bool"
        }
      ],
      "stateMutability": "nonpayable",
      "type": "function"
    },
    {
      "inputs": [
        {
          "internalType": "uint256",
          "name": "groupId",
          "type": "uint256"
        },
        {
          "internalType": "string",
          "name": "newContributorName",
          "type": "string"
        },
        {
          "internalType": "string",
          "name": "newContributorImgUrl",
          "type": "string"
        },
        {
          "internalType": "string",
          "name": "newContributorLinkToUrl",
          "type": "string"
        }
      ],
      "name": "updateContributorInfo",
      "outputs": [],
      "stateMutability": "nonpayable",
      "type": "function"
    },
    {
      "inputs": [],
      "name": "whoami",
      "outputs": [
        {
          "internalType": "address",
          "name": "",
          "type": "address"
        }
      ],
      "stateMutability": "view",
      "type": "function"
    },
    {
      "inputs": [
        {
          "internalType": "address",
          "name": "_v2Address",
          "type": "address"
        }
      ],
      "name": "setNewAddress",
      "outputs": [],
      "stateMutability": "nonpayable",
      "type": "function"
    },
    {
      "inputs": [],
      "name": "foobar",
      "outputs": [
        {
          "internalType": "string",
          "name": "",
          "type": "string"
        }
      ],
      "stateMutability": "pure",
      "type": "function"
    }
  ],
  "bytecode": "0x6080604052600180546001600160a01b031916331790556003805460ff60a01b191690556005805534801561003357600080fd5b506003805460ff60a01b19169055600180546001600160a01b03191633179055614fd5806100626000396000f3fe6080604052600436106103435760003560e01c80637fcaf666116101b2578063cd04e475116100ed578063ea303f0811610090578063ea303f0814610b16578063edf6261d14610b36578063ee41b59214610b56578063ef2e61cc14610b76578063f40fb25414610b96578063f4a02e7014610bb6578063f89e9cb914610bd6578063fc5fd6e414610bf657600080fd5b8063cd04e475146109f6578063d5f016c314610a29578063e33db42614610a3e578063e513b7a914610a6b578063e62092be14610a8b578063e82f24e014610aab578063e9992d9914610abe578063e9af9bca14610ade57600080fd5b8063aea88a0511610155578063aea88a051461090d578063b047fb501461092d578063b187bd261461094d578063b3b36bb31461096c578063bc5b2e1a1461097f578063c02b8b2c1461099f578063c271e80c146109c1578063c6db5094146109e157600080fd5b80637fcaf666146108165780638182aaf2146108365780638456cb591461085657806389ea642f1461086b5780639393ae3714610880578063962ecff5146108a05780639bda8796146108c0578063a59a6953146108ed57600080fd5b8063454432e211610282578063677bd9ff11610225578063677bd9ff146107095780636af04a57146107295780636ebdec49146107495780637158798814610778578063785142be146107985780637b936ac2146107b85780637d837ce5146107d65780637eb0bdc9146107f657600080fd5b8063454432e2146105c05780634635509b146105e05780634e0a33791461061157806355b57ec11461063157806356c9a3391461065e5780635c975abb146106995780635e82c1fc146106ba578063674811ca146106da57600080fd5b806327d7874c116102ea57806327d7874c146104bc5780632ba73c15146104dc57806330bb0115146104fc578063330a347b1461051c57806338f0b6561461053c5780633f4ba83a1461055c578063406db8431461057157806344b2983b1461059157600080fd5b80630519ce791461034857806305df75db1461038557806306cc4922146103c457806307bfa330146103f45780630a0f8168146104215780630d82ffa01461044157806315891ff41461047a578063222fd0871461049c575b600080fd5b34801561035457600080fd5b50600254610368906001600160a01b031681565b6040516001600160a01b0390911681526020015b60405180910390f35b34801561039157600080fd5b5060408051808201909152600d81526c666f6f6261727272727272722160981b60208201525b60405161037c9190614bae565b3480156103d057600080fd5b506103e46103df3660046146fe565b610c14565b604051901515815260200161037c565b34801561040057600080fd5b5061041461040f3660046146fe565b610c40565b60405161037c9190614b27565b34801561042d57600080fd5b50600154610368906001600160a01b031681565b34801561044d57600080fd5b5061036861045c3660046146fe565b6000908152600860205260409020600a01546001600160a01b031690565b34801561048657600080fd5b5061049a610495366004614697565b610d2c565b005b3480156104a857600080fd5b5061049a6104b736600461479a565b610db8565b3480156104c857600080fd5b5061049a6104d7366004614675565b6110c5565b3480156104e857600080fd5b5061049a6104f7366004614675565b611111565b34801561050857600080fd5b5061049a6105173660046146fe565b611182565b34801561052857600080fd5b5061049a6105373660046146fe565b6111a4565b34801561054857600080fd5b506103e46105573660046146fe565b61147b565b34801561056857600080fd5b506103e461149f565b34801561057d57600080fd5b5061049a61058c3660046146fe565b6114ec565b34801561059d57600080fd5b506105b16105ac3660046146fe565b611896565b60405161037c93929190614adb565b3480156105cc57600080fd5b506104146105db3660046146fe565b611a63565b3480156105ec57600080fd5b506106006105fb3660046146fe565b611b44565b60405161037c959493929190614b7e565b34801561061d57600080fd5b5061049a61062c366004614675565b611e7c565b34801561063d57600080fd5b5061065161064c3660046146fe565b611eed565b60405161037c9190614b14565b34801561066a57600080fd5b5061068b6106793660046146fe565b6000908152600b602052604090205490565b60405190815260200161037c565b3480156106a557600080fd5b506003546103e490600160a01b900460ff1681565b3480156106c657600080fd5b506103e46106d5366004614697565b611f6f565b3480156106e657600080fd5b506106fa6106f53660046146fe565b611fbc565b60405161037c93929190614bc1565b34801561071557600080fd5b5061049a6107243660046146fe565b61218b565b34801561073557600080fd5b50602254610368906001600160a01b031681565b34801561075557600080fd5b506107696107643660046146fe565b6122a2565b60405161037c93929190614a98565b34801561078457600080fd5b5061049a610793366004614675565b612471565b3480156107a457600080fd5b5061049a6107b33660046146fe565b6124f2565b3480156107c457600080fd5b506002546001600160a01b0316610368565b3480156107e257600080fd5b506103e46107f1366004614697565b61269b565b34801561080257600080fd5b5061049a610811366004614717565b6126df565b34801561082257600080fd5b5061049a6108313660046146c1565b612700565b34801561084257600080fd5b506103e4610851366004614697565b612713565b34801561086257600080fd5b5061049a612751565b34801561087757600080fd5b506103b76127be565b34801561088c57600080fd5b506002546001600160a01b031633146103e4565b3480156108ac57600080fd5b506103e46108bb3660046146fe565b612850565b3480156108cc57600080fd5b506108e06108db3660046146fe565b61285c565b60405161037c9190614a85565b3480156108f957600080fd5b5061049a6109083660046146fe565b6128c7565b34801561091957600080fd5b5061049a610928366004614816565b612949565b34801561093957600080fd5b50600354610368906001600160a01b031681565b34801561095957600080fd5b50600354600160a01b900460ff166103e4565b34801561097857600080fd5b5033610368565b34801561098b57600080fd5b5061049a61099a366004614717565b612a44565b3480156109ab57600080fd5b506109b4612d5c565b60405161037c9190614b3a565b3480156109cd57600080fd5b5061049a6109dc366004614697565b612db3565b3480156109ed57600080fd5b506103b7612e02565b348015610a0257600080fd5b50610a16610a113660046146fe565b612e90565b60405161037c9796959493929190614dd8565b348015610a3557600080fd5b506104146131e0565b348015610a4a57600080fd5b50610a5e610a593660046146fe565b6132b9565b60405161037c9190614c79565b348015610a7757600080fd5b506001546001600160a01b031633146103e4565b348015610a9757600080fd5b506103e4610aa6366004614697565b61364f565b61049a610ab93660046146fe565b6136d1565b348015610aca57600080fd5b5061049a610ad9366004614717565b61376b565b348015610aea57600080fd5b5061068b610af93660046146fe565b6000908152600a6020908152604080832033845290915290205490565b348015610b2257600080fd5b5061049a610b313660046146c1565b61385a565b348015610b4257600080fd5b5061049a610b51366004614743565b613acf565b348015610b6257600080fd5b506103e4610b713660046146fe565b613b29565b348015610b8257600080fd5b506105b1610b913660046146fe565b613b4d565b348015610ba257600080fd5b506105b1610bb13660046146fe565b613d32565b348015610bc257600080fd5b506003546001600160a01b031633146103e4565b348015610be257600080fd5b506103e4610bf13660046146fe565b613e7c565b348015610c0257600080fd5b506003546001600160a01b0316610368565b600354600090600160a01b900460ff1615610c2e57600080fd5b610c383383611f6f565b90505b919050565b6060601f6000838152602001908152602001600020805480602002602001604051908101604052809291908181526020016000905b82821015610d21578382906000526020600020018054610c9490614ef7565b80601f0160208091040260200160405190810160405280929190818152602001828054610cc090614ef7565b8015610d0d5780601f10610ce257610100808354040283529160200191610d0d565b820191906000526020600020905b815481529060010190602001808311610cf057829003601f168201915b505050505081526020019060010190610c75565b505050509050919050565b80610d37338261364f565b610d4057600080fd5b600354600160a01b900460ff1615610d5757600080fd5b6000828152600f602090815260408083206001600160a01b03871680855290835292819020805460ff19169055518481527f1af6d16168d33745872119540d28858eed156c5f265206bbf1344fda39a93a33910160405180910390a2505050565b6000838152601760209081526040808320338085529252909120548491908015610e4f5760405162461bcd60e51b815260206004820152603d60248201527f4572726f723a207468697320616464726573732068617320616c72656164792060448201527f72657175657374656420746f206a6f696e20746869732067726f75702e00000060648201526084015b60405180910390fd5b6000868152601060209081526040808320338085529252909120548791908015610e8b5760405162461bcd60e51b8152600401610e4690614c1c565b600089815260186020526040902054610f7357600089815260186020908152604080832060019081905560198352818420805480830182559085528385200180546001600160a01b03191690558c8452601a835281842080549182018155845282842082519384019283905292849052610f079392019161438e565b506000898152601b60209081526040808320805460018082018355918552838520848204018054601f92831661010090810a60ff908102199092169092558f8752601c86529386208054938401815586529484902093820490930180549190931690930a021990911690555b6000898152601860209081526040808320546017835281842033808652908452828520919091558c8452601983528184208054600181810183559186528486200180546001600160a01b0319169092179091558c8452601a83529083208054918201815583529120610fe791018989614412565b506000898152601b60209081526040808320805460018082018355918552838520848204018054601f92831661010090810a60ff81810219909316179092558f8752601c8652848720805480860182559088528688208782040180549190941690920a02191690558c845260189092529091205461106491614e87565b60008a815260186020908152604080832093909355600b90528190205490517fc73d895047e43bcf8caa9f1cce950d0f1a21fc9a00a8d693db86cd0c93dc91aa916110b2918c913391614db9565b60405180910390a1505050505050505050565b6001546001600160a01b031633146110dc57600080fd5b6001600160a01b0381166110ef57600080fd5b600180546001600160a01b0319166001600160a01b0392909216919091179055565b6001546001600160a01b0316331461112857600080fd5b6001600160a01b03811661113b57600080fd5b600380546001600160a01b0319166001600160a01b0383161790556040517fa308298a77084def994b565be25bff2e8fbfe7006c2c6b2bacfb84d1ba1f635090600090a150565b8061118d338261364f565b61119657600080fd5b6111a08233613ebb565b5050565b806111af338261364f565b806111c457506003546001600160a01b031633145b6111cd57600080fd5b600354600160a01b900460ff16156111e457600080fd5b6000828152600860205260408120600201805460ff191660031790555b600083815260086020526040902060060154811015611278576000838152602080526040812080548390811061123957611239614f73565b6000918252602080832090910154868352601d825260408084206001600160a01b0390921684529152812055508061127081614f2c565b915050611201565b50600082815260216020526040812061129091614486565b6000828152601f602052604081206112a7916144ae565b600082815260208052604081206112bd916144cc565b6000828152601e602090815260408083208390556009825280832060088352908320815460018181018455928552929093208354600e9093020191825580830180549183019161130c90614ef7565b6113179291906144ea565b50600282810154908201805460ff9092169160ff1916600183600381111561134157611341614f5d565b021790555060038201548160030155600482015481600401556005820154816005015560068201548160060155600782018160070190805461138290614ef7565b61138d9291906144ea565b5060088201816008019080546113a290614ef7565b6113ad9291906144ea565b5060098201816009019080546113c290614ef7565b6113cd9291906144ea565b50600a8281015490820180546001600160a01b0319166001600160a01b03909216919091179055600b8083015481830155600c8084015481840155600d9384015492840192909255600085815260086020526040808220600681018390559283018290559282018190559201919091555133907f6f45a19e8850c727d0de9f32e0d8691324a9a74ffb4347652e6404138b1d81659061146f9085815260200190565b60405180910390a25050565b600354600090600160a01b900460ff161561149557600080fd5b610c38338361269b565b6001546000906001600160a01b031633146114b957600080fd5b600354600160a01b900460ff166114cf57600080fd5b506003805460ff60a01b191690819055600160a01b900460ff1690565b806114f73382611f6f565b61150057600080fd5b6000828152601060209081526040808320338085529083528184205486855260149093529220805485939291908290811061153d5761153d614f73565b60009182526020918290209181049091015460ff601f9092166101000a9004166115db5760405162461bcd60e51b815260206004820152604360248201527f4572726f723a20726563697069656e74277320656c696769626c696c6974792060448201527f686173206265656e2064697361626c656420666f7220746869732067726f757060648201526217171760e91b608482015260a401610e46565b600354600160a01b900460ff16156115f257600080fd5b6000858152601e60205260409020546116a6576000858152601e60209081526040808320600190819055828052818420805480830182559085528385200180546001600160a01b0319169055888452601f83528184208054918201815584528284208251938401928390529284905261166d9392019161438e565b5060008581526021602090815260408220805460018101825590835291819020908204018054601f9092166101000a60ff021990911690555b6000858152601060209081526040808320338452825280832054888452601390925282208054919291839081106116df576116df614f73565b9060005260206000200180546116f490614ef7565b80601f016020809104026020016040519081016040528092919081815260200182805461172090614ef7565b801561176d5780601f106117425761010080835404028352916020019161176d565b820191906000526020600020905b81548152906001019060200180831161175057829003601f168201915b50505060008a8152602080805260408083208054600181810183559185528385200180546001600160a01b031916331790558d8452601f83529083208054918201815583529181902085519596506117cc95920193508501915061438e565b506000878152602160209081526040808320805460018082018355918552838520848204018054601f9092166101000a60ff021990911690558a845260089092529091206006015461181d91614e87565b600088815260086020908152604080832060060193909355601e90522054611846906001614e87565b6000888152601e6020908152604091829020929092555188815233917f0695e999be8100bdb5bee8612337296508d527eae78c65b8f170eacb5a3b439d910160405180910390a250505050505050565b600081815260208080526040808320601f83528184206021845293829020815483518186028101860190945280845260609586958695919392859183018282801561190a57602002820191906000526020600020905b81546001600160a01b031681526001909101906020018083116118ec575b5050505050925081805480602002602001604051908101604052809291908181526020016000905b828210156119de57838290600052602060002001805461195190614ef7565b80601f016020809104026020016040519081016040528092919081815260200182805461197d90614ef7565b80156119ca5780601f1061199f576101008083540402835291602001916119ca565b820191906000526020600020905b8154815290600101906020018083116119ad57829003601f168201915b505050505081526020019060010190611932565b50505050915080805480602002602001604051908101604052809291908181526020018280548015611a4f57602002820191906000526020600020906000905b825461010083900a900460ff161515815260206001928301818104948501949093039092029101808411611a1e5790505b505050505090509250925092509193909250565b606060136000838152602001908152602001600020805480602002602001604051908101604052809291908181526020016000905b82821015610d21578382906000526020600020018054611ab790614ef7565b80601f0160208091040260200160405190810160405280929190818152602001828054611ae390614ef7565b8015611b305780601f10611b0557610100808354040283529160200191611b30565b820191906000526020600020905b815481529060010190602001808311611b1357829003601f168201915b505050505081526020019060010190611a98565b60008060008060008060086000888152602001908152602001600020604051806101c001604052908160008201548152602001600182018054611b8690614ef7565b80601f0160208091040260200160405190810160405280929190818152602001828054611bb290614ef7565b8015611bff5780601f10611bd457610100808354040283529160200191611bff565b820191906000526020600020905b815481529060010190602001808311611be257829003601f168201915b5050509183525050600282015460209091019060ff166003811115611c2657611c26614f5d565b6003811115611c3757611c37614f5d565b815260200160038201548152602001600482015481526020016005820154815260200160068201548152602001600782018054611c7390614ef7565b80601f0160208091040260200160405190810160405280929190818152602001828054611c9f90614ef7565b8015611cec5780601f10611cc157610100808354040283529160200191611cec565b820191906000526020600020905b815481529060010190602001808311611ccf57829003601f168201915b50505050508152602001600882018054611d0590614ef7565b80601f0160208091040260200160405190810160405280929190818152602001828054611d3190614ef7565b8015611d7e5780601f10611d5357610100808354040283529160200191611d7e565b820191906000526020600020905b815481529060010190602001808311611d6157829003601f168201915b50505050508152602001600982018054611d9790614ef7565b80601f0160208091040260200160405190810160405280929190818152602001828054611dc390614ef7565b8015611e105780601f10611de557610100808354040283529160200191611e10565b820191906000526020600020905b815481529060010190602001808311611df357829003601f168201915b5050509183525050600a8201546001600160a01b03166020820152600b820154604080830191909152600c8301546060830152600d9092015460809091015281015160c08201516101608301516101808401516101a090940151929b919a509850919650945092505050565b6001546001600160a01b03163314611e9357600080fd5b6001600160a01b038116611ea657600080fd5b600280546001600160a01b0319166001600160a01b0383161790556040517f162e32528b5907ecf876b3b7a4e5e0edf878642e3ec25852e3c35af1a4e1c04090600090a150565b600081815260146020908152604091829020805483518184028101840190945280845260609392830182828015611f6357602002820191906000526020600020906000905b825461010083900a900460ff161515815260206001928301818104948501949093039092029101808411611f325790505b50505050509050919050565b600354600090600160a01b900460ff1615611f8957600080fd5b506000818152600f602090815260408083206001600160a01b038616845290915290205460ff1615156001145b92915050565b60008181526008602081905260409091206007810180546060938493849392918101916009909101908390611ff090614ef7565b80601f016020809104026020016040519081016040528092919081815260200182805461201c90614ef7565b80156120695780601f1061203e57610100808354040283529160200191612069565b820191906000526020600020905b81548152906001019060200180831161204c57829003601f168201915b5050505050925081805461207c90614ef7565b80601f01602080910402602001604051908101604052809291908181526020018280546120a890614ef7565b80156120f55780601f106120ca576101008083540402835291602001916120f5565b820191906000526020600020905b8154815290600101906020018083116120d857829003601f168201915b5050505050915080805461210890614ef7565b80601f016020809104026020016040519081016040528092919081815260200182805461213490614ef7565b8015611a4f5780601f1061215657610100808354040283529160200191611a4f565b820191906000526020600020905b8154815290600101906020018083116121645750969b959a50929850939650505050505050565b80612196338261269b565b61219f57600080fd5b60008281526015602090815260408083203380855292529091205483919060ff161515600114156121cf57600080fd5b600354600160a01b900460ff16156121e657600080fd5b60008481526015602090815260408083203384528252808320805460ff1916600117905586835260089091528120600d0180549161222383614f2c565b9091555050600084815260086020526040808220600c01549051339282156108fc02929190818181858888f19350505050158015612265573d6000803e3d6000fd5b5060405184815233907f1a31e733a172afcf46074b3106c17f0c298e226442682a03c1e99ce256139ec2906020015b60405180910390a250505050565b6000818152600c60209081526040808320600e8352818420600d845293829020815483518186028101860190945280845260609586958695919392859183018282801561231857602002820191906000526020600020905b81546001600160a01b031681526001909101906020018083116122fa575b505050505092508180548060200260200160405190810160405280929190818152602001828054801561238a57602002820191906000526020600020906000905b825461010083900a900460ff1615158152602060019283018181049485019490930390920291018084116123595790505b5050505050915080805480602002602001604051908101604052809291908181526020016000905b8282101561245e5783829060005260206000200180546123d190614ef7565b80601f01602080910402602001604051908101604052809291908181526020018280546123fd90614ef7565b801561244a5780601f1061241f5761010080835404028352916020019161244a565b820191906000526020600020905b81548152906001019060200180831161242d57829003601f168201915b5050505050815260200190600101906123b2565b5050505090509250925092509193909250565b6001546001600160a01b0316331461248857600080fd5b600354600160a01b900460ff1661249e57600080fd5b602280546001600160a01b0319166001600160a01b0383169081179091556040519081527f450db8da6efbe9c22f2347f7c2021231df1fc58d3ae9a2fa75d39fa4461993059060200160405180910390a150565b806124fd338261364f565b61250657600080fd5b600354600160a01b900460ff161561251d57600080fd5b600082815260086020526040902060060154600111156125955760405162461bcd60e51b815260206004820152602d60248201527f43616e277420656e6420726567697374726174696f6e2077697468207a65726f60448201526c2072656769737472616e74732160981b6064820152608401610e46565b6000828152600860205260408120426004820155600554600b909101546064916125be91614ec1565b6125c89190614e9f565b6002546040519192506001600160a01b03169082156108fc029083906000818181858888f19350505050158015612603573d6000803e3d6000fd5b506000838152600860205260408120600b0154612621908390614ee0565b6000858152600860205260409020600601549091506126409082614e9f565b6000858152600860205260409020600c8101919091556002908101805460ff1916600183021790555060405184815233907fef898a6941c945450e9bbdad4a76fcd0f51f42f7e251fddcb1e5479ba786d5e490602001612294565b600354600090600160a01b900460ff16156126b557600080fd5b506000908152601d602090815260408083206001600160a01b039490941683529290522054151590565b6003546001600160a01b031633146126f657600080fd5b6111a08282613ebb565b80516111a090600090602084019061438e565b600354600090600160a01b900460ff161561272d57600080fd5b506000908152600860205260409020600a01546001600160a01b0390811691161490565b6003546001600160a01b031633148061277457506001546001600160a01b031633145b8061278957506002546001600160a01b031633145b61279257600080fd5b600354600160a01b900460ff16156127a957600080fd5b6003805460ff60a01b1916600160a01b179055565b6060600080546127cd90614ef7565b80601f01602080910402602001604051908101604052809291908181526020018280546127f990614ef7565b80156128465780601f1061281b57610100808354040283529160200191612846565b820191906000526020600020905b81548152906001019060200180831161282957829003601f168201915b5050505050905090565b6000610c38338361364f565b600081815260126020908152604091829020805483518184028101840190945280845260609392830182828015611f6357602002820191906000526020600020905b81546001600160a01b0316815260019091019060200180831161289e5750505050509050919050565b806128d2338261364f565b6128db57600080fd5b600354600160a01b900460ff16156128f257600080fd5b60008281526008602090815260409182902060028101805460ff1916600117905542600390910155905183815233917ff77c6f27499b698205f54058c2914a340e1300c2bc0d9a819e7aebfbaabbbb93910161146f565b836129543382612713565b61295d57600080fd5b83511561298b57600085815260086020908152604090912085516129899260079092019187019061438e565b505b8251156129b957600085815260086020818152604090922085516129b79391909201919086019061438e565b505b8151156129e757600085815260086020908152604090912083516129e59260099092019185019061438e565b505b60008581526008602081905260409182902091517fcd9ad49d834aeea746bafd2d26eebd3d01ebac2d8f5d3f53d7f3884292e5835f92612a3592899260078301929182019160090190614e3d565b60405180910390a15050505050565b81612a4f338261364f565b612a5857600080fd5b600354600160a01b900460ff1615612a6f57600080fd5b60008381526010602090815260408083206001600160a01b0386168452909152902054839083908015612ab45760405162461bcd60e51b8152600401610e4690614c1c565b60008681526017602090815260408083206001600160a01b0389168452909152902054869086908015801590612b2657506000838152601b60205260409020805482908110612b0557612b05614f73565b90600052602060002090602091828204019190069054906101000a900460ff165b612ba85760405162461bcd60e51b815260206004820152604760248201527f4572726f723a2074686973206164647265737320646f6573206e6f742068617660448201527f6520612070656e64696e67207265717565737420746f206a6f696e20746869736064820152661033b937bab81760c91b608482015260a401610e46565b60008981526017602090815260408083206001600160a01b038c1684528252808320548c845260199092528220805491929183908110612bea57612bea614f73565b60009182526020808320909101548d8352601a9091526040822080546001600160a01b0390921693509084908110612c2457612c24614f73565b906000526020600020018054612c3990614ef7565b80601f0160208091040260200160405190810160405280929190818152602001828054612c6590614ef7565b8015612cb25780601f10612c8757610100808354040283529160200191612cb2565b820191906000526020600020905b815481529060010190602001808311612c9557829003601f168201915b505050505090506001601c60008e81526020019081526020016000208481548110612cdf57612cdf614f73565b90600052602060002090602091828204019190066101000a81548160ff021916908315150217905550612d1382828e613f6c565b7fa99702a14ae3f010941d30549064432035071f0e359c50ec6b37d47f430d557a8c8383604051612d4693929190614d86565b60405180910390a1505050505050505050505050565b6060600680548060200260200160405190810160405280929190818152602001828054801561284657602002820191906000526020600020905b815481526020019060010190808311612d96575050505050905090565b80612dbe338261364f565b80612dd357506003546001600160a01b031633145b612ddc57600080fd5b600354600160a01b900460ff1615612df357600080fd5b612dfd838361413b565b505050565b60008054612e0f90614ef7565b80601f0160208091040260200160405190810160405280929190818152602001828054612e3b90614ef7565b8015612e885780601f10612e5d57610100808354040283529160200191612e88565b820191906000526020600020905b815481529060010190602001808311612e6b57829003601f168201915b505050505081565b60006060600080600080600080600860008a8152602001908152602001600020604051806101c001604052908160008201548152602001600182018054612ed690614ef7565b80601f0160208091040260200160405190810160405280929190818152602001828054612f0290614ef7565b8015612f4f5780601f10612f2457610100808354040283529160200191612f4f565b820191906000526020600020905b815481529060010190602001808311612f3257829003601f168201915b5050509183525050600282015460209091019060ff166003811115612f7657612f76614f5d565b6003811115612f8757612f87614f5d565b815260200160038201548152602001600482015481526020016005820154815260200160068201548152602001600782018054612fc390614ef7565b80601f0160208091040260200160405190810160405280929190818152602001828054612fef90614ef7565b801561303c5780601f106130115761010080835404028352916020019161303c565b820191906000526020600020905b81548152906001019060200180831161301f57829003601f168201915b5050505050815260200160088201805461305590614ef7565b80601f016020809104026020016040519081016040528092919081815260200182805461308190614ef7565b80156130ce5780601f106130a3576101008083540402835291602001916130ce565b820191906000526020600020905b8154815290600101906020018083116130b157829003601f168201915b505050505081526020016009820180546130e790614ef7565b80601f016020809104026020016040519081016040528092919081815260200182805461311390614ef7565b80156131605780601f1061313557610100808354040283529160200191613160565b820191906000526020600020905b81548152906001019060200180831161314357829003601f168201915b5050509183525050600a8201546001600160a01b0316602080830191909152600b830154604080840191909152600c8401546060840152600d909301546080909201919091528251908301519183015160c08401516101608501516101808601516101a090960151939f949e50919c509a50985091965090945092505050565b60606007805480602002602001604051908101604052809291908181526020016000905b828210156132b057838290600052602060002001805461322390614ef7565b80601f016020809104026020016040519081016040528092919081815260200182805461324f90614ef7565b801561329c5780601f106132715761010080835404028352916020019161329c565b820191906000526020600020905b81548152906001019060200180831161327f57829003601f168201915b505050505081526020019060010190613204565b50505050905090565b613334604080516101c081018252600080825260606020830152909182019081526020016000815260200160008152602001600081526020016000815260200160608152602001606081526020016060815260200160006001600160a01b031681526020016000815260200160008152602001600081525090565b8161333f338261364f565b61334857600080fd5b60086000848152602001908152602001600020604051806101c00160405290816000820154815260200160018201805461338190614ef7565b80601f01602080910402602001604051908101604052809291908181526020018280546133ad90614ef7565b80156133fa5780601f106133cf576101008083540402835291602001916133fa565b820191906000526020600020905b8154815290600101906020018083116133dd57829003601f168201915b5050509183525050600282015460209091019060ff16600381111561342157613421614f5d565b600381111561343257613432614f5d565b81526020016003820154815260200160048201548152602001600582015481526020016006820154815260200160078201805461346e90614ef7565b80601f016020809104026020016040519081016040528092919081815260200182805461349a90614ef7565b80156134e75780601f106134bc576101008083540402835291602001916134e7565b820191906000526020600020905b8154815290600101906020018083116134ca57829003601f168201915b5050505050815260200160088201805461350090614ef7565b80601f016020809104026020016040519081016040528092919081815260200182805461352c90614ef7565b80156135795780601f1061354e57610100808354040283529160200191613579565b820191906000526020600020905b81548152906001019060200180831161355c57829003601f168201915b5050505050815260200160098201805461359290614ef7565b80601f01602080910402602001604051908101604052809291908181526020018280546135be90614ef7565b801561360b5780601f106135e05761010080835404028352916020019161360b565b820191906000526020600020905b8154815290600101906020018083116135ee57829003601f168201915b5050509183525050600a8201546001600160a01b03166020820152600b8201546040820152600c8201546060820152600d9091015460809091015291505b50919050565b6000818152600a602090815260408083206001600160a01b038616845290915281205480613681576000915050611fb6565b6000838152600e602052604090208054829081106136a1576136a1614f73565b90600052602060002090602091828204019190069054906101000a900460ff161515600115151491505092915050565b806136dc3382612713565b6136e557600080fd5b600354600160a01b900460ff16156136fc57600080fd5b6000828152600860205260408120600b01805434929061371d908490614e87565b9091555050600082815260086020908152604091829020600b015482518581529182015233917f5dc1fe5ab986a852c4eda8e8bb94247d13307065c593fb83f1a09be273679382910161146f565b6003546001600160a01b0316331461378257600080fd5b6000828152600a602090815260408083206001600160a01b0385168452825280832054858452600e909252909120805460019190839081106137c6576137c6614f73565b90600052602060002090602091828204019190066101000a81548160ff0219169083151502179055507f2d19f1f4aa7d21a07d18586e49b3e0529d148488052497ea97f06d7266c3cbbe83600d6000868152602001908152602001600020838154811061383557613835614f73565b9060005260206000200160405161384d929190614e24565b60405180910390a1505050565b6003546001600160a01b0316331461387157600080fd5b600354600160a01b900460ff161561388857600080fd5b604080516101c0810182524280825260208083018581526000848601819052606085018490526080850184905260a0850184905260c085018190528551808401875281815260e086015285518084018752818152610100860152855180840187528181526101208601526101408501819052610160850181905261018085018190526101a085018190528381526008835294909420835181559351805192948493909261393c92600185019291019061438e565b50604082015160028201805460ff1916600183600381111561396057613960614f5d565b0217905550606082015160038201556080820151600482015560a0820151600582015560c0820151600682015560e082015180516139a891600784019160209091019061438e565b5061010082015180516139c591600884019160209091019061438e565b5061012082015180516139e291600984019160209091019061438e565b50610140820151600a820180546001600160a01b0319166001600160a01b03909216919091179055610160820151600b820155610180820151600c8201556101a090910151600d909101556006805460018181019092557ff652222313e28459528d920b65115c16c04f3efc82aaedc97be59f3f377c0d3f018390556007805491820181556000528351613a9d917fa66cc928b5edb82af9bd49922954155ab7b0942694bea4ce44661d9a8736c6880190602086019061438e565b507f5937a473913f56daf7dea7a6e821970acaa73f35555cf88f70c54f243cd98a9e838360405161384d929190614bfa565b6000838152600a602090815260408083206001600160a01b03861684529091529020548390839015613b0057600080fd5b6003546001600160a01b03163314613b1757600080fd5b613b228585856141b4565b5050505050565b600354600090600160a01b900460ff1615613b4357600080fd5b610c383383612713565b606080606083613b5d338261364f565b613b6657600080fd5b6000858152601960209081526040808320601a8352818420601c84529382902081548351818602810186019094528084529194939092918591830182828015613bd857602002820191906000526020600020905b81546001600160a01b03168152600190910190602001808311613bba575b5050505050925081805480602002602001604051908101604052809291908181526020016000905b82821015613cac578382906000526020600020018054613c1f90614ef7565b80601f0160208091040260200160405190810160405280929190818152602001828054613c4b90614ef7565b8015613c985780601f10613c6d57610100808354040283529160200191613c98565b820191906000526020600020905b815481529060010190602001808311613c7b57829003601f168201915b505050505081526020019060010190613c00565b50505050915080805480602002602001604051908101604052809291908181526020018280548015613d1d57602002820191906000526020600020906000905b825461010083900a900460ff161515815260206001928301818104948501949093039092029101808411613cec5790505b50505050509050935093509350509193909250565b60008181526012602090815260408083206013835281842060148452938290208154835181860281018601909452808452606095869586959193928591830182828015613da857602002820191906000526020600020905b81546001600160a01b03168152600190910190602001808311613d8a575b5050505050925081805480602002602001604051908101604052809291908181526020016000905b828210156119de578382906000526020600020018054613def90614ef7565b80601f0160208091040260200160405190810160405280929190818152602001828054613e1b90614ef7565b8015613e685780601f10613e3d57610100808354040283529160200191613e68565b820191906000526020600020905b815481529060010190602001808311613e4b57829003601f168201915b505050505081526020019060010190613dd0565b6000613e88338361269b565b613e9457506000919050565b50600090815260156020908152604080832033845290915290205460ff1615156001141590565b6000828152600a602090815260408083206001600160a01b0385168452825280832054858452600e9092528220805491929183908110613efd57613efd614f73565b90600052602060002090602091828204019190066101000a81548160ff0219169083151502179055507f021d633158208ba55afbe8aae9878e510cccaf8f1fe2d8c42455d95f58f3b1f083600d6000868152602001908152602001600020838154811061383557613835614f73565b600354600160a01b900460ff1615613f8357600080fd5b80613f8e338261364f565b613f9757600080fd5b60008281526011602052604090205461404c57600082815260116020908152604080832060019081905560128352818420805480830182559085528385200180546001600160a01b031916905585845260138352818420805491820181558452828420825193840192839052928490526140139392019161438e565b5060008281526014602090815260408220805460018101825590835291819020908204018054601f9092166101000a60ff021990911690555b600082815260116020908152604080832054601083528184206001600160a01b03891680865290845282852091909155858452601283528184208054600181810183559186528486200180546001600160a01b031916909217909155858452601383529083208054918201815583529181902085516140d293919091019186019061438e565b50600082815260146020908152604080832080546001818101835591855283852084820401805460ff601f9093166101000a9283021916909117905585845260119092529091205461412391614e87565b60009283526011602052604090922091909155505050565b60008181526016602090815260408083206001600160a01b038616808552908352818420805460ff191660011790558484526008835292819020600a0180546001600160a01b03191684179055518381527f5fd6d0b7e707fe344bd2a1887f9d0eeea8bfcac6f339ba4200e74f0647f101c0910161146f565b6000838152600b6020526040902054614278576000838152600b60209081526040808320600190819055600c808452828520805480840182559086528486200180546001600160a01b0319169055878552600e845282852080548084018255908652848620858204018054601f9092166101000a60ff02199091169055878552600d84528285208054928301815585529383902082518084019093528483526b7a65726f206164647265737360a01b929093019182526142769392019161438e565b505b6000838152600b6020908152604080832054600a83528184206001600160a01b03871680865290845282852091909155868452600c83528184208054600181810183559186528486200180546001600160a01b031916909217909155868452600e83528184208054808301825590855283852084820401805460ff601f9093166101000a92830219169091179055868452600d835290832080549182018155835291819020835161433093919091019184019061438e565b506000838152600b602052604090205461434b906001614e87565b6000848152600b602052604090819020829055517f88356b104f5ba3e9281d371b21296e4e0390dda6f4bcc4bfc219f6d67cc8ae509161384d9186918691614db9565b82805461439a90614ef7565b90600052602060002090601f0160209004810192826143bc5760008555614402565b82601f106143d557805160ff1916838001178555614402565b82800160010185558215614402579182015b828111156144025782518255916020019190600101906143e7565b5061440e929150614565565b5090565b82805461441e90614ef7565b90600052602060002090601f0160209004810192826144405760008555614402565b82601f106144595782800160ff19823516178555614402565b82800160010185558215614402579182015b8281111561440257823582559160200191906001019061446b565b50805460008255601f0160209004906000526020600020908101906144ab9190614565565b50565b50805460008255906000526020600020908101906144ab919061457a565b50805460008255906000526020600020908101906144ab9190614565565b8280546144f690614ef7565b90600052602060002090601f0160209004810192826145185760008555614402565b82601f106145295780548555614402565b8280016001018555821561440257600052602060002091601f016020900482015b8281111561440257825482559160010191906001019061454a565b5b8082111561440e5760008155600101614566565b8082111561440e57600061458e8282614597565b5060010161457a565b5080546145a390614ef7565b6000825580601f106145b3575050565b601f0160209004906000526020600020908101906144ab9190614565565b80356001600160a01b0381168114610c3b57600080fd5b600082601f8301126145f957600080fd5b813567ffffffffffffffff8082111561461457614614614f89565b604051601f8301601f19908116603f0116810190828211818310171561463c5761463c614f89565b8160405283815286602085880101111561465557600080fd5b836020870160208301376000602085830101528094505050505092915050565b60006020828403121561468757600080fd5b614690826145d1565b9392505050565b600080604083850312156146aa57600080fd5b6146b3836145d1565b946020939093013593505050565b6000602082840312156146d357600080fd5b813567ffffffffffffffff8111156146ea57600080fd5b6146f6848285016145e8565b949350505050565b60006020828403121561471057600080fd5b5035919050565b6000806040838503121561472a57600080fd5b8235915061473a602084016145d1565b90509250929050565b60008060006060848603121561475857600080fd5b83359250614768602085016145d1565b9150604084013567ffffffffffffffff81111561478457600080fd5b614790868287016145e8565b9150509250925092565b6000806000604084860312156147af57600080fd5b83359250602084013567ffffffffffffffff808211156147ce57600080fd5b818601915086601f8301126147e257600080fd5b8135818111156147f157600080fd5b87602082850101111561480357600080fd5b6020830194508093505050509250925092565b6000806000806080858703121561482c57600080fd5b84359350602085013567ffffffffffffffff8082111561484b57600080fd5b614857888389016145e8565b9450604087013591508082111561486d57600080fd5b614879888389016145e8565b9350606087013591508082111561488f57600080fd5b5061489c878288016145e8565b91505092959194509250565b600081518084526020808501945080840160005b838110156148e15781516001600160a01b0316875295820195908201906001016148bc565b509495945050505050565b600081518084526020808501945080840160005b838110156148e1578151151587529582019590820190600101614900565b600082825180855260208086019550808260051b84010181860160005b8481101561496957601f19868403018952614957838351614998565b9884019892509083019060010161493b565b5090979650505050505050565b6004811061499457634e487b7160e01b600052602160045260246000fd5b9052565b6000815180845260005b818110156149be576020818501810151868301820152016149a2565b818111156149d0576000602083870101525b50601f01601f19169290920160200192915050565b8054600090600181811c90808316806149ff57607f831692505b6020808410821415614a2157634e487b7160e01b600052602260045260246000fd5b83885260208801828015614a3c5760018114614a4d57614a78565b60ff19871682528282019750614a78565b60008981526020902060005b87811015614a7257815484820152908601908401614a59565b83019850505b5050505050505092915050565b60208152600061469060208301846148a8565b606081526000614aab60608301866148a8565b8281036020840152614abd81866148ec565b90508281036040840152614ad1818561491e565b9695505050505050565b606081526000614aee60608301866148a8565b8281036020840152614b00818661491e565b90508281036040840152614ad181856148ec565b60208152600061469060208301846148ec565b602081526000614690602083018461491e565b6020808252825182820181905260009190848201906040850190845b81811015614b7257835183529284019291840191600101614b56565b50909695505050505050565b60a08101614b8c8288614976565b8560208301528460408301528360608301528260808301529695505050505050565b6020815260006146906020830184614998565b606081526000614bd46060830186614998565b8281036020840152614be68186614998565b90508281036040840152614ad18185614998565b604081526000614c0d6040830185614998565b90508260208301529392505050565b6020808252603f908201527f4572726f723a20726563697069656e7420697320616c726561647920616e206560408201527f6c696769626c6520726563697069656e7420696e207468652067726f75702e00606082015260800190565b6020815281516020820152600060208301516101c0806040850152614ca26101e0850183614998565b91506040850151614cb66060860182614976565b5060608501516080850152608085015160a085015260a085015160c085015260c085015160e085015260e0850151601f19610100818786030181880152614cfd8584614998565b945080880151925050610120818786030181880152614d1c8584614998565b945080880151925050610140818786030181880152614d3b8584614998565b94508088015192505050610160614d5c818701836001600160a01b03169052565b860151610180868101919091528601516101a0808701919091529095015193019290925250919050565b8381526001600160a01b0383166020820152606060408201819052600090614db090830184614998565b95945050505050565b9283526001600160a01b03919091166020830152604082015260600190565b87815260e060208201526000614df160e0830189614998565b9050614e006040830188614976565b8560608301528460808301528360a08301528260c083015298975050505050505050565b8281526040602082015260006146f660408301846149e5565b848152608060208201526000614e5660808301866149e5565b8281036040840152614e6881866149e5565b90508281036060840152614e7c81856149e5565b979650505050505050565b60008219821115614e9a57614e9a614f47565b500190565b600082614ebc57634e487b7160e01b600052601260045260246000fd5b500490565b6000816000190483118215151615614edb57614edb614f47565b500290565b600082821015614ef257614ef2614f47565b500390565b600181811c90821680614f0b57607f821691505b6020821081141561364957634e487b7160e01b600052602260045260246000fd5b6000600019821415614f4057614f40614f47565b5060010190565b634e487b7160e01b600052601160045260246000fd5b634e487b7160e01b600052602160045260246000fd5b634e487b7160e01b600052603260045260246000fd5b634e487b7160e01b600052604160045260246000fdfea2646970667358221220b1444cd0b40626eca5f73d141e4f37259b27cadc3f88cd4dac2c4c337d7396f864736f6c63430008070033",
  "immutableReferences": {},
  "source": "// SPDX-License-Identifier: MIT\npragma solidity ^0.8.0;\n\nimport \"../roles/AdminsManager.sol\";\n\ncontract EthDropCore is AdminsManager {\n    // Set in case the core contract is broken and an upgrade is required\n    address public newContractAddress;\n\n    /// @notice Creates the main EthDrop smart contract instance.\n    constructor () {\n        // Starts paused.\n\n        // TODO \n        paused = false;\n\n        // the creator of the contract is the initial CEO\n        ceoAddress = msg.sender;\n\n    }\n\n    /// @dev Used to mark the smart contract as upgraded, in case there is a serious\n    ///  breaking bug. This method does nothing but keep track of the new contract and\n    ///  emit a message indicating that the new address is set. It's up to clients of this\n    ///  contract to update to the new contract address in that case. (This contract will\n    ///  be paused indefinitely if such an upgrade takes place.)\n    /// @param _v2Address new address\n    function setNewAddress(address _v2Address) external onlyCEO whenPaused {\n        // See README.md for updgrade plan\n        newContractAddress = _v2Address;\n        emit ContractUpgrade(_v2Address);\n    }\n\n    function foobar() external pure returns (string memory) {\n        return \"foobarrrrrrr!\";\n    }\n}",
  "sourcePath": "/Users/jim/trash/EthDrop/contracts/core/EthDropCore.sol",
  "compiler": {
    "name": "solc",
    "version": "0.8.7+commit.e28d00a7.Emscripten.clang"
  },
  "schemaVersion": "3.4.3",
  "updatedAt": "2021-09-12T18:57:53.849Z",
  "devdoc": {
    "kind": "dev",
    "methods": {
      "pause()": {
        "details": "Called by any \"C-level\" role to pause the contract. Used only when  a bug or exploit is detected and we need to limit damage."
      },
      "setCEO(address)": {
        "details": "Assigns a new address to act as the CEO. Only available to the current CEO.",
        "params": {
          "_newCEO": "The address of the new CEO"
        }
      },
      "setCFO(address)": {
        "details": "Assigns a new address to act as the CFO. Only available to the current CEO.",
        "params": {
          "_newCFO": "The address of the new CFO"
        }
      },
      "setCOO(address)": {
        "details": "Assigns a new address to act as the COO. Only available to the current CEO.",
        "params": {
          "_newCOO": "The address of the new COO"
        }
      },
      "setNewAddress(address)": {
        "details": "Used to mark the smart contract as upgraded, in case there is a serious  breaking bug. This method does nothing but keep track of the new contract and  emit a message indicating that the new address is set. It's up to clients of this  contract to update to the new contract address in that case. (This contract will  be paused indefinitely if such an upgrade takes place.)",
        "params": {
          "_v2Address": "new address"
        }
      },
      "unpause()": {
        "details": "Unpauses the smart contract. Can only be called by the CEO, since  one reason we may pause the contract is when CFO or COO accounts are  compromised."
      }
    },
    "version": 1
  },
  "userdoc": {
    "kind": "user",
    "methods": {
      "constructor": {
        "notice": "Creates the main EthDrop smart contract instance."
      },
      "unpause()": {
        "notice": "This is public rather than external so it can be called by  derived contracts."
      }
    },
    "version": 1
  }
}