{
  "contractName": "EthDropCore",
  "abi": [
    {
      "inputs": [],
      "stateMutability": "nonpayable",
      "type": "constructor"
    },
    {
      "anonymous": false,
      "inputs": [
        {
          "indexed": true,
          "internalType": "address",
          "name": "account",
          "type": "address"
        },
        {
          "indexed": false,
          "internalType": "uint256",
          "name": "groupId",
          "type": "uint256"
        }
      ],
      "name": "AdminAdded",
      "type": "event"
    },
    {
      "anonymous": false,
      "inputs": [
        {
          "indexed": true,
          "internalType": "address",
          "name": "account",
          "type": "address"
        },
        {
          "indexed": false,
          "internalType": "uint256",
          "name": "groupId",
          "type": "uint256"
        }
      ],
      "name": "AdminRemoved",
      "type": "event"
    },
    {
      "anonymous": false,
      "inputs": [
        {
          "indexed": false,
          "internalType": "uint256",
          "name": "registeredRecipientCount",
          "type": "uint256"
        },
        {
          "indexed": false,
          "internalType": "uint256",
          "name": "winningsPerRecipient",
          "type": "uint256"
        }
      ],
      "name": "CalculatedPot",
      "type": "event"
    },
    {
      "anonymous": false,
      "inputs": [
        {
          "indexed": false,
          "internalType": "address",
          "name": "newContract",
          "type": "address"
        }
      ],
      "name": "ContractUpgrade",
      "type": "event"
    },
    {
      "anonymous": false,
      "inputs": [
        {
          "indexed": true,
          "internalType": "address",
          "name": "account",
          "type": "address"
        },
        {
          "indexed": false,
          "internalType": "uint256",
          "name": "groupId",
          "type": "uint256"
        },
        {
          "indexed": false,
          "internalType": "uint256",
          "name": "amount",
          "type": "uint256"
        }
      ],
      "name": "ContributionMade",
      "type": "event"
    },
    {
      "anonymous": false,
      "inputs": [
        {
          "indexed": true,
          "internalType": "address",
          "name": "account",
          "type": "address"
        },
        {
          "indexed": false,
          "internalType": "uint256",
          "name": "groupId",
          "type": "uint256"
        }
      ],
      "name": "ContributorAdded",
      "type": "event"
    },
    {
      "anonymous": false,
      "inputs": [
        {
          "indexed": true,
          "internalType": "address",
          "name": "account",
          "type": "address"
        },
        {
          "indexed": false,
          "internalType": "uint256",
          "name": "groupId",
          "type": "uint256"
        }
      ],
      "name": "ContributorRemoved",
      "type": "event"
    },
    {
      "anonymous": false,
      "inputs": [
        {
          "indexed": true,
          "internalType": "address",
          "name": "account",
          "type": "address"
        },
        {
          "indexed": false,
          "internalType": "uint256",
          "name": "groupId",
          "type": "uint256"
        }
      ],
      "name": "EligibleRecipientAdded",
      "type": "event"
    },
    {
      "anonymous": false,
      "inputs": [
        {
          "indexed": true,
          "internalType": "address",
          "name": "account",
          "type": "address"
        },
        {
          "indexed": false,
          "internalType": "uint256",
          "name": "groupId",
          "type": "uint256"
        }
      ],
      "name": "EligibleRecipientRemoved",
      "type": "event"
    },
    {
      "anonymous": false,
      "inputs": [],
      "name": "EventClose",
      "type": "event"
    },
    {
      "anonymous": false,
      "inputs": [
        {
          "indexed": true,
          "internalType": "address",
          "name": "endedBy",
          "type": "address"
        },
        {
          "indexed": false,
          "internalType": "uint256",
          "name": "groupId",
          "type": "uint256"
        }
      ],
      "name": "EventEnded",
      "type": "event"
    },
    {
      "anonymous": false,
      "inputs": [
        {
          "indexed": true,
          "internalType": "address",
          "name": "startedBy",
          "type": "address"
        },
        {
          "indexed": false,
          "internalType": "uint256",
          "name": "groupId",
          "type": "uint256"
        }
      ],
      "name": "EventStarted",
      "type": "event"
    },
    {
      "anonymous": false,
      "inputs": [
        {
          "indexed": true,
          "internalType": "address",
          "name": "creator",
          "type": "address"
        },
        {
          "indexed": false,
          "internalType": "uint256",
          "name": "groupId",
          "type": "uint256"
        }
      ],
      "name": "GroupCreated",
      "type": "event"
    },
    {
      "anonymous": false,
      "inputs": [
        {
          "indexed": true,
          "internalType": "address",
          "name": "account",
          "type": "address"
        },
        {
          "indexed": false,
          "internalType": "uint256",
          "name": "groupId",
          "type": "uint256"
        }
      ],
      "name": "RecipientRegistered",
      "type": "event"
    },
    {
      "anonymous": false,
      "inputs": [
        {
          "indexed": true,
          "internalType": "address",
          "name": "endedBy",
          "type": "address"
        },
        {
          "indexed": false,
          "internalType": "uint256",
          "name": "groupId",
          "type": "uint256"
        }
      ],
      "name": "RegistrationEnded",
      "type": "event"
    },
    {
      "anonymous": false,
      "inputs": [],
      "name": "RegistrationOpen",
      "type": "event"
    },
    {
      "anonymous": false,
      "inputs": [
        {
          "indexed": false,
          "internalType": "address",
          "name": "from",
          "type": "address"
        },
        {
          "indexed": false,
          "internalType": "address",
          "name": "to",
          "type": "address"
        }
      ],
      "name": "Transfer",
      "type": "event"
    },
    {
      "anonymous": false,
      "inputs": [
        {
          "indexed": true,
          "internalType": "address",
          "name": "account",
          "type": "address"
        },
        {
          "indexed": false,
          "internalType": "uint256",
          "name": "groupId",
          "type": "uint256"
        }
      ],
      "name": "WinningsClaimed",
      "type": "event"
    },
    {
      "anonymous": false,
      "inputs": [],
      "name": "WinningsClaimingOpen",
      "type": "event"
    },
    {
      "inputs": [
        {
          "internalType": "address",
          "name": "account",
          "type": "address"
        },
        {
          "internalType": "uint256",
          "name": "groupId",
          "type": "uint256"
        }
      ],
      "name": "addAdmin",
      "outputs": [],
      "stateMutability": "nonpayable",
      "type": "function"
    },
    {
      "inputs": [
        {
          "internalType": "address",
          "name": "account",
          "type": "address"
        },
        {
          "internalType": "uint256",
          "name": "groupId",
          "type": "uint256"
        }
      ],
      "name": "addContributor",
      "outputs": [],
      "stateMutability": "nonpayable",
      "type": "function"
    },
    {
      "inputs": [
        {
          "internalType": "address",
          "name": "account",
          "type": "address"
        },
        {
          "internalType": "uint256",
          "name": "groupId",
          "type": "uint256"
        }
      ],
      "name": "addEligibleRecipient",
      "outputs": [],
      "stateMutability": "nonpayable",
      "type": "function"
    },
    {
      "inputs": [
        {
          "internalType": "uint256",
          "name": "groupId",
          "type": "uint256"
        }
      ],
      "name": "amIAdmin",
      "outputs": [
        {
          "internalType": "bool",
          "name": "",
          "type": "bool"
        }
      ],
      "stateMutability": "view",
      "type": "function",
      "constant": true
    },
    {
      "inputs": [
        {
          "internalType": "uint256",
          "name": "groupId",
          "type": "uint256"
        }
      ],
      "name": "amIContributor",
      "outputs": [
        {
          "internalType": "bool",
          "name": "",
          "type": "bool"
        }
      ],
      "stateMutability": "view",
      "type": "function",
      "constant": true
    },
    {
      "inputs": [
        {
          "internalType": "uint256",
          "name": "groupId",
          "type": "uint256"
        }
      ],
      "name": "amIEligibleRecipient",
      "outputs": [
        {
          "internalType": "bool",
          "name": "",
          "type": "bool"
        }
      ],
      "stateMutability": "view",
      "type": "function",
      "constant": true
    },
    {
      "inputs": [
        {
          "internalType": "uint256",
          "name": "groupId",
          "type": "uint256"
        }
      ],
      "name": "amIRegisteredRecipient",
      "outputs": [
        {
          "internalType": "bool",
          "name": "",
          "type": "bool"
        }
      ],
      "stateMutability": "view",
      "type": "function",
      "constant": true
    },
    {
      "inputs": [],
      "name": "ceoAddress",
      "outputs": [
        {
          "internalType": "address",
          "name": "",
          "type": "address"
        }
      ],
      "stateMutability": "view",
      "type": "function",
      "constant": true
    },
    {
      "inputs": [],
      "name": "cfoAddress",
      "outputs": [
        {
          "internalType": "address",
          "name": "",
          "type": "address"
        }
      ],
      "stateMutability": "view",
      "type": "function",
      "constant": true
    },
    {
      "inputs": [
        {
          "internalType": "uint256",
          "name": "groupId",
          "type": "uint256"
        }
      ],
      "name": "claimWinnings",
      "outputs": [],
      "stateMutability": "nonpayable",
      "type": "function"
    },
    {
      "inputs": [
        {
          "internalType": "uint256",
          "name": "groupId",
          "type": "uint256"
        }
      ],
      "name": "closeEventRegistration",
      "outputs": [],
      "stateMutability": "nonpayable",
      "type": "function"
    },
    {
      "inputs": [
        {
          "internalType": "uint256",
          "name": "groupId",
          "type": "uint256"
        }
      ],
      "name": "contributeToPot",
      "outputs": [],
      "stateMutability": "payable",
      "type": "function",
      "payable": true
    },
    {
      "inputs": [],
      "name": "cooAddress",
      "outputs": [
        {
          "internalType": "address",
          "name": "",
          "type": "address"
        }
      ],
      "stateMutability": "view",
      "type": "function",
      "constant": true
    },
    {
      "inputs": [
        {
          "internalType": "string",
          "name": "groupName",
          "type": "string"
        }
      ],
      "name": "createNewGroup",
      "outputs": [],
      "stateMutability": "nonpayable",
      "type": "function"
    },
    {
      "inputs": [
        {
          "internalType": "uint256",
          "name": "groupId",
          "type": "uint256"
        }
      ],
      "name": "endEvent",
      "outputs": [],
      "stateMutability": "nonpayable",
      "type": "function"
    },
    {
      "inputs": [
        {
          "internalType": "uint256",
          "name": "groupId",
          "type": "uint256"
        }
      ],
      "name": "getAdminsForGroup",
      "outputs": [
        {
          "internalType": "address[]",
          "name": "",
          "type": "address[]"
        },
        {
          "internalType": "bool[]",
          "name": "",
          "type": "bool[]"
        }
      ],
      "stateMutability": "view",
      "type": "function",
      "constant": true
    },
    {
      "inputs": [],
      "name": "getCFO",
      "outputs": [
        {
          "internalType": "address",
          "name": "",
          "type": "address"
        }
      ],
      "stateMutability": "view",
      "type": "function",
      "constant": true
    },
    {
      "inputs": [],
      "name": "getCOO",
      "outputs": [
        {
          "internalType": "address",
          "name": "",
          "type": "address"
        }
      ],
      "stateMutability": "view",
      "type": "function",
      "constant": true
    },
    {
      "inputs": [
        {
          "internalType": "uint256",
          "name": "groupId",
          "type": "uint256"
        }
      ],
      "name": "getEligibleRecipientAddresses",
      "outputs": [
        {
          "internalType": "address[]",
          "name": "",
          "type": "address[]"
        }
      ],
      "stateMutability": "view",
      "type": "function",
      "constant": true
    },
    {
      "inputs": [
        {
          "internalType": "uint256",
          "name": "groupId",
          "type": "uint256"
        }
      ],
      "name": "getEligibleRecipientIsEligibilityEnabled",
      "outputs": [
        {
          "internalType": "bool[]",
          "name": "",
          "type": "bool[]"
        }
      ],
      "stateMutability": "view",
      "type": "function",
      "constant": true
    },
    {
      "inputs": [
        {
          "internalType": "uint256",
          "name": "groupId",
          "type": "uint256"
        }
      ],
      "name": "getGroupEventData",
      "outputs": [
        {
          "internalType": "enum EthDropBase.EventState",
          "name": "",
          "type": "uint8"
        },
        {
          "internalType": "uint256",
          "name": "",
          "type": "uint256"
        },
        {
          "internalType": "uint256",
          "name": "",
          "type": "uint256"
        },
        {
          "internalType": "string",
          "name": "",
          "type": "string"
        },
        {
          "internalType": "string",
          "name": "",
          "type": "string"
        },
        {
          "internalType": "string",
          "name": "",
          "type": "string"
        }
      ],
      "stateMutability": "view",
      "type": "function",
      "constant": true
    },
    {
      "inputs": [],
      "name": "getGroupIds",
      "outputs": [
        {
          "internalType": "uint256[]",
          "name": "",
          "type": "uint256[]"
        }
      ],
      "stateMutability": "view",
      "type": "function",
      "constant": true
    },
    {
      "inputs": [],
      "name": "getGroupNames",
      "outputs": [
        {
          "internalType": "string[]",
          "name": "",
          "type": "string[]"
        }
      ],
      "stateMutability": "view",
      "type": "function",
      "constant": true
    },
    {
      "inputs": [
        {
          "internalType": "uint256",
          "name": "groupId",
          "type": "uint256"
        }
      ],
      "name": "getRegisteredRecipients",
      "outputs": [
        {
          "internalType": "address[]",
          "name": "",
          "type": "address[]"
        }
      ],
      "stateMutability": "view",
      "type": "function",
      "constant": true
    },
    {
      "inputs": [],
      "name": "getString",
      "outputs": [
        {
          "internalType": "string",
          "name": "",
          "type": "string"
        }
      ],
      "stateMutability": "view",
      "type": "function",
      "constant": true
    },
    {
      "inputs": [
        {
          "internalType": "address",
          "name": "account",
          "type": "address"
        },
        {
          "internalType": "uint256",
          "name": "groupId",
          "type": "uint256"
        }
      ],
      "name": "isAdmin",
      "outputs": [
        {
          "internalType": "bool",
          "name": "",
          "type": "bool"
        }
      ],
      "stateMutability": "view",
      "type": "function",
      "constant": true
    },
    {
      "inputs": [],
      "name": "isCEO",
      "outputs": [
        {
          "internalType": "bool",
          "name": "",
          "type": "bool"
        }
      ],
      "stateMutability": "view",
      "type": "function",
      "constant": true
    },
    {
      "inputs": [],
      "name": "isCFO",
      "outputs": [
        {
          "internalType": "bool",
          "name": "",
          "type": "bool"
        }
      ],
      "stateMutability": "view",
      "type": "function",
      "constant": true
    },
    {
      "inputs": [],
      "name": "isCOO",
      "outputs": [
        {
          "internalType": "bool",
          "name": "",
          "type": "bool"
        }
      ],
      "stateMutability": "view",
      "type": "function",
      "constant": true
    },
    {
      "inputs": [
        {
          "internalType": "address",
          "name": "account",
          "type": "address"
        },
        {
          "internalType": "uint256",
          "name": "groupId",
          "type": "uint256"
        }
      ],
      "name": "isContributor",
      "outputs": [
        {
          "internalType": "bool",
          "name": "",
          "type": "bool"
        }
      ],
      "stateMutability": "view",
      "type": "function",
      "constant": true
    },
    {
      "inputs": [
        {
          "internalType": "address",
          "name": "account",
          "type": "address"
        },
        {
          "internalType": "uint256",
          "name": "groupId",
          "type": "uint256"
        }
      ],
      "name": "isEligibleRecipient",
      "outputs": [
        {
          "internalType": "bool",
          "name": "",
          "type": "bool"
        }
      ],
      "stateMutability": "view",
      "type": "function",
      "constant": true
    },
    {
      "inputs": [],
      "name": "isPaused",
      "outputs": [
        {
          "internalType": "bool",
          "name": "",
          "type": "bool"
        }
      ],
      "stateMutability": "view",
      "type": "function",
      "constant": true
    },
    {
      "inputs": [
        {
          "internalType": "address",
          "name": "account",
          "type": "address"
        },
        {
          "internalType": "uint256",
          "name": "groupId",
          "type": "uint256"
        }
      ],
      "name": "isRegisteredRecipient",
      "outputs": [
        {
          "internalType": "bool",
          "name": "",
          "type": "bool"
        }
      ],
      "stateMutability": "view",
      "type": "function",
      "constant": true
    },
    {
      "inputs": [],
      "name": "newContractAddress",
      "outputs": [
        {
          "internalType": "address",
          "name": "",
          "type": "address"
        }
      ],
      "stateMutability": "view",
      "type": "function",
      "constant": true
    },
    {
      "inputs": [],
      "name": "pause",
      "outputs": [],
      "stateMutability": "nonpayable",
      "type": "function"
    },
    {
      "inputs": [],
      "name": "paused",
      "outputs": [
        {
          "internalType": "bool",
          "name": "",
          "type": "bool"
        }
      ],
      "stateMutability": "view",
      "type": "function",
      "constant": true
    },
    {
      "inputs": [
        {
          "internalType": "uint256",
          "name": "groupId",
          "type": "uint256"
        }
      ],
      "name": "readEventInfo",
      "outputs": [
        {
          "components": [
            {
              "internalType": "uint256",
              "name": "groupId",
              "type": "uint256"
            },
            {
              "internalType": "string",
              "name": "groupName",
              "type": "string"
            },
            {
              "internalType": "enum EthDropBase.EventState",
              "name": "currentState",
              "type": "uint8"
            },
            {
              "internalType": "uint256",
              "name": "startTime",
              "type": "uint256"
            },
            {
              "internalType": "uint256",
              "name": "registrationEndTime",
              "type": "uint256"
            },
            {
              "internalType": "uint256",
              "name": "endTime",
              "type": "uint256"
            },
            {
              "internalType": "uint256",
              "name": "registeredRecipientsCount",
              "type": "uint256"
            },
            {
              "internalType": "string",
              "name": "sponsorName",
              "type": "string"
            },
            {
              "internalType": "string",
              "name": "sponsorImageUrl",
              "type": "string"
            },
            {
              "internalType": "string",
              "name": "sponsorLinkToUrl",
              "type": "string"
            },
            {
              "internalType": "address",
              "name": "currentContributor",
              "type": "address"
            },
            {
              "internalType": "uint256",
              "name": "totalAmountContributed",
              "type": "uint256"
            },
            {
              "internalType": "uint256",
              "name": "weiWinnings",
              "type": "uint256"
            }
          ],
          "internalType": "struct EthDropBase.EthDropEvent",
          "name": "",
          "type": "tuple"
        }
      ],
      "stateMutability": "view",
      "type": "function",
      "constant": true
    },
    {
      "inputs": [
        {
          "internalType": "uint256",
          "name": "groupId",
          "type": "uint256"
        }
      ],
      "name": "registerForEvent",
      "outputs": [],
      "stateMutability": "nonpayable",
      "type": "function"
    },
    {
      "inputs": [
        {
          "internalType": "address",
          "name": "account",
          "type": "address"
        },
        {
          "internalType": "uint256",
          "name": "groupId",
          "type": "uint256"
        }
      ],
      "name": "removeAdmin",
      "outputs": [],
      "stateMutability": "nonpayable",
      "type": "function"
    },
    {
      "inputs": [
        {
          "internalType": "address",
          "name": "account",
          "type": "address"
        },
        {
          "internalType": "uint256",
          "name": "groupId",
          "type": "uint256"
        }
      ],
      "name": "removeContributor",
      "outputs": [],
      "stateMutability": "nonpayable",
      "type": "function"
    },
    {
      "inputs": [
        {
          "internalType": "address",
          "name": "account",
          "type": "address"
        },
        {
          "internalType": "uint256",
          "name": "groupId",
          "type": "uint256"
        }
      ],
      "name": "removeEligibleRecipient",
      "outputs": [],
      "stateMutability": "nonpayable",
      "type": "function"
    },
    {
      "inputs": [
        {
          "internalType": "uint256",
          "name": "groupId",
          "type": "uint256"
        }
      ],
      "name": "renounceAdmin",
      "outputs": [],
      "stateMutability": "nonpayable",
      "type": "function"
    },
    {
      "inputs": [
        {
          "internalType": "uint256",
          "name": "groupId",
          "type": "uint256"
        }
      ],
      "name": "renounceContributor",
      "outputs": [],
      "stateMutability": "nonpayable",
      "type": "function"
    },
    {
      "inputs": [
        {
          "internalType": "address",
          "name": "_newCEO",
          "type": "address"
        }
      ],
      "name": "setCEO",
      "outputs": [],
      "stateMutability": "nonpayable",
      "type": "function"
    },
    {
      "inputs": [
        {
          "internalType": "address",
          "name": "_newCFO",
          "type": "address"
        }
      ],
      "name": "setCFO",
      "outputs": [],
      "stateMutability": "nonpayable",
      "type": "function"
    },
    {
      "inputs": [
        {
          "internalType": "address",
          "name": "_newCOO",
          "type": "address"
        }
      ],
      "name": "setCOO",
      "outputs": [],
      "stateMutability": "nonpayable",
      "type": "function"
    },
    {
      "inputs": [
        {
          "internalType": "string",
          "name": "_s",
          "type": "string"
        }
      ],
      "name": "setString",
      "outputs": [],
      "stateMutability": "nonpayable",
      "type": "function"
    },
    {
      "inputs": [
        {
          "internalType": "uint256",
          "name": "groupId",
          "type": "uint256"
        }
      ],
      "name": "startEvent",
      "outputs": [],
      "stateMutability": "nonpayable",
      "type": "function"
    },
    {
      "inputs": [],
      "name": "stringgg",
      "outputs": [
        {
          "internalType": "string",
          "name": "",
          "type": "string"
        }
      ],
      "stateMutability": "view",
      "type": "function",
      "constant": true
    },
    {
      "inputs": [],
      "name": "unpause",
      "outputs": [
        {
          "internalType": "bool",
          "name": "",
          "type": "bool"
        }
      ],
      "stateMutability": "nonpayable",
      "type": "function"
    },
    {
      "inputs": [],
      "name": "whoami",
      "outputs": [
        {
          "internalType": "address",
          "name": "",
          "type": "address"
        }
      ],
      "stateMutability": "view",
      "type": "function",
      "constant": true
    },
    {
      "inputs": [
        {
          "internalType": "address",
          "name": "_v2Address",
          "type": "address"
        }
      ],
      "name": "setNewAddress",
      "outputs": [],
      "stateMutability": "nonpayable",
      "type": "function"
    },
    {
      "inputs": [],
      "name": "foobar",
      "outputs": [
        {
          "internalType": "string",
          "name": "",
          "type": "string"
        }
      ],
      "stateMutability": "pure",
      "type": "function",
      "constant": true
    }
  ],
  "bytecode": "0x60806040526000600360146101000a81548160ff02191690831515021790555060056004556000600b5534801561003557600080fd5b506000600360146101000a81548160ff02191690831515021790555033600160006101000a81548173ffffffffffffffffffffffffffffffffffffffff021916908373ffffffffffffffffffffffffffffffffffffffff16021790555061487b806100a16000396000f3fe60806040526004361061031a5760003560e01c80637fcaf666116101ab578063c02b8b2c116100f7578063e513b7a911610095578063ea303f081161006f578063ea303f0814610c03578063ee41b59214610c2c578063f4a02e7014610c69578063fc5fd6e414610c945761031a565b8063e513b7a914610b7f578063e62092be14610baa578063e82f24e014610be75761031a565b8063d5f016c3116100d1578063d5f016c314610ac5578063e0bd7d1514610af0578063e320d5e714610b19578063e33db42614610b425761031a565b8063c02b8b2c14610a46578063c6db509414610a71578063c6e0ddfa14610a9c5761031a565b8063962ecff511610164578063ab4e19451161013e578063ab4e19451461099c578063b047fb50146109c5578063b187bd26146109f0578063b3b36bb314610a1b5761031a565b8063962ecff5146108f95780639bda879614610936578063a59a6953146109735761031a565b80637fcaf666146107fd5780637fcb29c9146108265780638182aaf21461084f5780638456cb591461088c57806389ea642f146108a35780639393ae37146108ce5761031a565b80634635509b1161026a578063677bd9ff1161022357806371587988116101fd5780637158798814610743578063785142be1461076c5780637b936ac2146107955780637d837ce5146107c05761031a565b8063677bd9ff146106b15780636af04a57146106da5780636ebdec49146107055761031a565b80634635509b146105785780634e0a3379146105ba5780634f1ef03c146105e357806355b57ec11461060c5780635c975abb146106495780635e82c1fc146106745761031a565b80632ba73c15116102d757806338f0b656116102b157806338f0b656146104aa5780633f4ba83a146104e7578063406db8431461051257806344b2983b1461053b5761031a565b80632ba73c151461042f57806330bb011514610458578063330a347b146104815761031a565b80630519ce791461031f57806305df75db1461034a57806306cc4922146103755780630a0f8168146103b257806315891ff4146103dd57806327d7874c14610406575b600080fd5b34801561032b57600080fd5b50610334610cbf565b6040516103419190614150565b60405180910390f35b34801561035657600080fd5b5061035f610ce5565b60405161036c91906142bb565b60405180910390f35b34801561038157600080fd5b5061039c60048036038101906103979190613d20565b610d22565b6040516103a9919061422a565b60405180910390f35b3480156103be57600080fd5b506103c7610d4f565b6040516103d49190614150565b60405180910390f35b3480156103e957600080fd5b5061040460048036038101906103ff9190613c97565b610d75565b005b34801561041257600080fd5b5061042d60048036038101906104289190613c6a565b610e5f565b005b34801561043b57600080fd5b5061045660048036038101906104519190613c6a565b610f37565b005b34801561046457600080fd5b5061047f600480360381019061047a9190613d20565b61100f565b005b34801561048d57600080fd5b506104a860048036038101906104a39190613d20565b611031565b005b3480156104b657600080fd5b506104d160048036038101906104cc9190613d20565b61131e565b6040516104de919061422a565b60405180910390f35b3480156104f357600080fd5b506104fc61134b565b604051610509919061422a565b60405180910390f35b34801561051e57600080fd5b5061053960048036038101906105349190613d20565b6113f0565b005b34801561054757600080fd5b50610562600480360381019061055d9190613d20565b611579565b60405161056f919061416b565b60405180910390f35b34801561058457600080fd5b5061059f600480360381019061059a9190613d20565b61161a565b6040516105b196959493929190614245565b60405180910390f35b3480156105c657600080fd5b506105e160048036038101906105dc9190613c6a565b61199d565b005b3480156105ef57600080fd5b5061060a60048036038101906106059190613d20565b611a3b565b005b34801561061857600080fd5b50610633600480360381019061062e9190613d20565b611a77565b60405161064091906141c4565b60405180910390f35b34801561065557600080fd5b5061065e611b07565b60405161066b919061422a565b60405180910390f35b34801561068057600080fd5b5061069b60048036038101906106969190613c97565b611b1a565b6040516106a8919061422a565b60405180910390f35b3480156106bd57600080fd5b506106d860048036038101906106d39190613d20565b611ba3565b005b3480156106e657600080fd5b506106ef611d5c565b6040516106fc9190614150565b60405180910390f35b34801561071157600080fd5b5061072c60048036038101906107279190613d20565b611d82565b60405161073a92919061418d565b60405180910390f35b34801561074f57600080fd5b5061076a60048036038101906107659190613c6a565b611eb3565b005b34801561077857600080fd5b50610793600480360381019061078e9190613d20565b611fa1565b005b3480156107a157600080fd5b506107aa61217c565b6040516107b79190614150565b60405180910390f35b3480156107cc57600080fd5b506107e760048036038101906107e29190613c97565b6121a6565b6040516107f4919061422a565b60405180910390f35b34801561080957600080fd5b50610824600480360381019061081f9190613cd7565b61222f565b005b34801561083257600080fd5b5061084d60048036038101906108489190613c97565b612249565b005b34801561085b57600080fd5b5061087660048036038101906108719190613c97565b6122b1565b604051610883919061422a565b60405180910390f35b34801561089857600080fd5b506108a161233a565b005b3480156108af57600080fd5b506108b861247b565b6040516108c591906142bb565b60405180910390f35b3480156108da57600080fd5b506108e361250d565b6040516108f0919061422a565b60405180910390f35b34801561090557600080fd5b50610920600480360381019061091b9190613d20565b612565565b60405161092d919061422a565b60405180910390f35b34801561094257600080fd5b5061095d60048036038101906109589190613d20565b6125d3565b60405161096a919061416b565b60405180910390f35b34801561097f57600080fd5b5061099a60048036038101906109959190613d20565b612674565b005b3480156109a857600080fd5b506109c360048036038101906109be9190613c97565b61274e565b005b3480156109d157600080fd5b506109da612902565b6040516109e79190614150565b60405180910390f35b3480156109fc57600080fd5b50610a05612928565b604051610a12919061422a565b60405180910390f35b348015610a2757600080fd5b50610a3061293f565b604051610a3d9190614150565b60405180910390f35b348015610a5257600080fd5b50610a5b612947565b604051610a689190614208565b60405180910390f35b348015610a7d57600080fd5b50610a8661299f565b604051610a9391906142bb565b60405180910390f35b348015610aa857600080fd5b50610ac36004803603810190610abe9190613c97565b612a2d565b005b348015610ad157600080fd5b50610ada612a95565b604051610ae791906141e6565b60405180910390f35b348015610afc57600080fd5b50610b176004803603810190610b129190613c97565b612b6e565b005b348015610b2557600080fd5b50610b406004803603810190610b3b9190613c97565b612c03565b005b348015610b4e57600080fd5b50610b696004803603810190610b649190613d20565b612c98565b604051610b7691906142dd565b60405180910390f35b348015610b8b57600080fd5b50610b94612ffa565b604051610ba1919061422a565b60405180910390f35b348015610bb657600080fd5b50610bd16004803603810190610bcc9190613c97565b613052565b604051610bde919061422a565b60405180910390f35b610c016004803603810190610bfc9190613d20565b6130c1565b005b348015610c0f57600080fd5b50610c2a6004803603810190610c259190613cd7565b61315e565b005b348015610c3857600080fd5b50610c536004803603810190610c4e9190613d20565b613496565b604051610c60919061422a565b60405180910390f35b348015610c7557600080fd5b50610c7e6134c3565b604051610c8b919061422a565b60405180910390f35b348015610ca057600080fd5b50610ca961351b565b604051610cb69190614150565b60405180910390f35b600260009054906101000a900473ffffffffffffffffffffffffffffffffffffffff1681565b60606040518060400160405280600d81526020017f666f6f6261727272727272722100000000000000000000000000000000000000815250905090565b6000600360149054906101000a900460ff1615610d3e57600080fd5b610d483383611b1a565b9050919050565b600160009054906101000a900473ffffffffffffffffffffffffffffffffffffffff1681565b80610d803382613052565b610d8957600080fd5b600360149054906101000a900460ff1615610da357600080fd5b60006011600084815260200190815260200160002060008573ffffffffffffffffffffffffffffffffffffffff1673ffffffffffffffffffffffffffffffffffffffff16815260200190815260200160002060006101000a81548160ff0219169083151502179055508273ffffffffffffffffffffffffffffffffffffffff167f1af6d16168d33745872119540d28858eed156c5f265206bbf1344fda39a93a3383604051610e5291906142ff565b60405180910390a2505050565b600160009054906101000a900473ffffffffffffffffffffffffffffffffffffffff1673ffffffffffffffffffffffffffffffffffffffff163373ffffffffffffffffffffffffffffffffffffffff1614610eb957600080fd5b600073ffffffffffffffffffffffffffffffffffffffff168173ffffffffffffffffffffffffffffffffffffffff161415610ef357600080fd5b80600160006101000a81548173ffffffffffffffffffffffffffffffffffffffff021916908373ffffffffffffffffffffffffffffffffffffffff16021790555050565b600160009054906101000a900473ffffffffffffffffffffffffffffffffffffffff1673ffffffffffffffffffffffffffffffffffffffff163373ffffffffffffffffffffffffffffffffffffffff1614610f9157600080fd5b600073ffffffffffffffffffffffffffffffffffffffff168173ffffffffffffffffffffffffffffffffffffffff161415610fcb57600080fd5b80600360006101000a81548173ffffffffffffffffffffffffffffffffffffffff021916908373ffffffffffffffffffffffffffffffffffffffff16021790555050565b8061101a3382613052565b61102357600080fd5b61102d3383613545565b5050565b8061103c3382613052565b806110945750600360009054906101000a900473ffffffffffffffffffffffffffffffffffffffff1673ffffffffffffffffffffffffffffffffffffffff163373ffffffffffffffffffffffffffffffffffffffff16145b61109d57600080fd5b600360149054906101000a900460ff16156110b757600080fd5b42600760008481526020019081526020016000206005018190555060036007600084815260200190815260200160002060020160006101000a81548160ff0219169083600381111561110c5761110b614722565b5b0217905550600860008381526020019081526020016000206007600084815260200190815260200160002090806001815401808255809150506001900390600052602060002090600d020160009091909190915060008201548160000155600182018160010190805461117e90614618565b611189929190613a10565b506002820160009054906101000a900460ff168160020160006101000a81548160ff021916908360038111156111c2576111c1614722565b5b021790555060038201548160030155600482015481600401556005820154816005015560068201548160060155600782018160070190805461120390614618565b61120e929190613a10565b50600882018160080190805461122390614618565b61122e929190613a10565b50600982018160090190805461124390614618565b61124e929190613a10565b50600a820160009054906101000a900473ffffffffffffffffffffffffffffffffffffffff1681600a0160006101000a81548173ffffffffffffffffffffffffffffffffffffffff021916908373ffffffffffffffffffffffffffffffffffffffff160217905550600b82015481600b0155600c82015481600c015550503373ffffffffffffffffffffffffffffffffffffffff167f6f45a19e8850c727d0de9f32e0d8691324a9a74ffb4347652e6404138b1d81658360405161131291906142ff565b60405180910390a25050565b6000600360149054906101000a900460ff161561133a57600080fd5b61134433836121a6565b9050919050565b6000600160009054906101000a900473ffffffffffffffffffffffffffffffffffffffff1673ffffffffffffffffffffffffffffffffffffffff163373ffffffffffffffffffffffffffffffffffffffff16146113a757600080fd5b600360149054906101000a900460ff166113c057600080fd5b6000600360146101000a81548160ff021916908315150217905550600360149054906101000a900460ff16905090565b806113fb3382611b1a565b61140457600080fd5b600360149054906101000a900460ff161561141e57600080fd5b60016014600084815260200190815260200160002060003373ffffffffffffffffffffffffffffffffffffffff1673ffffffffffffffffffffffffffffffffffffffff16815260200190815260200160002060006101000a81548160ff02191690831515021790555060156000838152602001908152602001600020339080600181540180825580915050600190039060005260206000200160009091909190916101000a81548173ffffffffffffffffffffffffffffffffffffffff021916908373ffffffffffffffffffffffffffffffffffffffff1602179055506007600083815260200190815260200160002060060160008154809291906115229061467b565b91905055503373ffffffffffffffffffffffffffffffffffffffff167f0695e999be8100bdb5bee8612337296508d527eae78c65b8f170eacb5a3b439d8360405161156d91906142ff565b60405180910390a25050565b60606015600083815260200190815260200160002080548060200260200160405190810160405280929190818152602001828054801561160e57602002820191906000526020600020905b8160009054906101000a900473ffffffffffffffffffffffffffffffffffffffff1673ffffffffffffffffffffffffffffffffffffffff16815260200190600101908083116115c4575b50505050509050919050565b60008060006060806060600060076000898152602001908152602001600020604051806101a00160405290816000820154815260200160018201805461165f90614618565b80601f016020809104026020016040519081016040528092919081815260200182805461168b90614618565b80156116d85780601f106116ad576101008083540402835291602001916116d8565b820191906000526020600020905b8154815290600101906020018083116116bb57829003601f168201915b505050505081526020016002820160009054906101000a900460ff16600381111561170657611705614722565b5b600381111561171857611717614722565b5b81526020016003820154815260200160048201548152602001600582015481526020016006820154815260200160078201805461175490614618565b80601f016020809104026020016040519081016040528092919081815260200182805461178090614618565b80156117cd5780601f106117a2576101008083540402835291602001916117cd565b820191906000526020600020905b8154815290600101906020018083116117b057829003601f168201915b505050505081526020016008820180546117e690614618565b80601f016020809104026020016040519081016040528092919081815260200182805461181290614618565b801561185f5780601f106118345761010080835404028352916020019161185f565b820191906000526020600020905b81548152906001019060200180831161184257829003601f168201915b5050505050815260200160098201805461187890614618565b80601f01602080910402602001604051908101604052809291908181526020018280546118a490614618565b80156118f15780601f106118c6576101008083540402835291602001916118f1565b820191906000526020600020905b8154815290600101906020018083116118d457829003601f168201915b50505050508152602001600a820160009054906101000a900473ffffffffffffffffffffffffffffffffffffffff1673ffffffffffffffffffffffffffffffffffffffff1673ffffffffffffffffffffffffffffffffffffffff168152602001600b8201548152602001600c82015481525050905080604001518160c001518261016001518360e001518461010001518561012001519650965096509650965096505091939550919395565b600160009054906101000a900473ffffffffffffffffffffffffffffffffffffffff1673ffffffffffffffffffffffffffffffffffffffff163373ffffffffffffffffffffffffffffffffffffffff16146119f757600080fd5b80600260006101000a81548173ffffffffffffffffffffffffffffffffffffffff021916908373ffffffffffffffffffffffffffffffffffffffff16021790555050565b80611a4633826122b1565b611a4f57600080fd5b600360149054906101000a900460ff1615611a6957600080fd5b611a7333836136a6565b5050565b606060136000838152602001908152602001600020805480602002602001604051908101604052809291908181526020018280548015611afb57602002820191906000526020600020906000905b82829054906101000a900460ff16151581526020019060010190602082600001049283019260010382029150808411611ac55790505b50505050509050919050565b600360149054906101000a900460ff1681565b6000600360149054906101000a900460ff1615611b3657600080fd5b600115156011600084815260200190815260200160002060008573ffffffffffffffffffffffffffffffffffffffff1673ffffffffffffffffffffffffffffffffffffffff16815260200190815260200160002060009054906101000a900460ff16151514905092915050565b80611bae33826121a6565b611bb757600080fd5b813360011515600c600084815260200190815260200160002060003373ffffffffffffffffffffffffffffffffffffffff1673ffffffffffffffffffffffffffffffffffffffff16815260200190815260200160002060009054906101000a900460ff1615151415611c2857600080fd5b600360149054906101000a900460ff1615611c4257600080fd5b6001600c600086815260200190815260200160002060003373ffffffffffffffffffffffffffffffffffffffff1673ffffffffffffffffffffffffffffffffffffffff16815260200190815260200160002060006101000a81548160ff0219169083151502179055503373ffffffffffffffffffffffffffffffffffffffff166108fc60076000878152602001908152602001600020600c01549081150290604051600060405180830381858888f19350505050158015611d07573d6000803e3d6000fd5b503373ffffffffffffffffffffffffffffffffffffffff167f1a31e733a172afcf46074b3106c17f0c298e226442682a03c1e99ce256139ec285604051611d4e91906142ff565b60405180910390a250505050565b601760009054906101000a900473ffffffffffffffffffffffffffffffffffffffff1681565b606080600d6000848152602001908152602001600020600f600085815260200190815260200160002081805480602002602001604051908101604052809291908181526020018280548015611e2c57602002820191906000526020600020905b8160009054906101000a900473ffffffffffffffffffffffffffffffffffffffff1673ffffffffffffffffffffffffffffffffffffffff1681526020019060010190808311611de2575b5050505050915080805480602002602001604051908101604052809291908181526020018280548015611ea357602002820191906000526020600020906000905b82829054906101000a900460ff16151581526020019060010190602082600001049283019260010382029150808411611e6d5790505b5050505050905091509150915091565b600160009054906101000a900473ffffffffffffffffffffffffffffffffffffffff1673ffffffffffffffffffffffffffffffffffffffff163373ffffffffffffffffffffffffffffffffffffffff1614611f0d57600080fd5b600360149054906101000a900460ff16611f2657600080fd5b80601760006101000a81548173ffffffffffffffffffffffffffffffffffffffff021916908373ffffffffffffffffffffffffffffffffffffffff1602179055507f450db8da6efbe9c22f2347f7c2021231df1fc58d3ae9a2fa75d39fa44619930581604051611f969190614150565b60405180910390a150565b80611fac3382613052565b611fb557600080fd5b600360149054906101000a900460ff1615611fcf57600080fd5b4260076000848152602001908152602001600020600401819055506000606460045460076000868152602001908152602001600020600b015461201291906144db565b61201c91906144aa565b9050600260009054906101000a900473ffffffffffffffffffffffffffffffffffffffff1673ffffffffffffffffffffffffffffffffffffffff166108fc829081150290604051600060405180830381858888f19350505050158015612086573d6000803e3d6000fd5b5060008160076000868152602001908152602001600020600b01546120ab9190614535565b90506007600085815260200190815260200160002060060154816120cf91906144aa565b60076000868152602001908152602001600020600c018190555060026007600086815260200190815260200160002060020160006101000a81548160ff0219169083600381111561212357612122614722565b5b02179055503373ffffffffffffffffffffffffffffffffffffffff167fef898a6941c945450e9bbdad4a76fcd0f51f42f7e251fddcb1e5479ba786d5e48560405161216e91906142ff565b60405180910390a250505050565b6000600260009054906101000a900473ffffffffffffffffffffffffffffffffffffffff16905090565b6000600360149054906101000a900460ff16156121c257600080fd5b600115156014600084815260200190815260200160002060008573ffffffffffffffffffffffffffffffffffffffff1673ffffffffffffffffffffffffffffffffffffffff16815260200190815260200160002060009054906101000a900460ff16151514905092915050565b8060009080519060200190612245929190613a9d565b5050565b600360009054906101000a900473ffffffffffffffffffffffffffffffffffffffff1673ffffffffffffffffffffffffffffffffffffffff163373ffffffffffffffffffffffffffffffffffffffff16146122a357600080fd5b6122ad8282613761565b5050565b6000600360149054906101000a900460ff16156122cd57600080fd5b600115156010600084815260200190815260200160002060008573ffffffffffffffffffffffffffffffffffffffff1673ffffffffffffffffffffffffffffffffffffffff16815260200190815260200160002060009054906101000a900460ff16151514905092915050565b600360009054906101000a900473ffffffffffffffffffffffffffffffffffffffff1673ffffffffffffffffffffffffffffffffffffffff163373ffffffffffffffffffffffffffffffffffffffff1614806123e35750600160009054906101000a900473ffffffffffffffffffffffffffffffffffffffff1673ffffffffffffffffffffffffffffffffffffffff163373ffffffffffffffffffffffffffffffffffffffff16145b8061243b5750600260009054906101000a900473ffffffffffffffffffffffffffffffffffffffff1673ffffffffffffffffffffffffffffffffffffffff163373ffffffffffffffffffffffffffffffffffffffff16145b61244457600080fd5b600360149054906101000a900460ff161561245e57600080fd5b6001600360146101000a81548160ff021916908315150217905550565b60606000805461248a90614618565b80601f01602080910402602001604051908101604052809291908181526020018280546124b690614618565b80156125035780601f106124d857610100808354040283529160200191612503565b820191906000526020600020905b8154815290600101906020018083116124e657829003601f168201915b5050505050905090565b6000600260009054906101000a900473ffffffffffffffffffffffffffffffffffffffff1673ffffffffffffffffffffffffffffffffffffffff163373ffffffffffffffffffffffffffffffffffffffff1614905090565b6000600115156009600084815260200190815260200160002060003373ffffffffffffffffffffffffffffffffffffffff1673ffffffffffffffffffffffffffffffffffffffff16815260200190815260200160002060009054906101000a900460ff161515149050919050565b60606012600083815260200190815260200160002080548060200260200160405190810160405280929190818152602001828054801561266857602002820191906000526020600020905b8160009054906101000a900473ffffffffffffffffffffffffffffffffffffffff1673ffffffffffffffffffffffffffffffffffffffff168152602001906001019080831161261e575b50505050509050919050565b8061267f3382613052565b61268857600080fd5b600360149054906101000a900460ff16156126a257600080fd5b60016007600084815260200190815260200160002060020160006101000a81548160ff021916908360038111156126dc576126db614722565b5b02179055504260076000848152602001908152602001600020600301819055503373ffffffffffffffffffffffffffffffffffffffff167ff77c6f27499b698205f54058c2914a340e1300c2bc0d9a819e7aebfbaabbbb938360405161274291906142ff565b60405180910390a25050565b600360149054906101000a900460ff161561276857600080fd5b806127733382613052565b61277c57600080fd5b60016011600084815260200190815260200160002060008573ffffffffffffffffffffffffffffffffffffffff1673ffffffffffffffffffffffffffffffffffffffff16815260200190815260200160002060006101000a81548160ff02191690831515021790555060126000838152602001908152602001600020839080600181540180825580915050600190039060005260206000200160009091909190916101000a81548173ffffffffffffffffffffffffffffffffffffffff021916908373ffffffffffffffffffffffffffffffffffffffff16021790555060136000838152602001908152602001600020600190806001815401808255809150506001900390600052602060002090602091828204019190069091909190916101000a81548160ff0219169083151502179055508273ffffffffffffffffffffffffffffffffffffffff167f46b8357d30dedd734a71d059a385f46b6e667bff20233f907477760207f88965836040516128f591906142ff565b60405180910390a2505050565b600360009054906101000a900473ffffffffffffffffffffffffffffffffffffffff1681565b6000600360149054906101000a900460ff16905090565b600033905090565b6060600580548060200260200160405190810160405280929190818152602001828054801561299557602002820191906000526020600020905b815481526020019060010190808311612981575b5050505050905090565b600080546129ac90614618565b80601f01602080910402602001604051908101604052809291908181526020018280546129d890614618565b8015612a255780601f106129fa57610100808354040283529160200191612a25565b820191906000526020600020905b815481529060010190602001808311612a0857829003601f168201915b505050505081565b600360009054906101000a900473ffffffffffffffffffffffffffffffffffffffff1673ffffffffffffffffffffffffffffffffffffffff163373ffffffffffffffffffffffffffffffffffffffff1614612a8757600080fd5b612a918282613545565b5050565b60606006805480602002602001604051908101604052809291908181526020016000905b82821015612b65578382906000526020600020018054612ad890614618565b80601f0160208091040260200160405190810160405280929190818152602001828054612b0490614618565b8015612b515780601f10612b2657610100808354040283529160200191612b51565b820191906000526020600020905b815481529060010190602001808311612b3457829003601f168201915b505050505081526020019060010190612ab9565b50505050905090565b80612b793382613052565b80612bd15750600360009054906101000a900473ffffffffffffffffffffffffffffffffffffffff1673ffffffffffffffffffffffffffffffffffffffff163373ffffffffffffffffffffffffffffffffffffffff16145b612bda57600080fd5b600360149054906101000a900460ff1615612bf457600080fd5b612bfe8383613955565b505050565b80612c0e3382613052565b80612c665750600360009054906101000a900473ffffffffffffffffffffffffffffffffffffffff1673ffffffffffffffffffffffffffffffffffffffff163373ffffffffffffffffffffffffffffffffffffffff16145b612c6f57600080fd5b600360149054906101000a900460ff1615612c8957600080fd5b612c9383836136a6565b505050565b612ca0613b23565b81612cab3382613052565b612cb457600080fd5b60076000848152602001908152602001600020604051806101a001604052908160008201548152602001600182018054612ced90614618565b80601f0160208091040260200160405190810160405280929190818152602001828054612d1990614618565b8015612d665780601f10612d3b57610100808354040283529160200191612d66565b820191906000526020600020905b815481529060010190602001808311612d4957829003601f168201915b505050505081526020016002820160009054906101000a900460ff166003811115612d9457612d93614722565b5b6003811115612da657612da5614722565b5b815260200160038201548152602001600482015481526020016005820154815260200160068201548152602001600782018054612de290614618565b80601f0160208091040260200160405190810160405280929190818152602001828054612e0e90614618565b8015612e5b5780601f10612e3057610100808354040283529160200191612e5b565b820191906000526020600020905b815481529060010190602001808311612e3e57829003601f168201915b50505050508152602001600882018054612e7490614618565b80601f0160208091040260200160405190810160405280929190818152602001828054612ea090614618565b8015612eed5780601f10612ec257610100808354040283529160200191612eed565b820191906000526020600020905b815481529060010190602001808311612ed057829003601f168201915b50505050508152602001600982018054612f0690614618565b80601f0160208091040260200160405190810160405280929190818152602001828054612f3290614618565b8015612f7f5780601f10612f5457610100808354040283529160200191612f7f565b820191906000526020600020905b815481529060010190602001808311612f6257829003601f168201915b50505050508152602001600a820160009054906101000a900473ffffffffffffffffffffffffffffffffffffffff1673ffffffffffffffffffffffffffffffffffffffff1673ffffffffffffffffffffffffffffffffffffffff168152602001600b8201548152602001600c82015481525050915050919050565b6000600160009054906101000a900473ffffffffffffffffffffffffffffffffffffffff1673ffffffffffffffffffffffffffffffffffffffff163373ffffffffffffffffffffffffffffffffffffffff1614905090565b6000600115156009600084815260200190815260200160002060008573ffffffffffffffffffffffffffffffffffffffff1673ffffffffffffffffffffffffffffffffffffffff16815260200190815260200160002060009054906101000a900460ff16151514905092915050565b806130cc33826122b1565b6130d557600080fd5b600360149054906101000a900460ff16156130ef57600080fd5b3460076000848152602001908152602001600020600b01819055503373ffffffffffffffffffffffffffffffffffffffff167f5dc1fe5ab986a852c4eda8e8bb94247d13307065c593fb83f1a09be273679382833460405161315292919061431a565b60405180910390a25050565b600360009054906101000a900473ffffffffffffffffffffffffffffffffffffffff1673ffffffffffffffffffffffffffffffffffffffff163373ffffffffffffffffffffffffffffffffffffffff16146131b857600080fd5b600360149054906101000a900460ff16156131d257600080fd5b6000434060001c90506000604051806101a001604052808381526020018481526020016000600381111561320957613208614722565b5b815260200142815260200142815260200142815260200160008152602001604051806020016040528060008152508152602001604051806020016040528060008152508152602001604051806020016040528060008152508152602001600073ffffffffffffffffffffffffffffffffffffffff168152602001600081526020016000815250905080600760008481526020019081526020016000206000820151816000015560208201518160010190805190602001906132cb929190613a9d565b5060408201518160020160006101000a81548160ff021916908360038111156132f7576132f6614722565b5b0217905550606082015181600301556080820151816004015560a0820151816005015560c0820151816006015560e0820151816007019080519060200190613340929190613a9d565b5061010082015181600801908051906020019061335e929190613a9d565b5061012082015181600901908051906020019061337c929190613a9d565b5061014082015181600a0160006101000a81548173ffffffffffffffffffffffffffffffffffffffff021916908373ffffffffffffffffffffffffffffffffffffffff16021790555061016082015181600b015561018082015181600c01559050506005429080600181540180825580915050600190039060005260206000200160009091909190915055600683908060018154018082558091505060019003906000526020600020016000909190919091509080519060200190613442929190613a9d565b503373ffffffffffffffffffffffffffffffffffffffff167f3482e3d6d38a18835a6ad59afad8098300ce9f907925e4be71126d7b43dc803d8360405161348991906142ff565b60405180910390a2505050565b6000600360149054906101000a900460ff16156134b257600080fd5b6134bc33836122b1565b9050919050565b6000600360009054906101000a900473ffffffffffffffffffffffffffffffffffffffff1673ffffffffffffffffffffffffffffffffffffffff163373ffffffffffffffffffffffffffffffffffffffff1614905090565b6000600360009054906101000a900473ffffffffffffffffffffffffffffffffffffffff16905090565b60006009600083815260200190815260200160002060008473ffffffffffffffffffffffffffffffffffffffff1673ffffffffffffffffffffffffffffffffffffffff16815260200190815260200160002060006101000a81548160ff0219169083151502179055506000600a600083815260200190815260200160002060008473ffffffffffffffffffffffffffffffffffffffff1673ffffffffffffffffffffffffffffffffffffffff1681526020019081526020016000205490506000600f6000848152602001908152602001600020828154811061362a57613629614780565b5b90600052602060002090602091828204019190066101000a81548160ff0219169083151502179055508273ffffffffffffffffffffffffffffffffffffffff167fa0726c73cf6ad18ddb855ba65d1ddd4d7fd37d320f4e52f6b154c13d386f5fd98360405161369991906142ff565b60405180910390a2505050565b60006010600083815260200190815260200160002060008473ffffffffffffffffffffffffffffffffffffffff1673ffffffffffffffffffffffffffffffffffffffff16815260200190815260200160002060006101000a81548160ff0219169083151502179055508173ffffffffffffffffffffffffffffffffffffffff167fda111d7eb5d5b2033c4ffad00cd7cd42f45af2813bee1a69e65f26d90ea15f0b8260405161375591906142ff565b60405180910390a25050565b60016009600083815260200190815260200160002060008473ffffffffffffffffffffffffffffffffffffffff1673ffffffffffffffffffffffffffffffffffffffff16815260200190815260200160002060006101000a81548160ff021916908315150217905550600b54600a600083815260200190815260200160002060008473ffffffffffffffffffffffffffffffffffffffff1673ffffffffffffffffffffffffffffffffffffffff16815260200190815260200160002081905550600b60008154809291906138349061467b565b9190505550600d6000828152602001908152602001600020829080600181540180825580915050600190039060005260206000200160009091909190916101000a81548173ffffffffffffffffffffffffffffffffffffffff021916908373ffffffffffffffffffffffffffffffffffffffff160217905550600f6000828152602001908152602001600020600190806001815401808255809150506001900390600052602060002090602091828204019190069091909190916101000a81548160ff0219169083151502179055508173ffffffffffffffffffffffffffffffffffffffff167f723c2b747529ca7f5eb53a74808f4a8b9bf264f0fc450fd904900151da74548a8260405161394991906142ff565b60405180910390a25050565b60016010600083815260200190815260200160002060008473ffffffffffffffffffffffffffffffffffffffff1673ffffffffffffffffffffffffffffffffffffffff16815260200190815260200160002060006101000a81548160ff0219169083151502179055508173ffffffffffffffffffffffffffffffffffffffff167f5fd6d0b7e707fe344bd2a1887f9d0eeea8bfcac6f339ba4200e74f0647f101c082604051613a0491906142ff565b60405180910390a25050565b828054613a1c90614618565b90600052602060002090601f016020900481019282613a3e5760008555613a8c565b82601f10613a4f5780548555613a8c565b82800160010185558215613a8c57600052602060002091601f016020900482015b82811115613a8b578254825591600101919060010190613a70565b5b509050613a999190613bb3565b5090565b828054613aa990614618565b90600052602060002090601f016020900481019282613acb5760008555613b12565b82601f10613ae457805160ff1916838001178555613b12565b82800160010185558215613b12579182015b82811115613b11578251825591602001919060010190613af6565b5b509050613b1f9190613bb3565b5090565b604051806101a00160405280600081526020016060815260200160006003811115613b5157613b50614722565b5b815260200160008152602001600081526020016000815260200160008152602001606081526020016060815260200160608152602001600073ffffffffffffffffffffffffffffffffffffffff16815260200160008152602001600081525090565b5b80821115613bcc576000816000905550600101613bb4565b5090565b6000613be3613bde84614368565b614343565b905082815260208101848484011115613bff57613bfe6147e3565b5b613c0a8482856145d6565b509392505050565b600081359050613c2181614817565b92915050565b600082601f830112613c3c57613c3b6147de565b5b8135613c4c848260208601613bd0565b91505092915050565b600081359050613c648161482e565b92915050565b600060208284031215613c8057613c7f6147ed565b5b6000613c8e84828501613c12565b91505092915050565b60008060408385031215613cae57613cad6147ed565b5b6000613cbc85828601613c12565b9250506020613ccd85828601613c55565b9150509250929050565b600060208284031215613ced57613cec6147ed565b5b600082013567ffffffffffffffff811115613d0b57613d0a6147e8565b5b613d1784828501613c27565b91505092915050565b600060208284031215613d3657613d356147ed565b5b6000613d4484828501613c55565b91505092915050565b6000613d598383613da9565b60208301905092915050565b6000613d718383613f56565b60208301905092915050565b6000613d898383613f92565b905092915050565b6000613d9d8383614132565b60208301905092915050565b613db281614569565b82525050565b613dc181614569565b82525050565b6000613dd2826143d9565b613ddc8185614444565b9350613de783614399565b8060005b83811015613e18578151613dff8882613d4d565b9750613e0a83614410565b925050600181019050613deb565b5085935050505092915050565b6000613e30826143e4565b613e3a8185614455565b9350613e45836143a9565b8060005b83811015613e76578151613e5d8882613d65565b9750613e688361441d565b925050600181019050613e49565b5085935050505092915050565b6000613e8e826143ef565b613e988185614466565b935083602082028501613eaa856143b9565b8060005b85811015613ee65784840389528151613ec78582613d7d565b9450613ed28361442a565b925060208a01995050600181019050613eae565b50829750879550505050505092915050565b6000613f03826143fa565b613f0d8185614477565b9350613f18836143c9565b8060005b83811015613f49578151613f308882613d91565b9750613f3b83614437565b925050600181019050613f1c565b5085935050505092915050565b613f5f8161457b565b82525050565b613f6e8161457b565b82525050565b613f7d816145c4565b82525050565b613f8c816145c4565b82525050565b6000613f9d82614405565b613fa78185614488565b9350613fb78185602086016145e5565b613fc0816147f2565b840191505092915050565b6000613fd682614405565b613fe08185614499565b9350613ff08185602086016145e5565b613ff9816147f2565b840191505092915050565b60006101a08301600083015161401d6000860182614132565b50602083015184820360208601526140358282613f92565b915050604083015161404a6040860182613f74565b50606083015161405d6060860182614132565b5060808301516140706080860182614132565b5060a083015161408360a0860182614132565b5060c083015161409660c0860182614132565b5060e083015184820360e08601526140ae8282613f92565b9150506101008301518482036101008601526140ca8282613f92565b9150506101208301518482036101208601526140e68282613f92565b9150506101408301516140fd610140860182613da9565b50610160830151614112610160860182614132565b50610180830151614127610180860182614132565b508091505092915050565b61413b816145ba565b82525050565b61414a816145ba565b82525050565b60006020820190506141656000830184613db8565b92915050565b600060208201905081810360008301526141858184613dc7565b905092915050565b600060408201905081810360008301526141a78185613dc7565b905081810360208301526141bb8184613e25565b90509392505050565b600060208201905081810360008301526141de8184613e25565b905092915050565b600060208201905081810360008301526142008184613e83565b905092915050565b600060208201905081810360008301526142228184613ef8565b905092915050565b600060208201905061423f6000830184613f65565b92915050565b600060c08201905061425a6000830189613f83565b6142676020830188614141565b6142746040830187614141565b81810360608301526142868186613fcb565b9050818103608083015261429a8185613fcb565b905081810360a08301526142ae8184613fcb565b9050979650505050505050565b600060208201905081810360008301526142d58184613fcb565b905092915050565b600060208201905081810360008301526142f78184614004565b905092915050565b60006020820190506143146000830184614141565b92915050565b600060408201905061432f6000830185614141565b61433c6020830184614141565b9392505050565b600061434d61435e565b9050614359828261464a565b919050565b6000604051905090565b600067ffffffffffffffff821115614383576143826147af565b5b61438c826147f2565b9050602081019050919050565b6000819050602082019050919050565b6000819050602082019050919050565b6000819050602082019050919050565b6000819050602082019050919050565b600081519050919050565b600081519050919050565b600081519050919050565b600081519050919050565b600081519050919050565b6000602082019050919050565b6000602082019050919050565b6000602082019050919050565b6000602082019050919050565b600082825260208201905092915050565b600082825260208201905092915050565b600082825260208201905092915050565b600082825260208201905092915050565b600082825260208201905092915050565b600082825260208201905092915050565b60006144b5826145ba565b91506144c0836145ba565b9250826144d0576144cf6146f3565b5b828204905092915050565b60006144e6826145ba565b91506144f1836145ba565b9250817fffffffffffffffffffffffffffffffffffffffffffffffffffffffffffffffff048311821515161561452a576145296146c4565b5b828202905092915050565b6000614540826145ba565b915061454b836145ba565b92508282101561455e5761455d6146c4565b5b828203905092915050565b60006145748261459a565b9050919050565b60008115159050919050565b600081905061459582614803565b919050565b600073ffffffffffffffffffffffffffffffffffffffff82169050919050565b6000819050919050565b60006145cf82614587565b9050919050565b82818337600083830152505050565b60005b838110156146035780820151818401526020810190506145e8565b83811115614612576000848401525b50505050565b6000600282049050600182168061463057607f821691505b6020821081141561464457614643614751565b5b50919050565b614653826147f2565b810181811067ffffffffffffffff82111715614672576146716147af565b5b80604052505050565b6000614686826145ba565b91507fffffffffffffffffffffffffffffffffffffffffffffffffffffffffffffffff8214156146b9576146b86146c4565b5b600182019050919050565b7f4e487b7100000000000000000000000000000000000000000000000000000000600052601160045260246000fd5b7f4e487b7100000000000000000000000000000000000000000000000000000000600052601260045260246000fd5b7f4e487b7100000000000000000000000000000000000000000000000000000000600052602160045260246000fd5b7f4e487b7100000000000000000000000000000000000000000000000000000000600052602260045260246000fd5b7f4e487b7100000000000000000000000000000000000000000000000000000000600052603260045260246000fd5b7f4e487b7100000000000000000000000000000000000000000000000000000000600052604160045260246000fd5b600080fd5b600080fd5b600080fd5b600080fd5b6000601f19601f8301169050919050565b6004811061481457614813614722565b5b50565b61482081614569565b811461482b57600080fd5b50565b614837816145ba565b811461484257600080fd5b5056fea26469706673582212200bd736eac4bfa855656f5187d0977ad393a2f9df3f588887550b486f850848ba64736f6c63430008060033",
  "immutableReferences": {},
  "source": "// SPDX-License-Identifier: MIT\npragma solidity ^0.8.0;\n\nimport \"../roles/AdminsManager.sol\";\n\ncontract EthDropCore is AdminsManager {\n    // Set in case the core contract is broken and an upgrade is required\n    address public newContractAddress;\n\n    /// @notice Creates the main EthDrop smart contract instance.\n    constructor () {\n        // Starts paused.\n\n        // TODO \n        paused = false;\n\n        // the creator of the contract is the initial CEO\n        ceoAddress = msg.sender;\n\n    }\n\n    /// @dev Used to mark the smart contract as upgraded, in case there is a serious\n    ///  breaking bug. This method does nothing but keep track of the new contract and\n    ///  emit a message indicating that the new address is set. It's up to clients of this\n    ///  contract to update to the new contract address in that case. (This contract will\n    ///  be paused indefinitely if such an upgrade takes place.)\n    /// @param _v2Address new address\n    function setNewAddress(address _v2Address) external onlyCEO whenPaused {\n        // See README.md for updgrade plan\n        newContractAddress = _v2Address;\n        emit ContractUpgrade(_v2Address);\n    }\n\n    function foobar() external pure returns (string memory) {\n        return \"foobarrrrrrr!\";\n    }\n}",
  "sourcePath": "/Users/jim/Git-Projects/EthDrop/contracts/core/EthDropCore.sol",
  "compiler": {
    "name": "solc",
    "version": "0.8.6+commit.11564f7e.Emscripten.clang"
  },
  "schemaVersion": "3.4.1",
  "updatedAt": "2021-07-23T17:22:28.456Z",
  "networkType": "ethereum",
  "devdoc": {
    "kind": "dev",
    "methods": {
      "pause()": {
        "details": "Called by any \"C-level\" role to pause the contract. Used only when  a bug or exploit is detected and we need to limit damage."
      },
      "setCEO(address)": {
        "details": "Assigns a new address to act as the CEO. Only available to the current CEO.",
        "params": {
          "_newCEO": "The address of the new CEO"
        }
      },
      "setCFO(address)": {
        "details": "Assigns a new address to act as the CFO. Only available to the current CEO.",
        "params": {
          "_newCFO": "The address of the new CFO"
        }
      },
      "setCOO(address)": {
        "details": "Assigns a new address to act as the COO. Only available to the current CEO.",
        "params": {
          "_newCOO": "The address of the new COO"
        }
      },
      "setNewAddress(address)": {
        "details": "Used to mark the smart contract as upgraded, in case there is a serious  breaking bug. This method does nothing but keep track of the new contract and  emit a message indicating that the new address is set. It's up to clients of this  contract to update to the new contract address in that case. (This contract will  be paused indefinitely if such an upgrade takes place.)",
        "params": {
          "_v2Address": "new address"
        }
      },
      "unpause()": {
        "details": "Unpauses the smart contract. Can only be called by the CEO, since  one reason we may pause the contract is when CFO or COO accounts are  compromised."
      }
    },
    "version": 1
  },
  "userdoc": {
    "kind": "user",
    "methods": {
      "constructor": {
        "notice": "Creates the main EthDrop smart contract instance."
      },
      "unpause()": {
        "notice": "This is public rather than external so it can be called by  derived contracts."
      }
    },
    "version": 1
  }
}