{
  "contractName": "EthDropBase",
  "abi": [
    {
      "anonymous": false,
      "inputs": [
        {
          "indexed": false,
          "internalType": "bool",
          "name": "isPaused",
          "type": "bool"
        }
      ],
      "name": "AppPaused",
      "type": "event"
    },
    {
      "anonymous": false,
      "inputs": [],
      "name": "CfoUpdated",
      "type": "event"
    },
    {
      "anonymous": false,
      "inputs": [
        {
          "indexed": false,
          "internalType": "address",
          "name": "newContract",
          "type": "address"
        }
      ],
      "name": "ContractUpgrade",
      "type": "event"
    },
    {
      "anonymous": false,
      "inputs": [],
      "name": "CooUpdated",
      "type": "event"
    },
    {
      "anonymous": false,
      "inputs": [],
      "name": "EventClose",
      "type": "event"
    },
    {
      "anonymous": false,
      "inputs": [],
      "name": "RegistrationOpen",
      "type": "event"
    },
    {
      "anonymous": false,
      "inputs": [
        {
          "indexed": false,
          "internalType": "address",
          "name": "from",
          "type": "address"
        },
        {
          "indexed": false,
          "internalType": "address",
          "name": "to",
          "type": "address"
        }
      ],
      "name": "Transfer",
      "type": "event"
    },
    {
      "anonymous": false,
      "inputs": [],
      "name": "WinningsClaimingOpen",
      "type": "event"
    },
    {
      "inputs": [],
      "name": "ceoAddress",
      "outputs": [
        {
          "internalType": "address",
          "name": "",
          "type": "address"
        }
      ],
      "stateMutability": "view",
      "type": "function",
      "constant": true
    },
    {
      "inputs": [],
      "name": "cfoAddress",
      "outputs": [
        {
          "internalType": "address",
          "name": "",
          "type": "address"
        }
      ],
      "stateMutability": "view",
      "type": "function",
      "constant": true
    },
    {
      "inputs": [],
      "name": "cooAddress",
      "outputs": [
        {
          "internalType": "address",
          "name": "",
          "type": "address"
        }
      ],
      "stateMutability": "view",
      "type": "function",
      "constant": true
    },
    {
      "inputs": [],
      "name": "getCFO",
      "outputs": [
        {
          "internalType": "address",
          "name": "",
          "type": "address"
        }
      ],
      "stateMutability": "view",
      "type": "function",
      "constant": true
    },
    {
      "inputs": [],
      "name": "getCOO",
      "outputs": [
        {
          "internalType": "address",
          "name": "",
          "type": "address"
        }
      ],
      "stateMutability": "view",
      "type": "function",
      "constant": true
    },
    {
      "inputs": [],
      "name": "getString",
      "outputs": [
        {
          "internalType": "string",
          "name": "",
          "type": "string"
        }
      ],
      "stateMutability": "view",
      "type": "function",
      "constant": true
    },
    {
      "inputs": [],
      "name": "isCEO",
      "outputs": [
        {
          "internalType": "bool",
          "name": "",
          "type": "bool"
        }
      ],
      "stateMutability": "view",
      "type": "function",
      "constant": true
    },
    {
      "inputs": [],
      "name": "isCFO",
      "outputs": [
        {
          "internalType": "bool",
          "name": "",
          "type": "bool"
        }
      ],
      "stateMutability": "view",
      "type": "function",
      "constant": true
    },
    {
      "inputs": [],
      "name": "isCOO",
      "outputs": [
        {
          "internalType": "bool",
          "name": "",
          "type": "bool"
        }
      ],
      "stateMutability": "view",
      "type": "function",
      "constant": true
    },
    {
      "inputs": [],
      "name": "isPaused",
      "outputs": [
        {
          "internalType": "bool",
          "name": "",
          "type": "bool"
        }
      ],
      "stateMutability": "view",
      "type": "function",
      "constant": true
    },
    {
      "inputs": [],
      "name": "pause",
      "outputs": [],
      "stateMutability": "nonpayable",
      "type": "function"
    },
    {
      "inputs": [],
      "name": "paused",
      "outputs": [
        {
          "internalType": "bool",
          "name": "",
          "type": "bool"
        }
      ],
      "stateMutability": "view",
      "type": "function",
      "constant": true
    },
    {
      "inputs": [
        {
          "internalType": "address",
          "name": "_newCEO",
          "type": "address"
        }
      ],
      "name": "setCEO",
      "outputs": [],
      "stateMutability": "nonpayable",
      "type": "function"
    },
    {
      "inputs": [
        {
          "internalType": "address",
          "name": "_newCFO",
          "type": "address"
        }
      ],
      "name": "setCFO",
      "outputs": [],
      "stateMutability": "nonpayable",
      "type": "function"
    },
    {
      "inputs": [
        {
          "internalType": "address",
          "name": "_newCOO",
          "type": "address"
        }
      ],
      "name": "setCOO",
      "outputs": [],
      "stateMutability": "nonpayable",
      "type": "function"
    },
    {
      "inputs": [
        {
          "internalType": "string",
          "name": "_s",
          "type": "string"
        }
      ],
      "name": "setString",
      "outputs": [],
      "stateMutability": "nonpayable",
      "type": "function"
    },
    {
      "inputs": [],
      "name": "stringgg",
      "outputs": [
        {
          "internalType": "string",
          "name": "",
          "type": "string"
        }
      ],
      "stateMutability": "view",
      "type": "function",
      "constant": true
    },
    {
      "inputs": [],
      "name": "unpause",
      "outputs": [
        {
          "internalType": "bool",
          "name": "",
          "type": "bool"
        }
      ],
      "stateMutability": "nonpayable",
      "type": "function"
    },
    {
      "inputs": [],
      "name": "whoami",
      "outputs": [
        {
          "internalType": "address",
          "name": "",
          "type": "address"
        }
      ],
      "stateMutability": "view",
      "type": "function",
      "constant": true
    },
    {
      "inputs": [],
      "name": "getGroupIds",
      "outputs": [
        {
          "internalType": "uint256[]",
          "name": "",
          "type": "uint256[]"
        }
      ],
      "stateMutability": "view",
      "type": "function",
      "constant": true
    },
    {
      "inputs": [],
      "name": "getGroupNames",
      "outputs": [
        {
          "internalType": "string[]",
          "name": "",
          "type": "string[]"
        }
      ],
      "stateMutability": "view",
      "type": "function",
      "constant": true
    },
    {
      "inputs": [
        {
          "internalType": "uint256",
          "name": "groupId",
          "type": "uint256"
        }
      ],
      "name": "getGroupEventData",
      "outputs": [
        {
          "internalType": "enum EthDropBase.EventState",
          "name": "",
          "type": "uint8"
        },
        {
          "internalType": "uint256",
          "name": "",
          "type": "uint256"
        },
        {
          "internalType": "uint256",
          "name": "",
          "type": "uint256"
        },
        {
          "internalType": "uint256",
          "name": "",
          "type": "uint256"
        },
        {
          "internalType": "uint256",
          "name": "",
          "type": "uint256"
        }
      ],
      "stateMutability": "view",
      "type": "function",
      "constant": true
    }
  ],
  "bytecode": "0x608060405233600160006101000a81548173ffffffffffffffffffffffffffffffffffffffff021916908373ffffffffffffffffffffffffffffffffffffffff1602179055506000600360146101000a81548160ff0219169083151502179055506005805534801561007057600080fd5b50611845806100806000396000f3fe608060405234801561001057600080fd5b50600436106101425760003560e01c806389ea642f116100b8578063c02b8b2c1161007c578063c02b8b2c14610321578063c6db50941461033f578063d5f016c31461035d578063e513b7a91461037b578063f4a02e7014610399578063fc5fd6e4146103b757610142565b806389ea642f1461028b5780639393ae37146102a9578063b047fb50146102c7578063b187bd26146102e5578063b3b36bb31461030357610142565b80634635509b1161010a5780634635509b146101d95780634e0a33791461020d5780635c975abb146102295780637b936ac2146102475780637fcaf666146102655780638456cb591461028157610142565b80630519ce79146101475780630a0f81681461016557806327d7874c146101835780632ba73c151461019f5780633f4ba83a146101bb575b600080fd5b61014f6103d5565b60405161015c9190611425565b60405180910390f35b61016d6103fb565b60405161017a9190611425565b60405180910390f35b61019d600480360381019061019891906111c6565b610421565b005b6101b960048036038101906101b491906111c6565b6104f9565b005b6101c36105fd565b6040516101d09190611484565b60405180910390f35b6101f360048036038101906101ee919061123c565b6106a2565b60405161020495949392919061149f565b60405180910390f35b610227600480360381019061022291906111c6565b610a25565b005b610231610b29565b60405161023e9190611484565b60405180910390f35b61024f610b3c565b60405161025c9190611425565b60405180910390f35b61027f600480360381019061027a91906111f3565b610b66565b005b610289610b80565b005b610293610cc1565b6040516102a091906114f2565b60405180910390f35b6102b1610d53565b6040516102be9190611484565b60405180910390f35b6102cf610dab565b6040516102dc9190611425565b60405180910390f35b6102ed610dd1565b6040516102fa9190611484565b60405180910390f35b61030b610de8565b6040516103189190611425565b60405180910390f35b610329610df0565b6040516103369190611462565b60405180910390f35b610347610e48565b60405161035491906114f2565b60405180910390f35b610365610ed6565b6040516103729190611440565b60405180910390f35b610383610faf565b6040516103909190611484565b60405180910390f35b6103a1611007565b6040516103ae9190611484565b60405180910390f35b6103bf61105f565b6040516103cc9190611425565b60405180910390f35b600260009054906101000a900473ffffffffffffffffffffffffffffffffffffffff1681565b600160009054906101000a900473ffffffffffffffffffffffffffffffffffffffff1681565b600160009054906101000a900473ffffffffffffffffffffffffffffffffffffffff1673ffffffffffffffffffffffffffffffffffffffff163373ffffffffffffffffffffffffffffffffffffffff161461047b57600080fd5b600073ffffffffffffffffffffffffffffffffffffffff168173ffffffffffffffffffffffffffffffffffffffff1614156104b557600080fd5b80600160006101000a81548173ffffffffffffffffffffffffffffffffffffffff021916908373ffffffffffffffffffffffffffffffffffffffff16021790555050565b600160009054906101000a900473ffffffffffffffffffffffffffffffffffffffff1673ffffffffffffffffffffffffffffffffffffffff163373ffffffffffffffffffffffffffffffffffffffff161461055357600080fd5b600073ffffffffffffffffffffffffffffffffffffffff168173ffffffffffffffffffffffffffffffffffffffff16141561058d57600080fd5b80600360006101000a81548173ffffffffffffffffffffffffffffffffffffffff021916908373ffffffffffffffffffffffffffffffffffffffff1602179055507fa308298a77084def994b565be25bff2e8fbfe7006c2c6b2bacfb84d1ba1f635060405160405180910390a150565b6000600160009054906101000a900473ffffffffffffffffffffffffffffffffffffffff1673ffffffffffffffffffffffffffffffffffffffff163373ffffffffffffffffffffffffffffffffffffffff161461065957600080fd5b600360149054906101000a900460ff1661067257600080fd5b6000600360146101000a81548160ff021916908315150217905550600360149054906101000a900460ff16905090565b60008060008060008060086000888152602001908152602001600020604051806101c0016040529081600082015481526020016001820180546106e4906116b8565b80601f0160208091040260200160405190810160405280929190818152602001828054610710906116b8565b801561075d5780601f106107325761010080835404028352916020019161075d565b820191906000526020600020905b81548152906001019060200180831161074057829003601f168201915b505050505081526020016002820160009054906101000a900460ff16600381111561078b5761078a61171b565b5b600381111561079d5761079c61171b565b5b8152602001600382015481526020016004820154815260200160058201548152602001600682015481526020016007820180546107d9906116b8565b80601f0160208091040260200160405190810160405280929190818152602001828054610805906116b8565b80156108525780601f1061082757610100808354040283529160200191610852565b820191906000526020600020905b81548152906001019060200180831161083557829003601f168201915b5050505050815260200160088201805461086b906116b8565b80601f0160208091040260200160405190810160405280929190818152602001828054610897906116b8565b80156108e45780601f106108b9576101008083540402835291602001916108e4565b820191906000526020600020905b8154815290600101906020018083116108c757829003601f168201915b505050505081526020016009820180546108fd906116b8565b80601f0160208091040260200160405190810160405280929190818152602001828054610929906116b8565b80156109765780601f1061094b57610100808354040283529160200191610976565b820191906000526020600020905b81548152906001019060200180831161095957829003601f168201915b50505050508152602001600a820160009054906101000a900473ffffffffffffffffffffffffffffffffffffffff1673ffffffffffffffffffffffffffffffffffffffff1673ffffffffffffffffffffffffffffffffffffffff168152602001600b8201548152602001600c8201548152602001600d82015481525050905080604001518160c00151826101600151836101800151846101a00151955095509550955095505091939590929450565b600160009054906101000a900473ffffffffffffffffffffffffffffffffffffffff1673ffffffffffffffffffffffffffffffffffffffff163373ffffffffffffffffffffffffffffffffffffffff1614610a7f57600080fd5b600073ffffffffffffffffffffffffffffffffffffffff168173ffffffffffffffffffffffffffffffffffffffff161415610ab957600080fd5b80600260006101000a81548173ffffffffffffffffffffffffffffffffffffffff021916908373ffffffffffffffffffffffffffffffffffffffff1602179055507f162e32528b5907ecf876b3b7a4e5e0edf878642e3ec25852e3c35af1a4e1c04060405160405180910390a150565b600360149054906101000a900460ff1681565b6000600260009054906101000a900473ffffffffffffffffffffffffffffffffffffffff16905090565b8060009080519060200190610b7c929190611089565b5050565b600360009054906101000a900473ffffffffffffffffffffffffffffffffffffffff1673ffffffffffffffffffffffffffffffffffffffff163373ffffffffffffffffffffffffffffffffffffffff161480610c295750600160009054906101000a900473ffffffffffffffffffffffffffffffffffffffff1673ffffffffffffffffffffffffffffffffffffffff163373ffffffffffffffffffffffffffffffffffffffff16145b80610c815750600260009054906101000a900473ffffffffffffffffffffffffffffffffffffffff1673ffffffffffffffffffffffffffffffffffffffff163373ffffffffffffffffffffffffffffffffffffffff16145b610c8a57600080fd5b600360149054906101000a900460ff1615610ca457600080fd5b6001600360146101000a81548160ff021916908315150217905550565b606060008054610cd0906116b8565b80601f0160208091040260200160405190810160405280929190818152602001828054610cfc906116b8565b8015610d495780601f10610d1e57610100808354040283529160200191610d49565b820191906000526020600020905b815481529060010190602001808311610d2c57829003601f168201915b5050505050905090565b6000600260009054906101000a900473ffffffffffffffffffffffffffffffffffffffff1673ffffffffffffffffffffffffffffffffffffffff163373ffffffffffffffffffffffffffffffffffffffff1614905090565b600360009054906101000a900473ffffffffffffffffffffffffffffffffffffffff1681565b6000600360149054906101000a900460ff16905090565b600033905090565b60606006805480602002602001604051908101604052809291908181526020018280548015610e3e57602002820191906000526020600020905b815481526020019060010190808311610e2a575b5050505050905090565b60008054610e55906116b8565b80601f0160208091040260200160405190810160405280929190818152602001828054610e81906116b8565b8015610ece5780601f10610ea357610100808354040283529160200191610ece565b820191906000526020600020905b815481529060010190602001808311610eb157829003601f168201915b505050505081565b60606007805480602002602001604051908101604052809291908181526020016000905b82821015610fa6578382906000526020600020018054610f19906116b8565b80601f0160208091040260200160405190810160405280929190818152602001828054610f45906116b8565b8015610f925780601f10610f6757610100808354040283529160200191610f92565b820191906000526020600020905b815481529060010190602001808311610f7557829003601f168201915b505050505081526020019060010190610efa565b50505050905090565b6000600160009054906101000a900473ffffffffffffffffffffffffffffffffffffffff1673ffffffffffffffffffffffffffffffffffffffff163373ffffffffffffffffffffffffffffffffffffffff1614905090565b6000600360009054906101000a900473ffffffffffffffffffffffffffffffffffffffff1673ffffffffffffffffffffffffffffffffffffffff163373ffffffffffffffffffffffffffffffffffffffff1614905090565b6000600360009054906101000a900473ffffffffffffffffffffffffffffffffffffffff16905090565b828054611095906116b8565b90600052602060002090601f0160209004810192826110b757600085556110fe565b82601f106110d057805160ff19168380011785556110fe565b828001600101855582156110fe579182015b828111156110fd5782518255916020019190600101906110e2565b5b50905061110b919061110f565b5090565b5b80821115611128576000816000905550600101611110565b5090565b600061113f61113a84611539565b611514565b90508281526020810184848401111561115b5761115a6117ad565b5b611166848285611676565b509392505050565b60008135905061117d816117e1565b92915050565b600082601f830112611198576111976117a8565b5b81356111a884826020860161112c565b91505092915050565b6000813590506111c0816117f8565b92915050565b6000602082840312156111dc576111db6117b7565b5b60006111ea8482850161116e565b91505092915050565b600060208284031215611209576112086117b7565b5b600082013567ffffffffffffffff811115611227576112266117b2565b5b61123384828501611183565b91505092915050565b600060208284031215611252576112516117b7565b5b6000611260848285016111b1565b91505092915050565b60006112758383611395565b905092915050565b60006112898383611407565b60208301905092915050565b61129e81611609565b82525050565b60006112af8261158a565b6112b981856115c5565b9350836020820285016112cb8561156a565b8060005b8581101561130757848403895281516112e88582611269565b94506112f3836115ab565b925060208a019950506001810190506112cf565b50829750879550505050505092915050565b600061132482611595565b61132e81856115d6565b93506113398361157a565b8060005b8381101561136a578151611351888261127d565b975061135c836115b8565b92505060018101905061133d565b5085935050505092915050565b6113808161161b565b82525050565b61138f81611664565b82525050565b60006113a0826115a0565b6113aa81856115e7565b93506113ba818560208601611685565b6113c3816117bc565b840191505092915050565b60006113d9826115a0565b6113e381856115f8565b93506113f3818560208601611685565b6113fc816117bc565b840191505092915050565b6114108161165a565b82525050565b61141f8161165a565b82525050565b600060208201905061143a6000830184611295565b92915050565b6000602082019050818103600083015261145a81846112a4565b905092915050565b6000602082019050818103600083015261147c8184611319565b905092915050565b60006020820190506114996000830184611377565b92915050565b600060a0820190506114b46000830188611386565b6114c16020830187611416565b6114ce6040830186611416565b6114db6060830185611416565b6114e86080830184611416565b9695505050505050565b6000602082019050818103600083015261150c81846113ce565b905092915050565b600061151e61152f565b905061152a82826116ea565b919050565b6000604051905090565b600067ffffffffffffffff82111561155457611553611779565b5b61155d826117bc565b9050602081019050919050565b6000819050602082019050919050565b6000819050602082019050919050565b600081519050919050565b600081519050919050565b600081519050919050565b6000602082019050919050565b6000602082019050919050565b600082825260208201905092915050565b600082825260208201905092915050565b600082825260208201905092915050565b600082825260208201905092915050565b60006116148261163a565b9050919050565b60008115159050919050565b6000819050611635826117cd565b919050565b600073ffffffffffffffffffffffffffffffffffffffff82169050919050565b6000819050919050565b600061166f82611627565b9050919050565b82818337600083830152505050565b60005b838110156116a3578082015181840152602081019050611688565b838111156116b2576000848401525b50505050565b600060028204905060018216806116d057607f821691505b602082108114156116e4576116e361174a565b5b50919050565b6116f3826117bc565b810181811067ffffffffffffffff8211171561171257611711611779565b5b80604052505050565b7f4e487b7100000000000000000000000000000000000000000000000000000000600052602160045260246000fd5b7f4e487b7100000000000000000000000000000000000000000000000000000000600052602260045260246000fd5b7f4e487b7100000000000000000000000000000000000000000000000000000000600052604160045260246000fd5b600080fd5b600080fd5b600080fd5b600080fd5b6000601f19601f8301169050919050565b600481106117de576117dd61171b565b5b50565b6117ea81611609565b81146117f557600080fd5b50565b6118018161165a565b811461180c57600080fd5b5056fea264697066735822122023721c87f3a805ec07c9aae880bbe90c780480ba0afeab7bd95d53e8a4f8ae3e64736f6c63430008070033",
  "immutableReferences": {},
  "source": "// SPDX-License-Identifier: MIT\npragma solidity ^0.8.0;\n\nimport \"../roles/ExecutivesAccessControl.sol\";\n\ncontract EthDropBase is ExecutivesAccessControl {\n    /*** EVENTS ***/\n\n    uint foo;\n\n    /// @dev The RegistrationOpen event is fired whenever a new event starts and users can begin restering.\n    event RegistrationOpen();\n\n    /// @dev The RegistrationOpen event is fired whenever a new event starts and users can begin restering.\n    //    After this event fires users can no longer register, and users who have registered can claim winnings.\n    event WinningsClaimingOpen();\n\n    /// @dev The EventClose event is fired whenever an event closes. After this event is fired users can no\n    //    longer claim winnings\n    event EventClose();\n\n    /// @dev Transfer event as defined in current draft of ERC721. Emitted every some Eth is transferred\n\n    event Transfer(address from, address to); // Assumed Eth\n\n    // TODO - (in later, more than just eth contracts as pass tokenId)\n    // event Transfer(address from, address to, uint tokenId);\n\n    /*** DATA TYPES ***/\n\n    /// @dev The main Kitty struct. Every cat in CryptoKitties is represented by a copy\n    ///  of this structure, so great care was taken to ensure that it fits neatly into\n    ///  exactly two 256-bit words. Note that the order of the members in this structure\n    ///  is important because of the byte-packing rules used by Ethereum.\n    ///  Ref: http://solidity.readthedocs.io/en/develop/miscellaneous.html\n\n    // TODO - ^ think harder about all that byte-packing junk... \n\n    enum EventState {\n        CREATED,\n        REGISTRATION,\n        CLAIM_WINNINGS,\n        ENDED\n    }\n\n    uint256 devCutPercentage = 5;\n\n    struct EthDropEvent {\n        // The IRL organization that controls their own airdrops.\n        // Each group can only be running 1 event at a time.\n        uint256 groupId;\n        // Event goes through a linear flow of states, finite state machine.\n        string groupName;\n        // Event goes through a linear flow of states, finite state machine.\n        EventState currentState;\n        // The timestamp from the block when this event started.\n        uint256 startTime;\n        // The timestamp from the block when registration for this event ended.\n        uint256 registrationEndTime;\n        // The timestamp from the block when this event ended.\n        uint256 endTime;\n        // The number of eligibleRecipients who have registered.\n        uint256 registeredRecipientsCount;\n        // Data about the sponsor info (address is stored in Roles)\n        string sponsorName;\n        string sponsorImageUrl;\n        string sponsorLinkToUrl;\n        address currentContributor;\n\n        uint totalAmountContributed;\n        uint weiWinnings;\n        uint numberOfUsersWhoClaimedWinnings;\n    }\n\n    // ALL events happening now or in the future.\n    // Key is the groupId\n    uint256[] listOfGroupIds;\n    string[] listOfGroupNames;\n\n    // ALL events happening now or in the future.\n    // Key is the groupId\n    mapping(uint256 => EthDropEvent) currentEvents;\n\n    // ALL events that have already happened.\n    // Key is the groupId\n    mapping(uint256 => EthDropEvent[]) pastEvents;\n\n    // Deprecated: Holds ALL admins for all groups\n    // groupId => Role\n\n\n    // mapping(uint256 => mapping(address => bool)) admins;\n\n    // groupId => index in arrays for this specific address\n    mapping(uint256 => mapping(address => uint256)) adminAddressToIndex;\n    \n    // groupId => nextAvailableIndex\n    mapping(uint256 => uint256) nextAdminAddressForGroup;\n    \n    mapping(uint256 => mapping(address => bool)) winningsCollected;\n\n    // groupId => list of admin addresses\n    mapping(uint256 => address[]) adminAddresses;\n\n    // groupId => list of admin names\n    mapping(uint256 => string[]) adminNames;\n\n    // groupId => whether of not user is an admin\n    mapping(uint256 => bool[]) adminEnabled;\n\n    // Holds ALL contributors for all groups\n    // groupId => Role\n    mapping(uint256 => mapping(address => bool)) contributors;\n\n    // Holds ALL eligibleRecipients for all groups\n    // groupId => Role\n    mapping(uint256 => mapping(address => bool)) eligibleRecipients;\n    mapping(uint256 => address[]) eligibleRecipientAddressesArray;\n    mapping(uint256 => string[]) eligibleRecipientNamesArray;\n    mapping(uint256 => bool[]) eligibleRecipientsEligibilityIsEnabled;\n    mapping(uint256 => mapping(address => string)) recipientAddressToName;\n\n    mapping(uint256 => string[]) registeredRecipientNamesArray;\n\n    // Holds ALL registeredRecipients for all groups\n    // groupId => Role\n    mapping(uint256 => mapping(address => bool)) registeredRecipients;\n\n    // Holds ALL registeredRecipients in an array (for PaymentSplitter)\n    // groupId => address[]\n    mapping(uint256 => address[]) registeredRecipientAddressesArray;\n\n    // Keeping track of winnings for all groups\n    // mapping(uint256 => PaymentSplitter) pot;\n\n    function getGroupIds() external view returns (uint256[] memory) {\n        return listOfGroupIds;\n    }\n\n    function getGroupNames() external view returns (string[] memory) {\n        return listOfGroupNames;\n    }\n\n    // stack too deep\n    // function getGroupEventData(uint256 groupId)\n    //     external\n    //     view\n    //     returns (\n    //         uint256, // groupId\n    //         // Event goes through a linear flow of states, finite state machine.\n    //         string memory, // groupName\n    //         // Event goes through a linear flow of states, finite state machine.\n    //         EventState, // currentState,\n    //         // The timestamp from the block when this event started.\n    //         // uint256, // startTime,\n    //         // // The timestamp from the block when registration for this event ended.\n    //         // uint256, // registrationEndTime,\n    //         // // The timestamp from the bock when this event ended.\n    //         // uint256, // endTime,\n    //         // The number of eligibleRecipients who have registered.\n    //         uint256, // registeredRecipientsCount,\n    //         // Data about the sponsor info (address is stored in Roles)\n    //         string memory, // sponsorName,\n    //         string memory, // sponsorImageUrl,\n    //         string memory, // sponsorLinkToUrl,\n    //         address // currentContributor,\n    //     )\n    // {\n    //     // EthDropEvent memory groupData = currentEvents[groupId];\n\n    //     return (\n    //         currentEvents[groupId].groupId,\n    //         currentEvents[groupId].groupName,\n    //         currentEvents[groupId].currentState,\n    //         // groupData.startTime,\n    //         // groupData.registrationEndTime,\n    //         // groupData.endTime,\n    //         currentEvents[groupId].registeredRecipientsCount,\n    //         currentEvents[groupId].sponsorName,\n    //         currentEvents[groupId].sponsorImageUrl,\n    //         currentEvents[groupId].sponsorLinkToUrl,\n    //         currentEvents[groupId].currentContributor\n    //     );\n    // }\n\n    function getGroupEventData(uint256 groupId)\n        external\n        view\n        returns (\n            // uint256, // groupId\n            // Event goes through a linear flow of states, finite state machine.\n            // string memory, // groupName\n            // Event goes through a linear flow of states, finite state machine.\n            EventState, // currentState,\n            // The timestamp from the block when this event started.\n            // uint256, // startTime,\n            // // The timestamp from the block when registration for this event ended.\n            // uint256, // registrationEndTime,\n            // // The timestamp from the bock when this event ended.\n            // uint256, // endTime,\n            // The number of eligibleRecipients who have registered.\n            uint256, // registeredRecipientsCount,\n            uint256, // total amount contributed,\n            // uint256, // registeredRecipientsCount,\n            // Data about the sponsor info (address is stored in Roles)\n\n            uint,\n            uint \n            // address // currentContributor,\n        )\n    {\n        EthDropEvent memory groupData = currentEvents[groupId];\n\n        return ( \n            // groupData.groupId,\n            // groupData.groupName,\n            groupData.currentState,\n            // groupData.startTime,\n            // groupData.registrationEndTime,\n            // groupData.endTime,\n            groupData.registeredRecipientsCount,\n            groupData.totalAmountContributed,\n\n            groupData.weiWinnings,\n            groupData.numberOfUsersWhoClaimedWinnings\n            // groupData.currentContributor\n        );\n    }\n}\n",
  "sourcePath": "/Users/jim/Git-Projects/EthDrop/contracts/core/EthDropBase.sol",
  "compiler": {
    "name": "solc",
    "version": "0.8.7+commit.e28d00a7.Emscripten.clang"
  },
  "schemaVersion": "3.4.2",
  "updatedAt": "2021-08-18T03:30:30.384Z",
  "networkType": "ethereum",
  "devdoc": {
    "events": {
      "EventClose()": {
        "details": "The EventClose event is fired whenever an event closes. After this event is fired users can no"
      },
      "RegistrationOpen()": {
        "details": "The RegistrationOpen event is fired whenever a new event starts and users can begin restering."
      },
      "Transfer(address,address)": {
        "details": "Transfer event as defined in current draft of ERC721. Emitted every some Eth is transferred"
      },
      "WinningsClaimingOpen()": {
        "details": "The RegistrationOpen event is fired whenever a new event starts and users can begin restering."
      }
    },
    "kind": "dev",
    "methods": {
      "pause()": {
        "details": "Called by any \"C-level\" role to pause the contract. Used only when  a bug or exploit is detected and we need to limit damage."
      },
      "setCEO(address)": {
        "details": "Assigns a new address to act as the CEO. Only available to the current CEO.",
        "params": {
          "_newCEO": "The address of the new CEO"
        }
      },
      "setCFO(address)": {
        "details": "Assigns a new address to act as the CFO. Only available to the current CEO.",
        "params": {
          "_newCFO": "The address of the new CFO"
        }
      },
      "setCOO(address)": {
        "details": "Assigns a new address to act as the COO. Only available to the current CEO.",
        "params": {
          "_newCOO": "The address of the new COO"
        }
      },
      "unpause()": {
        "details": "Unpauses the smart contract. Can only be called by the CEO, since  one reason we may pause the contract is when CFO or COO accounts are  compromised."
      }
    },
    "version": 1
  },
  "userdoc": {
    "kind": "user",
    "methods": {
      "unpause()": {
        "notice": "This is public rather than external so it can be called by  derived contracts."
      }
    },
    "version": 1
  }
}