{
  "contractName": "EthDropCore",
  "abi": [
    {
      "inputs": [],
      "stateMutability": "nonpayable",
      "type": "constructor"
    },
    {
      "anonymous": false,
      "inputs": [
        {
          "indexed": true,
          "internalType": "address",
          "name": "account",
          "type": "address"
        },
        {
          "indexed": false,
          "internalType": "uint256",
          "name": "groupId",
          "type": "uint256"
        }
      ],
      "name": "AdminAdded",
      "type": "event"
    },
    {
      "anonymous": false,
      "inputs": [
        {
          "indexed": true,
          "internalType": "address",
          "name": "account",
          "type": "address"
        },
        {
          "indexed": false,
          "internalType": "uint256",
          "name": "groupId",
          "type": "uint256"
        }
      ],
      "name": "AdminRemoved",
      "type": "event"
    },
    {
      "anonymous": false,
      "inputs": [
        {
          "indexed": false,
          "internalType": "uint256",
          "name": "registeredRecipientCount",
          "type": "uint256"
        },
        {
          "indexed": false,
          "internalType": "uint256",
          "name": "winningsPerRecipient",
          "type": "uint256"
        }
      ],
      "name": "CalculatedPot",
      "type": "event"
    },
    {
      "anonymous": false,
      "inputs": [
        {
          "indexed": false,
          "internalType": "address",
          "name": "newContract",
          "type": "address"
        }
      ],
      "name": "ContractUpgrade",
      "type": "event"
    },
    {
      "anonymous": false,
      "inputs": [
        {
          "indexed": true,
          "internalType": "address",
          "name": "account",
          "type": "address"
        },
        {
          "indexed": false,
          "internalType": "uint256",
          "name": "groupId",
          "type": "uint256"
        },
        {
          "indexed": false,
          "internalType": "uint256",
          "name": "amount",
          "type": "uint256"
        }
      ],
      "name": "ContributionMade",
      "type": "event"
    },
    {
      "anonymous": false,
      "inputs": [
        {
          "indexed": true,
          "internalType": "address",
          "name": "account",
          "type": "address"
        },
        {
          "indexed": false,
          "internalType": "uint256",
          "name": "groupId",
          "type": "uint256"
        }
      ],
      "name": "ContributorAdded",
      "type": "event"
    },
    {
      "anonymous": false,
      "inputs": [
        {
          "indexed": true,
          "internalType": "address",
          "name": "account",
          "type": "address"
        },
        {
          "indexed": false,
          "internalType": "uint256",
          "name": "groupId",
          "type": "uint256"
        }
      ],
      "name": "ContributorRemoved",
      "type": "event"
    },
    {
      "anonymous": false,
      "inputs": [
        {
          "indexed": true,
          "internalType": "address",
          "name": "account",
          "type": "address"
        },
        {
          "indexed": false,
          "internalType": "uint256",
          "name": "groupId",
          "type": "uint256"
        }
      ],
      "name": "EligibleRecipientAdded",
      "type": "event"
    },
    {
      "anonymous": false,
      "inputs": [
        {
          "indexed": true,
          "internalType": "address",
          "name": "account",
          "type": "address"
        },
        {
          "indexed": false,
          "internalType": "uint256",
          "name": "groupId",
          "type": "uint256"
        }
      ],
      "name": "EligibleRecipientRemoved",
      "type": "event"
    },
    {
      "anonymous": false,
      "inputs": [],
      "name": "EventClose",
      "type": "event"
    },
    {
      "anonymous": false,
      "inputs": [
        {
          "indexed": true,
          "internalType": "address",
          "name": "endedBy",
          "type": "address"
        },
        {
          "indexed": false,
          "internalType": "uint256",
          "name": "groupId",
          "type": "uint256"
        }
      ],
      "name": "EventEnded",
      "type": "event"
    },
    {
      "anonymous": false,
      "inputs": [
        {
          "indexed": true,
          "internalType": "address",
          "name": "startedBy",
          "type": "address"
        },
        {
          "indexed": false,
          "internalType": "uint256",
          "name": "groupId",
          "type": "uint256"
        }
      ],
      "name": "EventStarted",
      "type": "event"
    },
    {
      "anonymous": false,
      "inputs": [
        {
          "indexed": true,
          "internalType": "address",
          "name": "creator",
          "type": "address"
        },
        {
          "indexed": false,
          "internalType": "uint256",
          "name": "groupId",
          "type": "uint256"
        }
      ],
      "name": "GroupCreated",
      "type": "event"
    },
    {
      "anonymous": false,
      "inputs": [
        {
          "indexed": true,
          "internalType": "address",
          "name": "account",
          "type": "address"
        },
        {
          "indexed": false,
          "internalType": "uint256",
          "name": "groupId",
          "type": "uint256"
        }
      ],
      "name": "RecipientRegistered",
      "type": "event"
    },
    {
      "anonymous": false,
      "inputs": [
        {
          "indexed": true,
          "internalType": "address",
          "name": "endedBy",
          "type": "address"
        },
        {
          "indexed": false,
          "internalType": "uint256",
          "name": "groupId",
          "type": "uint256"
        }
      ],
      "name": "RegistrationEnded",
      "type": "event"
    },
    {
      "anonymous": false,
      "inputs": [],
      "name": "RegistrationOpen",
      "type": "event"
    },
    {
      "anonymous": false,
      "inputs": [
        {
          "indexed": false,
          "internalType": "address",
          "name": "from",
          "type": "address"
        },
        {
          "indexed": false,
          "internalType": "address",
          "name": "to",
          "type": "address"
        }
      ],
      "name": "Transfer",
      "type": "event"
    },
    {
      "anonymous": false,
      "inputs": [
        {
          "indexed": true,
          "internalType": "address",
          "name": "account",
          "type": "address"
        },
        {
          "indexed": false,
          "internalType": "uint256",
          "name": "groupId",
          "type": "uint256"
        }
      ],
      "name": "WinningsClaimed",
      "type": "event"
    },
    {
      "anonymous": false,
      "inputs": [],
      "name": "WinningsClaimingOpen",
      "type": "event"
    },
    {
      "inputs": [
        {
          "internalType": "address",
          "name": "account",
          "type": "address"
        },
        {
          "internalType": "uint256",
          "name": "groupId",
          "type": "uint256"
        }
      ],
      "name": "addAdmin",
      "outputs": [],
      "stateMutability": "nonpayable",
      "type": "function"
    },
    {
      "inputs": [
        {
          "internalType": "address",
          "name": "account",
          "type": "address"
        },
        {
          "internalType": "uint256",
          "name": "groupId",
          "type": "uint256"
        }
      ],
      "name": "addEligibleRecipient",
      "outputs": [],
      "stateMutability": "nonpayable",
      "type": "function"
    },
    {
      "inputs": [
        {
          "internalType": "uint256",
          "name": "groupId",
          "type": "uint256"
        }
      ],
      "name": "amIAdmin",
      "outputs": [
        {
          "internalType": "bool",
          "name": "",
          "type": "bool"
        }
      ],
      "stateMutability": "view",
      "type": "function",
      "constant": true
    },
    {
      "inputs": [
        {
          "internalType": "uint256",
          "name": "groupId",
          "type": "uint256"
        }
      ],
      "name": "amIContributor",
      "outputs": [
        {
          "internalType": "bool",
          "name": "",
          "type": "bool"
        }
      ],
      "stateMutability": "view",
      "type": "function",
      "constant": true
    },
    {
      "inputs": [
        {
          "internalType": "uint256",
          "name": "groupId",
          "type": "uint256"
        }
      ],
      "name": "amIEligibleRecipient",
      "outputs": [
        {
          "internalType": "bool",
          "name": "",
          "type": "bool"
        }
      ],
      "stateMutability": "view",
      "type": "function",
      "constant": true
    },
    {
      "inputs": [
        {
          "internalType": "uint256",
          "name": "groupId",
          "type": "uint256"
        }
      ],
      "name": "amIRegisteredRecipient",
      "outputs": [
        {
          "internalType": "bool",
          "name": "",
          "type": "bool"
        }
      ],
      "stateMutability": "view",
      "type": "function",
      "constant": true
    },
    {
      "inputs": [],
      "name": "ceoAddress",
      "outputs": [
        {
          "internalType": "address",
          "name": "",
          "type": "address"
        }
      ],
      "stateMutability": "view",
      "type": "function",
      "constant": true
    },
    {
      "inputs": [],
      "name": "cfoAddress",
      "outputs": [
        {
          "internalType": "address",
          "name": "",
          "type": "address"
        }
      ],
      "stateMutability": "view",
      "type": "function",
      "constant": true
    },
    {
      "inputs": [
        {
          "internalType": "address",
          "name": "account",
          "type": "address"
        },
        {
          "internalType": "uint256",
          "name": "groupId",
          "type": "uint256"
        }
      ],
      "name": "changeContributor",
      "outputs": [],
      "stateMutability": "nonpayable",
      "type": "function"
    },
    {
      "inputs": [
        {
          "internalType": "uint256",
          "name": "groupId",
          "type": "uint256"
        }
      ],
      "name": "claimWinnings",
      "outputs": [],
      "stateMutability": "nonpayable",
      "type": "function"
    },
    {
      "inputs": [
        {
          "internalType": "uint256",
          "name": "groupId",
          "type": "uint256"
        }
      ],
      "name": "closeEventRegistration",
      "outputs": [],
      "stateMutability": "nonpayable",
      "type": "function"
    },
    {
      "inputs": [
        {
          "internalType": "uint256",
          "name": "groupId",
          "type": "uint256"
        }
      ],
      "name": "contributeToPot",
      "outputs": [],
      "stateMutability": "payable",
      "type": "function",
      "payable": true
    },
    {
      "inputs": [],
      "name": "cooAddress",
      "outputs": [
        {
          "internalType": "address",
          "name": "",
          "type": "address"
        }
      ],
      "stateMutability": "view",
      "type": "function",
      "constant": true
    },
    {
      "inputs": [
        {
          "internalType": "string",
          "name": "groupName",
          "type": "string"
        }
      ],
      "name": "createNewGroup",
      "outputs": [],
      "stateMutability": "nonpayable",
      "type": "function"
    },
    {
      "inputs": [
        {
          "internalType": "uint256",
          "name": "groupId",
          "type": "uint256"
        }
      ],
      "name": "endEvent",
      "outputs": [],
      "stateMutability": "nonpayable",
      "type": "function"
    },
    {
      "inputs": [
        {
          "internalType": "uint256",
          "name": "groupId",
          "type": "uint256"
        }
      ],
      "name": "getAdminsForGroup",
      "outputs": [
        {
          "internalType": "address[]",
          "name": "",
          "type": "address[]"
        },
        {
          "internalType": "bool[]",
          "name": "",
          "type": "bool[]"
        }
      ],
      "stateMutability": "view",
      "type": "function",
      "constant": true
    },
    {
      "inputs": [],
      "name": "getCFO",
      "outputs": [
        {
          "internalType": "address",
          "name": "",
          "type": "address"
        }
      ],
      "stateMutability": "view",
      "type": "function",
      "constant": true
    },
    {
      "inputs": [],
      "name": "getCOO",
      "outputs": [
        {
          "internalType": "address",
          "name": "",
          "type": "address"
        }
      ],
      "stateMutability": "view",
      "type": "function",
      "constant": true
    },
    {
      "inputs": [
        {
          "internalType": "uint256",
          "name": "groupId",
          "type": "uint256"
        }
      ],
      "name": "getContributorInfo",
      "outputs": [
        {
          "internalType": "string",
          "name": "newContributorName",
          "type": "string"
        },
        {
          "internalType": "string",
          "name": "newContributorImgUrl",
          "type": "string"
        },
        {
          "internalType": "string",
          "name": "newContributorLinkToUrl",
          "type": "string"
        }
      ],
      "stateMutability": "view",
      "type": "function",
      "constant": true
    },
    {
      "inputs": [
        {
          "internalType": "uint256",
          "name": "groupId",
          "type": "uint256"
        }
      ],
      "name": "getCurrentSponsorAddress",
      "outputs": [
        {
          "internalType": "address",
          "name": "",
          "type": "address"
        }
      ],
      "stateMutability": "view",
      "type": "function",
      "constant": true
    },
    {
      "inputs": [
        {
          "internalType": "uint256",
          "name": "groupId",
          "type": "uint256"
        }
      ],
      "name": "getEligibleRecipientAddresses",
      "outputs": [
        {
          "internalType": "address[]",
          "name": "",
          "type": "address[]"
        }
      ],
      "stateMutability": "view",
      "type": "function",
      "constant": true
    },
    {
      "inputs": [
        {
          "internalType": "uint256",
          "name": "groupId",
          "type": "uint256"
        }
      ],
      "name": "getEligibleRecipientIsEligibilityEnabled",
      "outputs": [
        {
          "internalType": "bool[]",
          "name": "",
          "type": "bool[]"
        }
      ],
      "stateMutability": "view",
      "type": "function",
      "constant": true
    },
    {
      "inputs": [
        {
          "internalType": "uint256",
          "name": "groupId",
          "type": "uint256"
        }
      ],
      "name": "getGroupEventData",
      "outputs": [
        {
          "internalType": "enum EthDropBase.EventState",
          "name": "",
          "type": "uint8"
        },
        {
          "internalType": "uint256",
          "name": "",
          "type": "uint256"
        },
        {
          "internalType": "uint256",
          "name": "",
          "type": "uint256"
        },
        {
          "internalType": "uint256",
          "name": "",
          "type": "uint256"
        },
        {
          "internalType": "uint256",
          "name": "",
          "type": "uint256"
        }
      ],
      "stateMutability": "view",
      "type": "function",
      "constant": true
    },
    {
      "inputs": [],
      "name": "getGroupIds",
      "outputs": [
        {
          "internalType": "uint256[]",
          "name": "",
          "type": "uint256[]"
        }
      ],
      "stateMutability": "view",
      "type": "function",
      "constant": true
    },
    {
      "inputs": [],
      "name": "getGroupNames",
      "outputs": [
        {
          "internalType": "string[]",
          "name": "",
          "type": "string[]"
        }
      ],
      "stateMutability": "view",
      "type": "function",
      "constant": true
    },
    {
      "inputs": [
        {
          "internalType": "uint256",
          "name": "groupId",
          "type": "uint256"
        }
      ],
      "name": "getRegisteredRecipients",
      "outputs": [
        {
          "internalType": "address[]",
          "name": "",
          "type": "address[]"
        }
      ],
      "stateMutability": "view",
      "type": "function",
      "constant": true
    },
    {
      "inputs": [],
      "name": "getString",
      "outputs": [
        {
          "internalType": "string",
          "name": "",
          "type": "string"
        }
      ],
      "stateMutability": "view",
      "type": "function",
      "constant": true
    },
    {
      "inputs": [
        {
          "internalType": "address",
          "name": "account",
          "type": "address"
        },
        {
          "internalType": "uint256",
          "name": "groupId",
          "type": "uint256"
        }
      ],
      "name": "isAdmin",
      "outputs": [
        {
          "internalType": "bool",
          "name": "",
          "type": "bool"
        }
      ],
      "stateMutability": "view",
      "type": "function",
      "constant": true
    },
    {
      "inputs": [],
      "name": "isCEO",
      "outputs": [
        {
          "internalType": "bool",
          "name": "",
          "type": "bool"
        }
      ],
      "stateMutability": "view",
      "type": "function",
      "constant": true
    },
    {
      "inputs": [],
      "name": "isCFO",
      "outputs": [
        {
          "internalType": "bool",
          "name": "",
          "type": "bool"
        }
      ],
      "stateMutability": "view",
      "type": "function",
      "constant": true
    },
    {
      "inputs": [],
      "name": "isCOO",
      "outputs": [
        {
          "internalType": "bool",
          "name": "",
          "type": "bool"
        }
      ],
      "stateMutability": "view",
      "type": "function",
      "constant": true
    },
    {
      "inputs": [
        {
          "internalType": "address",
          "name": "account",
          "type": "address"
        },
        {
          "internalType": "uint256",
          "name": "groupId",
          "type": "uint256"
        }
      ],
      "name": "isContributor",
      "outputs": [
        {
          "internalType": "bool",
          "name": "",
          "type": "bool"
        }
      ],
      "stateMutability": "view",
      "type": "function",
      "constant": true
    },
    {
      "inputs": [
        {
          "internalType": "address",
          "name": "account",
          "type": "address"
        },
        {
          "internalType": "uint256",
          "name": "groupId",
          "type": "uint256"
        }
      ],
      "name": "isEligibleRecipient",
      "outputs": [
        {
          "internalType": "bool",
          "name": "",
          "type": "bool"
        }
      ],
      "stateMutability": "view",
      "type": "function",
      "constant": true
    },
    {
      "inputs": [],
      "name": "isPaused",
      "outputs": [
        {
          "internalType": "bool",
          "name": "",
          "type": "bool"
        }
      ],
      "stateMutability": "view",
      "type": "function",
      "constant": true
    },
    {
      "inputs": [
        {
          "internalType": "address",
          "name": "account",
          "type": "address"
        },
        {
          "internalType": "uint256",
          "name": "groupId",
          "type": "uint256"
        }
      ],
      "name": "isRegisteredRecipient",
      "outputs": [
        {
          "internalType": "bool",
          "name": "",
          "type": "bool"
        }
      ],
      "stateMutability": "view",
      "type": "function",
      "constant": true
    },
    {
      "inputs": [],
      "name": "newContractAddress",
      "outputs": [
        {
          "internalType": "address",
          "name": "",
          "type": "address"
        }
      ],
      "stateMutability": "view",
      "type": "function",
      "constant": true
    },
    {
      "inputs": [],
      "name": "pause",
      "outputs": [],
      "stateMutability": "nonpayable",
      "type": "function"
    },
    {
      "inputs": [],
      "name": "paused",
      "outputs": [
        {
          "internalType": "bool",
          "name": "",
          "type": "bool"
        }
      ],
      "stateMutability": "view",
      "type": "function",
      "constant": true
    },
    {
      "inputs": [
        {
          "internalType": "uint256",
          "name": "groupId",
          "type": "uint256"
        }
      ],
      "name": "readEventInfo",
      "outputs": [
        {
          "components": [
            {
              "internalType": "uint256",
              "name": "groupId",
              "type": "uint256"
            },
            {
              "internalType": "string",
              "name": "groupName",
              "type": "string"
            },
            {
              "internalType": "enum EthDropBase.EventState",
              "name": "currentState",
              "type": "uint8"
            },
            {
              "internalType": "uint256",
              "name": "startTime",
              "type": "uint256"
            },
            {
              "internalType": "uint256",
              "name": "registrationEndTime",
              "type": "uint256"
            },
            {
              "internalType": "uint256",
              "name": "endTime",
              "type": "uint256"
            },
            {
              "internalType": "uint256",
              "name": "registeredRecipientsCount",
              "type": "uint256"
            },
            {
              "internalType": "string",
              "name": "sponsorName",
              "type": "string"
            },
            {
              "internalType": "string",
              "name": "sponsorImageUrl",
              "type": "string"
            },
            {
              "internalType": "string",
              "name": "sponsorLinkToUrl",
              "type": "string"
            },
            {
              "internalType": "address",
              "name": "currentContributor",
              "type": "address"
            },
            {
              "internalType": "uint256",
              "name": "totalAmountContributed",
              "type": "uint256"
            },
            {
              "internalType": "uint256",
              "name": "weiWinnings",
              "type": "uint256"
            },
            {
              "internalType": "uint256",
              "name": "numberOfUsersWhoClaimedWinnings",
              "type": "uint256"
            }
          ],
          "internalType": "struct EthDropBase.EthDropEvent",
          "name": "",
          "type": "tuple"
        }
      ],
      "stateMutability": "view",
      "type": "function",
      "constant": true
    },
    {
      "inputs": [
        {
          "internalType": "uint256",
          "name": "groupId",
          "type": "uint256"
        }
      ],
      "name": "registerForEvent",
      "outputs": [],
      "stateMutability": "nonpayable",
      "type": "function"
    },
    {
      "inputs": [
        {
          "internalType": "address",
          "name": "account",
          "type": "address"
        },
        {
          "internalType": "uint256",
          "name": "groupId",
          "type": "uint256"
        }
      ],
      "name": "removeAdmin",
      "outputs": [],
      "stateMutability": "nonpayable",
      "type": "function"
    },
    {
      "inputs": [
        {
          "internalType": "address",
          "name": "account",
          "type": "address"
        },
        {
          "internalType": "uint256",
          "name": "groupId",
          "type": "uint256"
        }
      ],
      "name": "removeContributor",
      "outputs": [],
      "stateMutability": "nonpayable",
      "type": "function"
    },
    {
      "inputs": [
        {
          "internalType": "address",
          "name": "account",
          "type": "address"
        },
        {
          "internalType": "uint256",
          "name": "groupId",
          "type": "uint256"
        }
      ],
      "name": "removeEligibleRecipient",
      "outputs": [],
      "stateMutability": "nonpayable",
      "type": "function"
    },
    {
      "inputs": [
        {
          "internalType": "uint256",
          "name": "groupId",
          "type": "uint256"
        }
      ],
      "name": "renounceAdmin",
      "outputs": [],
      "stateMutability": "nonpayable",
      "type": "function"
    },
    {
      "inputs": [
        {
          "internalType": "uint256",
          "name": "groupId",
          "type": "uint256"
        }
      ],
      "name": "renounceContributor",
      "outputs": [],
      "stateMutability": "nonpayable",
      "type": "function"
    },
    {
      "inputs": [
        {
          "internalType": "address",
          "name": "_newCEO",
          "type": "address"
        }
      ],
      "name": "setCEO",
      "outputs": [],
      "stateMutability": "nonpayable",
      "type": "function"
    },
    {
      "inputs": [
        {
          "internalType": "address",
          "name": "_newCFO",
          "type": "address"
        }
      ],
      "name": "setCFO",
      "outputs": [],
      "stateMutability": "nonpayable",
      "type": "function"
    },
    {
      "inputs": [
        {
          "internalType": "address",
          "name": "_newCOO",
          "type": "address"
        }
      ],
      "name": "setCOO",
      "outputs": [],
      "stateMutability": "nonpayable",
      "type": "function"
    },
    {
      "inputs": [
        {
          "internalType": "string",
          "name": "_s",
          "type": "string"
        }
      ],
      "name": "setString",
      "outputs": [],
      "stateMutability": "nonpayable",
      "type": "function"
    },
    {
      "inputs": [
        {
          "internalType": "uint256",
          "name": "groupId",
          "type": "uint256"
        }
      ],
      "name": "startEvent",
      "outputs": [],
      "stateMutability": "nonpayable",
      "type": "function"
    },
    {
      "inputs": [],
      "name": "stringgg",
      "outputs": [
        {
          "internalType": "string",
          "name": "",
          "type": "string"
        }
      ],
      "stateMutability": "view",
      "type": "function",
      "constant": true
    },
    {
      "inputs": [],
      "name": "unpause",
      "outputs": [
        {
          "internalType": "bool",
          "name": "",
          "type": "bool"
        }
      ],
      "stateMutability": "nonpayable",
      "type": "function"
    },
    {
      "inputs": [
        {
          "internalType": "uint256",
          "name": "groupId",
          "type": "uint256"
        },
        {
          "internalType": "string",
          "name": "newContributorName",
          "type": "string"
        },
        {
          "internalType": "string",
          "name": "newContributorImgUrl",
          "type": "string"
        },
        {
          "internalType": "string",
          "name": "newContributorLinkToUrl",
          "type": "string"
        }
      ],
      "name": "updateContributorInfo",
      "outputs": [],
      "stateMutability": "nonpayable",
      "type": "function"
    },
    {
      "inputs": [],
      "name": "whoami",
      "outputs": [
        {
          "internalType": "address",
          "name": "",
          "type": "address"
        }
      ],
      "stateMutability": "view",
      "type": "function",
      "constant": true
    },
    {
      "inputs": [
        {
          "internalType": "address",
          "name": "_v2Address",
          "type": "address"
        }
      ],
      "name": "setNewAddress",
      "outputs": [],
      "stateMutability": "nonpayable",
      "type": "function"
    },
    {
      "inputs": [],
      "name": "foobar",
      "outputs": [
        {
          "internalType": "string",
          "name": "",
          "type": "string"
        }
      ],
      "stateMutability": "pure",
      "type": "function",
      "constant": true
    }
  ],
  "bytecode": "0x60806040526000600360146101000a81548160ff02191690831515021790555060056004556000600b5534801561003557600080fd5b506000600360146101000a81548160ff02191690831515021790555033600160006101000a81548173ffffffffffffffffffffffffffffffffffffffff021916908373ffffffffffffffffffffffffffffffffffffffff160217905550614e41806100a16000396000f3fe60806040526004361061036b5760003560e01c80637fcaf666116101c6578063c02b8b2c116100f7578063e513b7a911610095578063ea303f081161006f578063ea303f0814610cf8578063ee41b59214610d21578063f4a02e7014610d5e578063fc5fd6e414610d895761036b565b8063e513b7a914610c74578063e62092be14610c9f578063e82f24e014610cdc5761036b565b8063c6e0ddfa116100d1578063c6e0ddfa14610bba578063d5f016c314610be3578063e320d5e714610c0e578063e33db42614610c375761036b565b8063c02b8b2c14610b3b578063c271e80c14610b66578063c6db509414610b8f5761036b565b80639bda879611610164578063aea88a051161013e578063aea88a0514610a91578063b047fb5014610aba578063b187bd2614610ae5578063b3b36bb314610b105761036b565b80639bda879614610a02578063a59a695314610a3f578063ab4e194514610a685761036b565b80638456cb59116101a05780638456cb591461095857806389ea642f1461096f5780639393ae371461099a578063962ecff5146109c55761036b565b80637fcaf666146108c95780637fcb29c9146108f25780638182aaf21461091b5761036b565b80634635509b116102a0578063677bd9ff1161023e5780637158798811610218578063715879881461080f578063785142be146108385780637b936ac2146108615780637d837ce51461088c5761036b565b8063677bd9ff1461077d5780636af04a57146107a65780636ebdec49146107d15761036b565b806355b57ec11161027a57806355b57ec1146106995780635c975abb146106d65780635e82c1fc14610701578063674811ca1461073e5761036b565b80634635509b146106065780634e0a3379146106475780634f1ef03c146106705761036b565b80632ba73c151161030d57806338f0b656116102e757806338f0b656146105385780633f4ba83a14610575578063406db843146105a057806344b2983b146105c95761036b565b80632ba73c15146104bd57806330bb0115146104e6578063330a347b1461050f5761036b565b80630a0f8168116103495780630a0f8168146104035780630d82ffa01461042e57806315891ff41461046b57806327d7874c146104945761036b565b80630519ce791461037057806305df75db1461039b57806306cc4922146103c6575b600080fd5b34801561037c57600080fd5b50610385610db4565b60405161039291906146ed565b60405180910390f35b3480156103a757600080fd5b506103b0610dda565b6040516103bd9190614835565b60405180910390f35b3480156103d257600080fd5b506103ed60048036038101906103e891906141ed565b610e17565b6040516103fa91906147c7565b60405180910390f35b34801561040f57600080fd5b50610418610e44565b60405161042591906146ed565b60405180910390f35b34801561043a57600080fd5b50610455600480360381019061045091906141ed565b610e6a565b60405161046291906146ed565b60405180910390f35b34801561047757600080fd5b50610492600480360381019061048d9190614164565b610eaa565b005b3480156104a057600080fd5b506104bb60048036038101906104b69190614137565b610f94565b005b3480156104c957600080fd5b506104e460048036038101906104df9190614137565b61106c565b005b3480156104f257600080fd5b5061050d600480360381019061050891906141ed565b611144565b005b34801561051b57600080fd5b50610536600480360381019061053191906141ed565b611166565b005b34801561054457600080fd5b5061055f600480360381019061055a91906141ed565b61145d565b60405161056c91906147c7565b60405180910390f35b34801561058157600080fd5b5061058a61148a565b60405161059791906147c7565b60405180910390f35b3480156105ac57600080fd5b506105c760048036038101906105c291906141ed565b61152f565b005b3480156105d557600080fd5b506105f060048036038101906105eb91906141ed565b6116b8565b6040516105fd9190614708565b60405180910390f35b34801561061257600080fd5b5061062d600480360381019061062891906141ed565b611759565b60405161063e9594939291906147e2565b60405180910390f35b34801561065357600080fd5b5061066e60048036038101906106699190614137565b611adc565b005b34801561067c57600080fd5b50610697600480360381019061069291906141ed565b611b7a565b005b3480156106a557600080fd5b506106c060048036038101906106bb91906141ed565b611bb6565b6040516106cd9190614761565b60405180910390f35b3480156106e257600080fd5b506106eb611c46565b6040516106f891906147c7565b60405180910390f35b34801561070d57600080fd5b5061072860048036038101906107239190614164565b611c59565b60405161073591906147c7565b60405180910390f35b34801561074a57600080fd5b50610765600480360381019061076091906141ed565b611ce2565b60405161077493929190614857565b60405180910390f35b34801561078957600080fd5b506107a4600480360381019061079f91906141ed565b611eda565b005b3480156107b257600080fd5b506107bb6120bf565b6040516107c891906146ed565b60405180910390f35b3480156107dd57600080fd5b506107f860048036038101906107f391906141ed565b6120e5565b60405161080692919061472a565b60405180910390f35b34801561081b57600080fd5b5061083660048036038101906108319190614137565b612216565b005b34801561084457600080fd5b5061085f600480360381019061085a91906141ed565b612304565b005b34801561086d57600080fd5b506108766124df565b60405161088391906146ed565b60405180910390f35b34801561089857600080fd5b506108b360048036038101906108ae9190614164565b612509565b6040516108c091906147c7565b60405180910390f35b3480156108d557600080fd5b506108f060048036038101906108eb91906141a4565b612592565b005b3480156108fe57600080fd5b5061091960048036038101906109149190614164565b6125ac565b005b34801561092757600080fd5b50610942600480360381019061093d9190614164565b612614565b60405161094f91906147c7565b60405180910390f35b34801561096457600080fd5b5061096d61269d565b005b34801561097b57600080fd5b506109846127de565b6040516109919190614835565b60405180910390f35b3480156109a657600080fd5b506109af612870565b6040516109bc91906147c7565b60405180910390f35b3480156109d157600080fd5b506109ec60048036038101906109e791906141ed565b6128c8565b6040516109f991906147c7565b60405180910390f35b348015610a0e57600080fd5b50610a296004803603810190610a2491906141ed565b612936565b604051610a369190614708565b60405180910390f35b348015610a4b57600080fd5b50610a666004803603810190610a6191906141ed565b6129d7565b005b348015610a7457600080fd5b50610a8f6004803603810190610a8a9190614164565b612ab1565b005b348015610a9d57600080fd5b50610ab86004803603810190610ab3919061421a565b612c65565b005b348015610ac657600080fd5b50610acf612d01565b604051610adc91906146ed565b60405180910390f35b348015610af157600080fd5b50610afa612d27565b604051610b0791906147c7565b60405180910390f35b348015610b1c57600080fd5b50610b25612d3e565b604051610b3291906146ed565b60405180910390f35b348015610b4757600080fd5b50610b50612d46565b604051610b5d91906147a5565b60405180910390f35b348015610b7257600080fd5b50610b8d6004803603810190610b889190614164565b612d9e565b005b348015610b9b57600080fd5b50610ba4612e33565b604051610bb19190614835565b60405180910390f35b348015610bc657600080fd5b50610be16004803603810190610bdc9190614164565b612ec1565b005b348015610bef57600080fd5b50610bf8612f29565b604051610c059190614783565b60405180910390f35b348015610c1a57600080fd5b50610c356004803603810190610c309190614164565b613002565b005b348015610c4357600080fd5b50610c5e6004803603810190610c5991906141ed565b613097565b604051610c6b91906148a3565b60405180910390f35b348015610c8057600080fd5b50610c89613403565b604051610c9691906147c7565b60405180910390f35b348015610cab57600080fd5b50610cc66004803603810190610cc19190614164565b61345b565b604051610cd391906147c7565b60405180910390f35b610cf66004803603810190610cf191906141ed565b6134ca565b005b348015610d0457600080fd5b50610d1f6004803603810190610d1a91906141a4565b613567565b005b348015610d2d57600080fd5b50610d486004803603810190610d4391906141ed565b6138b1565b604051610d5591906147c7565b60405180910390f35b348015610d6a57600080fd5b50610d736138de565b604051610d8091906147c7565b60405180910390f35b348015610d9557600080fd5b50610d9e613936565b604051610dab91906146ed565b60405180910390f35b600260009054906101000a900473ffffffffffffffffffffffffffffffffffffffff1681565b60606040518060400160405280600d81526020017f666f6f6261727272727272722100000000000000000000000000000000000000815250905090565b6000600360149054906101000a900460ff1615610e3357600080fd5b610e3d3383611c59565b9050919050565b600160009054906101000a900473ffffffffffffffffffffffffffffffffffffffff1681565b600060076000838152602001908152602001600020600a0160009054906101000a900473ffffffffffffffffffffffffffffffffffffffff169050919050565b80610eb5338261345b565b610ebe57600080fd5b600360149054906101000a900460ff1615610ed857600080fd5b60006011600084815260200190815260200160002060008573ffffffffffffffffffffffffffffffffffffffff1673ffffffffffffffffffffffffffffffffffffffff16815260200190815260200160002060006101000a81548160ff0219169083151502179055508273ffffffffffffffffffffffffffffffffffffffff167f1af6d16168d33745872119540d28858eed156c5f265206bbf1344fda39a93a3383604051610f8791906148c5565b60405180910390a2505050565b600160009054906101000a900473ffffffffffffffffffffffffffffffffffffffff1673ffffffffffffffffffffffffffffffffffffffff163373ffffffffffffffffffffffffffffffffffffffff1614610fee57600080fd5b600073ffffffffffffffffffffffffffffffffffffffff168173ffffffffffffffffffffffffffffffffffffffff16141561102857600080fd5b80600160006101000a81548173ffffffffffffffffffffffffffffffffffffffff021916908373ffffffffffffffffffffffffffffffffffffffff16021790555050565b600160009054906101000a900473ffffffffffffffffffffffffffffffffffffffff1673ffffffffffffffffffffffffffffffffffffffff163373ffffffffffffffffffffffffffffffffffffffff16146110c657600080fd5b600073ffffffffffffffffffffffffffffffffffffffff168173ffffffffffffffffffffffffffffffffffffffff16141561110057600080fd5b80600360006101000a81548173ffffffffffffffffffffffffffffffffffffffff021916908373ffffffffffffffffffffffffffffffffffffffff16021790555050565b8061114f338261345b565b61115857600080fd5b6111623383613960565b5050565b80611171338261345b565b806111c95750600360009054906101000a900473ffffffffffffffffffffffffffffffffffffffff1673ffffffffffffffffffffffffffffffffffffffff163373ffffffffffffffffffffffffffffffffffffffff16145b6111d257600080fd5b600360149054906101000a900460ff16156111ec57600080fd5b42600760008481526020019081526020016000206005018190555060036007600084815260200190815260200160002060020160006101000a81548160ff0219169083600381111561124157611240614ce8565b5b0217905550600860008381526020019081526020016000206007600084815260200190815260200160002090806001815401808255809150506001900390600052602060002090600e02016000909190919091506000820154816000015560018201816001019080546112b390614bde565b6112be929190613ed6565b506002820160009054906101000a900460ff168160020160006101000a81548160ff021916908360038111156112f7576112f6614ce8565b5b021790555060038201548160030155600482015481600401556005820154816005015560068201548160060155600782018160070190805461133890614bde565b611343929190613ed6565b50600882018160080190805461135890614bde565b611363929190613ed6565b50600982018160090190805461137890614bde565b611383929190613ed6565b50600a820160009054906101000a900473ffffffffffffffffffffffffffffffffffffffff1681600a0160006101000a81548173ffffffffffffffffffffffffffffffffffffffff021916908373ffffffffffffffffffffffffffffffffffffffff160217905550600b82015481600b0155600c82015481600c0155600d82015481600d015550503373ffffffffffffffffffffffffffffffffffffffff167f6f45a19e8850c727d0de9f32e0d8691324a9a74ffb4347652e6404138b1d81658360405161145191906148c5565b60405180910390a25050565b6000600360149054906101000a900460ff161561147957600080fd5b6114833383612509565b9050919050565b6000600160009054906101000a900473ffffffffffffffffffffffffffffffffffffffff1673ffffffffffffffffffffffffffffffffffffffff163373ffffffffffffffffffffffffffffffffffffffff16146114e657600080fd5b600360149054906101000a900460ff166114ff57600080fd5b6000600360146101000a81548160ff021916908315150217905550600360149054906101000a900460ff16905090565b8061153a3382611c59565b61154357600080fd5b600360149054906101000a900460ff161561155d57600080fd5b60016014600084815260200190815260200160002060003373ffffffffffffffffffffffffffffffffffffffff1673ffffffffffffffffffffffffffffffffffffffff16815260200190815260200160002060006101000a81548160ff02191690831515021790555060156000838152602001908152602001600020339080600181540180825580915050600190039060005260206000200160009091909190916101000a81548173ffffffffffffffffffffffffffffffffffffffff021916908373ffffffffffffffffffffffffffffffffffffffff16021790555060076000838152602001908152602001600020600601600081548092919061166190614c41565b91905055503373ffffffffffffffffffffffffffffffffffffffff167f0695e999be8100bdb5bee8612337296508d527eae78c65b8f170eacb5a3b439d836040516116ac91906148c5565b60405180910390a25050565b60606015600083815260200190815260200160002080548060200260200160405190810160405280929190818152602001828054801561174d57602002820191906000526020600020905b8160009054906101000a900473ffffffffffffffffffffffffffffffffffffffff1673ffffffffffffffffffffffffffffffffffffffff1681526020019060010190808311611703575b50505050509050919050565b60008060008060008060076000888152602001908152602001600020604051806101c00160405290816000820154815260200160018201805461179b90614bde565b80601f01602080910402602001604051908101604052809291908181526020018280546117c790614bde565b80156118145780601f106117e957610100808354040283529160200191611814565b820191906000526020600020905b8154815290600101906020018083116117f757829003601f168201915b505050505081526020016002820160009054906101000a900460ff16600381111561184257611841614ce8565b5b600381111561185457611853614ce8565b5b81526020016003820154815260200160048201548152602001600582015481526020016006820154815260200160078201805461189090614bde565b80601f01602080910402602001604051908101604052809291908181526020018280546118bc90614bde565b80156119095780601f106118de57610100808354040283529160200191611909565b820191906000526020600020905b8154815290600101906020018083116118ec57829003601f168201915b5050505050815260200160088201805461192290614bde565b80601f016020809104026020016040519081016040528092919081815260200182805461194e90614bde565b801561199b5780601f106119705761010080835404028352916020019161199b565b820191906000526020600020905b81548152906001019060200180831161197e57829003601f168201915b505050505081526020016009820180546119b490614bde565b80601f01602080910402602001604051908101604052809291908181526020018280546119e090614bde565b8015611a2d5780601f10611a0257610100808354040283529160200191611a2d565b820191906000526020600020905b815481529060010190602001808311611a1057829003601f168201915b50505050508152602001600a820160009054906101000a900473ffffffffffffffffffffffffffffffffffffffff1673ffffffffffffffffffffffffffffffffffffffff1673ffffffffffffffffffffffffffffffffffffffff168152602001600b8201548152602001600c8201548152602001600d82015481525050905080604001518160c00151826101600151836101800151846101a00151955095509550955095505091939590929450565b600160009054906101000a900473ffffffffffffffffffffffffffffffffffffffff1673ffffffffffffffffffffffffffffffffffffffff163373ffffffffffffffffffffffffffffffffffffffff1614611b3657600080fd5b80600260006101000a81548173ffffffffffffffffffffffffffffffffffffffff021916908373ffffffffffffffffffffffffffffffffffffffff16021790555050565b80611b853382612614565b611b8e57600080fd5b600360149054906101000a900460ff1615611ba857600080fd5b611bb23383613ac1565b5050565b606060136000838152602001908152602001600020805480602002602001604051908101604052809291908181526020018280548015611c3a57602002820191906000526020600020906000905b82829054906101000a900460ff16151581526020019060010190602082600001049283019260010382029150808411611c045790505b50505050509050919050565b600360149054906101000a900460ff1681565b6000600360149054906101000a900460ff1615611c7557600080fd5b600115156011600084815260200190815260200160002060008573ffffffffffffffffffffffffffffffffffffffff1673ffffffffffffffffffffffffffffffffffffffff16815260200190815260200160002060009054906101000a900460ff16151514905092915050565b6060806060600760008581526020019081526020016000206007016007600086815260200190815260200160002060080160076000878152602001908152602001600020600901828054611d3590614bde565b80601f0160208091040260200160405190810160405280929190818152602001828054611d6190614bde565b8015611dae5780601f10611d8357610100808354040283529160200191611dae565b820191906000526020600020905b815481529060010190602001808311611d9157829003601f168201915b50505050509250818054611dc190614bde565b80601f0160208091040260200160405190810160405280929190818152602001828054611ded90614bde565b8015611e3a5780601f10611e0f57610100808354040283529160200191611e3a565b820191906000526020600020905b815481529060010190602001808311611e1d57829003601f168201915b50505050509150808054611e4d90614bde565b80601f0160208091040260200160405190810160405280929190818152602001828054611e7990614bde565b8015611ec65780601f10611e9b57610100808354040283529160200191611ec6565b820191906000526020600020905b815481529060010190602001808311611ea957829003601f168201915b505050505090509250925092509193909250565b80611ee53382612509565b611eee57600080fd5b813360011515600c600084815260200190815260200160002060003373ffffffffffffffffffffffffffffffffffffffff1673ffffffffffffffffffffffffffffffffffffffff16815260200190815260200160002060009054906101000a900460ff1615151415611f5f57600080fd5b600360149054906101000a900460ff1615611f7957600080fd5b6001600c600086815260200190815260200160002060003373ffffffffffffffffffffffffffffffffffffffff1673ffffffffffffffffffffffffffffffffffffffff16815260200190815260200160002060006101000a81548160ff02191690831515021790555060076000858152602001908152602001600020600d01600081548092919061200990614c41565b91905055503373ffffffffffffffffffffffffffffffffffffffff166108fc60076000878152602001908152602001600020600c01549081150290604051600060405180830381858888f1935050505015801561206a573d6000803e3d6000fd5b503373ffffffffffffffffffffffffffffffffffffffff167f1a31e733a172afcf46074b3106c17f0c298e226442682a03c1e99ce256139ec2856040516120b191906148c5565b60405180910390a250505050565b601760009054906101000a900473ffffffffffffffffffffffffffffffffffffffff1681565b606080600d6000848152602001908152602001600020600f60008581526020019081526020016000208180548060200260200160405190810160405280929190818152602001828054801561218f57602002820191906000526020600020905b8160009054906101000a900473ffffffffffffffffffffffffffffffffffffffff1673ffffffffffffffffffffffffffffffffffffffff1681526020019060010190808311612145575b505050505091508080548060200260200160405190810160405280929190818152602001828054801561220657602002820191906000526020600020906000905b82829054906101000a900460ff161515815260200190600101906020826000010492830192600103820291508084116121d05790505b5050505050905091509150915091565b600160009054906101000a900473ffffffffffffffffffffffffffffffffffffffff1673ffffffffffffffffffffffffffffffffffffffff163373ffffffffffffffffffffffffffffffffffffffff161461227057600080fd5b600360149054906101000a900460ff1661228957600080fd5b80601760006101000a81548173ffffffffffffffffffffffffffffffffffffffff021916908373ffffffffffffffffffffffffffffffffffffffff1602179055507f450db8da6efbe9c22f2347f7c2021231df1fc58d3ae9a2fa75d39fa446199305816040516122f991906146ed565b60405180910390a150565b8061230f338261345b565b61231857600080fd5b600360149054906101000a900460ff161561233257600080fd5b4260076000848152602001908152602001600020600401819055506000606460045460076000868152602001908152602001600020600b01546123759190614aa1565b61237f9190614a70565b9050600260009054906101000a900473ffffffffffffffffffffffffffffffffffffffff1673ffffffffffffffffffffffffffffffffffffffff166108fc829081150290604051600060405180830381858888f193505050501580156123e9573d6000803e3d6000fd5b5060008160076000868152602001908152602001600020600b015461240e9190614afb565b90506007600085815260200190815260200160002060060154816124329190614a70565b60076000868152602001908152602001600020600c018190555060026007600086815260200190815260200160002060020160006101000a81548160ff0219169083600381111561248657612485614ce8565b5b02179055503373ffffffffffffffffffffffffffffffffffffffff167fef898a6941c945450e9bbdad4a76fcd0f51f42f7e251fddcb1e5479ba786d5e4856040516124d191906148c5565b60405180910390a250505050565b6000600260009054906101000a900473ffffffffffffffffffffffffffffffffffffffff16905090565b6000600360149054906101000a900460ff161561252557600080fd5b600115156014600084815260200190815260200160002060008573ffffffffffffffffffffffffffffffffffffffff1673ffffffffffffffffffffffffffffffffffffffff16815260200190815260200160002060009054906101000a900460ff16151514905092915050565b80600090805190602001906125a8929190613f63565b5050565b600360009054906101000a900473ffffffffffffffffffffffffffffffffffffffff1673ffffffffffffffffffffffffffffffffffffffff163373ffffffffffffffffffffffffffffffffffffffff161461260657600080fd5b6126108282613bd2565b5050565b6000600360149054906101000a900460ff161561263057600080fd5b600115156010600084815260200190815260200160002060008573ffffffffffffffffffffffffffffffffffffffff1673ffffffffffffffffffffffffffffffffffffffff16815260200190815260200160002060009054906101000a900460ff16151514905092915050565b600360009054906101000a900473ffffffffffffffffffffffffffffffffffffffff1673ffffffffffffffffffffffffffffffffffffffff163373ffffffffffffffffffffffffffffffffffffffff1614806127465750600160009054906101000a900473ffffffffffffffffffffffffffffffffffffffff1673ffffffffffffffffffffffffffffffffffffffff163373ffffffffffffffffffffffffffffffffffffffff16145b8061279e5750600260009054906101000a900473ffffffffffffffffffffffffffffffffffffffff1673ffffffffffffffffffffffffffffffffffffffff163373ffffffffffffffffffffffffffffffffffffffff16145b6127a757600080fd5b600360149054906101000a900460ff16156127c157600080fd5b6001600360146101000a81548160ff021916908315150217905550565b6060600080546127ed90614bde565b80601f016020809104026020016040519081016040528092919081815260200182805461281990614bde565b80156128665780601f1061283b57610100808354040283529160200191612866565b820191906000526020600020905b81548152906001019060200180831161284957829003601f168201915b5050505050905090565b6000600260009054906101000a900473ffffffffffffffffffffffffffffffffffffffff1673ffffffffffffffffffffffffffffffffffffffff163373ffffffffffffffffffffffffffffffffffffffff1614905090565b6000600115156009600084815260200190815260200160002060003373ffffffffffffffffffffffffffffffffffffffff1673ffffffffffffffffffffffffffffffffffffffff16815260200190815260200160002060009054906101000a900460ff161515149050919050565b6060601260008381526020019081526020016000208054806020026020016040519081016040528092919081815260200182805480156129cb57602002820191906000526020600020905b8160009054906101000a900473ffffffffffffffffffffffffffffffffffffffff1673ffffffffffffffffffffffffffffffffffffffff1681526020019060010190808311612981575b50505050509050919050565b806129e2338261345b565b6129eb57600080fd5b600360149054906101000a900460ff1615612a0557600080fd5b60016007600084815260200190815260200160002060020160006101000a81548160ff02191690836003811115612a3f57612a3e614ce8565b5b02179055504260076000848152602001908152602001600020600301819055503373ffffffffffffffffffffffffffffffffffffffff167ff77c6f27499b698205f54058c2914a340e1300c2bc0d9a819e7aebfbaabbbb9383604051612aa591906148c5565b60405180910390a25050565b600360149054906101000a900460ff1615612acb57600080fd5b80612ad6338261345b565b612adf57600080fd5b60016011600084815260200190815260200160002060008573ffffffffffffffffffffffffffffffffffffffff1673ffffffffffffffffffffffffffffffffffffffff16815260200190815260200160002060006101000a81548160ff02191690831515021790555060126000838152602001908152602001600020839080600181540180825580915050600190039060005260206000200160009091909190916101000a81548173ffffffffffffffffffffffffffffffffffffffff021916908373ffffffffffffffffffffffffffffffffffffffff16021790555060136000838152602001908152602001600020600190806001815401808255809150506001900390600052602060002090602091828204019190069091909190916101000a81548160ff0219169083151502179055508273ffffffffffffffffffffffffffffffffffffffff167f46b8357d30dedd734a71d059a385f46b6e667bff20233f907477760207f8896583604051612c5891906148c5565b60405180910390a2505050565b83612c703382612614565b612c7957600080fd5b83600760008781526020019081526020016000206007019080519060200190612ca3929190613f63565b5082600760008781526020019081526020016000206008019080519060200190612cce929190613f63565b5081600760008781526020019081526020016000206009019080519060200190612cf9929190613f63565b505050505050565b600360009054906101000a900473ffffffffffffffffffffffffffffffffffffffff1681565b6000600360149054906101000a900460ff16905090565b600033905090565b60606005805480602002602001604051908101604052809291908181526020018280548015612d9457602002820191906000526020600020905b815481526020019060010190808311612d80575b5050505050905090565b80612da9338261345b565b80612e015750600360009054906101000a900473ffffffffffffffffffffffffffffffffffffffff1673ffffffffffffffffffffffffffffffffffffffff163373ffffffffffffffffffffffffffffffffffffffff16145b612e0a57600080fd5b600360149054906101000a900460ff1615612e2457600080fd5b612e2e8383613dc6565b505050565b60008054612e4090614bde565b80601f0160208091040260200160405190810160405280929190818152602001828054612e6c90614bde565b8015612eb95780601f10612e8e57610100808354040283529160200191612eb9565b820191906000526020600020905b815481529060010190602001808311612e9c57829003601f168201915b505050505081565b600360009054906101000a900473ffffffffffffffffffffffffffffffffffffffff1673ffffffffffffffffffffffffffffffffffffffff163373ffffffffffffffffffffffffffffffffffffffff1614612f1b57600080fd5b612f258282613960565b5050565b60606006805480602002602001604051908101604052809291908181526020016000905b82821015612ff9578382906000526020600020018054612f6c90614bde565b80601f0160208091040260200160405190810160405280929190818152602001828054612f9890614bde565b8015612fe55780601f10612fba57610100808354040283529160200191612fe5565b820191906000526020600020905b815481529060010190602001808311612fc857829003601f168201915b505050505081526020019060010190612f4d565b50505050905090565b8061300d338261345b565b806130655750600360009054906101000a900473ffffffffffffffffffffffffffffffffffffffff1673ffffffffffffffffffffffffffffffffffffffff163373ffffffffffffffffffffffffffffffffffffffff16145b61306e57600080fd5b600360149054906101000a900460ff161561308857600080fd5b6130928383613ac1565b505050565b61309f613fe9565b816130aa338261345b565b6130b357600080fd5b60076000848152602001908152602001600020604051806101c0016040529081600082015481526020016001820180546130ec90614bde565b80601f016020809104026020016040519081016040528092919081815260200182805461311890614bde565b80156131655780601f1061313a57610100808354040283529160200191613165565b820191906000526020600020905b81548152906001019060200180831161314857829003601f168201915b505050505081526020016002820160009054906101000a900460ff16600381111561319357613192614ce8565b5b60038111156131a5576131a4614ce8565b5b8152602001600382015481526020016004820154815260200160058201548152602001600682015481526020016007820180546131e190614bde565b80601f016020809104026020016040519081016040528092919081815260200182805461320d90614bde565b801561325a5780601f1061322f5761010080835404028352916020019161325a565b820191906000526020600020905b81548152906001019060200180831161323d57829003601f168201915b5050505050815260200160088201805461327390614bde565b80601f016020809104026020016040519081016040528092919081815260200182805461329f90614bde565b80156132ec5780601f106132c1576101008083540402835291602001916132ec565b820191906000526020600020905b8154815290600101906020018083116132cf57829003601f168201915b5050505050815260200160098201805461330590614bde565b80601f016020809104026020016040519081016040528092919081815260200182805461333190614bde565b801561337e5780601f106133535761010080835404028352916020019161337e565b820191906000526020600020905b81548152906001019060200180831161336157829003601f168201915b50505050508152602001600a820160009054906101000a900473ffffffffffffffffffffffffffffffffffffffff1673ffffffffffffffffffffffffffffffffffffffff1673ffffffffffffffffffffffffffffffffffffffff168152602001600b8201548152602001600c8201548152602001600d82015481525050915050919050565b6000600160009054906101000a900473ffffffffffffffffffffffffffffffffffffffff1673ffffffffffffffffffffffffffffffffffffffff163373ffffffffffffffffffffffffffffffffffffffff1614905090565b6000600115156009600084815260200190815260200160002060008573ffffffffffffffffffffffffffffffffffffffff1673ffffffffffffffffffffffffffffffffffffffff16815260200190815260200160002060009054906101000a900460ff16151514905092915050565b806134d53382612614565b6134de57600080fd5b600360149054906101000a900460ff16156134f857600080fd5b3460076000848152602001908152602001600020600b01819055503373ffffffffffffffffffffffffffffffffffffffff167f5dc1fe5ab986a852c4eda8e8bb94247d13307065c593fb83f1a09be273679382833460405161355b9291906148e0565b60405180910390a25050565b600360009054906101000a900473ffffffffffffffffffffffffffffffffffffffff1673ffffffffffffffffffffffffffffffffffffffff163373ffffffffffffffffffffffffffffffffffffffff16146135c157600080fd5b600360149054906101000a900460ff16156135db57600080fd5b6000434060001c90506000604051806101c001604052808381526020018481526020016000600381111561361257613611614ce8565b5b815260200142815260200142815260200142815260200160008152602001604051806020016040528060008152508152602001604051806020016040528060008152508152602001604051806020016040528060008152508152602001600073ffffffffffffffffffffffffffffffffffffffff16815260200160008152602001600081526020016000815250905080600760008481526020019081526020016000206000820151816000015560208201518160010190805190602001906136db929190613f63565b5060408201518160020160006101000a81548160ff0219169083600381111561370757613706614ce8565b5b0217905550606082015181600301556080820151816004015560a0820151816005015560c0820151816006015560e0820151816007019080519060200190613750929190613f63565b5061010082015181600801908051906020019061376e929190613f63565b5061012082015181600901908051906020019061378c929190613f63565b5061014082015181600a0160006101000a81548173ffffffffffffffffffffffffffffffffffffffff021916908373ffffffffffffffffffffffffffffffffffffffff16021790555061016082015181600b015561018082015181600c01556101a082015181600d0155905050600542908060018154018082558091505060019003906000526020600020016000909190919091505560068390806001815401808255809150506001900390600052602060002001600090919091909150908051906020019061385d929190613f63565b503373ffffffffffffffffffffffffffffffffffffffff167f3482e3d6d38a18835a6ad59afad8098300ce9f907925e4be71126d7b43dc803d836040516138a491906148c5565b60405180910390a2505050565b6000600360149054906101000a900460ff16156138cd57600080fd5b6138d73383612614565b9050919050565b6000600360009054906101000a900473ffffffffffffffffffffffffffffffffffffffff1673ffffffffffffffffffffffffffffffffffffffff163373ffffffffffffffffffffffffffffffffffffffff1614905090565b6000600360009054906101000a900473ffffffffffffffffffffffffffffffffffffffff16905090565b60006009600083815260200190815260200160002060008473ffffffffffffffffffffffffffffffffffffffff1673ffffffffffffffffffffffffffffffffffffffff16815260200190815260200160002060006101000a81548160ff0219169083151502179055506000600a600083815260200190815260200160002060008473ffffffffffffffffffffffffffffffffffffffff1673ffffffffffffffffffffffffffffffffffffffff1681526020019081526020016000205490506000600f60008481526020019081526020016000208281548110613a4557613a44614d46565b5b90600052602060002090602091828204019190066101000a81548160ff0219169083151502179055508273ffffffffffffffffffffffffffffffffffffffff167fa0726c73cf6ad18ddb855ba65d1ddd4d7fd37d320f4e52f6b154c13d386f5fd983604051613ab491906148c5565b60405180910390a2505050565b60006010600083815260200190815260200160002060008473ffffffffffffffffffffffffffffffffffffffff1673ffffffffffffffffffffffffffffffffffffffff16815260200190815260200160002060006101000a81548160ff021916908315150217905550600060076000838152602001908152602001600020600a0160006101000a81548173ffffffffffffffffffffffffffffffffffffffff021916908373ffffffffffffffffffffffffffffffffffffffff1602179055508173ffffffffffffffffffffffffffffffffffffffff167fda111d7eb5d5b2033c4ffad00cd7cd42f45af2813bee1a69e65f26d90ea15f0b82604051613bc691906148c5565b60405180910390a25050565b60016009600083815260200190815260200160002060008473ffffffffffffffffffffffffffffffffffffffff1673ffffffffffffffffffffffffffffffffffffffff16815260200190815260200160002060006101000a81548160ff021916908315150217905550600b54600a600083815260200190815260200160002060008473ffffffffffffffffffffffffffffffffffffffff1673ffffffffffffffffffffffffffffffffffffffff16815260200190815260200160002081905550600b6000815480929190613ca590614c41565b9190505550600d6000828152602001908152602001600020829080600181540180825580915050600190039060005260206000200160009091909190916101000a81548173ffffffffffffffffffffffffffffffffffffffff021916908373ffffffffffffffffffffffffffffffffffffffff160217905550600f6000828152602001908152602001600020600190806001815401808255809150506001900390600052602060002090602091828204019190069091909190916101000a81548160ff0219169083151502179055508173ffffffffffffffffffffffffffffffffffffffff167f723c2b747529ca7f5eb53a74808f4a8b9bf264f0fc450fd904900151da74548a82604051613dba91906148c5565b60405180910390a25050565b60016010600083815260200190815260200160002060008473ffffffffffffffffffffffffffffffffffffffff1673ffffffffffffffffffffffffffffffffffffffff16815260200190815260200160002060006101000a81548160ff0219169083151502179055508160076000838152602001908152602001600020600a0160006101000a81548173ffffffffffffffffffffffffffffffffffffffff021916908373ffffffffffffffffffffffffffffffffffffffff1602179055508173ffffffffffffffffffffffffffffffffffffffff167f5fd6d0b7e707fe344bd2a1887f9d0eeea8bfcac6f339ba4200e74f0647f101c082604051613eca91906148c5565b60405180910390a25050565b828054613ee290614bde565b90600052602060002090601f016020900481019282613f045760008555613f52565b82601f10613f155780548555613f52565b82800160010185558215613f5257600052602060002091601f016020900482015b82811115613f51578254825591600101919060010190613f36565b5b509050613f5f9190614080565b5090565b828054613f6f90614bde565b90600052602060002090601f016020900481019282613f915760008555613fd8565b82601f10613faa57805160ff1916838001178555613fd8565b82800160010185558215613fd8579182015b82811115613fd7578251825591602001919060010190613fbc565b5b509050613fe59190614080565b5090565b604051806101c0016040528060008152602001606081526020016000600381111561401757614016614ce8565b5b815260200160008152602001600081526020016000815260200160008152602001606081526020016060815260200160608152602001600073ffffffffffffffffffffffffffffffffffffffff1681526020016000815260200160008152602001600081525090565b5b80821115614099576000816000905550600101614081565b5090565b60006140b06140ab8461492e565b614909565b9050828152602081018484840111156140cc576140cb614da9565b5b6140d7848285614b9c565b509392505050565b6000813590506140ee81614ddd565b92915050565b600082601f83011261410957614108614da4565b5b813561411984826020860161409d565b91505092915050565b60008135905061413181614df4565b92915050565b60006020828403121561414d5761414c614db3565b5b600061415b848285016140df565b91505092915050565b6000806040838503121561417b5761417a614db3565b5b6000614189858286016140df565b925050602061419a85828601614122565b9150509250929050565b6000602082840312156141ba576141b9614db3565b5b600082013567ffffffffffffffff8111156141d8576141d7614dae565b5b6141e4848285016140f4565b91505092915050565b60006020828403121561420357614202614db3565b5b600061421184828501614122565b91505092915050565b6000806000806080858703121561423457614233614db3565b5b600061424287828801614122565b945050602085013567ffffffffffffffff81111561426357614262614dae565b5b61426f878288016140f4565b935050604085013567ffffffffffffffff8111156142905761428f614dae565b5b61429c878288016140f4565b925050606085013567ffffffffffffffff8111156142bd576142bc614dae565b5b6142c9878288016140f4565b91505092959194509250565b60006142e18383614331565b60208301905092915050565b60006142f983836144de565b60208301905092915050565b6000614311838361451a565b905092915050565b600061432583836146cf565b60208301905092915050565b61433a81614b2f565b82525050565b61434981614b2f565b82525050565b600061435a8261499f565b6143648185614a0a565b935061436f8361495f565b8060005b838110156143a057815161438788826142d5565b9750614392836149d6565b925050600181019050614373565b5085935050505092915050565b60006143b8826149aa565b6143c28185614a1b565b93506143cd8361496f565b8060005b838110156143fe5781516143e588826142ed565b97506143f0836149e3565b9250506001810190506143d1565b5085935050505092915050565b6000614416826149b5565b6144208185614a2c565b9350836020820285016144328561497f565b8060005b8581101561446e578484038952815161444f8582614305565b945061445a836149f0565b925060208a01995050600181019050614436565b50829750879550505050505092915050565b600061448b826149c0565b6144958185614a3d565b93506144a08361498f565b8060005b838110156144d15781516144b88882614319565b97506144c3836149fd565b9250506001810190506144a4565b5085935050505092915050565b6144e781614b41565b82525050565b6144f681614b41565b82525050565b61450581614b8a565b82525050565b61451481614b8a565b82525050565b6000614525826149cb565b61452f8185614a4e565b935061453f818560208601614bab565b61454881614db8565b840191505092915050565b600061455e826149cb565b6145688185614a5f565b9350614578818560208601614bab565b61458181614db8565b840191505092915050565b60006101c0830160008301516145a560008601826146cf565b50602083015184820360208601526145bd828261451a565b91505060408301516145d260408601826144fc565b5060608301516145e560608601826146cf565b5060808301516145f860808601826146cf565b5060a083015161460b60a08601826146cf565b5060c083015161461e60c08601826146cf565b5060e083015184820360e0860152614636828261451a565b915050610100830151848203610100860152614652828261451a565b91505061012083015184820361012086015261466e828261451a565b915050610140830151614685610140860182614331565b5061016083015161469a6101608601826146cf565b506101808301516146af6101808601826146cf565b506101a08301516146c46101a08601826146cf565b508091505092915050565b6146d881614b80565b82525050565b6146e781614b80565b82525050565b60006020820190506147026000830184614340565b92915050565b60006020820190508181036000830152614722818461434f565b905092915050565b60006040820190508181036000830152614744818561434f565b9050818103602083015261475881846143ad565b90509392505050565b6000602082019050818103600083015261477b81846143ad565b905092915050565b6000602082019050818103600083015261479d818461440b565b905092915050565b600060208201905081810360008301526147bf8184614480565b905092915050565b60006020820190506147dc60008301846144ed565b92915050565b600060a0820190506147f7600083018861450b565b61480460208301876146de565b61481160408301866146de565b61481e60608301856146de565b61482b60808301846146de565b9695505050505050565b6000602082019050818103600083015261484f8184614553565b905092915050565b600060608201905081810360008301526148718186614553565b905081810360208301526148858185614553565b905081810360408301526148998184614553565b9050949350505050565b600060208201905081810360008301526148bd818461458c565b905092915050565b60006020820190506148da60008301846146de565b92915050565b60006040820190506148f560008301856146de565b61490260208301846146de565b9392505050565b6000614913614924565b905061491f8282614c10565b919050565b6000604051905090565b600067ffffffffffffffff82111561494957614948614d75565b5b61495282614db8565b9050602081019050919050565b6000819050602082019050919050565b6000819050602082019050919050565b6000819050602082019050919050565b6000819050602082019050919050565b600081519050919050565b600081519050919050565b600081519050919050565b600081519050919050565b600081519050919050565b6000602082019050919050565b6000602082019050919050565b6000602082019050919050565b6000602082019050919050565b600082825260208201905092915050565b600082825260208201905092915050565b600082825260208201905092915050565b600082825260208201905092915050565b600082825260208201905092915050565b600082825260208201905092915050565b6000614a7b82614b80565b9150614a8683614b80565b925082614a9657614a95614cb9565b5b828204905092915050565b6000614aac82614b80565b9150614ab783614b80565b9250817fffffffffffffffffffffffffffffffffffffffffffffffffffffffffffffffff0483118215151615614af057614aef614c8a565b5b828202905092915050565b6000614b0682614b80565b9150614b1183614b80565b925082821015614b2457614b23614c8a565b5b828203905092915050565b6000614b3a82614b60565b9050919050565b60008115159050919050565b6000819050614b5b82614dc9565b919050565b600073ffffffffffffffffffffffffffffffffffffffff82169050919050565b6000819050919050565b6000614b9582614b4d565b9050919050565b82818337600083830152505050565b60005b83811015614bc9578082015181840152602081019050614bae565b83811115614bd8576000848401525b50505050565b60006002820490506001821680614bf657607f821691505b60208210811415614c0a57614c09614d17565b5b50919050565b614c1982614db8565b810181811067ffffffffffffffff82111715614c3857614c37614d75565b5b80604052505050565b6000614c4c82614b80565b91507fffffffffffffffffffffffffffffffffffffffffffffffffffffffffffffffff821415614c7f57614c7e614c8a565b5b600182019050919050565b7f4e487b7100000000000000000000000000000000000000000000000000000000600052601160045260246000fd5b7f4e487b7100000000000000000000000000000000000000000000000000000000600052601260045260246000fd5b7f4e487b7100000000000000000000000000000000000000000000000000000000600052602160045260246000fd5b7f4e487b7100000000000000000000000000000000000000000000000000000000600052602260045260246000fd5b7f4e487b7100000000000000000000000000000000000000000000000000000000600052603260045260246000fd5b7f4e487b7100000000000000000000000000000000000000000000000000000000600052604160045260246000fd5b600080fd5b600080fd5b600080fd5b600080fd5b6000601f19601f8301169050919050565b60048110614dda57614dd9614ce8565b5b50565b614de681614b2f565b8114614df157600080fd5b50565b614dfd81614b80565b8114614e0857600080fd5b5056fea26469706673582212201704c86561d17e49bfd1596b810f4dc6b22166ceed74e04762a94ddaac4805ae64736f6c63430008060033",
  "immutableReferences": {},
  "source": "// SPDX-License-Identifier: MIT\npragma solidity ^0.8.0;\n\nimport \"../roles/AdminsManager.sol\";\n\ncontract EthDropCore is AdminsManager {\n    // Set in case the core contract is broken and an upgrade is required\n    address public newContractAddress;\n\n    /// @notice Creates the main EthDrop smart contract instance.\n    constructor () {\n        // Starts paused.\n\n        // TODO \n        paused = false;\n\n        // the creator of the contract is the initial CEO\n        ceoAddress = msg.sender;\n\n    }\n\n    /// @dev Used to mark the smart contract as upgraded, in case there is a serious\n    ///  breaking bug. This method does nothing but keep track of the new contract and\n    ///  emit a message indicating that the new address is set. It's up to clients of this\n    ///  contract to update to the new contract address in that case. (This contract will\n    ///  be paused indefinitely if such an upgrade takes place.)\n    /// @param _v2Address new address\n    function setNewAddress(address _v2Address) external onlyCEO whenPaused {\n        // See README.md for updgrade plan\n        newContractAddress = _v2Address;\n        emit ContractUpgrade(_v2Address);\n    }\n\n    function foobar() external pure returns (string memory) {\n        return \"foobarrrrrrr!\";\n    }\n}",
  "sourcePath": "/Users/jim/Git-Projects/EthDrop/contracts/core/EthDropCore.sol",
  "compiler": {
    "name": "solc",
    "version": "0.8.6+commit.11564f7e.Emscripten.clang"
  },
  "schemaVersion": "3.4.1",
  "updatedAt": "2021-07-24T17:16:42.099Z",
  "networkType": "ethereum",
  "devdoc": {
    "kind": "dev",
    "methods": {
      "pause()": {
        "details": "Called by any \"C-level\" role to pause the contract. Used only when  a bug or exploit is detected and we need to limit damage."
      },
      "setCEO(address)": {
        "details": "Assigns a new address to act as the CEO. Only available to the current CEO.",
        "params": {
          "_newCEO": "The address of the new CEO"
        }
      },
      "setCFO(address)": {
        "details": "Assigns a new address to act as the CFO. Only available to the current CEO.",
        "params": {
          "_newCFO": "The address of the new CFO"
        }
      },
      "setCOO(address)": {
        "details": "Assigns a new address to act as the COO. Only available to the current CEO.",
        "params": {
          "_newCOO": "The address of the new COO"
        }
      },
      "setNewAddress(address)": {
        "details": "Used to mark the smart contract as upgraded, in case there is a serious  breaking bug. This method does nothing but keep track of the new contract and  emit a message indicating that the new address is set. It's up to clients of this  contract to update to the new contract address in that case. (This contract will  be paused indefinitely if such an upgrade takes place.)",
        "params": {
          "_v2Address": "new address"
        }
      },
      "unpause()": {
        "details": "Unpauses the smart contract. Can only be called by the CEO, since  one reason we may pause the contract is when CFO or COO accounts are  compromised."
      }
    },
    "version": 1
  },
  "userdoc": {
    "kind": "user",
    "methods": {
      "constructor": {
        "notice": "Creates the main EthDrop smart contract instance."
      },
      "unpause()": {
        "notice": "This is public rather than external so it can be called by  derived contracts."
      }
    },
    "version": 1
  }
}