{
  "contractName": "EthDropCore",
  "abi": [
    {
      "inputs": [],
      "stateMutability": "nonpayable",
      "type": "constructor"
    },
    {
      "anonymous": false,
      "inputs": [
        {
          "indexed": false,
          "internalType": "uint256",
          "name": "groupId",
          "type": "uint256"
        }
      ],
      "name": "AdminAdded",
      "type": "event"
    },
    {
      "anonymous": false,
      "inputs": [
        {
          "indexed": false,
          "internalType": "uint256",
          "name": "groupId",
          "type": "uint256"
        }
      ],
      "name": "AdminRemoved",
      "type": "event"
    },
    {
      "anonymous": false,
      "inputs": [
        {
          "indexed": false,
          "internalType": "bool",
          "name": "isPaused",
          "type": "bool"
        }
      ],
      "name": "AppPaused",
      "type": "event"
    },
    {
      "anonymous": false,
      "inputs": [
        {
          "indexed": false,
          "internalType": "uint256",
          "name": "registeredRecipientCount",
          "type": "uint256"
        },
        {
          "indexed": false,
          "internalType": "uint256",
          "name": "winningsPerRecipient",
          "type": "uint256"
        }
      ],
      "name": "CalculatedPot",
      "type": "event"
    },
    {
      "anonymous": false,
      "inputs": [],
      "name": "CfoUpdated",
      "type": "event"
    },
    {
      "anonymous": false,
      "inputs": [
        {
          "indexed": false,
          "internalType": "address",
          "name": "newContract",
          "type": "address"
        }
      ],
      "name": "ContractUpgrade",
      "type": "event"
    },
    {
      "anonymous": false,
      "inputs": [
        {
          "indexed": true,
          "internalType": "address",
          "name": "account",
          "type": "address"
        },
        {
          "indexed": false,
          "internalType": "uint256",
          "name": "groupId",
          "type": "uint256"
        },
        {
          "indexed": false,
          "internalType": "uint256",
          "name": "amount",
          "type": "uint256"
        }
      ],
      "name": "ContributionMade",
      "type": "event"
    },
    {
      "anonymous": false,
      "inputs": [
        {
          "indexed": true,
          "internalType": "address",
          "name": "account",
          "type": "address"
        },
        {
          "indexed": false,
          "internalType": "uint256",
          "name": "groupId",
          "type": "uint256"
        }
      ],
      "name": "ContributorAdded",
      "type": "event"
    },
    {
      "anonymous": false,
      "inputs": [
        {
          "indexed": false,
          "internalType": "uint256",
          "name": "groupId",
          "type": "uint256"
        },
        {
          "indexed": false,
          "internalType": "address",
          "name": "newContributor",
          "type": "address"
        }
      ],
      "name": "ContributorAddressUpdated",
      "type": "event"
    },
    {
      "anonymous": false,
      "inputs": [
        {
          "indexed": false,
          "internalType": "uint256",
          "name": "groupId",
          "type": "uint256"
        },
        {
          "indexed": false,
          "internalType": "string",
          "name": "sponsorName",
          "type": "string"
        },
        {
          "indexed": false,
          "internalType": "string",
          "name": "imgUrl",
          "type": "string"
        },
        {
          "indexed": false,
          "internalType": "string",
          "name": "imgLinkToUrl",
          "type": "string"
        }
      ],
      "name": "ContributorInfoUpdated",
      "type": "event"
    },
    {
      "anonymous": false,
      "inputs": [
        {
          "indexed": true,
          "internalType": "address",
          "name": "account",
          "type": "address"
        },
        {
          "indexed": false,
          "internalType": "uint256",
          "name": "groupId",
          "type": "uint256"
        }
      ],
      "name": "ContributorRemoved",
      "type": "event"
    },
    {
      "anonymous": false,
      "inputs": [],
      "name": "CooUpdated",
      "type": "event"
    },
    {
      "anonymous": false,
      "inputs": [
        {
          "indexed": true,
          "internalType": "address",
          "name": "account",
          "type": "address"
        },
        {
          "indexed": false,
          "internalType": "uint256",
          "name": "groupId",
          "type": "uint256"
        }
      ],
      "name": "EligibleRecipientAdded",
      "type": "event"
    },
    {
      "anonymous": false,
      "inputs": [
        {
          "indexed": true,
          "internalType": "address",
          "name": "account",
          "type": "address"
        },
        {
          "indexed": false,
          "internalType": "uint256",
          "name": "groupId",
          "type": "uint256"
        }
      ],
      "name": "EligibleRecipientRemoved",
      "type": "event"
    },
    {
      "anonymous": false,
      "inputs": [],
      "name": "EventClose",
      "type": "event"
    },
    {
      "anonymous": false,
      "inputs": [
        {
          "indexed": true,
          "internalType": "address",
          "name": "endedBy",
          "type": "address"
        },
        {
          "indexed": false,
          "internalType": "uint256",
          "name": "groupId",
          "type": "uint256"
        }
      ],
      "name": "EventEnded",
      "type": "event"
    },
    {
      "anonymous": false,
      "inputs": [
        {
          "indexed": true,
          "internalType": "address",
          "name": "startedBy",
          "type": "address"
        },
        {
          "indexed": false,
          "internalType": "uint256",
          "name": "groupId",
          "type": "uint256"
        }
      ],
      "name": "EventStarted",
      "type": "event"
    },
    {
      "anonymous": false,
      "inputs": [
        {
          "indexed": false,
          "internalType": "string",
          "name": "groupName",
          "type": "string"
        },
        {
          "indexed": false,
          "internalType": "uint256",
          "name": "groupId",
          "type": "uint256"
        }
      ],
      "name": "GroupCreated",
      "type": "event"
    },
    {
      "anonymous": false,
      "inputs": [
        {
          "indexed": true,
          "internalType": "address",
          "name": "account",
          "type": "address"
        },
        {
          "indexed": false,
          "internalType": "uint256",
          "name": "groupId",
          "type": "uint256"
        }
      ],
      "name": "RecipientRegistered",
      "type": "event"
    },
    {
      "anonymous": false,
      "inputs": [
        {
          "indexed": true,
          "internalType": "address",
          "name": "endedBy",
          "type": "address"
        },
        {
          "indexed": false,
          "internalType": "uint256",
          "name": "groupId",
          "type": "uint256"
        }
      ],
      "name": "RegistrationEnded",
      "type": "event"
    },
    {
      "anonymous": false,
      "inputs": [],
      "name": "RegistrationOpen",
      "type": "event"
    },
    {
      "anonymous": false,
      "inputs": [
        {
          "indexed": false,
          "internalType": "address",
          "name": "from",
          "type": "address"
        },
        {
          "indexed": false,
          "internalType": "address",
          "name": "to",
          "type": "address"
        }
      ],
      "name": "Transfer",
      "type": "event"
    },
    {
      "anonymous": false,
      "inputs": [
        {
          "indexed": true,
          "internalType": "address",
          "name": "account",
          "type": "address"
        },
        {
          "indexed": false,
          "internalType": "uint256",
          "name": "groupId",
          "type": "uint256"
        }
      ],
      "name": "WinningsClaimed",
      "type": "event"
    },
    {
      "anonymous": false,
      "inputs": [],
      "name": "WinningsClaimingOpen",
      "type": "event"
    },
    {
      "inputs": [
        {
          "internalType": "address",
          "name": "account",
          "type": "address"
        },
        {
          "internalType": "uint256",
          "name": "groupId",
          "type": "uint256"
        }
      ],
      "name": "addAdmin",
      "outputs": [],
      "stateMutability": "nonpayable",
      "type": "function"
    },
    {
      "inputs": [
        {
          "internalType": "address",
          "name": "account",
          "type": "address"
        },
        {
          "internalType": "string",
          "name": "name",
          "type": "string"
        },
        {
          "internalType": "uint256",
          "name": "groupId",
          "type": "uint256"
        }
      ],
      "name": "addEligibleRecipient",
      "outputs": [],
      "stateMutability": "nonpayable",
      "type": "function"
    },
    {
      "inputs": [
        {
          "internalType": "uint256",
          "name": "groupId",
          "type": "uint256"
        }
      ],
      "name": "amIAdmin",
      "outputs": [
        {
          "internalType": "bool",
          "name": "",
          "type": "bool"
        }
      ],
      "stateMutability": "view",
      "type": "function",
      "constant": true
    },
    {
      "inputs": [
        {
          "internalType": "uint256",
          "name": "groupId",
          "type": "uint256"
        }
      ],
      "name": "amIContributor",
      "outputs": [
        {
          "internalType": "bool",
          "name": "",
          "type": "bool"
        }
      ],
      "stateMutability": "view",
      "type": "function",
      "constant": true
    },
    {
      "inputs": [
        {
          "internalType": "uint256",
          "name": "groupId",
          "type": "uint256"
        }
      ],
      "name": "amIEligibleRecipient",
      "outputs": [
        {
          "internalType": "bool",
          "name": "",
          "type": "bool"
        }
      ],
      "stateMutability": "view",
      "type": "function",
      "constant": true
    },
    {
      "inputs": [
        {
          "internalType": "uint256",
          "name": "groupId",
          "type": "uint256"
        }
      ],
      "name": "amIRegisteredRecipient",
      "outputs": [
        {
          "internalType": "bool",
          "name": "",
          "type": "bool"
        }
      ],
      "stateMutability": "view",
      "type": "function",
      "constant": true
    },
    {
      "inputs": [],
      "name": "ceoAddress",
      "outputs": [
        {
          "internalType": "address",
          "name": "",
          "type": "address"
        }
      ],
      "stateMutability": "view",
      "type": "function",
      "constant": true
    },
    {
      "inputs": [],
      "name": "cfoAddress",
      "outputs": [
        {
          "internalType": "address",
          "name": "",
          "type": "address"
        }
      ],
      "stateMutability": "view",
      "type": "function",
      "constant": true
    },
    {
      "inputs": [
        {
          "internalType": "address",
          "name": "account",
          "type": "address"
        },
        {
          "internalType": "uint256",
          "name": "groupId",
          "type": "uint256"
        }
      ],
      "name": "changeContributor",
      "outputs": [],
      "stateMutability": "nonpayable",
      "type": "function"
    },
    {
      "inputs": [
        {
          "internalType": "uint256",
          "name": "groupId",
          "type": "uint256"
        }
      ],
      "name": "claimWinnings",
      "outputs": [],
      "stateMutability": "nonpayable",
      "type": "function"
    },
    {
      "inputs": [
        {
          "internalType": "uint256",
          "name": "groupId",
          "type": "uint256"
        }
      ],
      "name": "closeEventRegistration",
      "outputs": [],
      "stateMutability": "nonpayable",
      "type": "function"
    },
    {
      "inputs": [
        {
          "internalType": "uint256",
          "name": "groupId",
          "type": "uint256"
        }
      ],
      "name": "contributeToPot",
      "outputs": [],
      "stateMutability": "payable",
      "type": "function",
      "payable": true
    },
    {
      "inputs": [],
      "name": "cooAddress",
      "outputs": [
        {
          "internalType": "address",
          "name": "",
          "type": "address"
        }
      ],
      "stateMutability": "view",
      "type": "function",
      "constant": true
    },
    {
      "inputs": [
        {
          "internalType": "string",
          "name": "groupName",
          "type": "string"
        }
      ],
      "name": "createNewGroup",
      "outputs": [],
      "stateMutability": "nonpayable",
      "type": "function"
    },
    {
      "inputs": [
        {
          "internalType": "uint256",
          "name": "groupId",
          "type": "uint256"
        }
      ],
      "name": "doIHaveClaimableWinnings",
      "outputs": [
        {
          "internalType": "bool",
          "name": "",
          "type": "bool"
        }
      ],
      "stateMutability": "view",
      "type": "function",
      "constant": true
    },
    {
      "inputs": [
        {
          "internalType": "uint256",
          "name": "groupId",
          "type": "uint256"
        }
      ],
      "name": "endEvent",
      "outputs": [],
      "stateMutability": "nonpayable",
      "type": "function"
    },
    {
      "inputs": [
        {
          "internalType": "uint256",
          "name": "groupId",
          "type": "uint256"
        }
      ],
      "name": "getAddressNextAdminIndex",
      "outputs": [
        {
          "internalType": "uint256",
          "name": "",
          "type": "uint256"
        }
      ],
      "stateMutability": "view",
      "type": "function",
      "constant": true
    },
    {
      "inputs": [
        {
          "internalType": "uint256",
          "name": "groupId",
          "type": "uint256"
        }
      ],
      "name": "getAdminsForGroup",
      "outputs": [
        {
          "internalType": "address[]",
          "name": "",
          "type": "address[]"
        },
        {
          "internalType": "bool[]",
          "name": "",
          "type": "bool[]"
        }
      ],
      "stateMutability": "view",
      "type": "function",
      "constant": true
    },
    {
      "inputs": [],
      "name": "getCFO",
      "outputs": [
        {
          "internalType": "address",
          "name": "",
          "type": "address"
        }
      ],
      "stateMutability": "view",
      "type": "function",
      "constant": true
    },
    {
      "inputs": [],
      "name": "getCOO",
      "outputs": [
        {
          "internalType": "address",
          "name": "",
          "type": "address"
        }
      ],
      "stateMutability": "view",
      "type": "function",
      "constant": true
    },
    {
      "inputs": [
        {
          "internalType": "uint256",
          "name": "groupId",
          "type": "uint256"
        }
      ],
      "name": "getContributorInfo",
      "outputs": [
        {
          "internalType": "string",
          "name": "newContributorName",
          "type": "string"
        },
        {
          "internalType": "string",
          "name": "newContributorImgUrl",
          "type": "string"
        },
        {
          "internalType": "string",
          "name": "newContributorLinkToUrl",
          "type": "string"
        }
      ],
      "stateMutability": "view",
      "type": "function",
      "constant": true
    },
    {
      "inputs": [
        {
          "internalType": "uint256",
          "name": "groupId",
          "type": "uint256"
        }
      ],
      "name": "getCurrentSponsorAddress",
      "outputs": [
        {
          "internalType": "address",
          "name": "",
          "type": "address"
        }
      ],
      "stateMutability": "view",
      "type": "function",
      "constant": true
    },
    {
      "inputs": [
        {
          "internalType": "uint256",
          "name": "groupId",
          "type": "uint256"
        }
      ],
      "name": "getEligibleRecipientAddresses",
      "outputs": [
        {
          "internalType": "address[]",
          "name": "",
          "type": "address[]"
        }
      ],
      "stateMutability": "view",
      "type": "function",
      "constant": true
    },
    {
      "inputs": [
        {
          "internalType": "uint256",
          "name": "groupId",
          "type": "uint256"
        }
      ],
      "name": "getEligibleRecipientIsEligibilityEnabled",
      "outputs": [
        {
          "internalType": "bool[]",
          "name": "",
          "type": "bool[]"
        }
      ],
      "stateMutability": "view",
      "type": "function",
      "constant": true
    },
    {
      "inputs": [
        {
          "internalType": "uint256",
          "name": "groupId",
          "type": "uint256"
        }
      ],
      "name": "getEligibleRecipientNames",
      "outputs": [
        {
          "internalType": "string[]",
          "name": "",
          "type": "string[]"
        }
      ],
      "stateMutability": "view",
      "type": "function",
      "constant": true
    },
    {
      "inputs": [
        {
          "internalType": "uint256",
          "name": "groupId",
          "type": "uint256"
        }
      ],
      "name": "getGroupEventData",
      "outputs": [
        {
          "internalType": "enum EthDropBase.EventState",
          "name": "",
          "type": "uint8"
        },
        {
          "internalType": "uint256",
          "name": "",
          "type": "uint256"
        },
        {
          "internalType": "uint256",
          "name": "",
          "type": "uint256"
        },
        {
          "internalType": "uint256",
          "name": "",
          "type": "uint256"
        },
        {
          "internalType": "uint256",
          "name": "",
          "type": "uint256"
        }
      ],
      "stateMutability": "view",
      "type": "function",
      "constant": true
    },
    {
      "inputs": [],
      "name": "getGroupIds",
      "outputs": [
        {
          "internalType": "uint256[]",
          "name": "",
          "type": "uint256[]"
        }
      ],
      "stateMutability": "view",
      "type": "function",
      "constant": true
    },
    {
      "inputs": [],
      "name": "getGroupNames",
      "outputs": [
        {
          "internalType": "string[]",
          "name": "",
          "type": "string[]"
        }
      ],
      "stateMutability": "view",
      "type": "function",
      "constant": true
    },
    {
      "inputs": [
        {
          "internalType": "uint256",
          "name": "groupId",
          "type": "uint256"
        }
      ],
      "name": "getMyAdminIndex",
      "outputs": [
        {
          "internalType": "uint256",
          "name": "",
          "type": "uint256"
        }
      ],
      "stateMutability": "view",
      "type": "function",
      "constant": true
    },
    {
      "inputs": [
        {
          "internalType": "uint256",
          "name": "groupId",
          "type": "uint256"
        }
      ],
      "name": "getRegisteredRecipientNames",
      "outputs": [
        {
          "internalType": "string[]",
          "name": "",
          "type": "string[]"
        }
      ],
      "stateMutability": "view",
      "type": "function",
      "constant": true
    },
    {
      "inputs": [
        {
          "internalType": "uint256",
          "name": "groupId",
          "type": "uint256"
        }
      ],
      "name": "getRegisteredRecipients",
      "outputs": [
        {
          "internalType": "address[]",
          "name": "",
          "type": "address[]"
        }
      ],
      "stateMutability": "view",
      "type": "function",
      "constant": true
    },
    {
      "inputs": [],
      "name": "getString",
      "outputs": [
        {
          "internalType": "string",
          "name": "",
          "type": "string"
        }
      ],
      "stateMutability": "view",
      "type": "function",
      "constant": true
    },
    {
      "inputs": [
        {
          "internalType": "address",
          "name": "account",
          "type": "address"
        },
        {
          "internalType": "uint256",
          "name": "groupId",
          "type": "uint256"
        }
      ],
      "name": "isAdmin",
      "outputs": [
        {
          "internalType": "bool",
          "name": "",
          "type": "bool"
        }
      ],
      "stateMutability": "view",
      "type": "function",
      "constant": true
    },
    {
      "inputs": [],
      "name": "isCEO",
      "outputs": [
        {
          "internalType": "bool",
          "name": "",
          "type": "bool"
        }
      ],
      "stateMutability": "view",
      "type": "function",
      "constant": true
    },
    {
      "inputs": [],
      "name": "isCFO",
      "outputs": [
        {
          "internalType": "bool",
          "name": "",
          "type": "bool"
        }
      ],
      "stateMutability": "view",
      "type": "function",
      "constant": true
    },
    {
      "inputs": [],
      "name": "isCOO",
      "outputs": [
        {
          "internalType": "bool",
          "name": "",
          "type": "bool"
        }
      ],
      "stateMutability": "view",
      "type": "function",
      "constant": true
    },
    {
      "inputs": [
        {
          "internalType": "address",
          "name": "account",
          "type": "address"
        },
        {
          "internalType": "uint256",
          "name": "groupId",
          "type": "uint256"
        }
      ],
      "name": "isContributor",
      "outputs": [
        {
          "internalType": "bool",
          "name": "",
          "type": "bool"
        }
      ],
      "stateMutability": "view",
      "type": "function",
      "constant": true
    },
    {
      "inputs": [
        {
          "internalType": "address",
          "name": "account",
          "type": "address"
        },
        {
          "internalType": "uint256",
          "name": "groupId",
          "type": "uint256"
        }
      ],
      "name": "isEligibleRecipient",
      "outputs": [
        {
          "internalType": "bool",
          "name": "",
          "type": "bool"
        }
      ],
      "stateMutability": "view",
      "type": "function",
      "constant": true
    },
    {
      "inputs": [],
      "name": "isPaused",
      "outputs": [
        {
          "internalType": "bool",
          "name": "",
          "type": "bool"
        }
      ],
      "stateMutability": "view",
      "type": "function",
      "constant": true
    },
    {
      "inputs": [
        {
          "internalType": "address",
          "name": "account",
          "type": "address"
        },
        {
          "internalType": "uint256",
          "name": "groupId",
          "type": "uint256"
        }
      ],
      "name": "isRegisteredRecipient",
      "outputs": [
        {
          "internalType": "bool",
          "name": "",
          "type": "bool"
        }
      ],
      "stateMutability": "view",
      "type": "function",
      "constant": true
    },
    {
      "inputs": [],
      "name": "newContractAddress",
      "outputs": [
        {
          "internalType": "address",
          "name": "",
          "type": "address"
        }
      ],
      "stateMutability": "view",
      "type": "function",
      "constant": true
    },
    {
      "inputs": [],
      "name": "pause",
      "outputs": [],
      "stateMutability": "nonpayable",
      "type": "function"
    },
    {
      "inputs": [],
      "name": "paused",
      "outputs": [
        {
          "internalType": "bool",
          "name": "",
          "type": "bool"
        }
      ],
      "stateMutability": "view",
      "type": "function",
      "constant": true
    },
    {
      "inputs": [
        {
          "internalType": "uint256",
          "name": "groupId",
          "type": "uint256"
        }
      ],
      "name": "readEventInfo",
      "outputs": [
        {
          "components": [
            {
              "internalType": "uint256",
              "name": "groupId",
              "type": "uint256"
            },
            {
              "internalType": "string",
              "name": "groupName",
              "type": "string"
            },
            {
              "internalType": "enum EthDropBase.EventState",
              "name": "currentState",
              "type": "uint8"
            },
            {
              "internalType": "uint256",
              "name": "startTime",
              "type": "uint256"
            },
            {
              "internalType": "uint256",
              "name": "registrationEndTime",
              "type": "uint256"
            },
            {
              "internalType": "uint256",
              "name": "endTime",
              "type": "uint256"
            },
            {
              "internalType": "uint256",
              "name": "registeredRecipientsCount",
              "type": "uint256"
            },
            {
              "internalType": "string",
              "name": "sponsorName",
              "type": "string"
            },
            {
              "internalType": "string",
              "name": "sponsorImageUrl",
              "type": "string"
            },
            {
              "internalType": "string",
              "name": "sponsorLinkToUrl",
              "type": "string"
            },
            {
              "internalType": "address",
              "name": "currentContributor",
              "type": "address"
            },
            {
              "internalType": "uint256",
              "name": "totalAmountContributed",
              "type": "uint256"
            },
            {
              "internalType": "uint256",
              "name": "weiWinnings",
              "type": "uint256"
            },
            {
              "internalType": "uint256",
              "name": "numberOfUsersWhoClaimedWinnings",
              "type": "uint256"
            }
          ],
          "internalType": "struct EthDropBase.EthDropEvent",
          "name": "",
          "type": "tuple"
        }
      ],
      "stateMutability": "view",
      "type": "function",
      "constant": true
    },
    {
      "inputs": [
        {
          "internalType": "uint256",
          "name": "groupId",
          "type": "uint256"
        }
      ],
      "name": "registerForEvent",
      "outputs": [],
      "stateMutability": "nonpayable",
      "type": "function"
    },
    {
      "inputs": [
        {
          "internalType": "address",
          "name": "account",
          "type": "address"
        },
        {
          "internalType": "uint256",
          "name": "groupId",
          "type": "uint256"
        }
      ],
      "name": "removeAdmin",
      "outputs": [],
      "stateMutability": "nonpayable",
      "type": "function"
    },
    {
      "inputs": [
        {
          "internalType": "address",
          "name": "account",
          "type": "address"
        },
        {
          "internalType": "uint256",
          "name": "groupId",
          "type": "uint256"
        }
      ],
      "name": "removeEligibleRecipient",
      "outputs": [],
      "stateMutability": "nonpayable",
      "type": "function"
    },
    {
      "inputs": [
        {
          "internalType": "uint256",
          "name": "groupId",
          "type": "uint256"
        }
      ],
      "name": "renounceAdmin",
      "outputs": [],
      "stateMutability": "nonpayable",
      "type": "function"
    },
    {
      "inputs": [
        {
          "internalType": "address",
          "name": "_newCEO",
          "type": "address"
        }
      ],
      "name": "setCEO",
      "outputs": [],
      "stateMutability": "nonpayable",
      "type": "function"
    },
    {
      "inputs": [
        {
          "internalType": "address",
          "name": "_newCFO",
          "type": "address"
        }
      ],
      "name": "setCFO",
      "outputs": [],
      "stateMutability": "nonpayable",
      "type": "function"
    },
    {
      "inputs": [
        {
          "internalType": "address",
          "name": "_newCOO",
          "type": "address"
        }
      ],
      "name": "setCOO",
      "outputs": [],
      "stateMutability": "nonpayable",
      "type": "function"
    },
    {
      "inputs": [
        {
          "internalType": "string",
          "name": "_s",
          "type": "string"
        }
      ],
      "name": "setString",
      "outputs": [],
      "stateMutability": "nonpayable",
      "type": "function"
    },
    {
      "inputs": [
        {
          "internalType": "uint256",
          "name": "groupId",
          "type": "uint256"
        }
      ],
      "name": "startEvent",
      "outputs": [],
      "stateMutability": "nonpayable",
      "type": "function"
    },
    {
      "inputs": [],
      "name": "stringgg",
      "outputs": [
        {
          "internalType": "string",
          "name": "",
          "type": "string"
        }
      ],
      "stateMutability": "view",
      "type": "function",
      "constant": true
    },
    {
      "inputs": [],
      "name": "unpause",
      "outputs": [
        {
          "internalType": "bool",
          "name": "",
          "type": "bool"
        }
      ],
      "stateMutability": "nonpayable",
      "type": "function"
    },
    {
      "inputs": [
        {
          "internalType": "uint256",
          "name": "groupId",
          "type": "uint256"
        },
        {
          "internalType": "string",
          "name": "newContributorName",
          "type": "string"
        },
        {
          "internalType": "string",
          "name": "newContributorImgUrl",
          "type": "string"
        },
        {
          "internalType": "string",
          "name": "newContributorLinkToUrl",
          "type": "string"
        }
      ],
      "name": "updateContributorInfo",
      "outputs": [],
      "stateMutability": "nonpayable",
      "type": "function"
    },
    {
      "inputs": [],
      "name": "whoami",
      "outputs": [
        {
          "internalType": "address",
          "name": "",
          "type": "address"
        }
      ],
      "stateMutability": "view",
      "type": "function",
      "constant": true
    },
    {
      "inputs": [
        {
          "internalType": "address",
          "name": "_v2Address",
          "type": "address"
        }
      ],
      "name": "setNewAddress",
      "outputs": [],
      "stateMutability": "nonpayable",
      "type": "function"
    },
    {
      "inputs": [],
      "name": "foobar",
      "outputs": [
        {
          "internalType": "string",
          "name": "",
          "type": "string"
        }
      ],
      "stateMutability": "pure",
      "type": "function",
      "constant": true
    }
  ],
  "bytecode": "0x60806040526000600360146101000a81548160ff021916908315150217905550600560045534801561003057600080fd5b506000600360146101000a81548160ff02191690831515021790555033600160006101000a81548173ffffffffffffffffffffffffffffffffffffffff021916908373ffffffffffffffffffffffffffffffffffffffff160217905550615a6c806200009d6000396000f3fe60806040526004361061038c5760003560e01c80637d837ce5116101dc578063c02b8b2c11610102578063e62092be116100a0578063ee41b5921161006f578063ee41b59214610de4578063f4a02e7014610e21578063f89e9cb914610e4c578063fc5fd6e414610e895761038c565b8063e62092be14610d25578063e82f24e014610d62578063e9af9bca14610d7e578063ea303f0814610dbb5761038c565b8063c6e0ddfa116100dc578063c6e0ddfa14610c69578063d5f016c314610c92578063e33db42614610cbd578063e513b7a914610cfa5761038c565b8063c02b8b2c14610bea578063c271e80c14610c15578063c6db509414610c3e5761038c565b8063962ecff51161017a578063aea88a0511610149578063aea88a0514610b40578063b047fb5014610b69578063b187bd2614610b94578063b3b36bb314610bbf5761038c565b8063962ecff514610a74578063967cafbc14610ab15780639bda879614610ada578063a59a695314610b175761038c565b80638182aaf2116101b65780638182aaf2146109ca5780638456cb5914610a0757806389ea642f14610a1e5780639393ae3714610a495761038c565b80637d837ce51461093b5780637fcaf666146109785780637fcb29c9146109a15761038c565b806344b2983b116102c15780635e82c1fc1161025f5780636ebdec491161022e5780636ebdec491461088057806371587988146108be578063785142be146108e75780637b936ac2146109105761038c565b80635e82c1fc146107b0578063674811ca146107ed578063677bd9ff1461082c5780636af04a57146108555761038c565b80634e0a33791161029b5780634e0a3379146106e257806355b57ec11461070b57806356c9a339146107485780635c975abb146107855761038c565b806344b2983b14610627578063454432e2146106645780634635509b146106a15761038c565b806327d7874c1161032e578063330a347b11610308578063330a347b1461056d57806338f0b656146105965780633f4ba83a146105d3578063406db843146105fe5761038c565b806327d7874c146104f25780632ba73c151461051b57806330bb0115146105445761038c565b806307bfa3301161036a57806307bfa330146104245780630a0f8168146104615780630d82ffa01461048c57806315891ff4146104c95761038c565b80630519ce791461039157806305df75db146103bc57806306cc4922146103e7575b600080fd5b34801561039d57600080fd5b506103a6610eb4565b6040516103b39190615179565b60405180910390f35b3480156103c857600080fd5b506103d1610eda565b6040516103de91906152c1565b60405180910390f35b3480156103f357600080fd5b5061040e60048036038101906104099190614bc7565b610f17565b60405161041b9190615253565b60405180910390f35b34801561043057600080fd5b5061044b60048036038101906104469190614bc7565b610f44565b604051610458919061520f565b60405180910390f35b34801561046d57600080fd5b50610476611030565b6040516104839190615179565b60405180910390f35b34801561049857600080fd5b506104b360048036038101906104ae9190614bc7565b611056565b6040516104c09190615179565b60405180910390f35b3480156104d557600080fd5b506104f060048036038101906104eb9190614b3e565b611096565b005b3480156104fe57600080fd5b5061051960048036038101906105149190614aa2565b611180565b005b34801561052757600080fd5b50610542600480360381019061053d9190614aa2565b611258565b005b34801561055057600080fd5b5061056b60048036038101906105669190614bc7565b61135c565b005b34801561057957600080fd5b50610594600480360381019061058f9190614bc7565b61137e565b005b3480156105a257600080fd5b506105bd60048036038101906105b89190614bc7565b611968565b6040516105ca9190615253565b60405180910390f35b3480156105df57600080fd5b506105e8611995565b6040516105f59190615253565b60405180910390f35b34801561060a57600080fd5b5061062560048036038101906106209190614bc7565b611a3a565b005b34801561063357600080fd5b5061064e60048036038101906106499190614bc7565b611cee565b60405161065b9190615194565b60405180910390f35b34801561067057600080fd5b5061068b60048036038101906106869190614bc7565b611d8f565b604051610698919061520f565b60405180910390f35b3480156106ad57600080fd5b506106c860048036038101906106c39190614bc7565b611e7b565b6040516106d995949392919061526e565b60405180910390f35b3480156106ee57600080fd5b5061070960048036038101906107049190614aa2565b6121fe565b005b34801561071757600080fd5b50610732600480360381019061072d9190614bc7565b6122c8565b60405161073f91906151ed565b60405180910390f35b34801561075457600080fd5b5061076f600480360381019061076a9190614bc7565b612358565b60405161077c91906153a1565b60405180910390f35b34801561079157600080fd5b5061079a612375565b6040516107a79190615253565b60405180910390f35b3480156107bc57600080fd5b506107d760048036038101906107d29190614b3e565b612388565b6040516107e49190615253565b60405180910390f35b3480156107f957600080fd5b50610814600480360381019061080f9190614bc7565b612411565b604051610823939291906152e3565b60405180910390f35b34801561083857600080fd5b50610853600480360381019061084e9190614bc7565b612609565b005b34801561086157600080fd5b5061086a6127ee565b6040516108779190615179565b60405180910390f35b34801561088c57600080fd5b506108a760048036038101906108a29190614bc7565b612814565b6040516108b59291906151b6565b60405180910390f35b3480156108ca57600080fd5b506108e560048036038101906108e09190614aa2565b612945565b005b3480156108f357600080fd5b5061090e60048036038101906109099190614bc7565b612a33565b005b34801561091c57600080fd5b50610925612c68565b6040516109329190615179565b60405180910390f35b34801561094757600080fd5b50610962600480360381019061095d9190614b3e565b612c92565b60405161096f9190615253565b60405180910390f35b34801561098457600080fd5b5061099f600480360381019061099a9190614b7e565b612d1b565b005b3480156109ad57600080fd5b506109c860048036038101906109c39190614b3e565b612d35565b005b3480156109d657600080fd5b506109f160048036038101906109ec9190614b3e565b612dd4565b6040516109fe9190615253565b60405180910390f35b348015610a1357600080fd5b50610a1c612e5d565b005b348015610a2a57600080fd5b50610a33612f9e565b604051610a4091906152c1565b60405180910390f35b348015610a5557600080fd5b50610a5e613030565b604051610a6b9190615253565b60405180910390f35b348015610a8057600080fd5b50610a9b6004803603810190610a969190614bc7565b613088565b604051610aa89190615253565b60405180910390f35b348015610abd57600080fd5b50610ad86004803603810190610ad39190614acf565b61309b565b005b348015610ae657600080fd5b50610b016004803603810190610afc9190614bc7565b613302565b604051610b0e9190615194565b60405180910390f35b348015610b2357600080fd5b50610b3e6004803603810190610b399190614bc7565b6133a3565b005b348015610b4c57600080fd5b50610b676004803603810190610b629190614bf4565b61347d565b005b348015610b7557600080fd5b50610b7e6135b6565b604051610b8b9190615179565b60405180910390f35b348015610ba057600080fd5b50610ba96135dc565b604051610bb69190615253565b60405180910390f35b348015610bcb57600080fd5b50610bd46135f3565b604051610be19190615179565b60405180910390f35b348015610bf657600080fd5b50610bff6135fb565b604051610c0c9190615231565b60405180910390f35b348015610c2157600080fd5b50610c3c6004803603810190610c379190614b3e565b613653565b005b348015610c4a57600080fd5b50610c536136e8565b604051610c6091906152c1565b60405180910390f35b348015610c7557600080fd5b50610c906004803603810190610c8b9190614b3e565b613776565b005b348015610c9e57600080fd5b50610ca76137de565b604051610cb4919061520f565b60405180910390f35b348015610cc957600080fd5b50610ce46004803603810190610cdf9190614bc7565b6138b7565b604051610cf1919061537f565b60405180910390f35b348015610d0657600080fd5b50610d0f613c23565b604051610d1c9190615253565b60405180910390f35b348015610d3157600080fd5b50610d4c6004803603810190610d479190614b3e565b613c7b565b604051610d599190615253565b60405180910390f35b610d7c6004803603810190610d779190614bc7565b613d8d565b005b348015610d8a57600080fd5b50610da56004803603810190610da09190614bc7565b613e52565b604051610db291906153a1565b60405180910390f35b348015610dc757600080fd5b50610de26004803603810190610ddd9190614b7e565b613eac565b005b348015610df057600080fd5b50610e0b6004803603810190610e069190614bc7565b6141dd565b604051610e189190615253565b60405180910390f35b348015610e2d57600080fd5b50610e3661420a565b604051610e439190615253565b60405180910390f35b348015610e5857600080fd5b50610e736004803603810190610e6e9190614bc7565b614262565b604051610e809190615253565b60405180910390f35b348015610e9557600080fd5b50610e9e6142e9565b604051610eab9190615179565b60405180910390f35b600260009054906101000a900473ffffffffffffffffffffffffffffffffffffffff1681565b60606040518060400160405280600d81526020017f666f6f6261727272727272722100000000000000000000000000000000000000815250905090565b6000600360149054906101000a900460ff1615610f3357600080fd5b610f3d3383612388565b9050919050565b606060156000838152602001908152602001600020805480602002602001604051908101604052809291908181526020016000905b82821015611025578382906000526020600020018054610f98906157ba565b80601f0160208091040260200160405190810160405280929190818152602001828054610fc4906157ba565b80156110115780601f10610fe657610100808354040283529160200191611011565b820191906000526020600020905b815481529060010190602001808311610ff457829003601f168201915b505050505081526020019060010190610f79565b505050509050919050565b600160009054906101000a900473ffffffffffffffffffffffffffffffffffffffff1681565b600060076000838152602001908152602001600020600a0160009054906101000a900473ffffffffffffffffffffffffffffffffffffffff169050919050565b806110a13382613c7b565b6110aa57600080fd5b600360149054906101000a900460ff16156110c457600080fd5b60006010600084815260200190815260200160002060008573ffffffffffffffffffffffffffffffffffffffff1673ffffffffffffffffffffffffffffffffffffffff16815260200190815260200160002060006101000a81548160ff0219169083151502179055508273ffffffffffffffffffffffffffffffffffffffff167f1af6d16168d33745872119540d28858eed156c5f265206bbf1344fda39a93a338360405161117391906153a1565b60405180910390a2505050565b600160009054906101000a900473ffffffffffffffffffffffffffffffffffffffff1673ffffffffffffffffffffffffffffffffffffffff163373ffffffffffffffffffffffffffffffffffffffff16146111da57600080fd5b600073ffffffffffffffffffffffffffffffffffffffff168173ffffffffffffffffffffffffffffffffffffffff16141561121457600080fd5b80600160006101000a81548173ffffffffffffffffffffffffffffffffffffffff021916908373ffffffffffffffffffffffffffffffffffffffff16021790555050565b600160009054906101000a900473ffffffffffffffffffffffffffffffffffffffff1673ffffffffffffffffffffffffffffffffffffffff163373ffffffffffffffffffffffffffffffffffffffff16146112b257600080fd5b600073ffffffffffffffffffffffffffffffffffffffff168173ffffffffffffffffffffffffffffffffffffffff1614156112ec57600080fd5b80600360006101000a81548173ffffffffffffffffffffffffffffffffffffffff021916908373ffffffffffffffffffffffffffffffffffffffff1602179055507fa308298a77084def994b565be25bff2e8fbfe7006c2c6b2bacfb84d1ba1f635060405160405180910390a150565b806113673382613c7b565b61137057600080fd5b61137a3383614313565b5050565b806113893382613c7b565b806113e15750600360009054906101000a900473ffffffffffffffffffffffffffffffffffffffff1673ffffffffffffffffffffffffffffffffffffffff163373ffffffffffffffffffffffffffffffffffffffff16145b6113ea57600080fd5b600360149054906101000a900460ff161561140457600080fd5b42600760008481526020019081526020016000206005018190555060036007600084815260200190815260200160002060020160006101000a81548160ff02191690836003811115611459576114586158c4565b5b021790555060005b60076000848152602001908152602001600020600601548110156116035760006017600085815260200190815260200160002082815481106114a6576114a5615922565b5b9060005260206000200160009054906101000a900473ffffffffffffffffffffffffffffffffffffffff1690506016600085815260200190815260200160002060008273ffffffffffffffffffffffffffffffffffffffff1673ffffffffffffffffffffffffffffffffffffffff16815260200190815260200160002060006101000a81549060ff02191690556014600085815260200190815260200160002060008273ffffffffffffffffffffffffffffffffffffffff1673ffffffffffffffffffffffffffffffffffffffff168152602001908152602001600020600061158f919061479b565b600b600085815260200190815260200160002060008273ffffffffffffffffffffffffffffffffffffffff1673ffffffffffffffffffffffffffffffffffffffff16815260200190815260200160002060006101000a81549060ff02191690555080806115fb9061581d565b915050611461565b5060156000838152602001908152602001600020600061162391906147db565b60176000838152602001908152602001600020600061164291906147fc565b600860008381526020019081526020016000206007600084815260200190815260200160002090806001815401808255809150506001900390600052602060002090600e02016000909190919091506000820154816000015560018201816001019080546116af906157ba565b6116ba92919061481d565b506002820160009054906101000a900460ff168160020160006101000a81548160ff021916908360038111156116f3576116f26158c4565b5b0217905550600382015481600301556004820154816004015560058201548160050155600682015481600601556007820181600701908054611734906157ba565b61173f92919061481d565b506008820181600801908054611754906157ba565b61175f92919061481d565b506009820181600901908054611774906157ba565b61177f92919061481d565b50600a820160009054906101000a900473ffffffffffffffffffffffffffffffffffffffff1681600a0160006101000a81548173ffffffffffffffffffffffffffffffffffffffff021916908373ffffffffffffffffffffffffffffffffffffffff160217905550600b82015481600b0155600c82015481600c0155600d82015481600d0155505060006007600084815260200190815260200160002060060181905550600060076000848152602001908152602001600020600b0181905550600060076000848152602001908152602001600020600c0181905550600060076000848152602001908152602001600020600d01819055503373ffffffffffffffffffffffffffffffffffffffff167f5dc1fe5ab986a852c4eda8e8bb94247d13307065c593fb83f1a09be2736793828360006040516118c09291906153bc565b60405180910390a23373ffffffffffffffffffffffffffffffffffffffff167f0695e999be8100bdb5bee8612337296508d527eae78c65b8f170eacb5a3b439d8360405161190e91906153a1565b60405180910390a23373ffffffffffffffffffffffffffffffffffffffff167f6f45a19e8850c727d0de9f32e0d8691324a9a74ffb4347652e6404138b1d81658360405161195c91906153a1565b60405180910390a25050565b6000600360149054906101000a900460ff161561198457600080fd5b61198e3383612c92565b9050919050565b6000600160009054906101000a900473ffffffffffffffffffffffffffffffffffffffff1673ffffffffffffffffffffffffffffffffffffffff163373ffffffffffffffffffffffffffffffffffffffff16146119f157600080fd5b600360149054906101000a900460ff16611a0a57600080fd5b6000600360146101000a81548160ff021916908315150217905550600360149054906101000a900460ff16905090565b80611a453382612388565b611a4e57600080fd5b600360149054906101000a900460ff1615611a6857600080fd5b60016016600084815260200190815260200160002060003373ffffffffffffffffffffffffffffffffffffffff1673ffffffffffffffffffffffffffffffffffffffff16815260200190815260200160002060006101000a81548160ff02191690831515021790555060176000838152602001908152602001600020339080600181540180825580915050600190039060005260206000200160009091909190916101000a81548173ffffffffffffffffffffffffffffffffffffffff021916908373ffffffffffffffffffffffffffffffffffffffff16021790555060006014600084815260200190815260200160002060003373ffffffffffffffffffffffffffffffffffffffff1673ffffffffffffffffffffffffffffffffffffffff1681526020019081526020016000208054611ba2906157ba565b80601f0160208091040260200160405190810160405280929190818152602001828054611bce906157ba565b8015611c1b5780601f10611bf057610100808354040283529160200191611c1b565b820191906000526020600020905b815481529060010190602001808311611bfe57829003601f168201915b505050505090506015600084815260200190815260200160002081908060018154018082558091505060019003906000526020600020016000909190919091509080519060200190611c6e9291906148aa565b50600760008481526020019081526020016000206006016000815480929190611c969061581d565b91905055503373ffffffffffffffffffffffffffffffffffffffff167f0695e999be8100bdb5bee8612337296508d527eae78c65b8f170eacb5a3b439d84604051611ce191906153a1565b60405180910390a2505050565b606060176000838152602001908152602001600020805480602002602001604051908101604052809291908181526020018280548015611d8357602002820191906000526020600020905b8160009054906101000a900473ffffffffffffffffffffffffffffffffffffffff1673ffffffffffffffffffffffffffffffffffffffff1681526020019060010190808311611d39575b50505050509050919050565b606060126000838152602001908152602001600020805480602002602001604051908101604052809291908181526020016000905b82821015611e70578382906000526020600020018054611de3906157ba565b80601f0160208091040260200160405190810160405280929190818152602001828054611e0f906157ba565b8015611e5c5780601f10611e3157610100808354040283529160200191611e5c565b820191906000526020600020905b815481529060010190602001808311611e3f57829003601f168201915b505050505081526020019060010190611dc4565b505050509050919050565b60008060008060008060076000888152602001908152602001600020604051806101c001604052908160008201548152602001600182018054611ebd906157ba565b80601f0160208091040260200160405190810160405280929190818152602001828054611ee9906157ba565b8015611f365780601f10611f0b57610100808354040283529160200191611f36565b820191906000526020600020905b815481529060010190602001808311611f1957829003601f168201915b505050505081526020016002820160009054906101000a900460ff166003811115611f6457611f636158c4565b5b6003811115611f7657611f756158c4565b5b815260200160038201548152602001600482015481526020016005820154815260200160068201548152602001600782018054611fb2906157ba565b80601f0160208091040260200160405190810160405280929190818152602001828054611fde906157ba565b801561202b5780601f106120005761010080835404028352916020019161202b565b820191906000526020600020905b81548152906001019060200180831161200e57829003601f168201915b50505050508152602001600882018054612044906157ba565b80601f0160208091040260200160405190810160405280929190818152602001828054612070906157ba565b80156120bd5780601f10612092576101008083540402835291602001916120bd565b820191906000526020600020905b8154815290600101906020018083116120a057829003601f168201915b505050505081526020016009820180546120d6906157ba565b80601f0160208091040260200160405190810160405280929190818152602001828054612102906157ba565b801561214f5780601f106121245761010080835404028352916020019161214f565b820191906000526020600020905b81548152906001019060200180831161213257829003601f168201915b50505050508152602001600a820160009054906101000a900473ffffffffffffffffffffffffffffffffffffffff1673ffffffffffffffffffffffffffffffffffffffff1673ffffffffffffffffffffffffffffffffffffffff168152602001600b8201548152602001600c8201548152602001600d82015481525050905080604001518160c00151826101600151836101800151846101a00151955095509550955095505091939590929450565b600160009054906101000a900473ffffffffffffffffffffffffffffffffffffffff1673ffffffffffffffffffffffffffffffffffffffff163373ffffffffffffffffffffffffffffffffffffffff161461225857600080fd5b80600260006101000a81548173ffffffffffffffffffffffffffffffffffffffff021916908373ffffffffffffffffffffffffffffffffffffffff1602179055507f162e32528b5907ecf876b3b7a4e5e0edf878642e3ec25852e3c35af1a4e1c04060405160405180910390a150565b60606013600083815260200190815260200160002080548060200260200160405190810160405280929190818152602001828054801561234c57602002820191906000526020600020906000905b82829054906101000a900460ff161515815260200190600101906020826000010492830192600103820291508084116123165790505b50505050509050919050565b6000600a6000838152602001908152602001600020549050919050565b600360149054906101000a900460ff1681565b6000600360149054906101000a900460ff16156123a457600080fd5b600115156010600084815260200190815260200160002060008573ffffffffffffffffffffffffffffffffffffffff1673ffffffffffffffffffffffffffffffffffffffff16815260200190815260200160002060009054906101000a900460ff16151514905092915050565b6060806060600760008581526020019081526020016000206007016007600086815260200190815260200160002060080160076000878152602001908152602001600020600901828054612464906157ba565b80601f0160208091040260200160405190810160405280929190818152602001828054612490906157ba565b80156124dd5780601f106124b2576101008083540402835291602001916124dd565b820191906000526020600020905b8154815290600101906020018083116124c057829003601f168201915b505050505092508180546124f0906157ba565b80601f016020809104026020016040519081016040528092919081815260200182805461251c906157ba565b80156125695780601f1061253e57610100808354040283529160200191612569565b820191906000526020600020905b81548152906001019060200180831161254c57829003601f168201915b5050505050915080805461257c906157ba565b80601f01602080910402602001604051908101604052809291908181526020018280546125a8906157ba565b80156125f55780601f106125ca576101008083540402835291602001916125f5565b820191906000526020600020905b8154815290600101906020018083116125d857829003601f168201915b505050505090509250925092509193909250565b806126143382612c92565b61261d57600080fd5b813360011515600b600084815260200190815260200160002060003373ffffffffffffffffffffffffffffffffffffffff1673ffffffffffffffffffffffffffffffffffffffff16815260200190815260200160002060009054906101000a900460ff161515141561268e57600080fd5b600360149054906101000a900460ff16156126a857600080fd5b6001600b600086815260200190815260200160002060003373ffffffffffffffffffffffffffffffffffffffff1673ffffffffffffffffffffffffffffffffffffffff16815260200190815260200160002060006101000a81548160ff02191690831515021790555060076000858152602001908152602001600020600d0160008154809291906127389061581d565b91905055503373ffffffffffffffffffffffffffffffffffffffff166108fc60076000878152602001908152602001600020600c01549081150290604051600060405180830381858888f19350505050158015612799573d6000803e3d6000fd5b503373ffffffffffffffffffffffffffffffffffffffff167f1a31e733a172afcf46074b3106c17f0c298e226442682a03c1e99ce256139ec2856040516127e091906153a1565b60405180910390a250505050565b601860009054906101000a900473ffffffffffffffffffffffffffffffffffffffff1681565b606080600c6000848152602001908152602001600020600e6000858152602001908152602001600020818054806020026020016040519081016040528092919081815260200182805480156128be57602002820191906000526020600020905b8160009054906101000a900473ffffffffffffffffffffffffffffffffffffffff1673ffffffffffffffffffffffffffffffffffffffff1681526020019060010190808311612874575b505050505091508080548060200260200160405190810160405280929190818152602001828054801561293557602002820191906000526020600020906000905b82829054906101000a900460ff161515815260200190600101906020826000010492830192600103820291508084116128ff5790505b5050505050905091509150915091565b600160009054906101000a900473ffffffffffffffffffffffffffffffffffffffff1673ffffffffffffffffffffffffffffffffffffffff163373ffffffffffffffffffffffffffffffffffffffff161461299f57600080fd5b600360149054906101000a900460ff166129b857600080fd5b80601860006101000a81548173ffffffffffffffffffffffffffffffffffffffff021916908373ffffffffffffffffffffffffffffffffffffffff1602179055507f450db8da6efbe9c22f2347f7c2021231df1fc58d3ae9a2fa75d39fa44619930581604051612a289190615179565b60405180910390a150565b80612a3e3382613c7b565b612a4757600080fd5b600360149054906101000a900460ff1615612a6157600080fd5b600160076000848152602001908152602001600020600601541015612abb576040517f08c379a0000000000000000000000000000000000000000000000000000000008152600401612ab29061535f565b60405180910390fd5b4260076000848152602001908152602001600020600401819055506000606460045460076000868152602001908152602001600020600b0154612afe919061566b565b612b08919061563a565b9050600260009054906101000a900473ffffffffffffffffffffffffffffffffffffffff1673ffffffffffffffffffffffffffffffffffffffff166108fc829081150290604051600060405180830381858888f19350505050158015612b72573d6000803e3d6000fd5b5060008160076000868152602001908152602001600020600b0154612b9791906156c5565b9050600760008581526020019081526020016000206006015481612bbb919061563a565b60076000868152602001908152602001600020600c018190555060026007600086815260200190815260200160002060020160006101000a81548160ff02191690836003811115612c0f57612c0e6158c4565b5b02179055503373ffffffffffffffffffffffffffffffffffffffff167fef898a6941c945450e9bbdad4a76fcd0f51f42f7e251fddcb1e5479ba786d5e485604051612c5a91906153a1565b60405180910390a250505050565b6000600260009054906101000a900473ffffffffffffffffffffffffffffffffffffffff16905090565b6000600360149054906101000a900460ff1615612cae57600080fd5b600115156016600084815260200190815260200160002060008573ffffffffffffffffffffffffffffffffffffffff1673ffffffffffffffffffffffffffffffffffffffff16815260200190815260200160002060009054906101000a900460ff16151514905092915050565b8060009080519060200190612d319291906148aa565b5050565b600360009054906101000a900473ffffffffffffffffffffffffffffffffffffffff1673ffffffffffffffffffffffffffffffffffffffff163373ffffffffffffffffffffffffffffffffffffffff1614612d8f57600080fd5b612d9982826143f4565b7f6d08be0da99b3a8dabb8a9d0bd4ebece8d00f747b0d0e6c29f97508f1a40a29181604051612dc891906153a1565b60405180910390a15050565b6000600360149054906101000a900460ff1615612df057600080fd5b60076000838152602001908152602001600020600a0160009054906101000a900473ffffffffffffffffffffffffffffffffffffffff1673ffffffffffffffffffffffffffffffffffffffff168373ffffffffffffffffffffffffffffffffffffffff1614905092915050565b600360009054906101000a900473ffffffffffffffffffffffffffffffffffffffff1673ffffffffffffffffffffffffffffffffffffffff163373ffffffffffffffffffffffffffffffffffffffff161480612f065750600160009054906101000a900473ffffffffffffffffffffffffffffffffffffffff1673ffffffffffffffffffffffffffffffffffffffff163373ffffffffffffffffffffffffffffffffffffffff16145b80612f5e5750600260009054906101000a900473ffffffffffffffffffffffffffffffffffffffff1673ffffffffffffffffffffffffffffffffffffffff163373ffffffffffffffffffffffffffffffffffffffff16145b612f6757600080fd5b600360149054906101000a900460ff1615612f8157600080fd5b6001600360146101000a81548160ff021916908315150217905550565b606060008054612fad906157ba565b80601f0160208091040260200160405190810160405280929190818152602001828054612fd9906157ba565b80156130265780601f10612ffb57610100808354040283529160200191613026565b820191906000526020600020905b81548152906001019060200180831161300957829003601f168201915b5050505050905090565b6000600260009054906101000a900473ffffffffffffffffffffffffffffffffffffffff1673ffffffffffffffffffffffffffffffffffffffff163373ffffffffffffffffffffffffffffffffffffffff1614905090565b60006130943383613c7b565b9050919050565b600360149054906101000a900460ff16156130b557600080fd5b806130c03382613c7b565b6130c957600080fd5b60016010600084815260200190815260200160002060008673ffffffffffffffffffffffffffffffffffffffff1673ffffffffffffffffffffffffffffffffffffffff16815260200190815260200160002060006101000a81548160ff02191690831515021790555060116000838152602001908152602001600020849080600181540180825580915050600190039060005260206000200160009091909190916101000a81548173ffffffffffffffffffffffffffffffffffffffff021916908373ffffffffffffffffffffffffffffffffffffffff16021790555060126000838152602001908152602001600020839080600181540180825580915050600190039060005260206000200160009091909190915090805190602001906131f29291906148aa565b50826014600084815260200190815260200160002060008673ffffffffffffffffffffffffffffffffffffffff1673ffffffffffffffffffffffffffffffffffffffff16815260200190815260200160002090805190602001906132579291906148aa565b5060136000838152602001908152602001600020600190806001815401808255809150506001900390600052602060002090602091828204019190069091909190916101000a81548160ff0219169083151502179055508373ffffffffffffffffffffffffffffffffffffffff167f46b8357d30dedd734a71d059a385f46b6e667bff20233f907477760207f88965836040516132f491906153a1565b60405180910390a250505050565b60606011600083815260200190815260200160002080548060200260200160405190810160405280929190818152602001828054801561339757602002820191906000526020600020905b8160009054906101000a900473ffffffffffffffffffffffffffffffffffffffff1673ffffffffffffffffffffffffffffffffffffffff168152602001906001019080831161334d575b50505050509050919050565b806133ae3382613c7b565b6133b757600080fd5b600360149054906101000a900460ff16156133d157600080fd5b60016007600084815260200190815260200160002060020160006101000a81548160ff0219169083600381111561340b5761340a6158c4565b5b02179055504260076000848152602001908152602001600020600301819055503373ffffffffffffffffffffffffffffffffffffffff167ff77c6f27499b698205f54058c2914a340e1300c2bc0d9a819e7aebfbaabbbb938360405161347191906153a1565b60405180910390a25050565b836134883382612dd4565b61349157600080fd5b6000845111156134c757836007600087815260200190815260200160002060070190805190602001906134c59291906148aa565b505b6000835111156134fd57826007600087815260200190815260200160002060080190805190602001906134fb9291906148aa565b505b60008251111561353357816007600087815260200190815260200160002060090190805190602001906135319291906148aa565b505b7fcd9ad49d834aeea746bafd2d26eebd3d01ebac2d8f5d3f53d7f3884292e5835f856007600088815260200190815260200160002060070160076000898152602001908152602001600020600801600760008a81526020019081526020016000206009016040516135a794939291906153e5565b60405180910390a15050505050565b600360009054906101000a900473ffffffffffffffffffffffffffffffffffffffff1681565b6000600360149054906101000a900460ff16905090565b600033905090565b6060600580548060200260200160405190810160405280929190818152602001828054801561364957602002820191906000526020600020905b815481526020019060010190808311613635575b5050505050905090565b8061365e3382613c7b565b806136b65750600360009054906101000a900473ffffffffffffffffffffffffffffffffffffffff1673ffffffffffffffffffffffffffffffffffffffff163373ffffffffffffffffffffffffffffffffffffffff16145b6136bf57600080fd5b600360149054906101000a900460ff16156136d957600080fd5b6136e3838361468b565b505050565b600080546136f5906157ba565b80601f0160208091040260200160405190810160405280929190818152602001828054613721906157ba565b801561376e5780601f106137435761010080835404028352916020019161376e565b820191906000526020600020905b81548152906001019060200180831161375157829003601f168201915b505050505081565b600360009054906101000a900473ffffffffffffffffffffffffffffffffffffffff1673ffffffffffffffffffffffffffffffffffffffff163373ffffffffffffffffffffffffffffffffffffffff16146137d057600080fd5b6137da8282614313565b5050565b60606006805480602002602001604051908101604052809291908181526020016000905b828210156138ae578382906000526020600020018054613821906157ba565b80601f016020809104026020016040519081016040528092919081815260200182805461384d906157ba565b801561389a5780601f1061386f5761010080835404028352916020019161389a565b820191906000526020600020905b81548152906001019060200180831161387d57829003601f168201915b505050505081526020019060010190613802565b50505050905090565b6138bf614930565b816138ca3382613c7b565b6138d357600080fd5b60076000848152602001908152602001600020604051806101c00160405290816000820154815260200160018201805461390c906157ba565b80601f0160208091040260200160405190810160405280929190818152602001828054613938906157ba565b80156139855780601f1061395a57610100808354040283529160200191613985565b820191906000526020600020905b81548152906001019060200180831161396857829003601f168201915b505050505081526020016002820160009054906101000a900460ff1660038111156139b3576139b26158c4565b5b60038111156139c5576139c46158c4565b5b815260200160038201548152602001600482015481526020016005820154815260200160068201548152602001600782018054613a01906157ba565b80601f0160208091040260200160405190810160405280929190818152602001828054613a2d906157ba565b8015613a7a5780601f10613a4f57610100808354040283529160200191613a7a565b820191906000526020600020905b815481529060010190602001808311613a5d57829003601f168201915b50505050508152602001600882018054613a93906157ba565b80601f0160208091040260200160405190810160405280929190818152602001828054613abf906157ba565b8015613b0c5780601f10613ae157610100808354040283529160200191613b0c565b820191906000526020600020905b815481529060010190602001808311613aef57829003601f168201915b50505050508152602001600982018054613b25906157ba565b80601f0160208091040260200160405190810160405280929190818152602001828054613b51906157ba565b8015613b9e5780601f10613b7357610100808354040283529160200191613b9e565b820191906000526020600020905b815481529060010190602001808311613b8157829003601f168201915b50505050508152602001600a820160009054906101000a900473ffffffffffffffffffffffffffffffffffffffff1673ffffffffffffffffffffffffffffffffffffffff1673ffffffffffffffffffffffffffffffffffffffff168152602001600b8201548152602001600c8201548152602001600d82015481525050915050919050565b6000600160009054906101000a900473ffffffffffffffffffffffffffffffffffffffff1673ffffffffffffffffffffffffffffffffffffffff163373ffffffffffffffffffffffffffffffffffffffff1614905090565b6000806009600084815260200190815260200160002060008573ffffffffffffffffffffffffffffffffffffffff1673ffffffffffffffffffffffffffffffffffffffff1681526020019081526020016000205490506000811415613ce4576000915050613d87565b600e60008481526020019081526020016000208181548110613d0957613d08615922565b5b90600052602060002090602091828204019190069054906101000a900460ff16613d37576000915050613d87565b60011515600e60008581526020019081526020016000208281548110613d6057613d5f615922565b5b90600052602060002090602091828204019190069054906101000a900460ff161515149150505b92915050565b80613d983382612dd4565b613da157600080fd5b600360149054906101000a900460ff1615613dbb57600080fd5b3460076000848152602001908152602001600020600b016000828254613de191906155e4565b925050819055503373ffffffffffffffffffffffffffffffffffffffff167f5dc1fe5ab986a852c4eda8e8bb94247d13307065c593fb83f1a09be2736793828360076000868152602001908152602001600020600b0154604051613e4692919061543f565b60405180910390a25050565b60006009600083815260200190815260200160002060003373ffffffffffffffffffffffffffffffffffffffff1673ffffffffffffffffffffffffffffffffffffffff168152602001908152602001600020549050919050565b600360009054906101000a900473ffffffffffffffffffffffffffffffffffffffff1673ffffffffffffffffffffffffffffffffffffffff163373ffffffffffffffffffffffffffffffffffffffff1614613f0657600080fd5b600360149054906101000a900460ff1615613f2057600080fd5b60004290506000604051806101c0016040528083815260200184815260200160006003811115613f5357613f526158c4565b5b815260200142815260200142815260200142815260200160008152602001604051806020016040528060008152508152602001604051806020016040528060008152508152602001604051806020016040528060008152508152602001600073ffffffffffffffffffffffffffffffffffffffff168152602001600081526020016000815260200160008152509050806007600084815260200190815260200160002060008201518160000155602082015181600101908051906020019061401c9291906148aa565b5060408201518160020160006101000a81548160ff02191690836003811115614048576140476158c4565b5b0217905550606082015181600301556080820151816004015560a0820151816005015560c0820151816006015560e08201518160070190805190602001906140919291906148aa565b506101008201518160080190805190602001906140af9291906148aa565b506101208201518160090190805190602001906140cd9291906148aa565b5061014082015181600a0160006101000a81548173ffffffffffffffffffffffffffffffffffffffff021916908373ffffffffffffffffffffffffffffffffffffffff16021790555061016082015181600b015561018082015181600c01556101a082015181600d0155905050600582908060018154018082558091505060019003906000526020600020016000909190919091505560068390806001815401808255809150506001900390600052602060002001600090919091909150908051906020019061419e9291906148aa565b507f5937a473913f56daf7dea7a6e821970acaa73f35555cf88f70c54f243cd98a9e83836040516141d092919061532f565b60405180910390a1505050565b6000600360149054906101000a900460ff16156141f957600080fd5b6142033383612dd4565b9050919050565b6000600360009054906101000a900473ffffffffffffffffffffffffffffffffffffffff1673ffffffffffffffffffffffffffffffffffffffff163373ffffffffffffffffffffffffffffffffffffffff1614905090565b600061426e3383612c92565b61427b57600090506142e4565b60011515600b600084815260200190815260200160002060003373ffffffffffffffffffffffffffffffffffffffff1673ffffffffffffffffffffffffffffffffffffffff16815260200190815260200160002060009054906101000a900460ff161515141590505b919050565b6000600360009054906101000a900473ffffffffffffffffffffffffffffffffffffffff16905090565b60006009600083815260200190815260200160002060008473ffffffffffffffffffffffffffffffffffffffff1673ffffffffffffffffffffffffffffffffffffffff1681526020019081526020016000205490506000600e6000848152602001908152602001600020828154811061438f5761438e615922565b5b90600052602060002090602091828204019190066101000a81548160ff0219169083151502179055507f99f4c949f294dd13aa62d19c1344b81968121fe570d11657ebd54aae55ac0f20826040516143e791906153a1565b60405180910390a1505050565b6000600a60008381526020019081526020016000205414156144f5576001600a600083815260200190815260200160002081905550600c600082815260200190815260200160002060009080600181540180825580915050600190039060005260206000200160009091909190916101000a81548173ffffffffffffffffffffffffffffffffffffffff021916908373ffffffffffffffffffffffffffffffffffffffff160217905550600e6000828152602001908152602001600020600090806001815401808255809150506001900390600052602060002090602091828204019190069091909190916101000a81548160ff0219169083151502179055505b600a6000828152602001908152602001600020546009600083815260200190815260200160002060008473ffffffffffffffffffffffffffffffffffffffff1673ffffffffffffffffffffffffffffffffffffffff16815260200190815260200160002081905550600c6000828152602001908152602001600020829080600181540180825580915050600190039060005260206000200160009091909190916101000a81548173ffffffffffffffffffffffffffffffffffffffff021916908373ffffffffffffffffffffffffffffffffffffffff160217905550600e6000828152602001908152602001600020600190806001815401808255809150506001900390600052602060002090602091828204019190069091909190916101000a81548160ff021916908315150217905550600a6000828152602001908152602001600020600081548092919061464b9061581d565b91905055507f6d08be0da99b3a8dabb8a9d0bd4ebece8d00f747b0d0e6c29f97508f1a40a2918160405161467f91906153a1565b60405180910390a15050565b6001600f600083815260200190815260200160002060008473ffffffffffffffffffffffffffffffffffffffff1673ffffffffffffffffffffffffffffffffffffffff16815260200190815260200160002060006101000a81548160ff0219169083151502179055508160076000838152602001908152602001600020600a0160006101000a81548173ffffffffffffffffffffffffffffffffffffffff021916908373ffffffffffffffffffffffffffffffffffffffff1602179055508173ffffffffffffffffffffffffffffffffffffffff167f5fd6d0b7e707fe344bd2a1887f9d0eeea8bfcac6f339ba4200e74f0647f101c08260405161478f91906153a1565b60405180910390a25050565b5080546147a7906157ba565b6000825580601f106147b957506147d8565b601f0160209004906000526020600020908101906147d791906149c7565b5b50565b50805460008255906000526020600020908101906147f991906149e4565b50565b508054600082559060005260206000209081019061481a91906149c7565b50565b828054614829906157ba565b90600052602060002090601f01602090048101928261484b5760008555614899565b82601f1061485c5780548555614899565b8280016001018555821561489957600052602060002091601f016020900482015b8281111561489857825482559160010191906001019061487d565b5b5090506148a691906149c7565b5090565b8280546148b6906157ba565b90600052602060002090601f0160209004810192826148d8576000855561491f565b82601f106148f157805160ff191683800117855561491f565b8280016001018555821561491f579182015b8281111561491e578251825591602001919060010190614903565b5b50905061492c91906149c7565b5090565b604051806101c0016040528060008152602001606081526020016000600381111561495e5761495d6158c4565b5b815260200160008152602001600081526020016000815260200160008152602001606081526020016060815260200160608152602001600073ffffffffffffffffffffffffffffffffffffffff1681526020016000815260200160008152602001600081525090565b5b808211156149e05760008160009055506001016149c8565b5090565b5b80821115614a0457600081816149fb919061479b565b506001016149e5565b5090565b6000614a1b614a168461548d565b615468565b905082815260208101848484011115614a3757614a36615985565b5b614a42848285615778565b509392505050565b600081359050614a5981615a08565b92915050565b600082601f830112614a7457614a73615980565b5b8135614a84848260208601614a08565b91505092915050565b600081359050614a9c81615a1f565b92915050565b600060208284031215614ab857614ab761598f565b5b6000614ac684828501614a4a565b91505092915050565b600080600060608486031215614ae857614ae761598f565b5b6000614af686828701614a4a565b935050602084013567ffffffffffffffff811115614b1757614b1661598a565b5b614b2386828701614a5f565b9250506040614b3486828701614a8d565b9150509250925092565b60008060408385031215614b5557614b5461598f565b5b6000614b6385828601614a4a565b9250506020614b7485828601614a8d565b9150509250929050565b600060208284031215614b9457614b9361598f565b5b600082013567ffffffffffffffff811115614bb257614bb161598a565b5b614bbe84828501614a5f565b91505092915050565b600060208284031215614bdd57614bdc61598f565b5b6000614beb84828501614a8d565b91505092915050565b60008060008060808587031215614c0e57614c0d61598f565b5b6000614c1c87828801614a8d565b945050602085013567ffffffffffffffff811115614c3d57614c3c61598a565b5b614c4987828801614a5f565b935050604085013567ffffffffffffffff811115614c6a57614c6961598a565b5b614c7687828801614a5f565b925050606085013567ffffffffffffffff811115614c9757614c9661598a565b5b614ca387828801614a5f565b91505092959194509250565b6000614cbb8383614d0b565b60208301905092915050565b6000614cd38383614eb8565b60208301905092915050565b6000614ceb8383614f03565b905092915050565b6000614cff838361515b565b60208301905092915050565b614d14816156f9565b82525050565b614d23816156f9565b82525050565b6000614d3482615513565b614d3e818561557e565b9350614d49836154be565b8060005b83811015614d7a578151614d618882614caf565b9750614d6c8361554a565b925050600181019050614d4d565b5085935050505092915050565b6000614d928261551e565b614d9c818561558f565b9350614da7836154ce565b8060005b83811015614dd8578151614dbf8882614cc7565b9750614dca83615557565b925050600181019050614dab565b5085935050505092915050565b6000614df082615529565b614dfa81856155a0565b935083602082028501614e0c856154de565b8060005b85811015614e485784840389528151614e298582614cdf565b9450614e3483615564565b925060208a01995050600181019050614e10565b50829750879550505050505092915050565b6000614e6582615534565b614e6f81856155b1565b9350614e7a836154ee565b8060005b83811015614eab578151614e928882614cf3565b9750614e9d83615571565b925050600181019050614e7e565b5085935050505092915050565b614ec18161570b565b82525050565b614ed08161570b565b82525050565b614edf81615754565b82525050565b614eee81615754565b82525050565b614efd81615766565b82525050565b6000614f0e8261553f565b614f1881856155c2565b9350614f28818560208601615787565b614f3181615994565b840191505092915050565b6000614f478261553f565b614f5181856155d3565b9350614f61818560208601615787565b614f6a81615994565b840191505092915050565b60008154614f82816157ba565b614f8c81866155d3565b94506001821660008114614fa75760018114614fb957614fec565b60ff1983168652602086019350614fec565b614fc2856154fe565b60005b83811015614fe457815481890152600182019150602081019050614fc5565b808801955050505b50505092915050565b6000615002602d836155d3565b915061500d826159a5565b604082019050919050565b60006101c083016000830151615031600086018261515b565b50602083015184820360208601526150498282614f03565b915050604083015161505e6040860182614ed6565b506060830151615071606086018261515b565b506080830151615084608086018261515b565b5060a083015161509760a086018261515b565b5060c08301516150aa60c086018261515b565b5060e083015184820360e08601526150c28282614f03565b9150506101008301518482036101008601526150de8282614f03565b9150506101208301518482036101208601526150fa8282614f03565b915050610140830151615111610140860182614d0b565b5061016083015161512661016086018261515b565b5061018083015161513b61018086018261515b565b506101a08301516151506101a086018261515b565b508091505092915050565b6151648161574a565b82525050565b6151738161574a565b82525050565b600060208201905061518e6000830184614d1a565b92915050565b600060208201905081810360008301526151ae8184614d29565b905092915050565b600060408201905081810360008301526151d08185614d29565b905081810360208301526151e48184614d87565b90509392505050565b600060208201905081810360008301526152078184614d87565b905092915050565b600060208201905081810360008301526152298184614de5565b905092915050565b6000602082019050818103600083015261524b8184614e5a565b905092915050565b60006020820190506152686000830184614ec7565b92915050565b600060a0820190506152836000830188614ee5565b615290602083018761516a565b61529d604083018661516a565b6152aa606083018561516a565b6152b7608083018461516a565b9695505050505050565b600060208201905081810360008301526152db8184614f3c565b905092915050565b600060608201905081810360008301526152fd8186614f3c565b905081810360208301526153118185614f3c565b905081810360408301526153258184614f3c565b9050949350505050565b600060408201905081810360008301526153498185614f3c565b9050615358602083018461516a565b9392505050565b6000602082019050818103600083015261537881614ff5565b9050919050565b600060208201905081810360008301526153998184615018565b905092915050565b60006020820190506153b6600083018461516a565b92915050565b60006040820190506153d1600083018561516a565b6153de6020830184614ef4565b9392505050565b60006080820190506153fa600083018761516a565b818103602083015261540c8186614f75565b905081810360408301526154208185614f75565b905081810360608301526154348184614f75565b905095945050505050565b6000604082019050615454600083018561516a565b615461602083018461516a565b9392505050565b6000615472615483565b905061547e82826157ec565b919050565b6000604051905090565b600067ffffffffffffffff8211156154a8576154a7615951565b5b6154b182615994565b9050602081019050919050565b6000819050602082019050919050565b6000819050602082019050919050565b6000819050602082019050919050565b6000819050602082019050919050565b60008190508160005260206000209050919050565b600081519050919050565b600081519050919050565b600081519050919050565b600081519050919050565b600081519050919050565b6000602082019050919050565b6000602082019050919050565b6000602082019050919050565b6000602082019050919050565b600082825260208201905092915050565b600082825260208201905092915050565b600082825260208201905092915050565b600082825260208201905092915050565b600082825260208201905092915050565b600082825260208201905092915050565b60006155ef8261574a565b91506155fa8361574a565b9250827fffffffffffffffffffffffffffffffffffffffffffffffffffffffffffffffff0382111561562f5761562e615866565b5b828201905092915050565b60006156458261574a565b91506156508361574a565b9250826156605761565f615895565b5b828204905092915050565b60006156768261574a565b91506156818361574a565b9250817fffffffffffffffffffffffffffffffffffffffffffffffffffffffffffffffff04831182151516156156ba576156b9615866565b5b828202905092915050565b60006156d08261574a565b91506156db8361574a565b9250828210156156ee576156ed615866565b5b828203905092915050565b60006157048261572a565b9050919050565b60008115159050919050565b6000819050615725826159f4565b919050565b600073ffffffffffffffffffffffffffffffffffffffff82169050919050565b6000819050919050565b600061575f82615717565b9050919050565b60006157718261574a565b9050919050565b82818337600083830152505050565b60005b838110156157a557808201518184015260208101905061578a565b838111156157b4576000848401525b50505050565b600060028204905060018216806157d257607f821691505b602082108114156157e6576157e56158f3565b5b50919050565b6157f582615994565b810181811067ffffffffffffffff8211171561581457615813615951565b5b80604052505050565b60006158288261574a565b91507fffffffffffffffffffffffffffffffffffffffffffffffffffffffffffffffff82141561585b5761585a615866565b5b600182019050919050565b7f4e487b7100000000000000000000000000000000000000000000000000000000600052601160045260246000fd5b7f4e487b7100000000000000000000000000000000000000000000000000000000600052601260045260246000fd5b7f4e487b7100000000000000000000000000000000000000000000000000000000600052602160045260246000fd5b7f4e487b7100000000000000000000000000000000000000000000000000000000600052602260045260246000fd5b7f4e487b7100000000000000000000000000000000000000000000000000000000600052603260045260246000fd5b7f4e487b7100000000000000000000000000000000000000000000000000000000600052604160045260246000fd5b600080fd5b600080fd5b600080fd5b600080fd5b6000601f19601f8301169050919050565b7f43616e277420656e6420726567697374726174696f6e2077697468207a65726f60008201527f2072656769737472616e74732100000000000000000000000000000000000000602082015250565b60048110615a0557615a046158c4565b5b50565b615a11816156f9565b8114615a1c57600080fd5b50565b615a288161574a565b8114615a3357600080fd5b5056fea264697066735822122092e3002ce0112cba351057a37d7e860b5fcc80a7867c466b14c6bd27f54bc10364736f6c63430008060033",
  "immutableReferences": {},
  "source": "// SPDX-License-Identifier: MIT\npragma solidity ^0.8.0;\n\nimport \"../roles/AdminsManager.sol\";\n\ncontract EthDropCore is AdminsManager {\n    // Set in case the core contract is broken and an upgrade is required\n    address public newContractAddress;\n\n    /// @notice Creates the main EthDrop smart contract instance.\n    constructor () {\n        // Starts paused.\n\n        // TODO \n        paused = false;\n\n        // the creator of the contract is the initial CEO\n        ceoAddress = msg.sender;\n\n    }\n\n    /// @dev Used to mark the smart contract as upgraded, in case there is a serious\n    ///  breaking bug. This method does nothing but keep track of the new contract and\n    ///  emit a message indicating that the new address is set. It's up to clients of this\n    ///  contract to update to the new contract address in that case. (This contract will\n    ///  be paused indefinitely if such an upgrade takes place.)\n    /// @param _v2Address new address\n    function setNewAddress(address _v2Address) external onlyCEO whenPaused {\n        // See README.md for updgrade plan\n        newContractAddress = _v2Address;\n        emit ContractUpgrade(_v2Address);\n    }\n\n    function foobar() external pure returns (string memory) {\n        return \"foobarrrrrrr!\";\n    }\n}",
  "sourcePath": "/Users/jlynch/Git-Projects/EthDrop/contracts/core/EthDropCore.sol",
  "compiler": {
    "name": "solc",
    "version": "0.8.6+commit.11564f7e.Emscripten.clang"
  },
  "schemaVersion": "3.4.1",
  "updatedAt": "2021-08-01T03:55:03.628Z",
  "networkType": "ethereum",
  "devdoc": {
    "kind": "dev",
    "methods": {
      "pause()": {
        "details": "Called by any \"C-level\" role to pause the contract. Used only when  a bug or exploit is detected and we need to limit damage."
      },
      "setCEO(address)": {
        "details": "Assigns a new address to act as the CEO. Only available to the current CEO.",
        "params": {
          "_newCEO": "The address of the new CEO"
        }
      },
      "setCFO(address)": {
        "details": "Assigns a new address to act as the CFO. Only available to the current CEO.",
        "params": {
          "_newCFO": "The address of the new CFO"
        }
      },
      "setCOO(address)": {
        "details": "Assigns a new address to act as the COO. Only available to the current CEO.",
        "params": {
          "_newCOO": "The address of the new COO"
        }
      },
      "setNewAddress(address)": {
        "details": "Used to mark the smart contract as upgraded, in case there is a serious  breaking bug. This method does nothing but keep track of the new contract and  emit a message indicating that the new address is set. It's up to clients of this  contract to update to the new contract address in that case. (This contract will  be paused indefinitely if such an upgrade takes place.)",
        "params": {
          "_v2Address": "new address"
        }
      },
      "unpause()": {
        "details": "Unpauses the smart contract. Can only be called by the CEO, since  one reason we may pause the contract is when CFO or COO accounts are  compromised."
      }
    },
    "version": 1
  },
  "userdoc": {
    "kind": "user",
    "methods": {
      "constructor": {
        "notice": "Creates the main EthDrop smart contract instance."
      },
      "unpause()": {
        "notice": "This is public rather than external so it can be called by  derived contracts."
      }
    },
    "version": 1
  }
}