{
  "contractName": "EthDropBase",
  "abi": [
    {
      "anonymous": false,
      "inputs": [
        {
          "indexed": false,
          "internalType": "bool",
          "name": "isPaused",
          "type": "bool"
        }
      ],
      "name": "AppPaused",
      "type": "event"
    },
    {
      "anonymous": false,
      "inputs": [],
      "name": "CfoUpdated",
      "type": "event"
    },
    {
      "anonymous": false,
      "inputs": [
        {
          "indexed": false,
          "internalType": "address",
          "name": "newContract",
          "type": "address"
        }
      ],
      "name": "ContractUpgrade",
      "type": "event"
    },
    {
      "anonymous": false,
      "inputs": [],
      "name": "CooUpdated",
      "type": "event"
    },
    {
      "anonymous": false,
      "inputs": [
        {
          "indexed": false,
          "internalType": "address",
          "name": "from",
          "type": "address"
        },
        {
          "indexed": false,
          "internalType": "address",
          "name": "to",
          "type": "address"
        }
      ],
      "name": "Transfer",
      "type": "event"
    },
    {
      "inputs": [],
      "name": "ceoAddress",
      "outputs": [
        {
          "internalType": "address",
          "name": "",
          "type": "address"
        }
      ],
      "stateMutability": "view",
      "type": "function"
    },
    {
      "inputs": [],
      "name": "cfoAddress",
      "outputs": [
        {
          "internalType": "address",
          "name": "",
          "type": "address"
        }
      ],
      "stateMutability": "view",
      "type": "function"
    },
    {
      "inputs": [],
      "name": "cooAddress",
      "outputs": [
        {
          "internalType": "address",
          "name": "",
          "type": "address"
        }
      ],
      "stateMutability": "view",
      "type": "function"
    },
    {
      "inputs": [],
      "name": "getCFO",
      "outputs": [
        {
          "internalType": "address",
          "name": "",
          "type": "address"
        }
      ],
      "stateMutability": "view",
      "type": "function"
    },
    {
      "inputs": [],
      "name": "getCOO",
      "outputs": [
        {
          "internalType": "address",
          "name": "",
          "type": "address"
        }
      ],
      "stateMutability": "view",
      "type": "function"
    },
    {
      "inputs": [],
      "name": "isCEO",
      "outputs": [
        {
          "internalType": "bool",
          "name": "",
          "type": "bool"
        }
      ],
      "stateMutability": "view",
      "type": "function"
    },
    {
      "inputs": [],
      "name": "isCFO",
      "outputs": [
        {
          "internalType": "bool",
          "name": "",
          "type": "bool"
        }
      ],
      "stateMutability": "view",
      "type": "function"
    },
    {
      "inputs": [],
      "name": "isCOO",
      "outputs": [
        {
          "internalType": "bool",
          "name": "",
          "type": "bool"
        }
      ],
      "stateMutability": "view",
      "type": "function"
    },
    {
      "inputs": [],
      "name": "isPaused",
      "outputs": [
        {
          "internalType": "bool",
          "name": "",
          "type": "bool"
        }
      ],
      "stateMutability": "view",
      "type": "function"
    },
    {
      "inputs": [],
      "name": "pause",
      "outputs": [],
      "stateMutability": "nonpayable",
      "type": "function"
    },
    {
      "inputs": [],
      "name": "paused",
      "outputs": [
        {
          "internalType": "bool",
          "name": "",
          "type": "bool"
        }
      ],
      "stateMutability": "view",
      "type": "function"
    },
    {
      "inputs": [
        {
          "internalType": "address",
          "name": "_newCEO",
          "type": "address"
        }
      ],
      "name": "setCEO",
      "outputs": [],
      "stateMutability": "nonpayable",
      "type": "function"
    },
    {
      "inputs": [
        {
          "internalType": "address",
          "name": "_newCFO",
          "type": "address"
        }
      ],
      "name": "setCFO",
      "outputs": [],
      "stateMutability": "nonpayable",
      "type": "function"
    },
    {
      "inputs": [
        {
          "internalType": "address",
          "name": "_newCOO",
          "type": "address"
        }
      ],
      "name": "setCOO",
      "outputs": [],
      "stateMutability": "nonpayable",
      "type": "function"
    },
    {
      "inputs": [],
      "name": "unpause",
      "outputs": [
        {
          "internalType": "bool",
          "name": "",
          "type": "bool"
        }
      ],
      "stateMutability": "nonpayable",
      "type": "function"
    },
    {
      "inputs": [],
      "name": "whoami",
      "outputs": [
        {
          "internalType": "address",
          "name": "",
          "type": "address"
        }
      ],
      "stateMutability": "view",
      "type": "function"
    },
    {
      "inputs": [
        {
          "internalType": "uint256",
          "name": "groupId",
          "type": "uint256"
        }
      ],
      "name": "getGroupEventData",
      "outputs": [
        {
          "internalType": "uint256",
          "name": "",
          "type": "uint256"
        },
        {
          "internalType": "uint256",
          "name": "",
          "type": "uint256"
        },
        {
          "internalType": "uint256",
          "name": "",
          "type": "uint256"
        },
        {
          "internalType": "uint256",
          "name": "",
          "type": "uint256"
        },
        {
          "internalType": "uint256",
          "name": "",
          "type": "uint256"
        },
        {
          "internalType": "uint256",
          "name": "",
          "type": "uint256"
        },
        {
          "internalType": "address",
          "name": "",
          "type": "address"
        },
        {
          "internalType": "string",
          "name": "",
          "type": "string"
        },
        {
          "internalType": "string",
          "name": "",
          "type": "string"
        },
        {
          "internalType": "string",
          "name": "",
          "type": "string"
        },
        {
          "internalType": "string",
          "name": "",
          "type": "string"
        }
      ],
      "stateMutability": "view",
      "type": "function"
    },
    {
      "inputs": [
        {
          "internalType": "uint256",
          "name": "groupId",
          "type": "uint256"
        }
      ],
      "name": "getGroupEventUsersData",
      "outputs": [
        {
          "internalType": "address[]",
          "name": "",
          "type": "address[]"
        },
        {
          "internalType": "address[]",
          "name": "",
          "type": "address[]"
        },
        {
          "internalType": "address[]",
          "name": "",
          "type": "address[]"
        },
        {
          "internalType": "string[]",
          "name": "",
          "type": "string[]"
        },
        {
          "internalType": "string[]",
          "name": "",
          "type": "string[]"
        },
        {
          "internalType": "string[]",
          "name": "",
          "type": "string[]"
        }
      ],
      "stateMutability": "view",
      "type": "function"
    },
    {
      "inputs": [],
      "name": "getGlobalData",
      "outputs": [
        {
          "internalType": "bool",
          "name": "",
          "type": "bool"
        },
        {
          "internalType": "bool",
          "name": "",
          "type": "bool"
        },
        {
          "internalType": "bool",
          "name": "",
          "type": "bool"
        },
        {
          "internalType": "bool",
          "name": "",
          "type": "bool"
        },
        {
          "internalType": "uint256[]",
          "name": "",
          "type": "uint256[]"
        },
        {
          "internalType": "string[]",
          "name": "",
          "type": "string[]"
        }
      ],
      "stateMutability": "view",
      "type": "function"
    }
  ],
  "bytecode": "0x6080604052600080546001600160a01b031916331790556002805460ff60a01b19169055600560035534801561003457600080fd5b50611140806100446000396000f3fe608060405234801561001057600080fd5b50600436106101115760003560e01c80636a034021116100ad578063b187bd2611610071578063b187bd2614610268578063b3b36bb31461027a578063e513b7a914610280578063f4a02e7014610293578063fc5fd6e4146102a657600080fd5b80636a0340211461020f5780637b936ac2146102295780638456cb591461023a5780639393ae3714610242578063b047fb501461025557600080fd5b80630519ce79146101165780630a0f81681461014657806327d7874c146101595780632ba73c151461016e5780633f4ba83a146101815780634635509b146101995780634e0a3379146101c35780635624aab0146101d65780635c975abb146101fb575b600080fd5b600154610129906001600160a01b031681565b6040516001600160a01b0390911681526020015b60405180910390f35b600054610129906001600160a01b031681565b61016c610167366004610df0565b6102b7565b005b61016c61017c366004610df0565b610303565b610189610374565b604051901515815260200161013d565b6101ac6101a7366004610e20565b6103f4565b60405161013d9b9a99989796959493929190611022565b61016c6101d1366004610df0565b61076e565b6101e96101e4366004610e20565b6107df565b60405161013d96959493929190610f22565b60025461018990600160a01b900460ff1681565b610217610bc7565b60405161013d96959493929190610fa4565b6001546001600160a01b0316610129565b61016c610d4f565b6001546001600160a01b03163314610189565b600254610129906001600160a01b031681565b600254600160a01b900460ff16610189565b33610129565b6000546001600160a01b03163314610189565b6002546001600160a01b03163314610189565b6002546001600160a01b0316610129565b6000546001600160a01b031633146102ce57600080fd5b6001600160a01b0381166102e157600080fd5b600080546001600160a01b0319166001600160a01b0392909216919091179055565b6000546001600160a01b0316331461031a57600080fd5b6001600160a01b03811661032d57600080fd5b600280546001600160a01b0319166001600160a01b0383161790556040517fa308298a77084def994b565be25bff2e8fbfe7006c2c6b2bacfb84d1ba1f635090600090a150565b600080546001600160a01b0316331461038c57600080fd5b600254600160a01b900460ff166103a257600080fd5b6002805460ff60a01b19169055604051600081527fedcd3d1311c56a1f814f5b4de26e8fb77f2db3563b9fc81138c17fd630e4876e9060200160405180910390a150600254600160a01b900460ff1690565b60008060008060008060006060806060806000600a60008e8152602001908152602001600020604051806101800160405290816000820154815260200160018201548152602001600282015481526020016003820154815260200160048201548152602001600582015481526020016006820160009054906101000a90046001600160a01b03166001600160a01b03166001600160a01b031681526020016007820180546104a1906110b9565b80601f01602080910402602001604051908101604052809291908181526020018280546104cd906110b9565b801561051a5780601f106104ef5761010080835404028352916020019161051a565b820191906000526020600020905b8154815290600101906020018083116104fd57829003601f168201915b5050509183525050600882015460209091019060ff166003811115610541576105416110f4565b6003811115610552576105526110f4565b8152602001600982018054610566906110b9565b80601f0160208091040260200160405190810160405280929190818152602001828054610592906110b9565b80156105df5780601f106105b4576101008083540402835291602001916105df565b820191906000526020600020905b8154815290600101906020018083116105c257829003601f168201915b50505050508152602001600a820180546105f8906110b9565b80601f0160208091040260200160405190810160405280929190818152602001828054610624906110b9565b80156106715780601f1061064657610100808354040283529160200191610671565b820191906000526020600020905b81548152906001019060200180831161065457829003601f168201915b50505050508152602001600b8201805461068a906110b9565b80601f01602080910402602001604051908101604052809291908181526020018280546106b6906110b9565b80156107035780601f106106d857610100808354040283529160200191610703565b820191906000526020600020905b8154815290600101906020018083116106e657829003601f168201915b50505050508152505090508060000151816020015182604001518360a00151846060015185608001518660c001518760e001518861012001518961014001518a61016001519b509b509b509b509b509b509b509b509b509b509b505091939597999b90929496989a50565b6000546001600160a01b0316331461078557600080fd5b6001600160a01b03811661079857600080fd5b600180546001600160a01b0319166001600160a01b0383161790556040517f162e32528b5907ecf876b3b7a4e5e0edf878642e3ec25852e3c35af1a4e1c04090600090a150565b600081815260196020908152604080832060218352818420601e8452828520601a8552838620601f8652848720601d87529685902084548651818902810189019097528087526060988998899889988998899891979096919590949391929188919083018282801561087a57602002820191906000526020600020905b81546001600160a01b0316815260019091019060200180831161085c575b50505050509550848054806020026020016040519081016040528092919081815260200182805480156108d657602002820191906000526020600020905b81546001600160a01b031681526001909101906020018083116108b8575b505050505094508380548060200260200160405190810160405280929190818152602001828054801561093257602002820191906000526020600020905b81546001600160a01b03168152600190910190602001808311610914575b5050505050935082805480602002602001604051908101604052809291908181526020016000905b82821015610a06578382906000526020600020018054610979906110b9565b80601f01602080910402602001604051908101604052809291908181526020018280546109a5906110b9565b80156109f25780601f106109c7576101008083540402835291602001916109f2565b820191906000526020600020905b8154815290600101906020018083116109d557829003601f168201915b50505050508152602001906001019061095a565b50505050925081805480602002602001604051908101604052809291908181526020016000905b82821015610ad9578382906000526020600020018054610a4c906110b9565b80601f0160208091040260200160405190810160405280929190818152602001828054610a78906110b9565b8015610ac55780601f10610a9a57610100808354040283529160200191610ac5565b820191906000526020600020905b815481529060010190602001808311610aa857829003601f168201915b505050505081526020019060010190610a2d565b50505050915080805480602002602001604051908101604052809291908181526020016000905b82821015610bac578382906000526020600020018054610b1f906110b9565b80601f0160208091040260200160405190810160405280929190818152602001828054610b4b906110b9565b8015610b985780601f10610b6d57610100808354040283529160200191610b98565b820191906000526020600020905b815481529060010190602001808311610b7b57829003601f168201915b505050505081526020019060010190610b00565b50505050905095509550955095509550955091939550919395565b600080600080606080610be6600054336001600160a01b039091161490565b6002546001600160a01b031633146001546001600160a01b03163314600260149054906101000a900460ff166004600581805480602002602001604051908101604052809291908181526020018280548015610c6157602002820191906000526020600020905b815481526020019060010190808311610c4d575b5050505050915080805480602002602001604051908101604052809291908181526020016000905b82821015610d35578382906000526020600020018054610ca8906110b9565b80601f0160208091040260200160405190810160405280929190818152602001828054610cd4906110b9565b8015610d215780601f10610cf657610100808354040283529160200191610d21565b820191906000526020600020905b815481529060010190602001808311610d0457829003601f168201915b505050505081526020019060010190610c89565b505050509050955095509550955095509550909192939495565b6002546001600160a01b0316331480610d7257506000546001600160a01b031633145b80610d8757506001546001600160a01b031633145b610d9057600080fd5b600254600160a01b900460ff1615610da757600080fd5b6002805460ff60a01b1916600160a01b179055604051600181527fedcd3d1311c56a1f814f5b4de26e8fb77f2db3563b9fc81138c17fd630e4876e9060200160405180910390a1565b600060208284031215610e0257600080fd5b81356001600160a01b0381168114610e1957600080fd5b9392505050565b600060208284031215610e3257600080fd5b5035919050565b600081518084526020808501945080840160005b83811015610e725781516001600160a01b031687529582019590820190600101610e4d565b509495945050505050565b600082825180855260208086019550808260051b84010181860160005b84811015610ec857601f19868403018952610eb6838351610ed5565b98840198925090830190600101610e9a565b5090979650505050505050565b6000815180845260005b81811015610efb57602081850181015186830182015201610edf565b81811115610f0d576000602083870101525b50601f01601f19169290920160200192915050565b60c081526000610f3560c0830189610e39565b8281036020840152610f478189610e39565b90508281036040840152610f5b8188610e39565b90508281036060840152610f6f8187610e7d565b90508281036080840152610f838186610e7d565b905082810360a0840152610f978185610e7d565b9998505050505050505050565b600060c0820188151583526020881515818501528715156040850152861515606085015260c0608085015281865180845260e086019150828801935060005b81811015610fff57845183529383019391830191600101610fe3565b505084810360a08601526110138187610e7d565b9b9a5050505050505050505050565b60006101608d83528c60208401528b60408401528a60608401528960808401528860a084015260018060a01b03881660c08401528060e084015261106881840188610ed5565b905082810361010084015261107d8187610ed5565b90508281036101208401526110928186610ed5565b90508281036101408401526110a78185610ed5565b9e9d5050505050505050505050505050565b600181811c908216806110cd57607f821691505b602082108114156110ee57634e487b7160e01b600052602260045260246000fd5b50919050565b634e487b7160e01b600052602160045260246000fdfea264697066735822122037c48b7fd35a03bffb9cf870819a07b667fef378436c5054066fbe825a1b435864736f6c63430008070033",
  "immutableReferences": {},
  "source": "// SPDX-License-Identifier: MIT\npragma solidity ^0.8.0;\n\nimport \"../roles/ExecutivesAccessControl.sol\";\n\ncontract EthDropBase is ExecutivesAccessControl {\n    /*** EVENTS ***/\n\n    /// @dev The RegistrationOpen event is fired whenever a new event starts and users can begin restering.\n    // event RegistrationOpen();\n\n    /// @dev The RegistrationOpen event is fired whenever a new event starts and users can begin restering.\n    //    After this event fires users can no longer register, and users who have registered can claim winnings.\n    // event WinningsClaimingOpen();\n\n    /// @dev The EventClose event is fired whenever an event closes. After this event is fired users can no\n    //    longer claim winnings\n    // event EventClose();\n\n    /// @dev Transfer event as defined in current draft of ERC721. Emitted every some Eth is transferred\n\n    event Transfer(address from, address to); // Assumed Eth\n\n    // TODO - (in later, more than just eth contracts as pass tokenId)\n    // event Transfer(address from, address to, uint tokenId);\n\n    /*** DATA TYPES ***/\n\n    /// @dev The main Kitty struct. Every cat in CryptoKitties is represented by a copy\n    ///  of this structure, so great care was taken to ensure that it fits neatly into\n    ///  exactly two 256-bit words. Note that the order of the members in this structure\n    ///  is important because of the byte-packing rules used by Ethereum.\n    ///  Ref: http://solidity.readthedocs.io/en/develop/miscellaneous.html\n\n    // TODO - ^ think harder about all that byte-packing junk... \n\n    enum EventState {\n        CREATED,\n        REGISTRATION,\n        CLAIM_WINNINGS,\n        ENDED\n    }\n\n    uint256 devCutPercentage = 5;\n\n    struct EthDropEvent {\n        // The IRL organization that controls their own airdrops.\n        // Each group can only be running 1 event at a time.\n        uint256 groupId;\n        // Event goes through a linear flow of states, finite state machine.\n        uint256 totalAmountContributed;\n        uint256 weiWinnings;\n        // The number of eligibleRecipients who have registered.\n        uint256 numberOfUsersCurrentlyRegistered;\n        uint256 numberOfEligibleRecipientsInGroup;\n        uint256 numberOfUsersWhoClaimedWinnings;\n        address currentContributorAddress;\n        // The timestamp from the block when this event started.\n        // uint256 startTime;\n        // // The timestamp from the block when registration for this event ended.\n        // uint256 registrationEndTime;\n        // // The timestamp from the block when this event ended.\n        // uint256 endTime;\n\n        string groupName;\n        // Event goes through a linear flow of states, finite state machine.\n        EventState currentState;\n        // Data about the sponsor info (address is stored in Roles)\n        string sponsorName;\n        string sponsorImageUrl;\n        string sponsorLinkToUrl;\n    }\n\n    // ALL events happening now or in the future.\n    // Key is the groupId\n    uint256[] listOfGroupIds;\n    string[] listOfGroupNames;\n\n    string[] suggestedGroupNames;\n    string[] suggestedGroupLocations;\n    string[] suggestedGroupContacts;\n    bool[] suggestedGroupAlreadyCreated;\n\n    // ALL events happening now or in the future.\n    // Key is the groupId\n    mapping(uint256 => EthDropEvent) currentEvents;\n\n    // ALL events that have already happened.\n    // Key is the groupId\n    mapping(uint256 => EthDropEvent[]) pastEvents;\n\n    // groupId => index in arrays for this specific address\n    mapping(uint256 => mapping(address => uint256)) adminAddressToIndex;\n\n    // groupId => nextAvailableIndex\n    mapping(uint256 => uint256) nextAdminIndexForGroup;\n\n    mapping(uint256 => mapping(address => bool)) winningsCollected;\n\n    // groupId => list of admin addresses\n    mapping(uint256 => address[]) adminAddresses;\n\n    // groupId => list of admin names\n    mapping(uint256 => string[]) adminNames;\n\n    // groupId => whether of not user is an admin\n    mapping(uint256 => bool[]) adminEnabled;\n\n     // groupId => nextAvailableIndex\n    mapping(uint256 => mapping(address => uint256)) nextEligibleRecipientApplicantIndex;\n    mapping(uint256 => uint256) nextEligibleRecipientApplicantNames;\n    mapping(uint256 => address) nextEligibleRecipientApplicantAddresses;\n    mapping(uint256 => bool) nextEligibleRecipientApplicantApprovals;\n    mapping(uint256 => uint256) nextEligibleRecipientApplicantApprovedBy;\n\n    // Holds ALL contributors for all groups\n    // groupId => Role\n    mapping(uint256 => mapping(address => bool)) contributors;\n\n    // Holds ALL eligibleRecipients for all groups\n    // groupId => Role\n    mapping(uint256 => mapping(address => bool)) eligibleRecipients;\n    mapping(uint256 => address[]) eligibleRecipientAddressesArray;\n    mapping(uint256 => string[]) eligibleRecipientNamesArray;\n    mapping(uint256 => bool[]) eligibleRecipientsEligibilityIsEnabled;\n    mapping(uint256 => mapping(address => string)) recipientAddressToName;\n\n    mapping(uint256 => string[]) winningsClaimedNamesArray;\n    mapping(uint256 => address[]) winningsClaimedAddressesArray;\n\n    mapping(uint256 => string[]) registeredRecipientNamesArray;\n\n    // Holds ALL registeredRecipients for all groups\n    // groupId => Role\n    mapping(uint256 => mapping(address => bool)) registeredRecipients;\n\n    // Holds ALL registeredRecipients in an array (for PaymentSplitter)\n    // groupId => address[]\n    mapping(uint256 => address[]) registeredRecipientAddressesArray;\n\n    // Keeping track of winnings for all groups\n    // mapping(uint256 => PaymentSplitter) pot;\n\n    // function getGroupIds() external view returns (uint256[] memory) {\n    //     return listOfGroupIds;\n    // }\n\n    // function getGroupNames() external view returns (string[] memory) {\n    //     return listOfGroupNames;\n    // }\n\n    // stack too deep\n    // function getGroupEventData(uint256 groupId)\n    //     external\n    //     view\n    //     returns (\n    //         uint256, // groupId\n    //         // Event goes through a linear flow of states, finite state machine.\n    //         string memory, // groupName\n    //         // Event goes through a linear flow of states, finite state machine.\n    //         EventState, // currentState,\n    //         // The timestamp from the block when this event started.\n    //         // uint256, // startTime,\n    //         // // The timestamp from the block when registration for this event ended.\n    //         // uint256, // registrationEndTime,\n    //         // // The timestamp from the bock when this event ended.\n    //         // uint256, // endTime,\n    //         // The number of eligibleRecipients who have registered.\n    //         uint256, // numberOfUsersCurrentlyRegistered,\n    //         // Data about the sponsor info (address is stored in Roles)\n    //         string memory, // sponsorName,\n    //         string memory, // sponsorImageUrl,\n    //         string memory, // sponsorLinkToUrl,\n    //         address // currentContributor,\n    //     )\n    // {\n    //     // EthDropEvent memory groupData = currentEvents[groupId];\n\n    //     return (\n    //         currentEvents[groupId].groupId,\n    //         currentEvents[groupId].groupName,\n    //         currentEvents[groupId].currentState,\n    //         // groupData.startTime,\n    //         // groupData.registrationEndTime,\n    //         // groupData.endTime,\n    //         currentEvents[groupId].numberOfUsersCurrentlyRegistered,\n    //         currentEvents[groupId].sponsorName,\n    //         currentEvents[groupId].sponsorImageUrl,\n    //         currentEvents[groupId].sponsorLinkToUrl,\n    //         currentEvents[groupId].currentContributorAddress\n    //     );\n    // }\n\n    function getGroupEventData(uint256 groupId)\n        external\n        view\n        returns (\n            uint256, // groupId\n            // Event goes through a linear flow of states, finite state machine.\n            uint256, // total amount contributed,\n            uint256, // wei winngings\n            uint256, // # users\n            uint256,\n            uint256,\n            address, // sponsor address\n            string memory, // groupName\n            // // Event goes through a linear flow of states, finite state machine.\n            // // EventState, // currentState,\n            // // The timestamp from the block when this event started.\n            // // uint256, // startTime,\n            // // // The timestamp from the block when registration for this event ended.\n            // // uint256, // registrationEndTime,\n            // // // The timestamp from the bock when this event ended.\n            // // uint256, // endTime,\n            // // The number of eligibleRecipients who have registered.\n\n            string memory, //\n            string memory, //\n            string memory //\n        )\n    // string[] memory,\n    // address[] memory,\n    // string[] memory,\n    // address[] memory,\n    // string[] memory,\n    // address[] memory\n    {\n        EthDropEvent memory groupData = currentEvents[groupId];\n\n        return (\n            groupData.groupId,\n            groupData.totalAmountContributed,\n            groupData.weiWinnings, // per user winnings\n            groupData.numberOfUsersWhoClaimedWinnings,\n            groupData.numberOfUsersCurrentlyRegistered,\n            groupData.numberOfEligibleRecipientsInGroup,\n            groupData.currentContributorAddress,\n            // // groupData.startTime,\n            // // groupData.registrationEndTime,\n            // // groupData.endTime,\n\n            groupData.groupName,\n            // groupData.currentState,\n\n            groupData.sponsorName,\n            groupData.sponsorImageUrl,\n            groupData.sponsorLinkToUrl\n            // eligibleRecipientNamesArray[groupId],\n            // eligibleRecipientAddressesArray[groupId],\n            // registeredRecipientNamesArray[groupId],\n            // registeredRecipientAddressesArray[groupId],\n            // winningsClaimedNamesArray[groupId],\n            // winningsClaimedAddressesArray[groupId]\n        );\n    }\n\n    function getGroupEventUsersData(uint256 groupId)\n        external\n        view\n        returns (\n            address[] memory,\n            address[] memory,\n            address[] memory,\n            string[] memory,\n            string[] memory,\n            string[] memory\n        )\n    {\n        return (\n            eligibleRecipientAddressesArray[groupId],\n            registeredRecipientAddressesArray[groupId],\n            winningsClaimedAddressesArray[groupId],\n            eligibleRecipientNamesArray[groupId],\n            registeredRecipientNamesArray[groupId],\n            winningsClaimedNamesArray[groupId]\n        );\n    }\n\n    function getGlobalData()\n        external\n        view\n        returns (\n            bool,\n            bool,\n            bool,\n            bool,\n            uint256[] memory,\n            string[] memory\n        )\n    {\n        return (\n            isCEO(),\n            isCOO(),\n            isCFO(),\n            paused,\n            listOfGroupIds,\n            listOfGroupNames\n        );\n    }\n}\n",
  "sourcePath": "/Users/jim/v2-client-ethDrop/EthDrop/contracts/core/EthDropBase.sol",
  "compiler": {
    "name": "solc",
    "version": "0.8.7+commit.e28d00a7.Emscripten.clang"
  },
  "schemaVersion": "3.4.1",
  "updatedAt": "2021-09-05T19:56:19.626Z",
  "devdoc": {
    "events": {
      "Transfer(address,address)": {
        "details": "Transfer event as defined in current draft of ERC721. Emitted every some Eth is transferred"
      }
    },
    "kind": "dev",
    "methods": {
      "pause()": {
        "details": "Called by any \"C-level\" role to pause the contract. Used only when  a bug or exploit is detected and we need to limit damage."
      },
      "setCEO(address)": {
        "details": "Assigns a new address to act as the CEO. Only available to the current CEO.",
        "params": {
          "_newCEO": "The address of the new CEO"
        }
      },
      "setCFO(address)": {
        "details": "Assigns a new address to act as the CFO. Only available to the current CEO.",
        "params": {
          "_newCFO": "The address of the new CFO"
        }
      },
      "setCOO(address)": {
        "details": "Assigns a new address to act as the COO. Only available to the current CEO.",
        "params": {
          "_newCOO": "The address of the new COO"
        }
      },
      "unpause()": {
        "details": "Unpauses the smart contract. Can only be called by the CEO, since  one reason we may pause the contract is when CFO or COO accounts are  compromised."
      }
    },
    "version": 1
  },
  "userdoc": {
    "kind": "user",
    "methods": {
      "unpause()": {
        "notice": "This is public rather than external so it can be called by  derived contracts."
      }
    },
    "version": 1
  }
}