{
  "contractName": "EthDropCore",
  "abi": [
    {
      "inputs": [],
      "stateMutability": "nonpayable",
      "type": "constructor"
    },
    {
      "anonymous": false,
      "inputs": [
        {
          "indexed": true,
          "internalType": "address",
          "name": "account",
          "type": "address"
        },
        {
          "indexed": false,
          "internalType": "uint256",
          "name": "groupId",
          "type": "uint256"
        }
      ],
      "name": "AdminAdded",
      "type": "event"
    },
    {
      "anonymous": false,
      "inputs": [
        {
          "indexed": true,
          "internalType": "address",
          "name": "account",
          "type": "address"
        },
        {
          "indexed": false,
          "internalType": "uint256",
          "name": "groupId",
          "type": "uint256"
        }
      ],
      "name": "AdminRemoved",
      "type": "event"
    },
    {
      "anonymous": false,
      "inputs": [
        {
          "indexed": false,
          "internalType": "uint256",
          "name": "registeredRecipientCount",
          "type": "uint256"
        },
        {
          "indexed": false,
          "internalType": "uint256",
          "name": "winningsPerRecipient",
          "type": "uint256"
        }
      ],
      "name": "CalculatedPot",
      "type": "event"
    },
    {
      "anonymous": false,
      "inputs": [
        {
          "indexed": false,
          "internalType": "address",
          "name": "newContract",
          "type": "address"
        }
      ],
      "name": "ContractUpgrade",
      "type": "event"
    },
    {
      "anonymous": false,
      "inputs": [
        {
          "indexed": true,
          "internalType": "address",
          "name": "account",
          "type": "address"
        },
        {
          "indexed": false,
          "internalType": "uint256",
          "name": "groupId",
          "type": "uint256"
        },
        {
          "indexed": false,
          "internalType": "uint256",
          "name": "amount",
          "type": "uint256"
        }
      ],
      "name": "ContributionMade",
      "type": "event"
    },
    {
      "anonymous": false,
      "inputs": [
        {
          "indexed": true,
          "internalType": "address",
          "name": "account",
          "type": "address"
        },
        {
          "indexed": false,
          "internalType": "uint256",
          "name": "groupId",
          "type": "uint256"
        }
      ],
      "name": "ContributorAdded",
      "type": "event"
    },
    {
      "anonymous": false,
      "inputs": [
        {
          "indexed": true,
          "internalType": "address",
          "name": "account",
          "type": "address"
        },
        {
          "indexed": false,
          "internalType": "uint256",
          "name": "groupId",
          "type": "uint256"
        }
      ],
      "name": "ContributorRemoved",
      "type": "event"
    },
    {
      "anonymous": false,
      "inputs": [
        {
          "indexed": true,
          "internalType": "address",
          "name": "account",
          "type": "address"
        },
        {
          "indexed": false,
          "internalType": "uint256",
          "name": "groupId",
          "type": "uint256"
        }
      ],
      "name": "EligibleRecipientAdded",
      "type": "event"
    },
    {
      "anonymous": false,
      "inputs": [
        {
          "indexed": true,
          "internalType": "address",
          "name": "account",
          "type": "address"
        },
        {
          "indexed": false,
          "internalType": "uint256",
          "name": "groupId",
          "type": "uint256"
        }
      ],
      "name": "EligibleRecipientRemoved",
      "type": "event"
    },
    {
      "anonymous": false,
      "inputs": [],
      "name": "EventClose",
      "type": "event"
    },
    {
      "anonymous": false,
      "inputs": [
        {
          "indexed": true,
          "internalType": "address",
          "name": "endedBy",
          "type": "address"
        },
        {
          "indexed": false,
          "internalType": "uint256",
          "name": "groupId",
          "type": "uint256"
        }
      ],
      "name": "EventEnded",
      "type": "event"
    },
    {
      "anonymous": false,
      "inputs": [
        {
          "indexed": true,
          "internalType": "address",
          "name": "startedBy",
          "type": "address"
        },
        {
          "indexed": false,
          "internalType": "uint256",
          "name": "groupId",
          "type": "uint256"
        }
      ],
      "name": "EventStarted",
      "type": "event"
    },
    {
      "anonymous": false,
      "inputs": [
        {
          "indexed": true,
          "internalType": "address",
          "name": "creator",
          "type": "address"
        },
        {
          "indexed": false,
          "internalType": "uint256",
          "name": "groupId",
          "type": "uint256"
        }
      ],
      "name": "GroupCreated",
      "type": "event"
    },
    {
      "anonymous": false,
      "inputs": [
        {
          "indexed": true,
          "internalType": "address",
          "name": "account",
          "type": "address"
        },
        {
          "indexed": false,
          "internalType": "uint256",
          "name": "groupId",
          "type": "uint256"
        }
      ],
      "name": "RecipientRegistered",
      "type": "event"
    },
    {
      "anonymous": false,
      "inputs": [
        {
          "indexed": true,
          "internalType": "address",
          "name": "endedBy",
          "type": "address"
        },
        {
          "indexed": false,
          "internalType": "uint256",
          "name": "groupId",
          "type": "uint256"
        }
      ],
      "name": "RegistrationEnded",
      "type": "event"
    },
    {
      "anonymous": false,
      "inputs": [],
      "name": "RegistrationOpen",
      "type": "event"
    },
    {
      "anonymous": false,
      "inputs": [
        {
          "indexed": false,
          "internalType": "address",
          "name": "from",
          "type": "address"
        },
        {
          "indexed": false,
          "internalType": "address",
          "name": "to",
          "type": "address"
        }
      ],
      "name": "Transfer",
      "type": "event"
    },
    {
      "anonymous": false,
      "inputs": [
        {
          "indexed": true,
          "internalType": "address",
          "name": "account",
          "type": "address"
        },
        {
          "indexed": false,
          "internalType": "uint256",
          "name": "groupId",
          "type": "uint256"
        }
      ],
      "name": "WinningsClaimed",
      "type": "event"
    },
    {
      "anonymous": false,
      "inputs": [],
      "name": "WinningsClaimingOpen",
      "type": "event"
    },
    {
      "inputs": [
        {
          "internalType": "address",
          "name": "account",
          "type": "address"
        },
        {
          "internalType": "uint256",
          "name": "groupId",
          "type": "uint256"
        }
      ],
      "name": "addAdmin",
      "outputs": [],
      "stateMutability": "nonpayable",
      "type": "function"
    },
    {
      "inputs": [
        {
          "internalType": "address",
          "name": "account",
          "type": "address"
        },
        {
          "internalType": "uint256",
          "name": "groupId",
          "type": "uint256"
        }
      ],
      "name": "addContributor",
      "outputs": [],
      "stateMutability": "nonpayable",
      "type": "function"
    },
    {
      "inputs": [
        {
          "internalType": "address",
          "name": "account",
          "type": "address"
        },
        {
          "internalType": "uint256",
          "name": "groupId",
          "type": "uint256"
        }
      ],
      "name": "addEligibleRecipient",
      "outputs": [],
      "stateMutability": "nonpayable",
      "type": "function"
    },
    {
      "inputs": [],
      "name": "ceoAddress",
      "outputs": [
        {
          "internalType": "address",
          "name": "",
          "type": "address"
        }
      ],
      "stateMutability": "view",
      "type": "function",
      "constant": true
    },
    {
      "inputs": [],
      "name": "cfoAddress",
      "outputs": [
        {
          "internalType": "address",
          "name": "",
          "type": "address"
        }
      ],
      "stateMutability": "view",
      "type": "function",
      "constant": true
    },
    {
      "inputs": [
        {
          "internalType": "uint256",
          "name": "groupId",
          "type": "uint256"
        }
      ],
      "name": "claimWinnings",
      "outputs": [],
      "stateMutability": "nonpayable",
      "type": "function"
    },
    {
      "inputs": [
        {
          "internalType": "uint256",
          "name": "groupId",
          "type": "uint256"
        }
      ],
      "name": "closeEventRegistration",
      "outputs": [],
      "stateMutability": "nonpayable",
      "type": "function"
    },
    {
      "inputs": [
        {
          "internalType": "uint256",
          "name": "groupId",
          "type": "uint256"
        }
      ],
      "name": "contributeToPot",
      "outputs": [],
      "stateMutability": "payable",
      "type": "function",
      "payable": true
    },
    {
      "inputs": [],
      "name": "cooAddress",
      "outputs": [
        {
          "internalType": "address",
          "name": "",
          "type": "address"
        }
      ],
      "stateMutability": "view",
      "type": "function",
      "constant": true
    },
    {
      "inputs": [
        {
          "internalType": "string",
          "name": "groupName",
          "type": "string"
        }
      ],
      "name": "createNewGroup",
      "outputs": [],
      "stateMutability": "nonpayable",
      "type": "function"
    },
    {
      "inputs": [
        {
          "internalType": "uint256",
          "name": "groupId",
          "type": "uint256"
        }
      ],
      "name": "endEvent",
      "outputs": [],
      "stateMutability": "nonpayable",
      "type": "function"
    },
    {
      "inputs": [],
      "name": "getCFO",
      "outputs": [
        {
          "internalType": "address",
          "name": "",
          "type": "address"
        }
      ],
      "stateMutability": "view",
      "type": "function",
      "constant": true
    },
    {
      "inputs": [],
      "name": "getCOO",
      "outputs": [
        {
          "internalType": "address",
          "name": "",
          "type": "address"
        }
      ],
      "stateMutability": "view",
      "type": "function",
      "constant": true
    },
    {
      "inputs": [],
      "name": "getGroupIds",
      "outputs": [
        {
          "internalType": "uint256[]",
          "name": "",
          "type": "uint256[]"
        }
      ],
      "stateMutability": "view",
      "type": "function",
      "constant": true
    },
    {
      "inputs": [],
      "name": "getGroupNames",
      "outputs": [
        {
          "internalType": "string[]",
          "name": "",
          "type": "string[]"
        }
      ],
      "stateMutability": "view",
      "type": "function",
      "constant": true
    },
    {
      "inputs": [],
      "name": "getString",
      "outputs": [
        {
          "internalType": "string",
          "name": "",
          "type": "string"
        }
      ],
      "stateMutability": "view",
      "type": "function",
      "constant": true
    },
    {
      "inputs": [
        {
          "internalType": "address",
          "name": "account",
          "type": "address"
        },
        {
          "internalType": "uint256",
          "name": "groupId",
          "type": "uint256"
        }
      ],
      "name": "isAdmin",
      "outputs": [
        {
          "internalType": "bool",
          "name": "",
          "type": "bool"
        }
      ],
      "stateMutability": "view",
      "type": "function",
      "constant": true
    },
    {
      "inputs": [],
      "name": "isCEO",
      "outputs": [
        {
          "internalType": "bool",
          "name": "",
          "type": "bool"
        }
      ],
      "stateMutability": "view",
      "type": "function",
      "constant": true
    },
    {
      "inputs": [],
      "name": "isCFO",
      "outputs": [
        {
          "internalType": "bool",
          "name": "",
          "type": "bool"
        }
      ],
      "stateMutability": "view",
      "type": "function",
      "constant": true
    },
    {
      "inputs": [],
      "name": "isCOO",
      "outputs": [
        {
          "internalType": "bool",
          "name": "",
          "type": "bool"
        }
      ],
      "stateMutability": "view",
      "type": "function",
      "constant": true
    },
    {
      "inputs": [
        {
          "internalType": "address",
          "name": "account",
          "type": "address"
        },
        {
          "internalType": "uint256",
          "name": "groupId",
          "type": "uint256"
        }
      ],
      "name": "isContributor",
      "outputs": [
        {
          "internalType": "bool",
          "name": "",
          "type": "bool"
        }
      ],
      "stateMutability": "view",
      "type": "function",
      "constant": true
    },
    {
      "inputs": [
        {
          "internalType": "address",
          "name": "account",
          "type": "address"
        },
        {
          "internalType": "uint256",
          "name": "groupId",
          "type": "uint256"
        }
      ],
      "name": "isEligibleRecipient",
      "outputs": [
        {
          "internalType": "bool",
          "name": "",
          "type": "bool"
        }
      ],
      "stateMutability": "view",
      "type": "function",
      "constant": true
    },
    {
      "inputs": [
        {
          "internalType": "address",
          "name": "account",
          "type": "address"
        },
        {
          "internalType": "uint256",
          "name": "groupId",
          "type": "uint256"
        }
      ],
      "name": "isRegisteredRecipient",
      "outputs": [
        {
          "internalType": "bool",
          "name": "",
          "type": "bool"
        }
      ],
      "stateMutability": "view",
      "type": "function",
      "constant": true
    },
    {
      "inputs": [],
      "name": "newContractAddress",
      "outputs": [
        {
          "internalType": "address",
          "name": "",
          "type": "address"
        }
      ],
      "stateMutability": "view",
      "type": "function",
      "constant": true
    },
    {
      "inputs": [],
      "name": "pause",
      "outputs": [],
      "stateMutability": "nonpayable",
      "type": "function"
    },
    {
      "inputs": [],
      "name": "paused",
      "outputs": [
        {
          "internalType": "bool",
          "name": "",
          "type": "bool"
        }
      ],
      "stateMutability": "view",
      "type": "function",
      "constant": true
    },
    {
      "inputs": [
        {
          "internalType": "uint256",
          "name": "groupId",
          "type": "uint256"
        }
      ],
      "name": "readEventInfo",
      "outputs": [
        {
          "components": [
            {
              "internalType": "uint256",
              "name": "groupId",
              "type": "uint256"
            },
            {
              "internalType": "string",
              "name": "groupName",
              "type": "string"
            },
            {
              "internalType": "enum EthDropBase.EventState",
              "name": "currentState",
              "type": "uint8"
            },
            {
              "internalType": "uint256",
              "name": "startTime",
              "type": "uint256"
            },
            {
              "internalType": "uint256",
              "name": "registrationEndTime",
              "type": "uint256"
            },
            {
              "internalType": "uint256",
              "name": "endTime",
              "type": "uint256"
            },
            {
              "internalType": "uint256",
              "name": "registeredRecipientsCount",
              "type": "uint256"
            },
            {
              "internalType": "string",
              "name": "sponsorName",
              "type": "string"
            },
            {
              "internalType": "string",
              "name": "sponsorImageUrl",
              "type": "string"
            },
            {
              "internalType": "string",
              "name": "sponsorLinkToUrl",
              "type": "string"
            },
            {
              "internalType": "address",
              "name": "currentContributor",
              "type": "address"
            }
          ],
          "internalType": "struct EthDropBase.EthDropEvent",
          "name": "",
          "type": "tuple"
        }
      ],
      "stateMutability": "view",
      "type": "function",
      "constant": true
    },
    {
      "inputs": [
        {
          "internalType": "uint256",
          "name": "groupId",
          "type": "uint256"
        }
      ],
      "name": "registerForEvent",
      "outputs": [],
      "stateMutability": "nonpayable",
      "type": "function"
    },
    {
      "inputs": [
        {
          "internalType": "address",
          "name": "account",
          "type": "address"
        },
        {
          "internalType": "uint256",
          "name": "groupId",
          "type": "uint256"
        }
      ],
      "name": "removeAdmin",
      "outputs": [],
      "stateMutability": "nonpayable",
      "type": "function"
    },
    {
      "inputs": [
        {
          "internalType": "address",
          "name": "account",
          "type": "address"
        },
        {
          "internalType": "uint256",
          "name": "groupId",
          "type": "uint256"
        }
      ],
      "name": "removeContributor",
      "outputs": [],
      "stateMutability": "nonpayable",
      "type": "function"
    },
    {
      "inputs": [
        {
          "internalType": "address",
          "name": "account",
          "type": "address"
        },
        {
          "internalType": "uint256",
          "name": "groupId",
          "type": "uint256"
        }
      ],
      "name": "removeEligibleRecipient",
      "outputs": [],
      "stateMutability": "nonpayable",
      "type": "function"
    },
    {
      "inputs": [
        {
          "internalType": "uint256",
          "name": "groupId",
          "type": "uint256"
        }
      ],
      "name": "renounceAdmin",
      "outputs": [],
      "stateMutability": "nonpayable",
      "type": "function"
    },
    {
      "inputs": [
        {
          "internalType": "uint256",
          "name": "groupId",
          "type": "uint256"
        }
      ],
      "name": "renounceContributor",
      "outputs": [],
      "stateMutability": "nonpayable",
      "type": "function"
    },
    {
      "inputs": [
        {
          "internalType": "address",
          "name": "_newCEO",
          "type": "address"
        }
      ],
      "name": "setCEO",
      "outputs": [],
      "stateMutability": "nonpayable",
      "type": "function"
    },
    {
      "inputs": [
        {
          "internalType": "address",
          "name": "_newCFO",
          "type": "address"
        }
      ],
      "name": "setCFO",
      "outputs": [],
      "stateMutability": "nonpayable",
      "type": "function"
    },
    {
      "inputs": [
        {
          "internalType": "address",
          "name": "_newCOO",
          "type": "address"
        }
      ],
      "name": "setCOO",
      "outputs": [],
      "stateMutability": "nonpayable",
      "type": "function"
    },
    {
      "inputs": [
        {
          "internalType": "string",
          "name": "_s",
          "type": "string"
        }
      ],
      "name": "setString",
      "outputs": [],
      "stateMutability": "nonpayable",
      "type": "function"
    },
    {
      "inputs": [
        {
          "internalType": "uint256",
          "name": "groupId",
          "type": "uint256"
        }
      ],
      "name": "startEvent",
      "outputs": [],
      "stateMutability": "nonpayable",
      "type": "function"
    },
    {
      "inputs": [],
      "name": "stringgg",
      "outputs": [
        {
          "internalType": "string",
          "name": "",
          "type": "string"
        }
      ],
      "stateMutability": "view",
      "type": "function",
      "constant": true
    },
    {
      "inputs": [],
      "name": "unpause",
      "outputs": [],
      "stateMutability": "nonpayable",
      "type": "function"
    },
    {
      "inputs": [],
      "name": "whoami",
      "outputs": [
        {
          "internalType": "address",
          "name": "",
          "type": "address"
        }
      ],
      "stateMutability": "view",
      "type": "function",
      "constant": true
    },
    {
      "inputs": [
        {
          "internalType": "address",
          "name": "_v2Address",
          "type": "address"
        }
      ],
      "name": "setNewAddress",
      "outputs": [],
      "stateMutability": "nonpayable",
      "type": "function"
    },
    {
      "inputs": [],
      "name": "foobar",
      "outputs": [
        {
          "internalType": "string",
          "name": "",
          "type": "string"
        }
      ],
      "stateMutability": "pure",
      "type": "function",
      "constant": true
    }
  ],
  "bytecode": "0x60806040526000600360146101000a81548160ff021916908315150217905550600560045534801561003057600080fd5b506001600360146101000a81548160ff02191690831515021790555033600160006101000a81548173ffffffffffffffffffffffffffffffffffffffff021916908373ffffffffffffffffffffffffffffffffffffffff1602179055506155ea8061009c6000396000f3fe608060405260043610620002965760003560e01c80637fcb29c91162000163578063c6e0ddfa11620000c7578063e513b7a91162000085578063e513b7a9146200098b578063e62092be14620009bb578063e82f24e014620009ff578063ea303f081462000a1f578063f4a02e701462000a4d578063fc5fd6e41462000a7d5762000296565b8063c6e0ddfa146200088d578063d5f016c314620008bb578063e0bd7d1514620008eb578063e320d5e71462000919578063e33db42614620009475762000296565b8063a59a69531162000121578063a59a69531462000771578063ab4e1945146200079f578063b047fb5014620007cd578063b3b36bb314620007fd578063c02b8b2c146200082d578063c6db5094146200085d5762000296565b80637fcb29c914620006855780638182aaf214620006b35780638456cb5914620006f757806389ea642f14620007115780639393ae3714620007415762000296565b80634e0a3379116200020b5780636af04a5711620001c95780636af04a571462000557578063715879881462000587578063785142be14620005b55780637b936ac214620005e35780637d837ce514620006135780637fcaf66614620006575762000296565b80634e0a337914620004595780634f1ef03c14620004875780635c975abb14620004b55780635e82c1fc14620004e5578063677bd9ff14620005295762000296565b80632ba73c1511620002595780632ba73c15146200038757806330bb011514620003b5578063330a347b14620003e35780633f4ba83a1462000411578063406db843146200042b5762000296565b80630519ce79146200029b57806305df75db14620002cb5780630a0f816814620002fb57806315891ff4146200032b57806327d7874c1462000359575b600080fd5b348015620002a857600080fd5b50620002b362000aad565b604051620002c291906200371d565b60405180910390f35b348015620002d857600080fd5b50620002e362000ad3565b604051620002f29190620037f7565b60405180910390f35b3480156200030857600080fd5b506200031362000b10565b6040516200032291906200371d565b60405180910390f35b3480156200033857600080fd5b5062000357600480360381019062000351919062003266565b62000b36565b005b3480156200036657600080fd5b506200038560048036038101906200037f919062003234565b62000c26565b005b3480156200039457600080fd5b50620003b36004803603810190620003ad919062003234565b62000d00565b005b348015620003c257600080fd5b50620003e16004803603810190620003db9190620032fe565b62000dda565b005b348015620003f057600080fd5b506200040f6004803603810190620004099190620032fe565b62000e01565b005b3480156200041e57600080fd5b5062000429620010f7565b005b3480156200043857600080fd5b50620004576004803603810190620004519190620032fe565b62001189565b005b3480156200046657600080fd5b506200048560048036038101906200047f919062003234565b6200131a565b005b3480156200049457600080fd5b50620004b36004803603810190620004ad9190620032fe565b620013b9565b005b348015620004c257600080fd5b50620004cd620013fb565b604051620004dc9190620037da565b60405180910390f35b348015620004f257600080fd5b506200051160048036038101906200050b919062003266565b6200140e565b604051620005209190620037da565b60405180910390f35b3480156200053657600080fd5b506200055560048036038101906200054f9190620032fe565b62001498565b005b3480156200056457600080fd5b506200056f620015c0565b6040516200057e91906200371d565b60405180910390f35b3480156200059457600080fd5b50620005b36004803603810190620005ad919062003234565b620015e6565b005b348015620005c257600080fd5b50620005e16004803603810190620005db9190620032fe565b620016d8565b005b348015620005f057600080fd5b50620005fb62001abd565b6040516200060a91906200371d565b60405180910390f35b3480156200062057600080fd5b506200063f600480360381019062000639919062003266565b62001ae7565b6040516200064e9190620037da565b60405180910390f35b3480156200066457600080fd5b506200068360048036038101906200067d9190620032ad565b62001b71565b005b3480156200069257600080fd5b50620006b16004803603810190620006ab919062003266565b62001b8d565b005b348015620006c057600080fd5b50620006df6004803603810190620006d9919062003266565b62001bf8565b604051620006ee9190620037da565b60405180910390f35b3480156200070457600080fd5b506200070f62001c82565b005b3480156200071e57600080fd5b506200072962001dc7565b604051620007389190620037f7565b60405180910390f35b3480156200074e57600080fd5b506200075962001e61565b604051620007689190620037da565b60405180910390f35b3480156200077e57600080fd5b506200079d6004803603810190620007979190620032fe565b62001eb9565b005b348015620007ac57600080fd5b50620007cb6004803603810190620007c5919062003266565b62001f9c565b005b348015620007da57600080fd5b50620007e56200208c565b604051620007f491906200371d565b60405180910390f35b3480156200080a57600080fd5b5062000815620020b2565b6040516200082491906200371d565b60405180910390f35b3480156200083a57600080fd5b5062000845620020ba565b604051620008549190620037b6565b60405180910390f35b3480156200086a57600080fd5b506200087562002114565b604051620008849190620037f7565b60405180910390f35b3480156200089a57600080fd5b50620008b96004803603810190620008b3919062003266565b620021aa565b005b348015620008c857600080fd5b50620008d362002215565b604051620008e2919062003792565b60405180910390f35b348015620008f857600080fd5b5062000917600480360381019062000911919062003266565b620022f8565b005b3480156200092657600080fd5b506200094560048036038101906200093f919062003266565b62002394565b005b3480156200095457600080fd5b506200097360048036038101906200096d9190620032fe565b62002430565b6040516200098291906200381b565b60405180910390f35b3480156200099857600080fd5b50620009a3620027a9565b604051620009b29190620037da565b60405180910390f35b348015620009c857600080fd5b50620009e76004803603810190620009e1919062003266565b62002801565b604051620009f69190620037da565b60405180910390f35b62000a1d600480360381019062000a179190620032fe565b62002870565b005b34801562000a2c57600080fd5b5062000a4b600480360381019062000a459190620032ad565b620028f8565b005b34801562000a5a57600080fd5b5062000a6562002c20565b60405162000a749190620037da565b60405180910390f35b34801562000a8a57600080fd5b5062000a9562002c78565b60405162000aa491906200371d565b60405180910390f35b600260009054906101000a900473ffffffffffffffffffffffffffffffffffffffff1681565b60606040518060400160405280600d81526020017f666f6f6261727272727272722100000000000000000000000000000000000000815250905090565b600160009054906101000a900473ffffffffffffffffffffffffffffffffffffffff1681565b8062000b43338262002801565b62000b4d57600080fd5b600360149054906101000a900460ff161562000b6857600080fd5b6000600b600084815260200190815260200160002060008573ffffffffffffffffffffffffffffffffffffffff1673ffffffffffffffffffffffffffffffffffffffff16815260200190815260200160002060006101000a81548160ff0219169083151502179055508273ffffffffffffffffffffffffffffffffffffffff167f1af6d16168d33745872119540d28858eed156c5f265206bbf1344fda39a93a338360405162000c1991906200383f565b60405180910390a2505050565b600160009054906101000a900473ffffffffffffffffffffffffffffffffffffffff1673ffffffffffffffffffffffffffffffffffffffff163373ffffffffffffffffffffffffffffffffffffffff161462000c8157600080fd5b600073ffffffffffffffffffffffffffffffffffffffff168173ffffffffffffffffffffffffffffffffffffffff16141562000cbc57600080fd5b80600160006101000a81548173ffffffffffffffffffffffffffffffffffffffff021916908373ffffffffffffffffffffffffffffffffffffffff16021790555050565b600160009054906101000a900473ffffffffffffffffffffffffffffffffffffffff1673ffffffffffffffffffffffffffffffffffffffff163373ffffffffffffffffffffffffffffffffffffffff161462000d5b57600080fd5b600073ffffffffffffffffffffffffffffffffffffffff168173ffffffffffffffffffffffffffffffffffffffff16141562000d9657600080fd5b80600360006101000a81548173ffffffffffffffffffffffffffffffffffffffff021916908373ffffffffffffffffffffffffffffffffffffffff16021790555050565b8062000de7338262002801565b62000df157600080fd5b62000dfd338362002ca2565b5050565b8062000e0e338262002801565b8062000e675750600360009054906101000a900473ffffffffffffffffffffffffffffffffffffffff1673ffffffffffffffffffffffffffffffffffffffff163373ffffffffffffffffffffffffffffffffffffffff16145b62000e7157600080fd5b600360149054906101000a900460ff161562000e8c57600080fd5b42600760008481526020019081526020016000206005018190555060036007600084815260200190815260200160002060020160006101000a81548160ff0219169083600381111562000ee45762000ee362003c80565b5b0217905550600860008381526020019081526020016000206007600084815260200190815260200160002090806001815401808255809150506001900390600052602060002090600b020160009091909190915060008201548160000155600182018160010190805462000f589062003b4a565b62000f6592919062002f96565b506002820160009054906101000a900460ff168160020160006101000a81548160ff0219169083600381111562000fa15762000fa062003c80565b5b021790555060038201548160030155600482015481600401556005820154816005015560068201548160060155600782018160070190805462000fe49062003b4a565b62000ff192919062002f96565b506008820181600801908054620010089062003b4a565b6200101592919062002f96565b5060098201816009019080546200102c9062003b4a565b6200103992919062002f96565b50600a820160009054906101000a900473ffffffffffffffffffffffffffffffffffffffff1681600a0160006101000a81548173ffffffffffffffffffffffffffffffffffffffff021916908373ffffffffffffffffffffffffffffffffffffffff16021790555050503373ffffffffffffffffffffffffffffffffffffffff167f6f45a19e8850c727d0de9f32e0d8691324a9a74ffb4347652e6404138b1d816583604051620010eb91906200383f565b60405180910390a25050565b600160009054906101000a900473ffffffffffffffffffffffffffffffffffffffff1673ffffffffffffffffffffffffffffffffffffffff163373ffffffffffffffffffffffffffffffffffffffff16146200115257600080fd5b600360149054906101000a900460ff166200116c57600080fd5b6000600360146101000a81548160ff021916908315150217905550565b806200119633826200140e565b620011a057600080fd5b600360149054906101000a900460ff1615620011bb57600080fd5b6001600c600084815260200190815260200160002060003373ffffffffffffffffffffffffffffffffffffffff1673ffffffffffffffffffffffffffffffffffffffff16815260200190815260200160002060006101000a81548160ff021916908315150217905550600d6000838152602001908152602001600020339080600181540180825580915050600190039060005260206000200160009091909190916101000a81548173ffffffffffffffffffffffffffffffffffffffff021916908373ffffffffffffffffffffffffffffffffffffffff160217905550600760008381526020019081526020016000206006016000815480929190620012c19062003bd4565b91905055503373ffffffffffffffffffffffffffffffffffffffff167f0695e999be8100bdb5bee8612337296508d527eae78c65b8f170eacb5a3b439d836040516200130e91906200383f565b60405180910390a25050565b600160009054906101000a900473ffffffffffffffffffffffffffffffffffffffff1673ffffffffffffffffffffffffffffffffffffffff163373ffffffffffffffffffffffffffffffffffffffff16146200137557600080fd5b80600260006101000a81548173ffffffffffffffffffffffffffffffffffffffff021916908373ffffffffffffffffffffffffffffffffffffffff16021790555050565b80620013c6338262001bf8565b620013d057600080fd5b600360149054906101000a900460ff1615620013eb57600080fd5b620013f7338362002d5f565b5050565b600360149054906101000a900460ff1681565b6000600360149054906101000a900460ff16156200142b57600080fd5b60011515600b600084815260200190815260200160002060008573ffffffffffffffffffffffffffffffffffffffff1673ffffffffffffffffffffffffffffffffffffffff16815260200190815260200160002060009054906101000a900460ff16151514905092915050565b80620014a5338262001ae7565b620014af57600080fd5b600360149054906101000a900460ff1615620014ca57600080fd5b600e600083815260200190815260200160002060009054906101000a900473ffffffffffffffffffffffffffffffffffffffff1673ffffffffffffffffffffffffffffffffffffffff166319165587336040518263ffffffff1660e01b81526004016200153891906200373a565b600060405180830381600087803b1580156200155357600080fd5b505af115801562001568573d6000803e3d6000fd5b505050503373ffffffffffffffffffffffffffffffffffffffff167f1a31e733a172afcf46074b3106c17f0c298e226442682a03c1e99ce256139ec283604051620015b491906200383f565b60405180910390a25050565b600f60009054906101000a900473ffffffffffffffffffffffffffffffffffffffff1681565b600160009054906101000a900473ffffffffffffffffffffffffffffffffffffffff1673ffffffffffffffffffffffffffffffffffffffff163373ffffffffffffffffffffffffffffffffffffffff16146200164157600080fd5b600360149054906101000a900460ff166200165b57600080fd5b80600f60006101000a81548173ffffffffffffffffffffffffffffffffffffffff021916908373ffffffffffffffffffffffffffffffffffffffff1602179055507f450db8da6efbe9c22f2347f7c2021231df1fc58d3ae9a2fa75d39fa44619930581604051620016cd91906200371d565b60405180910390a150565b80620016e5338262002801565b620016ef57600080fd5b600360149054906101000a900460ff16156200170a57600080fd5b426007600084815260200190815260200160002060040181905550600260009054906101000a900473ffffffffffffffffffffffffffffffffffffffff1673ffffffffffffffffffffffffffffffffffffffff166108fc606460045447620017739190620039fd565b6200177f9190620039c5565b9081150290604051600060405180830381858888f19350505050158015620017ab573d6000803e3d6000fd5b506000600760008481526020019081526020016000206006015467ffffffffffffffff811115620017e157620017e062003d0d565b5b604051908082528060200260200182016040528015620018105781602001602082028036833780820191505090505b50905060005b60076000858152602001908152602001600020600601548110156200186f5760018282815181106200184d576200184c62003cde565b5b6020026020010181815250508080620018669062003bd4565b91505062001816565b50600d60008481526020019081526020016000208160405162001892906200302e565b6200189f92919062003757565b604051809103906000f080158015620018bc573d6000803e3d6000fd5b50600e600085815260200190815260200160002060006101000a81548173ffffffffffffffffffffffffffffffffffffffff021916908373ffffffffffffffffffffffffffffffffffffffff16021790555060026007600085815260200190815260200160002060020160006101000a81548160ff021916908360038111156200194b576200194a62003c80565b5b02179055506000600e600085815260200190815260200160002060009054906101000a900473ffffffffffffffffffffffffffffffffffffffff1673ffffffffffffffffffffffffffffffffffffffff16633a98ef396040518163ffffffff1660e01b815260040160206040518083038186803b158015620019cc57600080fd5b505afa158015620019e1573d6000803e3d6000fd5b505050506040513d601f19601f8201168201806040525081019062001a07919062003330565b4762001a149190620039c5565b90507f80bb271e4cd4fd0e4cc21617a1a4cfe46af15e974bb329a92e7c15a69665158c60076000868152602001908152602001600020600601548260405162001a5f9291906200385c565b60405180910390a13373ffffffffffffffffffffffffffffffffffffffff167fef898a6941c945450e9bbdad4a76fcd0f51f42f7e251fddcb1e5479ba786d5e48560405162001aaf91906200383f565b60405180910390a250505050565b6000600260009054906101000a900473ffffffffffffffffffffffffffffffffffffffff16905090565b6000600360149054906101000a900460ff161562001b0457600080fd5b60011515600c600084815260200190815260200160002060008573ffffffffffffffffffffffffffffffffffffffff1673ffffffffffffffffffffffffffffffffffffffff16815260200190815260200160002060009054906101000a900460ff16151514905092915050565b806000908051906020019062001b899291906200303c565b5050565b600360009054906101000a900473ffffffffffffffffffffffffffffffffffffffff1673ffffffffffffffffffffffffffffffffffffffff163373ffffffffffffffffffffffffffffffffffffffff161462001be857600080fd5b62001bf4828262002e1c565b5050565b6000600360149054906101000a900460ff161562001c1557600080fd5b60011515600a600084815260200190815260200160002060008573ffffffffffffffffffffffffffffffffffffffff1673ffffffffffffffffffffffffffffffffffffffff16815260200190815260200160002060009054906101000a900460ff16151514905092915050565b600360009054906101000a900473ffffffffffffffffffffffffffffffffffffffff1673ffffffffffffffffffffffffffffffffffffffff163373ffffffffffffffffffffffffffffffffffffffff16148062001d2c5750600160009054906101000a900473ffffffffffffffffffffffffffffffffffffffff1673ffffffffffffffffffffffffffffffffffffffff163373ffffffffffffffffffffffffffffffffffffffff16145b8062001d855750600260009054906101000a900473ffffffffffffffffffffffffffffffffffffffff1673ffffffffffffffffffffffffffffffffffffffff163373ffffffffffffffffffffffffffffffffffffffff16145b62001d8f57600080fd5b600360149054906101000a900460ff161562001daa57600080fd5b6001600360146101000a81548160ff021916908315150217905550565b60606000805462001dd89062003b4a565b80601f016020809104026020016040519081016040528092919081815260200182805462001e069062003b4a565b801562001e575780601f1062001e2b5761010080835404028352916020019162001e57565b820191906000526020600020905b81548152906001019060200180831162001e3957829003601f168201915b5050505050905090565b6000600260009054906101000a900473ffffffffffffffffffffffffffffffffffffffff1673ffffffffffffffffffffffffffffffffffffffff163373ffffffffffffffffffffffffffffffffffffffff1614905090565b8062001ec6338262002801565b62001ed057600080fd5b600360149054906101000a900460ff161562001eeb57600080fd5b60016007600084815260200190815260200160002060020160006101000a81548160ff0219169083600381111562001f285762001f2762003c80565b5b02179055504260076000848152602001908152602001600020600301819055503373ffffffffffffffffffffffffffffffffffffffff167ff77c6f27499b698205f54058c2914a340e1300c2bc0d9a819e7aebfbaabbbb938360405162001f9091906200383f565b60405180910390a25050565b600360149054906101000a900460ff161562001fb757600080fd5b8062001fc4338262002801565b62001fce57600080fd5b6001600b600084815260200190815260200160002060008573ffffffffffffffffffffffffffffffffffffffff1673ffffffffffffffffffffffffffffffffffffffff16815260200190815260200160002060006101000a81548160ff0219169083151502179055508273ffffffffffffffffffffffffffffffffffffffff167f46b8357d30dedd734a71d059a385f46b6e667bff20233f907477760207f88965836040516200207f91906200383f565b60405180910390a2505050565b600360009054906101000a900473ffffffffffffffffffffffffffffffffffffffff1681565b600033905090565b606060058054806020026020016040519081016040528092919081815260200182805480156200210a57602002820191906000526020600020905b815481526020019060010190808311620020f5575b5050505050905090565b60008054620021239062003b4a565b80601f0160208091040260200160405190810160405280929190818152602001828054620021519062003b4a565b8015620021a25780601f106200217657610100808354040283529160200191620021a2565b820191906000526020600020905b8154815290600101906020018083116200218457829003601f168201915b505050505081565b600360009054906101000a900473ffffffffffffffffffffffffffffffffffffffff1673ffffffffffffffffffffffffffffffffffffffff163373ffffffffffffffffffffffffffffffffffffffff16146200220557600080fd5b62002211828262002ca2565b5050565b60606006805480602002602001604051908101604052809291908181526020016000905b82821015620022ef5783829060005260206000200180546200225b9062003b4a565b80601f0160208091040260200160405190810160405280929190818152602001828054620022899062003b4a565b8015620022da5780601f10620022ae57610100808354040283529160200191620022da565b820191906000526020600020905b815481529060010190602001808311620022bc57829003601f168201915b50505050508152602001906001019062002239565b50505050905090565b8062002305338262002801565b806200235e5750600360009054906101000a900473ffffffffffffffffffffffffffffffffffffffff1673ffffffffffffffffffffffffffffffffffffffff163373ffffffffffffffffffffffffffffffffffffffff16145b6200236857600080fd5b600360149054906101000a900460ff16156200238357600080fd5b6200238f838362002ed9565b505050565b80620023a1338262002801565b80620023fa5750600360009054906101000a900473ffffffffffffffffffffffffffffffffffffffff1673ffffffffffffffffffffffffffffffffffffffff163373ffffffffffffffffffffffffffffffffffffffff16145b6200240457600080fd5b600360149054906101000a900460ff16156200241f57600080fd5b6200242b838362002d5f565b505050565b6200243a620030cd565b8162002447338262002801565b6200245157600080fd5b6007600084815260200190815260200160002060405180610160016040529081600082015481526020016001820180546200248c9062003b4a565b80601f0160208091040260200160405190810160405280929190818152602001828054620024ba9062003b4a565b80156200250b5780601f10620024df576101008083540402835291602001916200250b565b820191906000526020600020905b815481529060010190602001808311620024ed57829003601f168201915b505050505081526020016002820160009054906101000a900460ff1660038111156200253c576200253b62003c80565b5b600381111562002551576200255062003c80565b5b8152602001600382015481526020016004820154815260200160058201548152602001600682015481526020016007820180546200258f9062003b4a565b80601f0160208091040260200160405190810160405280929190818152602001828054620025bd9062003b4a565b80156200260e5780601f10620025e2576101008083540402835291602001916200260e565b820191906000526020600020905b815481529060010190602001808311620025f057829003601f168201915b50505050508152602001600882018054620026299062003b4a565b80601f0160208091040260200160405190810160405280929190818152602001828054620026579062003b4a565b8015620026a85780601f106200267c57610100808354040283529160200191620026a8565b820191906000526020600020905b8154815290600101906020018083116200268a57829003601f168201915b50505050508152602001600982018054620026c39062003b4a565b80601f0160208091040260200160405190810160405280929190818152602001828054620026f19062003b4a565b8015620027425780601f10620027165761010080835404028352916020019162002742565b820191906000526020600020905b8154815290600101906020018083116200272457829003601f168201915b50505050508152602001600a820160009054906101000a900473ffffffffffffffffffffffffffffffffffffffff1673ffffffffffffffffffffffffffffffffffffffff1673ffffffffffffffffffffffffffffffffffffffff1681525050915050919050565b6000600160009054906101000a900473ffffffffffffffffffffffffffffffffffffffff1673ffffffffffffffffffffffffffffffffffffffff163373ffffffffffffffffffffffffffffffffffffffff1614905090565b6000600115156009600084815260200190815260200160002060008573ffffffffffffffffffffffffffffffffffffffff1673ffffffffffffffffffffffffffffffffffffffff16815260200190815260200160002060009054906101000a900460ff16151514905092915050565b806200287d338262001bf8565b6200288757600080fd5b600360149054906101000a900460ff1615620028a257600080fd5b3373ffffffffffffffffffffffffffffffffffffffff167f5dc1fe5ab986a852c4eda8e8bb94247d13307065c593fb83f1a09be2736793828334604051620028ec9291906200385c565b60405180910390a25050565b600360009054906101000a900473ffffffffffffffffffffffffffffffffffffffff1673ffffffffffffffffffffffffffffffffffffffff163373ffffffffffffffffffffffffffffffffffffffff16146200295357600080fd5b600360149054906101000a900460ff16156200296e57600080fd5b6000434060001c9050600060405180610160016040528083815260200184815260200160006003811115620029a857620029a762003c80565b5b815260200142815260200142815260200142815260200160008152602001604051806020016040528060008152508152602001604051806020016040528060008152508152602001604051806020016040528060008152508152602001600073ffffffffffffffffffffffffffffffffffffffff168152509050806007600084815260200190815260200160002060008201518160000155602082015181600101908051906020019062002a5e9291906200303c565b5060408201518160020160006101000a81548160ff0219169083600381111562002a8d5762002a8c62003c80565b5b0217905550606082015181600301556080820151816004015560a0820151816005015560c0820151816006015560e082015181600701908051906020019062002ad89291906200303c565b5061010082015181600801908051906020019062002af89291906200303c565b5061012082015181600901908051906020019062002b189291906200303c565b5061014082015181600a0160006101000a81548173ffffffffffffffffffffffffffffffffffffffff021916908373ffffffffffffffffffffffffffffffffffffffff160217905550905050600582908060018154018082558091505060019003906000526020600020016000909190919091505560068390806001815401808255809150506001900390600052602060002001600090919091909150908051906020019062002bca9291906200303c565b503373ffffffffffffffffffffffffffffffffffffffff167f3482e3d6d38a18835a6ad59afad8098300ce9f907925e4be71126d7b43dc803d8360405162002c1391906200383f565b60405180910390a2505050565b6000600360009054906101000a900473ffffffffffffffffffffffffffffffffffffffff1673ffffffffffffffffffffffffffffffffffffffff163373ffffffffffffffffffffffffffffffffffffffff1614905090565b6000600360009054906101000a900473ffffffffffffffffffffffffffffffffffffffff16905090565b60006009600083815260200190815260200160002060008473ffffffffffffffffffffffffffffffffffffffff1673ffffffffffffffffffffffffffffffffffffffff16815260200190815260200160002060006101000a81548160ff0219169083151502179055508173ffffffffffffffffffffffffffffffffffffffff167fa0726c73cf6ad18ddb855ba65d1ddd4d7fd37d320f4e52f6b154c13d386f5fd98260405162002d5391906200383f565b60405180910390a25050565b6000600a600083815260200190815260200160002060008473ffffffffffffffffffffffffffffffffffffffff1673ffffffffffffffffffffffffffffffffffffffff16815260200190815260200160002060006101000a81548160ff0219169083151502179055508173ffffffffffffffffffffffffffffffffffffffff167fda111d7eb5d5b2033c4ffad00cd7cd42f45af2813bee1a69e65f26d90ea15f0b8260405162002e1091906200383f565b60405180910390a25050565b60016009600083815260200190815260200160002060008473ffffffffffffffffffffffffffffffffffffffff1673ffffffffffffffffffffffffffffffffffffffff16815260200190815260200160002060006101000a81548160ff0219169083151502179055508173ffffffffffffffffffffffffffffffffffffffff167f723c2b747529ca7f5eb53a74808f4a8b9bf264f0fc450fd904900151da74548a8260405162002ecd91906200383f565b60405180910390a25050565b6001600a600083815260200190815260200160002060008473ffffffffffffffffffffffffffffffffffffffff1673ffffffffffffffffffffffffffffffffffffffff16815260200190815260200160002060006101000a81548160ff0219169083151502179055508173ffffffffffffffffffffffffffffffffffffffff167f5fd6d0b7e707fe344bd2a1887f9d0eeea8bfcac6f339ba4200e74f0647f101c08260405162002f8a91906200383f565b60405180910390a25050565b82805462002fa49062003b4a565b90600052602060002090601f01602090048101928262002fc857600085556200301b565b82601f1062002fdb57805485556200301b565b828001600101855582156200301b57600052602060002091601f016020900482015b828111156200301a57825482559160010191906001019062002ffd565b5b5090506200302a919062003152565b5090565b6117e68062003dcf83390190565b8280546200304a9062003b4a565b90600052602060002090601f0160209004810192826200306e5760008555620030ba565b82601f106200308957805160ff1916838001178555620030ba565b82800160010185558215620030ba579182015b82811115620030b95782518255916020019190600101906200309c565b5b509050620030c9919062003152565b5090565b604051806101600160405280600081526020016060815260200160006003811115620030fe57620030fd62003c80565b5b815260200160008152602001600081526020016000815260200160008152602001606081526020016060815260200160608152602001600073ffffffffffffffffffffffffffffffffffffffff1681525090565b5b808211156200316d57600081600090555060010162003153565b5090565b6000620031886200318284620038b2565b62003889565b905082815260208101848484011115620031a757620031a662003d56565b5b620031b484828562003b05565b509392505050565b600081359050620031cd8162003d9a565b92915050565b600082601f830112620031eb57620031ea62003d51565b5b8135620031fd84826020860162003171565b91505092915050565b600081359050620032178162003db4565b92915050565b6000815190506200322e8162003db4565b92915050565b6000602082840312156200324d576200324c62003d60565b5b60006200325d84828501620031bc565b91505092915050565b6000806040838503121562003280576200327f62003d60565b5b60006200329085828601620031bc565b9250506020620032a38582860162003206565b9150509250929050565b600060208284031215620032c657620032c562003d60565b5b600082013567ffffffffffffffff811115620032e757620032e662003d5b565b5b620032f584828501620031d3565b91505092915050565b60006020828403121562003317576200331662003d60565b5b6000620033278482850162003206565b91505092915050565b60006020828403121562003349576200334862003d60565b5b600062003359848285016200321d565b91505092915050565b6000620033708383620033bd565b60208301905092915050565b60006200338a83836200355f565b905092915050565b6000620033a08383620036fb565b60208301905092915050565b620033b78162003a92565b82525050565b620033c88162003a7e565b82525050565b620033d98162003a7e565b82525050565b6000620033ec826200391d565b620033f8818562003970565b93506200340583620038e8565b8060005b8381101562003445576200341d8262003d3c565b62003429888262003362565b9750620034368362003949565b92505060018101905062003409565b5085935050505092915050565b60006200345f8262003928565b6200346b818562003981565b9350836020820285016200347f85620038fd565b8060005b85811015620034c157848403895281516200349f85826200337c565b9450620034ac8362003956565b925060208a0199505060018101905062003483565b50829750879550505050505092915050565b6000620034e08262003933565b620034ec818562003992565b9350620034f9836200390d565b8060005b838110156200353057815162003514888262003392565b9750620035218362003963565b925050600181019050620034fd565b5085935050505092915050565b620035488162003aa6565b82525050565b620035598162003af1565b82525050565b60006200356c826200393e565b620035788185620039a3565b93506200358a81856020860162003b14565b620035958162003d65565b840191505092915050565b6000620035ad826200393e565b620035b98185620039b4565b9350620035cb81856020860162003b14565b620035d68162003d65565b840191505092915050565b600061016083016000830151620035fc6000860182620036fb565b50602083015184820360208601526200361682826200355f565b91505060408301516200362d60408601826200354e565b506060830151620036426060860182620036fb565b506080830151620036576080860182620036fb565b5060a08301516200366c60a0860182620036fb565b5060c08301516200368160c0860182620036fb565b5060e083015184820360e08601526200369b82826200355f565b915050610100830151848203610100860152620036b982826200355f565b915050610120830151848203610120860152620036d782826200355f565b915050610140830151620036f0610140860182620033bd565b508091505092915050565b620037068162003ae7565b82525050565b620037178162003ae7565b82525050565b6000602082019050620037346000830184620033ce565b92915050565b6000602082019050620037516000830184620033ac565b92915050565b60006040820190508181036000830152620037738185620033df565b90508181036020830152620037898184620034d3565b90509392505050565b60006020820190508181036000830152620037ae818462003452565b905092915050565b60006020820190508181036000830152620037d28184620034d3565b905092915050565b6000602082019050620037f160008301846200353d565b92915050565b60006020820190508181036000830152620038138184620035a0565b905092915050565b60006020820190508181036000830152620038378184620035e1565b905092915050565b60006020820190506200385660008301846200370c565b92915050565b60006040820190506200387360008301856200370c565b6200388260208301846200370c565b9392505050565b600062003895620038a8565b9050620038a3828262003b9e565b919050565b6000604051905090565b600067ffffffffffffffff821115620038d057620038cf62003d0d565b5b620038db8262003d65565b9050602081019050919050565b60008190508160005260206000209050919050565b6000819050602082019050919050565b6000819050602082019050919050565b600081549050919050565b600081519050919050565b600081519050919050565b600081519050919050565b6000600182019050919050565b6000602082019050919050565b6000602082019050919050565b600082825260208201905092915050565b600082825260208201905092915050565b600082825260208201905092915050565b600082825260208201905092915050565b600082825260208201905092915050565b6000620039d28262003ae7565b9150620039df8362003ae7565b925082620039f257620039f162003c51565b5b828204905092915050565b600062003a0a8262003ae7565b915062003a178362003ae7565b9250817fffffffffffffffffffffffffffffffffffffffffffffffffffffffffffffffff048311821515161562003a535762003a5262003c22565b5b828202905092915050565b600073ffffffffffffffffffffffffffffffffffffffff82169050919050565b600062003a8b8262003ac7565b9050919050565b600062003a9f8262003ac7565b9050919050565b60008115159050919050565b600081905062003ac28262003d83565b919050565b600073ffffffffffffffffffffffffffffffffffffffff82169050919050565b6000819050919050565b600062003afe8262003ab2565b9050919050565b82818337600083830152505050565b60005b8381101562003b3457808201518184015260208101905062003b17565b8381111562003b44576000848401525b50505050565b6000600282049050600182168062003b6357607f821691505b6020821081141562003b7a5762003b7962003caf565b5b50919050565b600062003b9762003b918362003d76565b62003a5e565b9050919050565b62003ba98262003d65565b810181811067ffffffffffffffff8211171562003bcb5762003bca62003d0d565b5b80604052505050565b600062003be18262003ae7565b91507fffffffffffffffffffffffffffffffffffffffffffffffffffffffffffffffff82141562003c175762003c1662003c22565b5b600182019050919050565b7f4e487b7100000000000000000000000000000000000000000000000000000000600052601160045260246000fd5b7f4e487b7100000000000000000000000000000000000000000000000000000000600052601260045260246000fd5b7f4e487b7100000000000000000000000000000000000000000000000000000000600052602160045260246000fd5b7f4e487b7100000000000000000000000000000000000000000000000000000000600052602260045260246000fd5b7f4e487b7100000000000000000000000000000000000000000000000000000000600052603260045260246000fd5b7f4e487b7100000000000000000000000000000000000000000000000000000000600052604160045260246000fd5b600062003d4a825462003b80565b9050919050565b600080fd5b600080fd5b600080fd5b600080fd5b6000601f19601f8301169050919050565b60008160001c9050919050565b6004811062003d975762003d9662003c80565b5b50565b62003da58162003a7e565b811462003db157600080fd5b50565b62003dbf8162003ae7565b811462003dcb57600080fd5b5056fe6080604052604051620017e6380380620017e68339818101604052810190620000299190620004f3565b805182511462000070576040517f08c379a00000000000000000000000000000000000000000000000000000000081526004016200006790620006ac565b60405180910390fd5b6000825111620000b7576040517f08c379a0000000000000000000000000000000000000000000000000000000008152600401620000ae90620006f0565b60405180910390fd5b60005b8251811015620001265762000110838281518110620000de57620000dd6200091a565b5b6020026020010151838381518110620000fc57620000fb6200091a565b5b60200260200101516200012f60201b60201c565b80806200011d906200089d565b915050620000ba565b50505062000b10565b600073ffffffffffffffffffffffffffffffffffffffff168273ffffffffffffffffffffffffffffffffffffffff161415620001a2576040517f08c379a000000000000000000000000000000000000000000000000000000000815260040162000199906200068a565b60405180910390fd5b60008111620001e8576040517f08c379a0000000000000000000000000000000000000000000000000000000008152600401620001df9062000712565b60405180910390fd5b6000600260008473ffffffffffffffffffffffffffffffffffffffff1673ffffffffffffffffffffffffffffffffffffffff16815260200190815260200160002054146200026d576040517f08c379a00000000000000000000000000000000000000000000000000000000081526004016200026490620006ce565b60405180910390fd5b6004829080600181540180825580915050600190039060005260206000200160009091909190916101000a81548173ffffffffffffffffffffffffffffffffffffffff021916908373ffffffffffffffffffffffffffffffffffffffff16021790555080600260008473ffffffffffffffffffffffffffffffffffffffff1673ffffffffffffffffffffffffffffffffffffffff1681526020019081526020016000208190555080600054620003249190620007cc565b6000819055507f40c340f65e17194d14ddddb073d3c9f888e3cb52b5aae0c6c7706b4fbc905fac82826040516200035d9291906200065d565b60405180910390a15050565b6000620003806200037a846200075d565b62000734565b90508083825260208201905082856020860282011115620003a657620003a56200097d565b5b60005b85811015620003da5781620003bf88826200045f565b845260208401935060208301925050600181019050620003a9565b5050509392505050565b6000620003fb620003f5846200078c565b62000734565b905080838252602082019050828560208602820111156200042157620004206200097d565b5b60005b858110156200045557816200043a8882620004dc565b84526020840193506020830192505060018101905062000424565b5050509392505050565b600081519050620004708162000adc565b92915050565b600082601f8301126200048e576200048d62000978565b5b8151620004a084826020860162000369565b91505092915050565b600082601f830112620004c157620004c062000978565b5b8151620004d3848260208601620003e4565b91505092915050565b600081519050620004ed8162000af6565b92915050565b600080604083850312156200050d576200050c62000987565b5b600083015167ffffffffffffffff8111156200052e576200052d62000982565b5b6200053c8582860162000476565b925050602083015167ffffffffffffffff81111562000560576200055f62000982565b5b6200056e85828601620004a9565b9150509250929050565b620005838162000829565b82525050565b600062000598602c83620007bb565b9150620005a5826200099d565b604082019050919050565b6000620005bf603283620007bb565b9150620005cc82620009ec565b604082019050919050565b6000620005e6602b83620007bb565b9150620005f38262000a3b565b604082019050919050565b60006200060d601a83620007bb565b91506200061a8262000a8a565b602082019050919050565b600062000634601d83620007bb565b9150620006418262000ab3565b602082019050919050565b62000657816200085d565b82525050565b600060408201905062000674600083018562000578565b6200068360208301846200064c565b9392505050565b60006020820190508181036000830152620006a58162000589565b9050919050565b60006020820190508181036000830152620006c781620005b0565b9050919050565b60006020820190508181036000830152620006e981620005d7565b9050919050565b600060208201905081810360008301526200070b81620005fe565b9050919050565b600060208201905081810360008301526200072d8162000625565b9050919050565b60006200074062000753565b90506200074e828262000867565b919050565b6000604051905090565b600067ffffffffffffffff8211156200077b576200077a62000949565b5b602082029050602081019050919050565b600067ffffffffffffffff821115620007aa57620007a962000949565b5b602082029050602081019050919050565b600082825260208201905092915050565b6000620007d9826200085d565b9150620007e6836200085d565b9250827fffffffffffffffffffffffffffffffffffffffffffffffffffffffffffffffff038211156200081e576200081d620008eb565b5b828201905092915050565b600062000836826200083d565b9050919050565b600073ffffffffffffffffffffffffffffffffffffffff82169050919050565b6000819050919050565b62000872826200098c565b810181811067ffffffffffffffff8211171562000894576200089362000949565b5b80604052505050565b6000620008aa826200085d565b91507fffffffffffffffffffffffffffffffffffffffffffffffffffffffffffffffff821415620008e057620008df620008eb565b5b600182019050919050565b7f4e487b7100000000000000000000000000000000000000000000000000000000600052601160045260246000fd5b7f4e487b7100000000000000000000000000000000000000000000000000000000600052603260045260246000fd5b7f4e487b7100000000000000000000000000000000000000000000000000000000600052604160045260246000fd5b600080fd5b600080fd5b600080fd5b600080fd5b6000601f19601f8301169050919050565b7f5061796d656e7453706c69747465723a206163636f756e74206973207468652060008201527f7a65726f20616464726573730000000000000000000000000000000000000000602082015250565b7f5061796d656e7453706c69747465723a2070617965657320616e64207368617260008201527f6573206c656e677468206d69736d617463680000000000000000000000000000602082015250565b7f5061796d656e7453706c69747465723a206163636f756e7420616c726561647960008201527f2068617320736861726573000000000000000000000000000000000000000000602082015250565b7f5061796d656e7453706c69747465723a206e6f20706179656573000000000000600082015250565b7f5061796d656e7453706c69747465723a20736861726573206172652030000000600082015250565b62000ae78162000829565b811462000af357600080fd5b50565b62000b01816200085d565b811462000b0d57600080fd5b50565b610cc68062000b206000396000f3fe6080604052600436106100595760003560e01c806319165587146100a55780633a98ef39146100ce5780638b83209b146100f95780639852595c14610136578063ce7c2ac214610173578063e33b7de3146101b0576100a0565b366100a0577f6ef95f06320e7a25a04a175ca677b7052bdd97131872c2192525a629f51be7706100876101db565b34604051610096929190610827565b60405180910390a1005b600080fd5b3480156100b157600080fd5b506100cc60048036038101906100c79190610698565b6101e3565b005b3480156100da57600080fd5b506100e361044b565b6040516100f091906108d0565b60405180910390f35b34801561010557600080fd5b50610120600480360381019061011b91906106c5565b610454565b60405161012d91906107e3565b60405180910390f35b34801561014257600080fd5b5061015d6004803603810190610158919061066b565b61049c565b60405161016a91906108d0565b60405180910390f35b34801561017f57600080fd5b5061019a6004803603810190610195919061066b565b6104e5565b6040516101a791906108d0565b60405180910390f35b3480156101bc57600080fd5b506101c561052e565b6040516101d291906108d0565b60405180910390f35b600033905090565b6000600260008373ffffffffffffffffffffffffffffffffffffffff1673ffffffffffffffffffffffffffffffffffffffff1681526020019081526020016000205411610265576040517f08c379a000000000000000000000000000000000000000000000000000000000815260040161025c90610850565b60405180910390fd5b6000600154476102759190610907565b90506000600360008473ffffffffffffffffffffffffffffffffffffffff1673ffffffffffffffffffffffffffffffffffffffff16815260200190815260200160002054600054600260008673ffffffffffffffffffffffffffffffffffffffff1673ffffffffffffffffffffffffffffffffffffffff1681526020019081526020016000205484610307919061098e565b610311919061095d565b61031b91906109e8565b90506000811415610361576040517f08c379a0000000000000000000000000000000000000000000000000000000008152600401610358906108b0565b60405180910390fd5b80600360008573ffffffffffffffffffffffffffffffffffffffff1673ffffffffffffffffffffffffffffffffffffffff168152602001908152602001600020546103ac9190610907565b600360008573ffffffffffffffffffffffffffffffffffffffff1673ffffffffffffffffffffffffffffffffffffffff16815260200190815260200160002081905550806001546103fd9190610907565b60018190555061040d8382610538565b7fdf20fd1e76bc69d672e4814fafb2c449bba3a5369d8359adf9e05e6fde87b056838260405161043e9291906107fe565b60405180910390a1505050565b60008054905090565b60006004828154811061046a57610469610afe565b5b9060005260206000200160009054906101000a900473ffffffffffffffffffffffffffffffffffffffff169050919050565b6000600360008373ffffffffffffffffffffffffffffffffffffffff1673ffffffffffffffffffffffffffffffffffffffff168152602001908152602001600020549050919050565b6000600260008373ffffffffffffffffffffffffffffffffffffffff1673ffffffffffffffffffffffffffffffffffffffff168152602001908152602001600020549050919050565b6000600154905090565b8047101561057b576040517f08c379a000000000000000000000000000000000000000000000000000000000815260040161057290610890565b60405180910390fd5b60008273ffffffffffffffffffffffffffffffffffffffff16826040516105a1906107ce565b60006040518083038185875af1925050503d80600081146105de576040519150601f19603f3d011682016040523d82523d6000602084013e6105e3565b606091505b5050905080610627576040517f08c379a000000000000000000000000000000000000000000000000000000000815260040161061e90610870565b60405180910390fd5b505050565b60008135905061063b81610c4b565b92915050565b60008135905061065081610c62565b92915050565b60008135905061066581610c79565b92915050565b60006020828403121561068157610680610b2d565b5b600061068f8482850161062c565b91505092915050565b6000602082840312156106ae576106ad610b2d565b5b60006106bc84828501610641565b91505092915050565b6000602082840312156106db576106da610b2d565b5b60006106e984828501610656565b91505092915050565b6106fb81610a6a565b82525050565b61070a81610a1c565b82525050565b600061071d6026836108f6565b915061072882610b32565b604082019050919050565b6000610740603a836108f6565b915061074b82610b81565b604082019050919050565b6000610763601d836108f6565b915061076e82610bd0565b602082019050919050565b6000610786602b836108f6565b915061079182610bf9565b604082019050919050565b60006107a96000836108eb565b91506107b482610c48565b600082019050919050565b6107c881610a60565b82525050565b60006107d98261079c565b9150819050919050565b60006020820190506107f86000830184610701565b92915050565b600060408201905061081360008301856106f2565b61082060208301846107bf565b9392505050565b600060408201905061083c6000830185610701565b61084960208301846107bf565b9392505050565b6000602082019050818103600083015261086981610710565b9050919050565b6000602082019050818103600083015261088981610733565b9050919050565b600060208201905081810360008301526108a981610756565b9050919050565b600060208201905081810360008301526108c981610779565b9050919050565b60006020820190506108e560008301846107bf565b92915050565b600081905092915050565b600082825260208201905092915050565b600061091282610a60565b915061091d83610a60565b9250827fffffffffffffffffffffffffffffffffffffffffffffffffffffffffffffffff0382111561095257610951610aa0565b5b828201905092915050565b600061096882610a60565b915061097383610a60565b92508261098357610982610acf565b5b828204905092915050565b600061099982610a60565b91506109a483610a60565b9250817fffffffffffffffffffffffffffffffffffffffffffffffffffffffffffffffff04831182151516156109dd576109dc610aa0565b5b828202905092915050565b60006109f382610a60565b91506109fe83610a60565b925082821015610a1157610a10610aa0565b5b828203905092915050565b6000610a2782610a40565b9050919050565b6000610a3982610a40565b9050919050565b600073ffffffffffffffffffffffffffffffffffffffff82169050919050565b6000819050919050565b6000610a7582610a7c565b9050919050565b6000610a8782610a8e565b9050919050565b6000610a9982610a40565b9050919050565b7f4e487b7100000000000000000000000000000000000000000000000000000000600052601160045260246000fd5b7f4e487b7100000000000000000000000000000000000000000000000000000000600052601260045260246000fd5b7f4e487b7100000000000000000000000000000000000000000000000000000000600052603260045260246000fd5b600080fd5b7f5061796d656e7453706c69747465723a206163636f756e7420686173206e6f2060008201527f7368617265730000000000000000000000000000000000000000000000000000602082015250565b7f416464726573733a20756e61626c6520746f2073656e642076616c75652c207260008201527f6563697069656e74206d61792068617665207265766572746564000000000000602082015250565b7f416464726573733a20696e73756666696369656e742062616c616e6365000000600082015250565b7f5061796d656e7453706c69747465723a206163636f756e74206973206e6f742060008201527f647565207061796d656e74000000000000000000000000000000000000000000602082015250565b50565b610c5481610a1c565b8114610c5f57600080fd5b50565b610c6b81610a2e565b8114610c7657600080fd5b50565b610c8281610a60565b8114610c8d57600080fd5b5056fea26469706673582212201a1926926729a651a90b3eab60e8020c21831fe7b8ae85e46838951eafc5870464736f6c63430008060033a26469706673582212204070a6ee713849c81c00c37a418bf4cb302c85cf32572720ded60105be4edd9864736f6c63430008060033",
  "immutableReferences": {},
  "source": "// SPDX-License-Identifier: MIT\npragma solidity ^0.8.0;\n\nimport \"../roles/AdminsManager.sol\";\n\ncontract EthDropCore is AdminsManager {\n    // Set in case the core contract is broken and an upgrade is required\n    address public newContractAddress;\n\n    /// @notice Creates the main EthDrop smart contract instance.\n    constructor () {\n        // Starts paused.\n        paused = true;\n\n        // the creator of the contract is the initial CEO\n        ceoAddress = msg.sender;\n\n    }\n\n    /// @dev Used to mark the smart contract as upgraded, in case there is a serious\n    ///  breaking bug. This method does nothing but keep track of the new contract and\n    ///  emit a message indicating that the new address is set. It's up to clients of this\n    ///  contract to update to the new contract address in that case. (This contract will\n    ///  be paused indefinitely if such an upgrade takes place.)\n    /// @param _v2Address new address\n    function setNewAddress(address _v2Address) external onlyCEO whenPaused {\n        // See README.md for updgrade plan\n        newContractAddress = _v2Address;\n        emit ContractUpgrade(_v2Address);\n    }\n\n    function foobar() external pure returns (string memory) {\n        return \"foobarrrrrrr!\";\n    }\n}",
  "sourcePath": "/Users/jim/Git-Projects/EthDrop/contracts/core/EthDropCore.sol",
  "compiler": {
    "name": "solc",
    "version": "0.8.6+commit.11564f7e.Emscripten.clang"
  },
  "schemaVersion": "3.4.1",
  "updatedAt": "2021-07-22T14:39:00.733Z",
  "networkType": "ethereum",
  "devdoc": {
    "kind": "dev",
    "methods": {
      "pause()": {
        "details": "Called by any \"C-level\" role to pause the contract. Used only when  a bug or exploit is detected and we need to limit damage."
      },
      "setCEO(address)": {
        "details": "Assigns a new address to act as the CEO. Only available to the current CEO.",
        "params": {
          "_newCEO": "The address of the new CEO"
        }
      },
      "setCFO(address)": {
        "details": "Assigns a new address to act as the CFO. Only available to the current CEO.",
        "params": {
          "_newCFO": "The address of the new CFO"
        }
      },
      "setCOO(address)": {
        "details": "Assigns a new address to act as the COO. Only available to the current CEO.",
        "params": {
          "_newCOO": "The address of the new COO"
        }
      },
      "setNewAddress(address)": {
        "details": "Used to mark the smart contract as upgraded, in case there is a serious  breaking bug. This method does nothing but keep track of the new contract and  emit a message indicating that the new address is set. It's up to clients of this  contract to update to the new contract address in that case. (This contract will  be paused indefinitely if such an upgrade takes place.)",
        "params": {
          "_v2Address": "new address"
        }
      },
      "unpause()": {
        "details": "Unpauses the smart contract. Can only be called by the CEO, since  one reason we may pause the contract is when CFO or COO accounts are  compromised."
      }
    },
    "version": 1
  },
  "userdoc": {
    "kind": "user",
    "methods": {
      "constructor": {
        "notice": "Creates the main EthDrop smart contract instance."
      },
      "unpause()": {
        "notice": "This is public rather than external so it can be called by  derived contracts."
      }
    },
    "version": 1
  }
}