{
  "contractName": "EthDropCore",
  "abi": [
    {
      "inputs": [],
      "stateMutability": "nonpayable",
      "type": "constructor"
    },
    {
      "anonymous": false,
      "inputs": [
        {
          "indexed": false,
          "internalType": "uint256",
          "name": "groupId",
          "type": "uint256"
        }
      ],
      "name": "AdminAdded",
      "type": "event"
    },
    {
      "anonymous": false,
      "inputs": [
        {
          "indexed": false,
          "internalType": "uint256",
          "name": "groupId",
          "type": "uint256"
        }
      ],
      "name": "AdminRemoved",
      "type": "event"
    },
    {
      "anonymous": false,
      "inputs": [
        {
          "indexed": false,
          "internalType": "bool",
          "name": "isPaused",
          "type": "bool"
        }
      ],
      "name": "AppPaused",
      "type": "event"
    },
    {
      "anonymous": false,
      "inputs": [
        {
          "indexed": false,
          "internalType": "uint256",
          "name": "registeredRecipientCount",
          "type": "uint256"
        },
        {
          "indexed": false,
          "internalType": "uint256",
          "name": "winningsPerRecipient",
          "type": "uint256"
        }
      ],
      "name": "CalculatedPot",
      "type": "event"
    },
    {
      "anonymous": false,
      "inputs": [],
      "name": "CfoUpdated",
      "type": "event"
    },
    {
      "anonymous": false,
      "inputs": [
        {
          "indexed": false,
          "internalType": "address",
          "name": "newContract",
          "type": "address"
        }
      ],
      "name": "ContractUpgrade",
      "type": "event"
    },
    {
      "anonymous": false,
      "inputs": [
        {
          "indexed": true,
          "internalType": "address",
          "name": "account",
          "type": "address"
        },
        {
          "indexed": false,
          "internalType": "uint256",
          "name": "groupId",
          "type": "uint256"
        },
        {
          "indexed": false,
          "internalType": "uint256",
          "name": "amount",
          "type": "uint256"
        }
      ],
      "name": "ContributionMade",
      "type": "event"
    },
    {
      "anonymous": false,
      "inputs": [
        {
          "indexed": true,
          "internalType": "address",
          "name": "account",
          "type": "address"
        },
        {
          "indexed": false,
          "internalType": "uint256",
          "name": "groupId",
          "type": "uint256"
        }
      ],
      "name": "ContributorAdded",
      "type": "event"
    },
    {
      "anonymous": false,
      "inputs": [
        {
          "indexed": false,
          "internalType": "uint256",
          "name": "groupId",
          "type": "uint256"
        },
        {
          "indexed": false,
          "internalType": "address",
          "name": "newContributor",
          "type": "address"
        }
      ],
      "name": "ContributorAddressUpdated",
      "type": "event"
    },
    {
      "anonymous": false,
      "inputs": [
        {
          "indexed": false,
          "internalType": "uint256",
          "name": "groupId",
          "type": "uint256"
        },
        {
          "indexed": false,
          "internalType": "address",
          "name": "newContributor",
          "type": "address"
        }
      ],
      "name": "ContributorInfoUpdated",
      "type": "event"
    },
    {
      "anonymous": false,
      "inputs": [
        {
          "indexed": true,
          "internalType": "address",
          "name": "account",
          "type": "address"
        },
        {
          "indexed": false,
          "internalType": "uint256",
          "name": "groupId",
          "type": "uint256"
        }
      ],
      "name": "ContributorRemoved",
      "type": "event"
    },
    {
      "anonymous": false,
      "inputs": [],
      "name": "CooUpdated",
      "type": "event"
    },
    {
      "anonymous": false,
      "inputs": [
        {
          "indexed": true,
          "internalType": "address",
          "name": "account",
          "type": "address"
        },
        {
          "indexed": false,
          "internalType": "uint256",
          "name": "groupId",
          "type": "uint256"
        }
      ],
      "name": "EligibleRecipientAdded",
      "type": "event"
    },
    {
      "anonymous": false,
      "inputs": [
        {
          "indexed": true,
          "internalType": "address",
          "name": "account",
          "type": "address"
        },
        {
          "indexed": false,
          "internalType": "uint256",
          "name": "groupId",
          "type": "uint256"
        }
      ],
      "name": "EligibleRecipientRemoved",
      "type": "event"
    },
    {
      "anonymous": false,
      "inputs": [],
      "name": "EventClose",
      "type": "event"
    },
    {
      "anonymous": false,
      "inputs": [
        {
          "indexed": true,
          "internalType": "address",
          "name": "endedBy",
          "type": "address"
        },
        {
          "indexed": false,
          "internalType": "uint256",
          "name": "groupId",
          "type": "uint256"
        }
      ],
      "name": "EventEnded",
      "type": "event"
    },
    {
      "anonymous": false,
      "inputs": [
        {
          "indexed": true,
          "internalType": "address",
          "name": "startedBy",
          "type": "address"
        },
        {
          "indexed": false,
          "internalType": "uint256",
          "name": "groupId",
          "type": "uint256"
        }
      ],
      "name": "EventStarted",
      "type": "event"
    },
    {
      "anonymous": false,
      "inputs": [
        {
          "indexed": false,
          "internalType": "string",
          "name": "groupName",
          "type": "string"
        },
        {
          "indexed": false,
          "internalType": "uint256",
          "name": "groupId",
          "type": "uint256"
        }
      ],
      "name": "GroupCreated",
      "type": "event"
    },
    {
      "anonymous": false,
      "inputs": [
        {
          "indexed": true,
          "internalType": "address",
          "name": "account",
          "type": "address"
        },
        {
          "indexed": false,
          "internalType": "uint256",
          "name": "groupId",
          "type": "uint256"
        }
      ],
      "name": "RecipientRegistered",
      "type": "event"
    },
    {
      "anonymous": false,
      "inputs": [
        {
          "indexed": true,
          "internalType": "address",
          "name": "endedBy",
          "type": "address"
        },
        {
          "indexed": false,
          "internalType": "uint256",
          "name": "groupId",
          "type": "uint256"
        }
      ],
      "name": "RegistrationEnded",
      "type": "event"
    },
    {
      "anonymous": false,
      "inputs": [],
      "name": "RegistrationOpen",
      "type": "event"
    },
    {
      "anonymous": false,
      "inputs": [
        {
          "indexed": false,
          "internalType": "address",
          "name": "from",
          "type": "address"
        },
        {
          "indexed": false,
          "internalType": "address",
          "name": "to",
          "type": "address"
        }
      ],
      "name": "Transfer",
      "type": "event"
    },
    {
      "anonymous": false,
      "inputs": [
        {
          "indexed": true,
          "internalType": "address",
          "name": "account",
          "type": "address"
        },
        {
          "indexed": false,
          "internalType": "uint256",
          "name": "groupId",
          "type": "uint256"
        }
      ],
      "name": "WinningsClaimed",
      "type": "event"
    },
    {
      "anonymous": false,
      "inputs": [],
      "name": "WinningsClaimingOpen",
      "type": "event"
    },
    {
      "inputs": [
        {
          "internalType": "address",
          "name": "account",
          "type": "address"
        },
        {
          "internalType": "uint256",
          "name": "groupId",
          "type": "uint256"
        }
      ],
      "name": "addAdmin",
      "outputs": [],
      "stateMutability": "nonpayable",
      "type": "function"
    },
    {
      "inputs": [
        {
          "internalType": "address",
          "name": "account",
          "type": "address"
        },
        {
          "internalType": "string",
          "name": "name",
          "type": "string"
        },
        {
          "internalType": "uint256",
          "name": "groupId",
          "type": "uint256"
        }
      ],
      "name": "addEligibleRecipient",
      "outputs": [],
      "stateMutability": "nonpayable",
      "type": "function"
    },
    {
      "inputs": [
        {
          "internalType": "uint256",
          "name": "groupId",
          "type": "uint256"
        }
      ],
      "name": "amIAdmin",
      "outputs": [
        {
          "internalType": "bool",
          "name": "",
          "type": "bool"
        }
      ],
      "stateMutability": "view",
      "type": "function"
    },
    {
      "inputs": [
        {
          "internalType": "uint256",
          "name": "groupId",
          "type": "uint256"
        }
      ],
      "name": "amIContributor",
      "outputs": [
        {
          "internalType": "bool",
          "name": "",
          "type": "bool"
        }
      ],
      "stateMutability": "view",
      "type": "function"
    },
    {
      "inputs": [
        {
          "internalType": "uint256",
          "name": "groupId",
          "type": "uint256"
        }
      ],
      "name": "amIEligibleRecipient",
      "outputs": [
        {
          "internalType": "bool",
          "name": "",
          "type": "bool"
        }
      ],
      "stateMutability": "view",
      "type": "function"
    },
    {
      "inputs": [
        {
          "internalType": "uint256",
          "name": "groupId",
          "type": "uint256"
        }
      ],
      "name": "amIRegisteredRecipient",
      "outputs": [
        {
          "internalType": "bool",
          "name": "",
          "type": "bool"
        }
      ],
      "stateMutability": "view",
      "type": "function"
    },
    {
      "inputs": [],
      "name": "ceoAddress",
      "outputs": [
        {
          "internalType": "address",
          "name": "",
          "type": "address"
        }
      ],
      "stateMutability": "view",
      "type": "function"
    },
    {
      "inputs": [],
      "name": "cfoAddress",
      "outputs": [
        {
          "internalType": "address",
          "name": "",
          "type": "address"
        }
      ],
      "stateMutability": "view",
      "type": "function"
    },
    {
      "inputs": [
        {
          "internalType": "address",
          "name": "account",
          "type": "address"
        },
        {
          "internalType": "uint256",
          "name": "groupId",
          "type": "uint256"
        }
      ],
      "name": "changeContributor",
      "outputs": [],
      "stateMutability": "nonpayable",
      "type": "function"
    },
    {
      "inputs": [
        {
          "internalType": "uint256",
          "name": "groupId",
          "type": "uint256"
        }
      ],
      "name": "claimWinnings",
      "outputs": [],
      "stateMutability": "nonpayable",
      "type": "function"
    },
    {
      "inputs": [
        {
          "internalType": "uint256",
          "name": "groupId",
          "type": "uint256"
        }
      ],
      "name": "closeEventRegistration",
      "outputs": [],
      "stateMutability": "nonpayable",
      "type": "function"
    },
    {
      "inputs": [
        {
          "internalType": "uint256",
          "name": "groupId",
          "type": "uint256"
        }
      ],
      "name": "contributeToPot",
      "outputs": [],
      "stateMutability": "payable",
      "type": "function"
    },
    {
      "inputs": [],
      "name": "cooAddress",
      "outputs": [
        {
          "internalType": "address",
          "name": "",
          "type": "address"
        }
      ],
      "stateMutability": "view",
      "type": "function"
    },
    {
      "inputs": [
        {
          "internalType": "string",
          "name": "groupName",
          "type": "string"
        }
      ],
      "name": "createNewGroup",
      "outputs": [],
      "stateMutability": "nonpayable",
      "type": "function"
    },
    {
      "inputs": [
        {
          "internalType": "uint256",
          "name": "groupId",
          "type": "uint256"
        }
      ],
      "name": "doIHaveClaimableWinnings",
      "outputs": [
        {
          "internalType": "bool",
          "name": "",
          "type": "bool"
        }
      ],
      "stateMutability": "view",
      "type": "function"
    },
    {
      "inputs": [
        {
          "internalType": "uint256",
          "name": "groupId",
          "type": "uint256"
        }
      ],
      "name": "endEvent",
      "outputs": [],
      "stateMutability": "nonpayable",
      "type": "function"
    },
    {
      "inputs": [
        {
          "internalType": "uint256",
          "name": "groupId",
          "type": "uint256"
        }
      ],
      "name": "getAdminsForGroup",
      "outputs": [
        {
          "internalType": "address[]",
          "name": "",
          "type": "address[]"
        },
        {
          "internalType": "bool[]",
          "name": "",
          "type": "bool[]"
        }
      ],
      "stateMutability": "view",
      "type": "function"
    },
    {
      "inputs": [],
      "name": "getCFO",
      "outputs": [
        {
          "internalType": "address",
          "name": "",
          "type": "address"
        }
      ],
      "stateMutability": "view",
      "type": "function"
    },
    {
      "inputs": [],
      "name": "getCOO",
      "outputs": [
        {
          "internalType": "address",
          "name": "",
          "type": "address"
        }
      ],
      "stateMutability": "view",
      "type": "function"
    },
    {
      "inputs": [
        {
          "internalType": "uint256",
          "name": "groupId",
          "type": "uint256"
        }
      ],
      "name": "getContributorInfo",
      "outputs": [
        {
          "internalType": "string",
          "name": "newContributorName",
          "type": "string"
        },
        {
          "internalType": "string",
          "name": "newContributorImgUrl",
          "type": "string"
        },
        {
          "internalType": "string",
          "name": "newContributorLinkToUrl",
          "type": "string"
        }
      ],
      "stateMutability": "view",
      "type": "function"
    },
    {
      "inputs": [
        {
          "internalType": "uint256",
          "name": "groupId",
          "type": "uint256"
        }
      ],
      "name": "getCurrentSponsorAddress",
      "outputs": [
        {
          "internalType": "address",
          "name": "",
          "type": "address"
        }
      ],
      "stateMutability": "view",
      "type": "function"
    },
    {
      "inputs": [
        {
          "internalType": "uint256",
          "name": "groupId",
          "type": "uint256"
        }
      ],
      "name": "getEligibleRecipientAddresses",
      "outputs": [
        {
          "internalType": "address[]",
          "name": "",
          "type": "address[]"
        }
      ],
      "stateMutability": "view",
      "type": "function"
    },
    {
      "inputs": [
        {
          "internalType": "uint256",
          "name": "groupId",
          "type": "uint256"
        }
      ],
      "name": "getEligibleRecipientIsEligibilityEnabled",
      "outputs": [
        {
          "internalType": "bool[]",
          "name": "",
          "type": "bool[]"
        }
      ],
      "stateMutability": "view",
      "type": "function"
    },
    {
      "inputs": [
        {
          "internalType": "uint256",
          "name": "groupId",
          "type": "uint256"
        }
      ],
      "name": "getEligibleRecipientNames",
      "outputs": [
        {
          "internalType": "string[]",
          "name": "",
          "type": "string[]"
        }
      ],
      "stateMutability": "view",
      "type": "function"
    },
    {
      "inputs": [
        {
          "internalType": "uint256",
          "name": "groupId",
          "type": "uint256"
        }
      ],
      "name": "getGroupEventData",
      "outputs": [
        {
          "internalType": "enum EthDropBase.EventState",
          "name": "",
          "type": "uint8"
        },
        {
          "internalType": "uint256",
          "name": "",
          "type": "uint256"
        },
        {
          "internalType": "uint256",
          "name": "",
          "type": "uint256"
        },
        {
          "internalType": "uint256",
          "name": "",
          "type": "uint256"
        },
        {
          "internalType": "uint256",
          "name": "",
          "type": "uint256"
        }
      ],
      "stateMutability": "view",
      "type": "function"
    },
    {
      "inputs": [],
      "name": "getGroupIds",
      "outputs": [
        {
          "internalType": "uint256[]",
          "name": "",
          "type": "uint256[]"
        }
      ],
      "stateMutability": "view",
      "type": "function"
    },
    {
      "inputs": [],
      "name": "getGroupNames",
      "outputs": [
        {
          "internalType": "string[]",
          "name": "",
          "type": "string[]"
        }
      ],
      "stateMutability": "view",
      "type": "function"
    },
    {
      "inputs": [
        {
          "internalType": "uint256",
          "name": "groupId",
          "type": "uint256"
        }
      ],
      "name": "getRegisteredRecipientNames",
      "outputs": [
        {
          "internalType": "string[]",
          "name": "",
          "type": "string[]"
        }
      ],
      "stateMutability": "view",
      "type": "function"
    },
    {
      "inputs": [
        {
          "internalType": "uint256",
          "name": "groupId",
          "type": "uint256"
        }
      ],
      "name": "getRegisteredRecipients",
      "outputs": [
        {
          "internalType": "address[]",
          "name": "",
          "type": "address[]"
        }
      ],
      "stateMutability": "view",
      "type": "function"
    },
    {
      "inputs": [],
      "name": "getString",
      "outputs": [
        {
          "internalType": "string",
          "name": "",
          "type": "string"
        }
      ],
      "stateMutability": "view",
      "type": "function"
    },
    {
      "inputs": [
        {
          "internalType": "address",
          "name": "account",
          "type": "address"
        },
        {
          "internalType": "uint256",
          "name": "groupId",
          "type": "uint256"
        }
      ],
      "name": "isAdmin",
      "outputs": [
        {
          "internalType": "bool",
          "name": "",
          "type": "bool"
        }
      ],
      "stateMutability": "view",
      "type": "function"
    },
    {
      "inputs": [],
      "name": "isCEO",
      "outputs": [
        {
          "internalType": "bool",
          "name": "",
          "type": "bool"
        }
      ],
      "stateMutability": "view",
      "type": "function"
    },
    {
      "inputs": [],
      "name": "isCFO",
      "outputs": [
        {
          "internalType": "bool",
          "name": "",
          "type": "bool"
        }
      ],
      "stateMutability": "view",
      "type": "function"
    },
    {
      "inputs": [],
      "name": "isCOO",
      "outputs": [
        {
          "internalType": "bool",
          "name": "",
          "type": "bool"
        }
      ],
      "stateMutability": "view",
      "type": "function"
    },
    {
      "inputs": [
        {
          "internalType": "address",
          "name": "account",
          "type": "address"
        },
        {
          "internalType": "uint256",
          "name": "groupId",
          "type": "uint256"
        }
      ],
      "name": "isContributor",
      "outputs": [
        {
          "internalType": "bool",
          "name": "",
          "type": "bool"
        }
      ],
      "stateMutability": "view",
      "type": "function"
    },
    {
      "inputs": [
        {
          "internalType": "address",
          "name": "account",
          "type": "address"
        },
        {
          "internalType": "uint256",
          "name": "groupId",
          "type": "uint256"
        }
      ],
      "name": "isEligibleRecipient",
      "outputs": [
        {
          "internalType": "bool",
          "name": "",
          "type": "bool"
        }
      ],
      "stateMutability": "view",
      "type": "function"
    },
    {
      "inputs": [],
      "name": "isPaused",
      "outputs": [
        {
          "internalType": "bool",
          "name": "",
          "type": "bool"
        }
      ],
      "stateMutability": "view",
      "type": "function"
    },
    {
      "inputs": [
        {
          "internalType": "address",
          "name": "account",
          "type": "address"
        },
        {
          "internalType": "uint256",
          "name": "groupId",
          "type": "uint256"
        }
      ],
      "name": "isRegisteredRecipient",
      "outputs": [
        {
          "internalType": "bool",
          "name": "",
          "type": "bool"
        }
      ],
      "stateMutability": "view",
      "type": "function"
    },
    {
      "inputs": [],
      "name": "newContractAddress",
      "outputs": [
        {
          "internalType": "address",
          "name": "",
          "type": "address"
        }
      ],
      "stateMutability": "view",
      "type": "function"
    },
    {
      "inputs": [],
      "name": "pause",
      "outputs": [],
      "stateMutability": "nonpayable",
      "type": "function"
    },
    {
      "inputs": [],
      "name": "paused",
      "outputs": [
        {
          "internalType": "bool",
          "name": "",
          "type": "bool"
        }
      ],
      "stateMutability": "view",
      "type": "function"
    },
    {
      "inputs": [
        {
          "internalType": "uint256",
          "name": "groupId",
          "type": "uint256"
        }
      ],
      "name": "readEventInfo",
      "outputs": [
        {
          "components": [
            {
              "internalType": "uint256",
              "name": "groupId",
              "type": "uint256"
            },
            {
              "internalType": "string",
              "name": "groupName",
              "type": "string"
            },
            {
              "internalType": "enum EthDropBase.EventState",
              "name": "currentState",
              "type": "uint8"
            },
            {
              "internalType": "uint256",
              "name": "startTime",
              "type": "uint256"
            },
            {
              "internalType": "uint256",
              "name": "registrationEndTime",
              "type": "uint256"
            },
            {
              "internalType": "uint256",
              "name": "endTime",
              "type": "uint256"
            },
            {
              "internalType": "uint256",
              "name": "registeredRecipientsCount",
              "type": "uint256"
            },
            {
              "internalType": "string",
              "name": "sponsorName",
              "type": "string"
            },
            {
              "internalType": "string",
              "name": "sponsorImageUrl",
              "type": "string"
            },
            {
              "internalType": "string",
              "name": "sponsorLinkToUrl",
              "type": "string"
            },
            {
              "internalType": "address",
              "name": "currentContributor",
              "type": "address"
            },
            {
              "internalType": "uint256",
              "name": "totalAmountContributed",
              "type": "uint256"
            },
            {
              "internalType": "uint256",
              "name": "weiWinnings",
              "type": "uint256"
            },
            {
              "internalType": "uint256",
              "name": "numberOfUsersWhoClaimedWinnings",
              "type": "uint256"
            }
          ],
          "internalType": "struct EthDropBase.EthDropEvent",
          "name": "",
          "type": "tuple"
        }
      ],
      "stateMutability": "view",
      "type": "function"
    },
    {
      "inputs": [
        {
          "internalType": "uint256",
          "name": "groupId",
          "type": "uint256"
        }
      ],
      "name": "registerForEvent",
      "outputs": [],
      "stateMutability": "nonpayable",
      "type": "function"
    },
    {
      "inputs": [
        {
          "internalType": "address",
          "name": "account",
          "type": "address"
        },
        {
          "internalType": "uint256",
          "name": "groupId",
          "type": "uint256"
        }
      ],
      "name": "removeAdmin",
      "outputs": [],
      "stateMutability": "nonpayable",
      "type": "function"
    },
    {
      "inputs": [
        {
          "internalType": "address",
          "name": "account",
          "type": "address"
        },
        {
          "internalType": "uint256",
          "name": "groupId",
          "type": "uint256"
        }
      ],
      "name": "removeContributor",
      "outputs": [],
      "stateMutability": "nonpayable",
      "type": "function"
    },
    {
      "inputs": [
        {
          "internalType": "address",
          "name": "account",
          "type": "address"
        },
        {
          "internalType": "uint256",
          "name": "groupId",
          "type": "uint256"
        }
      ],
      "name": "removeEligibleRecipient",
      "outputs": [],
      "stateMutability": "nonpayable",
      "type": "function"
    },
    {
      "inputs": [
        {
          "internalType": "uint256",
          "name": "groupId",
          "type": "uint256"
        }
      ],
      "name": "renounceAdmin",
      "outputs": [],
      "stateMutability": "nonpayable",
      "type": "function"
    },
    {
      "inputs": [
        {
          "internalType": "uint256",
          "name": "groupId",
          "type": "uint256"
        }
      ],
      "name": "renounceContributor",
      "outputs": [],
      "stateMutability": "nonpayable",
      "type": "function"
    },
    {
      "inputs": [
        {
          "internalType": "address",
          "name": "_newCEO",
          "type": "address"
        }
      ],
      "name": "setCEO",
      "outputs": [],
      "stateMutability": "nonpayable",
      "type": "function"
    },
    {
      "inputs": [
        {
          "internalType": "address",
          "name": "_newCFO",
          "type": "address"
        }
      ],
      "name": "setCFO",
      "outputs": [],
      "stateMutability": "nonpayable",
      "type": "function"
    },
    {
      "inputs": [
        {
          "internalType": "address",
          "name": "_newCOO",
          "type": "address"
        }
      ],
      "name": "setCOO",
      "outputs": [],
      "stateMutability": "nonpayable",
      "type": "function"
    },
    {
      "inputs": [
        {
          "internalType": "string",
          "name": "_s",
          "type": "string"
        }
      ],
      "name": "setString",
      "outputs": [],
      "stateMutability": "nonpayable",
      "type": "function"
    },
    {
      "inputs": [
        {
          "internalType": "uint256",
          "name": "groupId",
          "type": "uint256"
        }
      ],
      "name": "startEvent",
      "outputs": [],
      "stateMutability": "nonpayable",
      "type": "function"
    },
    {
      "inputs": [],
      "name": "stringgg",
      "outputs": [
        {
          "internalType": "string",
          "name": "",
          "type": "string"
        }
      ],
      "stateMutability": "view",
      "type": "function"
    },
    {
      "inputs": [],
      "name": "unpause",
      "outputs": [
        {
          "internalType": "bool",
          "name": "",
          "type": "bool"
        }
      ],
      "stateMutability": "nonpayable",
      "type": "function"
    },
    {
      "inputs": [
        {
          "internalType": "uint256",
          "name": "groupId",
          "type": "uint256"
        },
        {
          "internalType": "string",
          "name": "newContributorName",
          "type": "string"
        },
        {
          "internalType": "string",
          "name": "newContributorImgUrl",
          "type": "string"
        },
        {
          "internalType": "string",
          "name": "newContributorLinkToUrl",
          "type": "string"
        }
      ],
      "name": "updateContributorInfo",
      "outputs": [],
      "stateMutability": "nonpayable",
      "type": "function"
    },
    {
      "inputs": [],
      "name": "whoami",
      "outputs": [
        {
          "internalType": "address",
          "name": "",
          "type": "address"
        }
      ],
      "stateMutability": "view",
      "type": "function"
    },
    {
      "inputs": [
        {
          "internalType": "address",
          "name": "_v2Address",
          "type": "address"
        }
      ],
      "name": "setNewAddress",
      "outputs": [],
      "stateMutability": "nonpayable",
      "type": "function"
    },
    {
      "inputs": [],
      "name": "foobar",
      "outputs": [
        {
          "internalType": "string",
          "name": "",
          "type": "string"
        }
      ],
      "stateMutability": "pure",
      "type": "function"
    }
  ],
  "bytecode": "0x60806040526000600360146101000a81548160ff02191690831515021790555060056004556000600b5534801561003557600080fd5b506000600360146101000a81548160ff02191690831515021790555033600160006101000a81548173ffffffffffffffffffffffffffffffffffffffff021916908373ffffffffffffffffffffffffffffffffffffffff1602179055506154ad806100a16000396000f3fe60806040526004361061038c5760003560e01c80637d837ce5116101dc578063c02b8b2c11610102578063e513b7a9116100a0578063ee41b5921161006f578063ee41b59214610dbc578063f4a02e7014610df9578063f89e9cb914610e24578063fc5fd6e414610e615761038c565b8063e513b7a914610d0f578063e62092be14610d3a578063e82f24e014610d77578063ea303f0814610d935761038c565b8063c6e0ddfa116100dc578063c6e0ddfa14610c55578063d5f016c314610c7e578063e320d5e714610ca9578063e33db42614610cd25761038c565b8063c02b8b2c14610bd6578063c271e80c14610c01578063c6db509414610c2a5761038c565b8063962ecff51161017a578063aea88a0511610149578063aea88a0514610b2c578063b047fb5014610b55578063b187bd2614610b80578063b3b36bb314610bab5761038c565b8063962ecff514610a60578063967cafbc14610a9d5780639bda879614610ac6578063a59a695314610b035761038c565b80638182aaf2116101b65780638182aaf2146109b65780638456cb59146109f357806389ea642f14610a0a5780639393ae3714610a355761038c565b80637d837ce5146109275780637fcaf666146109645780637fcb29c91461098d5761038c565b806344b2983b116102c15780635e82c1fc1161025f5780636ebdec491161022e5780636ebdec491461086c57806371587988146108aa578063785142be146108d35780637b936ac2146108fc5761038c565b80635e82c1fc1461079c578063674811ca146107d9578063677bd9ff146108185780636af04a57146108415761038c565b80634e0a33791161029b5780634e0a3379146106e25780634f1ef03c1461070b57806355b57ec1146107345780635c975abb146107715761038c565b806344b2983b14610627578063454432e2146106645780634635509b146106a15761038c565b806327d7874c1161032e578063330a347b11610308578063330a347b1461056d57806338f0b656146105965780633f4ba83a146105d3578063406db843146105fe5761038c565b806327d7874c146104f25780632ba73c151461051b57806330bb0115146105445761038c565b806307bfa3301161036a57806307bfa330146104245780630a0f8168146104615780630d82ffa01461048c57806315891ff4146104c95761038c565b80630519ce791461039157806305df75db146103bc57806306cc4922146103e7575b600080fd5b34801561039d57600080fd5b506103a6610e8c565b6040516103b39190614d29565b60405180910390f35b3480156103c857600080fd5b506103d1610eb2565b6040516103de9190614e71565b60405180910390f35b3480156103f357600080fd5b5061040e60048036038101906104099190614829565b610eef565b60405161041b9190614e03565b60405180910390f35b34801561043057600080fd5b5061044b60048036038101906104469190614829565b610f1c565b6040516104589190614dbf565b60405180910390f35b34801561046d57600080fd5b50610476611008565b6040516104839190614d29565b60405180910390f35b34801561049857600080fd5b506104b360048036038101906104ae9190614829565b61102e565b6040516104c09190614d29565b60405180910390f35b3480156104d557600080fd5b506104f060048036038101906104eb91906147a0565b61106e565b005b3480156104fe57600080fd5b5061051960048036038101906105149190614704565b611158565b005b34801561052757600080fd5b50610542600480360381019061053d9190614704565b611230565b005b34801561055057600080fd5b5061056b60048036038101906105669190614829565b611334565b005b34801561057957600080fd5b50610594600480360381019061058f9190614829565b611356565b005b3480156105a257600080fd5b506105bd60048036038101906105b89190614829565b6116bd565b6040516105ca9190614e03565b60405180910390f35b3480156105df57600080fd5b506105e86116ea565b6040516105f59190614e03565b60405180910390f35b34801561060a57600080fd5b5061062560048036038101906106209190614829565b61178f565b005b34801561063357600080fd5b5061064e60048036038101906106499190614829565b611a43565b60405161065b9190614d44565b60405180910390f35b34801561067057600080fd5b5061068b60048036038101906106869190614829565b611ae4565b6040516106989190614dbf565b60405180910390f35b3480156106ad57600080fd5b506106c860048036038101906106c39190614829565b611bd0565b6040516106d9959493929190614e1e565b60405180910390f35b3480156106ee57600080fd5b5061070960048036038101906107049190614704565b611f53565b005b34801561071757600080fd5b50610732600480360381019061072d9190614829565b61201d565b005b34801561074057600080fd5b5061075b60048036038101906107569190614829565b612059565b6040516107689190614d9d565b60405180910390f35b34801561077d57600080fd5b506107866120e9565b6040516107939190614e03565b60405180910390f35b3480156107a857600080fd5b506107c360048036038101906107be91906147a0565b6120fc565b6040516107d09190614e03565b60405180910390f35b3480156107e557600080fd5b5061080060048036038101906107fb9190614829565b612185565b60405161080f93929190614e93565b60405180910390f35b34801561082457600080fd5b5061083f600480360381019061083a9190614829565b61237d565b005b34801561084d57600080fd5b50610856612562565b6040516108639190614d29565b60405180910390f35b34801561087857600080fd5b50610893600480360381019061088e9190614829565b612588565b6040516108a1929190614d66565b60405180910390f35b3480156108b657600080fd5b506108d160048036038101906108cc9190614704565b6126b9565b005b3480156108df57600080fd5b506108fa60048036038101906108f59190614829565b6127a7565b005b34801561090857600080fd5b50610911612982565b60405161091e9190614d29565b60405180910390f35b34801561093357600080fd5b5061094e600480360381019061094991906147a0565b6129ac565b60405161095b9190614e03565b60405180910390f35b34801561097057600080fd5b5061098b600480360381019061098691906147e0565b612a35565b005b34801561099957600080fd5b506109b460048036038101906109af91906147a0565b612a4f565b005b3480156109c257600080fd5b506109dd60048036038101906109d891906147a0565b612aee565b6040516109ea9190614e03565b60405180910390f35b3480156109ff57600080fd5b50610a08612b77565b005b348015610a1657600080fd5b50610a1f612cb8565b604051610a2c9190614e71565b60405180910390f35b348015610a4157600080fd5b50610a4a612d4a565b604051610a579190614e03565b60405180910390f35b348015610a6c57600080fd5b50610a876004803603810190610a829190614829565b612da2565b604051610a949190614e03565b60405180910390f35b348015610aa957600080fd5b50610ac46004803603810190610abf9190614731565b612e10565b005b348015610ad257600080fd5b50610aed6004803603810190610ae89190614829565b613077565b604051610afa9190614d44565b60405180910390f35b348015610b0f57600080fd5b50610b2a6004803603810190610b259190614829565b613118565b005b348015610b3857600080fd5b50610b536004803603810190610b4e9190614856565b6131f2565b005b348015610b6157600080fd5b50610b6a61328e565b604051610b779190614d29565b60405180910390f35b348015610b8c57600080fd5b50610b956132b4565b604051610ba29190614e03565b60405180910390f35b348015610bb757600080fd5b50610bc06132cb565b604051610bcd9190614d29565b60405180910390f35b348015610be257600080fd5b50610beb6132d3565b604051610bf89190614de1565b60405180910390f35b348015610c0d57600080fd5b50610c286004803603810190610c2391906147a0565b61332b565b005b348015610c3657600080fd5b50610c3f6133c0565b604051610c4c9190614e71565b60405180910390f35b348015610c6157600080fd5b50610c7c6004803603810190610c7791906147a0565b61344e565b005b348015610c8a57600080fd5b50610c936134b6565b604051610ca09190614dbf565b60405180910390f35b348015610cb557600080fd5b50610cd06004803603810190610ccb91906147a0565b61358f565b005b348015610cde57600080fd5b50610cf96004803603810190610cf49190614829565b613624565b604051610d069190614f0f565b60405180910390f35b348015610d1b57600080fd5b50610d24613990565b604051610d319190614e03565b60405180910390f35b348015610d4657600080fd5b50610d616004803603810190610d5c91906147a0565b6139e8565b604051610d6e9190614e03565b60405180910390f35b610d916004803603810190610d8c9190614829565b613a57565b005b348015610d9f57600080fd5b50610dba6004803603810190610db591906147e0565b613af4565b005b348015610dc857600080fd5b50610de36004803603810190610dde9190614829565b613e25565b604051610df09190614e03565b60405180910390f35b348015610e0557600080fd5b50610e0e613e52565b604051610e1b9190614e03565b60405180910390f35b348015610e3057600080fd5b50610e4b6004803603810190610e469190614829565b613eaa565b604051610e589190614e03565b60405180910390f35b348015610e6d57600080fd5b50610e76613f31565b604051610e839190614d29565b60405180910390f35b600260009054906101000a900473ffffffffffffffffffffffffffffffffffffffff1681565b60606040518060400160405280600d81526020017f666f6f6261727272727272722100000000000000000000000000000000000000815250905090565b6000600360149054906101000a900460ff1615610f0b57600080fd5b610f1533836120fc565b9050919050565b606060166000838152602001908152602001600020805480602002602001604051908101604052809291908181526020016000905b82821015610ffd578382906000526020600020018054610f709061524a565b80601f0160208091040260200160405190810160405280929190818152602001828054610f9c9061524a565b8015610fe95780601f10610fbe57610100808354040283529160200191610fe9565b820191906000526020600020905b815481529060010190602001808311610fcc57829003601f168201915b505050505081526020019060010190610f51565b505050509050919050565b600160009054906101000a900473ffffffffffffffffffffffffffffffffffffffff1681565b600060076000838152602001908152602001600020600a0160009054906101000a900473ffffffffffffffffffffffffffffffffffffffff169050919050565b8061107933826139e8565b61108257600080fd5b600360149054906101000a900460ff161561109c57600080fd5b60006011600084815260200190815260200160002060008573ffffffffffffffffffffffffffffffffffffffff1673ffffffffffffffffffffffffffffffffffffffff16815260200190815260200160002060006101000a81548160ff0219169083151502179055508273ffffffffffffffffffffffffffffffffffffffff167f1af6d16168d33745872119540d28858eed156c5f265206bbf1344fda39a93a338360405161114b9190614f31565b60405180910390a2505050565b600160009054906101000a900473ffffffffffffffffffffffffffffffffffffffff1673ffffffffffffffffffffffffffffffffffffffff163373ffffffffffffffffffffffffffffffffffffffff16146111b257600080fd5b600073ffffffffffffffffffffffffffffffffffffffff168173ffffffffffffffffffffffffffffffffffffffff1614156111ec57600080fd5b80600160006101000a81548173ffffffffffffffffffffffffffffffffffffffff021916908373ffffffffffffffffffffffffffffffffffffffff16021790555050565b600160009054906101000a900473ffffffffffffffffffffffffffffffffffffffff1673ffffffffffffffffffffffffffffffffffffffff163373ffffffffffffffffffffffffffffffffffffffff161461128a57600080fd5b600073ffffffffffffffffffffffffffffffffffffffff168173ffffffffffffffffffffffffffffffffffffffff1614156112c457600080fd5b80600360006101000a81548173ffffffffffffffffffffffffffffffffffffffff021916908373ffffffffffffffffffffffffffffffffffffffff1602179055507fa308298a77084def994b565be25bff2e8fbfe7006c2c6b2bacfb84d1ba1f635060405160405180910390a150565b8061133f33826139e8565b61134857600080fd5b6113523383613f5b565b5050565b8061136133826139e8565b806113b95750600360009054906101000a900473ffffffffffffffffffffffffffffffffffffffff1673ffffffffffffffffffffffffffffffffffffffff163373ffffffffffffffffffffffffffffffffffffffff16145b6113c257600080fd5b600360149054906101000a900460ff16156113dc57600080fd5b42600760008481526020019081526020016000206005018190555060036007600084815260200190815260200160002060020160006101000a81548160ff0219169083600381111561143157611430615354565b5b0217905550600860008381526020019081526020016000206007600084815260200190815260200160002090806001815401808255809150506001900390600052602060002090600e02016000909190919091506000820154816000015560018201816001019080546114a39061524a565b6114ae9291906144a3565b506002820160009054906101000a900460ff168160020160006101000a81548160ff021916908360038111156114e7576114e6615354565b5b02179055506003820154816003015560048201548160040155600582015481600501556006820154816006015560078201816007019080546115289061524a565b6115339291906144a3565b5060088201816008019080546115489061524a565b6115539291906144a3565b5060098201816009019080546115689061524a565b6115739291906144a3565b50600a820160009054906101000a900473ffffffffffffffffffffffffffffffffffffffff1681600a0160006101000a81548173ffffffffffffffffffffffffffffffffffffffff021916908373ffffffffffffffffffffffffffffffffffffffff160217905550600b82015481600b0155600c82015481600c0155600d82015481600d0155505060006007600084815260200190815260200160002060060181905550600060076000848152602001908152602001600020600b0181905550600060076000848152602001908152602001600020600c0181905550600060076000848152602001908152602001600020600d01819055503373ffffffffffffffffffffffffffffffffffffffff167f6f45a19e8850c727d0de9f32e0d8691324a9a74ffb4347652e6404138b1d8165836040516116b19190614f31565b60405180910390a25050565b6000600360149054906101000a900460ff16156116d957600080fd5b6116e333836129ac565b9050919050565b6000600160009054906101000a900473ffffffffffffffffffffffffffffffffffffffff1673ffffffffffffffffffffffffffffffffffffffff163373ffffffffffffffffffffffffffffffffffffffff161461174657600080fd5b600360149054906101000a900460ff1661175f57600080fd5b6000600360146101000a81548160ff021916908315150217905550600360149054906101000a900460ff16905090565b8061179a33826120fc565b6117a357600080fd5b600360149054906101000a900460ff16156117bd57600080fd5b60016017600084815260200190815260200160002060003373ffffffffffffffffffffffffffffffffffffffff1673ffffffffffffffffffffffffffffffffffffffff16815260200190815260200160002060006101000a81548160ff02191690831515021790555060186000838152602001908152602001600020339080600181540180825580915050600190039060005260206000200160009091909190916101000a81548173ffffffffffffffffffffffffffffffffffffffff021916908373ffffffffffffffffffffffffffffffffffffffff16021790555060006015600084815260200190815260200160002060003373ffffffffffffffffffffffffffffffffffffffff1673ffffffffffffffffffffffffffffffffffffffff16815260200190815260200160002080546118f79061524a565b80601f01602080910402602001604051908101604052809291908181526020018280546119239061524a565b80156119705780601f1061194557610100808354040283529160200191611970565b820191906000526020600020905b81548152906001019060200180831161195357829003601f168201915b5050505050905060166000848152602001908152602001600020819080600181540180825580915050600190039060005260206000200160009091909190915090805190602001906119c3929190614530565b506007600084815260200190815260200160002060060160008154809291906119eb906152ad565b91905055503373ffffffffffffffffffffffffffffffffffffffff167f0695e999be8100bdb5bee8612337296508d527eae78c65b8f170eacb5a3b439d84604051611a369190614f31565b60405180910390a2505050565b606060186000838152602001908152602001600020805480602002602001604051908101604052809291908181526020018280548015611ad857602002820191906000526020600020905b8160009054906101000a900473ffffffffffffffffffffffffffffffffffffffff1673ffffffffffffffffffffffffffffffffffffffff1681526020019060010190808311611a8e575b50505050509050919050565b606060136000838152602001908152602001600020805480602002602001604051908101604052809291908181526020016000905b82821015611bc5578382906000526020600020018054611b389061524a565b80601f0160208091040260200160405190810160405280929190818152602001828054611b649061524a565b8015611bb15780601f10611b8657610100808354040283529160200191611bb1565b820191906000526020600020905b815481529060010190602001808311611b9457829003601f168201915b505050505081526020019060010190611b19565b505050509050919050565b60008060008060008060076000888152602001908152602001600020604051806101c001604052908160008201548152602001600182018054611c129061524a565b80601f0160208091040260200160405190810160405280929190818152602001828054611c3e9061524a565b8015611c8b5780601f10611c6057610100808354040283529160200191611c8b565b820191906000526020600020905b815481529060010190602001808311611c6e57829003601f168201915b505050505081526020016002820160009054906101000a900460ff166003811115611cb957611cb8615354565b5b6003811115611ccb57611cca615354565b5b815260200160038201548152602001600482015481526020016005820154815260200160068201548152602001600782018054611d079061524a565b80601f0160208091040260200160405190810160405280929190818152602001828054611d339061524a565b8015611d805780601f10611d5557610100808354040283529160200191611d80565b820191906000526020600020905b815481529060010190602001808311611d6357829003601f168201915b50505050508152602001600882018054611d999061524a565b80601f0160208091040260200160405190810160405280929190818152602001828054611dc59061524a565b8015611e125780601f10611de757610100808354040283529160200191611e12565b820191906000526020600020905b815481529060010190602001808311611df557829003601f168201915b50505050508152602001600982018054611e2b9061524a565b80601f0160208091040260200160405190810160405280929190818152602001828054611e579061524a565b8015611ea45780601f10611e7957610100808354040283529160200191611ea4565b820191906000526020600020905b815481529060010190602001808311611e8757829003601f168201915b50505050508152602001600a820160009054906101000a900473ffffffffffffffffffffffffffffffffffffffff1673ffffffffffffffffffffffffffffffffffffffff1673ffffffffffffffffffffffffffffffffffffffff168152602001600b8201548152602001600c8201548152602001600d82015481525050905080604001518160c00151826101600151836101800151846101a00151955095509550955095505091939590929450565b600160009054906101000a900473ffffffffffffffffffffffffffffffffffffffff1673ffffffffffffffffffffffffffffffffffffffff163373ffffffffffffffffffffffffffffffffffffffff1614611fad57600080fd5b80600260006101000a81548173ffffffffffffffffffffffffffffffffffffffff021916908373ffffffffffffffffffffffffffffffffffffffff1602179055507f162e32528b5907ecf876b3b7a4e5e0edf878642e3ec25852e3c35af1a4e1c04060405160405180910390a150565b806120283382612aee565b61203157600080fd5b600360149054906101000a900460ff161561204b57600080fd5b61205533836140a5565b5050565b6060601460008381526020019081526020016000208054806020026020016040519081016040528092919081815260200182805480156120dd57602002820191906000526020600020906000905b82829054906101000a900460ff161515815260200190600101906020826000010492830192600103820291508084116120a75790505b50505050509050919050565b600360149054906101000a900460ff1681565b6000600360149054906101000a900460ff161561211857600080fd5b600115156011600084815260200190815260200160002060008573ffffffffffffffffffffffffffffffffffffffff1673ffffffffffffffffffffffffffffffffffffffff16815260200190815260200160002060009054906101000a900460ff16151514905092915050565b60608060606007600085815260200190815260200160002060070160076000868152602001908152602001600020600801600760008781526020019081526020016000206009018280546121d89061524a565b80601f01602080910402602001604051908101604052809291908181526020018280546122049061524a565b80156122515780601f1061222657610100808354040283529160200191612251565b820191906000526020600020905b81548152906001019060200180831161223457829003601f168201915b505050505092508180546122649061524a565b80601f01602080910402602001604051908101604052809291908181526020018280546122909061524a565b80156122dd5780601f106122b2576101008083540402835291602001916122dd565b820191906000526020600020905b8154815290600101906020018083116122c057829003601f168201915b505050505091508080546122f09061524a565b80601f016020809104026020016040519081016040528092919081815260200182805461231c9061524a565b80156123695780601f1061233e57610100808354040283529160200191612369565b820191906000526020600020905b81548152906001019060200180831161234c57829003601f168201915b505050505090509250925092509193909250565b8061238833826129ac565b61239157600080fd5b813360011515600c600084815260200190815260200160002060003373ffffffffffffffffffffffffffffffffffffffff1673ffffffffffffffffffffffffffffffffffffffff16815260200190815260200160002060009054906101000a900460ff161515141561240257600080fd5b600360149054906101000a900460ff161561241c57600080fd5b6001600c600086815260200190815260200160002060003373ffffffffffffffffffffffffffffffffffffffff1673ffffffffffffffffffffffffffffffffffffffff16815260200190815260200160002060006101000a81548160ff02191690831515021790555060076000858152602001908152602001600020600d0160008154809291906124ac906152ad565b91905055503373ffffffffffffffffffffffffffffffffffffffff166108fc60076000878152602001908152602001600020600c01549081150290604051600060405180830381858888f1935050505015801561250d573d6000803e3d6000fd5b503373ffffffffffffffffffffffffffffffffffffffff167f1a31e733a172afcf46074b3106c17f0c298e226442682a03c1e99ce256139ec2856040516125549190614f31565b60405180910390a250505050565b601960009054906101000a900473ffffffffffffffffffffffffffffffffffffffff1681565b606080600d6000848152602001908152602001600020600f60008581526020019081526020016000208180548060200260200160405190810160405280929190818152602001828054801561263257602002820191906000526020600020905b8160009054906101000a900473ffffffffffffffffffffffffffffffffffffffff1673ffffffffffffffffffffffffffffffffffffffff16815260200190600101908083116125e8575b50505050509150808054806020026020016040519081016040528092919081815260200182805480156126a957602002820191906000526020600020906000905b82829054906101000a900460ff161515815260200190600101906020826000010492830192600103820291508084116126735790505b5050505050905091509150915091565b600160009054906101000a900473ffffffffffffffffffffffffffffffffffffffff1673ffffffffffffffffffffffffffffffffffffffff163373ffffffffffffffffffffffffffffffffffffffff161461271357600080fd5b600360149054906101000a900460ff1661272c57600080fd5b80601960006101000a81548173ffffffffffffffffffffffffffffffffffffffff021916908373ffffffffffffffffffffffffffffffffffffffff1602179055507f450db8da6efbe9c22f2347f7c2021231df1fc58d3ae9a2fa75d39fa4461993058160405161279c9190614d29565b60405180910390a150565b806127b233826139e8565b6127bb57600080fd5b600360149054906101000a900460ff16156127d557600080fd5b4260076000848152602001908152602001600020600401819055506000606460045460076000868152602001908152602001600020600b0154612818919061510d565b61282291906150dc565b9050600260009054906101000a900473ffffffffffffffffffffffffffffffffffffffff1673ffffffffffffffffffffffffffffffffffffffff166108fc829081150290604051600060405180830381858888f1935050505015801561288c573d6000803e3d6000fd5b5060008160076000868152602001908152602001600020600b01546128b19190615167565b90506007600085815260200190815260200160002060060154816128d591906150dc565b60076000868152602001908152602001600020600c018190555060026007600086815260200190815260200160002060020160006101000a81548160ff0219169083600381111561292957612928615354565b5b02179055503373ffffffffffffffffffffffffffffffffffffffff167fef898a6941c945450e9bbdad4a76fcd0f51f42f7e251fddcb1e5479ba786d5e4856040516129749190614f31565b60405180910390a250505050565b6000600260009054906101000a900473ffffffffffffffffffffffffffffffffffffffff16905090565b6000600360149054906101000a900460ff16156129c857600080fd5b600115156017600084815260200190815260200160002060008573ffffffffffffffffffffffffffffffffffffffff1673ffffffffffffffffffffffffffffffffffffffff16815260200190815260200160002060009054906101000a900460ff16151514905092915050565b8060009080519060200190612a4b929190614530565b5050565b600360009054906101000a900473ffffffffffffffffffffffffffffffffffffffff1673ffffffffffffffffffffffffffffffffffffffff163373ffffffffffffffffffffffffffffffffffffffff1614612aa957600080fd5b612ab382826141b6565b7f6d08be0da99b3a8dabb8a9d0bd4ebece8d00f747b0d0e6c29f97508f1a40a29181604051612ae29190614f31565b60405180910390a15050565b6000600360149054906101000a900460ff1615612b0a57600080fd5b600115156010600084815260200190815260200160002060008573ffffffffffffffffffffffffffffffffffffffff1673ffffffffffffffffffffffffffffffffffffffff16815260200190815260200160002060009054906101000a900460ff16151514905092915050565b600360009054906101000a900473ffffffffffffffffffffffffffffffffffffffff1673ffffffffffffffffffffffffffffffffffffffff163373ffffffffffffffffffffffffffffffffffffffff161480612c205750600160009054906101000a900473ffffffffffffffffffffffffffffffffffffffff1673ffffffffffffffffffffffffffffffffffffffff163373ffffffffffffffffffffffffffffffffffffffff16145b80612c785750600260009054906101000a900473ffffffffffffffffffffffffffffffffffffffff1673ffffffffffffffffffffffffffffffffffffffff163373ffffffffffffffffffffffffffffffffffffffff16145b612c8157600080fd5b600360149054906101000a900460ff1615612c9b57600080fd5b6001600360146101000a81548160ff021916908315150217905550565b606060008054612cc79061524a565b80601f0160208091040260200160405190810160405280929190818152602001828054612cf39061524a565b8015612d405780601f10612d1557610100808354040283529160200191612d40565b820191906000526020600020905b815481529060010190602001808311612d2357829003601f168201915b5050505050905090565b6000600260009054906101000a900473ffffffffffffffffffffffffffffffffffffffff1673ffffffffffffffffffffffffffffffffffffffff163373ffffffffffffffffffffffffffffffffffffffff1614905090565b6000600115156009600084815260200190815260200160002060003373ffffffffffffffffffffffffffffffffffffffff1673ffffffffffffffffffffffffffffffffffffffff16815260200190815260200160002060009054906101000a900460ff161515149050919050565b600360149054906101000a900460ff1615612e2a57600080fd5b80612e3533826139e8565b612e3e57600080fd5b60016011600084815260200190815260200160002060008673ffffffffffffffffffffffffffffffffffffffff1673ffffffffffffffffffffffffffffffffffffffff16815260200190815260200160002060006101000a81548160ff02191690831515021790555060126000838152602001908152602001600020849080600181540180825580915050600190039060005260206000200160009091909190916101000a81548173ffffffffffffffffffffffffffffffffffffffff021916908373ffffffffffffffffffffffffffffffffffffffff1602179055506013600083815260200190815260200160002083908060018154018082558091505060019003906000526020600020016000909190919091509080519060200190612f67929190614530565b50826015600084815260200190815260200160002060008673ffffffffffffffffffffffffffffffffffffffff1673ffffffffffffffffffffffffffffffffffffffff1681526020019081526020016000209080519060200190612fcc929190614530565b5060146000838152602001908152602001600020600190806001815401808255809150506001900390600052602060002090602091828204019190069091909190916101000a81548160ff0219169083151502179055508373ffffffffffffffffffffffffffffffffffffffff167f46b8357d30dedd734a71d059a385f46b6e667bff20233f907477760207f88965836040516130699190614f31565b60405180910390a250505050565b60606012600083815260200190815260200160002080548060200260200160405190810160405280929190818152602001828054801561310c57602002820191906000526020600020905b8160009054906101000a900473ffffffffffffffffffffffffffffffffffffffff1673ffffffffffffffffffffffffffffffffffffffff16815260200190600101908083116130c2575b50505050509050919050565b8061312333826139e8565b61312c57600080fd5b600360149054906101000a900460ff161561314657600080fd5b60016007600084815260200190815260200160002060020160006101000a81548160ff021916908360038111156131805761317f615354565b5b02179055504260076000848152602001908152602001600020600301819055503373ffffffffffffffffffffffffffffffffffffffff167ff77c6f27499b698205f54058c2914a340e1300c2bc0d9a819e7aebfbaabbbb93836040516131e69190614f31565b60405180910390a25050565b836131fd3382612aee565b61320657600080fd5b83600760008781526020019081526020016000206007019080519060200190613230929190614530565b508260076000878152602001908152602001600020600801908051906020019061325b929190614530565b5081600760008781526020019081526020016000206009019080519060200190613286929190614530565b505050505050565b600360009054906101000a900473ffffffffffffffffffffffffffffffffffffffff1681565b6000600360149054906101000a900460ff16905090565b600033905090565b6060600580548060200260200160405190810160405280929190818152602001828054801561332157602002820191906000526020600020905b81548152602001906001019080831161330d575b5050505050905090565b8061333633826139e8565b8061338e5750600360009054906101000a900473ffffffffffffffffffffffffffffffffffffffff1673ffffffffffffffffffffffffffffffffffffffff163373ffffffffffffffffffffffffffffffffffffffff16145b61339757600080fd5b600360149054906101000a900460ff16156133b157600080fd5b6133bb8383614393565b505050565b600080546133cd9061524a565b80601f01602080910402602001604051908101604052809291908181526020018280546133f99061524a565b80156134465780601f1061341b57610100808354040283529160200191613446565b820191906000526020600020905b81548152906001019060200180831161342957829003601f168201915b505050505081565b600360009054906101000a900473ffffffffffffffffffffffffffffffffffffffff1673ffffffffffffffffffffffffffffffffffffffff163373ffffffffffffffffffffffffffffffffffffffff16146134a857600080fd5b6134b28282613f5b565b5050565b60606006805480602002602001604051908101604052809291908181526020016000905b828210156135865783829060005260206000200180546134f99061524a565b80601f01602080910402602001604051908101604052809291908181526020018280546135259061524a565b80156135725780601f1061354757610100808354040283529160200191613572565b820191906000526020600020905b81548152906001019060200180831161355557829003601f168201915b5050505050815260200190600101906134da565b50505050905090565b8061359a33826139e8565b806135f25750600360009054906101000a900473ffffffffffffffffffffffffffffffffffffffff1673ffffffffffffffffffffffffffffffffffffffff163373ffffffffffffffffffffffffffffffffffffffff16145b6135fb57600080fd5b600360149054906101000a900460ff161561361557600080fd5b61361f83836140a5565b505050565b61362c6145b6565b8161363733826139e8565b61364057600080fd5b60076000848152602001908152602001600020604051806101c0016040529081600082015481526020016001820180546136799061524a565b80601f01602080910402602001604051908101604052809291908181526020018280546136a59061524a565b80156136f25780601f106136c7576101008083540402835291602001916136f2565b820191906000526020600020905b8154815290600101906020018083116136d557829003601f168201915b505050505081526020016002820160009054906101000a900460ff1660038111156137205761371f615354565b5b600381111561373257613731615354565b5b81526020016003820154815260200160048201548152602001600582015481526020016006820154815260200160078201805461376e9061524a565b80601f016020809104026020016040519081016040528092919081815260200182805461379a9061524a565b80156137e75780601f106137bc576101008083540402835291602001916137e7565b820191906000526020600020905b8154815290600101906020018083116137ca57829003601f168201915b505050505081526020016008820180546138009061524a565b80601f016020809104026020016040519081016040528092919081815260200182805461382c9061524a565b80156138795780601f1061384e57610100808354040283529160200191613879565b820191906000526020600020905b81548152906001019060200180831161385c57829003601f168201915b505050505081526020016009820180546138929061524a565b80601f01602080910402602001604051908101604052809291908181526020018280546138be9061524a565b801561390b5780601f106138e05761010080835404028352916020019161390b565b820191906000526020600020905b8154815290600101906020018083116138ee57829003601f168201915b50505050508152602001600a820160009054906101000a900473ffffffffffffffffffffffffffffffffffffffff1673ffffffffffffffffffffffffffffffffffffffff1673ffffffffffffffffffffffffffffffffffffffff168152602001600b8201548152602001600c8201548152602001600d82015481525050915050919050565b6000600160009054906101000a900473ffffffffffffffffffffffffffffffffffffffff1673ffffffffffffffffffffffffffffffffffffffff163373ffffffffffffffffffffffffffffffffffffffff1614905090565b6000600115156009600084815260200190815260200160002060008573ffffffffffffffffffffffffffffffffffffffff1673ffffffffffffffffffffffffffffffffffffffff16815260200190815260200160002060009054906101000a900460ff16151514905092915050565b80613a623382612aee565b613a6b57600080fd5b600360149054906101000a900460ff1615613a8557600080fd5b3460076000848152602001908152602001600020600b01819055503373ffffffffffffffffffffffffffffffffffffffff167f5dc1fe5ab986a852c4eda8e8bb94247d13307065c593fb83f1a09be2736793828334604051613ae8929190614f4c565b60405180910390a25050565b600360009054906101000a900473ffffffffffffffffffffffffffffffffffffffff1673ffffffffffffffffffffffffffffffffffffffff163373ffffffffffffffffffffffffffffffffffffffff1614613b4e57600080fd5b600360149054906101000a900460ff1615613b6857600080fd5b60004290506000604051806101c0016040528083815260200184815260200160006003811115613b9b57613b9a615354565b5b815260200142815260200142815260200142815260200160008152602001604051806020016040528060008152508152602001604051806020016040528060008152508152602001604051806020016040528060008152508152602001600073ffffffffffffffffffffffffffffffffffffffff1681526020016000815260200160008152602001600081525090508060076000848152602001908152602001600020600082015181600001556020820151816001019080519060200190613c64929190614530565b5060408201518160020160006101000a81548160ff02191690836003811115613c9057613c8f615354565b5b0217905550606082015181600301556080820151816004015560a0820151816005015560c0820151816006015560e0820151816007019080519060200190613cd9929190614530565b50610100820151816008019080519060200190613cf7929190614530565b50610120820151816009019080519060200190613d15929190614530565b5061014082015181600a0160006101000a81548173ffffffffffffffffffffffffffffffffffffffff021916908373ffffffffffffffffffffffffffffffffffffffff16021790555061016082015181600b015561018082015181600c01556101a082015181600d01559050506005829080600181540180825580915050600190039060005260206000200160009091909190915055600683908060018154018082558091505060019003906000526020600020016000909190919091509080519060200190613de6929190614530565b507f5937a473913f56daf7dea7a6e821970acaa73f35555cf88f70c54f243cd98a9e8383604051613e18929190614edf565b60405180910390a1505050565b6000600360149054906101000a900460ff1615613e4157600080fd5b613e4b3383612aee565b9050919050565b6000600360009054906101000a900473ffffffffffffffffffffffffffffffffffffffff1673ffffffffffffffffffffffffffffffffffffffff163373ffffffffffffffffffffffffffffffffffffffff1614905090565b6000613eb633836129ac565b613ec35760009050613f2c565b60011515600c600084815260200190815260200160002060003373ffffffffffffffffffffffffffffffffffffffff1673ffffffffffffffffffffffffffffffffffffffff16815260200190815260200160002060009054906101000a900460ff161515141590505b919050565b6000600360009054906101000a900473ffffffffffffffffffffffffffffffffffffffff16905090565b60006009600083815260200190815260200160002060008473ffffffffffffffffffffffffffffffffffffffff1673ffffffffffffffffffffffffffffffffffffffff16815260200190815260200160002060006101000a81548160ff0219169083151502179055506000600a600083815260200190815260200160002060008473ffffffffffffffffffffffffffffffffffffffff1673ffffffffffffffffffffffffffffffffffffffff1681526020019081526020016000205490506000600f600084815260200190815260200160002082815481106140405761403f6153b2565b5b90600052602060002090602091828204019190066101000a81548160ff0219169083151502179055507f99f4c949f294dd13aa62d19c1344b81968121fe570d11657ebd54aae55ac0f20826040516140989190614f31565b60405180910390a1505050565b60006010600083815260200190815260200160002060008473ffffffffffffffffffffffffffffffffffffffff1673ffffffffffffffffffffffffffffffffffffffff16815260200190815260200160002060006101000a81548160ff021916908315150217905550600060076000838152602001908152602001600020600a0160006101000a81548173ffffffffffffffffffffffffffffffffffffffff021916908373ffffffffffffffffffffffffffffffffffffffff1602179055508173ffffffffffffffffffffffffffffffffffffffff167fda111d7eb5d5b2033c4ffad00cd7cd42f45af2813bee1a69e65f26d90ea15f0b826040516141aa9190614f31565b60405180910390a25050565b60016009600083815260200190815260200160002060008473ffffffffffffffffffffffffffffffffffffffff1673ffffffffffffffffffffffffffffffffffffffff16815260200190815260200160002060006101000a81548160ff021916908315150217905550600b54600a600083815260200190815260200160002060008473ffffffffffffffffffffffffffffffffffffffff1673ffffffffffffffffffffffffffffffffffffffff16815260200190815260200160002081905550600b6000815480929190614289906152ad565b9190505550600d6000828152602001908152602001600020829080600181540180825580915050600190039060005260206000200160009091909190916101000a81548173ffffffffffffffffffffffffffffffffffffffff021916908373ffffffffffffffffffffffffffffffffffffffff160217905550600f6000828152602001908152602001600020600190806001815401808255809150506001900390600052602060002090602091828204019190069091909190916101000a81548160ff0219169083151502179055507f6d08be0da99b3a8dabb8a9d0bd4ebece8d00f747b0d0e6c29f97508f1a40a291816040516143879190614f31565b60405180910390a15050565b60016010600083815260200190815260200160002060008473ffffffffffffffffffffffffffffffffffffffff1673ffffffffffffffffffffffffffffffffffffffff16815260200190815260200160002060006101000a81548160ff0219169083151502179055508160076000838152602001908152602001600020600a0160006101000a81548173ffffffffffffffffffffffffffffffffffffffff021916908373ffffffffffffffffffffffffffffffffffffffff1602179055508173ffffffffffffffffffffffffffffffffffffffff167f5fd6d0b7e707fe344bd2a1887f9d0eeea8bfcac6f339ba4200e74f0647f101c0826040516144979190614f31565b60405180910390a25050565b8280546144af9061524a565b90600052602060002090601f0160209004810192826144d1576000855561451f565b82601f106144e2578054855561451f565b8280016001018555821561451f57600052602060002091601f016020900482015b8281111561451e578254825591600101919060010190614503565b5b50905061452c919061464d565b5090565b82805461453c9061524a565b90600052602060002090601f01602090048101928261455e57600085556145a5565b82601f1061457757805160ff19168380011785556145a5565b828001600101855582156145a5579182015b828111156145a4578251825591602001919060010190614589565b5b5090506145b2919061464d565b5090565b604051806101c001604052806000815260200160608152602001600060038111156145e4576145e3615354565b5b815260200160008152602001600081526020016000815260200160008152602001606081526020016060815260200160608152602001600073ffffffffffffffffffffffffffffffffffffffff1681526020016000815260200160008152602001600081525090565b5b8082111561466657600081600090555060010161464e565b5090565b600061467d61467884614f9a565b614f75565b90508281526020810184848401111561469957614698615415565b5b6146a4848285615208565b509392505050565b6000813590506146bb81615449565b92915050565b600082601f8301126146d6576146d5615410565b5b81356146e684826020860161466a565b91505092915050565b6000813590506146fe81615460565b92915050565b60006020828403121561471a5761471961541f565b5b6000614728848285016146ac565b91505092915050565b60008060006060848603121561474a5761474961541f565b5b6000614758868287016146ac565b935050602084013567ffffffffffffffff8111156147795761477861541a565b5b614785868287016146c1565b9250506040614796868287016146ef565b9150509250925092565b600080604083850312156147b7576147b661541f565b5b60006147c5858286016146ac565b92505060206147d6858286016146ef565b9150509250929050565b6000602082840312156147f6576147f561541f565b5b600082013567ffffffffffffffff8111156148145761481361541a565b5b614820848285016146c1565b91505092915050565b60006020828403121561483f5761483e61541f565b5b600061484d848285016146ef565b91505092915050565b600080600080608085870312156148705761486f61541f565b5b600061487e878288016146ef565b945050602085013567ffffffffffffffff81111561489f5761489e61541a565b5b6148ab878288016146c1565b935050604085013567ffffffffffffffff8111156148cc576148cb61541a565b5b6148d8878288016146c1565b925050606085013567ffffffffffffffff8111156148f9576148f861541a565b5b614905878288016146c1565b91505092959194509250565b600061491d838361496d565b60208301905092915050565b60006149358383614b1a565b60208301905092915050565b600061494d8383614b56565b905092915050565b60006149618383614d0b565b60208301905092915050565b6149768161519b565b82525050565b6149858161519b565b82525050565b60006149968261500b565b6149a08185615076565b93506149ab83614fcb565b8060005b838110156149dc5781516149c38882614911565b97506149ce83615042565b9250506001810190506149af565b5085935050505092915050565b60006149f482615016565b6149fe8185615087565b9350614a0983614fdb565b8060005b83811015614a3a578151614a218882614929565b9750614a2c8361504f565b925050600181019050614a0d565b5085935050505092915050565b6000614a5282615021565b614a5c8185615098565b935083602082028501614a6e85614feb565b8060005b85811015614aaa5784840389528151614a8b8582614941565b9450614a968361505c565b925060208a01995050600181019050614a72565b50829750879550505050505092915050565b6000614ac78261502c565b614ad181856150a9565b9350614adc83614ffb565b8060005b83811015614b0d578151614af48882614955565b9750614aff83615069565b925050600181019050614ae0565b5085935050505092915050565b614b23816151ad565b82525050565b614b32816151ad565b82525050565b614b41816151f6565b82525050565b614b50816151f6565b82525050565b6000614b6182615037565b614b6b81856150ba565b9350614b7b818560208601615217565b614b8481615424565b840191505092915050565b6000614b9a82615037565b614ba481856150cb565b9350614bb4818560208601615217565b614bbd81615424565b840191505092915050565b60006101c083016000830151614be16000860182614d0b565b5060208301518482036020860152614bf98282614b56565b9150506040830151614c0e6040860182614b38565b506060830151614c216060860182614d0b565b506080830151614c346080860182614d0b565b5060a0830151614c4760a0860182614d0b565b5060c0830151614c5a60c0860182614d0b565b5060e083015184820360e0860152614c728282614b56565b915050610100830151848203610100860152614c8e8282614b56565b915050610120830151848203610120860152614caa8282614b56565b915050610140830151614cc161014086018261496d565b50610160830151614cd6610160860182614d0b565b50610180830151614ceb610180860182614d0b565b506101a0830151614d006101a0860182614d0b565b508091505092915050565b614d14816151ec565b82525050565b614d23816151ec565b82525050565b6000602082019050614d3e600083018461497c565b92915050565b60006020820190508181036000830152614d5e818461498b565b905092915050565b60006040820190508181036000830152614d80818561498b565b90508181036020830152614d9481846149e9565b90509392505050565b60006020820190508181036000830152614db781846149e9565b905092915050565b60006020820190508181036000830152614dd98184614a47565b905092915050565b60006020820190508181036000830152614dfb8184614abc565b905092915050565b6000602082019050614e186000830184614b29565b92915050565b600060a082019050614e336000830188614b47565b614e406020830187614d1a565b614e4d6040830186614d1a565b614e5a6060830185614d1a565b614e676080830184614d1a565b9695505050505050565b60006020820190508181036000830152614e8b8184614b8f565b905092915050565b60006060820190508181036000830152614ead8186614b8f565b90508181036020830152614ec18185614b8f565b90508181036040830152614ed58184614b8f565b9050949350505050565b60006040820190508181036000830152614ef98185614b8f565b9050614f086020830184614d1a565b9392505050565b60006020820190508181036000830152614f298184614bc8565b905092915050565b6000602082019050614f466000830184614d1a565b92915050565b6000604082019050614f616000830185614d1a565b614f6e6020830184614d1a565b9392505050565b6000614f7f614f90565b9050614f8b828261527c565b919050565b6000604051905090565b600067ffffffffffffffff821115614fb557614fb46153e1565b5b614fbe82615424565b9050602081019050919050565b6000819050602082019050919050565b6000819050602082019050919050565b6000819050602082019050919050565b6000819050602082019050919050565b600081519050919050565b600081519050919050565b600081519050919050565b600081519050919050565b600081519050919050565b6000602082019050919050565b6000602082019050919050565b6000602082019050919050565b6000602082019050919050565b600082825260208201905092915050565b600082825260208201905092915050565b600082825260208201905092915050565b600082825260208201905092915050565b600082825260208201905092915050565b600082825260208201905092915050565b60006150e7826151ec565b91506150f2836151ec565b92508261510257615101615325565b5b828204905092915050565b6000615118826151ec565b9150615123836151ec565b9250817fffffffffffffffffffffffffffffffffffffffffffffffffffffffffffffffff048311821515161561515c5761515b6152f6565b5b828202905092915050565b6000615172826151ec565b915061517d836151ec565b9250828210156151905761518f6152f6565b5b828203905092915050565b60006151a6826151cc565b9050919050565b60008115159050919050565b60008190506151c782615435565b919050565b600073ffffffffffffffffffffffffffffffffffffffff82169050919050565b6000819050919050565b6000615201826151b9565b9050919050565b82818337600083830152505050565b60005b8381101561523557808201518184015260208101905061521a565b83811115615244576000848401525b50505050565b6000600282049050600182168061526257607f821691505b6020821081141561527657615275615383565b5b50919050565b61528582615424565b810181811067ffffffffffffffff821117156152a4576152a36153e1565b5b80604052505050565b60006152b8826151ec565b91507fffffffffffffffffffffffffffffffffffffffffffffffffffffffffffffffff8214156152eb576152ea6152f6565b5b600182019050919050565b7f4e487b7100000000000000000000000000000000000000000000000000000000600052601160045260246000fd5b7f4e487b7100000000000000000000000000000000000000000000000000000000600052601260045260246000fd5b7f4e487b7100000000000000000000000000000000000000000000000000000000600052602160045260246000fd5b7f4e487b7100000000000000000000000000000000000000000000000000000000600052602260045260246000fd5b7f4e487b7100000000000000000000000000000000000000000000000000000000600052603260045260246000fd5b7f4e487b7100000000000000000000000000000000000000000000000000000000600052604160045260246000fd5b600080fd5b600080fd5b600080fd5b600080fd5b6000601f19601f8301169050919050565b6004811061544657615445615354565b5b50565b6154528161519b565b811461545d57600080fd5b50565b615469816151ec565b811461547457600080fd5b5056fea2646970667358221220e46b99e412eb4155e3a728b94f2bb3351e44bec0b13216e1b6bb3da2ec6c5c2f64736f6c63430008060033",
  "immutableReferences": {},
  "source": "// SPDX-License-Identifier: MIT\npragma solidity ^0.8.0;\n\nimport \"../roles/AdminsManager.sol\";\n\ncontract EthDropCore is AdminsManager {\n    // Set in case the core contract is broken and an upgrade is required\n    address public newContractAddress;\n\n    /// @notice Creates the main EthDrop smart contract instance.\n    constructor () {\n        // Starts paused.\n\n        // TODO \n        paused = false;\n\n        // the creator of the contract is the initial CEO\n        ceoAddress = msg.sender;\n\n    }\n\n    /// @dev Used to mark the smart contract as upgraded, in case there is a serious\n    ///  breaking bug. This method does nothing but keep track of the new contract and\n    ///  emit a message indicating that the new address is set. It's up to clients of this\n    ///  contract to update to the new contract address in that case. (This contract will\n    ///  be paused indefinitely if such an upgrade takes place.)\n    /// @param _v2Address new address\n    function setNewAddress(address _v2Address) external onlyCEO whenPaused {\n        // See README.md for updgrade plan\n        newContractAddress = _v2Address;\n        emit ContractUpgrade(_v2Address);\n    }\n\n    function foobar() external pure returns (string memory) {\n        return \"foobarrrrrrr!\";\n    }\n}",
  "sourcePath": "/Users/jlynch/Git-Projects/EthDrop/contracts/core/EthDropCore.sol",
  "compiler": {
    "name": "solc",
    "version": "0.8.6+commit.11564f7e.Emscripten.clang"
  },
  "schemaVersion": "3.4.1",
  "updatedAt": "2021-07-28T02:41:14.259Z",
  "devdoc": {
    "kind": "dev",
    "methods": {
      "pause()": {
        "details": "Called by any \"C-level\" role to pause the contract. Used only when  a bug or exploit is detected and we need to limit damage."
      },
      "setCEO(address)": {
        "details": "Assigns a new address to act as the CEO. Only available to the current CEO.",
        "params": {
          "_newCEO": "The address of the new CEO"
        }
      },
      "setCFO(address)": {
        "details": "Assigns a new address to act as the CFO. Only available to the current CEO.",
        "params": {
          "_newCFO": "The address of the new CFO"
        }
      },
      "setCOO(address)": {
        "details": "Assigns a new address to act as the COO. Only available to the current CEO.",
        "params": {
          "_newCOO": "The address of the new COO"
        }
      },
      "setNewAddress(address)": {
        "details": "Used to mark the smart contract as upgraded, in case there is a serious  breaking bug. This method does nothing but keep track of the new contract and  emit a message indicating that the new address is set. It's up to clients of this  contract to update to the new contract address in that case. (This contract will  be paused indefinitely if such an upgrade takes place.)",
        "params": {
          "_v2Address": "new address"
        }
      },
      "unpause()": {
        "details": "Unpauses the smart contract. Can only be called by the CEO, since  one reason we may pause the contract is when CFO or COO accounts are  compromised."
      }
    },
    "version": 1
  },
  "userdoc": {
    "kind": "user",
    "methods": {
      "constructor": {
        "notice": "Creates the main EthDrop smart contract instance."
      },
      "unpause()": {
        "notice": "This is public rather than external so it can be called by  derived contracts."
      }
    },
    "version": 1
  }
}