{
  "contractName": "EthDropCore",
  "abi": [
    {
      "inputs": [],
      "stateMutability": "nonpayable",
      "type": "constructor"
    },
    {
      "anonymous": false,
      "inputs": [
        {
          "indexed": true,
          "internalType": "address",
          "name": "account",
          "type": "address"
        },
        {
          "indexed": false,
          "internalType": "uint256",
          "name": "groupId",
          "type": "uint256"
        }
      ],
      "name": "AdminAdded",
      "type": "event"
    },
    {
      "anonymous": false,
      "inputs": [
        {
          "indexed": true,
          "internalType": "address",
          "name": "account",
          "type": "address"
        },
        {
          "indexed": false,
          "internalType": "uint256",
          "name": "groupId",
          "type": "uint256"
        }
      ],
      "name": "AdminRemoved",
      "type": "event"
    },
    {
      "anonymous": false,
      "inputs": [
        {
          "indexed": false,
          "internalType": "uint256",
          "name": "registeredRecipientCount",
          "type": "uint256"
        },
        {
          "indexed": false,
          "internalType": "uint256",
          "name": "winningsPerRecipient",
          "type": "uint256"
        }
      ],
      "name": "CalculatedPot",
      "type": "event"
    },
    {
      "anonymous": false,
      "inputs": [
        {
          "indexed": false,
          "internalType": "address",
          "name": "newContract",
          "type": "address"
        }
      ],
      "name": "ContractUpgrade",
      "type": "event"
    },
    {
      "anonymous": false,
      "inputs": [
        {
          "indexed": true,
          "internalType": "address",
          "name": "account",
          "type": "address"
        },
        {
          "indexed": false,
          "internalType": "uint256",
          "name": "groupId",
          "type": "uint256"
        },
        {
          "indexed": false,
          "internalType": "uint256",
          "name": "amount",
          "type": "uint256"
        }
      ],
      "name": "ContributionMade",
      "type": "event"
    },
    {
      "anonymous": false,
      "inputs": [
        {
          "indexed": true,
          "internalType": "address",
          "name": "account",
          "type": "address"
        },
        {
          "indexed": false,
          "internalType": "uint256",
          "name": "groupId",
          "type": "uint256"
        }
      ],
      "name": "ContributorAdded",
      "type": "event"
    },
    {
      "anonymous": false,
      "inputs": [
        {
          "indexed": true,
          "internalType": "address",
          "name": "account",
          "type": "address"
        },
        {
          "indexed": false,
          "internalType": "uint256",
          "name": "groupId",
          "type": "uint256"
        }
      ],
      "name": "ContributorRemoved",
      "type": "event"
    },
    {
      "anonymous": false,
      "inputs": [
        {
          "indexed": true,
          "internalType": "address",
          "name": "account",
          "type": "address"
        },
        {
          "indexed": false,
          "internalType": "uint256",
          "name": "groupId",
          "type": "uint256"
        }
      ],
      "name": "EligibleRecipientAdded",
      "type": "event"
    },
    {
      "anonymous": false,
      "inputs": [
        {
          "indexed": true,
          "internalType": "address",
          "name": "account",
          "type": "address"
        },
        {
          "indexed": false,
          "internalType": "uint256",
          "name": "groupId",
          "type": "uint256"
        }
      ],
      "name": "EligibleRecipientRemoved",
      "type": "event"
    },
    {
      "anonymous": false,
      "inputs": [],
      "name": "EventClose",
      "type": "event"
    },
    {
      "anonymous": false,
      "inputs": [
        {
          "indexed": true,
          "internalType": "address",
          "name": "endedBy",
          "type": "address"
        },
        {
          "indexed": false,
          "internalType": "uint256",
          "name": "groupId",
          "type": "uint256"
        }
      ],
      "name": "EventEnded",
      "type": "event"
    },
    {
      "anonymous": false,
      "inputs": [
        {
          "indexed": true,
          "internalType": "address",
          "name": "startedBy",
          "type": "address"
        },
        {
          "indexed": false,
          "internalType": "uint256",
          "name": "groupId",
          "type": "uint256"
        }
      ],
      "name": "EventStarted",
      "type": "event"
    },
    {
      "anonymous": false,
      "inputs": [
        {
          "indexed": true,
          "internalType": "address",
          "name": "creator",
          "type": "address"
        },
        {
          "indexed": false,
          "internalType": "uint256",
          "name": "groupId",
          "type": "uint256"
        }
      ],
      "name": "GroupCreated",
      "type": "event"
    },
    {
      "anonymous": false,
      "inputs": [
        {
          "indexed": true,
          "internalType": "address",
          "name": "account",
          "type": "address"
        },
        {
          "indexed": false,
          "internalType": "uint256",
          "name": "groupId",
          "type": "uint256"
        }
      ],
      "name": "RecipientRegistered",
      "type": "event"
    },
    {
      "anonymous": false,
      "inputs": [
        {
          "indexed": true,
          "internalType": "address",
          "name": "endedBy",
          "type": "address"
        },
        {
          "indexed": false,
          "internalType": "uint256",
          "name": "groupId",
          "type": "uint256"
        }
      ],
      "name": "RegistrationEnded",
      "type": "event"
    },
    {
      "anonymous": false,
      "inputs": [],
      "name": "RegistrationOpen",
      "type": "event"
    },
    {
      "anonymous": false,
      "inputs": [
        {
          "indexed": false,
          "internalType": "address",
          "name": "from",
          "type": "address"
        },
        {
          "indexed": false,
          "internalType": "address",
          "name": "to",
          "type": "address"
        }
      ],
      "name": "Transfer",
      "type": "event"
    },
    {
      "anonymous": false,
      "inputs": [
        {
          "indexed": true,
          "internalType": "address",
          "name": "account",
          "type": "address"
        },
        {
          "indexed": false,
          "internalType": "uint256",
          "name": "groupId",
          "type": "uint256"
        }
      ],
      "name": "WinningsClaimed",
      "type": "event"
    },
    {
      "anonymous": false,
      "inputs": [],
      "name": "WinningsClaimingOpen",
      "type": "event"
    },
    {
      "inputs": [
        {
          "internalType": "address",
          "name": "account",
          "type": "address"
        },
        {
          "internalType": "uint256",
          "name": "groupId",
          "type": "uint256"
        }
      ],
      "name": "addAdmin",
      "outputs": [],
      "stateMutability": "nonpayable",
      "type": "function"
    },
    {
      "inputs": [
        {
          "internalType": "address",
          "name": "account",
          "type": "address"
        },
        {
          "internalType": "uint256",
          "name": "groupId",
          "type": "uint256"
        }
      ],
      "name": "addContributor",
      "outputs": [],
      "stateMutability": "nonpayable",
      "type": "function"
    },
    {
      "inputs": [
        {
          "internalType": "address",
          "name": "account",
          "type": "address"
        },
        {
          "internalType": "uint256",
          "name": "groupId",
          "type": "uint256"
        }
      ],
      "name": "addEligibleRecipient",
      "outputs": [],
      "stateMutability": "nonpayable",
      "type": "function"
    },
    {
      "inputs": [],
      "name": "ceoAddress",
      "outputs": [
        {
          "internalType": "address",
          "name": "",
          "type": "address"
        }
      ],
      "stateMutability": "view",
      "type": "function",
      "constant": true
    },
    {
      "inputs": [],
      "name": "cfoAddress",
      "outputs": [
        {
          "internalType": "address",
          "name": "",
          "type": "address"
        }
      ],
      "stateMutability": "view",
      "type": "function",
      "constant": true
    },
    {
      "inputs": [
        {
          "internalType": "uint256",
          "name": "groupId",
          "type": "uint256"
        }
      ],
      "name": "claimWinnings",
      "outputs": [],
      "stateMutability": "nonpayable",
      "type": "function"
    },
    {
      "inputs": [
        {
          "internalType": "uint256",
          "name": "groupId",
          "type": "uint256"
        }
      ],
      "name": "closeEventRegistration",
      "outputs": [],
      "stateMutability": "nonpayable",
      "type": "function"
    },
    {
      "inputs": [
        {
          "internalType": "uint256",
          "name": "groupId",
          "type": "uint256"
        }
      ],
      "name": "contributeToPot",
      "outputs": [],
      "stateMutability": "payable",
      "type": "function",
      "payable": true
    },
    {
      "inputs": [],
      "name": "cooAddress",
      "outputs": [
        {
          "internalType": "address",
          "name": "",
          "type": "address"
        }
      ],
      "stateMutability": "view",
      "type": "function",
      "constant": true
    },
    {
      "inputs": [],
      "name": "createNewGroup",
      "outputs": [],
      "stateMutability": "nonpayable",
      "type": "function"
    },
    {
      "inputs": [
        {
          "internalType": "uint256",
          "name": "groupId",
          "type": "uint256"
        }
      ],
      "name": "endEvent",
      "outputs": [],
      "stateMutability": "nonpayable",
      "type": "function"
    },
    {
      "inputs": [
        {
          "internalType": "address",
          "name": "account",
          "type": "address"
        },
        {
          "internalType": "uint256",
          "name": "groupId",
          "type": "uint256"
        }
      ],
      "name": "isAdmin",
      "outputs": [
        {
          "internalType": "bool",
          "name": "",
          "type": "bool"
        }
      ],
      "stateMutability": "view",
      "type": "function",
      "constant": true
    },
    {
      "inputs": [
        {
          "internalType": "address",
          "name": "account",
          "type": "address"
        },
        {
          "internalType": "uint256",
          "name": "groupId",
          "type": "uint256"
        }
      ],
      "name": "isContributor",
      "outputs": [
        {
          "internalType": "bool",
          "name": "",
          "type": "bool"
        }
      ],
      "stateMutability": "view",
      "type": "function",
      "constant": true
    },
    {
      "inputs": [
        {
          "internalType": "address",
          "name": "account",
          "type": "address"
        },
        {
          "internalType": "uint256",
          "name": "groupId",
          "type": "uint256"
        }
      ],
      "name": "isEligibleRecipient",
      "outputs": [
        {
          "internalType": "bool",
          "name": "",
          "type": "bool"
        }
      ],
      "stateMutability": "view",
      "type": "function",
      "constant": true
    },
    {
      "inputs": [
        {
          "internalType": "address",
          "name": "account",
          "type": "address"
        },
        {
          "internalType": "uint256",
          "name": "groupId",
          "type": "uint256"
        }
      ],
      "name": "isRegisteredRecipient",
      "outputs": [
        {
          "internalType": "bool",
          "name": "",
          "type": "bool"
        }
      ],
      "stateMutability": "view",
      "type": "function",
      "constant": true
    },
    {
      "inputs": [],
      "name": "newContractAddress",
      "outputs": [
        {
          "internalType": "address",
          "name": "",
          "type": "address"
        }
      ],
      "stateMutability": "view",
      "type": "function",
      "constant": true
    },
    {
      "inputs": [],
      "name": "pause",
      "outputs": [],
      "stateMutability": "nonpayable",
      "type": "function"
    },
    {
      "inputs": [],
      "name": "paused",
      "outputs": [
        {
          "internalType": "bool",
          "name": "",
          "type": "bool"
        }
      ],
      "stateMutability": "view",
      "type": "function",
      "constant": true
    },
    {
      "inputs": [
        {
          "internalType": "uint256",
          "name": "groupId",
          "type": "uint256"
        }
      ],
      "name": "readEventInfo",
      "outputs": [
        {
          "components": [
            {
              "internalType": "uint256",
              "name": "groupId",
              "type": "uint256"
            },
            {
              "internalType": "enum EthDropBase.EventState",
              "name": "currentState",
              "type": "uint8"
            },
            {
              "internalType": "uint256",
              "name": "startTime",
              "type": "uint256"
            },
            {
              "internalType": "uint256",
              "name": "registrationEndTime",
              "type": "uint256"
            },
            {
              "internalType": "uint256",
              "name": "endTime",
              "type": "uint256"
            },
            {
              "internalType": "uint256",
              "name": "registeredRecipientsCount",
              "type": "uint256"
            },
            {
              "internalType": "string",
              "name": "sponsorName",
              "type": "string"
            },
            {
              "internalType": "string",
              "name": "sponsorImageUrl",
              "type": "string"
            },
            {
              "internalType": "string",
              "name": "sponsorLinkToUrl",
              "type": "string"
            },
            {
              "internalType": "address",
              "name": "currentContributor",
              "type": "address"
            }
          ],
          "internalType": "struct EthDropBase.EthDropEvent",
          "name": "",
          "type": "tuple"
        }
      ],
      "stateMutability": "view",
      "type": "function",
      "constant": true
    },
    {
      "inputs": [
        {
          "internalType": "uint256",
          "name": "groupId",
          "type": "uint256"
        }
      ],
      "name": "registerForEvent",
      "outputs": [],
      "stateMutability": "nonpayable",
      "type": "function"
    },
    {
      "inputs": [
        {
          "internalType": "address",
          "name": "account",
          "type": "address"
        },
        {
          "internalType": "uint256",
          "name": "groupId",
          "type": "uint256"
        }
      ],
      "name": "removeAdmin",
      "outputs": [],
      "stateMutability": "nonpayable",
      "type": "function"
    },
    {
      "inputs": [
        {
          "internalType": "address",
          "name": "account",
          "type": "address"
        },
        {
          "internalType": "uint256",
          "name": "groupId",
          "type": "uint256"
        }
      ],
      "name": "removeContributor",
      "outputs": [],
      "stateMutability": "nonpayable",
      "type": "function"
    },
    {
      "inputs": [
        {
          "internalType": "address",
          "name": "account",
          "type": "address"
        },
        {
          "internalType": "uint256",
          "name": "groupId",
          "type": "uint256"
        }
      ],
      "name": "removeEligibleRecipient",
      "outputs": [],
      "stateMutability": "nonpayable",
      "type": "function"
    },
    {
      "inputs": [
        {
          "internalType": "uint256",
          "name": "groupId",
          "type": "uint256"
        }
      ],
      "name": "renounceAdmin",
      "outputs": [],
      "stateMutability": "nonpayable",
      "type": "function"
    },
    {
      "inputs": [
        {
          "internalType": "uint256",
          "name": "groupId",
          "type": "uint256"
        }
      ],
      "name": "renounceContributor",
      "outputs": [],
      "stateMutability": "nonpayable",
      "type": "function"
    },
    {
      "inputs": [
        {
          "internalType": "address",
          "name": "_newCEO",
          "type": "address"
        }
      ],
      "name": "setCEO",
      "outputs": [],
      "stateMutability": "nonpayable",
      "type": "function"
    },
    {
      "inputs": [
        {
          "internalType": "address",
          "name": "_newCFO",
          "type": "address"
        }
      ],
      "name": "setCFO",
      "outputs": [],
      "stateMutability": "nonpayable",
      "type": "function"
    },
    {
      "inputs": [
        {
          "internalType": "address",
          "name": "_newCOO",
          "type": "address"
        }
      ],
      "name": "setCOO",
      "outputs": [],
      "stateMutability": "nonpayable",
      "type": "function"
    },
    {
      "inputs": [
        {
          "internalType": "uint256",
          "name": "groupId",
          "type": "uint256"
        }
      ],
      "name": "startEvent",
      "outputs": [],
      "stateMutability": "nonpayable",
      "type": "function"
    },
    {
      "inputs": [],
      "name": "unpause",
      "outputs": [],
      "stateMutability": "nonpayable",
      "type": "function"
    },
    {
      "inputs": [
        {
          "internalType": "address",
          "name": "_v2Address",
          "type": "address"
        }
      ],
      "name": "setNewAddress",
      "outputs": [],
      "stateMutability": "nonpayable",
      "type": "function"
    },
    {
      "inputs": [],
      "name": "foobar",
      "outputs": [
        {
          "internalType": "string",
          "name": "",
          "type": "string"
        }
      ],
      "stateMutability": "pure",
      "type": "function",
      "constant": true
    }
  ],
  "bytecode": "0x60806040526000600260146101000a81548160ff021916908315150217905550600560035534801561003057600080fd5b506001600260146101000a81548160ff021916908315150217905550336000806101000a81548173ffffffffffffffffffffffffffffffffffffffff021916908373ffffffffffffffffffffffffffffffffffffffff16021790555033600260006101000a81548173ffffffffffffffffffffffffffffffffffffffff021916908373ffffffffffffffffffffffffffffffffffffffff160217905550614b78806100dc6000396000f3fe608060405260043610620002125760003560e01c806371587988116200011b578063ab4e194511620000a3578063e320d5e7116200006d578063e320d5e71462000731578063e33db426146200075f578063e62092be14620007a3578063e82f24e014620007e75762000212565b8063ab4e19451462000677578063b047fb5014620006a5578063c6e0ddfa14620006d5578063e0bd7d1514620007035762000212565b80638182aaf211620000e55780638182aaf214620005d15780638456cb5914620006155780639055bdad146200062f578063a59a695314620006495762000212565b8063715879881462000503578063785142be14620005315780637d837ce5146200055f5780637fcb29c914620005a35762000212565b80633f4ba83a116200019f5780635c975abb11620001695780635c975abb14620004315780635e82c1fc1462000461578063677bd9ff14620004a55780636af04a5714620004d35762000212565b80633f4ba83a146200038d578063406db84314620003a75780634e0a337914620003d55780634f1ef03c14620004035762000212565b806327d7874c11620001e157806327d7874c14620002d55780632ba73c15146200030357806330bb01151462000331578063330a347b146200035f5762000212565b80630519ce79146200021757806305df75db14620002475780630a0f8168146200027757806315891ff414620002a7575b600080fd5b3480156200022457600080fd5b506200022f62000807565b6040516200023e919062002ddf565b60405180910390f35b3480156200025457600080fd5b506200025f6200082d565b6040516200026e919062002e71565b60405180910390f35b3480156200028457600080fd5b506200028f6200086a565b6040516200029e919062002ddf565b60405180910390f35b348015620002b457600080fd5b50620002d36004803603810190620002cd919062002a2e565b6200088e565b005b348015620002e257600080fd5b50620003016004803603810190620002fb9190620029fc565b6200097e565b005b3480156200031057600080fd5b506200032f6004803603810190620003299190620029fc565b62000a55565b005b3480156200033e57600080fd5b506200035d600480360381019062000357919062002a75565b62000b2d565b005b3480156200036c57600080fd5b506200038b600480360381019062000385919062002a75565b62000b54565b005b3480156200039a57600080fd5b50620003a562000e26565b005b348015620003b457600080fd5b50620003d36004803603810190620003cd919062002a75565b62000eb6565b005b348015620003e257600080fd5b50620004016004803603810190620003fb9190620029fc565b62001047565b005b3480156200041057600080fd5b506200042f600480360381019062000429919062002a75565b6200111f565b005b3480156200043e57600080fd5b506200044962001161565b60405162000458919062002e54565b60405180910390f35b3480156200046e57600080fd5b506200048d600480360381019062000487919062002a2e565b62001174565b6040516200049c919062002e54565b60405180910390f35b348015620004b257600080fd5b50620004d16004803603810190620004cb919062002a75565b620011fe565b005b348015620004e057600080fd5b50620004eb62001326565b604051620004fa919062002ddf565b60405180910390f35b3480156200051057600080fd5b506200052f6004803603810190620005299190620029fc565b6200134c565b005b3480156200053e57600080fd5b506200055d600480360381019062000557919062002a75565b6200143c565b005b3480156200056c57600080fd5b506200058b600480360381019062000585919062002a2e565b62001821565b6040516200059a919062002e54565b60405180910390f35b348015620005b057600080fd5b50620005cf6004803603810190620005c9919062002a2e565b620018ab565b005b348015620005de57600080fd5b50620005fd6004803603810190620005f7919062002a2e565b62001916565b6040516200060c919062002e54565b60405180910390f35b3480156200062257600080fd5b506200062d620019a0565b005b3480156200063c57600080fd5b506200064762001ae3565b005b3480156200065657600080fd5b506200067560048036038101906200066f919062002a75565b62001d7d565b005b3480156200068457600080fd5b50620006a360048036038101906200069d919062002a2e565b62001e60565b005b348015620006b257600080fd5b50620006bd62001f50565b604051620006cc919062002ddf565b60405180910390f35b348015620006e257600080fd5b50620007016004803603810190620006fb919062002a2e565b62001f76565b005b3480156200071057600080fd5b506200072f600480360381019062000729919062002a2e565b62001fe1565b005b3480156200073e57600080fd5b506200075d600480360381019062000757919062002a2e565b6200207d565b005b3480156200076c57600080fd5b506200078b600480360381019062000785919062002a75565b62002119565b6040516200079a919062002e95565b60405180910390f35b348015620007b057600080fd5b50620007cf6004803603810190620007c9919062002a2e565b620023f8565b604051620007de919062002e54565b60405180910390f35b620008056004803603810190620007ff919062002a75565b62002467565b005b600160009054906101000a900473ffffffffffffffffffffffffffffffffffffffff1681565b60606040518060400160405280600d81526020017f666f6f6261727272727272722100000000000000000000000000000000000000815250905090565b60008054906101000a900473ffffffffffffffffffffffffffffffffffffffff1681565b806200089b3382620023f8565b620008a557600080fd5b600260149054906101000a900460ff1615620008c057600080fd5b60006008600084815260200190815260200160002060008573ffffffffffffffffffffffffffffffffffffffff1673ffffffffffffffffffffffffffffffffffffffff16815260200190815260200160002060006101000a81548160ff0219169083151502179055508273ffffffffffffffffffffffffffffffffffffffff167f1af6d16168d33745872119540d28858eed156c5f265206bbf1344fda39a93a338360405162000971919062002eb9565b60405180910390a2505050565b60008054906101000a900473ffffffffffffffffffffffffffffffffffffffff1673ffffffffffffffffffffffffffffffffffffffff163373ffffffffffffffffffffffffffffffffffffffff1614620009d757600080fd5b600073ffffffffffffffffffffffffffffffffffffffff168173ffffffffffffffffffffffffffffffffffffffff16141562000a1257600080fd5b806000806101000a81548173ffffffffffffffffffffffffffffffffffffffff021916908373ffffffffffffffffffffffffffffffffffffffff16021790555050565b60008054906101000a900473ffffffffffffffffffffffffffffffffffffffff1673ffffffffffffffffffffffffffffffffffffffff163373ffffffffffffffffffffffffffffffffffffffff161462000aae57600080fd5b600073ffffffffffffffffffffffffffffffffffffffff168173ffffffffffffffffffffffffffffffffffffffff16141562000ae957600080fd5b80600260006101000a81548173ffffffffffffffffffffffffffffffffffffffff021916908373ffffffffffffffffffffffffffffffffffffffff16021790555050565b8062000b3a3382620023f8565b62000b4457600080fd5b62000b503383620024ef565b5050565b8062000b613382620023f8565b8062000bba5750600260009054906101000a900473ffffffffffffffffffffffffffffffffffffffff1673ffffffffffffffffffffffffffffffffffffffff163373ffffffffffffffffffffffffffffffffffffffff16145b62000bc457600080fd5b600260149054906101000a900460ff161562000bdf57600080fd5b42600460008481526020019081526020016000206004018190555060036004600084815260200190815260200160002060010160006101000a81548160ff0219169083600381111562000c375762000c366200321d565b5b0217905550600560008381526020019081526020016000206004600084815260200190815260200160002090806001815401808255809150506001900390600052602060002090600a0201600090919091909150600082015481600001556001820160009054906101000a900460ff168160010160006101000a81548160ff0219169083600381111562000cd05762000ccf6200321d565b5b021790555060028201548160020155600382015481600301556004820154816004015560058201548160050155600682018160060190805462000d13906200311d565b62000d20929190620027e3565b50600782018160070190805462000d37906200311d565b62000d44929190620027e3565b50600882018160080190805462000d5b906200311d565b62000d68929190620027e3565b506009820160009054906101000a900473ffffffffffffffffffffffffffffffffffffffff168160090160006101000a81548173ffffffffffffffffffffffffffffffffffffffff021916908373ffffffffffffffffffffffffffffffffffffffff16021790555050503373ffffffffffffffffffffffffffffffffffffffff167f6f45a19e8850c727d0de9f32e0d8691324a9a74ffb4347652e6404138b1d81658360405162000e1a919062002eb9565b60405180910390a25050565b60008054906101000a900473ffffffffffffffffffffffffffffffffffffffff1673ffffffffffffffffffffffffffffffffffffffff163373ffffffffffffffffffffffffffffffffffffffff161462000e7f57600080fd5b600260149054906101000a900460ff1662000e9957600080fd5b6000600260146101000a81548160ff021916908315150217905550565b8062000ec3338262001174565b62000ecd57600080fd5b600260149054906101000a900460ff161562000ee857600080fd5b60016009600084815260200190815260200160002060003373ffffffffffffffffffffffffffffffffffffffff1673ffffffffffffffffffffffffffffffffffffffff16815260200190815260200160002060006101000a81548160ff021916908315150217905550600a6000838152602001908152602001600020339080600181540180825580915050600190039060005260206000200160009091909190916101000a81548173ffffffffffffffffffffffffffffffffffffffff021916908373ffffffffffffffffffffffffffffffffffffffff16021790555060046000838152602001908152602001600020600501600081548092919062000fee9062003171565b91905055503373ffffffffffffffffffffffffffffffffffffffff167f0695e999be8100bdb5bee8612337296508d527eae78c65b8f170eacb5a3b439d836040516200103b919062002eb9565b60405180910390a25050565b60008054906101000a900473ffffffffffffffffffffffffffffffffffffffff1673ffffffffffffffffffffffffffffffffffffffff163373ffffffffffffffffffffffffffffffffffffffff1614620010a057600080fd5b600073ffffffffffffffffffffffffffffffffffffffff168173ffffffffffffffffffffffffffffffffffffffff161415620010db57600080fd5b80600160006101000a81548173ffffffffffffffffffffffffffffffffffffffff021916908373ffffffffffffffffffffffffffffffffffffffff16021790555050565b806200112c338262001916565b6200113657600080fd5b600260149054906101000a900460ff16156200115157600080fd5b6200115d3383620025ac565b5050565b600260149054906101000a900460ff1681565b6000600260149054906101000a900460ff16156200119157600080fd5b600115156008600084815260200190815260200160002060008573ffffffffffffffffffffffffffffffffffffffff1673ffffffffffffffffffffffffffffffffffffffff16815260200190815260200160002060009054906101000a900460ff16151514905092915050565b806200120b338262001821565b6200121557600080fd5b600260149054906101000a900460ff16156200123057600080fd5b600b600083815260200190815260200160002060009054906101000a900473ffffffffffffffffffffffffffffffffffffffff1673ffffffffffffffffffffffffffffffffffffffff166319165587336040518263ffffffff1660e01b81526004016200129e919062002dfc565b600060405180830381600087803b158015620012b957600080fd5b505af1158015620012ce573d6000803e3d6000fd5b505050503373ffffffffffffffffffffffffffffffffffffffff167f1a31e733a172afcf46074b3106c17f0c298e226442682a03c1e99ce256139ec2836040516200131a919062002eb9565b60405180910390a25050565b600c60009054906101000a900473ffffffffffffffffffffffffffffffffffffffff1681565b60008054906101000a900473ffffffffffffffffffffffffffffffffffffffff1673ffffffffffffffffffffffffffffffffffffffff163373ffffffffffffffffffffffffffffffffffffffff1614620013a557600080fd5b600260149054906101000a900460ff16620013bf57600080fd5b80600c60006101000a81548173ffffffffffffffffffffffffffffffffffffffff021916908373ffffffffffffffffffffffffffffffffffffffff1602179055507f450db8da6efbe9c22f2347f7c2021231df1fc58d3ae9a2fa75d39fa4461993058160405162001431919062002ddf565b60405180910390a150565b80620014493382620023f8565b6200145357600080fd5b600260149054906101000a900460ff16156200146e57600080fd5b426004600084815260200190815260200160002060030181905550600160009054906101000a900473ffffffffffffffffffffffffffffffffffffffff1673ffffffffffffffffffffffffffffffffffffffff166108fc606460035447620014d7919062002fdf565b620014e3919062002fa7565b9081150290604051600060405180830381858888f193505050501580156200150f573d6000803e3d6000fd5b506000600460008481526020019081526020016000206005015467ffffffffffffffff811115620015455762001544620032aa565b5b604051908082528060200260200182016040528015620015745781602001602082028036833780820191505090505b50905060005b6004600085815260200190815260200160002060050154811015620015d3576001828281518110620015b157620015b06200327b565b5b6020026020010181815250508080620015ca9062003171565b9150506200157a565b50600a600084815260200190815260200160002081604051620015f6906200287b565b6200160392919062002e19565b604051809103906000f08015801562001620573d6000803e3d6000fd5b50600b600085815260200190815260200160002060006101000a81548173ffffffffffffffffffffffffffffffffffffffff021916908373ffffffffffffffffffffffffffffffffffffffff16021790555060026004600085815260200190815260200160002060010160006101000a81548160ff02191690836003811115620016af57620016ae6200321d565b5b02179055506000600b600085815260200190815260200160002060009054906101000a900473ffffffffffffffffffffffffffffffffffffffff1673ffffffffffffffffffffffffffffffffffffffff16633a98ef396040518163ffffffff1660e01b815260040160206040518083038186803b1580156200173057600080fd5b505afa15801562001745573d6000803e3d6000fd5b505050506040513d601f19601f820116820180604052508101906200176b919062002aa7565b4762001778919062002fa7565b90507f80bb271e4cd4fd0e4cc21617a1a4cfe46af15e974bb329a92e7c15a69665158c600460008681526020019081526020016000206005015482604051620017c392919062002ed6565b60405180910390a13373ffffffffffffffffffffffffffffffffffffffff167fef898a6941c945450e9bbdad4a76fcd0f51f42f7e251fddcb1e5479ba786d5e48560405162001813919062002eb9565b60405180910390a250505050565b6000600260149054906101000a900460ff16156200183e57600080fd5b600115156009600084815260200190815260200160002060008573ffffffffffffffffffffffffffffffffffffffff1673ffffffffffffffffffffffffffffffffffffffff16815260200190815260200160002060009054906101000a900460ff16151514905092915050565b600260009054906101000a900473ffffffffffffffffffffffffffffffffffffffff1673ffffffffffffffffffffffffffffffffffffffff163373ffffffffffffffffffffffffffffffffffffffff16146200190657600080fd5b62001912828262002669565b5050565b6000600260149054906101000a900460ff16156200193357600080fd5b600115156007600084815260200190815260200160002060008573ffffffffffffffffffffffffffffffffffffffff1673ffffffffffffffffffffffffffffffffffffffff16815260200190815260200160002060009054906101000a900460ff16151514905092915050565b600260009054906101000a900473ffffffffffffffffffffffffffffffffffffffff1673ffffffffffffffffffffffffffffffffffffffff163373ffffffffffffffffffffffffffffffffffffffff16148062001a48575060008054906101000a900473ffffffffffffffffffffffffffffffffffffffff1673ffffffffffffffffffffffffffffffffffffffff163373ffffffffffffffffffffffffffffffffffffffff16145b8062001aa15750600160009054906101000a900473ffffffffffffffffffffffffffffffffffffffff1673ffffffffffffffffffffffffffffffffffffffff163373ffffffffffffffffffffffffffffffffffffffff16145b62001aab57600080fd5b600260149054906101000a900460ff161562001ac657600080fd5b6001600260146101000a81548160ff021916908315150217905550565b600260009054906101000a900473ffffffffffffffffffffffffffffffffffffffff1673ffffffffffffffffffffffffffffffffffffffff163373ffffffffffffffffffffffffffffffffffffffff161462001b3e57600080fd5b600260149054906101000a900460ff161562001b5957600080fd5b6000434060001c905060006040518061014001604052808381526020016000600381111562001b8d5762001b8c6200321d565b5b815260200142815260200142815260200142815260200160008152602001604051806020016040528060008152508152602001604051806020016040528060008152508152602001604051806020016040528060008152508152602001600073ffffffffffffffffffffffffffffffffffffffff16815250905080600460008481526020019081526020016000206000820151816000015560208201518160010160006101000a81548160ff0219169083600381111562001c535762001c526200321d565b5b021790555060408201518160020155606082015181600301556080820151816004015560a0820151816005015560c082015181600601908051906020019062001c9e92919062002889565b5060e082015181600701908051906020019062001cbd92919062002889565b5061010082015181600801908051906020019062001cdd92919062002889565b506101208201518160090160006101000a81548173ffffffffffffffffffffffffffffffffffffffff021916908373ffffffffffffffffffffffffffffffffffffffff1602179055509050503373ffffffffffffffffffffffffffffffffffffffff167f3482e3d6d38a18835a6ad59afad8098300ce9f907925e4be71126d7b43dc803d8360405162001d71919062002eb9565b60405180910390a25050565b8062001d8a3382620023f8565b62001d9457600080fd5b600260149054906101000a900460ff161562001daf57600080fd5b60016004600084815260200190815260200160002060010160006101000a81548160ff0219169083600381111562001dec5762001deb6200321d565b5b02179055504260046000848152602001908152602001600020600201819055503373ffffffffffffffffffffffffffffffffffffffff167ff77c6f27499b698205f54058c2914a340e1300c2bc0d9a819e7aebfbaabbbb938360405162001e54919062002eb9565b60405180910390a25050565b600260149054906101000a900460ff161562001e7b57600080fd5b8062001e883382620023f8565b62001e9257600080fd5b60016008600084815260200190815260200160002060008573ffffffffffffffffffffffffffffffffffffffff1673ffffffffffffffffffffffffffffffffffffffff16815260200190815260200160002060006101000a81548160ff0219169083151502179055508273ffffffffffffffffffffffffffffffffffffffff167f46b8357d30dedd734a71d059a385f46b6e667bff20233f907477760207f889658360405162001f43919062002eb9565b60405180910390a2505050565b600260009054906101000a900473ffffffffffffffffffffffffffffffffffffffff1681565b600260009054906101000a900473ffffffffffffffffffffffffffffffffffffffff1673ffffffffffffffffffffffffffffffffffffffff163373ffffffffffffffffffffffffffffffffffffffff161462001fd157600080fd5b62001fdd8282620024ef565b5050565b8062001fee3382620023f8565b80620020475750600260009054906101000a900473ffffffffffffffffffffffffffffffffffffffff1673ffffffffffffffffffffffffffffffffffffffff163373ffffffffffffffffffffffffffffffffffffffff16145b6200205157600080fd5b600260149054906101000a900460ff16156200206c57600080fd5b62002078838362002726565b505050565b806200208a3382620023f8565b80620020e35750600260009054906101000a900473ffffffffffffffffffffffffffffffffffffffff1673ffffffffffffffffffffffffffffffffffffffff163373ffffffffffffffffffffffffffffffffffffffff16145b620020ed57600080fd5b600260149054906101000a900460ff16156200210857600080fd5b620021148383620025ac565b505050565b620021236200291a565b81620021303382620023f8565b6200213a57600080fd5b6004600084815260200190815260200160002060405180610140016040529081600082015481526020016001820160009054906101000a900460ff1660038111156200218b576200218a6200321d565b5b6003811115620021a0576200219f6200321d565b5b815260200160028201548152602001600382015481526020016004820154815260200160058201548152602001600682018054620021de906200311d565b80601f01602080910402602001604051908101604052809291908181526020018280546200220c906200311d565b80156200225d5780601f1062002231576101008083540402835291602001916200225d565b820191906000526020600020905b8154815290600101906020018083116200223f57829003601f168201915b5050505050815260200160078201805462002278906200311d565b80601f0160208091040260200160405190810160405280929190818152602001828054620022a6906200311d565b8015620022f75780601f10620022cb57610100808354040283529160200191620022f7565b820191906000526020600020905b815481529060010190602001808311620022d957829003601f168201915b5050505050815260200160088201805462002312906200311d565b80601f016020809104026020016040519081016040528092919081815260200182805462002340906200311d565b8015620023915780601f10620023655761010080835404028352916020019162002391565b820191906000526020600020905b8154815290600101906020018083116200237357829003601f168201915b505050505081526020016009820160009054906101000a900473ffffffffffffffffffffffffffffffffffffffff1673ffffffffffffffffffffffffffffffffffffffff1673ffffffffffffffffffffffffffffffffffffffff1681525050915050919050565b6000600115156006600084815260200190815260200160002060008573ffffffffffffffffffffffffffffffffffffffff1673ffffffffffffffffffffffffffffffffffffffff16815260200190815260200160002060009054906101000a900460ff16151514905092915050565b8062002474338262001916565b6200247e57600080fd5b600260149054906101000a900460ff16156200249957600080fd5b3373ffffffffffffffffffffffffffffffffffffffff167f5dc1fe5ab986a852c4eda8e8bb94247d13307065c593fb83f1a09be2736793828334604051620024e392919062002ed6565b60405180910390a25050565b60006006600083815260200190815260200160002060008473ffffffffffffffffffffffffffffffffffffffff1673ffffffffffffffffffffffffffffffffffffffff16815260200190815260200160002060006101000a81548160ff0219169083151502179055508173ffffffffffffffffffffffffffffffffffffffff167fa0726c73cf6ad18ddb855ba65d1ddd4d7fd37d320f4e52f6b154c13d386f5fd982604051620025a0919062002eb9565b60405180910390a25050565b60006007600083815260200190815260200160002060008473ffffffffffffffffffffffffffffffffffffffff1673ffffffffffffffffffffffffffffffffffffffff16815260200190815260200160002060006101000a81548160ff0219169083151502179055508173ffffffffffffffffffffffffffffffffffffffff167fda111d7eb5d5b2033c4ffad00cd7cd42f45af2813bee1a69e65f26d90ea15f0b826040516200265d919062002eb9565b60405180910390a25050565b60016006600083815260200190815260200160002060008473ffffffffffffffffffffffffffffffffffffffff1673ffffffffffffffffffffffffffffffffffffffff16815260200190815260200160002060006101000a81548160ff0219169083151502179055508173ffffffffffffffffffffffffffffffffffffffff167f723c2b747529ca7f5eb53a74808f4a8b9bf264f0fc450fd904900151da74548a826040516200271a919062002eb9565b60405180910390a25050565b60016007600083815260200190815260200160002060008473ffffffffffffffffffffffffffffffffffffffff1673ffffffffffffffffffffffffffffffffffffffff16815260200190815260200160002060006101000a81548160ff0219169083151502179055508173ffffffffffffffffffffffffffffffffffffffff167f5fd6d0b7e707fe344bd2a1887f9d0eeea8bfcac6f339ba4200e74f0647f101c082604051620027d7919062002eb9565b60405180910390a25050565b828054620027f1906200311d565b90600052602060002090601f01602090048101928262002815576000855562002868565b82601f1062002828578054855562002868565b828001600101855582156200286857600052602060002091601f016020900482015b82811115620028675782548255916001019190600101906200284a565b5b50905062002877919062002998565b5090565b6117e6806200335d83390190565b82805462002897906200311d565b90600052602060002090601f016020900481019282620028bb576000855562002907565b82601f10620028d657805160ff191683800117855562002907565b8280016001018555821562002907579182015b8281111562002906578251825591602001919060010190620028e9565b5b50905062002916919062002998565b5090565b60405180610140016040528060008152602001600060038111156200294457620029436200321d565b5b815260200160008152602001600081526020016000815260200160008152602001606081526020016060815260200160608152602001600073ffffffffffffffffffffffffffffffffffffffff1681525090565b5b80821115620029b357600081600090555060010162002999565b5090565b600081359050620029c88162003328565b92915050565b600081359050620029df8162003342565b92915050565b600081519050620029f68162003342565b92915050565b60006020828403121562002a155762002a14620032ee565b5b600062002a2584828501620029b7565b91505092915050565b6000806040838503121562002a485762002a47620032ee565b5b600062002a5885828601620029b7565b925050602062002a6b85828601620029ce565b9150509250929050565b60006020828403121562002a8e5762002a8d620032ee565b5b600062002a9e84828501620029ce565b91505092915050565b60006020828403121562002ac05762002abf620032ee565b5b600062002ad084828501620029e5565b91505092915050565b600062002ae7838362002b1e565b60208301905092915050565b600062002b01838362002dbd565b60208301905092915050565b62002b188162003074565b82525050565b62002b298162003060565b82525050565b62002b3a8162003060565b82525050565b600062002b4d8262002f28565b62002b59818562002f63565b935062002b668362002f03565b8060005b8381101562002ba65762002b7e82620032d9565b62002b8a888262002ad9565b975062002b978362002f49565b92505060018101905062002b6a565b5085935050505092915050565b600062002bc08262002f33565b62002bcc818562002f74565b935062002bd98362002f18565b8060005b8381101562002c1057815162002bf4888262002af3565b975062002c018362002f56565b92505060018101905062002bdd565b5085935050505092915050565b62002c288162003088565b82525050565b62002c3981620030d3565b82525050565b600062002c4c8262002f3e565b62002c58818562002f85565b935062002c6a818560208601620030e7565b62002c7581620032f3565b840191505092915050565b600062002c8d8262002f3e565b62002c99818562002f96565b935062002cab818560208601620030e7565b62002cb681620032f3565b840191505092915050565b60006101408301600083015162002cdc600086018262002dbd565b50602083015162002cf1602086018262002c2e565b50604083015162002d06604086018262002dbd565b50606083015162002d1b606086018262002dbd565b50608083015162002d30608086018262002dbd565b5060a083015162002d4560a086018262002dbd565b5060c083015184820360c086015262002d5f828262002c3f565b91505060e083015184820360e086015262002d7b828262002c3f565b91505061010083015184820361010086015262002d99828262002c3f565b91505061012083015162002db261012086018262002b1e565b508091505092915050565b62002dc881620030c9565b82525050565b62002dd981620030c9565b82525050565b600060208201905062002df6600083018462002b2f565b92915050565b600060208201905062002e13600083018462002b0d565b92915050565b6000604082019050818103600083015262002e35818562002b40565b9050818103602083015262002e4b818462002bb3565b90509392505050565b600060208201905062002e6b600083018462002c1d565b92915050565b6000602082019050818103600083015262002e8d818462002c80565b905092915050565b6000602082019050818103600083015262002eb1818462002cc1565b905092915050565b600060208201905062002ed0600083018462002dce565b92915050565b600060408201905062002eed600083018562002dce565b62002efc602083018462002dce565b9392505050565b60008190508160005260206000209050919050565b6000819050602082019050919050565b600081549050919050565b600081519050919050565b600081519050919050565b6000600182019050919050565b6000602082019050919050565b600082825260208201905092915050565b600082825260208201905092915050565b600082825260208201905092915050565b600082825260208201905092915050565b600062002fb482620030c9565b915062002fc183620030c9565b92508262002fd45762002fd3620031ee565b5b828204905092915050565b600062002fec82620030c9565b915062002ff983620030c9565b9250817fffffffffffffffffffffffffffffffffffffffffffffffffffffffffffffffff0483118215151615620030355762003034620031bf565b5b828202905092915050565b600073ffffffffffffffffffffffffffffffffffffffff82169050919050565b60006200306d82620030a9565b9050919050565b60006200308182620030a9565b9050919050565b60008115159050919050565b6000819050620030a48262003311565b919050565b600073ffffffffffffffffffffffffffffffffffffffff82169050919050565b6000819050919050565b6000620030e08262003094565b9050919050565b60005b8381101562003107578082015181840152602081019050620030ea565b8381111562003117576000848401525b50505050565b600060028204905060018216806200313657607f821691505b602082108114156200314d576200314c6200324c565b5b50919050565b60006200316a620031648362003304565b62003040565b9050919050565b60006200317e82620030c9565b91507fffffffffffffffffffffffffffffffffffffffffffffffffffffffffffffffff821415620031b457620031b3620031bf565b5b600182019050919050565b7f4e487b7100000000000000000000000000000000000000000000000000000000600052601160045260246000fd5b7f4e487b7100000000000000000000000000000000000000000000000000000000600052601260045260246000fd5b7f4e487b7100000000000000000000000000000000000000000000000000000000600052602160045260246000fd5b7f4e487b7100000000000000000000000000000000000000000000000000000000600052602260045260246000fd5b7f4e487b7100000000000000000000000000000000000000000000000000000000600052603260045260246000fd5b7f4e487b7100000000000000000000000000000000000000000000000000000000600052604160045260246000fd5b6000620032e7825462003153565b9050919050565b600080fd5b6000601f19601f8301169050919050565b60008160001c9050919050565b600481106200332557620033246200321d565b5b50565b620033338162003060565b81146200333f57600080fd5b50565b6200334d81620030c9565b81146200335957600080fd5b5056fe6080604052604051620017e6380380620017e68339818101604052810190620000299190620004f3565b805182511462000070576040517f08c379a00000000000000000000000000000000000000000000000000000000081526004016200006790620006ac565b60405180910390fd5b6000825111620000b7576040517f08c379a0000000000000000000000000000000000000000000000000000000008152600401620000ae90620006f0565b60405180910390fd5b60005b8251811015620001265762000110838281518110620000de57620000dd6200091a565b5b6020026020010151838381518110620000fc57620000fb6200091a565b5b60200260200101516200012f60201b60201c565b80806200011d906200089d565b915050620000ba565b50505062000b10565b600073ffffffffffffffffffffffffffffffffffffffff168273ffffffffffffffffffffffffffffffffffffffff161415620001a2576040517f08c379a000000000000000000000000000000000000000000000000000000000815260040162000199906200068a565b60405180910390fd5b60008111620001e8576040517f08c379a0000000000000000000000000000000000000000000000000000000008152600401620001df9062000712565b60405180910390fd5b6000600260008473ffffffffffffffffffffffffffffffffffffffff1673ffffffffffffffffffffffffffffffffffffffff16815260200190815260200160002054146200026d576040517f08c379a00000000000000000000000000000000000000000000000000000000081526004016200026490620006ce565b60405180910390fd5b6004829080600181540180825580915050600190039060005260206000200160009091909190916101000a81548173ffffffffffffffffffffffffffffffffffffffff021916908373ffffffffffffffffffffffffffffffffffffffff16021790555080600260008473ffffffffffffffffffffffffffffffffffffffff1673ffffffffffffffffffffffffffffffffffffffff1681526020019081526020016000208190555080600054620003249190620007cc565b6000819055507f40c340f65e17194d14ddddb073d3c9f888e3cb52b5aae0c6c7706b4fbc905fac82826040516200035d9291906200065d565b60405180910390a15050565b6000620003806200037a846200075d565b62000734565b90508083825260208201905082856020860282011115620003a657620003a56200097d565b5b60005b85811015620003da5781620003bf88826200045f565b845260208401935060208301925050600181019050620003a9565b5050509392505050565b6000620003fb620003f5846200078c565b62000734565b905080838252602082019050828560208602820111156200042157620004206200097d565b5b60005b858110156200045557816200043a8882620004dc565b84526020840193506020830192505060018101905062000424565b5050509392505050565b600081519050620004708162000adc565b92915050565b600082601f8301126200048e576200048d62000978565b5b8151620004a084826020860162000369565b91505092915050565b600082601f830112620004c157620004c062000978565b5b8151620004d3848260208601620003e4565b91505092915050565b600081519050620004ed8162000af6565b92915050565b600080604083850312156200050d576200050c62000987565b5b600083015167ffffffffffffffff8111156200052e576200052d62000982565b5b6200053c8582860162000476565b925050602083015167ffffffffffffffff81111562000560576200055f62000982565b5b6200056e85828601620004a9565b9150509250929050565b620005838162000829565b82525050565b600062000598602c83620007bb565b9150620005a5826200099d565b604082019050919050565b6000620005bf603283620007bb565b9150620005cc82620009ec565b604082019050919050565b6000620005e6602b83620007bb565b9150620005f38262000a3b565b604082019050919050565b60006200060d601a83620007bb565b91506200061a8262000a8a565b602082019050919050565b600062000634601d83620007bb565b9150620006418262000ab3565b602082019050919050565b62000657816200085d565b82525050565b600060408201905062000674600083018562000578565b6200068360208301846200064c565b9392505050565b60006020820190508181036000830152620006a58162000589565b9050919050565b60006020820190508181036000830152620006c781620005b0565b9050919050565b60006020820190508181036000830152620006e981620005d7565b9050919050565b600060208201905081810360008301526200070b81620005fe565b9050919050565b600060208201905081810360008301526200072d8162000625565b9050919050565b60006200074062000753565b90506200074e828262000867565b919050565b6000604051905090565b600067ffffffffffffffff8211156200077b576200077a62000949565b5b602082029050602081019050919050565b600067ffffffffffffffff821115620007aa57620007a962000949565b5b602082029050602081019050919050565b600082825260208201905092915050565b6000620007d9826200085d565b9150620007e6836200085d565b9250827fffffffffffffffffffffffffffffffffffffffffffffffffffffffffffffffff038211156200081e576200081d620008eb565b5b828201905092915050565b600062000836826200083d565b9050919050565b600073ffffffffffffffffffffffffffffffffffffffff82169050919050565b6000819050919050565b62000872826200098c565b810181811067ffffffffffffffff8211171562000894576200089362000949565b5b80604052505050565b6000620008aa826200085d565b91507fffffffffffffffffffffffffffffffffffffffffffffffffffffffffffffffff821415620008e057620008df620008eb565b5b600182019050919050565b7f4e487b7100000000000000000000000000000000000000000000000000000000600052601160045260246000fd5b7f4e487b7100000000000000000000000000000000000000000000000000000000600052603260045260246000fd5b7f4e487b7100000000000000000000000000000000000000000000000000000000600052604160045260246000fd5b600080fd5b600080fd5b600080fd5b600080fd5b6000601f19601f8301169050919050565b7f5061796d656e7453706c69747465723a206163636f756e74206973207468652060008201527f7a65726f20616464726573730000000000000000000000000000000000000000602082015250565b7f5061796d656e7453706c69747465723a2070617965657320616e64207368617260008201527f6573206c656e677468206d69736d617463680000000000000000000000000000602082015250565b7f5061796d656e7453706c69747465723a206163636f756e7420616c726561647960008201527f2068617320736861726573000000000000000000000000000000000000000000602082015250565b7f5061796d656e7453706c69747465723a206e6f20706179656573000000000000600082015250565b7f5061796d656e7453706c69747465723a20736861726573206172652030000000600082015250565b62000ae78162000829565b811462000af357600080fd5b50565b62000b01816200085d565b811462000b0d57600080fd5b50565b610cc68062000b206000396000f3fe6080604052600436106100595760003560e01c806319165587146100a55780633a98ef39146100ce5780638b83209b146100f95780639852595c14610136578063ce7c2ac214610173578063e33b7de3146101b0576100a0565b366100a0577f6ef95f06320e7a25a04a175ca677b7052bdd97131872c2192525a629f51be7706100876101db565b34604051610096929190610827565b60405180910390a1005b600080fd5b3480156100b157600080fd5b506100cc60048036038101906100c79190610698565b6101e3565b005b3480156100da57600080fd5b506100e361044b565b6040516100f091906108d0565b60405180910390f35b34801561010557600080fd5b50610120600480360381019061011b91906106c5565b610454565b60405161012d91906107e3565b60405180910390f35b34801561014257600080fd5b5061015d6004803603810190610158919061066b565b61049c565b60405161016a91906108d0565b60405180910390f35b34801561017f57600080fd5b5061019a6004803603810190610195919061066b565b6104e5565b6040516101a791906108d0565b60405180910390f35b3480156101bc57600080fd5b506101c561052e565b6040516101d291906108d0565b60405180910390f35b600033905090565b6000600260008373ffffffffffffffffffffffffffffffffffffffff1673ffffffffffffffffffffffffffffffffffffffff1681526020019081526020016000205411610265576040517f08c379a000000000000000000000000000000000000000000000000000000000815260040161025c90610850565b60405180910390fd5b6000600154476102759190610907565b90506000600360008473ffffffffffffffffffffffffffffffffffffffff1673ffffffffffffffffffffffffffffffffffffffff16815260200190815260200160002054600054600260008673ffffffffffffffffffffffffffffffffffffffff1673ffffffffffffffffffffffffffffffffffffffff1681526020019081526020016000205484610307919061098e565b610311919061095d565b61031b91906109e8565b90506000811415610361576040517f08c379a0000000000000000000000000000000000000000000000000000000008152600401610358906108b0565b60405180910390fd5b80600360008573ffffffffffffffffffffffffffffffffffffffff1673ffffffffffffffffffffffffffffffffffffffff168152602001908152602001600020546103ac9190610907565b600360008573ffffffffffffffffffffffffffffffffffffffff1673ffffffffffffffffffffffffffffffffffffffff16815260200190815260200160002081905550806001546103fd9190610907565b60018190555061040d8382610538565b7fdf20fd1e76bc69d672e4814fafb2c449bba3a5369d8359adf9e05e6fde87b056838260405161043e9291906107fe565b60405180910390a1505050565b60008054905090565b60006004828154811061046a57610469610afe565b5b9060005260206000200160009054906101000a900473ffffffffffffffffffffffffffffffffffffffff169050919050565b6000600360008373ffffffffffffffffffffffffffffffffffffffff1673ffffffffffffffffffffffffffffffffffffffff168152602001908152602001600020549050919050565b6000600260008373ffffffffffffffffffffffffffffffffffffffff1673ffffffffffffffffffffffffffffffffffffffff168152602001908152602001600020549050919050565b6000600154905090565b8047101561057b576040517f08c379a000000000000000000000000000000000000000000000000000000000815260040161057290610890565b60405180910390fd5b60008273ffffffffffffffffffffffffffffffffffffffff16826040516105a1906107ce565b60006040518083038185875af1925050503d80600081146105de576040519150601f19603f3d011682016040523d82523d6000602084013e6105e3565b606091505b5050905080610627576040517f08c379a000000000000000000000000000000000000000000000000000000000815260040161061e90610870565b60405180910390fd5b505050565b60008135905061063b81610c4b565b92915050565b60008135905061065081610c62565b92915050565b60008135905061066581610c79565b92915050565b60006020828403121561068157610680610b2d565b5b600061068f8482850161062c565b91505092915050565b6000602082840312156106ae576106ad610b2d565b5b60006106bc84828501610641565b91505092915050565b6000602082840312156106db576106da610b2d565b5b60006106e984828501610656565b91505092915050565b6106fb81610a6a565b82525050565b61070a81610a1c565b82525050565b600061071d6026836108f6565b915061072882610b32565b604082019050919050565b6000610740603a836108f6565b915061074b82610b81565b604082019050919050565b6000610763601d836108f6565b915061076e82610bd0565b602082019050919050565b6000610786602b836108f6565b915061079182610bf9565b604082019050919050565b60006107a96000836108eb565b91506107b482610c48565b600082019050919050565b6107c881610a60565b82525050565b60006107d98261079c565b9150819050919050565b60006020820190506107f86000830184610701565b92915050565b600060408201905061081360008301856106f2565b61082060208301846107bf565b9392505050565b600060408201905061083c6000830185610701565b61084960208301846107bf565b9392505050565b6000602082019050818103600083015261086981610710565b9050919050565b6000602082019050818103600083015261088981610733565b9050919050565b600060208201905081810360008301526108a981610756565b9050919050565b600060208201905081810360008301526108c981610779565b9050919050565b60006020820190506108e560008301846107bf565b92915050565b600081905092915050565b600082825260208201905092915050565b600061091282610a60565b915061091d83610a60565b9250827fffffffffffffffffffffffffffffffffffffffffffffffffffffffffffffffff0382111561095257610951610aa0565b5b828201905092915050565b600061096882610a60565b915061097383610a60565b92508261098357610982610acf565b5b828204905092915050565b600061099982610a60565b91506109a483610a60565b9250817fffffffffffffffffffffffffffffffffffffffffffffffffffffffffffffffff04831182151516156109dd576109dc610aa0565b5b828202905092915050565b60006109f382610a60565b91506109fe83610a60565b925082821015610a1157610a10610aa0565b5b828203905092915050565b6000610a2782610a40565b9050919050565b6000610a3982610a40565b9050919050565b600073ffffffffffffffffffffffffffffffffffffffff82169050919050565b6000819050919050565b6000610a7582610a7c565b9050919050565b6000610a8782610a8e565b9050919050565b6000610a9982610a40565b9050919050565b7f4e487b7100000000000000000000000000000000000000000000000000000000600052601160045260246000fd5b7f4e487b7100000000000000000000000000000000000000000000000000000000600052601260045260246000fd5b7f4e487b7100000000000000000000000000000000000000000000000000000000600052603260045260246000fd5b600080fd5b7f5061796d656e7453706c69747465723a206163636f756e7420686173206e6f2060008201527f7368617265730000000000000000000000000000000000000000000000000000602082015250565b7f416464726573733a20756e61626c6520746f2073656e642076616c75652c207260008201527f6563697069656e74206d61792068617665207265766572746564000000000000602082015250565b7f416464726573733a20696e73756666696369656e742062616c616e6365000000600082015250565b7f5061796d656e7453706c69747465723a206163636f756e74206973206e6f742060008201527f647565207061796d656e74000000000000000000000000000000000000000000602082015250565b50565b610c5481610a1c565b8114610c5f57600080fd5b50565b610c6b81610a2e565b8114610c7657600080fd5b50565b610c8281610a60565b8114610c8d57600080fd5b5056fea26469706673582212201a1926926729a651a90b3eab60e8020c21831fe7b8ae85e46838951eafc5870464736f6c63430008060033a264697066735822122010002fa1a94dadf86fb6404603261a4ccd22bb81353ef2183e11150e23174d4864736f6c63430008060033",
  "immutableReferences": {},
  "source": "// SPDX-License-Identifier: MIT\npragma solidity ^0.8.0;\n\nimport \"../roles/AdminsManager.sol\";\n\ncontract EthDropCore is AdminsManager {\n    // Set in case the core contract is broken and an upgrade is required\n    address public newContractAddress;\n\n    /// @notice Creates the main EthDrop smart contract instance.\n    constructor () {\n        // Starts paused.\n        paused = true;\n\n        // the creator of the contract is the initial CEO\n        ceoAddress = msg.sender;\n\n        // the creator of the contract is also the initial COO\n        cooAddress = msg.sender;\n\n    }\n\n    /// @dev Used to mark the smart contract as upgraded, in case there is a serious\n    ///  breaking bug. This method does nothing but keep track of the new contract and\n    ///  emit a message indicating that the new address is set. It's up to clients of this\n    ///  contract to update to the new contract address in that case. (This contract will\n    ///  be paused indefinitely if such an upgrade takes place.)\n    /// @param _v2Address new address\n    function setNewAddress(address _v2Address) external onlyCEO whenPaused {\n        // See README.md for updgrade plan\n        newContractAddress = _v2Address;\n        emit ContractUpgrade(_v2Address);\n    }\n\n    function foobar() external pure returns (string memory) {\n        return \"foobarrrrrrr!\";\n    }\n}",
  "sourcePath": "/Users/jim/Git-Projects/EthDrop/contracts/core/EthDropCore.sol",
  "compiler": {
    "name": "solc",
    "version": "0.8.6+commit.11564f7e.Emscripten.clang"
  },
  "schemaVersion": "3.4.1",
  "updatedAt": "2021-07-21T01:24:54.129Z",
  "networkType": "ethereum",
  "devdoc": {
    "kind": "dev",
    "methods": {
      "pause()": {
        "details": "Called by any \"C-level\" role to pause the contract. Used only when  a bug or exploit is detected and we need to limit damage."
      },
      "setCEO(address)": {
        "details": "Assigns a new address to act as the CEO. Only available to the current CEO.",
        "params": {
          "_newCEO": "The address of the new CEO"
        }
      },
      "setCFO(address)": {
        "details": "Assigns a new address to act as the CFO. Only available to the current CEO.",
        "params": {
          "_newCFO": "The address of the new CFO"
        }
      },
      "setCOO(address)": {
        "details": "Assigns a new address to act as the COO. Only available to the current CEO.",
        "params": {
          "_newCOO": "The address of the new COO"
        }
      },
      "setNewAddress(address)": {
        "details": "Used to mark the smart contract as upgraded, in case there is a serious  breaking bug. This method does nothing but keep track of the new contract and  emit a message indicating that the new address is set. It's up to clients of this  contract to update to the new contract address in that case. (This contract will  be paused indefinitely if such an upgrade takes place.)",
        "params": {
          "_v2Address": "new address"
        }
      },
      "unpause()": {
        "details": "Unpauses the smart contract. Can only be called by the CEO, since  one reason we may pause the contract is when CFO or COO accounts are  compromised."
      }
    },
    "version": 1
  },
  "userdoc": {
    "kind": "user",
    "methods": {
      "constructor": {
        "notice": "Creates the main EthDrop smart contract instance."
      },
      "unpause()": {
        "notice": "This is public rather than external so it can be called by  derived contracts."
      }
    },
    "version": 1
  }
}