{
  "contractName": "EthDropBase",
  "abi": [
    {
      "anonymous": false,
      "inputs": [
        {
          "indexed": false,
          "internalType": "address",
          "name": "newContract",
          "type": "address"
        }
      ],
      "name": "ContractUpgrade",
      "type": "event"
    },
    {
      "anonymous": false,
      "inputs": [],
      "name": "EventClose",
      "type": "event"
    },
    {
      "anonymous": false,
      "inputs": [],
      "name": "RegistrationOpen",
      "type": "event"
    },
    {
      "anonymous": false,
      "inputs": [
        {
          "indexed": false,
          "internalType": "address",
          "name": "from",
          "type": "address"
        },
        {
          "indexed": false,
          "internalType": "address",
          "name": "to",
          "type": "address"
        }
      ],
      "name": "Transfer",
      "type": "event"
    },
    {
      "anonymous": false,
      "inputs": [],
      "name": "WinningsClaimingOpen",
      "type": "event"
    },
    {
      "inputs": [],
      "name": "ceoAddress",
      "outputs": [
        {
          "internalType": "address",
          "name": "",
          "type": "address"
        }
      ],
      "stateMutability": "view",
      "type": "function",
      "constant": true
    },
    {
      "inputs": [],
      "name": "cfoAddress",
      "outputs": [
        {
          "internalType": "address",
          "name": "",
          "type": "address"
        }
      ],
      "stateMutability": "view",
      "type": "function",
      "constant": true
    },
    {
      "inputs": [],
      "name": "cooAddress",
      "outputs": [
        {
          "internalType": "address",
          "name": "",
          "type": "address"
        }
      ],
      "stateMutability": "view",
      "type": "function",
      "constant": true
    },
    {
      "inputs": [],
      "name": "getCFO",
      "outputs": [
        {
          "internalType": "address",
          "name": "",
          "type": "address"
        }
      ],
      "stateMutability": "view",
      "type": "function",
      "constant": true
    },
    {
      "inputs": [],
      "name": "getCOO",
      "outputs": [
        {
          "internalType": "address",
          "name": "",
          "type": "address"
        }
      ],
      "stateMutability": "view",
      "type": "function",
      "constant": true
    },
    {
      "inputs": [],
      "name": "getString",
      "outputs": [
        {
          "internalType": "string",
          "name": "",
          "type": "string"
        }
      ],
      "stateMutability": "view",
      "type": "function",
      "constant": true
    },
    {
      "inputs": [],
      "name": "isCEO",
      "outputs": [
        {
          "internalType": "bool",
          "name": "",
          "type": "bool"
        }
      ],
      "stateMutability": "view",
      "type": "function",
      "constant": true
    },
    {
      "inputs": [],
      "name": "isCFO",
      "outputs": [
        {
          "internalType": "bool",
          "name": "",
          "type": "bool"
        }
      ],
      "stateMutability": "view",
      "type": "function",
      "constant": true
    },
    {
      "inputs": [],
      "name": "isCOO",
      "outputs": [
        {
          "internalType": "bool",
          "name": "",
          "type": "bool"
        }
      ],
      "stateMutability": "view",
      "type": "function",
      "constant": true
    },
    {
      "inputs": [],
      "name": "pause",
      "outputs": [],
      "stateMutability": "nonpayable",
      "type": "function"
    },
    {
      "inputs": [],
      "name": "paused",
      "outputs": [
        {
          "internalType": "bool",
          "name": "",
          "type": "bool"
        }
      ],
      "stateMutability": "view",
      "type": "function",
      "constant": true
    },
    {
      "inputs": [
        {
          "internalType": "address",
          "name": "_newCEO",
          "type": "address"
        }
      ],
      "name": "setCEO",
      "outputs": [],
      "stateMutability": "nonpayable",
      "type": "function"
    },
    {
      "inputs": [
        {
          "internalType": "address",
          "name": "_newCFO",
          "type": "address"
        }
      ],
      "name": "setCFO",
      "outputs": [],
      "stateMutability": "nonpayable",
      "type": "function"
    },
    {
      "inputs": [
        {
          "internalType": "address",
          "name": "_newCOO",
          "type": "address"
        }
      ],
      "name": "setCOO",
      "outputs": [],
      "stateMutability": "nonpayable",
      "type": "function"
    },
    {
      "inputs": [
        {
          "internalType": "string",
          "name": "_s",
          "type": "string"
        }
      ],
      "name": "setString",
      "outputs": [],
      "stateMutability": "nonpayable",
      "type": "function"
    },
    {
      "inputs": [],
      "name": "stringgg",
      "outputs": [
        {
          "internalType": "string",
          "name": "",
          "type": "string"
        }
      ],
      "stateMutability": "view",
      "type": "function",
      "constant": true
    },
    {
      "inputs": [],
      "name": "unpause",
      "outputs": [],
      "stateMutability": "nonpayable",
      "type": "function"
    },
    {
      "inputs": [],
      "name": "whoami",
      "outputs": [
        {
          "internalType": "address",
          "name": "",
          "type": "address"
        }
      ],
      "stateMutability": "view",
      "type": "function",
      "constant": true
    },
    {
      "inputs": [],
      "name": "getGroupIds",
      "outputs": [
        {
          "internalType": "uint256[]",
          "name": "",
          "type": "uint256[]"
        }
      ],
      "stateMutability": "view",
      "type": "function",
      "constant": true
    },
    {
      "inputs": [],
      "name": "getGroupNames",
      "outputs": [
        {
          "internalType": "string[]",
          "name": "",
          "type": "string[]"
        }
      ],
      "stateMutability": "view",
      "type": "function",
      "constant": true
    }
  ],
  "bytecode": "0x60806040526000600360146101000a81548160ff021916908315150217905550600560045534801561003057600080fd5b50611256806100406000396000f3fe608060405234801561001057600080fd5b506004361061012c5760003560e01c806389ea642f116100ad578063c6db509411610071578063c6db5094146102c3578063d5f016c3146102e1578063e513b7a9146102ff578063f4a02e701461031d578063fc5fd6e41461033b5761012c565b806389ea642f1461022d5780639393ae371461024b578063b047fb5014610269578063b3b36bb314610287578063c02b8b2c146102a55761012c565b80634e0a3379116100f45780634e0a3379146101af5780635c975abb146101cb5780637b936ac2146101e95780637fcaf666146102075780638456cb59146102235761012c565b80630519ce79146101315780630a0f81681461014f57806327d7874c1461016d5780632ba73c15146101895780633f4ba83a146101a5575b600080fd5b610139610359565b6040516101469190610f08565b60405180910390f35b61015761037f565b6040516101649190610f08565b60405180910390f35b61018760048036038101906101829190610cf4565b6103a5565b005b6101a3600480360381019061019e9190610cf4565b61047d565b005b6101ad610555565b005b6101c960048036038101906101c49190610cf4565b6105e5565b005b6101d3610683565b6040516101e09190610f67565b60405180910390f35b6101f1610696565b6040516101fe9190610f08565b60405180910390f35b610221600480360381019061021c9190610d21565b6106c0565b005b61022b6106da565b005b61023561081b565b6040516102429190610f82565b60405180910390f35b6102536108ad565b6040516102609190610f67565b60405180910390f35b610271610905565b60405161027e9190610f08565b60405180910390f35b61028f61092b565b60405161029c9190610f08565b60405180910390f35b6102ad610933565b6040516102ba9190610f45565b60405180910390f35b6102cb61098b565b6040516102d89190610f82565b60405180910390f35b6102e9610a19565b6040516102f69190610f23565b60405180910390f35b610307610af2565b6040516103149190610f67565b60405180910390f35b610325610b4a565b6040516103329190610f67565b60405180910390f35b610343610ba2565b6040516103509190610f08565b60405180910390f35b600260009054906101000a900473ffffffffffffffffffffffffffffffffffffffff1681565b600160009054906101000a900473ffffffffffffffffffffffffffffffffffffffff1681565b600160009054906101000a900473ffffffffffffffffffffffffffffffffffffffff1673ffffffffffffffffffffffffffffffffffffffff163373ffffffffffffffffffffffffffffffffffffffff16146103ff57600080fd5b600073ffffffffffffffffffffffffffffffffffffffff168173ffffffffffffffffffffffffffffffffffffffff16141561043957600080fd5b80600160006101000a81548173ffffffffffffffffffffffffffffffffffffffff021916908373ffffffffffffffffffffffffffffffffffffffff16021790555050565b600160009054906101000a900473ffffffffffffffffffffffffffffffffffffffff1673ffffffffffffffffffffffffffffffffffffffff163373ffffffffffffffffffffffffffffffffffffffff16146104d757600080fd5b600073ffffffffffffffffffffffffffffffffffffffff168173ffffffffffffffffffffffffffffffffffffffff16141561051157600080fd5b80600360006101000a81548173ffffffffffffffffffffffffffffffffffffffff021916908373ffffffffffffffffffffffffffffffffffffffff16021790555050565b600160009054906101000a900473ffffffffffffffffffffffffffffffffffffffff1673ffffffffffffffffffffffffffffffffffffffff163373ffffffffffffffffffffffffffffffffffffffff16146105af57600080fd5b600360149054906101000a900460ff166105c857600080fd5b6000600360146101000a81548160ff021916908315150217905550565b600160009054906101000a900473ffffffffffffffffffffffffffffffffffffffff1673ffffffffffffffffffffffffffffffffffffffff163373ffffffffffffffffffffffffffffffffffffffff161461063f57600080fd5b80600260006101000a81548173ffffffffffffffffffffffffffffffffffffffff021916908373ffffffffffffffffffffffffffffffffffffffff16021790555050565b600360149054906101000a900460ff1681565b6000600260009054906101000a900473ffffffffffffffffffffffffffffffffffffffff16905090565b80600090805190602001906106d6929190610bcc565b5050565b600360009054906101000a900473ffffffffffffffffffffffffffffffffffffffff1673ffffffffffffffffffffffffffffffffffffffff163373ffffffffffffffffffffffffffffffffffffffff1614806107835750600160009054906101000a900473ffffffffffffffffffffffffffffffffffffffff1673ffffffffffffffffffffffffffffffffffffffff163373ffffffffffffffffffffffffffffffffffffffff16145b806107db5750600260009054906101000a900473ffffffffffffffffffffffffffffffffffffffff1673ffffffffffffffffffffffffffffffffffffffff163373ffffffffffffffffffffffffffffffffffffffff16145b6107e457600080fd5b600360149054906101000a900460ff16156107fe57600080fd5b6001600360146101000a81548160ff021916908315150217905550565b60606000805461082a90611123565b80601f016020809104026020016040519081016040528092919081815260200182805461085690611123565b80156108a35780601f10610878576101008083540402835291602001916108a3565b820191906000526020600020905b81548152906001019060200180831161088657829003601f168201915b5050505050905090565b6000600260009054906101000a900473ffffffffffffffffffffffffffffffffffffffff1673ffffffffffffffffffffffffffffffffffffffff163373ffffffffffffffffffffffffffffffffffffffff1614905090565b600360009054906101000a900473ffffffffffffffffffffffffffffffffffffffff1681565b600033905090565b6060600580548060200260200160405190810160405280929190818152602001828054801561098157602002820191906000526020600020905b81548152602001906001019080831161096d575b5050505050905090565b6000805461099890611123565b80601f01602080910402602001604051908101604052809291908181526020018280546109c490611123565b8015610a115780601f106109e657610100808354040283529160200191610a11565b820191906000526020600020905b8154815290600101906020018083116109f457829003601f168201915b505050505081565b60606006805480602002602001604051908101604052809291908181526020016000905b82821015610ae9578382906000526020600020018054610a5c90611123565b80601f0160208091040260200160405190810160405280929190818152602001828054610a8890611123565b8015610ad55780601f10610aaa57610100808354040283529160200191610ad5565b820191906000526020600020905b815481529060010190602001808311610ab857829003601f168201915b505050505081526020019060010190610a3d565b50505050905090565b6000600160009054906101000a900473ffffffffffffffffffffffffffffffffffffffff1673ffffffffffffffffffffffffffffffffffffffff163373ffffffffffffffffffffffffffffffffffffffff1614905090565b6000600360009054906101000a900473ffffffffffffffffffffffffffffffffffffffff1673ffffffffffffffffffffffffffffffffffffffff163373ffffffffffffffffffffffffffffffffffffffff1614905090565b6000600360009054906101000a900473ffffffffffffffffffffffffffffffffffffffff16905090565b828054610bd890611123565b90600052602060002090601f016020900481019282610bfa5760008555610c41565b82601f10610c1357805160ff1916838001178555610c41565b82800160010185558215610c41579182015b82811115610c40578251825591602001919060010190610c25565b5b509050610c4e9190610c52565b5090565b5b80821115610c6b576000816000905550600101610c53565b5090565b6000610c82610c7d84610fc9565b610fa4565b905082815260208101848484011115610c9e57610c9d6111e9565b5b610ca98482856110e1565b509392505050565b600081359050610cc081611209565b92915050565b600082601f830112610cdb57610cda6111e4565b5b8135610ceb848260208601610c6f565b91505092915050565b600060208284031215610d0a57610d096111f3565b5b6000610d1884828501610cb1565b91505092915050565b600060208284031215610d3757610d366111f3565b5b600082013567ffffffffffffffff811115610d5557610d546111ee565b5b610d6184828501610cc6565b91505092915050565b6000610d768383610e87565b905092915050565b6000610d8a8383610ef9565b60208301905092915050565b610d9f81611099565b82525050565b6000610db08261101a565b610dba8185611055565b935083602082028501610dcc85610ffa565b8060005b85811015610e085784840389528151610de98582610d6a565b9450610df48361103b565b925060208a01995050600181019050610dd0565b50829750879550505050505092915050565b6000610e2582611025565b610e2f8185611066565b9350610e3a8361100a565b8060005b83811015610e6b578151610e528882610d7e565b9750610e5d83611048565b925050600181019050610e3e565b5085935050505092915050565b610e81816110ab565b82525050565b6000610e9282611030565b610e9c8185611077565b9350610eac8185602086016110f0565b610eb5816111f8565b840191505092915050565b6000610ecb82611030565b610ed58185611088565b9350610ee58185602086016110f0565b610eee816111f8565b840191505092915050565b610f02816110d7565b82525050565b6000602082019050610f1d6000830184610d96565b92915050565b60006020820190508181036000830152610f3d8184610da5565b905092915050565b60006020820190508181036000830152610f5f8184610e1a565b905092915050565b6000602082019050610f7c6000830184610e78565b92915050565b60006020820190508181036000830152610f9c8184610ec0565b905092915050565b6000610fae610fbf565b9050610fba8282611155565b919050565b6000604051905090565b600067ffffffffffffffff821115610fe457610fe36111b5565b5b610fed826111f8565b9050602081019050919050565b6000819050602082019050919050565b6000819050602082019050919050565b600081519050919050565b600081519050919050565b600081519050919050565b6000602082019050919050565b6000602082019050919050565b600082825260208201905092915050565b600082825260208201905092915050565b600082825260208201905092915050565b600082825260208201905092915050565b60006110a4826110b7565b9050919050565b60008115159050919050565b600073ffffffffffffffffffffffffffffffffffffffff82169050919050565b6000819050919050565b82818337600083830152505050565b60005b8381101561110e5780820151818401526020810190506110f3565b8381111561111d576000848401525b50505050565b6000600282049050600182168061113b57607f821691505b6020821081141561114f5761114e611186565b5b50919050565b61115e826111f8565b810181811067ffffffffffffffff8211171561117d5761117c6111b5565b5b80604052505050565b7f4e487b7100000000000000000000000000000000000000000000000000000000600052602260045260246000fd5b7f4e487b7100000000000000000000000000000000000000000000000000000000600052604160045260246000fd5b600080fd5b600080fd5b600080fd5b600080fd5b6000601f19601f8301169050919050565b61121281611099565b811461121d57600080fd5b5056fea26469706673582212202901e3194f74fdede98825545312e3e923764c7410d24904c28fa8538c5dfc2c64736f6c63430008060033",
  "immutableReferences": {},
  "source": "// SPDX-License-Identifier: MIT\npragma solidity ^0.8.0;\n\nimport \"../roles/ExecutivesAccessControl.sol\";\nimport \"@openzeppelin/contracts/finance/PaymentSplitter.sol\";\n\ncontract EthDropBase is ExecutivesAccessControl {\n    /*** EVENTS ***/\n\n    /// @dev The RegistrationOpen event is fired whenever a new event starts and users can begin restering.\n    event RegistrationOpen();\n\n    /// @dev The RegistrationOpen event is fired whenever a new event starts and users can begin restering.\n    //    After this event fires users can no longer register, and users who have registered can claim winnings.\n    event WinningsClaimingOpen();\n\n    /// @dev The EventClose event is fired whenever an event closes. After this event is fired users can no\n    //    longer claim winnings\n    event EventClose();\n\n    /// @dev Transfer event as defined in current draft of ERC721. Emitted every some Eth is transferred\n\n    event Transfer(address from, address to); // Assumed Eth\n\n    // TODO - (in later, more than just eth contracts as pass tokenId)\n    // event Transfer(address from, address to, uint tokenId);\n\n    /*** DATA TYPES ***/\n\n    /// @dev The main Kitty struct. Every cat in CryptoKitties is represented by a copy\n    ///  of this structure, so great care was taken to ensure that it fits neatly into\n    ///  exactly two 256-bit words. Note that the order of the members in this structure\n    ///  is important because of the byte-packing rules used by Ethereum.\n    ///  Ref: http://solidity.readthedocs.io/en/develop/miscellaneous.html\n\n    // TODO - ^ think harder about all that byte-packing junk... \n\n    enum EventState {\n        CREATED,\n        REGISTRATION,\n        CLAIM_WINNINGS,\n        ENDED\n    }\n\n    uint devCutPercentage = 5;\n\n    struct EthDropEvent {\n        // The IRL organization that controls their own airdrops.\n        // Each group can only be running 1 event at a time.\n        uint groupId;\n        // Event goes through a linear flow of states, finite state machine.\n        string groupName;\n        // Event goes through a linear flow of states, finite state machine.\n        EventState currentState;\n        // The timestamp from the block when this event started.\n        uint startTime;\n        // The timestamp from the block when registration for this event ended.\n        uint registrationEndTime;\n        // The timestamp from the block when this event ended.\n        uint endTime;\n        // The number of eligibleRecipients who have registered.\n        uint registeredRecipientsCount;\n        // Data about the sponsor info (address is stored in Roles)\n        string sponsorName;\n        string sponsorImageUrl;\n        string sponsorLinkToUrl;\n        address currentContributor;\n    }\n\n    // ALL events happening now or in the future.\n    // Key is the groupId\n    uint[] listOfGroupIds;\n    string[] listOfGroupNames;\n\n    // ALL events happening now or in the future.\n    // Key is the groupId\n    mapping(uint => EthDropEvent) currentEvents;\n\n    // ALL events that have already happened.\n    // Key is the groupId\n    mapping(uint => EthDropEvent[]) pastEvents;\n\n    // Holds ALL admins for all groups\n    // groupId => Role\n    mapping(uint => mapping(address => bool)) admins;\n\n    // Holds ALL contributors for all groups\n    // groupId => Role\n    mapping(uint => mapping(address => bool)) contributors;\n\n    // Holds ALL eligibleRecipients for all groups\n    // groupId => Role\n    mapping(uint => mapping(address => bool)) eligibleRecipients;\n\n    // Holds ALL registeredRecipients for all groups\n    // groupId => Role\n    mapping(uint => mapping(address => bool)) registeredRecipients;\n\n    // Holds ALL registeredRecipients in an array (for PaymentSplitter)\n    // groupId => address[]\n    mapping(uint => address[]) registeredRecipientsArray;\n\n    // Keeping track of winnings for all groups\n    mapping(uint => PaymentSplitter) pot;\n\n    function getGroupIds() external view returns (uint[] memory) {\n        return listOfGroupIds;\n    }\n    \n    function getGroupNames() external view returns (string[] memory) {\n        return listOfGroupNames;\n    }\n\n}",
  "sourcePath": "/Users/jim/Git-Projects/EthDrop/contracts/core/EthDropBase.sol",
  "compiler": {
    "name": "solc",
    "version": "0.8.6+commit.11564f7e.Emscripten.clang"
  },
  "schemaVersion": "3.4.1",
  "updatedAt": "2021-07-22T14:38:59.623Z",
  "networkType": "ethereum",
  "devdoc": {
    "events": {
      "EventClose()": {
        "details": "The EventClose event is fired whenever an event closes. After this event is fired users can no"
      },
      "RegistrationOpen()": {
        "details": "The RegistrationOpen event is fired whenever a new event starts and users can begin restering."
      },
      "Transfer(address,address)": {
        "details": "Transfer event as defined in current draft of ERC721. Emitted every some Eth is transferred"
      },
      "WinningsClaimingOpen()": {
        "details": "The RegistrationOpen event is fired whenever a new event starts and users can begin restering."
      }
    },
    "kind": "dev",
    "methods": {
      "pause()": {
        "details": "Called by any \"C-level\" role to pause the contract. Used only when  a bug or exploit is detected and we need to limit damage."
      },
      "setCEO(address)": {
        "details": "Assigns a new address to act as the CEO. Only available to the current CEO.",
        "params": {
          "_newCEO": "The address of the new CEO"
        }
      },
      "setCFO(address)": {
        "details": "Assigns a new address to act as the CFO. Only available to the current CEO.",
        "params": {
          "_newCFO": "The address of the new CFO"
        }
      },
      "setCOO(address)": {
        "details": "Assigns a new address to act as the COO. Only available to the current CEO.",
        "params": {
          "_newCOO": "The address of the new COO"
        }
      },
      "unpause()": {
        "details": "Unpauses the smart contract. Can only be called by the CEO, since  one reason we may pause the contract is when CFO or COO accounts are  compromised."
      }
    },
    "version": 1
  },
  "userdoc": {
    "kind": "user",
    "methods": {
      "unpause()": {
        "notice": "This is public rather than external so it can be called by  derived contracts."
      }
    },
    "version": 1
  }
}