{
  "contractName": "EthDropCore",
  "abi": [
    {
      "inputs": [],
      "stateMutability": "nonpayable",
      "type": "constructor"
    },
    {
      "anonymous": false,
      "inputs": [
        {
          "indexed": true,
          "internalType": "address",
          "name": "account",
          "type": "address"
        },
        {
          "indexed": false,
          "internalType": "uint256",
          "name": "groupId",
          "type": "uint256"
        }
      ],
      "name": "AdminAdded",
      "type": "event"
    },
    {
      "anonymous": false,
      "inputs": [],
      "name": "AdminAdded",
      "type": "event"
    },
    {
      "anonymous": false,
      "inputs": [
        {
          "indexed": true,
          "internalType": "address",
          "name": "account",
          "type": "address"
        },
        {
          "indexed": false,
          "internalType": "uint256",
          "name": "groupId",
          "type": "uint256"
        }
      ],
      "name": "AdminRemoved",
      "type": "event"
    },
    {
      "anonymous": false,
      "inputs": [
        {
          "indexed": false,
          "internalType": "uint256",
          "name": "registeredRecipientCount",
          "type": "uint256"
        },
        {
          "indexed": false,
          "internalType": "uint256",
          "name": "winningsPerRecipient",
          "type": "uint256"
        }
      ],
      "name": "CalculatedPot",
      "type": "event"
    },
    {
      "anonymous": false,
      "inputs": [],
      "name": "CfoUpdated",
      "type": "event"
    },
    {
      "anonymous": false,
      "inputs": [
        {
          "indexed": false,
          "internalType": "address",
          "name": "newContract",
          "type": "address"
        }
      ],
      "name": "ContractUpgrade",
      "type": "event"
    },
    {
      "anonymous": false,
      "inputs": [
        {
          "indexed": true,
          "internalType": "address",
          "name": "account",
          "type": "address"
        },
        {
          "indexed": false,
          "internalType": "uint256",
          "name": "groupId",
          "type": "uint256"
        },
        {
          "indexed": false,
          "internalType": "uint256",
          "name": "amount",
          "type": "uint256"
        }
      ],
      "name": "ContributionMade",
      "type": "event"
    },
    {
      "anonymous": false,
      "inputs": [
        {
          "indexed": true,
          "internalType": "address",
          "name": "account",
          "type": "address"
        },
        {
          "indexed": false,
          "internalType": "uint256",
          "name": "groupId",
          "type": "uint256"
        }
      ],
      "name": "ContributorAdded",
      "type": "event"
    },
    {
      "anonymous": false,
      "inputs": [
        {
          "indexed": true,
          "internalType": "address",
          "name": "account",
          "type": "address"
        },
        {
          "indexed": false,
          "internalType": "uint256",
          "name": "groupId",
          "type": "uint256"
        }
      ],
      "name": "ContributorRemoved",
      "type": "event"
    },
    {
      "anonymous": false,
      "inputs": [],
      "name": "CooUpdated",
      "type": "event"
    },
    {
      "anonymous": false,
      "inputs": [
        {
          "indexed": true,
          "internalType": "address",
          "name": "account",
          "type": "address"
        },
        {
          "indexed": false,
          "internalType": "uint256",
          "name": "groupId",
          "type": "uint256"
        }
      ],
      "name": "EligibleRecipientAdded",
      "type": "event"
    },
    {
      "anonymous": false,
      "inputs": [
        {
          "indexed": true,
          "internalType": "address",
          "name": "account",
          "type": "address"
        },
        {
          "indexed": false,
          "internalType": "uint256",
          "name": "groupId",
          "type": "uint256"
        }
      ],
      "name": "EligibleRecipientRemoved",
      "type": "event"
    },
    {
      "anonymous": false,
      "inputs": [],
      "name": "EventClose",
      "type": "event"
    },
    {
      "anonymous": false,
      "inputs": [
        {
          "indexed": true,
          "internalType": "address",
          "name": "endedBy",
          "type": "address"
        },
        {
          "indexed": false,
          "internalType": "uint256",
          "name": "groupId",
          "type": "uint256"
        }
      ],
      "name": "EventEnded",
      "type": "event"
    },
    {
      "anonymous": false,
      "inputs": [
        {
          "indexed": true,
          "internalType": "address",
          "name": "startedBy",
          "type": "address"
        },
        {
          "indexed": false,
          "internalType": "uint256",
          "name": "groupId",
          "type": "uint256"
        }
      ],
      "name": "EventStarted",
      "type": "event"
    },
    {
      "anonymous": false,
      "inputs": [
        {
          "indexed": false,
          "internalType": "string",
          "name": "groupName",
          "type": "string"
        },
        {
          "indexed": false,
          "internalType": "uint256",
          "name": "groupId",
          "type": "uint256"
        }
      ],
      "name": "GroupCreated",
      "type": "event"
    },
    {
      "anonymous": false,
      "inputs": [
        {
          "indexed": true,
          "internalType": "address",
          "name": "account",
          "type": "address"
        },
        {
          "indexed": false,
          "internalType": "uint256",
          "name": "groupId",
          "type": "uint256"
        }
      ],
      "name": "RecipientRegistered",
      "type": "event"
    },
    {
      "anonymous": false,
      "inputs": [
        {
          "indexed": true,
          "internalType": "address",
          "name": "endedBy",
          "type": "address"
        },
        {
          "indexed": false,
          "internalType": "uint256",
          "name": "groupId",
          "type": "uint256"
        }
      ],
      "name": "RegistrationEnded",
      "type": "event"
    },
    {
      "anonymous": false,
      "inputs": [],
      "name": "RegistrationOpen",
      "type": "event"
    },
    {
      "anonymous": false,
      "inputs": [
        {
          "indexed": false,
          "internalType": "address",
          "name": "from",
          "type": "address"
        },
        {
          "indexed": false,
          "internalType": "address",
          "name": "to",
          "type": "address"
        }
      ],
      "name": "Transfer",
      "type": "event"
    },
    {
      "anonymous": false,
      "inputs": [
        {
          "indexed": true,
          "internalType": "address",
          "name": "account",
          "type": "address"
        },
        {
          "indexed": false,
          "internalType": "uint256",
          "name": "groupId",
          "type": "uint256"
        }
      ],
      "name": "WinningsClaimed",
      "type": "event"
    },
    {
      "anonymous": false,
      "inputs": [],
      "name": "WinningsClaimingOpen",
      "type": "event"
    },
    {
      "inputs": [
        {
          "internalType": "address",
          "name": "account",
          "type": "address"
        },
        {
          "internalType": "uint256",
          "name": "groupId",
          "type": "uint256"
        }
      ],
      "name": "addAdmin",
      "outputs": [],
      "stateMutability": "nonpayable",
      "type": "function"
    },
    {
      "inputs": [
        {
          "internalType": "address",
          "name": "account",
          "type": "address"
        },
        {
          "internalType": "uint256",
          "name": "groupId",
          "type": "uint256"
        }
      ],
      "name": "addEligibleRecipient",
      "outputs": [],
      "stateMutability": "nonpayable",
      "type": "function"
    },
    {
      "inputs": [
        {
          "internalType": "uint256",
          "name": "groupId",
          "type": "uint256"
        }
      ],
      "name": "amIAdmin",
      "outputs": [
        {
          "internalType": "bool",
          "name": "",
          "type": "bool"
        }
      ],
      "stateMutability": "view",
      "type": "function",
      "constant": true
    },
    {
      "inputs": [
        {
          "internalType": "uint256",
          "name": "groupId",
          "type": "uint256"
        }
      ],
      "name": "amIContributor",
      "outputs": [
        {
          "internalType": "bool",
          "name": "",
          "type": "bool"
        }
      ],
      "stateMutability": "view",
      "type": "function",
      "constant": true
    },
    {
      "inputs": [
        {
          "internalType": "uint256",
          "name": "groupId",
          "type": "uint256"
        }
      ],
      "name": "amIEligibleRecipient",
      "outputs": [
        {
          "internalType": "bool",
          "name": "",
          "type": "bool"
        }
      ],
      "stateMutability": "view",
      "type": "function",
      "constant": true
    },
    {
      "inputs": [
        {
          "internalType": "uint256",
          "name": "groupId",
          "type": "uint256"
        }
      ],
      "name": "amIRegisteredRecipient",
      "outputs": [
        {
          "internalType": "bool",
          "name": "",
          "type": "bool"
        }
      ],
      "stateMutability": "view",
      "type": "function",
      "constant": true
    },
    {
      "inputs": [],
      "name": "ceoAddress",
      "outputs": [
        {
          "internalType": "address",
          "name": "",
          "type": "address"
        }
      ],
      "stateMutability": "view",
      "type": "function",
      "constant": true
    },
    {
      "inputs": [],
      "name": "cfoAddress",
      "outputs": [
        {
          "internalType": "address",
          "name": "",
          "type": "address"
        }
      ],
      "stateMutability": "view",
      "type": "function",
      "constant": true
    },
    {
      "inputs": [
        {
          "internalType": "address",
          "name": "account",
          "type": "address"
        },
        {
          "internalType": "uint256",
          "name": "groupId",
          "type": "uint256"
        }
      ],
      "name": "changeContributor",
      "outputs": [],
      "stateMutability": "nonpayable",
      "type": "function"
    },
    {
      "inputs": [
        {
          "internalType": "uint256",
          "name": "groupId",
          "type": "uint256"
        }
      ],
      "name": "claimWinnings",
      "outputs": [],
      "stateMutability": "nonpayable",
      "type": "function"
    },
    {
      "inputs": [
        {
          "internalType": "uint256",
          "name": "groupId",
          "type": "uint256"
        }
      ],
      "name": "closeEventRegistration",
      "outputs": [],
      "stateMutability": "nonpayable",
      "type": "function"
    },
    {
      "inputs": [
        {
          "internalType": "uint256",
          "name": "groupId",
          "type": "uint256"
        }
      ],
      "name": "contributeToPot",
      "outputs": [],
      "stateMutability": "payable",
      "type": "function",
      "payable": true
    },
    {
      "inputs": [],
      "name": "cooAddress",
      "outputs": [
        {
          "internalType": "address",
          "name": "",
          "type": "address"
        }
      ],
      "stateMutability": "view",
      "type": "function",
      "constant": true
    },
    {
      "inputs": [
        {
          "internalType": "string",
          "name": "groupName",
          "type": "string"
        }
      ],
      "name": "createNewGroup",
      "outputs": [],
      "stateMutability": "nonpayable",
      "type": "function"
    },
    {
      "inputs": [
        {
          "internalType": "uint256",
          "name": "groupId",
          "type": "uint256"
        }
      ],
      "name": "doIHaveClaimableWinnings",
      "outputs": [
        {
          "internalType": "bool",
          "name": "",
          "type": "bool"
        }
      ],
      "stateMutability": "view",
      "type": "function",
      "constant": true
    },
    {
      "inputs": [
        {
          "internalType": "uint256",
          "name": "groupId",
          "type": "uint256"
        }
      ],
      "name": "endEvent",
      "outputs": [],
      "stateMutability": "nonpayable",
      "type": "function"
    },
    {
      "inputs": [
        {
          "internalType": "uint256",
          "name": "groupId",
          "type": "uint256"
        }
      ],
      "name": "getAdminsForGroup",
      "outputs": [
        {
          "internalType": "address[]",
          "name": "",
          "type": "address[]"
        },
        {
          "internalType": "bool[]",
          "name": "",
          "type": "bool[]"
        }
      ],
      "stateMutability": "view",
      "type": "function",
      "constant": true
    },
    {
      "inputs": [],
      "name": "getCFO",
      "outputs": [
        {
          "internalType": "address",
          "name": "",
          "type": "address"
        }
      ],
      "stateMutability": "view",
      "type": "function",
      "constant": true
    },
    {
      "inputs": [],
      "name": "getCOO",
      "outputs": [
        {
          "internalType": "address",
          "name": "",
          "type": "address"
        }
      ],
      "stateMutability": "view",
      "type": "function",
      "constant": true
    },
    {
      "inputs": [
        {
          "internalType": "uint256",
          "name": "groupId",
          "type": "uint256"
        }
      ],
      "name": "getContributorInfo",
      "outputs": [
        {
          "internalType": "string",
          "name": "newContributorName",
          "type": "string"
        },
        {
          "internalType": "string",
          "name": "newContributorImgUrl",
          "type": "string"
        },
        {
          "internalType": "string",
          "name": "newContributorLinkToUrl",
          "type": "string"
        }
      ],
      "stateMutability": "view",
      "type": "function",
      "constant": true
    },
    {
      "inputs": [
        {
          "internalType": "uint256",
          "name": "groupId",
          "type": "uint256"
        }
      ],
      "name": "getCurrentSponsorAddress",
      "outputs": [
        {
          "internalType": "address",
          "name": "",
          "type": "address"
        }
      ],
      "stateMutability": "view",
      "type": "function",
      "constant": true
    },
    {
      "inputs": [
        {
          "internalType": "uint256",
          "name": "groupId",
          "type": "uint256"
        }
      ],
      "name": "getEligibleRecipientAddresses",
      "outputs": [
        {
          "internalType": "address[]",
          "name": "",
          "type": "address[]"
        }
      ],
      "stateMutability": "view",
      "type": "function",
      "constant": true
    },
    {
      "inputs": [
        {
          "internalType": "uint256",
          "name": "groupId",
          "type": "uint256"
        }
      ],
      "name": "getEligibleRecipientIsEligibilityEnabled",
      "outputs": [
        {
          "internalType": "bool[]",
          "name": "",
          "type": "bool[]"
        }
      ],
      "stateMutability": "view",
      "type": "function",
      "constant": true
    },
    {
      "inputs": [
        {
          "internalType": "uint256",
          "name": "groupId",
          "type": "uint256"
        }
      ],
      "name": "getGroupEventData",
      "outputs": [
        {
          "internalType": "enum EthDropBase.EventState",
          "name": "",
          "type": "uint8"
        },
        {
          "internalType": "uint256",
          "name": "",
          "type": "uint256"
        },
        {
          "internalType": "uint256",
          "name": "",
          "type": "uint256"
        },
        {
          "internalType": "uint256",
          "name": "",
          "type": "uint256"
        },
        {
          "internalType": "uint256",
          "name": "",
          "type": "uint256"
        }
      ],
      "stateMutability": "view",
      "type": "function",
      "constant": true
    },
    {
      "inputs": [],
      "name": "getGroupIds",
      "outputs": [
        {
          "internalType": "uint256[]",
          "name": "",
          "type": "uint256[]"
        }
      ],
      "stateMutability": "view",
      "type": "function",
      "constant": true
    },
    {
      "inputs": [],
      "name": "getGroupNames",
      "outputs": [
        {
          "internalType": "string[]",
          "name": "",
          "type": "string[]"
        }
      ],
      "stateMutability": "view",
      "type": "function",
      "constant": true
    },
    {
      "inputs": [
        {
          "internalType": "uint256",
          "name": "groupId",
          "type": "uint256"
        }
      ],
      "name": "getRegisteredRecipients",
      "outputs": [
        {
          "internalType": "address[]",
          "name": "",
          "type": "address[]"
        }
      ],
      "stateMutability": "view",
      "type": "function",
      "constant": true
    },
    {
      "inputs": [],
      "name": "getString",
      "outputs": [
        {
          "internalType": "string",
          "name": "",
          "type": "string"
        }
      ],
      "stateMutability": "view",
      "type": "function",
      "constant": true
    },
    {
      "inputs": [
        {
          "internalType": "address",
          "name": "account",
          "type": "address"
        },
        {
          "internalType": "uint256",
          "name": "groupId",
          "type": "uint256"
        }
      ],
      "name": "isAdmin",
      "outputs": [
        {
          "internalType": "bool",
          "name": "",
          "type": "bool"
        }
      ],
      "stateMutability": "view",
      "type": "function",
      "constant": true
    },
    {
      "inputs": [],
      "name": "isCEO",
      "outputs": [
        {
          "internalType": "bool",
          "name": "",
          "type": "bool"
        }
      ],
      "stateMutability": "view",
      "type": "function",
      "constant": true
    },
    {
      "inputs": [],
      "name": "isCFO",
      "outputs": [
        {
          "internalType": "bool",
          "name": "",
          "type": "bool"
        }
      ],
      "stateMutability": "view",
      "type": "function",
      "constant": true
    },
    {
      "inputs": [],
      "name": "isCOO",
      "outputs": [
        {
          "internalType": "bool",
          "name": "",
          "type": "bool"
        }
      ],
      "stateMutability": "view",
      "type": "function",
      "constant": true
    },
    {
      "inputs": [
        {
          "internalType": "address",
          "name": "account",
          "type": "address"
        },
        {
          "internalType": "uint256",
          "name": "groupId",
          "type": "uint256"
        }
      ],
      "name": "isContributor",
      "outputs": [
        {
          "internalType": "bool",
          "name": "",
          "type": "bool"
        }
      ],
      "stateMutability": "view",
      "type": "function",
      "constant": true
    },
    {
      "inputs": [
        {
          "internalType": "address",
          "name": "account",
          "type": "address"
        },
        {
          "internalType": "uint256",
          "name": "groupId",
          "type": "uint256"
        }
      ],
      "name": "isEligibleRecipient",
      "outputs": [
        {
          "internalType": "bool",
          "name": "",
          "type": "bool"
        }
      ],
      "stateMutability": "view",
      "type": "function",
      "constant": true
    },
    {
      "inputs": [],
      "name": "isPaused",
      "outputs": [
        {
          "internalType": "bool",
          "name": "",
          "type": "bool"
        }
      ],
      "stateMutability": "view",
      "type": "function",
      "constant": true
    },
    {
      "inputs": [
        {
          "internalType": "address",
          "name": "account",
          "type": "address"
        },
        {
          "internalType": "uint256",
          "name": "groupId",
          "type": "uint256"
        }
      ],
      "name": "isRegisteredRecipient",
      "outputs": [
        {
          "internalType": "bool",
          "name": "",
          "type": "bool"
        }
      ],
      "stateMutability": "view",
      "type": "function",
      "constant": true
    },
    {
      "inputs": [],
      "name": "newContractAddress",
      "outputs": [
        {
          "internalType": "address",
          "name": "",
          "type": "address"
        }
      ],
      "stateMutability": "view",
      "type": "function",
      "constant": true
    },
    {
      "inputs": [],
      "name": "pause",
      "outputs": [],
      "stateMutability": "nonpayable",
      "type": "function"
    },
    {
      "inputs": [],
      "name": "paused",
      "outputs": [
        {
          "internalType": "bool",
          "name": "",
          "type": "bool"
        }
      ],
      "stateMutability": "view",
      "type": "function",
      "constant": true
    },
    {
      "inputs": [
        {
          "internalType": "uint256",
          "name": "groupId",
          "type": "uint256"
        }
      ],
      "name": "readEventInfo",
      "outputs": [
        {
          "components": [
            {
              "internalType": "uint256",
              "name": "groupId",
              "type": "uint256"
            },
            {
              "internalType": "string",
              "name": "groupName",
              "type": "string"
            },
            {
              "internalType": "enum EthDropBase.EventState",
              "name": "currentState",
              "type": "uint8"
            },
            {
              "internalType": "uint256",
              "name": "startTime",
              "type": "uint256"
            },
            {
              "internalType": "uint256",
              "name": "registrationEndTime",
              "type": "uint256"
            },
            {
              "internalType": "uint256",
              "name": "endTime",
              "type": "uint256"
            },
            {
              "internalType": "uint256",
              "name": "registeredRecipientsCount",
              "type": "uint256"
            },
            {
              "internalType": "string",
              "name": "sponsorName",
              "type": "string"
            },
            {
              "internalType": "string",
              "name": "sponsorImageUrl",
              "type": "string"
            },
            {
              "internalType": "string",
              "name": "sponsorLinkToUrl",
              "type": "string"
            },
            {
              "internalType": "address",
              "name": "currentContributor",
              "type": "address"
            },
            {
              "internalType": "uint256",
              "name": "totalAmountContributed",
              "type": "uint256"
            },
            {
              "internalType": "uint256",
              "name": "weiWinnings",
              "type": "uint256"
            },
            {
              "internalType": "uint256",
              "name": "numberOfUsersWhoClaimedWinnings",
              "type": "uint256"
            }
          ],
          "internalType": "struct EthDropBase.EthDropEvent",
          "name": "",
          "type": "tuple"
        }
      ],
      "stateMutability": "view",
      "type": "function",
      "constant": true
    },
    {
      "inputs": [
        {
          "internalType": "uint256",
          "name": "groupId",
          "type": "uint256"
        }
      ],
      "name": "registerForEvent",
      "outputs": [],
      "stateMutability": "nonpayable",
      "type": "function"
    },
    {
      "inputs": [
        {
          "internalType": "address",
          "name": "account",
          "type": "address"
        },
        {
          "internalType": "uint256",
          "name": "groupId",
          "type": "uint256"
        }
      ],
      "name": "removeAdmin",
      "outputs": [],
      "stateMutability": "nonpayable",
      "type": "function"
    },
    {
      "inputs": [
        {
          "internalType": "address",
          "name": "account",
          "type": "address"
        },
        {
          "internalType": "uint256",
          "name": "groupId",
          "type": "uint256"
        }
      ],
      "name": "removeContributor",
      "outputs": [],
      "stateMutability": "nonpayable",
      "type": "function"
    },
    {
      "inputs": [
        {
          "internalType": "address",
          "name": "account",
          "type": "address"
        },
        {
          "internalType": "uint256",
          "name": "groupId",
          "type": "uint256"
        }
      ],
      "name": "removeEligibleRecipient",
      "outputs": [],
      "stateMutability": "nonpayable",
      "type": "function"
    },
    {
      "inputs": [
        {
          "internalType": "uint256",
          "name": "groupId",
          "type": "uint256"
        }
      ],
      "name": "renounceAdmin",
      "outputs": [],
      "stateMutability": "nonpayable",
      "type": "function"
    },
    {
      "inputs": [
        {
          "internalType": "uint256",
          "name": "groupId",
          "type": "uint256"
        }
      ],
      "name": "renounceContributor",
      "outputs": [],
      "stateMutability": "nonpayable",
      "type": "function"
    },
    {
      "inputs": [
        {
          "internalType": "address",
          "name": "_newCEO",
          "type": "address"
        }
      ],
      "name": "setCEO",
      "outputs": [],
      "stateMutability": "nonpayable",
      "type": "function"
    },
    {
      "inputs": [
        {
          "internalType": "address",
          "name": "_newCFO",
          "type": "address"
        }
      ],
      "name": "setCFO",
      "outputs": [],
      "stateMutability": "nonpayable",
      "type": "function"
    },
    {
      "inputs": [
        {
          "internalType": "address",
          "name": "_newCOO",
          "type": "address"
        }
      ],
      "name": "setCOO",
      "outputs": [],
      "stateMutability": "nonpayable",
      "type": "function"
    },
    {
      "inputs": [
        {
          "internalType": "string",
          "name": "_s",
          "type": "string"
        }
      ],
      "name": "setString",
      "outputs": [],
      "stateMutability": "nonpayable",
      "type": "function"
    },
    {
      "inputs": [
        {
          "internalType": "uint256",
          "name": "groupId",
          "type": "uint256"
        }
      ],
      "name": "startEvent",
      "outputs": [],
      "stateMutability": "nonpayable",
      "type": "function"
    },
    {
      "inputs": [],
      "name": "stringgg",
      "outputs": [
        {
          "internalType": "string",
          "name": "",
          "type": "string"
        }
      ],
      "stateMutability": "view",
      "type": "function",
      "constant": true
    },
    {
      "inputs": [],
      "name": "unpause",
      "outputs": [
        {
          "internalType": "bool",
          "name": "",
          "type": "bool"
        }
      ],
      "stateMutability": "nonpayable",
      "type": "function"
    },
    {
      "inputs": [
        {
          "internalType": "uint256",
          "name": "groupId",
          "type": "uint256"
        },
        {
          "internalType": "string",
          "name": "newContributorName",
          "type": "string"
        },
        {
          "internalType": "string",
          "name": "newContributorImgUrl",
          "type": "string"
        },
        {
          "internalType": "string",
          "name": "newContributorLinkToUrl",
          "type": "string"
        }
      ],
      "name": "updateContributorInfo",
      "outputs": [],
      "stateMutability": "nonpayable",
      "type": "function"
    },
    {
      "inputs": [],
      "name": "whoami",
      "outputs": [
        {
          "internalType": "address",
          "name": "",
          "type": "address"
        }
      ],
      "stateMutability": "view",
      "type": "function",
      "constant": true
    },
    {
      "inputs": [
        {
          "internalType": "address",
          "name": "_v2Address",
          "type": "address"
        }
      ],
      "name": "setNewAddress",
      "outputs": [],
      "stateMutability": "nonpayable",
      "type": "function"
    },
    {
      "inputs": [],
      "name": "foobar",
      "outputs": [
        {
          "internalType": "string",
          "name": "",
          "type": "string"
        }
      ],
      "stateMutability": "pure",
      "type": "function",
      "constant": true
    }
  ],
  "bytecode": "0x60806040526000600360146101000a81548160ff02191690831515021790555060056004556000600b5534801561003557600080fd5b506000600360146101000a81548160ff02191690831515021790555033600160006101000a81548173ffffffffffffffffffffffffffffffffffffffff021916908373ffffffffffffffffffffffffffffffffffffffff160217905550614fab806100a16000396000f3fe6080604052600436106103765760003560e01c80637fcaf666116101d1578063c02b8b2c11610102578063e513b7a9116100a0578063ee41b5921161006f578063ee41b59214610d2c578063f4a02e7014610d69578063f89e9cb914610d94578063fc5fd6e414610dd157610376565b8063e513b7a914610c7f578063e62092be14610caa578063e82f24e014610ce7578063ea303f0814610d0357610376565b8063c6e0ddfa116100dc578063c6e0ddfa14610bc5578063d5f016c314610bee578063e320d5e714610c19578063e33db42614610c4257610376565b8063c02b8b2c14610b46578063c271e80c14610b71578063c6db509414610b9a57610376565b80639bda87961161016f578063aea88a0511610149578063aea88a0514610a9c578063b047fb5014610ac5578063b187bd2614610af0578063b3b36bb314610b1b57610376565b80639bda879614610a0d578063a59a695314610a4a578063ab4e194514610a7357610376565b80638456cb59116101ab5780638456cb591461096357806389ea642f1461097a5780639393ae37146109a5578063962ecff5146109d057610376565b80637fcaf666146108d45780637fcb29c9146108fd5780638182aaf21461092657610376565b80634635509b116102ab578063677bd9ff116102495780637158798811610223578063715879881461081a578063785142be146108435780637b936ac21461086c5780637d837ce51461089757610376565b8063677bd9ff146107885780636af04a57146107b15780636ebdec49146107dc57610376565b806355b57ec11161028557806355b57ec1146106a45780635c975abb146106e15780635e82c1fc1461070c578063674811ca1461074957610376565b80634635509b146106115780634e0a3379146106525780634f1ef03c1461067b57610376565b80632ba73c151161031857806338f0b656116102f257806338f0b656146105435780633f4ba83a14610580578063406db843146105ab57806344b2983b146105d457610376565b80632ba73c15146104c857806330bb0115146104f1578063330a347b1461051a57610376565b80630a0f8168116103545780630a0f81681461040e5780630d82ffa01461043957806315891ff41461047657806327d7874c1461049f57610376565b80630519ce791461037b57806305df75db146103a657806306cc4922146103d1575b600080fd5b34801561038757600080fd5b50610390610dfc565b60405161039d9190614827565b60405180910390f35b3480156103b257600080fd5b506103bb610e22565b6040516103c8919061496f565b60405180910390f35b3480156103dd57600080fd5b506103f860048036038101906103f39190614327565b610e5f565b6040516104059190614901565b60405180910390f35b34801561041a57600080fd5b50610423610e8c565b6040516104309190614827565b60405180910390f35b34801561044557600080fd5b50610460600480360381019061045b9190614327565b610eb2565b60405161046d9190614827565b60405180910390f35b34801561048257600080fd5b5061049d6004803603810190610498919061429e565b610ef2565b005b3480156104ab57600080fd5b506104c660048036038101906104c19190614271565b610fdc565b005b3480156104d457600080fd5b506104ef60048036038101906104ea9190614271565b6110b4565b005b3480156104fd57600080fd5b5061051860048036038101906105139190614327565b6111b8565b005b34801561052657600080fd5b50610541600480360381019061053c9190614327565b6111da565b005b34801561054f57600080fd5b5061056a60048036038101906105659190614327565b6114d1565b6040516105779190614901565b60405180910390f35b34801561058c57600080fd5b506105956114fe565b6040516105a29190614901565b60405180910390f35b3480156105b757600080fd5b506105d260048036038101906105cd9190614327565b6115a3565b005b3480156105e057600080fd5b506105fb60048036038101906105f69190614327565b61172c565b6040516106089190614842565b60405180910390f35b34801561061d57600080fd5b5061063860048036038101906106339190614327565b6117cd565b60405161064995949392919061491c565b60405180910390f35b34801561065e57600080fd5b5061067960048036038101906106749190614271565b611b50565b005b34801561068757600080fd5b506106a2600480360381019061069d9190614327565b611c1a565b005b3480156106b057600080fd5b506106cb60048036038101906106c69190614327565b611c56565b6040516106d8919061489b565b60405180910390f35b3480156106ed57600080fd5b506106f6611ce6565b6040516107039190614901565b60405180910390f35b34801561071857600080fd5b50610733600480360381019061072e919061429e565b611cf9565b6040516107409190614901565b60405180910390f35b34801561075557600080fd5b50610770600480360381019061076b9190614327565b611d82565b60405161077f93929190614991565b60405180910390f35b34801561079457600080fd5b506107af60048036038101906107aa9190614327565b611f7a565b005b3480156107bd57600080fd5b506107c661215f565b6040516107d39190614827565b60405180910390f35b3480156107e857600080fd5b5061080360048036038101906107fe9190614327565b612185565b604051610811929190614864565b60405180910390f35b34801561082657600080fd5b50610841600480360381019061083c9190614271565b6122b6565b005b34801561084f57600080fd5b5061086a60048036038101906108659190614327565b6123a4565b005b34801561087857600080fd5b5061088161257f565b60405161088e9190614827565b60405180910390f35b3480156108a357600080fd5b506108be60048036038101906108b9919061429e565b6125a9565b6040516108cb9190614901565b60405180910390f35b3480156108e057600080fd5b506108fb60048036038101906108f691906142de565b612632565b005b34801561090957600080fd5b50610924600480360381019061091f919061429e565b61264c565b005b34801561093257600080fd5b5061094d6004803603810190610948919061429e565b6126e0565b60405161095a9190614901565b60405180910390f35b34801561096f57600080fd5b50610978612769565b005b34801561098657600080fd5b5061098f6128aa565b60405161099c919061496f565b60405180910390f35b3480156109b157600080fd5b506109ba61293c565b6040516109c79190614901565b60405180910390f35b3480156109dc57600080fd5b506109f760048036038101906109f29190614327565b612994565b604051610a049190614901565b60405180910390f35b348015610a1957600080fd5b50610a346004803603810190610a2f9190614327565b612a02565b604051610a419190614842565b60405180910390f35b348015610a5657600080fd5b50610a716004803603810190610a6c9190614327565b612aa3565b005b348015610a7f57600080fd5b50610a9a6004803603810190610a95919061429e565b612b7d565b005b348015610aa857600080fd5b50610ac36004803603810190610abe9190614354565b612d31565b005b348015610ad157600080fd5b50610ada612dcd565b604051610ae79190614827565b60405180910390f35b348015610afc57600080fd5b50610b05612df3565b604051610b129190614901565b60405180910390f35b348015610b2757600080fd5b50610b30612e0a565b604051610b3d9190614827565b60405180910390f35b348015610b5257600080fd5b50610b5b612e12565b604051610b6891906148df565b60405180910390f35b348015610b7d57600080fd5b50610b986004803603810190610b93919061429e565b612e6a565b005b348015610ba657600080fd5b50610baf612eff565b604051610bbc919061496f565b60405180910390f35b348015610bd157600080fd5b50610bec6004803603810190610be7919061429e565b612f8d565b005b348015610bfa57600080fd5b50610c03612ff5565b604051610c1091906148bd565b60405180910390f35b348015610c2557600080fd5b50610c406004803603810190610c3b919061429e565b6130ce565b005b348015610c4e57600080fd5b50610c696004803603810190610c649190614327565b613163565b604051610c769190614a0d565b60405180910390f35b348015610c8b57600080fd5b50610c946134cf565b604051610ca19190614901565b60405180910390f35b348015610cb657600080fd5b50610cd16004803603810190610ccc919061429e565b613527565b604051610cde9190614901565b60405180910390f35b610d016004803603810190610cfc9190614327565b613596565b005b348015610d0f57600080fd5b50610d2a6004803603810190610d2591906142de565b613633565b005b348015610d3857600080fd5b50610d536004803603810190610d4e9190614327565b613964565b604051610d609190614901565b60405180910390f35b348015610d7557600080fd5b50610d7e613991565b604051610d8b9190614901565b60405180910390f35b348015610da057600080fd5b50610dbb6004803603810190610db69190614327565b6139e9565b604051610dc89190614901565b60405180910390f35b348015610ddd57600080fd5b50610de6613a70565b604051610df39190614827565b60405180910390f35b600260009054906101000a900473ffffffffffffffffffffffffffffffffffffffff1681565b60606040518060400160405280600d81526020017f666f6f6261727272727272722100000000000000000000000000000000000000815250905090565b6000600360149054906101000a900460ff1615610e7b57600080fd5b610e853383611cf9565b9050919050565b600160009054906101000a900473ffffffffffffffffffffffffffffffffffffffff1681565b600060076000838152602001908152602001600020600a0160009054906101000a900473ffffffffffffffffffffffffffffffffffffffff169050919050565b80610efd3382613527565b610f0657600080fd5b600360149054906101000a900460ff1615610f2057600080fd5b60006011600084815260200190815260200160002060008573ffffffffffffffffffffffffffffffffffffffff1673ffffffffffffffffffffffffffffffffffffffff16815260200190815260200160002060006101000a81548160ff0219169083151502179055508273ffffffffffffffffffffffffffffffffffffffff167f1af6d16168d33745872119540d28858eed156c5f265206bbf1344fda39a93a3383604051610fcf9190614a2f565b60405180910390a2505050565b600160009054906101000a900473ffffffffffffffffffffffffffffffffffffffff1673ffffffffffffffffffffffffffffffffffffffff163373ffffffffffffffffffffffffffffffffffffffff161461103657600080fd5b600073ffffffffffffffffffffffffffffffffffffffff168173ffffffffffffffffffffffffffffffffffffffff16141561107057600080fd5b80600160006101000a81548173ffffffffffffffffffffffffffffffffffffffff021916908373ffffffffffffffffffffffffffffffffffffffff16021790555050565b600160009054906101000a900473ffffffffffffffffffffffffffffffffffffffff1673ffffffffffffffffffffffffffffffffffffffff163373ffffffffffffffffffffffffffffffffffffffff161461110e57600080fd5b600073ffffffffffffffffffffffffffffffffffffffff168173ffffffffffffffffffffffffffffffffffffffff16141561114857600080fd5b80600360006101000a81548173ffffffffffffffffffffffffffffffffffffffff021916908373ffffffffffffffffffffffffffffffffffffffff1602179055507fa308298a77084def994b565be25bff2e8fbfe7006c2c6b2bacfb84d1ba1f635060405160405180910390a150565b806111c33382613527565b6111cc57600080fd5b6111d63383613a9a565b5050565b806111e53382613527565b8061123d5750600360009054906101000a900473ffffffffffffffffffffffffffffffffffffffff1673ffffffffffffffffffffffffffffffffffffffff163373ffffffffffffffffffffffffffffffffffffffff16145b61124657600080fd5b600360149054906101000a900460ff161561126057600080fd5b42600760008481526020019081526020016000206005018190555060036007600084815260200190815260200160002060020160006101000a81548160ff021916908360038111156112b5576112b4614e52565b5b0217905550600860008381526020019081526020016000206007600084815260200190815260200160002090806001815401808255809150506001900390600052602060002090600e020160009091909190915060008201548160000155600182018160010190805461132790614d48565b611332929190614010565b506002820160009054906101000a900460ff168160020160006101000a81548160ff0219169083600381111561136b5761136a614e52565b5b02179055506003820154816003015560048201548160040155600582015481600501556006820154816006015560078201816007019080546113ac90614d48565b6113b7929190614010565b5060088201816008019080546113cc90614d48565b6113d7929190614010565b5060098201816009019080546113ec90614d48565b6113f7929190614010565b50600a820160009054906101000a900473ffffffffffffffffffffffffffffffffffffffff1681600a0160006101000a81548173ffffffffffffffffffffffffffffffffffffffff021916908373ffffffffffffffffffffffffffffffffffffffff160217905550600b82015481600b0155600c82015481600c0155600d82015481600d015550503373ffffffffffffffffffffffffffffffffffffffff167f6f45a19e8850c727d0de9f32e0d8691324a9a74ffb4347652e6404138b1d8165836040516114c59190614a2f565b60405180910390a25050565b6000600360149054906101000a900460ff16156114ed57600080fd5b6114f733836125a9565b9050919050565b6000600160009054906101000a900473ffffffffffffffffffffffffffffffffffffffff1673ffffffffffffffffffffffffffffffffffffffff163373ffffffffffffffffffffffffffffffffffffffff161461155a57600080fd5b600360149054906101000a900460ff1661157357600080fd5b6000600360146101000a81548160ff021916908315150217905550600360149054906101000a900460ff16905090565b806115ae3382611cf9565b6115b757600080fd5b600360149054906101000a900460ff16156115d157600080fd5b60016014600084815260200190815260200160002060003373ffffffffffffffffffffffffffffffffffffffff1673ffffffffffffffffffffffffffffffffffffffff16815260200190815260200160002060006101000a81548160ff02191690831515021790555060156000838152602001908152602001600020339080600181540180825580915050600190039060005260206000200160009091909190916101000a81548173ffffffffffffffffffffffffffffffffffffffff021916908373ffffffffffffffffffffffffffffffffffffffff1602179055506007600083815260200190815260200160002060060160008154809291906116d590614dab565b91905055503373ffffffffffffffffffffffffffffffffffffffff167f0695e999be8100bdb5bee8612337296508d527eae78c65b8f170eacb5a3b439d836040516117209190614a2f565b60405180910390a25050565b6060601560008381526020019081526020016000208054806020026020016040519081016040528092919081815260200182805480156117c157602002820191906000526020600020905b8160009054906101000a900473ffffffffffffffffffffffffffffffffffffffff1673ffffffffffffffffffffffffffffffffffffffff1681526020019060010190808311611777575b50505050509050919050565b60008060008060008060076000888152602001908152602001600020604051806101c00160405290816000820154815260200160018201805461180f90614d48565b80601f016020809104026020016040519081016040528092919081815260200182805461183b90614d48565b80156118885780601f1061185d57610100808354040283529160200191611888565b820191906000526020600020905b81548152906001019060200180831161186b57829003601f168201915b505050505081526020016002820160009054906101000a900460ff1660038111156118b6576118b5614e52565b5b60038111156118c8576118c7614e52565b5b81526020016003820154815260200160048201548152602001600582015481526020016006820154815260200160078201805461190490614d48565b80601f016020809104026020016040519081016040528092919081815260200182805461193090614d48565b801561197d5780601f106119525761010080835404028352916020019161197d565b820191906000526020600020905b81548152906001019060200180831161196057829003601f168201915b5050505050815260200160088201805461199690614d48565b80601f01602080910402602001604051908101604052809291908181526020018280546119c290614d48565b8015611a0f5780601f106119e457610100808354040283529160200191611a0f565b820191906000526020600020905b8154815290600101906020018083116119f257829003601f168201915b50505050508152602001600982018054611a2890614d48565b80601f0160208091040260200160405190810160405280929190818152602001828054611a5490614d48565b8015611aa15780601f10611a7657610100808354040283529160200191611aa1565b820191906000526020600020905b815481529060010190602001808311611a8457829003601f168201915b50505050508152602001600a820160009054906101000a900473ffffffffffffffffffffffffffffffffffffffff1673ffffffffffffffffffffffffffffffffffffffff1673ffffffffffffffffffffffffffffffffffffffff168152602001600b8201548152602001600c8201548152602001600d82015481525050905080604001518160c00151826101600151836101800151846101a00151955095509550955095505091939590929450565b600160009054906101000a900473ffffffffffffffffffffffffffffffffffffffff1673ffffffffffffffffffffffffffffffffffffffff163373ffffffffffffffffffffffffffffffffffffffff1614611baa57600080fd5b80600260006101000a81548173ffffffffffffffffffffffffffffffffffffffff021916908373ffffffffffffffffffffffffffffffffffffffff1602179055507f162e32528b5907ecf876b3b7a4e5e0edf878642e3ec25852e3c35af1a4e1c04060405160405180910390a150565b80611c2533826126e0565b611c2e57600080fd5b600360149054906101000a900460ff1615611c4857600080fd5b611c523383613bfb565b5050565b606060136000838152602001908152602001600020805480602002602001604051908101604052809291908181526020018280548015611cda57602002820191906000526020600020906000905b82829054906101000a900460ff16151581526020019060010190602082600001049283019260010382029150808411611ca45790505b50505050509050919050565b600360149054906101000a900460ff1681565b6000600360149054906101000a900460ff1615611d1557600080fd5b600115156011600084815260200190815260200160002060008573ffffffffffffffffffffffffffffffffffffffff1673ffffffffffffffffffffffffffffffffffffffff16815260200190815260200160002060009054906101000a900460ff16151514905092915050565b6060806060600760008581526020019081526020016000206007016007600086815260200190815260200160002060080160076000878152602001908152602001600020600901828054611dd590614d48565b80601f0160208091040260200160405190810160405280929190818152602001828054611e0190614d48565b8015611e4e5780601f10611e2357610100808354040283529160200191611e4e565b820191906000526020600020905b815481529060010190602001808311611e3157829003601f168201915b50505050509250818054611e6190614d48565b80601f0160208091040260200160405190810160405280929190818152602001828054611e8d90614d48565b8015611eda5780601f10611eaf57610100808354040283529160200191611eda565b820191906000526020600020905b815481529060010190602001808311611ebd57829003601f168201915b50505050509150808054611eed90614d48565b80601f0160208091040260200160405190810160405280929190818152602001828054611f1990614d48565b8015611f665780601f10611f3b57610100808354040283529160200191611f66565b820191906000526020600020905b815481529060010190602001808311611f4957829003601f168201915b505050505090509250925092509193909250565b80611f8533826125a9565b611f8e57600080fd5b813360011515600c600084815260200190815260200160002060003373ffffffffffffffffffffffffffffffffffffffff1673ffffffffffffffffffffffffffffffffffffffff16815260200190815260200160002060009054906101000a900460ff1615151415611fff57600080fd5b600360149054906101000a900460ff161561201957600080fd5b6001600c600086815260200190815260200160002060003373ffffffffffffffffffffffffffffffffffffffff1673ffffffffffffffffffffffffffffffffffffffff16815260200190815260200160002060006101000a81548160ff02191690831515021790555060076000858152602001908152602001600020600d0160008154809291906120a990614dab565b91905055503373ffffffffffffffffffffffffffffffffffffffff166108fc60076000878152602001908152602001600020600c01549081150290604051600060405180830381858888f1935050505015801561210a573d6000803e3d6000fd5b503373ffffffffffffffffffffffffffffffffffffffff167f1a31e733a172afcf46074b3106c17f0c298e226442682a03c1e99ce256139ec2856040516121519190614a2f565b60405180910390a250505050565b601660009054906101000a900473ffffffffffffffffffffffffffffffffffffffff1681565b606080600d6000848152602001908152602001600020600f60008581526020019081526020016000208180548060200260200160405190810160405280929190818152602001828054801561222f57602002820191906000526020600020905b8160009054906101000a900473ffffffffffffffffffffffffffffffffffffffff1673ffffffffffffffffffffffffffffffffffffffff16815260200190600101908083116121e5575b50505050509150808054806020026020016040519081016040528092919081815260200182805480156122a657602002820191906000526020600020906000905b82829054906101000a900460ff161515815260200190600101906020826000010492830192600103820291508084116122705790505b5050505050905091509150915091565b600160009054906101000a900473ffffffffffffffffffffffffffffffffffffffff1673ffffffffffffffffffffffffffffffffffffffff163373ffffffffffffffffffffffffffffffffffffffff161461231057600080fd5b600360149054906101000a900460ff1661232957600080fd5b80601660006101000a81548173ffffffffffffffffffffffffffffffffffffffff021916908373ffffffffffffffffffffffffffffffffffffffff1602179055507f450db8da6efbe9c22f2347f7c2021231df1fc58d3ae9a2fa75d39fa446199305816040516123999190614827565b60405180910390a150565b806123af3382613527565b6123b857600080fd5b600360149054906101000a900460ff16156123d257600080fd5b4260076000848152602001908152602001600020600401819055506000606460045460076000868152602001908152602001600020600b01546124159190614c0b565b61241f9190614bda565b9050600260009054906101000a900473ffffffffffffffffffffffffffffffffffffffff1673ffffffffffffffffffffffffffffffffffffffff166108fc829081150290604051600060405180830381858888f19350505050158015612489573d6000803e3d6000fd5b5060008160076000868152602001908152602001600020600b01546124ae9190614c65565b90506007600085815260200190815260200160002060060154816124d29190614bda565b60076000868152602001908152602001600020600c018190555060026007600086815260200190815260200160002060020160006101000a81548160ff0219169083600381111561252657612525614e52565b5b02179055503373ffffffffffffffffffffffffffffffffffffffff167fef898a6941c945450e9bbdad4a76fcd0f51f42f7e251fddcb1e5479ba786d5e4856040516125719190614a2f565b60405180910390a250505050565b6000600260009054906101000a900473ffffffffffffffffffffffffffffffffffffffff16905090565b6000600360149054906101000a900460ff16156125c557600080fd5b600115156014600084815260200190815260200160002060008573ffffffffffffffffffffffffffffffffffffffff1673ffffffffffffffffffffffffffffffffffffffff16815260200190815260200160002060009054906101000a900460ff16151514905092915050565b806000908051906020019061264892919061409d565b5050565b600360009054906101000a900473ffffffffffffffffffffffffffffffffffffffff1673ffffffffffffffffffffffffffffffffffffffff163373ffffffffffffffffffffffffffffffffffffffff16146126a657600080fd5b6126b08282613d0c565b7f5e98fc0a2b96aaaf43c5d24a7d998895523ed18636d276b24f12b5f2e0bb857360405160405180910390a15050565b6000600360149054906101000a900460ff16156126fc57600080fd5b600115156010600084815260200190815260200160002060008573ffffffffffffffffffffffffffffffffffffffff1673ffffffffffffffffffffffffffffffffffffffff16815260200190815260200160002060009054906101000a900460ff16151514905092915050565b600360009054906101000a900473ffffffffffffffffffffffffffffffffffffffff1673ffffffffffffffffffffffffffffffffffffffff163373ffffffffffffffffffffffffffffffffffffffff1614806128125750600160009054906101000a900473ffffffffffffffffffffffffffffffffffffffff1673ffffffffffffffffffffffffffffffffffffffff163373ffffffffffffffffffffffffffffffffffffffff16145b8061286a5750600260009054906101000a900473ffffffffffffffffffffffffffffffffffffffff1673ffffffffffffffffffffffffffffffffffffffff163373ffffffffffffffffffffffffffffffffffffffff16145b61287357600080fd5b600360149054906101000a900460ff161561288d57600080fd5b6001600360146101000a81548160ff021916908315150217905550565b6060600080546128b990614d48565b80601f01602080910402602001604051908101604052809291908181526020018280546128e590614d48565b80156129325780601f1061290757610100808354040283529160200191612932565b820191906000526020600020905b81548152906001019060200180831161291557829003601f168201915b5050505050905090565b6000600260009054906101000a900473ffffffffffffffffffffffffffffffffffffffff1673ffffffffffffffffffffffffffffffffffffffff163373ffffffffffffffffffffffffffffffffffffffff1614905090565b6000600115156009600084815260200190815260200160002060003373ffffffffffffffffffffffffffffffffffffffff1673ffffffffffffffffffffffffffffffffffffffff16815260200190815260200160002060009054906101000a900460ff161515149050919050565b606060126000838152602001908152602001600020805480602002602001604051908101604052809291908181526020018280548015612a9757602002820191906000526020600020905b8160009054906101000a900473ffffffffffffffffffffffffffffffffffffffff1673ffffffffffffffffffffffffffffffffffffffff1681526020019060010190808311612a4d575b50505050509050919050565b80612aae3382613527565b612ab757600080fd5b600360149054906101000a900460ff1615612ad157600080fd5b60016007600084815260200190815260200160002060020160006101000a81548160ff02191690836003811115612b0b57612b0a614e52565b5b02179055504260076000848152602001908152602001600020600301819055503373ffffffffffffffffffffffffffffffffffffffff167ff77c6f27499b698205f54058c2914a340e1300c2bc0d9a819e7aebfbaabbbb9383604051612b719190614a2f565b60405180910390a25050565b600360149054906101000a900460ff1615612b9757600080fd5b80612ba23382613527565b612bab57600080fd5b60016011600084815260200190815260200160002060008573ffffffffffffffffffffffffffffffffffffffff1673ffffffffffffffffffffffffffffffffffffffff16815260200190815260200160002060006101000a81548160ff02191690831515021790555060126000838152602001908152602001600020839080600181540180825580915050600190039060005260206000200160009091909190916101000a81548173ffffffffffffffffffffffffffffffffffffffff021916908373ffffffffffffffffffffffffffffffffffffffff16021790555060136000838152602001908152602001600020600190806001815401808255809150506001900390600052602060002090602091828204019190069091909190916101000a81548160ff0219169083151502179055508273ffffffffffffffffffffffffffffffffffffffff167f46b8357d30dedd734a71d059a385f46b6e667bff20233f907477760207f8896583604051612d249190614a2f565b60405180910390a2505050565b83612d3c33826126e0565b612d4557600080fd5b83600760008781526020019081526020016000206007019080519060200190612d6f92919061409d565b5082600760008781526020019081526020016000206008019080519060200190612d9a92919061409d565b5081600760008781526020019081526020016000206009019080519060200190612dc592919061409d565b505050505050565b600360009054906101000a900473ffffffffffffffffffffffffffffffffffffffff1681565b6000600360149054906101000a900460ff16905090565b600033905090565b60606005805480602002602001604051908101604052809291908181526020018280548015612e6057602002820191906000526020600020905b815481526020019060010190808311612e4c575b5050505050905090565b80612e753382613527565b80612ecd5750600360009054906101000a900473ffffffffffffffffffffffffffffffffffffffff1673ffffffffffffffffffffffffffffffffffffffff163373ffffffffffffffffffffffffffffffffffffffff16145b612ed657600080fd5b600360149054906101000a900460ff1615612ef057600080fd5b612efa8383613f00565b505050565b60008054612f0c90614d48565b80601f0160208091040260200160405190810160405280929190818152602001828054612f3890614d48565b8015612f855780601f10612f5a57610100808354040283529160200191612f85565b820191906000526020600020905b815481529060010190602001808311612f6857829003601f168201915b505050505081565b600360009054906101000a900473ffffffffffffffffffffffffffffffffffffffff1673ffffffffffffffffffffffffffffffffffffffff163373ffffffffffffffffffffffffffffffffffffffff1614612fe757600080fd5b612ff18282613a9a565b5050565b60606006805480602002602001604051908101604052809291908181526020016000905b828210156130c557838290600052602060002001805461303890614d48565b80601f016020809104026020016040519081016040528092919081815260200182805461306490614d48565b80156130b15780601f10613086576101008083540402835291602001916130b1565b820191906000526020600020905b81548152906001019060200180831161309457829003601f168201915b505050505081526020019060010190613019565b50505050905090565b806130d93382613527565b806131315750600360009054906101000a900473ffffffffffffffffffffffffffffffffffffffff1673ffffffffffffffffffffffffffffffffffffffff163373ffffffffffffffffffffffffffffffffffffffff16145b61313a57600080fd5b600360149054906101000a900460ff161561315457600080fd5b61315e8383613bfb565b505050565b61316b614123565b816131763382613527565b61317f57600080fd5b60076000848152602001908152602001600020604051806101c0016040529081600082015481526020016001820180546131b890614d48565b80601f01602080910402602001604051908101604052809291908181526020018280546131e490614d48565b80156132315780601f1061320657610100808354040283529160200191613231565b820191906000526020600020905b81548152906001019060200180831161321457829003601f168201915b505050505081526020016002820160009054906101000a900460ff16600381111561325f5761325e614e52565b5b600381111561327157613270614e52565b5b8152602001600382015481526020016004820154815260200160058201548152602001600682015481526020016007820180546132ad90614d48565b80601f01602080910402602001604051908101604052809291908181526020018280546132d990614d48565b80156133265780601f106132fb57610100808354040283529160200191613326565b820191906000526020600020905b81548152906001019060200180831161330957829003601f168201915b5050505050815260200160088201805461333f90614d48565b80601f016020809104026020016040519081016040528092919081815260200182805461336b90614d48565b80156133b85780601f1061338d576101008083540402835291602001916133b8565b820191906000526020600020905b81548152906001019060200180831161339b57829003601f168201915b505050505081526020016009820180546133d190614d48565b80601f01602080910402602001604051908101604052809291908181526020018280546133fd90614d48565b801561344a5780601f1061341f5761010080835404028352916020019161344a565b820191906000526020600020905b81548152906001019060200180831161342d57829003601f168201915b50505050508152602001600a820160009054906101000a900473ffffffffffffffffffffffffffffffffffffffff1673ffffffffffffffffffffffffffffffffffffffff1673ffffffffffffffffffffffffffffffffffffffff168152602001600b8201548152602001600c8201548152602001600d82015481525050915050919050565b6000600160009054906101000a900473ffffffffffffffffffffffffffffffffffffffff1673ffffffffffffffffffffffffffffffffffffffff163373ffffffffffffffffffffffffffffffffffffffff1614905090565b6000600115156009600084815260200190815260200160002060008573ffffffffffffffffffffffffffffffffffffffff1673ffffffffffffffffffffffffffffffffffffffff16815260200190815260200160002060009054906101000a900460ff16151514905092915050565b806135a133826126e0565b6135aa57600080fd5b600360149054906101000a900460ff16156135c457600080fd5b3460076000848152602001908152602001600020600b01819055503373ffffffffffffffffffffffffffffffffffffffff167f5dc1fe5ab986a852c4eda8e8bb94247d13307065c593fb83f1a09be2736793828334604051613627929190614a4a565b60405180910390a25050565b600360009054906101000a900473ffffffffffffffffffffffffffffffffffffffff1673ffffffffffffffffffffffffffffffffffffffff163373ffffffffffffffffffffffffffffffffffffffff161461368d57600080fd5b600360149054906101000a900460ff16156136a757600080fd5b60004290506000604051806101c00160405280838152602001848152602001600060038111156136da576136d9614e52565b5b815260200142815260200142815260200142815260200160008152602001604051806020016040528060008152508152602001604051806020016040528060008152508152602001604051806020016040528060008152508152602001600073ffffffffffffffffffffffffffffffffffffffff16815260200160008152602001600081526020016000815250905080600760008481526020019081526020016000206000820151816000015560208201518160010190805190602001906137a392919061409d565b5060408201518160020160006101000a81548160ff021916908360038111156137cf576137ce614e52565b5b0217905550606082015181600301556080820151816004015560a0820151816005015560c0820151816006015560e082015181600701908051906020019061381892919061409d565b5061010082015181600801908051906020019061383692919061409d565b5061012082015181600901908051906020019061385492919061409d565b5061014082015181600a0160006101000a81548173ffffffffffffffffffffffffffffffffffffffff021916908373ffffffffffffffffffffffffffffffffffffffff16021790555061016082015181600b015561018082015181600c01556101a082015181600d0155905050600582908060018154018082558091505060019003906000526020600020016000909190919091505560068390806001815401808255809150506001900390600052602060002001600090919091909150908051906020019061392592919061409d565b507f5937a473913f56daf7dea7a6e821970acaa73f35555cf88f70c54f243cd98a9e83836040516139579291906149dd565b60405180910390a1505050565b6000600360149054906101000a900460ff161561398057600080fd5b61398a33836126e0565b9050919050565b6000600360009054906101000a900473ffffffffffffffffffffffffffffffffffffffff1673ffffffffffffffffffffffffffffffffffffffff163373ffffffffffffffffffffffffffffffffffffffff1614905090565b60006139f533836125a9565b613a025760009050613a6b565b60011515600c600084815260200190815260200160002060003373ffffffffffffffffffffffffffffffffffffffff1673ffffffffffffffffffffffffffffffffffffffff16815260200190815260200160002060009054906101000a900460ff161515141590505b919050565b6000600360009054906101000a900473ffffffffffffffffffffffffffffffffffffffff16905090565b60006009600083815260200190815260200160002060008473ffffffffffffffffffffffffffffffffffffffff1673ffffffffffffffffffffffffffffffffffffffff16815260200190815260200160002060006101000a81548160ff0219169083151502179055506000600a600083815260200190815260200160002060008473ffffffffffffffffffffffffffffffffffffffff1673ffffffffffffffffffffffffffffffffffffffff1681526020019081526020016000205490506000600f60008481526020019081526020016000208281548110613b7f57613b7e614eb0565b5b90600052602060002090602091828204019190066101000a81548160ff0219169083151502179055508273ffffffffffffffffffffffffffffffffffffffff167fa0726c73cf6ad18ddb855ba65d1ddd4d7fd37d320f4e52f6b154c13d386f5fd983604051613bee9190614a2f565b60405180910390a2505050565b60006010600083815260200190815260200160002060008473ffffffffffffffffffffffffffffffffffffffff1673ffffffffffffffffffffffffffffffffffffffff16815260200190815260200160002060006101000a81548160ff021916908315150217905550600060076000838152602001908152602001600020600a0160006101000a81548173ffffffffffffffffffffffffffffffffffffffff021916908373ffffffffffffffffffffffffffffffffffffffff1602179055508173ffffffffffffffffffffffffffffffffffffffff167fda111d7eb5d5b2033c4ffad00cd7cd42f45af2813bee1a69e65f26d90ea15f0b82604051613d009190614a2f565b60405180910390a25050565b60016009600083815260200190815260200160002060008473ffffffffffffffffffffffffffffffffffffffff1673ffffffffffffffffffffffffffffffffffffffff16815260200190815260200160002060006101000a81548160ff021916908315150217905550600b54600a600083815260200190815260200160002060008473ffffffffffffffffffffffffffffffffffffffff1673ffffffffffffffffffffffffffffffffffffffff16815260200190815260200160002081905550600b6000815480929190613ddf90614dab565b9190505550600d6000828152602001908152602001600020829080600181540180825580915050600190039060005260206000200160009091909190916101000a81548173ffffffffffffffffffffffffffffffffffffffff021916908373ffffffffffffffffffffffffffffffffffffffff160217905550600f6000828152602001908152602001600020600190806001815401808255809150506001900390600052602060002090602091828204019190069091909190916101000a81548160ff0219169083151502179055508173ffffffffffffffffffffffffffffffffffffffff167f723c2b747529ca7f5eb53a74808f4a8b9bf264f0fc450fd904900151da74548a82604051613ef49190614a2f565b60405180910390a25050565b60016010600083815260200190815260200160002060008473ffffffffffffffffffffffffffffffffffffffff1673ffffffffffffffffffffffffffffffffffffffff16815260200190815260200160002060006101000a81548160ff0219169083151502179055508160076000838152602001908152602001600020600a0160006101000a81548173ffffffffffffffffffffffffffffffffffffffff021916908373ffffffffffffffffffffffffffffffffffffffff1602179055508173ffffffffffffffffffffffffffffffffffffffff167f5fd6d0b7e707fe344bd2a1887f9d0eeea8bfcac6f339ba4200e74f0647f101c0826040516140049190614a2f565b60405180910390a25050565b82805461401c90614d48565b90600052602060002090601f01602090048101928261403e576000855561408c565b82601f1061404f578054855561408c565b8280016001018555821561408c57600052602060002091601f016020900482015b8281111561408b578254825591600101919060010190614070565b5b50905061409991906141ba565b5090565b8280546140a990614d48565b90600052602060002090601f0160209004810192826140cb5760008555614112565b82601f106140e457805160ff1916838001178555614112565b82800160010185558215614112579182015b828111156141115782518255916020019190600101906140f6565b5b50905061411f91906141ba565b5090565b604051806101c0016040528060008152602001606081526020016000600381111561415157614150614e52565b5b815260200160008152602001600081526020016000815260200160008152602001606081526020016060815260200160608152602001600073ffffffffffffffffffffffffffffffffffffffff1681526020016000815260200160008152602001600081525090565b5b808211156141d35760008160009055506001016141bb565b5090565b60006141ea6141e584614a98565b614a73565b90508281526020810184848401111561420657614205614f13565b5b614211848285614d06565b509392505050565b60008135905061422881614f47565b92915050565b600082601f83011261424357614242614f0e565b5b81356142538482602086016141d7565b91505092915050565b60008135905061426b81614f5e565b92915050565b60006020828403121561428757614286614f1d565b5b600061429584828501614219565b91505092915050565b600080604083850312156142b5576142b4614f1d565b5b60006142c385828601614219565b92505060206142d48582860161425c565b9150509250929050565b6000602082840312156142f4576142f3614f1d565b5b600082013567ffffffffffffffff81111561431257614311614f18565b5b61431e8482850161422e565b91505092915050565b60006020828403121561433d5761433c614f1d565b5b600061434b8482850161425c565b91505092915050565b6000806000806080858703121561436e5761436d614f1d565b5b600061437c8782880161425c565b945050602085013567ffffffffffffffff81111561439d5761439c614f18565b5b6143a98782880161422e565b935050604085013567ffffffffffffffff8111156143ca576143c9614f18565b5b6143d68782880161422e565b925050606085013567ffffffffffffffff8111156143f7576143f6614f18565b5b6144038782880161422e565b91505092959194509250565b600061441b838361446b565b60208301905092915050565b60006144338383614618565b60208301905092915050565b600061444b8383614654565b905092915050565b600061445f8383614809565b60208301905092915050565b61447481614c99565b82525050565b61448381614c99565b82525050565b600061449482614b09565b61449e8185614b74565b93506144a983614ac9565b8060005b838110156144da5781516144c1888261440f565b97506144cc83614b40565b9250506001810190506144ad565b5085935050505092915050565b60006144f282614b14565b6144fc8185614b85565b935061450783614ad9565b8060005b8381101561453857815161451f8882614427565b975061452a83614b4d565b92505060018101905061450b565b5085935050505092915050565b600061455082614b1f565b61455a8185614b96565b93508360208202850161456c85614ae9565b8060005b858110156145a85784840389528151614589858261443f565b945061459483614b5a565b925060208a01995050600181019050614570565b50829750879550505050505092915050565b60006145c582614b2a565b6145cf8185614ba7565b93506145da83614af9565b8060005b8381101561460b5781516145f28882614453565b97506145fd83614b67565b9250506001810190506145de565b5085935050505092915050565b61462181614cab565b82525050565b61463081614cab565b82525050565b61463f81614cf4565b82525050565b61464e81614cf4565b82525050565b600061465f82614b35565b6146698185614bb8565b9350614679818560208601614d15565b61468281614f22565b840191505092915050565b600061469882614b35565b6146a28185614bc9565b93506146b2818560208601614d15565b6146bb81614f22565b840191505092915050565b60006101c0830160008301516146df6000860182614809565b50602083015184820360208601526146f78282614654565b915050604083015161470c6040860182614636565b50606083015161471f6060860182614809565b5060808301516147326080860182614809565b5060a083015161474560a0860182614809565b5060c083015161475860c0860182614809565b5060e083015184820360e08601526147708282614654565b91505061010083015184820361010086015261478c8282614654565b9150506101208301518482036101208601526147a88282614654565b9150506101408301516147bf61014086018261446b565b506101608301516147d4610160860182614809565b506101808301516147e9610180860182614809565b506101a08301516147fe6101a0860182614809565b508091505092915050565b61481281614cea565b82525050565b61482181614cea565b82525050565b600060208201905061483c600083018461447a565b92915050565b6000602082019050818103600083015261485c8184614489565b905092915050565b6000604082019050818103600083015261487e8185614489565b9050818103602083015261489281846144e7565b90509392505050565b600060208201905081810360008301526148b581846144e7565b905092915050565b600060208201905081810360008301526148d78184614545565b905092915050565b600060208201905081810360008301526148f981846145ba565b905092915050565b60006020820190506149166000830184614627565b92915050565b600060a0820190506149316000830188614645565b61493e6020830187614818565b61494b6040830186614818565b6149586060830185614818565b6149656080830184614818565b9695505050505050565b60006020820190508181036000830152614989818461468d565b905092915050565b600060608201905081810360008301526149ab818661468d565b905081810360208301526149bf818561468d565b905081810360408301526149d3818461468d565b9050949350505050565b600060408201905081810360008301526149f7818561468d565b9050614a066020830184614818565b9392505050565b60006020820190508181036000830152614a2781846146c6565b905092915050565b6000602082019050614a446000830184614818565b92915050565b6000604082019050614a5f6000830185614818565b614a6c6020830184614818565b9392505050565b6000614a7d614a8e565b9050614a898282614d7a565b919050565b6000604051905090565b600067ffffffffffffffff821115614ab357614ab2614edf565b5b614abc82614f22565b9050602081019050919050565b6000819050602082019050919050565b6000819050602082019050919050565b6000819050602082019050919050565b6000819050602082019050919050565b600081519050919050565b600081519050919050565b600081519050919050565b600081519050919050565b600081519050919050565b6000602082019050919050565b6000602082019050919050565b6000602082019050919050565b6000602082019050919050565b600082825260208201905092915050565b600082825260208201905092915050565b600082825260208201905092915050565b600082825260208201905092915050565b600082825260208201905092915050565b600082825260208201905092915050565b6000614be582614cea565b9150614bf083614cea565b925082614c0057614bff614e23565b5b828204905092915050565b6000614c1682614cea565b9150614c2183614cea565b9250817fffffffffffffffffffffffffffffffffffffffffffffffffffffffffffffffff0483118215151615614c5a57614c59614df4565b5b828202905092915050565b6000614c7082614cea565b9150614c7b83614cea565b925082821015614c8e57614c8d614df4565b5b828203905092915050565b6000614ca482614cca565b9050919050565b60008115159050919050565b6000819050614cc582614f33565b919050565b600073ffffffffffffffffffffffffffffffffffffffff82169050919050565b6000819050919050565b6000614cff82614cb7565b9050919050565b82818337600083830152505050565b60005b83811015614d33578082015181840152602081019050614d18565b83811115614d42576000848401525b50505050565b60006002820490506001821680614d6057607f821691505b60208210811415614d7457614d73614e81565b5b50919050565b614d8382614f22565b810181811067ffffffffffffffff82111715614da257614da1614edf565b5b80604052505050565b6000614db682614cea565b91507fffffffffffffffffffffffffffffffffffffffffffffffffffffffffffffffff821415614de957614de8614df4565b5b600182019050919050565b7f4e487b7100000000000000000000000000000000000000000000000000000000600052601160045260246000fd5b7f4e487b7100000000000000000000000000000000000000000000000000000000600052601260045260246000fd5b7f4e487b7100000000000000000000000000000000000000000000000000000000600052602160045260246000fd5b7f4e487b7100000000000000000000000000000000000000000000000000000000600052602260045260246000fd5b7f4e487b7100000000000000000000000000000000000000000000000000000000600052603260045260246000fd5b7f4e487b7100000000000000000000000000000000000000000000000000000000600052604160045260246000fd5b600080fd5b600080fd5b600080fd5b600080fd5b6000601f19601f8301169050919050565b60048110614f4457614f43614e52565b5b50565b614f5081614c99565b8114614f5b57600080fd5b50565b614f6781614cea565b8114614f7257600080fd5b5056fea26469706673582212206a8e286ef36781d8cc892a22912bfcbd8c52ce200c06c27a23ed5e2011ca12d964736f6c63430008060033",
  "immutableReferences": {},
  "source": "// SPDX-License-Identifier: MIT\npragma solidity ^0.8.0;\n\nimport \"../roles/AdminsManager.sol\";\n\ncontract EthDropCore is AdminsManager {\n    // Set in case the core contract is broken and an upgrade is required\n    address public newContractAddress;\n\n    /// @notice Creates the main EthDrop smart contract instance.\n    constructor () {\n        // Starts paused.\n\n        // TODO \n        paused = false;\n\n        // the creator of the contract is the initial CEO\n        ceoAddress = msg.sender;\n\n    }\n\n    /// @dev Used to mark the smart contract as upgraded, in case there is a serious\n    ///  breaking bug. This method does nothing but keep track of the new contract and\n    ///  emit a message indicating that the new address is set. It's up to clients of this\n    ///  contract to update to the new contract address in that case. (This contract will\n    ///  be paused indefinitely if such an upgrade takes place.)\n    /// @param _v2Address new address\n    function setNewAddress(address _v2Address) external onlyCEO whenPaused {\n        // See README.md for updgrade plan\n        newContractAddress = _v2Address;\n        emit ContractUpgrade(_v2Address);\n    }\n\n    function foobar() external pure returns (string memory) {\n        return \"foobarrrrrrr!\";\n    }\n}",
  "sourcePath": "/Users/jim/Git-Projects/EthDrop/contracts/core/EthDropCore.sol",
  "compiler": {
    "name": "solc",
    "version": "0.8.6+commit.11564f7e.Emscripten.clang"
  },
  "schemaVersion": "3.4.1",
  "updatedAt": "2021-07-27T00:30:01.404Z",
  "networkType": "ethereum",
  "devdoc": {
    "kind": "dev",
    "methods": {
      "pause()": {
        "details": "Called by any \"C-level\" role to pause the contract. Used only when  a bug or exploit is detected and we need to limit damage."
      },
      "setCEO(address)": {
        "details": "Assigns a new address to act as the CEO. Only available to the current CEO.",
        "params": {
          "_newCEO": "The address of the new CEO"
        }
      },
      "setCFO(address)": {
        "details": "Assigns a new address to act as the CFO. Only available to the current CEO.",
        "params": {
          "_newCFO": "The address of the new CFO"
        }
      },
      "setCOO(address)": {
        "details": "Assigns a new address to act as the COO. Only available to the current CEO.",
        "params": {
          "_newCOO": "The address of the new COO"
        }
      },
      "setNewAddress(address)": {
        "details": "Used to mark the smart contract as upgraded, in case there is a serious  breaking bug. This method does nothing but keep track of the new contract and  emit a message indicating that the new address is set. It's up to clients of this  contract to update to the new contract address in that case. (This contract will  be paused indefinitely if such an upgrade takes place.)",
        "params": {
          "_v2Address": "new address"
        }
      },
      "unpause()": {
        "details": "Unpauses the smart contract. Can only be called by the CEO, since  one reason we may pause the contract is when CFO or COO accounts are  compromised."
      }
    },
    "version": 1
  },
  "userdoc": {
    "kind": "user",
    "methods": {
      "constructor": {
        "notice": "Creates the main EthDrop smart contract instance."
      },
      "unpause()": {
        "notice": "This is public rather than external so it can be called by  derived contracts."
      }
    },
    "version": 1
  }
}