{
  "contractName": "EthDropBase",
  "abi": [
    {
      "anonymous": false,
      "inputs": [
        {
          "indexed": false,
          "internalType": "bool",
          "name": "isPaused",
          "type": "bool"
        }
      ],
      "name": "AppPaused",
      "type": "event"
    },
    {
      "anonymous": false,
      "inputs": [],
      "name": "CfoUpdated",
      "type": "event"
    },
    {
      "anonymous": false,
      "inputs": [
        {
          "indexed": false,
          "internalType": "address",
          "name": "newContract",
          "type": "address"
        }
      ],
      "name": "ContractUpgrade",
      "type": "event"
    },
    {
      "anonymous": false,
      "inputs": [],
      "name": "CooUpdated",
      "type": "event"
    },
    {
      "anonymous": false,
      "inputs": [],
      "name": "EventClose",
      "type": "event"
    },
    {
      "anonymous": false,
      "inputs": [],
      "name": "RegistrationOpen",
      "type": "event"
    },
    {
      "anonymous": false,
      "inputs": [
        {
          "indexed": false,
          "internalType": "address",
          "name": "from",
          "type": "address"
        },
        {
          "indexed": false,
          "internalType": "address",
          "name": "to",
          "type": "address"
        }
      ],
      "name": "Transfer",
      "type": "event"
    },
    {
      "anonymous": false,
      "inputs": [],
      "name": "WinningsClaimingOpen",
      "type": "event"
    },
    {
      "inputs": [],
      "name": "ceoAddress",
      "outputs": [
        {
          "internalType": "address",
          "name": "",
          "type": "address"
        }
      ],
      "stateMutability": "view",
      "type": "function"
    },
    {
      "inputs": [],
      "name": "cfoAddress",
      "outputs": [
        {
          "internalType": "address",
          "name": "",
          "type": "address"
        }
      ],
      "stateMutability": "view",
      "type": "function"
    },
    {
      "inputs": [],
      "name": "cooAddress",
      "outputs": [
        {
          "internalType": "address",
          "name": "",
          "type": "address"
        }
      ],
      "stateMutability": "view",
      "type": "function"
    },
    {
      "inputs": [],
      "name": "getCFO",
      "outputs": [
        {
          "internalType": "address",
          "name": "",
          "type": "address"
        }
      ],
      "stateMutability": "view",
      "type": "function"
    },
    {
      "inputs": [],
      "name": "getCOO",
      "outputs": [
        {
          "internalType": "address",
          "name": "",
          "type": "address"
        }
      ],
      "stateMutability": "view",
      "type": "function"
    },
    {
      "inputs": [],
      "name": "getString",
      "outputs": [
        {
          "internalType": "string",
          "name": "",
          "type": "string"
        }
      ],
      "stateMutability": "view",
      "type": "function"
    },
    {
      "inputs": [],
      "name": "isCEO",
      "outputs": [
        {
          "internalType": "bool",
          "name": "",
          "type": "bool"
        }
      ],
      "stateMutability": "view",
      "type": "function"
    },
    {
      "inputs": [],
      "name": "isCFO",
      "outputs": [
        {
          "internalType": "bool",
          "name": "",
          "type": "bool"
        }
      ],
      "stateMutability": "view",
      "type": "function"
    },
    {
      "inputs": [],
      "name": "isCOO",
      "outputs": [
        {
          "internalType": "bool",
          "name": "",
          "type": "bool"
        }
      ],
      "stateMutability": "view",
      "type": "function"
    },
    {
      "inputs": [],
      "name": "isPaused",
      "outputs": [
        {
          "internalType": "bool",
          "name": "",
          "type": "bool"
        }
      ],
      "stateMutability": "view",
      "type": "function"
    },
    {
      "inputs": [],
      "name": "pause",
      "outputs": [],
      "stateMutability": "nonpayable",
      "type": "function"
    },
    {
      "inputs": [],
      "name": "paused",
      "outputs": [
        {
          "internalType": "bool",
          "name": "",
          "type": "bool"
        }
      ],
      "stateMutability": "view",
      "type": "function"
    },
    {
      "inputs": [
        {
          "internalType": "address",
          "name": "_newCEO",
          "type": "address"
        }
      ],
      "name": "setCEO",
      "outputs": [],
      "stateMutability": "nonpayable",
      "type": "function"
    },
    {
      "inputs": [
        {
          "internalType": "address",
          "name": "_newCFO",
          "type": "address"
        }
      ],
      "name": "setCFO",
      "outputs": [],
      "stateMutability": "nonpayable",
      "type": "function"
    },
    {
      "inputs": [
        {
          "internalType": "address",
          "name": "_newCOO",
          "type": "address"
        }
      ],
      "name": "setCOO",
      "outputs": [],
      "stateMutability": "nonpayable",
      "type": "function"
    },
    {
      "inputs": [
        {
          "internalType": "string",
          "name": "_s",
          "type": "string"
        }
      ],
      "name": "setString",
      "outputs": [],
      "stateMutability": "nonpayable",
      "type": "function"
    },
    {
      "inputs": [],
      "name": "stringgg",
      "outputs": [
        {
          "internalType": "string",
          "name": "",
          "type": "string"
        }
      ],
      "stateMutability": "view",
      "type": "function"
    },
    {
      "inputs": [],
      "name": "unpause",
      "outputs": [
        {
          "internalType": "bool",
          "name": "",
          "type": "bool"
        }
      ],
      "stateMutability": "nonpayable",
      "type": "function"
    },
    {
      "inputs": [],
      "name": "whoami",
      "outputs": [
        {
          "internalType": "address",
          "name": "",
          "type": "address"
        }
      ],
      "stateMutability": "view",
      "type": "function"
    },
    {
      "inputs": [],
      "name": "getGroupIds",
      "outputs": [
        {
          "internalType": "uint256[]",
          "name": "",
          "type": "uint256[]"
        }
      ],
      "stateMutability": "view",
      "type": "function"
    },
    {
      "inputs": [],
      "name": "getGroupNames",
      "outputs": [
        {
          "internalType": "string[]",
          "name": "",
          "type": "string[]"
        }
      ],
      "stateMutability": "view",
      "type": "function"
    },
    {
      "inputs": [
        {
          "internalType": "uint256",
          "name": "groupId",
          "type": "uint256"
        }
      ],
      "name": "getGroupEventData",
      "outputs": [
        {
          "internalType": "enum EthDropBase.EventState",
          "name": "",
          "type": "uint8"
        },
        {
          "internalType": "uint256",
          "name": "",
          "type": "uint256"
        },
        {
          "internalType": "uint256",
          "name": "",
          "type": "uint256"
        },
        {
          "internalType": "uint256",
          "name": "",
          "type": "uint256"
        },
        {
          "internalType": "uint256",
          "name": "",
          "type": "uint256"
        }
      ],
      "stateMutability": "view",
      "type": "function"
    },
    {
      "inputs": [
        {
          "internalType": "uint256",
          "name": "groupId",
          "type": "uint256"
        }
      ],
      "name": "getGroupPublicData",
      "outputs": [
        {
          "internalType": "uint256",
          "name": "",
          "type": "uint256"
        },
        {
          "internalType": "string",
          "name": "",
          "type": "string"
        },
        {
          "internalType": "enum EthDropBase.EventState",
          "name": "",
          "type": "uint8"
        },
        {
          "internalType": "uint256",
          "name": "",
          "type": "uint256"
        },
        {
          "internalType": "uint256",
          "name": "",
          "type": "uint256"
        },
        {
          "internalType": "uint256",
          "name": "",
          "type": "uint256"
        },
        {
          "internalType": "uint256",
          "name": "",
          "type": "uint256"
        }
      ],
      "stateMutability": "view",
      "type": "function"
    }
  ],
  "bytecode": "0x608060405233600160006101000a81548173ffffffffffffffffffffffffffffffffffffffff021916908373ffffffffffffffffffffffffffffffffffffffff1602179055506000600360146101000a81548160ff0219169083151502179055506005805534801561007057600080fd5b50611c93806100806000396000f3fe608060405234801561001057600080fd5b506004361061014d5760003560e01c806389ea642f116100c3578063c6db50941161007c578063c6db50941461034a578063cd04e47514610368578063d5f016c31461039e578063e513b7a9146103bc578063f4a02e70146103da578063fc5fd6e4146103f85761014d565b806389ea642f146102965780639393ae37146102b4578063b047fb50146102d2578063b187bd26146102f0578063b3b36bb31461030e578063c02b8b2c1461032c5761014d565b80634635509b116101155780634635509b146101e45780634e0a3379146102185780635c975abb146102345780637b936ac2146102525780637fcaf666146102705780638456cb591461028c5761014d565b80630519ce79146101525780630a0f81681461017057806327d7874c1461018e5780632ba73c15146101aa5780633f4ba83a146101c6575b600080fd5b61015a610416565b60405161016791906117fd565b60405180910390f35b61017861043c565b60405161018591906117fd565b60405180910390f35b6101a860048036038101906101a3919061159e565b610462565b005b6101c460048036038101906101bf919061159e565b61053a565b005b6101ce61063e565b6040516101db919061185c565b60405180910390f35b6101fe60048036038101906101f99190611614565b6106e3565b60405161020f959493929190611877565b60405180910390f35b610232600480360381019061022d919061159e565b610a66565b005b61023c610b6a565b604051610249919061185c565b60405180910390f35b61025a610b7d565b60405161026791906117fd565b60405180910390f35b61028a600480360381019061028591906115cb565b610ba7565b005b610294610bc1565b005b61029e610d02565b6040516102ab91906118ca565b60405180910390f35b6102bc610d94565b6040516102c9919061185c565b60405180910390f35b6102da610dec565b6040516102e791906117fd565b60405180910390f35b6102f8610e12565b604051610305919061185c565b60405180910390f35b610316610e29565b60405161032391906117fd565b60405180910390f35b610334610e31565b604051610341919061183a565b60405180910390f35b610352610e89565b60405161035f91906118ca565b60405180910390f35b610382600480360381019061037d9190611614565b610f17565b60405161039597969594939291906118ec565b60405180910390f35b6103a66112ae565b6040516103b39190611818565b60405180910390f35b6103c4611387565b6040516103d1919061185c565b60405180910390f35b6103e26113df565b6040516103ef919061185c565b60405180910390f35b610400611437565b60405161040d91906117fd565b60405180910390f35b600260009054906101000a900473ffffffffffffffffffffffffffffffffffffffff1681565b600160009054906101000a900473ffffffffffffffffffffffffffffffffffffffff1681565b600160009054906101000a900473ffffffffffffffffffffffffffffffffffffffff1673ffffffffffffffffffffffffffffffffffffffff163373ffffffffffffffffffffffffffffffffffffffff16146104bc57600080fd5b600073ffffffffffffffffffffffffffffffffffffffff168173ffffffffffffffffffffffffffffffffffffffff1614156104f657600080fd5b80600160006101000a81548173ffffffffffffffffffffffffffffffffffffffff021916908373ffffffffffffffffffffffffffffffffffffffff16021790555050565b600160009054906101000a900473ffffffffffffffffffffffffffffffffffffffff1673ffffffffffffffffffffffffffffffffffffffff163373ffffffffffffffffffffffffffffffffffffffff161461059457600080fd5b600073ffffffffffffffffffffffffffffffffffffffff168173ffffffffffffffffffffffffffffffffffffffff1614156105ce57600080fd5b80600360006101000a81548173ffffffffffffffffffffffffffffffffffffffff021916908373ffffffffffffffffffffffffffffffffffffffff1602179055507fa308298a77084def994b565be25bff2e8fbfe7006c2c6b2bacfb84d1ba1f635060405160405180910390a150565b6000600160009054906101000a900473ffffffffffffffffffffffffffffffffffffffff1673ffffffffffffffffffffffffffffffffffffffff163373ffffffffffffffffffffffffffffffffffffffff161461069a57600080fd5b600360149054906101000a900460ff166106b357600080fd5b6000600360146101000a81548160ff021916908315150217905550600360149054906101000a900460ff16905090565b60008060008060008060086000888152602001908152602001600020604051806101c00160405290816000820154815260200160018201805461072590611b06565b80601f016020809104026020016040519081016040528092919081815260200182805461075190611b06565b801561079e5780601f106107735761010080835404028352916020019161079e565b820191906000526020600020905b81548152906001019060200180831161078157829003601f168201915b505050505081526020016002820160009054906101000a900460ff1660038111156107cc576107cb611b69565b5b60038111156107de576107dd611b69565b5b81526020016003820154815260200160048201548152602001600582015481526020016006820154815260200160078201805461081a90611b06565b80601f016020809104026020016040519081016040528092919081815260200182805461084690611b06565b80156108935780601f1061086857610100808354040283529160200191610893565b820191906000526020600020905b81548152906001019060200180831161087657829003601f168201915b505050505081526020016008820180546108ac90611b06565b80601f01602080910402602001604051908101604052809291908181526020018280546108d890611b06565b80156109255780601f106108fa57610100808354040283529160200191610925565b820191906000526020600020905b81548152906001019060200180831161090857829003601f168201915b5050505050815260200160098201805461093e90611b06565b80601f016020809104026020016040519081016040528092919081815260200182805461096a90611b06565b80156109b75780601f1061098c576101008083540402835291602001916109b7565b820191906000526020600020905b81548152906001019060200180831161099a57829003601f168201915b50505050508152602001600a820160009054906101000a900473ffffffffffffffffffffffffffffffffffffffff1673ffffffffffffffffffffffffffffffffffffffff1673ffffffffffffffffffffffffffffffffffffffff168152602001600b8201548152602001600c8201548152602001600d82015481525050905080604001518160c00151826101600151836101800151846101a00151955095509550955095505091939590929450565b600160009054906101000a900473ffffffffffffffffffffffffffffffffffffffff1673ffffffffffffffffffffffffffffffffffffffff163373ffffffffffffffffffffffffffffffffffffffff1614610ac057600080fd5b600073ffffffffffffffffffffffffffffffffffffffff168173ffffffffffffffffffffffffffffffffffffffff161415610afa57600080fd5b80600260006101000a81548173ffffffffffffffffffffffffffffffffffffffff021916908373ffffffffffffffffffffffffffffffffffffffff1602179055507f162e32528b5907ecf876b3b7a4e5e0edf878642e3ec25852e3c35af1a4e1c04060405160405180910390a150565b600360149054906101000a900460ff1681565b6000600260009054906101000a900473ffffffffffffffffffffffffffffffffffffffff16905090565b8060009080519060200190610bbd929190611461565b5050565b600360009054906101000a900473ffffffffffffffffffffffffffffffffffffffff1673ffffffffffffffffffffffffffffffffffffffff163373ffffffffffffffffffffffffffffffffffffffff161480610c6a5750600160009054906101000a900473ffffffffffffffffffffffffffffffffffffffff1673ffffffffffffffffffffffffffffffffffffffff163373ffffffffffffffffffffffffffffffffffffffff16145b80610cc25750600260009054906101000a900473ffffffffffffffffffffffffffffffffffffffff1673ffffffffffffffffffffffffffffffffffffffff163373ffffffffffffffffffffffffffffffffffffffff16145b610ccb57600080fd5b600360149054906101000a900460ff1615610ce557600080fd5b6001600360146101000a81548160ff021916908315150217905550565b606060008054610d1190611b06565b80601f0160208091040260200160405190810160405280929190818152602001828054610d3d90611b06565b8015610d8a5780601f10610d5f57610100808354040283529160200191610d8a565b820191906000526020600020905b815481529060010190602001808311610d6d57829003601f168201915b5050505050905090565b6000600260009054906101000a900473ffffffffffffffffffffffffffffffffffffffff1673ffffffffffffffffffffffffffffffffffffffff163373ffffffffffffffffffffffffffffffffffffffff1614905090565b600360009054906101000a900473ffffffffffffffffffffffffffffffffffffffff1681565b6000600360149054906101000a900460ff16905090565b600033905090565b60606006805480602002602001604051908101604052809291908181526020018280548015610e7f57602002820191906000526020600020905b815481526020019060010190808311610e6b575b5050505050905090565b60008054610e9690611b06565b80601f0160208091040260200160405190810160405280929190818152602001828054610ec290611b06565b8015610f0f5780601f10610ee457610100808354040283529160200191610f0f565b820191906000526020600020905b815481529060010190602001808311610ef257829003601f168201915b505050505081565b60006060600080600080600080600860008a8152602001908152602001600020604051806101c001604052908160008201548152602001600182018054610f5d90611b06565b80601f0160208091040260200160405190810160405280929190818152602001828054610f8990611b06565b8015610fd65780601f10610fab57610100808354040283529160200191610fd6565b820191906000526020600020905b815481529060010190602001808311610fb957829003601f168201915b505050505081526020016002820160009054906101000a900460ff16600381111561100457611003611b69565b5b600381111561101657611015611b69565b5b81526020016003820154815260200160048201548152602001600582015481526020016006820154815260200160078201805461105290611b06565b80601f016020809104026020016040519081016040528092919081815260200182805461107e90611b06565b80156110cb5780601f106110a0576101008083540402835291602001916110cb565b820191906000526020600020905b8154815290600101906020018083116110ae57829003601f168201915b505050505081526020016008820180546110e490611b06565b80601f016020809104026020016040519081016040528092919081815260200182805461111090611b06565b801561115d5780601f106111325761010080835404028352916020019161115d565b820191906000526020600020905b81548152906001019060200180831161114057829003601f168201915b5050505050815260200160098201805461117690611b06565b80601f01602080910402602001604051908101604052809291908181526020018280546111a290611b06565b80156111ef5780601f106111c4576101008083540402835291602001916111ef565b820191906000526020600020905b8154815290600101906020018083116111d257829003601f168201915b50505050508152602001600a820160009054906101000a900473ffffffffffffffffffffffffffffffffffffffff1673ffffffffffffffffffffffffffffffffffffffff1673ffffffffffffffffffffffffffffffffffffffff168152602001600b8201548152602001600c8201548152602001600d8201548152505090508060000151816020015182604001518360c00151846101600151856101800151866101a00151975097509750975097509750975050919395979092949650565b60606007805480602002602001604051908101604052809291908181526020016000905b8282101561137e5783829060005260206000200180546112f190611b06565b80601f016020809104026020016040519081016040528092919081815260200182805461131d90611b06565b801561136a5780601f1061133f5761010080835404028352916020019161136a565b820191906000526020600020905b81548152906001019060200180831161134d57829003601f168201915b5050505050815260200190600101906112d2565b50505050905090565b6000600160009054906101000a900473ffffffffffffffffffffffffffffffffffffffff1673ffffffffffffffffffffffffffffffffffffffff163373ffffffffffffffffffffffffffffffffffffffff1614905090565b6000600360009054906101000a900473ffffffffffffffffffffffffffffffffffffffff1673ffffffffffffffffffffffffffffffffffffffff163373ffffffffffffffffffffffffffffffffffffffff1614905090565b6000600360009054906101000a900473ffffffffffffffffffffffffffffffffffffffff16905090565b82805461146d90611b06565b90600052602060002090601f01602090048101928261148f57600085556114d6565b82601f106114a857805160ff19168380011785556114d6565b828001600101855582156114d6579182015b828111156114d55782518255916020019190600101906114ba565b5b5090506114e391906114e7565b5090565b5b808211156115005760008160009055506001016114e8565b5090565b600061151761151284611987565b611962565b90508281526020810184848401111561153357611532611bfb565b5b61153e848285611ac4565b509392505050565b60008135905061155581611c2f565b92915050565b600082601f8301126115705761156f611bf6565b5b8135611580848260208601611504565b91505092915050565b60008135905061159881611c46565b92915050565b6000602082840312156115b4576115b3611c05565b5b60006115c284828501611546565b91505092915050565b6000602082840312156115e1576115e0611c05565b5b600082013567ffffffffffffffff8111156115ff576115fe611c00565b5b61160b8482850161155b565b91505092915050565b60006020828403121561162a57611629611c05565b5b600061163884828501611589565b91505092915050565b600061164d838361176d565b905092915050565b600061166183836117df565b60208301905092915050565b61167681611a57565b82525050565b6000611687826119d8565b6116918185611a13565b9350836020820285016116a3856119b8565b8060005b858110156116df57848403895281516116c08582611641565b94506116cb836119f9565b925060208a019950506001810190506116a7565b50829750879550505050505092915050565b60006116fc826119e3565b6117068185611a24565b9350611711836119c8565b8060005b838110156117425781516117298882611655565b975061173483611a06565b925050600181019050611715565b5085935050505092915050565b61175881611a69565b82525050565b61176781611ab2565b82525050565b6000611778826119ee565b6117828185611a35565b9350611792818560208601611ad3565b61179b81611c0a565b840191505092915050565b60006117b1826119ee565b6117bb8185611a46565b93506117cb818560208601611ad3565b6117d481611c0a565b840191505092915050565b6117e881611aa8565b82525050565b6117f781611aa8565b82525050565b6000602082019050611812600083018461166d565b92915050565b60006020820190508181036000830152611832818461167c565b905092915050565b6000602082019050818103600083015261185481846116f1565b905092915050565b6000602082019050611871600083018461174f565b92915050565b600060a08201905061188c600083018861175e565b61189960208301876117ee565b6118a660408301866117ee565b6118b360608301856117ee565b6118c060808301846117ee565b9695505050505050565b600060208201905081810360008301526118e481846117a6565b905092915050565b600060e082019050611901600083018a6117ee565b818103602083015261191381896117a6565b9050611922604083018861175e565b61192f60608301876117ee565b61193c60808301866117ee565b61194960a08301856117ee565b61195660c08301846117ee565b98975050505050505050565b600061196c61197d565b90506119788282611b38565b919050565b6000604051905090565b600067ffffffffffffffff8211156119a2576119a1611bc7565b5b6119ab82611c0a565b9050602081019050919050565b6000819050602082019050919050565b6000819050602082019050919050565b600081519050919050565b600081519050919050565b600081519050919050565b6000602082019050919050565b6000602082019050919050565b600082825260208201905092915050565b600082825260208201905092915050565b600082825260208201905092915050565b600082825260208201905092915050565b6000611a6282611a88565b9050919050565b60008115159050919050565b6000819050611a8382611c1b565b919050565b600073ffffffffffffffffffffffffffffffffffffffff82169050919050565b6000819050919050565b6000611abd82611a75565b9050919050565b82818337600083830152505050565b60005b83811015611af1578082015181840152602081019050611ad6565b83811115611b00576000848401525b50505050565b60006002820490506001821680611b1e57607f821691505b60208210811415611b3257611b31611b98565b5b50919050565b611b4182611c0a565b810181811067ffffffffffffffff82111715611b6057611b5f611bc7565b5b80604052505050565b7f4e487b7100000000000000000000000000000000000000000000000000000000600052602160045260246000fd5b7f4e487b7100000000000000000000000000000000000000000000000000000000600052602260045260246000fd5b7f4e487b7100000000000000000000000000000000000000000000000000000000600052604160045260246000fd5b600080fd5b600080fd5b600080fd5b600080fd5b6000601f19601f8301169050919050565b60048110611c2c57611c2b611b69565b5b50565b611c3881611a57565b8114611c4357600080fd5b50565b611c4f81611aa8565b8114611c5a57600080fd5b5056fea26469706673582212204583207c9a0c59ee2d490351476495ad7e12193706f163bdefcfe7bb20c9201764736f6c63430008070033",
  "immutableReferences": {},
  "source": "// SPDX-License-Identifier: MIT\npragma solidity ^0.8.0;\n\nimport '../roles/ExecutivesAccessControl.sol';\n\ncontract EthDropBase is ExecutivesAccessControl {\n    /*** EVENTS ***/\n\n    uint256 foo;\n\n    /// @dev The RegistrationOpen event is fired whenever a new event starts and users can begin restering.\n    event RegistrationOpen();\n\n    /// @dev The RegistrationOpen event is fired whenever a new event starts and users can begin restering.\n    //    After this event fires users can no longer register, and users who have registered can claim winnings.\n    event WinningsClaimingOpen();\n\n    /// @dev The EventClose event is fired whenever an event closes. After this event is fired users can no\n    //    longer claim winnings\n    event EventClose();\n\n    /// @dev Transfer event as defined in current draft of ERC721. Emitted every some Eth is transferred\n\n    event Transfer(address from, address to); // Assumed Eth\n\n    // TODO - (in later, more than just eth contracts as pass tokenId)\n    // event Transfer(address from, address to, uint tokenId);\n\n    /*** DATA TYPES ***/\n\n    /// @dev The main Kitty struct. Every cat in CryptoKitties is represented by a copy\n    ///  of this structure, so great care was taken to ensure that it fits neatly into\n    ///  exactly two 256-bit words. Note that the order of the members in this structure\n    ///  is important because of the byte-packing rules used by Ethereum.\n    ///  Ref: http://solidity.readthedocs.io/en/develop/miscellaneous.html\n\n    // TODO - ^ think harder about all that byte-packing junk... \n\n    enum EventState {\n        CREATED,\n        REGISTRATION,\n        CLAIM_WINNINGS,\n        ENDED\n    }\n\n    uint256 devCutPercentage = 5;\n\n    struct EthDropEvent {\n        // The IRL organization that controls their own airdrops.\n        // Each group can only be running 1 event at a time.\n        uint256 groupId;\n        // Event goes through a linear flow of states, finite state machine.\n        string groupName;\n        // Event goes through a linear flow of states, finite state machine.\n        EventState currentState;\n        // The timestamp from the block when this event started.\n        uint256 startTime;\n        // The timestamp from the block when registration for this event ended.\n        uint256 registrationEndTime;\n        // The timestamp from the block when this event ended.\n        uint256 endTime;\n        // The number of eligibleRecipients who have registered.\n        uint256 registeredRecipientsCount;\n        // Data about the sponsor info (address is stored in Roles)\n        string sponsorName;\n        string sponsorImageUrl;\n        string sponsorLinkToUrl;\n        address currentContributor;\n        uint256 totalAmountContributed;\n        uint256 weiWinnings;\n        uint256 numberOfUsersWhoClaimedWinnings;\n    }\n\n    // ALL events happening now or in the future.\n    // Key is the groupId\n    uint256[] listOfGroupIds;\n    string[] listOfGroupNames;\n\n    // ALL events happening now or in the future.\n    // Key is the groupId\n    mapping(uint256 => EthDropEvent) currentEvents;\n\n    // ALL events that have already happened.\n    // Key is the groupId\n    mapping(uint256 => EthDropEvent[]) pastEvents;\n\n    // groupId => index in arrays for this specific address\n    mapping(uint256 => mapping(address => uint256)) adminAddressToIndex;\n\n    // groupId => nextAvailableIndex\n    mapping(uint256 => uint256) nextAdminIndexForGroup;\n\n    // groupId => list of admin addresses\n    mapping(uint256 => address[]) adminAddresses;\n\n    // groupId => list of admin names\n    mapping(uint256 => string[]) adminNames;\n\n    // groupId => whether of not user is an admin\n    mapping(uint256 => bool[]) adminEnabled;\n\n    mapping(uint256 => mapping(address => bool)) eligibleRecipients;\n\n    mapping(uint256 => mapping(address => uint256)) eligibleRecipientsAddresstoIndex;\n    mapping(uint256 => uint256) nextEligibleRecipientIndexForGroup;\n\n    mapping(uint256 => address[]) eligibleRecipientAddressesArray;\n    mapping(uint256 => string[]) eligibleRecipientNamesArray;\n    mapping(uint256 => bool[]) eligibleRecipientsEligibilityIsEnabled;\n\n    mapping(uint256 => mapping(address => bool)) winningsCollected;\n\n    // Holds ALL contributors for all groups\n    // groupId => Role\n    mapping(uint256 => mapping(address => bool)) contributors;\n\n    mapping(uint256 => mapping(address => uint256)) requestsToJoinGroupAddressToIndex;\n\n    mapping(uint256 => uint256) requestsToJoinGroupNextIndex;\n\n    mapping(uint256 => address[]) requestsToJoinGroupAddresses;\n    mapping(uint256 => string[]) requestsToJoinGroupNames;\n    mapping(uint256 => bool[]) requestedToJoinGroup;\n    mapping(uint256 => bool[]) requestsToJoinGroupApprovals;\n\n    mapping(uint256 => mapping(address => uint256)) registeredRecipientsAddressToIndex;\n\n    mapping(uint256 => uint256) registeredRecipientsNextIndex;\n    mapping(uint256 => string[]) registeredRecipientNamesArray;\n    mapping(uint256 => address[]) registeredRecipientAddressesArray;\n    mapping(uint256 => bool[]) registeredRecipientsWinningsCollected;\n\n    function getGroupIds() external view returns (uint256[] memory) {\n        return listOfGroupIds;\n    }\n\n    function getGroupNames() external view returns (string[] memory) {\n        return listOfGroupNames;\n    }\n\n    // stack too deep\n    // function getGroupEventData(uint256 groupId)\n    //     external\n    //     view\n    //     returns (\n    //         uint256, // groupId\n    //         // Event goes through a linear flow of states, finite state machine.\n    //         string memory, // groupName\n    //         // Event goes through a linear flow of states, finite state machine.\n    //         EventState, // currentState,\n    //         // The timestamp from the block when this event started.\n    //         // uint256, // startTime,\n    //         // // The timestamp from the block when registration for this event ended.\n    //         // uint256, // registrationEndTime,\n    //         // // The timestamp from the bock when this event ended.\n    //         // uint256, // endTime,\n    //         // The number of eligibleRecipients who have registered.\n    //         uint256, // registeredRecipientsCount,\n    //         // Data about the sponsor info (address is stored in Roles)\n    //         string memory, // sponsorName,\n    //         string memory, // sponsorImageUrl,\n    //         string memory, // sponsorLinkToUrl,\n    //         address // currentContributor,\n    //     )\n    // {\n    //     // EthDropEvent memory groupData = currentEvents[groupId];\n\n    //     return (\n    //         currentEvents[groupId].groupId,\n    //         currentEvents[groupId].groupName,\n    //         currentEvents[groupId].currentState,\n    //         // groupData.startTime,\n    //         // groupData.registrationEndTime,\n    //         // groupData.endTime,\n    //         currentEvents[groupId].registeredRecipientsCount,\n    //         currentEvents[groupId].sponsorName,\n    //         currentEvents[groupId].sponsorImageUrl,\n    //         currentEvents[groupId].sponsorLinkToUrl,\n    //         currentEvents[groupId].currentContributor\n    //     );\n    // }\n\n    // DEPRECATED\n    function getGroupEventData(uint256 groupId)\n        external\n        view\n        returns (\n            // uint256, // groupId\n            // Event goes through a linear flow of states, finite state machine.\n            // string memory, // groupName\n            // Event goes through a linear flow of states, finite state machine.\n            EventState, // currentState,\n            // The timestamp from the block when this event started.\n            // uint256, // startTime,\n            // // The timestamp from the block when registration for this event ended.\n            // uint256, // registrationEndTime,\n            // // The timestamp from the bock when this event ended.\n            // uint256, // endTime,\n            // The number of eligibleRecipients who have registered.\n            uint256, // registeredRecipientsCount,\n            uint256, // total amount contributed,\n            // uint256, // registeredRecipientsCount,\n            // Data about the sponsor info (address is stored in Roles)\n\n            uint256,\n            uint256\n        )\n    // address // currentContributor,\n    {\n        EthDropEvent memory groupData = currentEvents[groupId];\n\n        return (\n            // groupData.groupId,\n            // groupData.groupName,\n            groupData.currentState,\n            // groupData.startTime,\n            // groupData.registrationEndTime,\n            // groupData.endTime,\n            groupData.registeredRecipientsCount,\n            groupData.totalAmountContributed,\n            groupData.weiWinnings,\n            groupData.numberOfUsersWhoClaimedWinnings\n            // groupData.currentContributor\n        );\n    }\n\n    function getGroupPublicData(uint256 groupId)\n        external\n        view\n        returns (\n            uint256, // groupId\n            string memory, // groupName\n            EventState, // currentState,\n            uint256, // registeredRecipientsCount,\n            uint256, // total amount contributed,\n            uint256, // wei winnings (for each recipient)\n            uint256 // number of users whoh have claimed winnings\n        )\n    {\n        EthDropEvent memory groupData = currentEvents[groupId];\n\n        return (\n            groupData.groupId,\n            groupData.groupName,\n            groupData.currentState,\n            groupData.registeredRecipientsCount,\n            groupData.totalAmountContributed,\n            groupData.weiWinnings,\n            groupData.numberOfUsersWhoClaimedWinnings\n        );\n    }\n}\n",
  "sourcePath": "/Users/jim/trash/EthDrop/contracts/core/EthDropBase.sol",
  "compiler": {
    "name": "solc",
    "version": "0.8.7+commit.e28d00a7.Emscripten.clang"
  },
  "schemaVersion": "3.4.3",
  "updatedAt": "2021-09-12T18:48:55.979Z",
  "devdoc": {
    "events": {
      "EventClose()": {
        "details": "The EventClose event is fired whenever an event closes. After this event is fired users can no"
      },
      "RegistrationOpen()": {
        "details": "The RegistrationOpen event is fired whenever a new event starts and users can begin restering."
      },
      "Transfer(address,address)": {
        "details": "Transfer event as defined in current draft of ERC721. Emitted every some Eth is transferred"
      },
      "WinningsClaimingOpen()": {
        "details": "The RegistrationOpen event is fired whenever a new event starts and users can begin restering."
      }
    },
    "kind": "dev",
    "methods": {
      "pause()": {
        "details": "Called by any \"C-level\" role to pause the contract. Used only when  a bug or exploit is detected and we need to limit damage."
      },
      "setCEO(address)": {
        "details": "Assigns a new address to act as the CEO. Only available to the current CEO.",
        "params": {
          "_newCEO": "The address of the new CEO"
        }
      },
      "setCFO(address)": {
        "details": "Assigns a new address to act as the CFO. Only available to the current CEO.",
        "params": {
          "_newCFO": "The address of the new CFO"
        }
      },
      "setCOO(address)": {
        "details": "Assigns a new address to act as the COO. Only available to the current CEO.",
        "params": {
          "_newCOO": "The address of the new COO"
        }
      },
      "unpause()": {
        "details": "Unpauses the smart contract. Can only be called by the CEO, since  one reason we may pause the contract is when CFO or COO accounts are  compromised."
      }
    },
    "version": 1
  },
  "userdoc": {
    "kind": "user",
    "methods": {
      "unpause()": {
        "notice": "This is public rather than external so it can be called by  derived contracts."
      }
    },
    "version": 1
  }
}