{
  "contractName": "EthDropCore",
  "abi": [
    {
      "inputs": [],
      "stateMutability": "nonpayable",
      "type": "constructor"
    },
    {
      "anonymous": false,
      "inputs": [
        {
          "indexed": true,
          "internalType": "address",
          "name": "account",
          "type": "address"
        },
        {
          "indexed": false,
          "internalType": "uint256",
          "name": "groupId",
          "type": "uint256"
        }
      ],
      "name": "AdminAdded",
      "type": "event"
    },
    {
      "anonymous": false,
      "inputs": [
        {
          "indexed": true,
          "internalType": "address",
          "name": "account",
          "type": "address"
        },
        {
          "indexed": false,
          "internalType": "uint256",
          "name": "groupId",
          "type": "uint256"
        }
      ],
      "name": "AdminRemoved",
      "type": "event"
    },
    {
      "anonymous": false,
      "inputs": [
        {
          "indexed": false,
          "internalType": "uint256",
          "name": "registeredRecipientCount",
          "type": "uint256"
        },
        {
          "indexed": false,
          "internalType": "uint256",
          "name": "winningsPerRecipient",
          "type": "uint256"
        }
      ],
      "name": "CalculatedPot",
      "type": "event"
    },
    {
      "anonymous": false,
      "inputs": [
        {
          "indexed": false,
          "internalType": "address",
          "name": "newContract",
          "type": "address"
        }
      ],
      "name": "ContractUpgrade",
      "type": "event"
    },
    {
      "anonymous": false,
      "inputs": [
        {
          "indexed": true,
          "internalType": "address",
          "name": "account",
          "type": "address"
        },
        {
          "indexed": false,
          "internalType": "uint256",
          "name": "groupId",
          "type": "uint256"
        },
        {
          "indexed": false,
          "internalType": "uint256",
          "name": "amount",
          "type": "uint256"
        }
      ],
      "name": "ContributionMade",
      "type": "event"
    },
    {
      "anonymous": false,
      "inputs": [
        {
          "indexed": true,
          "internalType": "address",
          "name": "account",
          "type": "address"
        },
        {
          "indexed": false,
          "internalType": "uint256",
          "name": "groupId",
          "type": "uint256"
        }
      ],
      "name": "ContributorAdded",
      "type": "event"
    },
    {
      "anonymous": false,
      "inputs": [
        {
          "indexed": true,
          "internalType": "address",
          "name": "account",
          "type": "address"
        },
        {
          "indexed": false,
          "internalType": "uint256",
          "name": "groupId",
          "type": "uint256"
        }
      ],
      "name": "ContributorRemoved",
      "type": "event"
    },
    {
      "anonymous": false,
      "inputs": [
        {
          "indexed": true,
          "internalType": "address",
          "name": "account",
          "type": "address"
        },
        {
          "indexed": false,
          "internalType": "uint256",
          "name": "groupId",
          "type": "uint256"
        }
      ],
      "name": "EligibleRecipientAdded",
      "type": "event"
    },
    {
      "anonymous": false,
      "inputs": [
        {
          "indexed": true,
          "internalType": "address",
          "name": "account",
          "type": "address"
        },
        {
          "indexed": false,
          "internalType": "uint256",
          "name": "groupId",
          "type": "uint256"
        }
      ],
      "name": "EligibleRecipientRemoved",
      "type": "event"
    },
    {
      "anonymous": false,
      "inputs": [],
      "name": "EventClose",
      "type": "event"
    },
    {
      "anonymous": false,
      "inputs": [
        {
          "indexed": true,
          "internalType": "address",
          "name": "endedBy",
          "type": "address"
        },
        {
          "indexed": false,
          "internalType": "uint256",
          "name": "groupId",
          "type": "uint256"
        }
      ],
      "name": "EventEnded",
      "type": "event"
    },
    {
      "anonymous": false,
      "inputs": [
        {
          "indexed": true,
          "internalType": "address",
          "name": "startedBy",
          "type": "address"
        },
        {
          "indexed": false,
          "internalType": "uint256",
          "name": "groupId",
          "type": "uint256"
        }
      ],
      "name": "EventStarted",
      "type": "event"
    },
    {
      "anonymous": false,
      "inputs": [
        {
          "indexed": true,
          "internalType": "address",
          "name": "creator",
          "type": "address"
        },
        {
          "indexed": false,
          "internalType": "uint256",
          "name": "groupId",
          "type": "uint256"
        }
      ],
      "name": "GroupCreated",
      "type": "event"
    },
    {
      "anonymous": false,
      "inputs": [
        {
          "indexed": true,
          "internalType": "address",
          "name": "account",
          "type": "address"
        },
        {
          "indexed": false,
          "internalType": "uint256",
          "name": "groupId",
          "type": "uint256"
        }
      ],
      "name": "RecipientRegistered",
      "type": "event"
    },
    {
      "anonymous": false,
      "inputs": [
        {
          "indexed": true,
          "internalType": "address",
          "name": "endedBy",
          "type": "address"
        },
        {
          "indexed": false,
          "internalType": "uint256",
          "name": "groupId",
          "type": "uint256"
        }
      ],
      "name": "RegistrationEnded",
      "type": "event"
    },
    {
      "anonymous": false,
      "inputs": [],
      "name": "RegistrationOpen",
      "type": "event"
    },
    {
      "anonymous": false,
      "inputs": [
        {
          "indexed": false,
          "internalType": "address",
          "name": "from",
          "type": "address"
        },
        {
          "indexed": false,
          "internalType": "address",
          "name": "to",
          "type": "address"
        }
      ],
      "name": "Transfer",
      "type": "event"
    },
    {
      "anonymous": false,
      "inputs": [
        {
          "indexed": true,
          "internalType": "address",
          "name": "account",
          "type": "address"
        },
        {
          "indexed": false,
          "internalType": "uint256",
          "name": "groupId",
          "type": "uint256"
        }
      ],
      "name": "WinningsClaimed",
      "type": "event"
    },
    {
      "anonymous": false,
      "inputs": [],
      "name": "WinningsClaimingOpen",
      "type": "event"
    },
    {
      "inputs": [
        {
          "internalType": "address",
          "name": "account",
          "type": "address"
        },
        {
          "internalType": "uint256",
          "name": "groupId",
          "type": "uint256"
        }
      ],
      "name": "addAdmin",
      "outputs": [],
      "stateMutability": "nonpayable",
      "type": "function"
    },
    {
      "inputs": [
        {
          "internalType": "address",
          "name": "account",
          "type": "address"
        },
        {
          "internalType": "uint256",
          "name": "groupId",
          "type": "uint256"
        }
      ],
      "name": "addEligibleRecipient",
      "outputs": [],
      "stateMutability": "nonpayable",
      "type": "function"
    },
    {
      "inputs": [
        {
          "internalType": "uint256",
          "name": "groupId",
          "type": "uint256"
        }
      ],
      "name": "amIAdmin",
      "outputs": [
        {
          "internalType": "bool",
          "name": "",
          "type": "bool"
        }
      ],
      "stateMutability": "view",
      "type": "function",
      "constant": true
    },
    {
      "inputs": [
        {
          "internalType": "uint256",
          "name": "groupId",
          "type": "uint256"
        }
      ],
      "name": "amIContributor",
      "outputs": [
        {
          "internalType": "bool",
          "name": "",
          "type": "bool"
        }
      ],
      "stateMutability": "view",
      "type": "function",
      "constant": true
    },
    {
      "inputs": [
        {
          "internalType": "uint256",
          "name": "groupId",
          "type": "uint256"
        }
      ],
      "name": "amIEligibleRecipient",
      "outputs": [
        {
          "internalType": "bool",
          "name": "",
          "type": "bool"
        }
      ],
      "stateMutability": "view",
      "type": "function",
      "constant": true
    },
    {
      "inputs": [
        {
          "internalType": "uint256",
          "name": "groupId",
          "type": "uint256"
        }
      ],
      "name": "amIRegisteredRecipient",
      "outputs": [
        {
          "internalType": "bool",
          "name": "",
          "type": "bool"
        }
      ],
      "stateMutability": "view",
      "type": "function",
      "constant": true
    },
    {
      "inputs": [],
      "name": "ceoAddress",
      "outputs": [
        {
          "internalType": "address",
          "name": "",
          "type": "address"
        }
      ],
      "stateMutability": "view",
      "type": "function",
      "constant": true
    },
    {
      "inputs": [],
      "name": "cfoAddress",
      "outputs": [
        {
          "internalType": "address",
          "name": "",
          "type": "address"
        }
      ],
      "stateMutability": "view",
      "type": "function",
      "constant": true
    },
    {
      "inputs": [
        {
          "internalType": "address",
          "name": "account",
          "type": "address"
        },
        {
          "internalType": "uint256",
          "name": "groupId",
          "type": "uint256"
        }
      ],
      "name": "changeContributor",
      "outputs": [],
      "stateMutability": "nonpayable",
      "type": "function"
    },
    {
      "inputs": [
        {
          "internalType": "uint256",
          "name": "groupId",
          "type": "uint256"
        }
      ],
      "name": "claimWinnings",
      "outputs": [],
      "stateMutability": "nonpayable",
      "type": "function"
    },
    {
      "inputs": [
        {
          "internalType": "uint256",
          "name": "groupId",
          "type": "uint256"
        }
      ],
      "name": "closeEventRegistration",
      "outputs": [],
      "stateMutability": "nonpayable",
      "type": "function"
    },
    {
      "inputs": [
        {
          "internalType": "uint256",
          "name": "groupId",
          "type": "uint256"
        }
      ],
      "name": "contributeToPot",
      "outputs": [],
      "stateMutability": "payable",
      "type": "function",
      "payable": true
    },
    {
      "inputs": [],
      "name": "cooAddress",
      "outputs": [
        {
          "internalType": "address",
          "name": "",
          "type": "address"
        }
      ],
      "stateMutability": "view",
      "type": "function",
      "constant": true
    },
    {
      "inputs": [
        {
          "internalType": "string",
          "name": "groupName",
          "type": "string"
        }
      ],
      "name": "createNewGroup",
      "outputs": [],
      "stateMutability": "nonpayable",
      "type": "function"
    },
    {
      "inputs": [
        {
          "internalType": "uint256",
          "name": "groupId",
          "type": "uint256"
        }
      ],
      "name": "doIHaveClaimableWinnings",
      "outputs": [
        {
          "internalType": "bool",
          "name": "",
          "type": "bool"
        }
      ],
      "stateMutability": "view",
      "type": "function",
      "constant": true
    },
    {
      "inputs": [
        {
          "internalType": "uint256",
          "name": "groupId",
          "type": "uint256"
        }
      ],
      "name": "endEvent",
      "outputs": [],
      "stateMutability": "nonpayable",
      "type": "function"
    },
    {
      "inputs": [
        {
          "internalType": "uint256",
          "name": "groupId",
          "type": "uint256"
        }
      ],
      "name": "getAdminsForGroup",
      "outputs": [
        {
          "internalType": "address[]",
          "name": "",
          "type": "address[]"
        },
        {
          "internalType": "bool[]",
          "name": "",
          "type": "bool[]"
        }
      ],
      "stateMutability": "view",
      "type": "function",
      "constant": true
    },
    {
      "inputs": [],
      "name": "getCFO",
      "outputs": [
        {
          "internalType": "address",
          "name": "",
          "type": "address"
        }
      ],
      "stateMutability": "view",
      "type": "function",
      "constant": true
    },
    {
      "inputs": [],
      "name": "getCOO",
      "outputs": [
        {
          "internalType": "address",
          "name": "",
          "type": "address"
        }
      ],
      "stateMutability": "view",
      "type": "function",
      "constant": true
    },
    {
      "inputs": [
        {
          "internalType": "uint256",
          "name": "groupId",
          "type": "uint256"
        }
      ],
      "name": "getContributorInfo",
      "outputs": [
        {
          "internalType": "string",
          "name": "newContributorName",
          "type": "string"
        },
        {
          "internalType": "string",
          "name": "newContributorImgUrl",
          "type": "string"
        },
        {
          "internalType": "string",
          "name": "newContributorLinkToUrl",
          "type": "string"
        }
      ],
      "stateMutability": "view",
      "type": "function",
      "constant": true
    },
    {
      "inputs": [
        {
          "internalType": "uint256",
          "name": "groupId",
          "type": "uint256"
        }
      ],
      "name": "getCurrentSponsorAddress",
      "outputs": [
        {
          "internalType": "address",
          "name": "",
          "type": "address"
        }
      ],
      "stateMutability": "view",
      "type": "function",
      "constant": true
    },
    {
      "inputs": [
        {
          "internalType": "uint256",
          "name": "groupId",
          "type": "uint256"
        }
      ],
      "name": "getEligibleRecipientAddresses",
      "outputs": [
        {
          "internalType": "address[]",
          "name": "",
          "type": "address[]"
        }
      ],
      "stateMutability": "view",
      "type": "function",
      "constant": true
    },
    {
      "inputs": [
        {
          "internalType": "uint256",
          "name": "groupId",
          "type": "uint256"
        }
      ],
      "name": "getEligibleRecipientIsEligibilityEnabled",
      "outputs": [
        {
          "internalType": "bool[]",
          "name": "",
          "type": "bool[]"
        }
      ],
      "stateMutability": "view",
      "type": "function",
      "constant": true
    },
    {
      "inputs": [
        {
          "internalType": "uint256",
          "name": "groupId",
          "type": "uint256"
        }
      ],
      "name": "getGroupEventData",
      "outputs": [
        {
          "internalType": "enum EthDropBase.EventState",
          "name": "",
          "type": "uint8"
        },
        {
          "internalType": "uint256",
          "name": "",
          "type": "uint256"
        },
        {
          "internalType": "uint256",
          "name": "",
          "type": "uint256"
        },
        {
          "internalType": "uint256",
          "name": "",
          "type": "uint256"
        },
        {
          "internalType": "uint256",
          "name": "",
          "type": "uint256"
        }
      ],
      "stateMutability": "view",
      "type": "function",
      "constant": true
    },
    {
      "inputs": [],
      "name": "getGroupIds",
      "outputs": [
        {
          "internalType": "uint256[]",
          "name": "",
          "type": "uint256[]"
        }
      ],
      "stateMutability": "view",
      "type": "function",
      "constant": true
    },
    {
      "inputs": [],
      "name": "getGroupNames",
      "outputs": [
        {
          "internalType": "string[]",
          "name": "",
          "type": "string[]"
        }
      ],
      "stateMutability": "view",
      "type": "function",
      "constant": true
    },
    {
      "inputs": [
        {
          "internalType": "uint256",
          "name": "groupId",
          "type": "uint256"
        }
      ],
      "name": "getRegisteredRecipients",
      "outputs": [
        {
          "internalType": "address[]",
          "name": "",
          "type": "address[]"
        }
      ],
      "stateMutability": "view",
      "type": "function",
      "constant": true
    },
    {
      "inputs": [],
      "name": "getString",
      "outputs": [
        {
          "internalType": "string",
          "name": "",
          "type": "string"
        }
      ],
      "stateMutability": "view",
      "type": "function",
      "constant": true
    },
    {
      "inputs": [
        {
          "internalType": "address",
          "name": "account",
          "type": "address"
        },
        {
          "internalType": "uint256",
          "name": "groupId",
          "type": "uint256"
        }
      ],
      "name": "isAdmin",
      "outputs": [
        {
          "internalType": "bool",
          "name": "",
          "type": "bool"
        }
      ],
      "stateMutability": "view",
      "type": "function",
      "constant": true
    },
    {
      "inputs": [],
      "name": "isCEO",
      "outputs": [
        {
          "internalType": "bool",
          "name": "",
          "type": "bool"
        }
      ],
      "stateMutability": "view",
      "type": "function",
      "constant": true
    },
    {
      "inputs": [],
      "name": "isCFO",
      "outputs": [
        {
          "internalType": "bool",
          "name": "",
          "type": "bool"
        }
      ],
      "stateMutability": "view",
      "type": "function",
      "constant": true
    },
    {
      "inputs": [],
      "name": "isCOO",
      "outputs": [
        {
          "internalType": "bool",
          "name": "",
          "type": "bool"
        }
      ],
      "stateMutability": "view",
      "type": "function",
      "constant": true
    },
    {
      "inputs": [
        {
          "internalType": "address",
          "name": "account",
          "type": "address"
        },
        {
          "internalType": "uint256",
          "name": "groupId",
          "type": "uint256"
        }
      ],
      "name": "isContributor",
      "outputs": [
        {
          "internalType": "bool",
          "name": "",
          "type": "bool"
        }
      ],
      "stateMutability": "view",
      "type": "function",
      "constant": true
    },
    {
      "inputs": [
        {
          "internalType": "address",
          "name": "account",
          "type": "address"
        },
        {
          "internalType": "uint256",
          "name": "groupId",
          "type": "uint256"
        }
      ],
      "name": "isEligibleRecipient",
      "outputs": [
        {
          "internalType": "bool",
          "name": "",
          "type": "bool"
        }
      ],
      "stateMutability": "view",
      "type": "function",
      "constant": true
    },
    {
      "inputs": [],
      "name": "isPaused",
      "outputs": [
        {
          "internalType": "bool",
          "name": "",
          "type": "bool"
        }
      ],
      "stateMutability": "view",
      "type": "function",
      "constant": true
    },
    {
      "inputs": [
        {
          "internalType": "address",
          "name": "account",
          "type": "address"
        },
        {
          "internalType": "uint256",
          "name": "groupId",
          "type": "uint256"
        }
      ],
      "name": "isRegisteredRecipient",
      "outputs": [
        {
          "internalType": "bool",
          "name": "",
          "type": "bool"
        }
      ],
      "stateMutability": "view",
      "type": "function",
      "constant": true
    },
    {
      "inputs": [],
      "name": "newContractAddress",
      "outputs": [
        {
          "internalType": "address",
          "name": "",
          "type": "address"
        }
      ],
      "stateMutability": "view",
      "type": "function",
      "constant": true
    },
    {
      "inputs": [],
      "name": "pause",
      "outputs": [],
      "stateMutability": "nonpayable",
      "type": "function"
    },
    {
      "inputs": [],
      "name": "paused",
      "outputs": [
        {
          "internalType": "bool",
          "name": "",
          "type": "bool"
        }
      ],
      "stateMutability": "view",
      "type": "function",
      "constant": true
    },
    {
      "inputs": [
        {
          "internalType": "uint256",
          "name": "groupId",
          "type": "uint256"
        }
      ],
      "name": "readEventInfo",
      "outputs": [
        {
          "components": [
            {
              "internalType": "uint256",
              "name": "groupId",
              "type": "uint256"
            },
            {
              "internalType": "string",
              "name": "groupName",
              "type": "string"
            },
            {
              "internalType": "enum EthDropBase.EventState",
              "name": "currentState",
              "type": "uint8"
            },
            {
              "internalType": "uint256",
              "name": "startTime",
              "type": "uint256"
            },
            {
              "internalType": "uint256",
              "name": "registrationEndTime",
              "type": "uint256"
            },
            {
              "internalType": "uint256",
              "name": "endTime",
              "type": "uint256"
            },
            {
              "internalType": "uint256",
              "name": "registeredRecipientsCount",
              "type": "uint256"
            },
            {
              "internalType": "string",
              "name": "sponsorName",
              "type": "string"
            },
            {
              "internalType": "string",
              "name": "sponsorImageUrl",
              "type": "string"
            },
            {
              "internalType": "string",
              "name": "sponsorLinkToUrl",
              "type": "string"
            },
            {
              "internalType": "address",
              "name": "currentContributor",
              "type": "address"
            },
            {
              "internalType": "uint256",
              "name": "totalAmountContributed",
              "type": "uint256"
            },
            {
              "internalType": "uint256",
              "name": "weiWinnings",
              "type": "uint256"
            },
            {
              "internalType": "uint256",
              "name": "numberOfUsersWhoClaimedWinnings",
              "type": "uint256"
            }
          ],
          "internalType": "struct EthDropBase.EthDropEvent",
          "name": "",
          "type": "tuple"
        }
      ],
      "stateMutability": "view",
      "type": "function",
      "constant": true
    },
    {
      "inputs": [
        {
          "internalType": "uint256",
          "name": "groupId",
          "type": "uint256"
        }
      ],
      "name": "registerForEvent",
      "outputs": [],
      "stateMutability": "nonpayable",
      "type": "function"
    },
    {
      "inputs": [
        {
          "internalType": "address",
          "name": "account",
          "type": "address"
        },
        {
          "internalType": "uint256",
          "name": "groupId",
          "type": "uint256"
        }
      ],
      "name": "removeAdmin",
      "outputs": [],
      "stateMutability": "nonpayable",
      "type": "function"
    },
    {
      "inputs": [
        {
          "internalType": "address",
          "name": "account",
          "type": "address"
        },
        {
          "internalType": "uint256",
          "name": "groupId",
          "type": "uint256"
        }
      ],
      "name": "removeContributor",
      "outputs": [],
      "stateMutability": "nonpayable",
      "type": "function"
    },
    {
      "inputs": [
        {
          "internalType": "address",
          "name": "account",
          "type": "address"
        },
        {
          "internalType": "uint256",
          "name": "groupId",
          "type": "uint256"
        }
      ],
      "name": "removeEligibleRecipient",
      "outputs": [],
      "stateMutability": "nonpayable",
      "type": "function"
    },
    {
      "inputs": [
        {
          "internalType": "uint256",
          "name": "groupId",
          "type": "uint256"
        }
      ],
      "name": "renounceAdmin",
      "outputs": [],
      "stateMutability": "nonpayable",
      "type": "function"
    },
    {
      "inputs": [
        {
          "internalType": "uint256",
          "name": "groupId",
          "type": "uint256"
        }
      ],
      "name": "renounceContributor",
      "outputs": [],
      "stateMutability": "nonpayable",
      "type": "function"
    },
    {
      "inputs": [
        {
          "internalType": "address",
          "name": "_newCEO",
          "type": "address"
        }
      ],
      "name": "setCEO",
      "outputs": [],
      "stateMutability": "nonpayable",
      "type": "function"
    },
    {
      "inputs": [
        {
          "internalType": "address",
          "name": "_newCFO",
          "type": "address"
        }
      ],
      "name": "setCFO",
      "outputs": [],
      "stateMutability": "nonpayable",
      "type": "function"
    },
    {
      "inputs": [
        {
          "internalType": "address",
          "name": "_newCOO",
          "type": "address"
        }
      ],
      "name": "setCOO",
      "outputs": [],
      "stateMutability": "nonpayable",
      "type": "function"
    },
    {
      "inputs": [
        {
          "internalType": "string",
          "name": "_s",
          "type": "string"
        }
      ],
      "name": "setString",
      "outputs": [],
      "stateMutability": "nonpayable",
      "type": "function"
    },
    {
      "inputs": [
        {
          "internalType": "uint256",
          "name": "groupId",
          "type": "uint256"
        }
      ],
      "name": "startEvent",
      "outputs": [],
      "stateMutability": "nonpayable",
      "type": "function"
    },
    {
      "inputs": [],
      "name": "stringgg",
      "outputs": [
        {
          "internalType": "string",
          "name": "",
          "type": "string"
        }
      ],
      "stateMutability": "view",
      "type": "function",
      "constant": true
    },
    {
      "inputs": [],
      "name": "unpause",
      "outputs": [
        {
          "internalType": "bool",
          "name": "",
          "type": "bool"
        }
      ],
      "stateMutability": "nonpayable",
      "type": "function"
    },
    {
      "inputs": [
        {
          "internalType": "uint256",
          "name": "groupId",
          "type": "uint256"
        },
        {
          "internalType": "string",
          "name": "newContributorName",
          "type": "string"
        },
        {
          "internalType": "string",
          "name": "newContributorImgUrl",
          "type": "string"
        },
        {
          "internalType": "string",
          "name": "newContributorLinkToUrl",
          "type": "string"
        }
      ],
      "name": "updateContributorInfo",
      "outputs": [],
      "stateMutability": "nonpayable",
      "type": "function"
    },
    {
      "inputs": [],
      "name": "whoami",
      "outputs": [
        {
          "internalType": "address",
          "name": "",
          "type": "address"
        }
      ],
      "stateMutability": "view",
      "type": "function",
      "constant": true
    },
    {
      "inputs": [
        {
          "internalType": "address",
          "name": "_v2Address",
          "type": "address"
        }
      ],
      "name": "setNewAddress",
      "outputs": [],
      "stateMutability": "nonpayable",
      "type": "function"
    },
    {
      "inputs": [],
      "name": "foobar",
      "outputs": [
        {
          "internalType": "string",
          "name": "",
          "type": "string"
        }
      ],
      "stateMutability": "pure",
      "type": "function",
      "constant": true
    }
  ],
  "bytecode": "0x60806040526000600360146101000a81548160ff02191690831515021790555060056004556000600b5534801561003557600080fd5b506000600360146101000a81548160ff02191690831515021790555033600160006101000a81548173ffffffffffffffffffffffffffffffffffffffff021916908373ffffffffffffffffffffffffffffffffffffffff160217905550614f04806100a16000396000f3fe6080604052600436106103765760003560e01c80637fcaf666116101d1578063c02b8b2c11610102578063e513b7a9116100a0578063ee41b5921161006f578063ee41b59214610d2c578063f4a02e7014610d69578063f89e9cb914610d94578063fc5fd6e414610dd157610376565b8063e513b7a914610c7f578063e62092be14610caa578063e82f24e014610ce7578063ea303f0814610d0357610376565b8063c6e0ddfa116100dc578063c6e0ddfa14610bc5578063d5f016c314610bee578063e320d5e714610c19578063e33db42614610c4257610376565b8063c02b8b2c14610b46578063c271e80c14610b71578063c6db509414610b9a57610376565b80639bda87961161016f578063aea88a0511610149578063aea88a0514610a9c578063b047fb5014610ac5578063b187bd2614610af0578063b3b36bb314610b1b57610376565b80639bda879614610a0d578063a59a695314610a4a578063ab4e194514610a7357610376565b80638456cb59116101ab5780638456cb591461096357806389ea642f1461097a5780639393ae37146109a5578063962ecff5146109d057610376565b80637fcaf666146108d45780637fcb29c9146108fd5780638182aaf21461092657610376565b80634635509b116102ab578063677bd9ff116102495780637158798811610223578063715879881461081a578063785142be146108435780637b936ac21461086c5780637d837ce51461089757610376565b8063677bd9ff146107885780636af04a57146107b15780636ebdec49146107dc57610376565b806355b57ec11161028557806355b57ec1146106a45780635c975abb146106e15780635e82c1fc1461070c578063674811ca1461074957610376565b80634635509b146106115780634e0a3379146106525780634f1ef03c1461067b57610376565b80632ba73c151161031857806338f0b656116102f257806338f0b656146105435780633f4ba83a14610580578063406db843146105ab57806344b2983b146105d457610376565b80632ba73c15146104c857806330bb0115146104f1578063330a347b1461051a57610376565b80630a0f8168116103545780630a0f81681461040e5780630d82ffa01461043957806315891ff41461047657806327d7874c1461049f57610376565b80630519ce791461037b57806305df75db146103a657806306cc4922146103d1575b600080fd5b34801561038757600080fd5b50610390610dfc565b60405161039d91906147b0565b60405180910390f35b3480156103b257600080fd5b506103bb610e22565b6040516103c891906148f8565b60405180910390f35b3480156103dd57600080fd5b506103f860048036038101906103f391906142b0565b610e5f565b604051610405919061488a565b60405180910390f35b34801561041a57600080fd5b50610423610e8c565b60405161043091906147b0565b60405180910390f35b34801561044557600080fd5b50610460600480360381019061045b91906142b0565b610eb2565b60405161046d91906147b0565b60405180910390f35b34801561048257600080fd5b5061049d60048036038101906104989190614227565b610ef2565b005b3480156104ab57600080fd5b506104c660048036038101906104c191906141fa565b610fdc565b005b3480156104d457600080fd5b506104ef60048036038101906104ea91906141fa565b6110b4565b005b3480156104fd57600080fd5b50610518600480360381019061051391906142b0565b61118c565b005b34801561052657600080fd5b50610541600480360381019061053c91906142b0565b6111ae565b005b34801561054f57600080fd5b5061056a600480360381019061056591906142b0565b6114a5565b604051610577919061488a565b60405180910390f35b34801561058c57600080fd5b506105956114d2565b6040516105a2919061488a565b60405180910390f35b3480156105b757600080fd5b506105d260048036038101906105cd91906142b0565b611577565b005b3480156105e057600080fd5b506105fb60048036038101906105f691906142b0565b611700565b60405161060891906147cb565b60405180910390f35b34801561061d57600080fd5b50610638600480360381019061063391906142b0565b6117a1565b6040516106499594939291906148a5565b60405180910390f35b34801561065e57600080fd5b50610679600480360381019061067491906141fa565b611b24565b005b34801561068757600080fd5b506106a2600480360381019061069d91906142b0565b611bc2565b005b3480156106b057600080fd5b506106cb60048036038101906106c691906142b0565b611bfe565b6040516106d89190614824565b60405180910390f35b3480156106ed57600080fd5b506106f6611c8e565b604051610703919061488a565b60405180910390f35b34801561071857600080fd5b50610733600480360381019061072e9190614227565b611ca1565b604051610740919061488a565b60405180910390f35b34801561075557600080fd5b50610770600480360381019061076b91906142b0565b611d2a565b60405161077f9392919061491a565b60405180910390f35b34801561079457600080fd5b506107af60048036038101906107aa91906142b0565b611f22565b005b3480156107bd57600080fd5b506107c6612107565b6040516107d391906147b0565b60405180910390f35b3480156107e857600080fd5b5061080360048036038101906107fe91906142b0565b61212d565b6040516108119291906147ed565b60405180910390f35b34801561082657600080fd5b50610841600480360381019061083c91906141fa565b61225e565b005b34801561084f57600080fd5b5061086a600480360381019061086591906142b0565b61234c565b005b34801561087857600080fd5b50610881612527565b60405161088e91906147b0565b60405180910390f35b3480156108a357600080fd5b506108be60048036038101906108b99190614227565b612551565b6040516108cb919061488a565b60405180910390f35b3480156108e057600080fd5b506108fb60048036038101906108f69190614267565b6125da565b005b34801561090957600080fd5b50610924600480360381019061091f9190614227565b6125f4565b005b34801561093257600080fd5b5061094d60048036038101906109489190614227565b61265c565b60405161095a919061488a565b60405180910390f35b34801561096f57600080fd5b506109786126e5565b005b34801561098657600080fd5b5061098f612826565b60405161099c91906148f8565b60405180910390f35b3480156109b157600080fd5b506109ba6128b8565b6040516109c7919061488a565b60405180910390f35b3480156109dc57600080fd5b506109f760048036038101906109f291906142b0565b612910565b604051610a04919061488a565b60405180910390f35b348015610a1957600080fd5b50610a346004803603810190610a2f91906142b0565b61297e565b604051610a4191906147cb565b60405180910390f35b348015610a5657600080fd5b50610a716004803603810190610a6c91906142b0565b612a1f565b005b348015610a7f57600080fd5b50610a9a6004803603810190610a959190614227565b612af9565b005b348015610aa857600080fd5b50610ac36004803603810190610abe91906142dd565b612cad565b005b348015610ad157600080fd5b50610ada612d49565b604051610ae791906147b0565b60405180910390f35b348015610afc57600080fd5b50610b05612d6f565b604051610b12919061488a565b60405180910390f35b348015610b2757600080fd5b50610b30612d86565b604051610b3d91906147b0565b60405180910390f35b348015610b5257600080fd5b50610b5b612d8e565b604051610b689190614868565b60405180910390f35b348015610b7d57600080fd5b50610b986004803603810190610b939190614227565b612de6565b005b348015610ba657600080fd5b50610baf612e7b565b604051610bbc91906148f8565b60405180910390f35b348015610bd157600080fd5b50610bec6004803603810190610be79190614227565b612f09565b005b348015610bfa57600080fd5b50610c03612f71565b604051610c109190614846565b60405180910390f35b348015610c2557600080fd5b50610c406004803603810190610c3b9190614227565b61304a565b005b348015610c4e57600080fd5b50610c696004803603810190610c6491906142b0565b6130df565b604051610c769190614966565b60405180910390f35b348015610c8b57600080fd5b50610c9461344b565b604051610ca1919061488a565b60405180910390f35b348015610cb657600080fd5b50610cd16004803603810190610ccc9190614227565b6134a3565b604051610cde919061488a565b60405180910390f35b610d016004803603810190610cfc91906142b0565b613512565b005b348015610d0f57600080fd5b50610d2a6004803603810190610d259190614267565b6135af565b005b348015610d3857600080fd5b50610d536004803603810190610d4e91906142b0565b6138f5565b604051610d60919061488a565b60405180910390f35b348015610d7557600080fd5b50610d7e613922565b604051610d8b919061488a565b60405180910390f35b348015610da057600080fd5b50610dbb6004803603810190610db691906142b0565b61397a565b604051610dc8919061488a565b60405180910390f35b348015610ddd57600080fd5b50610de66139f9565b604051610df391906147b0565b60405180910390f35b600260009054906101000a900473ffffffffffffffffffffffffffffffffffffffff1681565b60606040518060400160405280600d81526020017f666f6f6261727272727272722100000000000000000000000000000000000000815250905090565b6000600360149054906101000a900460ff1615610e7b57600080fd5b610e853383611ca1565b9050919050565b600160009054906101000a900473ffffffffffffffffffffffffffffffffffffffff1681565b600060076000838152602001908152602001600020600a0160009054906101000a900473ffffffffffffffffffffffffffffffffffffffff169050919050565b80610efd33826134a3565b610f0657600080fd5b600360149054906101000a900460ff1615610f2057600080fd5b60006011600084815260200190815260200160002060008573ffffffffffffffffffffffffffffffffffffffff1673ffffffffffffffffffffffffffffffffffffffff16815260200190815260200160002060006101000a81548160ff0219169083151502179055508273ffffffffffffffffffffffffffffffffffffffff167f1af6d16168d33745872119540d28858eed156c5f265206bbf1344fda39a93a3383604051610fcf9190614988565b60405180910390a2505050565b600160009054906101000a900473ffffffffffffffffffffffffffffffffffffffff1673ffffffffffffffffffffffffffffffffffffffff163373ffffffffffffffffffffffffffffffffffffffff161461103657600080fd5b600073ffffffffffffffffffffffffffffffffffffffff168173ffffffffffffffffffffffffffffffffffffffff16141561107057600080fd5b80600160006101000a81548173ffffffffffffffffffffffffffffffffffffffff021916908373ffffffffffffffffffffffffffffffffffffffff16021790555050565b600160009054906101000a900473ffffffffffffffffffffffffffffffffffffffff1673ffffffffffffffffffffffffffffffffffffffff163373ffffffffffffffffffffffffffffffffffffffff161461110e57600080fd5b600073ffffffffffffffffffffffffffffffffffffffff168173ffffffffffffffffffffffffffffffffffffffff16141561114857600080fd5b80600360006101000a81548173ffffffffffffffffffffffffffffffffffffffff021916908373ffffffffffffffffffffffffffffffffffffffff16021790555050565b8061119733826134a3565b6111a057600080fd5b6111aa3383613a23565b5050565b806111b933826134a3565b806112115750600360009054906101000a900473ffffffffffffffffffffffffffffffffffffffff1673ffffffffffffffffffffffffffffffffffffffff163373ffffffffffffffffffffffffffffffffffffffff16145b61121a57600080fd5b600360149054906101000a900460ff161561123457600080fd5b42600760008481526020019081526020016000206005018190555060036007600084815260200190815260200160002060020160006101000a81548160ff0219169083600381111561128957611288614dab565b5b0217905550600860008381526020019081526020016000206007600084815260200190815260200160002090806001815401808255809150506001900390600052602060002090600e02016000909190919091506000820154816000015560018201816001019080546112fb90614ca1565b611306929190613f99565b506002820160009054906101000a900460ff168160020160006101000a81548160ff0219169083600381111561133f5761133e614dab565b5b021790555060038201548160030155600482015481600401556005820154816005015560068201548160060155600782018160070190805461138090614ca1565b61138b929190613f99565b5060088201816008019080546113a090614ca1565b6113ab929190613f99565b5060098201816009019080546113c090614ca1565b6113cb929190613f99565b50600a820160009054906101000a900473ffffffffffffffffffffffffffffffffffffffff1681600a0160006101000a81548173ffffffffffffffffffffffffffffffffffffffff021916908373ffffffffffffffffffffffffffffffffffffffff160217905550600b82015481600b0155600c82015481600c0155600d82015481600d015550503373ffffffffffffffffffffffffffffffffffffffff167f6f45a19e8850c727d0de9f32e0d8691324a9a74ffb4347652e6404138b1d8165836040516114999190614988565b60405180910390a25050565b6000600360149054906101000a900460ff16156114c157600080fd5b6114cb3383612551565b9050919050565b6000600160009054906101000a900473ffffffffffffffffffffffffffffffffffffffff1673ffffffffffffffffffffffffffffffffffffffff163373ffffffffffffffffffffffffffffffffffffffff161461152e57600080fd5b600360149054906101000a900460ff1661154757600080fd5b6000600360146101000a81548160ff021916908315150217905550600360149054906101000a900460ff16905090565b806115823382611ca1565b61158b57600080fd5b600360149054906101000a900460ff16156115a557600080fd5b60016014600084815260200190815260200160002060003373ffffffffffffffffffffffffffffffffffffffff1673ffffffffffffffffffffffffffffffffffffffff16815260200190815260200160002060006101000a81548160ff02191690831515021790555060156000838152602001908152602001600020339080600181540180825580915050600190039060005260206000200160009091909190916101000a81548173ffffffffffffffffffffffffffffffffffffffff021916908373ffffffffffffffffffffffffffffffffffffffff1602179055506007600083815260200190815260200160002060060160008154809291906116a990614d04565b91905055503373ffffffffffffffffffffffffffffffffffffffff167f0695e999be8100bdb5bee8612337296508d527eae78c65b8f170eacb5a3b439d836040516116f49190614988565b60405180910390a25050565b60606015600083815260200190815260200160002080548060200260200160405190810160405280929190818152602001828054801561179557602002820191906000526020600020905b8160009054906101000a900473ffffffffffffffffffffffffffffffffffffffff1673ffffffffffffffffffffffffffffffffffffffff168152602001906001019080831161174b575b50505050509050919050565b60008060008060008060076000888152602001908152602001600020604051806101c0016040529081600082015481526020016001820180546117e390614ca1565b80601f016020809104026020016040519081016040528092919081815260200182805461180f90614ca1565b801561185c5780601f106118315761010080835404028352916020019161185c565b820191906000526020600020905b81548152906001019060200180831161183f57829003601f168201915b505050505081526020016002820160009054906101000a900460ff16600381111561188a57611889614dab565b5b600381111561189c5761189b614dab565b5b8152602001600382015481526020016004820154815260200160058201548152602001600682015481526020016007820180546118d890614ca1565b80601f016020809104026020016040519081016040528092919081815260200182805461190490614ca1565b80156119515780601f1061192657610100808354040283529160200191611951565b820191906000526020600020905b81548152906001019060200180831161193457829003601f168201915b5050505050815260200160088201805461196a90614ca1565b80601f016020809104026020016040519081016040528092919081815260200182805461199690614ca1565b80156119e35780601f106119b8576101008083540402835291602001916119e3565b820191906000526020600020905b8154815290600101906020018083116119c657829003601f168201915b505050505081526020016009820180546119fc90614ca1565b80601f0160208091040260200160405190810160405280929190818152602001828054611a2890614ca1565b8015611a755780601f10611a4a57610100808354040283529160200191611a75565b820191906000526020600020905b815481529060010190602001808311611a5857829003601f168201915b50505050508152602001600a820160009054906101000a900473ffffffffffffffffffffffffffffffffffffffff1673ffffffffffffffffffffffffffffffffffffffff1673ffffffffffffffffffffffffffffffffffffffff168152602001600b8201548152602001600c8201548152602001600d82015481525050905080604001518160c00151826101600151836101800151846101a00151955095509550955095505091939590929450565b600160009054906101000a900473ffffffffffffffffffffffffffffffffffffffff1673ffffffffffffffffffffffffffffffffffffffff163373ffffffffffffffffffffffffffffffffffffffff1614611b7e57600080fd5b80600260006101000a81548173ffffffffffffffffffffffffffffffffffffffff021916908373ffffffffffffffffffffffffffffffffffffffff16021790555050565b80611bcd338261265c565b611bd657600080fd5b600360149054906101000a900460ff1615611bf057600080fd5b611bfa3383613b84565b5050565b606060136000838152602001908152602001600020805480602002602001604051908101604052809291908181526020018280548015611c8257602002820191906000526020600020906000905b82829054906101000a900460ff16151581526020019060010190602082600001049283019260010382029150808411611c4c5790505b50505050509050919050565b600360149054906101000a900460ff1681565b6000600360149054906101000a900460ff1615611cbd57600080fd5b600115156011600084815260200190815260200160002060008573ffffffffffffffffffffffffffffffffffffffff1673ffffffffffffffffffffffffffffffffffffffff16815260200190815260200160002060009054906101000a900460ff16151514905092915050565b6060806060600760008581526020019081526020016000206007016007600086815260200190815260200160002060080160076000878152602001908152602001600020600901828054611d7d90614ca1565b80601f0160208091040260200160405190810160405280929190818152602001828054611da990614ca1565b8015611df65780601f10611dcb57610100808354040283529160200191611df6565b820191906000526020600020905b815481529060010190602001808311611dd957829003601f168201915b50505050509250818054611e0990614ca1565b80601f0160208091040260200160405190810160405280929190818152602001828054611e3590614ca1565b8015611e825780601f10611e5757610100808354040283529160200191611e82565b820191906000526020600020905b815481529060010190602001808311611e6557829003601f168201915b50505050509150808054611e9590614ca1565b80601f0160208091040260200160405190810160405280929190818152602001828054611ec190614ca1565b8015611f0e5780601f10611ee357610100808354040283529160200191611f0e565b820191906000526020600020905b815481529060010190602001808311611ef157829003601f168201915b505050505090509250925092509193909250565b80611f2d3382612551565b611f3657600080fd5b813360011515600c600084815260200190815260200160002060003373ffffffffffffffffffffffffffffffffffffffff1673ffffffffffffffffffffffffffffffffffffffff16815260200190815260200160002060009054906101000a900460ff1615151415611fa757600080fd5b600360149054906101000a900460ff1615611fc157600080fd5b6001600c600086815260200190815260200160002060003373ffffffffffffffffffffffffffffffffffffffff1673ffffffffffffffffffffffffffffffffffffffff16815260200190815260200160002060006101000a81548160ff02191690831515021790555060076000858152602001908152602001600020600d01600081548092919061205190614d04565b91905055503373ffffffffffffffffffffffffffffffffffffffff166108fc60076000878152602001908152602001600020600c01549081150290604051600060405180830381858888f193505050501580156120b2573d6000803e3d6000fd5b503373ffffffffffffffffffffffffffffffffffffffff167f1a31e733a172afcf46074b3106c17f0c298e226442682a03c1e99ce256139ec2856040516120f99190614988565b60405180910390a250505050565b601660009054906101000a900473ffffffffffffffffffffffffffffffffffffffff1681565b606080600d6000848152602001908152602001600020600f6000858152602001908152602001600020818054806020026020016040519081016040528092919081815260200182805480156121d757602002820191906000526020600020905b8160009054906101000a900473ffffffffffffffffffffffffffffffffffffffff1673ffffffffffffffffffffffffffffffffffffffff168152602001906001019080831161218d575b505050505091508080548060200260200160405190810160405280929190818152602001828054801561224e57602002820191906000526020600020906000905b82829054906101000a900460ff161515815260200190600101906020826000010492830192600103820291508084116122185790505b5050505050905091509150915091565b600160009054906101000a900473ffffffffffffffffffffffffffffffffffffffff1673ffffffffffffffffffffffffffffffffffffffff163373ffffffffffffffffffffffffffffffffffffffff16146122b857600080fd5b600360149054906101000a900460ff166122d157600080fd5b80601660006101000a81548173ffffffffffffffffffffffffffffffffffffffff021916908373ffffffffffffffffffffffffffffffffffffffff1602179055507f450db8da6efbe9c22f2347f7c2021231df1fc58d3ae9a2fa75d39fa4461993058160405161234191906147b0565b60405180910390a150565b8061235733826134a3565b61236057600080fd5b600360149054906101000a900460ff161561237a57600080fd5b4260076000848152602001908152602001600020600401819055506000606460045460076000868152602001908152602001600020600b01546123bd9190614b64565b6123c79190614b33565b9050600260009054906101000a900473ffffffffffffffffffffffffffffffffffffffff1673ffffffffffffffffffffffffffffffffffffffff166108fc829081150290604051600060405180830381858888f19350505050158015612431573d6000803e3d6000fd5b5060008160076000868152602001908152602001600020600b01546124569190614bbe565b905060076000858152602001908152602001600020600601548161247a9190614b33565b60076000868152602001908152602001600020600c018190555060026007600086815260200190815260200160002060020160006101000a81548160ff021916908360038111156124ce576124cd614dab565b5b02179055503373ffffffffffffffffffffffffffffffffffffffff167fef898a6941c945450e9bbdad4a76fcd0f51f42f7e251fddcb1e5479ba786d5e4856040516125199190614988565b60405180910390a250505050565b6000600260009054906101000a900473ffffffffffffffffffffffffffffffffffffffff16905090565b6000600360149054906101000a900460ff161561256d57600080fd5b600115156014600084815260200190815260200160002060008573ffffffffffffffffffffffffffffffffffffffff1673ffffffffffffffffffffffffffffffffffffffff16815260200190815260200160002060009054906101000a900460ff16151514905092915050565b80600090805190602001906125f0929190614026565b5050565b600360009054906101000a900473ffffffffffffffffffffffffffffffffffffffff1673ffffffffffffffffffffffffffffffffffffffff163373ffffffffffffffffffffffffffffffffffffffff161461264e57600080fd5b6126588282613c95565b5050565b6000600360149054906101000a900460ff161561267857600080fd5b600115156010600084815260200190815260200160002060008573ffffffffffffffffffffffffffffffffffffffff1673ffffffffffffffffffffffffffffffffffffffff16815260200190815260200160002060009054906101000a900460ff16151514905092915050565b600360009054906101000a900473ffffffffffffffffffffffffffffffffffffffff1673ffffffffffffffffffffffffffffffffffffffff163373ffffffffffffffffffffffffffffffffffffffff16148061278e5750600160009054906101000a900473ffffffffffffffffffffffffffffffffffffffff1673ffffffffffffffffffffffffffffffffffffffff163373ffffffffffffffffffffffffffffffffffffffff16145b806127e65750600260009054906101000a900473ffffffffffffffffffffffffffffffffffffffff1673ffffffffffffffffffffffffffffffffffffffff163373ffffffffffffffffffffffffffffffffffffffff16145b6127ef57600080fd5b600360149054906101000a900460ff161561280957600080fd5b6001600360146101000a81548160ff021916908315150217905550565b60606000805461283590614ca1565b80601f016020809104026020016040519081016040528092919081815260200182805461286190614ca1565b80156128ae5780601f10612883576101008083540402835291602001916128ae565b820191906000526020600020905b81548152906001019060200180831161289157829003601f168201915b5050505050905090565b6000600260009054906101000a900473ffffffffffffffffffffffffffffffffffffffff1673ffffffffffffffffffffffffffffffffffffffff163373ffffffffffffffffffffffffffffffffffffffff1614905090565b6000600115156009600084815260200190815260200160002060003373ffffffffffffffffffffffffffffffffffffffff1673ffffffffffffffffffffffffffffffffffffffff16815260200190815260200160002060009054906101000a900460ff161515149050919050565b606060126000838152602001908152602001600020805480602002602001604051908101604052809291908181526020018280548015612a1357602002820191906000526020600020905b8160009054906101000a900473ffffffffffffffffffffffffffffffffffffffff1673ffffffffffffffffffffffffffffffffffffffff16815260200190600101908083116129c9575b50505050509050919050565b80612a2a33826134a3565b612a3357600080fd5b600360149054906101000a900460ff1615612a4d57600080fd5b60016007600084815260200190815260200160002060020160006101000a81548160ff02191690836003811115612a8757612a86614dab565b5b02179055504260076000848152602001908152602001600020600301819055503373ffffffffffffffffffffffffffffffffffffffff167ff77c6f27499b698205f54058c2914a340e1300c2bc0d9a819e7aebfbaabbbb9383604051612aed9190614988565b60405180910390a25050565b600360149054906101000a900460ff1615612b1357600080fd5b80612b1e33826134a3565b612b2757600080fd5b60016011600084815260200190815260200160002060008573ffffffffffffffffffffffffffffffffffffffff1673ffffffffffffffffffffffffffffffffffffffff16815260200190815260200160002060006101000a81548160ff02191690831515021790555060126000838152602001908152602001600020839080600181540180825580915050600190039060005260206000200160009091909190916101000a81548173ffffffffffffffffffffffffffffffffffffffff021916908373ffffffffffffffffffffffffffffffffffffffff16021790555060136000838152602001908152602001600020600190806001815401808255809150506001900390600052602060002090602091828204019190069091909190916101000a81548160ff0219169083151502179055508273ffffffffffffffffffffffffffffffffffffffff167f46b8357d30dedd734a71d059a385f46b6e667bff20233f907477760207f8896583604051612ca09190614988565b60405180910390a2505050565b83612cb8338261265c565b612cc157600080fd5b83600760008781526020019081526020016000206007019080519060200190612ceb929190614026565b5082600760008781526020019081526020016000206008019080519060200190612d16929190614026565b5081600760008781526020019081526020016000206009019080519060200190612d41929190614026565b505050505050565b600360009054906101000a900473ffffffffffffffffffffffffffffffffffffffff1681565b6000600360149054906101000a900460ff16905090565b600033905090565b60606005805480602002602001604051908101604052809291908181526020018280548015612ddc57602002820191906000526020600020905b815481526020019060010190808311612dc8575b5050505050905090565b80612df133826134a3565b80612e495750600360009054906101000a900473ffffffffffffffffffffffffffffffffffffffff1673ffffffffffffffffffffffffffffffffffffffff163373ffffffffffffffffffffffffffffffffffffffff16145b612e5257600080fd5b600360149054906101000a900460ff1615612e6c57600080fd5b612e768383613e89565b505050565b60008054612e8890614ca1565b80601f0160208091040260200160405190810160405280929190818152602001828054612eb490614ca1565b8015612f015780601f10612ed657610100808354040283529160200191612f01565b820191906000526020600020905b815481529060010190602001808311612ee457829003601f168201915b505050505081565b600360009054906101000a900473ffffffffffffffffffffffffffffffffffffffff1673ffffffffffffffffffffffffffffffffffffffff163373ffffffffffffffffffffffffffffffffffffffff1614612f6357600080fd5b612f6d8282613a23565b5050565b60606006805480602002602001604051908101604052809291908181526020016000905b82821015613041578382906000526020600020018054612fb490614ca1565b80601f0160208091040260200160405190810160405280929190818152602001828054612fe090614ca1565b801561302d5780601f106130025761010080835404028352916020019161302d565b820191906000526020600020905b81548152906001019060200180831161301057829003601f168201915b505050505081526020019060010190612f95565b50505050905090565b8061305533826134a3565b806130ad5750600360009054906101000a900473ffffffffffffffffffffffffffffffffffffffff1673ffffffffffffffffffffffffffffffffffffffff163373ffffffffffffffffffffffffffffffffffffffff16145b6130b657600080fd5b600360149054906101000a900460ff16156130d057600080fd5b6130da8383613b84565b505050565b6130e76140ac565b816130f233826134a3565b6130fb57600080fd5b60076000848152602001908152602001600020604051806101c00160405290816000820154815260200160018201805461313490614ca1565b80601f016020809104026020016040519081016040528092919081815260200182805461316090614ca1565b80156131ad5780601f10613182576101008083540402835291602001916131ad565b820191906000526020600020905b81548152906001019060200180831161319057829003601f168201915b505050505081526020016002820160009054906101000a900460ff1660038111156131db576131da614dab565b5b60038111156131ed576131ec614dab565b5b81526020016003820154815260200160048201548152602001600582015481526020016006820154815260200160078201805461322990614ca1565b80601f016020809104026020016040519081016040528092919081815260200182805461325590614ca1565b80156132a25780601f10613277576101008083540402835291602001916132a2565b820191906000526020600020905b81548152906001019060200180831161328557829003601f168201915b505050505081526020016008820180546132bb90614ca1565b80601f01602080910402602001604051908101604052809291908181526020018280546132e790614ca1565b80156133345780601f1061330957610100808354040283529160200191613334565b820191906000526020600020905b81548152906001019060200180831161331757829003601f168201915b5050505050815260200160098201805461334d90614ca1565b80601f016020809104026020016040519081016040528092919081815260200182805461337990614ca1565b80156133c65780601f1061339b576101008083540402835291602001916133c6565b820191906000526020600020905b8154815290600101906020018083116133a957829003601f168201915b50505050508152602001600a820160009054906101000a900473ffffffffffffffffffffffffffffffffffffffff1673ffffffffffffffffffffffffffffffffffffffff1673ffffffffffffffffffffffffffffffffffffffff168152602001600b8201548152602001600c8201548152602001600d82015481525050915050919050565b6000600160009054906101000a900473ffffffffffffffffffffffffffffffffffffffff1673ffffffffffffffffffffffffffffffffffffffff163373ffffffffffffffffffffffffffffffffffffffff1614905090565b6000600115156009600084815260200190815260200160002060008573ffffffffffffffffffffffffffffffffffffffff1673ffffffffffffffffffffffffffffffffffffffff16815260200190815260200160002060009054906101000a900460ff16151514905092915050565b8061351d338261265c565b61352657600080fd5b600360149054906101000a900460ff161561354057600080fd5b3460076000848152602001908152602001600020600b01819055503373ffffffffffffffffffffffffffffffffffffffff167f5dc1fe5ab986a852c4eda8e8bb94247d13307065c593fb83f1a09be27367938283346040516135a39291906149a3565b60405180910390a25050565b600360009054906101000a900473ffffffffffffffffffffffffffffffffffffffff1673ffffffffffffffffffffffffffffffffffffffff163373ffffffffffffffffffffffffffffffffffffffff161461360957600080fd5b600360149054906101000a900460ff161561362357600080fd5b60004290506000604051806101c001604052808381526020018481526020016000600381111561365657613655614dab565b5b815260200142815260200142815260200142815260200160008152602001604051806020016040528060008152508152602001604051806020016040528060008152508152602001604051806020016040528060008152508152602001600073ffffffffffffffffffffffffffffffffffffffff168152602001600081526020016000815260200160008152509050806007600084815260200190815260200160002060008201518160000155602082015181600101908051906020019061371f929190614026565b5060408201518160020160006101000a81548160ff0219169083600381111561374b5761374a614dab565b5b0217905550606082015181600301556080820151816004015560a0820151816005015560c0820151816006015560e0820151816007019080519060200190613794929190614026565b506101008201518160080190805190602001906137b2929190614026565b506101208201518160090190805190602001906137d0929190614026565b5061014082015181600a0160006101000a81548173ffffffffffffffffffffffffffffffffffffffff021916908373ffffffffffffffffffffffffffffffffffffffff16021790555061016082015181600b015561018082015181600c01556101a082015181600d015590505060058290806001815401808255809150506001900390600052602060002001600090919091909150556006839080600181540180825580915050600190039060005260206000200160009091909190915090805190602001906138a1929190614026565b503373ffffffffffffffffffffffffffffffffffffffff167f3482e3d6d38a18835a6ad59afad8098300ce9f907925e4be71126d7b43dc803d836040516138e89190614988565b60405180910390a2505050565b6000600360149054906101000a900460ff161561391157600080fd5b61391b338361265c565b9050919050565b6000600360009054906101000a900473ffffffffffffffffffffffffffffffffffffffff1673ffffffffffffffffffffffffffffffffffffffff163373ffffffffffffffffffffffffffffffffffffffff1614905090565b60006139863383612551565b61399357600090506139f4565b600c600083815260200190815260200160002060003373ffffffffffffffffffffffffffffffffffffffff1673ffffffffffffffffffffffffffffffffffffffff16815260200190815260200160002060009054906101000a900460ff1690505b919050565b6000600360009054906101000a900473ffffffffffffffffffffffffffffffffffffffff16905090565b60006009600083815260200190815260200160002060008473ffffffffffffffffffffffffffffffffffffffff1673ffffffffffffffffffffffffffffffffffffffff16815260200190815260200160002060006101000a81548160ff0219169083151502179055506000600a600083815260200190815260200160002060008473ffffffffffffffffffffffffffffffffffffffff1673ffffffffffffffffffffffffffffffffffffffff1681526020019081526020016000205490506000600f60008481526020019081526020016000208281548110613b0857613b07614e09565b5b90600052602060002090602091828204019190066101000a81548160ff0219169083151502179055508273ffffffffffffffffffffffffffffffffffffffff167fa0726c73cf6ad18ddb855ba65d1ddd4d7fd37d320f4e52f6b154c13d386f5fd983604051613b779190614988565b60405180910390a2505050565b60006010600083815260200190815260200160002060008473ffffffffffffffffffffffffffffffffffffffff1673ffffffffffffffffffffffffffffffffffffffff16815260200190815260200160002060006101000a81548160ff021916908315150217905550600060076000838152602001908152602001600020600a0160006101000a81548173ffffffffffffffffffffffffffffffffffffffff021916908373ffffffffffffffffffffffffffffffffffffffff1602179055508173ffffffffffffffffffffffffffffffffffffffff167fda111d7eb5d5b2033c4ffad00cd7cd42f45af2813bee1a69e65f26d90ea15f0b82604051613c899190614988565b60405180910390a25050565b60016009600083815260200190815260200160002060008473ffffffffffffffffffffffffffffffffffffffff1673ffffffffffffffffffffffffffffffffffffffff16815260200190815260200160002060006101000a81548160ff021916908315150217905550600b54600a600083815260200190815260200160002060008473ffffffffffffffffffffffffffffffffffffffff1673ffffffffffffffffffffffffffffffffffffffff16815260200190815260200160002081905550600b6000815480929190613d6890614d04565b9190505550600d6000828152602001908152602001600020829080600181540180825580915050600190039060005260206000200160009091909190916101000a81548173ffffffffffffffffffffffffffffffffffffffff021916908373ffffffffffffffffffffffffffffffffffffffff160217905550600f6000828152602001908152602001600020600190806001815401808255809150506001900390600052602060002090602091828204019190069091909190916101000a81548160ff0219169083151502179055508173ffffffffffffffffffffffffffffffffffffffff167f723c2b747529ca7f5eb53a74808f4a8b9bf264f0fc450fd904900151da74548a82604051613e7d9190614988565b60405180910390a25050565b60016010600083815260200190815260200160002060008473ffffffffffffffffffffffffffffffffffffffff1673ffffffffffffffffffffffffffffffffffffffff16815260200190815260200160002060006101000a81548160ff0219169083151502179055508160076000838152602001908152602001600020600a0160006101000a81548173ffffffffffffffffffffffffffffffffffffffff021916908373ffffffffffffffffffffffffffffffffffffffff1602179055508173ffffffffffffffffffffffffffffffffffffffff167f5fd6d0b7e707fe344bd2a1887f9d0eeea8bfcac6f339ba4200e74f0647f101c082604051613f8d9190614988565b60405180910390a25050565b828054613fa590614ca1565b90600052602060002090601f016020900481019282613fc75760008555614015565b82601f10613fd85780548555614015565b8280016001018555821561401557600052602060002091601f016020900482015b82811115614014578254825591600101919060010190613ff9565b5b5090506140229190614143565b5090565b82805461403290614ca1565b90600052602060002090601f016020900481019282614054576000855561409b565b82601f1061406d57805160ff191683800117855561409b565b8280016001018555821561409b579182015b8281111561409a57825182559160200191906001019061407f565b5b5090506140a89190614143565b5090565b604051806101c001604052806000815260200160608152602001600060038111156140da576140d9614dab565b5b815260200160008152602001600081526020016000815260200160008152602001606081526020016060815260200160608152602001600073ffffffffffffffffffffffffffffffffffffffff1681526020016000815260200160008152602001600081525090565b5b8082111561415c576000816000905550600101614144565b5090565b600061417361416e846149f1565b6149cc565b90508281526020810184848401111561418f5761418e614e6c565b5b61419a848285614c5f565b509392505050565b6000813590506141b181614ea0565b92915050565b600082601f8301126141cc576141cb614e67565b5b81356141dc848260208601614160565b91505092915050565b6000813590506141f481614eb7565b92915050565b6000602082840312156142105761420f614e76565b5b600061421e848285016141a2565b91505092915050565b6000806040838503121561423e5761423d614e76565b5b600061424c858286016141a2565b925050602061425d858286016141e5565b9150509250929050565b60006020828403121561427d5761427c614e76565b5b600082013567ffffffffffffffff81111561429b5761429a614e71565b5b6142a7848285016141b7565b91505092915050565b6000602082840312156142c6576142c5614e76565b5b60006142d4848285016141e5565b91505092915050565b600080600080608085870312156142f7576142f6614e76565b5b6000614305878288016141e5565b945050602085013567ffffffffffffffff81111561432657614325614e71565b5b614332878288016141b7565b935050604085013567ffffffffffffffff81111561435357614352614e71565b5b61435f878288016141b7565b925050606085013567ffffffffffffffff8111156143805761437f614e71565b5b61438c878288016141b7565b91505092959194509250565b60006143a483836143f4565b60208301905092915050565b60006143bc83836145a1565b60208301905092915050565b60006143d483836145dd565b905092915050565b60006143e88383614792565b60208301905092915050565b6143fd81614bf2565b82525050565b61440c81614bf2565b82525050565b600061441d82614a62565b6144278185614acd565b935061443283614a22565b8060005b8381101561446357815161444a8882614398565b975061445583614a99565b925050600181019050614436565b5085935050505092915050565b600061447b82614a6d565b6144858185614ade565b935061449083614a32565b8060005b838110156144c15781516144a888826143b0565b97506144b383614aa6565b925050600181019050614494565b5085935050505092915050565b60006144d982614a78565b6144e38185614aef565b9350836020820285016144f585614a42565b8060005b85811015614531578484038952815161451285826143c8565b945061451d83614ab3565b925060208a019950506001810190506144f9565b50829750879550505050505092915050565b600061454e82614a83565b6145588185614b00565b935061456383614a52565b8060005b8381101561459457815161457b88826143dc565b975061458683614ac0565b925050600181019050614567565b5085935050505092915050565b6145aa81614c04565b82525050565b6145b981614c04565b82525050565b6145c881614c4d565b82525050565b6145d781614c4d565b82525050565b60006145e882614a8e565b6145f28185614b11565b9350614602818560208601614c6e565b61460b81614e7b565b840191505092915050565b600061462182614a8e565b61462b8185614b22565b935061463b818560208601614c6e565b61464481614e7b565b840191505092915050565b60006101c0830160008301516146686000860182614792565b506020830151848203602086015261468082826145dd565b915050604083015161469560408601826145bf565b5060608301516146a86060860182614792565b5060808301516146bb6080860182614792565b5060a08301516146ce60a0860182614792565b5060c08301516146e160c0860182614792565b5060e083015184820360e08601526146f982826145dd565b91505061010083015184820361010086015261471582826145dd565b91505061012083015184820361012086015261473182826145dd565b9150506101408301516147486101408601826143f4565b5061016083015161475d610160860182614792565b50610180830151614772610180860182614792565b506101a08301516147876101a0860182614792565b508091505092915050565b61479b81614c43565b82525050565b6147aa81614c43565b82525050565b60006020820190506147c56000830184614403565b92915050565b600060208201905081810360008301526147e58184614412565b905092915050565b600060408201905081810360008301526148078185614412565b9050818103602083015261481b8184614470565b90509392505050565b6000602082019050818103600083015261483e8184614470565b905092915050565b6000602082019050818103600083015261486081846144ce565b905092915050565b600060208201905081810360008301526148828184614543565b905092915050565b600060208201905061489f60008301846145b0565b92915050565b600060a0820190506148ba60008301886145ce565b6148c760208301876147a1565b6148d460408301866147a1565b6148e160608301856147a1565b6148ee60808301846147a1565b9695505050505050565b600060208201905081810360008301526149128184614616565b905092915050565b600060608201905081810360008301526149348186614616565b905081810360208301526149488185614616565b9050818103604083015261495c8184614616565b9050949350505050565b60006020820190508181036000830152614980818461464f565b905092915050565b600060208201905061499d60008301846147a1565b92915050565b60006040820190506149b860008301856147a1565b6149c560208301846147a1565b9392505050565b60006149d66149e7565b90506149e28282614cd3565b919050565b6000604051905090565b600067ffffffffffffffff821115614a0c57614a0b614e38565b5b614a1582614e7b565b9050602081019050919050565b6000819050602082019050919050565b6000819050602082019050919050565b6000819050602082019050919050565b6000819050602082019050919050565b600081519050919050565b600081519050919050565b600081519050919050565b600081519050919050565b600081519050919050565b6000602082019050919050565b6000602082019050919050565b6000602082019050919050565b6000602082019050919050565b600082825260208201905092915050565b600082825260208201905092915050565b600082825260208201905092915050565b600082825260208201905092915050565b600082825260208201905092915050565b600082825260208201905092915050565b6000614b3e82614c43565b9150614b4983614c43565b925082614b5957614b58614d7c565b5b828204905092915050565b6000614b6f82614c43565b9150614b7a83614c43565b9250817fffffffffffffffffffffffffffffffffffffffffffffffffffffffffffffffff0483118215151615614bb357614bb2614d4d565b5b828202905092915050565b6000614bc982614c43565b9150614bd483614c43565b925082821015614be757614be6614d4d565b5b828203905092915050565b6000614bfd82614c23565b9050919050565b60008115159050919050565b6000819050614c1e82614e8c565b919050565b600073ffffffffffffffffffffffffffffffffffffffff82169050919050565b6000819050919050565b6000614c5882614c10565b9050919050565b82818337600083830152505050565b60005b83811015614c8c578082015181840152602081019050614c71565b83811115614c9b576000848401525b50505050565b60006002820490506001821680614cb957607f821691505b60208210811415614ccd57614ccc614dda565b5b50919050565b614cdc82614e7b565b810181811067ffffffffffffffff82111715614cfb57614cfa614e38565b5b80604052505050565b6000614d0f82614c43565b91507fffffffffffffffffffffffffffffffffffffffffffffffffffffffffffffffff821415614d4257614d41614d4d565b5b600182019050919050565b7f4e487b7100000000000000000000000000000000000000000000000000000000600052601160045260246000fd5b7f4e487b7100000000000000000000000000000000000000000000000000000000600052601260045260246000fd5b7f4e487b7100000000000000000000000000000000000000000000000000000000600052602160045260246000fd5b7f4e487b7100000000000000000000000000000000000000000000000000000000600052602260045260246000fd5b7f4e487b7100000000000000000000000000000000000000000000000000000000600052603260045260246000fd5b7f4e487b7100000000000000000000000000000000000000000000000000000000600052604160045260246000fd5b600080fd5b600080fd5b600080fd5b600080fd5b6000601f19601f8301169050919050565b60048110614e9d57614e9c614dab565b5b50565b614ea981614bf2565b8114614eb457600080fd5b50565b614ec081614c43565b8114614ecb57600080fd5b5056fea26469706673582212205ee75141cd53345c00aacfeab9df46abef0840ef9bc0bac31f0826618bacdbd364736f6c63430008060033",
  "immutableReferences": {},
  "source": "// SPDX-License-Identifier: MIT\npragma solidity ^0.8.0;\n\nimport \"../roles/AdminsManager.sol\";\n\ncontract EthDropCore is AdminsManager {\n    // Set in case the core contract is broken and an upgrade is required\n    address public newContractAddress;\n\n    /// @notice Creates the main EthDrop smart contract instance.\n    constructor () {\n        // Starts paused.\n\n        // TODO \n        paused = false;\n\n        // the creator of the contract is the initial CEO\n        ceoAddress = msg.sender;\n\n    }\n\n    /// @dev Used to mark the smart contract as upgraded, in case there is a serious\n    ///  breaking bug. This method does nothing but keep track of the new contract and\n    ///  emit a message indicating that the new address is set. It's up to clients of this\n    ///  contract to update to the new contract address in that case. (This contract will\n    ///  be paused indefinitely if such an upgrade takes place.)\n    /// @param _v2Address new address\n    function setNewAddress(address _v2Address) external onlyCEO whenPaused {\n        // See README.md for updgrade plan\n        newContractAddress = _v2Address;\n        emit ContractUpgrade(_v2Address);\n    }\n\n    function foobar() external pure returns (string memory) {\n        return \"foobarrrrrrr!\";\n    }\n}",
  "sourcePath": "/Users/jim/Git-Projects/EthDrop/contracts/core/EthDropCore.sol",
  "compiler": {
    "name": "solc",
    "version": "0.8.6+commit.11564f7e.Emscripten.clang"
  },
  "schemaVersion": "3.4.1",
  "updatedAt": "2021-07-25T15:06:08.457Z",
  "networkType": "ethereum",
  "devdoc": {
    "kind": "dev",
    "methods": {
      "pause()": {
        "details": "Called by any \"C-level\" role to pause the contract. Used only when  a bug or exploit is detected and we need to limit damage."
      },
      "setCEO(address)": {
        "details": "Assigns a new address to act as the CEO. Only available to the current CEO.",
        "params": {
          "_newCEO": "The address of the new CEO"
        }
      },
      "setCFO(address)": {
        "details": "Assigns a new address to act as the CFO. Only available to the current CEO.",
        "params": {
          "_newCFO": "The address of the new CFO"
        }
      },
      "setCOO(address)": {
        "details": "Assigns a new address to act as the COO. Only available to the current CEO.",
        "params": {
          "_newCOO": "The address of the new COO"
        }
      },
      "setNewAddress(address)": {
        "details": "Used to mark the smart contract as upgraded, in case there is a serious  breaking bug. This method does nothing but keep track of the new contract and  emit a message indicating that the new address is set. It's up to clients of this  contract to update to the new contract address in that case. (This contract will  be paused indefinitely if such an upgrade takes place.)",
        "params": {
          "_v2Address": "new address"
        }
      },
      "unpause()": {
        "details": "Unpauses the smart contract. Can only be called by the CEO, since  one reason we may pause the contract is when CFO or COO accounts are  compromised."
      }
    },
    "version": 1
  },
  "userdoc": {
    "kind": "user",
    "methods": {
      "constructor": {
        "notice": "Creates the main EthDrop smart contract instance."
      },
      "unpause()": {
        "notice": "This is public rather than external so it can be called by  derived contracts."
      }
    },
    "version": 1
  }
}