{
  "contractName": "EthDropCore",
  "abi": [
    {
      "inputs": [],
      "stateMutability": "nonpayable",
      "type": "constructor"
    },
    {
      "anonymous": false,
      "inputs": [
        {
          "indexed": false,
          "internalType": "uint256",
          "name": "groupId",
          "type": "uint256"
        }
      ],
      "name": "AdminAdded",
      "type": "event"
    },
    {
      "anonymous": false,
      "inputs": [
        {
          "indexed": false,
          "internalType": "uint256",
          "name": "groupId",
          "type": "uint256"
        }
      ],
      "name": "AdminRemoved",
      "type": "event"
    },
    {
      "anonymous": false,
      "inputs": [
        {
          "indexed": false,
          "internalType": "bool",
          "name": "isPaused",
          "type": "bool"
        }
      ],
      "name": "AppPaused",
      "type": "event"
    },
    {
      "anonymous": false,
      "inputs": [
        {
          "indexed": false,
          "internalType": "uint256",
          "name": "registeredRecipientCount",
          "type": "uint256"
        },
        {
          "indexed": false,
          "internalType": "uint256",
          "name": "winningsPerRecipient",
          "type": "uint256"
        }
      ],
      "name": "CalculatedPot",
      "type": "event"
    },
    {
      "anonymous": false,
      "inputs": [],
      "name": "CfoUpdated",
      "type": "event"
    },
    {
      "anonymous": false,
      "inputs": [
        {
          "indexed": false,
          "internalType": "address",
          "name": "newContract",
          "type": "address"
        }
      ],
      "name": "ContractUpgrade",
      "type": "event"
    },
    {
      "anonymous": false,
      "inputs": [
        {
          "indexed": true,
          "internalType": "address",
          "name": "account",
          "type": "address"
        },
        {
          "indexed": false,
          "internalType": "uint256",
          "name": "groupId",
          "type": "uint256"
        },
        {
          "indexed": false,
          "internalType": "uint256",
          "name": "amount",
          "type": "uint256"
        }
      ],
      "name": "ContributionMade",
      "type": "event"
    },
    {
      "anonymous": false,
      "inputs": [
        {
          "indexed": true,
          "internalType": "address",
          "name": "account",
          "type": "address"
        },
        {
          "indexed": false,
          "internalType": "uint256",
          "name": "groupId",
          "type": "uint256"
        }
      ],
      "name": "ContributorAdded",
      "type": "event"
    },
    {
      "anonymous": false,
      "inputs": [
        {
          "indexed": false,
          "internalType": "uint256",
          "name": "groupId",
          "type": "uint256"
        },
        {
          "indexed": false,
          "internalType": "address",
          "name": "newContributor",
          "type": "address"
        }
      ],
      "name": "ContributorAddressUpdated",
      "type": "event"
    },
    {
      "anonymous": false,
      "inputs": [
        {
          "indexed": false,
          "internalType": "uint256",
          "name": "groupId",
          "type": "uint256"
        },
        {
          "indexed": false,
          "internalType": "string",
          "name": "sponsorName",
          "type": "string"
        },
        {
          "indexed": false,
          "internalType": "string",
          "name": "imgUrl",
          "type": "string"
        },
        {
          "indexed": false,
          "internalType": "string",
          "name": "imgLinkToUrl",
          "type": "string"
        }
      ],
      "name": "ContributorInfoUpdated",
      "type": "event"
    },
    {
      "anonymous": false,
      "inputs": [
        {
          "indexed": true,
          "internalType": "address",
          "name": "account",
          "type": "address"
        },
        {
          "indexed": false,
          "internalType": "uint256",
          "name": "groupId",
          "type": "uint256"
        }
      ],
      "name": "ContributorRemoved",
      "type": "event"
    },
    {
      "anonymous": false,
      "inputs": [],
      "name": "CooUpdated",
      "type": "event"
    },
    {
      "anonymous": false,
      "inputs": [
        {
          "indexed": true,
          "internalType": "address",
          "name": "account",
          "type": "address"
        },
        {
          "indexed": false,
          "internalType": "uint256",
          "name": "groupId",
          "type": "uint256"
        }
      ],
      "name": "EligibleRecipientAdded",
      "type": "event"
    },
    {
      "anonymous": false,
      "inputs": [
        {
          "indexed": true,
          "internalType": "address",
          "name": "account",
          "type": "address"
        },
        {
          "indexed": false,
          "internalType": "uint256",
          "name": "groupId",
          "type": "uint256"
        }
      ],
      "name": "EligibleRecipientRemoved",
      "type": "event"
    },
    {
      "anonymous": false,
      "inputs": [],
      "name": "EventClose",
      "type": "event"
    },
    {
      "anonymous": false,
      "inputs": [
        {
          "indexed": true,
          "internalType": "address",
          "name": "endedBy",
          "type": "address"
        },
        {
          "indexed": false,
          "internalType": "uint256",
          "name": "groupId",
          "type": "uint256"
        }
      ],
      "name": "EventEnded",
      "type": "event"
    },
    {
      "anonymous": false,
      "inputs": [
        {
          "indexed": true,
          "internalType": "address",
          "name": "startedBy",
          "type": "address"
        },
        {
          "indexed": false,
          "internalType": "uint256",
          "name": "groupId",
          "type": "uint256"
        }
      ],
      "name": "EventStarted",
      "type": "event"
    },
    {
      "anonymous": false,
      "inputs": [
        {
          "indexed": false,
          "internalType": "string",
          "name": "groupName",
          "type": "string"
        },
        {
          "indexed": false,
          "internalType": "uint256",
          "name": "groupId",
          "type": "uint256"
        }
      ],
      "name": "GroupCreated",
      "type": "event"
    },
    {
      "anonymous": false,
      "inputs": [
        {
          "indexed": true,
          "internalType": "address",
          "name": "account",
          "type": "address"
        },
        {
          "indexed": false,
          "internalType": "uint256",
          "name": "groupId",
          "type": "uint256"
        }
      ],
      "name": "RecipientRegistered",
      "type": "event"
    },
    {
      "anonymous": false,
      "inputs": [
        {
          "indexed": true,
          "internalType": "address",
          "name": "endedBy",
          "type": "address"
        },
        {
          "indexed": false,
          "internalType": "uint256",
          "name": "groupId",
          "type": "uint256"
        }
      ],
      "name": "RegistrationEnded",
      "type": "event"
    },
    {
      "anonymous": false,
      "inputs": [],
      "name": "RegistrationOpen",
      "type": "event"
    },
    {
      "anonymous": false,
      "inputs": [
        {
          "indexed": false,
          "internalType": "address",
          "name": "from",
          "type": "address"
        },
        {
          "indexed": false,
          "internalType": "address",
          "name": "to",
          "type": "address"
        }
      ],
      "name": "Transfer",
      "type": "event"
    },
    {
      "anonymous": false,
      "inputs": [
        {
          "indexed": true,
          "internalType": "address",
          "name": "account",
          "type": "address"
        },
        {
          "indexed": false,
          "internalType": "uint256",
          "name": "groupId",
          "type": "uint256"
        }
      ],
      "name": "WinningsClaimed",
      "type": "event"
    },
    {
      "anonymous": false,
      "inputs": [],
      "name": "WinningsClaimingOpen",
      "type": "event"
    },
    {
      "inputs": [
        {
          "internalType": "address",
          "name": "account",
          "type": "address"
        },
        {
          "internalType": "uint256",
          "name": "groupId",
          "type": "uint256"
        }
      ],
      "name": "addAdmin",
      "outputs": [],
      "stateMutability": "nonpayable",
      "type": "function"
    },
    {
      "inputs": [
        {
          "internalType": "address",
          "name": "account",
          "type": "address"
        },
        {
          "internalType": "string",
          "name": "name",
          "type": "string"
        },
        {
          "internalType": "uint256",
          "name": "groupId",
          "type": "uint256"
        }
      ],
      "name": "addEligibleRecipient",
      "outputs": [],
      "stateMutability": "nonpayable",
      "type": "function"
    },
    {
      "inputs": [
        {
          "internalType": "uint256",
          "name": "groupId",
          "type": "uint256"
        }
      ],
      "name": "amIAdmin",
      "outputs": [
        {
          "internalType": "bool",
          "name": "",
          "type": "bool"
        }
      ],
      "stateMutability": "view",
      "type": "function",
      "constant": true
    },
    {
      "inputs": [
        {
          "internalType": "uint256",
          "name": "groupId",
          "type": "uint256"
        }
      ],
      "name": "amIContributor",
      "outputs": [
        {
          "internalType": "bool",
          "name": "",
          "type": "bool"
        }
      ],
      "stateMutability": "view",
      "type": "function",
      "constant": true
    },
    {
      "inputs": [
        {
          "internalType": "uint256",
          "name": "groupId",
          "type": "uint256"
        }
      ],
      "name": "amIEligibleRecipient",
      "outputs": [
        {
          "internalType": "bool",
          "name": "",
          "type": "bool"
        }
      ],
      "stateMutability": "view",
      "type": "function",
      "constant": true
    },
    {
      "inputs": [
        {
          "internalType": "uint256",
          "name": "groupId",
          "type": "uint256"
        }
      ],
      "name": "amIRegisteredRecipient",
      "outputs": [
        {
          "internalType": "bool",
          "name": "",
          "type": "bool"
        }
      ],
      "stateMutability": "view",
      "type": "function",
      "constant": true
    },
    {
      "inputs": [],
      "name": "ceoAddress",
      "outputs": [
        {
          "internalType": "address",
          "name": "",
          "type": "address"
        }
      ],
      "stateMutability": "view",
      "type": "function",
      "constant": true
    },
    {
      "inputs": [],
      "name": "cfoAddress",
      "outputs": [
        {
          "internalType": "address",
          "name": "",
          "type": "address"
        }
      ],
      "stateMutability": "view",
      "type": "function",
      "constant": true
    },
    {
      "inputs": [
        {
          "internalType": "address",
          "name": "account",
          "type": "address"
        },
        {
          "internalType": "uint256",
          "name": "groupId",
          "type": "uint256"
        }
      ],
      "name": "changeContributor",
      "outputs": [],
      "stateMutability": "nonpayable",
      "type": "function"
    },
    {
      "inputs": [
        {
          "internalType": "uint256",
          "name": "groupId",
          "type": "uint256"
        }
      ],
      "name": "claimWinnings",
      "outputs": [],
      "stateMutability": "nonpayable",
      "type": "function"
    },
    {
      "inputs": [
        {
          "internalType": "uint256",
          "name": "groupId",
          "type": "uint256"
        }
      ],
      "name": "closeEventRegistration",
      "outputs": [],
      "stateMutability": "nonpayable",
      "type": "function"
    },
    {
      "inputs": [
        {
          "internalType": "uint256",
          "name": "groupId",
          "type": "uint256"
        }
      ],
      "name": "contributeToPot",
      "outputs": [],
      "stateMutability": "payable",
      "type": "function",
      "payable": true
    },
    {
      "inputs": [],
      "name": "cooAddress",
      "outputs": [
        {
          "internalType": "address",
          "name": "",
          "type": "address"
        }
      ],
      "stateMutability": "view",
      "type": "function",
      "constant": true
    },
    {
      "inputs": [
        {
          "internalType": "string",
          "name": "groupName",
          "type": "string"
        }
      ],
      "name": "createNewGroup",
      "outputs": [],
      "stateMutability": "nonpayable",
      "type": "function"
    },
    {
      "inputs": [
        {
          "internalType": "uint256",
          "name": "groupId",
          "type": "uint256"
        }
      ],
      "name": "doIHaveClaimableWinnings",
      "outputs": [
        {
          "internalType": "bool",
          "name": "",
          "type": "bool"
        }
      ],
      "stateMutability": "view",
      "type": "function",
      "constant": true
    },
    {
      "inputs": [
        {
          "internalType": "uint256",
          "name": "groupId",
          "type": "uint256"
        }
      ],
      "name": "endEvent",
      "outputs": [],
      "stateMutability": "nonpayable",
      "type": "function"
    },
    {
      "inputs": [
        {
          "internalType": "uint256",
          "name": "groupId",
          "type": "uint256"
        }
      ],
      "name": "getAdminsForGroup",
      "outputs": [
        {
          "internalType": "address[]",
          "name": "",
          "type": "address[]"
        },
        {
          "internalType": "bool[]",
          "name": "",
          "type": "bool[]"
        }
      ],
      "stateMutability": "view",
      "type": "function",
      "constant": true
    },
    {
      "inputs": [],
      "name": "getCFO",
      "outputs": [
        {
          "internalType": "address",
          "name": "",
          "type": "address"
        }
      ],
      "stateMutability": "view",
      "type": "function",
      "constant": true
    },
    {
      "inputs": [],
      "name": "getCOO",
      "outputs": [
        {
          "internalType": "address",
          "name": "",
          "type": "address"
        }
      ],
      "stateMutability": "view",
      "type": "function",
      "constant": true
    },
    {
      "inputs": [
        {
          "internalType": "uint256",
          "name": "groupId",
          "type": "uint256"
        }
      ],
      "name": "getContributorInfo",
      "outputs": [
        {
          "internalType": "string",
          "name": "newContributorName",
          "type": "string"
        },
        {
          "internalType": "string",
          "name": "newContributorImgUrl",
          "type": "string"
        },
        {
          "internalType": "string",
          "name": "newContributorLinkToUrl",
          "type": "string"
        }
      ],
      "stateMutability": "view",
      "type": "function",
      "constant": true
    },
    {
      "inputs": [
        {
          "internalType": "uint256",
          "name": "groupId",
          "type": "uint256"
        }
      ],
      "name": "getCurrentSponsorAddress",
      "outputs": [
        {
          "internalType": "address",
          "name": "",
          "type": "address"
        }
      ],
      "stateMutability": "view",
      "type": "function",
      "constant": true
    },
    {
      "inputs": [
        {
          "internalType": "uint256",
          "name": "groupId",
          "type": "uint256"
        }
      ],
      "name": "getEligibleRecipientAddresses",
      "outputs": [
        {
          "internalType": "address[]",
          "name": "",
          "type": "address[]"
        }
      ],
      "stateMutability": "view",
      "type": "function",
      "constant": true
    },
    {
      "inputs": [
        {
          "internalType": "uint256",
          "name": "groupId",
          "type": "uint256"
        }
      ],
      "name": "getEligibleRecipientIsEligibilityEnabled",
      "outputs": [
        {
          "internalType": "bool[]",
          "name": "",
          "type": "bool[]"
        }
      ],
      "stateMutability": "view",
      "type": "function",
      "constant": true
    },
    {
      "inputs": [
        {
          "internalType": "uint256",
          "name": "groupId",
          "type": "uint256"
        }
      ],
      "name": "getEligibleRecipientNames",
      "outputs": [
        {
          "internalType": "string[]",
          "name": "",
          "type": "string[]"
        }
      ],
      "stateMutability": "view",
      "type": "function",
      "constant": true
    },
    {
      "inputs": [
        {
          "internalType": "uint256",
          "name": "groupId",
          "type": "uint256"
        }
      ],
      "name": "getGroupEventData",
      "outputs": [
        {
          "internalType": "enum EthDropBase.EventState",
          "name": "",
          "type": "uint8"
        },
        {
          "internalType": "uint256",
          "name": "",
          "type": "uint256"
        },
        {
          "internalType": "uint256",
          "name": "",
          "type": "uint256"
        },
        {
          "internalType": "uint256",
          "name": "",
          "type": "uint256"
        },
        {
          "internalType": "uint256",
          "name": "",
          "type": "uint256"
        }
      ],
      "stateMutability": "view",
      "type": "function",
      "constant": true
    },
    {
      "inputs": [],
      "name": "getGroupIds",
      "outputs": [
        {
          "internalType": "uint256[]",
          "name": "",
          "type": "uint256[]"
        }
      ],
      "stateMutability": "view",
      "type": "function",
      "constant": true
    },
    {
      "inputs": [],
      "name": "getGroupNames",
      "outputs": [
        {
          "internalType": "string[]",
          "name": "",
          "type": "string[]"
        }
      ],
      "stateMutability": "view",
      "type": "function",
      "constant": true
    },
    {
      "inputs": [
        {
          "internalType": "uint256",
          "name": "groupId",
          "type": "uint256"
        }
      ],
      "name": "getRegisteredRecipientNames",
      "outputs": [
        {
          "internalType": "string[]",
          "name": "",
          "type": "string[]"
        }
      ],
      "stateMutability": "view",
      "type": "function",
      "constant": true
    },
    {
      "inputs": [
        {
          "internalType": "uint256",
          "name": "groupId",
          "type": "uint256"
        }
      ],
      "name": "getRegisteredRecipients",
      "outputs": [
        {
          "internalType": "address[]",
          "name": "",
          "type": "address[]"
        }
      ],
      "stateMutability": "view",
      "type": "function",
      "constant": true
    },
    {
      "inputs": [],
      "name": "getString",
      "outputs": [
        {
          "internalType": "string",
          "name": "",
          "type": "string"
        }
      ],
      "stateMutability": "view",
      "type": "function",
      "constant": true
    },
    {
      "inputs": [
        {
          "internalType": "address",
          "name": "account",
          "type": "address"
        },
        {
          "internalType": "uint256",
          "name": "groupId",
          "type": "uint256"
        }
      ],
      "name": "isAdmin",
      "outputs": [
        {
          "internalType": "bool",
          "name": "",
          "type": "bool"
        }
      ],
      "stateMutability": "view",
      "type": "function",
      "constant": true
    },
    {
      "inputs": [],
      "name": "isCEO",
      "outputs": [
        {
          "internalType": "bool",
          "name": "",
          "type": "bool"
        }
      ],
      "stateMutability": "view",
      "type": "function",
      "constant": true
    },
    {
      "inputs": [],
      "name": "isCFO",
      "outputs": [
        {
          "internalType": "bool",
          "name": "",
          "type": "bool"
        }
      ],
      "stateMutability": "view",
      "type": "function",
      "constant": true
    },
    {
      "inputs": [],
      "name": "isCOO",
      "outputs": [
        {
          "internalType": "bool",
          "name": "",
          "type": "bool"
        }
      ],
      "stateMutability": "view",
      "type": "function",
      "constant": true
    },
    {
      "inputs": [
        {
          "internalType": "address",
          "name": "account",
          "type": "address"
        },
        {
          "internalType": "uint256",
          "name": "groupId",
          "type": "uint256"
        }
      ],
      "name": "isContributor",
      "outputs": [
        {
          "internalType": "bool",
          "name": "",
          "type": "bool"
        }
      ],
      "stateMutability": "view",
      "type": "function",
      "constant": true
    },
    {
      "inputs": [
        {
          "internalType": "address",
          "name": "account",
          "type": "address"
        },
        {
          "internalType": "uint256",
          "name": "groupId",
          "type": "uint256"
        }
      ],
      "name": "isEligibleRecipient",
      "outputs": [
        {
          "internalType": "bool",
          "name": "",
          "type": "bool"
        }
      ],
      "stateMutability": "view",
      "type": "function",
      "constant": true
    },
    {
      "inputs": [],
      "name": "isPaused",
      "outputs": [
        {
          "internalType": "bool",
          "name": "",
          "type": "bool"
        }
      ],
      "stateMutability": "view",
      "type": "function",
      "constant": true
    },
    {
      "inputs": [
        {
          "internalType": "address",
          "name": "account",
          "type": "address"
        },
        {
          "internalType": "uint256",
          "name": "groupId",
          "type": "uint256"
        }
      ],
      "name": "isRegisteredRecipient",
      "outputs": [
        {
          "internalType": "bool",
          "name": "",
          "type": "bool"
        }
      ],
      "stateMutability": "view",
      "type": "function",
      "constant": true
    },
    {
      "inputs": [],
      "name": "newContractAddress",
      "outputs": [
        {
          "internalType": "address",
          "name": "",
          "type": "address"
        }
      ],
      "stateMutability": "view",
      "type": "function",
      "constant": true
    },
    {
      "inputs": [],
      "name": "pause",
      "outputs": [],
      "stateMutability": "nonpayable",
      "type": "function"
    },
    {
      "inputs": [],
      "name": "paused",
      "outputs": [
        {
          "internalType": "bool",
          "name": "",
          "type": "bool"
        }
      ],
      "stateMutability": "view",
      "type": "function",
      "constant": true
    },
    {
      "inputs": [
        {
          "internalType": "uint256",
          "name": "groupId",
          "type": "uint256"
        }
      ],
      "name": "readEventInfo",
      "outputs": [
        {
          "components": [
            {
              "internalType": "uint256",
              "name": "groupId",
              "type": "uint256"
            },
            {
              "internalType": "string",
              "name": "groupName",
              "type": "string"
            },
            {
              "internalType": "enum EthDropBase.EventState",
              "name": "currentState",
              "type": "uint8"
            },
            {
              "internalType": "uint256",
              "name": "startTime",
              "type": "uint256"
            },
            {
              "internalType": "uint256",
              "name": "registrationEndTime",
              "type": "uint256"
            },
            {
              "internalType": "uint256",
              "name": "endTime",
              "type": "uint256"
            },
            {
              "internalType": "uint256",
              "name": "registeredRecipientsCount",
              "type": "uint256"
            },
            {
              "internalType": "string",
              "name": "sponsorName",
              "type": "string"
            },
            {
              "internalType": "string",
              "name": "sponsorImageUrl",
              "type": "string"
            },
            {
              "internalType": "string",
              "name": "sponsorLinkToUrl",
              "type": "string"
            },
            {
              "internalType": "address",
              "name": "currentContributor",
              "type": "address"
            },
            {
              "internalType": "uint256",
              "name": "totalAmountContributed",
              "type": "uint256"
            },
            {
              "internalType": "uint256",
              "name": "weiWinnings",
              "type": "uint256"
            },
            {
              "internalType": "uint256",
              "name": "numberOfUsersWhoClaimedWinnings",
              "type": "uint256"
            }
          ],
          "internalType": "struct EthDropBase.EthDropEvent",
          "name": "",
          "type": "tuple"
        }
      ],
      "stateMutability": "view",
      "type": "function",
      "constant": true
    },
    {
      "inputs": [
        {
          "internalType": "uint256",
          "name": "groupId",
          "type": "uint256"
        }
      ],
      "name": "registerForEvent",
      "outputs": [],
      "stateMutability": "nonpayable",
      "type": "function"
    },
    {
      "inputs": [
        {
          "internalType": "address",
          "name": "account",
          "type": "address"
        },
        {
          "internalType": "uint256",
          "name": "groupId",
          "type": "uint256"
        }
      ],
      "name": "removeAdmin",
      "outputs": [],
      "stateMutability": "nonpayable",
      "type": "function"
    },
    {
      "inputs": [
        {
          "internalType": "address",
          "name": "account",
          "type": "address"
        },
        {
          "internalType": "uint256",
          "name": "groupId",
          "type": "uint256"
        }
      ],
      "name": "removeContributor",
      "outputs": [],
      "stateMutability": "nonpayable",
      "type": "function"
    },
    {
      "inputs": [
        {
          "internalType": "address",
          "name": "account",
          "type": "address"
        },
        {
          "internalType": "uint256",
          "name": "groupId",
          "type": "uint256"
        }
      ],
      "name": "removeEligibleRecipient",
      "outputs": [],
      "stateMutability": "nonpayable",
      "type": "function"
    },
    {
      "inputs": [
        {
          "internalType": "uint256",
          "name": "groupId",
          "type": "uint256"
        }
      ],
      "name": "renounceAdmin",
      "outputs": [],
      "stateMutability": "nonpayable",
      "type": "function"
    },
    {
      "inputs": [
        {
          "internalType": "uint256",
          "name": "groupId",
          "type": "uint256"
        }
      ],
      "name": "renounceContributor",
      "outputs": [],
      "stateMutability": "nonpayable",
      "type": "function"
    },
    {
      "inputs": [
        {
          "internalType": "address",
          "name": "_newCEO",
          "type": "address"
        }
      ],
      "name": "setCEO",
      "outputs": [],
      "stateMutability": "nonpayable",
      "type": "function"
    },
    {
      "inputs": [
        {
          "internalType": "address",
          "name": "_newCFO",
          "type": "address"
        }
      ],
      "name": "setCFO",
      "outputs": [],
      "stateMutability": "nonpayable",
      "type": "function"
    },
    {
      "inputs": [
        {
          "internalType": "address",
          "name": "_newCOO",
          "type": "address"
        }
      ],
      "name": "setCOO",
      "outputs": [],
      "stateMutability": "nonpayable",
      "type": "function"
    },
    {
      "inputs": [
        {
          "internalType": "string",
          "name": "_s",
          "type": "string"
        }
      ],
      "name": "setString",
      "outputs": [],
      "stateMutability": "nonpayable",
      "type": "function"
    },
    {
      "inputs": [
        {
          "internalType": "uint256",
          "name": "groupId",
          "type": "uint256"
        }
      ],
      "name": "startEvent",
      "outputs": [],
      "stateMutability": "nonpayable",
      "type": "function"
    },
    {
      "inputs": [],
      "name": "stringgg",
      "outputs": [
        {
          "internalType": "string",
          "name": "",
          "type": "string"
        }
      ],
      "stateMutability": "view",
      "type": "function",
      "constant": true
    },
    {
      "inputs": [],
      "name": "unpause",
      "outputs": [
        {
          "internalType": "bool",
          "name": "",
          "type": "bool"
        }
      ],
      "stateMutability": "nonpayable",
      "type": "function"
    },
    {
      "inputs": [
        {
          "internalType": "uint256",
          "name": "groupId",
          "type": "uint256"
        },
        {
          "internalType": "string",
          "name": "newContributorName",
          "type": "string"
        },
        {
          "internalType": "string",
          "name": "newContributorImgUrl",
          "type": "string"
        },
        {
          "internalType": "string",
          "name": "newContributorLinkToUrl",
          "type": "string"
        }
      ],
      "name": "updateContributorInfo",
      "outputs": [],
      "stateMutability": "nonpayable",
      "type": "function"
    },
    {
      "inputs": [],
      "name": "whoami",
      "outputs": [
        {
          "internalType": "address",
          "name": "",
          "type": "address"
        }
      ],
      "stateMutability": "view",
      "type": "function",
      "constant": true
    },
    {
      "inputs": [
        {
          "internalType": "address",
          "name": "_v2Address",
          "type": "address"
        }
      ],
      "name": "setNewAddress",
      "outputs": [],
      "stateMutability": "nonpayable",
      "type": "function"
    },
    {
      "inputs": [],
      "name": "foobar",
      "outputs": [
        {
          "internalType": "string",
          "name": "",
          "type": "string"
        }
      ],
      "stateMutability": "pure",
      "type": "function",
      "constant": true
    }
  ],
  "bytecode": "0x60806040526000600360146101000a81548160ff02191690831515021790555060056004556000600b5534801561003557600080fd5b506000600360146101000a81548160ff02191690831515021790555033600160006101000a81548173ffffffffffffffffffffffffffffffffffffffff021916908373ffffffffffffffffffffffffffffffffffffffff160217905550615a4c80620000a26000396000f3fe60806040526004361061038c5760003560e01c80637d837ce5116101dc578063c02b8b2c11610102578063e513b7a9116100a0578063ee41b5921161006f578063ee41b59214610dbc578063f4a02e7014610df9578063f89e9cb914610e24578063fc5fd6e414610e615761038c565b8063e513b7a914610d0f578063e62092be14610d3a578063e82f24e014610d77578063ea303f0814610d935761038c565b8063c6e0ddfa116100dc578063c6e0ddfa14610c55578063d5f016c314610c7e578063e320d5e714610ca9578063e33db42614610cd25761038c565b8063c02b8b2c14610bd6578063c271e80c14610c01578063c6db509414610c2a5761038c565b8063962ecff51161017a578063aea88a0511610149578063aea88a0514610b2c578063b047fb5014610b55578063b187bd2614610b80578063b3b36bb314610bab5761038c565b8063962ecff514610a60578063967cafbc14610a9d5780639bda879614610ac6578063a59a695314610b035761038c565b80638182aaf2116101b65780638182aaf2146109b65780638456cb59146109f357806389ea642f14610a0a5780639393ae3714610a355761038c565b80637d837ce5146109275780637fcaf666146109645780637fcb29c91461098d5761038c565b806344b2983b116102c15780635e82c1fc1161025f5780636ebdec491161022e5780636ebdec491461086c57806371587988146108aa578063785142be146108d35780637b936ac2146108fc5761038c565b80635e82c1fc1461079c578063674811ca146107d9578063677bd9ff146108185780636af04a57146108415761038c565b80634e0a33791161029b5780634e0a3379146106e25780634f1ef03c1461070b57806355b57ec1146107345780635c975abb146107715761038c565b806344b2983b14610627578063454432e2146106645780634635509b146106a15761038c565b806327d7874c1161032e578063330a347b11610308578063330a347b1461056d57806338f0b656146105965780633f4ba83a146105d3578063406db843146105fe5761038c565b806327d7874c146104f25780632ba73c151461051b57806330bb0115146105445761038c565b806307bfa3301161036a57806307bfa330146104245780630a0f8168146104615780630d82ffa01461048c57806315891ff4146104c95761038c565b80630519ce791461039157806305df75db146103bc57806306cc4922146103e7575b600080fd5b34801561039d57600080fd5b506103a6610e8c565b6040516103b391906151b6565b60405180910390f35b3480156103c857600080fd5b506103d1610eb2565b6040516103de91906152fe565b60405180910390f35b3480156103f357600080fd5b5061040e60048036038101906104099190614c18565b610eef565b60405161041b9190615290565b60405180910390f35b34801561043057600080fd5b5061044b60048036038101906104469190614c18565b610f1c565b604051610458919061524c565b60405180910390f35b34801561046d57600080fd5b50610476611008565b60405161048391906151b6565b60405180910390f35b34801561049857600080fd5b506104b360048036038101906104ae9190614c18565b61102e565b6040516104c091906151b6565b60405180910390f35b3480156104d557600080fd5b506104f060048036038101906104eb9190614b8f565b61106e565b005b3480156104fe57600080fd5b5061051960048036038101906105149190614af3565b611158565b005b34801561052757600080fd5b50610542600480360381019061053d9190614af3565b611230565b005b34801561055057600080fd5b5061056b60048036038101906105669190614c18565b611334565b005b34801561057957600080fd5b50610594600480360381019061058f9190614c18565b611356565b005b3480156105a257600080fd5b506105bd60048036038101906105b89190614c18565b611940565b6040516105ca9190615290565b60405180910390f35b3480156105df57600080fd5b506105e861196d565b6040516105f59190615290565b60405180910390f35b34801561060a57600080fd5b5061062560048036038101906106209190614c18565b611a12565b005b34801561063357600080fd5b5061064e60048036038101906106499190614c18565b611cc6565b60405161065b91906151d1565b60405180910390f35b34801561067057600080fd5b5061068b60048036038101906106869190614c18565b611d67565b604051610698919061524c565b60405180910390f35b3480156106ad57600080fd5b506106c860048036038101906106c39190614c18565b611e53565b6040516106d99594939291906152ab565b60405180910390f35b3480156106ee57600080fd5b5061070960048036038101906107049190614af3565b6121d6565b005b34801561071757600080fd5b50610732600480360381019061072d9190614c18565b6122a0565b005b34801561074057600080fd5b5061075b60048036038101906107569190614c18565b6122dc565b604051610768919061522a565b60405180910390f35b34801561077d57600080fd5b5061078661236c565b6040516107939190615290565b60405180910390f35b3480156107a857600080fd5b506107c360048036038101906107be9190614b8f565b61237f565b6040516107d09190615290565b60405180910390f35b3480156107e557600080fd5b5061080060048036038101906107fb9190614c18565b612408565b60405161080f93929190615350565b60405180910390f35b34801561082457600080fd5b5061083f600480360381019061083a9190614c18565b612600565b005b34801561084d57600080fd5b506108566127e5565b60405161086391906151b6565b60405180910390f35b34801561087857600080fd5b50610893600480360381019061088e9190614c18565b61280b565b6040516108a19291906151f3565b60405180910390f35b3480156108b657600080fd5b506108d160048036038101906108cc9190614af3565b61293c565b005b3480156108df57600080fd5b506108fa60048036038101906108f59190614c18565b612a2a565b005b34801561090857600080fd5b50610911612c05565b60405161091e91906151b6565b60405180910390f35b34801561093357600080fd5b5061094e60048036038101906109499190614b8f565b612c2f565b60405161095b9190615290565b60405180910390f35b34801561097057600080fd5b5061098b60048036038101906109869190614bcf565b612cb8565b005b34801561099957600080fd5b506109b460048036038101906109af9190614b8f565b612cd2565b005b3480156109c257600080fd5b506109dd60048036038101906109d89190614b8f565b612d71565b6040516109ea9190615290565b60405180910390f35b3480156109ff57600080fd5b50610a08612dfa565b005b348015610a1657600080fd5b50610a1f612f3b565b604051610a2c91906152fe565b60405180910390f35b348015610a4157600080fd5b50610a4a612fcd565b604051610a579190615290565b60405180910390f35b348015610a6c57600080fd5b50610a876004803603810190610a829190614c18565b613025565b604051610a949190615290565b60405180910390f35b348015610aa957600080fd5b50610ac46004803603810190610abf9190614b20565b613093565b005b348015610ad257600080fd5b50610aed6004803603810190610ae89190614c18565b6132fa565b604051610afa91906151d1565b60405180910390f35b348015610b0f57600080fd5b50610b2a6004803603810190610b259190614c18565b61339b565b005b348015610b3857600080fd5b50610b536004803603810190610b4e9190614c45565b613475565b005b348015610b6157600080fd5b50610b6a6135ae565b604051610b7791906151b6565b60405180910390f35b348015610b8c57600080fd5b50610b956135d4565b604051610ba29190615290565b60405180910390f35b348015610bb757600080fd5b50610bc06135eb565b604051610bcd91906151b6565b60405180910390f35b348015610be257600080fd5b50610beb6135f3565b604051610bf8919061526e565b60405180910390f35b348015610c0d57600080fd5b50610c286004803603810190610c239190614b8f565b61364b565b005b348015610c3657600080fd5b50610c3f6136e0565b604051610c4c91906152fe565b60405180910390f35b348015610c6157600080fd5b50610c7c6004803603810190610c779190614b8f565b61376e565b005b348015610c8a57600080fd5b50610c936137d6565b604051610ca0919061524c565b60405180910390f35b348015610cb557600080fd5b50610cd06004803603810190610ccb9190614b8f565b6138af565b005b348015610cde57600080fd5b50610cf96004803603810190610cf49190614c18565b613944565b604051610d06919061539c565b60405180910390f35b348015610d1b57600080fd5b50610d24613cb0565b604051610d319190615290565b60405180910390f35b348015610d4657600080fd5b50610d616004803603810190610d5c9190614b8f565b613d08565b604051610d6e9190615290565b60405180910390f35b610d916004803603810190610d8c9190614c18565b613d77565b005b348015610d9f57600080fd5b50610dba6004803603810190610db59190614bcf565b613e3c565b005b348015610dc857600080fd5b50610de36004803603810190610dde9190614c18565b61416e565b604051610df09190615290565b60405180910390f35b348015610e0557600080fd5b50610e0e61419b565b604051610e1b9190615290565b60405180910390f35b348015610e3057600080fd5b50610e4b6004803603810190610e469190614c18565b6141f3565b604051610e589190615290565b60405180910390f35b348015610e6d57600080fd5b50610e7661427a565b604051610e8391906151b6565b60405180910390f35b600260009054906101000a900473ffffffffffffffffffffffffffffffffffffffff1681565b60606040518060400160405280600d81526020017f666f6f6261727272727272722100000000000000000000000000000000000000815250905090565b6000600360149054906101000a900460ff1615610f0b57600080fd5b610f15338361237f565b9050919050565b606060166000838152602001908152602001600020805480602002602001604051908101604052809291908181526020016000905b82821015610ffd578382906000526020600020018054610f70906157e9565b80601f0160208091040260200160405190810160405280929190818152602001828054610f9c906157e9565b8015610fe95780601f10610fbe57610100808354040283529160200191610fe9565b820191906000526020600020905b815481529060010190602001808311610fcc57829003601f168201915b505050505081526020019060010190610f51565b505050509050919050565b600160009054906101000a900473ffffffffffffffffffffffffffffffffffffffff1681565b600060076000838152602001908152602001600020600a0160009054906101000a900473ffffffffffffffffffffffffffffffffffffffff169050919050565b806110793382613d08565b61108257600080fd5b600360149054906101000a900460ff161561109c57600080fd5b60006011600084815260200190815260200160002060008573ffffffffffffffffffffffffffffffffffffffff1673ffffffffffffffffffffffffffffffffffffffff16815260200190815260200160002060006101000a81548160ff0219169083151502179055508273ffffffffffffffffffffffffffffffffffffffff167f1af6d16168d33745872119540d28858eed156c5f265206bbf1344fda39a93a338360405161114b91906153be565b60405180910390a2505050565b600160009054906101000a900473ffffffffffffffffffffffffffffffffffffffff1673ffffffffffffffffffffffffffffffffffffffff163373ffffffffffffffffffffffffffffffffffffffff16146111b257600080fd5b600073ffffffffffffffffffffffffffffffffffffffff168173ffffffffffffffffffffffffffffffffffffffff1614156111ec57600080fd5b80600160006101000a81548173ffffffffffffffffffffffffffffffffffffffff021916908373ffffffffffffffffffffffffffffffffffffffff16021790555050565b600160009054906101000a900473ffffffffffffffffffffffffffffffffffffffff1673ffffffffffffffffffffffffffffffffffffffff163373ffffffffffffffffffffffffffffffffffffffff161461128a57600080fd5b600073ffffffffffffffffffffffffffffffffffffffff168173ffffffffffffffffffffffffffffffffffffffff1614156112c457600080fd5b80600360006101000a81548173ffffffffffffffffffffffffffffffffffffffff021916908373ffffffffffffffffffffffffffffffffffffffff1602179055507fa308298a77084def994b565be25bff2e8fbfe7006c2c6b2bacfb84d1ba1f635060405160405180910390a150565b8061133f3382613d08565b61134857600080fd5b61135233836142a4565b5050565b806113613382613d08565b806113b95750600360009054906101000a900473ffffffffffffffffffffffffffffffffffffffff1673ffffffffffffffffffffffffffffffffffffffff163373ffffffffffffffffffffffffffffffffffffffff16145b6113c257600080fd5b600360149054906101000a900460ff16156113dc57600080fd5b42600760008481526020019081526020016000206005018190555060036007600084815260200190815260200160002060020160006101000a81548160ff02191690836003811115611431576114306158f3565b5b021790555060005b60076000848152602001908152602001600020600601548110156115db57600060186000858152602001908152602001600020828154811061147e5761147d615951565b5b9060005260206000200160009054906101000a900473ffffffffffffffffffffffffffffffffffffffff1690506017600085815260200190815260200160002060008273ffffffffffffffffffffffffffffffffffffffff1673ffffffffffffffffffffffffffffffffffffffff16815260200190815260200160002060006101000a81549060ff02191690556015600085815260200190815260200160002060008273ffffffffffffffffffffffffffffffffffffffff1673ffffffffffffffffffffffffffffffffffffffff168152602001908152602001600020600061156791906147ec565b600c600085815260200190815260200160002060008273ffffffffffffffffffffffffffffffffffffffff1673ffffffffffffffffffffffffffffffffffffffff16815260200190815260200160002060006101000a81549060ff02191690555080806115d39061584c565b915050611439565b506016600083815260200190815260200160002060006115fb919061482c565b60186000838152602001908152602001600020600061161a919061484d565b600860008381526020019081526020016000206007600084815260200190815260200160002090806001815401808255809150506001900390600052602060002090600e0201600090919091909150600082015481600001556001820181600101908054611687906157e9565b61169292919061486e565b506002820160009054906101000a900460ff168160020160006101000a81548160ff021916908360038111156116cb576116ca6158f3565b5b021790555060038201548160030155600482015481600401556005820154816005015560068201548160060155600782018160070190805461170c906157e9565b61171792919061486e565b50600882018160080190805461172c906157e9565b61173792919061486e565b50600982018160090190805461174c906157e9565b61175792919061486e565b50600a820160009054906101000a900473ffffffffffffffffffffffffffffffffffffffff1681600a0160006101000a81548173ffffffffffffffffffffffffffffffffffffffff021916908373ffffffffffffffffffffffffffffffffffffffff160217905550600b82015481600b0155600c82015481600c0155600d82015481600d0155505060006007600084815260200190815260200160002060060181905550600060076000848152602001908152602001600020600b0181905550600060076000848152602001908152602001600020600c0181905550600060076000848152602001908152602001600020600d01819055503373ffffffffffffffffffffffffffffffffffffffff167f5dc1fe5ab986a852c4eda8e8bb94247d13307065c593fb83f1a09be2736793828360006040516118989291906153d9565b60405180910390a23373ffffffffffffffffffffffffffffffffffffffff167f0695e999be8100bdb5bee8612337296508d527eae78c65b8f170eacb5a3b439d836040516118e691906153be565b60405180910390a23373ffffffffffffffffffffffffffffffffffffffff167f6f45a19e8850c727d0de9f32e0d8691324a9a74ffb4347652e6404138b1d81658360405161193491906153be565b60405180910390a25050565b6000600360149054906101000a900460ff161561195c57600080fd5b6119663383612c2f565b9050919050565b6000600160009054906101000a900473ffffffffffffffffffffffffffffffffffffffff1673ffffffffffffffffffffffffffffffffffffffff163373ffffffffffffffffffffffffffffffffffffffff16146119c957600080fd5b600360149054906101000a900460ff166119e257600080fd5b6000600360146101000a81548160ff021916908315150217905550600360149054906101000a900460ff16905090565b80611a1d338261237f565b611a2657600080fd5b600360149054906101000a900460ff1615611a4057600080fd5b60016017600084815260200190815260200160002060003373ffffffffffffffffffffffffffffffffffffffff1673ffffffffffffffffffffffffffffffffffffffff16815260200190815260200160002060006101000a81548160ff02191690831515021790555060186000838152602001908152602001600020339080600181540180825580915050600190039060005260206000200160009091909190916101000a81548173ffffffffffffffffffffffffffffffffffffffff021916908373ffffffffffffffffffffffffffffffffffffffff16021790555060006015600084815260200190815260200160002060003373ffffffffffffffffffffffffffffffffffffffff1673ffffffffffffffffffffffffffffffffffffffff1681526020019081526020016000208054611b7a906157e9565b80601f0160208091040260200160405190810160405280929190818152602001828054611ba6906157e9565b8015611bf35780601f10611bc857610100808354040283529160200191611bf3565b820191906000526020600020905b815481529060010190602001808311611bd657829003601f168201915b505050505090506016600084815260200190815260200160002081908060018154018082558091505060019003906000526020600020016000909190919091509080519060200190611c469291906148fb565b50600760008481526020019081526020016000206006016000815480929190611c6e9061584c565b91905055503373ffffffffffffffffffffffffffffffffffffffff167f0695e999be8100bdb5bee8612337296508d527eae78c65b8f170eacb5a3b439d84604051611cb991906153be565b60405180910390a2505050565b606060186000838152602001908152602001600020805480602002602001604051908101604052809291908181526020018280548015611d5b57602002820191906000526020600020905b8160009054906101000a900473ffffffffffffffffffffffffffffffffffffffff1673ffffffffffffffffffffffffffffffffffffffff1681526020019060010190808311611d11575b50505050509050919050565b606060136000838152602001908152602001600020805480602002602001604051908101604052809291908181526020016000905b82821015611e48578382906000526020600020018054611dbb906157e9565b80601f0160208091040260200160405190810160405280929190818152602001828054611de7906157e9565b8015611e345780601f10611e0957610100808354040283529160200191611e34565b820191906000526020600020905b815481529060010190602001808311611e1757829003601f168201915b505050505081526020019060010190611d9c565b505050509050919050565b60008060008060008060076000888152602001908152602001600020604051806101c001604052908160008201548152602001600182018054611e95906157e9565b80601f0160208091040260200160405190810160405280929190818152602001828054611ec1906157e9565b8015611f0e5780601f10611ee357610100808354040283529160200191611f0e565b820191906000526020600020905b815481529060010190602001808311611ef157829003601f168201915b505050505081526020016002820160009054906101000a900460ff166003811115611f3c57611f3b6158f3565b5b6003811115611f4e57611f4d6158f3565b5b815260200160038201548152602001600482015481526020016005820154815260200160068201548152602001600782018054611f8a906157e9565b80601f0160208091040260200160405190810160405280929190818152602001828054611fb6906157e9565b80156120035780601f10611fd857610100808354040283529160200191612003565b820191906000526020600020905b815481529060010190602001808311611fe657829003601f168201915b5050505050815260200160088201805461201c906157e9565b80601f0160208091040260200160405190810160405280929190818152602001828054612048906157e9565b80156120955780601f1061206a57610100808354040283529160200191612095565b820191906000526020600020905b81548152906001019060200180831161207857829003601f168201915b505050505081526020016009820180546120ae906157e9565b80601f01602080910402602001604051908101604052809291908181526020018280546120da906157e9565b80156121275780601f106120fc57610100808354040283529160200191612127565b820191906000526020600020905b81548152906001019060200180831161210a57829003601f168201915b50505050508152602001600a820160009054906101000a900473ffffffffffffffffffffffffffffffffffffffff1673ffffffffffffffffffffffffffffffffffffffff1673ffffffffffffffffffffffffffffffffffffffff168152602001600b8201548152602001600c8201548152602001600d82015481525050905080604001518160c00151826101600151836101800151846101a00151955095509550955095505091939590929450565b600160009054906101000a900473ffffffffffffffffffffffffffffffffffffffff1673ffffffffffffffffffffffffffffffffffffffff163373ffffffffffffffffffffffffffffffffffffffff161461223057600080fd5b80600260006101000a81548173ffffffffffffffffffffffffffffffffffffffff021916908373ffffffffffffffffffffffffffffffffffffffff1602179055507f162e32528b5907ecf876b3b7a4e5e0edf878642e3ec25852e3c35af1a4e1c04060405160405180910390a150565b806122ab3382612d71565b6122b457600080fd5b600360149054906101000a900460ff16156122ce57600080fd5b6122d833836143ee565b5050565b60606014600083815260200190815260200160002080548060200260200160405190810160405280929190818152602001828054801561236057602002820191906000526020600020906000905b82829054906101000a900460ff1615158152602001906001019060208260000104928301926001038202915080841161232a5790505b50505050509050919050565b600360149054906101000a900460ff1681565b6000600360149054906101000a900460ff161561239b57600080fd5b600115156011600084815260200190815260200160002060008573ffffffffffffffffffffffffffffffffffffffff1673ffffffffffffffffffffffffffffffffffffffff16815260200190815260200160002060009054906101000a900460ff16151514905092915050565b606080606060076000858152602001908152602001600020600701600760008681526020019081526020016000206008016007600087815260200190815260200160002060090182805461245b906157e9565b80601f0160208091040260200160405190810160405280929190818152602001828054612487906157e9565b80156124d45780601f106124a9576101008083540402835291602001916124d4565b820191906000526020600020905b8154815290600101906020018083116124b757829003601f168201915b505050505092508180546124e7906157e9565b80601f0160208091040260200160405190810160405280929190818152602001828054612513906157e9565b80156125605780601f1061253557610100808354040283529160200191612560565b820191906000526020600020905b81548152906001019060200180831161254357829003601f168201915b50505050509150808054612573906157e9565b80601f016020809104026020016040519081016040528092919081815260200182805461259f906157e9565b80156125ec5780601f106125c1576101008083540402835291602001916125ec565b820191906000526020600020905b8154815290600101906020018083116125cf57829003601f168201915b505050505090509250925092509193909250565b8061260b3382612c2f565b61261457600080fd5b813360011515600c600084815260200190815260200160002060003373ffffffffffffffffffffffffffffffffffffffff1673ffffffffffffffffffffffffffffffffffffffff16815260200190815260200160002060009054906101000a900460ff161515141561268557600080fd5b600360149054906101000a900460ff161561269f57600080fd5b6001600c600086815260200190815260200160002060003373ffffffffffffffffffffffffffffffffffffffff1673ffffffffffffffffffffffffffffffffffffffff16815260200190815260200160002060006101000a81548160ff02191690831515021790555060076000858152602001908152602001600020600d01600081548092919061272f9061584c565b91905055503373ffffffffffffffffffffffffffffffffffffffff166108fc60076000878152602001908152602001600020600c01549081150290604051600060405180830381858888f19350505050158015612790573d6000803e3d6000fd5b503373ffffffffffffffffffffffffffffffffffffffff167f1a31e733a172afcf46074b3106c17f0c298e226442682a03c1e99ce256139ec2856040516127d791906153be565b60405180910390a250505050565b601960009054906101000a900473ffffffffffffffffffffffffffffffffffffffff1681565b606080600d6000848152602001908152602001600020600f6000858152602001908152602001600020818054806020026020016040519081016040528092919081815260200182805480156128b557602002820191906000526020600020905b8160009054906101000a900473ffffffffffffffffffffffffffffffffffffffff1673ffffffffffffffffffffffffffffffffffffffff168152602001906001019080831161286b575b505050505091508080548060200260200160405190810160405280929190818152602001828054801561292c57602002820191906000526020600020906000905b82829054906101000a900460ff161515815260200190600101906020826000010492830192600103820291508084116128f65790505b5050505050905091509150915091565b600160009054906101000a900473ffffffffffffffffffffffffffffffffffffffff1673ffffffffffffffffffffffffffffffffffffffff163373ffffffffffffffffffffffffffffffffffffffff161461299657600080fd5b600360149054906101000a900460ff166129af57600080fd5b80601960006101000a81548173ffffffffffffffffffffffffffffffffffffffff021916908373ffffffffffffffffffffffffffffffffffffffff1602179055507f450db8da6efbe9c22f2347f7c2021231df1fc58d3ae9a2fa75d39fa44619930581604051612a1f91906151b6565b60405180910390a150565b80612a353382613d08565b612a3e57600080fd5b600360149054906101000a900460ff1615612a5857600080fd5b4260076000848152602001908152602001600020600401819055506000606460045460076000868152602001908152602001600020600b0154612a9b9190615688565b612aa59190615657565b9050600260009054906101000a900473ffffffffffffffffffffffffffffffffffffffff1673ffffffffffffffffffffffffffffffffffffffff166108fc829081150290604051600060405180830381858888f19350505050158015612b0f573d6000803e3d6000fd5b5060008160076000868152602001908152602001600020600b0154612b3491906156e2565b9050600760008581526020019081526020016000206006015481612b589190615657565b60076000868152602001908152602001600020600c018190555060026007600086815260200190815260200160002060020160006101000a81548160ff02191690836003811115612bac57612bab6158f3565b5b02179055503373ffffffffffffffffffffffffffffffffffffffff167fef898a6941c945450e9bbdad4a76fcd0f51f42f7e251fddcb1e5479ba786d5e485604051612bf791906153be565b60405180910390a250505050565b6000600260009054906101000a900473ffffffffffffffffffffffffffffffffffffffff16905090565b6000600360149054906101000a900460ff1615612c4b57600080fd5b600115156017600084815260200190815260200160002060008573ffffffffffffffffffffffffffffffffffffffff1673ffffffffffffffffffffffffffffffffffffffff16815260200190815260200160002060009054906101000a900460ff16151514905092915050565b8060009080519060200190612cce9291906148fb565b5050565b600360009054906101000a900473ffffffffffffffffffffffffffffffffffffffff1673ffffffffffffffffffffffffffffffffffffffff163373ffffffffffffffffffffffffffffffffffffffff1614612d2c57600080fd5b612d3682826144ff565b7f6d08be0da99b3a8dabb8a9d0bd4ebece8d00f747b0d0e6c29f97508f1a40a29181604051612d6591906153be565b60405180910390a15050565b6000600360149054906101000a900460ff1615612d8d57600080fd5b60076000838152602001908152602001600020600a0160009054906101000a900473ffffffffffffffffffffffffffffffffffffffff1673ffffffffffffffffffffffffffffffffffffffff168373ffffffffffffffffffffffffffffffffffffffff1614905092915050565b600360009054906101000a900473ffffffffffffffffffffffffffffffffffffffff1673ffffffffffffffffffffffffffffffffffffffff163373ffffffffffffffffffffffffffffffffffffffff161480612ea35750600160009054906101000a900473ffffffffffffffffffffffffffffffffffffffff1673ffffffffffffffffffffffffffffffffffffffff163373ffffffffffffffffffffffffffffffffffffffff16145b80612efb5750600260009054906101000a900473ffffffffffffffffffffffffffffffffffffffff1673ffffffffffffffffffffffffffffffffffffffff163373ffffffffffffffffffffffffffffffffffffffff16145b612f0457600080fd5b600360149054906101000a900460ff1615612f1e57600080fd5b6001600360146101000a81548160ff021916908315150217905550565b606060008054612f4a906157e9565b80601f0160208091040260200160405190810160405280929190818152602001828054612f76906157e9565b8015612fc35780601f10612f9857610100808354040283529160200191612fc3565b820191906000526020600020905b815481529060010190602001808311612fa657829003601f168201915b5050505050905090565b6000600260009054906101000a900473ffffffffffffffffffffffffffffffffffffffff1673ffffffffffffffffffffffffffffffffffffffff163373ffffffffffffffffffffffffffffffffffffffff1614905090565b6000600115156009600084815260200190815260200160002060003373ffffffffffffffffffffffffffffffffffffffff1673ffffffffffffffffffffffffffffffffffffffff16815260200190815260200160002060009054906101000a900460ff161515149050919050565b600360149054906101000a900460ff16156130ad57600080fd5b806130b83382613d08565b6130c157600080fd5b60016011600084815260200190815260200160002060008673ffffffffffffffffffffffffffffffffffffffff1673ffffffffffffffffffffffffffffffffffffffff16815260200190815260200160002060006101000a81548160ff02191690831515021790555060126000838152602001908152602001600020849080600181540180825580915050600190039060005260206000200160009091909190916101000a81548173ffffffffffffffffffffffffffffffffffffffff021916908373ffffffffffffffffffffffffffffffffffffffff16021790555060136000838152602001908152602001600020839080600181540180825580915050600190039060005260206000200160009091909190915090805190602001906131ea9291906148fb565b50826015600084815260200190815260200160002060008673ffffffffffffffffffffffffffffffffffffffff1673ffffffffffffffffffffffffffffffffffffffff168152602001908152602001600020908051906020019061324f9291906148fb565b5060146000838152602001908152602001600020600190806001815401808255809150506001900390600052602060002090602091828204019190069091909190916101000a81548160ff0219169083151502179055508373ffffffffffffffffffffffffffffffffffffffff167f46b8357d30dedd734a71d059a385f46b6e667bff20233f907477760207f88965836040516132ec91906153be565b60405180910390a250505050565b60606012600083815260200190815260200160002080548060200260200160405190810160405280929190818152602001828054801561338f57602002820191906000526020600020905b8160009054906101000a900473ffffffffffffffffffffffffffffffffffffffff1673ffffffffffffffffffffffffffffffffffffffff1681526020019060010190808311613345575b50505050509050919050565b806133a63382613d08565b6133af57600080fd5b600360149054906101000a900460ff16156133c957600080fd5b60016007600084815260200190815260200160002060020160006101000a81548160ff02191690836003811115613403576134026158f3565b5b02179055504260076000848152602001908152602001600020600301819055503373ffffffffffffffffffffffffffffffffffffffff167ff77c6f27499b698205f54058c2914a340e1300c2bc0d9a819e7aebfbaabbbb938360405161346991906153be565b60405180910390a25050565b836134803382612d71565b61348957600080fd5b6000845111156134bf57836007600087815260200190815260200160002060070190805190602001906134bd9291906148fb565b505b6000835111156134f557826007600087815260200190815260200160002060080190805190602001906134f39291906148fb565b505b60008251111561352b57816007600087815260200190815260200160002060090190805190602001906135299291906148fb565b505b7fcd9ad49d834aeea746bafd2d26eebd3d01ebac2d8f5d3f53d7f3884292e5835f856007600088815260200190815260200160002060070160076000898152602001908152602001600020600801600760008a815260200190815260200160002060090160405161359f9493929190615402565b60405180910390a15050505050565b600360009054906101000a900473ffffffffffffffffffffffffffffffffffffffff1681565b6000600360149054906101000a900460ff16905090565b600033905090565b6060600580548060200260200160405190810160405280929190818152602001828054801561364157602002820191906000526020600020905b81548152602001906001019080831161362d575b5050505050905090565b806136563382613d08565b806136ae5750600360009054906101000a900473ffffffffffffffffffffffffffffffffffffffff1673ffffffffffffffffffffffffffffffffffffffff163373ffffffffffffffffffffffffffffffffffffffff16145b6136b757600080fd5b600360149054906101000a900460ff16156136d157600080fd5b6136db83836146dc565b505050565b600080546136ed906157e9565b80601f0160208091040260200160405190810160405280929190818152602001828054613719906157e9565b80156137665780601f1061373b57610100808354040283529160200191613766565b820191906000526020600020905b81548152906001019060200180831161374957829003601f168201915b505050505081565b600360009054906101000a900473ffffffffffffffffffffffffffffffffffffffff1673ffffffffffffffffffffffffffffffffffffffff163373ffffffffffffffffffffffffffffffffffffffff16146137c857600080fd5b6137d282826142a4565b5050565b60606006805480602002602001604051908101604052809291908181526020016000905b828210156138a6578382906000526020600020018054613819906157e9565b80601f0160208091040260200160405190810160405280929190818152602001828054613845906157e9565b80156138925780601f1061386757610100808354040283529160200191613892565b820191906000526020600020905b81548152906001019060200180831161387557829003601f168201915b5050505050815260200190600101906137fa565b50505050905090565b806138ba3382613d08565b806139125750600360009054906101000a900473ffffffffffffffffffffffffffffffffffffffff1673ffffffffffffffffffffffffffffffffffffffff163373ffffffffffffffffffffffffffffffffffffffff16145b61391b57600080fd5b600360149054906101000a900460ff161561393557600080fd5b61393f83836143ee565b505050565b61394c614981565b816139573382613d08565b61396057600080fd5b60076000848152602001908152602001600020604051806101c001604052908160008201548152602001600182018054613999906157e9565b80601f01602080910402602001604051908101604052809291908181526020018280546139c5906157e9565b8015613a125780601f106139e757610100808354040283529160200191613a12565b820191906000526020600020905b8154815290600101906020018083116139f557829003601f168201915b505050505081526020016002820160009054906101000a900460ff166003811115613a4057613a3f6158f3565b5b6003811115613a5257613a516158f3565b5b815260200160038201548152602001600482015481526020016005820154815260200160068201548152602001600782018054613a8e906157e9565b80601f0160208091040260200160405190810160405280929190818152602001828054613aba906157e9565b8015613b075780601f10613adc57610100808354040283529160200191613b07565b820191906000526020600020905b815481529060010190602001808311613aea57829003601f168201915b50505050508152602001600882018054613b20906157e9565b80601f0160208091040260200160405190810160405280929190818152602001828054613b4c906157e9565b8015613b995780601f10613b6e57610100808354040283529160200191613b99565b820191906000526020600020905b815481529060010190602001808311613b7c57829003601f168201915b50505050508152602001600982018054613bb2906157e9565b80601f0160208091040260200160405190810160405280929190818152602001828054613bde906157e9565b8015613c2b5780601f10613c0057610100808354040283529160200191613c2b565b820191906000526020600020905b815481529060010190602001808311613c0e57829003601f168201915b50505050508152602001600a820160009054906101000a900473ffffffffffffffffffffffffffffffffffffffff1673ffffffffffffffffffffffffffffffffffffffff1673ffffffffffffffffffffffffffffffffffffffff168152602001600b8201548152602001600c8201548152602001600d82015481525050915050919050565b6000600160009054906101000a900473ffffffffffffffffffffffffffffffffffffffff1673ffffffffffffffffffffffffffffffffffffffff163373ffffffffffffffffffffffffffffffffffffffff1614905090565b6000600115156009600084815260200190815260200160002060008573ffffffffffffffffffffffffffffffffffffffff1673ffffffffffffffffffffffffffffffffffffffff16815260200190815260200160002060009054906101000a900460ff16151514905092915050565b80613d823382612d71565b613d8b57600080fd5b600360149054906101000a900460ff1615613da557600080fd5b3460076000848152602001908152602001600020600b016000828254613dcb9190615601565b925050819055503373ffffffffffffffffffffffffffffffffffffffff167f5dc1fe5ab986a852c4eda8e8bb94247d13307065c593fb83f1a09be2736793828360076000868152602001908152602001600020600b0154604051613e3092919061545c565b60405180910390a25050565b600360009054906101000a900473ffffffffffffffffffffffffffffffffffffffff1673ffffffffffffffffffffffffffffffffffffffff163373ffffffffffffffffffffffffffffffffffffffff1614613e9657600080fd5b600360149054906101000a900460ff1615613eb057600080fd5b60004290506000604051806101c0016040528083815260200184815260200160006003811115613ee357613ee26158f3565b5b815260200142815260200142815260200142815260200160008152602001604051806020016040528060008152508152602001604051806020016040528060008152508152602001604051806020016040528060008152508152602001600073ffffffffffffffffffffffffffffffffffffffff1681526020016000815260200160008152602001600081525090508060076000848152602001908152602001600020600082015181600001556020820151816001019080519060200190613fac9291906148fb565b5060408201518160020160006101000a81548160ff02191690836003811115613fd857613fd76158f3565b5b0217905550606082015181600301556080820151816004015560a0820151816005015560c0820151816006015560e08201518160070190805190602001906140219291906148fb565b5061010082015181600801908051906020019061403f9291906148fb565b5061012082015181600901908051906020019061405d9291906148fb565b5061014082015181600a0160006101000a81548173ffffffffffffffffffffffffffffffffffffffff021916908373ffffffffffffffffffffffffffffffffffffffff16021790555061016082015181600b015561018082015181600c01556101a082015181600d0155905050600582908060018154018082558091505060019003906000526020600020016000909190919091505560068390806001815401808255809150506001900390600052602060002001600090919091909150908051906020019061412e9291906148fb565b507f5937a473913f56daf7dea7a6e821970acaa73f35555cf88f70c54f243cd98a9e83602a604051614161929190615320565b60405180910390a1505050565b6000600360149054906101000a900460ff161561418a57600080fd5b6141943383612d71565b9050919050565b6000600360009054906101000a900473ffffffffffffffffffffffffffffffffffffffff1673ffffffffffffffffffffffffffffffffffffffff163373ffffffffffffffffffffffffffffffffffffffff1614905090565b60006141ff3383612c2f565b61420c5760009050614275565b60011515600c600084815260200190815260200160002060003373ffffffffffffffffffffffffffffffffffffffff1673ffffffffffffffffffffffffffffffffffffffff16815260200190815260200160002060009054906101000a900460ff161515141590505b919050565b6000600360009054906101000a900473ffffffffffffffffffffffffffffffffffffffff16905090565b60006009600083815260200190815260200160002060008473ffffffffffffffffffffffffffffffffffffffff1673ffffffffffffffffffffffffffffffffffffffff16815260200190815260200160002060006101000a81548160ff0219169083151502179055506000600a600083815260200190815260200160002060008473ffffffffffffffffffffffffffffffffffffffff1673ffffffffffffffffffffffffffffffffffffffff1681526020019081526020016000205490506000600f6000848152602001908152602001600020828154811061438957614388615951565b5b90600052602060002090602091828204019190066101000a81548160ff0219169083151502179055507f99f4c949f294dd13aa62d19c1344b81968121fe570d11657ebd54aae55ac0f20826040516143e191906153be565b60405180910390a1505050565b60006010600083815260200190815260200160002060008473ffffffffffffffffffffffffffffffffffffffff1673ffffffffffffffffffffffffffffffffffffffff16815260200190815260200160002060006101000a81548160ff021916908315150217905550600060076000838152602001908152602001600020600a0160006101000a81548173ffffffffffffffffffffffffffffffffffffffff021916908373ffffffffffffffffffffffffffffffffffffffff1602179055508173ffffffffffffffffffffffffffffffffffffffff167fda111d7eb5d5b2033c4ffad00cd7cd42f45af2813bee1a69e65f26d90ea15f0b826040516144f391906153be565b60405180910390a25050565b60016009600083815260200190815260200160002060008473ffffffffffffffffffffffffffffffffffffffff1673ffffffffffffffffffffffffffffffffffffffff16815260200190815260200160002060006101000a81548160ff021916908315150217905550600b54600a600083815260200190815260200160002060008473ffffffffffffffffffffffffffffffffffffffff1673ffffffffffffffffffffffffffffffffffffffff16815260200190815260200160002081905550600b60008154809291906145d29061584c565b9190505550600d6000828152602001908152602001600020829080600181540180825580915050600190039060005260206000200160009091909190916101000a81548173ffffffffffffffffffffffffffffffffffffffff021916908373ffffffffffffffffffffffffffffffffffffffff160217905550600f6000828152602001908152602001600020600190806001815401808255809150506001900390600052602060002090602091828204019190069091909190916101000a81548160ff0219169083151502179055507f6d08be0da99b3a8dabb8a9d0bd4ebece8d00f747b0d0e6c29f97508f1a40a291816040516146d091906153be565b60405180910390a15050565b60016010600083815260200190815260200160002060008473ffffffffffffffffffffffffffffffffffffffff1673ffffffffffffffffffffffffffffffffffffffff16815260200190815260200160002060006101000a81548160ff0219169083151502179055508160076000838152602001908152602001600020600a0160006101000a81548173ffffffffffffffffffffffffffffffffffffffff021916908373ffffffffffffffffffffffffffffffffffffffff1602179055508173ffffffffffffffffffffffffffffffffffffffff167f5fd6d0b7e707fe344bd2a1887f9d0eeea8bfcac6f339ba4200e74f0647f101c0826040516147e091906153be565b60405180910390a25050565b5080546147f8906157e9565b6000825580601f1061480a5750614829565b601f0160209004906000526020600020908101906148289190614a18565b5b50565b508054600082559060005260206000209081019061484a9190614a35565b50565b508054600082559060005260206000209081019061486b9190614a18565b50565b82805461487a906157e9565b90600052602060002090601f01602090048101928261489c57600085556148ea565b82601f106148ad57805485556148ea565b828001600101855582156148ea57600052602060002091601f016020900482015b828111156148e95782548255916001019190600101906148ce565b5b5090506148f79190614a18565b5090565b828054614907906157e9565b90600052602060002090601f0160209004810192826149295760008555614970565b82601f1061494257805160ff1916838001178555614970565b82800160010185558215614970579182015b8281111561496f578251825591602001919060010190614954565b5b50905061497d9190614a18565b5090565b604051806101c001604052806000815260200160608152602001600060038111156149af576149ae6158f3565b5b815260200160008152602001600081526020016000815260200160008152602001606081526020016060815260200160608152602001600073ffffffffffffffffffffffffffffffffffffffff1681526020016000815260200160008152602001600081525090565b5b80821115614a31576000816000905550600101614a19565b5090565b5b80821115614a555760008181614a4c91906147ec565b50600101614a36565b5090565b6000614a6c614a67846154aa565b615485565b905082815260208101848484011115614a8857614a876159b4565b5b614a938482856157a7565b509392505050565b600081359050614aaa816159e8565b92915050565b600082601f830112614ac557614ac46159af565b5b8135614ad5848260208601614a59565b91505092915050565b600081359050614aed816159ff565b92915050565b600060208284031215614b0957614b086159be565b5b6000614b1784828501614a9b565b91505092915050565b600080600060608486031215614b3957614b386159be565b5b6000614b4786828701614a9b565b935050602084013567ffffffffffffffff811115614b6857614b676159b9565b5b614b7486828701614ab0565b9250506040614b8586828701614ade565b9150509250925092565b60008060408385031215614ba657614ba56159be565b5b6000614bb485828601614a9b565b9250506020614bc585828601614ade565b9150509250929050565b600060208284031215614be557614be46159be565b5b600082013567ffffffffffffffff811115614c0357614c026159b9565b5b614c0f84828501614ab0565b91505092915050565b600060208284031215614c2e57614c2d6159be565b5b6000614c3c84828501614ade565b91505092915050565b60008060008060808587031215614c5f57614c5e6159be565b5b6000614c6d87828801614ade565b945050602085013567ffffffffffffffff811115614c8e57614c8d6159b9565b5b614c9a87828801614ab0565b935050604085013567ffffffffffffffff811115614cbb57614cba6159b9565b5b614cc787828801614ab0565b925050606085013567ffffffffffffffff811115614ce857614ce76159b9565b5b614cf487828801614ab0565b91505092959194509250565b6000614d0c8383614d5c565b60208301905092915050565b6000614d248383614f09565b60208301905092915050565b6000614d3c8383614f63565b905092915050565b6000614d508383615198565b60208301905092915050565b614d6581615716565b82525050565b614d7481615716565b82525050565b6000614d8582615530565b614d8f818561559b565b9350614d9a836154db565b8060005b83811015614dcb578151614db28882614d00565b9750614dbd83615567565b925050600181019050614d9e565b5085935050505092915050565b6000614de38261553b565b614ded81856155ac565b9350614df8836154eb565b8060005b83811015614e29578151614e108882614d18565b9750614e1b83615574565b925050600181019050614dfc565b5085935050505092915050565b6000614e4182615546565b614e4b81856155bd565b935083602082028501614e5d856154fb565b8060005b85811015614e995784840389528151614e7a8582614d30565b9450614e8583615581565b925060208a01995050600181019050614e61565b50829750879550505050505092915050565b6000614eb682615551565b614ec081856155ce565b9350614ecb8361550b565b8060005b83811015614efc578151614ee38882614d44565b9750614eee8361558e565b925050600181019050614ecf565b5085935050505092915050565b614f1281615728565b82525050565b614f2181615728565b82525050565b614f3081615771565b82525050565b614f3f81615771565b82525050565b614f4e81615783565b82525050565b614f5d81615795565b82525050565b6000614f6e8261555c565b614f7881856155df565b9350614f888185602086016157b6565b614f91816159c3565b840191505092915050565b6000614fa78261555c565b614fb181856155f0565b9350614fc18185602086016157b6565b614fca816159c3565b840191505092915050565b60008154614fe2816157e9565b614fec81866155f0565b9450600182166000811461500757600181146150195761504c565b60ff198316865260208601935061504c565b6150228561551b565b60005b8381101561504457815481890152600182019150602081019050615025565b808801955050505b50505092915050565b60006101c08301600083015161506e6000860182615198565b50602083015184820360208601526150868282614f63565b915050604083015161509b6040860182614f27565b5060608301516150ae6060860182615198565b5060808301516150c16080860182615198565b5060a08301516150d460a0860182615198565b5060c08301516150e760c0860182615198565b5060e083015184820360e08601526150ff8282614f63565b91505061010083015184820361010086015261511b8282614f63565b9150506101208301518482036101208601526151378282614f63565b91505061014083015161514e610140860182614d5c565b50610160830151615163610160860182615198565b50610180830151615178610180860182615198565b506101a083015161518d6101a0860182615198565b508091505092915050565b6151a181615767565b82525050565b6151b081615767565b82525050565b60006020820190506151cb6000830184614d6b565b92915050565b600060208201905081810360008301526151eb8184614d7a565b905092915050565b6000604082019050818103600083015261520d8185614d7a565b905081810360208301526152218184614dd8565b90509392505050565b600060208201905081810360008301526152448184614dd8565b905092915050565b600060208201905081810360008301526152668184614e36565b905092915050565b600060208201905081810360008301526152888184614eab565b905092915050565b60006020820190506152a56000830184614f18565b92915050565b600060a0820190506152c06000830188614f36565b6152cd60208301876151a7565b6152da60408301866151a7565b6152e760608301856151a7565b6152f460808301846151a7565b9695505050505050565b600060208201905081810360008301526153188184614f9c565b905092915050565b6000604082019050818103600083015261533a8185614f9c565b90506153496020830184614f54565b9392505050565b6000606082019050818103600083015261536a8186614f9c565b9050818103602083015261537e8185614f9c565b905081810360408301526153928184614f9c565b9050949350505050565b600060208201905081810360008301526153b68184615055565b905092915050565b60006020820190506153d360008301846151a7565b92915050565b60006040820190506153ee60008301856151a7565b6153fb6020830184614f45565b9392505050565b600060808201905061541760008301876151a7565b81810360208301526154298186614fd5565b9050818103604083015261543d8185614fd5565b905081810360608301526154518184614fd5565b905095945050505050565b600060408201905061547160008301856151a7565b61547e60208301846151a7565b9392505050565b600061548f6154a0565b905061549b828261581b565b919050565b6000604051905090565b600067ffffffffffffffff8211156154c5576154c4615980565b5b6154ce826159c3565b9050602081019050919050565b6000819050602082019050919050565b6000819050602082019050919050565b6000819050602082019050919050565b6000819050602082019050919050565b60008190508160005260206000209050919050565b600081519050919050565b600081519050919050565b600081519050919050565b600081519050919050565b600081519050919050565b6000602082019050919050565b6000602082019050919050565b6000602082019050919050565b6000602082019050919050565b600082825260208201905092915050565b600082825260208201905092915050565b600082825260208201905092915050565b600082825260208201905092915050565b600082825260208201905092915050565b600082825260208201905092915050565b600061560c82615767565b915061561783615767565b9250827fffffffffffffffffffffffffffffffffffffffffffffffffffffffffffffffff0382111561564c5761564b615895565b5b828201905092915050565b600061566282615767565b915061566d83615767565b92508261567d5761567c6158c4565b5b828204905092915050565b600061569382615767565b915061569e83615767565b9250817fffffffffffffffffffffffffffffffffffffffffffffffffffffffffffffffff04831182151516156156d7576156d6615895565b5b828202905092915050565b60006156ed82615767565b91506156f883615767565b92508282101561570b5761570a615895565b5b828203905092915050565b600061572182615747565b9050919050565b60008115159050919050565b6000819050615742826159d4565b919050565b600073ffffffffffffffffffffffffffffffffffffffff82169050919050565b6000819050919050565b600061577c82615734565b9050919050565b600061578e82615767565b9050919050565b60006157a082615767565b9050919050565b82818337600083830152505050565b60005b838110156157d45780820151818401526020810190506157b9565b838111156157e3576000848401525b50505050565b6000600282049050600182168061580157607f821691505b6020821081141561581557615814615922565b5b50919050565b615824826159c3565b810181811067ffffffffffffffff8211171561584357615842615980565b5b80604052505050565b600061585782615767565b91507fffffffffffffffffffffffffffffffffffffffffffffffffffffffffffffffff82141561588a57615889615895565b5b600182019050919050565b7f4e487b7100000000000000000000000000000000000000000000000000000000600052601160045260246000fd5b7f4e487b7100000000000000000000000000000000000000000000000000000000600052601260045260246000fd5b7f4e487b7100000000000000000000000000000000000000000000000000000000600052602160045260246000fd5b7f4e487b7100000000000000000000000000000000000000000000000000000000600052602260045260246000fd5b7f4e487b7100000000000000000000000000000000000000000000000000000000600052603260045260246000fd5b7f4e487b7100000000000000000000000000000000000000000000000000000000600052604160045260246000fd5b600080fd5b600080fd5b600080fd5b600080fd5b6000601f19601f8301169050919050565b600481106159e5576159e46158f3565b5b50565b6159f181615716565b81146159fc57600080fd5b50565b615a0881615767565b8114615a1357600080fd5b5056fea2646970667358221220ee013d0f68be3d4df37b4539d5d966296c1a0c18d826730c98adff093a325ef664736f6c63430008060033",
  "immutableReferences": {},
  "source": "// SPDX-License-Identifier: MIT\npragma solidity ^0.8.0;\n\nimport \"../roles/AdminsManager.sol\";\n\ncontract EthDropCore is AdminsManager {\n    // Set in case the core contract is broken and an upgrade is required\n    address public newContractAddress;\n\n    /// @notice Creates the main EthDrop smart contract instance.\n    constructor () {\n        // Starts paused.\n\n        // TODO \n        paused = false;\n\n        // the creator of the contract is the initial CEO\n        ceoAddress = msg.sender;\n\n    }\n\n    /// @dev Used to mark the smart contract as upgraded, in case there is a serious\n    ///  breaking bug. This method does nothing but keep track of the new contract and\n    ///  emit a message indicating that the new address is set. It's up to clients of this\n    ///  contract to update to the new contract address in that case. (This contract will\n    ///  be paused indefinitely if such an upgrade takes place.)\n    /// @param _v2Address new address\n    function setNewAddress(address _v2Address) external onlyCEO whenPaused {\n        // See README.md for updgrade plan\n        newContractAddress = _v2Address;\n        emit ContractUpgrade(_v2Address);\n    }\n\n    function foobar() external pure returns (string memory) {\n        return \"foobarrrrrrr!\";\n    }\n}",
  "sourcePath": "/Users/jim/Git-Projects/EthDrop/contracts/core/EthDropCore.sol",
  "compiler": {
    "name": "solc",
    "version": "0.8.6+commit.11564f7e.Emscripten.clang"
  },
  "schemaVersion": "3.4.1",
  "updatedAt": "2021-07-30T15:28:26.790Z",
  "networkType": "ethereum",
  "devdoc": {
    "kind": "dev",
    "methods": {
      "pause()": {
        "details": "Called by any \"C-level\" role to pause the contract. Used only when  a bug or exploit is detected and we need to limit damage."
      },
      "setCEO(address)": {
        "details": "Assigns a new address to act as the CEO. Only available to the current CEO.",
        "params": {
          "_newCEO": "The address of the new CEO"
        }
      },
      "setCFO(address)": {
        "details": "Assigns a new address to act as the CFO. Only available to the current CEO.",
        "params": {
          "_newCFO": "The address of the new CFO"
        }
      },
      "setCOO(address)": {
        "details": "Assigns a new address to act as the COO. Only available to the current CEO.",
        "params": {
          "_newCOO": "The address of the new COO"
        }
      },
      "setNewAddress(address)": {
        "details": "Used to mark the smart contract as upgraded, in case there is a serious  breaking bug. This method does nothing but keep track of the new contract and  emit a message indicating that the new address is set. It's up to clients of this  contract to update to the new contract address in that case. (This contract will  be paused indefinitely if such an upgrade takes place.)",
        "params": {
          "_v2Address": "new address"
        }
      },
      "unpause()": {
        "details": "Unpauses the smart contract. Can only be called by the CEO, since  one reason we may pause the contract is when CFO or COO accounts are  compromised."
      }
    },
    "version": 1
  },
  "userdoc": {
    "kind": "user",
    "methods": {
      "constructor": {
        "notice": "Creates the main EthDrop smart contract instance."
      },
      "unpause()": {
        "notice": "This is public rather than external so it can be called by  derived contracts."
      }
    },
    "version": 1
  }
}