{
  "contractName": "EthDropCore",
  "abi": [
    {
      "inputs": [],
      "stateMutability": "nonpayable",
      "type": "constructor"
    },
    {
      "anonymous": false,
      "inputs": [
        {
          "indexed": false,
          "internalType": "uint256",
          "name": "groupId",
          "type": "uint256"
        }
      ],
      "name": "AdminAdded",
      "type": "event"
    },
    {
      "anonymous": false,
      "inputs": [
        {
          "indexed": false,
          "internalType": "uint256",
          "name": "groupId",
          "type": "uint256"
        }
      ],
      "name": "AdminRemoved",
      "type": "event"
    },
    {
      "anonymous": false,
      "inputs": [
        {
          "indexed": false,
          "internalType": "bool",
          "name": "isPaused",
          "type": "bool"
        }
      ],
      "name": "AppPaused",
      "type": "event"
    },
    {
      "anonymous": false,
      "inputs": [
        {
          "indexed": false,
          "internalType": "uint256",
          "name": "registeredRecipientCount",
          "type": "uint256"
        },
        {
          "indexed": false,
          "internalType": "uint256",
          "name": "winningsPerRecipient",
          "type": "uint256"
        }
      ],
      "name": "CalculatedPot",
      "type": "event"
    },
    {
      "anonymous": false,
      "inputs": [],
      "name": "CfoUpdated",
      "type": "event"
    },
    {
      "anonymous": false,
      "inputs": [
        {
          "indexed": false,
          "internalType": "address",
          "name": "newContract",
          "type": "address"
        }
      ],
      "name": "ContractUpgrade",
      "type": "event"
    },
    {
      "anonymous": false,
      "inputs": [
        {
          "indexed": true,
          "internalType": "address",
          "name": "account",
          "type": "address"
        },
        {
          "indexed": false,
          "internalType": "uint256",
          "name": "groupId",
          "type": "uint256"
        },
        {
          "indexed": false,
          "internalType": "uint256",
          "name": "amount",
          "type": "uint256"
        }
      ],
      "name": "ContributionMade",
      "type": "event"
    },
    {
      "anonymous": false,
      "inputs": [
        {
          "indexed": true,
          "internalType": "address",
          "name": "account",
          "type": "address"
        },
        {
          "indexed": false,
          "internalType": "uint256",
          "name": "groupId",
          "type": "uint256"
        }
      ],
      "name": "ContributorAdded",
      "type": "event"
    },
    {
      "anonymous": false,
      "inputs": [
        {
          "indexed": false,
          "internalType": "uint256",
          "name": "groupId",
          "type": "uint256"
        },
        {
          "indexed": false,
          "internalType": "address",
          "name": "newContributor",
          "type": "address"
        }
      ],
      "name": "ContributorAddressUpdated",
      "type": "event"
    },
    {
      "anonymous": false,
      "inputs": [
        {
          "indexed": false,
          "internalType": "uint256",
          "name": "groupId",
          "type": "uint256"
        },
        {
          "indexed": false,
          "internalType": "string",
          "name": "sponsorName",
          "type": "string"
        },
        {
          "indexed": false,
          "internalType": "string",
          "name": "imgUrl",
          "type": "string"
        },
        {
          "indexed": false,
          "internalType": "string",
          "name": "imgLinkToUrl",
          "type": "string"
        }
      ],
      "name": "ContributorInfoUpdated",
      "type": "event"
    },
    {
      "anonymous": false,
      "inputs": [
        {
          "indexed": true,
          "internalType": "address",
          "name": "account",
          "type": "address"
        },
        {
          "indexed": false,
          "internalType": "uint256",
          "name": "groupId",
          "type": "uint256"
        }
      ],
      "name": "ContributorRemoved",
      "type": "event"
    },
    {
      "anonymous": false,
      "inputs": [],
      "name": "CooUpdated",
      "type": "event"
    },
    {
      "anonymous": false,
      "inputs": [
        {
          "indexed": true,
          "internalType": "address",
          "name": "account",
          "type": "address"
        },
        {
          "indexed": false,
          "internalType": "uint256",
          "name": "groupId",
          "type": "uint256"
        }
      ],
      "name": "EligibleRecipientAdded",
      "type": "event"
    },
    {
      "anonymous": false,
      "inputs": [
        {
          "indexed": true,
          "internalType": "address",
          "name": "account",
          "type": "address"
        },
        {
          "indexed": false,
          "internalType": "uint256",
          "name": "groupId",
          "type": "uint256"
        }
      ],
      "name": "EligibleRecipientRemoved",
      "type": "event"
    },
    {
      "anonymous": false,
      "inputs": [],
      "name": "EventClose",
      "type": "event"
    },
    {
      "anonymous": false,
      "inputs": [
        {
          "indexed": true,
          "internalType": "address",
          "name": "endedBy",
          "type": "address"
        },
        {
          "indexed": false,
          "internalType": "uint256",
          "name": "groupId",
          "type": "uint256"
        }
      ],
      "name": "EventEnded",
      "type": "event"
    },
    {
      "anonymous": false,
      "inputs": [
        {
          "indexed": true,
          "internalType": "address",
          "name": "startedBy",
          "type": "address"
        },
        {
          "indexed": false,
          "internalType": "uint256",
          "name": "groupId",
          "type": "uint256"
        }
      ],
      "name": "EventStarted",
      "type": "event"
    },
    {
      "anonymous": false,
      "inputs": [
        {
          "indexed": false,
          "internalType": "string",
          "name": "groupName",
          "type": "string"
        },
        {
          "indexed": false,
          "internalType": "uint256",
          "name": "groupId",
          "type": "uint256"
        }
      ],
      "name": "GroupCreated",
      "type": "event"
    },
    {
      "anonymous": false,
      "inputs": [
        {
          "indexed": true,
          "internalType": "address",
          "name": "account",
          "type": "address"
        },
        {
          "indexed": false,
          "internalType": "uint256",
          "name": "groupId",
          "type": "uint256"
        }
      ],
      "name": "RecipientRegistered",
      "type": "event"
    },
    {
      "anonymous": false,
      "inputs": [
        {
          "indexed": true,
          "internalType": "address",
          "name": "endedBy",
          "type": "address"
        },
        {
          "indexed": false,
          "internalType": "uint256",
          "name": "groupId",
          "type": "uint256"
        }
      ],
      "name": "RegistrationEnded",
      "type": "event"
    },
    {
      "anonymous": false,
      "inputs": [],
      "name": "RegistrationOpen",
      "type": "event"
    },
    {
      "anonymous": false,
      "inputs": [
        {
          "indexed": false,
          "internalType": "address",
          "name": "from",
          "type": "address"
        },
        {
          "indexed": false,
          "internalType": "address",
          "name": "to",
          "type": "address"
        }
      ],
      "name": "Transfer",
      "type": "event"
    },
    {
      "anonymous": false,
      "inputs": [
        {
          "indexed": true,
          "internalType": "address",
          "name": "account",
          "type": "address"
        },
        {
          "indexed": false,
          "internalType": "uint256",
          "name": "groupId",
          "type": "uint256"
        }
      ],
      "name": "WinningsClaimed",
      "type": "event"
    },
    {
      "anonymous": false,
      "inputs": [],
      "name": "WinningsClaimingOpen",
      "type": "event"
    },
    {
      "inputs": [
        {
          "internalType": "address",
          "name": "account",
          "type": "address"
        },
        {
          "internalType": "uint256",
          "name": "groupId",
          "type": "uint256"
        }
      ],
      "name": "addAdmin",
      "outputs": [],
      "stateMutability": "nonpayable",
      "type": "function"
    },
    {
      "inputs": [
        {
          "internalType": "address",
          "name": "account",
          "type": "address"
        },
        {
          "internalType": "string",
          "name": "name",
          "type": "string"
        },
        {
          "internalType": "uint256",
          "name": "groupId",
          "type": "uint256"
        }
      ],
      "name": "addEligibleRecipient",
      "outputs": [],
      "stateMutability": "nonpayable",
      "type": "function"
    },
    {
      "inputs": [
        {
          "internalType": "uint256",
          "name": "groupId",
          "type": "uint256"
        }
      ],
      "name": "amIAdmin",
      "outputs": [
        {
          "internalType": "bool",
          "name": "",
          "type": "bool"
        }
      ],
      "stateMutability": "view",
      "type": "function",
      "constant": true
    },
    {
      "inputs": [
        {
          "internalType": "uint256",
          "name": "groupId",
          "type": "uint256"
        }
      ],
      "name": "amIContributor",
      "outputs": [
        {
          "internalType": "bool",
          "name": "",
          "type": "bool"
        }
      ],
      "stateMutability": "view",
      "type": "function",
      "constant": true
    },
    {
      "inputs": [
        {
          "internalType": "uint256",
          "name": "groupId",
          "type": "uint256"
        }
      ],
      "name": "amIEligibleRecipient",
      "outputs": [
        {
          "internalType": "bool",
          "name": "",
          "type": "bool"
        }
      ],
      "stateMutability": "view",
      "type": "function",
      "constant": true
    },
    {
      "inputs": [
        {
          "internalType": "uint256",
          "name": "groupId",
          "type": "uint256"
        }
      ],
      "name": "amIRegisteredRecipient",
      "outputs": [
        {
          "internalType": "bool",
          "name": "",
          "type": "bool"
        }
      ],
      "stateMutability": "view",
      "type": "function",
      "constant": true
    },
    {
      "inputs": [],
      "name": "ceoAddress",
      "outputs": [
        {
          "internalType": "address",
          "name": "",
          "type": "address"
        }
      ],
      "stateMutability": "view",
      "type": "function",
      "constant": true
    },
    {
      "inputs": [],
      "name": "cfoAddress",
      "outputs": [
        {
          "internalType": "address",
          "name": "",
          "type": "address"
        }
      ],
      "stateMutability": "view",
      "type": "function",
      "constant": true
    },
    {
      "inputs": [
        {
          "internalType": "address",
          "name": "account",
          "type": "address"
        },
        {
          "internalType": "uint256",
          "name": "groupId",
          "type": "uint256"
        }
      ],
      "name": "changeContributor",
      "outputs": [],
      "stateMutability": "nonpayable",
      "type": "function"
    },
    {
      "inputs": [
        {
          "internalType": "uint256",
          "name": "groupId",
          "type": "uint256"
        }
      ],
      "name": "claimWinnings",
      "outputs": [],
      "stateMutability": "nonpayable",
      "type": "function"
    },
    {
      "inputs": [
        {
          "internalType": "uint256",
          "name": "groupId",
          "type": "uint256"
        }
      ],
      "name": "closeEventRegistration",
      "outputs": [],
      "stateMutability": "nonpayable",
      "type": "function"
    },
    {
      "inputs": [
        {
          "internalType": "uint256",
          "name": "groupId",
          "type": "uint256"
        }
      ],
      "name": "contributeToPot",
      "outputs": [],
      "stateMutability": "payable",
      "type": "function",
      "payable": true
    },
    {
      "inputs": [],
      "name": "cooAddress",
      "outputs": [
        {
          "internalType": "address",
          "name": "",
          "type": "address"
        }
      ],
      "stateMutability": "view",
      "type": "function",
      "constant": true
    },
    {
      "inputs": [
        {
          "internalType": "string",
          "name": "groupName",
          "type": "string"
        }
      ],
      "name": "createNewGroup",
      "outputs": [],
      "stateMutability": "nonpayable",
      "type": "function"
    },
    {
      "inputs": [
        {
          "internalType": "uint256",
          "name": "groupId",
          "type": "uint256"
        }
      ],
      "name": "doIHaveClaimableWinnings",
      "outputs": [
        {
          "internalType": "bool",
          "name": "",
          "type": "bool"
        }
      ],
      "stateMutability": "view",
      "type": "function",
      "constant": true
    },
    {
      "inputs": [
        {
          "internalType": "uint256",
          "name": "groupId",
          "type": "uint256"
        }
      ],
      "name": "endEvent",
      "outputs": [],
      "stateMutability": "nonpayable",
      "type": "function"
    },
    {
      "inputs": [
        {
          "internalType": "uint256",
          "name": "groupId",
          "type": "uint256"
        }
      ],
      "name": "getAdminsForGroup",
      "outputs": [
        {
          "internalType": "address[]",
          "name": "",
          "type": "address[]"
        },
        {
          "internalType": "bool[]",
          "name": "",
          "type": "bool[]"
        }
      ],
      "stateMutability": "view",
      "type": "function",
      "constant": true
    },
    {
      "inputs": [],
      "name": "getCFO",
      "outputs": [
        {
          "internalType": "address",
          "name": "",
          "type": "address"
        }
      ],
      "stateMutability": "view",
      "type": "function",
      "constant": true
    },
    {
      "inputs": [],
      "name": "getCOO",
      "outputs": [
        {
          "internalType": "address",
          "name": "",
          "type": "address"
        }
      ],
      "stateMutability": "view",
      "type": "function",
      "constant": true
    },
    {
      "inputs": [
        {
          "internalType": "uint256",
          "name": "groupId",
          "type": "uint256"
        }
      ],
      "name": "getContributorInfo",
      "outputs": [
        {
          "internalType": "string",
          "name": "newContributorName",
          "type": "string"
        },
        {
          "internalType": "string",
          "name": "newContributorImgUrl",
          "type": "string"
        },
        {
          "internalType": "string",
          "name": "newContributorLinkToUrl",
          "type": "string"
        }
      ],
      "stateMutability": "view",
      "type": "function",
      "constant": true
    },
    {
      "inputs": [
        {
          "internalType": "uint256",
          "name": "groupId",
          "type": "uint256"
        }
      ],
      "name": "getCurrentSponsorAddress",
      "outputs": [
        {
          "internalType": "address",
          "name": "",
          "type": "address"
        }
      ],
      "stateMutability": "view",
      "type": "function",
      "constant": true
    },
    {
      "inputs": [
        {
          "internalType": "uint256",
          "name": "groupId",
          "type": "uint256"
        }
      ],
      "name": "getEligibleRecipientAddresses",
      "outputs": [
        {
          "internalType": "address[]",
          "name": "",
          "type": "address[]"
        }
      ],
      "stateMutability": "view",
      "type": "function",
      "constant": true
    },
    {
      "inputs": [
        {
          "internalType": "uint256",
          "name": "groupId",
          "type": "uint256"
        }
      ],
      "name": "getEligibleRecipientIsEligibilityEnabled",
      "outputs": [
        {
          "internalType": "bool[]",
          "name": "",
          "type": "bool[]"
        }
      ],
      "stateMutability": "view",
      "type": "function",
      "constant": true
    },
    {
      "inputs": [
        {
          "internalType": "uint256",
          "name": "groupId",
          "type": "uint256"
        }
      ],
      "name": "getEligibleRecipientNames",
      "outputs": [
        {
          "internalType": "string[]",
          "name": "",
          "type": "string[]"
        }
      ],
      "stateMutability": "view",
      "type": "function",
      "constant": true
    },
    {
      "inputs": [
        {
          "internalType": "uint256",
          "name": "groupId",
          "type": "uint256"
        }
      ],
      "name": "getGroupEventData",
      "outputs": [
        {
          "internalType": "enum EthDropBase.EventState",
          "name": "",
          "type": "uint8"
        },
        {
          "internalType": "uint256",
          "name": "",
          "type": "uint256"
        },
        {
          "internalType": "uint256",
          "name": "",
          "type": "uint256"
        },
        {
          "internalType": "uint256",
          "name": "",
          "type": "uint256"
        },
        {
          "internalType": "uint256",
          "name": "",
          "type": "uint256"
        }
      ],
      "stateMutability": "view",
      "type": "function",
      "constant": true
    },
    {
      "inputs": [],
      "name": "getGroupIds",
      "outputs": [
        {
          "internalType": "uint256[]",
          "name": "",
          "type": "uint256[]"
        }
      ],
      "stateMutability": "view",
      "type": "function",
      "constant": true
    },
    {
      "inputs": [],
      "name": "getGroupNames",
      "outputs": [
        {
          "internalType": "string[]",
          "name": "",
          "type": "string[]"
        }
      ],
      "stateMutability": "view",
      "type": "function",
      "constant": true
    },
    {
      "inputs": [
        {
          "internalType": "uint256",
          "name": "groupId",
          "type": "uint256"
        }
      ],
      "name": "getRegisteredRecipientNames",
      "outputs": [
        {
          "internalType": "string[]",
          "name": "",
          "type": "string[]"
        }
      ],
      "stateMutability": "view",
      "type": "function",
      "constant": true
    },
    {
      "inputs": [
        {
          "internalType": "uint256",
          "name": "groupId",
          "type": "uint256"
        }
      ],
      "name": "getRegisteredRecipients",
      "outputs": [
        {
          "internalType": "address[]",
          "name": "",
          "type": "address[]"
        }
      ],
      "stateMutability": "view",
      "type": "function",
      "constant": true
    },
    {
      "inputs": [],
      "name": "getString",
      "outputs": [
        {
          "internalType": "string",
          "name": "",
          "type": "string"
        }
      ],
      "stateMutability": "view",
      "type": "function",
      "constant": true
    },
    {
      "inputs": [
        {
          "internalType": "address",
          "name": "account",
          "type": "address"
        },
        {
          "internalType": "uint256",
          "name": "groupId",
          "type": "uint256"
        }
      ],
      "name": "isAdmin",
      "outputs": [
        {
          "internalType": "bool",
          "name": "",
          "type": "bool"
        }
      ],
      "stateMutability": "view",
      "type": "function",
      "constant": true
    },
    {
      "inputs": [],
      "name": "isCEO",
      "outputs": [
        {
          "internalType": "bool",
          "name": "",
          "type": "bool"
        }
      ],
      "stateMutability": "view",
      "type": "function",
      "constant": true
    },
    {
      "inputs": [],
      "name": "isCFO",
      "outputs": [
        {
          "internalType": "bool",
          "name": "",
          "type": "bool"
        }
      ],
      "stateMutability": "view",
      "type": "function",
      "constant": true
    },
    {
      "inputs": [],
      "name": "isCOO",
      "outputs": [
        {
          "internalType": "bool",
          "name": "",
          "type": "bool"
        }
      ],
      "stateMutability": "view",
      "type": "function",
      "constant": true
    },
    {
      "inputs": [
        {
          "internalType": "address",
          "name": "account",
          "type": "address"
        },
        {
          "internalType": "uint256",
          "name": "groupId",
          "type": "uint256"
        }
      ],
      "name": "isContributor",
      "outputs": [
        {
          "internalType": "bool",
          "name": "",
          "type": "bool"
        }
      ],
      "stateMutability": "view",
      "type": "function",
      "constant": true
    },
    {
      "inputs": [
        {
          "internalType": "address",
          "name": "account",
          "type": "address"
        },
        {
          "internalType": "uint256",
          "name": "groupId",
          "type": "uint256"
        }
      ],
      "name": "isEligibleRecipient",
      "outputs": [
        {
          "internalType": "bool",
          "name": "",
          "type": "bool"
        }
      ],
      "stateMutability": "view",
      "type": "function",
      "constant": true
    },
    {
      "inputs": [],
      "name": "isPaused",
      "outputs": [
        {
          "internalType": "bool",
          "name": "",
          "type": "bool"
        }
      ],
      "stateMutability": "view",
      "type": "function",
      "constant": true
    },
    {
      "inputs": [
        {
          "internalType": "address",
          "name": "account",
          "type": "address"
        },
        {
          "internalType": "uint256",
          "name": "groupId",
          "type": "uint256"
        }
      ],
      "name": "isRegisteredRecipient",
      "outputs": [
        {
          "internalType": "bool",
          "name": "",
          "type": "bool"
        }
      ],
      "stateMutability": "view",
      "type": "function",
      "constant": true
    },
    {
      "inputs": [],
      "name": "newContractAddress",
      "outputs": [
        {
          "internalType": "address",
          "name": "",
          "type": "address"
        }
      ],
      "stateMutability": "view",
      "type": "function",
      "constant": true
    },
    {
      "inputs": [],
      "name": "pause",
      "outputs": [],
      "stateMutability": "nonpayable",
      "type": "function"
    },
    {
      "inputs": [],
      "name": "paused",
      "outputs": [
        {
          "internalType": "bool",
          "name": "",
          "type": "bool"
        }
      ],
      "stateMutability": "view",
      "type": "function",
      "constant": true
    },
    {
      "inputs": [
        {
          "internalType": "uint256",
          "name": "groupId",
          "type": "uint256"
        }
      ],
      "name": "readEventInfo",
      "outputs": [
        {
          "components": [
            {
              "internalType": "uint256",
              "name": "groupId",
              "type": "uint256"
            },
            {
              "internalType": "string",
              "name": "groupName",
              "type": "string"
            },
            {
              "internalType": "enum EthDropBase.EventState",
              "name": "currentState",
              "type": "uint8"
            },
            {
              "internalType": "uint256",
              "name": "startTime",
              "type": "uint256"
            },
            {
              "internalType": "uint256",
              "name": "registrationEndTime",
              "type": "uint256"
            },
            {
              "internalType": "uint256",
              "name": "endTime",
              "type": "uint256"
            },
            {
              "internalType": "uint256",
              "name": "registeredRecipientsCount",
              "type": "uint256"
            },
            {
              "internalType": "string",
              "name": "sponsorName",
              "type": "string"
            },
            {
              "internalType": "string",
              "name": "sponsorImageUrl",
              "type": "string"
            },
            {
              "internalType": "string",
              "name": "sponsorLinkToUrl",
              "type": "string"
            },
            {
              "internalType": "address",
              "name": "currentContributor",
              "type": "address"
            },
            {
              "internalType": "uint256",
              "name": "totalAmountContributed",
              "type": "uint256"
            },
            {
              "internalType": "uint256",
              "name": "weiWinnings",
              "type": "uint256"
            },
            {
              "internalType": "uint256",
              "name": "numberOfUsersWhoClaimedWinnings",
              "type": "uint256"
            }
          ],
          "internalType": "struct EthDropBase.EthDropEvent",
          "name": "",
          "type": "tuple"
        }
      ],
      "stateMutability": "view",
      "type": "function",
      "constant": true
    },
    {
      "inputs": [
        {
          "internalType": "uint256",
          "name": "groupId",
          "type": "uint256"
        }
      ],
      "name": "registerForEvent",
      "outputs": [],
      "stateMutability": "nonpayable",
      "type": "function"
    },
    {
      "inputs": [
        {
          "internalType": "address",
          "name": "account",
          "type": "address"
        },
        {
          "internalType": "uint256",
          "name": "groupId",
          "type": "uint256"
        }
      ],
      "name": "removeAdmin",
      "outputs": [],
      "stateMutability": "nonpayable",
      "type": "function"
    },
    {
      "inputs": [
        {
          "internalType": "address",
          "name": "account",
          "type": "address"
        },
        {
          "internalType": "uint256",
          "name": "groupId",
          "type": "uint256"
        }
      ],
      "name": "removeEligibleRecipient",
      "outputs": [],
      "stateMutability": "nonpayable",
      "type": "function"
    },
    {
      "inputs": [
        {
          "internalType": "uint256",
          "name": "groupId",
          "type": "uint256"
        }
      ],
      "name": "renounceAdmin",
      "outputs": [],
      "stateMutability": "nonpayable",
      "type": "function"
    },
    {
      "inputs": [
        {
          "internalType": "address",
          "name": "_newCEO",
          "type": "address"
        }
      ],
      "name": "setCEO",
      "outputs": [],
      "stateMutability": "nonpayable",
      "type": "function"
    },
    {
      "inputs": [
        {
          "internalType": "address",
          "name": "_newCFO",
          "type": "address"
        }
      ],
      "name": "setCFO",
      "outputs": [],
      "stateMutability": "nonpayable",
      "type": "function"
    },
    {
      "inputs": [
        {
          "internalType": "address",
          "name": "_newCOO",
          "type": "address"
        }
      ],
      "name": "setCOO",
      "outputs": [],
      "stateMutability": "nonpayable",
      "type": "function"
    },
    {
      "inputs": [
        {
          "internalType": "string",
          "name": "_s",
          "type": "string"
        }
      ],
      "name": "setString",
      "outputs": [],
      "stateMutability": "nonpayable",
      "type": "function"
    },
    {
      "inputs": [
        {
          "internalType": "uint256",
          "name": "groupId",
          "type": "uint256"
        }
      ],
      "name": "startEvent",
      "outputs": [],
      "stateMutability": "nonpayable",
      "type": "function"
    },
    {
      "inputs": [],
      "name": "stringgg",
      "outputs": [
        {
          "internalType": "string",
          "name": "",
          "type": "string"
        }
      ],
      "stateMutability": "view",
      "type": "function",
      "constant": true
    },
    {
      "inputs": [],
      "name": "unpause",
      "outputs": [
        {
          "internalType": "bool",
          "name": "",
          "type": "bool"
        }
      ],
      "stateMutability": "nonpayable",
      "type": "function"
    },
    {
      "inputs": [
        {
          "internalType": "uint256",
          "name": "groupId",
          "type": "uint256"
        },
        {
          "internalType": "string",
          "name": "newContributorName",
          "type": "string"
        },
        {
          "internalType": "string",
          "name": "newContributorImgUrl",
          "type": "string"
        },
        {
          "internalType": "string",
          "name": "newContributorLinkToUrl",
          "type": "string"
        }
      ],
      "name": "updateContributorInfo",
      "outputs": [],
      "stateMutability": "nonpayable",
      "type": "function"
    },
    {
      "inputs": [],
      "name": "whoami",
      "outputs": [
        {
          "internalType": "address",
          "name": "",
          "type": "address"
        }
      ],
      "stateMutability": "view",
      "type": "function",
      "constant": true
    },
    {
      "inputs": [
        {
          "internalType": "address",
          "name": "_v2Address",
          "type": "address"
        }
      ],
      "name": "setNewAddress",
      "outputs": [],
      "stateMutability": "nonpayable",
      "type": "function"
    },
    {
      "inputs": [],
      "name": "foobar",
      "outputs": [
        {
          "internalType": "string",
          "name": "",
          "type": "string"
        }
      ],
      "stateMutability": "pure",
      "type": "function",
      "constant": true
    }
  ],
  "bytecode": "0x60806040526000600360146101000a81548160ff02191690831515021790555060056004556000600b5534801561003557600080fd5b506000600360146101000a81548160ff02191690831515021790555033600160006101000a81548173ffffffffffffffffffffffffffffffffffffffff021916908373ffffffffffffffffffffffffffffffffffffffff1602179055506158cc80620000a26000396000f3fe6080604052600436106103765760003560e01c80637d837ce5116101d1578063b3b36bb311610102578063e513b7a9116100a0578063ee41b5921161006f578063ee41b59214610d54578063f4a02e7014610d91578063f89e9cb914610dbc578063fc5fd6e414610df957610376565b8063e513b7a914610ca7578063e62092be14610cd2578063e82f24e014610d0f578063ea303f0814610d2b57610376565b8063c6db5094116100dc578063c6db509414610beb578063c6e0ddfa14610c16578063d5f016c314610c3f578063e33db42614610c6a57610376565b8063b3b36bb314610b6c578063c02b8b2c14610b97578063c271e80c14610bc257610376565b8063962ecff51161016f578063a59a695311610149578063a59a695314610ac4578063aea88a0514610aed578063b047fb5014610b16578063b187bd2614610b4157610376565b8063962ecff514610a21578063967cafbc14610a5e5780639bda879614610a8757610376565b80638182aaf2116101ab5780638182aaf2146109775780638456cb59146109b457806389ea642f146109cb5780639393ae37146109f657610376565b80637d837ce5146108e85780637fcaf666146109255780637fcb29c91461094e57610376565b806344b2983b116102ab578063674811ca116102495780636ebdec49116102235780636ebdec491461082d578063715879881461086b578063785142be146108945780637b936ac2146108bd57610376565b8063674811ca1461079a578063677bd9ff146107d95780636af04a571461080257610376565b80634e0a3379116102855780634e0a3379146106cc57806355b57ec1146106f55780635c975abb146107325780635e82c1fc1461075d57610376565b806344b2983b14610611578063454432e21461064e5780634635509b1461068b57610376565b806327d7874c11610318578063330a347b116102f2578063330a347b1461055757806338f0b656146105805780633f4ba83a146105bd578063406db843146105e857610376565b806327d7874c146104dc5780632ba73c151461050557806330bb01151461052e57610376565b806307bfa3301161035457806307bfa3301461040e5780630a0f81681461044b5780630d82ffa01461047657806315891ff4146104b357610376565b80630519ce791461037b57806305df75db146103a657806306cc4922146103d1575b600080fd5b34801561038757600080fd5b50610390610e24565b60405161039d9190614fd9565b60405180910390f35b3480156103b257600080fd5b506103bb610e4a565b6040516103c89190615121565b60405180910390f35b3480156103dd57600080fd5b506103f860048036038101906103f39190614a27565b610e87565b60405161040591906150b3565b60405180910390f35b34801561041a57600080fd5b5061043560048036038101906104309190614a27565b610eb4565b604051610442919061506f565b60405180910390f35b34801561045757600080fd5b50610460610fa0565b60405161046d9190614fd9565b60405180910390f35b34801561048257600080fd5b5061049d60048036038101906104989190614a27565b610fc6565b6040516104aa9190614fd9565b60405180910390f35b3480156104bf57600080fd5b506104da60048036038101906104d5919061499e565b611006565b005b3480156104e857600080fd5b5061050360048036038101906104fe9190614902565b6110f0565b005b34801561051157600080fd5b5061052c60048036038101906105279190614902565b6111c8565b005b34801561053a57600080fd5b5061055560048036038101906105509190614a27565b6112cc565b005b34801561056357600080fd5b5061057e60048036038101906105799190614a27565b6112ee565b005b34801561058c57600080fd5b506105a760048036038101906105a29190614a27565b6118d8565b6040516105b491906150b3565b60405180910390f35b3480156105c957600080fd5b506105d2611905565b6040516105df91906150b3565b60405180910390f35b3480156105f457600080fd5b5061060f600480360381019061060a9190614a27565b6119aa565b005b34801561061d57600080fd5b5061063860048036038101906106339190614a27565b611c5e565b6040516106459190614ff4565b60405180910390f35b34801561065a57600080fd5b5061067560048036038101906106709190614a27565b611cff565b604051610682919061506f565b60405180910390f35b34801561069757600080fd5b506106b260048036038101906106ad9190614a27565b611deb565b6040516106c39594939291906150ce565b60405180910390f35b3480156106d857600080fd5b506106f360048036038101906106ee9190614902565b61216e565b005b34801561070157600080fd5b5061071c60048036038101906107179190614a27565b612238565b604051610729919061504d565b60405180910390f35b34801561073e57600080fd5b506107476122c8565b60405161075491906150b3565b60405180910390f35b34801561076957600080fd5b50610784600480360381019061077f919061499e565b6122db565b60405161079191906150b3565b60405180910390f35b3480156107a657600080fd5b506107c160048036038101906107bc9190614a27565b612364565b6040516107d093929190615143565b60405180910390f35b3480156107e557600080fd5b5061080060048036038101906107fb9190614a27565b61255c565b005b34801561080e57600080fd5b50610817612741565b6040516108249190614fd9565b60405180910390f35b34801561083957600080fd5b50610854600480360381019061084f9190614a27565b612767565b604051610862929190615016565b60405180910390f35b34801561087757600080fd5b50610892600480360381019061088d9190614902565b612898565b005b3480156108a057600080fd5b506108bb60048036038101906108b69190614a27565b612986565b005b3480156108c957600080fd5b506108d2612bbb565b6040516108df9190614fd9565b60405180910390f35b3480156108f457600080fd5b5061090f600480360381019061090a919061499e565b612be5565b60405161091c91906150b3565b60405180910390f35b34801561093157600080fd5b5061094c600480360381019061094791906149de565b612c6e565b005b34801561095a57600080fd5b506109756004803603810190610970919061499e565b612c88565b005b34801561098357600080fd5b5061099e6004803603810190610999919061499e565b612d27565b6040516109ab91906150b3565b60405180910390f35b3480156109c057600080fd5b506109c9612db0565b005b3480156109d757600080fd5b506109e0612ef1565b6040516109ed9190615121565b60405180910390f35b348015610a0257600080fd5b50610a0b612f83565b604051610a1891906150b3565b60405180910390f35b348015610a2d57600080fd5b50610a486004803603810190610a439190614a27565b612fdb565b604051610a5591906150b3565b60405180910390f35b348015610a6a57600080fd5b50610a856004803603810190610a80919061492f565b613049565b005b348015610a9357600080fd5b50610aae6004803603810190610aa99190614a27565b6132b0565b604051610abb9190614ff4565b60405180910390f35b348015610ad057600080fd5b50610aeb6004803603810190610ae69190614a27565b613351565b005b348015610af957600080fd5b50610b146004803603810190610b0f9190614a54565b61342b565b005b348015610b2257600080fd5b50610b2b613564565b604051610b389190614fd9565b60405180910390f35b348015610b4d57600080fd5b50610b5661358a565b604051610b6391906150b3565b60405180910390f35b348015610b7857600080fd5b50610b816135a1565b604051610b8e9190614fd9565b60405180910390f35b348015610ba357600080fd5b50610bac6135a9565b604051610bb99190615091565b60405180910390f35b348015610bce57600080fd5b50610be96004803603810190610be4919061499e565b613601565b005b348015610bf757600080fd5b50610c00613696565b604051610c0d9190615121565b60405180910390f35b348015610c2257600080fd5b50610c3d6004803603810190610c38919061499e565b613724565b005b348015610c4b57600080fd5b50610c5461378c565b604051610c61919061506f565b60405180910390f35b348015610c7657600080fd5b50610c916004803603810190610c8c9190614a27565b613865565b604051610c9e91906151df565b60405180910390f35b348015610cb357600080fd5b50610cbc613bd1565b604051610cc991906150b3565b60405180910390f35b348015610cde57600080fd5b50610cf96004803603810190610cf4919061499e565b613c29565b604051610d0691906150b3565b60405180910390f35b610d296004803603810190610d249190614a27565b613c98565b005b348015610d3757600080fd5b50610d526004803603810190610d4d91906149de565b613d5d565b005b348015610d6057600080fd5b50610d7b6004803603810190610d769190614a27565b61408e565b604051610d8891906150b3565b60405180910390f35b348015610d9d57600080fd5b50610da66140bb565b604051610db391906150b3565b60405180910390f35b348015610dc857600080fd5b50610de36004803603810190610dde9190614a27565b614113565b604051610df091906150b3565b60405180910390f35b348015610e0557600080fd5b50610e0e61419a565b604051610e1b9190614fd9565b60405180910390f35b600260009054906101000a900473ffffffffffffffffffffffffffffffffffffffff1681565b60606040518060400160405280600d81526020017f666f6f6261727272727272722100000000000000000000000000000000000000815250905090565b6000600360149054906101000a900460ff1615610ea357600080fd5b610ead33836122db565b9050919050565b606060166000838152602001908152602001600020805480602002602001604051908101604052809291908181526020016000905b82821015610f95578382906000526020600020018054610f089061561a565b80601f0160208091040260200160405190810160405280929190818152602001828054610f349061561a565b8015610f815780601f10610f5657610100808354040283529160200191610f81565b820191906000526020600020905b815481529060010190602001808311610f6457829003601f168201915b505050505081526020019060010190610ee9565b505050509050919050565b600160009054906101000a900473ffffffffffffffffffffffffffffffffffffffff1681565b600060076000838152602001908152602001600020600a0160009054906101000a900473ffffffffffffffffffffffffffffffffffffffff169050919050565b806110113382613c29565b61101a57600080fd5b600360149054906101000a900460ff161561103457600080fd5b60006011600084815260200190815260200160002060008573ffffffffffffffffffffffffffffffffffffffff1673ffffffffffffffffffffffffffffffffffffffff16815260200190815260200160002060006101000a81548160ff0219169083151502179055508273ffffffffffffffffffffffffffffffffffffffff167f1af6d16168d33745872119540d28858eed156c5f265206bbf1344fda39a93a33836040516110e39190615201565b60405180910390a2505050565b600160009054906101000a900473ffffffffffffffffffffffffffffffffffffffff1673ffffffffffffffffffffffffffffffffffffffff163373ffffffffffffffffffffffffffffffffffffffff161461114a57600080fd5b600073ffffffffffffffffffffffffffffffffffffffff168173ffffffffffffffffffffffffffffffffffffffff16141561118457600080fd5b80600160006101000a81548173ffffffffffffffffffffffffffffffffffffffff021916908373ffffffffffffffffffffffffffffffffffffffff16021790555050565b600160009054906101000a900473ffffffffffffffffffffffffffffffffffffffff1673ffffffffffffffffffffffffffffffffffffffff163373ffffffffffffffffffffffffffffffffffffffff161461122257600080fd5b600073ffffffffffffffffffffffffffffffffffffffff168173ffffffffffffffffffffffffffffffffffffffff16141561125c57600080fd5b80600360006101000a81548173ffffffffffffffffffffffffffffffffffffffff021916908373ffffffffffffffffffffffffffffffffffffffff1602179055507fa308298a77084def994b565be25bff2e8fbfe7006c2c6b2bacfb84d1ba1f635060405160405180910390a150565b806112d73382613c29565b6112e057600080fd5b6112ea33836141c4565b5050565b806112f93382613c29565b806113515750600360009054906101000a900473ffffffffffffffffffffffffffffffffffffffff1673ffffffffffffffffffffffffffffffffffffffff163373ffffffffffffffffffffffffffffffffffffffff16145b61135a57600080fd5b600360149054906101000a900460ff161561137457600080fd5b42600760008481526020019081526020016000206005018190555060036007600084815260200190815260200160002060020160006101000a81548160ff021916908360038111156113c9576113c8615724565b5b021790555060005b600760008481526020019081526020016000206006015481101561157357600060186000858152602001908152602001600020828154811061141657611415615782565b5b9060005260206000200160009054906101000a900473ffffffffffffffffffffffffffffffffffffffff1690506017600085815260200190815260200160002060008273ffffffffffffffffffffffffffffffffffffffff1673ffffffffffffffffffffffffffffffffffffffff16815260200190815260200160002060006101000a81549060ff02191690556015600085815260200190815260200160002060008273ffffffffffffffffffffffffffffffffffffffff1673ffffffffffffffffffffffffffffffffffffffff16815260200190815260200160002060006114ff91906145fb565b600c600085815260200190815260200160002060008273ffffffffffffffffffffffffffffffffffffffff1673ffffffffffffffffffffffffffffffffffffffff16815260200190815260200160002060006101000a81549060ff021916905550808061156b9061567d565b9150506113d1565b50601660008381526020019081526020016000206000611593919061463b565b6018600083815260200190815260200160002060006115b2919061465c565b600860008381526020019081526020016000206007600084815260200190815260200160002090806001815401808255809150506001900390600052602060002090600e020160009091909190915060008201548160000155600182018160010190805461161f9061561a565b61162a92919061467d565b506002820160009054906101000a900460ff168160020160006101000a81548160ff0219169083600381111561166357611662615724565b5b02179055506003820154816003015560048201548160040155600582015481600501556006820154816006015560078201816007019080546116a49061561a565b6116af92919061467d565b5060088201816008019080546116c49061561a565b6116cf92919061467d565b5060098201816009019080546116e49061561a565b6116ef92919061467d565b50600a820160009054906101000a900473ffffffffffffffffffffffffffffffffffffffff1681600a0160006101000a81548173ffffffffffffffffffffffffffffffffffffffff021916908373ffffffffffffffffffffffffffffffffffffffff160217905550600b82015481600b0155600c82015481600c0155600d82015481600d0155505060006007600084815260200190815260200160002060060181905550600060076000848152602001908152602001600020600b0181905550600060076000848152602001908152602001600020600c0181905550600060076000848152602001908152602001600020600d01819055503373ffffffffffffffffffffffffffffffffffffffff167f5dc1fe5ab986a852c4eda8e8bb94247d13307065c593fb83f1a09be27367938283600060405161183092919061521c565b60405180910390a23373ffffffffffffffffffffffffffffffffffffffff167f0695e999be8100bdb5bee8612337296508d527eae78c65b8f170eacb5a3b439d8360405161187e9190615201565b60405180910390a23373ffffffffffffffffffffffffffffffffffffffff167f6f45a19e8850c727d0de9f32e0d8691324a9a74ffb4347652e6404138b1d8165836040516118cc9190615201565b60405180910390a25050565b6000600360149054906101000a900460ff16156118f457600080fd5b6118fe3383612be5565b9050919050565b6000600160009054906101000a900473ffffffffffffffffffffffffffffffffffffffff1673ffffffffffffffffffffffffffffffffffffffff163373ffffffffffffffffffffffffffffffffffffffff161461196157600080fd5b600360149054906101000a900460ff1661197a57600080fd5b6000600360146101000a81548160ff021916908315150217905550600360149054906101000a900460ff16905090565b806119b533826122db565b6119be57600080fd5b600360149054906101000a900460ff16156119d857600080fd5b60016017600084815260200190815260200160002060003373ffffffffffffffffffffffffffffffffffffffff1673ffffffffffffffffffffffffffffffffffffffff16815260200190815260200160002060006101000a81548160ff02191690831515021790555060186000838152602001908152602001600020339080600181540180825580915050600190039060005260206000200160009091909190916101000a81548173ffffffffffffffffffffffffffffffffffffffff021916908373ffffffffffffffffffffffffffffffffffffffff16021790555060006015600084815260200190815260200160002060003373ffffffffffffffffffffffffffffffffffffffff1673ffffffffffffffffffffffffffffffffffffffff1681526020019081526020016000208054611b129061561a565b80601f0160208091040260200160405190810160405280929190818152602001828054611b3e9061561a565b8015611b8b5780601f10611b6057610100808354040283529160200191611b8b565b820191906000526020600020905b815481529060010190602001808311611b6e57829003601f168201915b505050505090506016600084815260200190815260200160002081908060018154018082558091505060019003906000526020600020016000909190919091509080519060200190611bde92919061470a565b50600760008481526020019081526020016000206006016000815480929190611c069061567d565b91905055503373ffffffffffffffffffffffffffffffffffffffff167f0695e999be8100bdb5bee8612337296508d527eae78c65b8f170eacb5a3b439d84604051611c519190615201565b60405180910390a2505050565b606060186000838152602001908152602001600020805480602002602001604051908101604052809291908181526020018280548015611cf357602002820191906000526020600020905b8160009054906101000a900473ffffffffffffffffffffffffffffffffffffffff1673ffffffffffffffffffffffffffffffffffffffff1681526020019060010190808311611ca9575b50505050509050919050565b606060136000838152602001908152602001600020805480602002602001604051908101604052809291908181526020016000905b82821015611de0578382906000526020600020018054611d539061561a565b80601f0160208091040260200160405190810160405280929190818152602001828054611d7f9061561a565b8015611dcc5780601f10611da157610100808354040283529160200191611dcc565b820191906000526020600020905b815481529060010190602001808311611daf57829003601f168201915b505050505081526020019060010190611d34565b505050509050919050565b60008060008060008060076000888152602001908152602001600020604051806101c001604052908160008201548152602001600182018054611e2d9061561a565b80601f0160208091040260200160405190810160405280929190818152602001828054611e599061561a565b8015611ea65780601f10611e7b57610100808354040283529160200191611ea6565b820191906000526020600020905b815481529060010190602001808311611e8957829003601f168201915b505050505081526020016002820160009054906101000a900460ff166003811115611ed457611ed3615724565b5b6003811115611ee657611ee5615724565b5b815260200160038201548152602001600482015481526020016005820154815260200160068201548152602001600782018054611f229061561a565b80601f0160208091040260200160405190810160405280929190818152602001828054611f4e9061561a565b8015611f9b5780601f10611f7057610100808354040283529160200191611f9b565b820191906000526020600020905b815481529060010190602001808311611f7e57829003601f168201915b50505050508152602001600882018054611fb49061561a565b80601f0160208091040260200160405190810160405280929190818152602001828054611fe09061561a565b801561202d5780601f106120025761010080835404028352916020019161202d565b820191906000526020600020905b81548152906001019060200180831161201057829003601f168201915b505050505081526020016009820180546120469061561a565b80601f01602080910402602001604051908101604052809291908181526020018280546120729061561a565b80156120bf5780601f10612094576101008083540402835291602001916120bf565b820191906000526020600020905b8154815290600101906020018083116120a257829003601f168201915b50505050508152602001600a820160009054906101000a900473ffffffffffffffffffffffffffffffffffffffff1673ffffffffffffffffffffffffffffffffffffffff1673ffffffffffffffffffffffffffffffffffffffff168152602001600b8201548152602001600c8201548152602001600d82015481525050905080604001518160c00151826101600151836101800151846101a00151955095509550955095505091939590929450565b600160009054906101000a900473ffffffffffffffffffffffffffffffffffffffff1673ffffffffffffffffffffffffffffffffffffffff163373ffffffffffffffffffffffffffffffffffffffff16146121c857600080fd5b80600260006101000a81548173ffffffffffffffffffffffffffffffffffffffff021916908373ffffffffffffffffffffffffffffffffffffffff1602179055507f162e32528b5907ecf876b3b7a4e5e0edf878642e3ec25852e3c35af1a4e1c04060405160405180910390a150565b6060601460008381526020019081526020016000208054806020026020016040519081016040528092919081815260200182805480156122bc57602002820191906000526020600020906000905b82829054906101000a900460ff161515815260200190600101906020826000010492830192600103820291508084116122865790505b50505050509050919050565b600360149054906101000a900460ff1681565b6000600360149054906101000a900460ff16156122f757600080fd5b600115156011600084815260200190815260200160002060008573ffffffffffffffffffffffffffffffffffffffff1673ffffffffffffffffffffffffffffffffffffffff16815260200190815260200160002060009054906101000a900460ff16151514905092915050565b60608060606007600085815260200190815260200160002060070160076000868152602001908152602001600020600801600760008781526020019081526020016000206009018280546123b79061561a565b80601f01602080910402602001604051908101604052809291908181526020018280546123e39061561a565b80156124305780601f1061240557610100808354040283529160200191612430565b820191906000526020600020905b81548152906001019060200180831161241357829003601f168201915b505050505092508180546124439061561a565b80601f016020809104026020016040519081016040528092919081815260200182805461246f9061561a565b80156124bc5780601f10612491576101008083540402835291602001916124bc565b820191906000526020600020905b81548152906001019060200180831161249f57829003601f168201915b505050505091508080546124cf9061561a565b80601f01602080910402602001604051908101604052809291908181526020018280546124fb9061561a565b80156125485780601f1061251d57610100808354040283529160200191612548565b820191906000526020600020905b81548152906001019060200180831161252b57829003601f168201915b505050505090509250925092509193909250565b806125673382612be5565b61257057600080fd5b813360011515600c600084815260200190815260200160002060003373ffffffffffffffffffffffffffffffffffffffff1673ffffffffffffffffffffffffffffffffffffffff16815260200190815260200160002060009054906101000a900460ff16151514156125e157600080fd5b600360149054906101000a900460ff16156125fb57600080fd5b6001600c600086815260200190815260200160002060003373ffffffffffffffffffffffffffffffffffffffff1673ffffffffffffffffffffffffffffffffffffffff16815260200190815260200160002060006101000a81548160ff02191690831515021790555060076000858152602001908152602001600020600d01600081548092919061268b9061567d565b91905055503373ffffffffffffffffffffffffffffffffffffffff166108fc60076000878152602001908152602001600020600c01549081150290604051600060405180830381858888f193505050501580156126ec573d6000803e3d6000fd5b503373ffffffffffffffffffffffffffffffffffffffff167f1a31e733a172afcf46074b3106c17f0c298e226442682a03c1e99ce256139ec2856040516127339190615201565b60405180910390a250505050565b601960009054906101000a900473ffffffffffffffffffffffffffffffffffffffff1681565b606080600d6000848152602001908152602001600020600f60008581526020019081526020016000208180548060200260200160405190810160405280929190818152602001828054801561281157602002820191906000526020600020905b8160009054906101000a900473ffffffffffffffffffffffffffffffffffffffff1673ffffffffffffffffffffffffffffffffffffffff16815260200190600101908083116127c7575b505050505091508080548060200260200160405190810160405280929190818152602001828054801561288857602002820191906000526020600020906000905b82829054906101000a900460ff161515815260200190600101906020826000010492830192600103820291508084116128525790505b5050505050905091509150915091565b600160009054906101000a900473ffffffffffffffffffffffffffffffffffffffff1673ffffffffffffffffffffffffffffffffffffffff163373ffffffffffffffffffffffffffffffffffffffff16146128f257600080fd5b600360149054906101000a900460ff1661290b57600080fd5b80601960006101000a81548173ffffffffffffffffffffffffffffffffffffffff021916908373ffffffffffffffffffffffffffffffffffffffff1602179055507f450db8da6efbe9c22f2347f7c2021231df1fc58d3ae9a2fa75d39fa4461993058160405161297b9190614fd9565b60405180910390a150565b806129913382613c29565b61299a57600080fd5b600360149054906101000a900460ff16156129b457600080fd5b600160076000848152602001908152602001600020600601541015612a0e576040517f08c379a0000000000000000000000000000000000000000000000000000000008152600401612a05906151bf565b60405180910390fd5b4260076000848152602001908152602001600020600401819055506000606460045460076000868152602001908152602001600020600b0154612a5191906154cb565b612a5b919061549a565b9050600260009054906101000a900473ffffffffffffffffffffffffffffffffffffffff1673ffffffffffffffffffffffffffffffffffffffff166108fc829081150290604051600060405180830381858888f19350505050158015612ac5573d6000803e3d6000fd5b5060008160076000868152602001908152602001600020600b0154612aea9190615525565b9050600760008581526020019081526020016000206006015481612b0e919061549a565b60076000868152602001908152602001600020600c018190555060026007600086815260200190815260200160002060020160006101000a81548160ff02191690836003811115612b6257612b61615724565b5b02179055503373ffffffffffffffffffffffffffffffffffffffff167fef898a6941c945450e9bbdad4a76fcd0f51f42f7e251fddcb1e5479ba786d5e485604051612bad9190615201565b60405180910390a250505050565b6000600260009054906101000a900473ffffffffffffffffffffffffffffffffffffffff16905090565b6000600360149054906101000a900460ff1615612c0157600080fd5b600115156017600084815260200190815260200160002060008573ffffffffffffffffffffffffffffffffffffffff1673ffffffffffffffffffffffffffffffffffffffff16815260200190815260200160002060009054906101000a900460ff16151514905092915050565b8060009080519060200190612c8492919061470a565b5050565b600360009054906101000a900473ffffffffffffffffffffffffffffffffffffffff1673ffffffffffffffffffffffffffffffffffffffff163373ffffffffffffffffffffffffffffffffffffffff1614612ce257600080fd5b612cec828261430e565b7f6d08be0da99b3a8dabb8a9d0bd4ebece8d00f747b0d0e6c29f97508f1a40a29181604051612d1b9190615201565b60405180910390a15050565b6000600360149054906101000a900460ff1615612d4357600080fd5b60076000838152602001908152602001600020600a0160009054906101000a900473ffffffffffffffffffffffffffffffffffffffff1673ffffffffffffffffffffffffffffffffffffffff168373ffffffffffffffffffffffffffffffffffffffff1614905092915050565b600360009054906101000a900473ffffffffffffffffffffffffffffffffffffffff1673ffffffffffffffffffffffffffffffffffffffff163373ffffffffffffffffffffffffffffffffffffffff161480612e595750600160009054906101000a900473ffffffffffffffffffffffffffffffffffffffff1673ffffffffffffffffffffffffffffffffffffffff163373ffffffffffffffffffffffffffffffffffffffff16145b80612eb15750600260009054906101000a900473ffffffffffffffffffffffffffffffffffffffff1673ffffffffffffffffffffffffffffffffffffffff163373ffffffffffffffffffffffffffffffffffffffff16145b612eba57600080fd5b600360149054906101000a900460ff1615612ed457600080fd5b6001600360146101000a81548160ff021916908315150217905550565b606060008054612f009061561a565b80601f0160208091040260200160405190810160405280929190818152602001828054612f2c9061561a565b8015612f795780601f10612f4e57610100808354040283529160200191612f79565b820191906000526020600020905b815481529060010190602001808311612f5c57829003601f168201915b5050505050905090565b6000600260009054906101000a900473ffffffffffffffffffffffffffffffffffffffff1673ffffffffffffffffffffffffffffffffffffffff163373ffffffffffffffffffffffffffffffffffffffff1614905090565b6000600115156009600084815260200190815260200160002060003373ffffffffffffffffffffffffffffffffffffffff1673ffffffffffffffffffffffffffffffffffffffff16815260200190815260200160002060009054906101000a900460ff161515149050919050565b600360149054906101000a900460ff161561306357600080fd5b8061306e3382613c29565b61307757600080fd5b60016011600084815260200190815260200160002060008673ffffffffffffffffffffffffffffffffffffffff1673ffffffffffffffffffffffffffffffffffffffff16815260200190815260200160002060006101000a81548160ff02191690831515021790555060126000838152602001908152602001600020849080600181540180825580915050600190039060005260206000200160009091909190916101000a81548173ffffffffffffffffffffffffffffffffffffffff021916908373ffffffffffffffffffffffffffffffffffffffff16021790555060136000838152602001908152602001600020839080600181540180825580915050600190039060005260206000200160009091909190915090805190602001906131a092919061470a565b50826015600084815260200190815260200160002060008673ffffffffffffffffffffffffffffffffffffffff1673ffffffffffffffffffffffffffffffffffffffff168152602001908152602001600020908051906020019061320592919061470a565b5060146000838152602001908152602001600020600190806001815401808255809150506001900390600052602060002090602091828204019190069091909190916101000a81548160ff0219169083151502179055508373ffffffffffffffffffffffffffffffffffffffff167f46b8357d30dedd734a71d059a385f46b6e667bff20233f907477760207f88965836040516132a29190615201565b60405180910390a250505050565b60606012600083815260200190815260200160002080548060200260200160405190810160405280929190818152602001828054801561334557602002820191906000526020600020905b8160009054906101000a900473ffffffffffffffffffffffffffffffffffffffff1673ffffffffffffffffffffffffffffffffffffffff16815260200190600101908083116132fb575b50505050509050919050565b8061335c3382613c29565b61336557600080fd5b600360149054906101000a900460ff161561337f57600080fd5b60016007600084815260200190815260200160002060020160006101000a81548160ff021916908360038111156133b9576133b8615724565b5b02179055504260076000848152602001908152602001600020600301819055503373ffffffffffffffffffffffffffffffffffffffff167ff77c6f27499b698205f54058c2914a340e1300c2bc0d9a819e7aebfbaabbbb938360405161341f9190615201565b60405180910390a25050565b836134363382612d27565b61343f57600080fd5b600084511115613475578360076000878152602001908152602001600020600701908051906020019061347392919061470a565b505b6000835111156134ab57826007600087815260200190815260200160002060080190805190602001906134a992919061470a565b505b6000825111156134e157816007600087815260200190815260200160002060090190805190602001906134df92919061470a565b505b7fcd9ad49d834aeea746bafd2d26eebd3d01ebac2d8f5d3f53d7f3884292e5835f856007600088815260200190815260200160002060070160076000898152602001908152602001600020600801600760008a81526020019081526020016000206009016040516135559493929190615245565b60405180910390a15050505050565b600360009054906101000a900473ffffffffffffffffffffffffffffffffffffffff1681565b6000600360149054906101000a900460ff16905090565b600033905090565b606060058054806020026020016040519081016040528092919081815260200182805480156135f757602002820191906000526020600020905b8154815260200190600101908083116135e3575b5050505050905090565b8061360c3382613c29565b806136645750600360009054906101000a900473ffffffffffffffffffffffffffffffffffffffff1673ffffffffffffffffffffffffffffffffffffffff163373ffffffffffffffffffffffffffffffffffffffff16145b61366d57600080fd5b600360149054906101000a900460ff161561368757600080fd5b61369183836144eb565b505050565b600080546136a39061561a565b80601f01602080910402602001604051908101604052809291908181526020018280546136cf9061561a565b801561371c5780601f106136f15761010080835404028352916020019161371c565b820191906000526020600020905b8154815290600101906020018083116136ff57829003601f168201915b505050505081565b600360009054906101000a900473ffffffffffffffffffffffffffffffffffffffff1673ffffffffffffffffffffffffffffffffffffffff163373ffffffffffffffffffffffffffffffffffffffff161461377e57600080fd5b61378882826141c4565b5050565b60606006805480602002602001604051908101604052809291908181526020016000905b8282101561385c5783829060005260206000200180546137cf9061561a565b80601f01602080910402602001604051908101604052809291908181526020018280546137fb9061561a565b80156138485780601f1061381d57610100808354040283529160200191613848565b820191906000526020600020905b81548152906001019060200180831161382b57829003601f168201915b5050505050815260200190600101906137b0565b50505050905090565b61386d614790565b816138783382613c29565b61388157600080fd5b60076000848152602001908152602001600020604051806101c0016040529081600082015481526020016001820180546138ba9061561a565b80601f01602080910402602001604051908101604052809291908181526020018280546138e69061561a565b80156139335780601f1061390857610100808354040283529160200191613933565b820191906000526020600020905b81548152906001019060200180831161391657829003601f168201915b505050505081526020016002820160009054906101000a900460ff16600381111561396157613960615724565b5b600381111561397357613972615724565b5b8152602001600382015481526020016004820154815260200160058201548152602001600682015481526020016007820180546139af9061561a565b80601f01602080910402602001604051908101604052809291908181526020018280546139db9061561a565b8015613a285780601f106139fd57610100808354040283529160200191613a28565b820191906000526020600020905b815481529060010190602001808311613a0b57829003601f168201915b50505050508152602001600882018054613a419061561a565b80601f0160208091040260200160405190810160405280929190818152602001828054613a6d9061561a565b8015613aba5780601f10613a8f57610100808354040283529160200191613aba565b820191906000526020600020905b815481529060010190602001808311613a9d57829003601f168201915b50505050508152602001600982018054613ad39061561a565b80601f0160208091040260200160405190810160405280929190818152602001828054613aff9061561a565b8015613b4c5780601f10613b2157610100808354040283529160200191613b4c565b820191906000526020600020905b815481529060010190602001808311613b2f57829003601f168201915b50505050508152602001600a820160009054906101000a900473ffffffffffffffffffffffffffffffffffffffff1673ffffffffffffffffffffffffffffffffffffffff1673ffffffffffffffffffffffffffffffffffffffff168152602001600b8201548152602001600c8201548152602001600d82015481525050915050919050565b6000600160009054906101000a900473ffffffffffffffffffffffffffffffffffffffff1673ffffffffffffffffffffffffffffffffffffffff163373ffffffffffffffffffffffffffffffffffffffff1614905090565b6000600115156009600084815260200190815260200160002060008573ffffffffffffffffffffffffffffffffffffffff1673ffffffffffffffffffffffffffffffffffffffff16815260200190815260200160002060009054906101000a900460ff16151514905092915050565b80613ca33382612d27565b613cac57600080fd5b600360149054906101000a900460ff1615613cc657600080fd5b3460076000848152602001908152602001600020600b016000828254613cec9190615444565b925050819055503373ffffffffffffffffffffffffffffffffffffffff167f5dc1fe5ab986a852c4eda8e8bb94247d13307065c593fb83f1a09be2736793828360076000868152602001908152602001600020600b0154604051613d5192919061529f565b60405180910390a25050565b600360009054906101000a900473ffffffffffffffffffffffffffffffffffffffff1673ffffffffffffffffffffffffffffffffffffffff163373ffffffffffffffffffffffffffffffffffffffff1614613db757600080fd5b600360149054906101000a900460ff1615613dd157600080fd5b60004290506000604051806101c0016040528083815260200184815260200160006003811115613e0457613e03615724565b5b815260200142815260200142815260200142815260200160008152602001604051806020016040528060008152508152602001604051806020016040528060008152508152602001604051806020016040528060008152508152602001600073ffffffffffffffffffffffffffffffffffffffff1681526020016000815260200160008152602001600081525090508060076000848152602001908152602001600020600082015181600001556020820151816001019080519060200190613ecd92919061470a565b5060408201518160020160006101000a81548160ff02191690836003811115613ef957613ef8615724565b5b0217905550606082015181600301556080820151816004015560a0820151816005015560c0820151816006015560e0820151816007019080519060200190613f4292919061470a565b50610100820151816008019080519060200190613f6092919061470a565b50610120820151816009019080519060200190613f7e92919061470a565b5061014082015181600a0160006101000a81548173ffffffffffffffffffffffffffffffffffffffff021916908373ffffffffffffffffffffffffffffffffffffffff16021790555061016082015181600b015561018082015181600c01556101a082015181600d0155905050600582908060018154018082558091505060019003906000526020600020016000909190919091505560068390806001815401808255809150506001900390600052602060002001600090919091909150908051906020019061404f92919061470a565b507f5937a473913f56daf7dea7a6e821970acaa73f35555cf88f70c54f243cd98a9e838360405161408192919061518f565b60405180910390a1505050565b6000600360149054906101000a900460ff16156140aa57600080fd5b6140b43383612d27565b9050919050565b6000600360009054906101000a900473ffffffffffffffffffffffffffffffffffffffff1673ffffffffffffffffffffffffffffffffffffffff163373ffffffffffffffffffffffffffffffffffffffff1614905090565b600061411f3383612be5565b61412c5760009050614195565b60011515600c600084815260200190815260200160002060003373ffffffffffffffffffffffffffffffffffffffff1673ffffffffffffffffffffffffffffffffffffffff16815260200190815260200160002060009054906101000a900460ff161515141590505b919050565b6000600360009054906101000a900473ffffffffffffffffffffffffffffffffffffffff16905090565b60006009600083815260200190815260200160002060008473ffffffffffffffffffffffffffffffffffffffff1673ffffffffffffffffffffffffffffffffffffffff16815260200190815260200160002060006101000a81548160ff0219169083151502179055506000600a600083815260200190815260200160002060008473ffffffffffffffffffffffffffffffffffffffff1673ffffffffffffffffffffffffffffffffffffffff1681526020019081526020016000205490506000600f600084815260200190815260200160002082815481106142a9576142a8615782565b5b90600052602060002090602091828204019190066101000a81548160ff0219169083151502179055507f99f4c949f294dd13aa62d19c1344b81968121fe570d11657ebd54aae55ac0f20826040516143019190615201565b60405180910390a1505050565b60016009600083815260200190815260200160002060008473ffffffffffffffffffffffffffffffffffffffff1673ffffffffffffffffffffffffffffffffffffffff16815260200190815260200160002060006101000a81548160ff021916908315150217905550600b54600a600083815260200190815260200160002060008473ffffffffffffffffffffffffffffffffffffffff1673ffffffffffffffffffffffffffffffffffffffff16815260200190815260200160002081905550600b60008154809291906143e19061567d565b9190505550600d6000828152602001908152602001600020829080600181540180825580915050600190039060005260206000200160009091909190916101000a81548173ffffffffffffffffffffffffffffffffffffffff021916908373ffffffffffffffffffffffffffffffffffffffff160217905550600f6000828152602001908152602001600020600190806001815401808255809150506001900390600052602060002090602091828204019190069091909190916101000a81548160ff0219169083151502179055507f6d08be0da99b3a8dabb8a9d0bd4ebece8d00f747b0d0e6c29f97508f1a40a291816040516144df9190615201565b60405180910390a15050565b60016010600083815260200190815260200160002060008473ffffffffffffffffffffffffffffffffffffffff1673ffffffffffffffffffffffffffffffffffffffff16815260200190815260200160002060006101000a81548160ff0219169083151502179055508160076000838152602001908152602001600020600a0160006101000a81548173ffffffffffffffffffffffffffffffffffffffff021916908373ffffffffffffffffffffffffffffffffffffffff1602179055508173ffffffffffffffffffffffffffffffffffffffff167f5fd6d0b7e707fe344bd2a1887f9d0eeea8bfcac6f339ba4200e74f0647f101c0826040516145ef9190615201565b60405180910390a25050565b5080546146079061561a565b6000825580601f106146195750614638565b601f0160209004906000526020600020908101906146379190614827565b5b50565b50805460008255906000526020600020908101906146599190614844565b50565b508054600082559060005260206000209081019061467a9190614827565b50565b8280546146899061561a565b90600052602060002090601f0160209004810192826146ab57600085556146f9565b82601f106146bc57805485556146f9565b828001600101855582156146f957600052602060002091601f016020900482015b828111156146f85782548255916001019190600101906146dd565b5b5090506147069190614827565b5090565b8280546147169061561a565b90600052602060002090601f016020900481019282614738576000855561477f565b82601f1061475157805160ff191683800117855561477f565b8280016001018555821561477f579182015b8281111561477e578251825591602001919060010190614763565b5b50905061478c9190614827565b5090565b604051806101c001604052806000815260200160608152602001600060038111156147be576147bd615724565b5b815260200160008152602001600081526020016000815260200160008152602001606081526020016060815260200160608152602001600073ffffffffffffffffffffffffffffffffffffffff1681526020016000815260200160008152602001600081525090565b5b80821115614840576000816000905550600101614828565b5090565b5b80821115614864576000818161485b91906145fb565b50600101614845565b5090565b600061487b614876846152ed565b6152c8565b905082815260208101848484011115614897576148966157e5565b5b6148a28482856155d8565b509392505050565b6000813590506148b981615868565b92915050565b600082601f8301126148d4576148d36157e0565b5b81356148e4848260208601614868565b91505092915050565b6000813590506148fc8161587f565b92915050565b600060208284031215614918576149176157ef565b5b6000614926848285016148aa565b91505092915050565b600080600060608486031215614948576149476157ef565b5b6000614956868287016148aa565b935050602084013567ffffffffffffffff811115614977576149766157ea565b5b614983868287016148bf565b9250506040614994868287016148ed565b9150509250925092565b600080604083850312156149b5576149b46157ef565b5b60006149c3858286016148aa565b92505060206149d4858286016148ed565b9150509250929050565b6000602082840312156149f4576149f36157ef565b5b600082013567ffffffffffffffff811115614a1257614a116157ea565b5b614a1e848285016148bf565b91505092915050565b600060208284031215614a3d57614a3c6157ef565b5b6000614a4b848285016148ed565b91505092915050565b60008060008060808587031215614a6e57614a6d6157ef565b5b6000614a7c878288016148ed565b945050602085013567ffffffffffffffff811115614a9d57614a9c6157ea565b5b614aa9878288016148bf565b935050604085013567ffffffffffffffff811115614aca57614ac96157ea565b5b614ad6878288016148bf565b925050606085013567ffffffffffffffff811115614af757614af66157ea565b5b614b03878288016148bf565b91505092959194509250565b6000614b1b8383614b6b565b60208301905092915050565b6000614b338383614d18565b60208301905092915050565b6000614b4b8383614d63565b905092915050565b6000614b5f8383614fbb565b60208301905092915050565b614b7481615559565b82525050565b614b8381615559565b82525050565b6000614b9482615373565b614b9e81856153de565b9350614ba98361531e565b8060005b83811015614bda578151614bc18882614b0f565b9750614bcc836153aa565b925050600181019050614bad565b5085935050505092915050565b6000614bf28261537e565b614bfc81856153ef565b9350614c078361532e565b8060005b83811015614c38578151614c1f8882614b27565b9750614c2a836153b7565b925050600181019050614c0b565b5085935050505092915050565b6000614c5082615389565b614c5a8185615400565b935083602082028501614c6c8561533e565b8060005b85811015614ca85784840389528151614c898582614b3f565b9450614c94836153c4565b925060208a01995050600181019050614c70565b50829750879550505050505092915050565b6000614cc582615394565b614ccf8185615411565b9350614cda8361534e565b8060005b83811015614d0b578151614cf28882614b53565b9750614cfd836153d1565b925050600181019050614cde565b5085935050505092915050565b614d218161556b565b82525050565b614d308161556b565b82525050565b614d3f816155b4565b82525050565b614d4e816155b4565b82525050565b614d5d816155c6565b82525050565b6000614d6e8261539f565b614d788185615422565b9350614d888185602086016155e7565b614d91816157f4565b840191505092915050565b6000614da78261539f565b614db18185615433565b9350614dc18185602086016155e7565b614dca816157f4565b840191505092915050565b60008154614de28161561a565b614dec8186615433565b94506001821660008114614e075760018114614e1957614e4c565b60ff1983168652602086019350614e4c565b614e228561535e565b60005b83811015614e4457815481890152600182019150602081019050614e25565b808801955050505b50505092915050565b6000614e62602d83615433565b9150614e6d82615805565b604082019050919050565b60006101c083016000830151614e916000860182614fbb565b5060208301518482036020860152614ea98282614d63565b9150506040830151614ebe6040860182614d36565b506060830151614ed16060860182614fbb565b506080830151614ee46080860182614fbb565b5060a0830151614ef760a0860182614fbb565b5060c0830151614f0a60c0860182614fbb565b5060e083015184820360e0860152614f228282614d63565b915050610100830151848203610100860152614f3e8282614d63565b915050610120830151848203610120860152614f5a8282614d63565b915050610140830151614f71610140860182614b6b565b50610160830151614f86610160860182614fbb565b50610180830151614f9b610180860182614fbb565b506101a0830151614fb06101a0860182614fbb565b508091505092915050565b614fc4816155aa565b82525050565b614fd3816155aa565b82525050565b6000602082019050614fee6000830184614b7a565b92915050565b6000602082019050818103600083015261500e8184614b89565b905092915050565b600060408201905081810360008301526150308185614b89565b905081810360208301526150448184614be7565b90509392505050565b600060208201905081810360008301526150678184614be7565b905092915050565b600060208201905081810360008301526150898184614c45565b905092915050565b600060208201905081810360008301526150ab8184614cba565b905092915050565b60006020820190506150c86000830184614d27565b92915050565b600060a0820190506150e36000830188614d45565b6150f06020830187614fca565b6150fd6040830186614fca565b61510a6060830185614fca565b6151176080830184614fca565b9695505050505050565b6000602082019050818103600083015261513b8184614d9c565b905092915050565b6000606082019050818103600083015261515d8186614d9c565b905081810360208301526151718185614d9c565b905081810360408301526151858184614d9c565b9050949350505050565b600060408201905081810360008301526151a98185614d9c565b90506151b86020830184614fca565b9392505050565b600060208201905081810360008301526151d881614e55565b9050919050565b600060208201905081810360008301526151f98184614e78565b905092915050565b60006020820190506152166000830184614fca565b92915050565b60006040820190506152316000830185614fca565b61523e6020830184614d54565b9392505050565b600060808201905061525a6000830187614fca565b818103602083015261526c8186614dd5565b905081810360408301526152808185614dd5565b905081810360608301526152948184614dd5565b905095945050505050565b60006040820190506152b46000830185614fca565b6152c16020830184614fca565b9392505050565b60006152d26152e3565b90506152de828261564c565b919050565b6000604051905090565b600067ffffffffffffffff821115615308576153076157b1565b5b615311826157f4565b9050602081019050919050565b6000819050602082019050919050565b6000819050602082019050919050565b6000819050602082019050919050565b6000819050602082019050919050565b60008190508160005260206000209050919050565b600081519050919050565b600081519050919050565b600081519050919050565b600081519050919050565b600081519050919050565b6000602082019050919050565b6000602082019050919050565b6000602082019050919050565b6000602082019050919050565b600082825260208201905092915050565b600082825260208201905092915050565b600082825260208201905092915050565b600082825260208201905092915050565b600082825260208201905092915050565b600082825260208201905092915050565b600061544f826155aa565b915061545a836155aa565b9250827fffffffffffffffffffffffffffffffffffffffffffffffffffffffffffffffff0382111561548f5761548e6156c6565b5b828201905092915050565b60006154a5826155aa565b91506154b0836155aa565b9250826154c0576154bf6156f5565b5b828204905092915050565b60006154d6826155aa565b91506154e1836155aa565b9250817fffffffffffffffffffffffffffffffffffffffffffffffffffffffffffffffff048311821515161561551a576155196156c6565b5b828202905092915050565b6000615530826155aa565b915061553b836155aa565b92508282101561554e5761554d6156c6565b5b828203905092915050565b60006155648261558a565b9050919050565b60008115159050919050565b600081905061558582615854565b919050565b600073ffffffffffffffffffffffffffffffffffffffff82169050919050565b6000819050919050565b60006155bf82615577565b9050919050565b60006155d1826155aa565b9050919050565b82818337600083830152505050565b60005b838110156156055780820151818401526020810190506155ea565b83811115615614576000848401525b50505050565b6000600282049050600182168061563257607f821691505b6020821081141561564657615645615753565b5b50919050565b615655826157f4565b810181811067ffffffffffffffff82111715615674576156736157b1565b5b80604052505050565b6000615688826155aa565b91507fffffffffffffffffffffffffffffffffffffffffffffffffffffffffffffffff8214156156bb576156ba6156c6565b5b600182019050919050565b7f4e487b7100000000000000000000000000000000000000000000000000000000600052601160045260246000fd5b7f4e487b7100000000000000000000000000000000000000000000000000000000600052601260045260246000fd5b7f4e487b7100000000000000000000000000000000000000000000000000000000600052602160045260246000fd5b7f4e487b7100000000000000000000000000000000000000000000000000000000600052602260045260246000fd5b7f4e487b7100000000000000000000000000000000000000000000000000000000600052603260045260246000fd5b7f4e487b7100000000000000000000000000000000000000000000000000000000600052604160045260246000fd5b600080fd5b600080fd5b600080fd5b600080fd5b6000601f19601f8301169050919050565b7f43616e277420656e6420726567697374726174696f6e2077697468207a65726f60008201527f2072656769737472616e74732100000000000000000000000000000000000000602082015250565b6004811061586557615864615724565b5b50565b61587181615559565b811461587c57600080fd5b50565b615888816155aa565b811461589357600080fd5b5056fea26469706673582212200d207d29b2784b72ee27b90e7fb6f0d000a38b6b4c250eeaa6a6eceb5492273564736f6c63430008060033",
  "immutableReferences": {},
  "source": "// SPDX-License-Identifier: MIT\npragma solidity ^0.8.0;\n\nimport \"../roles/AdminsManager.sol\";\n\ncontract EthDropCore is AdminsManager {\n    // Set in case the core contract is broken and an upgrade is required\n    address public newContractAddress;\n\n    /// @notice Creates the main EthDrop smart contract instance.\n    constructor () {\n        // Starts paused.\n\n        // TODO \n        paused = false;\n\n        // the creator of the contract is the initial CEO\n        ceoAddress = msg.sender;\n\n    }\n\n    /// @dev Used to mark the smart contract as upgraded, in case there is a serious\n    ///  breaking bug. This method does nothing but keep track of the new contract and\n    ///  emit a message indicating that the new address is set. It's up to clients of this\n    ///  contract to update to the new contract address in that case. (This contract will\n    ///  be paused indefinitely if such an upgrade takes place.)\n    /// @param _v2Address new address\n    function setNewAddress(address _v2Address) external onlyCEO whenPaused {\n        // See README.md for updgrade plan\n        newContractAddress = _v2Address;\n        emit ContractUpgrade(_v2Address);\n    }\n\n    function foobar() external pure returns (string memory) {\n        return \"foobarrrrrrr!\";\n    }\n}",
  "sourcePath": "/Users/jim/Git-Projects/EthDrop/contracts/core/EthDropCore.sol",
  "compiler": {
    "name": "solc",
    "version": "0.8.6+commit.11564f7e.Emscripten.clang"
  },
  "schemaVersion": "3.4.1",
  "updatedAt": "2021-07-30T17:03:24.800Z",
  "networkType": "ethereum",
  "devdoc": {
    "kind": "dev",
    "methods": {
      "pause()": {
        "details": "Called by any \"C-level\" role to pause the contract. Used only when  a bug or exploit is detected and we need to limit damage."
      },
      "setCEO(address)": {
        "details": "Assigns a new address to act as the CEO. Only available to the current CEO.",
        "params": {
          "_newCEO": "The address of the new CEO"
        }
      },
      "setCFO(address)": {
        "details": "Assigns a new address to act as the CFO. Only available to the current CEO.",
        "params": {
          "_newCFO": "The address of the new CFO"
        }
      },
      "setCOO(address)": {
        "details": "Assigns a new address to act as the COO. Only available to the current CEO.",
        "params": {
          "_newCOO": "The address of the new COO"
        }
      },
      "setNewAddress(address)": {
        "details": "Used to mark the smart contract as upgraded, in case there is a serious  breaking bug. This method does nothing but keep track of the new contract and  emit a message indicating that the new address is set. It's up to clients of this  contract to update to the new contract address in that case. (This contract will  be paused indefinitely if such an upgrade takes place.)",
        "params": {
          "_v2Address": "new address"
        }
      },
      "unpause()": {
        "details": "Unpauses the smart contract. Can only be called by the CEO, since  one reason we may pause the contract is when CFO or COO accounts are  compromised."
      }
    },
    "version": 1
  },
  "userdoc": {
    "kind": "user",
    "methods": {
      "constructor": {
        "notice": "Creates the main EthDrop smart contract instance."
      },
      "unpause()": {
        "notice": "This is public rather than external so it can be called by  derived contracts."
      }
    },
    "version": 1
  }
}