{
  "contractName": "EthDropCore",
  "abi": [
    {
      "inputs": [],
      "stateMutability": "nonpayable",
      "type": "constructor"
    },
    {
      "anonymous": false,
      "inputs": [
        {
          "indexed": false,
          "internalType": "uint256",
          "name": "groupId",
          "type": "uint256"
        },
        {
          "indexed": false,
          "internalType": "address",
          "name": "account",
          "type": "address"
        },
        {
          "indexed": false,
          "internalType": "uint256",
          "name": "index",
          "type": "uint256"
        }
      ],
      "name": "AdminAdded",
      "type": "event"
    },
    {
      "anonymous": false,
      "inputs": [
        {
          "indexed": false,
          "internalType": "uint256",
          "name": "groupId",
          "type": "uint256"
        },
        {
          "indexed": false,
          "internalType": "string",
          "name": "name",
          "type": "string"
        }
      ],
      "name": "AdminReEnabled",
      "type": "event"
    },
    {
      "anonymous": false,
      "inputs": [
        {
          "indexed": false,
          "internalType": "uint256",
          "name": "groupId",
          "type": "uint256"
        },
        {
          "indexed": false,
          "internalType": "string",
          "name": "name",
          "type": "string"
        }
      ],
      "name": "AdminRemoved",
      "type": "event"
    },
    {
      "anonymous": false,
      "inputs": [
        {
          "indexed": false,
          "internalType": "bool",
          "name": "isPaused",
          "type": "bool"
        }
      ],
      "name": "AppPaused",
      "type": "event"
    },
    {
      "anonymous": false,
      "inputs": [
        {
          "indexed": false,
          "internalType": "uint256",
          "name": "registeredRecipientCount",
          "type": "uint256"
        },
        {
          "indexed": false,
          "internalType": "uint256",
          "name": "winningsPerRecipient",
          "type": "uint256"
        }
      ],
      "name": "CalculatedPot",
      "type": "event"
    },
    {
      "anonymous": false,
      "inputs": [],
      "name": "CfoUpdated",
      "type": "event"
    },
    {
      "anonymous": false,
      "inputs": [
        {
          "indexed": false,
          "internalType": "address",
          "name": "newContract",
          "type": "address"
        }
      ],
      "name": "ContractUpgrade",
      "type": "event"
    },
    {
      "anonymous": false,
      "inputs": [
        {
          "indexed": true,
          "internalType": "address",
          "name": "account",
          "type": "address"
        },
        {
          "indexed": false,
          "internalType": "uint256",
          "name": "groupId",
          "type": "uint256"
        },
        {
          "indexed": false,
          "internalType": "uint256",
          "name": "amount",
          "type": "uint256"
        }
      ],
      "name": "ContributionMade",
      "type": "event"
    },
    {
      "anonymous": false,
      "inputs": [
        {
          "indexed": true,
          "internalType": "address",
          "name": "account",
          "type": "address"
        },
        {
          "indexed": false,
          "internalType": "uint256",
          "name": "groupId",
          "type": "uint256"
        }
      ],
      "name": "ContributorAdded",
      "type": "event"
    },
    {
      "anonymous": false,
      "inputs": [
        {
          "indexed": false,
          "internalType": "uint256",
          "name": "groupId",
          "type": "uint256"
        },
        {
          "indexed": false,
          "internalType": "address",
          "name": "newContributor",
          "type": "address"
        }
      ],
      "name": "ContributorAddressUpdated",
      "type": "event"
    },
    {
      "anonymous": false,
      "inputs": [
        {
          "indexed": false,
          "internalType": "uint256",
          "name": "groupId",
          "type": "uint256"
        },
        {
          "indexed": false,
          "internalType": "string",
          "name": "sponsorName",
          "type": "string"
        },
        {
          "indexed": false,
          "internalType": "string",
          "name": "imgUrl",
          "type": "string"
        },
        {
          "indexed": false,
          "internalType": "string",
          "name": "imgLinkToUrl",
          "type": "string"
        }
      ],
      "name": "ContributorInfoUpdated",
      "type": "event"
    },
    {
      "anonymous": false,
      "inputs": [
        {
          "indexed": true,
          "internalType": "address",
          "name": "account",
          "type": "address"
        },
        {
          "indexed": false,
          "internalType": "uint256",
          "name": "groupId",
          "type": "uint256"
        }
      ],
      "name": "ContributorRemoved",
      "type": "event"
    },
    {
      "anonymous": false,
      "inputs": [],
      "name": "CooUpdated",
      "type": "event"
    },
    {
      "anonymous": false,
      "inputs": [
        {
          "indexed": true,
          "internalType": "address",
          "name": "account",
          "type": "address"
        },
        {
          "indexed": false,
          "internalType": "uint256",
          "name": "groupId",
          "type": "uint256"
        }
      ],
      "name": "EligibleRecipientAdded",
      "type": "event"
    },
    {
      "anonymous": false,
      "inputs": [
        {
          "indexed": true,
          "internalType": "address",
          "name": "account",
          "type": "address"
        },
        {
          "indexed": false,
          "internalType": "uint256",
          "name": "groupId",
          "type": "uint256"
        }
      ],
      "name": "EligibleRecipientRemoved",
      "type": "event"
    },
    {
      "anonymous": false,
      "inputs": [
        {
          "indexed": true,
          "internalType": "address",
          "name": "endedBy",
          "type": "address"
        },
        {
          "indexed": false,
          "internalType": "uint256",
          "name": "groupId",
          "type": "uint256"
        }
      ],
      "name": "EventEnded",
      "type": "event"
    },
    {
      "anonymous": false,
      "inputs": [
        {
          "indexed": true,
          "internalType": "address",
          "name": "startedBy",
          "type": "address"
        },
        {
          "indexed": false,
          "internalType": "uint256",
          "name": "groupId",
          "type": "uint256"
        }
      ],
      "name": "EventStarted",
      "type": "event"
    },
    {
      "anonymous": false,
      "inputs": [
        {
          "indexed": false,
          "internalType": "string",
          "name": "groupName",
          "type": "string"
        },
        {
          "indexed": false,
          "internalType": "uint256",
          "name": "groupId",
          "type": "uint256"
        }
      ],
      "name": "GroupCreated",
      "type": "event"
    },
    {
      "anonymous": false,
      "inputs": [
        {
          "indexed": true,
          "internalType": "address",
          "name": "account",
          "type": "address"
        },
        {
          "indexed": false,
          "internalType": "uint256",
          "name": "groupId",
          "type": "uint256"
        }
      ],
      "name": "RecipientRegistered",
      "type": "event"
    },
    {
      "anonymous": false,
      "inputs": [
        {
          "indexed": true,
          "internalType": "address",
          "name": "endedBy",
          "type": "address"
        },
        {
          "indexed": false,
          "internalType": "uint256",
          "name": "groupId",
          "type": "uint256"
        }
      ],
      "name": "RegistrationEnded",
      "type": "event"
    },
    {
      "anonymous": false,
      "inputs": [
        {
          "indexed": false,
          "internalType": "address",
          "name": "from",
          "type": "address"
        },
        {
          "indexed": false,
          "internalType": "address",
          "name": "to",
          "type": "address"
        }
      ],
      "name": "Transfer",
      "type": "event"
    },
    {
      "anonymous": false,
      "inputs": [
        {
          "indexed": true,
          "internalType": "address",
          "name": "account",
          "type": "address"
        },
        {
          "indexed": false,
          "internalType": "uint256",
          "name": "groupId",
          "type": "uint256"
        }
      ],
      "name": "WinningsClaimed",
      "type": "event"
    },
    {
      "inputs": [
        {
          "internalType": "uint256",
          "name": "groupId",
          "type": "uint256"
        },
        {
          "internalType": "address",
          "name": "account",
          "type": "address"
        },
        {
          "internalType": "string",
          "name": "name",
          "type": "string"
        }
      ],
      "name": "addAdmin",
      "outputs": [],
      "stateMutability": "nonpayable",
      "type": "function"
    },
    {
      "inputs": [
        {
          "internalType": "address",
          "name": "account",
          "type": "address"
        },
        {
          "internalType": "string",
          "name": "name",
          "type": "string"
        },
        {
          "internalType": "uint256",
          "name": "groupId",
          "type": "uint256"
        }
      ],
      "name": "addEligibleRecipient",
      "outputs": [],
      "stateMutability": "nonpayable",
      "type": "function"
    },
    {
      "inputs": [
        {
          "internalType": "uint256",
          "name": "groupId",
          "type": "uint256"
        }
      ],
      "name": "amIAdmin",
      "outputs": [
        {
          "internalType": "bool",
          "name": "",
          "type": "bool"
        }
      ],
      "stateMutability": "view",
      "type": "function",
      "constant": true
    },
    {
      "inputs": [
        {
          "internalType": "uint256",
          "name": "groupId",
          "type": "uint256"
        }
      ],
      "name": "amIContributor",
      "outputs": [
        {
          "internalType": "bool",
          "name": "",
          "type": "bool"
        }
      ],
      "stateMutability": "view",
      "type": "function",
      "constant": true
    },
    {
      "inputs": [
        {
          "internalType": "uint256",
          "name": "groupId",
          "type": "uint256"
        }
      ],
      "name": "amIEligibleRecipient",
      "outputs": [
        {
          "internalType": "bool",
          "name": "",
          "type": "bool"
        }
      ],
      "stateMutability": "view",
      "type": "function",
      "constant": true
    },
    {
      "inputs": [
        {
          "internalType": "uint256",
          "name": "groupId",
          "type": "uint256"
        }
      ],
      "name": "amIRegisteredRecipient",
      "outputs": [
        {
          "internalType": "bool",
          "name": "",
          "type": "bool"
        }
      ],
      "stateMutability": "view",
      "type": "function",
      "constant": true
    },
    {
      "inputs": [
        {
          "internalType": "uint256",
          "name": "index",
          "type": "uint256"
        }
      ],
      "name": "approveNewGroupSuggestion",
      "outputs": [],
      "stateMutability": "nonpayable",
      "type": "function"
    },
    {
      "inputs": [],
      "name": "ceoAddress",
      "outputs": [
        {
          "internalType": "address",
          "name": "",
          "type": "address"
        }
      ],
      "stateMutability": "view",
      "type": "function",
      "constant": true
    },
    {
      "inputs": [],
      "name": "cfoAddress",
      "outputs": [
        {
          "internalType": "address",
          "name": "",
          "type": "address"
        }
      ],
      "stateMutability": "view",
      "type": "function",
      "constant": true
    },
    {
      "inputs": [
        {
          "internalType": "address",
          "name": "account",
          "type": "address"
        },
        {
          "internalType": "uint256",
          "name": "groupId",
          "type": "uint256"
        }
      ],
      "name": "changeContributor",
      "outputs": [],
      "stateMutability": "nonpayable",
      "type": "function"
    },
    {
      "inputs": [
        {
          "internalType": "uint256",
          "name": "groupId",
          "type": "uint256"
        }
      ],
      "name": "claimWinnings",
      "outputs": [],
      "stateMutability": "nonpayable",
      "type": "function"
    },
    {
      "inputs": [
        {
          "internalType": "uint256",
          "name": "groupId",
          "type": "uint256"
        }
      ],
      "name": "closeEventRegistration",
      "outputs": [],
      "stateMutability": "nonpayable",
      "type": "function"
    },
    {
      "inputs": [
        {
          "internalType": "uint256",
          "name": "groupId",
          "type": "uint256"
        }
      ],
      "name": "contributeToPot",
      "outputs": [],
      "stateMutability": "payable",
      "type": "function",
      "payable": true
    },
    {
      "inputs": [],
      "name": "cooAddress",
      "outputs": [
        {
          "internalType": "address",
          "name": "",
          "type": "address"
        }
      ],
      "stateMutability": "view",
      "type": "function",
      "constant": true
    },
    {
      "inputs": [
        {
          "internalType": "string",
          "name": "groupName",
          "type": "string"
        }
      ],
      "name": "createNewGroup",
      "outputs": [],
      "stateMutability": "nonpayable",
      "type": "function"
    },
    {
      "inputs": [
        {
          "internalType": "uint256",
          "name": "groupId",
          "type": "uint256"
        }
      ],
      "name": "doIHaveClaimableWinnings",
      "outputs": [
        {
          "internalType": "bool",
          "name": "",
          "type": "bool"
        }
      ],
      "stateMutability": "view",
      "type": "function",
      "constant": true
    },
    {
      "inputs": [
        {
          "internalType": "uint256",
          "name": "groupId",
          "type": "uint256"
        }
      ],
      "name": "endEvent",
      "outputs": [],
      "stateMutability": "nonpayable",
      "type": "function"
    },
    {
      "inputs": [],
      "name": "getCFO",
      "outputs": [
        {
          "internalType": "address",
          "name": "",
          "type": "address"
        }
      ],
      "stateMutability": "view",
      "type": "function",
      "constant": true
    },
    {
      "inputs": [],
      "name": "getCOO",
      "outputs": [
        {
          "internalType": "address",
          "name": "",
          "type": "address"
        }
      ],
      "stateMutability": "view",
      "type": "function",
      "constant": true
    },
    {
      "inputs": [
        {
          "internalType": "uint256",
          "name": "groupId",
          "type": "uint256"
        }
      ],
      "name": "getContributorInfo",
      "outputs": [
        {
          "internalType": "string",
          "name": "newContributorName",
          "type": "string"
        },
        {
          "internalType": "string",
          "name": "newContributorImgUrl",
          "type": "string"
        },
        {
          "internalType": "string",
          "name": "newContributorLinkToUrl",
          "type": "string"
        }
      ],
      "stateMutability": "view",
      "type": "function",
      "constant": true
    },
    {
      "inputs": [
        {
          "internalType": "uint256",
          "name": "groupId",
          "type": "uint256"
        }
      ],
      "name": "getCurrentSponsorAddress",
      "outputs": [
        {
          "internalType": "address",
          "name": "",
          "type": "address"
        }
      ],
      "stateMutability": "view",
      "type": "function",
      "constant": true
    },
    {
      "inputs": [
        {
          "internalType": "uint256",
          "name": "groupId",
          "type": "uint256"
        }
      ],
      "name": "getEligibleRecipientAddresses",
      "outputs": [
        {
          "internalType": "address[]",
          "name": "",
          "type": "address[]"
        }
      ],
      "stateMutability": "view",
      "type": "function",
      "constant": true
    },
    {
      "inputs": [
        {
          "internalType": "uint256",
          "name": "groupId",
          "type": "uint256"
        }
      ],
      "name": "getEligibleRecipientIsEligibilityEnabled",
      "outputs": [
        {
          "internalType": "bool[]",
          "name": "",
          "type": "bool[]"
        }
      ],
      "stateMutability": "view",
      "type": "function",
      "constant": true
    },
    {
      "inputs": [
        {
          "internalType": "uint256",
          "name": "groupId",
          "type": "uint256"
        }
      ],
      "name": "getEligibleRecipientNames",
      "outputs": [
        {
          "internalType": "string[]",
          "name": "",
          "type": "string[]"
        }
      ],
      "stateMutability": "view",
      "type": "function",
      "constant": true
    },
    {
      "inputs": [],
      "name": "getGlobalData",
      "outputs": [
        {
          "internalType": "bool",
          "name": "",
          "type": "bool"
        },
        {
          "internalType": "bool",
          "name": "",
          "type": "bool"
        },
        {
          "internalType": "bool",
          "name": "",
          "type": "bool"
        },
        {
          "internalType": "bool",
          "name": "",
          "type": "bool"
        },
        {
          "internalType": "uint256[]",
          "name": "",
          "type": "uint256[]"
        },
        {
          "internalType": "string[]",
          "name": "",
          "type": "string[]"
        }
      ],
      "stateMutability": "view",
      "type": "function",
      "constant": true
    },
    {
      "inputs": [
        {
          "internalType": "uint256",
          "name": "groupId",
          "type": "uint256"
        }
      ],
      "name": "getGroupEventData",
      "outputs": [
        {
          "internalType": "uint256",
          "name": "",
          "type": "uint256"
        },
        {
          "internalType": "uint256",
          "name": "",
          "type": "uint256"
        },
        {
          "internalType": "uint256",
          "name": "",
          "type": "uint256"
        },
        {
          "internalType": "uint256",
          "name": "",
          "type": "uint256"
        },
        {
          "internalType": "uint256",
          "name": "",
          "type": "uint256"
        },
        {
          "internalType": "uint256",
          "name": "",
          "type": "uint256"
        },
        {
          "internalType": "address",
          "name": "",
          "type": "address"
        },
        {
          "internalType": "string",
          "name": "",
          "type": "string"
        },
        {
          "internalType": "string",
          "name": "",
          "type": "string"
        },
        {
          "internalType": "string",
          "name": "",
          "type": "string"
        },
        {
          "internalType": "string",
          "name": "",
          "type": "string"
        }
      ],
      "stateMutability": "view",
      "type": "function",
      "constant": true
    },
    {
      "inputs": [
        {
          "internalType": "uint256",
          "name": "groupId",
          "type": "uint256"
        }
      ],
      "name": "getGroupEventUsersData",
      "outputs": [
        {
          "internalType": "address[]",
          "name": "",
          "type": "address[]"
        },
        {
          "internalType": "address[]",
          "name": "",
          "type": "address[]"
        },
        {
          "internalType": "address[]",
          "name": "",
          "type": "address[]"
        },
        {
          "internalType": "string[]",
          "name": "",
          "type": "string[]"
        },
        {
          "internalType": "string[]",
          "name": "",
          "type": "string[]"
        },
        {
          "internalType": "string[]",
          "name": "",
          "type": "string[]"
        }
      ],
      "stateMutability": "view",
      "type": "function",
      "constant": true
    },
    {
      "inputs": [],
      "name": "getNewGroupSuggestions",
      "outputs": [
        {
          "internalType": "string[]",
          "name": "",
          "type": "string[]"
        },
        {
          "internalType": "string[]",
          "name": "",
          "type": "string[]"
        },
        {
          "internalType": "string[]",
          "name": "",
          "type": "string[]"
        },
        {
          "internalType": "bool[]",
          "name": "",
          "type": "bool[]"
        }
      ],
      "stateMutability": "view",
      "type": "function",
      "constant": true
    },
    {
      "inputs": [
        {
          "internalType": "uint256",
          "name": "groupId",
          "type": "uint256"
        }
      ],
      "name": "getRegisteredRecipientNames",
      "outputs": [
        {
          "internalType": "string[]",
          "name": "",
          "type": "string[]"
        }
      ],
      "stateMutability": "view",
      "type": "function",
      "constant": true
    },
    {
      "inputs": [
        {
          "internalType": "uint256",
          "name": "groupId",
          "type": "uint256"
        }
      ],
      "name": "getRegisteredRecipients",
      "outputs": [
        {
          "internalType": "address[]",
          "name": "",
          "type": "address[]"
        }
      ],
      "stateMutability": "view",
      "type": "function",
      "constant": true
    },
    {
      "inputs": [
        {
          "internalType": "address",
          "name": "account",
          "type": "address"
        },
        {
          "internalType": "uint256",
          "name": "groupId",
          "type": "uint256"
        }
      ],
      "name": "isAdmin",
      "outputs": [
        {
          "internalType": "bool",
          "name": "",
          "type": "bool"
        }
      ],
      "stateMutability": "view",
      "type": "function",
      "constant": true
    },
    {
      "inputs": [],
      "name": "isCEO",
      "outputs": [
        {
          "internalType": "bool",
          "name": "",
          "type": "bool"
        }
      ],
      "stateMutability": "view",
      "type": "function",
      "constant": true
    },
    {
      "inputs": [],
      "name": "isCFO",
      "outputs": [
        {
          "internalType": "bool",
          "name": "",
          "type": "bool"
        }
      ],
      "stateMutability": "view",
      "type": "function",
      "constant": true
    },
    {
      "inputs": [],
      "name": "isCOO",
      "outputs": [
        {
          "internalType": "bool",
          "name": "",
          "type": "bool"
        }
      ],
      "stateMutability": "view",
      "type": "function",
      "constant": true
    },
    {
      "inputs": [
        {
          "internalType": "address",
          "name": "account",
          "type": "address"
        },
        {
          "internalType": "uint256",
          "name": "groupId",
          "type": "uint256"
        }
      ],
      "name": "isContributor",
      "outputs": [
        {
          "internalType": "bool",
          "name": "",
          "type": "bool"
        }
      ],
      "stateMutability": "view",
      "type": "function",
      "constant": true
    },
    {
      "inputs": [
        {
          "internalType": "address",
          "name": "account",
          "type": "address"
        },
        {
          "internalType": "uint256",
          "name": "groupId",
          "type": "uint256"
        }
      ],
      "name": "isEligibleRecipient",
      "outputs": [
        {
          "internalType": "bool",
          "name": "",
          "type": "bool"
        }
      ],
      "stateMutability": "view",
      "type": "function",
      "constant": true
    },
    {
      "inputs": [],
      "name": "isPaused",
      "outputs": [
        {
          "internalType": "bool",
          "name": "",
          "type": "bool"
        }
      ],
      "stateMutability": "view",
      "type": "function",
      "constant": true
    },
    {
      "inputs": [
        {
          "internalType": "address",
          "name": "account",
          "type": "address"
        },
        {
          "internalType": "uint256",
          "name": "groupId",
          "type": "uint256"
        }
      ],
      "name": "isRegisteredRecipient",
      "outputs": [
        {
          "internalType": "bool",
          "name": "",
          "type": "bool"
        }
      ],
      "stateMutability": "view",
      "type": "function",
      "constant": true
    },
    {
      "inputs": [],
      "name": "newContractAddress",
      "outputs": [
        {
          "internalType": "address",
          "name": "",
          "type": "address"
        }
      ],
      "stateMutability": "view",
      "type": "function",
      "constant": true
    },
    {
      "inputs": [],
      "name": "pause",
      "outputs": [],
      "stateMutability": "nonpayable",
      "type": "function"
    },
    {
      "inputs": [],
      "name": "paused",
      "outputs": [
        {
          "internalType": "bool",
          "name": "",
          "type": "bool"
        }
      ],
      "stateMutability": "view",
      "type": "function",
      "constant": true
    },
    {
      "inputs": [
        {
          "internalType": "uint256",
          "name": "groupId",
          "type": "uint256"
        },
        {
          "internalType": "address",
          "name": "account",
          "type": "address"
        }
      ],
      "name": "reEnableAdmin",
      "outputs": [],
      "stateMutability": "nonpayable",
      "type": "function"
    },
    {
      "inputs": [
        {
          "internalType": "uint256",
          "name": "groupId",
          "type": "uint256"
        }
      ],
      "name": "registerForEvent",
      "outputs": [],
      "stateMutability": "nonpayable",
      "type": "function"
    },
    {
      "inputs": [
        {
          "internalType": "uint256",
          "name": "groupId",
          "type": "uint256"
        },
        {
          "internalType": "address",
          "name": "account",
          "type": "address"
        }
      ],
      "name": "removeAdmin",
      "outputs": [],
      "stateMutability": "nonpayable",
      "type": "function"
    },
    {
      "inputs": [
        {
          "internalType": "address",
          "name": "account",
          "type": "address"
        },
        {
          "internalType": "uint256",
          "name": "groupId",
          "type": "uint256"
        }
      ],
      "name": "removeEligibleRecipient",
      "outputs": [],
      "stateMutability": "nonpayable",
      "type": "function"
    },
    {
      "inputs": [
        {
          "internalType": "address",
          "name": "_newCEO",
          "type": "address"
        }
      ],
      "name": "setCEO",
      "outputs": [],
      "stateMutability": "nonpayable",
      "type": "function"
    },
    {
      "inputs": [
        {
          "internalType": "address",
          "name": "_newCFO",
          "type": "address"
        }
      ],
      "name": "setCFO",
      "outputs": [],
      "stateMutability": "nonpayable",
      "type": "function"
    },
    {
      "inputs": [
        {
          "internalType": "address",
          "name": "_newCOO",
          "type": "address"
        }
      ],
      "name": "setCOO",
      "outputs": [],
      "stateMutability": "nonpayable",
      "type": "function"
    },
    {
      "inputs": [
        {
          "internalType": "uint256",
          "name": "groupId",
          "type": "uint256"
        }
      ],
      "name": "startEvent",
      "outputs": [],
      "stateMutability": "nonpayable",
      "type": "function"
    },
    {
      "inputs": [
        {
          "internalType": "string",
          "name": "groupName",
          "type": "string"
        },
        {
          "internalType": "string",
          "name": "location",
          "type": "string"
        },
        {
          "internalType": "string",
          "name": "contactInfo",
          "type": "string"
        }
      ],
      "name": "suggestNewGroup",
      "outputs": [],
      "stateMutability": "nonpayable",
      "type": "function"
    },
    {
      "inputs": [],
      "name": "unpause",
      "outputs": [
        {
          "internalType": "bool",
          "name": "",
          "type": "bool"
        }
      ],
      "stateMutability": "nonpayable",
      "type": "function"
    },
    {
      "inputs": [
        {
          "internalType": "uint256",
          "name": "groupId",
          "type": "uint256"
        },
        {
          "internalType": "string",
          "name": "newContributorName",
          "type": "string"
        },
        {
          "internalType": "string",
          "name": "newContributorImgUrl",
          "type": "string"
        },
        {
          "internalType": "string",
          "name": "newContributorLinkToUrl",
          "type": "string"
        }
      ],
      "name": "updateContributorInfo",
      "outputs": [],
      "stateMutability": "nonpayable",
      "type": "function"
    },
    {
      "inputs": [],
      "name": "whoami",
      "outputs": [
        {
          "internalType": "address",
          "name": "",
          "type": "address"
        }
      ],
      "stateMutability": "view",
      "type": "function",
      "constant": true
    },
    {
      "inputs": [
        {
          "internalType": "address",
          "name": "_v2Address",
          "type": "address"
        }
      ],
      "name": "setNewAddress",
      "outputs": [],
      "stateMutability": "nonpayable",
      "type": "function"
    }
  ],
  "bytecode": "0x6080604052600080546001600160a01b031916331790556002805460ff60a01b19169055600560035534801561003457600080fd5b506002805460ff60a01b19169055600080546001600160a01b03191633179055613fd7806100636000396000f3fe6080604052600436106102d55760003560e01c8063785142be1161017b578063b047fb50116100d7578063e9992d9911610085578063e9992d991461093b578063ea303f081461095b578063edf6261d1461097b578063ee41b5921461099b578063f4a02e70146109bb578063f89e9cb9146109db578063fc5fd6e4146109fb57600080fd5b8063b047fb5014610876578063b187bd2614610896578063b3b36bb3146108b5578063c271e80c146108c8578063e513b7a9146108e8578063e62092be14610908578063e82f24e01461092857600080fd5b80638456cb59116101345780638456cb59146107a15780639393ae37146107b6578063962ecff5146107d6578063967cafbc146107f65780639bda879614610816578063a59a695314610836578063aea88a051461085657600080fd5b8063785142be146106e35780637b936ac2146107035780637d2b3ba2146107215780637d837ce5146107415780637eb0bdc9146107615780638182aaf21461078157600080fd5b806344b2983b116102355780635e82c1fc116101e35780635e82c1fc146105ed578063674811ca1461060d578063677bd9ff1461063c5780636a0340211461065c5780636af04a571461068357806371587988146106a357806376614482146106c357600080fd5b806344b2983b146104c9578063454432e2146104f65780634635509b146105165780634e0a33791461054d57806355b57ec11461056d5780635624aab01461059a5780635c975abb146105cc57600080fd5b806319a2394d1161029257806319a2394d146103ef57806327d7874c146104145780632ba73c1514610434578063330a347b1461045457806338f0b656146104745780633f4ba83a14610494578063406db843146104a957600080fd5b80630519ce79146102da57806306cc49221461031757806307bfa330146103475780630a0f8168146103745780630d82ffa01461039457806315891ff4146103cd575b600080fd5b3480156102e657600080fd5b506001546102fa906001600160a01b031681565b6040516001600160a01b0390911681526020015b60405180910390f35b34801561032357600080fd5b506103376103323660046138bf565b610a19565b604051901515815260200161030e565b34801561035357600080fd5b506103676103623660046138bf565b610a45565b60405161030e9190613c46565b34801561038057600080fd5b506000546102fa906001600160a01b031681565b3480156103a057600080fd5b506102fa6103af3660046138bf565b6000908152600a60205260409020600601546001600160a01b031690565b3480156103d957600080fd5b506103ed6103e83660046137d0565b610b31565b005b3480156103fb57600080fd5b50610404610bbe565b60405161030e9493929190613c59565b34801561042057600080fd5b506103ed61042f366004613757565b610ec5565b34801561044057600080fd5b506103ed61044f366004613757565b610f11565b34801561046057600080fd5b506103ed61046f3660046138bf565b610f82565b34801561048057600080fd5b5061033761048f3660046138bf565b6112e9565b3480156104a057600080fd5b5061033761130d565b3480156104b557600080fd5b506103ed6104c43660046138bf565b61138d565b3480156104d557600080fd5b506104e96104e43660046138bf565b61152b565b60405161030e9190613b9e565b34801561050257600080fd5b506103676105113660046138bf565b611597565b34801561052257600080fd5b506105366105313660046138bf565b611678565b60405161030e9b9a99989796959493929190613dec565b34801561055957600080fd5b506103ed610568366004613757565b6119f2565b34801561057957600080fd5b5061058d6105883660046138bf565b611a63565b60405161030e9190613c33565b3480156105a657600080fd5b506105ba6105b53660046138bf565b611ae3565b60405161030e96959493929190613bb1565b3480156105d857600080fd5b5060025461033790600160a01b900460ff1681565b3480156105f957600080fd5b506103376106083660046137d0565b611ecb565b34801561061957600080fd5b5061062d6106283660046138bf565b611f18565b60405161030e93929190613d2f565b34801561064857600080fd5b506103ed6106573660046138bf565b6120f1565b34801561066857600080fd5b50610671612208565b60405161030e96959493929190613cb1565b34801561068f57600080fd5b50601d546102fa906001600160a01b031681565b3480156106af57600080fd5b506103ed6106be366004613757565b612390565b3480156106cf57600080fd5b506103ed6106de3660046138bf565b612411565b3480156106ef57600080fd5b506103ed6106fe3660046138bf565b612500565b34801561070f57600080fd5b506001546001600160a01b03166102fa565b34801561072d57600080fd5b506103ed61073c366004613837565b6126a7565b34801561074d57600080fd5b5061033761075c3660046137d0565b6127c2565b34801561076d57600080fd5b506103ed61077c3660046138d8565b61280e565b34801561078d57600080fd5b5061033761079c3660046137d0565b612833565b3480156107ad57600080fd5b506103ed612871565b3480156107c257600080fd5b506001546001600160a01b03163314610337565b3480156107e257600080fd5b506103376107f13660046138bf565b612912565b34801561080257600080fd5b506103ed610811366004613779565b61291e565b34801561082257600080fd5b506104e96108313660046138bf565b612a75565b34801561084257600080fd5b506103ed6108513660046138bf565b612adf565b34801561086257600080fd5b506103ed610871366004613951565b612b59565b34801561088257600080fd5b506002546102fa906001600160a01b031681565b3480156108a257600080fd5b50600254600160a01b900460ff16610337565b3480156108c157600080fd5b50336102fa565b3480156108d457600080fd5b506103ed6108e33660046137d0565b612c54565b3480156108f457600080fd5b506000546001600160a01b03163314610337565b34801561091457600080fd5b506103376109233660046137d0565b612ca3565b6103ed6109363660046138bf565b612d25565b34801561094757600080fd5b506103ed6109563660046138d8565b612dbf565b34801561096757600080fd5b506103ed6109763660046137fa565b612eae565b34801561098757600080fd5b506103ed610996366004613904565b613123565b3480156109a757600080fd5b506103376109b63660046138bf565b61317d565b3480156109c757600080fd5b506002546001600160a01b03163314610337565b3480156109e757600080fd5b506103376109f63660046138bf565b6131a1565b348015610a0757600080fd5b506002546001600160a01b03166102fa565b600254600090600160a01b900460ff1615610a3357600080fd5b610a3d3383611ecb565b90505b919050565b6060601a6000838152602001908152602001600020805480602002602001604051908101604052809291908181526020016000905b82821015610b26578382906000526020600020018054610a9990613ef3565b80601f0160208091040260200160405190810160405280929190818152602001828054610ac590613ef3565b8015610b125780601f10610ae757610100808354040283529160200191610b12565b820191906000526020600020905b815481529060010190602001808311610af557829003601f168201915b505050505081526020019060010190610a7a565b505050509050919050565b80610b3c3382612ca3565b610b4557600080fd5b600254600160a01b900460ff1615610b5c57600080fd5b60008281526013602090815260408083206001600160a01b03871680855290835292819020805460ff19169055518481527f1af6d16168d33745872119540d28858eed156c5f265206bbf1344fda39a93a3391015b60405180910390a2505050565b606080606080600660076008600983805480602002602001604051908101604052809291908181526020016000905b82821015610c99578382906000526020600020018054610c0c90613ef3565b80601f0160208091040260200160405190810160405280929190818152602001828054610c3890613ef3565b8015610c855780601f10610c5a57610100808354040283529160200191610c85565b820191906000526020600020905b815481529060010190602001808311610c6857829003601f168201915b505050505081526020019060010190610bed565b50505050935082805480602002602001604051908101604052809291908181526020016000905b82821015610d6c578382906000526020600020018054610cdf90613ef3565b80601f0160208091040260200160405190810160405280929190818152602001828054610d0b90613ef3565b8015610d585780601f10610d2d57610100808354040283529160200191610d58565b820191906000526020600020905b815481529060010190602001808311610d3b57829003601f168201915b505050505081526020019060010190610cc0565b50505050925081805480602002602001604051908101604052809291908181526020016000905b82821015610e3f578382906000526020600020018054610db290613ef3565b80601f0160208091040260200160405190810160405280929190818152602001828054610dde90613ef3565b8015610e2b5780601f10610e0057610100808354040283529160200191610e2b565b820191906000526020600020905b815481529060010190602001808311610e0e57829003601f168201915b505050505081526020019060010190610d93565b50505050915080805480602002602001604051908101604052809291908181526020018280548015610eb057602002820191906000526020600020906000905b825461010083900a900460ff161515815260206001928301818104948501949093039092029101808411610e7f5790505b50505050509050935093509350935090919293565b6000546001600160a01b03163314610edc57600080fd5b6001600160a01b038116610eef57600080fd5b600080546001600160a01b0319166001600160a01b0392909216919091179055565b6000546001600160a01b03163314610f2857600080fd5b6001600160a01b038116610f3b57600080fd5b600280546001600160a01b0319166001600160a01b0383161790556040517fa308298a77084def994b565be25bff2e8fbfe7006c2c6b2bacfb84d1ba1f635090600090a150565b80610f8d3382612ca3565b80610fa257506002546001600160a01b031633145b610fab57600080fd5b600254600160a01b900460ff1615610fc257600080fd5b6000828152600a60205260408120600801805460ff191660031790555b6000838152600a60205260409020600301548110156110a9576000838152601c6020526040812080548390811061101857611018613f75565b6000918252602080832090910154868352601b825260408084206001600160a01b03909216808552918352808420805460ff191690558784526017835280842082855290925290822090925061106d91613509565b6000848152600e602090815260408083206001600160a01b03909416835292905220805460ff19169055806110a181613f2e565b915050610fdf565b506000828152601a602052604081206110c191613546565b6000828152601c602052604081206110d891613564565b6000828152600b60209081526040808320600a8352908320815460018181018455928552929093208354600c9093020191825580830154908201556002808301549082015560038083015490820155600480830154908201556005808301549082015560068083015490820180546001600160a01b0319166001600160a01b03909216919091179055600780830180549183019161117590613ef3565b611180929190613582565b50600882810154908201805460ff9092169160ff191660018360038111156111aa576111aa613f5f565b021790555060098201816009019080546111c390613ef3565b6111ce929190613582565b50600a820181600a019080546111e390613ef3565b6111ee929190613582565b50600b820181600b0190805461120390613ef3565b61120e929190613582565b5050506000828152600a60205260408082206003810183905560018101839055600281018390556005018290555133917f5dc1fe5ab986a852c4eda8e8bb94247d13307065c593fb83f1a09be2736793829161127291868252602082015260400190565b60405180910390a260405182815233907f0695e999be8100bdb5bee8612337296508d527eae78c65b8f170eacb5a3b439d9060200160405180910390a260405182815233907f6f45a19e8850c727d0de9f32e0d8691324a9a74ffb4347652e6404138b1d8165906020015b60405180910390a25050565b600254600090600160a01b900460ff161561130357600080fd5b610a3d33836127c2565b600080546001600160a01b0316331461132557600080fd5b600254600160a01b900460ff1661133b57600080fd5b6002805460ff60a01b19169055604051600081527fedcd3d1311c56a1f814f5b4de26e8fb77f2db3563b9fc81138c17fd630e4876e9060200160405180910390a150600254600160a01b900460ff1690565b806113983382611ecb565b6113a157600080fd5b600254600160a01b900460ff16156113b857600080fd5b6000828152601b6020908152604080832033808552908352818420805460ff19166001908117909155868552601c84528285208054918201815585528385200180546001600160a01b03191682179055858452601783528184209084529091528120805461142590613ef3565b80601f016020809104026020016040519081016040528092919081815260200182805461145190613ef3565b801561149e5780601f106114735761010080835404028352916020019161149e565b820191906000526020600020905b81548152906001019060200180831161148157829003601f168201915b5050506000868152601a60209081526040822080546001810182559083529181902085519596506114d695920193508501915061360d565b506000838152600a602052604081206003018054916114f483613f2e565b909155505060405183815233907f0695e999be8100bdb5bee8612337296508d527eae78c65b8f170eacb5a3b439d90602001610bb1565b6000818152601c602090815260409182902080548351818402810184019094528084526060939283018282801561158b57602002820191906000526020600020905b81546001600160a01b0316815260019091019060200180831161156d575b50505050509050919050565b606060156000838152602001908152602001600020805480602002602001604051908101604052809291908181526020016000905b82821015610b265783829060005260206000200180546115eb90613ef3565b80601f016020809104026020016040519081016040528092919081815260200182805461161790613ef3565b80156116645780601f1061163957610100808354040283529160200191611664565b820191906000526020600020905b81548152906001019060200180831161164757829003601f168201915b5050505050815260200190600101906115cc565b60008060008060008060006060806060806000600a60008e8152602001908152602001600020604051806101800160405290816000820154815260200160018201548152602001600282015481526020016003820154815260200160048201548152602001600582015481526020016006820160009054906101000a90046001600160a01b03166001600160a01b03166001600160a01b0316815260200160078201805461172590613ef3565b80601f016020809104026020016040519081016040528092919081815260200182805461175190613ef3565b801561179e5780601f106117735761010080835404028352916020019161179e565b820191906000526020600020905b81548152906001019060200180831161178157829003601f168201915b5050509183525050600882015460209091019060ff1660038111156117c5576117c5613f5f565b60038111156117d6576117d6613f5f565b81526020016009820180546117ea90613ef3565b80601f016020809104026020016040519081016040528092919081815260200182805461181690613ef3565b80156118635780601f1061183857610100808354040283529160200191611863565b820191906000526020600020905b81548152906001019060200180831161184657829003601f168201915b50505050508152602001600a8201805461187c90613ef3565b80601f01602080910402602001604051908101604052809291908181526020018280546118a890613ef3565b80156118f55780601f106118ca576101008083540402835291602001916118f5565b820191906000526020600020905b8154815290600101906020018083116118d857829003601f168201915b50505050508152602001600b8201805461190e90613ef3565b80601f016020809104026020016040519081016040528092919081815260200182805461193a90613ef3565b80156119875780601f1061195c57610100808354040283529160200191611987565b820191906000526020600020905b81548152906001019060200180831161196a57829003601f168201915b50505050508152505090508060000151816020015182604001518360a00151846060015185608001518660c001518760e001518861012001518961014001518a61016001519b509b509b509b509b509b509b509b509b509b509b505091939597999b90929496989a50565b6000546001600160a01b03163314611a0957600080fd5b6001600160a01b038116611a1c57600080fd5b600180546001600160a01b0319166001600160a01b0383161790556040517f162e32528b5907ecf876b3b7a4e5e0edf878642e3ec25852e3c35af1a4e1c04090600090a150565b60008181526016602090815260409182902080548351818402810184019094528084526060939283018282801561158b57602002820191906000526020600020906000905b825461010083900a900460ff161515815260206001928301818104948501949093039092029101808411611aa8575094979650505050505050565b6000818152601460209081526040808320601c83528184206019845282852060158552838620601a86528487206018875296859020845486518189028101890190975280875260609889988998899889988998919790969195909493919291889190830182828015611b7e57602002820191906000526020600020905b81546001600160a01b03168152600190910190602001808311611b60575b5050505050955084805480602002602001604051908101604052809291908181526020018280548015611bda57602002820191906000526020600020905b81546001600160a01b03168152600190910190602001808311611bbc575b5050505050945083805480602002602001604051908101604052809291908181526020018280548015611c3657602002820191906000526020600020905b81546001600160a01b03168152600190910190602001808311611c18575b5050505050935082805480602002602001604051908101604052809291908181526020016000905b82821015611d0a578382906000526020600020018054611c7d90613ef3565b80601f0160208091040260200160405190810160405280929190818152602001828054611ca990613ef3565b8015611cf65780601f10611ccb57610100808354040283529160200191611cf6565b820191906000526020600020905b815481529060010190602001808311611cd957829003601f168201915b505050505081526020019060010190611c5e565b50505050925081805480602002602001604051908101604052809291908181526020016000905b82821015611ddd578382906000526020600020018054611d5090613ef3565b80601f0160208091040260200160405190810160405280929190818152602001828054611d7c90613ef3565b8015611dc95780601f10611d9e57610100808354040283529160200191611dc9565b820191906000526020600020905b815481529060010190602001808311611dac57829003601f168201915b505050505081526020019060010190611d31565b50505050915080805480602002602001604051908101604052809291908181526020016000905b82821015611eb0578382906000526020600020018054611e2390613ef3565b80601f0160208091040260200160405190810160405280929190818152602001828054611e4f90613ef3565b8015611e9c5780601f10611e7157610100808354040283529160200191611e9c565b820191906000526020600020905b815481529060010190602001808311611e7f57829003601f168201915b505050505081526020019060010190611e04565b50505050905095509550955095509550955091939550919395565b600254600090600160a01b900460ff1615611ee557600080fd5b5060008181526013602090815260408083206001600160a01b038616845290915290205460ff1615156001145b92915050565b6000818152600a60208190526040909120600981018054606093849384939291810191600b909101908390611f4c90613ef3565b80601f0160208091040260200160405190810160405280929190818152602001828054611f7890613ef3565b8015611fc55780601f10611f9a57610100808354040283529160200191611fc5565b820191906000526020600020905b815481529060010190602001808311611fa857829003601f168201915b50505050509250818054611fd890613ef3565b80601f016020809104026020016040519081016040528092919081815260200182805461200490613ef3565b80156120515780601f1061202657610100808354040283529160200191612051565b820191906000526020600020905b81548152906001019060200180831161203457829003601f168201915b5050505050915080805461206490613ef3565b80601f016020809104026020016040519081016040528092919081815260200182805461209090613ef3565b80156120dd5780601f106120b2576101008083540402835291602001916120dd565b820191906000526020600020905b8154815290600101906020018083116120c057829003601f168201915b505050505090509250925092509193909250565b806120fc33826127c2565b61210557600080fd5b6000828152600e602090815260408083203380855292529091205483919060ff1615156001141561213557600080fd5b600254600160a01b900460ff161561214c57600080fd5b6000848152600e602090815260408083203384528252808320805460ff19166001179055868352600a909152812060050180549161218983613f2e565b90915550506000848152600a6020526040808220600201549051339282156108fc02929190818181858888f193505050501580156121cb573d6000803e3d6000fd5b5060405184815233907f1a31e733a172afcf46074b3106c17f0c298e226442682a03c1e99ce256139ec2906020015b60405180910390a250505050565b600080600080606080612227600054336001600160a01b039091161490565b6002546001600160a01b031633146001546001600160a01b03163314600260149054906101000a900460ff1660046005818054806020026020016040519081016040528092919081815260200182805480156122a257602002820191906000526020600020905b81548152602001906001019080831161228e575b5050505050915080805480602002602001604051908101604052809291908181526020016000905b828210156123765783829060005260206000200180546122e990613ef3565b80601f016020809104026020016040519081016040528092919081815260200182805461231590613ef3565b80156123625780601f1061233757610100808354040283529160200191612362565b820191906000526020600020905b81548152906001019060200180831161234557829003601f168201915b5050505050815260200190600101906122ca565b505050509050955095509550955095509550909192939495565b6000546001600160a01b031633146123a757600080fd5b600254600160a01b900460ff166123bd57600080fd5b601d80546001600160a01b0319166001600160a01b0383169081179091556040519081527f450db8da6efbe9c22f2347f7c2021231df1fc58d3ae9a2fa75d39fa4461993059060200160405180910390a150565b6124bf6006828154811061242757612427613f75565b90600052602060002001805461243c90613ef3565b80601f016020809104026020016040519081016040528092919081815260200182805461246890613ef3565b80156124b55780601f1061248a576101008083540402835291602001916124b5565b820191906000526020600020905b81548152906001019060200180831161249857829003601f168201915b5050505050612eae565b6001600982815481106124d4576124d4613f75565b90600052602060002090602091828204019190066101000a81548160ff02191690831515021790555050565b8061250b3382612ca3565b61251457600080fd5b600254600160a01b900460ff161561252b57600080fd5b6000828152600a6020526040902060030154600111156125a75760405162461bcd60e51b815260206004820152602d60248201527f43616e277420656e6420726567697374726174696f6e2077697468207a65726f60448201526c2072656769737472616e74732160981b606482015260840160405180910390fd5b6003546000838152600a602052604081206001015490916064916125cb9190613ebd565b6125d59190613e9b565b6001546040519192506001600160a01b03169082156108fc029083906000818181858888f19350505050158015612610573d6000803e3d6000fd5b506000838152600a602052604081206001015461262e908390613edc565b6000858152600a602052604090206003015490915061264d9082613e9b565b6000858152600a60205260409020600280820192909255600801805460ff1916600183021790555060405184815233907fef898a6941c945450e9bbdad4a76fcd0f51f42f7e251fddcb1e5479ba786d5e4906020016121fa565b6006805460018101825560009190915283516126ea917ff652222313e28459528d920b65115c16c04f3efc82aaedc97be59f3f377c0d3f0190602086019061360d565b5060078054600181018255600091909152825161272e917fa66cc928b5edb82af9bd49922954155ab7b0942694bea4ce44661d9a8736c6880190602085019061360d565b50600880546001810182556000919091528151612772917ff3f7a9fe364faab93b216da50a3214154f22a0a2b415b23a84c8169e8b636ee30190602084019061360d565b5050600980546001810182556000919091527f6e1540171b6c0c960b71a7020d9f60077f6af931a8bbf590da0223dacf75c7af60208204018054601f9092166101000a60ff021990911690555050565b600254600090600160a01b900460ff16156127dc57600080fd5b506000818152601b602090815260408083206001600160a01b038616845290915290205460ff16151560011492915050565b6002546001600160a01b0316331461282557600080fd5b61282f82826131e0565b5050565b600254600090600160a01b900460ff161561284d57600080fd5b506000908152600a60205260409020600601546001600160a01b0390811691161490565b6002546001600160a01b031633148061289457506000546001600160a01b031633145b806128a957506001546001600160a01b031633145b6128b257600080fd5b600254600160a01b900460ff16156128c957600080fd5b6002805460ff60a01b1916600160a01b179055604051600181527fedcd3d1311c56a1f814f5b4de26e8fb77f2db3563b9fc81138c17fd630e4876e9060200160405180910390a1565b6000610a3d3383612ca3565b600254600160a01b900460ff161561293557600080fd5b806129403382612ca3565b61294957600080fd5b60008281526013602090815260408083206001600160a01b038816808552908352818420805460ff1916600190811790915586855260148452828520805480830182559086528486200180546001600160a01b031916909217909155858452601583529083208054918201815583529181902085516129cf93919091019186019061360d565b5060008281526017602090815260408083206001600160a01b038816845282529091208451612a009286019061360d565b50600082815260166020908152604080832080546001810182559084529282902082840401805460ff601f9095166101000a948502191690931790925590518381526001600160a01b038616917f46b8357d30dedd734a71d059a385f46b6e667bff20233f907477760207f8896591016121fa565b60008181526014602090815260409182902080548351818402810184019094528084526060939283018282801561158b576020028201919060005260206000209081546001600160a01b0316815260019091019060200180831161156d5750505050509050919050565b80612aea3382612ca3565b612af357600080fd5b600254600160a01b900460ff1615612b0a57600080fd5b6000828152600a6020908152604091829020600801805460ff19166001179055905183815233917ff77c6f27499b698205f54058c2914a340e1300c2bc0d9a819e7aebfbaabbbb9391016112dd565b83612b643382612833565b612b6d57600080fd5b835115612b9b576000858152600a602090815260409091208551612b999260099092019187019061360d565b505b825115612bc9576000858152600a602081815260409092208551612bc79391909201919086019061360d565b505b815115612bf7576000858152600a602090815260409091208351612bf592600b9092019185019061360d565b505b6000858152600a602081905260409182902091517fcd9ad49d834aeea746bafd2d26eebd3d01ebac2d8f5d3f53d7f3884292e5835f92612c45928992600983019291820191600b0190613dad565b60405180910390a15050505050565b80612c5f3382612ca3565b80612c7457506002546001600160a01b031633145b612c7d57600080fd5b600254600160a01b900460ff1615612c9457600080fd5b612c9e8383613291565b505050565b6000818152600c602090815260408083206001600160a01b038616845290915281205480612cd5576000915050611f12565b6000838152601160205260409020805482908110612cf557612cf5613f75565b90600052602060002090602091828204019190069054906101000a900460ff161515600115151491505092915050565b80612d303382612833565b612d3957600080fd5b600254600160a01b900460ff1615612d5057600080fd5b6000828152600a602052604081206001018054349290612d71908490613e83565b90915550506000828152600a60209081526040918290206001015482518581529182015233917f5dc1fe5ab986a852c4eda8e8bb94247d13307065c593fb83f1a09be27367938291016112dd565b6002546001600160a01b03163314612dd657600080fd5b6000828152600c602090815260408083206001600160a01b0385168452825280832054858452601190925290912080546001919083908110612e1a57612e1a613f75565b90600052602060002090602091828204019190066101000a81548160ff0219169083151502179055507f2d19f1f4aa7d21a07d18586e49b3e0529d148488052497ea97f06d7266c3cbbe83601060008681526020019081526020016000208381548110612e8957612e89613f75565b90600052602060002001604051612ea1929190613d94565b60405180910390a1505050565b6002546001600160a01b03163314612ec557600080fd5b600254600160a01b900460ff1615612edc57600080fd5b60004290506000604051806101800160405280838152602001600081526020016000815260200160008152602001600081526020016000815260200160006001600160a01b0316815260200184815260200160006003811115612f4157612f41613f5f565b81526040805160208082018352600080835281850192909252825180820184528281528385015282518082018452828152606094850152868252600a815290829020845181558482015160018201559184015160028301559183015160038201556080830151600482015560a0830151600582015560c08301516006820180546001600160a01b0319166001600160a01b0390921691909117905560e0830151805193945084939192612ffc9260078501929091019061360d565b5061010082015160088201805460ff1916600183600381111561302157613021613f5f565b0217905550610120820151805161304291600984019160209091019061360d565b50610140820151805161305f91600a84019160209091019061360d565b50610160820151805161307c91600b84019160209091019061360d565b50506004805460018181019092557f8a35acfbc15ff81a39ae7d344fd709f28e8600b4aa8c65c6b64bfe7fe36bd19b0184905560058054918201815560005284516130f192507f036b6384b5eca791c62761152d0c79bb0604c104a5fb6f4eb0703f3154bb3db090910190602086019061360d565b507f5937a473913f56daf7dea7a6e821970acaa73f35555cf88f70c54f243cd98a9e8383604051612ea1929190613d72565b6000838152600c602090815260408083206001600160a01b0386168452909152902054839083901561315457600080fd5b6002546001600160a01b0316331461316b57600080fd5b61317685858561330a565b5050505050565b600254600090600160a01b900460ff161561319757600080fd5b610a3d3383612833565b60006131ad33836127c2565b6131b957506000919050565b506000908152600e6020908152604080832033845290915290205460ff1615156001141590565b6000828152600c602090815260408083206001600160a01b03851684528252808320548584526011909252822080549192918390811061322257613222613f75565b90600052602060002090602091828204019190066101000a81548160ff0219169083151502179055507f021d633158208ba55afbe8aae9878e510cccaf8f1fe2d8c42455d95f58f3b1f083601060008681526020019081526020016000208381548110612e8957612e89613f75565b60008181526012602090815260408083206001600160a01b038616808552908352818420805460ff19166001179055848452600a83529281902060060180546001600160a01b03191684179055518381527f5fd6d0b7e707fe344bd2a1887f9d0eeea8bfcac6f339ba4200e74f0647f101c091016112dd565b6000838152600d60205260409020546133e2576000838152600d6020526040812080549161333783613f2e565b90915550506000838152600f602090815260408083208054600180820183559185528385200180546001600160a01b03191690558684526011835281842080548083018255908552838520848204018054601f9092166101000a60ff0219909116905586845260108352818420805491820181558452928290208151808301909252600c8083526b7a65726f206164647265737360a01b929093019182526133e093019161360d565b505b6000838152600d6020908152604080832054600c83528184206001600160a01b038716808652908452828520829055878552600f84528285208054600181810183559187528587200180546001600160a01b031916909217909155878552601184528285208054808301825590865284862085820401805460ff601f9093166101000a928302191690911790558785526010845291842080549283018155845292829020845161349a9391909201919085019061360d565b50604080518581526001600160a01b03851660208201529081018290527f88356b104f5ba3e9281d371b21296e4e0390dda6f4bcc4bfc219f6d67cc8ae509060600160405180910390a16000848152600d602052604081208054916134fe83613f2e565b919050555050505050565b50805461351590613ef3565b6000825580601f10613525575050565b601f0160209004906000526020600020908101906135439190613681565b50565b50805460008255906000526020600020908101906135439190613696565b50805460008255906000526020600020908101906135439190613681565b82805461358e90613ef3565b90600052602060002090601f0160209004810192826135b057600085556135fd565b82601f106135c157805485556135fd565b828001600101855582156135fd57600052602060002091601f016020900482015b828111156135fd5782548255916001019190600101906135e2565b50613609929150613681565b5090565b82805461361990613ef3565b90600052602060002090601f01602090048101928261363b57600085556135fd565b82601f1061365457805160ff19168380011785556135fd565b828001600101855582156135fd579182015b828111156135fd578251825591602001919060010190613666565b5b808211156136095760008155600101613682565b808211156136095760006136aa8282613509565b50600101613696565b80356001600160a01b0381168114610a4057600080fd5b600082601f8301126136db57600080fd5b813567ffffffffffffffff808211156136f6576136f6613f8b565b604051601f8301601f19908116603f0116810190828211818310171561371e5761371e613f8b565b8160405283815286602085880101111561373757600080fd5b836020870160208301376000602085830101528094505050505092915050565b60006020828403121561376957600080fd5b613772826136b3565b9392505050565b60008060006060848603121561378e57600080fd5b613797846136b3565b9250602084013567ffffffffffffffff8111156137b357600080fd5b6137bf868287016136ca565b925050604084013590509250925092565b600080604083850312156137e357600080fd5b6137ec836136b3565b946020939093013593505050565b60006020828403121561380c57600080fd5b813567ffffffffffffffff81111561382357600080fd5b61382f848285016136ca565b949350505050565b60008060006060848603121561384c57600080fd5b833567ffffffffffffffff8082111561386457600080fd5b613870878388016136ca565b9450602086013591508082111561388657600080fd5b613892878388016136ca565b935060408601359150808211156138a857600080fd5b506138b5868287016136ca565b9150509250925092565b6000602082840312156138d157600080fd5b5035919050565b600080604083850312156138eb57600080fd5b823591506138fb602084016136b3565b90509250929050565b60008060006060848603121561391957600080fd5b83359250613929602085016136b3565b9150604084013567ffffffffffffffff81111561394557600080fd5b6138b5868287016136ca565b6000806000806080858703121561396757600080fd5b84359350602085013567ffffffffffffffff8082111561398657600080fd5b613992888389016136ca565b945060408701359150808211156139a857600080fd5b6139b4888389016136ca565b935060608701359150808211156139ca57600080fd5b506139d7878288016136ca565b91505092959194509250565b600081518084526020808501945080840160005b83811015613a1c5781516001600160a01b0316875295820195908201906001016139f7565b509495945050505050565b600081518084526020808501945080840160005b83811015613a1c578151151587529582019590820190600101613a3b565b600082825180855260208086019550808260051b84010181860160005b84811015613aa457601f19868403018952613a92838351613ab1565b98840198925090830190600101613a76565b5090979650505050505050565b6000815180845260005b81811015613ad757602081850181015186830182015201613abb565b81811115613ae9576000602083870101525b50601f01601f19169290920160200192915050565b8054600090600181811c9080831680613b1857607f831692505b6020808410821415613b3a57634e487b7160e01b600052602260045260246000fd5b83885260208801828015613b555760018114613b6657613b91565b60ff19871682528282019750613b91565b60008981526020902060005b87811015613b8b57815484820152908601908401613b72565b83019850505b5050505050505092915050565b60208152600061377260208301846139e3565b60c081526000613bc460c08301896139e3565b8281036020840152613bd681896139e3565b90508281036040840152613bea81886139e3565b90508281036060840152613bfe8187613a59565b90508281036080840152613c128186613a59565b905082810360a0840152613c268185613a59565b9998505050505050505050565b6020815260006137726020830184613a27565b6020815260006137726020830184613a59565b608081526000613c6c6080830187613a59565b8281036020840152613c7e8187613a59565b90508281036040840152613c928186613a59565b90508281036060840152613ca68185613a27565b979650505050505050565b600060c0820188151583526020881515818501528715156040850152861515606085015260c0608085015281865180845260e086019150828801935060005b81811015613d0c57845183529383019391830191600101613cf0565b505084810360a0860152613d208187613a59565b9b9a5050505050505050505050565b606081526000613d426060830186613ab1565b8281036020840152613d548186613ab1565b90508281036040840152613d688185613ab1565b9695505050505050565b604081526000613d856040830185613ab1565b90508260208301529392505050565b82815260406020820152600061382f6040830184613afe565b848152608060208201526000613dc66080830186613afe565b8281036040840152613dd88186613afe565b90508281036060840152613ca68185613afe565b60006101608d83528c60208401528b60408401528a60608401528960808401528860a084015260018060a01b03881660c08401528060e0840152613e3281840188613ab1565b9050828103610100840152613e478187613ab1565b9050828103610120840152613e5c8186613ab1565b9050828103610140840152613e718185613ab1565b9e9d5050505050505050505050505050565b60008219821115613e9657613e96613f49565b500190565b600082613eb857634e487b7160e01b600052601260045260246000fd5b500490565b6000816000190483118215151615613ed757613ed7613f49565b500290565b600082821015613eee57613eee613f49565b500390565b600181811c90821680613f0757607f821691505b60208210811415613f2857634e487b7160e01b600052602260045260246000fd5b50919050565b6000600019821415613f4257613f42613f49565b5060010190565b634e487b7160e01b600052601160045260246000fd5b634e487b7160e01b600052602160045260246000fd5b634e487b7160e01b600052603260045260246000fd5b634e487b7160e01b600052604160045260246000fdfea264697066735822122088ffad0bb6c1d64d439e772d27d7d85eaaae93ccf62b5bb9203cefa03940086d64736f6c63430008070033",
  "immutableReferences": {},
  "source": "// SPDX-License-Identifier: MIT\npragma solidity ^0.8.0;\n\nimport \"../roles/AdminsManager.sol\";\n\ncontract EthDropCore is AdminsManager {\n    // Set in case the core contract is broken and an upgrade is required\n    address public newContractAddress;\n\n    /// @notice Creates the main EthDrop smart contract instance.\n    constructor() {\n        // Starts paused.\n\n        // TODO\n        paused = false;\n\n        // the creator of the contract is the initial CEO\n        ceoAddress = msg.sender;\n    }\n\n    /// @dev Used to mark the smart contract as upgraded, in case there is a serious\n    ///  breaking bug. This method does nothing but keep track of the new contract and\n    ///  emit a message indicating that the new address is set. It's up to clients of this\n    ///  contract to update to the new contract address in that case. (This contract will\n    ///  be paused indefinitely if such an upgrade takes place.)\n    /// @param _v2Address new address\n    function setNewAddress(address _v2Address) external onlyCEO whenPaused {\n        // See README.md for updgrade plan\n        newContractAddress = _v2Address;\n        emit ContractUpgrade(_v2Address);\n    }\n    \n}\n",
  "sourcePath": "/Users/jim/v2-client-ethDrop/EthDrop/contracts/core/EthDropCore.sol",
  "compiler": {
    "name": "solc",
    "version": "0.8.7+commit.e28d00a7.Emscripten.clang"
  },
  "schemaVersion": "3.4.2",
  "updatedAt": "2021-09-05T15:30:58.212Z",
  "networkType": "ethereum",
  "devdoc": {
    "kind": "dev",
    "methods": {
      "pause()": {
        "details": "Called by any \"C-level\" role to pause the contract. Used only when  a bug or exploit is detected and we need to limit damage."
      },
      "setCEO(address)": {
        "details": "Assigns a new address to act as the CEO. Only available to the current CEO.",
        "params": {
          "_newCEO": "The address of the new CEO"
        }
      },
      "setCFO(address)": {
        "details": "Assigns a new address to act as the CFO. Only available to the current CEO.",
        "params": {
          "_newCFO": "The address of the new CFO"
        }
      },
      "setCOO(address)": {
        "details": "Assigns a new address to act as the COO. Only available to the current CEO.",
        "params": {
          "_newCOO": "The address of the new COO"
        }
      },
      "setNewAddress(address)": {
        "details": "Used to mark the smart contract as upgraded, in case there is a serious  breaking bug. This method does nothing but keep track of the new contract and  emit a message indicating that the new address is set. It's up to clients of this  contract to update to the new contract address in that case. (This contract will  be paused indefinitely if such an upgrade takes place.)",
        "params": {
          "_v2Address": "new address"
        }
      },
      "unpause()": {
        "details": "Unpauses the smart contract. Can only be called by the CEO, since  one reason we may pause the contract is when CFO or COO accounts are  compromised."
      }
    },
    "version": 1
  },
  "userdoc": {
    "kind": "user",
    "methods": {
      "constructor": {
        "notice": "Creates the main EthDrop smart contract instance."
      },
      "unpause()": {
        "notice": "This is public rather than external so it can be called by  derived contracts."
      }
    },
    "version": 1
  }
}