{
  "contractName": "EthDropCore",
  "abi": [
    {
      "inputs": [],
      "stateMutability": "nonpayable",
      "type": "constructor"
    },
    {
      "anonymous": false,
      "inputs": [
        {
          "indexed": false,
          "internalType": "uint256",
          "name": "groupId",
          "type": "uint256"
        }
      ],
      "name": "AdminAdded",
      "type": "event"
    },
    {
      "anonymous": false,
      "inputs": [
        {
          "indexed": false,
          "internalType": "uint256",
          "name": "groupId",
          "type": "uint256"
        }
      ],
      "name": "AdminRemoved",
      "type": "event"
    },
    {
      "anonymous": false,
      "inputs": [
        {
          "indexed": false,
          "internalType": "bool",
          "name": "isPaused",
          "type": "bool"
        }
      ],
      "name": "AppPaused",
      "type": "event"
    },
    {
      "anonymous": false,
      "inputs": [
        {
          "indexed": false,
          "internalType": "uint256",
          "name": "registeredRecipientCount",
          "type": "uint256"
        },
        {
          "indexed": false,
          "internalType": "uint256",
          "name": "winningsPerRecipient",
          "type": "uint256"
        }
      ],
      "name": "CalculatedPot",
      "type": "event"
    },
    {
      "anonymous": false,
      "inputs": [],
      "name": "CfoUpdated",
      "type": "event"
    },
    {
      "anonymous": false,
      "inputs": [
        {
          "indexed": false,
          "internalType": "address",
          "name": "newContract",
          "type": "address"
        }
      ],
      "name": "ContractUpgrade",
      "type": "event"
    },
    {
      "anonymous": false,
      "inputs": [
        {
          "indexed": true,
          "internalType": "address",
          "name": "account",
          "type": "address"
        },
        {
          "indexed": false,
          "internalType": "uint256",
          "name": "groupId",
          "type": "uint256"
        },
        {
          "indexed": false,
          "internalType": "uint256",
          "name": "amount",
          "type": "uint256"
        }
      ],
      "name": "ContributionMade",
      "type": "event"
    },
    {
      "anonymous": false,
      "inputs": [
        {
          "indexed": true,
          "internalType": "address",
          "name": "account",
          "type": "address"
        },
        {
          "indexed": false,
          "internalType": "uint256",
          "name": "groupId",
          "type": "uint256"
        }
      ],
      "name": "ContributorAdded",
      "type": "event"
    },
    {
      "anonymous": false,
      "inputs": [
        {
          "indexed": false,
          "internalType": "uint256",
          "name": "groupId",
          "type": "uint256"
        },
        {
          "indexed": false,
          "internalType": "address",
          "name": "newContributor",
          "type": "address"
        }
      ],
      "name": "ContributorAddressUpdated",
      "type": "event"
    },
    {
      "anonymous": false,
      "inputs": [
        {
          "indexed": false,
          "internalType": "uint256",
          "name": "groupId",
          "type": "uint256"
        },
        {
          "indexed": false,
          "internalType": "string",
          "name": "sponsorName",
          "type": "string"
        },
        {
          "indexed": false,
          "internalType": "string",
          "name": "imgUrl",
          "type": "string"
        },
        {
          "indexed": false,
          "internalType": "string",
          "name": "imgLinkToUrl",
          "type": "string"
        }
      ],
      "name": "ContributorInfoUpdated",
      "type": "event"
    },
    {
      "anonymous": false,
      "inputs": [
        {
          "indexed": true,
          "internalType": "address",
          "name": "account",
          "type": "address"
        },
        {
          "indexed": false,
          "internalType": "uint256",
          "name": "groupId",
          "type": "uint256"
        }
      ],
      "name": "ContributorRemoved",
      "type": "event"
    },
    {
      "anonymous": false,
      "inputs": [],
      "name": "CooUpdated",
      "type": "event"
    },
    {
      "anonymous": false,
      "inputs": [
        {
          "indexed": true,
          "internalType": "address",
          "name": "account",
          "type": "address"
        },
        {
          "indexed": false,
          "internalType": "uint256",
          "name": "groupId",
          "type": "uint256"
        }
      ],
      "name": "EligibleRecipientAdded",
      "type": "event"
    },
    {
      "anonymous": false,
      "inputs": [
        {
          "indexed": true,
          "internalType": "address",
          "name": "account",
          "type": "address"
        },
        {
          "indexed": false,
          "internalType": "uint256",
          "name": "groupId",
          "type": "uint256"
        }
      ],
      "name": "EligibleRecipientRemoved",
      "type": "event"
    },
    {
      "anonymous": false,
      "inputs": [],
      "name": "EventClose",
      "type": "event"
    },
    {
      "anonymous": false,
      "inputs": [
        {
          "indexed": true,
          "internalType": "address",
          "name": "endedBy",
          "type": "address"
        },
        {
          "indexed": false,
          "internalType": "uint256",
          "name": "groupId",
          "type": "uint256"
        }
      ],
      "name": "EventEnded",
      "type": "event"
    },
    {
      "anonymous": false,
      "inputs": [
        {
          "indexed": true,
          "internalType": "address",
          "name": "startedBy",
          "type": "address"
        },
        {
          "indexed": false,
          "internalType": "uint256",
          "name": "groupId",
          "type": "uint256"
        }
      ],
      "name": "EventStarted",
      "type": "event"
    },
    {
      "anonymous": false,
      "inputs": [
        {
          "indexed": false,
          "internalType": "string",
          "name": "groupName",
          "type": "string"
        },
        {
          "indexed": false,
          "internalType": "uint256",
          "name": "groupId",
          "type": "uint256"
        }
      ],
      "name": "GroupCreated",
      "type": "event"
    },
    {
      "anonymous": false,
      "inputs": [
        {
          "indexed": true,
          "internalType": "address",
          "name": "account",
          "type": "address"
        },
        {
          "indexed": false,
          "internalType": "uint256",
          "name": "groupId",
          "type": "uint256"
        }
      ],
      "name": "RecipientRegistered",
      "type": "event"
    },
    {
      "anonymous": false,
      "inputs": [
        {
          "indexed": true,
          "internalType": "address",
          "name": "endedBy",
          "type": "address"
        },
        {
          "indexed": false,
          "internalType": "uint256",
          "name": "groupId",
          "type": "uint256"
        }
      ],
      "name": "RegistrationEnded",
      "type": "event"
    },
    {
      "anonymous": false,
      "inputs": [],
      "name": "RegistrationOpen",
      "type": "event"
    },
    {
      "anonymous": false,
      "inputs": [
        {
          "indexed": false,
          "internalType": "address",
          "name": "from",
          "type": "address"
        },
        {
          "indexed": false,
          "internalType": "address",
          "name": "to",
          "type": "address"
        }
      ],
      "name": "Transfer",
      "type": "event"
    },
    {
      "anonymous": false,
      "inputs": [
        {
          "indexed": true,
          "internalType": "address",
          "name": "account",
          "type": "address"
        },
        {
          "indexed": false,
          "internalType": "uint256",
          "name": "groupId",
          "type": "uint256"
        }
      ],
      "name": "WinningsClaimed",
      "type": "event"
    },
    {
      "anonymous": false,
      "inputs": [],
      "name": "WinningsClaimingOpen",
      "type": "event"
    },
    {
      "inputs": [
        {
          "internalType": "address",
          "name": "account",
          "type": "address"
        },
        {
          "internalType": "uint256",
          "name": "groupId",
          "type": "uint256"
        }
      ],
      "name": "addAdmin",
      "outputs": [],
      "stateMutability": "nonpayable",
      "type": "function"
    },
    {
      "inputs": [
        {
          "internalType": "address",
          "name": "account",
          "type": "address"
        },
        {
          "internalType": "string",
          "name": "name",
          "type": "string"
        },
        {
          "internalType": "uint256",
          "name": "groupId",
          "type": "uint256"
        }
      ],
      "name": "addEligibleRecipient",
      "outputs": [],
      "stateMutability": "nonpayable",
      "type": "function"
    },
    {
      "inputs": [
        {
          "internalType": "uint256",
          "name": "groupId",
          "type": "uint256"
        }
      ],
      "name": "amIAdmin",
      "outputs": [
        {
          "internalType": "bool",
          "name": "",
          "type": "bool"
        }
      ],
      "stateMutability": "view",
      "type": "function",
      "constant": true
    },
    {
      "inputs": [
        {
          "internalType": "uint256",
          "name": "groupId",
          "type": "uint256"
        }
      ],
      "name": "amIContributor",
      "outputs": [
        {
          "internalType": "bool",
          "name": "",
          "type": "bool"
        }
      ],
      "stateMutability": "view",
      "type": "function",
      "constant": true
    },
    {
      "inputs": [
        {
          "internalType": "uint256",
          "name": "groupId",
          "type": "uint256"
        }
      ],
      "name": "amIEligibleRecipient",
      "outputs": [
        {
          "internalType": "bool",
          "name": "",
          "type": "bool"
        }
      ],
      "stateMutability": "view",
      "type": "function",
      "constant": true
    },
    {
      "inputs": [
        {
          "internalType": "uint256",
          "name": "groupId",
          "type": "uint256"
        }
      ],
      "name": "amIRegisteredRecipient",
      "outputs": [
        {
          "internalType": "bool",
          "name": "",
          "type": "bool"
        }
      ],
      "stateMutability": "view",
      "type": "function",
      "constant": true
    },
    {
      "inputs": [],
      "name": "ceoAddress",
      "outputs": [
        {
          "internalType": "address",
          "name": "",
          "type": "address"
        }
      ],
      "stateMutability": "view",
      "type": "function",
      "constant": true
    },
    {
      "inputs": [],
      "name": "cfoAddress",
      "outputs": [
        {
          "internalType": "address",
          "name": "",
          "type": "address"
        }
      ],
      "stateMutability": "view",
      "type": "function",
      "constant": true
    },
    {
      "inputs": [
        {
          "internalType": "address",
          "name": "account",
          "type": "address"
        },
        {
          "internalType": "uint256",
          "name": "groupId",
          "type": "uint256"
        }
      ],
      "name": "changeContributor",
      "outputs": [],
      "stateMutability": "nonpayable",
      "type": "function"
    },
    {
      "inputs": [
        {
          "internalType": "uint256",
          "name": "groupId",
          "type": "uint256"
        }
      ],
      "name": "claimWinnings",
      "outputs": [],
      "stateMutability": "nonpayable",
      "type": "function"
    },
    {
      "inputs": [
        {
          "internalType": "uint256",
          "name": "groupId",
          "type": "uint256"
        }
      ],
      "name": "closeEventRegistration",
      "outputs": [],
      "stateMutability": "nonpayable",
      "type": "function"
    },
    {
      "inputs": [
        {
          "internalType": "uint256",
          "name": "groupId",
          "type": "uint256"
        }
      ],
      "name": "contributeToPot",
      "outputs": [],
      "stateMutability": "payable",
      "type": "function",
      "payable": true
    },
    {
      "inputs": [],
      "name": "cooAddress",
      "outputs": [
        {
          "internalType": "address",
          "name": "",
          "type": "address"
        }
      ],
      "stateMutability": "view",
      "type": "function",
      "constant": true
    },
    {
      "inputs": [
        {
          "internalType": "string",
          "name": "groupName",
          "type": "string"
        }
      ],
      "name": "createNewGroup",
      "outputs": [],
      "stateMutability": "nonpayable",
      "type": "function"
    },
    {
      "inputs": [
        {
          "internalType": "uint256",
          "name": "groupId",
          "type": "uint256"
        }
      ],
      "name": "doIHaveClaimableWinnings",
      "outputs": [
        {
          "internalType": "bool",
          "name": "",
          "type": "bool"
        }
      ],
      "stateMutability": "view",
      "type": "function",
      "constant": true
    },
    {
      "inputs": [
        {
          "internalType": "uint256",
          "name": "groupId",
          "type": "uint256"
        }
      ],
      "name": "endEvent",
      "outputs": [],
      "stateMutability": "nonpayable",
      "type": "function"
    },
    {
      "inputs": [
        {
          "internalType": "uint256",
          "name": "groupId",
          "type": "uint256"
        }
      ],
      "name": "getAddressNextAdminIndex",
      "outputs": [
        {
          "internalType": "uint256",
          "name": "",
          "type": "uint256"
        }
      ],
      "stateMutability": "view",
      "type": "function",
      "constant": true
    },
    {
      "inputs": [
        {
          "internalType": "uint256",
          "name": "groupId",
          "type": "uint256"
        }
      ],
      "name": "getAdminsForGroup",
      "outputs": [
        {
          "internalType": "address[]",
          "name": "",
          "type": "address[]"
        },
        {
          "internalType": "bool[]",
          "name": "",
          "type": "bool[]"
        }
      ],
      "stateMutability": "view",
      "type": "function",
      "constant": true
    },
    {
      "inputs": [],
      "name": "getCFO",
      "outputs": [
        {
          "internalType": "address",
          "name": "",
          "type": "address"
        }
      ],
      "stateMutability": "view",
      "type": "function",
      "constant": true
    },
    {
      "inputs": [],
      "name": "getCOO",
      "outputs": [
        {
          "internalType": "address",
          "name": "",
          "type": "address"
        }
      ],
      "stateMutability": "view",
      "type": "function",
      "constant": true
    },
    {
      "inputs": [
        {
          "internalType": "uint256",
          "name": "groupId",
          "type": "uint256"
        }
      ],
      "name": "getContributorInfo",
      "outputs": [
        {
          "internalType": "string",
          "name": "newContributorName",
          "type": "string"
        },
        {
          "internalType": "string",
          "name": "newContributorImgUrl",
          "type": "string"
        },
        {
          "internalType": "string",
          "name": "newContributorLinkToUrl",
          "type": "string"
        }
      ],
      "stateMutability": "view",
      "type": "function",
      "constant": true
    },
    {
      "inputs": [
        {
          "internalType": "uint256",
          "name": "groupId",
          "type": "uint256"
        }
      ],
      "name": "getCurrentSponsorAddress",
      "outputs": [
        {
          "internalType": "address",
          "name": "",
          "type": "address"
        }
      ],
      "stateMutability": "view",
      "type": "function",
      "constant": true
    },
    {
      "inputs": [
        {
          "internalType": "uint256",
          "name": "groupId",
          "type": "uint256"
        }
      ],
      "name": "getEligibleRecipientAddresses",
      "outputs": [
        {
          "internalType": "address[]",
          "name": "",
          "type": "address[]"
        }
      ],
      "stateMutability": "view",
      "type": "function",
      "constant": true
    },
    {
      "inputs": [
        {
          "internalType": "uint256",
          "name": "groupId",
          "type": "uint256"
        }
      ],
      "name": "getEligibleRecipientIsEligibilityEnabled",
      "outputs": [
        {
          "internalType": "bool[]",
          "name": "",
          "type": "bool[]"
        }
      ],
      "stateMutability": "view",
      "type": "function",
      "constant": true
    },
    {
      "inputs": [
        {
          "internalType": "uint256",
          "name": "groupId",
          "type": "uint256"
        }
      ],
      "name": "getEligibleRecipientNames",
      "outputs": [
        {
          "internalType": "string[]",
          "name": "",
          "type": "string[]"
        }
      ],
      "stateMutability": "view",
      "type": "function",
      "constant": true
    },
    {
      "inputs": [
        {
          "internalType": "uint256",
          "name": "groupId",
          "type": "uint256"
        }
      ],
      "name": "getGroupEventData",
      "outputs": [
        {
          "internalType": "enum EthDropBase.EventState",
          "name": "",
          "type": "uint8"
        },
        {
          "internalType": "uint256",
          "name": "",
          "type": "uint256"
        },
        {
          "internalType": "uint256",
          "name": "",
          "type": "uint256"
        },
        {
          "internalType": "uint256",
          "name": "",
          "type": "uint256"
        },
        {
          "internalType": "uint256",
          "name": "",
          "type": "uint256"
        }
      ],
      "stateMutability": "view",
      "type": "function",
      "constant": true
    },
    {
      "inputs": [],
      "name": "getGroupIds",
      "outputs": [
        {
          "internalType": "uint256[]",
          "name": "",
          "type": "uint256[]"
        }
      ],
      "stateMutability": "view",
      "type": "function",
      "constant": true
    },
    {
      "inputs": [],
      "name": "getGroupNames",
      "outputs": [
        {
          "internalType": "string[]",
          "name": "",
          "type": "string[]"
        }
      ],
      "stateMutability": "view",
      "type": "function",
      "constant": true
    },
    {
      "inputs": [
        {
          "internalType": "uint256",
          "name": "groupId",
          "type": "uint256"
        }
      ],
      "name": "getMyAdminIndex",
      "outputs": [
        {
          "internalType": "uint256",
          "name": "",
          "type": "uint256"
        }
      ],
      "stateMutability": "view",
      "type": "function",
      "constant": true
    },
    {
      "inputs": [
        {
          "internalType": "uint256",
          "name": "groupId",
          "type": "uint256"
        }
      ],
      "name": "getRegisteredRecipientNames",
      "outputs": [
        {
          "internalType": "string[]",
          "name": "",
          "type": "string[]"
        }
      ],
      "stateMutability": "view",
      "type": "function",
      "constant": true
    },
    {
      "inputs": [
        {
          "internalType": "uint256",
          "name": "groupId",
          "type": "uint256"
        }
      ],
      "name": "getRegisteredRecipients",
      "outputs": [
        {
          "internalType": "address[]",
          "name": "",
          "type": "address[]"
        }
      ],
      "stateMutability": "view",
      "type": "function",
      "constant": true
    },
    {
      "inputs": [],
      "name": "getString",
      "outputs": [
        {
          "internalType": "string",
          "name": "",
          "type": "string"
        }
      ],
      "stateMutability": "view",
      "type": "function",
      "constant": true
    },
    {
      "inputs": [
        {
          "internalType": "address",
          "name": "account",
          "type": "address"
        },
        {
          "internalType": "uint256",
          "name": "groupId",
          "type": "uint256"
        }
      ],
      "name": "isAdmin",
      "outputs": [
        {
          "internalType": "bool",
          "name": "",
          "type": "bool"
        }
      ],
      "stateMutability": "view",
      "type": "function",
      "constant": true
    },
    {
      "inputs": [],
      "name": "isCEO",
      "outputs": [
        {
          "internalType": "bool",
          "name": "",
          "type": "bool"
        }
      ],
      "stateMutability": "view",
      "type": "function",
      "constant": true
    },
    {
      "inputs": [],
      "name": "isCFO",
      "outputs": [
        {
          "internalType": "bool",
          "name": "",
          "type": "bool"
        }
      ],
      "stateMutability": "view",
      "type": "function",
      "constant": true
    },
    {
      "inputs": [],
      "name": "isCOO",
      "outputs": [
        {
          "internalType": "bool",
          "name": "",
          "type": "bool"
        }
      ],
      "stateMutability": "view",
      "type": "function",
      "constant": true
    },
    {
      "inputs": [
        {
          "internalType": "address",
          "name": "account",
          "type": "address"
        },
        {
          "internalType": "uint256",
          "name": "groupId",
          "type": "uint256"
        }
      ],
      "name": "isContributor",
      "outputs": [
        {
          "internalType": "bool",
          "name": "",
          "type": "bool"
        }
      ],
      "stateMutability": "view",
      "type": "function",
      "constant": true
    },
    {
      "inputs": [
        {
          "internalType": "address",
          "name": "account",
          "type": "address"
        },
        {
          "internalType": "uint256",
          "name": "groupId",
          "type": "uint256"
        }
      ],
      "name": "isEligibleRecipient",
      "outputs": [
        {
          "internalType": "bool",
          "name": "",
          "type": "bool"
        }
      ],
      "stateMutability": "view",
      "type": "function",
      "constant": true
    },
    {
      "inputs": [],
      "name": "isPaused",
      "outputs": [
        {
          "internalType": "bool",
          "name": "",
          "type": "bool"
        }
      ],
      "stateMutability": "view",
      "type": "function",
      "constant": true
    },
    {
      "inputs": [
        {
          "internalType": "address",
          "name": "account",
          "type": "address"
        },
        {
          "internalType": "uint256",
          "name": "groupId",
          "type": "uint256"
        }
      ],
      "name": "isRegisteredRecipient",
      "outputs": [
        {
          "internalType": "bool",
          "name": "",
          "type": "bool"
        }
      ],
      "stateMutability": "view",
      "type": "function",
      "constant": true
    },
    {
      "inputs": [],
      "name": "newContractAddress",
      "outputs": [
        {
          "internalType": "address",
          "name": "",
          "type": "address"
        }
      ],
      "stateMutability": "view",
      "type": "function",
      "constant": true
    },
    {
      "inputs": [],
      "name": "pause",
      "outputs": [],
      "stateMutability": "nonpayable",
      "type": "function"
    },
    {
      "inputs": [],
      "name": "paused",
      "outputs": [
        {
          "internalType": "bool",
          "name": "",
          "type": "bool"
        }
      ],
      "stateMutability": "view",
      "type": "function",
      "constant": true
    },
    {
      "inputs": [
        {
          "internalType": "uint256",
          "name": "groupId",
          "type": "uint256"
        }
      ],
      "name": "readEventInfo",
      "outputs": [
        {
          "components": [
            {
              "internalType": "uint256",
              "name": "groupId",
              "type": "uint256"
            },
            {
              "internalType": "string",
              "name": "groupName",
              "type": "string"
            },
            {
              "internalType": "enum EthDropBase.EventState",
              "name": "currentState",
              "type": "uint8"
            },
            {
              "internalType": "uint256",
              "name": "startTime",
              "type": "uint256"
            },
            {
              "internalType": "uint256",
              "name": "registrationEndTime",
              "type": "uint256"
            },
            {
              "internalType": "uint256",
              "name": "endTime",
              "type": "uint256"
            },
            {
              "internalType": "uint256",
              "name": "registeredRecipientsCount",
              "type": "uint256"
            },
            {
              "internalType": "string",
              "name": "sponsorName",
              "type": "string"
            },
            {
              "internalType": "string",
              "name": "sponsorImageUrl",
              "type": "string"
            },
            {
              "internalType": "string",
              "name": "sponsorLinkToUrl",
              "type": "string"
            },
            {
              "internalType": "address",
              "name": "currentContributor",
              "type": "address"
            },
            {
              "internalType": "uint256",
              "name": "totalAmountContributed",
              "type": "uint256"
            },
            {
              "internalType": "uint256",
              "name": "weiWinnings",
              "type": "uint256"
            },
            {
              "internalType": "uint256",
              "name": "numberOfUsersWhoClaimedWinnings",
              "type": "uint256"
            }
          ],
          "internalType": "struct EthDropBase.EthDropEvent",
          "name": "",
          "type": "tuple"
        }
      ],
      "stateMutability": "view",
      "type": "function",
      "constant": true
    },
    {
      "inputs": [
        {
          "internalType": "uint256",
          "name": "groupId",
          "type": "uint256"
        }
      ],
      "name": "registerForEvent",
      "outputs": [],
      "stateMutability": "nonpayable",
      "type": "function"
    },
    {
      "inputs": [
        {
          "internalType": "address",
          "name": "account",
          "type": "address"
        },
        {
          "internalType": "uint256",
          "name": "groupId",
          "type": "uint256"
        }
      ],
      "name": "removeAdmin",
      "outputs": [],
      "stateMutability": "nonpayable",
      "type": "function"
    },
    {
      "inputs": [
        {
          "internalType": "address",
          "name": "account",
          "type": "address"
        },
        {
          "internalType": "uint256",
          "name": "groupId",
          "type": "uint256"
        }
      ],
      "name": "removeEligibleRecipient",
      "outputs": [],
      "stateMutability": "nonpayable",
      "type": "function"
    },
    {
      "inputs": [
        {
          "internalType": "uint256",
          "name": "groupId",
          "type": "uint256"
        }
      ],
      "name": "renounceAdmin",
      "outputs": [],
      "stateMutability": "nonpayable",
      "type": "function"
    },
    {
      "inputs": [
        {
          "internalType": "address",
          "name": "_newCEO",
          "type": "address"
        }
      ],
      "name": "setCEO",
      "outputs": [],
      "stateMutability": "nonpayable",
      "type": "function"
    },
    {
      "inputs": [
        {
          "internalType": "address",
          "name": "_newCFO",
          "type": "address"
        }
      ],
      "name": "setCFO",
      "outputs": [],
      "stateMutability": "nonpayable",
      "type": "function"
    },
    {
      "inputs": [
        {
          "internalType": "address",
          "name": "_newCOO",
          "type": "address"
        }
      ],
      "name": "setCOO",
      "outputs": [],
      "stateMutability": "nonpayable",
      "type": "function"
    },
    {
      "inputs": [
        {
          "internalType": "string",
          "name": "_s",
          "type": "string"
        }
      ],
      "name": "setString",
      "outputs": [],
      "stateMutability": "nonpayable",
      "type": "function"
    },
    {
      "inputs": [
        {
          "internalType": "uint256",
          "name": "groupId",
          "type": "uint256"
        }
      ],
      "name": "startEvent",
      "outputs": [],
      "stateMutability": "nonpayable",
      "type": "function"
    },
    {
      "inputs": [],
      "name": "stringgg",
      "outputs": [
        {
          "internalType": "string",
          "name": "",
          "type": "string"
        }
      ],
      "stateMutability": "view",
      "type": "function",
      "constant": true
    },
    {
      "inputs": [],
      "name": "unpause",
      "outputs": [
        {
          "internalType": "bool",
          "name": "",
          "type": "bool"
        }
      ],
      "stateMutability": "nonpayable",
      "type": "function"
    },
    {
      "inputs": [
        {
          "internalType": "uint256",
          "name": "groupId",
          "type": "uint256"
        },
        {
          "internalType": "string",
          "name": "newContributorName",
          "type": "string"
        },
        {
          "internalType": "string",
          "name": "newContributorImgUrl",
          "type": "string"
        },
        {
          "internalType": "string",
          "name": "newContributorLinkToUrl",
          "type": "string"
        }
      ],
      "name": "updateContributorInfo",
      "outputs": [],
      "stateMutability": "nonpayable",
      "type": "function"
    },
    {
      "inputs": [],
      "name": "whoami",
      "outputs": [
        {
          "internalType": "address",
          "name": "",
          "type": "address"
        }
      ],
      "stateMutability": "view",
      "type": "function",
      "constant": true
    },
    {
      "inputs": [
        {
          "internalType": "address",
          "name": "_v2Address",
          "type": "address"
        }
      ],
      "name": "setNewAddress",
      "outputs": [],
      "stateMutability": "nonpayable",
      "type": "function"
    },
    {
      "inputs": [],
      "name": "foobar",
      "outputs": [
        {
          "internalType": "string",
          "name": "",
          "type": "string"
        }
      ],
      "stateMutability": "pure",
      "type": "function",
      "constant": true
    }
  ],
  "bytecode": "0x608060405233600160006101000a81548173ffffffffffffffffffffffffffffffffffffffff021916908373ffffffffffffffffffffffffffffffffffffffff1602179055506000600360146101000a81548160ff0219169083151502179055506005805534801561007057600080fd5b506000600360146101000a81548160ff02191690831515021790555033600160006101000a81548173ffffffffffffffffffffffffffffffffffffffff021916908373ffffffffffffffffffffffffffffffffffffffff160217905550615b2a80620000dd6000396000f3fe60806040526004361061038c5760003560e01c80637d837ce5116101dc578063c02b8b2c11610102578063e62092be116100a0578063ee41b5921161006f578063ee41b59214610de4578063f4a02e7014610e21578063f89e9cb914610e4c578063fc5fd6e414610e895761038c565b8063e62092be14610d25578063e82f24e014610d62578063e9af9bca14610d7e578063ea303f0814610dbb5761038c565b8063c6e0ddfa116100dc578063c6e0ddfa14610c69578063d5f016c314610c92578063e33db42614610cbd578063e513b7a914610cfa5761038c565b8063c02b8b2c14610bea578063c271e80c14610c15578063c6db509414610c3e5761038c565b8063962ecff51161017a578063aea88a0511610149578063aea88a0514610b40578063b047fb5014610b69578063b187bd2614610b94578063b3b36bb314610bbf5761038c565b8063962ecff514610a74578063967cafbc14610ab15780639bda879614610ada578063a59a695314610b175761038c565b80638182aaf2116101b65780638182aaf2146109ca5780638456cb5914610a0757806389ea642f14610a1e5780639393ae3714610a495761038c565b80637d837ce51461093b5780637fcaf666146109785780637fcb29c9146109a15761038c565b806344b2983b116102c15780635e82c1fc1161025f5780636ebdec491161022e5780636ebdec491461088057806371587988146108be578063785142be146108e75780637b936ac2146109105761038c565b80635e82c1fc146107b0578063674811ca146107ed578063677bd9ff1461082c5780636af04a57146108555761038c565b80634e0a33791161029b5780634e0a3379146106e257806355b57ec11461070b57806356c9a339146107485780635c975abb146107855761038c565b806344b2983b14610627578063454432e2146106645780634635509b146106a15761038c565b806327d7874c1161032e578063330a347b11610308578063330a347b1461056d57806338f0b656146105965780633f4ba83a146105d3578063406db843146105fe5761038c565b806327d7874c146104f25780632ba73c151461051b57806330bb0115146105445761038c565b806307bfa3301161036a57806307bfa330146104245780630a0f8168146104615780630d82ffa01461048c57806315891ff4146104c95761038c565b80630519ce791461039157806305df75db146103bc57806306cc4922146103e7575b600080fd5b34801561039d57600080fd5b506103a6610eb4565b6040516103b39190615237565b60405180910390f35b3480156103c857600080fd5b506103d1610eda565b6040516103de919061537f565b60405180910390f35b3480156103f357600080fd5b5061040e60048036038101906104099190614c85565b610f17565b60405161041b9190615311565b60405180910390f35b34801561043057600080fd5b5061044b60048036038101906104469190614c85565b610f44565b60405161045891906152cd565b60405180910390f35b34801561046d57600080fd5b50610476611030565b6040516104839190615237565b60405180910390f35b34801561049857600080fd5b506104b360048036038101906104ae9190614c85565b611056565b6040516104c09190615237565b60405180910390f35b3480156104d557600080fd5b506104f060048036038101906104eb9190614bfc565b611096565b005b3480156104fe57600080fd5b5061051960048036038101906105149190614b60565b611180565b005b34801561052757600080fd5b50610542600480360381019061053d9190614b60565b611258565b005b34801561055057600080fd5b5061056b60048036038101906105669190614c85565b61135c565b005b34801561057957600080fd5b50610594600480360381019061058f9190614c85565b61137e565b005b3480156105a257600080fd5b506105bd60048036038101906105b89190614c85565b611968565b6040516105ca9190615311565b60405180910390f35b3480156105df57600080fd5b506105e8611995565b6040516105f59190615311565b60405180910390f35b34801561060a57600080fd5b5061062560048036038101906106209190614c85565b611a3a565b005b34801561063357600080fd5b5061064e60048036038101906106499190614c85565b611cee565b60405161065b9190615252565b60405180910390f35b34801561067057600080fd5b5061068b60048036038101906106869190614c85565b611d8f565b60405161069891906152cd565b60405180910390f35b3480156106ad57600080fd5b506106c860048036038101906106c39190614c85565b611e7b565b6040516106d995949392919061532c565b60405180910390f35b3480156106ee57600080fd5b5061070960048036038101906107049190614b60565b6121fe565b005b34801561071757600080fd5b50610732600480360381019061072d9190614c85565b612302565b60405161073f91906152ab565b60405180910390f35b34801561075457600080fd5b5061076f600480360381019061076a9190614c85565b612392565b60405161077c919061545f565b60405180910390f35b34801561079157600080fd5b5061079a6123af565b6040516107a79190615311565b60405180910390f35b3480156107bc57600080fd5b506107d760048036038101906107d29190614bfc565b6123c2565b6040516107e49190615311565b60405180910390f35b3480156107f957600080fd5b50610814600480360381019061080f9190614c85565b61244b565b604051610823939291906153a1565b60405180910390f35b34801561083857600080fd5b50610853600480360381019061084e9190614c85565b612643565b005b34801561086157600080fd5b5061086a612828565b6040516108779190615237565b60405180910390f35b34801561088c57600080fd5b506108a760048036038101906108a29190614c85565b61284e565b6040516108b5929190615274565b60405180910390f35b3480156108ca57600080fd5b506108e560048036038101906108e09190614b60565b61297f565b005b3480156108f357600080fd5b5061090e60048036038101906109099190614c85565b612a6d565b005b34801561091c57600080fd5b50610925612ca2565b6040516109329190615237565b60405180910390f35b34801561094757600080fd5b50610962600480360381019061095d9190614bfc565b612ccc565b60405161096f9190615311565b60405180910390f35b34801561098457600080fd5b5061099f600480360381019061099a9190614c3c565b612d55565b005b3480156109ad57600080fd5b506109c860048036038101906109c39190614bfc565b612d6f565b005b3480156109d657600080fd5b506109f160048036038101906109ec9190614bfc565b612e0e565b6040516109fe9190615311565b60405180910390f35b348015610a1357600080fd5b50610a1c612e97565b005b348015610a2a57600080fd5b50610a33612fd8565b604051610a40919061537f565b60405180910390f35b348015610a5557600080fd5b50610a5e61306a565b604051610a6b9190615311565b60405180910390f35b348015610a8057600080fd5b50610a9b6004803603810190610a969190614c85565b6130c2565b604051610aa89190615311565b60405180910390f35b348015610abd57600080fd5b50610ad86004803603810190610ad39190614b8d565b6130d5565b005b348015610ae657600080fd5b50610b016004803603810190610afc9190614c85565b61333c565b604051610b0e9190615252565b60405180910390f35b348015610b2357600080fd5b50610b3e6004803603810190610b399190614c85565b6133dd565b005b348015610b4c57600080fd5b50610b676004803603810190610b629190614cb2565b6134b7565b005b348015610b7557600080fd5b50610b7e6135f0565b604051610b8b9190615237565b60405180910390f35b348015610ba057600080fd5b50610ba9613616565b604051610bb69190615311565b60405180910390f35b348015610bcb57600080fd5b50610bd461362d565b604051610be19190615237565b60405180910390f35b348015610bf657600080fd5b50610bff613635565b604051610c0c91906152ef565b60405180910390f35b348015610c2157600080fd5b50610c3c6004803603810190610c379190614bfc565b61368d565b005b348015610c4a57600080fd5b50610c53613722565b604051610c60919061537f565b60405180910390f35b348015610c7557600080fd5b50610c906004803603810190610c8b9190614bfc565b6137b0565b005b348015610c9e57600080fd5b50610ca7613818565b604051610cb491906152cd565b60405180910390f35b348015610cc957600080fd5b50610ce46004803603810190610cdf9190614c85565b6138f1565b604051610cf1919061543d565b60405180910390f35b348015610d0657600080fd5b50610d0f613c5d565b604051610d1c9190615311565b60405180910390f35b348015610d3157600080fd5b50610d4c6004803603810190610d479190614bfc565b613cb5565b604051610d599190615311565b60405180910390f35b610d7c6004803603810190610d779190614c85565b613d74565b005b348015610d8a57600080fd5b50610da56004803603810190610da09190614c85565b613e39565b604051610db2919061545f565b60405180910390f35b348015610dc757600080fd5b50610de26004803603810190610ddd9190614c3c565b613e93565b005b348015610df057600080fd5b50610e0b6004803603810190610e069190614c85565b6141c4565b604051610e189190615311565b60405180910390f35b348015610e2d57600080fd5b50610e366141f1565b604051610e439190615311565b60405180910390f35b348015610e5857600080fd5b50610e736004803603810190610e6e9190614c85565b614249565b604051610e809190615311565b60405180910390f35b348015610e9557600080fd5b50610e9e6142d0565b604051610eab9190615237565b60405180910390f35b600260009054906101000a900473ffffffffffffffffffffffffffffffffffffffff1681565b60606040518060400160405280600d81526020017f666f6f6261727272727272722100000000000000000000000000000000000000815250905090565b6000600360149054906101000a900460ff1615610f3357600080fd5b610f3d33836123c2565b9050919050565b606060166000838152602001908152602001600020805480602002602001604051908101604052809291908181526020016000905b82821015611025578382906000526020600020018054610f9890615878565b80601f0160208091040260200160405190810160405280929190818152602001828054610fc490615878565b80156110115780601f10610fe657610100808354040283529160200191611011565b820191906000526020600020905b815481529060010190602001808311610ff457829003601f168201915b505050505081526020019060010190610f79565b505050509050919050565b600160009054906101000a900473ffffffffffffffffffffffffffffffffffffffff1681565b600060086000838152602001908152602001600020600a0160009054906101000a900473ffffffffffffffffffffffffffffffffffffffff169050919050565b806110a13382613cb5565b6110aa57600080fd5b600360149054906101000a900460ff16156110c457600080fd5b60006011600084815260200190815260200160002060008573ffffffffffffffffffffffffffffffffffffffff1673ffffffffffffffffffffffffffffffffffffffff16815260200190815260200160002060006101000a81548160ff0219169083151502179055508273ffffffffffffffffffffffffffffffffffffffff167f1af6d16168d33745872119540d28858eed156c5f265206bbf1344fda39a93a3383604051611173919061545f565b60405180910390a2505050565b600160009054906101000a900473ffffffffffffffffffffffffffffffffffffffff1673ffffffffffffffffffffffffffffffffffffffff163373ffffffffffffffffffffffffffffffffffffffff16146111da57600080fd5b600073ffffffffffffffffffffffffffffffffffffffff168173ffffffffffffffffffffffffffffffffffffffff16141561121457600080fd5b80600160006101000a81548173ffffffffffffffffffffffffffffffffffffffff021916908373ffffffffffffffffffffffffffffffffffffffff16021790555050565b600160009054906101000a900473ffffffffffffffffffffffffffffffffffffffff1673ffffffffffffffffffffffffffffffffffffffff163373ffffffffffffffffffffffffffffffffffffffff16146112b257600080fd5b600073ffffffffffffffffffffffffffffffffffffffff168173ffffffffffffffffffffffffffffffffffffffff1614156112ec57600080fd5b80600360006101000a81548173ffffffffffffffffffffffffffffffffffffffff021916908373ffffffffffffffffffffffffffffffffffffffff1602179055507fa308298a77084def994b565be25bff2e8fbfe7006c2c6b2bacfb84d1ba1f635060405160405180910390a150565b806113673382613cb5565b61137057600080fd5b61137a33836142fa565b5050565b806113893382613cb5565b806113e15750600360009054906101000a900473ffffffffffffffffffffffffffffffffffffffff1673ffffffffffffffffffffffffffffffffffffffff163373ffffffffffffffffffffffffffffffffffffffff16145b6113ea57600080fd5b600360149054906101000a900460ff161561140457600080fd5b42600860008481526020019081526020016000206005018190555060036008600084815260200190815260200160002060020160006101000a81548160ff0219169083600381111561145957611458615982565b5b021790555060005b60086000848152602001908152602001600020600601548110156116035760006018600085815260200190815260200160002082815481106114a6576114a56159e0565b5b9060005260206000200160009054906101000a900473ffffffffffffffffffffffffffffffffffffffff1690506017600085815260200190815260200160002060008273ffffffffffffffffffffffffffffffffffffffff1673ffffffffffffffffffffffffffffffffffffffff16815260200190815260200160002060006101000a81549060ff02191690556015600085815260200190815260200160002060008273ffffffffffffffffffffffffffffffffffffffff1673ffffffffffffffffffffffffffffffffffffffff168152602001908152602001600020600061158f9190614859565b600c600085815260200190815260200160002060008273ffffffffffffffffffffffffffffffffffffffff1673ffffffffffffffffffffffffffffffffffffffff16815260200190815260200160002060006101000a81549060ff02191690555080806115fb906158db565b915050611461565b506016600083815260200190815260200160002060006116239190614899565b60186000838152602001908152602001600020600061164291906148ba565b600960008381526020019081526020016000206008600084815260200190815260200160002090806001815401808255809150506001900390600052602060002090600e02016000909190919091506000820154816000015560018201816001019080546116af90615878565b6116ba9291906148db565b506002820160009054906101000a900460ff168160020160006101000a81548160ff021916908360038111156116f3576116f2615982565b5b021790555060038201548160030155600482015481600401556005820154816005015560068201548160060155600782018160070190805461173490615878565b61173f9291906148db565b50600882018160080190805461175490615878565b61175f9291906148db565b50600982018160090190805461177490615878565b61177f9291906148db565b50600a820160009054906101000a900473ffffffffffffffffffffffffffffffffffffffff1681600a0160006101000a81548173ffffffffffffffffffffffffffffffffffffffff021916908373ffffffffffffffffffffffffffffffffffffffff160217905550600b82015481600b0155600c82015481600c0155600d82015481600d0155505060006008600084815260200190815260200160002060060181905550600060086000848152602001908152602001600020600b0181905550600060086000848152602001908152602001600020600c0181905550600060086000848152602001908152602001600020600d01819055503373ffffffffffffffffffffffffffffffffffffffff167f5dc1fe5ab986a852c4eda8e8bb94247d13307065c593fb83f1a09be2736793828360006040516118c092919061547a565b60405180910390a23373ffffffffffffffffffffffffffffffffffffffff167f0695e999be8100bdb5bee8612337296508d527eae78c65b8f170eacb5a3b439d8360405161190e919061545f565b60405180910390a23373ffffffffffffffffffffffffffffffffffffffff167f6f45a19e8850c727d0de9f32e0d8691324a9a74ffb4347652e6404138b1d81658360405161195c919061545f565b60405180910390a25050565b6000600360149054906101000a900460ff161561198457600080fd5b61198e3383612ccc565b9050919050565b6000600160009054906101000a900473ffffffffffffffffffffffffffffffffffffffff1673ffffffffffffffffffffffffffffffffffffffff163373ffffffffffffffffffffffffffffffffffffffff16146119f157600080fd5b600360149054906101000a900460ff16611a0a57600080fd5b6000600360146101000a81548160ff021916908315150217905550600360149054906101000a900460ff16905090565b80611a4533826123c2565b611a4e57600080fd5b600360149054906101000a900460ff1615611a6857600080fd5b60016017600084815260200190815260200160002060003373ffffffffffffffffffffffffffffffffffffffff1673ffffffffffffffffffffffffffffffffffffffff16815260200190815260200160002060006101000a81548160ff02191690831515021790555060186000838152602001908152602001600020339080600181540180825580915050600190039060005260206000200160009091909190916101000a81548173ffffffffffffffffffffffffffffffffffffffff021916908373ffffffffffffffffffffffffffffffffffffffff16021790555060006015600084815260200190815260200160002060003373ffffffffffffffffffffffffffffffffffffffff1673ffffffffffffffffffffffffffffffffffffffff1681526020019081526020016000208054611ba290615878565b80601f0160208091040260200160405190810160405280929190818152602001828054611bce90615878565b8015611c1b5780601f10611bf057610100808354040283529160200191611c1b565b820191906000526020600020905b815481529060010190602001808311611bfe57829003601f168201915b505050505090506016600084815260200190815260200160002081908060018154018082558091505060019003906000526020600020016000909190919091509080519060200190611c6e929190614968565b50600860008481526020019081526020016000206006016000815480929190611c96906158db565b91905055503373ffffffffffffffffffffffffffffffffffffffff167f0695e999be8100bdb5bee8612337296508d527eae78c65b8f170eacb5a3b439d84604051611ce1919061545f565b60405180910390a2505050565b606060186000838152602001908152602001600020805480602002602001604051908101604052809291908181526020018280548015611d8357602002820191906000526020600020905b8160009054906101000a900473ffffffffffffffffffffffffffffffffffffffff1673ffffffffffffffffffffffffffffffffffffffff1681526020019060010190808311611d39575b50505050509050919050565b606060136000838152602001908152602001600020805480602002602001604051908101604052809291908181526020016000905b82821015611e70578382906000526020600020018054611de390615878565b80601f0160208091040260200160405190810160405280929190818152602001828054611e0f90615878565b8015611e5c5780601f10611e3157610100808354040283529160200191611e5c565b820191906000526020600020905b815481529060010190602001808311611e3f57829003601f168201915b505050505081526020019060010190611dc4565b505050509050919050565b60008060008060008060086000888152602001908152602001600020604051806101c001604052908160008201548152602001600182018054611ebd90615878565b80601f0160208091040260200160405190810160405280929190818152602001828054611ee990615878565b8015611f365780601f10611f0b57610100808354040283529160200191611f36565b820191906000526020600020905b815481529060010190602001808311611f1957829003601f168201915b505050505081526020016002820160009054906101000a900460ff166003811115611f6457611f63615982565b5b6003811115611f7657611f75615982565b5b815260200160038201548152602001600482015481526020016005820154815260200160068201548152602001600782018054611fb290615878565b80601f0160208091040260200160405190810160405280929190818152602001828054611fde90615878565b801561202b5780601f106120005761010080835404028352916020019161202b565b820191906000526020600020905b81548152906001019060200180831161200e57829003601f168201915b5050505050815260200160088201805461204490615878565b80601f016020809104026020016040519081016040528092919081815260200182805461207090615878565b80156120bd5780601f10612092576101008083540402835291602001916120bd565b820191906000526020600020905b8154815290600101906020018083116120a057829003601f168201915b505050505081526020016009820180546120d690615878565b80601f016020809104026020016040519081016040528092919081815260200182805461210290615878565b801561214f5780601f106121245761010080835404028352916020019161214f565b820191906000526020600020905b81548152906001019060200180831161213257829003601f168201915b50505050508152602001600a820160009054906101000a900473ffffffffffffffffffffffffffffffffffffffff1673ffffffffffffffffffffffffffffffffffffffff1673ffffffffffffffffffffffffffffffffffffffff168152602001600b8201548152602001600c8201548152602001600d82015481525050905080604001518160c00151826101600151836101800151846101a00151955095509550955095505091939590929450565b600160009054906101000a900473ffffffffffffffffffffffffffffffffffffffff1673ffffffffffffffffffffffffffffffffffffffff163373ffffffffffffffffffffffffffffffffffffffff161461225857600080fd5b600073ffffffffffffffffffffffffffffffffffffffff168173ffffffffffffffffffffffffffffffffffffffff16141561229257600080fd5b80600260006101000a81548173ffffffffffffffffffffffffffffffffffffffff021916908373ffffffffffffffffffffffffffffffffffffffff1602179055507f162e32528b5907ecf876b3b7a4e5e0edf878642e3ec25852e3c35af1a4e1c04060405160405180910390a150565b60606014600083815260200190815260200160002080548060200260200160405190810160405280929190818152602001828054801561238657602002820191906000526020600020906000905b82829054906101000a900460ff161515815260200190600101906020826000010492830192600103820291508084116123505790505b50505050509050919050565b6000600b6000838152602001908152602001600020549050919050565b600360149054906101000a900460ff1681565b6000600360149054906101000a900460ff16156123de57600080fd5b600115156011600084815260200190815260200160002060008573ffffffffffffffffffffffffffffffffffffffff1673ffffffffffffffffffffffffffffffffffffffff16815260200190815260200160002060009054906101000a900460ff16151514905092915050565b606080606060086000858152602001908152602001600020600701600860008681526020019081526020016000206008016008600087815260200190815260200160002060090182805461249e90615878565b80601f01602080910402602001604051908101604052809291908181526020018280546124ca90615878565b80156125175780601f106124ec57610100808354040283529160200191612517565b820191906000526020600020905b8154815290600101906020018083116124fa57829003601f168201915b5050505050925081805461252a90615878565b80601f016020809104026020016040519081016040528092919081815260200182805461255690615878565b80156125a35780601f10612578576101008083540402835291602001916125a3565b820191906000526020600020905b81548152906001019060200180831161258657829003601f168201915b505050505091508080546125b690615878565b80601f01602080910402602001604051908101604052809291908181526020018280546125e290615878565b801561262f5780601f106126045761010080835404028352916020019161262f565b820191906000526020600020905b81548152906001019060200180831161261257829003601f168201915b505050505090509250925092509193909250565b8061264e3382612ccc565b61265757600080fd5b813360011515600c600084815260200190815260200160002060003373ffffffffffffffffffffffffffffffffffffffff1673ffffffffffffffffffffffffffffffffffffffff16815260200190815260200160002060009054906101000a900460ff16151514156126c857600080fd5b600360149054906101000a900460ff16156126e257600080fd5b6001600c600086815260200190815260200160002060003373ffffffffffffffffffffffffffffffffffffffff1673ffffffffffffffffffffffffffffffffffffffff16815260200190815260200160002060006101000a81548160ff02191690831515021790555060086000858152602001908152602001600020600d016000815480929190612772906158db565b91905055503373ffffffffffffffffffffffffffffffffffffffff166108fc60086000878152602001908152602001600020600c01549081150290604051600060405180830381858888f193505050501580156127d3573d6000803e3d6000fd5b503373ffffffffffffffffffffffffffffffffffffffff167f1a31e733a172afcf46074b3106c17f0c298e226442682a03c1e99ce256139ec28560405161281a919061545f565b60405180910390a250505050565b601960009054906101000a900473ffffffffffffffffffffffffffffffffffffffff1681565b606080600d6000848152602001908152602001600020600f6000858152602001908152602001600020818054806020026020016040519081016040528092919081815260200182805480156128f857602002820191906000526020600020905b8160009054906101000a900473ffffffffffffffffffffffffffffffffffffffff1673ffffffffffffffffffffffffffffffffffffffff16815260200190600101908083116128ae575b505050505091508080548060200260200160405190810160405280929190818152602001828054801561296f57602002820191906000526020600020906000905b82829054906101000a900460ff161515815260200190600101906020826000010492830192600103820291508084116129395790505b5050505050905091509150915091565b600160009054906101000a900473ffffffffffffffffffffffffffffffffffffffff1673ffffffffffffffffffffffffffffffffffffffff163373ffffffffffffffffffffffffffffffffffffffff16146129d957600080fd5b600360149054906101000a900460ff166129f257600080fd5b80601960006101000a81548173ffffffffffffffffffffffffffffffffffffffff021916908373ffffffffffffffffffffffffffffffffffffffff1602179055507f450db8da6efbe9c22f2347f7c2021231df1fc58d3ae9a2fa75d39fa44619930581604051612a629190615237565b60405180910390a150565b80612a783382613cb5565b612a8157600080fd5b600360149054906101000a900460ff1615612a9b57600080fd5b600160086000848152602001908152602001600020600601541015612af5576040517f08c379a0000000000000000000000000000000000000000000000000000000008152600401612aec9061541d565b60405180910390fd5b4260086000848152602001908152602001600020600401819055506000606460055460086000868152602001908152602001600020600b0154612b389190615729565b612b4291906156f8565b9050600260009054906101000a900473ffffffffffffffffffffffffffffffffffffffff1673ffffffffffffffffffffffffffffffffffffffff166108fc829081150290604051600060405180830381858888f19350505050158015612bac573d6000803e3d6000fd5b5060008160086000868152602001908152602001600020600b0154612bd19190615783565b9050600860008581526020019081526020016000206006015481612bf591906156f8565b60086000868152602001908152602001600020600c018190555060026008600086815260200190815260200160002060020160006101000a81548160ff02191690836003811115612c4957612c48615982565b5b02179055503373ffffffffffffffffffffffffffffffffffffffff167fef898a6941c945450e9bbdad4a76fcd0f51f42f7e251fddcb1e5479ba786d5e485604051612c94919061545f565b60405180910390a250505050565b6000600260009054906101000a900473ffffffffffffffffffffffffffffffffffffffff16905090565b6000600360149054906101000a900460ff1615612ce857600080fd5b600115156017600084815260200190815260200160002060008573ffffffffffffffffffffffffffffffffffffffff1673ffffffffffffffffffffffffffffffffffffffff16815260200190815260200160002060009054906101000a900460ff16151514905092915050565b8060009080519060200190612d6b929190614968565b5050565b600360009054906101000a900473ffffffffffffffffffffffffffffffffffffffff1673ffffffffffffffffffffffffffffffffffffffff163373ffffffffffffffffffffffffffffffffffffffff1614612dc957600080fd5b612dd382826143db565b7f6d08be0da99b3a8dabb8a9d0bd4ebece8d00f747b0d0e6c29f97508f1a40a29181604051612e02919061545f565b60405180910390a15050565b6000600360149054906101000a900460ff1615612e2a57600080fd5b60086000838152602001908152602001600020600a0160009054906101000a900473ffffffffffffffffffffffffffffffffffffffff1673ffffffffffffffffffffffffffffffffffffffff168373ffffffffffffffffffffffffffffffffffffffff1614905092915050565b600360009054906101000a900473ffffffffffffffffffffffffffffffffffffffff1673ffffffffffffffffffffffffffffffffffffffff163373ffffffffffffffffffffffffffffffffffffffff161480612f405750600160009054906101000a900473ffffffffffffffffffffffffffffffffffffffff1673ffffffffffffffffffffffffffffffffffffffff163373ffffffffffffffffffffffffffffffffffffffff16145b80612f985750600260009054906101000a900473ffffffffffffffffffffffffffffffffffffffff1673ffffffffffffffffffffffffffffffffffffffff163373ffffffffffffffffffffffffffffffffffffffff16145b612fa157600080fd5b600360149054906101000a900460ff1615612fbb57600080fd5b6001600360146101000a81548160ff021916908315150217905550565b606060008054612fe790615878565b80601f016020809104026020016040519081016040528092919081815260200182805461301390615878565b80156130605780601f1061303557610100808354040283529160200191613060565b820191906000526020600020905b81548152906001019060200180831161304357829003601f168201915b5050505050905090565b6000600260009054906101000a900473ffffffffffffffffffffffffffffffffffffffff1673ffffffffffffffffffffffffffffffffffffffff163373ffffffffffffffffffffffffffffffffffffffff1614905090565b60006130ce3383613cb5565b9050919050565b600360149054906101000a900460ff16156130ef57600080fd5b806130fa3382613cb5565b61310357600080fd5b60016011600084815260200190815260200160002060008673ffffffffffffffffffffffffffffffffffffffff1673ffffffffffffffffffffffffffffffffffffffff16815260200190815260200160002060006101000a81548160ff02191690831515021790555060126000838152602001908152602001600020849080600181540180825580915050600190039060005260206000200160009091909190916101000a81548173ffffffffffffffffffffffffffffffffffffffff021916908373ffffffffffffffffffffffffffffffffffffffff160217905550601360008381526020019081526020016000208390806001815401808255809150506001900390600052602060002001600090919091909150908051906020019061322c929190614968565b50826015600084815260200190815260200160002060008673ffffffffffffffffffffffffffffffffffffffff1673ffffffffffffffffffffffffffffffffffffffff1681526020019081526020016000209080519060200190613291929190614968565b5060146000838152602001908152602001600020600190806001815401808255809150506001900390600052602060002090602091828204019190069091909190916101000a81548160ff0219169083151502179055508373ffffffffffffffffffffffffffffffffffffffff167f46b8357d30dedd734a71d059a385f46b6e667bff20233f907477760207f889658360405161332e919061545f565b60405180910390a250505050565b6060601260008381526020019081526020016000208054806020026020016040519081016040528092919081815260200182805480156133d157602002820191906000526020600020905b8160009054906101000a900473ffffffffffffffffffffffffffffffffffffffff1673ffffffffffffffffffffffffffffffffffffffff1681526020019060010190808311613387575b50505050509050919050565b806133e83382613cb5565b6133f157600080fd5b600360149054906101000a900460ff161561340b57600080fd5b60016008600084815260200190815260200160002060020160006101000a81548160ff0219169083600381111561344557613444615982565b5b02179055504260086000848152602001908152602001600020600301819055503373ffffffffffffffffffffffffffffffffffffffff167ff77c6f27499b698205f54058c2914a340e1300c2bc0d9a819e7aebfbaabbbb93836040516134ab919061545f565b60405180910390a25050565b836134c23382612e0e565b6134cb57600080fd5b60008451111561350157836008600087815260200190815260200160002060070190805190602001906134ff929190614968565b505b6000835111156135375782600860008781526020019081526020016000206008019080519060200190613535929190614968565b505b60008251111561356d578160086000878152602001908152602001600020600901908051906020019061356b929190614968565b505b7fcd9ad49d834aeea746bafd2d26eebd3d01ebac2d8f5d3f53d7f3884292e5835f856008600088815260200190815260200160002060070160086000898152602001908152602001600020600801600860008a81526020019081526020016000206009016040516135e194939291906154a3565b60405180910390a15050505050565b600360009054906101000a900473ffffffffffffffffffffffffffffffffffffffff1681565b6000600360149054906101000a900460ff16905090565b600033905090565b6060600680548060200260200160405190810160405280929190818152602001828054801561368357602002820191906000526020600020905b81548152602001906001019080831161366f575b5050505050905090565b806136983382613cb5565b806136f05750600360009054906101000a900473ffffffffffffffffffffffffffffffffffffffff1673ffffffffffffffffffffffffffffffffffffffff163373ffffffffffffffffffffffffffffffffffffffff16145b6136f957600080fd5b600360149054906101000a900460ff161561371357600080fd5b61371d8383614749565b505050565b6000805461372f90615878565b80601f016020809104026020016040519081016040528092919081815260200182805461375b90615878565b80156137a85780601f1061377d576101008083540402835291602001916137a8565b820191906000526020600020905b81548152906001019060200180831161378b57829003601f168201915b505050505081565b600360009054906101000a900473ffffffffffffffffffffffffffffffffffffffff1673ffffffffffffffffffffffffffffffffffffffff163373ffffffffffffffffffffffffffffffffffffffff161461380a57600080fd5b61381482826142fa565b5050565b60606007805480602002602001604051908101604052809291908181526020016000905b828210156138e857838290600052602060002001805461385b90615878565b80601f016020809104026020016040519081016040528092919081815260200182805461388790615878565b80156138d45780601f106138a9576101008083540402835291602001916138d4565b820191906000526020600020905b8154815290600101906020018083116138b757829003601f168201915b50505050508152602001906001019061383c565b50505050905090565b6138f96149ee565b816139043382613cb5565b61390d57600080fd5b60086000848152602001908152602001600020604051806101c00160405290816000820154815260200160018201805461394690615878565b80601f016020809104026020016040519081016040528092919081815260200182805461397290615878565b80156139bf5780601f10613994576101008083540402835291602001916139bf565b820191906000526020600020905b8154815290600101906020018083116139a257829003601f168201915b505050505081526020016002820160009054906101000a900460ff1660038111156139ed576139ec615982565b5b60038111156139ff576139fe615982565b5b815260200160038201548152602001600482015481526020016005820154815260200160068201548152602001600782018054613a3b90615878565b80601f0160208091040260200160405190810160405280929190818152602001828054613a6790615878565b8015613ab45780601f10613a8957610100808354040283529160200191613ab4565b820191906000526020600020905b815481529060010190602001808311613a9757829003601f168201915b50505050508152602001600882018054613acd90615878565b80601f0160208091040260200160405190810160405280929190818152602001828054613af990615878565b8015613b465780601f10613b1b57610100808354040283529160200191613b46565b820191906000526020600020905b815481529060010190602001808311613b2957829003601f168201915b50505050508152602001600982018054613b5f90615878565b80601f0160208091040260200160405190810160405280929190818152602001828054613b8b90615878565b8015613bd85780601f10613bad57610100808354040283529160200191613bd8565b820191906000526020600020905b815481529060010190602001808311613bbb57829003601f168201915b50505050508152602001600a820160009054906101000a900473ffffffffffffffffffffffffffffffffffffffff1673ffffffffffffffffffffffffffffffffffffffff1673ffffffffffffffffffffffffffffffffffffffff168152602001600b8201548152602001600c8201548152602001600d82015481525050915050919050565b6000600160009054906101000a900473ffffffffffffffffffffffffffffffffffffffff1673ffffffffffffffffffffffffffffffffffffffff163373ffffffffffffffffffffffffffffffffffffffff1614905090565b600080600a600084815260200190815260200160002060008573ffffffffffffffffffffffffffffffffffffffff1673ffffffffffffffffffffffffffffffffffffffff1681526020019081526020016000205490506000811415613d1e576000915050613d6e565b60011515600f60008581526020019081526020016000208281548110613d4757613d466159e0565b5b90600052602060002090602091828204019190069054906101000a900460ff161515149150505b92915050565b80613d7f3382612e0e565b613d8857600080fd5b600360149054906101000a900460ff1615613da257600080fd5b3460086000848152602001908152602001600020600b016000828254613dc891906156a2565b925050819055503373ffffffffffffffffffffffffffffffffffffffff167f5dc1fe5ab986a852c4eda8e8bb94247d13307065c593fb83f1a09be2736793828360086000868152602001908152602001600020600b0154604051613e2d9291906154fd565b60405180910390a25050565b6000600a600083815260200190815260200160002060003373ffffffffffffffffffffffffffffffffffffffff1673ffffffffffffffffffffffffffffffffffffffff168152602001908152602001600020549050919050565b600360009054906101000a900473ffffffffffffffffffffffffffffffffffffffff1673ffffffffffffffffffffffffffffffffffffffff163373ffffffffffffffffffffffffffffffffffffffff1614613eed57600080fd5b600360149054906101000a900460ff1615613f0757600080fd5b60004290506000604051806101c0016040528083815260200184815260200160006003811115613f3a57613f39615982565b5b815260200142815260200142815260200142815260200160008152602001604051806020016040528060008152508152602001604051806020016040528060008152508152602001604051806020016040528060008152508152602001600073ffffffffffffffffffffffffffffffffffffffff1681526020016000815260200160008152602001600081525090508060086000848152602001908152602001600020600082015181600001556020820151816001019080519060200190614003929190614968565b5060408201518160020160006101000a81548160ff0219169083600381111561402f5761402e615982565b5b0217905550606082015181600301556080820151816004015560a0820151816005015560c0820151816006015560e0820151816007019080519060200190614078929190614968565b50610100820151816008019080519060200190614096929190614968565b506101208201518160090190805190602001906140b4929190614968565b5061014082015181600a0160006101000a81548173ffffffffffffffffffffffffffffffffffffffff021916908373ffffffffffffffffffffffffffffffffffffffff16021790555061016082015181600b015561018082015181600c01556101a082015181600d01559050506006829080600181540180825580915050600190039060005260206000200160009091909190915055600783908060018154018082558091505060019003906000526020600020016000909190919091509080519060200190614185929190614968565b507f5937a473913f56daf7dea7a6e821970acaa73f35555cf88f70c54f243cd98a9e83836040516141b79291906153ed565b60405180910390a1505050565b6000600360149054906101000a900460ff16156141e057600080fd5b6141ea3383612e0e565b9050919050565b6000600360009054906101000a900473ffffffffffffffffffffffffffffffffffffffff1673ffffffffffffffffffffffffffffffffffffffff163373ffffffffffffffffffffffffffffffffffffffff1614905090565b60006142553383612ccc565b61426257600090506142cb565b60011515600c600084815260200190815260200160002060003373ffffffffffffffffffffffffffffffffffffffff1673ffffffffffffffffffffffffffffffffffffffff16815260200190815260200160002060009054906101000a900460ff161515141590505b919050565b6000600360009054906101000a900473ffffffffffffffffffffffffffffffffffffffff16905090565b6000600a600083815260200190815260200160002060008473ffffffffffffffffffffffffffffffffffffffff1673ffffffffffffffffffffffffffffffffffffffff1681526020019081526020016000205490506000600f60008481526020019081526020016000208281548110614376576143756159e0565b5b90600052602060002090602091828204019190066101000a81548160ff0219169083151502179055507f99f4c949f294dd13aa62d19c1344b81968121fe570d11657ebd54aae55ac0f20826040516143ce919061545f565b60405180910390a1505050565b6000600b600083815260200190815260200160002054141561456b57600b6000828152602001908152602001600020600081548092919061441b906158db565b9190505550600d600082815260200190815260200160002060009080600181540180825580915050600190039060005260206000200160009091909190916101000a81548173ffffffffffffffffffffffffffffffffffffffff021916908373ffffffffffffffffffffffffffffffffffffffff160217905550600f6000828152602001908152602001600020600090806001815401808255809150506001900390600052602060002090602091828204019190069091909190916101000a81548160ff021916908315150217905550600e600082815260200190815260200160002080600181540180825580915050600190039060005260206000200160006040518060400160405280600c81526020017f7a65726f2061646472657373000000000000000000000000000000000000000081525090919091509080519060200190614569929190614968565b505b600b600082815260200190815260200160002054600a600083815260200190815260200160002060008473ffffffffffffffffffffffffffffffffffffffff1673ffffffffffffffffffffffffffffffffffffffff16815260200190815260200160002081905550600d6000828152602001908152602001600020829080600181540180825580915050600190039060005260206000200160009091909190916101000a81548173ffffffffffffffffffffffffffffffffffffffff021916908373ffffffffffffffffffffffffffffffffffffffff160217905550600f6000828152602001908152602001600020600190806001815401808255809150506001900390600052602060002090602091828204019190069091909190916101000a81548160ff021916908315150217905550600e600082815260200190815260200160002080600181540180825580915050600190039060005260206000200160006040518060400160405280600881526020017f6e657720757365720000000000000000000000000000000000000000000000008152509091909150908051906020019061471b929190614968565b50600b60008281526020019081526020016000206000815480929190614740906158db565b91905055505050565b60016010600083815260200190815260200160002060008473ffffffffffffffffffffffffffffffffffffffff1673ffffffffffffffffffffffffffffffffffffffff16815260200190815260200160002060006101000a81548160ff0219169083151502179055508160086000838152602001908152602001600020600a0160006101000a81548173ffffffffffffffffffffffffffffffffffffffff021916908373ffffffffffffffffffffffffffffffffffffffff1602179055508173ffffffffffffffffffffffffffffffffffffffff167f5fd6d0b7e707fe344bd2a1887f9d0eeea8bfcac6f339ba4200e74f0647f101c08260405161484d919061545f565b60405180910390a25050565b50805461486590615878565b6000825580601f106148775750614896565b601f0160209004906000526020600020908101906148959190614a85565b5b50565b50805460008255906000526020600020908101906148b79190614aa2565b50565b50805460008255906000526020600020908101906148d89190614a85565b50565b8280546148e790615878565b90600052602060002090601f0160209004810192826149095760008555614957565b82601f1061491a5780548555614957565b8280016001018555821561495757600052602060002091601f016020900482015b8281111561495657825482559160010191906001019061493b565b5b5090506149649190614a85565b5090565b82805461497490615878565b90600052602060002090601f01602090048101928261499657600085556149dd565b82601f106149af57805160ff19168380011785556149dd565b828001600101855582156149dd579182015b828111156149dc5782518255916020019190600101906149c1565b5b5090506149ea9190614a85565b5090565b604051806101c00160405280600081526020016060815260200160006003811115614a1c57614a1b615982565b5b815260200160008152602001600081526020016000815260200160008152602001606081526020016060815260200160608152602001600073ffffffffffffffffffffffffffffffffffffffff1681526020016000815260200160008152602001600081525090565b5b80821115614a9e576000816000905550600101614a86565b5090565b5b80821115614ac25760008181614ab99190614859565b50600101614aa3565b5090565b6000614ad9614ad48461554b565b615526565b905082815260208101848484011115614af557614af4615a43565b5b614b00848285615836565b509392505050565b600081359050614b1781615ac6565b92915050565b600082601f830112614b3257614b31615a3e565b5b8135614b42848260208601614ac6565b91505092915050565b600081359050614b5a81615add565b92915050565b600060208284031215614b7657614b75615a4d565b5b6000614b8484828501614b08565b91505092915050565b600080600060608486031215614ba657614ba5615a4d565b5b6000614bb486828701614b08565b935050602084013567ffffffffffffffff811115614bd557614bd4615a48565b5b614be186828701614b1d565b9250506040614bf286828701614b4b565b9150509250925092565b60008060408385031215614c1357614c12615a4d565b5b6000614c2185828601614b08565b9250506020614c3285828601614b4b565b9150509250929050565b600060208284031215614c5257614c51615a4d565b5b600082013567ffffffffffffffff811115614c7057614c6f615a48565b5b614c7c84828501614b1d565b91505092915050565b600060208284031215614c9b57614c9a615a4d565b5b6000614ca984828501614b4b565b91505092915050565b60008060008060808587031215614ccc57614ccb615a4d565b5b6000614cda87828801614b4b565b945050602085013567ffffffffffffffff811115614cfb57614cfa615a48565b5b614d0787828801614b1d565b935050604085013567ffffffffffffffff811115614d2857614d27615a48565b5b614d3487828801614b1d565b925050606085013567ffffffffffffffff811115614d5557614d54615a48565b5b614d6187828801614b1d565b91505092959194509250565b6000614d798383614dc9565b60208301905092915050565b6000614d918383614f76565b60208301905092915050565b6000614da98383614fc1565b905092915050565b6000614dbd8383615219565b60208301905092915050565b614dd2816157b7565b82525050565b614de1816157b7565b82525050565b6000614df2826155d1565b614dfc818561563c565b9350614e078361557c565b8060005b83811015614e38578151614e1f8882614d6d565b9750614e2a83615608565b925050600181019050614e0b565b5085935050505092915050565b6000614e50826155dc565b614e5a818561564d565b9350614e658361558c565b8060005b83811015614e96578151614e7d8882614d85565b9750614e8883615615565b925050600181019050614e69565b5085935050505092915050565b6000614eae826155e7565b614eb8818561565e565b935083602082028501614eca8561559c565b8060005b85811015614f065784840389528151614ee78582614d9d565b9450614ef283615622565b925060208a01995050600181019050614ece565b50829750879550505050505092915050565b6000614f23826155f2565b614f2d818561566f565b9350614f38836155ac565b8060005b83811015614f69578151614f508882614db1565b9750614f5b8361562f565b925050600181019050614f3c565b5085935050505092915050565b614f7f816157c9565b82525050565b614f8e816157c9565b82525050565b614f9d81615812565b82525050565b614fac81615812565b82525050565b614fbb81615824565b82525050565b6000614fcc826155fd565b614fd68185615680565b9350614fe6818560208601615845565b614fef81615a52565b840191505092915050565b6000615005826155fd565b61500f8185615691565b935061501f818560208601615845565b61502881615a52565b840191505092915050565b6000815461504081615878565b61504a8186615691565b945060018216600081146150655760018114615077576150aa565b60ff19831686526020860193506150aa565b615080856155bc565b60005b838110156150a257815481890152600182019150602081019050615083565b808801955050505b50505092915050565b60006150c0602d83615691565b91506150cb82615a63565b604082019050919050565b60006101c0830160008301516150ef6000860182615219565b50602083015184820360208601526151078282614fc1565b915050604083015161511c6040860182614f94565b50606083015161512f6060860182615219565b5060808301516151426080860182615219565b5060a083015161515560a0860182615219565b5060c083015161516860c0860182615219565b5060e083015184820360e08601526151808282614fc1565b91505061010083015184820361010086015261519c8282614fc1565b9150506101208301518482036101208601526151b88282614fc1565b9150506101408301516151cf610140860182614dc9565b506101608301516151e4610160860182615219565b506101808301516151f9610180860182615219565b506101a083015161520e6101a0860182615219565b508091505092915050565b61522281615808565b82525050565b61523181615808565b82525050565b600060208201905061524c6000830184614dd8565b92915050565b6000602082019050818103600083015261526c8184614de7565b905092915050565b6000604082019050818103600083015261528e8185614de7565b905081810360208301526152a28184614e45565b90509392505050565b600060208201905081810360008301526152c58184614e45565b905092915050565b600060208201905081810360008301526152e78184614ea3565b905092915050565b600060208201905081810360008301526153098184614f18565b905092915050565b60006020820190506153266000830184614f85565b92915050565b600060a0820190506153416000830188614fa3565b61534e6020830187615228565b61535b6040830186615228565b6153686060830185615228565b6153756080830184615228565b9695505050505050565b600060208201905081810360008301526153998184614ffa565b905092915050565b600060608201905081810360008301526153bb8186614ffa565b905081810360208301526153cf8185614ffa565b905081810360408301526153e38184614ffa565b9050949350505050565b600060408201905081810360008301526154078185614ffa565b90506154166020830184615228565b9392505050565b60006020820190508181036000830152615436816150b3565b9050919050565b6000602082019050818103600083015261545781846150d6565b905092915050565b60006020820190506154746000830184615228565b92915050565b600060408201905061548f6000830185615228565b61549c6020830184614fb2565b9392505050565b60006080820190506154b86000830187615228565b81810360208301526154ca8186615033565b905081810360408301526154de8185615033565b905081810360608301526154f28184615033565b905095945050505050565b60006040820190506155126000830185615228565b61551f6020830184615228565b9392505050565b6000615530615541565b905061553c82826158aa565b919050565b6000604051905090565b600067ffffffffffffffff82111561556657615565615a0f565b5b61556f82615a52565b9050602081019050919050565b6000819050602082019050919050565b6000819050602082019050919050565b6000819050602082019050919050565b6000819050602082019050919050565b60008190508160005260206000209050919050565b600081519050919050565b600081519050919050565b600081519050919050565b600081519050919050565b600081519050919050565b6000602082019050919050565b6000602082019050919050565b6000602082019050919050565b6000602082019050919050565b600082825260208201905092915050565b600082825260208201905092915050565b600082825260208201905092915050565b600082825260208201905092915050565b600082825260208201905092915050565b600082825260208201905092915050565b60006156ad82615808565b91506156b883615808565b9250827fffffffffffffffffffffffffffffffffffffffffffffffffffffffffffffffff038211156156ed576156ec615924565b5b828201905092915050565b600061570382615808565b915061570e83615808565b92508261571e5761571d615953565b5b828204905092915050565b600061573482615808565b915061573f83615808565b9250817fffffffffffffffffffffffffffffffffffffffffffffffffffffffffffffffff048311821515161561577857615777615924565b5b828202905092915050565b600061578e82615808565b915061579983615808565b9250828210156157ac576157ab615924565b5b828203905092915050565b60006157c2826157e8565b9050919050565b60008115159050919050565b60008190506157e382615ab2565b919050565b600073ffffffffffffffffffffffffffffffffffffffff82169050919050565b6000819050919050565b600061581d826157d5565b9050919050565b600061582f82615808565b9050919050565b82818337600083830152505050565b60005b83811015615863578082015181840152602081019050615848565b83811115615872576000848401525b50505050565b6000600282049050600182168061589057607f821691505b602082108114156158a4576158a36159b1565b5b50919050565b6158b382615a52565b810181811067ffffffffffffffff821117156158d2576158d1615a0f565b5b80604052505050565b60006158e682615808565b91507fffffffffffffffffffffffffffffffffffffffffffffffffffffffffffffffff82141561591957615918615924565b5b600182019050919050565b7f4e487b7100000000000000000000000000000000000000000000000000000000600052601160045260246000fd5b7f4e487b7100000000000000000000000000000000000000000000000000000000600052601260045260246000fd5b7f4e487b7100000000000000000000000000000000000000000000000000000000600052602160045260246000fd5b7f4e487b7100000000000000000000000000000000000000000000000000000000600052602260045260246000fd5b7f4e487b7100000000000000000000000000000000000000000000000000000000600052603260045260246000fd5b7f4e487b7100000000000000000000000000000000000000000000000000000000600052604160045260246000fd5b600080fd5b600080fd5b600080fd5b600080fd5b6000601f19601f8301169050919050565b7f43616e277420656e6420726567697374726174696f6e2077697468207a65726f60008201527f2072656769737472616e74732100000000000000000000000000000000000000602082015250565b60048110615ac357615ac2615982565b5b50565b615acf816157b7565b8114615ada57600080fd5b50565b615ae681615808565b8114615af157600080fd5b5056fea2646970667358221220dbb68501889d1f5fe7b5826fd497d4fab841d1607dc7f8046cd2cac1ccaa300564736f6c63430008070033",
  "immutableReferences": {},
  "source": "// SPDX-License-Identifier: MIT\npragma solidity ^0.8.0;\n\nimport \"../roles/AdminsManager.sol\";\n\ncontract EthDropCore is AdminsManager {\n    // Set in case the core contract is broken and an upgrade is required\n    address public newContractAddress;\n\n    /// @notice Creates the main EthDrop smart contract instance.\n    constructor () {\n        // Starts paused.\n\n        // TODO \n        paused = false;\n\n        // the creator of the contract is the initial CEO\n        ceoAddress = msg.sender;\n\n    }\n\n    /// @dev Used to mark the smart contract as upgraded, in case there is a serious\n    ///  breaking bug. This method does nothing but keep track of the new contract and\n    ///  emit a message indicating that the new address is set. It's up to clients of this\n    ///  contract to update to the new contract address in that case. (This contract will\n    ///  be paused indefinitely if such an upgrade takes place.)\n    /// @param _v2Address new address\n    function setNewAddress(address _v2Address) external onlyCEO whenPaused {\n        // See README.md for updgrade plan\n        newContractAddress = _v2Address;\n        emit ContractUpgrade(_v2Address);\n    }\n\n    function foobar() external pure returns (string memory) {\n        return \"foobarrrrrrr!\";\n    }\n}",
  "sourcePath": "/Users/jim/Git-Projects/EthDrop/contracts/core/EthDropCore.sol",
  "compiler": {
    "name": "solc",
    "version": "0.8.7+commit.e28d00a7.Emscripten.clang"
  },
  "schemaVersion": "3.4.2",
  "updatedAt": "2021-08-14T23:03:09.416Z",
  "networkType": "ethereum",
  "devdoc": {
    "kind": "dev",
    "methods": {
      "pause()": {
        "details": "Called by any \"C-level\" role to pause the contract. Used only when  a bug or exploit is detected and we need to limit damage."
      },
      "setCEO(address)": {
        "details": "Assigns a new address to act as the CEO. Only available to the current CEO.",
        "params": {
          "_newCEO": "The address of the new CEO"
        }
      },
      "setCFO(address)": {
        "details": "Assigns a new address to act as the CFO. Only available to the current CEO.",
        "params": {
          "_newCFO": "The address of the new CFO"
        }
      },
      "setCOO(address)": {
        "details": "Assigns a new address to act as the COO. Only available to the current CEO.",
        "params": {
          "_newCOO": "The address of the new COO"
        }
      },
      "setNewAddress(address)": {
        "details": "Used to mark the smart contract as upgraded, in case there is a serious  breaking bug. This method does nothing but keep track of the new contract and  emit a message indicating that the new address is set. It's up to clients of this  contract to update to the new contract address in that case. (This contract will  be paused indefinitely if such an upgrade takes place.)",
        "params": {
          "_v2Address": "new address"
        }
      },
      "unpause()": {
        "details": "Unpauses the smart contract. Can only be called by the CEO, since  one reason we may pause the contract is when CFO or COO accounts are  compromised."
      }
    },
    "version": 1
  },
  "userdoc": {
    "kind": "user",
    "methods": {
      "constructor": {
        "notice": "Creates the main EthDrop smart contract instance."
      },
      "unpause()": {
        "notice": "This is public rather than external so it can be called by  derived contracts."
      }
    },
    "version": 1
  }
}