{
  "contractName": "RecipientsManager",
  "abi": [
    {
      "inputs": [],
      "stateMutability": "nonpayable",
      "type": "constructor"
    },
    {
      "anonymous": false,
      "inputs": [
        {
          "indexed": false,
          "internalType": "address",
          "name": "newContract",
          "type": "address"
        }
      ],
      "name": "ContractUpgrade",
      "type": "event"
    },
    {
      "anonymous": false,
      "inputs": [
        {
          "indexed": true,
          "internalType": "address",
          "name": "account",
          "type": "address"
        },
        {
          "indexed": false,
          "internalType": "uint256",
          "name": "groupId",
          "type": "uint256"
        }
      ],
      "name": "EligibleRecipientAdded",
      "type": "event"
    },
    {
      "anonymous": false,
      "inputs": [
        {
          "indexed": true,
          "internalType": "address",
          "name": "account",
          "type": "address"
        },
        {
          "indexed": false,
          "internalType": "uint256",
          "name": "groupId",
          "type": "uint256"
        }
      ],
      "name": "EligibleRecipientRemoved",
      "type": "event"
    },
    {
      "anonymous": false,
      "inputs": [],
      "name": "EventClose",
      "type": "event"
    },
    {
      "anonymous": false,
      "inputs": [
        {
          "indexed": true,
          "internalType": "address",
          "name": "account",
          "type": "address"
        },
        {
          "indexed": false,
          "internalType": "uint256",
          "name": "groupId",
          "type": "uint256"
        }
      ],
      "name": "RecipientRegistered",
      "type": "event"
    },
    {
      "anonymous": false,
      "inputs": [],
      "name": "RegistrationOpen",
      "type": "event"
    },
    {
      "anonymous": false,
      "inputs": [
        {
          "indexed": false,
          "internalType": "address",
          "name": "from",
          "type": "address"
        },
        {
          "indexed": false,
          "internalType": "address",
          "name": "to",
          "type": "address"
        }
      ],
      "name": "Transfer",
      "type": "event"
    },
    {
      "anonymous": false,
      "inputs": [
        {
          "indexed": true,
          "internalType": "address",
          "name": "account",
          "type": "address"
        },
        {
          "indexed": false,
          "internalType": "uint256",
          "name": "groupId",
          "type": "uint256"
        }
      ],
      "name": "WinningsClaimed",
      "type": "event"
    },
    {
      "anonymous": false,
      "inputs": [],
      "name": "WinningsClaimingOpen",
      "type": "event"
    },
    {
      "inputs": [],
      "name": "ceoAddress",
      "outputs": [
        {
          "internalType": "address",
          "name": "",
          "type": "address"
        }
      ],
      "stateMutability": "view",
      "type": "function",
      "constant": true
    },
    {
      "inputs": [],
      "name": "cfoAddress",
      "outputs": [
        {
          "internalType": "address",
          "name": "",
          "type": "address"
        }
      ],
      "stateMutability": "view",
      "type": "function",
      "constant": true
    },
    {
      "inputs": [],
      "name": "cooAddress",
      "outputs": [
        {
          "internalType": "address",
          "name": "",
          "type": "address"
        }
      ],
      "stateMutability": "view",
      "type": "function",
      "constant": true
    },
    {
      "inputs": [],
      "name": "getCFO",
      "outputs": [
        {
          "internalType": "address",
          "name": "",
          "type": "address"
        }
      ],
      "stateMutability": "view",
      "type": "function",
      "constant": true
    },
    {
      "inputs": [],
      "name": "getCOO",
      "outputs": [
        {
          "internalType": "address",
          "name": "",
          "type": "address"
        }
      ],
      "stateMutability": "view",
      "type": "function",
      "constant": true
    },
    {
      "inputs": [
        {
          "internalType": "uint256",
          "name": "groupId",
          "type": "uint256"
        }
      ],
      "name": "getGroupEventData",
      "outputs": [
        {
          "internalType": "enum EthDropBase.EventState",
          "name": "",
          "type": "uint8"
        },
        {
          "internalType": "uint256",
          "name": "",
          "type": "uint256"
        },
        {
          "internalType": "uint256",
          "name": "",
          "type": "uint256"
        },
        {
          "internalType": "uint256",
          "name": "",
          "type": "uint256"
        },
        {
          "internalType": "uint256",
          "name": "",
          "type": "uint256"
        }
      ],
      "stateMutability": "view",
      "type": "function",
      "constant": true
    },
    {
      "inputs": [],
      "name": "getGroupIds",
      "outputs": [
        {
          "internalType": "uint256[]",
          "name": "",
          "type": "uint256[]"
        }
      ],
      "stateMutability": "view",
      "type": "function",
      "constant": true
    },
    {
      "inputs": [],
      "name": "getGroupNames",
      "outputs": [
        {
          "internalType": "string[]",
          "name": "",
          "type": "string[]"
        }
      ],
      "stateMutability": "view",
      "type": "function",
      "constant": true
    },
    {
      "inputs": [],
      "name": "getString",
      "outputs": [
        {
          "internalType": "string",
          "name": "",
          "type": "string"
        }
      ],
      "stateMutability": "view",
      "type": "function",
      "constant": true
    },
    {
      "inputs": [],
      "name": "isCEO",
      "outputs": [
        {
          "internalType": "bool",
          "name": "",
          "type": "bool"
        }
      ],
      "stateMutability": "view",
      "type": "function",
      "constant": true
    },
    {
      "inputs": [],
      "name": "isCFO",
      "outputs": [
        {
          "internalType": "bool",
          "name": "",
          "type": "bool"
        }
      ],
      "stateMutability": "view",
      "type": "function",
      "constant": true
    },
    {
      "inputs": [],
      "name": "isCOO",
      "outputs": [
        {
          "internalType": "bool",
          "name": "",
          "type": "bool"
        }
      ],
      "stateMutability": "view",
      "type": "function",
      "constant": true
    },
    {
      "inputs": [],
      "name": "isPaused",
      "outputs": [
        {
          "internalType": "bool",
          "name": "",
          "type": "bool"
        }
      ],
      "stateMutability": "view",
      "type": "function",
      "constant": true
    },
    {
      "inputs": [],
      "name": "pause",
      "outputs": [],
      "stateMutability": "nonpayable",
      "type": "function"
    },
    {
      "inputs": [],
      "name": "paused",
      "outputs": [
        {
          "internalType": "bool",
          "name": "",
          "type": "bool"
        }
      ],
      "stateMutability": "view",
      "type": "function",
      "constant": true
    },
    {
      "inputs": [
        {
          "internalType": "address",
          "name": "_newCEO",
          "type": "address"
        }
      ],
      "name": "setCEO",
      "outputs": [],
      "stateMutability": "nonpayable",
      "type": "function"
    },
    {
      "inputs": [
        {
          "internalType": "address",
          "name": "_newCFO",
          "type": "address"
        }
      ],
      "name": "setCFO",
      "outputs": [],
      "stateMutability": "nonpayable",
      "type": "function"
    },
    {
      "inputs": [
        {
          "internalType": "address",
          "name": "_newCOO",
          "type": "address"
        }
      ],
      "name": "setCOO",
      "outputs": [],
      "stateMutability": "nonpayable",
      "type": "function"
    },
    {
      "inputs": [
        {
          "internalType": "string",
          "name": "_s",
          "type": "string"
        }
      ],
      "name": "setString",
      "outputs": [],
      "stateMutability": "nonpayable",
      "type": "function"
    },
    {
      "inputs": [],
      "name": "stringgg",
      "outputs": [
        {
          "internalType": "string",
          "name": "",
          "type": "string"
        }
      ],
      "stateMutability": "view",
      "type": "function",
      "constant": true
    },
    {
      "inputs": [],
      "name": "unpause",
      "outputs": [
        {
          "internalType": "bool",
          "name": "",
          "type": "bool"
        }
      ],
      "stateMutability": "nonpayable",
      "type": "function"
    },
    {
      "inputs": [],
      "name": "whoami",
      "outputs": [
        {
          "internalType": "address",
          "name": "",
          "type": "address"
        }
      ],
      "stateMutability": "view",
      "type": "function",
      "constant": true
    },
    {
      "inputs": [
        {
          "internalType": "address",
          "name": "account",
          "type": "address"
        },
        {
          "internalType": "uint256",
          "name": "groupId",
          "type": "uint256"
        }
      ],
      "name": "isEligibleRecipient",
      "outputs": [
        {
          "internalType": "bool",
          "name": "",
          "type": "bool"
        }
      ],
      "stateMutability": "view",
      "type": "function",
      "constant": true
    },
    {
      "inputs": [
        {
          "internalType": "uint256",
          "name": "groupId",
          "type": "uint256"
        }
      ],
      "name": "amIEligibleRecipient",
      "outputs": [
        {
          "internalType": "bool",
          "name": "",
          "type": "bool"
        }
      ],
      "stateMutability": "view",
      "type": "function",
      "constant": true
    },
    {
      "inputs": [
        {
          "internalType": "address",
          "name": "account",
          "type": "address"
        },
        {
          "internalType": "uint256",
          "name": "groupId",
          "type": "uint256"
        }
      ],
      "name": "isRegisteredRecipient",
      "outputs": [
        {
          "internalType": "bool",
          "name": "",
          "type": "bool"
        }
      ],
      "stateMutability": "view",
      "type": "function",
      "constant": true
    },
    {
      "inputs": [
        {
          "internalType": "uint256",
          "name": "groupId",
          "type": "uint256"
        }
      ],
      "name": "amIRegisteredRecipient",
      "outputs": [
        {
          "internalType": "bool",
          "name": "",
          "type": "bool"
        }
      ],
      "stateMutability": "view",
      "type": "function",
      "constant": true
    },
    {
      "inputs": [
        {
          "internalType": "uint256",
          "name": "groupId",
          "type": "uint256"
        }
      ],
      "name": "registerForEvent",
      "outputs": [],
      "stateMutability": "nonpayable",
      "type": "function"
    },
    {
      "inputs": [
        {
          "internalType": "uint256",
          "name": "groupId",
          "type": "uint256"
        }
      ],
      "name": "doIHaveClaimableWinnings",
      "outputs": [
        {
          "internalType": "bool",
          "name": "",
          "type": "bool"
        }
      ],
      "stateMutability": "view",
      "type": "function",
      "constant": true
    },
    {
      "inputs": [
        {
          "internalType": "uint256",
          "name": "groupId",
          "type": "uint256"
        }
      ],
      "name": "claimWinnings",
      "outputs": [],
      "stateMutability": "nonpayable",
      "type": "function"
    },
    {
      "inputs": [
        {
          "internalType": "uint256",
          "name": "groupId",
          "type": "uint256"
        }
      ],
      "name": "getEligibleRecipientAddresses",
      "outputs": [
        {
          "internalType": "address[]",
          "name": "",
          "type": "address[]"
        }
      ],
      "stateMutability": "view",
      "type": "function",
      "constant": true
    },
    {
      "inputs": [
        {
          "internalType": "uint256",
          "name": "groupId",
          "type": "uint256"
        }
      ],
      "name": "getEligibleRecipientIsEligibilityEnabled",
      "outputs": [
        {
          "internalType": "bool[]",
          "name": "",
          "type": "bool[]"
        }
      ],
      "stateMutability": "view",
      "type": "function",
      "constant": true
    },
    {
      "inputs": [
        {
          "internalType": "uint256",
          "name": "groupId",
          "type": "uint256"
        }
      ],
      "name": "getRegisteredRecipients",
      "outputs": [
        {
          "internalType": "address[]",
          "name": "",
          "type": "address[]"
        }
      ],
      "stateMutability": "view",
      "type": "function",
      "constant": true
    }
  ],
  "bytecode": "0x60806040526000600360146101000a81548160ff02191690831515021790555060056004556000600b5534801561003557600080fd5b506123d7806100456000396000f3fe608060405234801561001057600080fd5b50600436106101f05760003560e01c80637d837ce51161010f578063b3b36bb3116100a2578063e513b7a911610071578063e513b7a9146105b1578063f4a02e70146105cf578063f89e9cb9146105ed578063fc5fd6e41461061d576101f0565b8063b3b36bb314610539578063c02b8b2c14610557578063c6db509414610575578063d5f016c314610593576101f0565b80639393ae37116100de5780639393ae37146104af5780639bda8796146104cd578063b047fb50146104fd578063b187bd261461051b576101f0565b80637d837ce51461043b5780637fcaf6661461046b5780638456cb591461048757806389ea642f14610491576101f0565b806344b2983b116101875780635c975abb116101565780635c975abb146103b35780635e82c1fc146103d1578063677bd9ff146104015780637b936ac21461041d576101f0565b806344b2983b146103035780634635509b146103335780634e0a33791461036757806355b57ec114610383576101f0565b80632ba73c15116101c35780632ba73c151461027d57806338f0b656146102995780633f4ba83a146102c9578063406db843146102e7576101f0565b80630519ce79146101f557806306cc4922146102135780630a0f81681461024357806327d7874c14610261575b600080fd5b6101fd61063b565b60405161020a9190611e6e565b60405180910390f35b61022d60048036038101906102289190611b7b565b610661565b60405161023a9190611f11565b60405180910390f35b61024b61068e565b6040516102589190611e6e565b60405180910390f35b61027b60048036038101906102769190611ac5565b6106b4565b005b61029760048036038101906102929190611ac5565b61078c565b005b6102b360048036038101906102ae9190611b7b565b610864565b6040516102c09190611f11565b60405180910390f35b6102d1610891565b6040516102de9190611f11565b60405180910390f35b61030160048036038101906102fc9190611b7b565b610936565b005b61031d60048036038101906103189190611b7b565b610abf565b60405161032a9190611e89565b60405180910390f35b61034d60048036038101906103489190611b7b565b610b60565b60405161035e959493929190611f2c565b60405180910390f35b610381600480360381019061037c9190611ac5565b610ee3565b005b61039d60048036038101906103989190611b7b565b610f81565b6040516103aa9190611eab565b60405180910390f35b6103bb611011565b6040516103c89190611f11565b60405180910390f35b6103eb60048036038101906103e69190611af2565b611024565b6040516103f89190611f11565b60405180910390f35b61041b60048036038101906104169190611b7b565b6110ad565b005b610425611292565b6040516104329190611e6e565b60405180910390f35b61045560048036038101906104509190611af2565b6112bc565b6040516104629190611f11565b60405180910390f35b61048560048036038101906104809190611b32565b611345565b005b61048f61135f565b005b6104996114a0565b6040516104a69190611f7f565b60405180910390f35b6104b7611532565b6040516104c49190611f11565b60405180910390f35b6104e760048036038101906104e29190611b7b565b61158a565b6040516104f49190611e89565b60405180910390f35b61050561162b565b6040516105129190611e6e565b60405180910390f35b610523611651565b6040516105309190611f11565b60405180910390f35b610541611668565b60405161054e9190611e6e565b60405180910390f35b61055f611670565b60405161056c9190611eef565b60405180910390f35b61057d6116c8565b60405161058a9190611f7f565b60405180910390f35b61059b611756565b6040516105a89190611ecd565b60405180910390f35b6105b961182f565b6040516105c69190611f11565b60405180910390f35b6105d7611887565b6040516105e49190611f11565b60405180910390f35b61060760048036038101906106029190611b7b565b6118df565b6040516106149190611f11565b60405180910390f35b61062561195e565b6040516106329190611e6e565b60405180910390f35b600260009054906101000a900473ffffffffffffffffffffffffffffffffffffffff1681565b6000600360149054906101000a900460ff161561067d57600080fd5b6106873383611024565b9050919050565b600160009054906101000a900473ffffffffffffffffffffffffffffffffffffffff1681565b600160009054906101000a900473ffffffffffffffffffffffffffffffffffffffff1673ffffffffffffffffffffffffffffffffffffffff163373ffffffffffffffffffffffffffffffffffffffff161461070e57600080fd5b600073ffffffffffffffffffffffffffffffffffffffff168173ffffffffffffffffffffffffffffffffffffffff16141561074857600080fd5b80600160006101000a81548173ffffffffffffffffffffffffffffffffffffffff021916908373ffffffffffffffffffffffffffffffffffffffff16021790555050565b600160009054906101000a900473ffffffffffffffffffffffffffffffffffffffff1673ffffffffffffffffffffffffffffffffffffffff163373ffffffffffffffffffffffffffffffffffffffff16146107e657600080fd5b600073ffffffffffffffffffffffffffffffffffffffff168173ffffffffffffffffffffffffffffffffffffffff16141561082057600080fd5b80600360006101000a81548173ffffffffffffffffffffffffffffffffffffffff021916908373ffffffffffffffffffffffffffffffffffffffff16021790555050565b6000600360149054906101000a900460ff161561088057600080fd5b61088a33836112bc565b9050919050565b6000600160009054906101000a900473ffffffffffffffffffffffffffffffffffffffff1673ffffffffffffffffffffffffffffffffffffffff163373ffffffffffffffffffffffffffffffffffffffff16146108ed57600080fd5b600360149054906101000a900460ff1661090657600080fd5b6000600360146101000a81548160ff021916908315150217905550600360149054906101000a900460ff16905090565b806109413382611024565b61094a57600080fd5b600360149054906101000a900460ff161561096457600080fd5b60016014600084815260200190815260200160002060003373ffffffffffffffffffffffffffffffffffffffff1673ffffffffffffffffffffffffffffffffffffffff16815260200190815260200160002060006101000a81548160ff02191690831515021790555060156000838152602001908152602001600020339080600181540180825580915050600190039060005260206000200160009091909190916101000a81548173ffffffffffffffffffffffffffffffffffffffff021916908373ffffffffffffffffffffffffffffffffffffffff160217905550600760008381526020019081526020016000206006016000815480929190610a6890612235565b91905055503373ffffffffffffffffffffffffffffffffffffffff167f0695e999be8100bdb5bee8612337296508d527eae78c65b8f170eacb5a3b439d83604051610ab39190611fa1565b60405180910390a25050565b606060156000838152602001908152602001600020805480602002602001604051908101604052809291908181526020018280548015610b5457602002820191906000526020600020905b8160009054906101000a900473ffffffffffffffffffffffffffffffffffffffff1673ffffffffffffffffffffffffffffffffffffffff1681526020019060010190808311610b0a575b50505050509050919050565b60008060008060008060076000888152602001908152602001600020604051806101c001604052908160008201548152602001600182018054610ba2906121d2565b80601f0160208091040260200160405190810160405280929190818152602001828054610bce906121d2565b8015610c1b5780601f10610bf057610100808354040283529160200191610c1b565b820191906000526020600020905b815481529060010190602001808311610bfe57829003601f168201915b505050505081526020016002820160009054906101000a900460ff166003811115610c4957610c486122ad565b5b6003811115610c5b57610c5a6122ad565b5b815260200160038201548152602001600482015481526020016005820154815260200160068201548152602001600782018054610c97906121d2565b80601f0160208091040260200160405190810160405280929190818152602001828054610cc3906121d2565b8015610d105780601f10610ce557610100808354040283529160200191610d10565b820191906000526020600020905b815481529060010190602001808311610cf357829003601f168201915b50505050508152602001600882018054610d29906121d2565b80601f0160208091040260200160405190810160405280929190818152602001828054610d55906121d2565b8015610da25780601f10610d7757610100808354040283529160200191610da2565b820191906000526020600020905b815481529060010190602001808311610d8557829003601f168201915b50505050508152602001600982018054610dbb906121d2565b80601f0160208091040260200160405190810160405280929190818152602001828054610de7906121d2565b8015610e345780601f10610e0957610100808354040283529160200191610e34565b820191906000526020600020905b815481529060010190602001808311610e1757829003601f168201915b50505050508152602001600a820160009054906101000a900473ffffffffffffffffffffffffffffffffffffffff1673ffffffffffffffffffffffffffffffffffffffff1673ffffffffffffffffffffffffffffffffffffffff168152602001600b8201548152602001600c8201548152602001600d82015481525050905080604001518160c00151826101600151836101800151846101a00151955095509550955095505091939590929450565b600160009054906101000a900473ffffffffffffffffffffffffffffffffffffffff1673ffffffffffffffffffffffffffffffffffffffff163373ffffffffffffffffffffffffffffffffffffffff1614610f3d57600080fd5b80600260006101000a81548173ffffffffffffffffffffffffffffffffffffffff021916908373ffffffffffffffffffffffffffffffffffffffff16021790555050565b60606013600083815260200190815260200160002080548060200260200160405190810160405280929190818152602001828054801561100557602002820191906000526020600020906000905b82829054906101000a900460ff16151581526020019060010190602082600001049283019260010382029150808411610fcf5790505b50505050509050919050565b600360149054906101000a900460ff1681565b6000600360149054906101000a900460ff161561104057600080fd5b600115156011600084815260200190815260200160002060008573ffffffffffffffffffffffffffffffffffffffff1673ffffffffffffffffffffffffffffffffffffffff16815260200190815260200160002060009054906101000a900460ff16151514905092915050565b806110b833826112bc565b6110c157600080fd5b813360011515600c600084815260200190815260200160002060003373ffffffffffffffffffffffffffffffffffffffff1673ffffffffffffffffffffffffffffffffffffffff16815260200190815260200160002060009054906101000a900460ff161515141561113257600080fd5b600360149054906101000a900460ff161561114c57600080fd5b6001600c600086815260200190815260200160002060003373ffffffffffffffffffffffffffffffffffffffff1673ffffffffffffffffffffffffffffffffffffffff16815260200190815260200160002060006101000a81548160ff02191690831515021790555060076000858152602001908152602001600020600d0160008154809291906111dc90612235565b91905055503373ffffffffffffffffffffffffffffffffffffffff166108fc60076000878152602001908152602001600020600c01549081150290604051600060405180830381858888f1935050505015801561123d573d6000803e3d6000fd5b503373ffffffffffffffffffffffffffffffffffffffff167f1a31e733a172afcf46074b3106c17f0c298e226442682a03c1e99ce256139ec2856040516112849190611fa1565b60405180910390a250505050565b6000600260009054906101000a900473ffffffffffffffffffffffffffffffffffffffff16905090565b6000600360149054906101000a900460ff16156112d857600080fd5b600115156014600084815260200190815260200160002060008573ffffffffffffffffffffffffffffffffffffffff1673ffffffffffffffffffffffffffffffffffffffff16815260200190815260200160002060009054906101000a900460ff16151514905092915050565b806000908051906020019061135b929190611988565b5050565b600360009054906101000a900473ffffffffffffffffffffffffffffffffffffffff1673ffffffffffffffffffffffffffffffffffffffff163373ffffffffffffffffffffffffffffffffffffffff1614806114085750600160009054906101000a900473ffffffffffffffffffffffffffffffffffffffff1673ffffffffffffffffffffffffffffffffffffffff163373ffffffffffffffffffffffffffffffffffffffff16145b806114605750600260009054906101000a900473ffffffffffffffffffffffffffffffffffffffff1673ffffffffffffffffffffffffffffffffffffffff163373ffffffffffffffffffffffffffffffffffffffff16145b61146957600080fd5b600360149054906101000a900460ff161561148357600080fd5b6001600360146101000a81548160ff021916908315150217905550565b6060600080546114af906121d2565b80601f01602080910402602001604051908101604052809291908181526020018280546114db906121d2565b80156115285780601f106114fd57610100808354040283529160200191611528565b820191906000526020600020905b81548152906001019060200180831161150b57829003601f168201915b5050505050905090565b6000600260009054906101000a900473ffffffffffffffffffffffffffffffffffffffff1673ffffffffffffffffffffffffffffffffffffffff163373ffffffffffffffffffffffffffffffffffffffff1614905090565b60606012600083815260200190815260200160002080548060200260200160405190810160405280929190818152602001828054801561161f57602002820191906000526020600020905b8160009054906101000a900473ffffffffffffffffffffffffffffffffffffffff1673ffffffffffffffffffffffffffffffffffffffff16815260200190600101908083116115d5575b50505050509050919050565b600360009054906101000a900473ffffffffffffffffffffffffffffffffffffffff1681565b6000600360149054906101000a900460ff16905090565b600033905090565b606060058054806020026020016040519081016040528092919081815260200182805480156116be57602002820191906000526020600020905b8154815260200190600101908083116116aa575b5050505050905090565b600080546116d5906121d2565b80601f0160208091040260200160405190810160405280929190818152602001828054611701906121d2565b801561174e5780601f106117235761010080835404028352916020019161174e565b820191906000526020600020905b81548152906001019060200180831161173157829003601f168201915b505050505081565b60606006805480602002602001604051908101604052809291908181526020016000905b82821015611826578382906000526020600020018054611799906121d2565b80601f01602080910402602001604051908101604052809291908181526020018280546117c5906121d2565b80156118125780601f106117e757610100808354040283529160200191611812565b820191906000526020600020905b8154815290600101906020018083116117f557829003601f168201915b50505050508152602001906001019061177a565b50505050905090565b6000600160009054906101000a900473ffffffffffffffffffffffffffffffffffffffff1673ffffffffffffffffffffffffffffffffffffffff163373ffffffffffffffffffffffffffffffffffffffff1614905090565b6000600360009054906101000a900473ffffffffffffffffffffffffffffffffffffffff1673ffffffffffffffffffffffffffffffffffffffff163373ffffffffffffffffffffffffffffffffffffffff1614905090565b60006118eb33836112bc565b6118f85760009050611959565b600c600083815260200190815260200160002060003373ffffffffffffffffffffffffffffffffffffffff1673ffffffffffffffffffffffffffffffffffffffff16815260200190815260200160002060009054906101000a900460ff1690505b919050565b6000600360009054906101000a900473ffffffffffffffffffffffffffffffffffffffff16905090565b828054611994906121d2565b90600052602060002090601f0160209004810192826119b657600085556119fd565b82601f106119cf57805160ff19168380011785556119fd565b828001600101855582156119fd579182015b828111156119fc5782518255916020019190600101906119e1565b5b509050611a0a9190611a0e565b5090565b5b80821115611a27576000816000905550600101611a0f565b5090565b6000611a3e611a3984611fe1565b611fbc565b905082815260208101848484011115611a5a57611a5961233f565b5b611a65848285612190565b509392505050565b600081359050611a7c81612373565b92915050565b600082601f830112611a9757611a9661233a565b5b8135611aa7848260208601611a2b565b91505092915050565b600081359050611abf8161238a565b92915050565b600060208284031215611adb57611ada612349565b5b6000611ae984828501611a6d565b91505092915050565b60008060408385031215611b0957611b08612349565b5b6000611b1785828601611a6d565b9250506020611b2885828601611ab0565b9150509250929050565b600060208284031215611b4857611b47612349565b5b600082013567ffffffffffffffff811115611b6657611b65612344565b5b611b7284828501611a82565b91505092915050565b600060208284031215611b9157611b90612349565b5b6000611b9f84828501611ab0565b91505092915050565b6000611bb48383611c04565b60208301905092915050565b6000611bcc8383611db1565b60208301905092915050565b6000611be48383611dde565b905092915050565b6000611bf88383611e50565b60208301905092915050565b611c0d81612123565b82525050565b611c1c81612123565b82525050565b6000611c2d82612052565b611c3781856120bd565b9350611c4283612012565b8060005b83811015611c73578151611c5a8882611ba8565b9750611c6583612089565b925050600181019050611c46565b5085935050505092915050565b6000611c8b8261205d565b611c9581856120ce565b9350611ca083612022565b8060005b83811015611cd1578151611cb88882611bc0565b9750611cc383612096565b925050600181019050611ca4565b5085935050505092915050565b6000611ce982612068565b611cf381856120df565b935083602082028501611d0585612032565b8060005b85811015611d415784840389528151611d228582611bd8565b9450611d2d836120a3565b925060208a01995050600181019050611d09565b50829750879550505050505092915050565b6000611d5e82612073565b611d6881856120f0565b9350611d7383612042565b8060005b83811015611da4578151611d8b8882611bec565b9750611d96836120b0565b925050600181019050611d77565b5085935050505092915050565b611dba81612135565b82525050565b611dc981612135565b82525050565b611dd88161217e565b82525050565b6000611de98261207e565b611df38185612101565b9350611e0381856020860161219f565b611e0c8161234e565b840191505092915050565b6000611e228261207e565b611e2c8185612112565b9350611e3c81856020860161219f565b611e458161234e565b840191505092915050565b611e5981612174565b82525050565b611e6881612174565b82525050565b6000602082019050611e836000830184611c13565b92915050565b60006020820190508181036000830152611ea38184611c22565b905092915050565b60006020820190508181036000830152611ec58184611c80565b905092915050565b60006020820190508181036000830152611ee78184611cde565b905092915050565b60006020820190508181036000830152611f098184611d53565b905092915050565b6000602082019050611f266000830184611dc0565b92915050565b600060a082019050611f416000830188611dcf565b611f4e6020830187611e5f565b611f5b6040830186611e5f565b611f686060830185611e5f565b611f756080830184611e5f565b9695505050505050565b60006020820190508181036000830152611f998184611e17565b905092915050565b6000602082019050611fb66000830184611e5f565b92915050565b6000611fc6611fd7565b9050611fd28282612204565b919050565b6000604051905090565b600067ffffffffffffffff821115611ffc57611ffb61230b565b5b6120058261234e565b9050602081019050919050565b6000819050602082019050919050565b6000819050602082019050919050565b6000819050602082019050919050565b6000819050602082019050919050565b600081519050919050565b600081519050919050565b600081519050919050565b600081519050919050565b600081519050919050565b6000602082019050919050565b6000602082019050919050565b6000602082019050919050565b6000602082019050919050565b600082825260208201905092915050565b600082825260208201905092915050565b600082825260208201905092915050565b600082825260208201905092915050565b600082825260208201905092915050565b600082825260208201905092915050565b600061212e82612154565b9050919050565b60008115159050919050565b600081905061214f8261235f565b919050565b600073ffffffffffffffffffffffffffffffffffffffff82169050919050565b6000819050919050565b600061218982612141565b9050919050565b82818337600083830152505050565b60005b838110156121bd5780820151818401526020810190506121a2565b838111156121cc576000848401525b50505050565b600060028204905060018216806121ea57607f821691505b602082108114156121fe576121fd6122dc565b5b50919050565b61220d8261234e565b810181811067ffffffffffffffff8211171561222c5761222b61230b565b5b80604052505050565b600061224082612174565b91507fffffffffffffffffffffffffffffffffffffffffffffffffffffffffffffffff8214156122735761227261227e565b5b600182019050919050565b7f4e487b7100000000000000000000000000000000000000000000000000000000600052601160045260246000fd5b7f4e487b7100000000000000000000000000000000000000000000000000000000600052602160045260246000fd5b7f4e487b7100000000000000000000000000000000000000000000000000000000600052602260045260246000fd5b7f4e487b7100000000000000000000000000000000000000000000000000000000600052604160045260246000fd5b600080fd5b600080fd5b600080fd5b600080fd5b6000601f19601f8301169050919050565b600481106123705761236f6122ad565b5b50565b61237c81612123565b811461238757600080fd5b50565b61239381612174565b811461239e57600080fd5b5056fea26469706673582212205398f5287ab15d3acfaea92382c810da51dcf04e7f5cc7c966b7457520ebfe3064736f6c63430008060033",
  "immutableReferences": {},
  "source": "// SPDX-License-Identifier: MIT\npragma solidity ^0.8.0;\n\nimport \"../core/EthDropBase.sol\";\n\ncontract RecipientsManager is EthDropBase {\n    event EligibleRecipientAdded(address indexed account, uint256 groupId);\n    event EligibleRecipientRemoved(address indexed account, uint256 groupId);\n\n    event RecipientRegistered(address indexed account, uint256 groupId);\n    event WinningsClaimed(address indexed account, uint256 groupId);\n\n    constructor() {}\n\n    modifier onlyEligibleRecipients(uint256 groupId) {\n        require(isEligibleRecipient(msg.sender, groupId));\n        _;\n    }\n\n    function isEligibleRecipient(address account, uint256 groupId)\n        public\n        view\n        whenNotPaused\n        returns (bool)\n    {\n        return eligibleRecipients[groupId][account] == true;\n    }\n\n    function amIEligibleRecipient(uint256 groupId)\n        external\n        view\n        whenNotPaused\n        returns (bool)\n    {\n        return isEligibleRecipient(msg.sender, groupId);\n    }\n\n    modifier onlyRegisteredRecipients(uint256 groupId) {\n        require(isRegisteredRecipient(msg.sender, groupId));\n        _;\n    }\n\n    modifier hasntAlreadyClaimedWinnings(uint256 groupId, address account) {\n        require(winningsCollected[groupId][msg.sender] != true);\n        _;\n    }\n\n    function isRegisteredRecipient(address account, uint256 groupId)\n        public\n        view\n        whenNotPaused\n        returns (bool)\n    {\n        return registeredRecipients[groupId][account] == true;\n    }\n\n    function amIRegisteredRecipient(uint256 groupId)\n        external\n        view\n        whenNotPaused\n        returns (bool)\n    {\n        return isRegisteredRecipient(msg.sender, groupId);\n    }\n\n    function registerForEvent(uint256 groupId)\n        external\n        onlyEligibleRecipients(groupId)\n        whenNotPaused\n    {\n        registeredRecipients[groupId][msg.sender] = true;\n        registeredRecipientsArray[groupId].push(msg.sender);\n        currentEvents[groupId].registeredRecipientsCount++;\n\n        emit RecipientRegistered(msg.sender, groupId);\n    }\n\n    function doIHaveClaimableWinnings(uint256 groupId)\n        external\n        view\n        returns (bool)\n    {\n\n        if (!isRegisteredRecipient(msg.sender, groupId)) {\n            return false;\n        }\n\n        return winningsCollected[groupId][msg.sender];\n    }\n\n    function claimWinnings(uint256 groupId)\n        external\n        onlyRegisteredRecipients(groupId)\n        hasntAlreadyClaimedWinnings(groupId, msg.sender)\n        whenNotPaused\n    {\n        winningsCollected[groupId][msg.sender] = true;\n        currentEvents[groupId].numberOfUsersWhoClaimedWinnings++;\n\n        payable(msg.sender).transfer(currentEvents[groupId].weiWinnings);\n\n        emit WinningsClaimed(msg.sender, groupId);\n    }\n\n    function getEligibleRecipientAddresses(uint256 groupId)\n        external\n        view\n        returns (address[] memory)\n    {\n        return eligibleRecipientsArray[groupId];\n    }\n\n    function getEligibleRecipientIsEligibilityEnabled(uint256 groupId)\n        external\n        view\n        returns (bool[] memory)\n    {\n        return eligibleRecipientsEligibilityIsEnabled[groupId];\n    }\n\n    function getRegisteredRecipients(uint256 groupId)\n        external\n        view\n        returns (address[] memory)\n    {\n        return registeredRecipientsArray[groupId];\n    }\n}\n",
  "sourcePath": "/Users/jim/Git-Projects/EthDrop/contracts/roles/RecipientsManager.sol",
  "compiler": {
    "name": "solc",
    "version": "0.8.6+commit.11564f7e.Emscripten.clang"
  },
  "schemaVersion": "3.4.1",
  "updatedAt": "2021-07-25T15:06:07.733Z",
  "networkType": "ethereum",
  "devdoc": {
    "kind": "dev",
    "methods": {
      "pause()": {
        "details": "Called by any \"C-level\" role to pause the contract. Used only when  a bug or exploit is detected and we need to limit damage."
      },
      "setCEO(address)": {
        "details": "Assigns a new address to act as the CEO. Only available to the current CEO.",
        "params": {
          "_newCEO": "The address of the new CEO"
        }
      },
      "setCFO(address)": {
        "details": "Assigns a new address to act as the CFO. Only available to the current CEO.",
        "params": {
          "_newCFO": "The address of the new CFO"
        }
      },
      "setCOO(address)": {
        "details": "Assigns a new address to act as the COO. Only available to the current CEO.",
        "params": {
          "_newCOO": "The address of the new COO"
        }
      },
      "unpause()": {
        "details": "Unpauses the smart contract. Can only be called by the CEO, since  one reason we may pause the contract is when CFO or COO accounts are  compromised."
      }
    },
    "version": 1
  },
  "userdoc": {
    "kind": "user",
    "methods": {
      "unpause()": {
        "notice": "This is public rather than external so it can be called by  derived contracts."
      }
    },
    "version": 1
  }
}