{
  "contractName": "RecipientsManager",
  "abi": [
    {
      "inputs": [],
      "stateMutability": "nonpayable",
      "type": "constructor"
    },
    {
      "anonymous": false,
      "inputs": [
        {
          "indexed": false,
          "internalType": "address",
          "name": "newContract",
          "type": "address"
        }
      ],
      "name": "ContractUpgrade",
      "type": "event"
    },
    {
      "anonymous": false,
      "inputs": [
        {
          "indexed": true,
          "internalType": "address",
          "name": "account",
          "type": "address"
        },
        {
          "indexed": false,
          "internalType": "uint256",
          "name": "groupId",
          "type": "uint256"
        }
      ],
      "name": "EligibleRecipientAdded",
      "type": "event"
    },
    {
      "anonymous": false,
      "inputs": [
        {
          "indexed": true,
          "internalType": "address",
          "name": "account",
          "type": "address"
        },
        {
          "indexed": false,
          "internalType": "uint256",
          "name": "groupId",
          "type": "uint256"
        }
      ],
      "name": "EligibleRecipientRemoved",
      "type": "event"
    },
    {
      "anonymous": false,
      "inputs": [],
      "name": "EventClose",
      "type": "event"
    },
    {
      "anonymous": false,
      "inputs": [
        {
          "indexed": true,
          "internalType": "address",
          "name": "account",
          "type": "address"
        },
        {
          "indexed": false,
          "internalType": "uint256",
          "name": "groupId",
          "type": "uint256"
        }
      ],
      "name": "RecipientRegistered",
      "type": "event"
    },
    {
      "anonymous": false,
      "inputs": [],
      "name": "RegistrationOpen",
      "type": "event"
    },
    {
      "anonymous": false,
      "inputs": [
        {
          "indexed": false,
          "internalType": "address",
          "name": "from",
          "type": "address"
        },
        {
          "indexed": false,
          "internalType": "address",
          "name": "to",
          "type": "address"
        }
      ],
      "name": "Transfer",
      "type": "event"
    },
    {
      "anonymous": false,
      "inputs": [
        {
          "indexed": true,
          "internalType": "address",
          "name": "account",
          "type": "address"
        },
        {
          "indexed": false,
          "internalType": "uint256",
          "name": "groupId",
          "type": "uint256"
        }
      ],
      "name": "WinningsClaimed",
      "type": "event"
    },
    {
      "anonymous": false,
      "inputs": [],
      "name": "WinningsClaimingOpen",
      "type": "event"
    },
    {
      "inputs": [],
      "name": "ceoAddress",
      "outputs": [
        {
          "internalType": "address",
          "name": "",
          "type": "address"
        }
      ],
      "stateMutability": "view",
      "type": "function",
      "constant": true
    },
    {
      "inputs": [],
      "name": "cfoAddress",
      "outputs": [
        {
          "internalType": "address",
          "name": "",
          "type": "address"
        }
      ],
      "stateMutability": "view",
      "type": "function",
      "constant": true
    },
    {
      "inputs": [],
      "name": "cooAddress",
      "outputs": [
        {
          "internalType": "address",
          "name": "",
          "type": "address"
        }
      ],
      "stateMutability": "view",
      "type": "function",
      "constant": true
    },
    {
      "inputs": [],
      "name": "getGroupIds",
      "outputs": [
        {
          "internalType": "uint256[]",
          "name": "",
          "type": "uint256[]"
        }
      ],
      "stateMutability": "view",
      "type": "function",
      "constant": true
    },
    {
      "inputs": [],
      "name": "getGroupNames",
      "outputs": [
        {
          "internalType": "string[]",
          "name": "",
          "type": "string[]"
        }
      ],
      "stateMutability": "view",
      "type": "function",
      "constant": true
    },
    {
      "inputs": [],
      "name": "isCEO",
      "outputs": [
        {
          "internalType": "bool",
          "name": "",
          "type": "bool"
        }
      ],
      "stateMutability": "view",
      "type": "function",
      "constant": true
    },
    {
      "inputs": [],
      "name": "isCFO",
      "outputs": [
        {
          "internalType": "bool",
          "name": "",
          "type": "bool"
        }
      ],
      "stateMutability": "view",
      "type": "function",
      "constant": true
    },
    {
      "inputs": [],
      "name": "isCOO",
      "outputs": [
        {
          "internalType": "bool",
          "name": "",
          "type": "bool"
        }
      ],
      "stateMutability": "view",
      "type": "function",
      "constant": true
    },
    {
      "inputs": [],
      "name": "pause",
      "outputs": [],
      "stateMutability": "nonpayable",
      "type": "function"
    },
    {
      "inputs": [],
      "name": "paused",
      "outputs": [
        {
          "internalType": "bool",
          "name": "",
          "type": "bool"
        }
      ],
      "stateMutability": "view",
      "type": "function",
      "constant": true
    },
    {
      "inputs": [
        {
          "internalType": "address",
          "name": "_newCEO",
          "type": "address"
        }
      ],
      "name": "setCEO",
      "outputs": [],
      "stateMutability": "nonpayable",
      "type": "function"
    },
    {
      "inputs": [
        {
          "internalType": "address",
          "name": "_newCFO",
          "type": "address"
        }
      ],
      "name": "setCFO",
      "outputs": [],
      "stateMutability": "nonpayable",
      "type": "function"
    },
    {
      "inputs": [
        {
          "internalType": "address",
          "name": "_newCOO",
          "type": "address"
        }
      ],
      "name": "setCOO",
      "outputs": [],
      "stateMutability": "nonpayable",
      "type": "function"
    },
    {
      "inputs": [],
      "name": "unpause",
      "outputs": [],
      "stateMutability": "nonpayable",
      "type": "function"
    },
    {
      "inputs": [
        {
          "internalType": "address",
          "name": "account",
          "type": "address"
        },
        {
          "internalType": "uint256",
          "name": "groupId",
          "type": "uint256"
        }
      ],
      "name": "isEligibleRecipient",
      "outputs": [
        {
          "internalType": "bool",
          "name": "",
          "type": "bool"
        }
      ],
      "stateMutability": "view",
      "type": "function",
      "constant": true
    },
    {
      "inputs": [
        {
          "internalType": "address",
          "name": "account",
          "type": "address"
        },
        {
          "internalType": "uint256",
          "name": "groupId",
          "type": "uint256"
        }
      ],
      "name": "isRegisteredRecipient",
      "outputs": [
        {
          "internalType": "bool",
          "name": "",
          "type": "bool"
        }
      ],
      "stateMutability": "view",
      "type": "function",
      "constant": true
    },
    {
      "inputs": [
        {
          "internalType": "uint256",
          "name": "groupId",
          "type": "uint256"
        }
      ],
      "name": "registerForEvent",
      "outputs": [],
      "stateMutability": "nonpayable",
      "type": "function"
    },
    {
      "inputs": [
        {
          "internalType": "uint256",
          "name": "groupId",
          "type": "uint256"
        }
      ],
      "name": "claimWinnings",
      "outputs": [],
      "stateMutability": "nonpayable",
      "type": "function"
    }
  ],
  "bytecode": "0x60806040526000600260146101000a81548160ff021916908315150217905550600560035534801561003057600080fd5b50611350806100406000396000f3fe608060405234801561001057600080fd5b50600436106101165760003560e01c8063677bd9ff116100a2578063b047fb5011610071578063b047fb5014610293578063c02b8b2c146102b1578063d5f016c3146102cf578063e513b7a9146102ed578063f4a02e701461030b57610116565b8063677bd9ff1461021f5780637d837ce51461023b5780638456cb591461026b5780639393ae371461027557610116565b80633f4ba83a116100e95780633f4ba83a1461018f578063406db843146101995780634e0a3379146101b55780635c975abb146101d15780635e82c1fc146101ef57610116565b80630519ce791461011b5780630a0f81681461013957806327d7874c146101575780632ba73c1514610173575b600080fd5b610123610329565b6040516101309190611032565b60405180910390f35b61014161034f565b60405161014e9190611032565b60405180910390f35b610171600480360381019061016c9190610e15565b610373565b005b61018d60048036038101906101889190610e15565b610448565b005b61019761051e565b005b6101b360048036038101906101ae9190610e82565b6105ac565b005b6101cf60048036038101906101ca9190610e15565b610735565b005b6101d961080b565b6040516101e691906110ac565b60405180910390f35b61020960048036038101906102049190610e42565b61081e565b60405161021691906110ac565b60405180910390f35b61023960048036038101906102349190610e82565b6108a7565b005b61025560048036038101906102509190610e42565b6109c5565b60405161026291906110ac565b60405180910390f35b610273610a4e565b005b61027d610b8d565b60405161028a91906110ac565b60405180910390f35b61029b610be5565b6040516102a89190611032565b60405180910390f35b6102b9610c0b565b6040516102c6919061108a565b60405180910390f35b6102d7610c63565b6040516102e49190611068565b60405180910390f35b6102f5610d3c565b60405161030291906110ac565b60405180910390f35b610313610d93565b60405161032091906110ac565b60405180910390f35b600160009054906101000a900473ffffffffffffffffffffffffffffffffffffffff1681565b60008054906101000a900473ffffffffffffffffffffffffffffffffffffffff1681565b60008054906101000a900473ffffffffffffffffffffffffffffffffffffffff1673ffffffffffffffffffffffffffffffffffffffff163373ffffffffffffffffffffffffffffffffffffffff16146103cb57600080fd5b600073ffffffffffffffffffffffffffffffffffffffff168173ffffffffffffffffffffffffffffffffffffffff16141561040557600080fd5b806000806101000a81548173ffffffffffffffffffffffffffffffffffffffff021916908373ffffffffffffffffffffffffffffffffffffffff16021790555050565b60008054906101000a900473ffffffffffffffffffffffffffffffffffffffff1673ffffffffffffffffffffffffffffffffffffffff163373ffffffffffffffffffffffffffffffffffffffff16146104a057600080fd5b600073ffffffffffffffffffffffffffffffffffffffff168173ffffffffffffffffffffffffffffffffffffffff1614156104da57600080fd5b80600260006101000a81548173ffffffffffffffffffffffffffffffffffffffff021916908373ffffffffffffffffffffffffffffffffffffffff16021790555050565b60008054906101000a900473ffffffffffffffffffffffffffffffffffffffff1673ffffffffffffffffffffffffffffffffffffffff163373ffffffffffffffffffffffffffffffffffffffff161461057657600080fd5b600260149054906101000a900460ff1661058f57600080fd5b6000600260146101000a81548160ff021916908315150217905550565b806105b7338261081e565b6105c057600080fd5b600260149054906101000a900460ff16156105da57600080fd5b6001600b600084815260200190815260200160002060003373ffffffffffffffffffffffffffffffffffffffff1673ffffffffffffffffffffffffffffffffffffffff16815260200190815260200160002060006101000a81548160ff021916908315150217905550600c6000838152602001908152602001600020339080600181540180825580915050600190039060005260206000200160009091909190916101000a81548173ffffffffffffffffffffffffffffffffffffffff021916908373ffffffffffffffffffffffffffffffffffffffff1602179055506006600083815260200190815260200160002060060160008154809291906106de9061122f565b91905055503373ffffffffffffffffffffffffffffffffffffffff167f0695e999be8100bdb5bee8612337296508d527eae78c65b8f170eacb5a3b439d8360405161072991906110c7565b60405180910390a25050565b60008054906101000a900473ffffffffffffffffffffffffffffffffffffffff1673ffffffffffffffffffffffffffffffffffffffff163373ffffffffffffffffffffffffffffffffffffffff161461078d57600080fd5b600073ffffffffffffffffffffffffffffffffffffffff168173ffffffffffffffffffffffffffffffffffffffff1614156107c757600080fd5b80600160006101000a81548173ffffffffffffffffffffffffffffffffffffffff021916908373ffffffffffffffffffffffffffffffffffffffff16021790555050565b600260149054906101000a900460ff1681565b6000600260149054906101000a900460ff161561083a57600080fd5b60011515600a600084815260200190815260200160002060008573ffffffffffffffffffffffffffffffffffffffff1673ffffffffffffffffffffffffffffffffffffffff16815260200190815260200160002060009054906101000a900460ff16151514905092915050565b806108b233826109c5565b6108bb57600080fd5b600260149054906101000a900460ff16156108d557600080fd5b600d600083815260200190815260200160002060009054906101000a900473ffffffffffffffffffffffffffffffffffffffff1673ffffffffffffffffffffffffffffffffffffffff166319165587336040518263ffffffff1660e01b8152600401610941919061104d565b600060405180830381600087803b15801561095b57600080fd5b505af115801561096f573d6000803e3d6000fd5b505050503373ffffffffffffffffffffffffffffffffffffffff167f1a31e733a172afcf46074b3106c17f0c298e226442682a03c1e99ce256139ec2836040516109b991906110c7565b60405180910390a25050565b6000600260149054906101000a900460ff16156109e157600080fd5b60011515600b600084815260200190815260200160002060008573ffffffffffffffffffffffffffffffffffffffff1673ffffffffffffffffffffffffffffffffffffffff16815260200190815260200160002060009054906101000a900460ff16151514905092915050565b600260009054906101000a900473ffffffffffffffffffffffffffffffffffffffff1673ffffffffffffffffffffffffffffffffffffffff163373ffffffffffffffffffffffffffffffffffffffff161480610af5575060008054906101000a900473ffffffffffffffffffffffffffffffffffffffff1673ffffffffffffffffffffffffffffffffffffffff163373ffffffffffffffffffffffffffffffffffffffff16145b80610b4d5750600160009054906101000a900473ffffffffffffffffffffffffffffffffffffffff1673ffffffffffffffffffffffffffffffffffffffff163373ffffffffffffffffffffffffffffffffffffffff16145b610b5657600080fd5b600260149054906101000a900460ff1615610b7057600080fd5b6001600260146101000a81548160ff021916908315150217905550565b6000600160009054906101000a900473ffffffffffffffffffffffffffffffffffffffff1673ffffffffffffffffffffffffffffffffffffffff163373ffffffffffffffffffffffffffffffffffffffff1614905090565b600260009054906101000a900473ffffffffffffffffffffffffffffffffffffffff1681565b60606004805480602002602001604051908101604052809291908181526020018280548015610c5957602002820191906000526020600020905b815481526020019060010190808311610c45575b5050505050905090565b60606005805480602002602001604051908101604052809291908181526020016000905b82821015610d33578382906000526020600020018054610ca6906111fd565b80601f0160208091040260200160405190810160405280929190818152602001828054610cd2906111fd565b8015610d1f5780601f10610cf457610100808354040283529160200191610d1f565b820191906000526020600020905b815481529060010190602001808311610d0257829003601f168201915b505050505081526020019060010190610c87565b50505050905090565b60008060009054906101000a900473ffffffffffffffffffffffffffffffffffffffff1673ffffffffffffffffffffffffffffffffffffffff163373ffffffffffffffffffffffffffffffffffffffff1614905090565b6000600260009054906101000a900473ffffffffffffffffffffffffffffffffffffffff1673ffffffffffffffffffffffffffffffffffffffff163373ffffffffffffffffffffffffffffffffffffffff1614905090565b600081359050610dfa816112ec565b92915050565b600081359050610e0f81611303565b92915050565b600060208284031215610e2b57610e2a6112d6565b5b6000610e3984828501610deb565b91505092915050565b60008060408385031215610e5957610e586112d6565b5b6000610e6785828601610deb565b9250506020610e7885828601610e00565b9150509250929050565b600060208284031215610e9857610e976112d6565b5b6000610ea684828501610e00565b91505092915050565b6000610ebb8383610fdb565b905092915050565b6000610ecf8383611014565b60208301905092915050565b610ee481611182565b82525050565b610ef381611170565b82525050565b6000610f0482611102565b610f0e818561113d565b935083602082028501610f20856110e2565b8060005b85811015610f5c5784840389528151610f3d8582610eaf565b9450610f4883611123565b925060208a01995050600181019050610f24565b50829750879550505050505092915050565b6000610f798261110d565b610f83818561114e565b9350610f8e836110f2565b8060005b83811015610fbf578151610fa68882610ec3565b9750610fb183611130565b925050600181019050610f92565b5085935050505092915050565b610fd581611194565b82525050565b6000610fe682611118565b610ff0818561115f565b93506110008185602086016111ca565b611009816112db565b840191505092915050565b61101d816111c0565b82525050565b61102c816111c0565b82525050565b60006020820190506110476000830184610eea565b92915050565b60006020820190506110626000830184610edb565b92915050565b600060208201905081810360008301526110828184610ef9565b905092915050565b600060208201905081810360008301526110a48184610f6e565b905092915050565b60006020820190506110c16000830184610fcc565b92915050565b60006020820190506110dc6000830184611023565b92915050565b6000819050602082019050919050565b6000819050602082019050919050565b600081519050919050565b600081519050919050565b600081519050919050565b6000602082019050919050565b6000602082019050919050565b600082825260208201905092915050565b600082825260208201905092915050565b600082825260208201905092915050565b600061117b826111a0565b9050919050565b600061118d826111a0565b9050919050565b60008115159050919050565b600073ffffffffffffffffffffffffffffffffffffffff82169050919050565b6000819050919050565b60005b838110156111e85780820151818401526020810190506111cd565b838111156111f7576000848401525b50505050565b6000600282049050600182168061121557607f821691505b60208210811415611229576112286112a7565b5b50919050565b600061123a826111c0565b91507fffffffffffffffffffffffffffffffffffffffffffffffffffffffffffffffff82141561126d5761126c611278565b5b600182019050919050565b7f4e487b7100000000000000000000000000000000000000000000000000000000600052601160045260246000fd5b7f4e487b7100000000000000000000000000000000000000000000000000000000600052602260045260246000fd5b600080fd5b6000601f19601f8301169050919050565b6112f581611170565b811461130057600080fd5b50565b61130c816111c0565b811461131757600080fd5b5056fea2646970667358221220753ccc66014428a2aef3ff261710ec6189a95f2f6fcb69aa8bf537e138db9f4c64736f6c63430008060033",
  "immutableReferences": {},
  "source": "// SPDX-License-Identifier: MIT\npragma solidity ^0.8.0;\n\nimport \"../core/EthDropBase.sol\";\n\ncontract RecipientsManager is EthDropBase {\n\n    event EligibleRecipientAdded(address indexed account, uint groupId);\n    event EligibleRecipientRemoved(address indexed account, uint groupId);\n\n    event RecipientRegistered(address indexed account, uint groupId);\n    event WinningsClaimed(address indexed account, uint groupId);\n\n    constructor() {}\n\n    modifier onlyEligibleRecipients(uint groupId) {\n        require(isEligibleRecipient(msg.sender, groupId));\n        _;\n    }\n\n    function isEligibleRecipient(address account, uint groupId)\n        public\n        view\n        whenNotPaused\n        returns (bool)\n    {\n        return eligibleRecipients[groupId][account] == true;\n    }\n\n    modifier onlyRegisteredRecipients(uint groupId) {\n        require(isRegisteredRecipient(msg.sender, groupId));\n        _;\n    }\n\n    function isRegisteredRecipient(address account, uint groupId)\n        public\n        view\n        whenNotPaused\n        returns (bool)\n    {\n        return registeredRecipients[groupId][account] == true;\n    }\n\n    function registerForEvent(uint groupId)\n        external\n        onlyEligibleRecipients(groupId)\n        whenNotPaused\n    {\n        \n        registeredRecipients[groupId][msg.sender] = true;\n        registeredRecipientsArray[groupId].push(msg.sender);\n        currentEvents[groupId].registeredRecipientsCount++;\n\n        emit RecipientRegistered(msg.sender, groupId);\n    }\n\n    function claimWinnings(uint groupId)\n        external\n        onlyRegisteredRecipients(groupId)\n        whenNotPaused\n    {\n        pot[groupId].release(payable(msg.sender));\n        emit WinningsClaimed(msg.sender, groupId);\n    }\n}",
  "sourcePath": "/Users/jlynch/Git-Projects/EthDrop/contracts/roles/RecipientsManager.sol",
  "compiler": {
    "name": "solc",
    "version": "0.8.6+commit.11564f7e.Emscripten.clang"
  },
  "schemaVersion": "3.4.1",
  "updatedAt": "2021-07-21T14:28:52.700Z",
  "networkType": "ethereum",
  "devdoc": {
    "kind": "dev",
    "methods": {
      "pause()": {
        "details": "Called by any \"C-level\" role to pause the contract. Used only when  a bug or exploit is detected and we need to limit damage."
      },
      "setCEO(address)": {
        "details": "Assigns a new address to act as the CEO. Only available to the current CEO.",
        "params": {
          "_newCEO": "The address of the new CEO"
        }
      },
      "setCFO(address)": {
        "details": "Assigns a new address to act as the CFO. Only available to the current CEO.",
        "params": {
          "_newCFO": "The address of the new CFO"
        }
      },
      "setCOO(address)": {
        "details": "Assigns a new address to act as the COO. Only available to the current CEO.",
        "params": {
          "_newCOO": "The address of the new COO"
        }
      },
      "unpause()": {
        "details": "Unpauses the smart contract. Can only be called by the CEO, since  one reason we may pause the contract is when CFO or COO accounts are  compromised."
      }
    },
    "version": 1
  },
  "userdoc": {
    "kind": "user",
    "methods": {
      "unpause()": {
        "notice": "This is public rather than external so it can be called by  derived contracts."
      }
    },
    "version": 1
  }
}