{
  "contractName": "RecipientsManager",
  "abi": [
    {
      "inputs": [],
      "stateMutability": "nonpayable",
      "type": "constructor"
    },
    {
      "anonymous": false,
      "inputs": [
        {
          "indexed": false,
          "internalType": "address",
          "name": "newContract",
          "type": "address"
        }
      ],
      "name": "ContractUpgrade",
      "type": "event"
    },
    {
      "anonymous": false,
      "inputs": [
        {
          "indexed": true,
          "internalType": "address",
          "name": "account",
          "type": "address"
        },
        {
          "indexed": false,
          "internalType": "uint256",
          "name": "groupId",
          "type": "uint256"
        }
      ],
      "name": "EligibleRecipientAdded",
      "type": "event"
    },
    {
      "anonymous": false,
      "inputs": [
        {
          "indexed": true,
          "internalType": "address",
          "name": "account",
          "type": "address"
        },
        {
          "indexed": false,
          "internalType": "uint256",
          "name": "groupId",
          "type": "uint256"
        }
      ],
      "name": "EligibleRecipientRemoved",
      "type": "event"
    },
    {
      "anonymous": false,
      "inputs": [],
      "name": "EventClose",
      "type": "event"
    },
    {
      "anonymous": false,
      "inputs": [
        {
          "indexed": true,
          "internalType": "address",
          "name": "account",
          "type": "address"
        },
        {
          "indexed": false,
          "internalType": "uint256",
          "name": "groupId",
          "type": "uint256"
        }
      ],
      "name": "RecipientRegistered",
      "type": "event"
    },
    {
      "anonymous": false,
      "inputs": [],
      "name": "RegistrationOpen",
      "type": "event"
    },
    {
      "anonymous": false,
      "inputs": [
        {
          "indexed": false,
          "internalType": "address",
          "name": "from",
          "type": "address"
        },
        {
          "indexed": false,
          "internalType": "address",
          "name": "to",
          "type": "address"
        }
      ],
      "name": "Transfer",
      "type": "event"
    },
    {
      "anonymous": false,
      "inputs": [
        {
          "indexed": true,
          "internalType": "address",
          "name": "account",
          "type": "address"
        },
        {
          "indexed": false,
          "internalType": "uint256",
          "name": "groupId",
          "type": "uint256"
        }
      ],
      "name": "WinningsClaimed",
      "type": "event"
    },
    {
      "anonymous": false,
      "inputs": [],
      "name": "WinningsClaimingOpen",
      "type": "event"
    },
    {
      "inputs": [],
      "name": "ceoAddress",
      "outputs": [
        {
          "internalType": "address",
          "name": "",
          "type": "address"
        }
      ],
      "stateMutability": "view",
      "type": "function",
      "constant": true
    },
    {
      "inputs": [],
      "name": "cfoAddress",
      "outputs": [
        {
          "internalType": "address",
          "name": "",
          "type": "address"
        }
      ],
      "stateMutability": "view",
      "type": "function",
      "constant": true
    },
    {
      "inputs": [],
      "name": "cooAddress",
      "outputs": [
        {
          "internalType": "address",
          "name": "",
          "type": "address"
        }
      ],
      "stateMutability": "view",
      "type": "function",
      "constant": true
    },
    {
      "inputs": [],
      "name": "getCFO",
      "outputs": [
        {
          "internalType": "address",
          "name": "",
          "type": "address"
        }
      ],
      "stateMutability": "view",
      "type": "function",
      "constant": true
    },
    {
      "inputs": [],
      "name": "getCOO",
      "outputs": [
        {
          "internalType": "address",
          "name": "",
          "type": "address"
        }
      ],
      "stateMutability": "view",
      "type": "function",
      "constant": true
    },
    {
      "inputs": [
        {
          "internalType": "uint256",
          "name": "groupId",
          "type": "uint256"
        }
      ],
      "name": "getGroupEventData",
      "outputs": [
        {
          "internalType": "enum EthDropBase.EventState",
          "name": "",
          "type": "uint8"
        },
        {
          "internalType": "uint256",
          "name": "",
          "type": "uint256"
        },
        {
          "internalType": "uint256",
          "name": "",
          "type": "uint256"
        },
        {
          "internalType": "string",
          "name": "",
          "type": "string"
        },
        {
          "internalType": "string",
          "name": "",
          "type": "string"
        },
        {
          "internalType": "string",
          "name": "",
          "type": "string"
        }
      ],
      "stateMutability": "view",
      "type": "function",
      "constant": true
    },
    {
      "inputs": [],
      "name": "getGroupIds",
      "outputs": [
        {
          "internalType": "uint256[]",
          "name": "",
          "type": "uint256[]"
        }
      ],
      "stateMutability": "view",
      "type": "function",
      "constant": true
    },
    {
      "inputs": [],
      "name": "getGroupNames",
      "outputs": [
        {
          "internalType": "string[]",
          "name": "",
          "type": "string[]"
        }
      ],
      "stateMutability": "view",
      "type": "function",
      "constant": true
    },
    {
      "inputs": [],
      "name": "getString",
      "outputs": [
        {
          "internalType": "string",
          "name": "",
          "type": "string"
        }
      ],
      "stateMutability": "view",
      "type": "function",
      "constant": true
    },
    {
      "inputs": [],
      "name": "isCEO",
      "outputs": [
        {
          "internalType": "bool",
          "name": "",
          "type": "bool"
        }
      ],
      "stateMutability": "view",
      "type": "function",
      "constant": true
    },
    {
      "inputs": [],
      "name": "isCFO",
      "outputs": [
        {
          "internalType": "bool",
          "name": "",
          "type": "bool"
        }
      ],
      "stateMutability": "view",
      "type": "function",
      "constant": true
    },
    {
      "inputs": [],
      "name": "isCOO",
      "outputs": [
        {
          "internalType": "bool",
          "name": "",
          "type": "bool"
        }
      ],
      "stateMutability": "view",
      "type": "function",
      "constant": true
    },
    {
      "inputs": [],
      "name": "isPaused",
      "outputs": [
        {
          "internalType": "bool",
          "name": "",
          "type": "bool"
        }
      ],
      "stateMutability": "view",
      "type": "function",
      "constant": true
    },
    {
      "inputs": [],
      "name": "pause",
      "outputs": [],
      "stateMutability": "nonpayable",
      "type": "function"
    },
    {
      "inputs": [],
      "name": "paused",
      "outputs": [
        {
          "internalType": "bool",
          "name": "",
          "type": "bool"
        }
      ],
      "stateMutability": "view",
      "type": "function",
      "constant": true
    },
    {
      "inputs": [
        {
          "internalType": "address",
          "name": "_newCEO",
          "type": "address"
        }
      ],
      "name": "setCEO",
      "outputs": [],
      "stateMutability": "nonpayable",
      "type": "function"
    },
    {
      "inputs": [
        {
          "internalType": "address",
          "name": "_newCFO",
          "type": "address"
        }
      ],
      "name": "setCFO",
      "outputs": [],
      "stateMutability": "nonpayable",
      "type": "function"
    },
    {
      "inputs": [
        {
          "internalType": "address",
          "name": "_newCOO",
          "type": "address"
        }
      ],
      "name": "setCOO",
      "outputs": [],
      "stateMutability": "nonpayable",
      "type": "function"
    },
    {
      "inputs": [
        {
          "internalType": "string",
          "name": "_s",
          "type": "string"
        }
      ],
      "name": "setString",
      "outputs": [],
      "stateMutability": "nonpayable",
      "type": "function"
    },
    {
      "inputs": [],
      "name": "stringgg",
      "outputs": [
        {
          "internalType": "string",
          "name": "",
          "type": "string"
        }
      ],
      "stateMutability": "view",
      "type": "function",
      "constant": true
    },
    {
      "inputs": [],
      "name": "unpause",
      "outputs": [
        {
          "internalType": "bool",
          "name": "",
          "type": "bool"
        }
      ],
      "stateMutability": "nonpayable",
      "type": "function"
    },
    {
      "inputs": [],
      "name": "whoami",
      "outputs": [
        {
          "internalType": "address",
          "name": "",
          "type": "address"
        }
      ],
      "stateMutability": "view",
      "type": "function",
      "constant": true
    },
    {
      "inputs": [
        {
          "internalType": "address",
          "name": "account",
          "type": "address"
        },
        {
          "internalType": "uint256",
          "name": "groupId",
          "type": "uint256"
        }
      ],
      "name": "isEligibleRecipient",
      "outputs": [
        {
          "internalType": "bool",
          "name": "",
          "type": "bool"
        }
      ],
      "stateMutability": "view",
      "type": "function",
      "constant": true
    },
    {
      "inputs": [
        {
          "internalType": "uint256",
          "name": "groupId",
          "type": "uint256"
        }
      ],
      "name": "amIEligibleRecipient",
      "outputs": [
        {
          "internalType": "bool",
          "name": "",
          "type": "bool"
        }
      ],
      "stateMutability": "view",
      "type": "function",
      "constant": true
    },
    {
      "inputs": [
        {
          "internalType": "address",
          "name": "account",
          "type": "address"
        },
        {
          "internalType": "uint256",
          "name": "groupId",
          "type": "uint256"
        }
      ],
      "name": "isRegisteredRecipient",
      "outputs": [
        {
          "internalType": "bool",
          "name": "",
          "type": "bool"
        }
      ],
      "stateMutability": "view",
      "type": "function",
      "constant": true
    },
    {
      "inputs": [
        {
          "internalType": "uint256",
          "name": "groupId",
          "type": "uint256"
        }
      ],
      "name": "amIRegisteredRecipient",
      "outputs": [
        {
          "internalType": "bool",
          "name": "",
          "type": "bool"
        }
      ],
      "stateMutability": "view",
      "type": "function",
      "constant": true
    },
    {
      "inputs": [
        {
          "internalType": "uint256",
          "name": "groupId",
          "type": "uint256"
        }
      ],
      "name": "registerForEvent",
      "outputs": [],
      "stateMutability": "nonpayable",
      "type": "function"
    },
    {
      "inputs": [
        {
          "internalType": "uint256",
          "name": "groupId",
          "type": "uint256"
        }
      ],
      "name": "claimWinnings",
      "outputs": [],
      "stateMutability": "nonpayable",
      "type": "function"
    },
    {
      "inputs": [
        {
          "internalType": "uint256",
          "name": "groupId",
          "type": "uint256"
        }
      ],
      "name": "getEligibleRecipientAddresses",
      "outputs": [
        {
          "internalType": "address[]",
          "name": "",
          "type": "address[]"
        }
      ],
      "stateMutability": "view",
      "type": "function",
      "constant": true
    },
    {
      "inputs": [
        {
          "internalType": "uint256",
          "name": "groupId",
          "type": "uint256"
        }
      ],
      "name": "getEligibleRecipientIsEligibilityEnabled",
      "outputs": [
        {
          "internalType": "bool[]",
          "name": "",
          "type": "bool[]"
        }
      ],
      "stateMutability": "view",
      "type": "function",
      "constant": true
    },
    {
      "inputs": [
        {
          "internalType": "uint256",
          "name": "groupId",
          "type": "uint256"
        }
      ],
      "name": "getRegisteredRecipients",
      "outputs": [
        {
          "internalType": "address[]",
          "name": "",
          "type": "address[]"
        }
      ],
      "stateMutability": "view",
      "type": "function",
      "constant": true
    }
  ],
  "bytecode": "0x60806040526000600360146101000a81548160ff02191690831515021790555060056004556000600b5534801561003557600080fd5b50612315806100456000396000f3fe608060405234801561001057600080fd5b50600436106101e55760003560e01c80637b936ac21161010f578063b187bd26116100a2578063d5f016c311610071578063d5f016c314610589578063e513b7a9146105a7578063f4a02e70146105c5578063fc5fd6e4146105e3576101e5565b8063b187bd2614610511578063b3b36bb31461052f578063c02b8b2c1461054d578063c6db50941461056b576101e5565b806389ea642f116100de57806389ea642f146104875780639393ae37146104a55780639bda8796146104c3578063b047fb50146104f3576101e5565b80637b936ac2146104135780637d837ce5146104315780637fcaf666146104615780638456cb591461047d576101e5565b8063406db8431161018757806355b57ec11161015657806355b57ec1146103795780635c975abb146103a95780635e82c1fc146103c7578063677bd9ff146103f7576101e5565b8063406db843146102dc57806344b2983b146102f85780634635509b146103285780634e0a33791461035d576101e5565b806327d7874c116101c357806327d7874c146102565780632ba73c151461027257806338f0b6561461028e5780633f4ba83a146102be576101e5565b80630519ce79146101ea57806306cc4922146102085780630a0f816814610238575b600080fd5b6101f2610601565b6040516101ff9190611d89565b60405180910390f35b610222600480360381019061021d9190611a96565b610627565b60405161022f9190611e2c565b60405180910390f35b610240610654565b60405161024d9190611d89565b60405180910390f35b610270600480360381019061026b91906119e0565b61067a565b005b61028c600480360381019061028791906119e0565b610752565b005b6102a860048036038101906102a39190611a96565b61082a565b6040516102b59190611e2c565b60405180910390f35b6102c6610857565b6040516102d39190611e2c565b60405180910390f35b6102f660048036038101906102f19190611a96565b6108fc565b005b610312600480360381019061030d9190611a96565b610a85565b60405161031f9190611da4565b60405180910390f35b610342600480360381019061033d9190611a96565b610b26565b60405161035496959493929190611e47565b60405180910390f35b610377600480360381019061037291906119e0565b610ea9565b005b610393600480360381019061038e9190611a96565b610f47565b6040516103a09190611dc6565b60405180910390f35b6103b1610fd7565b6040516103be9190611e2c565b60405180910390f35b6103e160048036038101906103dc9190611a0d565b610fea565b6040516103ee9190611e2c565b60405180910390f35b610411600480360381019061040c9190611a96565b611073565b005b61041b61122c565b6040516104289190611d89565b60405180910390f35b61044b60048036038101906104469190611a0d565b611256565b6040516104589190611e2c565b60405180910390f35b61047b60048036038101906104769190611a4d565b6112df565b005b6104856112f9565b005b61048f61143a565b60405161049c9190611ebd565b60405180910390f35b6104ad6114cc565b6040516104ba9190611e2c565b60405180910390f35b6104dd60048036038101906104d89190611a96565b611524565b6040516104ea9190611da4565b60405180910390f35b6104fb6115c5565b6040516105089190611d89565b60405180910390f35b6105196115eb565b6040516105269190611e2c565b60405180910390f35b610537611602565b6040516105449190611d89565b60405180910390f35b61055561160a565b6040516105629190611e0a565b60405180910390f35b610573611662565b6040516105809190611ebd565b60405180910390f35b6105916116f0565b60405161059e9190611de8565b60405180910390f35b6105af6117c9565b6040516105bc9190611e2c565b60405180910390f35b6105cd611821565b6040516105da9190611e2c565b60405180910390f35b6105eb611879565b6040516105f89190611d89565b60405180910390f35b600260009054906101000a900473ffffffffffffffffffffffffffffffffffffffff1681565b6000600360149054906101000a900460ff161561064357600080fd5b61064d3383610fea565b9050919050565b600160009054906101000a900473ffffffffffffffffffffffffffffffffffffffff1681565b600160009054906101000a900473ffffffffffffffffffffffffffffffffffffffff1673ffffffffffffffffffffffffffffffffffffffff163373ffffffffffffffffffffffffffffffffffffffff16146106d457600080fd5b600073ffffffffffffffffffffffffffffffffffffffff168173ffffffffffffffffffffffffffffffffffffffff16141561070e57600080fd5b80600160006101000a81548173ffffffffffffffffffffffffffffffffffffffff021916908373ffffffffffffffffffffffffffffffffffffffff16021790555050565b600160009054906101000a900473ffffffffffffffffffffffffffffffffffffffff1673ffffffffffffffffffffffffffffffffffffffff163373ffffffffffffffffffffffffffffffffffffffff16146107ac57600080fd5b600073ffffffffffffffffffffffffffffffffffffffff168173ffffffffffffffffffffffffffffffffffffffff1614156107e657600080fd5b80600360006101000a81548173ffffffffffffffffffffffffffffffffffffffff021916908373ffffffffffffffffffffffffffffffffffffffff16021790555050565b6000600360149054906101000a900460ff161561084657600080fd5b6108503383611256565b9050919050565b6000600160009054906101000a900473ffffffffffffffffffffffffffffffffffffffff1673ffffffffffffffffffffffffffffffffffffffff163373ffffffffffffffffffffffffffffffffffffffff16146108b357600080fd5b600360149054906101000a900460ff166108cc57600080fd5b6000600360146101000a81548160ff021916908315150217905550600360149054906101000a900460ff16905090565b806109073382610fea565b61091057600080fd5b600360149054906101000a900460ff161561092a57600080fd5b60016014600084815260200190815260200160002060003373ffffffffffffffffffffffffffffffffffffffff1673ffffffffffffffffffffffffffffffffffffffff16815260200190815260200160002060006101000a81548160ff02191690831515021790555060156000838152602001908152602001600020339080600181540180825580915050600190039060005260206000200160009091909190916101000a81548173ffffffffffffffffffffffffffffffffffffffff021916908373ffffffffffffffffffffffffffffffffffffffff160217905550600760008381526020019081526020016000206006016000815480929190610a2e90612173565b91905055503373ffffffffffffffffffffffffffffffffffffffff167f0695e999be8100bdb5bee8612337296508d527eae78c65b8f170eacb5a3b439d83604051610a799190611edf565b60405180910390a25050565b606060156000838152602001908152602001600020805480602002602001604051908101604052809291908181526020018280548015610b1a57602002820191906000526020600020905b8160009054906101000a900473ffffffffffffffffffffffffffffffffffffffff1673ffffffffffffffffffffffffffffffffffffffff1681526020019060010190808311610ad0575b50505050509050919050565b60008060006060806060600060076000898152602001908152602001600020604051806101a001604052908160008201548152602001600182018054610b6b90612110565b80601f0160208091040260200160405190810160405280929190818152602001828054610b9790612110565b8015610be45780601f10610bb957610100808354040283529160200191610be4565b820191906000526020600020905b815481529060010190602001808311610bc757829003601f168201915b505050505081526020016002820160009054906101000a900460ff166003811115610c1257610c116121eb565b5b6003811115610c2457610c236121eb565b5b815260200160038201548152602001600482015481526020016005820154815260200160068201548152602001600782018054610c6090612110565b80601f0160208091040260200160405190810160405280929190818152602001828054610c8c90612110565b8015610cd95780601f10610cae57610100808354040283529160200191610cd9565b820191906000526020600020905b815481529060010190602001808311610cbc57829003601f168201915b50505050508152602001600882018054610cf290612110565b80601f0160208091040260200160405190810160405280929190818152602001828054610d1e90612110565b8015610d6b5780601f10610d4057610100808354040283529160200191610d6b565b820191906000526020600020905b815481529060010190602001808311610d4e57829003601f168201915b50505050508152602001600982018054610d8490612110565b80601f0160208091040260200160405190810160405280929190818152602001828054610db090612110565b8015610dfd5780601f10610dd257610100808354040283529160200191610dfd565b820191906000526020600020905b815481529060010190602001808311610de057829003601f168201915b50505050508152602001600a820160009054906101000a900473ffffffffffffffffffffffffffffffffffffffff1673ffffffffffffffffffffffffffffffffffffffff1673ffffffffffffffffffffffffffffffffffffffff168152602001600b8201548152602001600c82015481525050905080604001518160c001518261016001518360e001518461010001518561012001519650965096509650965096505091939550919395565b600160009054906101000a900473ffffffffffffffffffffffffffffffffffffffff1673ffffffffffffffffffffffffffffffffffffffff163373ffffffffffffffffffffffffffffffffffffffff1614610f0357600080fd5b80600260006101000a81548173ffffffffffffffffffffffffffffffffffffffff021916908373ffffffffffffffffffffffffffffffffffffffff16021790555050565b606060136000838152602001908152602001600020805480602002602001604051908101604052809291908181526020018280548015610fcb57602002820191906000526020600020906000905b82829054906101000a900460ff16151581526020019060010190602082600001049283019260010382029150808411610f955790505b50505050509050919050565b600360149054906101000a900460ff1681565b6000600360149054906101000a900460ff161561100657600080fd5b600115156011600084815260200190815260200160002060008573ffffffffffffffffffffffffffffffffffffffff1673ffffffffffffffffffffffffffffffffffffffff16815260200190815260200160002060009054906101000a900460ff16151514905092915050565b8061107e3382611256565b61108757600080fd5b813360011515600c600084815260200190815260200160002060003373ffffffffffffffffffffffffffffffffffffffff1673ffffffffffffffffffffffffffffffffffffffff16815260200190815260200160002060009054906101000a900460ff16151514156110f857600080fd5b600360149054906101000a900460ff161561111257600080fd5b6001600c600086815260200190815260200160002060003373ffffffffffffffffffffffffffffffffffffffff1673ffffffffffffffffffffffffffffffffffffffff16815260200190815260200160002060006101000a81548160ff0219169083151502179055503373ffffffffffffffffffffffffffffffffffffffff166108fc60076000878152602001908152602001600020600c01549081150290604051600060405180830381858888f193505050501580156111d7573d6000803e3d6000fd5b503373ffffffffffffffffffffffffffffffffffffffff167f1a31e733a172afcf46074b3106c17f0c298e226442682a03c1e99ce256139ec28560405161121e9190611edf565b60405180910390a250505050565b6000600260009054906101000a900473ffffffffffffffffffffffffffffffffffffffff16905090565b6000600360149054906101000a900460ff161561127257600080fd5b600115156014600084815260200190815260200160002060008573ffffffffffffffffffffffffffffffffffffffff1673ffffffffffffffffffffffffffffffffffffffff16815260200190815260200160002060009054906101000a900460ff16151514905092915050565b80600090805190602001906112f59291906118a3565b5050565b600360009054906101000a900473ffffffffffffffffffffffffffffffffffffffff1673ffffffffffffffffffffffffffffffffffffffff163373ffffffffffffffffffffffffffffffffffffffff1614806113a25750600160009054906101000a900473ffffffffffffffffffffffffffffffffffffffff1673ffffffffffffffffffffffffffffffffffffffff163373ffffffffffffffffffffffffffffffffffffffff16145b806113fa5750600260009054906101000a900473ffffffffffffffffffffffffffffffffffffffff1673ffffffffffffffffffffffffffffffffffffffff163373ffffffffffffffffffffffffffffffffffffffff16145b61140357600080fd5b600360149054906101000a900460ff161561141d57600080fd5b6001600360146101000a81548160ff021916908315150217905550565b60606000805461144990612110565b80601f016020809104026020016040519081016040528092919081815260200182805461147590612110565b80156114c25780601f10611497576101008083540402835291602001916114c2565b820191906000526020600020905b8154815290600101906020018083116114a557829003601f168201915b5050505050905090565b6000600260009054906101000a900473ffffffffffffffffffffffffffffffffffffffff1673ffffffffffffffffffffffffffffffffffffffff163373ffffffffffffffffffffffffffffffffffffffff1614905090565b6060601260008381526020019081526020016000208054806020026020016040519081016040528092919081815260200182805480156115b957602002820191906000526020600020905b8160009054906101000a900473ffffffffffffffffffffffffffffffffffffffff1673ffffffffffffffffffffffffffffffffffffffff168152602001906001019080831161156f575b50505050509050919050565b600360009054906101000a900473ffffffffffffffffffffffffffffffffffffffff1681565b6000600360149054906101000a900460ff16905090565b600033905090565b6060600580548060200260200160405190810160405280929190818152602001828054801561165857602002820191906000526020600020905b815481526020019060010190808311611644575b5050505050905090565b6000805461166f90612110565b80601f016020809104026020016040519081016040528092919081815260200182805461169b90612110565b80156116e85780601f106116bd576101008083540402835291602001916116e8565b820191906000526020600020905b8154815290600101906020018083116116cb57829003601f168201915b505050505081565b60606006805480602002602001604051908101604052809291908181526020016000905b828210156117c057838290600052602060002001805461173390612110565b80601f016020809104026020016040519081016040528092919081815260200182805461175f90612110565b80156117ac5780601f10611781576101008083540402835291602001916117ac565b820191906000526020600020905b81548152906001019060200180831161178f57829003601f168201915b505050505081526020019060010190611714565b50505050905090565b6000600160009054906101000a900473ffffffffffffffffffffffffffffffffffffffff1673ffffffffffffffffffffffffffffffffffffffff163373ffffffffffffffffffffffffffffffffffffffff1614905090565b6000600360009054906101000a900473ffffffffffffffffffffffffffffffffffffffff1673ffffffffffffffffffffffffffffffffffffffff163373ffffffffffffffffffffffffffffffffffffffff1614905090565b6000600360009054906101000a900473ffffffffffffffffffffffffffffffffffffffff16905090565b8280546118af90612110565b90600052602060002090601f0160209004810192826118d15760008555611918565b82601f106118ea57805160ff1916838001178555611918565b82800160010185558215611918579182015b828111156119175782518255916020019190600101906118fc565b5b5090506119259190611929565b5090565b5b8082111561194257600081600090555060010161192a565b5090565b600061195961195484611f1f565b611efa565b9050828152602081018484840111156119755761197461227d565b5b6119808482856120ce565b509392505050565b600081359050611997816122b1565b92915050565b600082601f8301126119b2576119b1612278565b5b81356119c2848260208601611946565b91505092915050565b6000813590506119da816122c8565b92915050565b6000602082840312156119f6576119f5612287565b5b6000611a0484828501611988565b91505092915050565b60008060408385031215611a2457611a23612287565b5b6000611a3285828601611988565b9250506020611a43858286016119cb565b9150509250929050565b600060208284031215611a6357611a62612287565b5b600082013567ffffffffffffffff811115611a8157611a80612282565b5b611a8d8482850161199d565b91505092915050565b600060208284031215611aac57611aab612287565b5b6000611aba848285016119cb565b91505092915050565b6000611acf8383611b1f565b60208301905092915050565b6000611ae78383611ccc565b60208301905092915050565b6000611aff8383611cf9565b905092915050565b6000611b138383611d6b565b60208301905092915050565b611b2881612061565b82525050565b611b3781612061565b82525050565b6000611b4882611f90565b611b528185611ffb565b9350611b5d83611f50565b8060005b83811015611b8e578151611b758882611ac3565b9750611b8083611fc7565b925050600181019050611b61565b5085935050505092915050565b6000611ba682611f9b565b611bb0818561200c565b9350611bbb83611f60565b8060005b83811015611bec578151611bd38882611adb565b9750611bde83611fd4565b925050600181019050611bbf565b5085935050505092915050565b6000611c0482611fa6565b611c0e818561201d565b935083602082028501611c2085611f70565b8060005b85811015611c5c5784840389528151611c3d8582611af3565b9450611c4883611fe1565b925060208a01995050600181019050611c24565b50829750879550505050505092915050565b6000611c7982611fb1565b611c83818561202e565b9350611c8e83611f80565b8060005b83811015611cbf578151611ca68882611b07565b9750611cb183611fee565b925050600181019050611c92565b5085935050505092915050565b611cd581612073565b82525050565b611ce481612073565b82525050565b611cf3816120bc565b82525050565b6000611d0482611fbc565b611d0e818561203f565b9350611d1e8185602086016120dd565b611d278161228c565b840191505092915050565b6000611d3d82611fbc565b611d478185612050565b9350611d578185602086016120dd565b611d608161228c565b840191505092915050565b611d74816120b2565b82525050565b611d83816120b2565b82525050565b6000602082019050611d9e6000830184611b2e565b92915050565b60006020820190508181036000830152611dbe8184611b3d565b905092915050565b60006020820190508181036000830152611de08184611b9b565b905092915050565b60006020820190508181036000830152611e028184611bf9565b905092915050565b60006020820190508181036000830152611e248184611c6e565b905092915050565b6000602082019050611e416000830184611cdb565b92915050565b600060c082019050611e5c6000830189611cea565b611e696020830188611d7a565b611e766040830187611d7a565b8181036060830152611e888186611d32565b90508181036080830152611e9c8185611d32565b905081810360a0830152611eb08184611d32565b9050979650505050505050565b60006020820190508181036000830152611ed78184611d32565b905092915050565b6000602082019050611ef46000830184611d7a565b92915050565b6000611f04611f15565b9050611f108282612142565b919050565b6000604051905090565b600067ffffffffffffffff821115611f3a57611f39612249565b5b611f438261228c565b9050602081019050919050565b6000819050602082019050919050565b6000819050602082019050919050565b6000819050602082019050919050565b6000819050602082019050919050565b600081519050919050565b600081519050919050565b600081519050919050565b600081519050919050565b600081519050919050565b6000602082019050919050565b6000602082019050919050565b6000602082019050919050565b6000602082019050919050565b600082825260208201905092915050565b600082825260208201905092915050565b600082825260208201905092915050565b600082825260208201905092915050565b600082825260208201905092915050565b600082825260208201905092915050565b600061206c82612092565b9050919050565b60008115159050919050565b600081905061208d8261229d565b919050565b600073ffffffffffffffffffffffffffffffffffffffff82169050919050565b6000819050919050565b60006120c78261207f565b9050919050565b82818337600083830152505050565b60005b838110156120fb5780820151818401526020810190506120e0565b8381111561210a576000848401525b50505050565b6000600282049050600182168061212857607f821691505b6020821081141561213c5761213b61221a565b5b50919050565b61214b8261228c565b810181811067ffffffffffffffff8211171561216a57612169612249565b5b80604052505050565b600061217e826120b2565b91507fffffffffffffffffffffffffffffffffffffffffffffffffffffffffffffffff8214156121b1576121b06121bc565b5b600182019050919050565b7f4e487b7100000000000000000000000000000000000000000000000000000000600052601160045260246000fd5b7f4e487b7100000000000000000000000000000000000000000000000000000000600052602160045260246000fd5b7f4e487b7100000000000000000000000000000000000000000000000000000000600052602260045260246000fd5b7f4e487b7100000000000000000000000000000000000000000000000000000000600052604160045260246000fd5b600080fd5b600080fd5b600080fd5b600080fd5b6000601f19601f8301169050919050565b600481106122ae576122ad6121eb565b5b50565b6122ba81612061565b81146122c557600080fd5b50565b6122d1816120b2565b81146122dc57600080fd5b5056fea264697066735822122044a54858c231947d4b81a56f54c4f78d6b9492cb3b64526945878b51c166389a64736f6c63430008060033",
  "immutableReferences": {},
  "source": "// SPDX-License-Identifier: MIT\npragma solidity ^0.8.0;\n\nimport \"../core/EthDropBase.sol\";\n\ncontract RecipientsManager is EthDropBase {\n    event EligibleRecipientAdded(address indexed account, uint256 groupId);\n    event EligibleRecipientRemoved(address indexed account, uint256 groupId);\n\n    event RecipientRegistered(address indexed account, uint256 groupId);\n    event WinningsClaimed(address indexed account, uint256 groupId);\n\n    constructor() {}\n\n    modifier onlyEligibleRecipients(uint256 groupId) {\n        require(isEligibleRecipient(msg.sender, groupId));\n        _;\n    }\n\n    function isEligibleRecipient(address account, uint256 groupId)\n        public\n        view\n        whenNotPaused\n        returns (bool)\n    {\n        return eligibleRecipients[groupId][account] == true;\n    }\n    \n    function amIEligibleRecipient(uint256 groupId)\n        external\n        view\n        whenNotPaused\n        returns (bool)\n    {\n        return isEligibleRecipient(msg.sender, groupId);\n    }\n\n    modifier onlyRegisteredRecipients(uint256 groupId) {\n        require(isRegisteredRecipient(msg.sender, groupId));\n        _;\n    }\n\n    modifier hasntAlreadyClaimedWinnings(uint256 groupId, address account) {\n        require(winningsCollected[groupId][msg.sender] != true);\n        _;\n    }\n\n    function isRegisteredRecipient(address account, uint256 groupId)\n        public\n        view\n        whenNotPaused\n        returns (bool)\n    {\n        return registeredRecipients[groupId][account] == true;\n    }\n\n    function amIRegisteredRecipient(uint256 groupId)\n        external\n        view\n        whenNotPaused\n        returns (bool)\n    {\n        return isRegisteredRecipient(msg.sender, groupId);\n    }\n\n    function registerForEvent(uint256 groupId)\n        external\n        onlyEligibleRecipients(groupId)\n        whenNotPaused\n    {\n        registeredRecipients[groupId][msg.sender] = true;\n        registeredRecipientsArray[groupId].push(msg.sender);\n        currentEvents[groupId].registeredRecipientsCount++;\n\n        emit RecipientRegistered(msg.sender, groupId);\n    }\n\n    function claimWinnings(uint256 groupId)\n        external\n        onlyRegisteredRecipients(groupId)\n        hasntAlreadyClaimedWinnings(groupId, msg.sender)\n        whenNotPaused\n    {\n        winningsCollected[groupId][msg.sender] = true;\n\n        payable(msg.sender).transfer(currentEvents[groupId].weiWinnings);\n\n        emit WinningsClaimed(msg.sender, groupId);\n    }\n\n    function getEligibleRecipientAddresses(uint groupId) external view returns (address[] memory) {\n        return eligibleRecipientsArray[groupId];\n    }\n\n    function getEligibleRecipientIsEligibilityEnabled(uint groupId) external view returns (bool[] memory) {\n        return eligibleRecipientsEligibilityIsEnabled[groupId];\n    }\n\n    function getRegisteredRecipients(uint groupId) external view returns (address[] memory) {\n        return registeredRecipientsArray[groupId];\n    }\n\n}\n",
  "sourcePath": "/Users/jim/Git-Projects/EthDrop/contracts/roles/RecipientsManager.sol",
  "compiler": {
    "name": "solc",
    "version": "0.8.6+commit.11564f7e.Emscripten.clang"
  },
  "schemaVersion": "3.4.1",
  "updatedAt": "2021-07-23T17:22:27.902Z",
  "networkType": "ethereum",
  "devdoc": {
    "kind": "dev",
    "methods": {
      "pause()": {
        "details": "Called by any \"C-level\" role to pause the contract. Used only when  a bug or exploit is detected and we need to limit damage."
      },
      "setCEO(address)": {
        "details": "Assigns a new address to act as the CEO. Only available to the current CEO.",
        "params": {
          "_newCEO": "The address of the new CEO"
        }
      },
      "setCFO(address)": {
        "details": "Assigns a new address to act as the CFO. Only available to the current CEO.",
        "params": {
          "_newCFO": "The address of the new CFO"
        }
      },
      "setCOO(address)": {
        "details": "Assigns a new address to act as the COO. Only available to the current CEO.",
        "params": {
          "_newCOO": "The address of the new COO"
        }
      },
      "unpause()": {
        "details": "Unpauses the smart contract. Can only be called by the CEO, since  one reason we may pause the contract is when CFO or COO accounts are  compromised."
      }
    },
    "version": 1
  },
  "userdoc": {
    "kind": "user",
    "methods": {
      "unpause()": {
        "notice": "This is public rather than external so it can be called by  derived contracts."
      }
    },
    "version": 1
  }
}