{
  "contractName": "RecipientsManager",
  "abi": [
    {
      "inputs": [],
      "stateMutability": "nonpayable",
      "type": "constructor"
    },
    {
      "anonymous": false,
      "inputs": [
        {
          "indexed": false,
          "internalType": "bool",
          "name": "isPaused",
          "type": "bool"
        }
      ],
      "name": "AppPaused",
      "type": "event"
    },
    {
      "anonymous": false,
      "inputs": [],
      "name": "CfoUpdated",
      "type": "event"
    },
    {
      "anonymous": false,
      "inputs": [
        {
          "indexed": false,
          "internalType": "address",
          "name": "newContract",
          "type": "address"
        }
      ],
      "name": "ContractUpgrade",
      "type": "event"
    },
    {
      "anonymous": false,
      "inputs": [],
      "name": "CooUpdated",
      "type": "event"
    },
    {
      "anonymous": false,
      "inputs": [
        {
          "indexed": true,
          "internalType": "address",
          "name": "account",
          "type": "address"
        },
        {
          "indexed": false,
          "internalType": "uint256",
          "name": "groupId",
          "type": "uint256"
        }
      ],
      "name": "EligibleRecipientAdded",
      "type": "event"
    },
    {
      "anonymous": false,
      "inputs": [
        {
          "indexed": true,
          "internalType": "address",
          "name": "account",
          "type": "address"
        },
        {
          "indexed": false,
          "internalType": "uint256",
          "name": "groupId",
          "type": "uint256"
        }
      ],
      "name": "EligibleRecipientRemoved",
      "type": "event"
    },
    {
      "anonymous": false,
      "inputs": [],
      "name": "EventClose",
      "type": "event"
    },
    {
      "anonymous": false,
      "inputs": [
        {
          "indexed": true,
          "internalType": "address",
          "name": "account",
          "type": "address"
        },
        {
          "indexed": false,
          "internalType": "uint256",
          "name": "groupId",
          "type": "uint256"
        }
      ],
      "name": "RecipientRegistered",
      "type": "event"
    },
    {
      "anonymous": false,
      "inputs": [],
      "name": "RegistrationOpen",
      "type": "event"
    },
    {
      "anonymous": false,
      "inputs": [
        {
          "indexed": false,
          "internalType": "address",
          "name": "from",
          "type": "address"
        },
        {
          "indexed": false,
          "internalType": "address",
          "name": "to",
          "type": "address"
        }
      ],
      "name": "Transfer",
      "type": "event"
    },
    {
      "anonymous": false,
      "inputs": [
        {
          "indexed": true,
          "internalType": "address",
          "name": "account",
          "type": "address"
        },
        {
          "indexed": false,
          "internalType": "uint256",
          "name": "groupId",
          "type": "uint256"
        }
      ],
      "name": "WinningsClaimed",
      "type": "event"
    },
    {
      "anonymous": false,
      "inputs": [],
      "name": "WinningsClaimingOpen",
      "type": "event"
    },
    {
      "inputs": [],
      "name": "ceoAddress",
      "outputs": [
        {
          "internalType": "address",
          "name": "",
          "type": "address"
        }
      ],
      "stateMutability": "view",
      "type": "function",
      "constant": true
    },
    {
      "inputs": [],
      "name": "cfoAddress",
      "outputs": [
        {
          "internalType": "address",
          "name": "",
          "type": "address"
        }
      ],
      "stateMutability": "view",
      "type": "function",
      "constant": true
    },
    {
      "inputs": [],
      "name": "cooAddress",
      "outputs": [
        {
          "internalType": "address",
          "name": "",
          "type": "address"
        }
      ],
      "stateMutability": "view",
      "type": "function",
      "constant": true
    },
    {
      "inputs": [],
      "name": "getCFO",
      "outputs": [
        {
          "internalType": "address",
          "name": "",
          "type": "address"
        }
      ],
      "stateMutability": "view",
      "type": "function",
      "constant": true
    },
    {
      "inputs": [],
      "name": "getCOO",
      "outputs": [
        {
          "internalType": "address",
          "name": "",
          "type": "address"
        }
      ],
      "stateMutability": "view",
      "type": "function",
      "constant": true
    },
    {
      "inputs": [
        {
          "internalType": "uint256",
          "name": "groupId",
          "type": "uint256"
        }
      ],
      "name": "getGroupEventData",
      "outputs": [
        {
          "internalType": "enum EthDropBase.EventState",
          "name": "",
          "type": "uint8"
        },
        {
          "internalType": "uint256",
          "name": "",
          "type": "uint256"
        },
        {
          "internalType": "uint256",
          "name": "",
          "type": "uint256"
        },
        {
          "internalType": "uint256",
          "name": "",
          "type": "uint256"
        },
        {
          "internalType": "uint256",
          "name": "",
          "type": "uint256"
        }
      ],
      "stateMutability": "view",
      "type": "function",
      "constant": true
    },
    {
      "inputs": [],
      "name": "getGroupIds",
      "outputs": [
        {
          "internalType": "uint256[]",
          "name": "",
          "type": "uint256[]"
        }
      ],
      "stateMutability": "view",
      "type": "function",
      "constant": true
    },
    {
      "inputs": [],
      "name": "getGroupNames",
      "outputs": [
        {
          "internalType": "string[]",
          "name": "",
          "type": "string[]"
        }
      ],
      "stateMutability": "view",
      "type": "function",
      "constant": true
    },
    {
      "inputs": [],
      "name": "getString",
      "outputs": [
        {
          "internalType": "string",
          "name": "",
          "type": "string"
        }
      ],
      "stateMutability": "view",
      "type": "function",
      "constant": true
    },
    {
      "inputs": [],
      "name": "isCEO",
      "outputs": [
        {
          "internalType": "bool",
          "name": "",
          "type": "bool"
        }
      ],
      "stateMutability": "view",
      "type": "function",
      "constant": true
    },
    {
      "inputs": [],
      "name": "isCFO",
      "outputs": [
        {
          "internalType": "bool",
          "name": "",
          "type": "bool"
        }
      ],
      "stateMutability": "view",
      "type": "function",
      "constant": true
    },
    {
      "inputs": [],
      "name": "isCOO",
      "outputs": [
        {
          "internalType": "bool",
          "name": "",
          "type": "bool"
        }
      ],
      "stateMutability": "view",
      "type": "function",
      "constant": true
    },
    {
      "inputs": [],
      "name": "isPaused",
      "outputs": [
        {
          "internalType": "bool",
          "name": "",
          "type": "bool"
        }
      ],
      "stateMutability": "view",
      "type": "function",
      "constant": true
    },
    {
      "inputs": [],
      "name": "pause",
      "outputs": [],
      "stateMutability": "nonpayable",
      "type": "function"
    },
    {
      "inputs": [],
      "name": "paused",
      "outputs": [
        {
          "internalType": "bool",
          "name": "",
          "type": "bool"
        }
      ],
      "stateMutability": "view",
      "type": "function",
      "constant": true
    },
    {
      "inputs": [
        {
          "internalType": "address",
          "name": "_newCEO",
          "type": "address"
        }
      ],
      "name": "setCEO",
      "outputs": [],
      "stateMutability": "nonpayable",
      "type": "function"
    },
    {
      "inputs": [
        {
          "internalType": "address",
          "name": "_newCFO",
          "type": "address"
        }
      ],
      "name": "setCFO",
      "outputs": [],
      "stateMutability": "nonpayable",
      "type": "function"
    },
    {
      "inputs": [
        {
          "internalType": "address",
          "name": "_newCOO",
          "type": "address"
        }
      ],
      "name": "setCOO",
      "outputs": [],
      "stateMutability": "nonpayable",
      "type": "function"
    },
    {
      "inputs": [
        {
          "internalType": "string",
          "name": "_s",
          "type": "string"
        }
      ],
      "name": "setString",
      "outputs": [],
      "stateMutability": "nonpayable",
      "type": "function"
    },
    {
      "inputs": [],
      "name": "stringgg",
      "outputs": [
        {
          "internalType": "string",
          "name": "",
          "type": "string"
        }
      ],
      "stateMutability": "view",
      "type": "function",
      "constant": true
    },
    {
      "inputs": [],
      "name": "unpause",
      "outputs": [
        {
          "internalType": "bool",
          "name": "",
          "type": "bool"
        }
      ],
      "stateMutability": "nonpayable",
      "type": "function"
    },
    {
      "inputs": [],
      "name": "whoami",
      "outputs": [
        {
          "internalType": "address",
          "name": "",
          "type": "address"
        }
      ],
      "stateMutability": "view",
      "type": "function",
      "constant": true
    },
    {
      "inputs": [
        {
          "internalType": "address",
          "name": "account",
          "type": "address"
        },
        {
          "internalType": "uint256",
          "name": "groupId",
          "type": "uint256"
        }
      ],
      "name": "isEligibleRecipient",
      "outputs": [
        {
          "internalType": "bool",
          "name": "",
          "type": "bool"
        }
      ],
      "stateMutability": "view",
      "type": "function",
      "constant": true
    },
    {
      "inputs": [
        {
          "internalType": "uint256",
          "name": "groupId",
          "type": "uint256"
        }
      ],
      "name": "amIEligibleRecipient",
      "outputs": [
        {
          "internalType": "bool",
          "name": "",
          "type": "bool"
        }
      ],
      "stateMutability": "view",
      "type": "function",
      "constant": true
    },
    {
      "inputs": [
        {
          "internalType": "address",
          "name": "account",
          "type": "address"
        },
        {
          "internalType": "uint256",
          "name": "groupId",
          "type": "uint256"
        }
      ],
      "name": "isRegisteredRecipient",
      "outputs": [
        {
          "internalType": "bool",
          "name": "",
          "type": "bool"
        }
      ],
      "stateMutability": "view",
      "type": "function",
      "constant": true
    },
    {
      "inputs": [
        {
          "internalType": "uint256",
          "name": "groupId",
          "type": "uint256"
        }
      ],
      "name": "amIRegisteredRecipient",
      "outputs": [
        {
          "internalType": "bool",
          "name": "",
          "type": "bool"
        }
      ],
      "stateMutability": "view",
      "type": "function",
      "constant": true
    },
    {
      "inputs": [
        {
          "internalType": "uint256",
          "name": "groupId",
          "type": "uint256"
        }
      ],
      "name": "registerForEvent",
      "outputs": [],
      "stateMutability": "nonpayable",
      "type": "function"
    },
    {
      "inputs": [
        {
          "internalType": "uint256",
          "name": "groupId",
          "type": "uint256"
        }
      ],
      "name": "doIHaveClaimableWinnings",
      "outputs": [
        {
          "internalType": "bool",
          "name": "",
          "type": "bool"
        }
      ],
      "stateMutability": "view",
      "type": "function",
      "constant": true
    },
    {
      "inputs": [
        {
          "internalType": "uint256",
          "name": "groupId",
          "type": "uint256"
        }
      ],
      "name": "claimWinnings",
      "outputs": [],
      "stateMutability": "nonpayable",
      "type": "function"
    },
    {
      "inputs": [
        {
          "internalType": "uint256",
          "name": "groupId",
          "type": "uint256"
        }
      ],
      "name": "getEligibleRecipientAddresses",
      "outputs": [
        {
          "internalType": "address[]",
          "name": "",
          "type": "address[]"
        }
      ],
      "stateMutability": "view",
      "type": "function",
      "constant": true
    },
    {
      "inputs": [
        {
          "internalType": "uint256",
          "name": "groupId",
          "type": "uint256"
        }
      ],
      "name": "getEligibleRecipientNames",
      "outputs": [
        {
          "internalType": "string[]",
          "name": "",
          "type": "string[]"
        }
      ],
      "stateMutability": "view",
      "type": "function",
      "constant": true
    },
    {
      "inputs": [
        {
          "internalType": "uint256",
          "name": "groupId",
          "type": "uint256"
        }
      ],
      "name": "getRegisteredRecipientNames",
      "outputs": [
        {
          "internalType": "string[]",
          "name": "",
          "type": "string[]"
        }
      ],
      "stateMutability": "view",
      "type": "function",
      "constant": true
    },
    {
      "inputs": [
        {
          "internalType": "uint256",
          "name": "groupId",
          "type": "uint256"
        }
      ],
      "name": "getEligibleRecipientIsEligibilityEnabled",
      "outputs": [
        {
          "internalType": "bool[]",
          "name": "",
          "type": "bool[]"
        }
      ],
      "stateMutability": "view",
      "type": "function",
      "constant": true
    },
    {
      "inputs": [
        {
          "internalType": "uint256",
          "name": "groupId",
          "type": "uint256"
        }
      ],
      "name": "getRegisteredRecipients",
      "outputs": [
        {
          "internalType": "address[]",
          "name": "",
          "type": "address[]"
        }
      ],
      "stateMutability": "view",
      "type": "function",
      "constant": true
    }
  ],
  "bytecode": "0x60806040526000600360146101000a81548160ff02191690831515021790555060056004556000600b5534801561003557600080fd5b506127b0806100456000396000f3fe608060405234801561001057600080fd5b50600436106102065760003560e01c80637b936ac21161011a578063b187bd26116100ad578063d5f016c31161007c578063d5f016c314610609578063e513b7a914610627578063f4a02e7014610645578063f89e9cb914610663578063fc5fd6e41461069357610206565b8063b187bd2614610591578063b3b36bb3146105af578063c02b8b2c146105cd578063c6db5094146105eb57610206565b806389ea642f116100e957806389ea642f146105075780639393ae37146105255780639bda879614610543578063b047fb501461057357610206565b80637b936ac2146104935780637d837ce5146104b15780637fcaf666146104e15780638456cb59146104fd57610206565b8063406db8431161019d5780634e0a33791161016c5780634e0a3379146103dd57806355b57ec1146103f95780635c975abb146104295780635e82c1fc14610447578063677bd9ff1461047757610206565b8063406db8431461032d57806344b2983b14610349578063454432e2146103795780634635509b146103a957610206565b806327d7874c116101d957806327d7874c146102a75780632ba73c15146102c357806338f0b656146102df5780633f4ba83a1461030f57610206565b80630519ce791461020b57806306cc49221461022957806307bfa330146102595780630a0f816814610289575b600080fd5b6102136106b1565b6040516102209190612247565b60405180910390f35b610243600480360381019061023e9190611f54565b6106d7565b60405161025091906122ea565b60405180910390f35b610273600480360381019061026e9190611f54565b610704565b60405161028091906122a6565b60405180910390f35b6102916107f0565b60405161029e9190612247565b60405180910390f35b6102c160048036038101906102bc9190611e9e565b610816565b005b6102dd60048036038101906102d89190611e9e565b6108ee565b005b6102f960048036038101906102f49190611f54565b6109f2565b60405161030691906122ea565b60405180910390f35b610317610a1f565b60405161032491906122ea565b60405180910390f35b61034760048036038101906103429190611f54565b610ac4565b005b610363600480360381019061035e9190611f54565b610d78565b6040516103709190612262565b60405180910390f35b610393600480360381019061038e9190611f54565b610e19565b6040516103a091906122a6565b60405180910390f35b6103c360048036038101906103be9190611f54565b610f05565b6040516103d4959493929190612305565b60405180910390f35b6103f760048036038101906103f29190611e9e565b611288565b005b610413600480360381019061040e9190611f54565b611352565b6040516104209190612284565b60405180910390f35b6104316113e2565b60405161043e91906122ea565b60405180910390f35b610461600480360381019061045c9190611ecb565b6113f5565b60405161046e91906122ea565b60405180910390f35b610491600480360381019061048c9190611f54565b61147e565b005b61049b611663565b6040516104a89190612247565b60405180910390f35b6104cb60048036038101906104c69190611ecb565b61168d565b6040516104d891906122ea565b60405180910390f35b6104fb60048036038101906104f69190611f0b565b611716565b005b610505611730565b005b61050f611871565b60405161051c9190612358565b60405180910390f35b61052d611903565b60405161053a91906122ea565b60405180910390f35b61055d60048036038101906105589190611f54565b61195b565b60405161056a9190612262565b60405180910390f35b61057b6119fc565b6040516105889190612247565b60405180910390f35b610599611a22565b6040516105a691906122ea565b60405180910390f35b6105b7611a39565b6040516105c49190612247565b60405180910390f35b6105d5611a41565b6040516105e291906122c8565b60405180910390f35b6105f3611a99565b6040516106009190612358565b60405180910390f35b610611611b27565b60405161061e91906122a6565b60405180910390f35b61062f611c00565b60405161063c91906122ea565b60405180910390f35b61064d611c58565b60405161065a91906122ea565b60405180910390f35b61067d60048036038101906106789190611f54565b611cb0565b60405161068a91906122ea565b60405180910390f35b61069b611d37565b6040516106a89190612247565b60405180910390f35b600260009054906101000a900473ffffffffffffffffffffffffffffffffffffffff1681565b6000600360149054906101000a900460ff16156106f357600080fd5b6106fd33836113f5565b9050919050565b606060166000838152602001908152602001600020805480602002602001604051908101604052809291908181526020016000905b828210156107e5578382906000526020600020018054610758906125ab565b80601f0160208091040260200160405190810160405280929190818152602001828054610784906125ab565b80156107d15780601f106107a6576101008083540402835291602001916107d1565b820191906000526020600020905b8154815290600101906020018083116107b457829003601f168201915b505050505081526020019060010190610739565b505050509050919050565b600160009054906101000a900473ffffffffffffffffffffffffffffffffffffffff1681565b600160009054906101000a900473ffffffffffffffffffffffffffffffffffffffff1673ffffffffffffffffffffffffffffffffffffffff163373ffffffffffffffffffffffffffffffffffffffff161461087057600080fd5b600073ffffffffffffffffffffffffffffffffffffffff168173ffffffffffffffffffffffffffffffffffffffff1614156108aa57600080fd5b80600160006101000a81548173ffffffffffffffffffffffffffffffffffffffff021916908373ffffffffffffffffffffffffffffffffffffffff16021790555050565b600160009054906101000a900473ffffffffffffffffffffffffffffffffffffffff1673ffffffffffffffffffffffffffffffffffffffff163373ffffffffffffffffffffffffffffffffffffffff161461094857600080fd5b600073ffffffffffffffffffffffffffffffffffffffff168173ffffffffffffffffffffffffffffffffffffffff16141561098257600080fd5b80600360006101000a81548173ffffffffffffffffffffffffffffffffffffffff021916908373ffffffffffffffffffffffffffffffffffffffff1602179055507fa308298a77084def994b565be25bff2e8fbfe7006c2c6b2bacfb84d1ba1f635060405160405180910390a150565b6000600360149054906101000a900460ff1615610a0e57600080fd5b610a18338361168d565b9050919050565b6000600160009054906101000a900473ffffffffffffffffffffffffffffffffffffffff1673ffffffffffffffffffffffffffffffffffffffff163373ffffffffffffffffffffffffffffffffffffffff1614610a7b57600080fd5b600360149054906101000a900460ff16610a9457600080fd5b6000600360146101000a81548160ff021916908315150217905550600360149054906101000a900460ff16905090565b80610acf33826113f5565b610ad857600080fd5b600360149054906101000a900460ff1615610af257600080fd5b60016017600084815260200190815260200160002060003373ffffffffffffffffffffffffffffffffffffffff1673ffffffffffffffffffffffffffffffffffffffff16815260200190815260200160002060006101000a81548160ff02191690831515021790555060186000838152602001908152602001600020339080600181540180825580915050600190039060005260206000200160009091909190916101000a81548173ffffffffffffffffffffffffffffffffffffffff021916908373ffffffffffffffffffffffffffffffffffffffff16021790555060006015600084815260200190815260200160002060003373ffffffffffffffffffffffffffffffffffffffff1673ffffffffffffffffffffffffffffffffffffffff1681526020019081526020016000208054610c2c906125ab565b80601f0160208091040260200160405190810160405280929190818152602001828054610c58906125ab565b8015610ca55780601f10610c7a57610100808354040283529160200191610ca5565b820191906000526020600020905b815481529060010190602001808311610c8857829003601f168201915b505050505090506016600084815260200190815260200160002081908060018154018082558091505060019003906000526020600020016000909190919091509080519060200190610cf8929190611d61565b50600760008481526020019081526020016000206006016000815480929190610d209061260e565b91905055503373ffffffffffffffffffffffffffffffffffffffff167f0695e999be8100bdb5bee8612337296508d527eae78c65b8f170eacb5a3b439d84604051610d6b919061237a565b60405180910390a2505050565b606060186000838152602001908152602001600020805480602002602001604051908101604052809291908181526020018280548015610e0d57602002820191906000526020600020905b8160009054906101000a900473ffffffffffffffffffffffffffffffffffffffff1673ffffffffffffffffffffffffffffffffffffffff1681526020019060010190808311610dc3575b50505050509050919050565b606060136000838152602001908152602001600020805480602002602001604051908101604052809291908181526020016000905b82821015610efa578382906000526020600020018054610e6d906125ab565b80601f0160208091040260200160405190810160405280929190818152602001828054610e99906125ab565b8015610ee65780601f10610ebb57610100808354040283529160200191610ee6565b820191906000526020600020905b815481529060010190602001808311610ec957829003601f168201915b505050505081526020019060010190610e4e565b505050509050919050565b60008060008060008060076000888152602001908152602001600020604051806101c001604052908160008201548152602001600182018054610f47906125ab565b80601f0160208091040260200160405190810160405280929190818152602001828054610f73906125ab565b8015610fc05780601f10610f9557610100808354040283529160200191610fc0565b820191906000526020600020905b815481529060010190602001808311610fa357829003601f168201915b505050505081526020016002820160009054906101000a900460ff166003811115610fee57610fed612686565b5b600381111561100057610fff612686565b5b81526020016003820154815260200160048201548152602001600582015481526020016006820154815260200160078201805461103c906125ab565b80601f0160208091040260200160405190810160405280929190818152602001828054611068906125ab565b80156110b55780601f1061108a576101008083540402835291602001916110b5565b820191906000526020600020905b81548152906001019060200180831161109857829003601f168201915b505050505081526020016008820180546110ce906125ab565b80601f01602080910402602001604051908101604052809291908181526020018280546110fa906125ab565b80156111475780601f1061111c57610100808354040283529160200191611147565b820191906000526020600020905b81548152906001019060200180831161112a57829003601f168201915b50505050508152602001600982018054611160906125ab565b80601f016020809104026020016040519081016040528092919081815260200182805461118c906125ab565b80156111d95780601f106111ae576101008083540402835291602001916111d9565b820191906000526020600020905b8154815290600101906020018083116111bc57829003601f168201915b50505050508152602001600a820160009054906101000a900473ffffffffffffffffffffffffffffffffffffffff1673ffffffffffffffffffffffffffffffffffffffff1673ffffffffffffffffffffffffffffffffffffffff168152602001600b8201548152602001600c8201548152602001600d82015481525050905080604001518160c00151826101600151836101800151846101a00151955095509550955095505091939590929450565b600160009054906101000a900473ffffffffffffffffffffffffffffffffffffffff1673ffffffffffffffffffffffffffffffffffffffff163373ffffffffffffffffffffffffffffffffffffffff16146112e257600080fd5b80600260006101000a81548173ffffffffffffffffffffffffffffffffffffffff021916908373ffffffffffffffffffffffffffffffffffffffff1602179055507f162e32528b5907ecf876b3b7a4e5e0edf878642e3ec25852e3c35af1a4e1c04060405160405180910390a150565b6060601460008381526020019081526020016000208054806020026020016040519081016040528092919081815260200182805480156113d657602002820191906000526020600020906000905b82829054906101000a900460ff161515815260200190600101906020826000010492830192600103820291508084116113a05790505b50505050509050919050565b600360149054906101000a900460ff1681565b6000600360149054906101000a900460ff161561141157600080fd5b600115156011600084815260200190815260200160002060008573ffffffffffffffffffffffffffffffffffffffff1673ffffffffffffffffffffffffffffffffffffffff16815260200190815260200160002060009054906101000a900460ff16151514905092915050565b80611489338261168d565b61149257600080fd5b813360011515600c600084815260200190815260200160002060003373ffffffffffffffffffffffffffffffffffffffff1673ffffffffffffffffffffffffffffffffffffffff16815260200190815260200160002060009054906101000a900460ff161515141561150357600080fd5b600360149054906101000a900460ff161561151d57600080fd5b6001600c600086815260200190815260200160002060003373ffffffffffffffffffffffffffffffffffffffff1673ffffffffffffffffffffffffffffffffffffffff16815260200190815260200160002060006101000a81548160ff02191690831515021790555060076000858152602001908152602001600020600d0160008154809291906115ad9061260e565b91905055503373ffffffffffffffffffffffffffffffffffffffff166108fc60076000878152602001908152602001600020600c01549081150290604051600060405180830381858888f1935050505015801561160e573d6000803e3d6000fd5b503373ffffffffffffffffffffffffffffffffffffffff167f1a31e733a172afcf46074b3106c17f0c298e226442682a03c1e99ce256139ec285604051611655919061237a565b60405180910390a250505050565b6000600260009054906101000a900473ffffffffffffffffffffffffffffffffffffffff16905090565b6000600360149054906101000a900460ff16156116a957600080fd5b600115156017600084815260200190815260200160002060008573ffffffffffffffffffffffffffffffffffffffff1673ffffffffffffffffffffffffffffffffffffffff16815260200190815260200160002060009054906101000a900460ff16151514905092915050565b806000908051906020019061172c929190611d61565b5050565b600360009054906101000a900473ffffffffffffffffffffffffffffffffffffffff1673ffffffffffffffffffffffffffffffffffffffff163373ffffffffffffffffffffffffffffffffffffffff1614806117d95750600160009054906101000a900473ffffffffffffffffffffffffffffffffffffffff1673ffffffffffffffffffffffffffffffffffffffff163373ffffffffffffffffffffffffffffffffffffffff16145b806118315750600260009054906101000a900473ffffffffffffffffffffffffffffffffffffffff1673ffffffffffffffffffffffffffffffffffffffff163373ffffffffffffffffffffffffffffffffffffffff16145b61183a57600080fd5b600360149054906101000a900460ff161561185457600080fd5b6001600360146101000a81548160ff021916908315150217905550565b606060008054611880906125ab565b80601f01602080910402602001604051908101604052809291908181526020018280546118ac906125ab565b80156118f95780601f106118ce576101008083540402835291602001916118f9565b820191906000526020600020905b8154815290600101906020018083116118dc57829003601f168201915b5050505050905090565b6000600260009054906101000a900473ffffffffffffffffffffffffffffffffffffffff1673ffffffffffffffffffffffffffffffffffffffff163373ffffffffffffffffffffffffffffffffffffffff1614905090565b6060601260008381526020019081526020016000208054806020026020016040519081016040528092919081815260200182805480156119f057602002820191906000526020600020905b8160009054906101000a900473ffffffffffffffffffffffffffffffffffffffff1673ffffffffffffffffffffffffffffffffffffffff16815260200190600101908083116119a6575b50505050509050919050565b600360009054906101000a900473ffffffffffffffffffffffffffffffffffffffff1681565b6000600360149054906101000a900460ff16905090565b600033905090565b60606005805480602002602001604051908101604052809291908181526020018280548015611a8f57602002820191906000526020600020905b815481526020019060010190808311611a7b575b5050505050905090565b60008054611aa6906125ab565b80601f0160208091040260200160405190810160405280929190818152602001828054611ad2906125ab565b8015611b1f5780601f10611af457610100808354040283529160200191611b1f565b820191906000526020600020905b815481529060010190602001808311611b0257829003601f168201915b505050505081565b60606006805480602002602001604051908101604052809291908181526020016000905b82821015611bf7578382906000526020600020018054611b6a906125ab565b80601f0160208091040260200160405190810160405280929190818152602001828054611b96906125ab565b8015611be35780601f10611bb857610100808354040283529160200191611be3565b820191906000526020600020905b815481529060010190602001808311611bc657829003601f168201915b505050505081526020019060010190611b4b565b50505050905090565b6000600160009054906101000a900473ffffffffffffffffffffffffffffffffffffffff1673ffffffffffffffffffffffffffffffffffffffff163373ffffffffffffffffffffffffffffffffffffffff1614905090565b6000600360009054906101000a900473ffffffffffffffffffffffffffffffffffffffff1673ffffffffffffffffffffffffffffffffffffffff163373ffffffffffffffffffffffffffffffffffffffff1614905090565b6000611cbc338361168d565b611cc95760009050611d32565b60011515600c600084815260200190815260200160002060003373ffffffffffffffffffffffffffffffffffffffff1673ffffffffffffffffffffffffffffffffffffffff16815260200190815260200160002060009054906101000a900460ff161515141590505b919050565b6000600360009054906101000a900473ffffffffffffffffffffffffffffffffffffffff16905090565b828054611d6d906125ab565b90600052602060002090601f016020900481019282611d8f5760008555611dd6565b82601f10611da857805160ff1916838001178555611dd6565b82800160010185558215611dd6579182015b82811115611dd5578251825591602001919060010190611dba565b5b509050611de39190611de7565b5090565b5b80821115611e00576000816000905550600101611de8565b5090565b6000611e17611e12846123ba565b612395565b905082815260208101848484011115611e3357611e32612718565b5b611e3e848285612569565b509392505050565b600081359050611e558161274c565b92915050565b600082601f830112611e7057611e6f612713565b5b8135611e80848260208601611e04565b91505092915050565b600081359050611e9881612763565b92915050565b600060208284031215611eb457611eb3612722565b5b6000611ec284828501611e46565b91505092915050565b60008060408385031215611ee257611ee1612722565b5b6000611ef085828601611e46565b9250506020611f0185828601611e89565b9150509250929050565b600060208284031215611f2157611f20612722565b5b600082013567ffffffffffffffff811115611f3f57611f3e61271d565b5b611f4b84828501611e5b565b91505092915050565b600060208284031215611f6a57611f69612722565b5b6000611f7884828501611e89565b91505092915050565b6000611f8d8383611fdd565b60208301905092915050565b6000611fa5838361218a565b60208301905092915050565b6000611fbd83836121b7565b905092915050565b6000611fd18383612229565b60208301905092915050565b611fe6816124fc565b82525050565b611ff5816124fc565b82525050565b60006120068261242b565b6120108185612496565b935061201b836123eb565b8060005b8381101561204c5781516120338882611f81565b975061203e83612462565b92505060018101905061201f565b5085935050505092915050565b600061206482612436565b61206e81856124a7565b9350612079836123fb565b8060005b838110156120aa5781516120918882611f99565b975061209c8361246f565b92505060018101905061207d565b5085935050505092915050565b60006120c282612441565b6120cc81856124b8565b9350836020820285016120de8561240b565b8060005b8581101561211a57848403895281516120fb8582611fb1565b94506121068361247c565b925060208a019950506001810190506120e2565b50829750879550505050505092915050565b60006121378261244c565b61214181856124c9565b935061214c8361241b565b8060005b8381101561217d5781516121648882611fc5565b975061216f83612489565b925050600181019050612150565b5085935050505092915050565b6121938161250e565b82525050565b6121a28161250e565b82525050565b6121b181612557565b82525050565b60006121c282612457565b6121cc81856124da565b93506121dc818560208601612578565b6121e581612727565b840191505092915050565b60006121fb82612457565b61220581856124eb565b9350612215818560208601612578565b61221e81612727565b840191505092915050565b6122328161254d565b82525050565b6122418161254d565b82525050565b600060208201905061225c6000830184611fec565b92915050565b6000602082019050818103600083015261227c8184611ffb565b905092915050565b6000602082019050818103600083015261229e8184612059565b905092915050565b600060208201905081810360008301526122c081846120b7565b905092915050565b600060208201905081810360008301526122e2818461212c565b905092915050565b60006020820190506122ff6000830184612199565b92915050565b600060a08201905061231a60008301886121a8565b6123276020830187612238565b6123346040830186612238565b6123416060830185612238565b61234e6080830184612238565b9695505050505050565b6000602082019050818103600083015261237281846121f0565b905092915050565b600060208201905061238f6000830184612238565b92915050565b600061239f6123b0565b90506123ab82826125dd565b919050565b6000604051905090565b600067ffffffffffffffff8211156123d5576123d46126e4565b5b6123de82612727565b9050602081019050919050565b6000819050602082019050919050565b6000819050602082019050919050565b6000819050602082019050919050565b6000819050602082019050919050565b600081519050919050565b600081519050919050565b600081519050919050565b600081519050919050565b600081519050919050565b6000602082019050919050565b6000602082019050919050565b6000602082019050919050565b6000602082019050919050565b600082825260208201905092915050565b600082825260208201905092915050565b600082825260208201905092915050565b600082825260208201905092915050565b600082825260208201905092915050565b600082825260208201905092915050565b60006125078261252d565b9050919050565b60008115159050919050565b600081905061252882612738565b919050565b600073ffffffffffffffffffffffffffffffffffffffff82169050919050565b6000819050919050565b60006125628261251a565b9050919050565b82818337600083830152505050565b60005b8381101561259657808201518184015260208101905061257b565b838111156125a5576000848401525b50505050565b600060028204905060018216806125c357607f821691505b602082108114156125d7576125d66126b5565b5b50919050565b6125e682612727565b810181811067ffffffffffffffff82111715612605576126046126e4565b5b80604052505050565b60006126198261254d565b91507fffffffffffffffffffffffffffffffffffffffffffffffffffffffffffffffff82141561264c5761264b612657565b5b600182019050919050565b7f4e487b7100000000000000000000000000000000000000000000000000000000600052601160045260246000fd5b7f4e487b7100000000000000000000000000000000000000000000000000000000600052602160045260246000fd5b7f4e487b7100000000000000000000000000000000000000000000000000000000600052602260045260246000fd5b7f4e487b7100000000000000000000000000000000000000000000000000000000600052604160045260246000fd5b600080fd5b600080fd5b600080fd5b600080fd5b6000601f19601f8301169050919050565b6004811061274957612748612686565b5b50565b612755816124fc565b811461276057600080fd5b50565b61276c8161254d565b811461277757600080fd5b5056fea2646970667358221220ac0431aa4ad234015bc43b01442f48ea4dd4683676e9f668c34cc9a276a3e83c64736f6c63430008060033",
  "immutableReferences": {},
  "source": "// SPDX-License-Identifier: MIT\npragma solidity ^0.8.0;\n\nimport \"../core/EthDropBase.sol\";\n\ncontract RecipientsManager is EthDropBase {\n    event EligibleRecipientAdded(address indexed account, uint256 groupId);\n    event EligibleRecipientRemoved(address indexed account, uint256 groupId);\n\n    event RecipientRegistered(address indexed account, uint256 groupId);\n    event WinningsClaimed(address indexed account, uint256 groupId);\n\n    constructor() {}\n\n    modifier onlyEligibleRecipients(uint256 groupId) {\n        require(isEligibleRecipient(msg.sender, groupId));\n        _;\n    }\n\n    function isEligibleRecipient(address account, uint256 groupId)\n        public\n        view\n        whenNotPaused\n        returns (bool)\n    {\n        return eligibleRecipients[groupId][account] == true;\n    }\n\n    function amIEligibleRecipient(uint256 groupId)\n        external\n        view\n        whenNotPaused\n        returns (bool)\n    {\n        return isEligibleRecipient(msg.sender, groupId);\n    }\n\n    modifier onlyRegisteredRecipients(uint256 groupId) {\n        require(isRegisteredRecipient(msg.sender, groupId));\n        _;\n    }\n\n    modifier hasntAlreadyClaimedWinnings(uint256 groupId, address account) {\n        require(winningsCollected[groupId][msg.sender] != true);\n        _;\n    }\n\n    function isRegisteredRecipient(address account, uint256 groupId)\n        public\n        view\n        whenNotPaused\n        returns (bool)\n    {\n        return registeredRecipients[groupId][account] == true;\n    }\n\n    function amIRegisteredRecipient(uint256 groupId)\n        external\n        view\n        whenNotPaused\n        returns (bool)\n    {\n        return isRegisteredRecipient(msg.sender, groupId);\n    }\n\n    function registerForEvent(uint256 groupId)\n        external\n        onlyEligibleRecipients(groupId)\n        whenNotPaused\n    {\n        registeredRecipients[groupId][msg.sender] = true;\n        registeredRecipientAddressesArray[groupId].push(msg.sender);\n\n        string memory name = recipientAddressToName[groupId][msg.sender];\n\n        registeredRecipientNamesArray[groupId].push(name);\n\n        currentEvents[groupId].registeredRecipientsCount++;\n\n        emit RecipientRegistered(msg.sender, groupId);\n    }\n\n    function doIHaveClaimableWinnings(uint256 groupId)\n        external\n        view\n        returns (bool)\n    {\n        if (!isRegisteredRecipient(msg.sender, groupId)) {\n            return false;\n        }\n\n        return winningsCollected[groupId][msg.sender] != true;\n    }\n\n    function claimWinnings(uint256 groupId)\n        external\n        onlyRegisteredRecipients(groupId)\n        hasntAlreadyClaimedWinnings(groupId, msg.sender)\n        whenNotPaused\n    {\n        winningsCollected[groupId][msg.sender] = true;\n        currentEvents[groupId].numberOfUsersWhoClaimedWinnings++;\n\n        payable(msg.sender).transfer(currentEvents[groupId].weiWinnings);\n\n        emit WinningsClaimed(msg.sender, groupId);\n    }\n\n    function getEligibleRecipientAddresses(uint256 groupId)\n        external\n        view\n        returns (address[] memory)\n    {\n        return eligibleRecipientAddressesArray[groupId];\n    }\n\n    function getEligibleRecipientNames(uint256 groupId)\n        external\n        view\n        returns (string[] memory)\n    {\n        return eligibleRecipientNamesArray[groupId];\n    }\n\n    function getRegisteredRecipientNames(uint256 groupId)\n        external\n        view\n        returns (string[] memory)\n    {\n        return registeredRecipientNamesArray[groupId];\n    }\n\n    function getEligibleRecipientIsEligibilityEnabled(uint256 groupId)\n        external\n        view\n        returns (bool[] memory)\n    {\n        return eligibleRecipientsEligibilityIsEnabled[groupId];\n    }\n\n    function getRegisteredRecipients(uint256 groupId)\n        external\n        view\n        returns (address[] memory)\n    {\n        return registeredRecipientAddressesArray[groupId];\n    }\n}\n",
  "sourcePath": "/Users/jim/Git-Projects/EthDrop/contracts/roles/RecipientsManager.sol",
  "compiler": {
    "name": "solc",
    "version": "0.8.6+commit.11564f7e.Emscripten.clang"
  },
  "schemaVersion": "3.4.1",
  "updatedAt": "2021-07-30T15:28:26.056Z",
  "networkType": "ethereum",
  "devdoc": {
    "kind": "dev",
    "methods": {
      "pause()": {
        "details": "Called by any \"C-level\" role to pause the contract. Used only when  a bug or exploit is detected and we need to limit damage."
      },
      "setCEO(address)": {
        "details": "Assigns a new address to act as the CEO. Only available to the current CEO.",
        "params": {
          "_newCEO": "The address of the new CEO"
        }
      },
      "setCFO(address)": {
        "details": "Assigns a new address to act as the CFO. Only available to the current CEO.",
        "params": {
          "_newCFO": "The address of the new CFO"
        }
      },
      "setCOO(address)": {
        "details": "Assigns a new address to act as the COO. Only available to the current CEO.",
        "params": {
          "_newCOO": "The address of the new COO"
        }
      },
      "unpause()": {
        "details": "Unpauses the smart contract. Can only be called by the CEO, since  one reason we may pause the contract is when CFO or COO accounts are  compromised."
      }
    },
    "version": 1
  },
  "userdoc": {
    "kind": "user",
    "methods": {
      "unpause()": {
        "notice": "This is public rather than external so it can be called by  derived contracts."
      }
    },
    "version": 1
  }
}