{
  "contractName": "RecipientsManager",
  "abi": [
    {
      "inputs": [],
      "stateMutability": "nonpayable",
      "type": "constructor"
    },
    {
      "anonymous": false,
      "inputs": [
        {
          "indexed": false,
          "internalType": "address",
          "name": "newContract",
          "type": "address"
        }
      ],
      "name": "ContractUpgrade",
      "type": "event"
    },
    {
      "anonymous": false,
      "inputs": [
        {
          "indexed": true,
          "internalType": "address",
          "name": "account",
          "type": "address"
        },
        {
          "indexed": false,
          "internalType": "uint256",
          "name": "groupId",
          "type": "uint256"
        }
      ],
      "name": "EligibleRecipientAdded",
      "type": "event"
    },
    {
      "anonymous": false,
      "inputs": [
        {
          "indexed": true,
          "internalType": "address",
          "name": "account",
          "type": "address"
        },
        {
          "indexed": false,
          "internalType": "uint256",
          "name": "groupId",
          "type": "uint256"
        }
      ],
      "name": "EligibleRecipientRemoved",
      "type": "event"
    },
    {
      "anonymous": false,
      "inputs": [],
      "name": "EventClose",
      "type": "event"
    },
    {
      "anonymous": false,
      "inputs": [
        {
          "indexed": true,
          "internalType": "address",
          "name": "account",
          "type": "address"
        },
        {
          "indexed": false,
          "internalType": "uint256",
          "name": "groupId",
          "type": "uint256"
        }
      ],
      "name": "RecipientRegistered",
      "type": "event"
    },
    {
      "anonymous": false,
      "inputs": [],
      "name": "RegistrationOpen",
      "type": "event"
    },
    {
      "anonymous": false,
      "inputs": [
        {
          "indexed": false,
          "internalType": "address",
          "name": "from",
          "type": "address"
        },
        {
          "indexed": false,
          "internalType": "address",
          "name": "to",
          "type": "address"
        }
      ],
      "name": "Transfer",
      "type": "event"
    },
    {
      "anonymous": false,
      "inputs": [
        {
          "indexed": true,
          "internalType": "address",
          "name": "account",
          "type": "address"
        },
        {
          "indexed": false,
          "internalType": "uint256",
          "name": "groupId",
          "type": "uint256"
        }
      ],
      "name": "WinningsClaimed",
      "type": "event"
    },
    {
      "anonymous": false,
      "inputs": [],
      "name": "WinningsClaimingOpen",
      "type": "event"
    },
    {
      "inputs": [],
      "name": "ceoAddress",
      "outputs": [
        {
          "internalType": "address",
          "name": "",
          "type": "address"
        }
      ],
      "stateMutability": "view",
      "type": "function",
      "constant": true
    },
    {
      "inputs": [],
      "name": "cfoAddress",
      "outputs": [
        {
          "internalType": "address",
          "name": "",
          "type": "address"
        }
      ],
      "stateMutability": "view",
      "type": "function",
      "constant": true
    },
    {
      "inputs": [],
      "name": "cooAddress",
      "outputs": [
        {
          "internalType": "address",
          "name": "",
          "type": "address"
        }
      ],
      "stateMutability": "view",
      "type": "function",
      "constant": true
    },
    {
      "inputs": [],
      "name": "getCFO",
      "outputs": [
        {
          "internalType": "address",
          "name": "",
          "type": "address"
        }
      ],
      "stateMutability": "view",
      "type": "function",
      "constant": true
    },
    {
      "inputs": [],
      "name": "getCOO",
      "outputs": [
        {
          "internalType": "address",
          "name": "",
          "type": "address"
        }
      ],
      "stateMutability": "view",
      "type": "function",
      "constant": true
    },
    {
      "inputs": [
        {
          "internalType": "uint256",
          "name": "groupId",
          "type": "uint256"
        }
      ],
      "name": "getGroupEventData",
      "outputs": [
        {
          "internalType": "enum EthDropBase.EventState",
          "name": "",
          "type": "uint8"
        },
        {
          "internalType": "uint256",
          "name": "",
          "type": "uint256"
        },
        {
          "internalType": "uint256",
          "name": "",
          "type": "uint256"
        },
        {
          "internalType": "uint256",
          "name": "",
          "type": "uint256"
        },
        {
          "internalType": "uint256",
          "name": "",
          "type": "uint256"
        }
      ],
      "stateMutability": "view",
      "type": "function",
      "constant": true
    },
    {
      "inputs": [],
      "name": "getGroupIds",
      "outputs": [
        {
          "internalType": "uint256[]",
          "name": "",
          "type": "uint256[]"
        }
      ],
      "stateMutability": "view",
      "type": "function",
      "constant": true
    },
    {
      "inputs": [],
      "name": "getGroupNames",
      "outputs": [
        {
          "internalType": "string[]",
          "name": "",
          "type": "string[]"
        }
      ],
      "stateMutability": "view",
      "type": "function",
      "constant": true
    },
    {
      "inputs": [],
      "name": "getString",
      "outputs": [
        {
          "internalType": "string",
          "name": "",
          "type": "string"
        }
      ],
      "stateMutability": "view",
      "type": "function",
      "constant": true
    },
    {
      "inputs": [],
      "name": "isCEO",
      "outputs": [
        {
          "internalType": "bool",
          "name": "",
          "type": "bool"
        }
      ],
      "stateMutability": "view",
      "type": "function",
      "constant": true
    },
    {
      "inputs": [],
      "name": "isCFO",
      "outputs": [
        {
          "internalType": "bool",
          "name": "",
          "type": "bool"
        }
      ],
      "stateMutability": "view",
      "type": "function",
      "constant": true
    },
    {
      "inputs": [],
      "name": "isCOO",
      "outputs": [
        {
          "internalType": "bool",
          "name": "",
          "type": "bool"
        }
      ],
      "stateMutability": "view",
      "type": "function",
      "constant": true
    },
    {
      "inputs": [],
      "name": "isPaused",
      "outputs": [
        {
          "internalType": "bool",
          "name": "",
          "type": "bool"
        }
      ],
      "stateMutability": "view",
      "type": "function",
      "constant": true
    },
    {
      "inputs": [],
      "name": "pause",
      "outputs": [],
      "stateMutability": "nonpayable",
      "type": "function"
    },
    {
      "inputs": [],
      "name": "paused",
      "outputs": [
        {
          "internalType": "bool",
          "name": "",
          "type": "bool"
        }
      ],
      "stateMutability": "view",
      "type": "function",
      "constant": true
    },
    {
      "inputs": [
        {
          "internalType": "address",
          "name": "_newCEO",
          "type": "address"
        }
      ],
      "name": "setCEO",
      "outputs": [],
      "stateMutability": "nonpayable",
      "type": "function"
    },
    {
      "inputs": [
        {
          "internalType": "address",
          "name": "_newCFO",
          "type": "address"
        }
      ],
      "name": "setCFO",
      "outputs": [],
      "stateMutability": "nonpayable",
      "type": "function"
    },
    {
      "inputs": [
        {
          "internalType": "address",
          "name": "_newCOO",
          "type": "address"
        }
      ],
      "name": "setCOO",
      "outputs": [],
      "stateMutability": "nonpayable",
      "type": "function"
    },
    {
      "inputs": [
        {
          "internalType": "string",
          "name": "_s",
          "type": "string"
        }
      ],
      "name": "setString",
      "outputs": [],
      "stateMutability": "nonpayable",
      "type": "function"
    },
    {
      "inputs": [],
      "name": "stringgg",
      "outputs": [
        {
          "internalType": "string",
          "name": "",
          "type": "string"
        }
      ],
      "stateMutability": "view",
      "type": "function",
      "constant": true
    },
    {
      "inputs": [],
      "name": "unpause",
      "outputs": [
        {
          "internalType": "bool",
          "name": "",
          "type": "bool"
        }
      ],
      "stateMutability": "nonpayable",
      "type": "function"
    },
    {
      "inputs": [],
      "name": "whoami",
      "outputs": [
        {
          "internalType": "address",
          "name": "",
          "type": "address"
        }
      ],
      "stateMutability": "view",
      "type": "function",
      "constant": true
    },
    {
      "inputs": [
        {
          "internalType": "address",
          "name": "account",
          "type": "address"
        },
        {
          "internalType": "uint256",
          "name": "groupId",
          "type": "uint256"
        }
      ],
      "name": "isEligibleRecipient",
      "outputs": [
        {
          "internalType": "bool",
          "name": "",
          "type": "bool"
        }
      ],
      "stateMutability": "view",
      "type": "function",
      "constant": true
    },
    {
      "inputs": [
        {
          "internalType": "uint256",
          "name": "groupId",
          "type": "uint256"
        }
      ],
      "name": "amIEligibleRecipient",
      "outputs": [
        {
          "internalType": "bool",
          "name": "",
          "type": "bool"
        }
      ],
      "stateMutability": "view",
      "type": "function",
      "constant": true
    },
    {
      "inputs": [
        {
          "internalType": "address",
          "name": "account",
          "type": "address"
        },
        {
          "internalType": "uint256",
          "name": "groupId",
          "type": "uint256"
        }
      ],
      "name": "isRegisteredRecipient",
      "outputs": [
        {
          "internalType": "bool",
          "name": "",
          "type": "bool"
        }
      ],
      "stateMutability": "view",
      "type": "function",
      "constant": true
    },
    {
      "inputs": [
        {
          "internalType": "uint256",
          "name": "groupId",
          "type": "uint256"
        }
      ],
      "name": "amIRegisteredRecipient",
      "outputs": [
        {
          "internalType": "bool",
          "name": "",
          "type": "bool"
        }
      ],
      "stateMutability": "view",
      "type": "function",
      "constant": true
    },
    {
      "inputs": [
        {
          "internalType": "uint256",
          "name": "groupId",
          "type": "uint256"
        }
      ],
      "name": "registerForEvent",
      "outputs": [],
      "stateMutability": "nonpayable",
      "type": "function"
    },
    {
      "inputs": [
        {
          "internalType": "uint256",
          "name": "groupId",
          "type": "uint256"
        }
      ],
      "name": "claimWinnings",
      "outputs": [],
      "stateMutability": "nonpayable",
      "type": "function"
    },
    {
      "inputs": [
        {
          "internalType": "uint256",
          "name": "groupId",
          "type": "uint256"
        }
      ],
      "name": "getEligibleRecipientAddresses",
      "outputs": [
        {
          "internalType": "address[]",
          "name": "",
          "type": "address[]"
        }
      ],
      "stateMutability": "view",
      "type": "function",
      "constant": true
    },
    {
      "inputs": [
        {
          "internalType": "uint256",
          "name": "groupId",
          "type": "uint256"
        }
      ],
      "name": "getEligibleRecipientIsEligibilityEnabled",
      "outputs": [
        {
          "internalType": "bool[]",
          "name": "",
          "type": "bool[]"
        }
      ],
      "stateMutability": "view",
      "type": "function",
      "constant": true
    },
    {
      "inputs": [
        {
          "internalType": "uint256",
          "name": "groupId",
          "type": "uint256"
        }
      ],
      "name": "getRegisteredRecipients",
      "outputs": [
        {
          "internalType": "address[]",
          "name": "",
          "type": "address[]"
        }
      ],
      "stateMutability": "view",
      "type": "function",
      "constant": true
    }
  ],
  "bytecode": "0x60806040526000600360146101000a81548160ff02191690831515021790555060056004556000600b5534801561003557600080fd5b5061231d806100456000396000f3fe608060405234801561001057600080fd5b50600436106101e55760003560e01c80637b936ac21161010f578063b187bd26116100a2578063d5f016c311610071578063d5f016c314610588578063e513b7a9146105a6578063f4a02e70146105c4578063fc5fd6e4146105e2576101e5565b8063b187bd2614610510578063b3b36bb31461052e578063c02b8b2c1461054c578063c6db50941461056a576101e5565b806389ea642f116100de57806389ea642f146104865780639393ae37146104a45780639bda8796146104c2578063b047fb50146104f2576101e5565b80637b936ac2146104125780637d837ce5146104305780637fcaf666146104605780638456cb591461047c576101e5565b8063406db8431161018757806355b57ec11161015657806355b57ec1146103785780635c975abb146103a85780635e82c1fc146103c6578063677bd9ff146103f6576101e5565b8063406db843146102dc57806344b2983b146102f85780634635509b146103285780634e0a33791461035c576101e5565b806327d7874c116101c357806327d7874c146102565780632ba73c151461027257806338f0b6561461028e5780633f4ba83a146102be576101e5565b80630519ce79146101ea57806306cc4922146102085780630a0f816814610238575b600080fd5b6101f2610600565b6040516101ff9190611db4565b60405180910390f35b610222600480360381019061021d9190611ac1565b610626565b60405161022f9190611e57565b60405180910390f35b610240610653565b60405161024d9190611db4565b60405180910390f35b610270600480360381019061026b9190611a0b565b610679565b005b61028c60048036038101906102879190611a0b565b610751565b005b6102a860048036038101906102a39190611ac1565b610829565b6040516102b59190611e57565b60405180910390f35b6102c6610856565b6040516102d39190611e57565b60405180910390f35b6102f660048036038101906102f19190611ac1565b6108fb565b005b610312600480360381019061030d9190611ac1565b610a84565b60405161031f9190611dcf565b60405180910390f35b610342600480360381019061033d9190611ac1565b610b25565b604051610353959493929190611e72565b60405180910390f35b61037660048036038101906103719190611a0b565b610ea8565b005b610392600480360381019061038d9190611ac1565b610f46565b60405161039f9190611df1565b60405180910390f35b6103b0610fd6565b6040516103bd9190611e57565b60405180910390f35b6103e060048036038101906103db9190611a38565b610fe9565b6040516103ed9190611e57565b60405180910390f35b610410600480360381019061040b9190611ac1565b611072565b005b61041a611257565b6040516104279190611db4565b60405180910390f35b61044a60048036038101906104459190611a38565b611281565b6040516104579190611e57565b60405180910390f35b61047a60048036038101906104759190611a78565b61130a565b005b610484611324565b005b61048e611465565b60405161049b9190611ec5565b60405180910390f35b6104ac6114f7565b6040516104b99190611e57565b60405180910390f35b6104dc60048036038101906104d79190611ac1565b61154f565b6040516104e99190611dcf565b60405180910390f35b6104fa6115f0565b6040516105079190611db4565b60405180910390f35b610518611616565b6040516105259190611e57565b60405180910390f35b61053661162d565b6040516105439190611db4565b60405180910390f35b610554611635565b6040516105619190611e35565b60405180910390f35b61057261168d565b60405161057f9190611ec5565b60405180910390f35b61059061171b565b60405161059d9190611e13565b60405180910390f35b6105ae6117f4565b6040516105bb9190611e57565b60405180910390f35b6105cc61184c565b6040516105d99190611e57565b60405180910390f35b6105ea6118a4565b6040516105f79190611db4565b60405180910390f35b600260009054906101000a900473ffffffffffffffffffffffffffffffffffffffff1681565b6000600360149054906101000a900460ff161561064257600080fd5b61064c3383610fe9565b9050919050565b600160009054906101000a900473ffffffffffffffffffffffffffffffffffffffff1681565b600160009054906101000a900473ffffffffffffffffffffffffffffffffffffffff1673ffffffffffffffffffffffffffffffffffffffff163373ffffffffffffffffffffffffffffffffffffffff16146106d357600080fd5b600073ffffffffffffffffffffffffffffffffffffffff168173ffffffffffffffffffffffffffffffffffffffff16141561070d57600080fd5b80600160006101000a81548173ffffffffffffffffffffffffffffffffffffffff021916908373ffffffffffffffffffffffffffffffffffffffff16021790555050565b600160009054906101000a900473ffffffffffffffffffffffffffffffffffffffff1673ffffffffffffffffffffffffffffffffffffffff163373ffffffffffffffffffffffffffffffffffffffff16146107ab57600080fd5b600073ffffffffffffffffffffffffffffffffffffffff168173ffffffffffffffffffffffffffffffffffffffff1614156107e557600080fd5b80600360006101000a81548173ffffffffffffffffffffffffffffffffffffffff021916908373ffffffffffffffffffffffffffffffffffffffff16021790555050565b6000600360149054906101000a900460ff161561084557600080fd5b61084f3383611281565b9050919050565b6000600160009054906101000a900473ffffffffffffffffffffffffffffffffffffffff1673ffffffffffffffffffffffffffffffffffffffff163373ffffffffffffffffffffffffffffffffffffffff16146108b257600080fd5b600360149054906101000a900460ff166108cb57600080fd5b6000600360146101000a81548160ff021916908315150217905550600360149054906101000a900460ff16905090565b806109063382610fe9565b61090f57600080fd5b600360149054906101000a900460ff161561092957600080fd5b60016014600084815260200190815260200160002060003373ffffffffffffffffffffffffffffffffffffffff1673ffffffffffffffffffffffffffffffffffffffff16815260200190815260200160002060006101000a81548160ff02191690831515021790555060156000838152602001908152602001600020339080600181540180825580915050600190039060005260206000200160009091909190916101000a81548173ffffffffffffffffffffffffffffffffffffffff021916908373ffffffffffffffffffffffffffffffffffffffff160217905550600760008381526020019081526020016000206006016000815480929190610a2d9061217b565b91905055503373ffffffffffffffffffffffffffffffffffffffff167f0695e999be8100bdb5bee8612337296508d527eae78c65b8f170eacb5a3b439d83604051610a789190611ee7565b60405180910390a25050565b606060156000838152602001908152602001600020805480602002602001604051908101604052809291908181526020018280548015610b1957602002820191906000526020600020905b8160009054906101000a900473ffffffffffffffffffffffffffffffffffffffff1673ffffffffffffffffffffffffffffffffffffffff1681526020019060010190808311610acf575b50505050509050919050565b60008060008060008060076000888152602001908152602001600020604051806101c001604052908160008201548152602001600182018054610b6790612118565b80601f0160208091040260200160405190810160405280929190818152602001828054610b9390612118565b8015610be05780601f10610bb557610100808354040283529160200191610be0565b820191906000526020600020905b815481529060010190602001808311610bc357829003601f168201915b505050505081526020016002820160009054906101000a900460ff166003811115610c0e57610c0d6121f3565b5b6003811115610c2057610c1f6121f3565b5b815260200160038201548152602001600482015481526020016005820154815260200160068201548152602001600782018054610c5c90612118565b80601f0160208091040260200160405190810160405280929190818152602001828054610c8890612118565b8015610cd55780601f10610caa57610100808354040283529160200191610cd5565b820191906000526020600020905b815481529060010190602001808311610cb857829003601f168201915b50505050508152602001600882018054610cee90612118565b80601f0160208091040260200160405190810160405280929190818152602001828054610d1a90612118565b8015610d675780601f10610d3c57610100808354040283529160200191610d67565b820191906000526020600020905b815481529060010190602001808311610d4a57829003601f168201915b50505050508152602001600982018054610d8090612118565b80601f0160208091040260200160405190810160405280929190818152602001828054610dac90612118565b8015610df95780601f10610dce57610100808354040283529160200191610df9565b820191906000526020600020905b815481529060010190602001808311610ddc57829003601f168201915b50505050508152602001600a820160009054906101000a900473ffffffffffffffffffffffffffffffffffffffff1673ffffffffffffffffffffffffffffffffffffffff1673ffffffffffffffffffffffffffffffffffffffff168152602001600b8201548152602001600c8201548152602001600d82015481525050905080604001518160c00151826101600151836101800151846101a00151955095509550955095505091939590929450565b600160009054906101000a900473ffffffffffffffffffffffffffffffffffffffff1673ffffffffffffffffffffffffffffffffffffffff163373ffffffffffffffffffffffffffffffffffffffff1614610f0257600080fd5b80600260006101000a81548173ffffffffffffffffffffffffffffffffffffffff021916908373ffffffffffffffffffffffffffffffffffffffff16021790555050565b606060136000838152602001908152602001600020805480602002602001604051908101604052809291908181526020018280548015610fca57602002820191906000526020600020906000905b82829054906101000a900460ff16151581526020019060010190602082600001049283019260010382029150808411610f945790505b50505050509050919050565b600360149054906101000a900460ff1681565b6000600360149054906101000a900460ff161561100557600080fd5b600115156011600084815260200190815260200160002060008573ffffffffffffffffffffffffffffffffffffffff1673ffffffffffffffffffffffffffffffffffffffff16815260200190815260200160002060009054906101000a900460ff16151514905092915050565b8061107d3382611281565b61108657600080fd5b813360011515600c600084815260200190815260200160002060003373ffffffffffffffffffffffffffffffffffffffff1673ffffffffffffffffffffffffffffffffffffffff16815260200190815260200160002060009054906101000a900460ff16151514156110f757600080fd5b600360149054906101000a900460ff161561111157600080fd5b6001600c600086815260200190815260200160002060003373ffffffffffffffffffffffffffffffffffffffff1673ffffffffffffffffffffffffffffffffffffffff16815260200190815260200160002060006101000a81548160ff02191690831515021790555060076000858152602001908152602001600020600d0160008154809291906111a19061217b565b91905055503373ffffffffffffffffffffffffffffffffffffffff166108fc60076000878152602001908152602001600020600c01549081150290604051600060405180830381858888f19350505050158015611202573d6000803e3d6000fd5b503373ffffffffffffffffffffffffffffffffffffffff167f1a31e733a172afcf46074b3106c17f0c298e226442682a03c1e99ce256139ec2856040516112499190611ee7565b60405180910390a250505050565b6000600260009054906101000a900473ffffffffffffffffffffffffffffffffffffffff16905090565b6000600360149054906101000a900460ff161561129d57600080fd5b600115156014600084815260200190815260200160002060008573ffffffffffffffffffffffffffffffffffffffff1673ffffffffffffffffffffffffffffffffffffffff16815260200190815260200160002060009054906101000a900460ff16151514905092915050565b80600090805190602001906113209291906118ce565b5050565b600360009054906101000a900473ffffffffffffffffffffffffffffffffffffffff1673ffffffffffffffffffffffffffffffffffffffff163373ffffffffffffffffffffffffffffffffffffffff1614806113cd5750600160009054906101000a900473ffffffffffffffffffffffffffffffffffffffff1673ffffffffffffffffffffffffffffffffffffffff163373ffffffffffffffffffffffffffffffffffffffff16145b806114255750600260009054906101000a900473ffffffffffffffffffffffffffffffffffffffff1673ffffffffffffffffffffffffffffffffffffffff163373ffffffffffffffffffffffffffffffffffffffff16145b61142e57600080fd5b600360149054906101000a900460ff161561144857600080fd5b6001600360146101000a81548160ff021916908315150217905550565b60606000805461147490612118565b80601f01602080910402602001604051908101604052809291908181526020018280546114a090612118565b80156114ed5780601f106114c2576101008083540402835291602001916114ed565b820191906000526020600020905b8154815290600101906020018083116114d057829003601f168201915b5050505050905090565b6000600260009054906101000a900473ffffffffffffffffffffffffffffffffffffffff1673ffffffffffffffffffffffffffffffffffffffff163373ffffffffffffffffffffffffffffffffffffffff1614905090565b6060601260008381526020019081526020016000208054806020026020016040519081016040528092919081815260200182805480156115e457602002820191906000526020600020905b8160009054906101000a900473ffffffffffffffffffffffffffffffffffffffff1673ffffffffffffffffffffffffffffffffffffffff168152602001906001019080831161159a575b50505050509050919050565b600360009054906101000a900473ffffffffffffffffffffffffffffffffffffffff1681565b6000600360149054906101000a900460ff16905090565b600033905090565b6060600580548060200260200160405190810160405280929190818152602001828054801561168357602002820191906000526020600020905b81548152602001906001019080831161166f575b5050505050905090565b6000805461169a90612118565b80601f01602080910402602001604051908101604052809291908181526020018280546116c690612118565b80156117135780601f106116e857610100808354040283529160200191611713565b820191906000526020600020905b8154815290600101906020018083116116f657829003601f168201915b505050505081565b60606006805480602002602001604051908101604052809291908181526020016000905b828210156117eb57838290600052602060002001805461175e90612118565b80601f016020809104026020016040519081016040528092919081815260200182805461178a90612118565b80156117d75780601f106117ac576101008083540402835291602001916117d7565b820191906000526020600020905b8154815290600101906020018083116117ba57829003601f168201915b50505050508152602001906001019061173f565b50505050905090565b6000600160009054906101000a900473ffffffffffffffffffffffffffffffffffffffff1673ffffffffffffffffffffffffffffffffffffffff163373ffffffffffffffffffffffffffffffffffffffff1614905090565b6000600360009054906101000a900473ffffffffffffffffffffffffffffffffffffffff1673ffffffffffffffffffffffffffffffffffffffff163373ffffffffffffffffffffffffffffffffffffffff1614905090565b6000600360009054906101000a900473ffffffffffffffffffffffffffffffffffffffff16905090565b8280546118da90612118565b90600052602060002090601f0160209004810192826118fc5760008555611943565b82601f1061191557805160ff1916838001178555611943565b82800160010185558215611943579182015b82811115611942578251825591602001919060010190611927565b5b5090506119509190611954565b5090565b5b8082111561196d576000816000905550600101611955565b5090565b600061198461197f84611f27565b611f02565b9050828152602081018484840111156119a05761199f612285565b5b6119ab8482856120d6565b509392505050565b6000813590506119c2816122b9565b92915050565b600082601f8301126119dd576119dc612280565b5b81356119ed848260208601611971565b91505092915050565b600081359050611a05816122d0565b92915050565b600060208284031215611a2157611a2061228f565b5b6000611a2f848285016119b3565b91505092915050565b60008060408385031215611a4f57611a4e61228f565b5b6000611a5d858286016119b3565b9250506020611a6e858286016119f6565b9150509250929050565b600060208284031215611a8e57611a8d61228f565b5b600082013567ffffffffffffffff811115611aac57611aab61228a565b5b611ab8848285016119c8565b91505092915050565b600060208284031215611ad757611ad661228f565b5b6000611ae5848285016119f6565b91505092915050565b6000611afa8383611b4a565b60208301905092915050565b6000611b128383611cf7565b60208301905092915050565b6000611b2a8383611d24565b905092915050565b6000611b3e8383611d96565b60208301905092915050565b611b5381612069565b82525050565b611b6281612069565b82525050565b6000611b7382611f98565b611b7d8185612003565b9350611b8883611f58565b8060005b83811015611bb9578151611ba08882611aee565b9750611bab83611fcf565b925050600181019050611b8c565b5085935050505092915050565b6000611bd182611fa3565b611bdb8185612014565b9350611be683611f68565b8060005b83811015611c17578151611bfe8882611b06565b9750611c0983611fdc565b925050600181019050611bea565b5085935050505092915050565b6000611c2f82611fae565b611c398185612025565b935083602082028501611c4b85611f78565b8060005b85811015611c875784840389528151611c688582611b1e565b9450611c7383611fe9565b925060208a01995050600181019050611c4f565b50829750879550505050505092915050565b6000611ca482611fb9565b611cae8185612036565b9350611cb983611f88565b8060005b83811015611cea578151611cd18882611b32565b9750611cdc83611ff6565b925050600181019050611cbd565b5085935050505092915050565b611d008161207b565b82525050565b611d0f8161207b565b82525050565b611d1e816120c4565b82525050565b6000611d2f82611fc4565b611d398185612047565b9350611d498185602086016120e5565b611d5281612294565b840191505092915050565b6000611d6882611fc4565b611d728185612058565b9350611d828185602086016120e5565b611d8b81612294565b840191505092915050565b611d9f816120ba565b82525050565b611dae816120ba565b82525050565b6000602082019050611dc96000830184611b59565b92915050565b60006020820190508181036000830152611de98184611b68565b905092915050565b60006020820190508181036000830152611e0b8184611bc6565b905092915050565b60006020820190508181036000830152611e2d8184611c24565b905092915050565b60006020820190508181036000830152611e4f8184611c99565b905092915050565b6000602082019050611e6c6000830184611d06565b92915050565b600060a082019050611e876000830188611d15565b611e946020830187611da5565b611ea16040830186611da5565b611eae6060830185611da5565b611ebb6080830184611da5565b9695505050505050565b60006020820190508181036000830152611edf8184611d5d565b905092915050565b6000602082019050611efc6000830184611da5565b92915050565b6000611f0c611f1d565b9050611f18828261214a565b919050565b6000604051905090565b600067ffffffffffffffff821115611f4257611f41612251565b5b611f4b82612294565b9050602081019050919050565b6000819050602082019050919050565b6000819050602082019050919050565b6000819050602082019050919050565b6000819050602082019050919050565b600081519050919050565b600081519050919050565b600081519050919050565b600081519050919050565b600081519050919050565b6000602082019050919050565b6000602082019050919050565b6000602082019050919050565b6000602082019050919050565b600082825260208201905092915050565b600082825260208201905092915050565b600082825260208201905092915050565b600082825260208201905092915050565b600082825260208201905092915050565b600082825260208201905092915050565b60006120748261209a565b9050919050565b60008115159050919050565b6000819050612095826122a5565b919050565b600073ffffffffffffffffffffffffffffffffffffffff82169050919050565b6000819050919050565b60006120cf82612087565b9050919050565b82818337600083830152505050565b60005b838110156121035780820151818401526020810190506120e8565b83811115612112576000848401525b50505050565b6000600282049050600182168061213057607f821691505b6020821081141561214457612143612222565b5b50919050565b61215382612294565b810181811067ffffffffffffffff8211171561217257612171612251565b5b80604052505050565b6000612186826120ba565b91507fffffffffffffffffffffffffffffffffffffffffffffffffffffffffffffffff8214156121b9576121b86121c4565b5b600182019050919050565b7f4e487b7100000000000000000000000000000000000000000000000000000000600052601160045260246000fd5b7f4e487b7100000000000000000000000000000000000000000000000000000000600052602160045260246000fd5b7f4e487b7100000000000000000000000000000000000000000000000000000000600052602260045260246000fd5b7f4e487b7100000000000000000000000000000000000000000000000000000000600052604160045260246000fd5b600080fd5b600080fd5b600080fd5b600080fd5b6000601f19601f8301169050919050565b600481106122b6576122b56121f3565b5b50565b6122c281612069565b81146122cd57600080fd5b50565b6122d9816120ba565b81146122e457600080fd5b5056fea2646970667358221220fa564af56d7f1e8428d1a70cddbfdd4af556e8d4a3532ef7a4366191c3b37b4b64736f6c63430008060033",
  "immutableReferences": {},
  "source": "// SPDX-License-Identifier: MIT\npragma solidity ^0.8.0;\n\nimport \"../core/EthDropBase.sol\";\n\ncontract RecipientsManager is EthDropBase {\n    event EligibleRecipientAdded(address indexed account, uint256 groupId);\n    event EligibleRecipientRemoved(address indexed account, uint256 groupId);\n\n    event RecipientRegistered(address indexed account, uint256 groupId);\n    event WinningsClaimed(address indexed account, uint256 groupId);\n\n    constructor() {}\n\n    modifier onlyEligibleRecipients(uint256 groupId) {\n        require(isEligibleRecipient(msg.sender, groupId));\n        _;\n    }\n\n    function isEligibleRecipient(address account, uint256 groupId)\n        public\n        view\n        whenNotPaused\n        returns (bool)\n    {\n        return eligibleRecipients[groupId][account] == true;\n    }\n    \n    function amIEligibleRecipient(uint256 groupId)\n        external\n        view\n        whenNotPaused\n        returns (bool)\n    {\n        return isEligibleRecipient(msg.sender, groupId);\n    }\n\n    modifier onlyRegisteredRecipients(uint256 groupId) {\n        require(isRegisteredRecipient(msg.sender, groupId));\n        _;\n    }\n\n    modifier hasntAlreadyClaimedWinnings(uint256 groupId, address account) {\n        require(winningsCollected[groupId][msg.sender] != true);\n        _;\n    }\n\n    function isRegisteredRecipient(address account, uint256 groupId)\n        public\n        view\n        whenNotPaused\n        returns (bool)\n    {\n        return registeredRecipients[groupId][account] == true;\n    }\n\n    function amIRegisteredRecipient(uint256 groupId)\n        external\n        view\n        whenNotPaused\n        returns (bool)\n    {\n        return isRegisteredRecipient(msg.sender, groupId);\n    }\n\n    function registerForEvent(uint256 groupId)\n        external\n        onlyEligibleRecipients(groupId)\n        whenNotPaused\n    {\n        registeredRecipients[groupId][msg.sender] = true;\n        registeredRecipientsArray[groupId].push(msg.sender);\n        currentEvents[groupId].registeredRecipientsCount++;\n\n        emit RecipientRegistered(msg.sender, groupId);\n    }\n\n    function claimWinnings(uint256 groupId)\n        external\n        onlyRegisteredRecipients(groupId)\n        hasntAlreadyClaimedWinnings(groupId, msg.sender)\n        whenNotPaused\n    {\n        winningsCollected[groupId][msg.sender] = true;\n        currentEvents[groupId].numberOfUsersWhoClaimedWinnings++;\n\n        payable(msg.sender).transfer(currentEvents[groupId].weiWinnings);\n\n        emit WinningsClaimed(msg.sender, groupId);\n    }\n\n    function getEligibleRecipientAddresses(uint groupId) external view returns (address[] memory) {\n        return eligibleRecipientsArray[groupId];\n    }\n\n    function getEligibleRecipientIsEligibilityEnabled(uint groupId) external view returns (bool[] memory) {\n        return eligibleRecipientsEligibilityIsEnabled[groupId];\n    }\n\n    function getRegisteredRecipients(uint groupId) external view returns (address[] memory) {\n        return registeredRecipientsArray[groupId];\n    }\n\n}\n",
  "sourcePath": "/Users/jim/Git-Projects/EthDrop/contracts/roles/RecipientsManager.sol",
  "compiler": {
    "name": "solc",
    "version": "0.8.6+commit.11564f7e.Emscripten.clang"
  },
  "schemaVersion": "3.4.1",
  "updatedAt": "2021-07-24T17:16:41.485Z",
  "networkType": "ethereum",
  "devdoc": {
    "kind": "dev",
    "methods": {
      "pause()": {
        "details": "Called by any \"C-level\" role to pause the contract. Used only when  a bug or exploit is detected and we need to limit damage."
      },
      "setCEO(address)": {
        "details": "Assigns a new address to act as the CEO. Only available to the current CEO.",
        "params": {
          "_newCEO": "The address of the new CEO"
        }
      },
      "setCFO(address)": {
        "details": "Assigns a new address to act as the CFO. Only available to the current CEO.",
        "params": {
          "_newCFO": "The address of the new CFO"
        }
      },
      "setCOO(address)": {
        "details": "Assigns a new address to act as the COO. Only available to the current CEO.",
        "params": {
          "_newCOO": "The address of the new COO"
        }
      },
      "unpause()": {
        "details": "Unpauses the smart contract. Can only be called by the CEO, since  one reason we may pause the contract is when CFO or COO accounts are  compromised."
      }
    },
    "version": 1
  },
  "userdoc": {
    "kind": "user",
    "methods": {
      "unpause()": {
        "notice": "This is public rather than external so it can be called by  derived contracts."
      }
    },
    "version": 1
  }
}