{
  "contractName": "RecipientsManager",
  "abi": [
    {
      "inputs": [],
      "stateMutability": "nonpayable",
      "type": "constructor"
    },
    {
      "anonymous": false,
      "inputs": [
        {
          "indexed": false,
          "internalType": "bool",
          "name": "isPaused",
          "type": "bool"
        }
      ],
      "name": "AppPaused",
      "type": "event"
    },
    {
      "anonymous": false,
      "inputs": [],
      "name": "CfoUpdated",
      "type": "event"
    },
    {
      "anonymous": false,
      "inputs": [
        {
          "indexed": false,
          "internalType": "address",
          "name": "newContract",
          "type": "address"
        }
      ],
      "name": "ContractUpgrade",
      "type": "event"
    },
    {
      "anonymous": false,
      "inputs": [],
      "name": "CooUpdated",
      "type": "event"
    },
    {
      "anonymous": false,
      "inputs": [
        {
          "indexed": true,
          "internalType": "address",
          "name": "account",
          "type": "address"
        },
        {
          "indexed": false,
          "internalType": "uint256",
          "name": "groupId",
          "type": "uint256"
        }
      ],
      "name": "EligibleRecipientAdded",
      "type": "event"
    },
    {
      "anonymous": false,
      "inputs": [
        {
          "indexed": true,
          "internalType": "address",
          "name": "account",
          "type": "address"
        },
        {
          "indexed": false,
          "internalType": "uint256",
          "name": "groupId",
          "type": "uint256"
        }
      ],
      "name": "EligibleRecipientRemoved",
      "type": "event"
    },
    {
      "anonymous": false,
      "inputs": [],
      "name": "EventClose",
      "type": "event"
    },
    {
      "anonymous": false,
      "inputs": [
        {
          "indexed": false,
          "internalType": "uint256",
          "name": "groupId",
          "type": "uint256"
        },
        {
          "indexed": false,
          "internalType": "address",
          "name": "account",
          "type": "address"
        },
        {
          "indexed": false,
          "internalType": "uint256",
          "name": "index",
          "type": "uint256"
        }
      ],
      "name": "NewUserRequestedToJoinGroup",
      "type": "event"
    },
    {
      "anonymous": false,
      "inputs": [
        {
          "indexed": true,
          "internalType": "address",
          "name": "account",
          "type": "address"
        },
        {
          "indexed": false,
          "internalType": "uint256",
          "name": "groupId",
          "type": "uint256"
        }
      ],
      "name": "RecipientRegistered",
      "type": "event"
    },
    {
      "anonymous": false,
      "inputs": [],
      "name": "RegistrationOpen",
      "type": "event"
    },
    {
      "anonymous": false,
      "inputs": [
        {
          "indexed": false,
          "internalType": "address",
          "name": "from",
          "type": "address"
        },
        {
          "indexed": false,
          "internalType": "address",
          "name": "to",
          "type": "address"
        }
      ],
      "name": "Transfer",
      "type": "event"
    },
    {
      "anonymous": false,
      "inputs": [
        {
          "indexed": true,
          "internalType": "address",
          "name": "account",
          "type": "address"
        },
        {
          "indexed": false,
          "internalType": "uint256",
          "name": "groupId",
          "type": "uint256"
        }
      ],
      "name": "WinningsClaimed",
      "type": "event"
    },
    {
      "anonymous": false,
      "inputs": [],
      "name": "WinningsClaimingOpen",
      "type": "event"
    },
    {
      "inputs": [],
      "name": "ceoAddress",
      "outputs": [
        {
          "internalType": "address",
          "name": "",
          "type": "address"
        }
      ],
      "stateMutability": "view",
      "type": "function"
    },
    {
      "inputs": [],
      "name": "cfoAddress",
      "outputs": [
        {
          "internalType": "address",
          "name": "",
          "type": "address"
        }
      ],
      "stateMutability": "view",
      "type": "function"
    },
    {
      "inputs": [],
      "name": "cooAddress",
      "outputs": [
        {
          "internalType": "address",
          "name": "",
          "type": "address"
        }
      ],
      "stateMutability": "view",
      "type": "function"
    },
    {
      "inputs": [],
      "name": "getCFO",
      "outputs": [
        {
          "internalType": "address",
          "name": "",
          "type": "address"
        }
      ],
      "stateMutability": "view",
      "type": "function"
    },
    {
      "inputs": [],
      "name": "getCOO",
      "outputs": [
        {
          "internalType": "address",
          "name": "",
          "type": "address"
        }
      ],
      "stateMutability": "view",
      "type": "function"
    },
    {
      "inputs": [
        {
          "internalType": "uint256",
          "name": "groupId",
          "type": "uint256"
        }
      ],
      "name": "getGroupEventData",
      "outputs": [
        {
          "internalType": "enum EthDropBase.EventState",
          "name": "",
          "type": "uint8"
        },
        {
          "internalType": "uint256",
          "name": "",
          "type": "uint256"
        },
        {
          "internalType": "uint256",
          "name": "",
          "type": "uint256"
        },
        {
          "internalType": "uint256",
          "name": "",
          "type": "uint256"
        },
        {
          "internalType": "uint256",
          "name": "",
          "type": "uint256"
        }
      ],
      "stateMutability": "view",
      "type": "function"
    },
    {
      "inputs": [],
      "name": "getGroupIds",
      "outputs": [
        {
          "internalType": "uint256[]",
          "name": "",
          "type": "uint256[]"
        }
      ],
      "stateMutability": "view",
      "type": "function"
    },
    {
      "inputs": [],
      "name": "getGroupNames",
      "outputs": [
        {
          "internalType": "string[]",
          "name": "",
          "type": "string[]"
        }
      ],
      "stateMutability": "view",
      "type": "function"
    },
    {
      "inputs": [
        {
          "internalType": "uint256",
          "name": "groupId",
          "type": "uint256"
        }
      ],
      "name": "getGroupPublicData",
      "outputs": [
        {
          "internalType": "uint256",
          "name": "",
          "type": "uint256"
        },
        {
          "internalType": "string",
          "name": "",
          "type": "string"
        },
        {
          "internalType": "enum EthDropBase.EventState",
          "name": "",
          "type": "uint8"
        },
        {
          "internalType": "uint256",
          "name": "",
          "type": "uint256"
        },
        {
          "internalType": "uint256",
          "name": "",
          "type": "uint256"
        },
        {
          "internalType": "uint256",
          "name": "",
          "type": "uint256"
        },
        {
          "internalType": "uint256",
          "name": "",
          "type": "uint256"
        }
      ],
      "stateMutability": "view",
      "type": "function"
    },
    {
      "inputs": [],
      "name": "getString",
      "outputs": [
        {
          "internalType": "string",
          "name": "",
          "type": "string"
        }
      ],
      "stateMutability": "view",
      "type": "function"
    },
    {
      "inputs": [],
      "name": "isCEO",
      "outputs": [
        {
          "internalType": "bool",
          "name": "",
          "type": "bool"
        }
      ],
      "stateMutability": "view",
      "type": "function"
    },
    {
      "inputs": [],
      "name": "isCFO",
      "outputs": [
        {
          "internalType": "bool",
          "name": "",
          "type": "bool"
        }
      ],
      "stateMutability": "view",
      "type": "function"
    },
    {
      "inputs": [],
      "name": "isCOO",
      "outputs": [
        {
          "internalType": "bool",
          "name": "",
          "type": "bool"
        }
      ],
      "stateMutability": "view",
      "type": "function"
    },
    {
      "inputs": [],
      "name": "isPaused",
      "outputs": [
        {
          "internalType": "bool",
          "name": "",
          "type": "bool"
        }
      ],
      "stateMutability": "view",
      "type": "function"
    },
    {
      "inputs": [],
      "name": "pause",
      "outputs": [],
      "stateMutability": "nonpayable",
      "type": "function"
    },
    {
      "inputs": [],
      "name": "paused",
      "outputs": [
        {
          "internalType": "bool",
          "name": "",
          "type": "bool"
        }
      ],
      "stateMutability": "view",
      "type": "function"
    },
    {
      "inputs": [
        {
          "internalType": "address",
          "name": "_newCEO",
          "type": "address"
        }
      ],
      "name": "setCEO",
      "outputs": [],
      "stateMutability": "nonpayable",
      "type": "function"
    },
    {
      "inputs": [
        {
          "internalType": "address",
          "name": "_newCFO",
          "type": "address"
        }
      ],
      "name": "setCFO",
      "outputs": [],
      "stateMutability": "nonpayable",
      "type": "function"
    },
    {
      "inputs": [
        {
          "internalType": "address",
          "name": "_newCOO",
          "type": "address"
        }
      ],
      "name": "setCOO",
      "outputs": [],
      "stateMutability": "nonpayable",
      "type": "function"
    },
    {
      "inputs": [
        {
          "internalType": "string",
          "name": "_s",
          "type": "string"
        }
      ],
      "name": "setString",
      "outputs": [],
      "stateMutability": "nonpayable",
      "type": "function"
    },
    {
      "inputs": [],
      "name": "stringgg",
      "outputs": [
        {
          "internalType": "string",
          "name": "",
          "type": "string"
        }
      ],
      "stateMutability": "view",
      "type": "function"
    },
    {
      "inputs": [],
      "name": "unpause",
      "outputs": [
        {
          "internalType": "bool",
          "name": "",
          "type": "bool"
        }
      ],
      "stateMutability": "nonpayable",
      "type": "function"
    },
    {
      "inputs": [],
      "name": "whoami",
      "outputs": [
        {
          "internalType": "address",
          "name": "",
          "type": "address"
        }
      ],
      "stateMutability": "view",
      "type": "function"
    },
    {
      "inputs": [
        {
          "internalType": "address",
          "name": "account",
          "type": "address"
        },
        {
          "internalType": "uint256",
          "name": "groupId",
          "type": "uint256"
        }
      ],
      "name": "isEligibleRecipient",
      "outputs": [
        {
          "internalType": "bool",
          "name": "",
          "type": "bool"
        }
      ],
      "stateMutability": "view",
      "type": "function"
    },
    {
      "inputs": [
        {
          "internalType": "uint256",
          "name": "groupId",
          "type": "uint256"
        }
      ],
      "name": "amIEligibleRecipient",
      "outputs": [
        {
          "internalType": "bool",
          "name": "",
          "type": "bool"
        }
      ],
      "stateMutability": "view",
      "type": "function"
    },
    {
      "inputs": [
        {
          "internalType": "address",
          "name": "account",
          "type": "address"
        },
        {
          "internalType": "uint256",
          "name": "groupId",
          "type": "uint256"
        }
      ],
      "name": "isRegisteredRecipient",
      "outputs": [
        {
          "internalType": "bool",
          "name": "",
          "type": "bool"
        }
      ],
      "stateMutability": "view",
      "type": "function"
    },
    {
      "inputs": [
        {
          "internalType": "uint256",
          "name": "groupId",
          "type": "uint256"
        }
      ],
      "name": "amIRegisteredRecipient",
      "outputs": [
        {
          "internalType": "bool",
          "name": "",
          "type": "bool"
        }
      ],
      "stateMutability": "view",
      "type": "function"
    },
    {
      "inputs": [
        {
          "internalType": "uint256",
          "name": "groupId",
          "type": "uint256"
        }
      ],
      "name": "registerForEvent",
      "outputs": [],
      "stateMutability": "nonpayable",
      "type": "function"
    },
    {
      "inputs": [
        {
          "internalType": "uint256",
          "name": "groupId",
          "type": "uint256"
        }
      ],
      "name": "doIHaveClaimableWinnings",
      "outputs": [
        {
          "internalType": "bool",
          "name": "",
          "type": "bool"
        }
      ],
      "stateMutability": "view",
      "type": "function"
    },
    {
      "inputs": [
        {
          "internalType": "uint256",
          "name": "groupId",
          "type": "uint256"
        }
      ],
      "name": "claimWinnings",
      "outputs": [],
      "stateMutability": "nonpayable",
      "type": "function"
    },
    {
      "inputs": [
        {
          "internalType": "uint256",
          "name": "groupId",
          "type": "uint256"
        }
      ],
      "name": "getEligibleRecipientAddresses",
      "outputs": [
        {
          "internalType": "address[]",
          "name": "",
          "type": "address[]"
        }
      ],
      "stateMutability": "view",
      "type": "function"
    },
    {
      "inputs": [
        {
          "internalType": "uint256",
          "name": "groupId",
          "type": "uint256"
        }
      ],
      "name": "getEligibleRecipientNames",
      "outputs": [
        {
          "internalType": "string[]",
          "name": "",
          "type": "string[]"
        }
      ],
      "stateMutability": "view",
      "type": "function"
    },
    {
      "inputs": [
        {
          "internalType": "uint256",
          "name": "groupId",
          "type": "uint256"
        }
      ],
      "name": "getRegisteredRecipientNames",
      "outputs": [
        {
          "internalType": "string[]",
          "name": "",
          "type": "string[]"
        }
      ],
      "stateMutability": "view",
      "type": "function"
    },
    {
      "inputs": [
        {
          "internalType": "uint256",
          "name": "groupId",
          "type": "uint256"
        }
      ],
      "name": "getEligibleRecipientIsEligibilityEnabled",
      "outputs": [
        {
          "internalType": "bool[]",
          "name": "",
          "type": "bool[]"
        }
      ],
      "stateMutability": "view",
      "type": "function"
    },
    {
      "inputs": [
        {
          "internalType": "uint256",
          "name": "groupId",
          "type": "uint256"
        }
      ],
      "name": "getRegisteredRecipients",
      "outputs": [
        {
          "internalType": "address[]",
          "name": "",
          "type": "address[]"
        },
        {
          "internalType": "string[]",
          "name": "",
          "type": "string[]"
        },
        {
          "internalType": "bool[]",
          "name": "",
          "type": "bool[]"
        }
      ],
      "stateMutability": "view",
      "type": "function"
    },
    {
      "inputs": [
        {
          "internalType": "uint256",
          "name": "groupId",
          "type": "uint256"
        },
        {
          "internalType": "string",
          "name": "username",
          "type": "string"
        }
      ],
      "name": "requestToJoinGroup",
      "outputs": [],
      "stateMutability": "nonpayable",
      "type": "function"
    }
  ],
  "bytecode": "0x608060405233600160006101000a81548173ffffffffffffffffffffffffffffffffffffffff021916908373ffffffffffffffffffffffffffffffffffffffff1602179055506000600360146101000a81548160ff0219169083151502179055506005805534801561007057600080fd5b506139eb806100806000396000f3fe608060405234801561001057600080fd5b506004361061021c5760003560e01c80637b936ac211610125578063b3b36bb3116100ad578063d5f016c31161007c578063d5f016c314610673578063e513b7a914610691578063f4a02e70146106af578063f89e9cb9146106cd578063fc5fd6e4146106fd5761021c565b8063b3b36bb3146105e3578063c02b8b2c14610601578063c6db50941461061f578063cd04e4751461063d5761021c565b806389ea642f116100f457806389ea642f1461053b5780639393ae37146105595780639bda879614610577578063b047fb50146105a7578063b187bd26146105c55761021c565b80637b936ac2146104c75780637d837ce5146104e55780637fcaf666146105155780638456cb59146105315761021c565b8063406db843116101a85780634e0a3379116101775780634e0a33791461041157806355b57ec11461042d5780635c975abb1461045d5780635e82c1fc1461047b578063677bd9ff146104ab5761021c565b8063406db8431461035f57806344b2983b1461037b578063454432e2146103ad5780634635509b146103dd5761021c565b8063222fd087116101ef578063222fd087146102bd57806327d7874c146102d95780632ba73c15146102f557806338f0b656146103115780633f4ba83a146103415761021c565b80630519ce791461022157806306cc49221461023f57806307bfa3301461026f5780630a0f81681461029f575b600080fd5b61022961071b565b6040516102369190613187565b60405180910390f35b61025960048036038101906102549190612dcb565b610741565b6040516102669190613276565b60405180910390f35b61028960048036038101906102849190612dcb565b61076e565b6040516102969190613232565b60405180910390f35b6102a761085a565b6040516102b49190613187565b60405180910390f35b6102d760048036038101906102d29190612df8565b610880565b005b6102f360048036038101906102ee9190612d15565b610dcb565b005b61030f600480360381019061030a9190612d15565b610ea3565b005b61032b60048036038101906103269190612dcb565b610fa7565b6040516103389190613276565b60405180910390f35b610349610fd4565b6040516103569190613276565b60405180910390f35b61037960048036038101906103749190612dcb565b611079565b005b61039560048036038101906103909190612dcb565b6115d7565b6040516103a4939291906131c4565b60405180910390f35b6103c760048036038101906103c29190612dcb565b6117f4565b6040516103d49190613232565b60405180910390f35b6103f760048036038101906103f29190612dcb565b6118e0565b604051610408959493929190613291565b60405180910390f35b61042b60048036038101906104269190612d15565b611c63565b005b61044760048036038101906104429190612dcb565b611d67565b6040516104549190613210565b60405180910390f35b610465611df7565b6040516104729190613276565b60405180910390f35b61049560048036038101906104909190612d42565b611e0a565b6040516104a29190613276565b60405180910390f35b6104c560048036038101906104c09190612dcb565b611e93565b005b6104cf612078565b6040516104dc9190613187565b60405180910390f35b6104ff60048036038101906104fa9190612d42565b6120a2565b60405161050c9190613276565b60405180910390f35b61052f600480360381019061052a9190612d82565b61211a565b005b610539612134565b005b610543612275565b60405161055091906132e4565b60405180910390f35b610561612307565b60405161056e9190613276565b60405180910390f35b610591600480360381019061058c9190612dcb565b61235f565b60405161059e91906131a2565b60405180910390f35b6105af612400565b6040516105bc9190613187565b60405180910390f35b6105cd612426565b6040516105da9190613276565b60405180910390f35b6105eb61243d565b6040516105f89190613187565b60405180910390f35b610609612445565b6040516106169190613254565b60405180910390f35b61062761249d565b60405161063491906132e4565b60405180910390f35b61065760048036038101906106529190612dcb565b61252b565b60405161066a97969594939291906133b8565b60405180910390f35b61067b6128c2565b6040516106889190613232565b60405180910390f35b61069961299b565b6040516106a69190613276565b60405180910390f35b6106b76129f3565b6040516106c49190613276565b60405180910390f35b6106e760048036038101906106e29190612dcb565b612a4b565b6040516106f49190613276565b60405180910390f35b610705612ad2565b6040516107129190613187565b60405180910390f35b600260009054906101000a900473ffffffffffffffffffffffffffffffffffffffff1681565b6000600360149054906101000a900460ff161561075d57600080fd5b6107673383611e0a565b9050919050565b6060601f6000838152602001908152602001600020805480602002602001604051908101604052809291908181526020016000905b8282101561084f5783829060005260206000200180546107c29061369a565b80601f01602080910402602001604051908101604052809291908181526020018280546107ee9061369a565b801561083b5780601f106108105761010080835404028352916020019161083b565b820191906000526020600020905b81548152906001019060200180831161081e57829003601f168201915b5050505050815260200190600101906107a3565b505050509050919050565b600160009054906101000a900473ffffffffffffffffffffffffffffffffffffffff1681565b823360006017600084815260200190815260200160002060008373ffffffffffffffffffffffffffffffffffffffff1673ffffffffffffffffffffffffffffffffffffffff1681526020019081526020016000205490506000811461091a576040517f08c379a000000000000000000000000000000000000000000000000000000000815260040161091190613306565b60405180910390fd5b853360006010600084815260200190815260200160002060008373ffffffffffffffffffffffffffffffffffffffff1673ffffffffffffffffffffffffffffffffffffffff168152602001908152602001600020549050600081146109b4576040517f08c379a00000000000000000000000000000000000000000000000000000000081526004016109ab90613346565b60405180910390fd5b6000601860008b8152602001908152602001600020541415610b64576001601860008b815260200190815260200160002081905550601960008a815260200190815260200160002060009080600181540180825580915050600190039060005260206000200160009091909190916101000a81548173ffffffffffffffffffffffffffffffffffffffff021916908373ffffffffffffffffffffffffffffffffffffffff160217905550601a60008a815260200190815260200160002080600181540180825580915050600190039060005260206000200160006040518060200160405280600081525090919091509080519060200190610ab6929190612afc565b50601b60008a8152602001908152602001600020600090806001815401808255809150506001900390600052602060002090602091828204019190069091909190916101000a81548160ff021916908315150217905550601c60008a8152602001908152602001600020600090806001815401808255809150506001900390600052602060002090602091828204019190069091909190916101000a81548160ff0219169083151502179055505b601860008a815260200190815260200160002054601760008b815260200190815260200160002060003373ffffffffffffffffffffffffffffffffffffffff1673ffffffffffffffffffffffffffffffffffffffff16815260200190815260200160002081905550601960008a8152602001908152602001600020339080600181540180825580915050600190039060005260206000200160009091909190916101000a81548173ffffffffffffffffffffffffffffffffffffffff021916908373ffffffffffffffffffffffffffffffffffffffff160217905550601a60008a8152602001908152602001600020888890918060018154018082558091505060019003906000526020600020016000909192909192909192909192509190610c8e929190612b82565b50601b60008a8152602001908152602001600020600190806001815401808255809150506001900390600052602060002090602091828204019190069091909190916101000a81548160ff021916908315150217905550601c60008a8152602001908152602001600020600090806001815401808255809150506001900390600052602060002090602091828204019190069091909190916101000a81548160ff0219169083151502179055506001601860008b815260200190815260200160002054610d5b9190613595565b601860008b8152602001908152602001600020819055507fc73d895047e43bcf8caa9f1cce950d0f1a21fc9a00a8d693db86cd0c93dc91aa8933600b60008d815260200190815260200160002054604051610db893929190613381565b60405180910390a1505050505050505050565b600160009054906101000a900473ffffffffffffffffffffffffffffffffffffffff1673ffffffffffffffffffffffffffffffffffffffff163373ffffffffffffffffffffffffffffffffffffffff1614610e2557600080fd5b600073ffffffffffffffffffffffffffffffffffffffff168173ffffffffffffffffffffffffffffffffffffffff161415610e5f57600080fd5b80600160006101000a81548173ffffffffffffffffffffffffffffffffffffffff021916908373ffffffffffffffffffffffffffffffffffffffff16021790555050565b600160009054906101000a900473ffffffffffffffffffffffffffffffffffffffff1673ffffffffffffffffffffffffffffffffffffffff163373ffffffffffffffffffffffffffffffffffffffff1614610efd57600080fd5b600073ffffffffffffffffffffffffffffffffffffffff168173ffffffffffffffffffffffffffffffffffffffff161415610f3757600080fd5b80600360006101000a81548173ffffffffffffffffffffffffffffffffffffffff021916908373ffffffffffffffffffffffffffffffffffffffff1602179055507fa308298a77084def994b565be25bff2e8fbfe7006c2c6b2bacfb84d1ba1f635060405160405180910390a150565b6000600360149054906101000a900460ff1615610fc357600080fd5b610fcd33836120a2565b9050919050565b6000600160009054906101000a900473ffffffffffffffffffffffffffffffffffffffff1673ffffffffffffffffffffffffffffffffffffffff163373ffffffffffffffffffffffffffffffffffffffff161461103057600080fd5b600360149054906101000a900460ff1661104957600080fd5b6000600360146101000a81548160ff021916908315150217905550600360149054906101000a900460ff16905090565b806110843382611e0a565b61108d57600080fd5b813360006010600084815260200190815260200160002060003373ffffffffffffffffffffffffffffffffffffffff1673ffffffffffffffffffffffffffffffffffffffff1681526020019081526020016000205490506000151560146000858152602001908152602001600020828154811061110d5761110c6137d3565b5b90600052602060002090602091828204019190069054906101000a900460ff1615151415611170576040517f08c379a000000000000000000000000000000000000000000000000000000000815260040161116790613326565b60405180910390fd5b600360149054906101000a900460ff161561118a57600080fd5b6000601e60008781526020019081526020016000205414156112e4576001601e6000878152602001908152602001600020819055506020600086815260200190815260200160002060009080600181540180825580915050600190039060005260206000200160009091909190916101000a81548173ffffffffffffffffffffffffffffffffffffffff021916908373ffffffffffffffffffffffffffffffffffffffff160217905550601f60008681526020019081526020016000208060018154018082558091505060019003906000526020600020016000604051806020016040528060008152509091909150908051906020019061128c929190612afc565b5060216000868152602001908152602001600020600090806001815401808255809150506001900390600052602060002090602091828204019190069091909190916101000a81548160ff0219169083151502179055505b60006010600087815260200190815260200160002060003373ffffffffffffffffffffffffffffffffffffffff1673ffffffffffffffffffffffffffffffffffffffff16815260200190815260200160002054905060006013600088815260200190815260200160002082815481106113605761135f6137d3565b5b9060005260206000200180546113759061369a565b80601f01602080910402602001604051908101604052809291908181526020018280546113a19061369a565b80156113ee5780601f106113c3576101008083540402835291602001916113ee565b820191906000526020600020905b8154815290600101906020018083116113d157829003601f168201915b5050505050905060206000888152602001908152602001600020339080600181540180825580915050600190039060005260206000200160009091909190916101000a81548173ffffffffffffffffffffffffffffffffffffffff021916908373ffffffffffffffffffffffffffffffffffffffff160217905550601f6000888152602001908152602001600020819080600181540180825580915050600190039060005260206000200160009091909190915090805190602001906114b5929190612afc565b5060216000888152602001908152602001600020600090806001815401808255809150506001900390600052602060002090602091828204019190069091909190916101000a81548160ff0219169083151502179055506001600860008981526020019081526020016000206006015461152f9190613595565b60086000898152602001908152602001600020600601819055506001601e6000898152602001908152602001600020546115699190613595565b601e6000898152602001908152602001600020819055503373ffffffffffffffffffffffffffffffffffffffff167f0695e999be8100bdb5bee8612337296508d527eae78c65b8f170eacb5a3b439d886040516115c69190613366565b60405180910390a250505050505050565b606080606060206000858152602001908152602001600020601f6000868152602001908152602001600020602160008781526020019081526020016000208280548060200260200160405190810160405280929190818152602001828054801561169657602002820191906000526020600020905b8160009054906101000a900473ffffffffffffffffffffffffffffffffffffffff1673ffffffffffffffffffffffffffffffffffffffff168152602001906001019080831161164c575b5050505050925081805480602002602001604051908101604052809291908181526020016000905b8282101561176a5783829060005260206000200180546116dd9061369a565b80601f01602080910402602001604051908101604052809291908181526020018280546117099061369a565b80156117565780601f1061172b57610100808354040283529160200191611756565b820191906000526020600020905b81548152906001019060200180831161173957829003601f168201915b5050505050815260200190600101906116be565b505050509150808054806020026020016040519081016040528092919081815260200182805480156117e057602002820191906000526020600020906000905b82829054906101000a900460ff161515815260200190600101906020826000010492830192600103820291508084116117aa5790505b505050505090509250925092509193909250565b606060136000838152602001908152602001600020805480602002602001604051908101604052809291908181526020016000905b828210156118d55783829060005260206000200180546118489061369a565b80601f01602080910402602001604051908101604052809291908181526020018280546118749061369a565b80156118c15780601f10611896576101008083540402835291602001916118c1565b820191906000526020600020905b8154815290600101906020018083116118a457829003601f168201915b505050505081526020019060010190611829565b505050509050919050565b60008060008060008060086000888152602001908152602001600020604051806101c0016040529081600082015481526020016001820180546119229061369a565b80601f016020809104026020016040519081016040528092919081815260200182805461194e9061369a565b801561199b5780601f106119705761010080835404028352916020019161199b565b820191906000526020600020905b81548152906001019060200180831161197e57829003601f168201915b505050505081526020016002820160009054906101000a900460ff1660038111156119c9576119c8613775565b5b60038111156119db576119da613775565b5b815260200160038201548152602001600482015481526020016005820154815260200160068201548152602001600782018054611a179061369a565b80601f0160208091040260200160405190810160405280929190818152602001828054611a439061369a565b8015611a905780601f10611a6557610100808354040283529160200191611a90565b820191906000526020600020905b815481529060010190602001808311611a7357829003601f168201915b50505050508152602001600882018054611aa99061369a565b80601f0160208091040260200160405190810160405280929190818152602001828054611ad59061369a565b8015611b225780601f10611af757610100808354040283529160200191611b22565b820191906000526020600020905b815481529060010190602001808311611b0557829003601f168201915b50505050508152602001600982018054611b3b9061369a565b80601f0160208091040260200160405190810160405280929190818152602001828054611b679061369a565b8015611bb45780601f10611b8957610100808354040283529160200191611bb4565b820191906000526020600020905b815481529060010190602001808311611b9757829003601f168201915b50505050508152602001600a820160009054906101000a900473ffffffffffffffffffffffffffffffffffffffff1673ffffffffffffffffffffffffffffffffffffffff1673ffffffffffffffffffffffffffffffffffffffff168152602001600b8201548152602001600c8201548152602001600d82015481525050905080604001518160c00151826101600151836101800151846101a00151955095509550955095505091939590929450565b600160009054906101000a900473ffffffffffffffffffffffffffffffffffffffff1673ffffffffffffffffffffffffffffffffffffffff163373ffffffffffffffffffffffffffffffffffffffff1614611cbd57600080fd5b600073ffffffffffffffffffffffffffffffffffffffff168173ffffffffffffffffffffffffffffffffffffffff161415611cf757600080fd5b80600260006101000a81548173ffffffffffffffffffffffffffffffffffffffff021916908373ffffffffffffffffffffffffffffffffffffffff1602179055507f162e32528b5907ecf876b3b7a4e5e0edf878642e3ec25852e3c35af1a4e1c04060405160405180910390a150565b606060146000838152602001908152602001600020805480602002602001604051908101604052809291908181526020018280548015611deb57602002820191906000526020600020906000905b82829054906101000a900460ff16151581526020019060010190602082600001049283019260010382029150808411611db55790505b50505050509050919050565b600360149054906101000a900460ff1681565b6000600360149054906101000a900460ff1615611e2657600080fd5b60011515600f600084815260200190815260200160002060008573ffffffffffffffffffffffffffffffffffffffff1673ffffffffffffffffffffffffffffffffffffffff16815260200190815260200160002060009054906101000a900460ff16151514905092915050565b80611e9e33826120a2565b611ea757600080fd5b8133600115156015600084815260200190815260200160002060003373ffffffffffffffffffffffffffffffffffffffff1673ffffffffffffffffffffffffffffffffffffffff16815260200190815260200160002060009054906101000a900460ff1615151415611f1857600080fd5b600360149054906101000a900460ff1615611f3257600080fd5b60016015600086815260200190815260200160002060003373ffffffffffffffffffffffffffffffffffffffff1673ffffffffffffffffffffffffffffffffffffffff16815260200190815260200160002060006101000a81548160ff02191690831515021790555060086000858152602001908152602001600020600d016000815480929190611fc2906136fd565b91905055503373ffffffffffffffffffffffffffffffffffffffff166108fc60086000878152602001908152602001600020600c01549081150290604051600060405180830381858888f19350505050158015612023573d6000803e3d6000fd5b503373ffffffffffffffffffffffffffffffffffffffff167f1a31e733a172afcf46074b3106c17f0c298e226442682a03c1e99ce256139ec28560405161206a9190613366565b60405180910390a250505050565b6000600260009054906101000a900473ffffffffffffffffffffffffffffffffffffffff16905090565b6000600360149054906101000a900460ff16156120be57600080fd5b6000601d600084815260200190815260200160002060008573ffffffffffffffffffffffffffffffffffffffff1673ffffffffffffffffffffffffffffffffffffffff1681526020019081526020016000205411905092915050565b8060009080519060200190612130929190612afc565b5050565b600360009054906101000a900473ffffffffffffffffffffffffffffffffffffffff1673ffffffffffffffffffffffffffffffffffffffff163373ffffffffffffffffffffffffffffffffffffffff1614806121dd5750600160009054906101000a900473ffffffffffffffffffffffffffffffffffffffff1673ffffffffffffffffffffffffffffffffffffffff163373ffffffffffffffffffffffffffffffffffffffff16145b806122355750600260009054906101000a900473ffffffffffffffffffffffffffffffffffffffff1673ffffffffffffffffffffffffffffffffffffffff163373ffffffffffffffffffffffffffffffffffffffff16145b61223e57600080fd5b600360149054906101000a900460ff161561225857600080fd5b6001600360146101000a81548160ff021916908315150217905550565b6060600080546122849061369a565b80601f01602080910402602001604051908101604052809291908181526020018280546122b09061369a565b80156122fd5780601f106122d2576101008083540402835291602001916122fd565b820191906000526020600020905b8154815290600101906020018083116122e057829003601f168201915b5050505050905090565b6000600260009054906101000a900473ffffffffffffffffffffffffffffffffffffffff1673ffffffffffffffffffffffffffffffffffffffff163373ffffffffffffffffffffffffffffffffffffffff1614905090565b6060601260008381526020019081526020016000208054806020026020016040519081016040528092919081815260200182805480156123f457602002820191906000526020600020905b8160009054906101000a900473ffffffffffffffffffffffffffffffffffffffff1673ffffffffffffffffffffffffffffffffffffffff16815260200190600101908083116123aa575b50505050509050919050565b600360009054906101000a900473ffffffffffffffffffffffffffffffffffffffff1681565b6000600360149054906101000a900460ff16905090565b600033905090565b6060600680548060200260200160405190810160405280929190818152602001828054801561249357602002820191906000526020600020905b81548152602001906001019080831161247f575b5050505050905090565b600080546124aa9061369a565b80601f01602080910402602001604051908101604052809291908181526020018280546124d69061369a565b80156125235780601f106124f857610100808354040283529160200191612523565b820191906000526020600020905b81548152906001019060200180831161250657829003601f168201915b505050505081565b60006060600080600080600080600860008a8152602001908152602001600020604051806101c0016040529081600082015481526020016001820180546125719061369a565b80601f016020809104026020016040519081016040528092919081815260200182805461259d9061369a565b80156125ea5780601f106125bf576101008083540402835291602001916125ea565b820191906000526020600020905b8154815290600101906020018083116125cd57829003601f168201915b505050505081526020016002820160009054906101000a900460ff16600381111561261857612617613775565b5b600381111561262a57612629613775565b5b8152602001600382015481526020016004820154815260200160058201548152602001600682015481526020016007820180546126669061369a565b80601f01602080910402602001604051908101604052809291908181526020018280546126929061369a565b80156126df5780601f106126b4576101008083540402835291602001916126df565b820191906000526020600020905b8154815290600101906020018083116126c257829003601f168201915b505050505081526020016008820180546126f89061369a565b80601f01602080910402602001604051908101604052809291908181526020018280546127249061369a565b80156127715780601f1061274657610100808354040283529160200191612771565b820191906000526020600020905b81548152906001019060200180831161275457829003601f168201915b5050505050815260200160098201805461278a9061369a565b80601f01602080910402602001604051908101604052809291908181526020018280546127b69061369a565b80156128035780601f106127d857610100808354040283529160200191612803565b820191906000526020600020905b8154815290600101906020018083116127e657829003601f168201915b50505050508152602001600a820160009054906101000a900473ffffffffffffffffffffffffffffffffffffffff1673ffffffffffffffffffffffffffffffffffffffff1673ffffffffffffffffffffffffffffffffffffffff168152602001600b8201548152602001600c8201548152602001600d8201548152505090508060000151816020015182604001518360c00151846101600151856101800151866101a00151975097509750975097509750975050919395979092949650565b60606007805480602002602001604051908101604052809291908181526020016000905b828210156129925783829060005260206000200180546129059061369a565b80601f01602080910402602001604051908101604052809291908181526020018280546129319061369a565b801561297e5780601f106129535761010080835404028352916020019161297e565b820191906000526020600020905b81548152906001019060200180831161296157829003601f168201915b5050505050815260200190600101906128e6565b50505050905090565b6000600160009054906101000a900473ffffffffffffffffffffffffffffffffffffffff1673ffffffffffffffffffffffffffffffffffffffff163373ffffffffffffffffffffffffffffffffffffffff1614905090565b6000600360009054906101000a900473ffffffffffffffffffffffffffffffffffffffff1673ffffffffffffffffffffffffffffffffffffffff163373ffffffffffffffffffffffffffffffffffffffff1614905090565b6000612a5733836120a2565b612a645760009050612acd565b600115156015600084815260200190815260200160002060003373ffffffffffffffffffffffffffffffffffffffff1673ffffffffffffffffffffffffffffffffffffffff16815260200190815260200160002060009054906101000a900460ff161515141590505b919050565b6000600360009054906101000a900473ffffffffffffffffffffffffffffffffffffffff16905090565b828054612b089061369a565b90600052602060002090601f016020900481019282612b2a5760008555612b71565b82601f10612b4357805160ff1916838001178555612b71565b82800160010185558215612b71579182015b82811115612b70578251825591602001919060010190612b55565b5b509050612b7e9190612c08565b5090565b828054612b8e9061369a565b90600052602060002090601f016020900481019282612bb05760008555612bf7565b82601f10612bc957803560ff1916838001178555612bf7565b82800160010185558215612bf7579182015b82811115612bf6578235825591602001919060010190612bdb565b5b509050612c049190612c08565b5090565b5b80821115612c21576000816000905550600101612c09565b5090565b6000612c38612c3384613453565b61342e565b905082815260208101848484011115612c5457612c53613840565b5b612c5f848285613658565b509392505050565b600081359050612c7681613987565b92915050565b60008083601f840112612c9257612c91613836565b5b8235905067ffffffffffffffff811115612caf57612cae613831565b5b602083019150836001820283011115612ccb57612cca61383b565b5b9250929050565b600082601f830112612ce757612ce6613836565b5b8135612cf7848260208601612c25565b91505092915050565b600081359050612d0f8161399e565b92915050565b600060208284031215612d2b57612d2a61384a565b5b6000612d3984828501612c67565b91505092915050565b60008060408385031215612d5957612d5861384a565b5b6000612d6785828601612c67565b9250506020612d7885828601612d00565b9150509250929050565b600060208284031215612d9857612d9761384a565b5b600082013567ffffffffffffffff811115612db657612db5613845565b5b612dc284828501612cd2565b91505092915050565b600060208284031215612de157612de061384a565b5b6000612def84828501612d00565b91505092915050565b600080600060408486031215612e1157612e1061384a565b5b6000612e1f86828701612d00565b935050602084013567ffffffffffffffff811115612e4057612e3f613845565b5b612e4c86828701612c7c565b92509250509250925092565b6000612e648383612eb4565b60208301905092915050565b6000612e7c8383613061565b60208301905092915050565b6000612e94838361308e565b905092915050565b6000612ea88383613169565b60208301905092915050565b612ebd816135eb565b82525050565b612ecc816135eb565b82525050565b6000612edd826134c4565b612ee7818561352f565b9350612ef283613484565b8060005b83811015612f23578151612f0a8882612e58565b9750612f15836134fb565b925050600181019050612ef6565b5085935050505092915050565b6000612f3b826134cf565b612f458185613540565b9350612f5083613494565b8060005b83811015612f81578151612f688882612e70565b9750612f7383613508565b925050600181019050612f54565b5085935050505092915050565b6000612f99826134da565b612fa38185613551565b935083602082028501612fb5856134a4565b8060005b85811015612ff15784840389528151612fd28582612e88565b9450612fdd83613515565b925060208a01995050600181019050612fb9565b50829750879550505050505092915050565b600061300e826134e5565b6130188185613562565b9350613023836134b4565b8060005b8381101561305457815161303b8882612e9c565b975061304683613522565b925050600181019050613027565b5085935050505092915050565b61306a816135fd565b82525050565b613079816135fd565b82525050565b61308881613646565b82525050565b6000613099826134f0565b6130a38185613573565b93506130b3818560208601613667565b6130bc8161384f565b840191505092915050565b60006130d2826134f0565b6130dc8185613584565b93506130ec818560208601613667565b6130f58161384f565b840191505092915050565b600061310d603d83613584565b915061311882613860565b604082019050919050565b6000613130604383613584565b915061313b826138af565b606082019050919050565b6000613153603f83613584565b915061315e82613924565b604082019050919050565b6131728161363c565b82525050565b6131818161363c565b82525050565b600060208201905061319c6000830184612ec3565b92915050565b600060208201905081810360008301526131bc8184612ed2565b905092915050565b600060608201905081810360008301526131de8186612ed2565b905081810360208301526131f28185612f8e565b905081810360408301526132068184612f30565b9050949350505050565b6000602082019050818103600083015261322a8184612f30565b905092915050565b6000602082019050818103600083015261324c8184612f8e565b905092915050565b6000602082019050818103600083015261326e8184613003565b905092915050565b600060208201905061328b6000830184613070565b92915050565b600060a0820190506132a6600083018861307f565b6132b36020830187613178565b6132c06040830186613178565b6132cd6060830185613178565b6132da6080830184613178565b9695505050505050565b600060208201905081810360008301526132fe81846130c7565b905092915050565b6000602082019050818103600083015261331f81613100565b9050919050565b6000602082019050818103600083015261333f81613123565b9050919050565b6000602082019050818103600083015261335f81613146565b9050919050565b600060208201905061337b6000830184613178565b92915050565b60006060820190506133966000830186613178565b6133a36020830185612ec3565b6133b06040830184613178565b949350505050565b600060e0820190506133cd600083018a613178565b81810360208301526133df81896130c7565b90506133ee604083018861307f565b6133fb6060830187613178565b6134086080830186613178565b61341560a0830185613178565b61342260c0830184613178565b98975050505050505050565b6000613438613449565b905061344482826136cc565b919050565b6000604051905090565b600067ffffffffffffffff82111561346e5761346d613802565b5b6134778261384f565b9050602081019050919050565b6000819050602082019050919050565b6000819050602082019050919050565b6000819050602082019050919050565b6000819050602082019050919050565b600081519050919050565b600081519050919050565b600081519050919050565b600081519050919050565b600081519050919050565b6000602082019050919050565b6000602082019050919050565b6000602082019050919050565b6000602082019050919050565b600082825260208201905092915050565b600082825260208201905092915050565b600082825260208201905092915050565b600082825260208201905092915050565b600082825260208201905092915050565b600082825260208201905092915050565b60006135a08261363c565b91506135ab8361363c565b9250827fffffffffffffffffffffffffffffffffffffffffffffffffffffffffffffffff038211156135e0576135df613746565b5b828201905092915050565b60006135f68261361c565b9050919050565b60008115159050919050565b600081905061361782613973565b919050565b600073ffffffffffffffffffffffffffffffffffffffff82169050919050565b6000819050919050565b600061365182613609565b9050919050565b82818337600083830152505050565b60005b8381101561368557808201518184015260208101905061366a565b83811115613694576000848401525b50505050565b600060028204905060018216806136b257607f821691505b602082108114156136c6576136c56137a4565b5b50919050565b6136d58261384f565b810181811067ffffffffffffffff821117156136f4576136f3613802565b5b80604052505050565b60006137088261363c565b91507fffffffffffffffffffffffffffffffffffffffffffffffffffffffffffffffff82141561373b5761373a613746565b5b600182019050919050565b7f4e487b7100000000000000000000000000000000000000000000000000000000600052601160045260246000fd5b7f4e487b7100000000000000000000000000000000000000000000000000000000600052602160045260246000fd5b7f4e487b7100000000000000000000000000000000000000000000000000000000600052602260045260246000fd5b7f4e487b7100000000000000000000000000000000000000000000000000000000600052603260045260246000fd5b7f4e487b7100000000000000000000000000000000000000000000000000000000600052604160045260246000fd5b600080fd5b600080fd5b600080fd5b600080fd5b600080fd5b600080fd5b6000601f19601f8301169050919050565b7f4572726f723a207468697320616464726573732068617320616c72656164792060008201527f72657175657374656420746f206a6f696e20746869732067726f75702e000000602082015250565b7f4572726f723a20726563697069656e74277320656c696769626c696c6974792060008201527f686173206265656e2064697361626c656420666f7220746869732067726f757060208201527f2e2e2e0000000000000000000000000000000000000000000000000000000000604082015250565b7f4572726f723a20726563697069656e7420697320616c726561647920616e206560008201527f6c696769626c6520726563697069656e7420696e207468652067726f75702e00602082015250565b6004811061398457613983613775565b5b50565b613990816135eb565b811461399b57600080fd5b50565b6139a78161363c565b81146139b257600080fd5b5056fea2646970667358221220b3e552a09a4f870f119b86736bca8b60f2faefd75fe37efdd1a1f60232a27ca264736f6c63430008070033",
  "immutableReferences": {},
  "source": "// SPDX-License-Identifier: MIT\npragma solidity ^0.8.0;\n\nimport '../core/EthDropBase.sol';\n\ncontract RecipientsManager is EthDropBase {\n    event EligibleRecipientAdded(address indexed account, uint256 groupId);\n    event EligibleRecipientRemoved(address indexed account, uint256 groupId);\n\n    event RecipientRegistered(address indexed account, uint256 groupId);\n    event WinningsClaimed(address indexed account, uint256 groupId);\n    event NewUserRequestedToJoinGroup(\n        uint256 groupId,\n        address account,\n        uint256 index\n    );\n\n    constructor() {}\n\n    modifier onlyEligibleRecipients(uint256 groupId) {\n        require(isEligibleRecipient(msg.sender, groupId));\n        _;\n    }\n\n    function isEligibleRecipient(address account, uint256 groupId)\n        public\n        view\n        whenNotPaused\n        returns (bool)\n    {\n        return eligibleRecipients[groupId][account] == true;\n    }\n\n    function amIEligibleRecipient(uint256 groupId)\n        external\n        view\n        whenNotPaused\n        returns (bool)\n    {\n        return isEligibleRecipient(msg.sender, groupId);\n    }\n\n    modifier onlyRegisteredRecipients(uint256 groupId) {\n        require(isRegisteredRecipient(msg.sender, groupId));\n        _;\n    }\n\n    modifier hasntAlreadyClaimedWinnings(uint256 groupId, address account) {\n        require(winningsCollected[groupId][msg.sender] != true);\n        _;\n    }\n\n    function isRegisteredRecipient(address account, uint256 groupId)\n        public\n        view\n        whenNotPaused\n        returns (bool)\n    {\n        return registeredRecipientsAddressToIndex[groupId][account] > 0;\n    }\n\n    function amIRegisteredRecipient(uint256 groupId)\n        external\n        view\n        whenNotPaused\n        returns (bool)\n    {\n        return isRegisteredRecipient(msg.sender, groupId);\n    }\n\n    modifier recipientEligibilityIsEnabled(uint256 groupId, address account) {\n        uint256 indexOfEligibleRecipient = eligibleRecipientsAddresstoIndex[\n            groupId\n        ][msg.sender];\n\n        require(\n            eligibleRecipientsEligibilityIsEnabled[groupId][\n                indexOfEligibleRecipient\n            ] != false,\n            \"Error: recipient's eligiblility has been disabled for this group...\"\n        );\n        _;\n    }\n\n    function registerForEvent(uint256 groupId)\n        external\n        onlyEligibleRecipients(groupId)\n        recipientEligibilityIsEnabled(groupId, msg.sender)\n        whenNotPaused\n    {\n        if (registeredRecipientsNextIndex[groupId] == 0) {\n            registeredRecipientsNextIndex[groupId] = 1;\n\n            registeredRecipientAddressesArray[groupId].push(address(0));\n            registeredRecipientNamesArray[groupId].push('');\n            registeredRecipientsWinningsCollected[groupId].push(false);\n        }\n\n        uint256 indexOfEligibleRecipient = eligibleRecipientsAddresstoIndex[\n            groupId\n        ][msg.sender];\n        string memory nameOfEligibleRecipient = eligibleRecipientNamesArray[\n            groupId\n        ][indexOfEligibleRecipient];\n\n        registeredRecipientAddressesArray[groupId].push(msg.sender);\n        registeredRecipientNamesArray[groupId].push(nameOfEligibleRecipient);\n        registeredRecipientsWinningsCollected[groupId].push(false);\n\n        currentEvents[groupId].registeredRecipientsCount = currentEvents[groupId].registeredRecipientsCount + 1;\n\n        registeredRecipientsNextIndex[groupId] =\n            registeredRecipientsNextIndex[groupId] +\n            1;\n\n        emit RecipientRegistered(msg.sender, groupId);\n    }\n\n    function doIHaveClaimableWinnings(uint256 groupId)\n        external\n        view\n        returns (bool)\n    {\n        if (!isRegisteredRecipient(msg.sender, groupId)) {\n            return false;\n        }\n\n        return winningsCollected[groupId][msg.sender] != true;\n    }\n\n    function claimWinnings(uint256 groupId)\n        external\n        onlyRegisteredRecipients(groupId)\n        hasntAlreadyClaimedWinnings(groupId, msg.sender)\n        whenNotPaused\n    {\n        winningsCollected[groupId][msg.sender] = true;\n        currentEvents[groupId].numberOfUsersWhoClaimedWinnings++;\n\n        payable(msg.sender).transfer(currentEvents[groupId].weiWinnings);\n\n        emit WinningsClaimed(msg.sender, groupId);\n    }\n\n    function getEligibleRecipientAddresses(uint256 groupId)\n        external\n        view\n        returns (address[] memory)\n    {\n        return eligibleRecipientAddressesArray[groupId];\n    }\n\n    function getEligibleRecipientNames(uint256 groupId)\n        external\n        view\n        returns (string[] memory)\n    {\n        return eligibleRecipientNamesArray[groupId];\n    }\n\n    function getRegisteredRecipientNames(uint256 groupId)\n        external\n        view\n        returns (string[] memory)\n    {\n        return registeredRecipientNamesArray[groupId];\n    }\n\n    function getEligibleRecipientIsEligibilityEnabled(uint256 groupId)\n        external\n        view\n        returns (bool[] memory)\n    {\n        return eligibleRecipientsEligibilityIsEnabled[groupId];\n    }\n\n    function getRegisteredRecipients(uint256 groupId)\n        external\n        view\n        returns (\n            address[] memory,\n            string[] memory,\n            bool[] memory\n        )\n    {\n        return (\n            registeredRecipientAddressesArray[groupId],\n            registeredRecipientNamesArray[groupId],\n            registeredRecipientsWinningsCollected[groupId]\n        );\n    }\n\n    modifier requestsToJoinGroupNotAlreadyPending(\n        uint256 groupId,\n        address account\n    ) {\n        uint256 userIndex = requestsToJoinGroupAddressToIndex[groupId][account];\n        require(\n            userIndex == 0,\n            'Error: this address has already requested to join this group.'\n        );\n        _;\n    }\n\n    modifier requestsToJoinGroupIsPending(uint256 groupId, address account) {\n        uint256 userIndex = requestsToJoinGroupAddressToIndex[groupId][account];\n        require(\n            userIndex > 0 && requestedToJoinGroup[groupId][userIndex],\n            'Error: this address does not have a pending request to join this group.'\n        );\n        _;\n    }\n\n    modifier notAlreadyInGroup(uint256 groupId, address account) {\n        uint256 userIndex = eligibleRecipientsAddresstoIndex[groupId][account];\n        require(\n            userIndex == 0,\n            'Error: recipient is already an eligible recipient in the group.'\n        );\n        _;\n    }\n\n    // functions for recipients not yet eligible\n    function requestToJoinGroup(uint256 groupId, string calldata username)\n        external\n        requestsToJoinGroupNotAlreadyPending(groupId, msg.sender)\n        notAlreadyInGroup(groupId, msg.sender)\n    {\n        if (requestsToJoinGroupNextIndex[groupId] == 0) {\n            requestsToJoinGroupNextIndex[groupId] = 1;\n\n            requestsToJoinGroupAddresses[groupId].push(address(0));\n            requestsToJoinGroupNames[groupId].push('');\n            requestedToJoinGroup[groupId].push(false);\n            requestsToJoinGroupApprovals[groupId].push(false);\n        }\n\n        requestsToJoinGroupAddressToIndex[groupId][\n            msg.sender\n        ] = requestsToJoinGroupNextIndex[groupId];\n\n        requestsToJoinGroupAddresses[groupId].push(msg.sender);\n        requestsToJoinGroupNames[groupId].push(username);\n        requestedToJoinGroup[groupId].push(true);\n        requestsToJoinGroupApprovals[groupId].push(false);\n\n        requestsToJoinGroupNextIndex[groupId] =\n            requestsToJoinGroupNextIndex[groupId] +\n            1;\n\n        emit NewUserRequestedToJoinGroup(\n            groupId,\n            msg.sender,\n            nextAdminIndexForGroup[groupId]\n        );\n    }\n}\n",
  "sourcePath": "/Users/jim/trash/EthDrop/contracts/roles/RecipientsManager.sol",
  "compiler": {
    "name": "solc",
    "version": "0.8.7+commit.e28d00a7.Emscripten.clang"
  },
  "schemaVersion": "3.4.3",
  "updatedAt": "2021-09-12T18:48:56.051Z",
  "devdoc": {
    "kind": "dev",
    "methods": {
      "pause()": {
        "details": "Called by any \"C-level\" role to pause the contract. Used only when  a bug or exploit is detected and we need to limit damage."
      },
      "setCEO(address)": {
        "details": "Assigns a new address to act as the CEO. Only available to the current CEO.",
        "params": {
          "_newCEO": "The address of the new CEO"
        }
      },
      "setCFO(address)": {
        "details": "Assigns a new address to act as the CFO. Only available to the current CEO.",
        "params": {
          "_newCFO": "The address of the new CFO"
        }
      },
      "setCOO(address)": {
        "details": "Assigns a new address to act as the COO. Only available to the current CEO.",
        "params": {
          "_newCOO": "The address of the new COO"
        }
      },
      "unpause()": {
        "details": "Unpauses the smart contract. Can only be called by the CEO, since  one reason we may pause the contract is when CFO or COO accounts are  compromised."
      }
    },
    "version": 1
  },
  "userdoc": {
    "kind": "user",
    "methods": {
      "unpause()": {
        "notice": "This is public rather than external so it can be called by  derived contracts."
      }
    },
    "version": 1
  }
}