{
  "contractName": "RecipientsManager",
  "abi": [
    {
      "inputs": [],
      "stateMutability": "nonpayable",
      "type": "constructor"
    },
    {
      "anonymous": false,
      "inputs": [
        {
          "indexed": false,
          "internalType": "address",
          "name": "newContract",
          "type": "address"
        }
      ],
      "name": "ContractUpgrade",
      "type": "event"
    },
    {
      "anonymous": false,
      "inputs": [
        {
          "indexed": true,
          "internalType": "address",
          "name": "account",
          "type": "address"
        },
        {
          "indexed": false,
          "internalType": "uint256",
          "name": "groupId",
          "type": "uint256"
        }
      ],
      "name": "EligibleRecipientAdded",
      "type": "event"
    },
    {
      "anonymous": false,
      "inputs": [
        {
          "indexed": true,
          "internalType": "address",
          "name": "account",
          "type": "address"
        },
        {
          "indexed": false,
          "internalType": "uint256",
          "name": "groupId",
          "type": "uint256"
        }
      ],
      "name": "EligibleRecipientRemoved",
      "type": "event"
    },
    {
      "anonymous": false,
      "inputs": [],
      "name": "EventClose",
      "type": "event"
    },
    {
      "anonymous": false,
      "inputs": [
        {
          "indexed": true,
          "internalType": "address",
          "name": "account",
          "type": "address"
        },
        {
          "indexed": false,
          "internalType": "uint256",
          "name": "groupId",
          "type": "uint256"
        }
      ],
      "name": "RecipientRegistered",
      "type": "event"
    },
    {
      "anonymous": false,
      "inputs": [],
      "name": "RegistrationOpen",
      "type": "event"
    },
    {
      "anonymous": false,
      "inputs": [
        {
          "indexed": false,
          "internalType": "address",
          "name": "from",
          "type": "address"
        },
        {
          "indexed": false,
          "internalType": "address",
          "name": "to",
          "type": "address"
        }
      ],
      "name": "Transfer",
      "type": "event"
    },
    {
      "anonymous": false,
      "inputs": [
        {
          "indexed": true,
          "internalType": "address",
          "name": "account",
          "type": "address"
        },
        {
          "indexed": false,
          "internalType": "uint256",
          "name": "groupId",
          "type": "uint256"
        }
      ],
      "name": "WinningsClaimed",
      "type": "event"
    },
    {
      "anonymous": false,
      "inputs": [],
      "name": "WinningsClaimingOpen",
      "type": "event"
    },
    {
      "inputs": [],
      "name": "ceoAddress",
      "outputs": [
        {
          "internalType": "address",
          "name": "",
          "type": "address"
        }
      ],
      "stateMutability": "view",
      "type": "function",
      "constant": true
    },
    {
      "inputs": [],
      "name": "cfoAddress",
      "outputs": [
        {
          "internalType": "address",
          "name": "",
          "type": "address"
        }
      ],
      "stateMutability": "view",
      "type": "function",
      "constant": true
    },
    {
      "inputs": [],
      "name": "cooAddress",
      "outputs": [
        {
          "internalType": "address",
          "name": "",
          "type": "address"
        }
      ],
      "stateMutability": "view",
      "type": "function",
      "constant": true
    },
    {
      "inputs": [],
      "name": "getCFO",
      "outputs": [
        {
          "internalType": "address",
          "name": "",
          "type": "address"
        }
      ],
      "stateMutability": "view",
      "type": "function",
      "constant": true
    },
    {
      "inputs": [],
      "name": "getCOO",
      "outputs": [
        {
          "internalType": "address",
          "name": "",
          "type": "address"
        }
      ],
      "stateMutability": "view",
      "type": "function",
      "constant": true
    },
    {
      "inputs": [],
      "name": "getGroupIds",
      "outputs": [
        {
          "internalType": "uint256[]",
          "name": "",
          "type": "uint256[]"
        }
      ],
      "stateMutability": "view",
      "type": "function",
      "constant": true
    },
    {
      "inputs": [],
      "name": "getGroupNames",
      "outputs": [
        {
          "internalType": "string[]",
          "name": "",
          "type": "string[]"
        }
      ],
      "stateMutability": "view",
      "type": "function",
      "constant": true
    },
    {
      "inputs": [],
      "name": "getString",
      "outputs": [
        {
          "internalType": "string",
          "name": "",
          "type": "string"
        }
      ],
      "stateMutability": "view",
      "type": "function",
      "constant": true
    },
    {
      "inputs": [],
      "name": "isCEO",
      "outputs": [
        {
          "internalType": "bool",
          "name": "",
          "type": "bool"
        }
      ],
      "stateMutability": "view",
      "type": "function",
      "constant": true
    },
    {
      "inputs": [],
      "name": "isCFO",
      "outputs": [
        {
          "internalType": "bool",
          "name": "",
          "type": "bool"
        }
      ],
      "stateMutability": "view",
      "type": "function",
      "constant": true
    },
    {
      "inputs": [],
      "name": "isCOO",
      "outputs": [
        {
          "internalType": "bool",
          "name": "",
          "type": "bool"
        }
      ],
      "stateMutability": "view",
      "type": "function",
      "constant": true
    },
    {
      "inputs": [],
      "name": "pause",
      "outputs": [],
      "stateMutability": "nonpayable",
      "type": "function"
    },
    {
      "inputs": [],
      "name": "paused",
      "outputs": [
        {
          "internalType": "bool",
          "name": "",
          "type": "bool"
        }
      ],
      "stateMutability": "view",
      "type": "function",
      "constant": true
    },
    {
      "inputs": [
        {
          "internalType": "address",
          "name": "_newCEO",
          "type": "address"
        }
      ],
      "name": "setCEO",
      "outputs": [],
      "stateMutability": "nonpayable",
      "type": "function"
    },
    {
      "inputs": [
        {
          "internalType": "address",
          "name": "_newCFO",
          "type": "address"
        }
      ],
      "name": "setCFO",
      "outputs": [],
      "stateMutability": "nonpayable",
      "type": "function"
    },
    {
      "inputs": [
        {
          "internalType": "address",
          "name": "_newCOO",
          "type": "address"
        }
      ],
      "name": "setCOO",
      "outputs": [],
      "stateMutability": "nonpayable",
      "type": "function"
    },
    {
      "inputs": [
        {
          "internalType": "string",
          "name": "_s",
          "type": "string"
        }
      ],
      "name": "setString",
      "outputs": [],
      "stateMutability": "nonpayable",
      "type": "function"
    },
    {
      "inputs": [],
      "name": "stringgg",
      "outputs": [
        {
          "internalType": "string",
          "name": "",
          "type": "string"
        }
      ],
      "stateMutability": "view",
      "type": "function",
      "constant": true
    },
    {
      "inputs": [],
      "name": "unpause",
      "outputs": [],
      "stateMutability": "nonpayable",
      "type": "function"
    },
    {
      "inputs": [],
      "name": "whoami",
      "outputs": [
        {
          "internalType": "address",
          "name": "",
          "type": "address"
        }
      ],
      "stateMutability": "view",
      "type": "function",
      "constant": true
    },
    {
      "inputs": [
        {
          "internalType": "address",
          "name": "account",
          "type": "address"
        },
        {
          "internalType": "uint256",
          "name": "groupId",
          "type": "uint256"
        }
      ],
      "name": "isEligibleRecipient",
      "outputs": [
        {
          "internalType": "bool",
          "name": "",
          "type": "bool"
        }
      ],
      "stateMutability": "view",
      "type": "function",
      "constant": true
    },
    {
      "inputs": [
        {
          "internalType": "address",
          "name": "account",
          "type": "address"
        },
        {
          "internalType": "uint256",
          "name": "groupId",
          "type": "uint256"
        }
      ],
      "name": "isRegisteredRecipient",
      "outputs": [
        {
          "internalType": "bool",
          "name": "",
          "type": "bool"
        }
      ],
      "stateMutability": "view",
      "type": "function",
      "constant": true
    },
    {
      "inputs": [
        {
          "internalType": "uint256",
          "name": "groupId",
          "type": "uint256"
        }
      ],
      "name": "registerForEvent",
      "outputs": [],
      "stateMutability": "nonpayable",
      "type": "function"
    },
    {
      "inputs": [
        {
          "internalType": "uint256",
          "name": "groupId",
          "type": "uint256"
        }
      ],
      "name": "claimWinnings",
      "outputs": [],
      "stateMutability": "nonpayable",
      "type": "function"
    }
  ],
  "bytecode": "0x60806040526000600360146101000a81548160ff021916908315150217905550600560045534801561003057600080fd5b5061184a806100406000396000f3fe608060405234801561001057600080fd5b50600436106101585760003560e01c80637fcaf666116100c3578063c02b8b2c1161007c578063c02b8b2c14610369578063c6db509414610387578063d5f016c3146103a5578063e513b7a9146103c3578063f4a02e70146103e1578063fc5fd6e4146103ff57610158565b80637fcaf666146102cb5780638456cb59146102e757806389ea642f146102f15780639393ae371461030f578063b047fb501461032d578063b3b36bb31461034b57610158565b80634e0a3379116101155780634e0a3379146101f75780635c975abb146102135780635e82c1fc14610231578063677bd9ff146102615780637b936ac21461027d5780637d837ce51461029b57610158565b80630519ce791461015d5780630a0f81681461017b57806327d7874c146101995780632ba73c15146101b55780633f4ba83a146101d1578063406db843146101db575b600080fd5b61016561041d565b6040516101729190611425565b60405180910390f35b610183610443565b6040516101909190611425565b60405180910390f35b6101b360048036038101906101ae9190611186565b610469565b005b6101cf60048036038101906101ca9190611186565b610541565b005b6101d9610619565b005b6101f560048036038101906101f0919061123c565b6106a9565b005b610211600480360381019061020c9190611186565b610832565b005b61021b6108d0565b604051610228919061149f565b60405180910390f35b61024b600480360381019061024691906111b3565b6108e3565b604051610258919061149f565b60405180910390f35b61027b6004803603810190610276919061123c565b61096c565b005b610285610a8a565b6040516102929190611425565b60405180910390f35b6102b560048036038101906102b091906111b3565b610ab4565b6040516102c2919061149f565b60405180910390f35b6102e560048036038101906102e091906111f3565b610b3d565b005b6102ef610b57565b005b6102f9610c98565b60405161030691906114ba565b60405180910390f35b610317610d2a565b604051610324919061149f565b60405180910390f35b610335610d82565b6040516103429190611425565b60405180910390f35b610353610da8565b6040516103609190611425565b60405180910390f35b610371610db0565b60405161037e919061147d565b60405180910390f35b61038f610e08565b60405161039c91906114ba565b60405180910390f35b6103ad610e96565b6040516103ba919061145b565b60405180910390f35b6103cb610f6f565b6040516103d8919061149f565b60405180910390f35b6103e9610fc7565b6040516103f6919061149f565b60405180910390f35b61040761101f565b6040516104149190611425565b60405180910390f35b600260009054906101000a900473ffffffffffffffffffffffffffffffffffffffff1681565b600160009054906101000a900473ffffffffffffffffffffffffffffffffffffffff1681565b600160009054906101000a900473ffffffffffffffffffffffffffffffffffffffff1673ffffffffffffffffffffffffffffffffffffffff163373ffffffffffffffffffffffffffffffffffffffff16146104c357600080fd5b600073ffffffffffffffffffffffffffffffffffffffff168173ffffffffffffffffffffffffffffffffffffffff1614156104fd57600080fd5b80600160006101000a81548173ffffffffffffffffffffffffffffffffffffffff021916908373ffffffffffffffffffffffffffffffffffffffff16021790555050565b600160009054906101000a900473ffffffffffffffffffffffffffffffffffffffff1673ffffffffffffffffffffffffffffffffffffffff163373ffffffffffffffffffffffffffffffffffffffff161461059b57600080fd5b600073ffffffffffffffffffffffffffffffffffffffff168173ffffffffffffffffffffffffffffffffffffffff1614156105d557600080fd5b80600360006101000a81548173ffffffffffffffffffffffffffffffffffffffff021916908373ffffffffffffffffffffffffffffffffffffffff16021790555050565b600160009054906101000a900473ffffffffffffffffffffffffffffffffffffffff1673ffffffffffffffffffffffffffffffffffffffff163373ffffffffffffffffffffffffffffffffffffffff161461067357600080fd5b600360149054906101000a900460ff1661068c57600080fd5b6000600360146101000a81548160ff021916908315150217905550565b806106b433826108e3565b6106bd57600080fd5b600360149054906101000a900460ff16156106d757600080fd5b6001600c600084815260200190815260200160002060003373ffffffffffffffffffffffffffffffffffffffff1673ffffffffffffffffffffffffffffffffffffffff16815260200190815260200160002060006101000a81548160ff021916908315150217905550600d6000838152602001908152602001600020339080600181540180825580915050600190039060005260206000200160009091909190916101000a81548173ffffffffffffffffffffffffffffffffffffffff021916908373ffffffffffffffffffffffffffffffffffffffff1602179055506007600083815260200190815260200160002060060160008154809291906107db906116eb565b91905055503373ffffffffffffffffffffffffffffffffffffffff167f0695e999be8100bdb5bee8612337296508d527eae78c65b8f170eacb5a3b439d8360405161082691906114dc565b60405180910390a25050565b600160009054906101000a900473ffffffffffffffffffffffffffffffffffffffff1673ffffffffffffffffffffffffffffffffffffffff163373ffffffffffffffffffffffffffffffffffffffff161461088c57600080fd5b80600260006101000a81548173ffffffffffffffffffffffffffffffffffffffff021916908373ffffffffffffffffffffffffffffffffffffffff16021790555050565b600360149054906101000a900460ff1681565b6000600360149054906101000a900460ff16156108ff57600080fd5b60011515600b600084815260200190815260200160002060008573ffffffffffffffffffffffffffffffffffffffff1673ffffffffffffffffffffffffffffffffffffffff16815260200190815260200160002060009054906101000a900460ff16151514905092915050565b806109773382610ab4565b61098057600080fd5b600360149054906101000a900460ff161561099a57600080fd5b600e600083815260200190815260200160002060009054906101000a900473ffffffffffffffffffffffffffffffffffffffff1673ffffffffffffffffffffffffffffffffffffffff166319165587336040518263ffffffff1660e01b8152600401610a069190611440565b600060405180830381600087803b158015610a2057600080fd5b505af1158015610a34573d6000803e3d6000fd5b505050503373ffffffffffffffffffffffffffffffffffffffff167f1a31e733a172afcf46074b3106c17f0c298e226442682a03c1e99ce256139ec283604051610a7e91906114dc565b60405180910390a25050565b6000600260009054906101000a900473ffffffffffffffffffffffffffffffffffffffff16905090565b6000600360149054906101000a900460ff1615610ad057600080fd5b60011515600c600084815260200190815260200160002060008573ffffffffffffffffffffffffffffffffffffffff1673ffffffffffffffffffffffffffffffffffffffff16815260200190815260200160002060009054906101000a900460ff16151514905092915050565b8060009080519060200190610b53929190611049565b5050565b600360009054906101000a900473ffffffffffffffffffffffffffffffffffffffff1673ffffffffffffffffffffffffffffffffffffffff163373ffffffffffffffffffffffffffffffffffffffff161480610c005750600160009054906101000a900473ffffffffffffffffffffffffffffffffffffffff1673ffffffffffffffffffffffffffffffffffffffff163373ffffffffffffffffffffffffffffffffffffffff16145b80610c585750600260009054906101000a900473ffffffffffffffffffffffffffffffffffffffff1673ffffffffffffffffffffffffffffffffffffffff163373ffffffffffffffffffffffffffffffffffffffff16145b610c6157600080fd5b600360149054906101000a900460ff1615610c7b57600080fd5b6001600360146101000a81548160ff021916908315150217905550565b606060008054610ca790611688565b80601f0160208091040260200160405190810160405280929190818152602001828054610cd390611688565b8015610d205780601f10610cf557610100808354040283529160200191610d20565b820191906000526020600020905b815481529060010190602001808311610d0357829003601f168201915b5050505050905090565b6000600260009054906101000a900473ffffffffffffffffffffffffffffffffffffffff1673ffffffffffffffffffffffffffffffffffffffff163373ffffffffffffffffffffffffffffffffffffffff1614905090565b600360009054906101000a900473ffffffffffffffffffffffffffffffffffffffff1681565b600033905090565b60606005805480602002602001604051908101604052809291908181526020018280548015610dfe57602002820191906000526020600020905b815481526020019060010190808311610dea575b5050505050905090565b60008054610e1590611688565b80601f0160208091040260200160405190810160405280929190818152602001828054610e4190611688565b8015610e8e5780601f10610e6357610100808354040283529160200191610e8e565b820191906000526020600020905b815481529060010190602001808311610e7157829003601f168201915b505050505081565b60606006805480602002602001604051908101604052809291908181526020016000905b82821015610f66578382906000526020600020018054610ed990611688565b80601f0160208091040260200160405190810160405280929190818152602001828054610f0590611688565b8015610f525780601f10610f2757610100808354040283529160200191610f52565b820191906000526020600020905b815481529060010190602001808311610f3557829003601f168201915b505050505081526020019060010190610eba565b50505050905090565b6000600160009054906101000a900473ffffffffffffffffffffffffffffffffffffffff1673ffffffffffffffffffffffffffffffffffffffff163373ffffffffffffffffffffffffffffffffffffffff1614905090565b6000600360009054906101000a900473ffffffffffffffffffffffffffffffffffffffff1673ffffffffffffffffffffffffffffffffffffffff163373ffffffffffffffffffffffffffffffffffffffff1614905090565b6000600360009054906101000a900473ffffffffffffffffffffffffffffffffffffffff16905090565b82805461105590611688565b90600052602060002090601f01602090048101928261107757600085556110be565b82601f1061109057805160ff19168380011785556110be565b828001600101855582156110be579182015b828111156110bd5782518255916020019190600101906110a2565b5b5090506110cb91906110cf565b5090565b5b808211156110e85760008160009055506001016110d0565b5090565b60006110ff6110fa8461151c565b6114f7565b90508281526020810184848401111561111b5761111a6117c6565b5b611126848285611646565b509392505050565b60008135905061113d816117e6565b92915050565b600082601f830112611158576111576117c1565b5b81356111688482602086016110ec565b91505092915050565b600081359050611180816117fd565b92915050565b60006020828403121561119c5761119b6117d0565b5b60006111aa8482850161112e565b91505092915050565b600080604083850312156111ca576111c96117d0565b5b60006111d88582860161112e565b92505060206111e985828601611171565b9150509250929050565b600060208284031215611209576112086117d0565b5b600082013567ffffffffffffffff811115611227576112266117cb565b5b61123384828501611143565b91505092915050565b600060208284031215611252576112516117d0565b5b600061126084828501611171565b91505092915050565b60006112758383611395565b905092915050565b60006112898383611407565b60208301905092915050565b61129e816115fe565b82525050565b6112ad816115ec565b82525050565b60006112be8261156d565b6112c881856115a8565b9350836020820285016112da8561154d565b8060005b8581101561131657848403895281516112f78582611269565b94506113028361158e565b925060208a019950506001810190506112de565b50829750879550505050505092915050565b600061133382611578565b61133d81856115b9565b93506113488361155d565b8060005b83811015611379578151611360888261127d565b975061136b8361159b565b92505060018101905061134c565b5085935050505092915050565b61138f81611610565b82525050565b60006113a082611583565b6113aa81856115ca565b93506113ba818560208601611655565b6113c3816117d5565b840191505092915050565b60006113d982611583565b6113e381856115db565b93506113f3818560208601611655565b6113fc816117d5565b840191505092915050565b6114108161163c565b82525050565b61141f8161163c565b82525050565b600060208201905061143a60008301846112a4565b92915050565b60006020820190506114556000830184611295565b92915050565b6000602082019050818103600083015261147581846112b3565b905092915050565b600060208201905081810360008301526114978184611328565b905092915050565b60006020820190506114b46000830184611386565b92915050565b600060208201905081810360008301526114d481846113ce565b905092915050565b60006020820190506114f16000830184611416565b92915050565b6000611501611512565b905061150d82826116ba565b919050565b6000604051905090565b600067ffffffffffffffff82111561153757611536611792565b5b611540826117d5565b9050602081019050919050565b6000819050602082019050919050565b6000819050602082019050919050565b600081519050919050565b600081519050919050565b600081519050919050565b6000602082019050919050565b6000602082019050919050565b600082825260208201905092915050565b600082825260208201905092915050565b600082825260208201905092915050565b600082825260208201905092915050565b60006115f78261161c565b9050919050565b60006116098261161c565b9050919050565b60008115159050919050565b600073ffffffffffffffffffffffffffffffffffffffff82169050919050565b6000819050919050565b82818337600083830152505050565b60005b83811015611673578082015181840152602081019050611658565b83811115611682576000848401525b50505050565b600060028204905060018216806116a057607f821691505b602082108114156116b4576116b3611763565b5b50919050565b6116c3826117d5565b810181811067ffffffffffffffff821117156116e2576116e1611792565b5b80604052505050565b60006116f68261163c565b91507fffffffffffffffffffffffffffffffffffffffffffffffffffffffffffffffff82141561172957611728611734565b5b600182019050919050565b7f4e487b7100000000000000000000000000000000000000000000000000000000600052601160045260246000fd5b7f4e487b7100000000000000000000000000000000000000000000000000000000600052602260045260246000fd5b7f4e487b7100000000000000000000000000000000000000000000000000000000600052604160045260246000fd5b600080fd5b600080fd5b600080fd5b600080fd5b6000601f19601f8301169050919050565b6117ef816115ec565b81146117fa57600080fd5b50565b6118068161163c565b811461181157600080fd5b5056fea2646970667358221220073b68bb9a47623452105aacf465ef0e648bbfff29d0a8306e6a225c660771a064736f6c63430008060033",
  "immutableReferences": {},
  "source": "// SPDX-License-Identifier: MIT\npragma solidity ^0.8.0;\n\nimport \"../core/EthDropBase.sol\";\n\ncontract RecipientsManager is EthDropBase {\n\n    event EligibleRecipientAdded(address indexed account, uint groupId);\n    event EligibleRecipientRemoved(address indexed account, uint groupId);\n\n    event RecipientRegistered(address indexed account, uint groupId);\n    event WinningsClaimed(address indexed account, uint groupId);\n\n    constructor() {}\n\n    modifier onlyEligibleRecipients(uint groupId) {\n        require(isEligibleRecipient(msg.sender, groupId));\n        _;\n    }\n\n    function isEligibleRecipient(address account, uint groupId)\n        public\n        view\n        whenNotPaused\n        returns (bool)\n    {\n        return eligibleRecipients[groupId][account] == true;\n    }\n\n    modifier onlyRegisteredRecipients(uint groupId) {\n        require(isRegisteredRecipient(msg.sender, groupId));\n        _;\n    }\n\n    function isRegisteredRecipient(address account, uint groupId)\n        public\n        view\n        whenNotPaused\n        returns (bool)\n    {\n        return registeredRecipients[groupId][account] == true;\n    }\n\n    function registerForEvent(uint groupId)\n        external\n        onlyEligibleRecipients(groupId)\n        whenNotPaused\n    {\n        \n        registeredRecipients[groupId][msg.sender] = true;\n        registeredRecipientsArray[groupId].push(msg.sender);\n        currentEvents[groupId].registeredRecipientsCount++;\n\n        emit RecipientRegistered(msg.sender, groupId);\n    }\n\n    function claimWinnings(uint groupId)\n        external\n        onlyRegisteredRecipients(groupId)\n        whenNotPaused\n    {\n        pot[groupId].release(payable(msg.sender));\n        emit WinningsClaimed(msg.sender, groupId);\n    }\n}",
  "sourcePath": "/Users/jim/Git-Projects/EthDrop/contracts/roles/RecipientsManager.sol",
  "compiler": {
    "name": "solc",
    "version": "0.8.6+commit.11564f7e.Emscripten.clang"
  },
  "schemaVersion": "3.4.1",
  "updatedAt": "2021-07-21T22:58:28.456Z",
  "networkType": "ethereum",
  "devdoc": {
    "kind": "dev",
    "methods": {
      "pause()": {
        "details": "Called by any \"C-level\" role to pause the contract. Used only when  a bug or exploit is detected and we need to limit damage."
      },
      "setCEO(address)": {
        "details": "Assigns a new address to act as the CEO. Only available to the current CEO.",
        "params": {
          "_newCEO": "The address of the new CEO"
        }
      },
      "setCFO(address)": {
        "details": "Assigns a new address to act as the CFO. Only available to the current CEO.",
        "params": {
          "_newCFO": "The address of the new CFO"
        }
      },
      "setCOO(address)": {
        "details": "Assigns a new address to act as the COO. Only available to the current CEO.",
        "params": {
          "_newCOO": "The address of the new COO"
        }
      },
      "unpause()": {
        "details": "Unpauses the smart contract. Can only be called by the CEO, since  one reason we may pause the contract is when CFO or COO accounts are  compromised."
      }
    },
    "version": 1
  },
  "userdoc": {
    "kind": "user",
    "methods": {
      "unpause()": {
        "notice": "This is public rather than external so it can be called by  derived contracts."
      }
    },
    "version": 1
  }
}