{
  "contractName": "RecipientsManager",
  "abi": [
    {
      "inputs": [],
      "stateMutability": "nonpayable",
      "type": "constructor"
    },
    {
      "anonymous": false,
      "inputs": [
        {
          "indexed": false,
          "internalType": "bool",
          "name": "isPaused",
          "type": "bool"
        }
      ],
      "name": "AppPaused",
      "type": "event"
    },
    {
      "anonymous": false,
      "inputs": [],
      "name": "CfoUpdated",
      "type": "event"
    },
    {
      "anonymous": false,
      "inputs": [
        {
          "indexed": false,
          "internalType": "address",
          "name": "newContract",
          "type": "address"
        }
      ],
      "name": "ContractUpgrade",
      "type": "event"
    },
    {
      "anonymous": false,
      "inputs": [],
      "name": "CooUpdated",
      "type": "event"
    },
    {
      "anonymous": false,
      "inputs": [
        {
          "indexed": true,
          "internalType": "address",
          "name": "account",
          "type": "address"
        },
        {
          "indexed": false,
          "internalType": "uint256",
          "name": "groupId",
          "type": "uint256"
        }
      ],
      "name": "EligibleRecipientAdded",
      "type": "event"
    },
    {
      "anonymous": false,
      "inputs": [
        {
          "indexed": true,
          "internalType": "address",
          "name": "account",
          "type": "address"
        },
        {
          "indexed": false,
          "internalType": "uint256",
          "name": "groupId",
          "type": "uint256"
        }
      ],
      "name": "EligibleRecipientRemoved",
      "type": "event"
    },
    {
      "anonymous": false,
      "inputs": [
        {
          "indexed": true,
          "internalType": "address",
          "name": "account",
          "type": "address"
        },
        {
          "indexed": false,
          "internalType": "uint256",
          "name": "groupId",
          "type": "uint256"
        }
      ],
      "name": "RecipientRegistered",
      "type": "event"
    },
    {
      "anonymous": false,
      "inputs": [
        {
          "indexed": false,
          "internalType": "address",
          "name": "from",
          "type": "address"
        },
        {
          "indexed": false,
          "internalType": "address",
          "name": "to",
          "type": "address"
        }
      ],
      "name": "Transfer",
      "type": "event"
    },
    {
      "anonymous": false,
      "inputs": [
        {
          "indexed": true,
          "internalType": "address",
          "name": "account",
          "type": "address"
        },
        {
          "indexed": false,
          "internalType": "uint256",
          "name": "groupId",
          "type": "uint256"
        }
      ],
      "name": "WinningsClaimed",
      "type": "event"
    },
    {
      "inputs": [],
      "name": "ceoAddress",
      "outputs": [
        {
          "internalType": "address",
          "name": "",
          "type": "address"
        }
      ],
      "stateMutability": "view",
      "type": "function"
    },
    {
      "inputs": [],
      "name": "cfoAddress",
      "outputs": [
        {
          "internalType": "address",
          "name": "",
          "type": "address"
        }
      ],
      "stateMutability": "view",
      "type": "function"
    },
    {
      "inputs": [],
      "name": "cooAddress",
      "outputs": [
        {
          "internalType": "address",
          "name": "",
          "type": "address"
        }
      ],
      "stateMutability": "view",
      "type": "function"
    },
    {
      "inputs": [],
      "name": "getCFO",
      "outputs": [
        {
          "internalType": "address",
          "name": "",
          "type": "address"
        }
      ],
      "stateMutability": "view",
      "type": "function"
    },
    {
      "inputs": [],
      "name": "getCOO",
      "outputs": [
        {
          "internalType": "address",
          "name": "",
          "type": "address"
        }
      ],
      "stateMutability": "view",
      "type": "function"
    },
    {
      "inputs": [],
      "name": "getGlobalData",
      "outputs": [
        {
          "internalType": "bool",
          "name": "",
          "type": "bool"
        },
        {
          "internalType": "bool",
          "name": "",
          "type": "bool"
        },
        {
          "internalType": "bool",
          "name": "",
          "type": "bool"
        },
        {
          "internalType": "bool",
          "name": "",
          "type": "bool"
        },
        {
          "internalType": "uint256[]",
          "name": "",
          "type": "uint256[]"
        },
        {
          "internalType": "string[]",
          "name": "",
          "type": "string[]"
        }
      ],
      "stateMutability": "view",
      "type": "function"
    },
    {
      "inputs": [
        {
          "internalType": "uint256",
          "name": "groupId",
          "type": "uint256"
        }
      ],
      "name": "getGroupEventData",
      "outputs": [
        {
          "internalType": "uint256",
          "name": "",
          "type": "uint256"
        },
        {
          "internalType": "uint256",
          "name": "",
          "type": "uint256"
        },
        {
          "internalType": "uint256",
          "name": "",
          "type": "uint256"
        },
        {
          "internalType": "uint256",
          "name": "",
          "type": "uint256"
        },
        {
          "internalType": "uint256",
          "name": "",
          "type": "uint256"
        },
        {
          "internalType": "uint256",
          "name": "",
          "type": "uint256"
        },
        {
          "internalType": "address",
          "name": "",
          "type": "address"
        },
        {
          "internalType": "string",
          "name": "",
          "type": "string"
        },
        {
          "internalType": "string",
          "name": "",
          "type": "string"
        },
        {
          "internalType": "string",
          "name": "",
          "type": "string"
        },
        {
          "internalType": "string",
          "name": "",
          "type": "string"
        }
      ],
      "stateMutability": "view",
      "type": "function"
    },
    {
      "inputs": [
        {
          "internalType": "uint256",
          "name": "groupId",
          "type": "uint256"
        }
      ],
      "name": "getGroupEventUsersData",
      "outputs": [
        {
          "internalType": "address[]",
          "name": "",
          "type": "address[]"
        },
        {
          "internalType": "address[]",
          "name": "",
          "type": "address[]"
        },
        {
          "internalType": "address[]",
          "name": "",
          "type": "address[]"
        },
        {
          "internalType": "string[]",
          "name": "",
          "type": "string[]"
        },
        {
          "internalType": "string[]",
          "name": "",
          "type": "string[]"
        },
        {
          "internalType": "string[]",
          "name": "",
          "type": "string[]"
        }
      ],
      "stateMutability": "view",
      "type": "function"
    },
    {
      "inputs": [],
      "name": "isCEO",
      "outputs": [
        {
          "internalType": "bool",
          "name": "",
          "type": "bool"
        }
      ],
      "stateMutability": "view",
      "type": "function"
    },
    {
      "inputs": [],
      "name": "isCFO",
      "outputs": [
        {
          "internalType": "bool",
          "name": "",
          "type": "bool"
        }
      ],
      "stateMutability": "view",
      "type": "function"
    },
    {
      "inputs": [],
      "name": "isCOO",
      "outputs": [
        {
          "internalType": "bool",
          "name": "",
          "type": "bool"
        }
      ],
      "stateMutability": "view",
      "type": "function"
    },
    {
      "inputs": [],
      "name": "isPaused",
      "outputs": [
        {
          "internalType": "bool",
          "name": "",
          "type": "bool"
        }
      ],
      "stateMutability": "view",
      "type": "function"
    },
    {
      "inputs": [],
      "name": "pause",
      "outputs": [],
      "stateMutability": "nonpayable",
      "type": "function"
    },
    {
      "inputs": [],
      "name": "paused",
      "outputs": [
        {
          "internalType": "bool",
          "name": "",
          "type": "bool"
        }
      ],
      "stateMutability": "view",
      "type": "function"
    },
    {
      "inputs": [
        {
          "internalType": "address",
          "name": "_newCEO",
          "type": "address"
        }
      ],
      "name": "setCEO",
      "outputs": [],
      "stateMutability": "nonpayable",
      "type": "function"
    },
    {
      "inputs": [
        {
          "internalType": "address",
          "name": "_newCFO",
          "type": "address"
        }
      ],
      "name": "setCFO",
      "outputs": [],
      "stateMutability": "nonpayable",
      "type": "function"
    },
    {
      "inputs": [
        {
          "internalType": "address",
          "name": "_newCOO",
          "type": "address"
        }
      ],
      "name": "setCOO",
      "outputs": [],
      "stateMutability": "nonpayable",
      "type": "function"
    },
    {
      "inputs": [],
      "name": "unpause",
      "outputs": [
        {
          "internalType": "bool",
          "name": "",
          "type": "bool"
        }
      ],
      "stateMutability": "nonpayable",
      "type": "function"
    },
    {
      "inputs": [],
      "name": "whoami",
      "outputs": [
        {
          "internalType": "address",
          "name": "",
          "type": "address"
        }
      ],
      "stateMutability": "view",
      "type": "function"
    },
    {
      "inputs": [
        {
          "internalType": "address",
          "name": "account",
          "type": "address"
        },
        {
          "internalType": "uint256",
          "name": "groupId",
          "type": "uint256"
        }
      ],
      "name": "isEligibleRecipient",
      "outputs": [
        {
          "internalType": "bool",
          "name": "",
          "type": "bool"
        }
      ],
      "stateMutability": "view",
      "type": "function"
    },
    {
      "inputs": [
        {
          "internalType": "uint256",
          "name": "groupId",
          "type": "uint256"
        }
      ],
      "name": "amIEligibleRecipient",
      "outputs": [
        {
          "internalType": "bool",
          "name": "",
          "type": "bool"
        }
      ],
      "stateMutability": "view",
      "type": "function"
    },
    {
      "inputs": [
        {
          "internalType": "address",
          "name": "account",
          "type": "address"
        },
        {
          "internalType": "uint256",
          "name": "groupId",
          "type": "uint256"
        }
      ],
      "name": "isRegisteredRecipient",
      "outputs": [
        {
          "internalType": "bool",
          "name": "",
          "type": "bool"
        }
      ],
      "stateMutability": "view",
      "type": "function"
    },
    {
      "inputs": [
        {
          "internalType": "uint256",
          "name": "groupId",
          "type": "uint256"
        }
      ],
      "name": "amIRegisteredRecipient",
      "outputs": [
        {
          "internalType": "bool",
          "name": "",
          "type": "bool"
        }
      ],
      "stateMutability": "view",
      "type": "function"
    },
    {
      "inputs": [
        {
          "internalType": "uint256",
          "name": "groupId",
          "type": "uint256"
        }
      ],
      "name": "registerForEvent",
      "outputs": [],
      "stateMutability": "nonpayable",
      "type": "function"
    },
    {
      "inputs": [
        {
          "internalType": "uint256",
          "name": "groupId",
          "type": "uint256"
        }
      ],
      "name": "doIHaveClaimableWinnings",
      "outputs": [
        {
          "internalType": "bool",
          "name": "",
          "type": "bool"
        }
      ],
      "stateMutability": "view",
      "type": "function"
    },
    {
      "inputs": [
        {
          "internalType": "uint256",
          "name": "groupId",
          "type": "uint256"
        }
      ],
      "name": "claimWinnings",
      "outputs": [],
      "stateMutability": "nonpayable",
      "type": "function"
    },
    {
      "inputs": [
        {
          "internalType": "uint256",
          "name": "groupId",
          "type": "uint256"
        }
      ],
      "name": "getEligibleRecipientAddresses",
      "outputs": [
        {
          "internalType": "address[]",
          "name": "",
          "type": "address[]"
        }
      ],
      "stateMutability": "view",
      "type": "function"
    },
    {
      "inputs": [
        {
          "internalType": "uint256",
          "name": "groupId",
          "type": "uint256"
        }
      ],
      "name": "getEligibleRecipientNames",
      "outputs": [
        {
          "internalType": "string[]",
          "name": "",
          "type": "string[]"
        }
      ],
      "stateMutability": "view",
      "type": "function"
    },
    {
      "inputs": [
        {
          "internalType": "uint256",
          "name": "groupId",
          "type": "uint256"
        }
      ],
      "name": "getRegisteredRecipientNames",
      "outputs": [
        {
          "internalType": "string[]",
          "name": "",
          "type": "string[]"
        }
      ],
      "stateMutability": "view",
      "type": "function"
    },
    {
      "inputs": [
        {
          "internalType": "uint256",
          "name": "groupId",
          "type": "uint256"
        }
      ],
      "name": "getEligibleRecipientIsEligibilityEnabled",
      "outputs": [
        {
          "internalType": "bool[]",
          "name": "",
          "type": "bool[]"
        }
      ],
      "stateMutability": "view",
      "type": "function"
    },
    {
      "inputs": [
        {
          "internalType": "uint256",
          "name": "groupId",
          "type": "uint256"
        }
      ],
      "name": "getRegisteredRecipients",
      "outputs": [
        {
          "internalType": "address[]",
          "name": "",
          "type": "address[]"
        }
      ],
      "stateMutability": "view",
      "type": "function"
    },
    {
      "inputs": [
        {
          "internalType": "string",
          "name": "groupName",
          "type": "string"
        },
        {
          "internalType": "string",
          "name": "location",
          "type": "string"
        },
        {
          "internalType": "string",
          "name": "contactInfo",
          "type": "string"
        }
      ],
      "name": "suggestNewGroup",
      "outputs": [],
      "stateMutability": "nonpayable",
      "type": "function"
    },
    {
      "inputs": [],
      "name": "getNewGroupSuggestions",
      "outputs": [
        {
          "internalType": "string[]",
          "name": "",
          "type": "string[]"
        },
        {
          "internalType": "string[]",
          "name": "",
          "type": "string[]"
        },
        {
          "internalType": "string[]",
          "name": "",
          "type": "string[]"
        },
        {
          "internalType": "bool[]",
          "name": "",
          "type": "bool[]"
        }
      ],
      "stateMutability": "view",
      "type": "function"
    }
  ],
  "bytecode": "0x6080604052600080546001600160a01b031916331790556002805460ff60a01b19169055600560035534801561003457600080fd5b50612124806100446000396000f3fe608060405234801561001057600080fd5b50600436106101bb5760003560e01c80635c975abb116100fa5780639393ae371161009d5780639393ae37146103fc5780639bda87961461040f578063b047fb5014610422578063b187bd2614610435578063b3b36bb314610447578063e513b7a91461044d578063f4a02e7014610460578063f89e9cb914610473578063fc5fd6e41461048657600080fd5b80635c975abb146103695780635e82c1fc1461037d578063677bd9ff146103905780636a034021146103a35780637b936ac2146103bd5780637d2b3ba2146103ce5780637d837ce5146103e15780638456cb59146103f457600080fd5b80633f4ba83a116101625780633f4ba83a14610299578063406db843146102a157806344b2983b146102b4578063454432e2146102d45780634635509b146102e75780634e0a33791461031157806355b57ec1146103245780635624aab01461034457600080fd5b80630519ce79146101c057806306cc4922146101f057806307bfa330146102135780630a0f81681461023357806319a2394d1461024657806327d7874c1461025e5780632ba73c151461027357806338f0b65614610286575b600080fd5b6001546101d3906001600160a01b031681565b6040516001600160a01b0390911681526020015b60405180910390f35b6102036101fe366004611d05565b610497565b60405190151581526020016101e7565b610226610221366004611d05565b6104c3565b6040516101e79190611ede565b6000546101d3906001600160a01b031681565b61024e6105af565b6040516101e79493929190611ef1565b61027161026c366004611c31565b6108b6565b005b610271610281366004611c31565b610902565b610203610294366004611d05565b610973565b610203610997565b6102716102af366004611d05565b610a17565b6102c76102c2366004611d05565b610bbb565b6040516101e79190611e36565b6102266102e2366004611d05565b610c27565b6102fa6102f5366004611d05565b610d08565b6040516101e79b9a99989796959493929190611fc7565b61027161031f366004611c31565b611082565b610337610332366004611d05565b6110f3565b6040516101e79190611ecb565b610357610352366004611d05565b611173565b6040516101e796959493929190611e49565b60025461020390600160a01b900460ff1681565b61020361038b366004611c53565b61155b565b61027161039e366004611d05565b6115a7565b6103ab6116bd565b6040516101e796959493929190611f49565b6001546001600160a01b03166101d3565b6102716103dc366004611c7d565b611845565b6102036103ef366004611c53565b611960565b6102716119aa565b6001546001600160a01b03163314610203565b6102c761041d366004611d05565b611a4b565b6002546101d3906001600160a01b031681565b600254600160a01b900460ff16610203565b336101d3565b6000546001600160a01b03163314610203565b6002546001600160a01b03163314610203565b610203610481366004611d05565b611ab5565b6002546001600160a01b03166101d3565b600254600090600160a01b900460ff16156104b157600080fd5b6104bb338361155b565b90505b919050565b6060601f6000838152602001908152602001600020805480602002602001604051908101604052809291908181526020016000905b828210156105a45783829060005260206000200180546105179061205e565b80601f01602080910402602001604051908101604052809291908181526020018280546105439061205e565b80156105905780601f1061056557610100808354040283529160200191610590565b820191906000526020600020905b81548152906001019060200180831161057357829003601f168201915b5050505050815260200190600101906104f8565b505050509050919050565b606080606080600660076008600983805480602002602001604051908101604052809291908181526020016000905b8282101561068a5783829060005260206000200180546105fd9061205e565b80601f01602080910402602001604051908101604052809291908181526020018280546106299061205e565b80156106765780601f1061064b57610100808354040283529160200191610676565b820191906000526020600020905b81548152906001019060200180831161065957829003601f168201915b5050505050815260200190600101906105de565b50505050935082805480602002602001604051908101604052809291908181526020016000905b8282101561075d5783829060005260206000200180546106d09061205e565b80601f01602080910402602001604051908101604052809291908181526020018280546106fc9061205e565b80156107495780601f1061071e57610100808354040283529160200191610749565b820191906000526020600020905b81548152906001019060200180831161072c57829003601f168201915b5050505050815260200190600101906106b1565b50505050925081805480602002602001604051908101604052809291908181526020016000905b828210156108305783829060005260206000200180546107a39061205e565b80601f01602080910402602001604051908101604052809291908181526020018280546107cf9061205e565b801561081c5780601f106107f15761010080835404028352916020019161081c565b820191906000526020600020905b8154815290600101906020018083116107ff57829003601f168201915b505050505081526020019060010190610784565b505050509150808054806020026020016040519081016040528092919081815260200182805480156108a157602002820191906000526020600020906000905b825461010083900a900460ff1615158152602060019283018181049485019490930390920291018084116108705790505b50505050509050935093509350935090919293565b6000546001600160a01b031633146108cd57600080fd5b6001600160a01b0381166108e057600080fd5b600080546001600160a01b0319166001600160a01b0392909216919091179055565b6000546001600160a01b0316331461091957600080fd5b6001600160a01b03811661092c57600080fd5b600280546001600160a01b0319166001600160a01b0383161790556040517fa308298a77084def994b565be25bff2e8fbfe7006c2c6b2bacfb84d1ba1f635090600090a150565b600254600090600160a01b900460ff161561098d57600080fd5b6104bb3383611960565b600080546001600160a01b031633146109af57600080fd5b600254600160a01b900460ff166109c557600080fd5b6002805460ff60a01b19169055604051600081527fedcd3d1311c56a1f814f5b4de26e8fb77f2db3563b9fc81138c17fd630e4876e9060200160405180910390a150600254600160a01b900460ff1690565b80610a22338261155b565b610a2b57600080fd5b600254600160a01b900460ff1615610a4257600080fd5b60008281526020808052604080832033808552908352818420805460ff19166001908117909155868552602184528285208054918201815585528385200180546001600160a01b03191682179055858452601c835281842090845290915281208054610aad9061205e565b80601f0160208091040260200160405190810160405280929190818152602001828054610ad99061205e565b8015610b265780601f10610afb57610100808354040283529160200191610b26565b820191906000526020600020905b815481529060010190602001808311610b0957829003601f168201915b5050506000868152601f6020908152604082208054600181018255908352918190208551959650610b5e959201935085019150611af4565b506000838152600a60205260408120600301805491610b7c83612099565b909155505060405183815233907f0695e999be8100bdb5bee8612337296508d527eae78c65b8f170eacb5a3b439d9060200160405180910390a2505050565b600081815260216020908152604091829020805483518184028101840190945280845260609392830182828015610c1b57602002820191906000526020600020905b81546001600160a01b03168152600190910190602001808311610bfd575b50505050509050919050565b6060601a6000838152602001908152602001600020805480602002602001604051908101604052809291908181526020016000905b828210156105a4578382906000526020600020018054610c7b9061205e565b80601f0160208091040260200160405190810160405280929190818152602001828054610ca79061205e565b8015610cf45780601f10610cc957610100808354040283529160200191610cf4565b820191906000526020600020905b815481529060010190602001808311610cd757829003601f168201915b505050505081526020019060010190610c5c565b60008060008060008060006060806060806000600a60008e8152602001908152602001600020604051806101800160405290816000820154815260200160018201548152602001600282015481526020016003820154815260200160048201548152602001600582015481526020016006820160009054906101000a90046001600160a01b03166001600160a01b03166001600160a01b03168152602001600782018054610db59061205e565b80601f0160208091040260200160405190810160405280929190818152602001828054610de19061205e565b8015610e2e5780601f10610e0357610100808354040283529160200191610e2e565b820191906000526020600020905b815481529060010190602001808311610e1157829003601f168201915b5050509183525050600882015460209091019060ff166003811115610e5557610e556120c2565b6003811115610e6657610e666120c2565b8152602001600982018054610e7a9061205e565b80601f0160208091040260200160405190810160405280929190818152602001828054610ea69061205e565b8015610ef35780601f10610ec857610100808354040283529160200191610ef3565b820191906000526020600020905b815481529060010190602001808311610ed657829003601f168201915b50505050508152602001600a82018054610f0c9061205e565b80601f0160208091040260200160405190810160405280929190818152602001828054610f389061205e565b8015610f855780601f10610f5a57610100808354040283529160200191610f85565b820191906000526020600020905b815481529060010190602001808311610f6857829003601f168201915b50505050508152602001600b82018054610f9e9061205e565b80601f0160208091040260200160405190810160405280929190818152602001828054610fca9061205e565b80156110175780601f10610fec57610100808354040283529160200191611017565b820191906000526020600020905b815481529060010190602001808311610ffa57829003601f168201915b50505050508152505090508060000151816020015182604001518360a00151846060015185608001518660c001518760e001518861012001518961014001518a61016001519b509b509b509b509b509b509b509b509b509b509b505091939597999b90929496989a50565b6000546001600160a01b0316331461109957600080fd5b6001600160a01b0381166110ac57600080fd5b600180546001600160a01b0319166001600160a01b0383161790556040517f162e32528b5907ecf876b3b7a4e5e0edf878642e3ec25852e3c35af1a4e1c04090600090a150565b6000818152601b6020908152604091829020805483518184028101840190945280845260609392830182828015610c1b57602002820191906000526020600020906000905b825461010083900a900460ff161515815260206001928301818104948501949093039092029101808411611138575094979650505050505050565b600081815260196020908152604080832060218352818420601e8452828520601a8552838620601f8652848720601d87529685902084548651818902810189019097528087526060988998899889988998899891979096919590949391929188919083018282801561120e57602002820191906000526020600020905b81546001600160a01b031681526001909101906020018083116111f0575b505050505095508480548060200260200160405190810160405280929190818152602001828054801561126a57602002820191906000526020600020905b81546001600160a01b0316815260019091019060200180831161124c575b50505050509450838054806020026020016040519081016040528092919081815260200182805480156112c657602002820191906000526020600020905b81546001600160a01b031681526001909101906020018083116112a8575b5050505050935082805480602002602001604051908101604052809291908181526020016000905b8282101561139a57838290600052602060002001805461130d9061205e565b80601f01602080910402602001604051908101604052809291908181526020018280546113399061205e565b80156113865780601f1061135b57610100808354040283529160200191611386565b820191906000526020600020905b81548152906001019060200180831161136957829003601f168201915b5050505050815260200190600101906112ee565b50505050925081805480602002602001604051908101604052809291908181526020016000905b8282101561146d5783829060005260206000200180546113e09061205e565b80601f016020809104026020016040519081016040528092919081815260200182805461140c9061205e565b80156114595780601f1061142e57610100808354040283529160200191611459565b820191906000526020600020905b81548152906001019060200180831161143c57829003601f168201915b5050505050815260200190600101906113c1565b50505050915080805480602002602001604051908101604052809291908181526020016000905b828210156115405783829060005260206000200180546114b39061205e565b80601f01602080910402602001604051908101604052809291908181526020018280546114df9061205e565b801561152c5780601f106115015761010080835404028352916020019161152c565b820191906000526020600020905b81548152906001019060200180831161150f57829003601f168201915b505050505081526020019060010190611494565b50505050905095509550955095509550955091939550919395565b600254600090600160a01b900460ff161561157557600080fd5b5060008181526018602090815260408083206001600160a01b038616845290915290205460ff16151560011492915050565b806115b23382611960565b6115bb57600080fd5b6000828152600e602090815260408083203380855292529091205483919060ff161515600114156115eb57600080fd5b600254600160a01b900460ff161561160257600080fd5b6000848152600e602090815260408083203384528252808320805460ff19166001179055868352600a909152812060050180549161163f83612099565b90915550506000848152600a6020526040808220600201549051339282156108fc02929190818181858888f19350505050158015611681573d6000803e3d6000fd5b5060405184815233907f1a31e733a172afcf46074b3106c17f0c298e226442682a03c1e99ce256139ec29060200160405180910390a250505050565b6000806000806060806116dc600054336001600160a01b039091161490565b6002546001600160a01b031633146001546001600160a01b03163314600260149054906101000a900460ff16600460058180548060200260200160405190810160405280929190818152602001828054801561175757602002820191906000526020600020905b815481526020019060010190808311611743575b5050505050915080805480602002602001604051908101604052809291908181526020016000905b8282101561182b57838290600052602060002001805461179e9061205e565b80601f01602080910402602001604051908101604052809291908181526020018280546117ca9061205e565b80156118175780601f106117ec57610100808354040283529160200191611817565b820191906000526020600020905b8154815290600101906020018083116117fa57829003601f168201915b50505050508152602001906001019061177f565b505050509050955095509550955095509550909192939495565b600680546001810182556000919091528351611888917ff652222313e28459528d920b65115c16c04f3efc82aaedc97be59f3f377c0d3f01906020860190611af4565b506007805460018101825560009190915282516118cc917fa66cc928b5edb82af9bd49922954155ab7b0942694bea4ce44661d9a8736c68801906020850190611af4565b50600880546001810182556000919091528151611910917ff3f7a9fe364faab93b216da50a3214154f22a0a2b415b23a84c8169e8b636ee301906020840190611af4565b5050600980546001810182556000919091527f6e1540171b6c0c960b71a7020d9f60077f6af931a8bbf590da0223dacf75c7af60208204018054601f9092166101000a60ff021990911690555050565b600254600090600160a01b900460ff161561197a57600080fd5b506000818152602080805260408083206001600160a01b038616845290915290205460ff16151560011492915050565b6002546001600160a01b03163314806119cd57506000546001600160a01b031633145b806119e257506001546001600160a01b031633145b6119eb57600080fd5b600254600160a01b900460ff1615611a0257600080fd5b6002805460ff60a01b1916600160a01b179055604051600181527fedcd3d1311c56a1f814f5b4de26e8fb77f2db3563b9fc81138c17fd630e4876e9060200160405180910390a1565b600081815260196020908152604091829020805483518184028101840190945280845260609392830182828015610c1b576020028201919060005260206000209081546001600160a01b03168152600190910190602001808311610bfd5750505050509050919050565b6000611ac13383611960565b611acd57506000919050565b506000908152600e6020908152604080832033845290915290205460ff1615156001141590565b828054611b009061205e565b90600052602060002090601f016020900481019282611b225760008555611b68565b82601f10611b3b57805160ff1916838001178555611b68565b82800160010185558215611b68579182015b82811115611b68578251825591602001919060010190611b4d565b50611b74929150611b78565b5090565b5b80821115611b745760008155600101611b79565b80356001600160a01b03811681146104be57600080fd5b600082601f830112611bb557600080fd5b813567ffffffffffffffff80821115611bd057611bd06120d8565b604051601f8301601f19908116603f01168101908282118183101715611bf857611bf86120d8565b81604052838152866020858801011115611c1157600080fd5b836020870160208301376000602085830101528094505050505092915050565b600060208284031215611c4357600080fd5b611c4c82611b8d565b9392505050565b60008060408385031215611c6657600080fd5b611c6f83611b8d565b946020939093013593505050565b600080600060608486031215611c9257600080fd5b833567ffffffffffffffff80821115611caa57600080fd5b611cb687838801611ba4565b94506020860135915080821115611ccc57600080fd5b611cd887838801611ba4565b93506040860135915080821115611cee57600080fd5b50611cfb86828701611ba4565b9150509250925092565b600060208284031215611d1757600080fd5b5035919050565b600081518084526020808501945080840160005b83811015611d575781516001600160a01b031687529582019590820190600101611d32565b509495945050505050565b600081518084526020808501945080840160005b83811015611d57578151151587529582019590820190600101611d76565b600081518084526020808501808196508360051b8101915082860160005b85811015611ddc578284038952611dca848351611de9565b98850198935090840190600101611db2565b5091979650505050505050565b6000815180845260005b81811015611e0f57602081850181015186830182015201611df3565b81811115611e21576000602083870101525b50601f01601f19169290920160200192915050565b602081526000611c4c6020830184611d1e565b60c081526000611e5c60c0830189611d1e565b8281036020840152611e6e8189611d1e565b90508281036040840152611e828188611d1e565b90508281036060840152611e968187611d94565b90508281036080840152611eaa8186611d94565b905082810360a0840152611ebe8185611d94565b9998505050505050505050565b602081526000611c4c6020830184611d62565b602081526000611c4c6020830184611d94565b608081526000611f046080830187611d94565b8281036020840152611f168187611d94565b90508281036040840152611f2a8186611d94565b90508281036060840152611f3e8185611d62565b979650505050505050565b600060c0820188151583526020881515818501528715156040850152861515606085015260c0608085015281865180845260e086019150828801935060005b81811015611fa457845183529383019391830191600101611f88565b505084810360a0860152611fb88187611d94565b9b9a5050505050505050505050565b60006101608d83528c60208401528b60408401528a60608401528960808401528860a084015260018060a01b03881660c08401528060e084015261200d81840188611de9565b90508281036101008401526120228187611de9565b90508281036101208401526120378186611de9565b905082810361014084015261204c8185611de9565b9e9d5050505050505050505050505050565b600181811c9082168061207257607f821691505b6020821081141561209357634e487b7160e01b600052602260045260246000fd5b50919050565b60006000198214156120bb57634e487b7160e01b600052601160045260246000fd5b5060010190565b634e487b7160e01b600052602160045260246000fd5b634e487b7160e01b600052604160045260246000fdfea2646970667358221220a07397cb0ee626a4a8bba91609a8f0b565a5899963dc9da89471550393d266ec64736f6c63430008070033",
  "immutableReferences": {},
  "source": "// SPDX-License-Identifier: MIT\npragma solidity ^0.8.0;\n\nimport \"../core/EthDropBase.sol\";\n\ncontract RecipientsManager is EthDropBase {\n    event EligibleRecipientAdded(address indexed account, uint256 groupId);\n    event EligibleRecipientRemoved(address indexed account, uint256 groupId);\n\n    event RecipientRegistered(address indexed account, uint256 groupId);\n    event WinningsClaimed(address indexed account, uint256 groupId);\n\n    constructor() {}\n\n    modifier onlyEligibleRecipients(uint256 groupId) {\n        require(isEligibleRecipient(msg.sender, groupId));\n        _;\n    }\n\n    function isEligibleRecipient(address account, uint256 groupId)\n        public\n        view\n        whenNotPaused\n        returns (bool)\n    {\n        return eligibleRecipients[groupId][account] == true;\n    }\n\n    function amIEligibleRecipient(uint256 groupId)\n        external\n        view\n        whenNotPaused\n        returns (bool)\n    {\n        return isEligibleRecipient(msg.sender, groupId);\n    }\n\n    modifier onlyRegisteredRecipients(uint256 groupId) {\n        require(isRegisteredRecipient(msg.sender, groupId));\n        _;\n    }\n\n    modifier hasntAlreadyClaimedWinnings(uint256 groupId, address account) {\n        require(winningsCollected[groupId][msg.sender] != true);\n        _;\n    }\n\n    function isRegisteredRecipient(address account, uint256 groupId)\n        public\n        view\n        whenNotPaused\n        returns (bool)\n    {\n        return registeredRecipients[groupId][account] == true;\n    }\n\n    function amIRegisteredRecipient(uint256 groupId)\n        external\n        view\n        whenNotPaused\n        returns (bool)\n    {\n        return isRegisteredRecipient(msg.sender, groupId);\n    }\n\n    function registerForEvent(uint256 groupId)\n        external\n        onlyEligibleRecipients(groupId)\n        whenNotPaused\n    {\n        registeredRecipients[groupId][msg.sender] = true;\n        registeredRecipientAddressesArray[groupId].push(msg.sender);\n\n        string memory name = recipientAddressToName[groupId][msg.sender];\n\n        registeredRecipientNamesArray[groupId].push(name);\n\n        currentEvents[groupId].numberOfUsersCurrentlyRegistered++;\n\n        emit RecipientRegistered(msg.sender, groupId);\n    }\n\n    function doIHaveClaimableWinnings(uint256 groupId)\n        external\n        view\n        returns (bool)\n    {\n        if (!isRegisteredRecipient(msg.sender, groupId)) {\n            return false;\n        }\n\n        return winningsCollected[groupId][msg.sender] != true;\n    }\n\n    function claimWinnings(uint256 groupId)\n        external\n        onlyRegisteredRecipients(groupId)\n        hasntAlreadyClaimedWinnings(groupId, msg.sender)\n        whenNotPaused\n    {\n        winningsCollected[groupId][msg.sender] = true;\n        currentEvents[groupId].numberOfUsersWhoClaimedWinnings++;\n\n        payable(msg.sender).transfer(currentEvents[groupId].weiWinnings);\n\n        emit WinningsClaimed(msg.sender, groupId);\n    }\n\n    function getEligibleRecipientAddresses(uint256 groupId)\n        external\n        view\n        returns (address[] memory)\n    {\n        return eligibleRecipientAddressesArray[groupId];\n    }\n\n    function getEligibleRecipientNames(uint256 groupId)\n        external\n        view\n        returns (string[] memory)\n    {\n        return eligibleRecipientNamesArray[groupId];\n    }\n\n    function getRegisteredRecipientNames(uint256 groupId)\n        external\n        view\n        returns (string[] memory)\n    {\n        return registeredRecipientNamesArray[groupId];\n    }\n\n    function getEligibleRecipientIsEligibilityEnabled(uint256 groupId)\n        external\n        view\n        returns (bool[] memory)\n    {\n        return eligibleRecipientsEligibilityIsEnabled[groupId];\n    }\n\n    function getRegisteredRecipients(uint256 groupId)\n        external\n        view\n        returns (address[] memory)\n    {\n        return registeredRecipientAddressesArray[groupId];\n    }\n\n    function suggestNewGroup(\n        string memory groupName,\n        string memory location,\n        string memory contactInfo\n    ) external {\n        suggestedGroupNames.push(groupName);\n        suggestedGroupLocations.push(location);\n        suggestedGroupContacts.push(contactInfo);\n        suggestedGroupAlreadyCreated.push(false);\n    }\n\n    function getNewGroupSuggestions()\n        external\n        view\n        returns (\n            string[] memory,\n            string[] memory,\n            string[] memory,\n            bool[] memory\n        )\n    {\n        return (\n            suggestedGroupNames,\n            suggestedGroupLocations,\n            suggestedGroupContacts,\n            suggestedGroupAlreadyCreated\n        );\n    }    \n\n\n\n}\n",
  "sourcePath": "/Users/jim/v2-client-ethDrop/EthDrop/contracts/roles/RecipientsManager.sol",
  "compiler": {
    "name": "solc",
    "version": "0.8.7+commit.e28d00a7.Emscripten.clang"
  },
  "schemaVersion": "3.4.1",
  "updatedAt": "2021-09-05T19:56:19.668Z",
  "devdoc": {
    "kind": "dev",
    "methods": {
      "pause()": {
        "details": "Called by any \"C-level\" role to pause the contract. Used only when  a bug or exploit is detected and we need to limit damage."
      },
      "setCEO(address)": {
        "details": "Assigns a new address to act as the CEO. Only available to the current CEO.",
        "params": {
          "_newCEO": "The address of the new CEO"
        }
      },
      "setCFO(address)": {
        "details": "Assigns a new address to act as the CFO. Only available to the current CEO.",
        "params": {
          "_newCFO": "The address of the new CFO"
        }
      },
      "setCOO(address)": {
        "details": "Assigns a new address to act as the COO. Only available to the current CEO.",
        "params": {
          "_newCOO": "The address of the new COO"
        }
      },
      "unpause()": {
        "details": "Unpauses the smart contract. Can only be called by the CEO, since  one reason we may pause the contract is when CFO or COO accounts are  compromised."
      }
    },
    "version": 1
  },
  "userdoc": {
    "kind": "user",
    "methods": {
      "unpause()": {
        "notice": "This is public rather than external so it can be called by  derived contracts."
      }
    },
    "version": 1
  }
}